:020000040020DA
:10000000207300204DC221007DC2210081C2210049
:1000100085C2210085C2210085C2210000000000A8
:1000200000000000000000000000000085C2210068
:1000300085C221000000000085C2210055BF2100BB
:1000400085C2210085C2210085C2210085C2210010
:100050000000000085C22100636F210085C22100DD
:1000600085C2210000000000000000000000000028
:10007000000000000000000085C221000000000018
:10008000000000000000000085C2210085C22100A0
:1000900085C2210085C2210085C2210085C22100C0
:1000A00085C2210085C2210051552100B75521008C
:1000B00085C2210085C2210085C2210085C22100A0
:1000C00055C32100FD54210085C2210085C22100B5
:1000D00085C22100000000000000000000000000B8
:1000E0000000000000000000000000000000000010
:1000F00085C221000000000085C221000000000030
:100100002DE9F04794B0044602F018FB00254FF6A5
:10011000FE7A0028A946D04640F0ED80207FDFF827
:10012000886CE0B1DFF8000C0078410141EA800002
:100130002077FF20618802F07DFD50B1E08A40F019
:100140000400E0820125207F40F001004FF6FF7897
:1001500020773078002814BF01284FF040096088CC
:1001600000F070FF08B100206076A07E18B9DFF8BB
:100170003C0C0078A0762078DFF8AC7C010603D533
:1001800000F00300207006E0E07E20B93878E076C9
:100190003878401C3870207E01280BD1DFF88C0C99
:1001A000007828B1F87A002804BF2078002801D10F
:1001B000002020763078002818BF012818D1B87B9D
:1001C000800715D555B9608800F03CFF80B12078D4
:1001D00020B12069007800F003FF48B1E18AA07ED9
:1001E0004A0675D5012873D14FF6FB700840E082AE
:1001F0002078012802BF20690078022803D1E08A14
:1002000040F04000E082A07D400639D4002D37D177
:100210003078002818BF012832D1B87B80072FD54D
:100220006188607E4B46A21D04F0C4F828B100200E
:100230006076E08A40F02000E082A07970B16188A9
:1002400004F1080000F0A9F980466088804504BFE9
:100250000020A071E08A40F04000E0822078012870
:1002600004D0A18860884A4603F0D2FCA188608847
:100270004A4602F02CFF18B1E08A40F02000E082EC
:1002800004A9204600F0E1F8D045054608BFB4F8BF
:10029000028095B320789DF810308DF814000694F4
:1002A0004146608DADF8160005A8039094F82C0027
:1002B0000290E08A0190607D00902846FA8A00F062
:1002C00053F80446102C19D1284604F07DFA15E0A5
:1002D0008DF82E006088ADF82600A088ADF82800C3
:1002E000E07E8DF82F00627DA18807A803F022FE32
:1002F00000287FF47DAF112001E01024204614B0C7
:10030000BDE8F08710B58EB0044601A8342104F092
:100310008BFAA11C02A84A8802810988C18004F1D5
:1003200010010A7902760A6842620A7B42700A8BDF
:1003300082810A7A82704A7A8DF808204A8B428537
:100340000022087F8DF8340000A9FF208DF80000FE
:100350008DF801004FF0FF308DF8020001A804F085
:10036000E5FA00200EB010BD2DE9F04F804687B0B1
:100370000D4693469A462420102704F0BFF9002822
:1003800000905ED0242201F034FDDFF81C9A119C0D
:1003900099F800000026002818BF01280FD1284630
:1003A00004F05CFD40B10079012818BF032803D197
:1003B000600658BF44F48064600548BF0126DFF83A
:1003C000680A0099808C4881ADF818B00220009925
:1003D00008730099087200980580009880F81FA0A3
:1003E0000098109D45730098C0F82080ADF80A4031
:1003F0008DF80C50139AD2E90001CDE9040112984E
:100400008DF81A00314600A802F0ADF9012815D187
:1004100099F80000002818BF01280DD166B12846C0
:1004200002F0CBFA040007D02068008802F060FADE
:1004300010B1204602F01EFB002702E0009804F0F5
:10044000C3F9384607B0BDE8F08FF8B50E4604464C
:100450000820617F01B11020A17F01B10830217F08
:1004600001B1401CA17919B1217A4900891C0818F1
:100470006070207E0028DFF83009007814BF0E2558
:100480000025022802BFDFF8500C0078012808D1AF
:100490002078012805D0DFF8440C007810B1012045
:1004A00000E0002084F834006178207DDFF878795E
:1004B000081828183070207E28B1387B05F039FBE9
:1004C00031784018307030787528A8BF002662DA7D
:1004D00004F014F906005ED02078B97C40EA81006F
:1004E000617E01F0030140EA8110217F09B14FF4E0
:1004F00080710843217E40EA4120617F40EAC120AB
:10050000A17F40EA0130A17940EA812094F83410BB
:1005100040EA413080B230700827000A707060886D
:10052000B0706088000AF070A0883071A088000A5E
:100530007071A07EB071E07EF071607F28B1216A99
:1005400006F1080005F036FB1027A07F28B1616A8C
:10055000B81905F02FFB0837FFB2A07980B1207AD7
:10056000B855781CC0B2617A8155471C207AE16881
:10057000FFB24200B81905F021FB207A07EB4007D3
:10058000207F08B1FFB2B8556078227D21698019BB
:10059000281805F013FB3046F2BD30B583B0044691
:1005A0000D4601AA00A9284603F0FEF9A0B99DF85E
:1005B00000002070019860609DF8000048B1401E66
:1005C00060709DF80010019800EB410030F8020CBB
:1005D0003EBD607028463EBD4FF6FE703EBD2DE923
:1005E000F84304460F46154634220021284605F0FC
:1005F000FDFA0126082F62DB2F702078627800EB6D
:100600000220294680B200F06FF800B10026A078E1
:10061000E17800EB012068816179207900EB01200D
:10062000A881A079A874E079E87408206870E87956
:1006300018B104F1080000F0DAF8287A20B16878DF
:100640000019A86100F0D4F8002005F1240785F80E
:1006500020003860687920B16878015D6971401CBC
:100660006870687F38B36878411C6970005D85F8F0
:100670002000481CC9B2687095F82020095D85F8F3
:100680002110914215D2DFF8B41BDFF85C9C097889
:10069000914238BF0C22C0B24FEA420801194246CB
:1006A000484605F08BFAC7F80090687840446870B7
:1006B00001E00020687768782978814201D2002023
:1006C00010E002197A60081AA979287749B10E3822
:1006D000287702F10E00786000F08EF8297F081A62
:1006E00028773046BDE8F2838A1C00F003031370BC
:1006F000C0F38303537003069B0F9370430A03F008
:1007000001031371030A03F00103D370830A03F09A
:100710000103D376C30A03F001035371030B03F003
:1007200001039371420B02F0010281F83120800B2A
:10073000704710B5DFF8A8298479D37A00212CB14D
:10074000002B04BF8078002807D105E0002B1EBFD6
:100750004089D28A904200D00121084610BDF8B5E8
:1007600006460C4630781546727800EB0220294682
:1007700080B2FFF7B9FFB078F17800EB0120688113
:100780007179307900EB0120A881B079A874F079F3
:10079000E87408206870E87918B106F1080000F0E4
:1007A00026F8287A20B168788019A86100F020F82E
:1007B000687920B16878815D6971401C687028464D
:1007C000FFF7B7FF070010D16878AA79811912B92D
:1007D000A962201A08E001F10E00A86200F00CF8EE
:1007E0006978611A0E39081A28773846F2BD6861AF
:1007F0006878083068707047DFF88C0C007B05F073
:1008000098B910B5DFF8844C2146E22005F022FCAF
:10081000204610BDDFF8700CC08A7047DFF8680C06
:10082000408B704701464A2005F014BC38B5DFF80C
:10083000604C2578681C2070284602F0BEF800281D
:10084000F7D1002DF5D0284632BD2DE9F74F81466E
:100850009A4601F0ADFBDFF808670C9CDFF8C8B5DD
:10086000002705003078B8460BD1002C54D19DF8F4
:100870000820BDF80410484603B0BDE8F04F01F071
:10088000EABC94B3002818BF012805D1DFF8040C96
:100890008068010018BF8047BAF1000F08BF2F70B1
:1008A00037D03078002818BF012845D19BF80E00BA
:1008B000800741D5DFF8DC0BC268100002D051463A
:1008C00028469047DFF8D00B00782978421C9142E7
:1008D000BCBF491C2970297881422DD1484603F0BC
:1008E000D0FD012785F8018026E0BAF1000F0AD17A
:1008F000A8789DF8081008180004400CA870A87883
:1009000008B90120A870DFF8940BA9780078884214
:1009100012D24FF001080FE0012C0DD1BAF1000FF7
:100920000AD0002818BF012806D19BF80E008007C6
:1009300044BF484603F0A5FD3178DFF8580B007836
:10094000022908BF012C0BD1BAF1000F07D0DFF844
:100950004C3C1B78401CC0B2984201D301270020B8
:10096000DFF8303B187057EA080041D0002918BF63
:10097000012914D19BF80E00800710D5484604F0D9
:100980006DFA60B1B8F1000F03D0417901F0FE01BA
:1009900041716FB3417941F00101417100E03FB312
:1009A0003078002818BF01280ED19BF80E00800770
:1009B0000AD5484604F02CFA30B1494603B0BDE8E8
:1009C000F04F002004F0F1B8BBF81A0081450FD1B8
:1009D0004946012004F0E9F83078022808D103B034
:1009E000BDE8F04FDFF8100C0078012105F06DBC78
:1009F000BDE8F78FDFF8001C0B78012803D1012137
:100A0000184605F045BADFF8441C086020B10246DC
:100A10000121184605F02DBC0121184605F055BCF2
:100A2000DFF82C1C08807047DFF8CC1C088070476A
:100A300010B5DFF8F4237421212006F0D1F8044624
:100A400006F07EFC044300F04AFC18BF012802D1E6
:100A500004F090FB0443DFF8A40C0068010001D00F
:100A60008047044302F05BF9044307F0B7F92043E1
:100A700010BD80B507F0EFFC00F0A6F806F070FCA2
:100A8000DFF8DC040078002814BF012804F08BFB99
:100A9000DFF86C0C0068010018BF804702F050F9C5
:100AA000BDE8014007F038BA70B5DF4D82B02A4684
:100AB0007421212006F094F80024002850D12B4600
:100AC00074220021212006F0CAF9002848D105F13E
:100AD0000E064FF6FE713089884241D0307E0124E7
:100AE000082818BF042838D18DF8004000A94220FA
:100AF00005F0BEFA05F12F01432005F0B9FA05F122
:100B00002C01472005F0B4FA05F11C014A2005F03C
:100B1000AFFA05F11A014B2005F0AAFA05F12401FC
:100B2000502005F0A5FA05F11601532005F0A0FAB2
:100B300005F12D01542005F09BFA05F11801E12083
:100B400005F096FA3078C00800F001008DF800003A
:100B500000A9522005F08CFA02E007F07CFC00248A
:100B600006F0BEFBDFF8F8030078002814BF012868
:100B700004F004FCDFF8900C0068010018BF804707
:100B800002F016F9204676BD10B50446E00701D5FF
:100B900000F01AF8200748BF06F0B4FBDFF8C003E6
:100BA0000078002818BF012803D1A00748BF04F02F
:100BB0008AFC600707D5DFF8540C006801001CBFF1
:100BC000BDE81040004710BDDFF8BC38742200219A
:100BD000212006F044B8F0B5DFF8345CDFF8344C7F
:100BE000297887B001AA204609F09DF900208DF8E8
:100BF00008008DF80A00042104F031F8DFF8181C11
:100C00000E78B0421ED206F057FBD8B9DFF80C0CB4
:100C1000078837B10421032004F021F8F11B884232
:100C200002DA01208DF80800DFF8F40B078837B1ED
:100C30000221012004F013F8F11B884202DA01209E
:100C40008DF80A0021462A7801A809F041F92146C9
:100C5000452005F00DFA9DF80A0030B99DF80810FE
:100C600001B101218DF8001002E001208DF8000093
:100C7000DFF8641CDFF8902C097812789DF80000EA
:100C8000114008408DF8000000A9412005F0F0F95E
:100C900007B0F0BD70B504466348DFF8746BDFF849
:100CA000745B80F8724086B0317800AA284609F05B
:100CB0003AF932788DF81240294600A809F008F96F
:100CC0002946452005F0D4F906B070BD70B5DFF8AF
:100CD0003C5C044628884FF6FE71884222D11620DB
:100CE00004F0B4FF06001DD001203070A079002868
:100CF00014BF022001207070A06A4078B072000713
:100D00005CBFA08901F032FFA169B01C04F052FF62
:100D10000020F0743146DFF8E008007804F0B7FFF7
:100D2000A089288070BD0000EF4300202DE9F0412C
:100D300082B0054604208DF801000E46904600A8BA
:100D400000F057F90700DFF8C44B27D038690721B6
:100D50000170A98A4170A98A090A8170A97DC170B0
:100D60000120787705F10B0038620120B877FFF792
:100D700048FD78620120B876032E16BF012E4FF48D
:100D800088604020F882B8F1010F2088788004BF85
:100D900000203876384609F073F900E010204FF64D
:100DA000FE712180BDE8F681155300204EC121005F
:100DB00070B5DFF84458044628784FF4806105F098
:100DC00084FADFF8400CDFF8301900880880DFF87B
:100DD0008018DFF8580C008808800920DFF8A81672
:100DE00081F82600FFF70DFD0146606904F0D4FE8E
:100DF000C0B1102004F02AFF060013D0022030708A
:100E0000A06A4178827801EB02217180C07870700D
:100E10004A20A16905F02CF928783146BDE87040D8
:100E200004F035BF70BD0000AC4B0020DF43002054
:100E300038B5044602208DF8010000A800F0D9F86A
:100E400005003AD028690421017000214170217AFF
:100E5000012904BF20214170617A012903D1417821
:100E600041F040014170A17A012904D1417841F05B
:100E70008001417001E00120A876607A012805D147
:100E8000606808B10120687760682862E07A01280C
:100E900008BFE882208800F0D5F818B1E88A40F051
:100EA0000400E8820120A877FFF7ABFC6862208885
:100EB0006880284609F0E4F832BD102032BD7FB5C5
:100EC00004460D4600F087F8A86A4078002610F026
:100ED0001F0103D000F064FB00203FE0810644BF07
:100EE00001218DF80C10010644BF01218DF80B1073
:100EF000400603D501208DF80A0003E09DF80A00A2
:100F0000012803D1E87950B16E6902E0287A30B146
:100F1000AE6926B131460DF1020004F04BFEA889FE
:100F2000ADF800009DF80A00012813D1688900F08F
:100F300089F8002801BFA889DFF84C15498B884241
:100F40000BD13EB1FFF75DFC01460DF1020004F04C
:100F500023FE10B100A803F005FE204604B070BDCA
:100F60001553002010B5044692B020684189CA0785
:100F70002FD54FF6FE721140418104AA0068C17F4F
:100F8000006AFFF7ECFB002802BF0E9800780428E7
:100F90001FD100F020F8BDF81A00ADF800000E983F
:100FA0004078810644BF01218DF80B10010644BF33
:100FB00001218DF80A1040064CBF09990A990DF1DC
:100FC000020004F0F7FD20798DF80C0000A803F072
:100FD000C7FD12B010BD0E22002100A804F006BE0D
:100FE000002104281CBF0A28032800D1012108463B
:100FF000704710B5382101700121817009F06CF83B
:10100000040005D001202070A077FFF7FAFB606292
:10101000204610BDDFF87004807C7047DFF8BC0B01
:1010200000787047DFF8B41B087070470121020791
:1010300048BF03218007DFF8A80B48BF41F0040137
:10104000017070474FF6F87300210022C01A032880
:101050000BD9001F05D0401E05D0801E06D10122ED
:1010600004E0042202E0022200E00822DFF8700B14
:101070000078104218BF022101D102B101210846B7
:10108000704738B504460D4603F0EBFE00281CBF40
:10109000017900290ED005290CDA012D1CBF012988
:1010A000022902D1008802F05EFB2046BDE83240F2
:1010B00003F009BF31BD017821B94068002818BF8D
:1010C00009F064BD00207047054991F826100829F1
:1010D00008BF00F04EB87047125300201053002094
:1010E000AC4B002010B50021DFF8F82A02EB810399
:1010F0005B88834203D100F023F8C52010BD491C52
:10110000C9B20329F2DB00214FF6FE7402EB810322
:101110005B88A34207D0491CC9B20329F6DB002132
:1011200012F8213033B902EB8103588000F008F83F
:10113000002010BD491CC9B20329F1DBC72010BD36
:10114000DFF8A80C007802F8210070470021DFF8D2
:10115000942A02EB81035B88834204D112F8213088
:101160000BB101207047491CC9B20329F1DB0020F3
:101170007047F0B50546DFF8B40C0078002600286B
:1011800018BF01288BB040D1BF4FF88A854204D1E7
:10119000BDB300F03DF8012637E0284603F05EFEBF
:1011A00004002ED02079012818BF022829D18DF8FB
:1011B00000606088ADF80C0000A805F0F8FF00B3EF
:1011C0002088DFF848170880002002F093FA20807A
:1011D00001A90DF11B0004F0EDFC2088ADF82400FE
:1011E0008DF826600222217904A8FFF79FFD208850
:1011F000ADF80200012600A805F0FBFF0020E0602A
:1012000003E0B98C284600F086FE30460BB0F0BDF6
:1012100080B500F064F818BF01280ED1012002F05B
:101220007EFA9949ADF80000C88200A9532004F065
:101230001FFFBDF800000BF07BFB01BD40C121008A
:101240007FB504461226002C0D4646D08E48C08A33
:10125000844209D1FFF7D5FA0146284604F09CFCE8
:1012600000F0010080F0010600208DF80000ADF8CC
:10127000024000A805F044FF58B101A805F0C8FEDF
:10128000012806D101A9284604F086FC012600B1F8
:10129000002600F024F814BF0128122E05D129469B
:1012A000204603F07DFD00B100262946204600F0CF
:1012B0009BFE0A2808BF01260AD0A02806D129468D
:1012C000204600F099FF204600F0E9FF012E03D1EF
:1012D0000021204600F00AF8304604B070BDDFF867
:1012E0004C0B0078002870470851002038B50446A0
:1012F000FFF7F5FF18BF01280D460BD12046FFF779
:1013000038FF2B46214601B0BDE830400D224FF694
:10131000FC701BE031BD10B50446207A38B1A169DC
:10132000A089FFF78DFF012808BFA08908D0E079C8
:1013300050B161696089FFF783FF012804D160899A
:10134000FFF7D0FE012010BD002010BD2DE9F041B7
:1013500082B0044604208DF801000D4616461F4653
:1013600000F098F94FF00108A0B147B10021817752
:101370008580017841F0800101700021C17603224F
:1013800001690A702A0A4E708D70CA70448008F094
:1013900077FE80464046BDE8F6812DE9F8430446D5
:1013A0008846A06A90F801908178C07801EB00250A
:1013B000207F0126042802D000F0F2F860E0DFF878
:1013C0006C0A314F0078B9F1020F0AD9A9F1030272
:1013D000082A42D9093A34D0521E21D0521E3CD09C
:1013E00039E0002818BF012837D1B87B800734D5F1
:1013F0000021A8B202F04DFF00281EBF81791822FB
:10140000114208D0A1890091002243886189008897
:1014100003F012F813E00121A8B203F0DBFB1CE09B
:10142000002818BF012818D1B87B800715D5A8B2AD
:10143000FFF74AFEA8B2FFF755FEC5280DD10026DA
:101440000BE0002818BF012807D1B87B800704D51E
:101450000BF068FB01E04FF000086089AAB2494632
:1014600003F0F0FB6089FFF7EDFD48B1A07C022896
:1014700006DBA089F98A88421CBF002E404600D1B5
:101480000020BDE8F2830000AC4B00206C5200202D
:101490001A530020A051002042C12100D643002051
:1014A0002DE9F04585B004460A200D4690469A463F
:1014B00001268DF8010025B94FEA4A000A308DF85F
:1014C000010000F0E7F807002DD03E69092006F87A
:1014D000010B41464AEA451006F8010B304604F07C
:1014E00069FB06F1080175B90C98002209E030F893
:1014F000123001F8013B30F812301B0A01F8013BB1
:10150000521C5245F3DB0120B877FFF77AF900F05F
:101510001CF918B10120787701A838627C80384620
:1015200008F0AEFD0646304605B0BDE8F085FEB5D4
:101530000446A06A10F8017F461C314601A804F059
:1015400039FB01A9DFF8980B04F026FB07F01F0513
:10155000083608B3E02007421CD1680003F0CEF83B
:10156000070019D0002007E03178727801EB0221E2
:1015700027F81010B61C401CC0B2A842F4D3009744
:101580002B46A08901AA002100F00DF8384603F08F
:101590001BF9F7BD00F004F8F7BD0000DB430020A5
:1015A000D3200BF003BD2DE9F843DFF8845C04463B
:1015B0002868884691461F46D8B178000E3080B220
:1015C00004F044FB060014D0D4203070748086F8F8
:1015D00004804946701D04F0EDFA77737A0008998B
:1015E00006F10E0004F0EAFA29683046BDE8F4433B
:1015F0000847BDE8F18300007C5200207CB504461A
:10160000886A10F8015F05F01F01461C012917D1F7
:10161000314600A804F0CEFA00A9DFF8C40A04F0AD
:10162000BBFA083678B1E020054209D17078B1786C
:1016300000EB0121307889B200F032F9204676BD06
:10164000FFF7AEFF002076BD0000000080430020C1
:10165000BE4300202DE9F84300F07CF8994600F0E5
:1016600019F80127060012D030690B21017080F8AB
:10167000018080F80290B777FFF7C3F87062777740
:1016800035627480B776304608F0FAFC0746384673
:10169000BDE8F28300A8ACE4F8B504460025A06AD2
:1016A00010F8016F4778A06903F0DBFB00281CBF2E
:1016B000017900291FD003291DDA0F2E00DA0FB19E
:1016C000012510E00575002EDFF8301C0FBF0968FA
:1016D00051F826103C225143C1618161012180F8FB
:1016E00020100BF0E1FADFF8540C0278A0892946AB
:1016F000BDE8F84006E0F1BDC0430020C450002022
:10170000C85000202DE9F04184B000F023F8FFF725
:10171000C1FF0126070014D038690C210170457003
:1017200080F80280BE77FFF76CF800F00EF810B179
:101730007E7701A838627C80BE76384608F0A0FC2F
:101740000646304604B0BDE8F081786201A9204623
:1017500005F077BC044603208DF801000D46904645
:10176000704710B5806A401C4478007860BB012C3B
:1017700018BF022C28D1DFF8C43B01221C700021C5
:10178000512005F06CFA022C1ED1DFF8B40BDFF803
:101790006C2B007800280FBF106852F820003C2204
:1017A000504303224FF47A71B0FBF2F048430246F3
:1017B000DFF8EC1B08604FF48041DFF85C0C007828
:1017C000BDE8104004F064BD10BD10B504468EB0F5
:1017D0002168086AA8B1C97F01AAFEF700FFDFF8F7
:1017E0003C0CBDF80E10C08A81420AD020680088E7
:1017F0009DF8212000904FF6FE73BDF8100002F016
:101800001BFE0EB010BD0000CC500020D0500020B8
:10181000584300205C43002030C121003AC1210020
:1018200038C1210070B5DFF8042612780021002AA3
:1018300018BF012A19D1002200E0521CDFF8E03B5A
:101840001B789A4211DADFF8DC3B242404FB0234D3
:101850002379FF2B1CBF238A002BEED0002819BF51
:1018600000232382591889B2E7E700F07AFB00E0F1
:10187000521CDFF8984C2478A2420FDA1C245443FF
:10188000E55AB5421EBFE5182C8B002CF0D000287D
:1018900019BF00242C83611889B2E9E7084670BD9E
:1018A00038B5DFF8785B0C4695F87210814211D29A
:1018B000FFF7F0F9DFF8700B04806421E879BDE8E8
:1018C000384001FB00F2DFF8500B00784FF4007154
:1018D00004F0CFBC31BD0000D243002038B5DFF8A2
:1018E000545C0446286803E00188A1420AD040689D
:1018F0000028F9D1082002F001FF18B104802968FE
:101900004160286031BD0000F6430020D043002034
:1019100070B5DFF8205C286882B0002401E04068E0
:10192000641C0028FBD1E4B2600002F0E7FE060070
:101930001FD02868002105E00288C9B226F81120CE
:10194000491C40680028F7D1DFF8D01AB1F86E00C2
:10195000CA8A00969042234601F1390203D1002140
:10196000FFF721FE02E00021FFF79AFD304602F06A
:101970002BFFBDE8734008F02ABC10B5DFF8B44B6C
:1019800003E04168216002F01FFF20680028F8D1C1
:1019900010BDF8B5DFF8840ADFF88C5A848C2988EA
:1019A00081845020294604F063FB2E88002704E040
:1019B000B14218BF00F0DBFA7F1CDFF8500B007853
:1019C000874209DADFF8CC0B1C2101FB07004189B3
:1019D000A142EDD14681EFE72C88DFF87C5C2868D6
:1019E00070B1062004F032F950B1D5210170848025
:1019F000002181700121C1702968BDE8F4400847C9
:101A0000F1BD0000FC520020DFF8500CC18A4FF6F7
:101A1000FE72914200D1704780B5807B800704D56B
:101A200000F00DFBBDE801401DE001BDFE520020AD
:101A300010B5DFF8E80990F8660098B14FF47A71B4
:101A400001FB00F404F000F9DFF8141C09880840D9
:101A50000219DFF8C4090078BDE810404FF4807126
:101A600004F016BC10BD2DE9F84F0025A84603F080
:101A7000C9FA002446460EE0304603F0AAFA48B1FF
:101A80000179002918BF042904D1807A00F0D2FB23
:101A900000B16D1C761CDFF8880990F80090F6B252
:101AA0004E45E9D300F01FFA8346002609E0304690
:101AB00000F03EFA20B1807C00F0BCFB00B1641C59
:101AC000761CF6B25E45F2DB6419E4B2002C44D019
:101AD000A00002F013FE5FEA00083DD0A200FF2143
:101AE00004F084F84FF0000A002617E0304603F0B7
:101AF00070FA070011D03879002818BF04280CD1DB
:101B0000B87A00F097FB40B1009401467A7A3888A1
:101B1000434600F069F80AF1010A761CF6B24E4518
:101B20003EBF5FFA8AFAEDB2AA45DFD30026F6B2CD
:101B30005E4512DA304600F0FBF905000AD0A87CB9
:101B400000F078FB30B1009401466A7C2888434657
:101B500000F04AF8761CEAE70024DFF8000B007B6F
:101B6000622518B103F0E5FFC0F15405EDB2032082
:101B700095FBF0F95FFA89F9B9F1200FA8BF4FF092
:101B80001F09C34600260DB120260025E4B2A14559
:101B900032BF4F46274646F040065A463146384641
:101BA00000F054F8824670060AD47F1EFFB200206F
:101BB00002E00BF1040B401CC0B2B842F9DBE41B9D
:101BC000BAF1000F01D17006DCD5B8F1000F1CBFCF
:101BD000404602F0F9FD5046BDE8F28FF543002083
:101BE00019530020FC510020F0B5059C002500266B
:101BF0004FF6FF7702E01D461B1D761CF6B2A6428B
:101C000023D2B3F800C0BC451CD015B12D88854245
:101C1000F1D26045EFD29C46BCF80050BD4205D0E1
:101C2000761CF6B2A6420CF1040CF5D365463CF8DE
:101C3000044D2C8063459CF80240AC709CF8034036
:101C4000EC70F3D318809A70D970F0BDF8B50446E3
:101C500004EB4400801C8DF801000E461546FFF78A
:101C600019FD012730B3016908220A7004F01F0230
:101C700032434A70891C002212E02B8801F8013B94
:101C8000521C2B881B0A01F8013BAE78EB7803F05D
:101C9000070306F0070643EA061301F8013B2D1D72
:101CA000D2B2A242E9D34FF6FC714180877608F0A8
:101CB000E7F907463846F2BD2DE9F8430026044609
:101CC0004FF6FE71A36A5A7803F1020C1306084618
:101CD00002F01F092FD409EB4905237FAD1CEDB29B
:101CE000AB4228D1B9F1000F05D09CF800009CF858
:101CF000013000EB0320B646DFF860590BE008F036
:101D00000703EF8A1FFA81F8B8450CF1030C08BFEE
:101D10001E460EF1010E5FFA8EFECE4510D29CF8E3
:101D200002809CF800109CF80130882718EA070F01
:101D300001EB0321E3D0BDE8F243D3200BF036B929
:101D40002EB989B280B200F057F800284CD0A08993
:101D500003F084F806F1010988B10021C171DFF8B0
:101D60000419027A09788A4207D3491C01EBD17120
:101D70004910072E0172B8BF4E46467234E0A08962
:101D80004FF6FF7100F072F8070010D100F08BF8E9
:101D9000070029D000F02CF8A0893880A88C788121
:101DA000AA20B87400F073FA387401207874DFF850
:101DB000B4080178387C884207D3481C00EBD07007
:101DC0004010072E3874B8BF4E467E74002038731A
:101DD000B81C05F01DF938B9207A28B1A169B81CE2
:101DE000BDE8F44303F0E6BEBDE8F18347C121003E
:101DF0001C22002103F0FABE4FF6FE7310B5984284
:101E00001CBF02F06003602B0ED0DFF85038DB8A75
:101E1000940607D4520603D5834205D2002010BD94
:101E20008342FBD39942F9D3012010BD1553002002
:101E300038B50024DFF85C5705E01C2000FB045097
:101E400000F095F8641C00F047F98442F5DB0020AF
:101E5000DFF8141801EB80034FF6FE725A8000225F
:101E600001F82020401C0328F4DB31BD30B50023ED
:101E7000DFF8204701E05B1CDBB2DFF81C2712789B
:101E800093420EDA1C225A43155B8542F3D1121994
:101E900055898D421CBF4FF6FF75A942EBD1104604
:101EA00030BD002030BD38B54FF6FF714FF6FE70E3
:101EB000FFF7DCFFB0B900240FE0DFF8D8161C22D2
:101EC00002FB0415A97C00291CBF697C002903D1F1
:101ED000288802F0D6FA2846641CDFF8BC16097878
:101EE0008C42EADB32BD10B500200021DFF8A426C9
:101EF0004FF6FE7407E01C2303FB01231B88A3425B
:101F000018BF401C491CDFF890361B78C9B29942B3
:101F1000F1D380B210BD38B504460D4603E000F0A1
:101F200026F829462046FFF7A1FF0028F7D131BD4A
:101F300070B5002100F015F801E0491C521CDFF8D3
:101F400058462478D2B2A24209D21C245443E55AFE
:101F5000B542F3D0CDB28542EFD1E01870BD00207C
:101F600070BD0022DFF82C364FF6FE76704710B5B4
:101F7000040007D0FFF73CFF4FF6FE7020804FF6BD
:101F8000FF70608110BD38B5044600250AE0DFF817
:101F900004061C2101FB05004189A14218BFFFF77F
:101FA000E6FF6D1CDFF8F00500788542EFDB31BD00
:101FB00038B504460B4800780D46002811BF0128AB
:101FC000DFF89806808C854205D1204602F046FF56
:101FD00008B1083032BD29462046FFF747FF00B15F
:101FE000103032BD155300202DE9F04704468A46D3
:101FF00000260027DFF89C8517E01C2000FB07F96E
:1020000009EB0805A81C05F003F860B139F80800D1
:10201000A04208BF46F00A065146A81C03F0BCFDCA
:1020200008B146F0A0067F1CFFB200F055F88742C9
:1020300002DAF0B20028E0D0F0B2BDE8F08738B59F
:102040000025DFF8D84316E0284602F0C2FF00283A
:102050001EBF0179012902290CD0C1794A1CC27125
:1020600094F867208A4205D200218172417200886B
:1020700002F007FA6D1CDFF8A8030078EDB2854284
:10208000E2D3002517E0DFF80C051C2101FB050059
:102090004FF6FE72018891420CD0017B4A1C0273FC
:1020A00094F867208A4205D2002181744174008827
:1020B00002F0E7F96D1C00F00FF88542E3DB002029
:1020C000DFF8A41511F8202012B1521E01F82020CB
:1020D000401C0328F6DB31BDDFF8BC0400787047F4
:1020E000E54B00202DE9F047054689464FF6FE787E
:1020F00092460024002001214646DFF8987409E04A
:1021000003F0A2FDC0B290FBF4F104FB1100C0B2D9
:1021100000240021002202E0DE5B521CD2B2DFF874
:10212000EC331B789A421FDA1C23534333F807C061
:10213000C44518BFAC45F0D0CC451FBFD44503EB18
:10214000070C9CF811C0BCF1000FE6D0BCF1080FE1
:10215000E3DABCF1070FDFD0641C0029DDD1E4B263
:102160008442DADBD85B45E0DFF800251278002AEC
:1021700018BF012A33D1002202E01E88521CD2B2BD
:10218000A74B1B789A422ADAA64B4FF0240C0CFB83
:102190000233B3F800C0C44518BFAC45EED0CC45FF
:1021A0001EBFD44593F809C0BCF1000FE6D0BCF1C6
:1021B000080FE3DA93F804C0BCF1010F18BFBCF1BB
:1021C000020FDBD093F809C0BCF1070FD5D0641C17
:1021D0000029D3D1E4B28442D0DB18880AE0E4B20B
:1021E00024B118B9012C8BD1012091E7464514BFC9
:1021F00030464046BDE8F0872DE9F0410446884668
:102200000027DFF8906300E07F1CFFF765FFFFB257
:1022100087420AD21C2000FB07F5A8194146801C02
:1022200003F0BAFC0028EFD0AC53BDE8F081000009
:10223000B052002007210D28A8BF012109DA072884
:10224000A8BF032105DA0328A8BF052101DA00B9D8
:10225000002108467047F8B505460E461746FFF7B9
:1022600022FE040012D0FFF7C3FD2580668107B966
:102270000127DFF8E803A77490F86C0001280CBF71
:1022800000200720607400F002F82074F1BDDFF830
:10229000D4030078401C00EBD07040107047F8B5B4
:1022A00004460025BB4E15E01C206843815BA1421B
:1022B00007D04FF6FF7294420BD14FF6FE72914257
:1022C00007D08719B81C04F0A3FE10B93846FFF7F1
:1022D0004EFE6D1CFFF700FF8542E5DBF1BD4FF6BA
:1022E000FF70DCE7DFF888030FF2150141600FF2A1
:1022F000310181600FF24D01C160704758C121006A
:1023000080B5DFF8701309688A7942B9C268096834
:10231000407802F071FCBDE8014007F058BF01BDF4
:10232000CE48B0F87010491CA0F8701089B200298E
:1023300004BF0120FFF776BA704700001053002059
:10234000EB43002010B5CC4A127882B00AB9E129DB
:1023500025D10189491C018189B2304829B9A0F8E9
:1023600070100120FFF75EFA13BDC4490978B1B1BE
:10237000B0F87040A14212D20020FFF753FA642156
:10238000414391FBF4F11A2909DBBD4909680A00B0
:1023900005D0ADF80200ADF8004000A8884713BD95
:1023A000C052002000B583B000A9002200230CC158
:1023B00000A903F0F1FB401E8041C00F0EBD10B517
:1023C0003A2B18BF3B2B1C4607D113460A46014641
:1023D0002046BDE8104004F042BD0A2010BDA948C7
:1023E000A9490160A9494160A949097801290ED18B
:1023F0000FF21D1181600FF24111C1600FF29D11AA
:1024000001610FF2092141610FF2210181618068B0
:10241000010018BF004770477C520020AC4B0020E1
:1024200030C12100F8430020FA52002070B58AB074
:10243000054602208DF8050001A8FEF7DAFD04002C
:1024400061D0206904210170602141700120A076D3
:10245000A077FEF7D6F960626580E07E7F4D20B9F7
:102460002878E0762878401C2870207E01280AD140
:102470008848007828B1E87A002804BF207800282E
:1024800001D1002020760DF102012046FDF7DDFF8D
:10249000060035D0242002F031F9029068B32422DE
:1024A000FFF7A7FC00A9502003F0D4FD0299BDF866
:1024B00000004881E88A0299ADF8200002200873E4
:1024C0000299087202996088088001200299C881E7
:1024D00002999DF80200C8770299607D48730298BE
:1024E0000662E08AADF81200607D8DF8140002A843
:1024F00007F077FD029802F067F9304602F064F9C0
:10250000204602F061F90AB070BD00003FC1210011
:1025100038B50024604D06E00422FF2105EB84005D
:1025200003F064FB641C5D480078E4B28442F3D39A
:1025300031BD0000D05200202DE9F04184B00024CC
:10254000464DDFF854814FF6FF7602E03018788070
:10255000641C52480078844219DA38F82400B042EA
:10256000F6D008EB840778880028EFD102208DF898
:10257000080038F82400A98CADF8000000A803F08A
:102580000EFE0422FF21384603F030FBE0E7BDE8F1
:10259000FF810000EC4600203FC12100FEB504464B
:1025A00002202E4F8DF808000D46B98CADF8004082
:1025B00000A803F0F2FDFF261A2824D03749364A36
:1025C000097800204FF6FF7C04E0FF2E08BF064686
:1025D000401CC0B2884208DA32F820306345F4D09B
:1025E000A342F5D102EB800006E006D1FF2E06D013
:1025F00002EB860022F8264045800120FEBDB98C02
:1026000000A803F0CCFD0020FEBD00003EB504464E
:1026100002208DF80800ADF800404FF6FF750F4816
:10262000818C00A803F0BBFD1C491B4B09780020DE
:1026300001E0401CC0B2884205DA33F82020AA42EB
:10264000F7D0A242F5D1884205DA0422FF2103EB3C
:10265000800003F0CBFA37BDB4520020AC4B002011
:1026600050C1210042C12100FC510020155300201F
:10267000A0510020EC52002048C12100F24300206C
:1026800030500020D450002081502000FD50200008
:1026900010530020DF4300203851002052C1210098
:1026A0002DE9F04104460D460026AC4203D004F06B
:1026B000B7FA070001D1012627E0284604F0B0FA56
:1026C00018B10146284604F005FC00223946284688
:1026D00004F086FAC8B1384602F010F85FEA000844
:1026E00012D043463A460021204604F0B8FB30B9E8
:1026F00043463A460021284604F0B1FA00B10126CB
:10270000404602F061F800E010263046BDE8F08156
:10271000DFF8981400200860704780B507F05EFC71
:1027200058B90022012100F039F930B101680029BF
:102730001CBFBDE8024006F03AB901BD80B50420D7
:1027400000F01EF9DFF868140978814207D3FF20F2
:1027500000F016F9DFF85C140978814201D20120FB
:1027600002BD002002BD2DE9F04107468846387BB6
:1027700000F023F900240546012625BB7A89397B20
:10278000386800F0B7F8050062D02C810124387C4D
:102790002874788A688207F11000FEF78CFC686163
:1027A0004FF67F41388B2883B87EA8766889084029
:1027B000688141074FBF40F08000DFF8FC130978C3
:1027C00040EAC11068816889C109B8F1000F01F0C1
:1027D000070112D002226A732A68927B520703D53E
:1027E000DFF8D823128A2A8121B34FF67F421040A6
:1027F000491E40EAC11068811CE009B9002619E0B1
:10280000810605D503F020FA00F07F005F3008E074
:10281000C00605D503F018FA00F00F000A3000E0FA
:1028200001202881202104206873DFF894030078B8
:1028300003F02EFB6CB12A89697B284600F06DF805
:1028400038B1686908B101F0BFFF284601F0BCFF4C
:1028500000263046BDE8F0813EB500F0AEF8002419
:1028600098B3417B062930D101684489097A8DF8F3
:10287000081001680988ADF8001000F0E5F820059F
:1028800022D5BDF80010002000F021F8E0B9DFF8F3
:102890002C43A18C00A803F082FC002100200CE056
:1028A000286801884FF6FF7291420DD0A18C03F089
:1028B00074FC1A2808D00021284600F008F805000A
:1028C000EED1002003F06DFC012420463EBD18B976
:1028D000DFF8D802006800E0406840B14289120584
:1028E000FAD500291EBF026812888A42F4D17047C7
:1028F0000120704770B504460D4616461C2001F0B5
:10290000FDFE48B100214173057346810181817349
:10291000C17304604161416070BD70B504000D4633
:1029200016462BD0012D284606D100F029F8A549DE
:10293000097881420CD207E0042D07D100F020F87D
:102940009B490978814203D2112070BD022D15D117
:1029500000206060657326819448016831B100E011
:10296000014648680028FBD14C6000E004609448B0
:102970000078202103F08CFA002070BDC12070BDCA
:102980008A4A1268002105E0537B5268834214BFD3
:10299000FF28491C002AF7D1C8B2704710B98348F4
:1029A000006800E0406838B1437B8B42FAD11AB12D
:1029B00003689B7B5B07F5D470477C49096800E09E
:1029C000496821B10A7B8242FAD10846704700204B
:1029D00070477649096800E0496861B10A68138860
:1029E0008342F9D1126A1378527803EB0222D2059E
:1029F000F2D40846704700207047F8B50446002618
:102A000020000D460AD06948076800E07F682FB1B2
:102A100029463846A0470128F8D13E463046F2BD47
:102A20000020704710B561490A681346002401E090
:102A30001C465B683BB18342FAD15868934201D18E
:102A4000086010BD606010BD10B5040011D0FFF724
:102A5000E9FF2068006A01F0B7FE206801F0B4FECB
:102A6000606908B101F0B0FE2046BDE8104001F0F9
:102A7000ABBE10BD38B501684C4A09881268002306
:102A8000002409E0557B052D01BF641C15682D88C5
:102A90008D42526808BF5B1C002AF3D14A4A47495D
:102AA0001278DBB293423FBF484A1278E4B29442B4
:102AB0002CBF01220A8A02814FF6FF73052242735E
:102AC000428942F400624281006802889A4204D03E
:102AD000898C03F062FB1A2804D1BDE83240012042
:102AE00003F05FBB31BD10B548B1A0F108010A6821
:102AF000002A04BF8A79FF2A03D003F0B9F8052021
:102B000010BD2F4C22788A7131490A78014631482C
:102B100003F09BF9012806D120784FF4005103F00F
:102B2000B7F9002010BD042010BD70B50AF018FCE4
:102B3000284D2E6800F0010080F001048EB120487D
:102B400056F8081C007800294FF4005102D003F019
:102B50009FF901E003F0A8F900223146284603F06E
:102B600055F90CB10AF0F8FB304670BD70B504465B
:102B70000E480668002514E030680088A0420FD196
:102B800000203081B07A400744BF307B01F086FAE4
:102B900006207073F0213068407B05F068FF6D1CE3
:102BA0007668002EE8D1E8B270BD0000E452002043
:102BB00032C1210033C12100DA430020AC4B002098
:102BC0007C52002031C1210035C1210036C12100D5
:102BD00041C12100E852002070B50D460446298805
:102BE00000F028F808B1B82070BD00F08FF86E49E9
:102BF0000978884201D3B22070BD182001F07EFD13
:102C0000060001D1102070BD002030603471122206
:102C10002946B01D02F0D2FF6448016811B9066070
:102C200004E0014608680028FBD10E6000F095F82A
:102C3000002070BD5D4A126842B11379834212BF11
:102C4000FF28D3888B42F6D1901D70470020704733
:102C500010B5564A1468FE290CBF0123002303E077
:102C6000914208BF012324683CB1E2888242FAD134
:102C70002279002BF4D0104610BDFE2010BD10B5F7
:102C800000224A4B07E01C79844204D1DC88D2B28E
:102C900021F81240521C1B68002BF4D1D0B210BD99
:102CA00038B5424B1A68002401E0144612688AB114
:102CB0001579854204BFD5888D42F6D11068002C65
:102CC0000CBF18602060104601F07EFD00F045F852
:102CD000012032BD002032BDF8B5344D04462868CD
:102CE000002603E0076801F06FFD384658B102790D
:102CF0000168A24204D1002E0CBF29603160F1E7C7
:102D000006460846F2E7BDE8F14026E000202749E4
:102D100000E0401C09680029FBD1C0B2704710B523
:102D20002148007814214843811C002289B24220A6
:102D300003F056FF040018BF00F002F8204610BD53
:102D400080B50020ADF8000000F001F801BD00AB37
:102D500002220021422003F082BF10B586B000207D
:102D6000ADF800001148046818E020798DF80400DF
:102D70001222A11D0DF1060002F020FFBDF8000097
:102D800014225043811C01AB89B2422003F067FF3B
:102D9000BDF80000401CADF800002468002CE4D110
:102DA000FFF7D5FF06B010BD9CC12100D452002012
:102DB00030B587B000AB02220021422004F04FF86A
:102DC0000024C8B9002512E014206843811C01AB1F
:102DD000142289B2422004F042F838B99DF8040068
:102DE0000DF10601FFF7F8FE00B9641C6D1CBDF87B
:102DF0000000ADB28542E7D3A0B207B030BD50F8B5
:102E0000041B61B150F8042BD30744BFA9F101039F
:102E10009A180023091F42F8043BFAD1EFE77047E4
:102E200080B501F047FB00214FF6FE70002308E05B
:102E3000DFF8F42B02EBC102491C50805370536041
:102E40001370DFF8E82B12789142F1DB002108E0E3
:102E5000DFF8DC2B0A2303FB0122002350801372CE
:102E6000491CDFF8D02B12789142F1DB0021DFF80A
:102E7000C82B02E022F83100491CDFF8C03B1B7868
:102E8000C9B29942F6D3DFF8B80BDFF8B81B007867
:102E900008704FF47A72DFF8B00B0078BDE8084094
:102EA000102103F0F5B92DE9F04380460D46E807FF
:102EB00085B09146DFF8944B08D5A8074FF6FC780B
:102EC00054BF45F0080545F0100530E0404601F0DC
:102ED0004BFAE18A884205D02A460221404601F099
:102EE00011FA08B9002068E02B4602224FF6FE7165
:102EF000404600F03AFC00285ED105F0DF05680688
:102F000015D402A9404604F09CF845F0200768B9A2
:102F1000A18C4046FEF7AAFF060008D0B01C04F0C2
:102F200077F820B1B11C02A802F044FE3D46DFF85C
:102F3000206BE38A3778012000900022394618463A
:102F400000F0E4FE791C3170B0BBA8064CBF0E2027
:102F500006208DF8050001A8FEF74BF8040029D0E3
:102F60000120A077FDF74DFC60620121206901700E
:102F700005F07801417087704FEA1821017180F8DF
:102F8000038000214171A90603D502A9801D02F02A
:102F900011FE4FF6FD70B9F1000F608006D0DFF82A
:102FA000F00C0078814538BF84F81A90204607F06D
:102FB00067F802E0102000E0C72000F0B0BD10B5B7
:102FC000DFF8844A20784FF4805103F097F920B15C
:102FD000DFF8301C0120087010BDDFF82C0C0278DF
:102FE000DFF8280C007801280CBF01210321002004
:102FF000FFF759FFDFF89C0C02882078BDE81040ED
:103000004FF4805103F035B92DE9F84304460D46DD
:1030100016469846FEF716F810B14FF6FF7046E0D8
:10302000DFF8740C007802283DD1DFF8700C0178CD
:10303000204601F0E1FAA0BB00F034FE089901F04F
:1030400028F907002FD0787901284FF6FE791AD198
:10305000B9797888182211420ED0DFF8441C09781B
:10306000397185421CBF8642804509D142463146AE
:103070002846FFF737F803E0DFF8D019097D3971EA
:10308000484506D013E0032806D0042808BF484668
:103090000DD07879022806D00721204601F0ACFA3D
:1030A00008B1204603E02046BDE8F24301E0BDE858
:1030B000F28310B5044601F0ABFE18B9204601F0CA
:1030C000C3FE08B1204610BD4FF6FE7010BD2DE9BD
:1030D000F843044688469146FDF7B4FF00270028D0
:1030E00054D100F0DFFD494601F0D3F8060020D0AE
:1030F0007079032815D1B07902251821084230D102
:103100000021404601F030F9DFF84019C98A8842B1
:1031100031D1DFF8A80C027849462046FFF7C3FEFC
:1031200033E0012832D17088072101F065FA68BBCD
:10313000E1E72046FFF7BDFF01F090FE30B3417993
:10314000CA0723D501258A0707D501222146404613
:1031500000F0EEF90028D3D118E041F002014171EE
:10316000CEE7708800904FF6FE730022214640465D
:1031700001F062F909E02A462146404600F0D8F9FC
:1031800020B94946204600F090FD01273846BDE8A9
:10319000F2832DE9F04FDFF8B46888460446B18C1D
:1031A00089B093464046FEF703FF5FEA00094FF0FF
:1031B000060A03D099F80100002864D0A06A457877
:1031C00081788DF80C10C178007901EB002740461A
:1031D00000F080FDA16A497940188DF80400A80626
:1031E00048BF4FF00E0A87210D4206D105F01800A6
:1031F000182802D0207F504503D0D32009F0D6FEF6
:1032000041E0002000F08FF8032805F078053AD05F
:103210004FF6FF7A98BB18210D4236D045F00105D4
:10322000E80648BF45F00205A089294601F031F8BB
:1032300002001EBF90791821084212D0507901284F
:103240000FD1B9F1000F0CD0B18C5088FEF7B0FE51
:1032500000281CBF4078002803D099F8011088424C
:1032600011D300F069F850B9ABF800A00021207A22
:1032700000B1A1699DF80420A08901F0BBFCBBF856
:103280000000504510D000204AE0707B08B100F0EB
:1032900053F82B4602224FF6FE71B8B200F065FAE1
:1032A0000028ECD1ABF800A0012000F03CF8294642
:1032B000B8B201F059F8F18A88422BD1B8B201F0C6
:1032C000CDFD48B10079012818BF022804D104A916
:1032D000B8B203F0B6FE05E0FDF793FA014604A884
:1032E00002F068FC207A012803D1A16906A802F047
:1032F00061FCA06A40789DF80C3040F030000290EC
:10330000002204A80190B9B206A80090A08900F09C
:103310009FF8B8E7A16A9DF804004871FDF786FAA6
:1033200009B0BDE8F08F00909DF804209DF80C10C6
:10333000A089434600F0EABCA0892B460122414601
:1033400013E22DE9F04F0446DFF800970846B9F87C
:10335000241087B0FEF72CFE082758B1417849B9F0
:10336000DFF8CC1B0978491C01EBD17149100170C1
:1033700007214170A06AC1780279467890F802B0BE
:1033800090F807A001EB02284179827901EB022530
:10339000F10648BF1027B10644BF0837FFB236F028
:1033A000700104BF217FB94203D0D32009F0FEFD94
:1033B00046E006F070060021F20607D500F108018C
:1033C00005A802F0F7FB082106F0EF06B00608D5C5
:1033D000A06A081800F1080103A802F0EBFB06F050
:1033E000DF0659461FFA88F000F03CFFDFF844166C
:1033F0000978884208DA00F095F881798A451FD269
:1034000080F806A0002000E00420B9F816101FFA8A
:1034100088F78F4212D018B900F015F880B901E092
:1034200004280DD103A80190029605A800905B46E0
:103430005246A9B2384600F00BF801E000F003F85C
:1034400007B0BDE8F08FA18933460122A8B28CE114
:103450002DE9FE4F8A46984605469346414600F0C0
:1034600001FFDFF8D0150978884204DA00F05AF835
:10347000B0F8049001E04FF6FE7908208DF80100C5
:103480000E9CE00644BF10208DF80100A00604D574
:103490009DF8010008308DF8010000A8FDF7A9FD96
:1034A00006003DD00120B077FDF7ABF9706201A9AD
:1034B000484603F0C6FD18B10120707701A806E068
:1034C000E00605D54D4503D1012070770C98306298
:1034D0003769022038707C7087F80280FD70280AF6
:1034E000387187F805A04FEA1A20B871484600F0F5
:1034F000F1FB5844F8710020E10605D50C9907F15D
:10350000080002F057FB0820A10604D50D99C01948
:10351000083002F04FFBA6F80290304606F0B0FDEE
:10352000BDE8F78FDFF808150A2202FB001070478C
:10353000F8B5DFF818550746E88A012687420C4699
:1035400004D000233846FDF701FF06460021384627
:1035500000F00AFFE98A884214D10021204600F0D9
:1035600098FE00281EBF81791822114206D000F073
:103570005DFFE98A008800F05FFF03E0012120463B
:1035800001F028FB3046F2BDF8B5DFF8BC54DFF897
:10359000304B2878102102F0B1FE28B928784FF47A
:1035A0007A72102102F074FEDFF898040178491E47
:1035B0000170C9B229BBDFF88814097801700022B4
:1035C00005210020FFF7EAF9060019E00022052195
:1035D0003046FFF7E3F90546308980B1401E30815F
:1035E00080B260B9B07A400744BF307B00F056FD2E
:1035F00006207073F0213068407B05F038FA2E0009
:10360000E4D100264FF6FE751AE02079002818BF95
:10361000FF2813D0401E2071C0B278B9607903280A
:1036200004D1218860880222FFF782FF6079012897
:1036300004D02580002065806071A071761C08345C
:10364000DFF8480B0078F6B28642DED300260FF290
:1036500061040AE0FFF7F8F939462046FFF7CDF993
:103660000028F7D17D803870761CDFF8C803007819
:1036700086420BDADFF8B8030A2101FB0607387A25
:10368000401E3872C0B20028EED1E5E70020DFF816
:10369000981306E011F8302012B1521E01F83020C4
:1036A000401CDFF8882312789042F3DBF1BD000064
:1036B00030B50C4600258DB0002C1EBF0168086A8D
:1036C000002814D0C97F00AAFCF789FFBDF80C00C0
:1036D0006188884204BF9DF80200012807D10A983A
:1036E0000178012901BF8078217888420125284688
:1036F0000DB030BD10B550B900F011F804464FF6CA
:10370000FE70844207D1DFF8A00C007818B10120C8
:1037100000F005F80446FDF75EFA204610BD30B50E
:1037200085B0CA4C02F090FA0546E08A8542F9D08D
:10373000FDF774F88542F5D02846FDF783FC002894
:10374000F0D1002DEED08DF80000ADF8025000A8A9
:1037500003F0D6FC0028E5D14FF6FE708542E1D09B
:10376000284605B030BDFDF736BA2DE9F84F0746BB
:103770004FF6FC7087420C4615461E4652D000217B
:10378000384600F0F1FDB14F8046F88A804501D1FE
:1037900070067DD53146404600F07BFD0100DFF824
:1037A000EC09DFF81CA990F800904FF6FE7B16D1CB
:1037B0000021584600F06DFD010010D118210E4285
:1037C0002AD00022182301E0521CD2B24A450AEB4B
:1037D000C20102DA88791842F6D14A451CDAA1F80A
:1037E00000805C4518BF4C80F00748BF46F00406D7
:1037F000DFF8AC048E71012D007811D101224A71DD
:1038000018238A791A4209D008712046B98CFEF72C
:10381000CFFB00283CD110E002203AE0387DF3E7EE
:103820004A79012A34D08A7918231A4208BFF87CD1
:1038300008714D712CE0401CC0B2DFF8701B097894
:10384000884225DADFF8682B1C23002103FB0025C2
:1038500006E00AEBC1022B8852889A42EBD0491C41
:10386000C9B24945F5D3E6D11C220021284602F011
:10387000BDF92C80B88C6881AA20A87401206874D6
:10388000DFF8AC060078401C00EBD07040102874C4
:103890000020BDE8F28FF8B50646DFF88C0B007803
:1038A0000C468442154601D30520F2BD304609F08E
:1038B00016FA304600F08DF85C490F78B84204BF24
:1038C0004FF6FE7000F085F8B84222DA564901EB57
:1038D000C007786808B100F077FF34B1600000F0ED
:1038E0000DFF786018B90120F2BD002078607E805D
:1038F0007C70DFF8F00B00783870787800281CBFF7
:103900007868002803D06200294602F057F90020A9
:10391000F2BD0720F2BD2DE9F8430446DFF8080B9D
:1039200000780D468542904628BF052038D22046B3
:1039300000F04FF83D49DFF8F0900E78B0424FF6B6
:10394000FE7713D1384600F044F8B0420ED199F812
:1039500000100020012206E019F832308B423CBFF3
:1039600019461046521CB242F6DBC0B209EBC00643
:103970007780706818B100F027FF0020706045B1B3
:10398000680000F0BBFE706060B16A00414602F062
:1039900015F974807570DFF84C0B007830700020DA
:1039A000BDE8F2830120FBE738B50C46154600F070
:1039B00010F81E4A12789042014608D21A4800EBCD
:1039C000C1004178217040682860002032BD042089
:1039D00032BD38B51549144A0978002401E0641C49
:1039E000E4B28C4204DA02EBC4035B888342F6D172
:1039F0008C4204BF4FF6FE73984213D1002401E0BD
:103A0000641CE4B28C4202EBC40502DA2878002878
:103A1000F6D18C4206DA68686B8018B100F0D4FEEB
:103A200000206860204632BD904C00203DC121003E
:103A3000A84D00203EC12100944E002045C1210028
:103A400034C121001C5300207C520020AC4B0020CC
:103A50001B5300202DE9F043044685B0A06ADFF82F
:103A60008C9B45789DB1DFF8C0190978801C8D4288
:103A700055DA002107E00378477803EB072329F89C
:103A80001230801C491CC9B20A46AA42F3DBDFF897
:103A9000A00BC28A6089904206D1A0894A46294675
:103AA00005B0BDE8F043F6E6A17CC1B30027A84607
:103AB000002100E0491CC9B20B46AB4205DA39F8D7
:103AC00013309342F6D188460127002100F0E1FB34
:103AD000060014D07079012811D1B079182108425C
:103AE0000DD072884946284600F0FEFC08B9012F27
:103AF00005D1A0894A46294600F005FD7080A37CC7
:103B0000581EA074CDF8089001200390CDF80480D1
:103B1000E07C0090A269A189608900F003F805B0FB
:103B2000BDE8F0832DE9F04782B080460D9D0B9CE7
:103B3000002D1ABF6000001D02208DF8010089468B
:103B400017469A4600A8FDF754FA060038D0A6F8A2
:103B50000280A6F8049086F81AA00A98F076B07F42
:103B6000012809D1FCF756FEB188814204D0002F0C
:103B700012BF77620020B0773069052101700DB95E
:103B800044701AE0611C4170851C0C98002108E00B
:103B9000028805F8012B491C30F8022B120A05F89F
:103BA000012BC9B2A142F3D3FCF734FE05F8010B97
:103BB000FCF730FE000A05F8010B304606F060FA0B
:103BC000BDE8F38701EB400030F8020C7047F8B510
:103BD0000446DFF85408007884420D4616460FD29A
:103BE000002700E07F1CFFB2A74205D2FCF712FEBF
:103BF00036F817108142F5D1AF4201D10120F2BD54
:103C00000020F2BD7D520020E74300200E5300202B
:103C1000F0B589B004460D461646FDF713FA0027A5
:103C200008B1002031E000F03DF8314600F031FBF2
:103C3000060029D0B079400726D5FCF7EBFD854278
:103C400008BF03970FD0284601F0F0F8012814D1DF
:103C500004208DF81000ADF8125004A803F050FABB
:103C600001280AD103900A48037802970197009728
:103C700005AA29462046FFF755FFB07981075CBFAA
:103C800000F0FB00B0710127384609B0F0BD00001C
:103C90004EC121004AC12100E643002043C121005A
:103CA0004CC12100002120465EE310B50C460021E6
:103CB00000F05AFB214600F0ECFA48B14FF6FE71D5
:103CC000018041800021017141718171002010BD8E
:103CD000042010BD70B5DFF85859297A072499B926
:103CE000A98CFEF765F906000ED0697BB078012932
:103CF00005D1FEF79FFA7478844203D201E0FEF703
:103D000099FA044604B90724204670BD2DE9F84FFE
:103D10000746884615461E4600F0A4FADFF8141937
:103D200091F800900A9CDFF810B948454FF00A0A54
:103D30000ADA0AFB00B0C1798D4203D2DCB1C57149
:103D4000868018E0032017E000214FF6FE7000F097
:103D500089FA484508BF02200ED064B1FF210AFB52
:103D600000B0817147808680C57180F80080DFF8DF
:103D7000C018C97C01720020BDE8F28F38B50A4630
:103D8000002141710020DFF8B418DFF8B438097859
:103D900000E0401CC0B2884208D2C45C157BAC4233
:103DA000F7D1BDE832401046FEF764BE04D10620CC
:103DB00050730021106843E031BD00004DC1210067
:103DC00038B50546A878401EA8706879FEF7F5FD5D
:103DD000040034D0A87850B9607B022804D00620B3
:103DE0006073F02120682BE00620607331BDA87954
:103DF000E8B1287918B3E978491EE970C9B2F1B978
:103E0000DFF82C184978E970401E2871617B03297E
:103E100015D1C0B270B10420607301F015FF00F03D
:103E20000F00401C20812021BDE8344015E2607B5A
:103E3000032804D121462846BDE834409EE731BD21
:103E4000407BBDE8344004F012BE38B500210024A8
:103E5000DFF8F05707E005EBC400827812B1FFF7F6
:103E6000AFFF0121641CDFF8D4070078E4B284427C
:103E7000F1D3DFF8D447207851B1402102F03EFA67
:103E800058B92078BDE838406422402102F000BAD9
:103E9000BDE83440402102F018BA31BD70B50C467F
:103EA000DFF8A05700210BE0EA79C37C9A4202BFF9
:103EB0002A8883899A4201D1AA7852B9491C0835C7
:103EC000DFF878271278C9B29142EDD301D10020F2
:103ED00070BDA87948B3DFF85807818C2046FDF7FC
:103EE000C5FF10B1A879401EA8710020DFF85C174B
:103EF000DFF85C27097801E0401CC0B288420BDA89
:103F0000242343439E183679FF2EF5D09B5AA342B3
:103F1000F2D1A879401EA871DFF838070078081898
:103F2000A9798842BCBF0020A871012070BD0000A3
:103F300042C121002DE9F84FDFF87044DFF8043763
:103F40002478012505FA04FC4FF00009002702E05F
:103F50007F1CFFB20833DFF8E45695F800A0574500
:103F600002DA9D78002DF3D1574508BF002000F0FC
:103F7000938083F80690C846DFF8B476DFF8D0E681
:103F80000EE0012E18BF032E06D145894FF6FF76AD
:103F9000B54208BF4CEA090908F101084FEA4C0C88
:103FA000DFF8A8562D78A84514DA242505FB08F576
:103FB00035F80E608E421CBFB7F816B05E45EBD0E8
:103FC00075442E79042E18BF002EDAD19D796D1C10
:103FD0009D71E1E74FF0000C1EE0DFF8D4E31C26F2
:103FE00006FB0CEEBEF800608E421CBF4FF6FE755D
:103FF000AE420FD0BEF80A60BD8CAE420AD19EF828
:104000001160002E1CBF9EF81260002E02D09E7917
:10401000761C9E710CF1010CA445DEDBDFF838162E
:104020009C790978A14238BF9971997900291CBF00
:10403000817C01290EBF0021B978491C1971B9F1A1
:10404000000FF97999707978D970818919805A713E
:10405000C07CD87113D00027DFF8E40501E07F1C95
:10406000FFB2574504DA395C002918BF9142F6D1F6
:10407000574504DA3A54DFF8E40540F82790402128
:10408000DFF8C445207802F039F920B9207864229D
:10409000402102F0FDF80120BDE8F28F0021DFF899
:1040A000A02500E0491CDFF894351B78C9B299427D
:1040B00004D28B5C8342F5D1002088547047000005
:1040C000AC480020F8B50446A07A02285CD1DFF89D
:1040D0009005DFF89015A27B00780978002A39D185
:1040E000DFF88425126813001EBFDFF880552B68A7
:1040F000002B29D0DFF878653368002B1EBFDFF86E
:1041000074753B68002B1FD0012908BF01281BD103
:1041100060889047C0B9DFF86005DFF86015007867
:104120002A6800280FBF096851F820003C2141434C
:1041300060889047012827D1608831688847608867
:104140003968BDE8F44008476088BDE8F8400122BE
:1041500001211DE0DFF828251268AAB1012908BF56
:10416000012811D1042001F071FD68B164210170B2
:1041700001214170618841800146BDE8F440DFF8CB
:10418000C804007801F083BDF1BD00003CC12100EE
:104190002DE9F04704460E469146FEF71AFC00282A
:1041A00042D1002E44D0814ADFF8A4341278012194
:1041B00091400026002202E0521CD2B24900DFF8F2
:1041C0008C743F78BA4209DA24275743FD182D79B9
:1041D000FF2DF1D0FF5AA742EED10E460025DFF8A1
:1041E0007C74DFF85C8402E000206D1CEDB2DFF827
:1041F0004C1491F800A0554516DA15F8081000295E
:104200001CBF57F825203242EFD00846FEF7D5FBF9
:104210000028E9D0417B0529E6D157F82510B143A4
:1042200047F825105546E0E710B1417B05290AD033
:10423000B9F1000F0FD0DFF8F803818C2046BDE8FC
:10424000F04701F0B3BF01680C80012141732021C8
:10425000BDE8F04701E0BDE8F087DFF8EC03007847
:1042600001F016BE30B50022DFF8CC3301E0521C5D
:10427000D2B2DFF8C0432478A24208DA0A245443B9
:10428000E5186D88854204BFE45C8C42EFD110468E
:1042900030BDF8B5DFF8EC23DFF8EC63157801F0FA
:1042A000400100244FF6FE7308E006EBC407BF7917
:1042B00007F040078F421ED0641CE4B2AC4205DA1E
:1042C00036F834708742F7D19842EED1AC4208BF3D
:1042D000984210D1002401E0641CE4B2AC4204DA3C
:1042E00006EBC40000790028F6D1AC42BCBF36F81A
:1042F0003400FFF7DAFCAC4202DA06EBC400F2BD90
:104300000020F2BDF8B50446DFF8800306780D46BC
:10431000012D174604D13146204600F06DF9E8B969
:10432000FFF7C0FC3946FFF7B4FF012D04D0C8B138
:104330004079A84216D111E020B14179A94208BFC5
:10434000458802D078060DD425464FF6FE7085428A
:1043500008D03146284600F04FF908B10020F2BDE0
:10436000A542F1D10120F2BD38B504464806B04D52
:1043700007D52146FF20FEF75DFC88B94FF6FE7099
:1043800032BDC3480078002818BF01280AD1204652
:1043900000F064FD30B10079012818BF022801D176
:1043A000E88A32BD204632BD46C121003FC121000E
:1043B000EC46002070B5022882B00C4616461D4619
:1043C00015D0042818BF01280FD12A460121204604
:1043D000FFF798FF48B156B12046FFF7FAFAAD490A
:1043E0000978884203D201203070002076BD002178
:1043F0002046FFF74EFF00281EBF81791822114288
:1044000008D000F013F88A490088C98A00F014F82F
:10441000012076BDA048027829462046FEF743FDDC
:104420000028E2D1F4E7000040C121004FF6FE7100
:104430000091002243887047F8B504460D461E4699
:1044400012B100230B2216E000212846FFF721FFBE
:10445000070015D0B879C00712D506982246314614
:10446000FDF740FE4FF6FE71884209D078800023A8
:104470000C222146284601B0BDE8F040FCF766BF9B
:10448000F1BD814900220FE08B79DB070AD44B880C
:10449000834204BF4B79012B04D103234B714FF6A8
:1044A000FE734B80521C0831764B1B78D2B29A4275
:1044B000EAD37047744800214FF6FE720BE020F8F3
:1044C000022B20F8022B002300F8013B00F8013BEF
:1044D00000F8023B491C6B4B1B78C9B29942EED3E2
:1044E00070470000E843002010B5002300E05B1C8B
:1044F000DBB2834205D231F813409442F7D1012058
:1045000010BD002010BD2DE9F34F002481B090466E
:10451000A3464FF001094FF6FE7A604E0AE001F023
:1045200093FBC0B290FBF4F104FB110B5FFA8BFB21
:104530000024A146002501E06D1CEDB2454800783D
:1045400085421CDA1C2000FB05F7BA5B52451CBFF4
:10455000BDF804008242EFD000F04AF80028EBD109
:10456000B819407C0028E7D00728E5DA641CB9F1C7
:10457000000FE1D1E4B25C45DEDBB85B34E000253E
:1045800001E06D1CEDB231480078854221DA3048F7
:10459000242101FB05073A8852451CBFBDF80400E1
:1045A0008242EED000F024F80028EAD1787A002880
:1045B000E7D00728E5DA3879012818BF0228E0D0CB
:1045C000641CB9F1000FDCD1E4B25C45D9DB38885A
:1045D0000AE0E4B23CB1BBF1000F04D1012C9ED142
:1045E0004FF0010BA4E75046BDE8FE8F08510020B4
:1045F0009DF80800414677E770B50D4D0C46A98C33
:10460000FDF7D6FC060011D0B078FDF713FE7178E7
:10461000002918BF002809D06A7B012A02D18142F3
:1046200038BF01468C4201D3012070BD002070BD0F
:10463000AC4B00203EC12100A84D002045C1210007
:10464000CC510020944E00207C52002030C121002B
:10465000F84300203FC1210044C1210090500020B8
:104660001053002012530020D8500020E4500020A6
:10467000EC500020E8500020EA43002058C12100FF
:10468000D45000203CC12100AC48002043C121008F
:10469000155300203DC121004DC12100EC460020F2
:1046A0005D4841F2FC72002111525C4908604FF4F0
:1046B0002771018048F20401A0F89C1241F25C517C
:1046C000A0F8A012704738B5012000F017F80400D8
:1046D00008BF08F069FF08F043FE05464F49201F58
:1046E0000860204600F070F84D4901200870002D48
:1046F00004BFBDE8314008F02FBE31BDF8B500243D
:104700000025061D16F003001CBF311D0E1A08F00F
:1047100027FE4349414A097800F0010080F001007A
:1047200011B1B6B2112E01D2176800E03D4F3B68BF
:10473000C3F3C03CBCF1000F18BF002524D1E5B184
:10474000D4F800C063445B044FEADC3E5B0C43EAF0
:10475000CE332360B6B25B045B0CB34214D327465E
:1047600047B33B685C04640CA41BA4B2082C14D3AC
:10477000F45346F400433B8012E05B045B0CB6B29A
:10478000B342EDD201253C463B685B0417EB53472F
:104790003B88002BCBD100270CE043F400433B6067
:1047A00039B11168B94204D13968490417EB514154
:1047B00011603F1D08B108F0CFFD17F0030018BFCE
:1047C00008F0F2FE3846F2BD10B5041F12498842C7
:1047D00003D301F5C051884201D308F0E5FE2068FB
:1047E000C0F3C03008B908F0DFFE08F0B9FD216859
:1047F00021F40041216000F0010008490A68944258
:1048000080F0010038BF0C6000281CBFBDE81040DC
:1048100008F0A2BD10BD000020530020207300202E
:1048200008530020C0550020002208F0BFBE206CB5
:1048300070B504462568002D77D0DFF8D8030268EC
:10484000100002D0217928469047687B02283AD18F
:10485000A87A800737D52079E9281CBFCD28F02811
:1048600031D0A87C00060CD5A87E50B1A87328686A
:104870000088FCF7E7FB48B94FF4987008F096FB06
:1048800004E0DFF894030078401CA873207950B945
:10489000002604E04FF49B7008F088FB761C6079DA
:1048A000F6B28642F6D3A87B401EA873A8762021D4
:1048B00004206873DFF8640300882881DFF8600350
:1048C000007801F0E5FA687B022818BF06282CD191
:1048D000A87AC00729D52179284608F081FE688981
:1048E0004FF6FE710840688128680088FCF7AAFB33
:1048F0000028207912D170B940F22F1008F056FB31
:1049000000256079EDB285420FD24FF49B7008F01C
:104910004DFB6D1CF5E740F2311002E028B940F282
:104920002D10BDE8704008F041BB70BD2DE9F04F7F
:104930009BB089460446924605A908F02DFF9DF8D4
:1049400021000027002804BF9DF828000028B84651
:1049500008D09DF81400251D400606D5E888FCF710
:1049600071FB10B140F235106DE09DF8140000F0BD
:104970000C0004289DF814000CBF012600268006B8
:104980001AD54FF00108BEB9FBF744FF29898142CF
:1049900003D195F82A0000062FD4FBF73BFF014610
:1049A0002889884208D095F82A10090604D405A958
:1049B00006F0A3FD002844D1698D080612D49DF8A5
:1049C000140040060ED59DF815000322104209D1AF
:1049D0009DF8140000F00C020C2A1EBF00F00C0021
:1049E000082801279DF8140000F00300022808D1D0
:1049F000288905A908F0C1FF9DE0E888ADF82E10D0
:104A0000D5E7012812D12FB1080603D4288905A9BA
:104A100008F041FF05A80D902889ADF83000A8786E
:104A20008DF832000CA809F07DF884E00028FCD154
:104A3000DFF8F0B19BF80B00012804BFA87800282C
:104A400004D14FF49A7008F0B1FA74E002208DF8A6
:104A5000640030342889ADF85C0095F82A0000061F
:104A60003DD502208DF84000E888ADF838009DF86B
:104A700017008DF842009DF816008DF84300BBF832
:104A80002400ADF84400BDF81A00ADF84600BDF8AA
:104A90001C00ADF848009DF82800ADF84A000998C0
:104AA0001390688DADF85000A8898DF852002878D1
:104AB0008DF85300A87B8DF854009DF829008DF8DF
:104AC00055009DF82B008DF8560020788DF8570082
:104AD000A0788DF858000EA805F0B4FE2BE0CEB1FA
:104AE000A889514E8DF82A00306820B3FBF792FE5A
:104AF000BDF85C1081421ED1207804903B46688D41
:104B000000F01CF84A462878009005A9346817A8D8
:104B1000A04710E01FB1288905A908F0BCFEA87BBA
:104B2000BBF8242000F00AF84B46E87B009017A958
:104B300005A808F066FD1BB0BDE8F08F0390CDF826
:104B400008A0CDF80480704707F046BD07F0DEBD31
:104B500007F07ABE07F0F0BD07F094BE07F00EBF75
:104B600007F053BF10B5044630480078002818BF3E
:104B7000012815D12B48807B800711D5A07A012808
:104B80000ED0FBF74BFE218881421CBFE07A012842
:104B900006D0084600F04AF910B12088FDF7E6FF7C
:104BA0002046BDE8104007F055BF07F09CBF10B588
:104BB00004461C48807B000707D41D48006820B1CC
:104BC0001C480078082101F063F92046BDE8104038
:104BD00007F0AABF10B5012904460AD10021FFF74A
:104BE00064F8154802782046BDE810400021FEF721
:104BF0005AB910BD07F0FBBE104B10B51B681C0066
:104C000084B005D08DF800000191029200A8984769
:104C10001FBD0000B8510020EC430020C443002019
:104C20007C520020AC4B0020BC51002015530020CA
:104C30004C430020384300204DC121003850002053
:104C400008F04AB807F071BFDFF85C09007824214A
:104C500001FB00F2FF21DFF8540900F0C7BF30B5B7
:104C600000220023242509E0DFF8404905FB034426
:104C70002479844224BFA142521C5B1CDFF82849DE
:104C80002478A342F0DBD0B230BD2DE9F04380465A
:104C9000DFF8140985B05FEA01090478164604D0EC
:104CA000484600F0DEF8050045D10020242200E04F
:104CB000401CC0B2A04207D2DFF8F01802FB00157A
:104CC0002979FF29F4D100E00025002D5ED0DFF81E
:104CD000E008078857B1032E18BF042E06D104211F
:104CE0000320FFF7BCFFE11B88420CDADFF8C408A1
:104CF000078857B1012E18BF022E06D100F04DF8DB
:104D0000E11B884201DB002046E000F001F9ADF82C
:104D10000280494601A802F074F900A802F069FA7D
:104D2000BDF80C0068800020A871DFF88C08818C29
:104D30004046FDF7F0F8002016B1052EB8BF04205C
:104D4000A5F800802E71687100F0B6FB2872012072
:104D50006872AA20A87200202882E871E872E860D0
:104D600086B1032E0EDA00F0FFF900280FBF0868A5
:104D700051F820003C214843E861A861012085F8F2
:104D8000200003E06FF00100E861A86100F0C4F8C2
:104D9000A04200F08BFB28466FE1022101205EE774
:104DA0007FB504460D46284600F05BF80026002833
:104DB0001CBF0188A14228D00179052925DA048089
:104DC00091B1032910DADFF8F417DFF8F427097836
:104DD00000290FBF116852F821103C225143C161D4
:104DE000816180F8206003E06FF00101C1618161A1
:104DF000C66000F08DF8ADF80240294601A802F027
:104E000000F900A802F0F5F90126304604B070BDA3
:104E100080B500F023F800281CBF0079002803D0DB
:104E2000052801DA012002BD002002BD80B500F096
:104E300015F800281CBF0079002803D0032801DAE8
:104E4000012002BD002002BD80B500F007F818B1B6
:104E5000007908B9012002BD002002BD01460020F2
:104E600000E00021F0B504460D464FF6F87085428B
:104E700085B000DB24B3002708E04FF6FF708542C1
:104E800002D03088854219D07F1CFFB2DFF81807A6
:104E90000078874214DA00F006FB01FB0706307940
:104EA000FF28F1D0002CE8D000F01AF90028EBD050
:104EB00001A9204600F070FE0028E5D0304600E051
:104EC000002005B0F0BD30B585B0FFF7CAFF002463
:104ED00005000DD000F01CF801246888ADF80C0026
:104EE00000A802F0D8F82422FF21284600F07EFE18
:104EF00000F012F8DFF8B0160978884205D2DFF822
:104F0000C41601200870FBF766FE204605B030BDD0
:104F100001208DF800007047042100209FE6F0B5C5
:104F2000DFF88426DFF88456137824244FF6FE72C7
:104F3000904208BF002619D0002600E03E469E425F
:104F400014DA771C664306EB050CFFB29CF804C02C
:104F5000BCF1FF0FF2D0765B8642EFD13E4605E012
:104F6000012818BF03280DD0761CF6B29E420BDA3A
:104F700004FB06F7781900290079F1D00028F3D056
:104F80000528F1DA785BF0BD1046F0BD0121C6E7D7
:104F90002DE9F04104460421FFF700FF050013D07E
:104FA000680080B2FFF7AAFB06000BD04FF6FE7830
:104FB00037464046FFF7EAFF404518BF27F8020B87
:104FC000F8D102E0002500E0002625703046BDE85B
:104FD000F081002201E0401E521CDFF8CC15097858
:104FE000D2B28A420CD2DFF8C415242303FB02118B
:104FF0000B79052BF0DA80B20028ECD10846704717
:10500000002070472DE9F04385B00024DFF8B88513
:10501000DFF898651CE01C20684300EB080930F8B5
:105020000810B85B81421CBFBDF80200814205D068
:1050300009F1020101A800F0AFFD10B14846FCF7EC
:1050400096FF6D1CDFF8840500788542E3DB641C65
:1050500000F04FF811DA242000FB04F74FF6FF713F
:10506000B85B8842F3D0FFF753FFB819408800F0CF
:10507000B9FA0028EBD00025E4E705B0BDE8F083DD
:105080007FB50024DFF8485507E0B06910F1020F42
:1050900002D0F069401EF061641C00F02AF81EDAAC
:1050A00000F001FA01FB040630790028F4D003284F
:1050B000F2DAF0690028E8D12878012807D1DFF872
:1050C00014050268100002D0B1693088904700F0E2
:1050D00007F80028E0D001A8FFF7F5FEDCE77FBD68
:1050E00001208DF800007088ADF80C0000A802F0D7
:1050F0005EB8DFF8B40400788442704780B5FFF7EB
:10510000ADFE48B1017931B1032904DA8169C16189
:10511000012180F82010012002BD70B50446DFF89F
:10512000B804016808001EBFDFF8A85428680028EA
:1051300019D0DFF8A8643068A8B16088884790B9B2
:1051400000F012F82A6800280FBF096851F8200003
:105150003C21414360889047012804D16088316830
:10516000BDE87040084770BDDFF85004DFF8501408
:105170000078704738B5DFF8300404780B206043BE
:10518000811C002289B2222001F02AFD05460A2D49
:1051900004D00022E1003F2001F022FD0DB100F01B
:1051A00002F8284632BD80B50020ADF8000000F0BE
:1051B000B7F901BD2DE9F04780468CB08A4691468B
:1051C0001C46222001F02CFD054600263F2001F060
:1051D00027FD002D18BF5545074603D0294622203C
:1051E00001F078FE002F18BFA74203D039463F20B8
:1051F00001F070FE00225146222001F0F1FC0A2845
:1052000061D0002221463F2001F0EAFC0A285AD052
:1052100040F2013A01AB02220021504601F01FFE8C
:10522000002850D1ADF80000002440F202350B27D1
:1052300032E0E4B207FB04F0811C02AB0B2289B21E
:10524000504601F00CFE00283DD1BDF80A004FF693
:10525000FF7188421FD0BDF800007843811C02AB6B
:105260000B2289B2222001F0FAFC60BB0DF102038F
:105270000822E100284601F0F2FD50B9BDF8000017
:10528000C1000DF10203082289B23F2001F0E7FCC2
:10529000C8B900F03FF9641CC349BDF800000978A3
:1052A00088423CBFBDF804108842C2D300F038F9F0
:1052B00048B94146504601F00DFE20B949462846FE
:1052C00001F008FE00B1012630460CB0BDE8F087C1
:1052D0002DE9F84FB44800780B2100244143C60063
:1052E000ADF800408D1C222001F09AFC83463F203F
:1052F00001F096FC804600F0D0F840F2013A5046AA
:1053000001F08EFC074640F20239484601F088FC65
:1053100017B9ADB2AB450AD108B9B04507D157B3FB
:10532000BBF1000F1CBFBDF80010002919D0514679
:105330002220FDF7B5F904001DD149463F20FDF7B5
:10534000AFF9040017D15946222001F0C3FD08B17E
:10535000012410E041463F2001F0BCFD0028F7D1B8
:1053600002E0BB4600B1804633464246A9B25846E9
:10537000FFF720FF04462046BDE8F28F2DE9F04FED
:1053800091B00020ADF80000FFF7A2FF002802D185
:1053900000F083F800287AD18348BDF8001090F817
:1053A0000090894573D3DFF818A2DFF80C82DAF891
:1053B0000060002500246FF0010B0BE0F861B8617C
:1053C000002087F82000FFF7A7FD484500F06EF8A1
:1053D000641CE4B24C455ADABDF80000ADB2854217
:1053E00055D20B2202FB04F0811C07AB89B22220AC
:1053F00001F035FD0028EBD1BDF81E004FF6FF711E
:105400008842E5D00121ADF818008DF80C1003A8F2
:1054100001F0CDFE6D1C0028DAD0B8F82410BDF8DC
:105420001C00FCF778FD00F03EF801FB04070B229E
:1054300007A9384600F0C2FB00F03EF8387201AB15
:10544000012078720822AA20B872E1000020388278
:10545000F872F8603F2001F002FD0028B3D10298F5
:1054600010F1010FAAD1387960B103280ADA534844
:10547000007810B9FE61BE61A2E75AF820003C2115
:1054800048439BE7C7F81CB0C7F818B09BE7BDF8C6
:105490000000C0B211B0BDE8F08F00AB02220021C5
:1054A000222001F0DCBC41482421704702D3454949
:1054B00000200870FBF78FBB49480078401C00EBC8
:1054C000D0704010704738B50020ADF800000024BF
:1054D0001AE0FFF7E8FF01FB04050B206043811C85
:1054E0002B460B2289B2222001F0B9FBE10005F125
:1054F0001403082289B23F2001F0B1FB2879FF286C
:1055000001D000F007F8641CFFF7F3FDE1DB00F0C9
:1055100007F831BDBDF80000401CADF80000704731
:1055200000AB02220021222001F099BBF0B5054614
:1055300085B0FFF732FC2870287878B30C214843F7
:10554000FFF7DCF804002AD02546002604E02846B0
:1055500000F027FD0546761C1348007886421EDAC7
:10556000FFF7A1FF01FB06073879012818BF0228C1
:10557000F1D1FFF7CDFC788800F034F820B101A913
:10558000284600F017FB054697F8200000281DBFAD
:10559000B869F969411A4FF0FF31D8E70024204675
:1055A00005B0F0BD0000000030C12100F84300202C
:1055B0003AC1210038C12100AC4B0020EA43002051
:1055C00058C12100F6430020EC4600203FC12100D5
:1055D00010530020E4500020D8500020EC50002050
:1055E00042C12100ADF80C0000A801F0E0BD0A00A6
:1055F000DFF84C050FF25D3101600FF201314160BF
:10560000704770B504466068A1780D1804212878A9
:1056100000F0070060702878C0F3C100207428787B
:105620004609681C00F0F2FAA06105202077F00717
:1056300008D5691D04F1080000F0BCFA207F08308D
:10564000207705E00822002104F1080000F0CEFADE
:10565000207C012805D1207F405D2075207F401CE3
:10566000207770BD70B50446207FA178227C0D287C
:1056700060680CBF012500250818617841EAC20165
:1056800041EA451100F8011BA16900F08AFC0646B9
:1056900025B104F1080100F08DFA0836207C0128BC
:1056A00004BF207D307070BD30B504466068A178BD
:1056B00091B00D18207818B92046FFF7D3FF03E00A
:1056C00028786178084328702A78A1690DAB04F125
:1056D000080000F002F9A0788DF8040005A9207FE9
:1056E0008DF80500E0788DF8060060788DF80700E9
:1056F000608A02F091FD05A80490FF208DF800005B
:10570000207C022808BF002002D003280AD10220F2
:105710008DF8000009AB05AA082100A808F03CFD9F
:1057200009A80490636820780DAA01A900F095F9F2
:105730000446287800F0F80028701022002109A8FB
:1057400000F054FA1022002105A800F04FFA20467C
:1057500011B030BD3EB510280C461FD1DFF8E45320
:1057600028788DF8040000F043FE8DF8050000F065
:105770003FFE0004000E8DF80600FBF742F80146DC
:1057800002220DF1070000F019FA0094402301AA4B
:105790000021002008F02AFD2078287037BD10B5C0
:1057A0000446234600F06BF818B9DFF89C03406804
:1057B000606110BD00B585B010228DF80010014663
:1057C0000DF1010000F0FAF900AB112200213B209D
:1057D00001F045FA1122002100A800F007FA05B0F7
:1057E00000BD70B5054686B01120FEF787FF0400A6
:1057F00043D02346112200213B2001F030FB00283A
:1058000004BF2078A84230D11120FEF777FF0500B1
:105810002BD02B4600F033F8F8B923461122002193
:105820003A2001F01CFA2B46112200213B2001F006
:1058300016FAC649C44E012081F841001122002009
:105840007060214600A800F0B9F97068059000ABBF
:1058500018220021822001F002FA1122002128469C
:1058600000F0C4F92846FEF7AFFF112200212046C0
:1058700000F0BCF92046FEF7A7FF06B070BD11226C
:1058800000213A2001F0EBBA70B582B01546069AB5
:105890000C4640EAC40040EA451002F8010B1946E4
:1058A000104600F07EFB064635B1FAF7AAFF014626
:1058B000304600F07FF90836012C08D13A2300F079
:1058C00007F800280CBF9DF800000020307073BD61
:1058D00000AA01210020FCF772BD70B50C461E46DF
:1058E00001461546304600F065F9214606F10800EC
:1058F00000F057FB057070BD00000000022100F0B1
:10590000030001FA00F000F01C00704738B50446AF
:105910003A230DF10102FFF7DCFFC0B99DF8010049
:10592000844210D03B23FFF7D3FF88B99DF80000D5
:1059300084420CD19DF801009DF80010884204D2E9
:105940000846FFF74EFF3A2502E03B2500E0002520
:10595000A8B232BD2DE9F0418EB080460E208DF800
:1059600005000D467948007B8DF8070017467E1923
:105970000120B8F1000F8DF804708DF806308DF815
:10598000080029D13A2300F063F810BB0DF115008F
:105990006D4C049001226368581C606000960121E0
:1059A0009DF80700FFF770FFFAF72BFF01460AA8E2
:1059B00000F000F920886649401C208080B2096808
:1059C000814224D2634800784FF4007100F060FAFD
:1059D0001DE0002004901AE0707BFFF797FF3A2843
:1059E00001D13A2302E03B2806D13B2300F030F8F6
:1059F00010B90DF1150000E0002004909DF807108B
:105A0000785D08437855711D0AA800F0D3F8042288
:105A1000711C0CA800F0D2F8785D8DF83400049861
:105A200008B9A12011E02B460AAA01A9404600F0BE
:105A300014F80446785D00F0F80078551022002133
:105A40000DF1150000F0D2F820460EB0BDE8F0814F
:105A500005AA11210020FCF7B2BC2DE9F54F8DB04D
:105A60000C461D4607F07CFC00F0010080F00108A8
:105A7000E06806904FF0000908F06AFC36493748A4
:105A80000860CA4620786178A7780E18E078042864
:105A9000F6B202DABE19F6B2002700F04AF88346E1
:105AA0007319F81807909DF83410E078B1B90428FC
:105AB000A8BF4FF0010A00F02AF801950097504660
:105AC0000E9A08F05BFC040018D10020584515DA46
:105AD00008A9079A415C8154401CF7E70428A8BF35
:105AE0004FF0010900F013F80BEB070080B20090B3
:105AF000019548460E9A08F061FC0446B8F1000F83
:105B000018BF07F029FC20460FB0BDE8F08F022037
:105B10000590594608A8049006980390029670478D
:105B200038B5074C2468250001D0A04732BD0120BC
:105B300032BD034949680A0018BF08470020704772
:105B40008C5200201E53002084520020AC4B0020B9
:105B500094C12100104200209452002059E32000FB
:105B6000027A0B7A9A420CD15AB1022A05D10088E6
:105B70000988884205D101207047032A08BF00F038
:105B80000BB8002070470A7A0272032A08BF00F09F
:105B900011B809880180704710B5082210F8013B40
:105BA00011F8014BA34201D0002010BD521EF5D1C7
:105BB000012010BD082200F001B8000003E011F838
:105BC000013B00F8013B13465A1E002BF7D17047EA
:105BD00010B513465A1E3BB110F8013B11F8014BAA
:105BE000A342F6D0002010BD012010BD10B5044620
:105BF00010460A460146204608F00AFC204610BD21
:105C00000178407801EB002080B2704702780229C9
:105C100003D1407802EB00207047032906D1417878
:105C2000807802EB012101EB00407047042909D183
:105C3000417802EB01218278C07801EB024101EB4F
:105C4000006070471046704708F052BC10B5040061
:105C500001D1002010BD04F1080080B2FEF74EFD16
:105C600028B1002101608480FF218171083010BDBE
:105C700080B508B9052002BD10F8021CFF2901D02B
:105C8000042002BD0838FEF79FFD002002BD00225F
:105C9000FFE710B50446080013D0DFF84C1309786D
:105CA0008C4203D3FFF7E4FF032010BD50F8081C1B
:105CB000002902BFA0F108018B79FF2B03D0FFF769
:105CC000D7FF052010BD8C71012ADFF82033014673
:105CD000184602D100F08CF801E000F052F84FF4C1
:105CE0000041204600F0D4F8002010BD2DE9F0411D
:105CF00080460025002607F033FB00F00100BB4C76
:105D000080F00107206803E006B9054650F8080C4A
:105D100068B110F8021C4145F6D1002E08BF0646B6
:105D2000F4D04FF40041404600F0B2F805E04FF4E3
:105D30000041404600F0B8F826B12A4631462046D8
:105D400000F064F80FB107F007FB3046BDE8F081C2
:105D500070B500F032F8A5490E6800F0010080F03F
:105D6000010001E056F8086C36B116F8021CA14299
:105D700004BF3178A942F5D108B107F0EDFA3046F9
:105D800070BD38B500F019F8002145F8081C00F086
:105D90000100216880F0010011B9256006E011467C
:105DA00051F8082C002AFAD141F8085C00281CBFE1
:105DB000BDE8314007F0D0BA31BD04460D4607F0CA
:105DC000CFBA38B50446002507F0CAFA00F05AF8F1
:105DD00049B10D4655F8081C2160002145F8081C02
:105DE000FF2105F8021C08B107F0B6FA284632BDBB
:105DF00038B5FFF7E2FF216845F8081C2560002848
:105E000004BFBDE8314007F0A7BA31BD70B5054603
:105E10000C46164607F0A4FA2A6854F8081C944267
:105E20000CBF296046F8081C002144F8081C00F04B
:105E3000010080F00100FF2104F8021C00281CBFB3
:105E4000BDE8704007F088BA70BDF8B504460D464D
:105E50001646002707F084FA00F014F819B92560F7
:105E60000AE056B1114651F8082C761E002AF6B207
:105E7000F7D116B141F8085C012708B107F06CFAB8
:105E80003846F2BD00F00100216880F00100704743
:105E900038B500F01AF805D207F062FA00F010F8F1
:105EA0002A4318E0032032BD38B500F00EF805D2C1
:105EB00007F056FA00F004F8AA430CE0032032BDC4
:105EC0004B49096831F81420704704464648007869
:105ED00084420D46704721F8142008B907F03CFAB7
:105EE000002032BD80B5FF2803D107F035FA00202D
:105EF00002BD072002BD80B5FF2803D107F030FAAC
:105F0000002002BD072002BD80B5FEF7C9FB37495E
:105F10000020086000F07CF908F0ECFA08F0F4FAD0
:105F2000FEF7D1FB002002BD80B500F001F8FCE7D0
:105F30002DE9F041002608F051FB2B482C4C00784D
:105F4000216831F8161019B9761CF6B28642F7D3DB
:105F5000864224D207F004FA2168354631F81580CC
:105F6000002221F8152008B907F0F6F9214F224A3E
:105F70003E70414652F82520304690470646FF20A5
:105F8000387007F0EDF9216831F81520324321F817
:105F90001520002804BFBDE8F04107F0DDB9BDE8D9
:105FA000F08100F8011B0A0A00F8012B0A0C00F826
:105FB000012B090E05E000F8011B0A0A00F8012B6D
:105FC000090C00F8011B704710B540B1002300E038
:105FD0005B1CDBB2934204D21C5C8C42F8D00020E4
:105FE00010BD012010BD0000EE552000A45200207D
:105FF000A8520020D843002060E5200010B50AF028
:1060000001FB09F057FD08F079FF012000F006F8C8
:106010000446FF20FFF76FFF204610BD38B5010092
:1060200018BF012108460AF0A2FA044600208DF8A4
:10603000000000A956200AF013FE6F49E2200AF082
:106040000FFE6E4D686818B1FEF7BEFB0020686059
:10605000204632BD80B50A46E2281CBFBDE8044098
:106060000AF0E1BD64491046FFF7A4FD002002BD1F
:1060700038B504460D46E22C04BF5F48FFF79AFD91
:1060800029462046BDE834400AF0EABD80B500212B
:10609000017209F089FD002002BD0021017208F0A3
:1060A0007DBF80B50021017208F07DFF002002BD98
:1060B00038B500F099F808B1FC2032BD20790328EA
:1060C0000CD060B91B20FEF719FB686090B11B2251
:1060D0000021FFF78BFD68680B30A06190E0E0794C
:1060E0000028FBD024214843FEF708FBA0610028CC
:1060F0006860F3D11A2032BD10B582B00446012089
:106100008DF8000000A952200AF0AAFD0020607559
:1061100084F82000204608F04BFF002016BD80B513
:106120000021017509F044FD002002BD70B5044650
:106130000D46627F217FE07F09F010FA060023D030
:106140001222214606F12C00FFF738FDE27F216A7A
:106150007068FFF733FD0B2204F1140106F12000F3
:10616000FFF72CFD28001CBF307A002807D071688B
:1061700029B1A84718B13046FFF77AFD04E0304650
:1061800009F0D2F9002070BD1A2070BD0021CDE7C2
:1061900080B50AF071FE002002BD0AF088BE0AF048
:1061A00012BF80B50AF024FF002002BD38B50D46AD
:1061B000044600210022084609F0D0F988B100F118
:1061C000280102220A748C800A73CD8100224A744D
:1061D00031224A82002180F82810BDE8324009F0BF
:1061E000A3B931BD09F056BD0446044D20682860AE
:1061F000686870470000000034520020645200209C
:106200000020A07120460AF0D3FB002032BD000020
:10621000794900204860704770B504460D4616461F
:1062200000F018F808B1466070BD1020FEF766FA5D
:1062300078B184720581466000210160C1606E49B9
:106240000A6812B9086070BD0A4611680029FBD1BE
:10625000106070BD684A12682AB113898B4204BF6E
:10626000937A8342F7D11046704708B1002101812B
:106270007047F8B500F024F8074600F01DF8044612
:106280000FB907F069F80CB10020F2BD0820F2BD8B
:10629000F8B500F015F800F0010080F0010700F0FB
:1062A0000BF8040018BFE6600FB107F055F80CB109
:1062B0000020F2BD0820F2BD324629462046ABE759
:1062C00004460D46164607F04BB870B504460D4619
:1062D00007F046F800F0010080F00106294620464C
:1062E000FFF7B8FF040018BFFFF7BFFF0EB107F0BC
:1062F00033F80CB1002070BD062070BDF8B504461F
:106300000D46002607F02CF800F0010080F0010790
:1063100029462046FFF79EFF00B146680FB107F0FF
:106320001BF83046F2BD2DE9F04182B005460095DC
:1063300007F016F8304C61686918616008B907F019
:106340000BF82668002E51D00025002707F008F82A
:1063500000F0010080F00108BDF80200002804BF31
:106360009DF80100002807D130799DF8001088427F
:1063700002D3401A307106E07068009981423ABF3A
:10638000401A70607760B08860B9F08860B9F068D2
:1063900000281CBF318900290AD0B07AFFF778FDA8
:1063A000F0687060B08808B9F08808B1308930B9F9
:1063B0003068002D0CBF20602860374600E035466D
:1063C0003668B8F1000F18BF06F0C6FF67B1B8888D
:1063D000002804BFF888002803D13989B87AFFF76C
:1063E00057FD3846FEF7F0F9002EAED1BDE8F38137
:1063F00001484068704700004C5200202DE9FC41E4
:10640000DFF8C45A062600242E7000274FF6FF78C6
:10641000F90201F5001100A801F5F921082211F88F
:10642000013B00F8013B521EF9D1BDF80000404588
:1064300009D12878062808BF2F7009D000213846D6
:1064400000F053F804E0BDF80400404518BF3E4694
:106450007F1C062FDCDB2878062E0DD0062806D000
:1064600000F0C9F80021304600F0DAF808E03046C4
:1064700000F0C1F82E7003E0062818BF00F0BBF84A
:10648000002622460021304600F03FF808B10124E2
:10649000FF26761CF6B2062EF3DB44B1002600225E
:1064A0000021304600F031F8761C062EF7DB287804
:1064B000062817D10020002105EB4102128AB2F50F
:1064C000FF6F01D1084609E005EB40031B8A9342A8
:1064D00038BF0846491CC9B20629EDDB2870287868
:1064E00000F089F80120BDE8F6810B46DFF8D819E5
:1064F00000228A83C00200F5001001F11C0200F5A1
:10650000F920042118180AF043BE2DE9F04F85B098
:1065100080460D469246082700244FF6FF7901AACF
:106520003946404600F0D2F9BDF80400484558D03D
:10653000BDF80620D11C4B1001EB93718910890026
:106540008EB2C7F5FE61B14206DA04F50060C01BE9
:1065500084B24FF4006744E0311910311FFA81FB17
:10656000BDF810101037B1B375B16904490C814200
:1065700032D1BDF80C00290402D448452CD101E0E9
:10658000484529D0B8B233E0B9B2404600F086F9A8
:10659000BDF80810814219D1BDF80C00BAF1000F06
:1065A00010D0484518D1BDF8040000A940F40040BF
:1065B00000F0CEF801000FD09DF80000012200F09D
:1065C0003BF909E0484507D0484611E00122B9B23D
:1065D000404600F031F95C46F719BFB2B7F5FE6FDF
:1065E0009DDBDFF8E40800EB480087800482002090
:1065F00005B0BDE8F08F10B5044600F00BF80AF0C6
:10660000B8FDDFF8C40800EB4400082181800021B8
:10661000018210BDE00200F5001000F5F92070477E
:106620002DE9F04F85B081468B4608240126DFF81E
:106630009878387807EB400001AA858821464846BB
:1066400000F044F9BDF804004FF6FF7188426CD0A9
:10665000BDF80620D01C00F0A0FA1FFA80F8C4F59F
:10666000FE604045A4BFC5F5FE6040455DDBBDF85A
:106670001000103400281CBFBDF8040058454FD04E
:10668000A1B2484600F00AF9BDF80810814247D18E
:10669000BDF80C004FF6FF71884204D10022A1B270
:1066A000484600F0C9F800200090BDF80620BDF86B
:1066B00004103878002300F0D8F9002843D01035B2
:1066C0003A78CDF80080ABB2A1B2484600F05CF950
:1066D00097F800A0BDF80620A9B2504600F0DEF8F9
:1066E000B883103D4FEACA20FFF795FF281807F13D
:1066F0001C020421001D0AF04BFDBDF808A03878EB
:1067000001AA294600F0E2F8BDF8080082451AD136
:10671000BDF80420387805F1100189B200F050FA74
:106720004444A4B2B4F5FE6F83DBBBF1000F08D183
:1067300038780021FFF7D9FE4846FFF75CFF87F85D
:106740000090304654E738780026FFF754FFF8E70A
:1067500070B504460D4601E044F4004400260022D2
:10676000A1B23046FFF7D1FE08B12E7070BD761C85
:10677000F6B2062EF3DB2004EED5062028700020AA
:1067800070BD2DE9F04704469146884609F10300A3
:106790004110DFF8346782B000EB917080103278DE
:1067A0009A4680001030531C80B206250621DFB2C5
:1067B000062FA8BF0027974209D006EB4703B3F87E
:1067C00004C01B8ACCF5006C6344834206DA491E80
:1067D0007B1CC9B20029DFB2EAD12AE049B3844563
:1067E0001EDA04213846FFF780FE41463846FFF79F
:1067F00017FFF0B10094534630784A46414600F006
:1068000034F900B1357814B98AF8007011E03078A5
:106810000021FFF76AFE3846FFF7EDFE377008E00B
:10682000009453464A464146384600F01EF900B1EE
:106830003D462846BDE8F6877FB51546A1F110060E
:10684000044600AAB1B200F041F8FFF7E3FEB6B289
:10685000301845B90021ADF8081002AA042108300B
:106860000AF096FC7FBDBDF80210C91C4A1001EB6E
:1068700092718910890001F110050021ADF80C100A
:10688000ADB203AA04210C300AF082FCDFF838060E
:1068900000EB4400018A691801827FBDC002D21C4E
:1068A00000F50010531000F5F92002EB937209185F
:1068B00092100020920003E011F8013B181880B2FA
:1068C00013465A1E9BB2002BF6D17047C00200F54A
:1068D000001000F5F9200818102110F8013B02F80B
:1068E000013B491EF9D170472DE9F843C0020C461F
:1068F00000F500151746984604F0030105F5F92543
:1069000000AEE9B1601A84B204EB05094A4600F012
:10691000A3F8C0B20346042B08DABFB2002F1FBF92
:1069200018F8011B9955401C7F1EF2D1042B01DA87
:1069300000F08BF800AA042148460AF029FC241D27
:1069400007F003094FF6FC700740A4B242463946EF
:1069500060190AF01DFCB9F1000F13D03C19B844BE
:10696000002018F8011B8155401CC0B24845F8D3DF
:10697000042801DA00F062F8A3B200AA0421581931
:106980000AF006FCBDE8F1832DE9F84F0D461F46DD
:1069900017F00301DFF834350A9C03EBC02803EB42
:1069A000C22900AE20D0781A87B207EB090A5246F6
:1069B00000F052F805EB080105E011F8012B9A559B
:1069C000401C6D1C641EC0B20346042B02DAA4B244
:1069D000002CF2D1042B01DA00F037F800AA0421D0
:1069E00050460AF0D5FB3F1D4FF6FC7004F0030A39
:1069F00000EA040BADB205EB0804BFB222465946CB
:106A000007EB09000AF0C4FBBAF1000F14D05F4491
:106A10005C44002014F8011B8155401CC0B2504555
:106A2000F8D3042801DA00F009F8BBB200AA042167
:106A300003EB09000AF0ACFBBDE8F18FC0F10401E3
:106A400000ABFF22C01807F0E3BC00A8FF22C3F18F
:106A50000401181807F0DCBC002012F8013B835534
:106A6000401CC0B28842F8D370472DE9F04F8046F1
:106A7000DFF854B40BEB480485B0A088ADF80000F3
:106A80000F464FEAC82000F50010BDF80010ADF821
:106A9000047000F5F92091460E189A460025ADF8CD
:106AA000069001AA042130460AF072FB00F06FF84C
:106AB000BDF80410BDF80600B94208BF484551D1E1
:106AC0000E98002847D05FEA0A00494601F0030209
:106AD00003D1C1EB0127BFB20AE0002703E010F8A1
:106AE000013BDB199FB20B46591E9BB2002BF6D11E
:106AF0002AB1C2F10400C0EB0020C01987B2BDF872
:106B000000001030BAF1000FADF8020006D0BDF859
:106B1000021053464A464046FFF7E6FEBDF8021013
:106B20004A464046FFF7BAFE874215D1ABF81C70C3
:106B30000BF11C020421301D0AF02AFB00F027F89B
:106B4000BDF80800874207D1BDF80420BDF8001049
:106B5000404600F035F80125BDF8060000F01CF8AD
:106B600010300DE000F018F8A1881030C1F5006277
:106B700080B28242B8BFC1F50060218A41182182EB
:106B8000A1884018A08005B02846BDE8F08FBDF868
:106B9000001001AA404699E6C01C411000EB91701C
:106BA00080108000704700210FF2643232F81130FB
:106BB000834203D0491CC9B20329F7DB084670475A
:106BC00038B504460D461046FFF7EDFF032804DAFA
:106BD000BF49445401EB4000858031BDFFF70EBC36
:106BE00070B5044682B00D4616464E200AF04AFBA8
:106BF000A0B100F031F838B101469DF800002246FE
:106C0000FFF7DEFF002076BD33462A4621460120ED
:106C1000FFF7B7FD062801D0092076BD0A2076BD12
:106C200010B586B00446FFF7BEFF032801460DDA13
:106C300000F041F9A0F110019DF8000001AA89B20D
:106C4000FFF744FEBDF8060006B010BD00F004F8E2
:106C50000100EFD10020F7E700A9204678E52DE9F3
:106C6000F84B0AB4814689B0144600254E200AF03C
:106C700009FBC8B1002C3FD001A94846FFF768FDC9
:106C80005FEA000808BF09200FD0A8F110019DF8A5
:106C9000040002AA89B2FFF719FEBDF82400BDF86E
:106CA0000A102218914201DA0A20D5E09DF804105A
:106CB00000F0FBF8414440180A99224600274FF69D
:106CC000FF7613E0037891F800C063450CD0BDF85F
:106CD0000CC0ACEB0303ADF80C307F1C91F800C086
:106CE0006344BFB2ADF80C30401C491C1346F21887
:106CF0009BB2002BE6D1002F00F0AD8006208DF86E
:106D000005000DF10503BDF80A2049460020FFF7F4
:106D100038FD8146B9F1060FDFF8ACB172D0BDF88D
:106D20000A00BDF80C70C01C411000EB917080107F
:106D30008004000C07900BEB4900069007998088AF
:106D4000401AADF80600BDF81000B04205D19DF81C
:106D5000040000224146FFF76FFDBDF82400BDF896
:106D6000063000904A469DF804004146FFF70CFEAD
:106D7000BDF80600BDF824100A9B0E182246B1B2D9
:106D80004846FFF7B1FDBDF80A00BDF82410401ACF
:106D9000001B80B20090A319BDF8240040442118C4
:106DA0009DF804009BB24A4689B2FFF7EDFD0698B4
:106DB00007998088BDF80A20441AA1B24846FFF717
:106DC0006DFDABF81C00103C4FEAC920FFF723FC17
:106DD000A4B220180BF11C020421001D0AF0D8F9FE
:106DE00002AA21464846FFF771FDBDF80C00874214
:106DF00008D1BDF8082004F1100189B24846FFF718
:106E0000DFFE00E00A259DF80500062817D09DF852
:106E100004109DF805209BF80000914208BF0A2D40
:106E200002D1FFF7E8FB0AE00021FFF75EFB9DF8C7
:106E30000500FFF7E0FB9DF805008BF800009DF8CA
:106E400004009DF80510884218BF0A2D03D00122C6
:106E50004146FFF7F1FC28460CB0BDE8F08BF8B5D1
:106E600007460E4614461D46FFF79DFE03280146C1
:106E700008DA00F020F89DF8001000F016F840182D
:106E800030180BE000A93846FFF762FC0100F2D190
:106E90000A20F2BD10F8011B05F8011B21464C1E0B
:106EA00089B20029F6D10020F2BDC90201F5001116
:106EB00001F5F921704706480A5C8DF8002000EBC7
:106EC00041008088704700001843002000C8270058
:106ED000D851002070B582B00D46044600A9FFF7D6
:106EE00037FC060001D1092076BD2046FFF798FE49
:106EF000A84201D00C2076BD9DF800000122314649
:106F0000FFF79AFCFFF7A8FE00B10A2076BD00004B
:106F100082003A003B000000DFF874248089138867
:106F20000021984208D252680C2303FB00200F2254
:106F30000078104218BF01210846704710B5DFF8ED
:106F40005024838952680C24012904FB032402D1B4
:106F5000408860800DE0022907D141886180001DD2
:106F600000F056F828B9207003E0011D201D00F044
:106F700048F8207840F080002070BDE8104005F00F
:106F8000D6BDF8B504464FF6FE70A08100202178EA
:106F900009B30025DFF8F86319E071680C2202FBE1
:106FA00005170F223978114210D120783870211D31
:106FB00060887880381D00F024F8A581387840F08A
:106FC0008000387005F0B3FD358801206D1C3188D4
:106FD000ADB28D42E1D3F2BD38B5DFF8B4432080C5
:106FE00068B10C2101FB00F5A8B2FDF787FB6060DA
:106FF00030B1AAB2BDE838400021FEF7F7BD6060AD
:1070000031BD002918BFFEF7D5BD0822FEF7EEBD41
:10701000002140B10022135C0BB101210822521C57
:10702000D2B2082AF7DB08467047024601208A429E
:1070300006D022B100291CBF1046FEF7ADBD0020CE
:1070400070471FB50C460021ADF802008DF8001006
:1070500000A800F055F801A92046FFF7D2FF20460E
:10706000FFF7D6FF04B010BD1FB50C4600218DF808
:107070000010014601A8FFF7C4FF00A800F06BF85C
:10708000BDF8020020804FF6FE71884214BF012037
:10709000002004B010BD38B50546FFF73DFF04469B
:1070A000012C0BD100F025F82A78017882F0FF023C
:1070B000114041F08001017005F039FD204632BDDC
:1070C00038B505460024287888B12846FFF724FF04
:1070D0000446012C0BD100F00CF8297802780A4202
:1070E00005D141F080011143017005F020FD2046DB
:1070F00032BDA748A98940680C2202FB01007047F5
:10710000F8B5044600F072F8628800204FF6FE7170
:107110008A42A1811ED000259D4E17E00C21726885
:1071200069430F278B5C3B420FD08F1861887A88A8
:1071300091420AD1381DFFF76BFF012802D1391D9A
:1071400000F055F8A581012035886D1C3188ADB25D
:107150008D42E3D3F2BD2DE9F04104464FF6FE70B7
:107160006080A0814FF00008201DFFF751FF01282B
:107170001AD10026864F13E00C20796870430F2344
:10718000425C1A420BD04518291D201DFEF704FD54
:1071900028B16888A68160804FF001083E88761C7F
:1071A0003888B6B28642E7D34046BDE8F08170B574
:1071B00004464FF6FE70608000F018F82046FFF796
:1071C000ABFE0546012D0FD17148A18940680C2204
:1071D00002FB010670886080301DFFF719FF01284F
:1071E00002D1311D00F003F8284670BD0021201D9A
:1071F00007E72DE9F041044688B04FF6FE75A581FA
:1072000000268DF80060211D01A8FFF7FAFE00A8F6
:10721000FFF7A1FF002701284FF0010808D1BDF8B2
:107220000C006188A081BDF8020088423DD000AE0C
:107230008DF810706088ADF8120004A8FFF760FFA9
:10724000012808BF04AF3EB1B089A08101212046CA
:10725000FFF774FE4FB30BE0C7B1B889A081381DAA
:10726000FFF7D6FE012807D12046FFF78AFE8046A9
:107270007D800221384606E0201DFFF7C9FE012867
:1072800013D103212046FFF759FE0EE06088A84283
:1072900007D1201DFFF7BCFE012818BF4FF00008E2
:1072A00003D12046FFF76DFE80462046FFF708FF1A
:1072B000404608B0BDE8F0810020354900E0401CA0
:1072C0000A8880B2904209D24A680C2303FB00224C
:1072D0000F2312781A42F2D1002070470120704724
:1072E00070B500240C252A4E07E0706805FB0403E6
:1072F00000F020F8FFF7B3FD641C3088A4B284428C
:10730000F3D370BD70B500240C25214E0DE07068DC
:1073100005FB04031878010606D500F07F001870FD
:1073200000F008F8FFF79BFC641C3088A4B284428C
:10733000EDD370BD05FB04F10C2289B22320704708
:1073400010B5134800880C214143002289B2232044
:10735000FFF746FC040018BF00F002F8204610BDFD
:1073600038B500240A4D0CE000208DF8000000AB79
:107370000C2000FB04F1012289B22320FFF76FFCEF
:10738000641C2888A4B28442EED331BD0000000002
:10739000745200201FB500F00FF800A8FFF729FF76
:1073A00000F005F80CBF0020C82004B010BDBDF8E7
:1073B0000C102180012870471446ADF8020002220B
:1073C0008DF8002001A8FFF71CBE1FB50C46022156
:1073D0008DF80010014601A8FFF713FE00A8FFF783
:1073E000BAFEFFF7E4FF0CBF0020C82004B010BDB8
:1073F00010B586B000A9FFF7E8FF04000CD1022009
:107400008DF80400BDF80000ADF8100001A8FFF7EA
:1074100042FE012818BF0124204606B010BD38B531
:10742000DFF8005C0446686A80B91220FDF766F94F
:10743000686288B1002106224A434FF6FE73135258
:1074400012180023491C03295380F4DB002C04BFCD
:10745000BDE8314000F007BD31BD30B500220A6003
:10746000DFF8C02B526A6AB1002306245C43A55A98
:10747000854203D1A0180860002030BD5B1C9BB280
:10748000032BF2DBC82030BD38B50C46002121604B
:10749000C82500A9FFF799FF28B9BDF800002146CB
:1074A000FFF7DBFF0546284632BD70B582B00C46BB
:1074B000154600A9FFF789FFA0B9DFF8680B406AFD
:1074C00080B1002106224A43BDF80060135AB3423E
:1074D00004D1101820602980002076BD491C89B293
:1074E0000329EFDBC82076BD10B5DFF8382B526AD0
:1074F0006AB10023062404FB03242488844202D1B9
:107500000B80002010BD5B1C9BB2032BF2DBC8205C
:1075100010BD7CB5054601A92888FFF7E5FF0646A2
:1075200000F0F1FC04000CD018220021FEF75EFBF5
:107530006888234600F0C9FB002068802046FDF7DC
:1075400043F94FF6FE742C8000202871EEB9DFF865
:10755000D46ABDF80400726A062101FB00F51AB175
:107560004843AB1800F079FC00F0D0FC68B9706AB1
:10757000285AA042BDF8000002D120B1401E00E010
:10758000401CADF8000000F03FFC73BD70B5002159
:107590000160DFF8901A4A6A92B100234FF6FE7636
:1075A00006245C43A55AB54206D1A2180260002009
:1075B000496A6118087170BD5B1C9BB2032BEFDB3D
:1075C000C82070BD80B5029801681020FEF7C2F88F
:1075D000DFF8D80B039900780870002002BD10B5C1
:1075E0008EB0044602A9601D03F0B9FA012831D11A
:1075F000608808A903F094FA01282BD10AA8049006
:107600000DF10E00019004A80090631DBDF8082044
:10761000608808A9FFF7D6FFE0B901208DF81A00AD
:107620008DF81900002007906088ADF80C00601DEF
:107630000590012000F010F8BDF80800ADF80C002E
:1076400008A80590002000F007F8102200210AA8E1
:10765000FEF7CCFA0EB010BD8DF8180003A803F0A9
:107660006FBF10B504468CB02088ADF808003A23EF
:107670006068049007AA01208DF80A0011210020FB
:10768000FAF79DFE08B100F027F89DF81C008DF870
:107690000B000DF11D00039001208DF81500F9F786
:1076A000B9F82189814204D100208DF81600069096
:1076B00009E001208DF8160000A806902089ADF899
:1076C00000006068019002A803F03AFF044600F051
:1076D00003F820460CB010BD1122002107A8FEF7C8
:1076E00085BA10B582B000F0FDFA040004BF00981E
:1076F000FFF70FFF204616BD10B586B00446F9F718
:1077000089F82189814224D1606800900020ADF879
:1077100004006068FDF7A5FB00281CBF0179002963
:107720000AD0052908DA407900F00800411E894195
:10773000C90F8DF8061008E0F9F76CF8218881422E
:1077400016D1002000908DF8060000A802F060FF1E
:107750000EE0ADF8081060680390DFF8E80B0078E1
:10776000012802D1002000F005F8012000F002F805
:1077700006B010BD8DF8100002A803F083BFDFF83B
:10778000101C0978002001B9C8207047DFF8041CDC
:107790000978012908BFFFF7F2BFC82070477FB5FD
:1077A00005460024A87A20B92846FFF7EFFF040019
:1077B00012D16968288800AAFFF7ECFDE87A400733
:1077C0000AD5A87A40B92846FFF74BFF040008D035
:1077D0006868FFF70DFE00E01CB12846FFF78CFF3C
:1077E00012E0DFF8B46B306A70B12888ADF804009D
:1077F000082269680DF10600FEF7E0F92889316A70
:10780000ADF80E0001A88847204604B070BD38B519
:107810000446FFF7C4FF050004D12088FDF71EFBD6
:1078200000F04AF8284632BDE0B50021ADF800105E
:107830000188ADF8021041680191C17A0A0609D5A4
:10784000490605D5817A012914BF072104210AE0E0
:10785000052108E0490605D5817A012914BF0321D5
:10786000002100E001218DF808100088FDF7F6FAEC
:1078700000F022F8DFF8240B0078012802D1002064
:1078800000F004F8012000F001F80EBD8DF80900A9
:1078900000A803F0C8BE10B50446DFF8040B00785A
:1078A00010B103F09CFF18B12046BDE81040AEE7D0
:1078B0002046BDE81040B7E718B1417941F0080112
:1078C00041717047DFF8DC0A0078052805D1DFF840
:1078D000D80A00788021FEF7DBBA704710B5FFF7B1
:1078E0009EFDDFF8BC4A207818B9F8F78AFF00F04F
:1078F0006DFD207810B103F072FF28B1DFF8940A13
:107900000121017000214170BDE8104080B5FDF7F4
:107910006FFEDFF88C0A0078002804BFBDE8014044
:1079200003F056BF012804BFBDE8014003F045BF86
:10793000BDE8014003F03ABF002120B10122FF2839
:1079400002D0012100E00022DFF8480A02704170F5
:1079500001207047DFF83C0A4178012902D100215B
:1079600001704170704730B587B00025FDF776FA99
:10797000040036D0DFF8340A00780125012804BF5E
:107980002046FFF799FF00208DF80C006088ADF8C5
:10799000180003A8FFF70BFC2088ADF8000004A82E
:1079A0000190F8F737FFADF80800607900F060004B
:1079B00060280EBF8DF80A5000208DF80A0060790B
:1079C0008DF80B0000A8FFF766FF20B9607900F082
:1079D000FB00607105E004A8FFF70AFD04A8FDF7AD
:1079E00072FA284607B030BD10B586B004460020B4
:1079F0008DF80400214602A8FEF7DCF803F0EFFE44
:107A000048B901A8FFF7A7FB012804D000AA214626
:107A10000020FFF7BFFC06B010BD30B5044687B0AC
:107A200004F1160000F09FFC0822FF2104F116006B
:107A3000FEF7CAFA18B1DFF85C190120087004F1EA
:107A40001600FFF7D1FF2079012818BF06282CD196
:107A500000200119897919B9401CC0B21028F8DB3F
:107A60001028DFF84C5913D195F84100D0B902A97C
:107A7000622000F0D1FB002102A8FDF79BFE002050
:107A8000FDF7AFFE1022002102A8FEF7AFF809E0D3
:107A90006179A01DFDF78EFE95F8410010B960795F
:107AA000FDF79FFEFFF70EFF2AE0042828D00328E9
:107AB00026D101A904F11600FFF787FC68B101AADD
:107AC00004F116014FF6FE70FFF764FC002200235C
:107AD000114604F1160009F034FC00F07AF9009820
:107AE00038B900A8FFF752FD18B90099BDF8040095
:107AF0000880A11D04F1160000F0ACF800F08AF92E
:107B000007B030BDE0B58189ADF80010011D0191CD
:107B10004188ADF8081004218DF80B1000218DF874
:107B20000A10807B022809D028B908208DF80B00A4
:107B300001208DF80A0000A8FFF731FE07BD01798A
:107B4000012903D0022908BFFFF749BD704780B55E
:107B50000079FDF746FEBDE8014005F0A5B870B517
:107B60008AB0044601208DF802000D4600200290E4
:107B70004FF6FF7101208DF80E00ADF800200020B7
:107B80008A421FBF4FF6FC718A424FF6FD718A424E
:107B90008DF803500194049002D18DF80D000EE091
:107BA00002208DF81400ADF81620012605A8FFF775
:107BB000A7FA012807D106A802908DF80D6000A849
:107BC00003F0BEFC064629462046FDF7F3FD05F00E
:107BD0006BF830460AB070BD30B54FF6FF7285B015
:107BE000914204461FBF4FF6FC7291424FF6FD7260
:107BF0009142ADF800108DF8024003D100208DF8BD
:107C0000030010E002208DF80400ADF806100125F5
:107C100001A8FFF775FA012809D1BDF80600ADF8F3
:107C200000008DF8035000A803F099FD054620469A
:107C3000FDF7D7FD05F038F88AE000B583B00021E4
:107C40008DF80010019002218DF8011000A803F0BA
:107C50004EFD0EBD7CB50D4601AA00A9FFF725FC1F
:107C6000040030D1BDF80400009900F201204880E2
:107C700000F049F9060026D000984088334600F00D
:107C80006AF8102229463046FDF798FF00207061FF
:107C9000306133460098408800F017F81822002120
:107CA0003046FDF7A3FF3046FCF78EFD0099DFF864
:107CB000740349880C2202FB0100DFF8F816002249
:107CC0000A5008184260204676BD18220021FEF7AF
:107CD000C6BF10B582B000F004F808B900990C7165
:107CE00016BD0C4600A9FFF7CFBB1FB500F01FF86B
:107CF000F8F787FD014600A8FDF74EFF90B100A9F7
:107D00002046FFF79EF978B102A900A8FFF7BCFB57
:107D100018B90298007940B104E003A900A8FFF760
:107D200054FB08B9012000E0002004B010BD044657
:107D300000AA0021AB2002F0B2BE10B582B0FFF75E
:107D4000D0FF002806BF009949880021218016BD78
:107D5000284605B030BD18220021FFF780B8182250
:107D600000212046FDF742BF80B5018859B98178CE
:107D7000012918BF062904D18068FDF772F8FFF7C2
:107D80009BFD012002BD002002BD30B583B0154629
:107D90000C4601AAFFF7FEFA08B101203EBD00F033
:107DA00018F8009838B900A8FFF7F0FB78B90099E7
:107DB000BDF80400088029462046FFF74BFF01214B
:107DC0002046FFF786FF00F025F800203EBD112079
:107DD0003EBDBDF8040000A9FFF73FBB10B582B05F
:107DE000002214214C20FEF7FBFE040001D000F01D
:107DF00008F8DFF8C42508217120FEF7F1FE2043C2
:107E000016BD0020ADF8000000AB022200214C207E
:107E1000FEF725BFF8B50020ADF80000DFF89C455F
:107E2000606AB8B100250626606A06FB05F73B18B4
:107E300006FB05F000F011F8606A385A4FF6FE7143
:107E4000884204D0BDF80000401CADF800006D1C55
:107E5000032DE9DBFFF7D8FFF1BD811C062289B2B3
:107E60004C20FEF7FCBE2DE9F84300F04FF8002847
:107E700043D1BDF8000000283FD004283DDA00F0CF
:107E800042F804460025DFF82C85664E4FF00609BF
:107E9000706A09FB05F73B1809FB05F0811C0622F7
:107EA00089B24C20FEF7DBFF00BB706A395A4FF6EF
:107EB000FE72914218BF002C18D038182346408813
:107EC000FFF749FF206900F2E93121610C22706A55
:107ED00038182346408802FB006248F802104244EA
:107EE00061695160FFF7F1FEFFF739FF6D1C032D4B
:107EF000CEDB14B12046FCF767FC00F043FAFEF736
:107F0000AEFFBDE8F1831820FCF7F8BB00AB0222FE
:107F100000214C20FEF7A3BF3EB5FFF772FF0622FB
:107F2000002101A8FDF762FE002406206043811CA9
:107F300001AB062289B24C20FEF791FE641C032C93
:107F4000F3DBFFF7E0FF050012D018220021FDF758
:107F50004DFE002404F201202B461822002180B29D
:107F6000FEF77DFE641C032CF4DB2846FCF72CFC9A
:107F700037BDE0B54FF6FE7398421CBF00299A4208
:107F800001D101200EBDADF800000191ADF808202F
:107F900000A8FFF7B1FB00200EBD2DE9F04389B02A
:107FA00004460025DFF81864DFF81894DFF8188419
:107FB00000F065F9002D04BF98F80000012808D1F1
:107FC0000822FF2100F05DF91022494602A8FDF7C2
:107FD000F5FD05F2011700AA2021B8B2FEF700FE58
:107FE000C0B900AB20220021B8B2FEF738FF012C47
:107FF0000EBF002006980B30069000AB2022002117
:10800000B8B2FEF72CFE0C20684306998151801906
:10801000079941606D1C102DCADB00F030F909B0E2
:10802000BDE8F083685000202DE9F04504460D4678
:1080300089B01026A1274FF0000805F10800FEF7CF
:10804000E7FF28B905F10801204602F069FD09E0C3
:10805000D74C04F11C0105F10800FDF79DFD08B1A6
:10806000B4F81A800024DFF860A304F2011000AB1A
:1080700000F09EF800A905F10800FEF7D6FF08B150
:10808000264615E000A800F098F868B1B8F1000F96
:1080900007D0287C022802BF002C9AF80000012893
:1080A00002D0102E08BF2646601CC4B2102CDCDBA8
:1080B000102E15DAA349097806F2011071B9C049EA
:1080C0000C2202FB0611AA6951F8043F9A4203D31D
:1080D0006882501C086002E0A22701E06882002745
:1080E00000F0CDF8384609B0BDE8F0852DE9F04143
:1080F0008CB00D46ADF802000021A12410268DF8A9
:10810000001005F10800FEF783FF8046002707F204
:10811000011004AB00F04CF8B8F1000F05D004A931
:1081200005F10800FEF781FF88B904A800F045F8C2
:1081300030B1B8F1000F02D103F051FB38B13E4627
:10814000781CC7B2102FE2DB102E1EDA37469C488F
:108150000C2101FB070007F20111002469822C7435
:108160000A220168A9610A230168491C0160B1FB68
:10817000F2F203FB121181B9012101724FF4806107
:1081800089480078FDF784FE07E000A8FEF7B8FFF5
:10819000012804BF00A8FEF77EFF2022002104A8CA
:1081A000FDF724FD20460CB0BDE8F081D943002046
:1081B0002022002180B2FEF752BE0822FF21FDF7E7
:1081C00003BF10B58CB0044600F026F905AA1821AB
:1081D0008220FEF705FD002808BF012C01D100F028
:1081E00015F9112200F04CF800AA11213A20FEF7EF
:1081F000F7FC002808BF012C01D100F001F900AA0A
:1082000011213B20FEF7ECFC002808BF012C01D116
:1082100000F0F0F80CB010BD10B53A2818BF3B289C
:1082200003D10B461022012111E00346A3F20114F1
:10823000102C03D20B461022082108E0A3F20123E0
:10824000032B01D3622806D10B4610220021BDE882
:108250001040FEF704BE0A2010BD10B586B01822EB
:1082600000F00EF8002404F2012000AA182180B2C8
:10827000FEF7B6FC641C032CF5DB06B010BD202213
:10828000002100A8FDF7B2BC10B50446FFF799FF26
:10829000FFF7E3FF2046BDE810407EE62DE9F843F6
:1082A000FFF731FE040020D00025DFF8109100F028
:1082B0004BF815D105F20126234618220021B0B251
:1082C000FEF7CDFD60B958F80900206123467868B3
:1082D000606118220021B0B2FEF7C1FC00203872A4
:1082E0006D1C032DE3DB182236E0BDE8F1832DE998
:1082F000F8432020FCF702FA040020D00025DFF824
:10830000C09000F021F815D105F201162346202275
:108310000021B0B2FEF7A3FD60B958F80900A061D2
:1083200023467868E06120220021B0B2FEF797FC76
:10833000002038726D1C102DE3DB20220CE0BDE81C
:10834000F1830000AD4300200C2000FB05F808EB92
:108350000907387A01287047FFF702FD2046BDE87B
:10836000F243FCF731BA1CB50FF2B80218CA00A9E3
:1083700018C100B900A800F029F800F003F8FEF7D2
:108380006EFC13BD0C4B08220021712070470000C9
:10839000E0430020F852002018420020AD430020A6
:1083A00015530020124200201042002013530020D9
:1083B000AC4B0020F4E7FFFF54520020685000202F
:1083C000EC4A0020B0C12100AE430020024600214B
:1083D000AB2002F090BB00B58BB000F01DF800F0B0
:1083E00015F81122FFF74CFF00F00AF800F002F830
:1083F0000BB000BD00AB112200213B20FEF72FBCCB
:1084000000AB112200213A20FEF729BC05AB18224F
:1084100000218220FEF723BC1822002105A8FDF7C9
:10842000E5BB0000FFFFFFFFFFFFFFFF80B51A2045
:10843000FEF7D2FDF9F756FF3B480078002818BF39
:10844000012807D139480078012804BFBDE8014060
:10845000F9F7C5BF01BD38B5354CFDF7F5FB207008
:108460004FF6FE750220A074E5821420207165830A
:108470000F2084F82C0084F82D0008222D48007865
:10848000E07100212C48007860702C480078A070C2
:10849000002020810120E07284F86C000520207308
:1084A0000120607326488078A073264800782082D7
:1084B00025480078E0742548007820750020207653
:1084C00004F11C00FDF792FBA58404F1390020495A
:1084D000FDF770FB002084F8410004F16E030F20CB
:1084E00084F866000222032084F8670000211948FE
:1084F000007884F86A001848007884F86900174802
:10850000007884F86B00012084F868008920FEF769
:10851000A6FC10B10020A4F86E00002084F87200C0
:10852000A4F8700031BD0000155300201253002044
:10853000AC4B0020E5430020E4430020E34300204F
:1085400070510020DE430020E1430020E243002080
:10855000844300200D5300200C530020E7430020EB
:10856000704780B5E12918BFF12907D130210A42AF
:1085700004D0FDF769FB00F00700801C80B202BD4B
:1085800010B5DFF8D818DFF8D8480870002084F854
:108590002600FFF74BFFFAF7BBF800206067F9F7FA
:1085A00047FC00F056FC18BF012803D1FCF74CFB38
:1085B000FAF736FCFFF74FFFDFF8A8180020086035
:1085C000BDE81040FDF7E4BD2DE9F043DFF88C581D
:1085D00028780C4621048FB01CD5FDF787FB0500D9
:1085E00015D000200FF2F02100E0401CC0B202467E
:1085F00011F83230FF2B07D02E78B342F5D101EBC2
:10860000C2012846496888472846FDF731FB84F4B3
:1086100000405DE1A1040BD5FAF787FA050004D00C
:1086200000F032FC2846FDF723FB84F400504FE1B4
:10863000DFF83418DFF834780978022984F48046AA
:1086400027D1E3070ED5387D0F2808D1002000F090
:108650007CF920B1DFF81808006800F02AFA84F0ED
:10866000010035E1630414D5DFF808080178062914
:108670000AD10B210170DFF80008017897F900207A
:108680000120904001F081FEDFF8F00702682878B1
:10869000FDE0A30640F1A1802021FDF72FFE6968CF
:1086A000084308BF01260BD0FDF7A2FE696800262B
:1086B00021B1884234BF4FF0FF36461A76085BD0AE
:1086C00000F03EF907460DF1140832E0FF208DF866
:1086D00000008DF8010001AA4FF0FF308DF8020074
:1086E0003868C17F006AF7F77AFF01281BD1788AC2
:1086F00040F08000A8F81E00B97B8DF83410B97ADC
:10870000090706D540F48070A8F81E000DA9387B33
:108710008870786910B1007BADF81400002200A9C0
:1087200001A8FCF703F906207873387BFAF794F870
:108730004F460FB3002204213846FAF72FF981463D
:108740003889B0422CBF801B00203881388900282E
:10875000EED1B87B01280AD1B87A4007B6D40620FA
:108760007873B7213868407B00F081F9E0E7002892
:10877000ACD101207873DBE7F9F7CFFF00220121AC
:108780000020FAF70BF918B128782021FDF780FBBB
:1087900000F0D6F8E8B1078903E001898F4288BF6D
:1087A0000F4600220421FAF7F9F80028F5D1B6B2F5
:1087B0002878BE4202D2BF1BBFB227B92021FDF7E5
:1087C00067FB002005E07A002021FDF752FDFDF750
:1087D0000FFE686084F020007AE0002918BF0129AC
:1087E0005BD1E00604D5FAF7CFFE84F010006FE00D
:1087F000600604D5FBF729FB84F0400068E0200602
:1088000004D501F057FD84F0800061E0E00504D557
:10881000F9F7FAF884F480705AE0200516D5FAF7D3
:10882000CEFBDFF85C06007801280CD1DFF8540697
:10883000007840B14FF47A7101FB00F228784FF4D0
:108840000061FDF725FD84F4006041E0E00408D5F7
:10885000687818B100206870FAF7B1FB84F4805092
:1088600036E0600419D5DFF8800C0068010012D0F2
:10887000DFF8781C097801290DD18047DFF8700CEA
:108880000068010018BF804728784FF47A724FF4CF
:108890008041FDF7FDFC30461AE0A00504D5F9F74C
:1088A00078F884F4007013E0600510D5DFF8440C0C
:1088B0000088F8F7B9F8DFF8BC0C0088F8F7B0F8D2
:1088C000B8890121FCF748F984F4806000E00020B9
:1088D0000FB0BDE8F0830000010000007D9520008E
:1088E00006000000919D200008000000159D20005A
:1088F0000B000000879E200010000000C5402000F3
:108900000A000000899F2000020000002997200033
:1089100005000000D19A20000700000041982000C7
:108920000C000000C58B20000D000000898E200087
:10893000640000001B512000FF0000000000000048
:10894000002204210020FAF729B800B587B01822C8
:1089500001F070F802208DF80800DFF80405418B63
:10896000808CADF80A00ADF8001000208DF81400DE
:1089700000A8FDF7D4FB07B000BD10B50C008EB009
:1089800012D0014600AA2046F7F729FE9DF80600FE
:1089900050B19DF81C309DF8012021460020FDF7C4
:1089A000BFF808B1A42000E000200EB010BDF8B55B
:1089B00004464FF6FE756089410609D5206800F02F
:1089C000D4F910B14FF6FF703AE02068008835E026
:1089D000DFF894140A78002A18BF012A2AD1DFF898
:1089E0008014897B890725D52768396A0A794979EE
:1089F000C0044CBF4020002002EB012600902B4613
:108A0000228B3888B1B2FAF7FFFAB6B2B0421CBF77
:108A1000218B884212D1206801880023022230462F
:108A2000F8F794FCCD252068407B294600F01FF81C
:108A3000B0B11AE0022AF5D1F7F7F0FEA842F1D062
:108A400021680880F8F7FEFA014620684A1E924124
:108A5000D20FC281DFF8C81CFDF768FB0500E2D128
:108A60001CB101212046F9F77EFE2846F2BD38B53B
:108A700004460D461420FDF7E9F860B10C210170A1
:108A80008470002181734570014601F0B8F8FDF74C
:108A9000FEF8002032BD2046F9F78FFF38B10621DD
:108AA0004173007BFBF7FAFA2046F9F7D5FE102058
:108AB00032BDDFF8701C8A790F2A0CD158B10978C1
:108AC000082918BF042906D10246DFF89003007870
:108AD0000121FDF7CEBB7047F8B5044616460020CD
:108AE00030800D46A06A00781F46F8F779FA38B151
:108AF0006089F8F7A7FA022802D16089308000E087
:108B00000027A16ADFF858030978491E0A2953D8BB
:108B1000DFE801F0060C1A1F112C52373B434900C5
:108B2000324629462046FAF734FB3AE029462046E9
:108B3000FAF707FC44E06089F8F784FA00283BD193
:108B40002046FAF787FF3BE039462046F8F725FC38
:108B500027E0217F02292FD11FB96189C08A814274
:108B60002ED121463846F8F7AAF91AE06189C08A61
:108B7000814204BF207F02281ED12046F8F7A6F8C4
:108B80001EE02046F9F798F81AE06189C08A814210
:108B900012D12046F8F7CBFC12E021463846F8F710
:108BA0002DFD07460CE001F0EDF818BF002707D1B6
:108BB0002046F8F771FD03E0D32004F0F7F9002711
:108BC0003846F2BD2DE9F041044690B0A078A64E9B
:108BD000F9F7F3FE05003ED06078DFF8607CDFF83F
:108BE0008082E8736078F12818BFCD2804D01A2855
:108BF0001CBFE928E12871D13078002818BF01286E
:108C000036D16889000533D505206873307800288F
:108C100018BF012817D16078E92814D038680100FE
:108C200018BF8047DFF8807C386860B198F80E0084
:108C3000800708D5286841890088F9F7B9F910B18B
:108C400061783A689047687B022801D106206873F2
:108C5000A078F9F701FEF9F760FD3078022804D119
:108C6000DFF8480C0088FFF724FF10B0BDE8F08162
:108C700000212846F9F777FD80B33078002818BF27
:108C8000012824D198F80E00800720D52968086AA9
:108C9000E8B1C97F03AAF7F7A2FC6378E92B01D1F9
:108CA00000F066F82968BDF8160008809DF81100EC
:108CB000BDF818100028BDF8160014BF402200228D
:108CC000FAF705FA18B1688940F0200068816A89CE
:108CD00061782889FFF745FC288197E760788DF84F
:108CE00008000195A07B8DF80900287C002801A8C8
:108CF00011D1FBF79DFD3078002818BF01280CD159
:108D00009DF8080048B900F02FF830B93868010024
:108D100003D0804701E0F8F725F99DF80830E92BEA
:108D200001D100F025F83078002818BF01288AD139
:108D300098F80E00800786D5687B02280DD1A87AA6
:108D400040070AD500F010F828B929684FF6FF70DF
:108D5000088005207BE7032079E76078E92802D1C5
:108D60002846F8F732FD6EE728680088F8F76AB9F8
:108D70002868012100914189E27B0088F7F765BDF1
:108D80002DE9F041861C0025F178002491B131894C
:108D9000FF20F9F74FFF082520B1F07840F00100DF
:108DA0002C25F070F07800F00300012844D145F044
:108DB000110541E000F12408F07EDFF8FC7CB0B141
:108DC000F17F002918BFFF2909D1308939888842ED
:108DD00008BF222530D0387C04282DD105E0D8F8F2
:108DE0000020B07FFAF7F3FE30BB012424E0308985
:108DF000F8F728F902283089398808BF0125884208
:108E000008BF45F0020535B1317800290CBF45F0A7
:108E1000200545F04005F8F715F90128307808BF1E
:108E200045F0010540B1D8F804000078F8F7D8F80B
:108E3000012818BF05F0FE0500F00BF818BF012847
:108E400004D1A80702D40CB945F080052846BDE836
:108E5000F081054800780028704700007C5200200F
:108E6000AC4B0020EC52002015530020C44B0020D6
:108E70008043002012420020DC430020C05200202A
:108E80000C5300200D5300202DE9F14F94B04FF604
:108E9000FE70ADF810004FF000081498061DDFF8C2
:108EA000D80600780228C14608D1307900281FBFB3
:108EB000DFF8080C00880028FFF7FBFD31793068E7
:108EC00005AAF7F78CFB00286DD00DF115070124DA
:108ED00078780228F878A8BF00240228BDF81E0080
:108EE000A8BF00244FF6F87188421CBF4FF6F971F5
:108EF000884207D04FF6FA7188421CBF4FF6FB71CB
:108F0000884200D10024F8F785F8B97881424AD127
:108F1000002C48D0DFF86006007802280EAC02D1A1
:108F2000607B00283FD1308B20810DF11E05708CB5
:108F3000A880787938B1AB7C9DF815203168012084
:108F4000FCF7EEFDD0B905A8FFF71AFF8246DFF85F
:108F5000B80C0390787998B90398007800281CBF62
:108F60000AF0220022280BD00AF04200422805D144
:108F700060680078062818BF072801D0CF20BEE01F
:108F80001AF040008DF8040026D0FFF762FF18BFEA
:108F9000012809D10398C078800705D5606800785A
:108FA000401E0A280BD9A9E060680078032818BF82
:108FB000042804D007281CBF0A280C28F3D16068B5
:108FC0000178032904BF40780D2805D005A8F8F7DB
:108FD000A2F9012800F08482DFF8DC0A02900299ED
:108FE0001498C98900F13A0BB08E884208D1CDF8A7
:108FF00000809BF80020718E308B0023F7F725FC52
:10900000787918B3718E308BF8F7D2FF0028009072
:109010003CD030689DF8151008180099407BC9783D
:10902000814204D00099C8700099C1F8048030686A
:109030009DF8152010180421401CFCF7E7FD00994D
:10904000496888424BD30099401C4860DFF82805E6
:109050000078022844D10298007C042818BF09280F
:109060003DD15FEA8A6025D500F04CFA287A0128C4
:1090700002BF6888318B884207D1BDF81E00F7F720
:10908000E1FF022801D185F808808AE0DFF8FC0CB6
:1090900090F86C000128D9D160680078062803D1C7
:1090A0009DF804000028D1D1A8884FF6FF718842AE
:1090B00015D012E19DF80400002810D060680078F7
:1090C000042878D0072800F08080032808BF0021FA
:1090D00000F085800C2802D105A8F8F742FBFFE1DB
:1090E000002818BF0128FAD10398C0788007F6D568
:1090F000607B60B16888FBF799FE18B9D32003F054
:1091000055FFEDE13068417801F0DF014170287AC8
:1091100038B130688179491E817130688079287250
:1091200008B90AF07F0A5FEA0A7021D55FEA4A703F
:109130004FF4805806D5387900F0E300387140EAE2
:10914000D00011E05FEACA600FD53879C0F3820120
:1091500021B1072904D0491EC9B209B90AF07F0A12
:1091600000F0E30040EA8100387131683879087214
:109170000298007C042818BF092834D10299BDF850
:109180001E000988884208D0F7F75CFF02281EBF3E
:10919000387900F00300012808D1787838B900F058
:1091A000B1F900A9F26A05A8FBF7C0FB98E1606875
:1091B0000078042807D1A87C022803D105A9002043
:1091C000F7F77DFE8CE1072806D1A87C0428F9D1A9
:1091D00005A8F7F7EDFD83E10328FCD1002105A8E0
:1091E000F8F7DBF87CE10AF008008DF800001AF0CF
:1091F000610052D05FEACA7028D5318B05A8FAF712
:109200004DFE08BBF7F712FB8146287A002802BF03
:109210006888318B884219D0318B4A4605A8FAF705
:1092200089FE60B19DF80000002814BF4FF6FF7062
:10923000BDF81E00ADF8100048F0040806E00AF082
:10924000DF0A4FF0000901E00AF09F0A5FEA8A6036
:1092500010D59BF800008DF8000000A99BF80100D4
:109260008DF801009BF802008DF8020005A8F26A53
:10927000FBF75CFB5FEA4A600ED5318B4B4604AAD4
:1092800005A8FFF729FC5FEA000905D060680078AF
:10929000012801D148F01008C8E07878012802BF01
:1092A00061680978052902D100F026F918E1012842
:1092B00002BF60680078032806D1BDF81E00FBF7E6
:1092C000B5FD08B100F018F9287A58B97878012866
:1092D00002BF60680078032803D0149905A800F045
:1092E0001EF9FDE0F9F72AFA0028FAD1E87C70B3FC
:1092F0000E9AE97DA87DFAF76AFC28B3E87D48F06C
:10930000400440B9BDF81E00ADF81000FBF7A6FD03
:10931000002818D116E00E99FAF754FCADF81000A9
:109320000820F97901B11020B97909B10830C0B22B
:10933000397909B1401CC0B2401C3168C0B2425CEE
:10934000521E4254A0466EE000230B2257E0BDF8A7
:109350001E00ADF81000F878002804BF9DF800004A
:10936000002852D1787801281CD0BDF810000021C7
:10937000FAF78FFF20B14079012818BF022811D0D9
:10938000B18EBDF81000F8F713FE28B18078F8F719
:1093900051FF08B1082805DB6888FBF747FD60B37B
:1093A0000420F8700023BDF81E10F8780DF131028A
:1093B000FBF700F830B13068017801F03F0148F068
:1093C00020080170E87C40B1BDF81E100DA8F7F729
:1093D000E4F8ADF8100048F040087878012805D08E
:1093E0006988BDF81E000022FAF712FC9DF8000003
:1093F000002814BF402200220DE000230222BDF805
:109400001E106888F7F7A2FF6AE09DF800000028A8
:10941000C8D04023C7E76988BDF81E00F9F757FE9A
:1094200008B148F02008F7F701FA8146BDF81000AE
:109430004FF6FE718842DFF8B40B007808BF4FF09A
:109440000009012825D1318B4FF6FF70814220D0D1
:10945000BDF81E004FF6F97290421ADA6888814210
:1094600017D0FBF7FBFCA0B10179012918BF022935
:109470000FD101218DF800104088ADF80C0000A834
:10948000FDF795FE28B101A8FBF71DFD08B103F01B
:109490000BFC5FEA0A6023D5B9F1000F20D03079C8
:1094A000FBF72CF904001BD032793168FCF786FBFE
:1094B0007878BDF810108DF84800CDF804800020B1
:1094C0001390CDF8009012A80390002002903379F9
:1094D000328B2046F6F748FF10B12046FBF774F9AF
:1094E00015B0BDE8F08F0000D450002012530020CA
:1094F000E0500020FC520020318B002304AA05A874
:10950000FFF7EABA9BF800008DF800009BF8010015
:109510008DF801009BF802008DF80200704738B505
:109520000D460446DFF8C81A6089097841B1DFF8B2
:109530005C18C98A884204BFBDE83140F9F73FBDD5
:109540000021FAF7A6FE00281EBF807918210842E4
:1095500008D0E88C0090AB8B627F6189A089FAF714
:109560006BFF31BD6189A089BDE838400022F9F761
:10957000DFBF0000FE520020155300202DE9F04708
:10958000044686B0A01CFBF76CFC054666780127F4
:10959000A11C00F0BBFB02208DF816004FF6FE79EF
:1095A00000208DF808004FF00108DFF8480A007825
:1095B000ADF81490002808BF002D03D116B94FF064
:1095C000C30874E0DFF8C40790F82600082818BF25
:1095D0004FF0C2086AD1A07A810704D5000754BFB2
:1095E0000327042702E0000748BF02271DB328799C
:1095F000042818BF032803D1042F18BF032F07D056
:10960000022818BF01280DD1022F18BF012F07D142
:109610002888F7F79BFD70B92888ADF814000AE098
:10962000022801D0012802D12888FAF79CF8A01C52
:10963000FBF749FC0025BDF81400484514D1FDF79F
:109640003BFE88B94EB1DFF8B0A9BAF80000F7F7D1
:109650007DFD10B9BAF8000004E0A07A00F0020025
:10966000FAF748F8ADF81400BDF81400484508BFF3
:109670004FF0C7081AD0A27A3346A11CFBF76EFA46
:10968000A0B9BDF814003A46A11CFBF7FEFA05008C
:109690000AD0022E03D1687940F0080068710020DA
:1096A0008DF81600804601E0ADF814901EB900A8B0
:1096B000FCF7F3FC04E03246394600A8F7F736FB26
:1096C00001469DB146B1687940F040006871022EB4
:1096D00004BF40F020006871A07A400603D5687985
:1096E00040F080006871A879401CA87151EA080018
:1096F00013D0B8F1000F41F2010018BF414600D16C
:1097000009B1FEF72DFF15B1A01CFBF7DCFBBDF87E
:109710001400484518BFFAF726F806B0BDE8F087F0
:109720007B892000D24B00202DE9F041DFF85C86D8
:1097300008F10E040646207E03281CBF01280928D4
:1097400084B078D17178DFF8B458DFF8B4780029A4
:1097500053D10220FEF704FF70882081B11C5320F2
:10976000FCF786FC207E09281CBFE08AF8F70BFC7A
:1097700001208DF8000000A94220FCF779FC0420AC
:10978000207601A94A20FCF765FC01A908F11C001C
:10979000FCF710FA38780B2802D10620387003E065
:1097A000E08A0021FBF7D8F92878002818BF0128A3
:1097B00009D1A0894FF6FE7188420ED0002201A97E
:1097C000FBF763FA09E0022807D121890320FEF79D
:1097D000C7FEA1890420FEF7C3FE2078C00800F070
:1097E00001008DF8000000A95220FCF741FC287808
:1097F00002281ED100F0E8FB1BE041F20300FEF757
:10980000AFFE287802280ED13878DFF8F8170B2839
:1098100004BF0A203870002008704FF4804100F027
:10982000EEF9FCF752FD7178E08AFBF795F900201C
:10983000207600F01BFBBDE8FF810000A85100204E
:10984000DFF8C4170968E1B9DFF8402592F826204F
:10985000012A04D0052A08D0062A0CD011E0DFF82E
:10986000AC1709680A001DD00847DFF8A41709687B
:109870000A0017D00847DFF89C1709680A0011D0C2
:109880000847002919BF897901294078FBF75CB99D
:10989000022908BFF8F73CB8DFF87C1709680A000E
:1098A00018BF084770470000AC510020C04300209B
:1098B0002DE9F043DFF86457DFF8D08404462878B8
:1098C00083B04FF48061FCF700FD01A95020FCF744
:1098D000C1FB1020FCF7BAF9060008F116074FF695
:1098E000FF7908D0607830B9F88948451CBFBDF8C9
:1098F0000410814215D0EA20607039465320FCF7ED
:10990000B7FB08F11A014B20FCF7B2FB08F1240168
:109910005020FCF7ADFB08F11801E120FCF7A8FB93
:109920006EB302203070F88948451CBFBDF80410A2
:1099300081421CD1BDF80400F88139465320FCF760
:1099400089FB3888708008F11A014B20FCF782FBF4
:1099500008F11801E120FCF77DFB002000900023B6
:10996000DFF8BC060278F989B888F6F76EFF6078F0
:1099700070703146032038742878FCF788F9BDE808
:10998000F783F0B5DFF89C46E36D074620697968F8
:10999000884387B020617F217F25002220FA02F6CC
:1099A000F60712D54FF0000C1E4606E096F802E0CE
:1099B000B669964508BF0CF1010C002EF6D15FFA8E
:1099C0008CF68E423CBF31461546521C1B2AE5DB05
:1099D000786858B1206100F02CF878680090012078
:1099E0008DF80400A07D00F06BF820E01E4606E034
:1099F000FBF726F9A081318881420BD0E66D4EB18C
:109A0000A0893188814202BFB178EDB2A942EFD07E
:109A1000B669F4E7257000F0F9F840B10020A073B2
:109A2000DFF80406016808001CBFC420884707B09F
:109A3000F0BD1C22002100A8FCF7D8B82DE9F041A8
:109A4000C668DFF8488388B0002708F12805286831
:109A500020FA07F1C80709D5BC5DF7F7DFFAA04285
:109A600004D228680121B940884328607F1C1B2F3D
:109A7000EDDB286878B1FFF7DCFF28680090012053
:109A80008DF804008DF80700A87900F019F8062079
:109A900088F826000DE088F82600002141F2040035
:109AA000FEF75EFDDFF88005016808001CBFC420DA
:109AB000884708B0BDE8F081C24B0020BE430020BB
:109AC0008DF8050000208DF8070000A8FCF7F0BA1B
:109AD00030B505468DB06C68297C686908AA00F02D
:109AE00022FA9DF8200000281AD1287C0B285CDB84
:109AF000207A022804BF207BFF2811D1A348DFF879
:109B00000825126800F12405A978022918BF062942
:109B100010D012B19379012B15D0082918BF042950
:109B20006BD19DF822106489002A3FD09279022AD5
:109B30003CD15CE03AB900200090627C61892088C9
:109B40000023F6F782FE2088ADF80800082260891D
:109B5000ADF80A000DF12701A07B8DF80C00A0895B
:109B6000C00B8DF80D009DF824008DF80E009DF8B7
:109B700026008DF80F009DF821008DF811009DF84A
:109B800022008DF81000607C8DF812009DF82500F1
:109B90008DF813009DF832008DF814000DF11500BA
:109BA000FCF70CF802A8FAF7D5FF26E02A88A242B3
:109BB00023D1012905D00DF127013930FBF7ECFF46
:109BC000D8B900F01CF84FF40071FCF797FBA0B96E
:109BD00068680090A87A8DF8040001208DF80500CF
:109BE00002208DF8060000A800F0C8FA18B9204637
:109BF000F7F774FE01E000F0EAFA0DB030BDDFF8CF
:109C00001C04007870470000B74B0020F0B58FB0FF
:109C10005E4CF7F70DFF04F12405E61CA878082830
:109C200007D0DFF808040078B07030700120E860D9
:109C300028612422002106A8FBF7D8FF287DDFF841
:109C4000F073411E8941C90F0F208DF822108DF845
:109C50000000387000A94620FCF70AFA00208DF8B1
:109C60000400DFF8D00300788DF80500F7F7D2F98B
:109C70008DF8060004F1390100208DF807008DF8F9
:109C800008008DF80A00287D0F28A8BF0F208DF846
:109C9000090000F03BF80322FF210DF11300FBF750
:109CA000A5FF94F872003A788DF81600391D01A8C6
:109CB00000F00EF9391D4520FCF7DAF9F6F78BFFB5
:109CC000287A8DF8200004F11601687A8DF82100B9
:109CD000707D8DF81E002888ADF81C0000208DF8DE
:109CE0002400E87A8DF8230000208DF838008DF8E4
:109CF0002D005320FCF7BCF904F11A014B20FCF7AE
:109D0000B7F906A8FCF7F8F90FB0F0BD0DF10B009C
:109D1000FBF750BF10B51D49407801F1160410B192
:109D20000020207410BD0820207491F8380068B914
:109D3000BD48016808001CBF00208847E189052054
:109D4000FEF70EFCE089F8F71EF90AE00020FAF7AA
:109D5000FFFE21880620FEF703FCA1880420FEF701
:109D6000FFFBB548006860B100F00CF809D1FFF7BF
:109D700046FFBDE810404FF47A724FF48041FCF783
:109D800087BA10BDAD48007801287047AC4B002061
:109D900030B5054687B0A81CFBF763F8040039D03E
:109DA0002079012818BF022803D0032818BF0428EF
:109DB00030D1A91CFFF7AAFF2088ADF814000120BC
:109DC0008DF8160000208DF8080000A8FCF769F94E
:109DD00001460720FEF7C4FB607900F0FE006071C9
:109DE0000120607296480078401C00EBD070401053
:109DF0002072FFF7C7FF02BF82480078022809D10E
:109E00002079012818BF022804D1A069E06101204F
:109E100084F8200007B030BD2DE9FC410D46904686
:109E20000FF2302104460CC900A821460CC000A83E
:109E3000FBF7B2FE002700B901278248466F06E013
:109E4000214606F10C00FBF7A7FE30B9B6693EB11A
:109E5000002FF5D13088A842F8D1B0784045F5D12F
:109E60003046BDE8F6817748406F704738B5754C8D
:109E7000606F002803E08569FAF7A6FC2800FAD194
:109E80000020606731BD38B50446207D032804D129
:109E900004F10C00FAF7E5FF04E0022817D1A089CD
:109EA000FAF7DCFF050012D0607878B1F12812BF14
:109EB000E128A879012806D12888F9F754FC04F193
:109EC0000C00FBF700F8A87908B1401EA87131BD5D
:109ED00070B50446154620780870CE1C607848702E
:109EE000A27840EA02104870E0788870227940EA4F
:109EF00082008870627940EAC2008870A27940EAE4
:109F0000C21088700822E11D3046FBF757FE083664
:109F1000032204F10F013046FBF750FE0F2DA4BFC2
:109F2000A07CF07070BD70B50646144616F8010BA3
:109F300020700D46307800F00F006070082216F88F
:109F4000010B0009A070307800F00300E070307859
:109F5000C0F3800020713078C0F3C300607116F840
:109F6000010BC009A0713146E01DFBF727FE083642
:109F70000322314604F10F00FBF720FE0F2DACBF8A
:109F8000F0780020A07470BD10B5044682B06078EF
:109F9000FAF70DFE6078EB2818BFE12803D0F1280E
:109FA00018BF1A2801D10020607000F00DF8254874
:109FB000012100910022818C6378408BF6F745FCEB
:109FC000BDE81340F8F7A9BB1F480068FEF771BD54
:109FD00001001E4818BF0121017070471B4800781E
:109FE000704700681A49FCF7A1B800000F53002021
:109FF0000C530020D2430020D043002015530020F2
:10A000001242002010530020EC520020F052002099
:10A01000085200200C520020A45100207C52002045
:10A02000D6430020C44B00201052002030C1210034
:10A0300058430020DD430020D4500020125300205C
:10A0400042C12100AC4B0020804300201D53002062
:10A050007B892000FFFFFFFFFFFFFFFFDFF8740792
:10A06000DFF874170160DFF874174160DFF87017CC
:10A0700081607047DFF86C17DFF86C070860704785
:10A0800038B50446DFF86407017C082918BF0429A5
:10A0900008D0217801F00301012902BF2169097864
:10A0A000062913D161884FF6FE7291420ED00088C6
:10A0B000814204BF207F002803D02046F6F720F815
:10A0C00002E02046F6F71EF9054600E0C2252046CC
:10A0D000FAF77AFB284632BD38B504462078617815
:10A0E000081880B2FAF70AFB050013D02278002185
:10A0F000FBF77CFD4FF6FE706880F6F78BFBA880BF
:10A1000020784019286160782875F6F78FFB68750C
:10A11000A0782876284632BD70B5DFF8D4460546CB
:10A1200094F82600042814BF0828C22088B00E46E0
:10A130001DD004F128000560867100F01AF8012096
:10A140008DF80400009500208DF807008DF805605B
:10A15000022084F82600DFF89C060078022803D14C
:10A16000DFF894160020087000A8FBF7A1FF08B0E4
:10A1700070BD1C22002100A8FBF738BD30B5DFF808
:10A180007C560446286887B0F0B90820FAF7B6FA7A
:10A190002860B8B1216801601C2221790171296809
:10A1A000607948712968A0798871FFF7E3FF20681A
:10A1B000009020798DF8050060798DF8040000F09A
:10A1C00065F802E0102000E0012007B030BD10B5B6
:10A1D000DFF82846206818B1FAF7F6FA0020206068
:10A1E000FFF744FEBDE81040F7F7C7BB2DE9F0418B
:10A1F00088B00E460E9CDFF808760F993D780F2C3C
:10A2000008BF0F2901D0022D03D08C4203D2022DAA
:10A2100001D0C12039E0DFF8D88508F1280569713F
:10A220002A60AB712C711099E9714FF6FF71884269
:10A2300001BFDFF8D00500888842FBF705FD08F173
:10A240001604E0814EB13046F8F7ACF8012804D18D
:10A25000314608F13900FBF7ADFC00202080A080DA
:10A2600028743878022802D10F20287168710520DF
:10A270002074FFF77EFF00208DF80400286800900E
:10A28000A8798DF8050000F001F8B9E100208DF8FB
:10A29000070000A8FBF70CBF80B5DFF86C1548700D
:10A2A0008021DFF868050078FCF70FF800F00EF861
:10A2B000002002BDDFF850054078002818BF00F0EC
:10A2C00005B880B508F0B7FDBDE8014010B5DFF86E
:10A2D00038456078217828B909B102F01DFB0020CB
:10A2E000207014E0012918BF02F016FB0120207035
:10A2F0006078FF280BD0002161704FF47A7101FB68
:10A3000000F2DFF8080500788021FBF7B2FF214654
:10A31000BDE810404120FBF7ABBE0A464FF6FE7188
:10A32000F8B50446DFF8C80490F8260008280D4662
:10A33000164628D12046FAF794FD08B1C520F2BD93
:10A340004FF6FE77BD4208D106F00200F9F7D2F9C8
:10A350000546BD4201D1C720F2BDB10706F0080095
:10A3600004D500280CBF0322042203E0002814BFF8
:10A370000222012221462846FAF787FC08B1002074
:10A38000F2BD1020F2BDC220F2BDF0B50F46DFF8DD
:10A390006014012689B0044681F826601C22002141
:10A3A00001A8FBF723FC0025032001948DF8097018
:10A3B0008DF808008DF80B50344218BF6D1C7600E4
:10A3C000FAD100A95A20FBF745FE9DF80000EDB236
:10A3D00068434FF4904148434FF47A71B0FBF1F475
:10A3E00000F0A7F8DFF8245408804FF48061287843
:10A3F000FBF76BFF287822464FF48061FBF739FFAB
:10A4000001A8FBF755FE09B0F0BD012200E00022D3
:10A410002DE9F843DFF8D89309F10E060C46904673
:10A42000F18A05462246FFF7F7FC070008BFCA205D
:10A430007DD038894FF6FE71884208BFC32076D0A0
:10A44000F6F7E8F93989814208BFC2206FD0388811
:10A45000F18A814218BFF082F08AF7F794FDF87A0A
:10A46000401C89F83800294609F13900FBF7A2FBA6
:10A4700002208DF8010000A8F6F7BBFD05004FD0C3
:10A48000286906210170317841700120A877F6F71C
:10A49000B8F968620120A8764020E882388968808F
:10A4A00085F818802846FFF7EBFD5FEA000839D1F0
:10A4B0000920307609F11A013889DFF85053B0814C
:10A4C000B07AA04218BFB4724B20FBF7D1FD09F15E
:10A4D00024015020FBF7CCFD09F11801E120FBF726
:10A4E000C7FD09F116015320FBF7C2FD00F021F86A
:10A4F000DFF81C4308802088F6F796FA228828782F
:10A500000121FBF7C5FE28784FF48061FBF7DDFEE3
:10A510002088820028784FF48061FBF7AAFE01E0D2
:10A520004FF01008DFF8EC12002008704046BDE83C
:10A53000F283DFF8E402DFF8E412008870472DE9C7
:10A54000F241AB4D05F10E068046307E042814BF63
:10A550000828C22087B014461F4651D0BDF83800E5
:10A560004FF6FE71884208BFC32049D0FFF701FEB5
:10A570000320307607A95020FBF77AFD0EA94B2067
:10A58000FBF776FDBDF81C00F082B4724146BDF8C1
:10A590003800B081377005F13900FBF70BFB07F08D
:10A5A000CE0040F080008DF81A0092480078002814
:10A5B00018BF012803D10F98401C85F838000220ED
:10A5C0008DF816008DF80B4005F12D01BDF838000F
:10A5D000ADF80E00BDF81C00ADF8180000208DF895
:10A5E00008000F20F0775420FBF742FD0F20B077D2
:10A5F00005F12C014720FBF73BFD00A8FBF746FDCA
:10A6000008B0BDE8F0817A4880F82F20FFF7FEBA45
:10A6100030B5044689B060798DF80C0000252079AA
:10A620008DF80E0001208DF80F00206810B1FCF7A6
:10A63000EFFC88B98DF80D50F6F7E3F802906C48FE
:10A6400090F82600042802D1F6F7E8F801E04FF66A
:10A65000FD70ADF8040014E066480078002818BFCB
:10A66000012827D1206800A9FCF7FEFCA07968B971
:10A6700001208DF80D00BDF80000ADF80400206841
:10A68000029001A8F6F7D4FB054613E0BDF80000E0
:10A69000ADF8100001208DF81A0060798DF81B00CC
:10A6A0008DF81C500DF112002168FBF783FA04A805
:10A6B000FAF756FA284609B030BD4D4910B50446A0
:10A6C00091F826100020082918BF042984B015D15C
:10A6D0004FF6FD70ADF80000F6F793F801900020FA
:10A6E0008DF8090060788DF8080020788DF80A0050
:10A6F00000208DF80B0000A8F6F79AFB04B010BDFF
:10A700002DE9F0423B4B3A4F93F800C0444B1E7882
:10A71000444B14460022002587284FF6FE7911D0BD
:10A720008B282CD0982808D09C2808D09D2812D09F
:10A730009E2841D197F8260047E0B87C45E0F7F71E
:10A74000D2FB42E00846F7F7F3FBC12500283DD0D5
:10A750001C2201462BE0C925BCF1000F18BFBCF13B
:10A76000010F33D1002005E01988494518BF521C5C
:10A770000833401CC0B2B042F6D322701AE0C9259B
:10A78000BCF1000F18BFBCF1010F1FD1C125002083
:10A7900002E0521C0833401CC0B2B04216D21F88DF
:10A7A0004F45F7D0D7B28F42F3D108221946204641
:10A7B000FBF704FA002509E0A0F181011E2928BF5A
:10A7C000C92503D2C01910F8810C20702846BDE8B5
:10A7D000F0820000085200203D9A2000839920005A
:10A7E0004D4B2000F0520020B1982000C24B0020B9
:10A7F000AC4B00201553002010530020EC520020D9
:10A80000E6430020CE430020D24300207C520020AB
:10A81000C24300200F420020C0430020FC52002011
:10A820003CC12100AC48002000B583B0009000205E
:10A830008DF805008DF806008DF8041000A8FFF7CC
:10A840009DFC0EBD2DE9F0410446DFF8A80BE57A2A
:10A85000007886B008B9BA20EDE000F043FF012689
:10A860008DF805600027207E400709D59DF802007D
:10A8700040F040008DF80200207E000758BF0326FC
:10A88000208BC10648BF46F04006000710D59DF852
:10A89000020040F0C0008DF80200217E9DF8030008
:10A8A00089064CBF40F0010040F002008DF8030023
:10A8B000208B217ADFF86C8C00F4C070B0F5C07F7B
:10A8C00008BF46F0080651B9F5F7A4FFADF800003F
:10A8D0009DF8020040F004008DF8020031E09DF880
:10A8E00002200F2942F0080346F0040006D18DF83B
:10A8F000023006462188ADF8001022E0022902D17C
:10A9000000F0BCFE1DE0032904D100A9204600F0A0
:10A9100026F916E0012914D198F8681039B18DF89C
:10A92000023046F4805600F0A9FEFF2508E042F010
:10A930000C018DF8021006464FF6FD71ADF80010BF
:10A940002788207EC0071DD59DF802000C210842F3
:10A950000BD12088FDF7C9F908B9BB206BE09DF841
:10A96000020040F020008DF80200207EC00709D5CB
:10A970009DF8020000F00C01042904BF40F0200003
:10A980008DF80200608A8DF8040000A800F034FD04
:10A990009DF8140000284CD10398C682E17E4176D0
:10A9A0000399207F8876207A012803D1039998F8AB
:10A9B000680008770398A17E20F8281F218B41802A
:10A9C000E17F0171208B00F4C070B0F5C07F05D12C
:10A9D0000398417D94F8200008F0CCFF0399A07AF9
:10A9E00081F83A00039880F83B50039820F83C7FA8
:10A9F000E1894180218A8180A17E81730399A07FB2
:10AA000081F84B000399607F81F849000398628ABE
:10AA10006169406CFBF7D2F8207E400606D5DFF86E
:10AA2000080B016808001CBF00A8884700A800F0B8
:10AA300046FD9DF8140006B0BDE8F08110B5007821
:10AA4000632420B10520FBF774F8C0F15604DFF849
:10AA5000D40A007B20B1FBF76CF8201AA0F10E0499
:10AA6000E0B210BD13B511461A46DFF8C03A1C68B3
:10AA7000230008D001AB00930123A04708B10020B8
:10AA800016BDB22016BDB62016BD38B5DFF8A04AF7
:10AA90002468250001D0A04732BDB62032BD38B5AC
:10AAA0000346B520A12B0C46154606D0A22B10D08C
:10AAB000A32B06D0AB2B16D032BDDFF8780A008866
:10AAC00005E0DFF8741A09680A0013D08847288067
:10AAD0000FE0DFF8681A0A6811000BD029462046FB
:10AAE000BDE838401047DFF8C00C01682846FBF786
:10AAF00061F8002032BD014680B5B520A12902D001
:10AB0000AB2905D002BD1088DFF8281A088005E0BF
:10AB1000DFF8940C00681146FBF74CF8002002BDEA
:10AB200070B50446DFF8FC09C08A0126A0420D4634
:10AB300006D1F5F766FE01462846FBF73BF80CE028
:10AB4000F5F76CFEA04203D12846F5F76BFE04E052
:10AB500029462046FCF775FA0646304670BD70B5AA
:10AB600004460D46F5F74DFE01462046FBF714F866
:10AB7000012620B1DFF8AC09C08A288004E029460C
:10AB80002046FCF771FA0646304670BD10B5044603
:10AB90000E20F9F7B3FDA8B104F138010A7802706C
:10ABA0004A7842708A788270CA78C270CA88828075
:10ABB0000A89C2808A7A02728A7C02736288428120
:10ABC000497C417310BD10B50C4682B0217F052928
:10ABD00004D104F10801FFF7A3FF38B300A904F181
:10ABE0000800FDF7AAF8BDF80000E8B120780128B8
:10ABF00015D1BDF80010DFF8D40B0C2202FB0100C8
:10AC0000DFF8E81B0818A1690268914205D3BDF876
:10AC100000206282491C016004E0A22016BDBDF83C
:10AC200000006082002016BDA12016BDC82016BD00
:10AC300038B505460C4600206082A06910F1010F6E
:10AC400032D0207C012810D1DFF8D818CA7AB3207E
:10AC5000002A04BF91F84110012926D1207DFAF77E
:10AC600055FE6082F0B1002032BD48B92846FFF79A
:10AC7000AAFFD0B1616809780322114206D132BD22
:10AC8000022809D12846FFF79EFF70B121462846C9
:10AC9000BDE83440FDF7C8B9032803D12846BDE814
:10ACA000344090E7A12032BDA32032BD3EB504461A
:10ACB00000202569688201A92088FFF731FF90B341
:10ACC00000A901A8FDF739F8BDF8000058B3BDF898
:10ACD0000020DFF8F81ADFF8183B0C2000FB021206
:10ACE0009A1800232B74BDF800306B821368AB6197
:10ACF0004FF47A7513685B1C13604FF47A72B3FBE0
:10AD0000F2F205FB123272B9BDF8002000FB02100E
:10AD1000DFF8E01A01220A544FF40061DFF8D80A84
:10AD20000078FBF7B5F8206900F108012088FFF7EB
:10AD3000F7FE2069418AD9B9DFF86C5A29680830D2
:10AD4000FAF72AFF48B9F5F75CFD01462868FAF7DB
:10AD500023FF10B900F043FD50B121692088FDF7B1
:10AD6000C5F910B1216900204882002021690874CA
:10AD70002569688A30BBDFF8AC07C17A002904BFB7
:10AD800090F84100012818D13A230DF10202012167
:10AD90000020F7F714FB70B9012028749DF8020019
:10ADA00028753A206882DFF8540A0168A9610168B1
:10ADB000491C016001E0002068822069408A08B9CE
:10ADC000A120207537BD10B504462020F9F796FC68
:10ADD0000028206133D02046FFF768FF2069418AB0
:10ADE00041B3017C012902D10E21017710E0A16855
:10ADF00049B9DFF8B41909680830FAF7CDFE10B97F
:10AE000000F0EDFC08B10D2000E005202169087775
:10AE1000A178206901F0030101290EBF0521DFF8A7
:10AE20000417097B417020694078FAF782FE216996
:10AE3000487710BDF9F7C8FC0020206110BD102034
:10AE4000207510BD70B505460E462020F9F756FC5A
:10AE5000040041D0F5F7DEFC718B81420CBF02206B
:10AE600001202070717B3069401A6060707BA07097
:10AE70002046FAF7C6FB307800F0030001280EBF29
:10AE80000520DFF8A006007B60706078FAF751FEBD
:10AE90006077217F306908183061217F307D401A4A
:10AEA000617F401A3075E07021462846FFF7C0FEEA
:10AEB00005462078022806D1F5F7A3FC014604F1E7
:10AEC0000800FAF777FE1DB92046FAF7EDFB0546B4
:10AED0002046F9F779FC00E01025284670BD10B532
:10AEE0000446E06810F8381F01F00301012902BF91
:10AEF00021690A7C002A02BFC0680278052A06D1AF
:10AF00004078012816BF062802200320087400207C
:10AF100021690870E068216990F848008870E0684D
:10AF2000216990F84200C870E068216900694860B2
:10AF3000F5F767FC014620690830FAF73BFE206907
:10AF4000FAF7B2FB207510BD01207047DFF8B0089A
:10AF5000DFF8B0180160DFF8B0184160DFF8AC1816
:10AF60008160DFF8AC18C160704770B5C26892F8B4
:10AF70003810126911F0030418BF022C02F8011BEB
:10AF800039D111F00C0318BF082B01F0100504D0C3
:10AF9000042B07D1022C00D18DB9C66896F83B600E
:10AFA00002F8016B0C2B08D1C668B68F02F8016B52
:10AFB000C668B68F360A02F8016B022C00D1D5B9EB
:10AFC000C468E48F02F8014BC468E48F240A00F0DF
:10AFD00045F800F043F8240A002B18BF082B02F8AC
:10AFE000014B03D00C2B18BF042B04D1C36893F87A
:10AFF0003A3002F8013B0326C36803F12A0401F04A
:10B000000203E57B354208BF002B02D125782D06CF
:10B0100003D5E47F02F8014B08E0DFF8F8572E78FB
:10B02000E6772C7802F8014B641C2C70090614D5C5
:10B03000C16891F8391002F8011B0325C16811F8A5
:10B04000394F2C421EBF897C02F8011B002B04D013
:10B05000C06890F84C0002F8010B70BD02F8014B7B
:10B06000C468B4F84040704730B50268917801F088
:10B0700003030124002B18BF022B20D111F00C0573
:10B080000BD0082D08BF02240BD0042D06D1022BB3
:10B0900001D1CB0607D4062410E002240C2D08BFF2
:10B0A000A41C022B01D1CB0609D4241D002D18BFEE
:10B0B000082D03D00C2D18BF042D00D1641C0B06E5
:10B0C00004710CD503795B1C03710324D2782242EE
:10B0D00005D05A1C0271890744BF511C01710179C6
:10B0E000491C017130BD0069002818BFF9F76CBB1D
:10B0F000704730B587B0044601208DF81400204613
:10B10000FFF733FF206908B100F0F3F9207D30BB71
:10B1100000F0E8FA01208DF80200A0680088ADF880
:10B120000000E068007D093000F0CEFA00A800F0D1
:10B1300063F99DF8140090B90398456C0E202870AF
:10B14000A0684168681CFAF735FDE068027D016976
:10B1500005F10900FAF732FD00A800F0B0F9E06847
:10B1600008B1F9F731FB2046FFF7BDFF9DF8140049
:10B17000207507B030BD10B504468CB06089ADF8BD
:10B180000000606840788DF802006068801C0190C3
:10B190009DF80200042805D16068123002906068B2
:10B1A0001A300CE0012818BF06280AD16068807C9C
:10B1B0008DF8030060681330029060681B300390C4
:10B1C00008E0002002906068123003906068807E82
:10B1D0008DF81000029850B1FBF71AFF012806D134
:10B1E000F5F70FFB01460298FAF7D6FC18B100A854
:10B1F00002F054FA48E0DFF820060078002818BF73
:10B20000012841D100A8FCF7AFFD01283CD10298EC
:10B2100005A9FFF7A4FC012836D1BDF81400608110
:10B2200000206072DFF8F405007828B160680078CB
:10B23000052808BF012000D0002020730C22002127
:10B2400006A8FAF7D3FC6089ADF81800207A8DF8CB
:10B250001C0001208DF81A00207B8DF81D00607AFB
:10B26000012804BF21208DF81A0006A800F0C4F8B8
:10B270009DF82C0040B90998227A6168406CFAF771
:10B280009DFC06A800F01BF90CB010BDE0B541898B
:10B29000ADF800104168491C01914068417A827AFA
:10B2A00001EB0221ADF80810C07A8DF80A0000A861
:10B2B00002F013FA07BD00B583B04189ADF8001064
:10B2C0004068401C019000A802F01FFA07BD80B53D
:10B2D0004189ADF80010406840788DF8020000A860
:10B2E00002F040FA01BD00B5416883B00A78062A31
:10B2F00002D0082A03D007BDFFF7C8FF07BD428967
:10B30000ADF8002049788DF80210022902D140687A
:10B31000801C019000A802F00FFA07BD30B5054669
:10B3200083B068680178052906D0072908D0092963
:10B330000AD00E290CD037BD2846FFF71CFF37BDB9
:10B340002846FFF7B8FF37BD2846FFF7C0FF37BDD7
:10B3500000F1090401A9401CFFF701FC01281ED1DE
:10B3600050208DF80000287A09388DF8010000205F
:10B370008DF8020000A8FEF7AFFE05000FD0BDF863
:10B38000040068802146207885F8380005F1100017
:10B3900002790068FAF712FC2846FEF771FE37BD05
:10B3A00041680978052902D0092901D07047E2E6F1
:10B3B0008DE7DFF86C14DFF86C24097812781143FC
:10B3C00004BF417A002905D141680978062918BFD0
:10B3D00007290DD0017B39B94168097805291CBFBF
:10B3E0004FF49A7001F0E2BDDFF83C140968084799
:10B3F000704700003B4300203EB504460194002006
:10B40000E060019908610199087501A8FFF72CFE19
:10B4100001988578F5F7FEF90199098881420FD0E6
:10B42000A8060DD5DFF8D813019809688847019858
:10B43000006928B901980199807800F0DF008870D0
:10B44000207D00283AD150208DF800009DF808108A
:10B45000207908188DF8010060798DF802002069C4
:10B4600038B1027F407F9DF80110801840188DF898
:10B47000010000A8FEF730FED8B1218841800122EA
:10B4800000F110014A7200F13802A3781370E378DA
:10B4900053702379937209689DF808301374591812
:10B4A000D160216919B1D368097FC918D160E06002
:10B4B00037BD2046FFF717FE1020207537BD10B5A9
:10B4C0000446207D88B92046FFF74FFD206908B16A
:10B4D00000F00FF8E068217D19B9FEF7D1FD207565
:10B4E00003E0F9F771F90020E0602046BDE8104064
:10B4F000F9E5C34949682046084738B504460D4672
:10B50000F5F788F9698B814205D02046FCF7EDFB01
:10B5100008B9012032BD29462046BDE83840B84A66
:10B52000D2681047AC4B0020CC520020B85000200D
:10B53000B05100203C430020BC500020B4510020FA
:10B5400030B587B000F0CAF8A07804282AD12220AC
:10B550008DF804009DF81400002860D100F08EF8EA
:10B5600001208DF80200A07B8DF805002069029073
:10B57000607B012804BF21208DF8020000A8FFF79E
:10B580003BFF9DF81400002849D10398456C052025
:10B590002870A0786870616891B11022A81CFAF731
:10B5A0000DFB11E0012814BF06282320D0D002286B
:10B5B00014BF03281B20CBD0B3208DF814002EE03D
:10B5C0001022A81CFAF712FBA0781235012812BF2E
:10B5D0000628E07805F8010BA1682846FBF711FD65
:10B5E000A07804281CBF0128062805F1080204D110
:10B5F0000021AB20FFF753FA01E0207B1070208878
:10B60000F5F720FD10B103990420C88220690028B5
:10B6100000A802D0FFF76DFD01E0FFF750FF9DF895
:10B62000140007B030BD30B587B0044600F05AF8BA
:10B6300000F024F80C2000F047F8607A002814BFCE
:10B640002120012000F046F89DF8140080B90398ED
:10B65000456C06202870681C6168FAF7ABFA6088B0
:10B6600068726088000AA872207AE87200F075F8A3
:10B67000207A08B19DF8140007B030BD2088ADF8DD
:10B680000000704710B586B0044600F02BF8FFF7B5
:10B69000F5FF092000F018F8207A01280CBF2120BE
:10B6A000012000F017F89DF8140048B90398406C89
:10B6B000072100F8011B6168FAF77CFA00F04DF8E9
:10B6C0009DF8140006B010BD8DF8040001208DF81F
:10B6D000050070478DF8020000A88DE604460020A2
:10B6E0008DF814000C22002100A8FAF77FBA10B5DB
:10B6F00086B0FFF7F3FF6078012818BF042824D133
:10B7000002208DF804009DF81400E8B92078ADF807
:10B71000000021208DF8020001208DF8050000A80E
:10B72000FFF76AFE9DF8140070B90398406C082179
:10B730000170617841706178022903D16168801CD1
:10B74000FAF738FA00F009F8BAE7022808BF0A2029
:10B75000D7D0B3208DF81400F6E700A8AFE610B5F7
:10B7600086B00446FFF7BEFFFFF788FF0220FFF711
:10B77000ABFFE07801280CBF21200120FFF7AAFFD2
:10B780009DF8140070B90398406C09210170A178EC
:10B7900041702088F5F756FC10B103990420C88247
:10B7A000FFF7DBFF8CE700004043002080B5FFF788
:10B7B000CDFB1D491D48086001BD80B5FFF7C6FBE4
:10B7C00019491B48086001BD0000000068500020B6
:10B7D00080B5FFF7BBFB14491648086001BD164849
:10B7E00000680822FF21FAF7EFBB0000F8E7FFFF2F
:10B7F000F4E7FFFFFCE7FFFF104200208852002023
:10B8000090510020C7AD2000DFAE200049AF2000DE
:10B8100045AE20003943002015530020135300206B
:10B82000AD43002014530020C8520020A1B32000D3
:10B830001DB32000E7B220004043002010B5DFF820
:10B840007C4C2074022020724FF6FE702080F4F7AA
:10B85000D8FF06F0E3FC04F1540008F0B9F800F05A
:10B8600063FAA07C18B1002000F043F90AE04FF61B
:10B87000FF7000F03EF94FF4FA73322200210820E5
:10B8800008F076FB01F039FA00F0B7FBBDE8104094
:10B8900001F05DBA30B5DFF8544B0546207885B02D
:10B8A00028B9DFF84C0B018941F0010101812846DC
:10B8B000FCF714F80DB30020DFF8381B0860DFF840
:10B8C000380B90F84100C0B9207840B1DFF82C0B5C
:10B8D0000078012811D1DFF8280B007868B100A9A1
:10B8E0006220FCF799FC002100A8F9F763FF002013
:10B8F000F9F777FF102200F0E0FCDFF8C04BA06CF6
:10B9000030B1A06C0568F8F75FFFA564002DF8D191
:10B9100005B030BD70B506460C462004DFF86C5CFF
:10B9200016D4E0071CD5012001F0C1FADFF8C00AE7
:10B93000297D00780F230F2200F0070006F081FC1C
:10B9400084F0010070BD00F00CFA3046FAF790F96F
:10B95000287CFAF7CBF90600F5D184F4004070BDDD
:10B96000DFF8882AA87C1278002A18BF012A01462D
:10B9700026D1A20704D500F038F984F0020070BD8A
:10B98000A20616D5687C70B9062904BF072001F00D
:10B990008EFA002002F0B3FDDFF8780C0078012861
:10B9A00008BF01F094FA287C00F052F984F02000DE
:10B9B00070BD620404D501F056F984F4804070BD76
:10B9C000A20419D50C2907D1022001F070FA01F068
:10B9D00003F9DFF8BC0B06E00C2001F068FA01F077
:10B9E0000BF9DFF8B00B0268287C4FF40051FAF72E
:10B9F00040FC84F4005070BDE10611D506F0C7FC90
:10BA0000DFF8940B0078012807D1DFF8900B00785D
:10BA100064224FF40061FAF72CFC84F0100070BD32
:10BA2000200702D584F0080070BDE0050BD5DFF8D3
:10BA3000C80990F82600082814BF042800F03CF933
:10BA400084F4807070BD600705D50221FF2008F0E6
:10BA500040FB08F0A5FCE00404D501F0CFF984F424
:10BA6000805070BD21463046BDE8704070B500F092
:10BA700048FE18BF01280C461DD160061BD5DFF813
:10BA80000C5BA86CA0B18088FBF76DFFA86C066802
:10BA9000F8F79AFEAE645EB1F28802E0F088801A90
:10BAA000F0803668002EF9D1287C4021FAF7E1FBBE
:10BAB00084F0400070BD200604D500F0CCF884F07E
:10BAC000800070BDA00504D500F0E7FB84F4007091
:10BAD00070BD200504D5FCF7E1FB84F4006070BD67
:10BAE000600504D5FCF703FC84F4806070BD002081
:10BAF00070BD2DE9F843DFF8C4798046B87C012594
:10BB0000002608B908F0A2FA08F0DAFCDFF8E048ED
:10BB1000DFF8E498A07889F80E00B87D022829D1D2
:10BB2000BE75F4F785FFF4F7A4FFFCF754FC012D74
:10BB30000CD100F035F8FAF787F800F07F004044A8
:10BB400000F16406DFF8EC0B006838642846FFF764
:10BB5000A1FE4FF6FF70804506D00120B87400F0BA
:10BB600024FCB0B201F003F8A078F5F75FFA28469C
:10BB7000BDE8F28300F00BF80500D2D100F0A6F882
:10BB8000054699F91810012088403864CFE710B5B0
:10BB9000002408F08FFA800748BF0124204610BD1A
:10BBA00010B5DFF84C08DFF8442801781278DFF888
:10BBB0000C4901F0F80112B90222017013E0012AC8
:10BBC00008BF41F0010103D0022A02D141F0020175
:10BBD0000170DFF8700CF6F7E5FB00280FBF0022BC
:10BBE00003220420E074227510BD10B5DFF8CC48A4
:10BBF000607CB0B9A07C08280CD100F098FF092027
:10BC000001F055F9DFF80C0A0078012804D101F0A1
:10BC10005EF901E000F01BF8BDE81040002002F0E2
:10BC20006EBCF5F7FBF91030FF280BDAF5F7F6F9E3
:10BC30001030C0B2F5F7F6F9207CBDE810400121C4
:10BC4000FAF726B9BDE81040012001F030B9207C98
:10BC50001021FAF71DB938B5DFF83049A07C052866
:10BC600025D100F096FB00F010FBDFF88007DFF82D
:10BC700080570078002818BF012805D1287800F0E7
:10BC80002EFF01D000F004FB01F00EF800F005FBE0
:10BC900000F0C2FFA878000704D5DFF87809007823
:10BCA000012808D1606CBDE83240F4F7A3BEBDE8BE
:10BCB000314000F0F9BF31BD80B50F20F4F764FFCB
:10BCC000BDE804400221002008F003BA10B5F4F7E3
:10BCD000AFFE04460A2C22D0F4F7E6FEA0B1F4F73A
:10BCE00099FDDFF8D827108028B9DFF8040701781C
:10BCF00001F0F80101700120107502F14C00DFF82D
:10BD0000701BF9F757FF00E00924DFF86C1C0020D6
:10BD10000880DFF8D806007808B900F012F90CB9ED
:10BD2000002010BD012010BD00B585B0112200F02B
:10BD3000C4FA00AA11218120FAF752FF78B900ABAA
:10BD4000112200218120FBF78AF840B99DF80000FC
:10BD500028B1DFF89C06017841F01001017005B0B0
:10BD600000BD2DE9FE43DFF8844602782178DFF834
:10BD70008876DFF8A458012A19D0022A00F0BF8083
:10BD8000032A00F0C3801A2A04D0D32A05D0FD2A42
:10BD900006D0D2E006F09AF9D1E000F0D4F8CEE077
:10BDA000DFF8881B09680A0000D08847C7E0A87C34
:10BDB0000228FBD1012918BF0229F7D100F02EFC7F
:10BDC0000600287B18BF002800F08F80287DDFF850
:10BDD000208690B9032001F06AF8B07900F0E7FE00
:10BDE000F07A98F80230019030890090B27831886A
:10BDF00006F10C00FEF7A3FB4EE0032851D1002012
:10BE000000F08EFA0128E87C04D1042814BF042035
:10BE10000D2003E00D280CBF0E200F2001F047F885
:10BE2000F88A4FF6FE79484517D100AB022200216F
:10BE30004920FBF714F840B9BDF80000484504D08C
:10BE4000B97B01F07F01B97301E0F9F7FDFEF882DB
:10BE500007F116015320FAF70BF9B88C4FF6FF7172
:10BE6000884206D13088B88407F124015020FAF7BF
:10BE7000FFF801208DF8080002A95220FAF7F8F81F
:10BE800000F05FF80128B17805F14C0002D1FEF70F
:10BE9000BCFA01E0FEF7BBFA18B1F9F7D5FE00F0E5
:10BEA000EEF998F80200000713D52078002818BF93
:10BEB000012806D0022802BFDFF8580700780028C2
:10BEC0003DD10020F4F796FD00F0FDFA00F0F8FAFD
:10BED00035E0287D98BBDFF8740B00686864DFF8F4
:10BEE000700B0088F4F786FD29E0A97B39B3401C6C
:10BEF0002873F9F7A9FEC0B2643080B21AE00129B4
:10BF000018BF02291BD100F0BCF818E0012918BFA6
:10BF1000022914D10020687507F139010120287524
:10BF2000E87305F14C00F9F745FEDFF85C1C0220D0
:10BF30000870002000F01BFE01E000F083F8BDE86F
:10BF4000F7830120ECE130B504468FB0E089DFF8DB
:10BF50009C140978B0F1200239D0521E012A1CD954
:10BF600047F6DF73D21A012A03D9213A012A1DD9D3
:10BF700041E0204607F08BFB05003CD0287818B93B
:10BF80006888291D06F08FFCE089B0F5004F04BFDA
:10BF9000281D00F000FF28462BE008A9204607F0E6
:10BFA00054FB08A9204606F0F9FB24E019BBDFF892
:10BFB000641C0968F9B148F221018842A169627CD8
:10BFC00009780CBF0320022007F021FA13E091B991
:10BFD00000A9204607F0FAFA00A807F011F99DF829
:10BFE000120010B10598F8F7EFFB9DF8180010B19A
:10BFF0000798F8F7E9FB0FB030BD10B5DFF8BC4487
:10C00000207C48F2010105F0EBFF207C4FF4004159
:10C0100005F0E6FF207C48F2210105F0E1FF207CDD
:10C0200048F2220105F0DCFF207C202105F0D8FF3A
:10C03000207C212105F0D4FF207CBDE81040222186
:10C0400005F0CEBFDFF8A41302780978042A06D0E1
:10C05000052A0AD0072A0BD0082A0CD070470129DC
:10C0600018BF02290CD1FBF7D8BC49B9FBF74ABD70
:10C0700031B9FBF764BD012914BF0229FBF767BD85
:10C0800070472DE9F041DFF83444DFF86C53607DF0
:10C09000A37C227D94F811E0DFF85063DFF8507341
:10C0A000411C032B82B005F116084FF6FF7006D035
:10C0B0000A2B52D13B7803F00703012B55D1BEF177
:10C0C000000F24D1FFF7C3FDFFF73BFF002854D03A
:10C0D0003178A07C002914BF01290A2806D100F07C
:10C0E000FDFC07D0082088F8100003E0032808BFF3
:10C0F00000F092FD00F0C9F83078002818BF012840
:10C1000004D100F0EBFC01D000F0C2F8B0E0012A4D
:10C110000CD16175C9B2032908DBB8F80E10814251
:10C1200002D10020207501E000F0A4F84FF6FE7661
:10C13000F4F770FBB04204BFE88AB04206D0ADF815
:10C140000060EE8200A95320F9F792FFF5F770FE28
:10C15000FEF73DF80120207380E0042B18BF0E2B62
:10C1600003D00F2B18BF0D2B7DD1BEF1000F36D1A0
:10C1700000206075FFF7E5FE38B9052000F097FE56
:10C1800042F2107000F0F5F872E000F07EF8207CCA
:10C190004FF40051FAF799F8B878DFF878540007AF
:10C1A00007D5287828B9F4F725FC00F08CF900F0C1
:10C1B00087F93078002818BF012804D100F08EFCE0
:10C1C00001D000F065F800F027FDB878000702D52F
:10C1D000287801284CD1606CF4F70CFC48E0012A67
:10C1E00013D16175C9B2042907DAB8F80E1081427B
:10C1F00008D000F03FF804202BE0DFF8340B007883
:10C20000012827D10020207524E0032A04BF3078BC
:10C2100002281FD100F02EF8002088F81000DFF867
:10C22000D41BE07C042802D121640D2011E00D28EC
:10C230000BD1002085F8410000F064F8012098F946
:10C240000210884020640E2003E00E2802D12164F1
:10C250000F20E074F5F7ECFDFDF7B9FFF9F7F4FCFA
:10C2600000F00DF804E01BB100F0D6FCFFF7EFFC86
:10C27000BDE8F381032020750120E073704700F0D2
:10C280007F00643080B200F072BC062000F00FBE68
:10C29000002100220846FEF7B6B900B587B000A815
:10C2A000F9F77DFA00F036F8DFF8CC1600200880A8
:10C2B00000F002F807B000BD1822002100A8F9F72D
:10C2C00095BC10B5B44C2346012200213220FAF768
:10C2D000C6FDDFF8243B012200213320FAF7BFFD21
:10C2E000AE4821780078012906D1BDE810406422CB
:10C2F0004FF40061F9F7BDBFBDE810404FF4006195
:10C30000F9F7E3BF00B587B0FFF7D6FF00F002F8FA
:10C3100007B000BD00AB182200218220FAF79FBCB5
:10C3200030B58BB00446002500AB182200218220D6
:10C33000FAF795FDD0B91022002106A8F9F756FCAE
:10C34000102206A90DF10100F9F742FC70B954B1B1
:10C350000598284900F2E24005900860FFF7DAFFEF
:10C36000DFF814160D800125FFF7A6FF28460BB055
:10C3700030BD38B5A84D0446287C0421F9F7BEFF2E
:10C3800030B9287C2246BDE838400421F9F771BF56
:10C3900031BD10B57D4C207C0421F9F796FF207C3F
:10C3A000BDE810400421F9F77FBD10B5DFF83C4B24
:10C3B00000202070224601218520FAF711FC38B9AF
:10C3C0002346BDE81040012200218520FAF747BD31
:10C3D00010BD01210128DFF8143B08BF03211970AB
:10C3E000FFE7012200218520FAF739BC1553002010
:10C3F0007051002088520020AC4B0020DF43002009
:10C4000013530020F8B50546FFF7E3FF41F28834E7
:10C41000204601F008FEDFF8D87A3878002818BFE7
:10C4200001280AD15D4E30784FF48071F9F74DFF45
:10C4300030784FF48071F9F737FD38781F4E0228B5
:10C4400018D1012D0FD1DFF80406DFF8A81A006813
:10C450007064DFF8A40A00880880DFF8A01ADFF80B
:10C46000A00A008808800020F4F7C4FA00F028F839
:10C4700000F029F8012D1DD10220B0740320307581
:10C480000120F07306F14C00DFF8784A04F139011D
:10C49000F9F790FB022084F8260003203073FDF7A3
:10C4A00096FEF9F7D1FB00F07F00BDE8F240643062
:10C4B00080B25CE32046BDE8F2405AE7004200202B
:10C4C0000020F4F7B1BA0020F4F7AABAFEB504468A
:10C4D0000D4616462846FBF704F92846FAF788FF6A
:10C4E000DFF8247A386850B103208DF8080008225C
:10C4F000294600A8F9F762FB396800A8884700F0D0
:10C5000000F918BF012817D10020ADF80000ADF8E0
:10C51000024002208DF808000195DFF8F00900784C
:10C52000012802D1002000F014F8012000F011F8D9
:10C5300031462846F4F7A5FD00212046F7F7B5FB64
:10C54000DFF8C009818C2046F5F7E5FC00F0EFFA32
:10C55000F7BD8DF8090000A8FFF765B8FDF7DCBD51
:10C56000F0B583B0044609980D4616461F4600F004
:10C570001EFB0898019000972246DFF89409837803
:10C5800029463046FDF7DBFFFEBD000000420020DB
:10C59000B4430020B04300200C5300207C52002004
:10C5A0002DE9F041804616460D461F463046F9F704
:10C5B0004DFB04000ED0002E18BF002F03D03246D2
:10C5C0003946F9F7FBFA257021464046BDE8F041AF
:10C5D000F9F75DBBBDE8F08101B5DFF83809417BB3
:10C5E00082B021B10021417306F097FA0EE0016A92
:10C5F0000A0002D002A8884708E000218DF8011047
:10C6000000AB007C02220121FFF7CAFF00200EBD13
:10C610000000000012530020004200202DE9F047E6
:10C620000024FDF720FC074602E0641CBF69E4B269
:10C63000002FFAD100250026DFF8C8A8DFF8D4883B
:10C64000FDF711FC07464FF0000909E007F10C0166
:10C6500008F14C00F9F7A0FAB0B9BF6909F1010976
:10C660005FFA89F9A1453CDA08F14C00F5F79AFE2A
:10C670000128EBD0DFF8A00800884FF6FF71884250
:10C680001CBF39888142E8D1BAF81A003989814241
:10C6900003D14FF6FE7188420DD100F032F818BF79
:10C6A000012803D125B9F87828B9D6E7022802D1A4
:10C6B00038790028D1D078799AF812108842CCD1F4
:10C6C000DFF85818B879097888420AD0012908BFDC
:10C6D000022803D0022908BF012800D10125002E1D
:10C6E000BBD0A14504DB1DB1761CF6B2022EA7DB40
:10C6F000A14503D1FDF7BAFB002000E03846BDE8B4
:10C70000F087DFF8EC0700780028704710B5DFF8F5
:10C710000448607440B900F0ADF800F0AFF8A07CB8
:10C7200010B9082000F0C3FB207CBDE810400221B6
:10C73000F9F7AEBBB84300202DE9F041DFF8D4672C
:10C74000716A0446080003D02046BDE8F04108475E
:10C75000DFF8CC773D68A84609E0288861888842E0
:10C7600002BFA8782179884217D0A846AD69002D6C
:10C77000F3D11C20F7F7C2FF050061D01C22002175
:10C78000F9F734FA4FF6FE702881FF20E872386816
:10C7900000280CBF3D60C8F81850607AA871207A54
:10C7A00068712079A87060882880207B2875207A9D
:10C7B000012806D004F10D0105F10C00F9F7FAF992
:10C7C00005E00822FF2105F10C00F9F70FFADFF868
:10C7D0005417A07A0978814232D26179012901D0B7
:10C7E000F17B69B3AA7A0021824203D2E07A14284D
:10C7F00006DB06E0904204D1E07AEA7A904200D269
:10C800000121FFF77EFF14BF0128A07902D0022882
:10C8100001D1E07928B9DFF8EC262088528B9042CC
:10C8200006D129B120882881A07AA872E07AE8721E
:10C83000E07908B101202871A07908B10120E870E1
:10C84000BDE8F0815043002010B5DFF8C8466074A1
:10C8500038B900F00FF800F011F8A07C08B9FFF724
:10C8600014FD207CBDE810402021F9F711BB000029
:10C87000E54B00200121042007F078BB00210820AF
:10C8800007F074BBF0B5DFF88C46DFF878560E0081
:10C8900083B066742CD1DFF85806007802281ED1C8
:10C8A000F5F7C6FAF5F7FFFA070018D01C220021A9
:10C8B000F9F79CF9688B388005F11C01B81CF9F771
:10C8C00079F9A88C7881AA20B874DFF85C06007822
:10C8D000401C00EBD0704010387401207874FFF7D2
:10C8E000C9FFFFF7CBFFA07C10B9032000F0DFFAEF
:10C8F000A16A080009D0E88AADF802008DF800604E
:10C90000688BADF8040000A88847207C0023022231
:10C910000221FFF745FEF7BD01B5DFF8F805416BD1
:10C9200008001CBF00A8884701BD0000345000204B
:10C9300038B50446DFF8F405056800F0B5F9DFF80E
:10C94000D405007CFFF784F910E06868007860B1D6
:10C950000420F9F77BF940B1D621017044800146EB
:10C96000686840680078F9F792F92D68002DECD1DD
:10C97000BDE8314050E100008452002070B5DFF87E
:10C9800094650446307C1D460421F9F7B7FC08B1D4
:10C99000012070BD00F088F9002D1CBF012D022D73
:10C9A00023D10820F7F7AAFE050001D1102070BDA1
:10C9B000B06C10B9B56404E0084601680029FBD1E9
:10C9C0000560307C4021F9F799FC00212960AC809A
:10C9D000C0F51670E88080B2B0F5167F05D1307CC6
:10C9E0004FF416724021F9F744FC002070BDE0B509
:10C9F000ADF8000001918DF80820DFF81805C16935
:10CA000008001CBF00A8884707BD10B50446F3F70F
:10CA1000F8FE0146A01CF9F7BFF858B1DFF8F4049E
:10CA2000C16A080002D02046884770B9E07ABDE8A4
:10CA30001040E7E4FFF765FE18BF012805D1A27A90
:10CA40002088A11CBDE8104040E510BD80430020B7
:10CA5000C243002038B50446A07A01281ED1207BAD
:10CA6000DFF88C5498B98DF801002878002814BF9D
:10CA70000128E07A06D0022806D1FFF721FDFFF752
:10CA800022FD00208DF8000000A8FDF716FE287892
:10CA9000022813D10020F3F7ADFF0FE0F3F7BEFE3D
:10CAA0002388E27A83420DD1012A07D0DFF860049F
:10CAB000007800F014F805D101202073207BFFF7E7
:10CAC000A1FC03E0A11C1846FFF700FDDFF84404B9
:10CAD000016B08001CBF2046884731BD387800F044
:10CAE000070002287047DFF808140978022900D0EF
:10CAF000704710B5012802BFDFF81844607D002898
:10CB00000FD1F5F795F9DFF8FC1391F91810012012
:10CB1000884020640023207CBDE8104002220321CD
:10CB20003EE510BDF6F74BBA7047F3F773BE80B51C
:10CB300000F036F8002804BFBDE8014000F0B4B8AA
:10CB400001BDC1890A0400D5704700B583B0027BDE
:10CB500062B913290AD0027C019241F4004100918C
:10CB60000023811C407C842204F02FFF07BDDFF8E6
:10CB7000A4130B7C20B1024601211846F9F779BBBA
:10CB800001211846F9F784B9DC43002080B500F094
:10CB900007F8002804BFBDE8014000F085B801BDDA
:10CBA000DFF87003007C4FF48071F9F7A7BBDFF862
:10CBB00060138A7892070ED5DFF8602312789042CE
:10CBC00009D0087800F0F80040F0020008700C204E
:10CBD0008870F4F72BBA704780B5CE48817C012964
:10CBE00018BF022906D1012181730020FFF7BFFF82
:10CBF000012002BD002002BDC648817C01291CBF66
:10CC000002290C2903D100218173012070470020E3
:10CC100070470000D04F00201CB5002001F003FA3F
:10CC2000F3F7EFFD0446F3F7F5FDB9498A780023E1
:10CC3000214604F076FC002001F0F5F9AC480078BC
:10CC4000022802BFBA48007801280BD100A8F3F7E8
:10CC5000E9FDF3F7E3FDB7490B78B7490A7800A976
:10CC6000F4F7F8FC13BD10B586B002A8F8F75EFC27
:10CC7000040017D09DF8080088B10F208DF814002B
:10CC80004FF6FC70ADF80C00002001901F200090C2
:10CC900023469DF80820A94803A904F05EFC20461D
:10CCA000F7F792FD06B010BD91499A480978007CCB
:10CCB000022907D0002918BF012907D19149897B92
:10CCC000890703D44FF48071F9F7E2B84FF42F725B
:10CCD0004FF48071F9F7CDBA401C80B2704700B5AF
:10CCE00083B0ADF800008DF8021001928948816987
:10CCF00008001CBF00A8884707BD00200021854A06
:10CD000002EB8002401C09289161F8DB704709287A
:10CD100003DA804A02EB80000CE002207047092809
:10CD200004DA7C4A02EB8000002103E00220704715
:10CD30003A43002081610020704710B50446262246
:10CD4000FF21F8F753FF002084F8240010BD38B508
:10CD5000704CE06B70B97220F7F7D0FCE06348B11B
:10CD60000025E06B262101FB0500FFF7E6FF6D1CA7
:10CD7000032DF6DB31BD6748C16B51B1002226207F
:10CD800000FB021090F8243023B1521CD2B2032AC7
:10CD9000F5DB00207047FEB55E4D0446E86B38B306
:10CDA0000026262000FB06F7E86B381808222146EB
:10CDB0000C30F8F70DFF012817D18C208DF80800F2
:10CDC000E86B3818837D418900F10C02007AFDF789
:10CDD00049FE18B98DF80800FFF766FFE86B00F010
:10CDE00058F8E86B3818FFF7A8FF761C032ED8DB3D
:10CDF000F7BD000000F8FF070D530020F0B5454CCB
:10CE0000E06B0026002887B034D00025262000FBE8
:10CE100005F7E06B381890F82410022904DB491E4E
:10CE200080F82410012621E001291FD18C218DF8E2
:10CE3000081004218DF80C1000F10C0104A8FAF779
:10CE4000E0F803A8FAF787F9012802BFBDF80E0041
:10CE50004FF6FE71884204BF03A8FAF71CF9E06B95
:10CE600000F017F8E06B3818FFF767FF6D1C032D13
:10CE7000CCDB2EB9207C4FF48051F9F726FA06E07E
:10CE8000207C4FF47A724FF48051F9F7F2F907B031
:10CE9000F0BD3818012390F82210019148F22102C8
:10CEA00002A9009100F11801233004F024BA194AB4
:10CEB000917C814204D090741021107CF8F7E8BF77
:10CEC00070471F49086070471E490860704780B569
:10CED000F8F7BAFE42F2107108400A180D48007CBB
:10CEE000BDE808404FF48041F9F7C3B90B53002067
:10CEF00015530020FC520020C0430020FE520020A9
:10CF0000BE430020AC4B0020C0500020AD430020A9
:10CF10007051002000420020CE430020DD4300205D
:10CF2000204C0020D643002042C121009C43002019
:10CF30001253002011530020EB4300206C420020CC
:10CF4000B4430020B043002010B50024002000F0BE
:10CF500010F8DFF8F42358215020F9F741FE0A2891
:10CF600004D020B900F098F90A2800D10124204605
:10CF700010BD70B50446DFF8D05382B058220021AE
:10CF80002846F8F733FEF9F733FA06462E605CB10F
:10CF90000020ADF80000022200AB00211046F9F796
:10CFA0005EFE2B4600F0D2F9304676BD10B5DFF8B4
:10CFB000984380B3801E32D0C63834D0401E36D05D
:10CFC000401E38D0401E3AD0401E3CD0401E3ED0BD
:10CFD000401E40D0401E42D0401E44D0401E46D08D
:10CFE000401E48D0401E4AD059384CD0401E50D028
:10CFF000401E54D0401E58D0401E5CD0401E60D011
:10D00000401E64D0401E68D0401E6CD0401E70D0C0
:10D01000401E74D010BDF9F7EBF9206010BDA08858
:10D02000401CA08010BD208D401C208510BD608D4F
:10D03000401C608510BDA08D401CA08510BDE08DFA
:10D04000401CE08510BD208E401C208610BD608EE7
:10D05000401C608610BDA08E401CA08610BDE08ED6
:10D06000401CE08610BD208F401C208710BD608FC3
:10D07000401C608710BDA08F401CA08710BDE08FB2
:10D08000401CE08710BDB4F84000401CA4F84000EC
:10D0900010BDB4F84200401CA4F8420010BDB4F822
:10D0A0004400401CA4F8440010BDB4F84600401CE5
:10D0B000A4F8460010BDB4F84800401CA4F848008D
:10D0C00010BDB4F84A00401CA4F84A0010BDB4F8E2
:10D0D0004C00401CA4F84C0010BDB4F84E00401C9D
:10D0E000A4F84E0010BDB4F85000401CA4F8500045
:10D0F00010BDB4F85200401CA4F8520010BDB4F8A2
:10D100005400401CA4F8540010BD10B582B000219A
:10D11000002800918C4C42D0401E42D0401E46D088
:10D12000623846D0401E4BD0401E50D0401E55D0D5
:10D13000401E5AD0401E5FD0401E64D0401E69D0B1
:10D140005D386ED0401E6ED0401E6ED0401E6ED038
:10D15000401E6ED0401E6ED0401E6ED0401E6ED05F
:10D16000401E6ED0401E6ED0401E6ED0401E6ED04F
:10D1700059386ED0401E6FD0401E70D0401E71D006
:10D18000401E72D0401E73D0401E74D0401E75D019
:10D19000401E76D0401E77D0401E78D07AE02068BE
:10D1A00077E000AB02220220F9F759FE72E0A08876
:10D1B0006FE000A9E720F8F74DFF0098A06069E054
:10D1C00000A9E820F8F746FF0098E06062E000A9B7
:10D1D000E920F8F73FFF009820615BE000A9EA2012
:10D1E000F8F738FF0098606154E000A9EB20F8F7E9
:10D1F00031FF0098A0614DE000A9EC20F8F72AFF6C
:10D200000098E06146E000A9ED20F8F723FF0098C0
:10D2100020623FE000A9EE20F8F71CFF0098606252
:10D2200038E0208D35E0608D33E0A08D31E0E08D79
:10D230002FE0208E2DE0608E2BE0A08E29E0E08E86
:10D2400027E0208F25E0608F23E0A08F21E0E08F92
:10D250001FE0B4F840001CE0B4F8420019E0B4F854
:10D26000440016E0B4F8460013E0B4F8480010E0BB
:10D27000B4F84A000DE0B4F84C000AE0B4F84E00EF
:10D2800007E0B4F8500004E0B4F8520001E0B4F84C
:10D2900054000090009816BD38B52B4D01242B4644
:10D2A000582200215020F9F7DAFD40BB05F10801B2
:10D2B000E720F8F7DDFE05F10C01E820F8F7D8FECD
:10D2C00005F11001E920F8F7D3FE05F11401EA2079
:10D2D000F8F7CEFE05F11801EB20F8F7C9FE05F1CD
:10D2E0001C01EC20F8F7C4FE05F12001ED20F8F751
:10D2F000BFFE05F12401EE20F8F7BAFE0024204617
:10D3000032BD10B56420FFF700FF6520FFF7FDFE7A
:10D310006620FFF7FAFE6720FFF7F7FE6820FFF7A9
:10D32000F4FE6920FFF7F1FE6A20FFF7EEFE6B20A6
:10D33000FFF7EBFEF9F75CF8034B04461C6000F0C6
:10D3400005F8204610BD0000504D00205822002155
:10D350005020F9F784BC000080B507F017F902E00F
:10D3600080B507F00FF900B10120C0B202BDF0B5E1
:10D370004F4C504A2568954209D02568002655F83B
:10D38000267042F82670761C402EF8D3226042F8B0
:10D390002010F0BD10B50FF23013820853F8222090
:10D3A000136800F00300C000FF248440A34301FA87
:10D3B00000F01843106010BD3F49042803D10868ED
:10D3C00040F4803022E0052803D1086840F40030A2
:10D3D0001CE0062803D1086840F4802016E00F28DE
:10D3E00005D13648016841F00201016070471028FC
:10D3F0000DD3A0F110010FF27412490952F8211057
:10D400001038012200F01F0002FA00F00860704797
:10D410002949042803D1086820F4803022E0052837
:10D4200003D1086820F400301CE0062803D1086806
:10D4300020F4802016E00F2805D12048016821F053
:10D4400002010160704710280DD3A0F110010FF206
:10D450003012490952F821101038012200F01F0043
:10D4600002FA00F00860704715490E2803D10868D9
:10D4700040F0006014E00F2803D1086840F000700D
:10D480000EE010280DD3A0F110010FF20812490987
:10D4900052F821101038012200F01F0002FA00F0AB
:10D4A000086070470748016841F00101016070475A
:10D4B00008ED00E00040002024ED00E010E000E076
:10D4C00004ED00E098200D400000000018ED00E0A1
:10D4D0001CED00E020ED00E000E400E004E400E0EA
:10D4E00008E400E00CE400E010E400E014E400E0F4
:10D4F00018E400E01CE400E020E400E024E400E0A4
:10D5000028E400E02CE400E030E400E034E400E053
:10D5100038E400E03CE400E040E400E044E400E003
:10D5200048E400E04CE400E050E400E054E400E0B3
:10D5300058E400E05CE400E060E400E064E400E063
:10D5400068E400E06CE400E070E400E074E400E013
:10D5500078E400E07CE400E080E400E084E400E0C3
:10D5600088E400E08CE400E090E400E000E100E00A
:10D5700004E100E008E100E00CE100E010E100E07F
:10D5800080E100E084E100E088E100E08CE100E07F
:10D5900090E100E080E200E084E200E088E200E068
:10D5A0008CE200E090E200E07047000000B500BFB0
:10D5B000130096469446103928BFA0E80C50FAD8BC
:10D5C0005FEA417C28BF0CC048BF40F8042BC90764
:10D5D00028BF20F8022B48BF00F8012B00BD000037
:10D5E000406940B1427803231A4204D10A46017BC4
:10D5F000807806F020BA704742790179C07806F049
:10D600001ABA2DE9F04105468846287D383017467C
:10D610001E46C0B2F8F71AFB04003DD0012020706E
:10D620001C22294604F11C00F8F7C8FA0A224146D8
:10D63000A01CF8F7C3FAA78130782074B078A074E2
:10D64000707860740798E0740020E0620898606168
:10D65000069820766889E08109986076287D30B147
:10D6600004F13800E0622A7D2969F8F7A7FA607FA3
:10D67000032108420BD045480168080020461CBF22
:10D68000BDE8F0410847BDE8F041F8F7F1BA21469E
:10D69000BDE8F0413E484CE0BDE8F08138B50446B5
:10D6A0002020F8F7D3FA050016D0042028701022A5
:10D6B00020886880A0782871E0786871A81D00F043
:10D6C00021F8E16805F11600F9F79BFC207CA877AA
:10D6D0002946607CE87729E031BD38B50446102042
:10D6E000F8F7B4FA05000BD005202870082220882E
:10D6F00068802089A88100F004F8A07AA87314E05B
:10D7000031BD281D6168F8F759BA38B504460C20B8
:10D71000F8F79CFA050007D0062028700822208818
:10D720006880FFF7EEFF00E031BD2946BDE83440D8
:10D7300018480078F8F7ABBA38B504460E20F8F769
:10D7400085FA05000DD00720287020886880A07811
:10D750002871022804D161680822681DF8F72EFAA2
:10D76000E3E731BD10B504460620F8F76FFA60B163
:10D770000821017021884180A17801710146054886
:10D780000078BDE81040F8F782BA10BDE0520020E2
:10D79000384300201042002010B500228A70CA7061
:10D7A0000023027F0A75826A4B738B80838D4B83C3
:10D7B000C3894B8112F8013B0B7003F00304032C67
:10D7C00065DA002C18BF022C33D103F00C040C2CAA
:10D7D00008D0DB065CBF12F8013B8B70082C08BF39
:10D7E000012300D000230C2C0B7306D1137854783E
:10D7F00003EB04238B80921C0AE0437903F00303BC
:10D80000012B05D10B7843F00C030B7043898B80FF
:10D810000B78DB060DD41378547803EB0423CB800C
:10D8200012F8023F547803EB04230B819378CB70FA
:10D83000D21C12F8013B4B750B781B0618D512F859
:10D84000013B4B70FC24234221D103F00304032C41
:10D850001DD0032423420DD012F8013BCB750B7869
:10D8600003F00303022B05D112F8013B0B7601E014
:10D8700000234B700A610B7D9A1A836A9A180A7505
:10D88000037F9B1A4B73D2B2007F904202D20020DA
:10D890004873087510BD70B50C4686B005462078F3
:10D8A00000F00C01020648BF41F0800141F0020681
:10D8B00000F00301012908BF46F01006800648BFAA
:10D8C00046F020060C22002100A8F8F78FF98DF809
:10D8D000026060788DF80300ADF8005001208DF8EB
:10D8E000050000A8FDF788FD9DF81400E8B903992C
:10D8F000012048760399A07881F83A000399E078EE
:10D9000081F83B000398E18820F83E1F218941807F
:10D91000617DC1720399207E81F84C000399E07DFE
:10D9200081F84B0000A8FDF7CAFD06B070BD0246A5
:10D930000020537B042B00D0704730B5137CDBB93B
:10D940005269CAB113780324234201BF4B68547B48
:10D950005D7DAC4210D1548909888C4202BF918808
:10D96000DC88A14208D191789A7891421DBF19783C
:10D9700001F00C010429012030BD1CB50346084606
:10D9800003224178114207D00B490C68210012D0C4
:10D9900000221946A04713BD0190ADF8003000A940
:10D9A0000648F5F72AF830B10621417300210068D6
:10D9B000407BFBF75CF813BDDC5200202FD9200020
:10D9C00080B506F0E7FDDFF8A0070FF2B5110160A2
:10D9D0000FF2E51141600FF2852181600FF29D2168
:10D9E000C16001BD10B5DFF8844720700021DFF869
:10D9F000800761700088DFF87C17A08004F11800B0
:10DA0000F8F7D8F8DFF870070078A070DFF86C0737
:10DA1000A06010BD2DE9F04F0D46280485B0DFF859
:10DA20004C674CD53078F8F761F95FEA000B43D0CA
:10DA30000BF114040BF10209A07A002804BFE0895D
:10DA4000132815D1B9F800A03069002702E0F6F7D5
:10DA5000BBFE404660B102884168524505D1002FA7
:10DA6000884614BF79603161F1E707460846F1E75F
:10DA7000617F484600F02CFBD8B99BF800000128D4
:10DA800012D1607903900BF110032068029049468F
:10DA900099F811000190207900900BF11C00B9F861
:10DAA0000A2005F0FAFF04E0022804BF5846FDF7FB
:10DAB00080FC5846F8F7DCF885F4004024E0DFF8F5
:10DAC000C0060078002818BF012808D1E80706D54D
:10DAD000F068010018BF804785F0010014E0A80736
:10DAE00004D50120F07085F002000DE028070AD56A
:10DAF00000F0ABFA20B9706108213078F8F7E5FB47
:10DB000085F0080000E0002005B0BDE8F08FDFF8E8
:10DB10005C26137818B1D160024601218FE2D060F3
:10DB200001218FE238B504466068007D1030C0B234
:10DB3000F8F78CF8050022D00220287000206870C9
:10DB400020886881A07828736068007D287205F1BC
:10DB5000100068606068007810F0200118BF012193
:10DB600069726068027D01696868F8F727F82946DC
:10DB7000BDE83440DFF8F4050078F8F788B831BD27
:10DB800038B50C4611461A4606F0FBFD050011D0CB
:10DB9000214606F0B4FD68B12146284606F0C0FDD6
:10DBA00030B96C88284606F0A1FD204606F09AFEA2
:10DBB000002032BDB42032BD2DE9FE4381460D4622
:10DBC000B3264FF00008002700E07F1CDFF8B40503
:10DBD0000078FFB287423ED2384606F031FF04009B
:10DBE000F3D0607940445FFA80F8C145EDDA18223D
:10DBF00000212846F7F7FAFF6179A9EB0800081819
:10DC0000C0B204EB4000C0886881F2F7FAFD01461B
:10DC10002846F7F7CFFF6078012802D12875608881
:10DC200013E0608800A906F08DFE78B19DF8080029
:10DC300028759DF80800032805D100A905F10C00FE
:10DC4000F7F7B8FF02E0BDF80000A881207828723D
:10DC500000262079A8753046BDE8FE834289130767
:10DC60000BD5920708D5427B062A18BFE92903D0B5
:10DC7000CD2918BFF02900D167E170472DE9FD4F8C
:10DC80000E46F188F07884B006F0E8FD5FEA0008FF
:10DC90004FF0000B72D0317DC0B205F0E1FD040001
:10DCA0006CD0F188F078002206F0F3FD0546F0789C
:10DCB0006071D946F088E080B07D608184F808B05A
:10DCC000327D3169E068F7F779FF13986082149824
:10DCD0002075DDF844A034E0688806F04CFE7880BA
:10DCE000287938713178490603D5B97941F00201B4
:10DCF000B971BBF1000F01BF7988DFF88C24D28A9B
:10DD0000914214D1B07000200390CDF804A0129875
:10DD1000059B0499029000200090DFF86C04828C2F
:10DD20003046FFF76EFCB87940F00500B87109F194
:10DD30000107F188F078FAB206F0ABFD05465FFA0C
:10DD400087F97DB1C1450DDA04EBC90000F1160772
:10DD50000020387068780128BED138704FF0010B70
:10DD60006888BCE7204605F090FD0094109A9DF865
:10DD700018105346304600F014F80FE0F0788DF894
:10DD80000300B8F1000FB07D8DF804000CBFB9207E
:10DD900010208DF8050000A8FFF72EFC07B0BDE8A5
:10DDA000F08F2DE9FF4F87B0149C204605F02CFD25
:10DDB0000546204605F03EFD002D804600F0C2805D
:10DDC0004FF0000A04E040F00800B0710AF1010AC7
:10DDD0005FFA8AFA207C824580F0B080EDB2002D97
:10DDE00000F0AC8004EBCA0000F11606B079C00761
:10DDF000ECD4DFF88C030078002818BF01284FF01E
:10DE0000000915D1307898B97088F7F727F878B1FC
:10DE10000079012818BF03280AD1B0795FFA88F881
:10DE200040F08000B8F1000FB0714FF00109CDD083
:10DE30009DF828004FF0000B082708B14FF0200B89
:10DE40000C22002100A8F7F7D1FE3078B8B1CE48F7
:10DE500090F86800012809D17088ADF800004BF0F7
:10DE6000080BFF2041F20807307111E00799708814
:10DE700088804BF00C0B0C274FF6FF7006E09DF8E6
:10DE8000200010B14BF0400B0A277088ADF800005D
:10DE900007988DF802B0007D8DF8040001208DF800
:10DEA000050000A8FDF7A8FA9DF81400B0BB039880
:10DEB000407D70710398C7829DF8241041763078B8
:10DEC00020B1B148039990F86800087703986189F8
:10DED00020F8281F618A4180217D017103996079B2
:10DEE00081F83A000399307981F83B00079903984B
:10DEF000C98820F83E1F0799098941800799497D03
:10DF0000C172079903988988818707990A7D0969F1
:10DF1000406CF7F753FE00A8FDF7D1FAB07940F056
:10DF20000100B0719DF8141000297FF44CAFB9F1D5
:10DF3000000F18BFA8F101086D1E47E70021204619
:10DF400000F045F80BB0BDE8F08FF0B5044689B09D
:10DF5000207B0F4605F0E4FC060023D065691FBB5B
:10DF6000217B042205F0F1FCE5B1A888ADF80E0094
:10DF7000E888ADF81000287A8DF81C00F06806904B
:10DF800000208DF81D002068006A0078820928783A
:10DF900000F0200300F0400108BF0422009602A810
:10DFA000FFF7FFFE09B0F0BD217B082205F0CDFC94
:10DFB0000028D9D0002DF5D001977189C9B2009100
:10DFC000037942880178A87805F049FDCDE77CB552
:10DFD00001220123002402E00023641CE4B2057C3A
:10DFE000AC420BDA00EBC4052D7FEE07F4D50C260E
:10DFF0003542F1D06D07F0D50022EEE7047A7CB906
:10E000000BB901290CD10121017241798DF803105E
:10E0100040898DF804008DF8052000A8FFF7ECFA80
:10E0200073BD0121D3E751490B7820B10022CA709A
:10E030000221024603E00120C870022102E01846D6
:10E04000F8F717B91846F8F740B92DE9F8434E48E4
:10E05000464E807B00250024376900074FF00109F8
:10E060001ED4F8F7C5F97169421A48490B889A42DB
:10E0700038BF01202AD346490978B2FBF3F81FFACA
:10E0800088F8414534BF89465FFA88F903FB1821B7
:10E0900089B2401A706103E03846F6F795FB4746AF
:10E0A0009FB1F8788145B4BFA0EB09000020F8705B
:10E0B000F978786829B9002C804614BF6060306117
:10E0C000EAE73C466D1C0746EAE7A8B2BDE8F283E2
:10E0D000F8B5264C027A25690E46022A294641D116
:10E0E000078800E0496851B10888B84204BF8878C1
:10E0F000B042F7D126480078C8700120F2BD002058
:10E1000035B1012001E0401C0D4669680029FAD1B3
:10E110002049098880B2884224D20820F6F7EEFA16
:10E1200000B3078086701A49174E0978C170002124
:10E130004160216909B1686006E02061B07B000799
:10E1400002D4F8F755F96061B07B00070AD5207852
:10E150000821F8F7D3F828B90C480288207808215C
:10E16000F8F796F80020F2BDB051002038430020A7
:10E17000C64300205C520020EE4300205452002091
:10E180001553002098C12100AC4B0020CA43002049
:10E19000F0430020CC43002070B58AB014461D46E1
:10E1A000002201AE135D83F036039355521C102AF2
:10E1B000F8DB0B4602460095012101A800F016F895
:10E1C0001022294605A8F7F7F9FC0020015D81F02F
:10E1D0005C018155401C1028F8DB0095802305AABE
:10E1E000012101A800F002F80AB070BD2DE9F04746
:10E1F00081461F468A46F80888B0C10800EB1171B5
:10E200000909109E90460C461022A0EB011500F063
:10E2100075F8BAF1000FEDB211D000F07CF81022C1
:10E22000494600F05FF800F058F80020815D10F8D2
:10E23000092051408155401C1028F7DB80372046CB
:10E24000441E80B280B100F066F8102200F049F858
:10E2500000F043F80020815D18F8012B51408155F2
:10E26000401C1028F7DBEAE7BFB24FEA172904ACDD
:10E2700035B900F050F800F040F88020307014E01C
:10E280000E2D19DB00F047F8102200F037F800F0EF
:10E2900027F88020A85500F02BF800F01EF800F0B9
:10E2A00031F800F038F800F028F800F01EF800F01F
:10E2B00014F800F027F80DE000F02DF800F01DF83C
:10E2C00000F00EF88020A85500F00FF800F005F8D7
:10E2D00000F018F808B0BDE8F087314600A81FE04C
:10E2E0002A4641463046F7F769BC86F80E90F77328
:10E2F0001022314604A8F7F761BC0E2200213046F7
:10E30000F7F774BC0020815D025D51408155401CCF
:10E310001028F8DB70471022314600A8F7F74EBCF2
:10E3200038B504460D4600F013F829462046BDE8EE
:10E33000344000F011B800000448016841F00101C8
:10E340000160416841F003014160704780B70840B7
:10E35000002106F0AFBC000080B500200090012332
:10E360000022084606F00EFD00BF06F04FFD002813
:10E37000FAD0FFE7BDE8014006F053BD70B588B0A4
:10E380000D460021069111990C9C109E0591049652
:10E3900000F035F806F084FD00280CD100BF06F02F
:10E3A00004FE0028FAD032462146284608B0BDE8CF
:10E3B000704006F005BE08B070BD0000F0B587B033
:10E3C0000D46002106911E4611990C9C109F059147
:10E3D000049700F014F806F037FE00280DD100BFB6
:10E3E00006F0B5FE0028FAD03B46224631462846C4
:10E3F00007B0BDE8F04006F0ABBE07B0F0BD0021AD
:10E40000039100940E9902910D990191294670474C
:10E4100062F30F2262F31F42401810F0030308D08A
:10E42000C91A1FD3DB0748BF00F8012D28BF20F809
:10E43000022D130030B414461546103928BF20E9C8
:10E440003C00FAD8490728BF20E90C0048BF40F833
:10E45000042D890028BF20F8022D48BF00F8012DA7
:10E4600030BC7047C91818BF00F8012DCB0728BF72
:10E4700000F8012D7047000080B560B9FF20F7F764
:10E480003AFD0021002006F0CFFE1549012008705A
:10E490001449087001BD144900200870BDE804400B
:10E4A0000FF2350106F0C0BE70B5104E044630784C
:10E4B000FF280D460DD00420F7F7C8FB38B1C02166
:10E4C00001708570C47001463078F7F7E0FB0020DA
:10E4D00070BD012070BD0000810801F00101E3E77B
:10E4E000805100201853002007530020D7430020FC
:10E4F00006F045BF03480021817101807047014942
:10E50000887170474452002080B51420F6F7F6F861
:10E510001249086014220021F7F768FB002007F079
:10E52000C5F8012001F048FC0220FAF729F8032081
:10E53000FFF758FA042007F00DFA0520FDF77EF9E1
:10E54000062007F0FDFC072007F000FF082008F078
:10E5500049FBBDE80240092000F016B8A85200208F
:10E56000B7562100C1FD2000C985200015DA200022
:10E57000735E210015B92000775F21005F632100E1
:10E580005D6A2100A1E5200013490870704780B53D
:10E59000FFF7D2FE08F006FDBDE8014008F014BD0B
:10E5A00038B50C4620040BD50B4D01E0F7F760FBA6
:10E5B0002878F7F79BFB0028F8D184F4004032BD9F
:10E5C000A00602D584F0200032BDE00602D584F01A
:10E5D000100032BD002032BD0053002080B508F08D
:10E5E000E3FCBDE8014008F0F1BC000010B5924822
:10E5F0000FF2BD61D94C41650FF2FD7181650FF2DB
:10E600007D51E1620FF2295121630FF631016163FF
:10E610000FF66501A1630FF60101E1630FF2B93155
:10E6200021640FF2B95141640FF20D6181640FF260
:10E630007D51C1640FF6B5010165206908B1F6F797
:10E64000C3F8DFF8480C0B49A0600B2208202073A8
:10E650000020206181F820002075002104F11500C0
:10E66000F7F7C4FA04F12000BDE810400B220021A6
:10E67000F7F7BCBA004100203EB50446201D052135
:10E680004182032101740168491E01604A1E026033
:10E6900094F836200A7094F8361011B14FF6FF71D5
:10E6A000018601684A1E0260028E120A0A70026820
:10E6B000018E11700179C91C017100A804F12B01B0
:10E6C000F7F778FA03208DF8080000AADFF8C00BEE
:10E6D000C38C0321204601F0A5FC050004BF2046A1
:10E6E00000F0B8FE28463EBD38B504460D466068C9
:10E6F000411E100A087001F8012C049801F8020C60
:10E70000DFF88C0B428D120A01F8032C408D01F8C2
:10E71000040C180A01F8050C01F8063D207A62681D
:10E7200061601018401A2072DFF8741C287A0328E0
:10E730000CBF01200020E0820B220920207504F18B
:10E740002000F7F73BFA4FF6FF732A4603212046D5
:10E7500001F068FC050004BF204600F07BFE28465F
:10E7600032BDDFF8EC1C897A0829A8BF07210170A7
:10E770000078C006000E70472DE9F04705460F46A9
:10E780009246FEF7EDFDDFF8C88CD8F8004000F0A7
:10E790000100002680F0010913E0607E400613D5D9
:10E7A00060684178C1F3810103290DD1ED1F411D3E
:10E7B0002846F7F7FFF9103654F8084C6D1EF6B2EC
:10E7C0007F1EFFB227B101E054F8084C002CE4D1C1
:10E7D000B9F1000F18BFFEF7BFFDFEF7C1FD00F055
:10E7E0000100D8F8001080F001000BE0927905F8E4
:10E7F0000129761C4A68527905F80129F6B27F1E74
:10E8000051F8081C89B14A685378C3F38103022B7D
:10E81000F6D14B7E5B06E9D40A7E9206F0D5FFB2B4
:10E820000122002F8AF80020EAD108B1FEF794FDFA
:10E830002E70681EBDE8F087804100202DE9F0436E
:10E8400085B0044600208DF80000884691460DF101
:10E850000100FFF786FFDFF8385A297B401800F1E6
:10E860003D06F6B23046F7F7F1F9070048D0F01947
:10E870007860002038722A7B7868A968861A30464A
:10E88000F7F79CF99DF8011000AA701EFFF774FFBE
:10E890000021964A017012786978920142EAC1110A
:10E8A00041EA091141F00F0100F8011C44EA081186
:10E8B00000F8021D7A68397A78605118091A002028
:10E8C0003972F88238758DF80C000B22DFF8881C3D
:10E8D00007F12000F7F772F99DF8000018B1F88AE7
:10E8E00040F00800F88201F03CFB0146002301AA39
:10E8F000384601F097FB0028384602D0F7F7B8F900
:10E90000002005B0BDE8F083F8B50446FEF728FD09
:10E9100000F0010080F00105DFF8340B07680026E5
:10E920000EE0787E000609D56168786801F026FB64
:10E9300020B1787E00F0BF0078763E4657F8087C1C
:10E94000002FEED11EB1707E40F040007076002D99
:10E950001CBFBDE8F140FEF7FFBCF1BD204F002019
:10E960002DE9F84380468946FEF7FAFC00F00100E5
:10E9700080F00107DFF8D80A0668002400250CE0C3
:10E98000354605F11800417841F0100141700178D9
:10E9900041F08001017056F8086C9EB1707E00064F
:10E9A000F9D572684946404601F004FB0028F2D0D0
:10E9B000002DE5D0287D012804D16868017841F058
:10E9C000100101700FB1FEF7C7FC15B100F0EAFCB1
:10E9D00001242046BDE8F2832DE9F04182B00024F5
:10E9E0000094FEF7BDFC00F04BF880F001050EE04E
:10E9F00057F8088C224639463046F7F707FA394669
:10EA000000A8F7F7BEF9B07A401E4746B07267B16A
:10EA1000787E000605D5788A401E788280B200286C
:10EA2000E6D03C4657F8087CF1E70DB1FEF794FCC0
:10EA3000B07AB0B100F02AF81EBFDFF8000C90F8F1
:10EA4000200000280DD1DFF89C4C204602F0A2F8EF
:10EA50003021204602F085F803E06070204600F087
:10EA6000E6FB00A8F7F7ADF9040007D0FFF74CFF6D
:10EA7000607E40074CBFE920F020EEE7BDE8F3815F
:10EA8000DFF8646C376800F001007047DFF80008B9
:10EA9000407B0F287047000070B50546FFF734FF34
:10EAA000DFF8AC49DFF8E867A06B80470128F08DFC
:10EAB00008BF401C6882A07A002804BF707B0F2822
:10EAC00008D1DFF8205C284602F064F8302128469F
:10EAD00002F047F8FEF744FCA17A491CA172002815
:10EAE00004BFBDE87040FEF737BC70BDF84D002094
:10EAF00038B50446DFF8F05B607E00F0EF0060762A
:10EB00002046FFF701FF21462846F7F771F9FEF787
:10EB100027FCA97A491CA97208B9FEF71DFCFFF76A
:10EB2000B5FF04D1BDE83240082001F063B831BD23
:10EB300010B50446DFF85807407886B0B8B1012018
:10EB40008DF8000004F11C0100F014F80DF1020032
:10EB5000F7F730F8606800788DF80A0004F10F01CB
:10EB60000DF10B0001F0BFFB00A808F031FA06B070
:10EB700010BD000000208DF80100704710B504465C
:10EB8000FFF77AFDDC2818BFDD2808D0E42818BF7D
:10EB9000F32804D0DE281CBFDF28DB2805D101467E
:10EBA0002046BDE8104001F02FB810BD10B586B06A
:10EBB000044606208DF8000004F11C010DF102004E
:10EBC000F6F7F8FF04F10F010DF10A0001F08BFBDD
:10EBD00000A808F0FDF906B010BD000030B50446ED
:10EBE00004F1340585B0A87820B304F12B0101A805
:10EBF000F6F7E0FF03208DF80C007E48017D0388C6
:10EC0000009101A92A882046FFF76EFDDC2818BF75
:10EC1000DD280BD0E42818BFF32807D0DE2818BF62
:10EC2000DF2803D0E82818BFDB2803D1014620469F
:10EC300000F0EAFF05B030BD2DE9F8430446FEF7C9
:10EC40008FFBDFF8A46A376800F001004FF000087E
:10EC5000E72580F0010902E0B84657F8087C97B133
:10EC6000787E0006F8D5387D012802BF97F8390074
:10EC700021798842F0D1424639463046F7F7C6F846
:10EC8000B07A401EB072B9F1000F18BFFEF764FBF6
:10EC90003FB13846FFF738FEF021384600F0B4FFA8
:10ECA000002529462046BDE8F44300F0ADBF000032
:10ECB00030B5044685B06078F32818BFDF281ED031
:10ECC000E82818BFDB281AD0204600F029F80500F4
:10ECD00014D1207C90B104F11101092000F090F9C9
:10ECE00060B100F011F8FFF7FFFC0546F32D18BFE7
:10ECF000DF2D03D0E82D18BFDB2D03D16570204632
:10ED000000F07AF805B030BD02218DF80C104FF6F6
:10ED1000FF72ADF80420A17A009101A92389704700
:10ED200038B504460025A07A0B381328207B28BF6D
:10ED3000E8251028A8BFE82501DA0F2804D07D496E
:10ED4000097A090758BFE825617B884202D20F295A
:10ED500018BFE825DFF83805408D4FF6FF7188426F
:10ED600008BFEC252420F5F7C9FCDFF87819086105
:10ED700020B12422211DF6F721FF00E01A252846A4
:10ED800032BD70B50446DFF80805217ADFF8D06B94
:10ED9000C51CA972617A80F82C10E07A2870A07ADC
:10EDA000307008F047FA307838B1211D502001F05A
:10EDB00057FFA11DE12001F053FFDFF8801801206B
:10EDC00081F8200004F10D01A87ADFF8105D0F280A
:10EDD00014BF0120002028750B2205F11500F6F75D
:10EDE000EDFE04F1180105F12000BDE870400B2292
:10EDF000F6F7E4BE4A4C002010B50446607820B90E
:10EE0000DFF8D80C0069FFF7BCFF2C2020702046EB
:10EE1000BDE8104000F04CBF10B5DFF8C01C044640
:10EE2000086918B100220A61F5F7CEFC08202070AD
:10EE30002046BDE8104008F0CBB80000DFF8A41869
:10EE4000DFF8F807097D90F8200081F00101084201
:10EE500000D1704780B5DFF8380490F82C10C31C3F
:10EE60001A78987AFFF7EAFC00281CBFBDE8024038
:10EE700000F0F0BA01BD000030B505460124A87BC2
:10EE8000400789B01ED5E98E05F11C00FFF768FD2B
:10EE9000C0B9DFF8580D407908B1002412E00B2208
:10EEA00005F10F0106A8F6F789FE01F05AF806A948
:10EEB000019105F11C02302100910146EB8E0120E9
:10EEC00001F068F910208DF8080005F11C010DF122
:10EED0000A00F6F758FEE88EADF814008DF81640DB
:10EEE00002A808F075F809B030BD0000DFF8700A1C
:10EEF0000078002818BF01F02DBB70470D4800F1C5
:10EF000054010162DFF8E81C416200F144018162B2
:10EF10000FF224010164DFF8E81C0166DFF8E41C4D
:10EF20008167DFF8601DC167018941F0020101813D
:10EF30007047000080410020030471040204600453
:10EF400011047004020402040104020410046104A8
:10EF50000004140463047304720462044304000490
:10EF60001304060400040004040412040004000452
:10EF7000000400045104640000040004000444047C
:10EF80000004000400040004650400043504810446
:10EF900064000504000483040004000002460146E6
:10EFA000032000F0D3BE02460146052000F0CEBE8D
:10EFB0000146082000F0A2BE0FF2692010B5DFF86C
:10EFC0002847606382B00FF24D20A06304E0204622
:10EFD000F6F7F7FE00F010F820680028F7D1606817
:10EFE00028B1201DF6F7EDFE00F006F8F7E72060E7
:10EFF000A072E072207313BD009000A800F058BF0B
:10F0000038B504460FF23800255C2846F6F71EFE98
:10F0100020B1291841600021017232BD0220F6F7AB
:10F0200015FE50B10FF27821615C01701A21417018
:10F03000014600F085FEF6F72AFE002032BD0000F2
:10F04000004246484045453F354D3600821DC907C0
:10F05000D2B210D50A2192FBF1F10A2303FB112150
:10F06000C9B241B10A32521AD2B20529A4BF0A323A
:10F07000D2B20B32D2B21328ACBF142006208018B3
:10F08000C0B209300A2190FBF1F0C0B2704780B5E0
:10F09000DFF8B40C007A800704D508F082F810B1CC
:10F0A000012002BD002002BDDFF89C0C007A800721
:10F0B0000DD5DFF89C03807A38B9DFF88005C06F82
:10F0C00028B1407E10F0800002D00120704700205F
:10F0D0007047DFF87C13DFF8142B097B927891429C
:10F0E00038BFF6F7B3BD0020704780B500F0E0FEF2
:10F0F000002002BD31B5007BD54C20B1012823D0C2
:10F10000032823D036E0624D687B0F2805D000F03D
:10F11000C7FD10B90098E16A8847009995F83A0050
:10F120008873142000990870201D0099F6F729FEB5
:10F13000FEF716F9217B491C217308B9FEF70CF97B
:10F14000202000F057FD31BD1520EBE70098007A34
:10F1500080B100984168491C416011F8010D009987
:10F1600048730098C07D00280098407B05D008B106
:10F170000A2814DBFFF741FF31BD50B10A2808DA35
:10F18000009A0FF23C03127AC11811F8011C8A424E
:10F1900005D0082802BF0098007A0828EAD1009814
:10F1A0000099007A401E087200980099407B0A304E
:10F1B000087000980099407B401C4873B4E7000039
:10F1C000020402010101010902000000DFF8180534
:10F1D000C06B010018BF00470020704738B50446D7
:10F1E00004F114000121017004F138014A88438CB4
:10F1F00042800A79C2714A79027204F12C020978BC
:10F20000204600F00FFF050004BF204600F022F961
:10F21000284632BD80B500F043FD08B1202002BD74
:10F22000012002BD417E41F001014176704710B5D9
:10F23000017D027E012906D1130704D4BDE81040E8
:10F24000417800F0E1BC5406DFF89C3404D5BDE8F9
:10F2500010404078196B0847012903D1120748BFB5
:10F2600030210BD442781B2A08BF222106D0002A65
:10F270000CBF0FF220020FF22802895C01700146D8
:10F28000BDE81040187CF6F702BD0000F5FB200039
:10F29000244C0020303016181920231A1C1E300070
:10F2A000303017181921301B1D1F300070B5DFF8E2
:10F2B0008C430646E06F002870D0DFF8BC5C26B1B6
:10F2C0001B2E05D1017D052952D00021417051E04E
:10F2D000E92E2DD1807E30B907F06CFF18B1E06FB8
:10F2E000807D40072DD5EE2008F0C2F8E06F817ECA
:10F2F00000293ED0827D520705D4491E8176BDE8A3
:10F30000704008F06DB9017E01F07F010176E06F79
:10F31000017D032903D1417E41F004014176ED20B6
:10F3200008F0A6F8DFF8201AE06FC96F884724E0DC
:10F33000E12E15D107F03EFFD0B1E06F807D400790
:10F3400016D4E16FA87C8876E16F496828788870C8
:10F350002878401C28700120BDE8704008F0A1B852
:10F360001C2E05D13A49096C88470020E06770BD22
:10F37000E06F4670E06FFFF75AFFE06F807D000698
:10F3800005D5287E07F0A6FFE87D07F069FF00207D
:10F39000E0671020BDE8704000F02CBC70BD00009C
:10F3A000354F00202DE9F041FDF7DAFF00F00100B4
:10F3B000A24D80F00108E86F002488BB244FB86B91
:10F3C00080473E6840F0100002E0344656F8086C72
:10F3D00036B3717E01408142F7D12246314638462C
:10F3E000F6F714FDEE67707E000620D4F87A401E12
:10F3F000F872B8F1000F18BFFDF7AEFFEC6FE18AAD
:10F40000207AFFF723FE3881A07D000613D5E07E29
:10F4100007F060FFE86F007FBDE8F04107F020BF14
:10F42000B8F1000F11D0BDE8F041FDF795BFB87AF3
:10F43000401EB872DDE7207EBDE8F041400800F0D4
:10F44000010080F0010008F02CB8BDE8F081000058
:10F45000DC4E002038B5044600F022FD217EDFF8A6
:10F460008C07090704D4217D012908BF027800D048
:10F4700042789D4D21462846F6F7E7FCD0B1696BEE
:10F4800020468847A07D40070DD4FDF769FFE97A43
:10F49000491CE97208B9FDF75FFFE08AC0050FD487
:10F4A000BDE831407EE72046BDE83440DFF89818DB
:10F4B000896F0847F12060702046BDE83240B6E60B
:10F4C00031BD6FE710B5DFF880180A8904460020C7
:10F4D000930704F1340103D48B795B0748BFE8201C
:10F4E00060231A4203D18A79920748BFE820DFF8E7
:10F4F000302B237A92799A420A7938BFE820002A81
:10F5000002BF09780029F52004D010B92046FFF782
:10F5100065FE20B101462046BDE8104074E310BDF1
:10F520000D21017007F054BD00210170417090F869
:10F530003A30DFF8B8166C4A09785B0704D4D37AFE
:10F540008B4204D3F1215FE3937A8B42FAD20146D6
:10F55000107CF6F79CBB0000404F002010B504461D
:10F5600004F1580080B2F6F771FB18B100F15801B0
:10F570000472416010BDDFF8140C0FF271110160CC
:10F5800000220FF2953141600FF2E11181600FF21C
:10F590001921C1600FF21D3101610FF2D9214161C2
:10F5A0000FF2AD2181610FF2BD31C1610FF2014156
:10F5B00001620FF2554141620FF2854181620FF203
:10F5C0001D21C1620FF2E90101630FF2D101416314
:10F5D0000FF2D52181630FF25141C163DFF8B01BF7
:10F5E00001640FF2754141640FF2C5418164DFF897
:10F5F000340D00F15C010A70CA7002220FF2F5515D
:10F6000040F83C1F0161027101210175704700B58E
:10F6100085B002228DF800208DF8010008B14FF668
:10F62000FF71ADF802100B22DFF8FC1C01A8F6F701
:10F63000C5FA00A807F0CCFC05B000BD00410020D1
:10F6400080B50A228DF801008DF800208DF8021097
:10F6500000A807F0BDFC01BD3EB50446251D0120F4
:10F66000688204F12E010220287400A8F6F78BFAB4
:10F670002868AB8E401E286000AA94F83A100170EA
:10F6800083212879401C2871204600F0CBFC05001E
:10F6900004BF2046FFF7DEFE28463EBDDFF8140D0E
:10F6A00090F8350030214143DFF80C0D01F059BAD4
:10F6B00030B5DFF8004D607B0F2893B006D02E20C8
:10F6C0008DF8000000A800F0F3FA09E000F0E6F879
:10F6D000608E1421B0FBF1F105F1340001F041FA24
:10F6E00013B030BD204F0020DC4E002038B504465A
:10F6F000607888BB04F12E05297A02291CBF0329F2
:10F70000E82094F82B100B39132928BFE82024D2C5
:10F7100010BB04F12B01E12001F0A2FA04F1380141
:10F72000502001F09DFA297ADFF8880C022902D1D5
:10F730002988018406E04FF6FE71018416302946BF
:10F74000F6F738FA0B2204F12001DFF8DC0BF6F7AC
:10F7500035FA2046FFF780FF30B160701720207027
:10F760002046BDE83240A3E231BD000010B5DFF80D
:10F77000B44B94F85F0086B0A0B9012084F85F0014
:10F7800008F03CF802A800F0DDFB04F15400019001
:10F7900002AA012000900321DFF8180CC38C052079
:10F7A00000F0F8FC06B010BD10B500F0F3F82078BA
:10F7B000202804BFEB20607000F0A8F844BF01F0DF
:10F7C000FB0180F85F1000F0E1F800D5E6E02A20A8
:10F7D00020702046BDE810406AE2000070B5044683
:10F7E00082B0012008F01CF800F058F805F1440040
:10F7F00001F0D0F900F026F8ADF8000060688678D6
:10F8000046B900A9532001F02BFA04F11C014A204B
:10F8100001F026FA0B2204F10F0105F15400F6F76E
:10F82000CDF9BDF800103046FFF7F1FE95F85F0006
:10F83000800703D560780021FFF702FF002085F8DC
:10F840005F0073BD60680178407801EB002070476D
:10F8500010B50446EB206070DFF8100C90F85F00E4
:10F86000800703D50021EB20FFF7EAFE4FEA0400F2
:10F87000BDE8104038B500F08DF800F00FF805F144
:10F88000440001F087F905F15C0000210170C170AE
:10F890004FF6FF716078BDE83440B8E6DFF8CC5B26
:10F8A00005F1340001F076B910B50446FFF7D0FF3A
:10F8B000C0E0000010B500F06DF8207A002814BFF9
:10F8C0000020EB2000F021F844BF01F0FB0180F89C
:10F8D0005F1000F05BF80BD501F0FD0180F85F10C0
:10F8E00000F08CF8ACBF01210021FFF7A9FE08E071
:10F8F000C80706D52A202070EB206070204600F053
:10F90000D7F92046BDE810400AE66070DFF85C0BCE
:10F9100090F85F104A0770471CB50446DFF84C0B9F
:10F9200090F85F1041F0020180F85F10012007F0AD
:10F9300065FF607868B900F014FB04F110010191D3
:10F94000221D012100910146E389052000F022FCDF
:10F950006070607818B1BDE81C40002170E613BDEE
:10F96000F84D002010B500F015F82078202804BFCD
:10F97000EB206070FFF7CAFF44BF01F0FB0180F885
:10F980005F1000F003F800D508E010BD90F85F109C
:10F990008A0770470446012007F042BF01F0FD01CD
:10F9A00080F85F1000216078BDE8104048E6000054
:10F9B00038B5FFF7EFFFFFF771FF207A002814BF7B
:10F9C0000020EB20607095F85F00410744BF00F015
:10F9D000FB0085F85F0095F85F0081070AD500F00D
:10F9E000FD0085F85F0000F009F8ACBF012100219F
:10F9F000FFF726FE2046BDE8324091E5A07B00F0EF
:10FA0000100001286078704710B5FFF7C3FFEB20A6
:10FA1000FFF77BFF44BF01F0FB0180F85F10FFF7A9
:10FA2000B5FF00D5BAE710BD10B500F010F82046BC
:10FA3000FFF7EAFF2046BDE8104000F019BD0000C6
:10FA400010B500F004F82046BDE81040DCE704469D
:10FA5000DFF8F80B01F09EB810B5044686B004F14B
:10FA60001C01DFF8EC0BF6F77BF8F0B109208DF8FC
:10FA70000000EF208DF80100FFF7E4FEADF8020072
:10FA800004F10F01606800798DF80400207A0828DD
:10FA900006BF6068C07900208DF805000DF10600F2
:10FAA00000F021FC00A807F093FA06B010BD00009A
:10FAB00000F050BDA448DFF8D41681613831C1612F
:10FAC0000FF21C0141630FF27C018163DFF8581CC7
:10FAD000C165018941F0010101817047204F00207B
:10FAE0000101710101010101110101013101010156
:10FAF00001018001100161013B00140063017301E9
:10FB00007201620143010001130106013D0135004C
:10FB100004011201000100010001000104010401BF
:10FB2000330133013C014401320136000001000180
:10FB30006501000135008101000105018201830199
:10FB40000001000003027102300160021102700224
:10FB50000102020202028002100261023A00410028
:10FB6000630273027202620243020002130238004F
:10FB7000000200020402120200020002000200025F
:10FB800004020402370037003C024402000239003C
:10FB90000002000265020002350281020002050235
:10FBA0008202830200020000024601460220CDE0EC
:10FBB00001460620A2E010B5634C206882B010B167
:10FBC000204600F075F90020A072DFF80C0C0068E8
:10FBD00050B102E000A800F06BF900F0B1F8F6F7C0
:10FBE00085F800280090F5D113BD000044C3210022
:10FBF0004C4F00200146DFF8300C007CF6F748B986
:10FC0000EDE5200099EA200000B585B003780FF2F9
:10FC100078029A5C8DF800200B2A03D1417000F025
:10FC200085FB2CE05AB30C2A24D11A2902D10020DA
:10FC300001901FE0019090F839208DF80220C268F1
:10FC40000292028AADF80C20827DD20648BF0022C3
:10FC500005D4DFF86027837E92F83420D21A8DF81D
:10FC60000E20427F8DF80F20827F8DF81020C07FFC
:10FC70008DF811008DF8011000A807F0A9F905B062
:10FC800000BD0000F1EA20000C0E020B040B0A0775
:10FC900008000F002C48817A481E8041C00F704731
:10FCA0002948807A032801D101207047002070473D
:10FCB00010B525498A7A037801EB820203F07F03AD
:10FCC000126B037002EB43035B7801EB8304246B3C
:10FCD00004B18B72037812F81320130901EB83012E
:10FCE000C968002904BFBDE8104000F002BB02F063
:10FCF0000F02BDE8104051F822100847B0B5044685
:10FD00000FF29C00205C82B00D46F5F79FFF0700C4
:10FD10000FD03C700020787029460FF29000225CD2
:10FD2000381DF5F74BFF00F00BF83946F5F7AFFF3C
:10FD3000B3BD8DF800401A2100A8FFF765FFB3BDE1
:10FD4000DFF8E40A007C704780410020F8B50746E0
:10FD50000FF24C003D5C0C462846F5F777FF060095
:10FD600015D03770002070702146A81970600020EF
:10FD700030720FF238003A5C06F12000F5F71EFFF2
:10FD8000FFF7DEFF3146F5F782FF0020F2BD8DF868
:10FD900000701A2100A8FFF737FF1A20F2BD0000FB
:10FDA000000555534D581C202807020000011C185F
:10FDB0001A18181C24030000DFF86C1A0874704726
:10FDC000F8B50C46A006DFF8085CDFF85C6A16D4CC
:10FDD0001AE0FDF7C5FA317B491E317308B9FDF70A
:10FDE000BBFA38788DF800006F603846FFF760FF87
:10FDF0009DF8000015281CBF281D00F059F8301D83
:10FE0000F5F7DFFF0700E4D1200406D40AE06860BC
:10FE1000FFF74EFF281D00F04BF8307CF5F766FF2A
:10FE20000028F4D1E00602D52D2000F035F8E007D7
:10FE300002D5242000F030F8A00702D5252000F0DC
:10FE40002BF8600702D5262000F026F8200702D5FF
:10FE5000282000F021F8600604D5FEF78BFE2C2048
:10FE600000F01AF8200604D5FEF784FE2F2000F0DB
:10FE700013F8286870B1FDF773FA2C680021296027
:10FE800008B9FDF769FA6C602046FFF711FF281DDD
:10FE900000F00EF80020F2BD8DF8000000A807E782
:10FEA000DFF82C1B4A68824204BF0020486070477C
:10FEB00038B5040008BFFDF777FBFDF751FA00F0F5
:10FEC0000100216880F0010561B1DFF8042B53685F
:10FED000A1F108008B4204BF002151600021216084
:10FEE000F4F772FC002D1CBFBDE83140FDF734BAB9
:10FEF00031BDDFF8D00B0FF2F53181600FF2014117
:10FF0000C1600FF201410161DFF8081C41610FF28D
:10FF10001D418161DFF8001CC161DFF8001C016236
:10FF20000FF22571C1630FF2A94101640FF2FD4187
:10FF300041640FF2995181640FF23551C16400217F
:10FF400001707047DFF86C140A8C4FF6FE739A420A
:10FF500004BF1631F5F717BE02220272098C018028
:10FF60007047DFF85004408D4FF6FE71884201DB88
:10FF70000320704702207047464C002042784B789F
:10FF8000C2F38102C3F381039A4211D1022A09D13B
:10FF900042794B799A4202BF80798979884207D1A8
:10FFA00001207047032A03D1491D401DF5F7F4BD18
:10FFB0000020704770B55478067A0B460021C4F3D0
:10FFC0008104B44218D1022C10D15479957900885B
:10FFD00004EB0524A4B2A0420ED1D078127900EB34
:10FFE000022080B2834207D1012105E0032C03D116
:10FFF000511DF5F7D1FD0146084670BD017ADFF8C5
:020000040021D9
:10000000B423022907D1118C0088814201D101203B
:10001000704700207047014602F11600F5F7A0BDB9
:1000200044C321002DE9F84F044699469046002329
:10003000E04800F114050A0601F07F02E18A98F811
:1000400008704CBF4FF6FF766E8A5FEA816C46BF40
:100050004FF0080C84F818C023765FEA417C4CBF4F
:100060004FF0800C4FF0100C84F819C05FEAC16E9D
:1000700000F1340C4EBFA3769CF800E084F81AE03F
:100080005FEAC17E48BF20230907616894F814E045
:1000900048BF43F01003491EBEF1020F09DBBEF159
:1000A0000B0F1CBFAEF1010E01F801E943F0030391
:1000B00001E04EEA03039CF815C0BCF1010F06D124
:1000C00094F808C0BCF1670FA8BF43F4805343EA1B
:1000D0008233022A1FFA83FA07D1E88A000A01F85C
:1000E0000109E88A01F801090CE0032A09D1A1F10C
:1000F000070B00F13C015846F5F75CFDABF101013F
:1001000000E052B127B14E4508BF4AF0400A04D082
:10011000301201F8010901F801694AEA8726022F25
:10012000B6B209D1B8F80000000A01F80109B8F820
:10013000000001F8010909E0032F06D1CF1F414655
:100140003846F5F737FD791E00E02FB14FEA192048
:1001500001F8010901F80199481E227D1AB92A788F
:10016000531C2B7002E0AA7B531CAB730A70310A3C
:10017000017000F8016D217A626860605118091AF7
:10018000217200206070BDE8F28F0000484E002010
:10019000D30821002DE9F047099F8A46054690467D
:1001A00099463946FEF72CFF1A2604001AD0089803
:1001B000E08225750B22394604F12000F5F7FEFC9C
:1001C0004B46424651462046FFF72CFF060009D118
:1001D000ED1F012D03D8607E40F0200060762046A0
:1001E000FFF738F93046BDE8F08770B5044604F1F2
:1001F000380684B07178012001B10520251D04F175
:100200002C0168820420287400A8F5F7BCFC28683B
:100210006B8E401E286000AA317801700321287976
:10022000401C28712046FFF7FDFE050004BF204654
:10023000FFF710F9284604B070BDF8B504460E4625
:100240000520207006F13A07351DF878A070606827
:10025000E96A416106F11C01F5F795FC6068698E59
:10026000418139784174002160680176C17306F1DB
:100270000F016068193000F036F86168A87A887359
:100280002868616810F8012B8A8110F8013B42EA66
:1002900003228A8110F8012BD30918BF01230B74A4
:1002A00002F007010A0018BF012201EB41015118B9
:1002B000C9B2081810F8011B2172E060217A01F020
:1002C0000702490801F0380101EB4201081860619A
:1002D00029792A688B18834227BF081A1018002032
:1002E00020722074F1BD0B22F5F768BC704718210D
:1002F0008AE401780B29B8BFFFF7F9BF7047000007
:10030000192181E438B5DFF8C8580446286820B1BF
:10031000FFF7F6FF2846FFF7CBFD2046FFF7C0FDAD
:100320002C6031BDF04C0020444D002030B5044617
:1003300089B020781F4D032808D0052808D0182838
:1003400004D01E2818BF1F2802D00FE0002000E0B4
:1003500001208DF8180004F12B0103A8F5F72AFC01
:1003600003208DF8140000F029F812E002208DF827
:10037000180004F11C0103A8F5F71CFC03208DF8FC
:10038000140004F10F0100F019F80DF11900FFF746
:10039000AAFF0B208DF8000004F10F0160788DF8A2
:1003A00001000DF11900FFF79EFF00A806F010FEF6
:1003B00009B030BD244C0020344D0020688DADF8CC
:1003C000020002208DF80A00E88CADF81600704794
:1003D00038B5044665789DB9DFF8F817E08EC98C0A
:1003E000884218BFE82504F12C00FFF707FE80B112
:1003F000002084F839001DB92046FFF7F6FE0546B7
:1004000035B16570192020702046BDE832404FE4B8
:1004100031BDDFF8C41794F8390091F8201080F04E
:1004200001000843E7D1E825EBE7000010B586B0EE
:1004300004218DF8041041788DF80510C18EADF8B7
:10044000101000F12C010DF10600F5F79CFB0DF1E9
:100450000600FFF7D3FD20B100F02FF8DFF8740796
:10046000048401A806F0B4FD06B010BDF04C0020D5
:1004700010B588B0044603208DF8040004F11C0177
:100480000DF10600F5F796FB606800788DF80E0018
:1004900004F10F010DF10F00FFF725FF04F11C001F
:1004A000FFF7ACFD20B100F008F8DFF8280704845E
:1004B00001A806F08DFD08B010BD4FF6FF74ADF831
:1004C000004000A9532000F0CBBB000070B50546EA
:1004D000DFF8006768684078B41C400692B009D520
:1004E000A08CE98E884205D1DFF8D8050078D0B11C
:1004F00000F030F808A80390294602A8FFF79DFEF7
:100500002B208DF8080002A8FFF7D2FB207810B14D
:100510009DF8180028B105208DF8080002A806F003
:1005200057FD12B070BD96F830000028E2D005F1FA
:100530001C00FFF763FD0028DCD105F10F000190DE
:100540000120009006F11602A38C03210620FFF77C
:1005500021FEE6E700B585B009208DF80000EE2009
:100560008DF8010000A806F033FD05B000BDF8B518
:100570000546FCF7F5FE00F03BF80DB100F034FB4A
:10058000DFF8505606F057FF05F12607DFF834650F
:10059000387D06F09FFEF87C06F062FE307806F0AB
:1005A00049FE388806F04FFEB88806F04EFE05F189
:1005B0003C0006F050FE0027DFF8140600EB870031
:1005C000C06D010018BF80477F1C072FF4DB00F0CF
:1005D000F3F9FFF7F0FA00203071FEF7EDFCFFF7BA
:1005E00088FC00F00AF80CB1FCF7B6FE0020F2BD62
:1005F00000F0010080F00104704705F1290152204C
:1006000000F02EBBDFF8BC040FF26501416200F17F
:1006100008020FF2493181620FF27931C1620FF2A3
:100620000D1101630FF2052141630FF2B1118163D6
:10063000DFF89C15CA6000F13C02243048610A6171
:100640000020088106F0E8BE70470000244D00201D
:100650003A4C0020072202700A7A82708A7AC270AD
:100660004A68426000220272C969C1607047000096
:1006700070B5DFF8685504466E1C00203070207A93
:100680000628A4BFE8203070607A0F2804DB207AA7
:10069000032804D0E8203070207A032805D1CC4804
:1006A000007AC0075CBFE820307021462846FFF77B
:1006B000D1FF616805F11800890A81600B22617A17
:1006C0000173E17A4173217B8173617BC173A17BEB
:1006D00001740A214174DFF8FC1491F83A10817416
:1006E000DFF8FC1401600421017105F12B0004F115
:1006F0000F01F5F763FA3078002804BF607800280E
:100700000BD1707808B1EA21317006F029FE26205D
:100710002070042007F05DF801E0292020702046B9
:10072000BDE87040FFF7C4BA77F52000F0B5DFF8F8
:10073000AC64751C0446687885B006F10C0760B996
:10074000787F0A2809D006F04DFE39687A7F511863
:1007500001F80B0CE879401CE8717869797F400852
:100760007861491CC007797702D4C9B21E29F4DB2D
:10077000C9B21E292CD006F12901E12000F070FA3F
:1007800002208DF810004FF6FF736878ADF808303E
:10079000002818BF022803D1204600F01FF819E0F6
:1007A00006F12B020128019207BF082080210720B3
:1007B00083210022009202AAFFF7ECFCDB2818BF7D
:1007C000E52804D0F3281CBFDF28E82802D12870D0
:1007D00000F0BEF805B0F0BDA852002038B5DFF833
:1007E000FC43626804F124000121437901FA03F318
:1007F0009A4362603023A278032A06D1DFF8D4033B
:1008000090F8350003FB00F508E0007801FA00F0ED
:10081000401C03FB00F50AB906F0E2FD294604F18D
:100820001000BDE834409CE1DC4E00202DE9F04191
:10083000DFF8A8737D1C8046687802281CBF012859
:10084000052890B03AD100202870414600A80A90AF
:100850000C3709A8FFF7F1FCEE79787E86421BD2AF
:100860003C680BE06089BDF80A10884204D100A9F9
:100870002046F5F775F978B9761E2434F6B2002EC5
:10088000F0D13868EB79242200A902FB0300F5F7C8
:1008900095F9E879401CE871DFF83803807820B1D9
:1008A0009DF8340008B9787E10B909A806F090FBCD
:1008B000787E58B1E979814208D101E0E8202870BA
:1008C000292088F800004046FFF7F2F910B0BDE893
:1008D000F08170B5044604F1240082B00178DFF89D
:1008E000FC52032904BF807A03282CD104F11C0197
:1008F0004A2000F0B5F960680178427801EB0221E6
:10090000ADF80010861C00A9502000F0A9F930783D
:10091000717800EB0120ADF8000000A94B2000F039
:100920009FF9B61C3146E12000F09AF9701C01785D
:10093000407801EB0020ADF8000000A9532000F042
:100940008FF9002000E0E820687000F001F873BD26
:10095000292020702046FFF7ABB9000010B5DFF862
:100960007C4204F1100000F015F906F018FD042097
:1009700006F056FFA078032804BF6078002804D052
:1009800004F12A01E12000F06BF92046BDE8104097
:1009900006F01EBB00B585B0014600A8FFF75AFE61
:1009A000FC208DF8010000A806F012FB05B000BD88
:1009B00001460720FFF7A2B98A4800210160416083
:1009C0004FF47F018160C160002101617047000028
:1009D0008041002010B5834C00202061206868B160
:1009E0004068A168884209DA06F0F3FF21684A6886
:1009F0008242B8BF02464A6020682061606838B110
:100A0000216919B1426849688A4203DA206101E02C
:100A1000206940B12069A16840688842BCBFBDE838
:100A2000104006F0FABFBDE8104007F01EB8F8B558
:100A3000FCF796FC00F001006A4D80F00104286983
:100A400018B3A9684068814203DAFCF7ADFD286954
:100A5000D8B106F0BEFF29694968884215D300293C
:100A600048BFFCF7A1FD2E69304600F093F8377BB4
:100A7000B6680CB1FCF770FC3846B047FCF770FC68
:100A800000F0010080F00104E1E7002C1CBFBDE88C
:100A9000F140FCF761BCF1BD38B504460D460EE0EF
:100AA00050496868096920188D4202D1002848BF62
:100AB00000206860002848BFFCF776FD2D68002DF7
:100AC000EED131BDF84D002070B5FCF749FCFFF7C1
:100AD0008FFD444DA8686E6829684042FFF7DCFF2F
:100AE00006E0A86871688142A4BF081A7060366881
:100AF000002EF6D1E868A96881421CBFA86006F004
:100B000051FFFFF767FF002C1CBFBDE87040FCF7EA
:100B100023BC70BDC5F42000C3F4200021F52000E3
:100B200070B504460D46FCF71BFC00F0010080F098
:100B300001062968284601E00846096819B162687B
:100B40004B689A42F8DA046021602868A04208BF26
:100B5000FFF740FF002E1CBFBDE87040FCF7FCBB58
:100B600070BD38B504460D4606F033FF401960608D
:100B70002046BDE834401B49D2E70A6801E011462F
:100B80001A462AB113688242F9D10B6001207047DE
:100B90000020704770B50446FCF7E2FB00F001004E
:100BA00080F001050F4E31462046FFF7E6FF18B9E9
:100BB000311D2046FFF7E1FF3069844208BFFFF78F
:100BC00009FF002D1CBFBDE87040FCF7C5BB70BD20
:100BD00080410020244C002000410020D44F002000
:100BE000F5FB20006C43002010B55A4C0FF2681141
:100BF00020466C2206F05EFF06F01AFB84F8220005
:100C000006F016FB207510BDA0F140021E2A38BF69
:100C1000403804D3A0F1E0010F2902D23E30C0B227
:100C200070472D20704770B50C46FFF7EDFF054665
:100C30002D2D01D1F42070BDFCF792FB06460FF27A
:100C4000841000EB85014A7810F8250041494118CD
:100C50002046F4F7B3FF0EB9FCF77EFB002070BD11
:100C60002DE9F04704460D463A4E452C08BFB560C5
:100C70006CD0FFF7C9FF81462D2808BFF42066D04D
:100C80000FF2401808EB8907B878002804BFF978FC
:100C9000002915D0F978884208BFFB2057D0582C7E
:100CA00005D128888F3846F22241884206D228781A
:100CB000B978884224BFF978814201D2E82046E021
:100CC000FCF74EFB824618F829007A7829468019ED
:100CD000F4F774FFBAF1000F08BFFCF73DFB502C8E
:100CE00006F12A0010D0522C16D0532C10D0E02C34
:100CF00026D0E12C1BD0E22C1DD0E52C24D0E62CF4
:100D000004BF2978C17721E0F08C06F09CFA1DE041
:100D1000708D06F09AFA19E096F8290018B10220B1
:100D200006F057FD12E0022006F07AFD0EE0007C8E
:100D300006F0D0FA0AE006F13C0006F08CFA05E075
:100D4000C07B06F08DFA01E0297881770020BDE8AC
:100D5000F0870000244C002036000100060000004F
:100D600000000000000F0000000000000000000074
:100D70000000000000000300FFFF00000403FFFF6D
:100D80000000FFFF0F00F4010005C4040320000170
:100D900000000B0000000000000000000300010F35
:100DA0000000000000000000000000000000000043
:100DB0000000000000000000000000000000000033
:100DC00000000000000136360101000102010001AF
:100DD0000301000104010606080400000C010034B0
:100DE0000D01000F10040101140100FF160800009E
:100DF00020020000220100FF23010001240100FE67
:100E00002501000826020000280100012901000137
:100E10002A0200002C01000F2E0200003001000108
:100E200031010008320200FF3401000735010240A1
:100E3000360100003701000138010001390100FFCF
:100E40003A010B1D3C080000460100084701000F55
:100E500048010001490100FF4C040000500400005B
:100E600054040000580400005C040000600400000A
:100E70006404000068040000A848002101600168C3
:100E800041F009010160416A41F02001416281683D
:100E900041F001018160816841F002018160816857
:100EA00041F00401816001209D4908707047FEB542
:100EB00005000E4604D0287A022818BF032801D066
:100EC000E820FEBD284600F0B5F8FF2801D01E201E
:100ED000FEBD2C7A00F01CF9074600F031F9022C17
:100EE00040EA070111D1002404EBD47149104900F4
:100EF00020FA01F2D10703D427FA04F1C9070ED56D
:100F0000641CE4B2182CEFDB09E00024032062002B
:100F10009040014203D0641CE4B20C2CF6DB182C88
:100F200016D1287A022818D0297A7E48022916D1AB
:100F300002A9320A4A708DF8086000EB04102A8872
:100F40008A702A88120ACA70042206F0DFFD0CE0BB
:100F50000C2C04BF287A0328E6D11A20FEBD0822F3
:100F6000294600EB441006F0D1FD287A012702281B
:100F700007D16D4E00F022F800F0EFF807FA04F107
:100F80000CE06A4E00F01AF800F0E7F8610007FA8A
:100F900001F108436100491C07FA01F1014301A86E
:100FA000F5F709F8032201A9304606F0AFFD2A7AC9
:100FB0000121204600F07CF80020FEBD032200A99C
:100FC000304606F0ADBD10B5040009D0207A0228E5
:100FD00018BF032804D1204600F02CF8FF2801D1C7
:100FE000E82010BD227A002100F062F8002010BD38
:100FF00001284F4903D10A6842F0040203E00A685D
:10100000002022F004020A604A49087070474948EB
:10101000007808B1FE207047FF20704745480078EF
:1010200008B101207047444800680006800F00F0B6
:10103000010070472DE9FE430446207A022810D1B2
:101040008DF8001000A8090A4170042521888170DC
:1010500001262088000A8DF8030000AC00F058F843
:1010600003E00825022600F06BF88046002728FAE6
:1010700007F0C00715D597FBF6F95FFA89F905FB6C
:1010800009F0284B2A4601A903EB800006F048FD31
:101090002A4601A92046F4F79BFD012801D14846C4
:1010A00004E0F719FFB2182FE1DBFF20BDE8FE8353
:1010B000F8B50123440003FA04F403FA00F5234EC3
:1010C0001E4F59B1022A04D100F022F845EA00016E
:1010D0000AE000F035F844EA000110E0022A0AD1E3
:1010E00000F016F820EA050100A8F4F764FF0322D7
:1010F00000A9384609E000F023F820EA040100A81E
:10110000F4F759FF032200A9304606F0FFFCF1BDB9
:1011100080B5032200A909481AE0000000860840B3
:1011200002530020008408409C85084090850840B8
:1011300028860840035300208C8508400C86084010
:1011400080B5032200A9014802E000BF18860840CC
:1011500006F0E6FC00F001F802BD032100A8F4F758
:1011600055BD02B5582301461B68042200A89847C4
:1011700001BD38B50446FCF7F3F80546204606F0F5
:10118000FBFC002D04BFBDE83140FCF7E5B831BDE4
:101190002DE9F04F5FEA010983B0834615466CD014
:1011A00000264FEA9B00002701968400B2461BF000
:1011B00003001FBF4E464FEA9B0006EB0B01B0EB4E
:1011C000910F04D00BF00300C0F10406B6B2A9EBF6
:1011D0000600012805DB4FF6FC710140019100F08B
:1011E000030AFCF7BDF800F0010080F0010826B307
:1011F000206800900BF0030200A9785D5118785424
:10120000781C87B2B742F7DB12E0785D8DF80000FA
:10121000781C80B2415D8DF80110401C80B2415DA8
:101220008DF80210401C80B2471C415D8DF8031000
:1012300020460099FFF795FF241D0199BFB2891937
:101240008F42E2DBBAF1000F10D02168009100203C
:1012500000AA04E0595D80B25F1C8154401CBBB2FF
:101260004B45F7D300992046FFF77BFFB8F1000FFD
:101270001CBFBDE8F74FFCF76FB8BDE8F78F000063
:101280000020704705490F228A600A681206FCD5C3
:10129000096988428041C00F7047000000700D400E
:1012A000F0B587B004460F4615461E460C220021B5
:1012B00004A8F4F79BFC00208DF81900731C387A01
:1012C0008DF818009BB23888ADF81000DFF8880D53
:1012D0004168227801F8012C1E22007802900392C6
:1012E000481E009001942A46DFF8701D04A802F001
:1012F000A4FC07B0F0BDF8B5DFF85C5D069C6E6835
:101300001F4603E014F801CB06F801CBBC46ACF154
:1013100001075FFA8CFCBCF1000FF3D1079C04B10C
:1013200040242C70FFF7BCFF00212970F2BD10B5DE
:1013300000F0AFF80223014604F10800BDE81040B8
:10134000AEE72DE9F041DFF8107D84B004460D468C
:101350007E68DFF8700D90462146F4F71DFC28B931
:101360000F208DF808004FF6FD7005E002208DF883
:101370000800DFF8540D0088ADF800002146304623
:10138000F4F718FC057000F8018F0A23002200A969
:1013900007F10800FFF784FF04B0BDE8F0813EB517
:1013A000DFF8B44C6368ADF8000002258DF80850F2
:1013B0001870000A03F8010F03F8011F03F8012F4A
:1013C0000423012200A904F10800C3E02DE9F0473D
:1013D000099DDFF8848CD8F804909E4605EB0E0436
:1013E0006400A41DE4B24F2CA8BF102043DA067A93
:1013F0000F2E18BF022E4FF6FD774FF6FF7A03D15E
:101400000688564508BF0780514508BF394609F888
:10141000011B090A09F8011B09F8012B110A09F837
:10142000011B09F8013B6BB1089A002132F8113019
:1014300009F8013B32F811301B0A491C714509F8C3
:10144000013BF3DB09F8015B6DB10A9A002132F828
:10145000113009F8013B32F811301B0A491CA9422E
:1014600009F8013BF3DB0146234608F10800BDE81B
:10147000F047062214E7BDE8F08710B500F009F840
:101480009A70014604F10800BDE8104003230422CD
:1014900006E7DFF8C44B63681970090A5970704792
:1014A00070B5DFF8B45B0446134668681E7800F830
:1014B000011B102EA8BF102600F050FD00F8016B94
:1014C0003246591CF4F77AFBC6F110022021F4F7DA
:1014D0008DFB214605F10800BDE87040132314225E
:1014E000DEE610B584B0DFF8704B62680F238DF82C
:1014F00008304FF6FD73ADF800301070000A02F8A6
:10150000010F002914BF4020002020700223152263
:1015100000A904F10800FFF7C3FE0021217004B008
:1015200010BD3EB514460F228DF808204FF6FD720F
:10153000ADF80020DFF8205B6A681070000A507078
:10154000901CF4F737FB686884720B23132200A900
:1015500005F10800FFF7A4FE3EBD2DE9F84F8046D7
:101560000D4691460C24DFF8F00A406804FB09F1AF
:10157000491CCEB24F2E9A46A8BF10201DDA297AF8
:101580000F2904BF4FF6FC71298000F8019B00274A
:1015900009E004FB07AB5946F4F70CFBDBF8081035
:1015A000F4F7FFFC7F1C4F45F3DB0A9A33462946CC
:1015B000404601B0BDE8F04F72E6BDE8F28F2DE97C
:1015C000F04F044685B0E089A269DFF8FCAA002844
:1015D0000CBF082102214FF6FE7B8F5CD8464FF0EE
:1015E0000009C0B991464946DFF8D80AF4F7D4FAA1
:1015F00010B1BAF8008034E000F0BFF818BF01283D
:1016000034D14846F3F72DFC80B3017901292DD15F
:10161000B0F8008023E01078517800EB0121BAF88F
:1016200000001FFA81F8804508BFDFF8989A18D0AB
:1016300000F0A3F818BF012818D14046F3F70EFCBC
:10164000A0B10179012911D18DF804904088ADF83D
:10165000100001A8F5F7ABFD08B10DF1080907B1BD
:10166000FF27D84518BFB9F1000F03D1207B002810
:1016700040F08080DFF8E05968680B26D84518BF35
:10168000B9F1000F07D0002F1ABF012F4FF0800BC8
:101690004FF0000B08E0E18900294FF0810B0CBFEF
:1016A000BAF80080DFF81C9A00F801BB4946F4F74D
:1016B00081FA81464FEA182009F8018B09F8010BDD
:1016C00000F05BF818BF012847D1012F02BFBAF81C
:1016D00000008045BBF1000F3FD100208DF80000D5
:1016E00000A8F3F755FCA8B3E189A2699DF8003082
:1016F00000290CBF0821022189184A789A4200EB80
:10170000420108DA9B1A8DF800309DF800305B002A
:1017100003F10B0602E000238DF80030B61C9DF8A3
:10172000003009F8013B09F8012B0CE00A8809F8A0
:10173000012B31F8022B120A09F8012B9DF8002029
:10174000521E8DF800209DF80020002AEED1F3F7FC
:101750003BF802E009F8010B0C2610202870F3B2C8
:10176000E08940F40042A11C04F11100FFF798FD4C
:101770000020287005B0BDE8F08FDFF8E809007898
:101780000028704710B500F04DF8117801F01F01E6
:1017900003F8011F517803F8011F917803F8011F26
:1017A000D17803F8011F117903F8011F517903F86B
:1017B000011F917903F8011FD17903F8011F1189E5
:1017C00003F8011F1189090A03F8011F917A03F830
:1017D000011FD17A03F8011F117B03F8011F1023A9
:1017E000BDE81040811C48F2020219E010B500F07B
:1017F00019F811680C0901F00F0141EA041103F80E
:10180000011F11680A0B090A01F00F0141EA0211D8
:1018100003F8011F0523BDE81040811C48F20302B4
:1018200011303DE5DFF830385B6800241C7003F8A8
:10183000011F090A03F8011F704738B5DFF818388F
:101840005C6851B94AB1D379157BEB185B000C3356
:10185000DBB24F2B02DB102032BD042304F8011B46
:10186000DFF804190D8804F8015B0988090A052BC3
:1018700004F8011B3CDB191F04F8011B117804F864
:10188000011B518804F8011B5188090A04F8011B47
:10189000918804F8011B9188090A04F8011B9179C9
:1018A00001F00F0104F8011BD17904F8011BD17973
:1018B00061B1002107E0956835F8115004F8015B2B
:1018C000956800F01EF8D579A942F4DB117B04F885
:1018D000011B117B71B10021157BA9420ADA156940
:1018E00035F8115004F8015B156900F00AF8F3E7C8
:1018F0000021217001B0BDE83040811C48F2040293
:101900008EE735F811502D0A491C04F8015BC9B265
:1019100070472DE9F341DFF84067044670680427FB
:1019200048F206018C4200F8013B9046089900F805
:10193000011B0CBF1025002500F010FB099A00F8D0
:10194000012B1AB10A99171DF4F738F93570FBB25B
:101950002246414601A8FFF7A3FC00213170BDE8F3
:10196000F68131B50C46DFF8F006197840680D1D98
:10197000002100F8011B00F8012B110A00F8011BDF
:10198000197800F8011B591C1A78F4F717F9EBB213
:1019900048F21102214600F07FFA32BD11B5DFF89E
:1019A000B846636881B01A7048F21502049803F8CB
:1019B000010F000A03F8010F03231020207001A873
:1019C000FFF76EFC0021217016BD01B5DFF8880617
:1019D0004068027043701A0A827004230022C270A9
:1019E00000A8029AFFF75CFC02BD2DE9F84F0C9CA1
:1019F0000A9DDFF864A6DAF804B081466019400059
:101A00000F308DF800000F469DF800004F289046DB
:101A10001E46A8BF102035DAEEF7FCFE874218BF3D
:101A200002202FD10BF8017B380A0BF8010BEEF7DF
:101A3000E8FE01465846F4F7BDF88346300A0BF835
:101A4000018B0BF8016B0BF8010B0BF8015B00210C
:101A50000B9801E000F018F8A942FBDB0BF8014BF2
:101A600000210D9801E000F00FF8A142FBDB9DF88A
:101A7000003049460AF1080001B0BDE8F04F2022CD
:101A8000FFF70EBCBDE8F28F30F811200BF8012BE8
:101A900030F81120120A0BF8012B491C70472DE970
:101AA000F843099DDFF8B065884611462A7A044656
:101AB0000C277068032A994608BF152702D0012A0F
:101AC00008BF0E27F4F776F800F8019B00F043FA00
:101AD000297A00F8011B297A032905D12946F4F750
:101AE00069F80A99017007E0012905D12988017078
:101AF0002988090A00F8011F102030703B46224651
:101B0000414606F10800FFF7CBFB00213170BDE82C
:101B1000F283F8B5DFF840750446786815461E462E
:101B2000F4F73FFA057000F8016F214607F108004D
:101B300001B0BDE8F04006233022FFF7B1BB70B51D
:101B400000F085F8F4F736F870680572214606F162
:101B50000800BDE8704009233522FFF7A1BB3EB560
:101B6000DFF8F45404006868017042701ED0207AD7
:101B7000022818BF0F2819D120884FF6FF7188421C
:101B80001FBF4FF6FC7188424FF6FD7188420DD1A0
:101B900002208DF80800EEF73DFEADF800000223AC
:101BA000362200A905F10800FFF77AFB022336224E
:101BB000214605F10800FFF773FB3EBDF8B5DFF8DD
:101BC00098540446686816461F46F3F7F3FF6868A2
:101BD00000210172012E04BF40210172012F03D1A7
:101BE000017A41F080010172214605F1080001B03F
:101BF000BDE8F04009233422FFF752BB2DE9F04144
