:020000040020DA
:10000000487100205D9921008D992100919921006E
:1000100095992100959921009599210000000000F3
:100020000000000000000000000000009599210081
:1000300095992100000000009599210089962100E2
:100040009599210095992100959921009599210074
:10005000000000009599210043A4200095992100FB
:100060009599210000000000000000000000000041
:100070000000000000000000959921000000000031
:1000800000000000000000009599210095992100D2
:100090009599210095992100959921009599210024
:1000A0009599210095992100E94720004F482000AB
:1000B0009599210095992100959921009599210004
:1000C0005D9A21009547200095992100959921007E
:1000D00095992100000000000000000000000000D1
:1000E0000000000000000000000000000000000010
:1000F0009599210000000000959921000000000062
:1001000010B592480FF2BD61D94C41650FF2FD71F7
:1001100081650FF27D51E1620FF2295121630FF6E3
:10012000310161630FF66501A1630FF60101E1631F
:100130000FF2B93121640FF2B95141640FF20D6130
:1001400081640FF27D51C1640FF6B501016520692C
:1001500008B102F067FBDFF8480C0B49A0600B22E6
:10016000082020730020206181F8200020750021E4
:1001700004F1150002F09EFB04F12000BDE81040E0
:100180000B22002102F096BB004000203EB5044641
:10019000201D05214182032101740168491E01606F
:1001A0004A1E026094F836200A7094F8361011B195
:1001B0004FF6FF71018601684A1E0260028E120A24
:1001C0000A700268018E11700179C91C017100A8C2
:1001D00004F12B0102F090FD03208DF8080000AA25
:1001E000DFF8C00BC38C0321204601F0A5FC0500FD
:1001F00004BF204600F0B8FE28463EBD38B5044690
:100200000D466068411E100A087001F8012C049820
:1002100001F8020CDFF88C0B428D120A01F8032C56
:10022000408D01F8040C180A01F8050C01F8063D90
:10023000207A626861601018401A2072DFF8741C1E
:10024000287A03280CBF01200020E0820B2209201D
:10025000207504F1200002F015FB4FF6FF732A46CB
:100260000321204601F068FC050004BF204600F091
:100270007BFE284632BDDFF8EC1C897A0829A8BF2E
:10028000072101700078C006000E70472DE9F04785
:1002900005460F46924602F047FDDFF8C88CD8F8B5
:1002A000004000F00100002680F0010913E0607EAC
:1002B000400613D560684178C1F3810103290DD14F
:1002C000ED1F411D284602F017FD103654F8084C6A
:1002D0006D1EF6B27F1EFFB227B101E054F8084C44
:1002E000002CE4D1B9F1000F18BF02F019FD02F0A3
:1002F0001BFD00F00100D8F8001080F001000BE0B9
:10030000927905F80129761C4A68527905F8012985
:10031000F6B27F1E51F8081C89B14A685378C3F3BE
:100320008103022BF6D14B7E5B06E9D40A7E92064E
:10033000F0D5FFB20122002F8AF80020EAD108B1DF
:1003400002F0EEFC2E70681EBDE8F08780400020B1
:100350002DE9F04385B0044600208DF80000884662
:1003600091460DF10100FFF786FFDFF8385A297B2F
:10037000401800F13D06F6B2304602F0CBFA070015
:1003800048D0F0197860002038722A7B7868A96814
:10039000861A304602F076FA9DF8011000AA701E07
:1003A000FFF774FF0021964A017012786978920174
:1003B00042EAC11141EA091141F00F0100F8011CA4
:1003C00044EA081100F8021D7A68397A78605118F9
:1003D000091A00203972F88238758DF80C000B224A
:1003E000DFF8881C07F1200002F04CFA9DF80000AD
:1003F00018B1F88A40F00800F88201F03CFB014691
:10040000002301AA384601F097FB0028384602D0A5
:1004100002F092FA002005B0BDE8F083F8B504467A
:1004200002F082FC00F0010080F00105DFF8340BDF
:10043000076800260EE0787E000609D561687868B6
:1004400001F026FB20B1787E00F0BF0078763E46B2
:1004500057F8087C002FEED11EB1707E40F04000AE
:100460007076002D1CBFBDE8F14002F059BCF1BD13
:10047000604D00202DE9F8438046894602F054FC87
:1004800000F0010080F00107DFF8D80A06680024B8
:1004900000250CE0354605F11800417841F01001C7
:1004A0004170017841F08001017056F8086C9EB1EE
:1004B000707E0006F9D572684946404601F004FB9B
:1004C0000028F2D0002DE5D0287D012804D16868ED
:1004D000017841F0100101700FB102F021FC15B15B
:1004E00000F0EAFC01242046BDE8F2832DE9F0414A
:1004F00082B00024009402F017FC00F04BF880F06A
:1005000001050EE057F8088C22463946304602F0C5
:10051000E1FA394600A802F098FAB07A401E474640
:10052000B07267B1787E000605D5788A401E788261
:1005300080B20028E6D03C4657F8087CF1E70DB1C0
:1005400002F0EEFBB07AB0B100F02AF81EBFDFF87F
:10055000000C90F8200000280DD1DFF89C4C2046BC
:1005600002F0A2F83021204602F085F803E0607026
:10057000204600F0E6FB00A802F087FA040007D04E
:10058000FFF74CFF607E40074CBFE920F020EEE70C
:10059000BDE8F381DFF8646C376800F00100704754
:1005A000DFF80008407B0F287047000070B5054653
:1005B000FFF734FFDFF8AC49DFF8E867A06B80474E
:1005C0000128F08D08BF401C6882A07A002804BF73
:1005D000707B0F2808D1DFF8205C284602F064F811
:1005E0003021284602F047F802F09EFBA17A491C10
:1005F000A172002804BFBDE8704002F091BB70BD3D
:10060000384C002038B50446DFF8F05B607E00F01F
:10061000EF0060762046FFF701FF2146284602F0F2
:100620004BFA02F081FBA97A491CA97208B902F0C1
:1006300077FBFFF7B5FF04D1BDE83240082001F099
:1006400063B831BD10B50446DFF85807407886B06E
:10065000B8B101208DF8000004F11C0100F014F87D
:100660000DF1020002F048FB606800788DF80A0086
:1006700004F10F010DF10B0001F0BFFB00A802F027
:100680002BFC06B010BD000000208DF80100704763
:1006900010B50446FFF77AFDDC2818BFDD2808D026
:1006A000E42818BFF32804D0DE281CBFDF28DB288D
:1006B00005D101462046BDE8104001F02FB810BD1D
:1006C00010B586B0044606208DF8000004F11C0128
:1006D0000DF1020002F010FB04F10F010DF10A0010
:1006E00001F08BFB00A802F0F7FB06B010BD000084
:1006F00030B5044604F1340585B0A87820B304F180
:100700002B0101A802F0F8FA03208DF80C007E48B6
:10071000017D0388009101A92A882046FFF76EFD1C
:10072000DC2818BFDD280BD0E42818BFF32807D039
:10073000DE2818BFDF2803D0E82818BFDB2803D144
:100740000146204600F0EAFF05B030BD2DE9F84330
:10075000044602F0E9FADFF8A46A376800F0010005
:100760004FF00008E72580F0010902E0B84657F88D
:10077000087C97B1787E0006F8D5387D012802BF45
:1007800097F8390021798842F0D1424639463046FF
:1007900002F0A0F9B07A401EB072B9F1000F18BF94
:1007A00002F0BEFA3FB13846FFF738FEF021384676
:1007B00000F0B4FF002529462046BDE8F44300F0D0
:1007C000ADBF000030B5044685B06078F32818BF8F
:1007D000DF281ED0E82818BFDB281AD0204600F0FA
:1007E00029F8050014D1207C90B104F111010920F1
:1007F00000F090F960B100F011F8FFF7FFFC05463A
:10080000F32D18BFDF2D03D0E82D18BFDB2D03D14A
:100810006570204600F07AF805B030BD02218DF8F1
:100820000C104FF6FF72ADF80420A17A009101A9D7
:100830002389704738B504460025A07A0B38132861
:10084000207B28BFE8251028A8BFE82501DA0F285B
:1008500004D07D49097A090758BFE825617B8842A1
:1008600002D20F2918BFE825DFF83805408D4FF672
:10087000FF71884208BFEC25242001F06DFFDFF8EE
:100880007819086120B12422211D01F0FBFF00E04E
:100890001A25284632BD70B50446DFF80805217ACE
:1008A000DFF8D06BC51CA972617A80F82C10E07A51
:1008B0002870A07A307002F041FC307838B1211DE8
:1008C000502002F069FDA11DE12002F065FDDFF876
:1008D0008018012081F8200004F10D01A87ADFF8CA
:1008E000105D0F2814BF0120002028750B2205F190
:1008F000150001F0C7FF04F1180105F12000BDE863
:1009000070400B2201F0BEBF8A4A002010B5044699
:10091000607820B9DFF8D80C0069FFF7BCFF2C2005
:1009200020702046BDE8104000F04CBF10B5DFF845
:10093000C01C0446086918B100220A6101F072FF68
:10094000082020702046BDE8104002F0C5BA000023
:10095000DFF8A418DFF8F807097D90F8200081F08F
:100960000101084200D1704780B5DFF8380490F8E3
:100970002C10C31C1A78987AFFF7EAFC00281CBFD9
:10098000BDE8024000F0F0BA01BD000030B50546F8
:100990000124A87B400789B01ED5E98E05F11C0013
:1009A000FFF768FDC0B9DFF8580D407908B10024A1
:1009B00012E00B2205F10F0106A801F063FF01F020
:1009C0005AF806A9019105F11C0230210091014657
:1009D000EB8E012001F068F910208DF8080005F178
:1009E0001C010DF10A0002F070F9E88EADF8140058
:1009F0008DF8164002A802F06FFA09B030BD000071
:100A0000DFF8700A0078002818BF01F02DBB70478E
:100A10000D4800F154010162DFF8E81C416200F169
:100A2000440181620FF224010164DFF8E81C0166D1
:100A3000DFF8E41C8167DFF8601DC167018941F0C0
:100A4000020101817047000080400020030471040E
:100A5000020460041104700402040204010402048C
:100A60001004610400041404630473047204620437
:100A700043040004130406040004000404041204E4
:100A80000004000400040004510464000004000495
:100A9000000444040004000400040004650400048D
:100AA000350481046400050400048304000400008C
:100AB00002460146032000F0D3BE0246014605204F
:100AC00000F0CEBE0146082000F0A2BE0FF2692061
:100AD00010B5DFF82847606382B00FF24D20A063A5
:100AE00004E0204601F0D1FF00F010F82068002853
:100AF000F7D1606828B1201D01F0C7FF00F006F8AB
:100B0000F7E72060A072E072207313BD009000A888
:100B100000F058BF38B504460FF23800255C28466F
:100B200001F0F8FE20B1291841600021017232BDA8
:100B3000022001F0EFFE50B10FF27821615C0170EC
:100B40001A214170014600F085FE01F004FF0020EB
:100B500032BD0000004246484045453F354D360015
:100B6000821DC907D2B210D50A2192FBF1F10A23E6
:100B700003FB1121C9B241B10A32521AD2B205297E
:100B8000A4BF0A32D2B20B32D2B21328ACBF1420A7
:100B900006208018C0B209300A2190FBF1F0C0B2E3
:100BA000704780B5DFF8B40C007A800704D502F0F6
:100BB0007CFA10B1012002BD002002BDDFF89C0CC0
:100BC000007A80070DD5DFF89C03807A38B9DFF80A
:100BD0008005C06F28B1407E10F0800002D0012057
:100BE000704700207047DFF87C13DFF8142B097B77
:100BF0009278914238BF01F08DBE0020704780B5D9
:100C000000F0E0FE002002BD31B5007BD54C20B1E4
:100C1000012823D0032823D036E0624D687B0F28BB
:100C200005D000F0C7FD10B90098E16A8847009927
:100C300095F83A008873142000990870201D0099D7
:100C400001F003FF02F070F8217B491C217308B901
:100C500002F066F8202000F057FD31BD1520EBE7CB
:100C60000098007A80B100984168491C416011F8F1
:100C7000010D009948730098C07D00280098407BC2
:100C800005D008B10A2814DBFFF741FF31BD50B190
:100C90000A2808DA009A0FF23C03127AC11811F8F8
:100CA000011C8A4205D0082802BF0098007A082853
:100CB000EAD100980099007A401E087200980099C5
:100CC000407B0A30087000980099407B401C4873B4
:100CD000B4E7000002040201010101090200000062
:100CE000DFF81805C06B010018BF004700207047EF
:100CF00038B5044604F114000121017004F13801F3
:100D00004A88438C42800A79C2714A79027204F19E
:100D10002C020978204600F00FFF050004BF204692
:100D200000F022F9284632BD80B500F043FD08B13D
:100D3000202002BD012002BD417E41F0010141762B
:100D4000704710B5017D027E012906D1130704D436
:100D5000BDE81040417800F0E1BC5406DFF89C3457
:100D600004D5BDE810404078196B0847012903D12C
:100D7000120748BF30210BD442781B2A08BF22211A
:100D800006D0002A0CBF0FF220020FF22802895C65
:100D900001700146BDE81040187C01F0DCBD000088
:100DA00009172000644A0020303016181920231A31
:100DB0001C1E3000303017181921301B1D1F300049
:100DC00070B5DFF88C430646E06F002870D0DFF87E
:100DD000BC5C26B11B2E05D1017D052952D0002116
:100DE000417051E0E92E2DD1807E30B902F066F9D4
:100DF00018B1E06F807D40072DD5EE2002F004FC95
:100E0000E06F817E00293ED0827D520705D4491EC5
:100E10008176BDE8704002F0AFBC017E01F07F0139
:100E20000176E06F017D032903D1417E41F0040189
:100E30004176ED2002F0E8FBDFF8201AE06FC96F81
:100E4000884724E0E12E15D102F038F9D0B1E06FE7
:100E5000807D400716D4E16FA87C8876E16F4968F1
:100E6000287888702878401C28700120BDE87040E0
:100E700002F0E3BB1C2E05D13A49096C88470020DB
:100E8000E06770BDE06F4670E06FFFF75AFFE06FFC
:100E9000807D000605D5287E02F0A0F9E87D02F0ED
:100EA00063F90020E0671020BDE8704000F02CBC22
:100EB00070BD0000754D00202DE9F04101F034FFB8
:100EC00000F00100A24D80F00108E86F002488BB0B
:100ED000244FB86B80473E6840F0100002E0344673
:100EE00056F8086C36B3717E01408142F7D1224634
:100EF0003146384601F0EEFDEE67707E000620D4E4
:100F0000F87A401EF872B8F1000F18BF01F008FF20
:100F1000EC6FE18A207AFFF723FE3881A07D00067E
:100F200013D5E07E02F05AF9E86F007FBDE8F0418A
:100F300002F01AB9B8F1000F11D0BDE8F04101F08C
:100F4000EFBEB87A401EB872DDE7207EBDE8F04102
:100F5000400800F0010080F0010002F06EBBBDE827
:100F6000F08100001C4D002038B5044600F022FD41
:100F7000217EDFF88C07090704D4217D012908BFF1
:100F8000027800D042789D4D2146284601F0C1FDEF
:100F9000D0B1696B20468847A07D40070DD401F091
:100FA000C3FEE97A491CE97208B901F0B9FEE08A8A
:100FB000C0050FD4BDE831407EE72046BDE834408F
:100FC000DFF89818896F0847F12060702046BDE867
:100FD0003240B6E631BD6FE710B5DFF880180A89F8
:100FE00004460020930704F1340103D48B795B0796
:100FF00048BFE82060231A4203D18A79920748BF8C
:10100000E820DFF8302B237A92799A420A7938BFA8
:10101000E820002A02BF09780029F52004D010B981
:101020002046FFF765FE20B101462046BDE810408E
:1010300074E310BD0D21017001F04EBF002101705D
:10104000417090F83A30DFF8B8166C4A09785B07BF
:1010500004D4D37A8B4204D3F1215FE3937A8B4299
:10106000FAD20146107C01F076BC0000804D0020D1
:1010700010B5044604F1580080B201F04BFC18B1E1
:1010800000F158010472416010BDDFF8140C0FF23A
:101090007111016000220FF2953141600FF2E111F0
:1010A00081600FF21921C1600FF21D3101610FF251
:1010B000D92141610FF2AD2181610FF2BD31C161D2
:1010C0000FF2014101620FF2554141620FF2854179
:1010D00081620FF21D21C1620FF2E90101630FF27B
:1010E000D10141630FF2D52181630FF25141C163F8
:1010F000DFF8B01B01640FF2754141640FF2C54186
:101100008164DFF8340D00F15C010A70CA700222BC
:101110000FF2F55140F83C1F016102710121017588
:10112000704700B585B002228DF800208DF80100CF
:1011300008B14FF6FF71ADF802100B22DFF8FC1C6E
:1011400001A801F09FFB00A801F0C6FE05B000BD9C
:101150000040002080B50A228DF801008DF80020A3
:101160008DF8021000A801F0B7FE01BD3EB504469F
:10117000251D0120688204F12E010220287400A898
:1011800001F0A3FD2868AB8E401E286000AA94F8E9
:101190003A10017083212879401C2871204600F004
:1011A000CBFC050004BF2046FFF7DEFE28463EBD0F
:1011B000DFF8140D90F8350030214143DFF80C0DB5
:1011C00001F059BA30B5DFF8004D607B0F2893B0BD
:1011D00006D02E208DF8000000A800F0F3FA09E0F8
:1011E00000F0E6F8608E1421B0FBF1F105F1340057
:1011F00001F041FA13B030BD604D00201C4D0020BD
:1012000038B50446607888BB04F12E05297A022996
:101210001CBF0329E82094F82B100B39132928BF91
:10122000E82024D210BB04F12B01E12002F0B4F835
:1012300004F13801502002F0AFF8297ADFF8880C69
:10124000022902D12988018406E04FF6FE7101844B
:101250001630294601F050FD0B2204F12001DFF881
:10126000DC0B01F00FFB2046FFF780FF30B1607010
:10127000172020702046BDE83240A3E231BD0000B7
:1012800010B5DFF8B44B94F85F0086B0A0B9012028
:1012900084F85F0002F07EFB02A800F0DDFB04F1A1
:1012A0005400019002AA012000900321DFF8180CDD
:1012B000C38C052000F0F8FC06B010BD10B500F09E
:1012C000F3F82078202804BFEB20607000F0A8F825
:1012D00044BF01F0FB0180F85F1000F0E1F800D599
:1012E000E6E02A2020702046BDE810406AE20000B7
:1012F00070B5044682B0012002F05EFB00F058F8A1
:1013000005F1440001F0D0F900F026F8ADF8000036
:101310006068867846B900A9532002F03DF804F1D0
:101320001C014A2002F038F80B2204F10F0105F1EC
:10133000540001F0A7FABDF800103046FFF7F1FEA7
:1013400095F85F00800703D560780021FFF702FF62
:10135000002085F85F0073BD60680178407801EB7C
:101360000020704710B50446EB206070DFF8100CC9
:1013700090F85F00800703D50021EB20FFF7EAFE1D
:101380004FEA0400BDE8104038B500F08DF800F0D9
:101390000FF805F1440001F087F905F15C00002128
:1013A0000170C1704FF6FF716078BDE83440B8E657
:1013B000DFF8CC5B05F1340001F076B910B50446D6
:1013C000FFF7D0FFC0E0000010B500F06DF8207A04
:1013D000002814BF0020EB2000F021F844BF01F0EA
:1013E000FB0180F85F1000F05BF80BD501F0FD0108
:1013F00080F85F1000F08CF8ACBF01210021FFF7EE
:10140000A9FE08E0C80706D52A202070EB206070EE
:10141000204600F0D7F92046BDE810400AE660708B
:10142000DFF85C0B90F85F104A0770471CB5044664
:10143000DFF84C0B90F85F1041F0020180F85F106C
:10144000012002F0A7FA607868B900F014FB04F1FB
:1014500010010191221D012100910146E38905201F
:1014600000F022FC6070607818B1BDE81C400021DB
:1014700070E613BD384C002010B500F015F8207848
:10148000202804BFEB206070FFF7CAFF44BF01F0C3
:10149000FB0180F85F1000F003F800D508E010BDF4
:1014A00090F85F108A0770470446012002F084BA62
:1014B00001F0FD0180F85F1000216078BDE8104068
:1014C00048E6000038B5FFF7EFFFFFF771FF207A1D
:1014D000002814BF0020EB20607095F85F004107E2
:1014E00044BF00F0FB0085F85F0095F85F008107BE
:1014F0000AD500F0FD0085F85F0000F009F8ACBFE8
:1015000001210021FFF726FE2046BDE8324091E58B
:10151000A07B00F0100001286078704710B5FFF73D
:10152000C3FFEB20FFF77BFF44BF01F0FB0180F816
:101530005F10FFF7B5FF00D5BAE710BD10B500F09A
:1015400010F82046FFF7EAFF2046BDE8104000F003
:1015500019BD000010B500F004F82046BDE81040A9
:10156000DCE70446DFF8F80B01F09EB810B504463E
:1015700086B004F11C01DFF8EC0B01F093FBF0B135
:1015800009208DF80000EF208DF80100FFF7E4FE40
:10159000ADF8020004F10F01606800798DF80400D5
:1015A000207A082806BF6068C07900208DF8050001
:1015B0000DF1060000F021FC00A801F08DFC06B042
:1015C00010BD000000F050BDA448DFF8D4168161C2
:1015D0003831C1610FF21C0141630FF27C0181635C
:1015E000DFF8581CC165018941F001010181704794
:1015F000604D002001017101010101011101010192
:101600003101010101018001100161013B00140061
:1016100063017301720162014301000113010601BC
:101620003D0135000401120100010001000100012B
:1016300004010401330133013C014401320136004D
:101640000001000165010001350081010001050173
:101650008201830100010000030271023001600277
:1016600011027002010202020202800210026102F3
:101670003A004100630273027202620243020002F6
:1016800013023800000200020402120200020002EB
:101690000002000204020402370037003C02440248
:1016A00000023900000200026502000235028102D8
:1016B0000002050282028302000200000246014687
:1016C0000220CDE001460620A2E010B5634C206860
:1016D00082B010B1204600F075F90020A072DFF84A
:1016E0000C0C006850B102E000A800F06BF900F0AB
:1016F000B1F801F05FF900280090F5D113BD0000AA
:101700004C9A21008C4D00200146DFF8300C007C03
:1017100001F022BA01012000AD05200000B585B01E
:1017200003780FF278029A5C8DF800200B2A03D11F
:10173000417000F085FB2CE05AB30C2A24D11A2901
:1017400002D1002001901FE0019090F839208DF81F
:101750000220C2680292028AADF80C20827DD20675
:1017600048BF002205D4DFF86027837E92F834203A
:10177000D21A8DF80E20427F8DF80F20827F8DF8CF
:101780001020C07F8DF811008DF8011000A801F025
:10179000A3FB05B000BD0000050620000C0E020BE7
:1017A000040B0A0708000F002C48817A481E80416C
:1017B000C00F70472948807A032801D10120704763
:1017C0000020704710B525498A7A037801EB820220
:1017D00003F07F03126B037002EB43035B7801EBB2
:1017E0008304246B04B18B72037812F8132013095D
:1017F00001EB8301C968002904BFBDE8104000F077
:1018000002BB02F00F02BDE8104051F82210084759
:10181000B0B504460FF29C00205C82B00D4601F08A
:1018200079F807000FD03C700020787029460FF23D
:101830009000225C381D01F025F800F00BF83946C5
:1018400001F089F8B3BD8DF800401A2100A8FFF718
:1018500065FFB3BDDFF8E40A007C704780400020DC
:10186000F8B507460FF24C003D5C0C46284601F0E7
:1018700051F8060015D03770002070702146A81965
:101880007060002030720FF238003A5C06F12000E0
:1018900000F0F8FFFFF7DEFF314601F05CF80020B2
:1018A000F2BD8DF800701A2100A8FFF737FF1A204B
:1018B000F2BD0000000555534D581C2028070200BA
:1018C00000011C181A18181C24030000DFF86C1AF9
:1018D00008747047F8B50C46A006DFF8085CDFF81E
:1018E0005C6A16D41AE001F01FFA317B491E31738D
:1018F00008B901F015FA38788DF800006F603846A5
:10190000FFF760FF9DF8000015281CBF281D00F0A0
:1019100059F8301D01F0B9F80700E4D1200406D4CD
:101920000AE06860FFF74EFF281D00F04BF8307C9E
:1019300001F040F80028F4D1E00602D52D2000F097
:1019400035F8E00702D5242000F030F8A00702D5D2
:10195000252000F02BF8600702D5262000F026F89D
:10196000200702D5282000F021F8600604D5FEF7F4
:101970008BFE2C2000F01AF8200604D5FEF784FE1A
:101980002F2000F013F8286870B101F0CDF92C6811
:101990000021296008B901F0C3F96C602046FFF707
:1019A00011FF281D00F00EF80020F2BD8DF8000098
:1019B00000A807E7DFF82C1B4A68824204BF00201A
:1019C0004860704738B5040008BF02F095F801F090
:1019D000ABF900F00100216880F0010561B1DFF88A
:1019E000042B5368A1F108008B4204BF0021516011
:1019F0000021216000F016FF002D1CBFBDE8314022
:101A000001F08EB931BDDFF8D00B0FF2F5318160F6
:101A10000FF20141C1600FF201410161DFF8081CC2
:101A200041610FF21D418161DFF8001CC161DFF8E7
:101A3000001C01620FF22571C1630FF2A94101641C
:101A40000FF2FD4141640FF2995181640FF235515B
:101A5000C164002101707047DFF86C140A8C4FF6E6
:101A6000FE739A4204BF163101F02FB902220272AE
:101A7000098C01807047DFF85004408D4FF6FE71ED
:101A8000884201DB0320704702207047864A00200D
:101A900042784B78C2F38102C3F381039A4211D199
:101AA000022A09D142794B799A4202BF8079897919
:101AB000884207D101207047032A03D1491D401DE8
:101AC00001F00CB90020704770B55478067A0B46C7
:101AD0000021C4F38104B44218D1022C10D15479EE
:101AE0009579008804EB0524A4B2A0420ED1D078E9
:101AF000127900EB022080B2834207D1012105E078
:101B0000032C03D1511D01F0E9F80146084670BDD0
:101B1000017ADFF8B423022907D1118C00888142B1
:101B200001D10120704700207047014602F11600E4
:101B300001F0B8B84C9A21002DE9F84F04469946B7
:101B400090460023E04800F114050A0601F07F02E8
:101B5000E18A98F808704CBF4FF6FF766E8A5FEA0C
:101B6000816C46BF4FF0080C84F818C023765FEAFA
:101B7000417C4CBF4FF0800C4FF0100C84F819C022
:101B80005FEAC16E00F1340C4EBFA3769CF800E012
:101B900084F81AE05FEAC17E48BF20230907616824
:101BA00094F814E048BF43F01003491EBEF1020F41
:101BB00009DBBEF10B0F1CBFAEF1010E01F801E90C
:101BC00043F0030301E04EEA03039CF815C0BCF1A7
:101BD000010F06D194F808C0BCF1670FA8BF43F409
:101BE000805343EA8233022A1FFA83FA07D1E88A34
:101BF000000A01F80109E88A01F801090CE0032A4A
:101C000009D1A1F1070B00F13C01584601F074F82D
:101C1000ABF1010100E052B127B14E4508BF4AF0D7
:101C2000400A04D0301201F8010901F801694AEABA
:101C30008726022FB6B209D1B8F80000000A01F8D1
:101C40000109B8F8000001F8010909E0032F06D1E5
:101C5000CF1F4146384601F04FF8791E00E02FB102
:101C60004FEA192001F8010901F80199481E227D67
:101C70001AB92A78531C2B7002E0AA7B531CAB7351
:101C80000A70310A017000F8016D217A62686060A3
:101C90005118091A217200206070BDE8F28F00000F
:101CA000884C0020E72320002DE9F047099F8A4651
:101CB0000546904699463946FEF72CFF1A26040041
:101CC0001AD00898E08225750B22394604F12000CD
:101CD00000F0D8FD4B46424651462046FFF72CFF08
:101CE000060009D1ED1F012D03D8607E40F02000D1
:101CF00060762046FFF738F93046BDE8F08770B5CA
:101D0000044604F1380684B07178012001B1052041
:101D1000251D04F12C0168820420287400A800F01D
:101D2000D4FF28686B8E401E286000AA31780170AD
:101D300003212879401C28712046FFF7FDFE05008D
:101D400004BF2046FFF710F9284604B070BDF8B56F
:101D500004460E460520207006F13A07351DF87836
:101D6000A0706068E96A416106F11C0100F0ADFFF6
:101D70006068698E4181397841740021606801761C
:101D8000C17306F10F016068193000F036F8616820
:101D9000A87A88732868616810F8012B8A8110F886
:101DA000013B42EA03228A8110F8012BD30918BFB4
:101DB00001230B7402F007010A0018BF012201EB96
:101DC00041015118C9B2081810F8011B2172E060D6
:101DD000217A01F00702490801F0380101EB4201C4
:101DE0000818606129792A688B18834227BF081A6E
:101DF0001018002020722074F1BD0B2200F042BDAB
:101E0000704718218AE401780B29B8BFFFF7F9BFA2
:101E100070470000192181E438B5DFF8C85804463E
:101E2000286820B1FFF7F6FF2846FFF7CBFD2046D4
:101E3000FFF7C0FD2C6031BD304B0020844B0020EB
:101E400030B5044689B020781F4D032808D00528F6
:101E500008D0182804D01E2818BF1F2802D00FE071
:101E6000002000E001208DF8180004F12B0103A8E8
:101E700000F042FF03208DF8140000F029F812E072
:101E800002208DF8180004F11C0103A800F034FFB3
:101E900003208DF8140004F10F0100F019F80DF182
:101EA0001900FFF7AAFF0B208DF8000004F10F01C5
:101EB00060788DF801000DF11900FFF79EFF00A872
:101EC00001F00AF809B030BD644A0020744B0020CC
:101ED000688DADF8020002208DF80A00E88CADF89C
:101EE0001600704738B5044665789DB9DFF8F817D5
:101EF000E08EC98C884218BFE82504F12C00FFF75A
:101F000007FE80B1002084F839001DB92046FFF794
:101F1000F6FE054635B16570192020702046BDE8F3
:101F200032404FE431BDDFF8C41794F8390091F81E
:101F3000201080F001000843E7D1E825EBE700001E
:101F400010B586B004218DF8041041788DF8051085
:101F5000C18EADF8101000F12C010DF1060000F05B
:101F6000B4FE0DF10600FFF7D3FD20B100F02FF80D
:101F7000DFF87407048401A800F0AEFF06B010BDBE
:101F8000304B002010B588B0044603208DF80400C3
:101F900004F11C010DF1060000F0AEFE606800784F
:101FA0008DF80E0004F10F010DF10F00FFF725FF72
:101FB00004F11C00FFF7ACFD20B100F008F8DFF8D9
:101FC0002807048401A800F087FF08B010BD4FF671
:101FD000FF74ADF8004000A9532001F0DDB9000006
:101FE00070B50546DFF8006768684078B41C4006A5
:101FF00092B009D5A08CE98E884205D1DFF8D805CA
:102000000078D0B100F030F808A80390294602A863
:10201000FFF79DFE2B208DF8080002A8FFF7D2FBEA
:10202000207810B19DF8180028B105208DF808001F
:1020300002A800F051FF12B070BD96F830000028E1
:10204000E2D005F11C00FFF763FD0028DCD105F1AB
:102050000F0001900120009006F11602A38C0321CD
:102060000620FFF721FEE6E700B585B009208DF8D0
:102070000000EE208DF8010000A800F02DFF05B053
:1020800000BDF8B5054600F04FFE00F03BF80DB17D
:1020900001F046F9DFF8505601F099FA05F12607EC
:1020A000DFF83465387D01F099F8F87C01F05CF8D0
:1020B000307801F043F8388801F049F8B88801F029
:1020C00048F805F13C0001F04AF80027DFF8140653
:1020D00000EB8700C06D010018BF80477F1C072FF1
:1020E000F4DB00F0F3F9FFF7F0FA00203071FEF7AF
:1020F000EDFCFFF788FC00F00AF80CB100F010FED0
:102100000020F2BD00F0010080F00104704705F1ED
:102110002901522001F040B9DFF8BC040FF265013B
:10212000416200F108020FF2493181620FF2793108
:10213000C1620FF20D1101630FF2052141630FF22D
:10214000B1118163DFF89C15CA6000F13C022430B4
:1021500048610A610020088101F02ABA7047000036
:10216000644B00207A4A0020072202700A7A8270AB
:102170008A7AC2704A68426000220272C969C160EC
:102180007047000070B5DFF8685504466E1C0020EB
:102190003070207A0628A4BFE8203070607A0F28BB
:1021A00004DB207A032804D0E8203070207A03284A
:1021B00005D1CC48007AC0075CBFE82030702146CA
:1021C0002846FFF7D1FF616805F11800890A816090
:1021D0000B22617A0173E17A4173217B8173617B08
:1021E000C173A17B01740A214174DFF8FC1491F8DA
:1021F0003A108174DFF8FC1401600421017105F1CB
:102200002B0004F10F0100F03DFB3078002804BFE3
:10221000607800280BD1707808B1EA21317001F0A4
:1022200023F826202070042001F09FFB01E02920E4
:1022300020702046BDE87040FFF7C4BA8B10200024
:10224000F0B5DFF8AC64751C0446687885B006F11B
:102250000C0760B9787F0A2809D001F047F839687F
:102260007A7F511801F80B0CE879401CE871786905
:10227000797F40087861491CC007797702D4C9B2D8
:102280001E29F4DBC9B21E292CD006F12901E12058
:1022900001F082F802208DF810004FF6FF73687885
:1022A000ADF80830002818BF022803D1204600F0FE
:1022B0001FF819E006F12B020128019207BF082040
:1022C0008021072083210022009202AAFFF7ECFC64
:1022D000DB2818BFE52804D0F3281CBFDF28E82836
:1022E00002D1287000F0BEF805B0F0BDD05000203B
:1022F00038B5DFF8FC43626804F12400012143791A
:1023000001FA03F39A4362603023A278032A06D1CC
:10231000DFF8D40390F8350003FB00F508E00078FF
:1023200001FA00F0401C03FB00F50AB900F0DCFFE5
:10233000294604F11000BDE834409CE11C4D00200A
:102340002DE9F041DFF8A8737D1C804668780228EB
:102350001CBF0128052890B03AD1002028704146C2
:1023600000A80A900C3709A8FFF7F1FCEE79787EF7
:1023700086421BD23C680BE06089BDF80A10884297
:1023800004D100A9204600F08DFC78B9761E2434D3
:10239000F6B2002EF0D13868EB79242200A902FBB6
:1023A000030000F06FFAE879401CE871DFF83803A9
:1023B000807820B19DF8340008B9787E10B909A85A
:1023C00000F08AFD787E58B1E979814208D101E0B8
:1023D000E8202870292088F800004046FFF7F2F92D
:1023E00010B0BDE8F08170B5044604F1240082B05D
:1023F0000178DFF8FC52032904BF807A03282CD12E
:1024000004F11C014A2000F0C7FF6068017842789F
:1024100001EB0221ADF80010861C00A9502000F04D
:10242000BBFF3078717800EB0120ADF8000000A907
:102430004B2000F0B1FFB61C3146E12000F0ACFFAC
:10244000701C0178407801EB0020ADF8000000A975
:10245000532000F0A1FF002000E0E820687000F0A9
:1024600001F873BD292020702046FFF7ABB90000AA
:1024700010B5DFF87C4204F1100000F015F900F00F
:1024800012FF042001F098FAA078032804BF6078B6
:10249000002804D004F12A01E12000F07DFF20464D
:1024A000BDE8104000F018BD00B585B0014600A899
:1024B000FFF75AFEFC208DF8010000A800F00CFD8B
:1024C00005B000BD01460720FFF7A2B98A480021E8
:1024D000016041604FF47F018160C16000210161B2
:1024E000704700008040002010B5834C0020206120
:1024F000206868B14068A168884209DA01F037FBBA
:1025000021684A688242B8BF02464A60206820615A
:10251000606838B1216919B1426849688A4203DAB2
:10252000206101E0206940B12069A16840688842CB
:10253000BCBFBDE8104001F03EBBBDE8104001F05B
:1025400062BBF8B500F0F0FB00F001006A4D80F0CE
:102550000104286918B3A9684068814203DA01F0D0
:10256000CBFA2869D8B101F002FB29694968884291
:1025700015D3002948BF01F0BFFA2E69304600F09C
:1025800093F8377BB6680CB100F0CAFB3846B04709
:1025900000F0CAFB00F0010080F00104E1E7002C2C
:1025A0001CBFBDE8F14000F0BBBBF1BD38B504462F
:1025B0000D460EE050496868096920188D4202D125
:1025C000002848BF00206860002848BF01F094FA46
:1025D0002D68002DEED131BD384C002070B500F0D3
:1025E000A3FBFFF78FFD444DA8686E682968404241
:1025F000FFF7DCFF06E0A86871688142A4BF081AF3
:1026000070603668002EF6D1E868A96881421CBF68
:10261000A86001F095FAFFF767FF002C1CBFBDE82A
:10262000704000F07DBB70BDD90F2000D70F200097
:102630003510200070B504460D4600F075FB00F023
:10264000010080F001062968284601E00846096873
:1026500019B162684B689A42F8DA04602160286810
:10266000A04208BFFFF740FF002E1CBFBDE870402E
:1026700000F056BB70BD38B504460D4601F077FA40
:10268000401960602046BDE834401B49D2E70A6823
:1026900001E011461A462AB113688242F9D10B6053
:1026A000012070470020704770B5044600F03CFBE5
:1026B00000F0010080F001050F4E31462046FFF783
:1026C000E6FF18B9311D2046FFF7E1FF306984426B
:1026D00008BFFFF709FF002D1CBFBDE8704000F0E8
:1026E0001FBB70BD80400020644A002000400020D5
:1026F000144E0020091720006C4200205D4841F272
:10270000FC72002111525C4908604FF41C71018079
:1027100048F20401A0F8701241F28851A0F8741236
:10272000704738B5012000F017F8040008BF01F029
:10273000E3F900F0F9FA05464F49201F08602046EA
:1027400000F070F84D4901200870002D04BFBDE86D
:10275000314000F0E5BA31BDF8B500240025061D72
:1027600016F003001CBF311D0E1A00F0DDFA4349BC
:10277000414A097800F0010080F0010011B1B6B2C1
:10278000112E01D2176800E03D4F3B68C3F3C03CF7
:10279000BCF1000F18BF002524D1E5B1D4F800C06A
:1027A00063445B044FEADC3E5B0C43EACE332360B8
:1027B000B6B25B045B0CB34214D3274647B33B6805
:1027C0005C04640CA41BA4B2082C14D3F45346F488
:1027D00000433B8012E05B045B0CB6B2B342EDD227
:1027E00001253C463B685B0417EB53473B88002BB5
:1027F000CBD100270CE043F400433B6039B11168B2
:10280000B94204D13968490417EB514111603F1DA9
:1028100008B100F085FA17F0030018BF01F06CF959
:102820003846F2BD10B5041F1249884203D301F5A2
:10283000C051884201D301F05FF92068C0F3C03075
:1028400008B901F059F900F06FFA216821F400414C
:10285000216000F0010008490A68944280F00100FC
:1028600038BF0C6000281CBFBDE8104000F058BA0B
:1028700010BD000048510020487100202E5100205A
:10288000BC53002003E011F8013B00F8013B134664
:102890005A1E002BF7D1704710B513465A1E3BB194
:1028A00010F8013B11F8014BA342F6D0002010BDF7
:1028B000012010BD10B5044610460A4601462046C8
:1028C00001F0B6F9204610BD0178407801EB0020F8
:1028D00080B270470278022903D1407802EB0020D1
:1028E0007047032906D14178807802EB012101EB82
:1028F00000407047042909D1417802EB0121827818
:10290000C07801EB024101EB006070471046704750
:1029100001F000BA10B5040001D1002010BD04F18F
:10292000080080B2FFF718FF28B100210160848001
:10293000FF218171083010BD80B508B9052002BDA6
:1029400010F8021CFF2901D0042002BD0838FFF74F
:1029500069FF002002BD0022FFE710B50446080011
:1029600013D0DFF82C1309788C4203D3FFF7E4FF70
:10297000032010BD50F8081C002902BFA0F1080177
:102980008B79FF2B03D0FFF7D7FF052010BD8C718B
:10299000012ADFF800330146184602D100F08CF816
:1029A00001E000F052F84FF40041204600F0D4F866
:1029B000002010BD2DE9F04180460025002600F0E2
:1029C000B3F900F00100B34C80F00107206803E088
:1029D00006B9054650F8080C68B110F8021C4145CC
:1029E000F6D1002E08BF0646F4D04FF40041404611
:1029F00000F0B2F805E04FF40041404600F0B8F8AE
:102A000026B12A463146204600F064F80FB100F0A6
:102A100087F93046BDE8F08170B500F032F89D4985
:102A20000E6800F0010080F0010001E056F8086C2B
:102A300036B116F8021CA14204BF3178A942F5D183
:102A400008B100F06DF9304670BD38B500F019F8E6
:102A5000002145F8081C00F00100216880F0010009
:102A600011B9256006E0114651F8082C002AFAD168
:102A700041F8085C00281CBFBDE8314000F050B9A7
:102A800031BD04460D4600F04FB938B50446002567
:102A900000F04AF900F05AF849B10D4655F8081C03
:102AA0002160002145F8081CFF2105F8021C08B12F
:102AB00000F036F9284632BD38B5FFF7E2FF21684D
:102AC00045F8081C2560002804BFBDE8314000F02F
:102AD00027B931BD70B505460C46164600F024F9FD
:102AE0002A6854F8081C94420CBF296046F8081C58
:102AF000002144F8081C00F0010080F00100FF21D3
:102B000004F8021C00281CBFBDE8704000F008B9A2
:102B100070BDF8B504460D461646002700F004F9CE
:102B200000F014F819B925600AE056B1114651F8C1
:102B3000082C761E002AF6B2F7D116B141F8085CCF
:102B4000012708B100F0ECF83846F2BD00F00100B2
:102B5000216880F00100704738B500F01AF805D2FE
:102B600000F0E2F800F010F82A4318E0032032BD2C
:102B700038B500F00EF805D200F0D6F800F004F8F1
:102B8000AA430CE0032032BD4349096831F8142000
:102B9000704704463E48007884420D46704721F84D
:102BA000142008B900F0BCF8002032BD80B5FF2821
:102BB00003D100F0B5F8002002BD072002BD80B5AA
:102BC000FF2803D100F0B0F8002002BD072002BDAD
:102BD00080B5FFF793FD2F490020086001F09CF8B5
:102BE00001F090F901F098F9FFF79BFD002002BD7C
:102BF00080B500F001F8FCE72DE9F041002601F076
:102C0000F3F92348244C0078216831F8161019B9DB
:102C1000761CF6B28642F7D3864224D200F084F8BE
:102C20002168354631F81580002221F8152008B9B1
:102C300000F076F8194F1A4A3E70414652F82520A6
:102C4000304690470646FF20387000F06DF8216846
:102C500031F81520324321F81520002804BFBDE8C3
:102C6000F04100F05DB8BDE8F08100F8011B0A0AF0
:102C700000F8012B0A0C00F8012B090E05E000F802
:102C8000011B0A0A00F8012B090C00F8011B704710
:102C90002E362000CC500020D0500020D8420020FA
:102CA000703F2000027A0B7A9A420CD15AB1022A64
:102CB00005D100880988884205D101207047032A80
:102CC00008BF00F00BB8002070470A7A0272032A8E
:102CD00008BF00F011B809880180704710B50822BC
:102CE00010F8013B11F8014BA34201D0002010BDA8
:102CF000521EF5D1012010BD0822FFF7C3BD50F8C8
:102D0000041B61B150F8042BD30744BFA9F10103A0
:102D10009A180023091F42F8043BFAD1EFE77047E5
:102D200080B501F067F902E080B501F05FF900B10C
:102D30000120C0B202BD10B50FF2D003820853F8D3
:102D40002220136800F00300C000FF248440A34346
:102D500001FA00F01843106010BD2849042803D17F
:102D6000086840F4803022E0052803D1086840F468
:102D700000301CE0062803D1086840F4802016E0EB
:102D80000F2805D11E48016841F00201016070471B
:102D900010280DD3A0F110010FF21412490952F8B6
:102DA00021101038012200F01F0002FA00F0086024
:102DB000704714490E2803D1086840F0006014E001
:102DC0000F2803D1086840F000700EE010280DD3E2
:102DD000A0F110010FF2EC02490952F8211010384D
:102DE000012200F01F0002FA00F008607047064858
:102DF000016841F0010101607047000024ED00E02E
:102E000010E000E004ED00E098200D40000000001C
:102E100018ED00E01CED00E020ED00E000E400E033
:102E200004E400E008E400E00CE400E010E400E06A
:102E300014E400E018E400E01CE400E020E400E01A
:102E400024E400E028E400E02CE400E030E400E0CA
:102E500034E400E038E400E03CE400E040E400E07A
:102E600044E400E048E400E04CE400E050E400E02A
:102E700054E400E058E400E05CE400E060E400E0DA
:102E800064E400E068E400E06CE400E070E400E08A
:102E900074E400E078E400E07CE400E080E400E03A
:102EA00084E400E088E400E08CE400E090E400E0EA
:102EB00000E100E004E100E008E100E00CE100E0F6
:102EC00010E100E080E200E084E200E088E200E05F
:102ED0008CE200E090E200E02DE9F14382B004785A
:102EE0000FF22420255CADF80050002D4CD00D2CA5
:102EF0004FF6FF7811D100A9532000F030FABDF849
:102F000000004FF6FE7188421FBF40450298007ACC
:102F1000002800F0A580029E6EE0052C4FF02409E9
:102F200004D10299097C243148190BE0072C0BD1FC
:102F300002988078002828460FBF1B300299097A32
:102F400009FB0100ADF80000BDF80000FFF7E2FC4E
:102F500006001DD10C2C17D102984068002813D010
:102F6000FFF7E2FE00F0010080F001070298001D6B
:102F7000FEF728FDBDF80000FFF7CCFC060004D1E9
:102F8000002F01D0FFF7CCFE8DE00FB1FFF7C8FE98
:102F900002992A463046FFF775FC052C11D171685D
:102FA000242206F11800FFF76DFC06F1180070608E
:102FB000327C71692430FFF765FC706824307061E1
:102FC0001AE0072C18D14A480568ADB1002101600C
:102FD000B078002806F11000F06002D11B222946CB
:102FE00005E0307A09FB00F2294606F11000FFF7F0
:102FF00049FC2846FFF716FC3E480168080003D04C
:1030000030468847002845D10D2C2DD102984068C4
:103010004178007800F00302022A01F0C0011FDAB3
:10302000354A927CC0F38300904201BF0029029888
:1030300090F82400022813D106F11C0000F11E01B3
:10304000C07F00F03DF80298C08C40451DD1029829
:1030500040688079022818DB304601F0BAF910B3D5
:1030600002A8FEF7AFFC1EE00C2C0ED102984078AF
:103070001A281CBF7068002807D0807DC00704D5BF
:10308000307C06F10F0100F01BF81C480078314637
:10309000FFF761FC0C2C06D10298406818B1029829
:1030A000001DFEF78FFCBDE8F78315480078002867
:1030B00014BF012801F02AB9002070470020704792
:1030C000104A12789AB10B783228B8BF322002DB4E
:1030D0006F28A8BF6E20012A05D1323858433C2200
:1030E00090FBF2F39BB2FF2BC8BFFF230B7070471E
:1030F00094500020EC500020EC490020A850002003
:103100003C5100203E510020001610000018151000
:1031100002000224144000001000000065480B214A
:103120008170FF214170C1700170704780B500F05F
:10313000BAF8BDE80140D9E001F062BA5E490A6818
:1031400000B1022022F002021043086070475B4980
:1031500000E05B49C2B20A60000A4860704701465D
:103160000822584801F0EEBB70B5574D2E7844B296
:1031700076B2A642B8BF344604DB697849B28C42C5
:10318000B8BF0C46FFF7D0FD311B891CC9B2494AB4
:10319000495DD17008B9FFF7C3FD00F002F8E0B255
:1031A00070BD80B5FFF7C0FD4249CA780B7800F0CA
:1031B00001009A4280F0010009D0444B1B7833B9DA
:1031C000434B1B781B0602D40A7042490A60002850
:1031D0001CBFBDE80140FFF7A3BD01BD38B50446E3
:1031E000A4F10B00122828BF00F086FCFFF79CFD1D
:1031F00000F0010080F001052E488470344800780A
:1032000008B900F007F8002D1CBFBDE83140FFF7FA
:1032100087BD31BD10B52E48007808B100F06CFCB8
:10322000FFF782FD234CA178627800F00100914203
:1032300080F0010011D0617008B1FFF771FD00F05E
:1032400029FC6078244900EB80002C38086001F0EC
:10325000E1FBBDE8104000F0D6BB00281CBFBDE874
:103260001040FFF75DBD10BD38B504461B4800781F
:1032700008B100F041FC1A4D287808B100F03CFC80
:103280000CB901200DE0032C08BF032009D0012C4C
:103290001CBF022C00F030FC0849FF220A6002200B
:1032A0004A60287031BD0E490020087003490D485E
:1032B000C08C4FE7C050002000860840C8850840F9
:1032C000D0850840A8850840FC992100364F002091
:1032D00050500020408608403C860840AF42002005
:1032E000354F0020644A002001F0D9BA80B501F0C2
:1032F000E0FABDE80240493840B210F1570FB8BFBC
:103300006FF0560002DB0B28A8BF0A205730C0EB35
:103310000020612190FBF1F0C0B27047EDE7F2ECC4
:1033200010B55A4C0FF2681120466C2201F0A4FE31
:10333000FFF702FF84F82200FFF7FEFE207510BDA4
:10334000A0F140021E2A38BF403804D3A0F1E001AA
:103350000F2902D23E30C0B270472D20704770B5A1
:103360000C46FFF7EDFF05462D2D01D1F42070BD71
:10337000FFF7DAFC06460FF2841000EB85014A786D
:1033800010F82500414941182046FFF77BFA0EB995
:10339000FFF7C6FC002070BD2DE9F04704460D463E
:1033A0003A4E452C08BFB5606CD0FFF7C9FF814687
:1033B0002D2808BFF42066D00FF2401808EB8907CB
:1033C000B878002804BFF978002915D0F978884228
:1033D00008BFFB2057D0582C05D128888F3846F2DB
:1033E0002241884206D22878B978884224BFF978E9
:1033F000814201D2E82046E0FFF796FC824618F8A9
:1034000029007A7829468019FFF73CFABAF1000FB3
:1034100008BFFFF785FC502C06F12A0010D0522C73
:1034200016D0532C10D0E02C26D0E12C1BD0E22C4F
:103430001DD0E52C24D0E62C04BF2978C17721E0EB
:10344000F08CFFF784FE1DE0708DFFF782FE19E01F
:1034500096F8290018B1022000F087FA12E0022045
:1034600000F0AAFA0EE0007CFFF7B8FE0AE006F1D1
:103470003C00FFF774FE05E0C07BFFF775FE01E03E
:10348000297881770020BDE8F0870000644A002099
:10349000360001000600000000000000000F0000E0
:1034A0000000000000000000000000000000030019
:1034B000FFFF00000403FFFF0000FFFF0F00F40107
:1034C0000005C4040320000100000B000000000000
:1034D000000000000300010F0000000000000000D9
:1034E00000000000000000000000000000000000DC
:1034F000000000000000000000000000000136365F
:10350000010100010201000103010001040106069E
:10351000080400000C0100340D01000F100401012B
:10352000140100FF1608000020020000220100FF25
:1035300023010001240100FE2501000826020000ED
:1035400028010001290100012A0200002C01000FBE
:103550002E0200003001000131010008320200FF9C
:103560003401000735010240360100003701000137
:1035700038010001390100FF3A010B1D3C08000031
:10358000460100084701000F48010001490100FF02
:103590004C040000500400005404000058040000D3
:1035A0005C04000060040000640400006804000083
:1035B00080B500F087FFFFF7B1FD00F0D1F901F011
:1035C000F7F900F035F8BDE8014000F097BA80B592
:1035D000FFF7AAFB18B9FFF7A3FB00F08DFA084824
:1035E000007818B901F00CFAFFF7A0FD00F09EFA80
:1035F00001F06EFD0349012081F8480001BD000083
:10360000AF420020644A002010B50446A4F1E70050
:10361000082882B00AD200A92046FFF7A0FE009831
:10362000401C009000A92046FFF7B6FE13BD0A001B
:10363000C24800210170C171704738B5BF4C0546C2
:10364000207808B100F058FA01202070BC480078BA
:1036500018B1BDE832401D2049E1657028460228B6
:10366000B84D02D101F0F4FD19E000281CBF01287B
:1036700000F042FA2968627800202071897DB24802
:1036800049064CBF90F8461090F8251022B9C07832
:1036900010B10329A8BF0221A17000F038F8E07929
:1036A000C0B9286808B900F027FA2868A74B416814
:1036B000097801F02001A171416889786171017A6E
:1036C00040688A1C00F8012D491CEE221A60C9B21C
:1036D00001F04CF9FFF728FB9D499E4A09781278C2
:1036E00000F00100114380F0010007D18321217017
:1036F00008B1FFF715FBBDE831401EE00221217043
:1037000000281CBFBDE83140FFF70ABB31BD80B5C2
:10371000FFF712FD894991F9023001229A40521EA9
:103720001040C8704878002804BFBDE8014001F08F
:1037300043BDBDE8014001F030BD8748016849083C
:10374000490001600020834908707C4840780228C5
:1037500008BF01F083BD10B5784C607840B9FDF723
:10376000BFFAE178814203D3BDE810401C20BEE0DF
:10377000BDE8104001F043BD10B5704C0120E07170
:10378000ED20FFF741FF6078BDE8104055E780B5B8
:103790006F48704900780978084318BF00F0ACF909
:1037A000FFF7C2FA65490A7800F00100022A80F0AA
:1037B000010007D183220A7008B1FFF7B1FABDE812
:1037C0000140BAE700281CBFBDE80140FFF7A8BAD6
:1037D00001BD10B5594C607800281CBF012800F0CD
:1037E0008BF90420207000F021F92079564991F8D6
:1037F0002420401C2071C0B2824203D2BDE8104098
:10380000E12074E001F12400A178407B4A1C82424F
:10381000B8BF481CA070FFF77AFF83202070BDE876
:10382000104098E710B5FFF77FFA00F0010080F034
:1038300001044248017883290ED1817941B985215B
:1038400001700CB1FFF76CFABDE8104000204EE0AB
:103850008621017001F060FD002C1CBFBDE8104006
:10386000FFF75EBA10BDF8B504460D46FFF75CFAE7
:1038700000F00100314F80F001063878862812D11F
:103880008720387001F0B6FD0EB1FFF749FA78795C
:10389000844204D1002D0CBF00201B2000E0E92051
:1038A000BDE8F24023E0002E1CBFBDE8F140FFF769
:1038B00037BAF1BD10B5FFF737FA00F0010080F01C
:1038C00001041E48017886290AD18721017001F080
:1038D00091FD0CB1FFF724FAE920BDE8104006E0A5
:1038E000002C1CBFBDE81040FFF71ABA10BD10B580
:1038F0000446124800211B2CC171017004D01748E6
:10390000017801F0FE01017000F090F8FFF749FC2A
:10391000FFF780FC2046BDE81040FDF751BA10B516
:10392000084C206808B900F0E7F800F032F9216887
:10393000C86000F07EFE2168088210BD5050002053
:10394000AF4200207C400020644A002038880840B4
:10395000344F0020364F002090860840774F0020DB
:103960005F48002141700170704738B5040008BFFE
:1039700000F0C2F8FFF7D8F90546594841782143CD
:10398000417000F071F8002D04BFBDE83140FFF731
:10399000C7B931BD10B5040008BF00F0ADF8FFF79E
:1039A000C3F94F494A7822434A70002804BFBDE852
:1039B0001040FFF7B5B910BD10B5040008BF00F006
:1039C0009BF8FFF7B1F946494A7884F0FF031A40A3
:1039D0004A7008B9FFF7A4F9BDE8104026E080B5A9
:1039E000FFF7A2F93E4900224A700A70EF223D49D2
:1039F0000A60ED220A600A6008B9FFF791F9BDE894
:103A0000014001F007B810B5FFF78EF900F0010092
:103A100080F001043248407808B100F025F8002C0D
:103A20001CBFBDE81040FFF77BB910BD10B5FFF714
:103A30007BF900F0010080F001042948407860B96A
:103A400029480078000608D42848007828B9284872
:103A50000078000658BF00F01DF8002C1CBFBDE820
:103A60001040FFF75DB910BD80B5FFF75DF91C4947
:103A70000A7800F0010080F0010022B901220A70EA
:103A8000E321184A116000281CBFBDE80140FFF780
:103A900047B901BD70B5FFF747F900F0010080F0AC
:103AA00001040F48017899B100210170EF20114DF8
:103AB0006860ED2068606860FFF736F906462A20E6
:103AC000FFF777F96FF0040028600EB9FFF728F9C7
:103AD000002C1CBFBDE87040FFF722B970BD00008C
:103AE000764F002038880840344F0020364F0020A1
:103AF00050500020348808407047000080B50020F6
:103B000000F0C5FD4FF47F0000F01AF845486FF053
:103B100008014160016841F0080101606FF0100187
:103B20004160016841F01001016001BD3D4801683C
:103B300021F010010160016821F008010160DDE75A
:103B400038B5044600F085FDA04228BFFFF7D4FF3A
:103B5000FFF7EAF8054634480460204600F0E9FD26
:103B6000002D04BFBDE83140FFF7DAB831BD38B5EC
:103B7000FFF7DAF8044600F06CFD05460CB9FFF7D4
:103B8000CFF829480068854201D3002032BD28467D
:103B900032BD38B5FFF7C8F8044600F063FD0546AE
:103BA0000CB9FFF7BDF820480068854201D300201A
:103BB00032BD284632BD70B51B4D0446286884428C
:103BC00028BFFFF799FFFFF7AFF800F0010080F082
:103BD00001066C60204600F07CFD00F03AFD844256
:103BE0000AD112496FF0100008600EB1FFF798F883
:103BF000BDE87040FEF7A5BC002E1CBFBDE87040BC
:103C0000FFF78EB870BD7047FEF79BBC80B500F023
:103C100059FEBDE80140FEF7E1BC0348006870476B
:103C20000000000008880840405000200C88084030
:103C300062F30F2262F31F42401810F0030308D012
:103C4000C91A1FD3DB0748BF00F8012D28BF20F891
:103C5000022D130030B414461546103928BF20E950
:103C60003C00FAD8490728BF20E90C0048BF40F8BB
:103C7000042D890028BF20F8022D48BF00F8012D2F
:103C800030BC7047C91818BF00F8012DCB0728BFFA
:103C900000F8012D7047000080B568B9FF20FEF7DD
:103CA0008EFF0021002001F0EDFB16490020087076
:103CB00001201549087001BD144900200870BDE8B5
:103CC00004400FF2390101F0DDBB70B5104E04461F
:103CD0003078FF280D460DD00420FEF71BFE38B1CA
:103CE000C02101708570C47001463078FEF733FE44
:103CF000002070BD012070BD00000000810801F0AF
:103D00000101E2E7AC4F00203F5100202D5100207F
:103D1000D742002000F07FBC7949002048607047FE
:103D200070B504460D46164600F018F808B1466016
:103D300070BD1020FEF710FD78B1847205814660D9
:103D400000210160C1606E490A6812B9086070BD47
:103D50000A4611680029FBD1106070BD684A1268DC
:103D60002AB113898B4204BF937A8342F7D110465C
:103D7000704708B1002101817047F8B500F024F8C0
:103D8000074600F01DF804460FB9FEF7C9FF0CB155
:103D90000020F2BD0820F2BDF8B500F015F800F0E3
:103DA000010080F0010700F00BF8040018BFE66086
:103DB0000FB1FEF7B5FF0CB10020F2BD0820F2BD37
:103DC000324629462046ABE704460D461646FEF726
:103DD000ABBF70B504460D46FEF7A6FF00F001002C
:103DE00080F0010629462046FFF7B8FF040018BFFF
:103DF000FFF7BFFF0EB1FEF793FF0CB1002070BDBF
:103E0000062070BDF8B504460D460026FEF78CFF6F
:103E100000F0010080F0010729462046FFF79EFFD1
:103E200000B146680FB1FEF77BFF3046F2BD2DE9C9
:103E3000F04182B005460095FEF776FF304C616890
:103E40006918616008B9FEF76BFF2668002E51D033
:103E500000250027FEF768FF00F0010080F0010850
:103E6000BDF80200002804BF9DF80100002807D11A
:103E700030799DF80010884202D3401A307106E074
:103E80007068009981423ABF401A70607760B088CC
:103E900060B9F08860B9F06800281CBF318900293A
:103EA0000AD0B07AFEF758FEF0687060B08808B9A2
:103EB000F08808B1308930B93068002D0CBF20601F
:103EC0002860374600E035463668B8F1000F18BF65
:103ED000FEF726FF67B1B888002804BFF8880028DD
:103EE00003D13989B87AFEF737FE3846FEF79AFCD7
:103EF000002EAED1BDE8F381014840687047000054
:103F000078500020034800218171018070470149E9
:103F1000887170477050002080B51420FEF71CFC9B
:103F20001249086014220021FEF7C4FC002001F0B1
:103F3000ABFA0120FDF7CAFC022001F0EFFB0320E1
:103F400003F06CF9042003F043FD052004F036F87B
:103F5000062005F059FA072005F05CFC082006F061
:103F6000A5F8BDE80240092000F016B8D0500020A6
:103F700093542000D5182000655720004D72200072
:103F8000EF7E2000158020003F942000279820001D
:103F9000259F2000AD3F200012490870704780B572
:103FA00006F0C0F8BDE8014006F06CBA38B50C4622
:103FB00020040BD50B4D01E0FEF7BEFC2878FEF780
:103FC000F9FC0028F8D184F4004032BDA00602D5E7
:103FD00084F0200032BDE00602D584F0100032BD2E
:103FE000002032BD2651002006F04EBAEFF31080BB
:103FF00072B67047EFF3108062B67047DFF898141E
:1040000000200860704780B503F0B6F858B9002268
:10401000012100F039F930B1016800291CBFBDE869
:10402000024001F092BD01BD80B5042000F01EF9F0
:10403000DFF868140978814207D3FF2000F016F9F1
:10404000DFF85C140978814201D2012002BD002012
:1040500002BD2DE9F04107468846387B00F023F980
:1040600000240546012625BB7A89397B386800F093
:10407000B7F8050062D02C810124387C2874788A36
:10408000688207F1100007F0EAF968614FF67F4196
:10409000388B2883B87EA8766889084068814107F4
:1040A0004FBF40F08000DFF8FC13097840EAC110F0
:1040B00068816889C109B8F1000F01F0070112D0C9
:1040C00002226A732A68927B520703D5DFF8D8234D
:1040D000128A2A8121B34FF67F421040491E40EADE
:1040E000C11068811CE009B9002619E0810605D5D8
:1040F000FEF70EFC00F07F005F3008E0C00605D53B
:10410000FEF706FC00F00F000A3000E001202881D5
:10411000202104206873DFF894030078FEF71CFD6B
:104120006CB12A89697B284600F06DF838B168695E
:1041300008B1FEF777FB2846FEF774FB00263046F1
:10414000BDE8F0813EB500F0AEF8002498B3417BA5
:10415000062930D101684489097A8DF80810016870
:104160000988ADF8001000F0E5F8200522D5BDF86B
:104170000010002000F021F8E0B9DFF82C43A18CFA
:1041800000A808F05AFD002100200CE028680188F2
:104190004FF6FF7291420DD0A18C08F04CFD1A2809
:1041A00008D00021284600F008F80500EED10020D4
:1041B00008F045FD012420463EBD18B9DFF8D802BD
:1041C000006800E0406840B142891205FAD5002934
:1041D0001EBF026812888A42F4D1704701207047DE
:1041E00070B504460D4616461C20FEF7B5FA48B1D8
:1041F000002141730573468101818173C17304609D
:104200004161416070BD70B504000D4616462BD06B
:10421000012D284606D100F029F8A54909788142E8
:104220000CD207E0042D07D100F020F89B49097853
:10423000814203D2112070BD022D15D10020606093
:10424000657326819448016831B100E001464868F1
:104250000028FBD14C6000E00460944800782021E5
:10426000FEF77AFC002070BDC12070BD8A4A12683A
:10427000002105E0537B5268834214BFFF28491C8C
:10428000002AF7D1C8B2704710B98348006800E02F
:10429000406838B1437B8B42FAD11AB103689B7BEB
:1042A0005B07F5D470477C49096800E0496821B193
:1042B0000A7B8242FAD1084670470020704776494F
:1042C000096800E0496861B10A6813888342F9D13E
:1042D000126A1378527803EB0222D205F2D4084610
:1042E000704700207047F8B50446002620000D46B0
:1042F0000AD06948076800E07F682FB12946384630
:10430000A0470128F8D13E463046F2BD0020704754
:1043100010B561490A681346002401E01C465B6839
:104320003BB18342FAD15868934201D1086010BD75
:10433000606010BD10B5040011D0FFF7E9FF2068E0
:10434000006AFEF76FFA2068FEF76CFA606908B140
:10435000FEF768FA2046BDE81040FEF763BA10BDCC
:1043600038B501684C4A098812680023002409E026
:10437000557B052D01BF641C15682D888D42526840
:1043800008BF5B1C002AF3D14A4A47491278DBB2C6
:1043900093423FBF484A1278E4B294422CBF0122B4
:1043A0000A8A02814FF6FF7305224273428942F462
:1043B00000624281006802889A4204D0898C08F029
:1043C0003AFC1A2804D1BDE83240012008F037BC7D
:1043D00031BD10B548B1A0F108010A68002A04BF38
:1043E0008A79FF2A03D0FEF7A7FA052010BD2F4CCB
:1043F00022788A7131490A7801463148FEF789FBF3
:10440000012806D120784FF40051FEF7A5FB0020CB
:1044100010BD042010BD70B5FEF786FC284D2E6837
:1044200000F0010080F001048EB1204856F8081C0D
:10443000007800294FF4005102D0FEF78DFB01E017
:10444000FEF796FB002231462846FEF743FB0CB1EF
:10445000FEF766FC304670BD70B504460E4806682F
:10446000002514E030680088A0420FD10020308180
:10447000B07A400744BF307B09F056FD06207073C8
:10448000F0213068407B01F0C0FB6D1C7668002E87
:10449000E8D1E8B270BD00000C510020F298210074
:1044A000F3982100D9420020EC490020A8500020B8
:1044B000F1982100F5982100F6982100019921003A
:1044C00010510020F0B5DFF8340489B014210160E8
:1044D0003F2181605521C160FC21DFF82444DFF8D1
:1044E0002454DFF8246461638521E167012141617F
:1044F000152141620021A967102101630E2141634A
:10450000032181630920706504210B20086080214C
:10451000FF2030602A20FEF70EFC80212B20FEF7C2
:104520000AFC2A20FEF719FC2B20FEF716FC80213E
:104530003120FEF700FCDFF8D403DFF8BC7300681D
:10454000000C3860FEF7F0FB0221F1670022DFF873
:10455000C0130A6028224A6008B9FEF7E1FBDFF8C1
:10456000B40300680003FAD5306F40F003003067F1
:10457000306F4007FCD5306F40F00A0030673120C3
:10458000FEF7EBFB48202060FFF76EFA206CC007B7
:10459000FCD500201021A26F52084041491E80B274
:1045A000F9D1002814BFB0F5607F4BF6BE20DFF8CC
:1045B0006813C2B20A6000120860796808000ED061
:1045C000002000220823A66F760852415B1EFAD114
:1045D00000ABC254401C2028F3DB00A88847FFF73B
:1045E00059FA40202060206840F020002060002020
:1045F00028606860A860E8602861686109B0F0BD63
:10460000DFF81803016821F00C0141F0040101609A
:104610008069C0B27047DFF80403016821F00C0123
:1046200041F0040101608169406900EB012080B222
:10463000704710B5FEF778FBDFF8E41201220A603C
:104640008A68496841EA022408B9FEF769FBA0B20A
:1046500010BD80B5FEF768FBDFF8C41200220A60C7
:104660004A6806E080B5FEF75FFBDFF8B41210225F
:104670000A604A698DF800200A698DF80120C9682E
:1046800000F0ACF808B9FEF74BFB009802BD01B58D
:10469000000E18BFFFF730FAFFF7DBFFA149CA6829
:1046A0008018009A801AC860FEF73EFB00229C49E1
:1046B0000A6000289DF800204A619DF801200A61E7
:1046C0009DF80220CA6004BFBDE80140FEF728BB88
:1046D00001BD11B5002481B0000E18BFFFF70CFA20
:1046E000FEF722FB90490A6800F00100D20680F034
:1046F000010004D50A6822F0100201240A60302269
:104700008A609DF80420CA619DF805208A619DF8A1
:1047100006204A616FF010024A601CB10A6842F03C
:1047200010020A6000281CBFBDE81340FEF7F8BA6B
:1047300013BD11B5002481B0000E18BFFFF7DCF9DE
:10474000FEF7F2FA78490A6800F00100120780F0DB
:10475000010004D50A6822F0080201240A60202220
:104760008A609DF80420CA619DF805208A619DF841
:1047700006204A614A6822F008024A601CB10A68B1
:1047800042F008020A6000281CBFBDE81340FEF793
:10479000C7BA13BD38B5644C2068616800EA0105EA
:1047A000E80604D5FFF730FA6FF0100060602807C4
:1047B00004D5FFF72BFA6FF008000DE0E8070CD5E1
:1047C0005A485B49006891F9002040B28242B8BF64
:1047D00002460A706FF00100606031BD8DF8021072
:1047E00000218DF80310704770B5524C666C2A207A
:1047F000FEF7DFFA504D28683040000705D56FF00E
:104800000800286000F001FE13E028683040C00670
:1048100005D56FF01000286000F0FEFD09E0286863
:104820003040C00705D5606C40084000606400F06F
:1048300093FB206C69680840400707D500F024F915
:104840006FF00400686020684006F7D470BD10B5B2
:104850003A4804682B20FEF7ACFA39480168214039
:10486000490603D56FF04001016010BD0168214089
:10487000C90708D56FF001010160FFF7B0F8BDE886
:104880001040FFF7F1B801682140490706D56FF0E5
:1048900004010160BDE8104000F0A4BB10BD244934
:1048A0006FF07F0008702048016841F0010101604D
:1048B00070471D4801684908490001601C4890F98B
:1048C0000000704738B5FEF72FFA00F00100154DD3
:1048D00080F00104287828B9FFF79FF9E9684018AB
:1048E000E86001E000202870002C1CBFBDE83140CA
:1048F000FEF716BA31BD000048500020A4860840DB
:10490000248608409085084094870840F80F2800C6
:104910001488084004200D4014700D4000700D40B4
:10492000108808408C4F00200888084060860840A6
:104930002A5100204C860840308808409486084060
:104940002C88084004E011F8013B40F8043B521E5B
:10495000D2B2002AF7D1704704E050F8043B01F8C6
:10496000013B521ED2B2002AF7D1704738B5044637
:104970000D0008BFFFF7C0F86D1E14F8010B0B49BE
:104980000860EDB2002DF7D131BD38B504460D00F9
:1049900008BFFFF7B1F80548006804F8010B6D1E69
:1049A000EDB2002DF7D131BD00000000288808408D
:1049B000DFF868060021C172416181800FF2ED01CC
:1049C00001610021817181818173704738B5DFF801
:1049D000504605202060FEF7A7F900F00DF8DFF83B
:1049E00044166FF0040008600DB9FEF799F9E06B0A
:1049F00040F00400E06331BD05462A20FEF7D9B936
:104A000080B5FEF7ECFFDFF8141600204871BDE812
:104A10000240ECE210B5DFF8044601206073207B11
:104A200018B900F003F80020607310BD38B5DFF846
:104A3000F005DFF8F045016C4908490001640521E3
:104A40000160ED2060606060FEF76EF9FFF7D4FF53
:104A50006FF0040020600DB9FEF762F9DFF8BC4585
:104A6000606918B104F11400FCF7C9F80FF23D00B9
:104A7000A17920612079084305D000202071A07120
:104A8000BDE8314071E231BD10B5DFF89045607B83
:104A900058B9012020732069804700202073607B73
:104AA00018B1FFF7C3FF0020607310BD2DE9F84F68
:104AB000DFF868452079002708B1FFF71DF881204D
:104AC0002071DFF86405007838B1DFF86055686A56
:104AD000000606D4686A400603D4277100F045FA40
:104AE00048E100F002FCA86E40084000A866A771EB
:104AF00004216079A0722046FFF747FF2078DFF895
:104B0000308500F07F00C01EE071C0B27D28BEBFBE
:104B1000607800F0070104296ADA00F00700022833
:104B200004BFE07A0028DFF80C6539D100F071F994
:104B3000FEF7FAF800F0010080F0010530788628D1
:104B40002AD1DFF8F464306808B9FEF7D5FF9DF983
:104B5000000000AFA0F14908787800F07F094946CD
:104B60004FFA88F0FEF7DAFB31684877306880F852
:104B70001E90306880F81F800DB1FEF7D1F878786C
:104B8000000606D5607800F01001E078FEF76BFEB5
:104B900033E0FEF78FFE30E07DB3FEF7C1F82CE086
:104BA0003078862808BFFEF785FE6078A17A71B15B
:104BB000E27A62B9012935D0022902D107221042D6
:104BC00030D1032903D100F0070103292AD1A178AC
:104BD000C1F381028DF802204FEA91191146DFF8E6
:104BE0005C24126862B9B9F1010F18BF012907D11D
:104BF000ED20C8F80800C8F8080000F099F9B9E0FD
:104C00000FF25042895C19F802205618B9F1000FD2
:104C1000F6B203D0410644BFB61EF6B2E179B21C2B
:104C2000914202DA00F0AAF9A4E0891B891E6172A0
:104C3000000748BF2527C9B2C8194C3080B2FBF71E
:104C4000D2FF606118B9E820C8F80800EAE7E07A06
:104C5000002718B9607800F02000A071A07990B307
:104C6000FEF762F800F0010080F0010A607800F0C1
:104C7000070003280CD1FBF7A1FF00286BD1DFF858
:104C8000C0030078002862D009F01BFDFE2862D026
:104C9000286820F004002860FEF746F88346FFF7F6
:104CA000ACFE6FF00100C8F80000BBF1000F08BFB8
:104CB000FEF736F8A86E40F00100A866BAF1000FC2
:104CC00018BFFEF72DF8606900F14C014160011D2D
:104CD0004268CA63627A0A7180F8442061780907E1
:104CE0000FD5032180F84410611C606990F84420BE
:104CF000006CFDF7C7FD6069016C90F84420511805
:104D00000164606980F8249061699DF8020081F86F
:104D10002E00FFF7A7FC61690863FFF78AFC616951
:104D20008886607800F0070008736169E07881F890
:104D30003D006178A078C0F3011001F078010843CC
:104D40006169384388735EB900F05EF812E0FBF7E2
:104D500028FF00289CD02868042740F004009AE728
:104D600026726178207A090758BF401EA8620FF2A8
:104D700009002061BDE8F18F30B5A84C207A85B0DC
:104D800008B9FEF7B9FE00F043F8A07800A9C0F317
:104D90008100C8B162699DF800304D7803EB0523AE
:104DA00013870328138FD38608D10DF1020102F176
:104DB0002600FDF7A1FF0DF10A0105E08878C9780A
:104DC00000EB0120D08401A9A078800915D0626988
:104DD000937B5B0605D40B784D7803EB0523D386D4
:104DE000891C032804D102F11C00FDF785FF04E0B3
:104DF0000878497800EB0120908300206169C8752C
:104E000000F002F805B030BD0FF23100206103E080
:104E1000217A00A8FFF7B9BD8048814A417A29B9B3
:104E2000012111600FF23901016170471029A8BFFB
:104E300010210172007A401E1060704710B5774C47
:104E40006069217A006CFFF7A0FD6169207A0A6C25
:104E500082180A64617A081A6072BDE81040DBE7C4
:104E60002DE9F8436D4D002402212846FFF78DFD02
:104E700068786E4F00F080085FEA080002D1E87A97
:104E8000022840D1E720FEF7BFFB02202871FEF781
:104E9000CDFD2857A0F14906687800F07F09494602
:104EA00070B2FEF73BFA696981F83A00686980F8E8
:104EB0003C60686980F83B906869011D00F14C0214
:104EC000CA6390F844300E7942689B1B9A1842607E
:104ED000887A400706D51078042803D0386820F077
:104EE000040038605648007818B109F0F1FB00B1B1
:104EF00004246869817B44EA08021143817368696C
:104F0000FBF782FE0BE0E820FEF77EFBB86E400860
:104F10004000B866AC7105F11400FBF770FE00208C
:104F200068610520B8624748C5F81000BDE8F14344
:104F300045480168490606D50068000603D4434881
:104F4000ED21016001600021344801718079002861
:104F500008BF00F00AB8704730480021817100791D
:104F6000002808BF00F001B8704780B5FEF75EFD6D
:104F7000FEF717F9BDE80140FEF709BC10B5274C54
:104F800030492069884218BFFEF7B6FDE079002855
:104F900004BFBDE81040FFF7CBBF1028A8BF10200A
:104FA00020721F49207A401E08600FF2090020611C
:104FB00010BD00001FB5194CFFF72AFFE079217AD8
:104FC000401AE071C0B2164928B1102809DA2072DF
:104FD000401E08601FBD052008601A482061FFF7C9
:104FE000A7FF1FBD0D48817B491C817312E510B5D9
:104FF0000A49174CC872010005D1002020602068C2
:1050000040F0090007E002281CBF0128FEF774FDEC
:10501000206840084000206010BD0000304F002094
:105020005086084034880840764F00202886084083
:1050300030880840505000207C400020485000201C
:1050400028510020AD4A20004C860840388808408E
:105050000086084000BE040A62B38B0708D0521EC7
:1050600011F8013B00F8013B00F024808B07F6D1DA
:10507000830740F0208000BF103A07D330B4B1E876
:105080003810103AA0E83810F9D230BC530724BFCA
:10509000B1E80810A0E8081044BF51F8043B40F8FC
:1050A000043BD20724BF31F8022B20F8022B44BF67
:1050B0000B7803707047083A07D3B1E80810083A34
:1050C00040F8043B40F804CBF7D25307E4E7000074
:1050D00038B5134C207808B3124D29680903FBD565
:1050E00011490A6842F003020A600A685207FCD5B7
:1050F000022804D109F090FBFFF768FC08E00128C2
:1051000018BFFEF7F9FC2868000358BFFEF7F4FC4F
:1051100000202070BDE83140FEF775BC31BD0000B5
:10512000AF42002004200D400488084010B5FDF770
:10513000FBFDDFF8281300220A604A688C6808B972
:10514000FDF7EEFD2406600E10BD38B5C248C44C14
:105150000068C00648BFFEF7CFFCC24801210167C6
:105160000160E220A060FF20A060FDF7DDFD00F0FF
:105170003DF96FF0100020600DB9FDF7D1FDFDF78E
:10518000D3FD00F033F96FF008002060002D04BF5C
:10519000BDE83140FDF7C4BD31BD80B5FFF7D5FF97
:1051A000B148BC210160B82101600F210160D0210C
:1051B0000160016001600EE080B5FFF7C6FFAA48FC
:1051C000BC21016017210160812101601021016073
:1051D000D22101608121016010210160D221016092
:1051E000D92101600121016009210160BA2101601A
:1051F00001210160C5210160D221016001BD10B50E
:1052000000F064F8994C08606FF002002060FDF730
:105210008BFD0021616000F00100A168E268944B01
:105220001B68122B80F00100D2B204D2C9B252EA3C
:10523000010308BF491C03236360C9B2A160E26097
:1052400008B1FDF76DFD00F045F8E120E06210BD0A
:1052500080B5FFF77AFF8448BC21C0E72DE9F04113
:105260007D48016841F010010160016841F00801CA
:105270000160FDF759FD00F0010080F00108774D55
:105280007C4C0020286068686E69F6B206F00F005A
:10529000C0F10F07FFB22760FEF7A1FB012076499E
:1052A0000870E120A862002028606868686986426A
:1052B00003D0022FA4BF781E2060B8F1000F1CBFDE
:1052C000BDE8F041FDF72CBDBDE8F0816B486949B0
:1052D000007870476048016841F010010160016882
:1052E00041F008010160FEF7BFBB5E48006800B1F5
:1052F000704780B558480168C9060CD5016821F08F
:10530000100101600068000748BF00F07EF8BDE8AA
:105310000140FEF787BA01BD2DE9F8434E4C2068E5
:10532000C00648BFFEF7E8FBFFF700FF8146544880
:105330004E4F0678152EB8BFFEF7DEFB09EB0600D0
:105340001438C0B2142190FBF1F1142202FB1105B4
:10535000484E491C0220EDB2B0605FFA81F8C6F8F1
:105360000080152DA8BFFEF7C7FB6FF00200386064
:10537000FDF7DAFC03213E4A796000F00100126873
:105380006902122A80F0010002D289B201B901211A
:1053900089B2CAB2BA60090AF96008B1FDF7C0FC67
:1053A000E220F862FF20F862FDF7BEFC00F01EF874
:1053B0006FF0100078620DB9FDF7B2FCBC20F86206
:1053C000B820F862D220F862206840F01000206017
:1053D000E120F862FFF7AAFE484505DA306840454B
:1053E00002D13068401E3060BDE8F18305462A20B6
:1053F000FDF7DFBC1848016821F010010160E221CF
:1054000019480160FF21016070471348016821F0CD
:1054100008010160FEF783BA80B50F48016821F0EA
:10542000100101600F480168002904BFBDE8014078
:10543000FEF7F8B90168012904BFBDE80140FEF795
:10544000C8B90068022818BFFEF756FBBDE8014046
:10545000FEF730BA0000000090860840108808402F
:105460003088084090870840388808400C880840F9
:105470004850002088870840764F00205350002075
:10548000644A002070470000A24908701021FDF70F
:1054900063BB70B50C4620048CB09E4D0ED46004E6
:1054A00033D509F05FFA18B109F09EFA09F03FFA16
:1054B00084F48040D3E03046FDF73EFA2878FDF7CB
:1054C00079FA06001ED0307801280BD01A280DD0AA
:1054D000D1280FD0D32811D0FD2804BF304609F0C1
:1054E00077FDE8E7706809F07FFAE4E7304609F0F5
:1054F00082FDE0E730460AF038FDDCE730460AF08E
:1055000081FED8E784F40040A9E0A00407D509F0A3
:1055100029FA08B109F068FA84F400509FE0E00429
:105520007D4E23D5B06848B9301DFDF7AEFAB060A6
:10553000F06018B14078401D708001E0B06890B113
:105540007288F168002004F0A1FF7188091A718047
:1055500089B229B9B068FDF7EFF90020B06002E028
:10556000F1684018F06084F4805078E0200505D59B
:1055700000200BF077F984F4006070E0600505D539
:1055800001200BF06FF984F4806068E0A00505D578
:1055900002200BF067F984F4007060E0E00505D5A7
:1055A00003200BF05FF984F4807058E0E0064ED5DC
:1055B000307808BB01208DF8000000A904208DF888
:1055C000010001208DF802000520ADF80400AA209A
:1055D000ADF80C007820ADF8180005208DF8060015
:1055E00001208DF820000FF209100A90002004F02D
:1055F0004AFF28780BF048F90022022140F601709A
:105600000BF0D4FD0022022140F602700BF0CEFD1B
:105610000022022140F603700BF0C8FD0022022197
:1056200040F604700BF0C2FD0022102140F6057018
:105630000BF0BCFD0022102140F606700BF0B6FD09
:1056400009F002FE0BF0F7F884F0100007E02007E5
:1056500004D509F089FA84F0080000E000200CB0BD
:1056600070BD80B52C4A127832B9481D80B2FDF762
:1056700051F970B1401C02BD00F0E00060280846FE
:1056800004BFBDE8024009F0F3B8BDE8024009F0EC
:10569000FAB802BD70B5204D04462878A8B9207824
:1056A000C61CF1B220460BF0F2F8F6B2611E30557E
:1056B000FE200870281DFDF7C8F9BDE870401548A8
:1056C00000784FF48051FDF747BA607800F0E000B1
:1056D000602804D12046BDE8704009F0D8B82146C2
:1056E000281DFDF7B2F9BDE8704009F00AB90000C5
:1056F000084A127801291CBF0229042902D0102966
:1057000003D0704711460BF0CFB84FF480511046CC
:10571000FDF722BA2B510020AC4F002010B5DFF866
:10572000D818DFF8D8480870002084F826000BF05D
:10573000D9FEFEF763FC0020606706F04DFD00F027
:1057400056FC18BF012803D10BF076FF07F0AEFA24
:105750000BF0DDFEDFF8A81800200860BDE810405F
:1057600007F064BA2DE9F043DFF88C5828780C462E
:1057700021048FB01CD5FDF71DF9050015D00020C0
:105780000FF2F02100E0401CC0B2024611F83230A6
:10579000FF2B07D02E78B342F5D101EBC20128468A
:1057A000496888472846FDF7C7F884F400405DE162
:1057B000A1040BD5FEF72FFE050004D000F032FC4B
:1057C0002846FDF7B9F884F400504FE1DFF83418AB
:1057D000DFF834780978022984F4804627D1E3077A
:1057E0000ED5387D0F2808D1002000F07CF920B1BB
:1057F000DFF81808006800F02AFA84F0010035E1AB
:10580000630414D5DFF80808017806290AD10B21B2
:105810000170DFF80008017897F90020012090401E
:105820000CF075FDDFF8F00702682878FDE0A306AC
:1058300040F1A1802021FEF7E5FA6968084308BF1E
:1058400001260BD0FEF758FB6968002621B188427B
:1058500034BF4FF0FF36461A76085BD000F03EF9B1
:1058600007460DF1140832E0FF208DF800008DF896
:10587000010001AA4FF0FF308DF802003868C17FA7
:10588000006A05F080F801281BD1788A40F080007A
:10589000A8F81E00B97B8DF83410B97A090706D52F
:1058A00040F48070A8F81E000DA9387B88707869D4
:1058B00010B1007BADF81400002200A901A80CF083
:1058C000FFFF06207873387BFEF73CFC4F460FB392
:1058D000002204213846FEF7D7FC81463889B042C1
:1058E0002CBF801B0020388138890028EED1B87B7E
:1058F00001280AD1B87A4007B6D406207873B721B8
:105900003868407B00F081F9E0E70028ACD1012045
:105910007873DBE7FEF777FB002201210020FEF71A
:10592000B3FC18B128782021FDF716F900F0D6F85D
:10593000E8B1078903E001898F4288BF0F46002242
:105940000421FEF7A1FC0028F5D1B6B22878BE42AA
:1059500002D2BF1BBFB227B92021FDF7FDF80020FE
:1059600005E07A002021FEF708FAFEF7C5FA686024
:1059700084F020007AE0002918BF01295BD1E006FD
:1059800004D507F047FD84F010006FE0600604D5F1
:1059900008F0A1F984F0400068E0200604D50CF07E
:1059A0004BFC84F0800061E0E00504D506F000FACD
:1059B00084F480705AE0200516D507F046FADFF827
:1059C0005C06007801280CD1DFF85406007840B15D
:1059D0004FF47A7101FB00F228784FF40061FEF772
:1059E000DBF984F4006041E0E00408D5687818B180
:1059F0000020687007F029FA84F4805036E06004D3
:105A000019D5DFF8800C0068010012D0DFF8781C8F
:105A1000097801290DD18047DFF8700C006801007A
:105A200018BF804728784FF47A724FF48041FEF710
:105A3000B3F930461AE0A00504D506F07EF984F4E7
:105A4000007013E0600510D5DFF8440C008805F005
:105A5000BFF9DFF8BC0C008805F0B6F9B889012160
:105A60000DF044F884F4806000E000200FB0BDE841
:105A7000F08300000100000019672000060000000C
:105A80002D6F200008000000B16E20000B00000008
:105A9000237020001000000051DF20000A000000E9
:105AA0002571200002000000C568200005000000EC
:105AB0006D6C200007000000DD6920000C00000074
:105AC000615D20000D0000002560200064000000E2
:105AD0000B1B2100FF000000000000000022042139
:105AE0000020FEF7D1BB00B587B0182201F070F896
:105AF00002208DF80800DFF80405418B808CADF89A
:105B00000A00ADF8001000208DF8140000A807F07E
:105B100054F807B000BD10B50C008EB012D001468D
:105B200000AA204604F02FFF9DF8060050B19DF812
:105B30001C309DF80120214600200DF0B9F808B175
:105B4000A42000E000200EB010BDF8B504464FF6CA
:105B5000FE756089410609D5206800F0D4F910B1BE
:105B60004FF6FF703AE02068008835E0DFF89414C3
:105B70000A78002A18BF012A2AD1DFF88014897B0D
:105B8000890725D52768396A0A794979C0044CBF45
:105B90004020002002EB012600902B46228B388803
:105BA000B1B207F077F9B6B2B0421CBF218B884280
:105BB00012D12068018800230222304605F09AFDA8
:105BC000CD252068407B294600F01FF8B0B11AE0CF
:105BD000022AF5D104F0F6FFA842F1D0216808802E
:105BE00005F004FC014620684A1E9241D20FC28192
:105BF000DFF8C81C06F0E8FF0500E2D11CB1012166
:105C00002046FEF726FA2846F2BD38B504460D4672
:105C10001420FCF77FFE60B10C210170847000211C
:105C200081734570014601F0B8F8FCF794FE00203E
:105C300032BD2046FEF737FB38B106214173007BA9
:105C400008F072F92046FEF77DFA102032BDDFF829
:105C5000701C8A790F2A0CD158B10978082918BF0D
:105C6000042906D10246DFF8900300780121FEF7EF
:105C700084B87047F8B504461646002030800D46BB
:105C8000A06A00781F4605F07FFB38B1608905F0F7
:105C9000ADFB022802D16089308000E00027A16AB4
:105CA000DFF858030978491E0A2953D8DFE801F0C4
:105CB000060C1A1F112C52373B4349003246294625
:105CC000204607F0ACF93AE02946204607F07FFA73
:105CD00044E0608905F08AFB00283BD1204607F0AC
:105CE000FFFD3BE03946204605F02BFD27E0217FF4
:105CF00002292FD11FB96189C08A81422ED1214644
:105D0000384605F0B0FA1AE06189C08A814204BFC2
:105D1000207F02281ED1204605F0ACF91EE0204667
:105D200006F09EF91AE06189C08A814212D12046AC
:105D300005F0D1FD12E02146384605F033FE074656
:105D40000CE001F0EDF818BF002707D1204605F060
:105D500077FE03E0D3200CF0F3FF00273846F2BDB6
:105D60002DE9F041044690B0A078A64EFEF79BFACC
:105D700005003ED06078DFF8607CDFF88082E87351
:105D80006078F12818BFCD2804D01A281CBFE92854
:105D9000E12871D13078002818BF012836D16889F0
:105DA000000533D5052068733078002818BF012816
:105DB00017D16078E92814D03868010018BF8047EF
:105DC000DFF8807C386860B198F80E00800708D54D
:105DD00028684189008806F0BFFA10B161783A68F6
:105DE0009047687B022801D106206873A078FEF7EF
:105DF000A9F9FEF708F93078022804D1DFF8480C39
:105E00000088FFF724FF10B0BDE8F081002128468C
:105E1000FEF71FF980B33078002818BF012824D17D
:105E200098F80E00800720D52968086AE8B1C97F74
:105E300003AA04F0A8FD6378E92B01D100F066F80D
:105E40002968BDF8160008809DF81100BDF81810EB
:105E50000028BDF8160014BF4022002207F07DF88C
:105E600018B1688940F0200068816A8961782889C2
:105E70000BF0D3FB288197E760788DF80800019537
:105E8000A07B8DF80900287C002801A811D10CF016
:105E900099FC3078002818BF01280CD19DF8080023
:105EA00048B900F02FF830B93868010003D08047B6
:105EB00001E005F02BFA9DF80830E92B01D100F044
:105EC00025F83078002818BF01288AD198F80E00EC
:105ED000800786D5687B02280DD1A87A40070AD5AD
:105EE00000F010F828B929684FF6FF7008800520E7
:105EF0007BE7032079E76078E92802D1284605F09E
:105F000038FE6EE72868008805F070BA286801211D
:105F100000914189E27B008804F06BBE2DE9F041DD
:105F2000861C0025F178002491B13189FF200DF005
:105F30000BF9082520B1F07840F001002C25F07015
:105F4000F07800F00300012844D145F0110541E04C
:105F500000F12408F07EDFF8FC7CB0B1F17F00296D
:105F600018BFFF2909D130893988884208BF222506
:105F700030D0387C04282DD105E0D8F80020B07F3F
:105F800007F06BFD30BB012424E0308905F02EFAC8
:105F900002283089398808BF0125884208BF45F0AA
:105FA000020535B1317800290CBF45F0200545F0D8
:105FB000400505F01BFA0128307808BF45F00105BF
:105FC00040B1D8F80400007805F0DEF9012818BFC8
:105FD00005F0FE0500F00BF818BF012804D1A80752
:105FE00002D40CB945F080052846BDE8F08105488B
:105FF0000078002870470000A8500020EC490020DD
:10600000145100203C510020044A0020804200200E
:1060100012410020DB420020E850002033510020D4
:10602000345100202DE9F14F94B04FF6FE70ADF8D9
:1060300010004FF000081498061DDFF8D80600780D
:106040000228C14608D1307900281FBFDFF8080CAC
:1060500000880028FFF7FBFD3179306805AA04F0BD
:1060600092FC00286DD00DF11507012478780228E4
:10607000F878A8BF00240228BDF81E00A8BF00249D
:106080004FF6F87188421CBF4FF6F971884207D06D
:106090004FF6FA7188421CBF4FF6FB71884200D15F
:1060A000002405F08BF9B97881424AD1002C48D000
:1060B000DFF86006007802280EAC02D1607B002871
:1060C0003FD1308B20810DF11E05708CA88078792E
:1060D00038B1AB7C9DF81520316801200CF0E8FD4B
:1060E000D0B905A8FFF71AFF8246DFF8B80C039075
:1060F000787998B90398007800281CBF0AF022002C
:1061000022280BD00AF04200422805D160680078AE
:10611000062818BF072801D0CF20BEE01AF04000A3
:106120008DF8040026D0FFF762FF18BF012809D1BF
:106130000398C078800705D560680078401E0A285B
:106140000BD9A9E060680078032818BF042804D0A0
:1061500007281CBF0A280C28F3D16068017803299E
:1061600004BF40780D2805D005A805F0A8FA01283D
:1061700000F08482DFF8DC0A029002991498C98941
:1061800000F13A0BB08E884208D1CDF800809BF820
:106190000020718E308B002304F02BFD787918B32A
:1061A000718E308B06F0D8F8002800903CD0306813
:1061B0009DF8151008180099407BC978814204D0D9
:1061C0000099C8700099C1F8048030689DF81520C6
:1061D00010180421401CFCF77DFB00994968884297
:1061E0004BD30099401C4860DFF82805007802284E
:1061F00044D10298007C042818BF09283DD15FEAE9
:106200008A6025D500F04CFA287A012802BF6888F8
:10621000318B884207D1BDF81E0005F0E7F802284F
:1062200001D185F808808AE0DFF8FC0C90F86C005A
:106230000128D9D160680078062803D19DF80400B0
:106240000028D1D1A8884FF6FF71884215D012E1FD
:106250009DF80400002810D060680078042878D0E9
:10626000072800F08080032808BF002100F0858007
:106270000C2802D105A805F048FCFFE1002818BF52
:106280000128FAD10398C0788007F6D5607B60B109
:1062900068880BF0C3FA18B9D3200CF051FDEDE17A
:1062A0003068417801F0DF014170287A38B13068F8
:1062B0008179491E817130688079287208B90AF0A5
:1062C0007F0A5FEA0A7021D55FEA4A704FF480586E
:1062D00006D5387900F0E300387140EAD00011E0CB
:1062E0005FEACA600FD53879C0F3820121B107296E
:1062F00004D0491EC9B209B90AF07F0A00F0E300D0
:1063000040EA810038713168387908720298007C5F
:10631000042818BF092834D10299BDF81E00098845
:10632000884208D005F062F802281EBF387900F0D4
:106330000300012808D1787838B900F0B1F900A934
:10634000F26A05A80CF0BCFA98E1606800780428AD
:1063500007D1A87C022803D105A9002004F083FFFF
:106360008CE1072806D1A87C0428F9D105A804F0FF
:10637000F3FE83E10328FCD1002105A805F0E1F933
:106380007CE10AF008008DF800001AF0610052D09C
:106390005FEACA7028D5318B05A807F0C5FC08BB99
:1063A00004F018FC8146287A002802BF6888318BE7
:1063B000884219D0318B4A4605A807F001FD60B12B
:1063C0009DF80000002814BF4FF6FF70BDF81E00B6
:1063D000ADF8100048F0040806E00AF0DF0A4FF0BC
:1063E000000901E00AF09F0A5FEA8A6010D59BF875
:1063F00000008DF8000000A99BF801008DF8010055
:106400009BF802008DF8020005A8F26A0CF058FA19
:106410005FEA4A600ED5318B4B4604AA05A8FFF708
:1064200029FC5FEA000905D060680078012801D1E5
:1064300048F01008C8E07878012802BF6168097840
:10644000052902D100F026F918E1012802BF606891
:106450000078032806D1BDF81E000BF0DFF908B163
:1064600000F018F9287A58B97878012802BF6068D6
:106470000078032803D0149905A800F01EF9FDE068
:10648000FDF7D2FD0028FAD1E87C70B30E9AE97DC1
:10649000A87D07F0E2FA28B3E87D48F0400440B94F
:1064A000BDF81E00ADF810000BF0D0F9002818D18F
:1064B00016E00E9907F0CCFAADF810000820F97933
:1064C00001B11020B97909B10830C0B2397909B1E8
:1064D000401CC0B2401C3168C0B2425C521E4254E3
:1064E000A0466EE000230B2257E0BDF81E00ADF879
:1064F0001000F878002804BF9DF80000002852D151
:10650000787801281CD0BDF81000002107F007FEA4
:1065100020B14079012818BF022811D0B18EBDF8F2
:10652000100005F019FF28B1807806F057F808B17F
:10653000082805DB68880BF071F960B30420F87057
:106540000023BDF81E10F8780DF1310207F078FE37
:1065500030B13068017801F03F0148F02008017047
:10656000E87C40B1BDF81E100DA804F0EAF9ADF8C2
:10657000100048F040087878012805D06988BDF8F7
:106580001E00002207F08AFA9DF80000002814BFC0
:10659000402200220DE000230222BDF81E10688870
:1065A00005F0A8F86AE09DF800000028C8D0402354
:1065B000C7E76988BDF81E0006F0CFFC08B148F0B7
:1065C000200804F007FB8146BDF810004FF6FE716D
:1065D0008842DFF8B40B007808BF4FF000090128AB
:1065E00025D1318B4FF6FF70814220D0BDF81E00BF
:1065F0004FF6F97290421ADA6888814217D00BF090
:1066000025F9A0B10179012918BF02290FD1012173
:106610008DF800104088ADF80C0000A80CF0B9FF10
:1066200028B101A80BF047F908B102F097FD5FEA25
:106630000A6023D5B9F1000F20D03079FCF78CF82F
:1066400004001BD032793168FCF71CF97878BDF86A
:1066500010108DF84800CDF8048000201390CDF87C
:10666000009012A80390002002903379328B2046CC
:1066700004F04EF810B12046FCF7D4F815B0BDE890
:10668000F08F0000144F002039510020204F0020CF
:1066900022510020318B002304AA05A8FFF7EABA93
:1066A0009BF800008DF800009BF801008DF80100B8
:1066B0009BF802008DF80200704738B50D4604467D
:1066C000DFF8C81A6089097841B1DFF85C18C98A17
:1066D000884204BFBDE8314006F0B7BB002107F097
:1066E0001EFD00281EBF80791821084208D0E88CC2
:1066F0000090AB8B627F6189A08907F0E3FD31BD1B
:106700006189A089BDE83840002206F057BE00002C
:10671000245100203C5100202DE9F047044686B06A
:10672000A01C0BF096F8054666780127A11C00F026
:10673000BBFB02208DF816004FF6FE7900208DF885
:1067400008004FF00108DFF8480A0078ADF814900F
:10675000002808BF002D03D116B94FF0C30874E01C
:10676000DFF8C40790F82600082818BF4FF0C208C9
:106770006AD1A07A810704D5000754BF03270427F4
:1067800002E0000748BF02271DB32879042818BF7C
:10679000032803D1042F18BF032F07D0022818BFE6
:1067A00001280DD1022F18BF012F07D1288804F02E
:1067B000A1FE70B92888ADF814000AE0022801D0C3
:1067C000012802D1288806F014FFA01C0BF073F8F2
:1067D0000025BDF81400484514D10CF05FFF88B9BE
:1067E0004EB1DFF8B0A9BAF8000004F083FE10B98A
:1067F000BAF8000004E0A07A00F0020006F0C0FE43
:10680000ADF81400BDF81400484508BF4FF0C708A4
:106810001AD0A27A3346A11C0CF06AF9A0B9BDF8CF
:1068200014003A46A11C0AF028FF05000AD0022EE7
:1068300003D1687940F00800687100208DF81600D7
:10684000804601E0ADF814901EB900A806F073F977
:1068500004E03246394600A804F03CFC01469DB1F4
:1068600046B1687940F040006871022E04BF40F0E4
:1068700020006871A07A400603D5687940F0800056
:106880006871A879401CA87151EA080013D0B8F1CA
:10689000000F41F2010018BF414600D109B10AF0D2
:1068A000BBFE15B1A01C0BF006F8BDF8140048455E
:1068B00018BF06F09EFE06B0BDE8F087175B20000B
:1068C000124A00202DE9F041DFF85C8608F10E0441
:1068D0000646207E03281CBF0128092884B078D1F1
:1068E0007178DFF8B458DFF8B478002953D102206A
:1068F0000AF092FE70882081B11C532006F006F940
:10690000207E09281CBFE08A05F011FD01208DF8CA
:10691000000000A9422006F0F9F80420207601A921
:106920004A2006F0E5F801A908F11C00FCF7E4F99B
:1069300038780B2802D10620387003E0E08A002165
:106940000CF0D4F82878002818BF012809D1A089B4
:106950004FF6FE7188420ED0002201A90AF08DFE8A
:1069600009E0022807D1218903200AF055FEA189F8
:1069700004200AF051FE2078C00800F001008DF8D4
:10698000000000A9522006F0C1F8287802281ED184
:1069900000F0E8FB1BE041F203000AF03DFE28781E
:1069A00002280ED13878DFF8F8170B2804BF0A2028
:1069B0003870002008704FF4804100F0EEF9FDF7C8
:1069C00008FA7178E08A0CF091F80020207600F047
:1069D0001BFBBDE8FF810000D44F0020DFF8C41787
:1069E0000968E1B9DFF8402592F82620012A04D091
:1069F000052A08D0062A0CD011E0DFF8AC17096888
:106A00000A001DD00847DFF8A41709680A0017D04C
:106A10000847DFF89C1709680A0011D008470029C9
:106A200019BF8979012940780CF058B8022908BFAC
:106A300005F042B9DFF87C1709680A0018BF08475B
:106A400070470000D84F0020C04200202DE9F043DD
:106A5000DFF86457DFF8D0840446287883B04FF419
:106A60008061FDF7B6F901A9502006F041F8102029
:106A7000FBF750FF060008F116074FF6FF7908D024
:106A8000607830B9F88948451CBFBDF804108142D0
:106A900015D0EA2060703946532006F037F808F127
:106AA0001A014B2006F032F808F12401502006F0BC
:106AB0002DF808F11801E12006F028F86EB3022045
:106AC0003070F88948451CBFBDF8041081421CD1C4
:106AD000BDF80400F8813946532006F009F83888DB
:106AE000708008F11A014B2006F002F808F1180135
:106AF000E12005F0FDFF002000900023DFF8BC0638
:106B00000278F989B88804F074F8607870703146BA
:106B1000032038742878FBF71EFFBDE8F783F0B533
:106B2000DFF89C46E36D074620697968884387B0A3
:106B300020617F217F25002220FA02F6F60712D578
:106B40004FF0000C1E4606E096F802E0B669964546
:106B500008BF0CF1010C002EF6D15FFA8CF68E42C4
:106B60003CBF31461546521C1B2AE5DB786858B1FC
:106B7000206100F02CF87868009001208DF8040066
:106B8000A07D00F06BF820E01E4606E00CF022F835
:106B9000A081318881420BD0E66D4EB1A089318849
:106BA000814202BFB178EDB2A942EFD0B669F4E7F5
:106BB000257000F0F9F840B10020A073DFF804065A
:106BC000016808001CBFC420884707B0F0BD1C2224
:106BD000002100A8FBF76EBE2DE9F041C668DFF882
:106BE000488388B0002708F12805286820FA07F1B3
:106BF000C80709D5BC5D04F0E5FBA04204D22868B3
:106C00000121B940884328607F1C1B2FEDDB2868D9
:106C100078B1FFF7DCFF2868009001208DF80400B0
:106C20008DF80700A87900F019F8062088F82600EA
:106C30000DE088F82600002141F204000AF0ECFC87
:106C4000DFF88005016808001CBFC420884708B031
:106C5000BDE8F081024A0020BE4200208DF8050008
:106C600000208DF8070000A805F070BF30B505467C
:106C70008DB06C68297C686908AA00F022FA9DF83A
:106C8000200000281AD1287C0B285CDB207A0228FF
:106C900004BF207BFF2811D1A348DFF80825126824
:106CA00000F12405A978022918BF062910D012B1D5
:106CB0009379012B15D0082918BF04296BD19DF8B1
:106CC00022106489002A3FD09279022A3CD15CE0EC
:106CD0003AB900200090627C61892088002303F08B
:106CE00088FF2088ADF8080008226089ADF80A0006
:106CF0000DF12701A07B8DF80C00A089C00B8DF849
:106D00000D009DF824008DF80E009DF826008DF8EA
:106D10000F009DF821008DF811009DF822008DF8DC
:106D20001000607C8DF812009DF825008DF813008E
:106D30009DF832008DF814000DF11500FBF7A2FD4F
:106D400002A80BF0D1FE26E02A88A24223D1012915
:106D500005D00DF127013930FBF7C0FFD8B900F09D
:106D60001CF84FF40071FDF74DF8A0B96868009069
:106D7000A87A8DF8040001208DF8050002208DF816
:106D8000060000A80BF0BCF918B9204604F07AFF01
:106D900001E00BF0DEF90DB030BDDFF81C04007827
:106DA00070470000F7490020F0B58FB05E4C05F049
:106DB00013F804F12405E61CA878082807D0DFF8AA
:106DC00008040078B07030700120E8602861242247
:106DD000002106A8FBF76EFD287DDFF8F073411E49
:106DE0008941C90F0F208DF822108DF800003870EE
:106DF00000A9462005F08AFE00208DF80400DFF887
:106E0000D00300788DF8050004F0D8FA8DF806005C
:106E100004F1390100208DF807008DF808008DF885
:106E20000A00287D0F28A8BF0F208DF8090000F068
:106E30003BF80322FF210DF11300FBF73BFD94F813
:106E400072003A788DF81600391D01A800F00EF98D
:106E5000391D452005F05AFE04F091F8287A8DF886
:106E6000200004F11601687A8DF82100707D8DF8FC
:106E70001E002888ADF81C0000208DF82400E87A58
:106E80008DF8230000208DF838008DF82D00532058
:106E900005F03CFE04F11A014B2005F037FE06A870
:106EA00005F078FE0FB0F0BD0DF10B00FBF724BF2D
:106EB00010B51D49407801F1160410B1002020746E
:106EC00010BD0820207491F8380068B9BD480168E9
:106ED00008001CBF00208847E18905200AF09CFBC0
:106EE000E08905F024FA0AE000200BF0FBFD218880
:106EF00006200AF091FBA18804200AF08DFBB5481A
:106F0000006860B100F00CF809D1FFF746FFBDE85A
:106F100010404FF47A724FF48041FCF73DBF10BD32
:106F2000AD48007801287047EC49002030B505468F
:106F300087B0A81C0AF08DFC040039D02079012804
:106F400018BF022803D0032818BF042830D1A91C79
:106F5000FFF7AAFF2088ADF8140001208DF8160075
:106F600000208DF8080000A805F0E9FD0146072083
:106F70000AF052FB607900F0FE006071012060723F
:106F800096480078401C00EBD07040102072FFF74C
:106F9000C7FF02BF82480078022809D12079012862
:106FA00018BF022804D1A069E061012084F8200004
:106FB00007B030BD2DE9FC410D4690460FF230215F
:106FC00004460CC900A821460CC000A8FBF786FEA9
:106FD000002700B901278248466F06E0214606F1E6
:106FE0000C00FBF77BFE30B9B6693EB1002FF5D13E
:106FF0003088A842F8D1B0784045F5D13046BDE898
:10700000F6817748406F704738B5754C606F00283F
:1070100003E08569FBF706FC2800FAD100206067D1
:1070200031BD38B50446207D032804D104F10C009D
:107030000AF00FFC04E0022817D1A0890AF006FC30
:10704000050012D0607878B1F12812BFE128A87944
:10705000012806D1288806F0CCFA04F10C000AF0C9
:107060002AFCA87908B1401EA87131BD70B504464C
:10707000154620780870CE1C60784870A27840EAE7
:1070800002104870E0788870227940EA82008870A7
:10709000627940EAC2008870A27940EAC210887022
:1070A0000822E11D3046FBF7EDFB0836032204F110
:1070B0000F013046FBF7E6FB0F2DA4BFA07CF0705C
:1070C00070BD70B50646144616F8010B20700D46CB
:1070D000307800F00F006070082216F8010B0009EC
:1070E000A070307800F00300E0703078C0F38000CA
:1070F00020713078C0F3C300607116F8010BC0092D
:10710000A0713146E01DFBF7BDFB08360322314676
:1071100004F10F00FBF7B6FB0F2DACBFF078002099
:10712000A07470BD10B5044682B060780BF009FD04
:107130006078EB2818BFE12803D0F12818BF1A287F
:1071400001D10020607000F00DF825480121009168
:107150000022818C6378408B03F04BFDBDE8134027
:10716000FCF751BF1F480068FEF771BD01001E48C3
:1071700018BF0121017070471B48007870470068F4
:107180001A4905F021BD000036510020335100207E
:10719000D2420020D04200203C5100201241002069
:1071A0003751002014510020185100203450002085
:1071B00038500020D04F0020A8500020D642002098
:1071C000044A00203C500020F09821005842002042
:1071D000DC420020144F0020395100200299210088
:1071E000EC4900208042002044510020175B200021
:1071F000FFFFFFFFFFFFFFFF80B50CF0BDFADFF8D8
:10720000A0070FF2B51101600FF2E51141600FF216
:10721000852181600FF29D21C16001BD10B5DFF8AD
:10722000844720700021DFF8800761700088DFF854
:107230007C17A08004F11800FBF75EFDDFF87007F3
:107240000078A070DFF86C07A06010BD2DE9F04F4A
:107250000D46280485B0DFF84C674CD53078FBF735
:10726000A9FB5FEA000B43D00BF114040BF10209F8
:10727000A07A002804BFE089132815D1B9F800A02E
:107280003069002702E0FBF7CDFA404660B1028882
:107290004168524505D1002F884614BF796031619D
:1072A000F1E707460846F1E7617F484600F02CFB0E
:1072B000D8B99BF80000012812D1607903900BF136
:1072C000100320680290494699F811000190207936
:1072D00000900BF11C00B9F80A200CF058FE04E0F5
:1072E000022804BF58460DF068FB5846FBF724FB04
:1072F00085F4004024E0DFF8C0060078002818BFBD
:10730000012808D1E80706D5F068010018BF8047BA
:1073100085F0010014E0A80704D50120F07085F085
:1073200002000DE028070AD500F0ABFA20B9706121
:1073300008213078FCF74DFD85F0080000E00020C2
:1073400005B0BDE8F08FDFF85C26137818B1D16086
:10735000024601218FE2D06001218FE238B5044658
:107360006068007D1030C0B2FBF7D4FA050022D06F
:10737000022028700020687020886881A078287317
:107380006068007D287205F1100068606068007810
:1073900010F0200118BF012169726068027D016947
:1073A0006868FBF76FFA2946BDE83440DFF8F4055A
:1073B0000078FBF7D0BA31BD38B50C4611461A46F5
:1073C0000CF0D1FA050011D021460CF08AFA68B110
:1073D000214628460CF096FA30B96C8828460CF005
:1073E00077FA20460CF070FB002032BDB42032BD8D
:1073F0002DE9FE4381460D46B3264FF000080027D5
:1074000000E07F1CDFF8B4050078FFB287423ED26F
:1074100038460CF007FC0400F3D0607940445FFA72
:1074200080F8C145EDDA182200212846FBF742FA20
:107430006179A9EB08000818C0B204EB4000C088CD
:10744000688103F0B2FB01462846FBF755FC6078E3
:10745000012802D12875608813E0608800A90CF02B
:1074600063FB78B19DF8080028759DF80800032893
:1074700005D100A905F10C00FBF73EFC02E0BDF8C8
:107480000000A8812078287200262079A87530464F
:10749000BDE8FE83428913070BD5920708D5427BCE
:1074A000062A18BFE92903D0CD2918BFF02900D139
:1074B00067E170472DE9FD4F0E46F188F07884B002
:1074C0000CF0BEFA5FEA00084FF0000B72D0317D7D
:1074D000C0B20DF097FC04006CD0F188F078002267
:1074E0000CF0C9FA0546F0786071D946F088E08062
:1074F000B07D608184F808B0327D3169E068FBF7C7
:10750000C1F91398608214982075DDF844A034E026
:1075100068880CF022FB7880287938713178490628
:1075200003D5B97941F00201B971BBF1000F01BF78
:107530007988DFF88C24D28A914214D1B07000206F
:107540000390CDF804A01298059B049902900020A6
:107550000090DFF86C04828C30460DF006FDB8799F
:1075600040F00500B87109F10107F188F078FAB22E
:107570000CF081FA05465FFA87F97DB1C1450DDA55
:1075800004EBC90000F11607002038706878012864
:10759000BED138704FF0010B6888BCE720460DF073
:1075A00046FC0094109A9DF818105346304600F09F
:1075B00014F80FE0F0788DF80300B8F1000FB07DFB
:1075C0008DF804000CBFB92010208DF8050000A82C
:1075D0000DF0C6FC07B0BDE8F08F2DE9FF4F87B076
:1075E000149C20460DF0E2FB054620460DF0F4FB0E
:1075F000002D804600F0C2804FF0000A04E040F009
:107600000800B0710AF1010A5FFA8AFA207C82450B
:1076100080F0B080EDB2002D00F0AC8004EBCA0029
:1076200000F11606B079C007ECD4DFF88C030078BF
:10763000002818BF01284FF0000915D1307898B9FB
:1076400070880AF003F978B10079012818BF03287F
:107650000AD1B0795FFA88F840F08000B8F1000FE5
:10766000B0714FF00109CDD09DF828004FF0000B0C
:10767000082708B14FF0200B0C22002100A8FBF7CF
:1076800019F93078B8B1CE4890F86800012809D1CE
:107690007088ADF800004BF0080BFF2041F208079E
:1076A000307111E00799708888804BF00C0B0C2723
:1076B0004FF6FF7006E09DF8200010B14BF0400B34
:1076C0000A277088ADF8000007988DF802B0007D99
:1076D0008DF8040001208DF8050000A80DF090F948
:1076E0009DF81400B0BB0398407D70710398C78269
:1076F0009DF824104176307820B1B148039990F874
:10770000680008770398618920F8281F618A418002
:10771000217D01710399607981F83A0003993079EC
:1077200081F83B0007990398C98820F83E1F079904
:10773000098941800799497DC17207990398898811
:10774000818707990A7D0969406CFBF79BF800A8BF
:107750000DF0B9F9B07940F00100B0719DF8141046
:1077600000297FF44CAFB9F1000F18BFA8F1010850
:107770006D1E47E70021204600F045F80BB0BDE83C
:10778000F08FF0B5044689B0207B0F460DF09AFBD0
:10779000060023D065691FBB217B04220DF0A7FBE7
:1077A000E5B1A888ADF80E00E888ADF81000287A99
:1077B0008DF81C00F068069000208DF81D002068F0
:1077C000006A00788209287800F0200300F0400168
:1077D00008BF0422009602A8FFF7FFFE09B0F0BD23
:1077E000217B08220DF083FB0028D9D0002DF5D095
:1077F00001977189C9B20091037942880178A8780C
:107800000CF0A7FBCDE77CB501220123002402E0A8
:107810000023641CE4B2057CAC420BDA00EBC40527
:107820002D7FEE07F4D50C263542F1D06D07F0D54B
:107830000022EEE7047A7CB90BB901290CD10121B1
:10784000017241798DF8031040898DF804008DF89C
:10785000052000A80DF084FB73BD0121D3E7514939
:107860000B7820B10022CA700221024603E00120F9
:10787000C870022102E01846FCF77FBA1846FCF7F0
:10788000A8BA2DE9F8434E48464E807B00250024D7
:10789000376900074FF001091ED4FCF72DFB716911
:1078A000421A48490B889A4238BF01202AD34649D8
:1078B0000978B2FBF3F81FFA88F8414534BF8946CE
:1078C0005FFA88F903FB182189B2401A706103E05E
:1078D0003846FAF7A7FF47469FB1F8788145B4BF0D
:1078E000A0EB09000020F870F978786829B9002C1D
:1078F000804614BF60603061EAE73C466D1C074675
:10790000EAE7A8B2BDE8F283F8B5264C027A256909
:107910000E46022A294641D1078800E0496851B144
:107920000888B84204BF8878B042F7D1264800786A
:10793000C8700120F2BD002035B1012001E0401CDB
:107940000D4669680029FAD12049098880B2884229
:1079500024D20820FAF700FF00B3078086701A4986
:10796000174E0978C17000214160216909B1686032
:1079700006E02061B07B000702D4FCF7BDFA60612D
:10798000B07B00070AD520780821FCF73BFA28B91C
:107990000C48028820780821FCF7FEF90020F2BD8F
:1079A000DC4F002038420020C642002088500020D2
:1079B000EC420020805000203C51002054992100CE
:1079C000EC490020CA420020EE420020CC420020B8
:1079D000DFF8C8150870DFF8C8150FF295000860C9
:1079E000DFF8C0150FF275200860DFF8BC150FF244
:1079F000F5400860704738B504000D4608BFFCF735
:107A00007BF8DFF89805416811B9446004E001464D
:107A1000C8680028FBD1CC600020E060A57131BDB2
:107A200010B5DFF878355B6800E0DB684BB1DC79D6
:107A3000844201BF9C888C429C799442F5D11846BF
:107A400010BD002010BD10B5DFF850154C68A042E5
:107A500003D1E4684C6006E00C4624B1E168814241
:107A6000FAD1C168E160FAF7DDFE204610BD0000E2
:107A700070B5054684B0287A002818BF01280BD0BD
:107A8000288803F0B3FC38B9287A032806D101A965
:107A900028460CF03EFE20B902206BE02888ADF8A5
:107AA0000400688A443080B2FAF756FE040060D0C1
:107AB00044220021FAF7FEFEA87A00A90CF0B0FCDF
:107AC00004F134069DF80000B07101219DF8010019
:107AD00070712046FFF78FFF2422294604F1100021
:107AE000FAF7D0FE04F14400F060688A30816A8AB7
:107AF0006969F068FAF7C6FEBDF80400A080DFF8F7
:107B0000AC040178E171491C0170FCF7F5F92080A3
:107B1000FF2096F905108840F070F078B0700020D2
:107B20008DF80800287E10F0010118BF01218DF8A2
:107B3000091002A80CF02DFC801E307031783089BD
:107B400090FBF1F020723178308990FBF1F201FB6B
:107B5000120010B1207A401C20720121208D40F0CB
:107B600008002085DFF834040078FAF7F5FF0020DC
:107B700000E0102004B070BD70B50446FCF7BCF9FD
:107B8000208004F12A03DFF82814987B09788842C2
:107B900059D2197BFF2903D1401C9873587B187365
:107BA000D97A1A7B002001E0401CC0B2DD7BA842DC
:107BB0000BDA82F0FF0525FA00F6F507F4D5411837
:107BC000012505FA00F0104318739D7A588AC9B24E
:107BD00005FB110292B2AA420ED3187BFF282A4657
:107BE0000CD0187C6080208D91B940F02000208559
:107BF000207A1871206C14E0FF201873DFF8B403AA
:107C0000DFF8B45300792D78684364256843E9E7C9
:107C10004FF6DF75284020851971206C9D7A05FB91
:107C200001006062D2B2E079D8706284DB48826879
:107C3000100002D00846904770B904F11000BDE86A
:107C400070400CF00DBC1978A07EE9220CF06DF9A3
:107C50002046BDE87040F6E670BD0000F8B5044669
:107C60001646607D0122FFF7DBFE050036D0002EB0
:107C700001BFE07D05F12A06F17A88422ED1AF1CC2
:107C8000F37BBA79217E181890420ADBFF2908D1CC
:107C90003178387E00220CF048F92846BDE8F240E1
:107CA000D1E6FF290BD1FF2098403073307BF17B68
:107CB0007073F07A0818F0720020B07302E07173EC
:107CC000207E3073FCF718F928800121307C388041
:107CD000BDE8F440B1480078FAF73EBFF1BD2DE9A8
:107CE000F047044682B0A078884691469A460CF048
:107CF00034FB05005ED01C20FAF72EFD070058D09B
:107D00001C220021FAF7D6FDA07800A90CF088FB10
:107D10009DF80100387502213846FFF76CFEB8F86F
:107D2000000097F91410B880607DF871FF2088403A
:107D30007874686800783874207DB874E17D4843B1
:107D4000303080B2FAF7E6FD0500BD612DD01A2073
:107D50002870AE1C0020687030804146E08870803A
:107D6000A81D0CF04DFBE07870739248808CF08178
:107D700005F11C00618B018261893182A178B174A7
:107D8000217BF17499F80010317599F80110717523
:107D900099F80210B17586F817A00A99016005F1EB
:107DA0003001C160A17D017203E03846FFF74BFE50
:107DB00000273846BDE8F6872DE9F84FDFF8DCB13B
:107DC00088460546DBF80810EC7D00270800914640
:107DD0009A4604D020468847002840F08180B8F8B1
:107DE0000010687D0222FFF71BFE060012D16878A2
:107DF000C00775D50A98009053464A464146284622
:107E0000FFF76DFF06006BD0347201219BF8000074
:107E1000FAF7A2FE307A401E8442307C08BF012768
:107E2000FF2849D06878F17CC007307D48BF002426
:107E3000421894424FF0FF0904DB4118F17409FA2B
:107E400000F07074B069B37C806A2A7D296903FBF5
:107E50000400FAF717FD307D727C94FBF0F10123EA
:107E600000FB114C03FA0CF31A437274AFB100FB20
:107E70001140401C09FA00F010437074B169B07CE5
:107E80002A7D04FB0020C884707CFF2805D1307C4B
:107E9000FAF761FD86F810900EE0FCF72DF83080BF
:107EA000454944480978007948434149097801FB2C
:107EB0000000642148437080F07C317D0918491E20
:107EC0008C421CBF717CFF2900D04FB1E875294658
:107ED000707C2876B8F80000BDE8F44F0DF019B9B1
:107EE000BDE8F18F01462D480078FAF734BDF8B5AA
:107EF0000C462004294D19D4E0074DD56E68FBF7D8
:107F0000FBFF4FF6FF7180B20A461FE03078012870
:107F100009D17069009006F11002F37CB11C06F1E2
:107F20001C00FFF749FF3046FAF706FD2878FAF7FC
:107F300041FD0600EAD184F40040F2BDA7EB0C033A
:107F40009342F668BCBFA7EB0C0292B2DEB1338855
:107F50007788C31A1FFA83FCBC45EFDBB07902288F
:107F600009D1307CFF281CBFB069FAF7E5FC304628
:107F7000FFF769FD02E03046FFF7FEFD287801219A
:107F8000FAF7EAFD05E08A4203D028780121FBF7E1
:107F9000F4FE84F00100F2BD0020F2BD8C4200200E
:107FA00000510020045100200851002039420020D7
:107FB000EA420020EC490020EB42002010B5DFF837
:107FC000D44A2074022020724FF6FE70208002F006
:107FD000ECFD0DF033F904F154000BF073FF00F0E9
:107FE000A0F9A07C18B1002000F0BDF80AE04FF61F
:107FF000FF7000F0B8F84FF4FA7332220021082025
:108000000EF000FC01F0D3F800F0DBFABDE8104000
:1080100001F0F5B870B50C462004DFF8785A16D494
:10802000E0071CD5012001F098F9DFF86C0A297DE2
:1080300000780F230F2200F007000DF012F984F0F2
:10804000010070BD00F08AF93046FAF775FC287C13
:10805000FAF7B0FC0600F5D184F4004070BDDFF8FB
:10806000B02AA87C1278002A18BF012A014626D11E
:10807000A20704D500F0F3F884F0020070BDA20658
:1080800016D5687C70B9062904BF072001F065F990
:108090000020FBF73CFFDFF87C0A0078012808BFCE
:1080A00001F070F9287C00F00DF984F0200070BD1B
:1080B000620404D501F02FF884F4804070BDA2045E
:1080C00019D50C2907D1022001F047F900F0DDFF96
:1080D000DFF8440A06E00C2001F03FF900F0E5FF6C
:1080E000DFF8380A0268287C4FF40051FBF745FEA0
:1080F00084F4005070BDE10611D50DF058F9DFF899
:10810000200A0078012807D1DFF8180A00786422D5
:108110004FF40061FBF731FE84F0100070BD2007C2
:1081200002D584F0080070BDE0050BD5DFF8100B18
:1081300090F82600082814BF042800F0C6F884F43C
:10814000807070BD600705D50221FF200EF0EDFBA9
:108150000EF052FDE00404D501F0A6F884F480503E
:1081600070BD002070BD2DE9F843DFF82879804606
:10817000B87C0125002608B90EF097FB0EF0CCFD67
:10818000DFF81449DFF8B89AA07889F80E00B87DB6
:10819000022829D1BE7502F01FFE02F03EFE0FF04C
:1081A0005BF8012D0CD100F035F8FAF7B1FB00F0C7
:1081B0007F00404400F16406DFF89C0B00683864DF
:1081C00028460EF010FF4FF6FF70804506D00120C4
:1081D000B87400F088FBB0B200F025FFA07803F07F
:1081E000F9F82846BDE8F28300F00BF80500D2D17B
:1081F00000F075F8054699F9181001208840386498
:10820000CFE710B500240EF081FB800748BF0124A2
:10821000204610BD10B5DFF88008DFF8F42801789B
:108220001278DFF8704801F0F80112B902220170EB
:1082300013E0012A08BF41F0010103D0022A02D154
:1082400041F002010170DFF83C0B04F07FFA0028D6
:108250000FBF002203220420E074227510BD10B568
:10826000DFF83048607CB0B9A07C08280CD100F061
:10827000BAFE092001F071F8DFF8980800780128AB
:1082800004D101F07FF801E000F01BF8BDE81040D8
:108290000020FBF73CBE03F095F81030FF280BDA06
:1082A00003F090F81030C0B203F090F8207CBDE8E5
:1082B00010400121FAF750BCBDE81040012001F048
:1082C0004CB8207C1021FAF747BC80B50F2002F093
:1082D0002FFEBDE80440022100200EF026BB10B5A1
:1082E00002F07AFD04460A2C16D002F0B1FDB0B1BE
:1082F00002F064FCDFF89C27108028B9DFF89807AB
:10830000017801F0F80101700120107502F14C00B4
:10831000DFF8F01BFAF7F0FC0CB9002010BD0120CB
:1083200010BD00B585B0112200F09EFA00AA1121FF
:10833000812008F03BFF78B900AB11220021812099
:1083400009F073F840B99DF8000028B1DFF848073C
:10835000017841F01001017005B000BD2DE9FE4328
:10836000DFF8AC4702782178DFF8D478DFF82467AB
:10837000012A19D0022A00F0AB80032A00F0AF8056
:108380001A2A04D0D32A05D0FD2A06D0BDE00FF06A
:10839000A1FEBAE000F0BBF8B7E0DFF86C1B09689B
:1083A0000A0000D08847B0E0B07C0228FBD1012948
:1083B00018BF0229F7D100F0B7FB0500307B18BFCA
:1083C00000287BD0307DDFF8D08690B9032000F004
:1083D000C4FFA87900F044FEE87A98F802300190D2
:1083E00028890090AA78298805F10C000AF067F81E
:1083F00047E003284AD1002000F03AFA0128F07C37
:1084000004D1042814BF04200D2003E00D280CBF64
:108410000E200F2000F0A1FFF88A4FF6FE794845A4
:1084200017D100AB02220021492008F0FEFF40B91D
:10843000BDF80000484504D0B97B01F07F01B97355
:1084400001E0FAF765FAF88207F11601532004F00B
:108450005DFBB88C4FF6FF71884206D12888B8843E
:1084600007F12401502004F051FB01208DF8080091
:1084700002A9522004F04AFBA97806F14C0009F049
:1084800086FF18B1FAF744FA00F0AFF998F8020045
:1084900000073AD52078002818BF012806D0022806
:1084A00002BFDFF87006007800282ED1002002F00D
:1084B00075FC00F096FA00F091FA26E0B17B21B34A
:1084C000401C3073FAF724FAC0B2643080B21AE06C
:1084D000012918BF022918D100F098F815E00129E8
:1084E00018BF022911D10020707507F13901012050
:1084F0003075F07306F14C00FAF7FEFBDFF8C41B91
:1085000002200870002000F08EFDBDE8F78330B532
:1085100004468FB0E089DFF8F8150978B0F1200241
:1085200039D0521E012A1CD947F6DF73D21A012A0C
:1085300003D9213A012A1DD941E020460EF0A3F8C3
:1085400005003CD0287818B96888291D0DF0BBF9C2
:10855000E089B0F5004F04BF281D00F077FE2846E3
:108560002BE008A920460EF06CF808A920460DF073
:1085700025F924E019BBDFF8E01B0968F9B148F2DE
:1085800021018842A169627C09780CBF0320022086
:108590000DF03BFF13E091B900A920460EF012F850
:1085A00000A80DF02BFE9DF8120010B10598FAF707
:1085B00039F99DF8180010B10798FAF733F90FB0A0
:1085C00030BD10B5DFF8CC44207C48F201010FF03B
:1085D0000BFD207C4FF400410FF006FD207C48F29B
:1085E00021010FF001FD207C48F222010FF0FCFC7C
:1085F000207C20210FF0F8FC207C21210FF0F4FCDE
:10860000207CBDE8104022210FF0EEBC2DE9F041A6
:10861000DFF88044DFF82856607DA37C227D94F843
:1086200011E0DFF8EC64DFF87074411C032B82B0BA
:1086300005F116084FF6FF7006D00A2B4ED13B7895
:1086400003F00703012B51D1BEF1000F20D1FFF73A
:1086500038FE3178A07C002914BF01290A2806D1F0
:1086600000F098FC07D0082088F8100003E00328E9
:1086700008BF00F029FD00F0BEF83078002818BFD0
:10868000012804D100F086FC01D000F0B7F8A5E085
:10869000012A0CD16175C9B2032908DBB8F80E10A4
:1086A000814202D10020207501E000F099F84FF6D8
:1086B000FE7602F083FAB04204BFE88AB04206D0E8
:1086C000ADF80060EE8200A9532004F01FFA03F019
:1086D00083FD09F03EFD0120207375E0042B18BFD7
:1086E0000E2B03D00F2B18BF0D2B72D1BEF1000F34
:1086F0002BD10020607500F07EF8207C4FF40051F3
:10870000FBF767FBB878DFF80C54000707D528782B
:1087100028B902F043FB00F064F900F05FF930780B
:10872000002818BF012804D100F034FC01D000F06B
:1087300065F800F0C9FCB878000702D52878012850
:108740004CD1606C02F02AFB48E0012A13D161751C
:10875000C9B2042907DAB8F80E10814208D000F037
:108760003FF804202BE0DFF8E00A0078012827D149
:108770000020207524E0032A04BF307802281FD18E
:1087800000F02EF8002088F81000DFF8F41BE07CE1
:10879000042802D121640D2011E00D280BD1002006
:1087A00085F8410000F051F8012098F90210884046
:1087B00020640E2003E00E2802D121640F20E07413
:1087C00003F00AFD09F0C5FCFAF7A2F800F00DF875
:1087D00004E01BB100F078FCFFF773FDBDE8F38106
:1087E000032020750120E073704700F07F006430A3
:1087F00080B200F018BC062000F0AFBD00210022BE
:10880000084609F0C0BE10B5DFF814432346012224
:108810000021322008F009FEDFF8583B0122002138
:10882000332008F002FEBF4821780078012906D1E4
:10883000BDE8104064224FF40061FBF79EBABDE82A
:1088400010404FF40061FBF7C4BA00B587B000F0E8
:108850000AF800F002F807B000BD00AB18220021B2
:10886000822008F0E2BC1822002100A8FAF722B802
:1088700030B58BB00446002500AB182200218220C1
:1088800008F0D3FDD8B91022002106A8FAF712F893
:10889000102206A90DF10100F9F7FEFF78B95CB1CD
:1088A0000598DFF8041B00F2E24005900860FFF72E
:1088B000D4FFDFF8F01A0D800125FFF7D4FF28461A
:1088C0000BB030BD38B5DFF8E45A0446287C0421EB
:1088D000FBF798FA30B9287C2246BDE838400421DD
:1088E000FBF74BBA31BD10B5DFF8C44A0020207049
:1088F00022460121852008F059FC38B92346BDE8FD
:10890000104001220021852008F08FBD10BD0121FB
:108910000128DFF89C3A08BF03211970FFE7012204
:108920000021852008F081BCF8B50546FFF7EFFF70
:1089300041F288342046FEF792FFC34F3878002872
:1089400018BF01280AD1774E30784FF48071FBF7B9
:1089500040FA30784FF48071FAF70AF938784D4EC2
:10896000022818D1012D0FD1DFF8480ADFF8481A84
:1089700000687064DFF8440A00880880DFF8401A55
:10898000DFF8400A00880880002002F007FA00F0B3
:1089900025F800F026F8012D1CD10220B074032028
:1089A00030750120F07306F14C00A54C04F139013B
:1089B000FAF7A2F9022084F826000320307309F0A8
:1089C000C8FBF9F7A5FF00F07F00BDE8F240643076
:1089D00080B228E32046BDE8F24073E7002002F0B1
:1089E000F7B9002002F0F0B9FEB504460D46164670
:1089F00028460EF0EDFA28460EF01EFADFF8C87988
:108A0000386850B103208DF808000822294600A8D4
:108A1000F9F738FF396800A8884700F0F8F818BF60
:108A2000012812D10020ADF80000ADF8024002206C
:108A30008DF80800019500208DF8090000A80CF0C1
:108A4000F6F83146284602F0F0FC0021204605F0F9
:108A500072F87B48818C204603F031FC00F0C3FAA9
:108A6000F7BD09F01BBBF0B583B0044609980D466D
:108A700016461F4600F0F4FA089801900097224627
:108A8000DFF8480983782946304609F018FDFEBD15
:108A900000000000004100209C4F00202DE9F04123
:108AA000804616460D461F463046F9F733FF040050
:108AB0000ED0002E18BF002F03D032463946F9F7EA
:108AC000E1FE257021464046BDE8F041F9F743BF7D
:108AD000BDE8F08101B5DFF8D408417B82B021B157
:108AE000002141730DF02CF80EE0016A0A0002D05B
:108AF00002A8884708E000218DF8011000AB007C37
:108B000002220121FFF7CAFF00200EBD0000000075
:108B10003C51002039510020B4420020B0420020D6
:108B200033510020A85000202DE9F0470024FEF723
:108B300068FA074602E0641CBF69E4B2002FFAD16C
:108B400000250026DFF8F8A0DFF8F880FEF759FAD4
:108B500007464FF0000909E007F10C0108F14C004D
:108B6000FAF7BCF8B0B9BF6909F101095FFA89F9F0
:108B7000A1453CDA08F14C0003F0E8FD0128EBD0F8
:108B8000DFF84C0800884FF6FF7188421CBF398817
:108B90008142E8D1BAF81A003989814203D14FF6EF
:108BA000FE7188420DD100F032F818BF012803D1C0
:108BB00025B9F87828B9D6E7022802D138790028F3
:108BC000D1D078799AF812108842CCD1DFF8041805
:108BD000B879097888420AD0012908BF022803D051
:108BE000022908BF012800D10125002EBBD0A145D4
:108BF00004DB1DB1761CF6B2022EA7DBA14503D122
:108C0000FEF702FA002000E03846BDE8F087DFF802
:108C1000C80700780028704710B50A4C607440B946
:108C200000F0B2F800F0B4F8A07C10B9082000F011
:108C300094FB207CBDE810400221F9F78DBF0000B5
:108C4000EC490020004100203C5100202DE9F0417A
:108C5000DFF85867716A0446080003D02046BDE873
:108C6000F0410847DFF874773D68A84609E0288896
:108C70006188884202BFA8782179884217D0A84627
:108C8000AD69002DF3D11C20F9F766FD050061D018
:108C90001C220021F9F70EFE4FF6FE702881FF20FE
:108CA000E872386800280CBF3D60C8F81850607A38
:108CB000A871207A68712079A87060882880207B4C
:108CC0002875207A012806D004F10D0105F10C0069
:108CD000FAF712F805E00822FF2105F10C00F9F778
:108CE000E9FDDFF8FC16A07A0978814232D2617979
:108CF000012901D0F17B69B3AA7A0021824203D213
:108D0000E07A142806DB06E0904204D1E07AEA7AA1
:108D1000904200D20121FFF77AFF14BF0128A07909
:108D200002D0022801D1E07928B9DFF8B8262088DE
:108D3000528B904206D129B120882881A07AA8724E
:108D4000E07AE872E07908B101202871A07908B1D1
:108D50000120E870BDE8F081B842002010B5DFF8CE
:108D60004C46607438B900F00FF800F011F8A07CA0
:108D700008B9FFF740FD207CBDE810402021F9F73D
:108D8000EBBE000050420020012104200DF038BD50
:108D9000002108200DF034BDF0B5DFF81046DFF8F3
:108DA00044560E0083B066742ED1DFF82C0600788E
:108DB00002281ED103F010FA03F049FA070018D078
:108DC0001C220021F9F776FD688B388005F11C0123
:108DD000B81CF9F791FFA88C7881AA20B874DFF845
:108DE00008060078401C00EBD07040103874012059
:108DF0007874FFF7C9FFFFF7CBFFA07C10B9032001
:108E000000F0ABFA00F0AAF9A16A080009D0E88ADC
:108E1000ADF802008DF80060688BADF8040000A882
:108E20008847207C002302220221FFF737FEF7BD8E
:108E300001B5DFF87805416B08001CBF00A8884722
:108E400001BD38B50446DFF8A405056800F086F9D1
:108E5000DFF85805007CFFF735FA10E06868007805
:108E600060B10420F9F756FD40B1D621017044806D
:108E70000146686840680078F9F76DFD2D68002D9F
:108E8000ECD1BDE831401FE180B5DFF82005007C62
:108E90000421FAF7B7FF08B1012002BD00F05EF926
:108EA000002002BDE0B5ADF8000001918DF808206A
:108EB000DFF8F804C16908001CBF00A8884707BD97
:108EC00010B5044601F071FE0146A01CF9F706FF3B
:108ED00058B1DFF8D804C16A080002D0204688479C
:108EE00070B9E07ABDE810401EE5FFF790FE18BFAC
:108EF000012805D1A27A2088A11CBDE8104073E5A5
:108F000010BD0000254A0020744E002038B50446EC
:108F1000A07A01281ED1207BDFF8BC5498B98DF8C7
:108F200001002878002814BF0128E07A06D0022822
:108F300006D1FFF753FDFFF754FD00208DF8000028
:108F400000A809F07AFB2878022813D1002001F04C
:108F500025FF0FE001F036FE2388E27A83420DD12F
:108F6000012A07D0DFF86404007800F014F805D176
:108F700001202073207BFFF7D7FC03E0A11C1846DB
:108F8000FFF732FDDFF82404016B08001CBF204608
:108F9000884731BD387800F0070002287047DFF8B5
:108FA00038140978022900D0704710B5012802BF93
:108FB000DFF8F843607D00280FD103F00DF9DFF8EA
:108FC000241491F918100120884020640023207C8B
:108FD000BDE810400222032160E510BD03F035BF5B
:108FE000704701F0EBBD80B500F034F8002804BFF5
:108FF000BDE8014000F0B2B801BDC1890A0400D546
:10900000704700B583B0027B62B913290AD0027C95
:10901000019241F4004100910023811C407C842294
:109020000EF0D7FC07BDDFF884130B7C20B102469D
:1090300001211846FAF7A1BE01211846F9F78CBDA7
:1090400080B500F007F8002804BFBDE8014000F03B
:1090500085B801BDD548007C4FF48071FAF7D2BEC7
:10906000DFF868138A7892070ED5DFF86823127844
:10907000904209D0087800F0F80040F00200087033
:109080000C20887002F0A6B9704780B5C748817C73
:10909000012918BF022906D1012181730020FFF7A1
:1090A000C2FF012002BD002002BDC048817C012911
:1090B0001CBF02290C2903D10021817301207047B4
:1090C00000207047DB4200201CB50020FEF7C7FBE4
:1090D00001F06BFD044601F071FDBC498A78002364
:1090E00021460EF022FA0020FEF7B9FBBA480078BC
:1090F000022802BFBE48007801280BD100A801F069
:1091000065FD01F05FFDBB490B78BB490A7800A9FA
:1091100002F074FC13BD10B586B002A808F0FEFE84
:10912000040017D09DF8080088B10F208DF81400B6
:109130004FF6FC70ADF80C00002001901F2000904D
:1091400023469DF80820AD4803A90EF00AFA2046F0
:10915000F9F768FB06B010BD104E00209E499348F9
:109160000978007C022907D0002918BF012907D1FE
:109170009C49897B890703D44FF48071F9F7ECBCD3
:109180004FF42F724FF48071FAF7F7BD401C80B294
:10919000704700B583B0ADF800008DF80210019261
:1091A0008248816908001CBF00A8884707BD0020CD
:1091B00000217E4A02EB8002401C09289161F8DB05
:1091C0007047092803DA794A02EB80000AE002209E
:1091D0007047092804DA754A02EB8000002101E09B
:1091E0000220704781610020704710B50446262296
:1091F000FF21F9F75FFB002084F8240010BD38B58B
:109200006A4CE06B70B97220F9F7A6FAE06348B1D6
:109210000025E06B262101FB0500FFF7E6FF6D1C32
:10922000032DF6DB31BD6148C16B51B10022262010
:1092300000FB021090F8243023B1521CD2B2032A52
:10924000F5DB0020704700003A420020FEB5574D84
:109250000446E86B38B30026262000FB06F7E86BCF
:109260003818082221460C30F9F716FB012817D1CF
:109270008C208DF80800E86B3818837D418900F157
:109280000C02007A0BF0FCF918B98DF80800FFF712
:1092900065FFE86B00F053F8E86B3818FFF7A5FF9F
:1092A000761C032ED8DBF7BDF0B5404CE06B0026F2
:1092B000002887B034D00025262000FB05F7E06B9E
:1092C000381890F82410022904DB491E80F8241075
:1092D000012621E001291FD18C218DF808100421DD
:1092E0008DF80C1000F10C0104A80AF088F803A80E
:1092F0000AF023F9012802BFBDF80E004FF6FE71F7
:10930000884204BF03A80AF0B8F8E06B00F017F831
:10931000E06B3818FFF769FF6D1C032DCCDB2EB90D
:10932000207C4FF48051FAF754FD06E0207C4FF486
:109330007A724FF48051FAF720FD07B0F0BD38186B
:10934000012390F82210019148F2210202A9009114
:1093500000F1180123300DF0D2BF144A917C8142F4
:1093600004D090741021107CF9F7F6BB70472449A3
:10937000086070473451002022490860704700009F
:1093800000F8FF0780B5F9F7C3FA42F21071084000
:109390000A180648007CBDE808404FF48041FAF7FF
:1093A000ECBC0000B0500020B45000200041002070
:1093B000315100208042002022510020C042002074
:1093C00024510020BE420020004F00209C4F00206E
:1093D000CE420020DC4200203C510020604A0020A8
:1093E000D6420020EC490020029921009C42002036
:1093F0003951002038510020E94200206C41002002
:10940000B4420020B042002010B5DFF8FC432076C3
:1094100048F215010EF0E8FD207E38210EF0E4FD43
:109420000FF28530E0620FF2B930A0620FF25130D6
:109430006062022020754FF6FE70A08110BDF8B565
:10944000DFF8C453DFF8C463287E0C46210437D507
:1094500006E0384600F0F0F83846F9F76DFA287E55
:10946000F9F7A8FA070028D03878312812D0322826
:10947000EFD0D328F0D1F889382807D048F2150169
:109480008842E9D1384600F0C6F8E5E7384600F0F2
:109490004DF8E1E7A87E0428DEDA06F11800817DA8
:1094A000DFF86C0309F080F90028D5D1788828848A
:1094B000B8886884FF206871CEE784F40040F2BD6C
:1094C000E10711D5287F307605F11C01E12003F07A
:1094D0001DFBFFF7B5FD0020A6F87000012002F08B
:1094E00075FB84F00100F2BDA1070ED5E98B39B1FF
:1094F000491EE9834EF660220221FAF73EFC01E0A4
:109500000020A87684F00200F2BD20070CD568790F
:1095100038B12979286809F047F910B96879401EEF
:10952000687184F00800F2BD0020F2BD70B58AB009
:10953000064606A90DF043F99DF81C10B24C062909
:109540001ADA307B00285ED19DF81D0000285AD021
:10955000062858DA069809F027F9002853D1707CBC
:1095600060767088A0819DF81D00401E8DF81D005A
:1095700006A80EC80EC446E0FE29A44D1BD100F07B
:1095800044F840D201F05AFD0020069921FA00F279
:10959000D10703D4401CC0B21B28F6DB297E8142D0
:1095A00031D020776421E87901FB00F2207E01218F
:1095B000FAF7E3FB27E0FF2913D100F026F822D2C7
:1095C00001F03CFD069800281EBFA86A0699884253
:1095D0001CBFA962FFF734FDBDF8200000F0C6F8FB
:1095E00011E0307B78B97088A081002300200590BD
:1095F000049003900290019000908022707C04F10E
:109600000C010EF0B3FC0AB070BD9DF81E0095F879
:1096100072108142704710B582B0044600A90DF067
:109620007BF89DF8000030B99DF80200400644BF69
:10963000608800F09BF813BD7CB5734E734D0446F3
:109640007079FF2836D1297E6268002022FA01F362
:10965000DA0744BF0819007A0021626822FA01F390
:10966000DA0703D50A19127A824204DB491CC9B20F
:109670001B29F2DB1BE0B5F86E00738C328CB081D5
:1096800000941020019006F10C01002000F02BF84E
:109690000120F076B07E38B93C20F0834EF660228F
:1096A000307E0221FAF769FBB07E401CB0760020C4
:1096B000707173BD002002F089FA00210191034608
:1096C000B5F87020707E009406F10C0100F00BF8E4
:1096D000707938B1307E02B0BDE870403222082186
:1096E000FAF74BBB73BD2DE9F04786B080460024E6
:1096F0000E9F894616469A4600252046796821FA2B
:1097000000F2D10748BF641C401C1B28F6DBE4B202
:109710009CB12046F9F720F805000ED0002100206A
:109720007A6822FA00F3DA0704D5C219C9B2127AAC
:109730004A55491C401C1B28F2DB00200590494675
:109740000F98049003950294CDF804A000967B68CE
:10975000BA7840460EF00AFC2DB1284606B0BDE8A6
:10976000F047F9F75FB806B0BDE8F0872749B1F8D0
:109770006E2082421CBFA1F86E00FFF761BC7047EB
:1097800010B504460620F9F7C5F860B13121017023
:10979000218841806188818001461B48007EBDE8A8
:1097A0001040F9F7D8B810BD38B504462420F9F7B1
:1097B000B1F8050012D0322028701B222078A87042
:1097C0006068686005F10800A168F9F75BF80E4869
:1097D000007E2946BDE83440F9F7BDB831BD000030
:1097E00010B5094CE17E69B1C178002904BF407809
:1097F000002807D10549A1F87000012002F0E6F920
:109800000020E07610BD00004C4E0020EC49002006
:1098100000F8FF07DFF85C140870DFF85C140FF243
:10982000DD100860704770B50C46200482B0DFF888
:10983000445423D4E00730D5687800F069F8060076
:1098400006D000F07AF80020FDF790FC0020A87008
:109850000220F9F75FF8010005D0332008704E7040
:10986000E878F9F778F884F0010076BD0D2804BF98
:10987000304600F07CF93046F9F75EF82878F9F7C1
:1098800099F8060006D030780C28EFD1304600F069
:1098900068F9F0E784F4004076BD002076BD38B565
:1098A00004460D461C2200212846F9F703F8207FC4
:1098B0002875E189A06A698110F8011B297001F0FF
:1098C0000302032A1AD101F00C0108290CBF01225E
:1098D00000220C292A7305D10178427801EB02217C
:1098E000A980801C0178427801EB0221E98010F800
:1098F000021F427801EB02212981801C2861297D09
:10990000081AA16A08182875217F081A687331BDE2
:1099100001B582B00220FAF7A9FC60B903F0B0F9F2
:1099200048B102A9E12003F0F1F800F006F8D149AE
:10993000002088700EBD01200EBD01208DF80000B2
:1099400000A9522003F0E2B838B5CA4D0446A87801
:1099500008B1012032BD00F03FF89DF80100A0429F
:1099600001D1002032BD0120A870FDF7FFFB0020CF
:10997000FFF7E4FF2046FFF7CBFF30B128786C708B
:1099800064220121FAF7F9F9BA2032BD38B5B94C91
:10999000A07808B1012032BD00F01EF8B74D9DF847
:1099A0000100297E884201D1002032BD0120A07033
:1099B00000A900208DF80000522003F0A7F805F15F
:1099C0001801E12003F0A2F8FFF7B7FF0020FDF730
:1099D000CDFB0020A07032BD0DF10101E12003F0AC
:1099E00087B8FE2901D101207047002070474268E6
:1099F000A0491278CA7000780871704780B5017864
:109A00000D2908BF416803D00C2913D1416849686A
:109A100081B10A7802F00302032A02BF897801F0BB
:109A20000301032906D1014692480078F8F793FF15
:109A3000012002BD002002BDF0B504468D488078AB
:109A4000002589B0002804BFE07AFE2816D1242220
:109A5000002100A8F8F72EFF207E0D21084278D1C2
:109A6000207A002875D08DF808000326207A0F2868
:109A700006D102200B268DF8080003E001206CE0DF
:109A8000022803D12088ADF8000011E0032804D19A
:109A9000214600A8F9F730F90AE0012808D1022090
:109AA0008DF808000F264FF6FF70ADF800002588EE
:109AB000012006F00C010C29618A08BF0320081858
:109AC000801D8DF81F00C0B2F8F746FE070042D097
:109AD000B81C06F00C0108970C2900F8016B04D1A2
:109AE00000F8015B290A00F8011BE18900F8011B5D
:109AF000E189090A00F8011B218A00F8011B218A6B
:109B0000090A00F8011B628A6169F8F7BBFE3D464D
:109B100001F054FC800040F003002870000A05F8B2
:109B2000010FA089ADF80A0003208DF80C00A07E7B
:109B30008DF80D0006F00C00411E8941C90FADF8EB
:109B40000E1000A803F070F804463846F8F76AFED5
:109B500002E0B62400E01024204609B0F0BD5D20EC
:109B6000704742788178434800790AF0DEB9F0B551
:109B70000446251D9DB02F796668342200210FA868
:109B8000F8F798FE8DF83C703078727800EB022080
:109B90000FA980B200F07CFF02208DF83D0004F197
:109BA0001C01B01C19909DF83C00801E8DF85800D7
:109BB000688CADF84A0005A8F9F787F89DF83E00D3
:109BC000032854D101F0FAFB9DF83F10814204BFF5
:109BD0009DF8400000284AD19DF84100002804BFAC
:109BE0009DF84200002842D19DF85900002804BF8A
:109BF0009DF8430000283AD19DF84400B8BB08A95D
:109C00000FA8FFF74CFE9DF8200000F00301032988
:109C10002DD100F00C00042829D09DF820008006EA
:109C200025D49DF82000000621D4124800798DF833
:109C3000220004ABFE208DF8230094F83A008DF842
:109C4000100004F13A0041788DF8111005A98078D0
:109C50008DF8120000200390E86A02900020019025
:109C60009DF84F00009008A86A8E0BF07EF91DB099
:109C7000F0BD0000A8420020EC500020EC4900207C
:109C80000CF0BABF80B500AA0121872000F0FBF8D4
:109C90009DF80000032808DB02208DF80000002258
:109CA0000221E22000F01CFA01BD00208DF8000026
:109CB000DFF854040078FEF756FA01BD2DE9F241B1
:109CC0002025002887B01746DFF84064DFF84044BD
:109CD00060D0A08A4FF6FF78404518D1F7B1032035
:109CE0008DF81800394604A8F9F706F82379BDF86D
:109CF0001C1004AA18460AF0C3FC050007D1002274
:109D00000023114638460DF020FB00F051F8BDF855
:109D10001C202946E12000F0E3F946E0E068ADF8B8
:109D2000108002258DF818500369027B07A90120D5
:109D30000BF087FB30B100200390029001900123CB
:109D400007A810E0E0688368C27907A901200BF03A
:109D500078FB0028DBD000200390002307A80290A6
:109D600001200190002000904146E068428804A84C
:109D70000DF030FB0500CAD1DFF898030288207887
:109D80004FF40051F9F7F9FFBDF81C00A0820CE078
:109D900009F09EFDE068BDF81C100078002209F073
:109DA0006AFE0028F4D100F003F808B0BDE8F081A5
:109DB0003078FA224FF48071F9F7DFBFE0B5022264
:109DC0008DF80820ADF800000023002200A80DF057
:109DD000CAFE0EBD38B5CE4D044628784FF48041FA
:109DE000F9F7F7FFE868007824B9BDE834400021AE
:109DF0000AF0DBBA01210AF0D8FAFF2C0DD0412C71
:109E0000A8BF40244FF47A7000FB04F22878BDE824
:109E100038404FF48041F9F7B0BF31BDF0B587B09D
:109E20000D464FF6FE710D9C884216461F4603D123
:109E300000208DF8180009E00221ADF810008DF81F
:109E4000181001F0D3FA08B104F0EF040020ADF8C7
:109E50001A003346AE49C86800788DF8190002949C
:109E600000972A460E980390091D0CA8019004A89B
:109E70000AF05DF9010004D09DF83020E02000F0E8
:109E80002FF907B0F0BD70B504460D46164607F031
:109E9000ADF9C0B2854201DA012070BD02463346F9
:109EA0002046BDE87040002107F0BFBA13460A46BD
:109EB000002107F0BAB9000002460846072A964971
:109EC0001ED8DFE802F004070A0D1013161901224C
:109ED000924913E00822924910E0022216310DE067
:109EE00002221A310AE008221C3107E0012218314F
:109EF00004E00222243101E008223931F8F7C2BC23
:109F0000704710B501280C4607D12046BDE8104027
:109F10000022002311460DF018BA10BD0EF067BAEA
:109F20000EF071BA70B505460C46200482B04BD5D0
:109F300005E070780EF056FA3046F8F7FDFC28463A
:109F4000F8F738FD06003CD030781A2817D0D12811
:109F50001CD0D22828D0D32808D0E02828D0E12847
:109F60002AD0E228E5D0FD2804D0E5E7304600F00D
:109F700060F8E1E77178F078FFF7D0FFDCE7B36ACB
:109F8000F28CB188F0880EF06CFAD5E7707806286C
:109F90001CBF0728092801D10020CBE7002818BFE3
:109FA0000128C9D12220C5E770880EF038FAC3E72E
:109FB00070887178C0B2DFE771787088FFF7B0FF02
:109FC000BAE784F4004076BD6004514D07D5E868D7
:109FD000007800210AF0E9F984F4804076BDA004FD
:109FE00009D5A88A2121FFF79BFF4FF6FF70A882B1
:109FF00084F4005076BDE00419D5002108200CF04F
:10A00000FFFB00AA01210320FFF73DFF9DF80000A0
:10A01000400702D5FFF736FE06E04FF4FA7332220E
:10A02000002102200CF0EEFB84F4805076BD00206D
:10A0300076BD70B584B0C1894FF40042891A02D050
:10A04000891F08D07FBD0CF01EFB021D811C012062
:10A050000EF0EFF97FBD0CF047FB2D4DA98A4FF6AE
:10A06000FF76B142044620D002208DF8080000AAF5
:10A070006088ADF80000E868637900780AF000FBBA
:10A0800098B928784FF40051F9F7A3FE1F480078DB
:10A09000FFF78FFE00226088002311460DF083F940
:10A0A000A88A00210EF0AFF9AE827FBD10B5184C22
:10A0B0002070A4604FF6FF70A08200210020207164
:10A0C000E06800780AF071F920784FF400410DF053
:10A0D0008BFF2078BDE8104048F206010DF084BFE8
:10A0E00070B504460D4616460420F8F713FC48B137
:10A0F0000470457046800146BDE870400448007811
:10A10000F8F729BC70BD0000EF420020104100208C
:10A11000604F00203C420020EC490020124100200A
:10A12000605000200448016841F00101016041686D
:10A1300041F003014160704780B7084010B540F21C
:10A1400001200CF07BFDC64C0222022120460EF0BD
:10A15000B7F9C44A012120460EF0E6F90121204654
:10A160000EF059FB022120460EF057FBBDE81040CF
:10A1700027E170B5BC4C0D46217809B100F0B6F866
:10A180006878052801DB042070BDA889F8F7E4FA97
:10A19000206150B1288BF8F7DFFAE06138B9206907
:10A1A00018B1F8F73FFB00202061032070BDA878AC
:10A1B00098B1AE4E0122082130460EF081F90821F7
:10A1C00030460EF02AFBAA4EAA4A012130460EF074
:10A1D000ABF9012130460EF01EFB1620F8F7BDFD4D
:10A1E0000120207068786070A878A070A989A8887C
:10A1F000814238BF0020A080A879A071A889A081E1
:10A20000288B208395F8200084F82000A86AA0629B
:10A210000CF0C8FC01460FF27C20627850F8222036
:10A22000954E602330460EF038FB00220021304668
:10A230000EF030FB30460EF06FFB722130460EF010
:10A2400092FB722130460EF08BFBA87820B18B4830
:10A25000016841F44041016030460EF041FB0020AE
:10A2600070BDF8B5804CA58AE68A207800283CD0DD
:10A27000F8F75AFD074600F0B1F800F0CCF80FB936
:10A28000F8F74EFD0027002000F08FF8A189401C50
:10A290008842606AA8BF012750B1F9F72DFE626AB3
:10A2A000A179801A814203D20020606247F004073E
:10A2B000002000F07AF8A189A288891A88427048A3
:10A2C0000178A8BF47F00207002908BFB54203D1B3
:10A2D0000121017047F010073FB1A26A100004D0BD
:10A2E0003946BDE8F84000201047F1BD10B562487E
:10A2F0000EF003FB5C4C207830B12069F8F792FA3D
:10A30000E069F8F78FFA31E710BD70B5564D28783F
:10A310000C461646B8B1002000F047F8B04298BF8E
:10A3200006462889002109E02A69825C0A55401CFA
:10A33000AA8980B2904228BF0020491C89B2B1424C
:10A34000F2D32881304670BDF8B5474D28781446C1
:10A3500070B1A88AEA8A2B8B824208BF184605D0C2
:10A360009042BABF9A1A8018801A80B2A04201D2D5
:10A370000020F2BD424A00201070EE8A08E0EF692A
:10A38000425CF255761CB6B29E4228BF0026401CA5
:10A39000A042F4DBF8F7C8FC0746EE8200F03BF879
:10A3A0000FB9F8F7BDFC2046F2BD2F494889B1F935
:10A3B0000820801A00B2002844BF8989081880B29A
:10A3C000704729480021017001814181016181822A
:10A3D000C182C161416280F82010704770B5224C83
:10A3E000254E65890AE030460EF0A7FA21696854C7
:10A3F0006D1CA089ADB2854228BF002530460EF005
:10A4000094FA0028EFD16089A84203D06581F9F75A
:10A4100073FD606270BD70B5134CA58AE68A05E0D5
:10A420006D1C208BADB2854228BF0025B54206D0F9
:10A43000E1691148695C0EF088FA0028F0D1A58224
:10A4400070BD10B50C4C502120460EF08CFAFFF771
:10A45000C5FF222120460EF086FABDE81040DAE75B
:10A4600000900D4008410D407C4E002000C00D4082
:10A4700000A00D4004410D4000D0004030D000400D
:10A48000275100205AE674E6EBE63EE75CE78CE7EE
:10A490000000000080250000004B00000096000036
:10A4A00000E1000000C201002DE9F04794B004462D
:10A4B000F9F7BAFD00254FF6FE7A0028A946D046E6
:10A4C00040F0ED80207FDFF8886CE0B1DFF8000C11
:10A4D0000078410141EA80002077FF20618808F080
:10A4E00033FE50B1E08A40F00400E0820125207F75
:10A4F00040F001004FF6FF7820773078002814BF35
:10A5000001284FF04009608800F070FF08B100207A
:10A510006076A07E18B9DFF83C0C0078A076207831
:10A52000DFF8AC7C010603D500F00300207006E0E4
:10A53000E07E20B93878E0763878401C3870207E8C
:10A5400001280BD1DFF88C0C007828B1F87A0028AC
:10A5500004BF2078002801D1002020763078002820
:10A5600018BF012818D1B87B800715D555B9608868
:10A5700000F03CFF80B1207820B12069007800F025
:10A5800003FF48B1E18AA07E4A0675D5012873D140
:10A590004FF6FB700840E0822078012802BF206956
:10A5A0000078022803D1E08A40F04000E082A07DDC
:10A5B000400639D4002D37D13078002818BF012843
:10A5C00032D1B87B80072FD56188607E4B46A21DB3
:10A5D00003F036FE28B100206076E08A40F02000CB
:10A5E000E082A07970B1618804F1080000F0A9F957
:10A5F00080466088804504BF0020A071E08A40F05A
:10A600004000E0822078012804D0A18860884A4672
:10A6100003F044FAA18860884A4602F09EFC18B113
:10A62000E08A40F02000E08204A9204600F0E1F832
:10A63000D045054608BFB4F8028095B320789DF850
:10A6400010308DF8140006944146608DADF8160068
:10A6500005A8039094F82C000290E08A0190607D98
:10A6600000902846FA8A00F053F80446102C19D1BD
:10A670002846F8F7D7F815E08DF82E006088ADF879
:10A680002600A088ADF82800E07E8DF82F00627DBE
:10A69000A18807A803F094FB00287FF47DAF112068
:10A6A00001E01024204614B0BDE8F08710B58EB04C
:10A6B000044601A834210EF059F9A11C02A84A88C9
:10A6C00002810988C18004F110010A7902760A68C2
:10A6D00042620A7B42700A8B82810A7A82704A7ACD
:10A6E0008DF808204A8B42850022087F8DF83400BF
:10A6F00000A9FF208DF800008DF801004FF0FF3019
:10A700008DF8020001A808F0DBF800200EB010BDA3
:10A710002DE9F04F804687B00D4693469A46242097
:10A720001027F8F719F8002800905ED0242201F0D5
:10A7300034FDDFF81C9A119C99F8000000260028CF
:10A7400018BF01280FD1284607F080F840B10079E2
:10A75000012818BF032803D1600658BF44F4806461
:10A76000600548BF0126DFF8680A0099808C48819F
:10A77000ADF818B00220009908730099087200988B
:10A780000580009880F81FA00098109D45730098E0
:10A79000C0F82080ADF80A408DF80C50139AD2E929
:10A7A0000001CDE9040112988DF81A00314600A885
:10A7B000F9F74FFC012815D199F80000002818BFBF
:10A7C00001280DD166B12846F9F76DFD040007D0C8
:10A7D00020680088F9F702FD10B12046F9F7C0FDA6
:10A7E000002702E00098F8F71DF8384607B0BDE8EA
:10A7F000F08FF8B50E4604460820617F01B11020A5
:10A80000A17F01B10830217F01B1401CA17919B1AC
:10A81000217A4900891C08186070207E0028DFF822
:10A820003009007814BF0E250025022802BFDFF88A
:10A83000500C0078012808D12078012805D0DFF8D5
:10A84000440C007810B1012000E0002084F83400AE
:10A850006178207DDFF87879081828183070207E1C
:10A8600028B1387B08F02DFA3178401830703078F4
:10A870007528A8BF002662DAF7F76EFF06005ED0E3
:10A880002078B97C40EA8100617E01F0030140EA52
:10A890008110217F09B14FF480710843217E40EA85
:10A8A0004120617F40EAC120A17F40EA0130A179C7
:10A8B00040EA812094F8341040EA413080B2307090
:10A8C0000827000A70706088B0706088000AF07015
:10A8D000A0883071A088000A7071A07EB071E07EFF
:10A8E000F071607F28B1216A06F10800F8F704FAD8
:10A8F0001027A07F28B1616AB819F8F7FDF9083769
:10A90000FFB2A07980B1207AB855781CC0B2617AC4
:10A910008155471C207AE168FFB24200B819F7F769
:10A92000B1FF207A07EB4007207F08B1FFB2B8558E
:10A930006078227D216980192818F7F7A3FF304637
:10A94000F2BD30B583B004460D4601AA00A92846E1
:10A9500002F070FFA0B99DF80000207001986060BF
:10A960009DF8000048B1401E60709DF800100198ED
:10A9700000EB410030F8020C3EBD607028463EBD41
:10A980004FF6FE703EBD2DE9F84304460F461546CE
:10A99000342200212846F7F78DFF0126082F62DBBD
:10A9A0002F702078627800EB0220294680B200F0F8
:10A9B0006FF800B10026A078E17800EB01206881F3
:10A9C0006179207900EB0120A881A079A874E07951
:10A9D000E87408206870E87918B104F1080000F004
:10A9E000DAF8287A20B168780019A86100F0D4F864
:10A9F000002005F1240785F820003860687920B12F
:10AA00006878015D6971401C6870687F38B3687848
:10AA1000411C6970005D85F82000481CC9B268704F
:10AA200095F82020095D85F82110914215D2DFF8B4
:10AA3000B41BDFF85C9C0978914238BF0C22C0B28D
:10AA40004FEA4208011942464846F7F71BFFC7F88C
:10AA5000009068784044687001E00020687768786A
:10AA60002978814201D2002010E002197A60081A88
:10AA7000A979287749B10E38287702F10E0078605D
:10AA800000F08EF8297F081A28773046BDE8F28357
:10AA90008A1C00F003031370C0F383035370030692
:10AAA0009B0F9370430A03F001031371030A03F031
:10AAB0000103D370830A03F00103D376C30A03F0C2
:10AAC00001035371030B03F001039371420B02F076
:10AAD000010281F83120800B704710B5DFF8A829FA
:10AAE0008479D37A00212CB1002B04BF8078002810
:10AAF00007D105E0002B1EBF4089D28A904200D0CA
:10AB00000121084610BDF8B506460C4630781546BA
:10AB1000727800EB0220294680B2FFF7B9FFB078C7
:10AB2000F17800EB012068817179307900EB012028
:10AB3000A881B079A874F079E87408206870E87981
:10AB400018B106F1080000F026F8287A20B16878DC
:10AB50008019A86100F020F8687920B16878815DDB
:10AB60006971401C68702846FFF7B7FF070010D1D5
:10AB70006878AA79811912B9A962201A08E001F14E
:10AB80000E00A86200F00CF86978611A0E39081AF4
:10AB900028773846F2BD6861687808306870704779
:10ABA000DFF88C0C007B08F08CB810B5DFF8844C13
:10ABB0002146E22001F09CFF204610BDDFF8700C1A
:10ABC000C08A7047DFF8680C408B704701464A2006
:10ABD00001F08EBF38B5DFF8604C2578681C207016
:10ABE0002846F9F760FB0028F7D1002DF5D028465C
:10ABF00032BD2DE9F74F81469A4601F0ADFBDFF8F3
:10AC000008670C9CDFF8C8B5002705003078B84607
:10AC10000BD1002C54D19DF80820BDF804104846F3
:10AC200003B0BDE8F04F01F0EABC94B3002818BFB0
:10AC3000012805D1DFF8040C8068010018BF8047A7
:10AC4000BAF1000F08BF2F7037D03078002818BF36
:10AC5000012845D19BF80E00800741D5DFF8DC0BB9
:10AC6000C268100002D0514628469047DFF8D00B4A
:10AC700000782978421C9142BCBF491C2970297870
:10AC800081422DD1484603F042FB012785F801801F
:10AC900026E0BAF1000F0AD1A8789DF8081008182C
:10ACA0000004400CA870A87808B90120A870DFF84B
:10ACB000940BA9780078884212D24FF001080FE077
:10ACC000012C0DD1BAF1000F0AD0002818BF0128BD
:10ACD00006D19BF80E00800744BF484603F017FBDF
:10ACE0003178DFF8580B0078022908BF012C0BD10E
:10ACF000BAF1000F07D0DFF84C3C1B78401CC0B203
:10AD0000984201D301270020DFF8303B187057EA42
:10AD1000080041D0002918BF012914D19BF80E006A
:10AD2000800710D5484606F091FD60B1B8F1000FDC
:10AD300003D0417901F0FE0141716FB3417941F0D7
:10AD40000101417100E03FB33078002818BF0128AD
:10AD50000ED19BF80E0080070AD5484606F050FD3C
:10AD600030B1494603B0BDE8F04F002007F0E7BE20
:10AD7000BBF81A0081450FD14946012007F0DFFEDC
:10AD80003078022808D103B0BDE8F04FDFF8100C8E
:10AD900000780121F9F71DB8BDE8F78FDFF8001C36
:10ADA0000B78012803D101211846F7F7D5BEDFF84B
:10ADB000441C086020B1024601211846F8F7DDBFA7
:10ADC00001211846F9F705B8DFF82C1C08807047F8
:10ADD000DFF8CC1C0880704710B5DFF8F42374212D
:10ADE000212006F0E3F9044608F09CFC044300F03F
:10ADF0004AFC18BF012802D106F0B4FE0443DFF874
:10AE0000A40C0068010001D08047044308F011FA47
:10AE100004430CF098F9204310BD80B506F077FB91
:10AE200000F0A6F808F08EFCDFF8DC0400780028BB
:10AE300014BF012806F0AFFEDFF86C0C00680100BB
:10AE400018BF804708F006FABDE801400CF0C9B908
:10AE500070B5DF4D82B02A467421212006F0A6F994
:10AE60000024002850D12B4674220021212006F016
:10AE7000DCFA002848D105F10E064FF6FE71308944
:10AE8000884241D0307E0124082818BF042838D1D8
:10AE90008DF8004000A9422001F038FE05F12F0195
:10AEA000432001F033FE05F12C01472001F02EFE76
:10AEB00005F11C014A2001F029FE05F11A014B2081
:10AEC00001F024FE05F12401502001F01FFE05F1E0
:10AED0001601532001F01AFE05F12D01542001F056
:10AEE00015FE05F11801E12001F010FE3078C008D0
:10AEF00000F001008DF8000000A9522001F006FECC
:10AF000002E006F004FB002408F0DCFBDFF8F803A5
:10AF10000078002814BF012806F028FFDFF8900C05
:10AF20000068010018BF804708F0CCF9204676BDC4
:10AF300010B50446E00701D500F01AF8200748BF15
:10AF400008F0D2FBDFF8C0030078002818BF012802
:10AF500003D1A00748BF06F0AEFF600707D5DFF8B2
:10AF6000540C006801001CBFBDE81040004710BD34
:10AF7000DFF8BC3874220021212006F056B9F0B564
:10AF8000DFF8345CDFF8344C297887B001AA20461A
:10AF9000FCF797F800208DF808008DF80A000421CE
:10AFA00006F055FBDFF8181C0E78B0421ED208F0F0
:10AFB00075FBD8B9DFF80C0C078837B104210320E2
:10AFC00006F045FBF11B884202DA01208DF80800EB
:10AFD000DFF8F40B078837B10221012006F037FBB8
:10AFE000F11B884202DA01208DF80A0021462A78F6
:10AFF00001A8FCF73BF82146452001F087FD9DF8AC
:10B000000A0030B99DF8081001B101218DF8001037
:10B0100002E001208DF80000DFF8641CDFF8902CBE
:10B02000097812789DF80000114008408DF8000062
:10B0300000A9412001F06AFD07B0F0BD70B50446DB
:10B040006348DFF8746BDFF8745B80F8724086B099
:10B05000317800AA2846FCF734F832788DF812408F
:10B06000294600A8FCF702F82946452001F04EFDCC
:10B0700006B070BD70B5DFF83C5C044628884FF61A
:10B08000FE71884222D11620F7F744FC06001DD03D
:10B0900001203070A079002814BF022001207070B8
:10B0A000A06A4078B07200075CBFA089F9F7D4F9B4
:10B0B000A169B01CF7F720FE0020F0743146DFF8DC
:10B0C000E0080078F7F747FCA089288070BD0000F1
:10B0D000ED4200202DE9F04182B0054604208DF8B4
:10B0E00001000E46904600A800F057F90700DFF86F
:10B0F000C44B27D0386907210170A98A4170A98AF9
:10B10000090A8170A97DC1700120787705F10B00D3
:10B1100038620120B877FFF748FD78620120B876E1
:10B12000032E16BF012E4FF488604020F882B8F13C
:10B13000010F2088788004BF00203876384606F05A
:10B1400061FF00E010204FF6FE712180BDE8F6811E
:10B150003C5100200E99210070B5DFF84458044698
:10B1600028784FF48061F8F734FEDFF8400CDFF800
:10B17000301900880880DFF88018DFF8580C008844
:10B1800008800920DFF8A81681F82600FFF70DFDDA
:10B1900001466069F7F7A2FDC0B11020F7F7BAFBCE
:10B1A000060013D002203070A06A4178827801EB4B
:10B1B00002217180C07870704A20A16901F0A6FC5C
:10B1C00028783146BDE87040F7F7C5BB70BD000078
:10B1D000EC4900203251002038B5044602208DF899
:10B1E000010000A800F0D9F805003AD02869042130
:10B1F000017000214170217A012904BF2021417092
:10B20000617A012903D1417841F040014170A17A6E
:10B21000012904D1417841F08001417001E0012011
:10B22000A876607A012805D1606808B101206877A6
:10B2300060682862E07A012808BFE882208800F070
:10B24000D5F818B1E88A40F00400E8820120A87718
:10B25000FFF7ABFC686220886880284606F0D2FEC3
:10B2600032BD102032BD7FB504460D4600F087F890
:10B27000A86A4078002610F01F0103D000F064FB9C
:10B2800000203FE0810644BF01218DF80C1001062B
:10B2900044BF01218DF80B10400603D501208DF825
:10B2A0000A0003E09DF80A00012803D1E87950B1B3
:10B2B0006E6902E0287A30B1AE6926B131460DF1EF
:10B2C0000200F7F719FDA889ADF800009DF80A0003
:10B2D000012813D1688900F089F8002801BFA889E6
:10B2E000DFF84C15498B88420BD13EB1FFF75DFC6E
:10B2F00001460DF10200F7F7F1FC10B100A807F0CC
:10B30000FBFB204604B070BD3C51002010B5044644
:10B3100092B020684189CA072FD54FF6FE721140BE
:10B32000418104AA0068C17F006AFFF7ECFB002896
:10B3300002BF0E98007804281FD100F020F8BDF855
:10B340001A00ADF800000E984078810644BF012134
:10B350008DF80B10010644BF01218DF80A1040063C
:10B360004CBF09990A990DF10200F7F7C5FC207945
:10B370008DF80C0000A807F0BDFB12B010BD0E2226
:10B38000002100A8F7F796BA002104281CBF0A285C
:10B39000032800D101210846704710B538210170FB
:10B3A0000121817006F05AFE040005D001202070B2
:10B3B000A077FFF7FAFB6062204610BDDFF870044B
:10B3C000807C7047DFF8BC0B00787047DFF8B41B57
:10B3D000087070470121020748BF03218007DFF88A
:10B3E000A80B48BF41F00401017070474FF6F87395
:10B3F00000210022C01A03280BD9001F05D0401ECF
:10B4000005D0801E06D1012204E0042202E00222BF
:10B4100000E00822DFF8700B0078104218BF02210C
:10B4200001D102B101210846704738B504460D46E6
:10B4300006F00FFA00281CBF017900290ED005295B
:10B440000CDA012D1CBF0129022902D1008802F06B
:10B45000D0F82046BDE8324006F02DBA31BD017863
:10B4600021B94068002818BF09F06AB90020704768
:10B47000054991F82610082908BF00F04EB870471A
:10B480003951002037510020EC49002010B500212F
:10B49000DFF8F82A02EB81035B88834203D100F0D6
:10B4A00023F8C52010BD491CC9B20329F2DB0021D5
:10B4B0004FF6FE7402EB81035B88A34207D0491C60
:10B4C000C9B20329F6DB002112F8213033B902EBAF
:10B4D0008103588000F008F8002010BD491CC9B253
:10B4E0000329F1DBC72010BDDFF8A80C007802F8B3
:10B4F000210070470021DFF8942A02EB81035B886A
:10B50000834204D112F821300BB101207047491C4D
:10B51000C9B20329F1DB00207047F0B50546DFF81A
:10B52000B40C00780026002818BF01288BB040D149
:10B53000BF4FF88A854204D1BDB300F03DF8012623
:10B5400037E0284606F082F904002ED02079012841
:10B5500018BF022829D18DF800606088ADF80C0072
:10B5600000A808F016F800B32088DFF84817088014
:10B57000002002F005F8208001A90DF11B00F7F76B
:10B58000BBFB2088ADF824008DF8266002222179CB
:10B5900004A8FFF79FFD2088ADF80200012600A84F
:10B5A00008F019F80020E06003E0B98C284600F0AC
:10B5B00086FE30460BB0F0BD80B500F064F818BFD1
:10B5C00001280ED1012001F0F0FF9949ADF80000EB
:10B5D000C88200A9532001F099FABDF80000FDF7D8
:10B5E00030FC01BD009921007FB504461226002CD5
:10B5F0000D4646D08E48C08A844209D1FFF7D5FA5D
:10B6000001462846F7F76AFB00F0010080F00106CA
:10B6100000208DF80000ADF8024000A807F062FF9E
:10B6200058B101A807F0F2FE012806D101A9284669
:10B63000F7F754FB012600B1002600F024F814BFF0
:10B640000128122E05D12946204606F0A1F800B1A6
:10B6500000262946204600F09BFE0A2808BF012646
:10B660000AD0A02806D12946204600F099FF20469E
:10B6700000F0E9FF012E03D10021204600F00AF876
:10B68000304604B070BDDFF84C0B007800287047DE
:10B69000484F002038B50446FFF7F5FF18BF0128D2
:10B6A0000D460BD12046FFF738FF2B46214601B04F
:10B6B000BDE830400D224FF6FC701BE031BD10B5E7
:10B6C0000446207A38B1A169A089FFF78DFF0128CF
:10B6D00008BFA08908D0E07950B161696089FFF79F
:10B6E00083FF012804D16089FFF7D0FE012010BD3F
:10B6F000002010BD2DE9F04182B0044604208DF8F1
:10B7000001000D4616461F4600F098F94FF001085B
:10B71000A0B147B1002181778580017841F0800197
:10B7200001700021C176032201690A702A0A4E7055
:10B730008D70CA70448006F065FC80464046BDE8C6
:10B74000F6812DE9F84304468846A06A90F80190F6
:10B750008178C07801EB0025207F0126042802D0E3
:10B7600000F0F2F860E0DFF86C0A314F0078B9F1D0
:10B77000020F0AD9A9F10302082A42D9093A34D0A2
:10B78000521E21D0521E3CD039E0002818BF01289B
:10B7900037D1B87B800734D50021A8B202F0BFFCB6
:10B7A00000281EBF81791822114208D0A18900917A
:10B7B000002243886189008802F084FD13E00121A2
:10B7C000A8B207F0D1F91CE0002818BF012818D151
:10B7D000B87B800715D5A8B2FFF74AFEA8B2FFF7DD
:10B7E00055FEC5280DD100260BE0002818BF012802
:10B7F00007D1B87B800704D5FDF7F0FB01E04FF0DF
:10B8000000086089AAB2494607F0E6F96089FFF7A7
:10B81000EDFD48B1A07C022806DBA089F98A8842A8
:10B820001CBF002E404600D10020BDE8F28300007E
:10B83000EC4900209850002041510020CC4F0020BE
:10B8400002992100D64200202DE9F04585B004463A
:10B850000A200D4690469A4601268DF8010025B92A
:10B860004FEA4A000A308DF8010000F0E7F80700BF
:10B870002DD03E69092006F8010B41464AEA4510E1
:10B8800006F8010B3046F7F737FA06F1080175B9EB
:10B890000C98002209E030F8123001F8013B30F832
:10B8A00012301B0A01F8013B521C5245F3DB012008
:10B8B000B877FFF77AF900F01CF918B10120787712
:10B8C00001A838627C80384606F09CFB064630466C
:10B8D00005B0BDE8F085FEB50446A06A10F8017F0A
:10B8E000461C314601A8F7F707FA01A9DFF8980BC3
:10B8F000F7F7F4F907F01F05083608B3E020074210
:10B900001CD16800F6F728FF070019D0002007E0D7
:10B910003178727801EB022127F81010B61C401C18
:10B92000C0B2A842F4D300972B46A08901AA0021F7
:10B9300000F00DF83846F6F775FFF7BD00F004F893
:10B94000F7BD0000DA420020D32007F0F9B92DE955
:10B95000F843DFF8845C04462868884691461F4611
:10B96000D8B178000E3080B2F6F7D4FF060014D0BC
:10B97000D4203070748086F804804946701DF7F733
:10B98000BBF977737A00089906F10E00F6F77AFF93
:10B9900029683046BDE8F4430847BDE8F18300005C
:10B9A000A85000207CB50446886A10F8015F05F0B5
:10B9B0001F01461C012917D1314600A8F7F79CF951
:10B9C00000A9DFF8C40AF7F789F9083678B1E02052
:10B9D000054209D17078B17800EB0121307889B245
:10B9E00000F032F9204676BDFFF7AEFF002076BDAD
:10B9F0000000000080420020BE4200202DE9F843F4
:10BA000000F07CF8994600F019F80127060012D0E2
:10BA100030690B21017080F8018080F80290B777BF
:10BA2000FFF7C3F87062777735627480B776304677
:10BA300006F0E8FA07463846BDE8F28300A8ACE411
:10BA4000F8B504460025A06A10F8016F4778A06990
:10BA500005F0FFFE00281CBF017900291FD0032933
:10BA60001DDA0F2E00DA0FB1012510E00575002E4A
:10BA7000DFF8301C0FBF096851F826103C225143F3
:10BA8000C1618161012180F82010FDF767FBDFF8BB
:10BA9000540C0278A0892946BDE8F84006E0F1BDC3
:10BAA000C0420020044F0020084F00202DE9F04143
:10BAB00084B000F023F8FFF7C1FF0126070014D07F
:10BAC00038690C210170457080F80280BE77FFF75D
:10BAD0006CF800F00EF810B17E7701A838627C8017
:10BAE000BE76384606F08EFA0646304604B0BDE80B
:10BAF000F081786201A9204607F095BC0446032036
:10BB00008DF801000D469046704710B5806A401CC4
:10BB10004478007860BB012C18BF022C28D1DFF8D4
:10BB2000C43B01221C700021512005F07EFB022C39
:10BB30001ED1DFF8B40BDFF86C2B007800280FBFA4
:10BB4000106852F820003C22504303224FF47A71CF
:10BB5000B0FBF2F048430246DFF8EC1B08604FF4FC
:10BB60008041DFF83C0C0078BDE81040F8F714B9CC
:10BB700010BD10B504468EB02168086AA8B1C97F0F
:10BB800001AAFEF700FFDFF81C0CBDF80E10C08AFA
:10BB900081420AD0206800889DF8212000904FF64D
:10BBA000FE73BDF8100002F08DFB0EB010BD00005A
:10BBB0000C4F0020104F0020584200205C42002013
:10BBC000F0982100FA982100F898210070B5DFF86C
:10BBD000042612780021002A18BF012A19D1002258
:10BBE00000E0521CDFF8C03B1B789A4211DADFF804
:10BBF000BC3B242404FB02342379FF2B1CBF238A83
:10BC0000002BEED0002819BF00232382591889B2D7
:10BC1000E7E700F07AFB00E0521CDFF8784C24786C
:10BC2000A2420FDA1C245443E55AB5421EBFE51860
:10BC30002C8B002CF0D0002819BF00242C83611815
:10BC400089B2E9E7084670BD38B5DFF8585B0C46A5
:10BC500095F87210814211D2FFF7F0F9DFF8500B1E
:10BC600004806421E879BDE8384001FB00F2DFF888
:10BC7000300B00784FF40071F8F77FB831BD000049
:10BC8000D242002038B5DFF8345C0446286803E06F
:10BC90000188A1420AD040680028F9D10820F6F7AF
:10BCA0005BFD18B1048029684160286031BD000047
:10BCB000F4420020D042002070B5DFF8005C286814
:10BCC00082B0002401E04068641C0028FBD1E4B28B
:10BCD0006000F6F741FD06001FD02868002105E04E
:10BCE0000288C9B226F81120491C40680028F7D103
:10BCF000DFF8B01AB1F86E00CA8A00969042234667
:10BD000001F1390203D10021FFF721FE02E00021F9
:10BD1000FFF79AFD3046F6F785FDBDE8734006F063
:10BD200018BA10B5DFF8944B03E041682160F6F7CC
:10BD300079FD20680028F8D110BDF8B5DFF8640A55
:10BD4000DFF86C5A848C298881845020294600F0C1
:10BD5000DDFE2E88002704E0B14218BF00F0DBFAB8
:10BD60007F1CDFF8300B0078874209DADFF8AC0B74
:10BD70001C2101FB07004189A142EDD14681EFE77B
:10BD80002C88DFF85C5C286870B10620F6F7C2FDED
:10BD900050B1D52101708480002181700121C170D2
:10BDA0002968BDE8F4400847F1BD00002251002099
:10BDB000DFF8300CC18A4FF6FE72914200D1704715
:10BDC00080B5807B800704D500F00DFBBDE8014005
:10BDD0001DE001BD2451002010B5DFF8C80990F81E
:10BDE000660098B14FF47A7101FB00F4F6F790FD0C
:10BDF000DFF8F41B098808400219DFF8A40900786D
:10BE0000BDE810404FF48071F7F7C6BF10BD2DE9B3
:10BE1000F84F0025A84605F0EDFD002446460EE04B
:10BE2000304605F0CEFD48B10179002918BF04293C
:10BE300004D1807A00F0D2FB00B16D1C761CDFF8D3
:10BE4000680990F80090F6B24E45E9D300F01FFA69
:10BE50008346002609E0304600F03EFA20B1807C9F
:10BE600000F0BCFB00B1641C761CF6B25E45F2DB50
:10BE70006419E4B2002C44D0A000F6F76DFC5FEA30
:10BE800000083DD0A200FF21F6F714FD4FF0000A94
:10BE9000002617E0304605F094FD070011D03879F0
:10BEA000002818BF04280CD1B87A00F097FB40B1E5
:10BEB000009401467A7A3888434600F069F80AF11E
:10BEC000010A761CF6B24E453EBF5FFA8AFAEDB221
:10BED000AA45DFD30026F6B25E4512DA304600F0FE
:10BEE000FBF905000AD0A87C00F078FB30B1009483
:10BEF00001466A7C2888434600F04AF8761CEAE747
:10BF00000024DFF8E00A007B622518B106F0D9FEB4
:10BF1000C0F15405EDB2032095FBF0F95FFA89F901
:10BF2000B9F1200FA8BF4FF01F09C34600260DB17D
:10BF300020260025E4B2A14532BF4F46274646F0F1
:10BF400040065A463146384600F054F8824670069C
:10BF50000AD47F1EFFB2002002E00BF1040B401C4C
:10BF6000C0B2B842F9DBE41BBAF1000F01D1700690
:10BF7000DCD5B8F1000F1CBF4046F6F753FC504625
:10BF8000BDE8F28FF34200204051002028500020ED
:10BF9000F0B5059C002500264FF6FF7702E01D4610
:10BFA0001B1D761CF6B2A64223D2B3F800C0BC45D6
:10BFB0001CD015B12D888542F1D26045EFD29C4648
:10BFC000BCF80050BD4205D0761CF6B2A6420CF17A
:10BFD000040CF5D365463CF8044D2C8063459CF871
:10BFE0000240AC709CF80340EC70F3D318809A7058
:10BFF000D970F0BDF8B5044604EB4400801C8DF800
:10C0000001000E461546FFF719FD012730B30169FF
:10C0100008220A7004F01F0232434A70891C002271
:10C0200012E02B8801F8013B521C2B881B0A01F8F7
:10C03000013BAE78EB7803F0070306F0070643EA0E
:10C04000061301F8013B2D1DD2B2A242E9D34FF6EF
:10C05000FC714180877605F0D5FF07463846F2BD72
:10C060002DE9F843002604464FF6FE71A36A5A787C
:10C0700003F1020C1306084602F01F092FD409EB46
:10C080004905237FAD1CEDB2AB4228D1B9F1000FB9
:10C0900005D09CF800009CF8013000EB0320B64668
:10C0A000DFF840590BE008F00703EF8A1FFA81F828
:10C0B000B8450CF1030C08BF1E460EF1010E5FFAE5
:10C0C0008EFECE4510D29CF802809CF800109CF8A1
:10C0D0000130882718EA070F01EB0321E3D0BDE800
:10C0E000F243D32006F02CBE2EB989B280B200F004
:10C0F00057F800284CD0A08905F0A8FB06F10109EB
:10C1000088B10021C171DFF8E418027A09788A4207
:10C1100007D3491C01EBD1714910072E0172B8BF3A
:10C120004E46467234E0A0894FF6FF7100F072F877
:10C13000070010D100F08BF8070029D000F02CF890
:10C14000A0893880A88C7881AA20B87400F073FA8E
:10C15000387401207874DFF894080178387C8842BC
:10C1600007D3481C00EBD0704010072E3874B8BFBE
:10C170004E467E7400203873B81C07F047F938B972
:10C18000207A28B1A169B81CBDE8F443F6F7B4BD24
:10C19000BDE8F183079921001C220021F6F78ABB34
:10C1A0004FF6FE7310B598421CBF02F06003602B7F
:10C1B0000ED0DFF83038DB8A940607D4520603D558
:10C1C000834205D2002010BD8342FBD39942F9D3AC
:10C1D000012010BD3C51002038B50024DFF83C5749
:10C1E00005E01C2000FB045000F095F8641C00F0F2
:10C1F00047F98442F5DB0020DFF8F41701EB8003F8
:10C200004FF6FE725A80002201F82020401C0328BD
:10C21000F4DB31BD30B50023DFF8004701E05B1CE3
:10C22000DBB2DFF8FC26127893420EDA1C225A4366
:10C23000155B8542F3D1121955898D421CBF4FF60B
:10C24000FF75A942EBD1104630BD002030BD38B596
:10C250004FF6FF714FF6FE70FFF7DCFFB0B9002418
:10C260000FE0DFF8B8161C2202FB0415A97C002998
:10C270001CBF697C002903D1288802F048F82846B1
:10C28000641CDFF89C1609788C42EADB32BD10B5DD
:10C2900000200021DFF884264FF6FE7407E01C23FF
:10C2A00003FB01231B88A34218BF401C491CDFF875
:10C2B00070361B78C9B29942F1D380B210BD38B53F
:10C2C00004460D4603E000F026F829462046FFF715
:10C2D000A1FF0028F7D131BD70B5002100F015F89D
:10C2E00001E0491C521CDFF838462478D2B2A24241
:10C2F00009D21C245443E55AB542F3D0CDB285424D
:10C30000EFD1E01870BD002070BD0022DFF80C36C0
:10C310004FF6FE76704710B5040007D0FFF73CFFDC
:10C320004FF6FE7020804FF6FF70608110BD38B56B
:10C33000044600250AE0DFF8E4051C2101FB0500A6
:10C340004189A14218BFFFF7E6FF6D1CDFF8D00559
:10C3500000788542EFDB31BD38B504460B480078E4
:10C360000D46002811BF0128DFF87806808C854231
:10C3700005D1204605F06AFA08B1083032BD2946D9
:10C380002046FFF747FF00B1103032BD3C5100207E
:10C390002DE9F04704468A4600260027DFF87C8511
:10C3A00017E01C2000FB07F909EB0805A81C07F0A3
:10C3B0002DF860B139F80800A04208BF46F00A061F
:10C3C0005146A81CF6F78AFC08B146F0A0067F1C6F
:10C3D000FFB200F055F8874202DAF0B20028E0D050
:10C3E000F0B2BDE8F08738B50025DFF8B84316E0B5
:10C3F000284605F0E6FA00281EBF01790129022926
:10C400000CD0C1794A1CC27194F867208A4205D2C7
:10C41000002181724172008801F079FF6D1CDFF804
:10C4200088030078EDB28542E2D3002517E0DFF8FB
:10C43000EC041C2101FB05004FF6FE7201889142BD
:10C440000CD0017B4A1C027394F867208A4205D203
:10C45000002181744174008801F059FF6D1C00F0C7
:10C460000FF88542E3DB0020DFF8841511F8202067
:10C4700012B1521E01F82020401C0328F6DB31BD0A
:10C48000DFF89C0400787047254A00202DE9F0472A
:10C49000054689464FF6FE78924600240020012189
:10C4A0004646DFF8787409E0F6F732FAC0B290FB3E
:10C4B000F4F104FB1100C0B200240021002202E0CC
:10C4C000DE5B521CD2B2DFF8CC331B789A421FDA03
:10C4D0001C23534333F807C0C44518BFAC45F0D004
:10C4E000CC451FBFD44503EB070C9CF811C0BCF131
:10C4F000000FE6D0BCF1080FE3DABCF1070FDFD084
:10C50000641C0029DDD1E4B28442DADBD85B45E06B
:10C51000DFF8E0241278002A18BF012A33D1002264
:10C5200002E01E88521CD2B29F4B1B789A422ADA34
:10C530009E4B4FF0240C0CFB0233B3F800C0C445F3
:10C5400018BFAC45EED0CC451EBFD44593F809C00A
:10C55000BCF1000FE6D0BCF1080FE3DA93F804C099
:10C56000BCF1010F18BFBCF1020FDBD093F809C07A
:10C57000BCF1070FD5D0641C0029D3D1E4B28442AA
:10C58000D0DB18880AE0E4B224B118B9012C8BD1B1
:10C59000012091E7464514BF30464046BDE8F0878C
:10C5A0002DE9F041044688460027DFF8706300E07B
:10C5B0007F1CFFF765FFFFB287420AD21C2000FBF9
:10C5C00007F5A8194146801CF6F788FB0028EFD034
:10C5D000AC53BDE8F0810000D850002007210D28A1
:10C5E000A8BF012109DA0728A8BF032105DA03281B
:10C5F000A8BF052101DA00B9002108467047F8B547
:10C6000005460E461746FFF722FE040012D0FFF73C
:10C61000C3FD2580668107B90127DFF8C803A77429
:10C6200090F86C0001280CBF00200720607400F017
:10C6300002F82074F1BDDFF8B4030078401C00EB71
:10C64000D07040107047F8B504460025B34E15E091
:10C650001C206843815BA14207D04FF6FF729442D1
:10C660000BD14FF6FE72914207D08719B81C06F025
:10C67000CDFE10B93846FFF74EFE6D1CFFF700FFE8
:10C680008542E5DBF1BD4FF6FF70DCE7DFF86803BC
:10C690000FF2150141600FF2310181600FF24D017F
:10C6A000C16070471899210080B5DFF85013096800
:10C6B0008A7942B9C2680968407806F067FABDE82D
:10C6C000014005F046BD01BDC648B0F87010491CD8
:10C6D000A0F8701089B2002904BF0120FFF776BAD4
:10C6E0007047000037510020E942002010B5C44ACD
:10C6F000127882B00AB9E12925D10189491C01814A
:10C7000089B2284829B9A0F870100120FFF75EFA15
:10C7100013BDBC490978B1B1B0F87040A14212D242
:10C720000020FFF753FA6421414391FBF4F11A29E9
:10C7300009DBB54909680A0005D0ADF80200ADF87B
:10C74000004000A8884713BDE850002000B583B022
:10C7500000A9002200230CC100A9F6F7BFFA401E71
:10C760008041C00F0EBDA948A9490160A949416097
:10C77000A949097801290ED10FF21D1181600FF22C
:10C780004111C1600FF29D1101610FF20921416158
:10C790000FF2210181618068010018BF00477047D6
:10C7A000A8500020EC490020F0982100F842002019
:10C7B0002051002070B58AB0054602208DF8050092
:10C7C00001A8FEF7EAFD040061D020690421017090
:10C7D000602141700120A076A077FEF7E6F9606243
:10C7E0006580E07E7F4D20B92878E0762878401C6F
:10C7F0002870207E01280AD18848007828B1E87A7C
:10C80000002804BF2078002801D1002020760DF1F7
:10C8100002012046FDF7EDFF060035D02420F5F794
:10C820009BFF029068B32422FFF7B7FC00A95020B9
:10C8300000F05EF90299BDF800004881E88A02998B
:10C84000ADF82000022008730299087202996088EE
:10C85000088001200299C88102999DF80200C877DA
:10C860000299607D487302980662E08AADF8120072
:10C87000607D8DF8140002A8FAF781FC0298F5F7A4
:10C88000D1FF3046F5F7CEFF2046F5F7CBFF0AB0D3
:10C8900070BD0000FF98210038B50024604D06E00F
:10C8A0000422FF2105EB8400F6F704F8641C5D48C0
:10C8B0000078E4B28442F3D331BD0000F850002088
:10C8C0002DE9F04184B00024464DDFF854814FF645
:10C8D000FF7602E030187880641C52480078844269
:10C8E00019DA38F82400B042F6D008EB84077888CB
:10C8F0000028EFD102208DF8080038F82400A98C18
:10C90000ADF8000000A800F098F90422FF21384695
:10C91000F5F7D0FFE0E7BDE8FF810000EC4500201F
:10C92000FF982100FEB5044602202E4F8DF8080026
:10C930000D46B98CADF8004000A800F07CF9FF2648
:10C940001A2824D03749364A097800204FF6FF7C50
:10C9500004E0FF2E08BF0646401CC0B2884208DA39
:10C9600032F820306345F4D0A342F5D102EB8000C9
:10C9700006E006D1FF2E06D002EB860022F8264004
:10C9800045800120FEBDB98C00A800F056F90020BA
:10C99000FEBD00003EB5044602208DF80800ADF84B
:10C9A00000404FF6FF750F48818C00A800F045F954
:10C9B0001C491B4B0978002001E0401CC0B2884292
:10C9C00005DA33F82020AA42F7D0A242F5D18842F6
:10C9D00005DA0422FF2103EB8000F5F76BFF37BD7A
:10C9E000DC500020EC490020109921000299210020
:10C9F000285000203C510020CC4F00201451002032
:10CA000008992100F0420020704E0020144F0020B1
:10CA1000711A2100ED1A21003751002032510020F7
:10CA2000784F0020129921002DE9F04104460D466F
:10CA30000026AC4203D004F0D9FB070001D1012647
:10CA400027E0284604F0D2FB18B10146284604F03E
:10CA500027FD00223946284604F0A8FBC8B1384615
:10CA6000F5F77AFE5FEA000812D043463A46002105
:10CA7000204604F0DAFC30B943463A460021284605
:10CA800004F0D3FB00B101264046F5F7CBFE00E0F1
:10CA900010263046BDE8F08110B5F5F73DFBF4F700
:10CAA00093FDF3F7B5FF012000F006F80446FF20E0
:10CAB000F6F785F8204610BD38B5010018BF0121F2
:10CAC0000846F5F7DEFA044600208DF8000000A9BC
:10CAD0005620F6F761FC6F49E220F6F75DFC6E4DDB
:10CAE000686818B1F5F79EFE00206860204632BDE8
:10CAF00080B50A46E2281CBFBDE80440F6F72FBC0B
:10CB000064491046F6F7F8F8002002BD38B504462F
:10CB10000D46E22C04BF5F48F6F7EEF829462046A2
:10CB2000BDE83440F6F738BC80B500210172F4F757
:10CB3000C5FD002002BD00210172F3F7B9BF80B529
:10CB400000210172F3F7B9FF002002BD38B500F0F3
:10CB500099F808B1FC2032BD207903280CD060B9C7
:10CB60001B20F5F7F9FD686090B11B220021F5F755
:10CB7000A1FE68680B30A06190E0E0790028FBD04E
:10CB800024214843F5F7E8FDA06100286860F3D14F
:10CB90001A2032BD10B582B0044601208DF8000085
:10CBA00000A95220F6F7F8FB0020607584F82000F9
:10CBB0002046F3F787FF002016BD80B500210175E0
:10CBC000F4F780FD002002BD70B504460D46627F7B
:10CBD000217FE07FF4F74CFA060023D01222214691
:10CBE00006F12C00F5F74EFEE27F216A7068F5F73A
:10CBF00049FE0B2204F1140106F12000F5F742FE74
:10CC000028001CBF307A002807D0716829B1A847D6
:10CC100018B13046F5F790FE04E03046F4F70EFA0E
:10CC2000002070BD1A2070BD0021CDE780B501F055
:10CC30007DFC002002BD01F094BC01F01EBD80B55A
:10CC400001F030FD002002BD38B50D46044600213C
:10CC500000220846F4F70CFA88B100F128010222FC
:10CC60000A748C800A73CD8100224A7431224A8270
:10CC7000002180F82810BDE83240F4F7DFB931BD5B
:10CC8000F4F792BD0446044D206828606868704738
:10CC90000000000060500020905000200020A07193
:10CCA0002046F5F70FFC002032BD000080B501F0F2
:10CCB00047FB00214FF6FE70002308E0DFF8F42B5D
:10CCC00002EBC102491C5080537053601370DFF8AF
:10CCD000E82B12789142F1DB002108E0DFF8DC2B31
:10CCE0000A2303FB0122002350801372491CDFF842
:10CCF000D02B12789142F1DB0021DFF8C82B02E043
:10CD000022F83100491CDFF8C03B1B78C9B29942B8
:10CD1000F6D3DFF8B80BDFF8B81B007808704FF4D3
:10CD20007A72DFF8B00B0078BDE808401021F7F701
:10CD300033B82DE9F04380460D46E80785B09146AB
:10CD4000DFF8944B08D5A8074FF6FC7854BF45F0A0
:10CD5000080545F0100530E0404601F04BFAE18A45
:10CD6000884205D02A460221404601F011FA08B94E
:10CD7000002068E02B4602224FF6FE71404600F08C
:10CD80003AFC00285ED105F0DF05680615D402A93B
:10CD9000404606F048FB45F0200768B9A18C4046A4
:10CDA000FFF738FA060008D0B01C06F02FFB20B1C0
:10CDB000B11C02A8F5F7A0FF3D46DFF8206BE38A1F
:10CDC00037780120009000223946184600F0E4FE32
:10CDD000791C3170B0BBA8064CBF0E2006208DF820
:10CDE000050001A8FEF7D9FA040029D00120A07798
:10CDF000FDF7DBFE606201212069017005F078011A
:10CE0000417087704FEA1821017180F8038000217A
:10CE10004171A90603D502A9801DF5F76DFF4FF6F4
:10CE2000FD70B9F1000F608006D0DFF8F00C0078DB
:10CE3000814538BF84F81A90204605F0E3F802E0F7
:10CE4000102000E0C72000F0B0BD10B5DFF8844A24
:10CE500020784FF48051F6F7D5FF20B1DFF8301C71
:10CE60000120087010BDDFF82C0C0278DFF8280CC8
:10CE7000007801280CBF012103210020FFF759FF92
:10CE8000DFF89C0C02882078BDE810404FF48051F8
:10CE9000F6F773BF2DE9F84304460D46164698464B
:10CEA000FEF7A4FA10B14FF6FF7046E0DFF8740CFD
:10CEB000007802283DD1DFF8700C0178204601F09F
:10CEC000E1FAA0BB00F034FE089901F028F9070050
:10CED0002FD0787901284FF6FE791AD1B979788860
:10CEE000182211420ED0DFF8441C097839718542AE
:10CEF0001CBF8642804509D1424631462846FFF78D
:10CF0000C5FA03E0DFF8D019097D3971484506D02C
:10CF100013E0032806D0042808BF48460DD07879CE
:10CF2000022806D00721204601F0ACFA08B12046BD
:10CF300003E02046BDE8F24301E0BDE8F28310B50E
:10CF4000044604F05DFC18B9204604F075FC08B1F5
:10CF5000204610BD4FF6FE7010BD2DE9F843044683
:10CF600088469146FEF742FA0027002854D100F087
:10CF7000DFFD494601F0D3F8060020D07079032880
:10CF800015D1B07902251821084230D10021404640
:10CF900001F030F9DFF84019C98A884231D1DFF851
:10CFA000A80C027849462046FFF7C3FE33E001286B
:10CFB00032D17088072101F065FA68BBE1E72046AD
:10CFC000FFF7BDFF04F042FC30B34179CA0723D517
:10CFD00001258A0707D501222146404600F0EEF9D7
:10CFE0000028D3D118E041F002014171CEE77088EA
:10CFF00000904FF6FE7300222146404601F062F990
:10D0000009E02A462146404600F0D8F920B94946B1
:10D01000204600F090FD01273846BDE8F2832DE957
:10D02000F04FDFF8B46888460446B18C89B0934667
:10D030004046FFF791F95FEA00094FF0060A03D076
:10D0400099F80100002864D0A06A457881788DF8AD
:10D050000C10C178007901EB0027404600F080FDFC
:10D06000A16A497940188DF80400A80648BF4FF01E
:10D070000E0A87210D4206D105F01800182802D0AB
:10D08000207F504503D0D32005F05AFE41E0002018
:10D0900000F08FF8032805F078053AD04FF6FF7AB4
:10D0A00098BB18210D4236D045F00105E80648BF6F
:10D0B00045F00205A089294601F031F802001EBFA3
:10D0C00090791821084212D0507901280FD1B9F176
:10D0D000000F0CD0B18C5088FFF73EF900281CBF20
:10D0E0004078002803D099F80110884211D300F04D
:10D0F00069F850B9ABF800A00021207A00B1A1690D
:10D100009DF80420A08905F03FFDBBF800005045C4
:10D1100010D000204AE0707B08B100F053F82B4695
:10D1200002224FF6FE71B8B200F065FA0028ECD189
:10D13000ABF800A0012000F03CF82946B8B201F09D
:10D1400059F8F18A88422BD1B8B204F07FFB48B17C
:10D150000079012818BF022804D104A9B8B206F04A
:10D1600062F905E0FDF721FD014604A8F5F7C4FDCD
:10D17000207A012803D1A16906A8F5F7BDFDA06AB0
:10D1800040789DF80C3040F030000290002204A856
:10D190000190B9B206A80090A08900F09FF8B8E706
:10D1A000A16A9DF804004871FDF714FD09B0BDE8BF
:10D1B000F08F00909DF804209DF80C10A089434644
:10D1C00000F0EABCA0892B460122414613E22DE97A
:10D1D000F04F0446DFF800970846B9F8241087B0EE
:10D1E000FFF7BAF8082758B1417849B9DFF8CC1BE6
:10D1F0000978491C01EBD171491001700721417078
:10D20000A06AC1780279467890F802B090F807A039
:10D2100001EB02284179827901EB0225F10648BF32
:10D220001027B10644BF0837FFB236F0700104BFC3
:10D23000217FB94203D0D32005F082FD46E006F0FD
:10D2400070060021F20607D500F1080105A8F5F7E0
:10D2500053FD082106F0EF06B00608D5A06A0818AD
:10D2600000F1080103A8F5F747FD06F0DF0659466F
:10D270001FFA88F000F03CFFDFF844160978884276
:10D2800008DA00F095F881798A451FD280F806A067
:10D29000002000E00420B9F816101FFA88F78F422A
:10D2A00012D018B900F015F880B901E004280DD1AA
:10D2B00003A80190029605A800905B465246A9B2C9
:10D2C000384600F00BF801E000F003F807B0BDE8C5
:10D2D000F08FA18933460122A8B28CE12DE9FE4FDF
:10D2E0008A46984605469346414600F001FFDFF81E
:10D2F000D0150978884204DA00F05AF8B0F80490A2
:10D3000001E04FF6FE7908208DF801000E9CE00642
:10D3100044BF10208DF80100A00604D59DF801003F
:10D3200008308DF8010000A8FEF737F806003DD060
:10D330000120B077FDF739FC706201A9484606F07C
:10D3400072F818B10120707701A806E0E00605D553
:10D350004D4503D1012070770C9830623769022067
:10D3600038707C7087F80280FD70280A387187F861
:10D3700005A04FEA1A20B871484600F0F1FB584466
:10D38000F8710020E10605D50C9907F10800F5F7C2
:10D39000B3FC0820A10604D50D99C0190830F5F793
:10D3A000ABFCA6F80290304604F02CFEBDE8F78FE7
:10D3B000DFF808150A2202FB00107047F8B5DFF805
:10D3C00018550746E88A012687420C4604D00023F8
:10D3D0003846FEF78FF906460021384600F00AFF6E
:10D3E000E98A884214D10021204600F098FE0028E6
:10D3F0001EBF81791822114206D000F05DFFE98A34
:10D40000008800F05FFF03E00121204605F0ACFB3F
:10D410003046F2BDF8B5DFF8BC54DFF8304B287861
:10D420001021F6F7EFFC28B928784FF47A72102112
:10D43000F6F7B2FCDFF898040178491E0170C9B212
:10D4400029BBDFF88814097801700022052100202B
:10D45000F6F71AFF060019E0002205213046F6F71C
:10D4600013FF0546308980B1401E308180B260B91B
:10D47000B07A400744BF307B00F056FD0620707341
:10D48000F0213068407BF8F7C0FB2E00E4D1002685
:10D490004FF6FE751AE02079002818BFFF2813D038
:10D4A000401E2071C0B278B96079032804D1218868
:10D4B00060880222FFF782FF6079012804D025806E
:10D4C000002065806071A071761C0834DFF8480B7D
:10D4D0000078F6B28642DED300260FF261040AE03D
:10D4E000F6F728FF39462046F6F7FDFE0028F7D16B
:10D4F0007D803870761CDFF8C803007886420BDA2E
:10D50000DFF8B8030A2101FB0607387A401E38729B
:10D51000C0B20028EED1E5E70020DFF8981306E05E
:10D5200011F8302012B1521E01F83020401CDFF8F3
:10D53000882312789042F3DBF1BD000030B50C4631
:10D5400000258DB0002C1EBF0168086A002814D089
:10D55000C97F00AAFDF717FABDF80C006188884260
:10D5600004BF9DF80200012807D10A98017801291B
:10D5700001BF807821788842012528460DB030BD52
:10D5800010B550B900F011F804464FF6FE70844211
:10D5900007D1DFF8A00C007818B1012000F005F8E1
:10D5A0000446FDF7ECFC204610BD30B585B0CA4CF2
:10D5B000F5F7AEF90546E08A8542F9D0FDF702FBA2
:10D5C0008542F5D02846FDF711FF0028F0D1002D47
:10D5D000EED08DF80000ADF8025000A805F082FFF3
:10D5E0000028E5D14FF6FE708542E1D0284605B00F
:10D5F00030BDFDF7C4BC2DE9F84F07464FF6FC706F
:10D6000087420C4615461E4652D00021384600F08F
:10D61000F1FDB14F8046F88A804501D170067DD575
:10D620003146404600F07BFD0100DFF8EC09DFF8F1
:10D630001CA990F800904FF6FE7B16D100215846A9
:10D6400000F06DFD010010D118210E422AD00022F9
:10D65000182301E0521CD2B24A450AEBC20102DA99
:10D6600088791842F6D14A451CDAA1F800805C4559
:10D6700018BF4C80F00748BF46F00406DFF8AC0442
:10D680008E71012D007811D101224A7118238A79F7
:10D690001A4209D008712046B98CFEF75DFE0028B9
:10D6A0003CD110E002203AE0387DF3E74A79012AC4
:10D6B00034D08A7918231A4208BFF87C08714D715A
:10D6C0002CE0401CC0B2DFF8701B0978884225DAD4
:10D6D000DFF8682B1C23002103FB002506E00AEB82
:10D6E000C1022B8852889A42EBD0491CC9B24945E5
:10D6F000F5D3E6D11C2200212846F5F7DBF82C8073
:10D70000B88C6881AA20A87401206874DFF8AC0680
:10D710000078401C00EBD070401028740020BDE859
:10D72000F28FF8B50646DFF88C0B00780C46844281
:10D73000154601D30520F2BD3046FBF72AFD3046E1
:10D7400000F08DF85C490F78B84204BF4FF6FE70C8
:10D7500000F085F8B84222DA564901EBC007786834
:10D7600008B1F5F75FF834B16000F4F7F5FF7860C1
:10D7700018B90120F2BD002078607E807C70DFF84F
:10D78000F00B00783870787800281CBF7868002883
:10D7900003D062002946F5F775F80020F2BD072096
:10D7A000F2BD2DE9F8430446DFF8080B00780D467A
:10D7B0008542904628BF052038D2204600F04FF819
:10D7C0003D49DFF8F0900E78B0424FF6FE7713D166
:10D7D000384600F044F8B0420ED199F8001000200D
:10D7E000012206E019F832308B423CBF1946104640
:10D7F000521CB242F6DBC0B209EBC00677807068FB
:10D8000018B1F5F70FF80020706045B16800F4F723
:10D81000A3FF706060B16A004146F5F733F8748089
:10D820007570DFF84C0B007830700020BDE8F28393
:10D830000120FBE738B50C46154600F010F81E4AEB
:10D8400012789042014608D21A4800EBC100417894
:10D85000217040682860002032BD042032BD38B5F8
:10D860001549144A0978002401E0641CE4B28C4292
:10D8700004DA02EBC4035B888342F6D18C4204BF16
:10D880004FF6FE73984213D1002401E0641CE4B209
:10D890008C4202EBC40502DA28780028F6D18C42CB
:10D8A00006DA68686B8018B1F4F7BCFF0020686086
:10D8B000204632BDD04A0020FD982100E84B0020D0
:10D8C000FE982100D44C002005992100F4982100F5
:10D8D00043510020A8500020EC4900204251002074
:10D8E0002DE9F043044685B0A06ADFF88C9B4578AB
:10D8F0009DB1DFF8C0190978801C8D4255DA0021EE
:10D9000007E00378477803EB072329F81230801CDF
:10D91000491CC9B20A46AA42F3DBDFF8A00BC28A4F
:10D920006089904206D1A0894A46294605B0BDE8E3
:10D93000F043F6E6A17CC1B30027A846002100E031
:10D94000491CC9B20B46AB4205DA39F81330934291
:10D95000F6D188460127002100F0E1FB060014D033
:10D960007079012811D1B079182108420DD0728840
:10D970004946284600F0FEFC08B9012F05D1A089D0
:10D980004A46294600F005FD7080A37C581EA0740D
:10D99000CDF8089001200390CDF80480E07C009041
:10D9A000A269A189608900F003F805B0BDE8F083A1
:10D9B0002DE9F04782B080460D9D0B9C002D1ABFCB
:10D9C0006000001D02208DF80100894617469A4626
:10D9D00000A8FDF7E2FC060038D0A6F80280A6F801
:10D9E000049086F81AA00A98F076B07F012809D131
:10D9F000FDF7E4F8B188814204D0002F12BF7762AE
:10DA00000020B0773069052101700DB944701AE02B
:10DA1000611C4170851C0C98002108E0028805F803
:10DA2000012B491C30F8022B120A05F8012BC9B250
:10DA3000A142F3D3FDF7C2F805F8010BFDF7BEF8DC
:10DA4000000A05F8010B304604F0DCFABDE8F38764
:10DA500001EB400030F8020C7047F8B50446DFF8DF
:10DA60005408007884420D4616460FD2002700E085
:10DA70007F1CFFB2A74205D2FDF7A0F836F81710B9
:10DA80008142F5D1AF4201D10120F2BD0020F2BDAB
:10DA9000A9500020E542002035510020F0B589B0A2
:10DAA00004460D461646FDF7A1FC002708B10020EC
:10DAB00031E000F03DF8314600F031FB060029D09E
:10DAC000B079400726D5FDF779F8854208BF03975E
:10DAD0000FD0284603F0A2FE012814D104208DF8AF
:10DAE0001000ADF8125004A805F0FCFC01280AD182
:10DAF00003900A48037802970197009705AA2946E0
:10DB00002046FFF755FFB07981075CBF00F0FB00AE
:10DB1000B0710127384609B0F0BD00000E99210010
:10DB20000A992100E4420020039921000C99210068
:10DB3000002120465EE310B50C46002100F05AFBA0
:10DB4000214600F0ECFA48B14FF6FE7101804180A9
:10DB50000021017141718171002010BD042010BDB0
:10DB600070B5DFF85859297A072499B9A98CFEF7BE
:10DB7000F3FB06000ED0697BB078012905D1FEF7D2
:10DB80002DFD7478844203D201E0FEF727FD0446A0
:10DB900004B90724204670BD2DE9F84F0746884692
:10DBA00015461E4600F0A4FADFF8141991F800900B
:10DBB0000A9CDFF810B948454FF00A0A0ADA0AFB56
:10DBC00000B0C1798D4203D2DCB1C571868018E006
:10DBD000032017E000214FF6FE7000F089FA484557
:10DBE00008BF02200ED064B1FF210AFB00B0817192
:10DBF00047808680C57180F80080DFF8C018C97C36
:10DC000001720020BDE8F28F38B50A46002141714B
:10DC10000020DFF8B418DFF8B438097800E0401CC1
:10DC2000C0B2884208D2C45C157BAC42F7D1BDE8D3
:10DC300032401046F6F794BB04D106205073002101
:10DC4000106843E031BD00000D99210038B505464C
:10DC5000A878401EA8706879F6F725FB040034D038
:10DC6000A87850B9607B022804D006206073F021A8
:10DC700020682BE00620607331BDA879E8B12879CF
:10DC800018B3E978491EE970C9B2F1B9DFF82C1868
:10DC90004978E970401E2871617B032915D1C0B213
:10DCA00070B104206073F4F733FE00F00F00401CE5
:10DCB00020812021BDE8344015E2607B032804D197
:10DCC00021462846BDE834409EE731BD407BBDE893
:10DCD0003440F7F79ABF38B500210024DFF8F05739
:10DCE00007E005EBC400827812B1FFF7AFFF012116
:10DCF000641CDFF8D4070078E4B28442F1D3DFF883
:10DD0000D447207851B14021F6F77CF858B92078F3
:10DD1000BDE8384064224021F6F73EB8BDE8344003
:10DD20004021F6F756B831BD70B50C46DFF8A05764
:10DD300000210BE0EA79C37C9A4202BF2A888389DA
:10DD40009A4201D1AA7852B9491C0835DFF87827E0
:10DD50001278C9B29142EDD301D1002070BDA879EB
:10DD600048B3DFF85807818C2046FEF753FA10B10C
:10DD7000A879401EA8710020DFF85C17DFF85C2747
:10DD8000097801E0401CC0B288420BDA24234343E7
:10DD90009E183679FF2EF5D09B5AA342F2D1A8796E
:10DDA000401EA871DFF8380700780818A979884262
:10DDB000BCBF0020A871012070BD000002992100A5
:10DDC0002DE9F84FDFF87044DFF804372478012597
:10DDD00005FA04FC4FF00009002702E07F1CFFB2A7
:10DDE0000833DFF8E45695F800A0574502DA9D782D
:10DDF000002DF3D1574508BF002000F0938083F831
:10DE00000690C846DFF8B476DFF8D0E60EE0012EC3
:10DE100018BF032E06D145894FF6FF76B54208BFDD
:10DE20004CEA090908F101084FEA4C0CDFF8A85642
:10DE30002D78A84514DA242505FB08F535F80E6081
:10DE40008E421CBFB7F816B05E45EBD075442E79F4
:10DE5000042E18BF002EDAD19D796D1C9D71E1E76B
:10DE60004FF0000C1EE0DFF8D4E31C2606FB0CEE9E
:10DE7000BEF800608E421CBF4FF6FE75AE420FD05A
:10DE8000BEF80A60BD8CAE420AD19EF81160002E29
:10DE90001CBF9EF81260002E02D09E79761C9E71E7
:10DEA0000CF1010CA445DEDBDFF838169C7909780B
:10DEB000A14238BF9971997900291CBF817C012941
:10DEC0000EBF0021B978491C1971B9F1000FF97919
:10DED00099707978D970818919805A71C07CD8710C
:10DEE00013D00027DFF8E40501E07F1CFFB257459F
:10DEF00004DA395C002918BF9142F6D1574504DA9B
:10DF00003A54DFF8E40540F827904021DFF8C44593
:10DF10002078F5F777FF20B9207864224021F5F7C3
:10DF20003BFF0120BDE8F28F0021DFF8A02500E0D3
:10DF3000491CDFF894351B78C9B2994204D28B5C36
:10DF40008342F5D10020885470470000AC47002080
:10DF5000F8B50446A07A02285CD1DFF89005DFF816
:10DF60009015A27B00780978002A39D1DFF8842542
:10DF7000126813001EBFDFF880552B68002B29D0D4
:10DF8000DFF878653368002B1EBFDFF874753B68D7
:10DF9000002B1FD0012908BF01281BD160889047A2
:10DFA000C0B9DFF86005DFF8601500782A6800283E
:10DFB0000FBF096851F820003C2141436088904719
:10DFC000012827D160883168884760883968BDE8B2
:10DFD000F44008476088BDE8F840012201211DE0B7
:10DFE000DFF828251268AAB1012908BF012811D13C
:10DFF0000420F4F78FFC68B16421017001214170A5
:10E00000618841800146BDE8F440DFF8C80400782B
:10E01000F4F7A1BCF1BD0000FC9821002DE9F04708
:10E0200004460E469146F6F74AF9002842D1002EE2
:10E0300044D0814ADFF8A4341278012191400026AF
:10E04000002202E0521CD2B24900DFF88C743F7803
:10E05000BA4209DA24275743FD182D79FF2DF1D054
:10E06000FF5AA742EED10E460025DFF87C74DFF898
:10E070005C8402E000206D1CEDB2DFF84C1491F8D6
:10E0800000A0554516DA15F8081000291CBF57F8EE
:10E0900025203242EFD00846F6F705F90028E9D0EE
:10E0A000417B0529E6D157F82510B14347F82510E3
:10E0B0005546E0E710B1417B05290AD0B9F1000FC0
:10E0C0000FD0DFF8F803818C2046BDE8F047FEF75B
:10E0D000BBBD01680C80012141732021BDE8F047E0
:10E0E00001E0BDE8F087DFF8EC030078F4F734BD19
:10E0F00030B50022DFF8CC3301E0521CD2B2DFF899
:10E10000C0432478A24208DA0A245443E5186D88F3
:10E11000854204BFE45C8C42EFD1104630BDF8B5B7
:10E12000DFF8EC23DFF8EC63157801F04001002400
:10E130004FF6FE7308E006EBC407BF7907F040070F
:10E140008F421ED0641CE4B2AC4205DA36F834705B
:10E150008742F7D19842EED1AC4208BF984210D125
:10E16000002401E0641CE4B2AC4204DA06EBC40013
:10E1700000790028F6D1AC42BCBF36F83400FFF776
:10E18000DAFCAC4202DA06EBC400F2BD0020F2BDBC
:10E19000F8B50446DFF8800306780D46012D1746D2
:10E1A00004D13146204600F06DF9E8B9FFF7C0FC14
:10E1B0003946FFF7B4FF012D04D0C8B14079A84219
:10E1C00016D111E020B14179A94208BF458802D09B
:10E1D00078060DD425464FF6FE70854208D03146AC
:10E1E000284600F04FF908B10020F2BDA542F1D158
:10E1F0000120F2BD38B504464806B04D07D521468A
:10E20000FF2004F0A1FF88B94FF6FE7032BDC3486D
:10E210000078002818BF01280AD1204603F016FB19
:10E2200030B10079012818BF022801D1E88A32BD37
:10E23000204632BD06992100FF982100EC450020C0
:10E2400070B5022882B00C4616461D4615D004282B
:10E2500018BF01280FD12A4601212046FFF798FF59
:10E2600048B156B12046FFF7FAFAAD49097888421D
:10E2700003D201203070002076BD00212046FFF738
:10E280004EFF00281EBF81791822114208D000F0ED
:10E2900013F88A490088C98A00F014F8012076BD75
:10E2A000A048027829462046FEF743FD0028E2D127
:10E2B000F4E70000009921004FF6FE710091002262
:10E2C00043887047F8B504460D461E4612B1002338
:10E2D0000B2216E000212846FFF721FF070015D08A
:10E2E000B879C00712D5069822463146FEF7CEF817
:10E2F0004FF6FE71884209D0788000230C22214617
:10E30000284601B0BDE8F040FDF7F4B9F1BD814900
:10E3100000220FE08B79DB070AD44B88834204BFCD
:10E320004B79012B04D103234B714FF6FE734B80C5
:10E33000521C0831764B1B78D2B29A42EAD370470E
:10E34000744800214FF6FE720BE020F8022B20F8F3
:10E35000022B002300F8013B00F8013B00F8023BD0
:10E36000491C6B4B1B78C9B29942EED37047000031
:10E37000E642002010B5002300E05B1CDBB28342C4
:10E3800005D231F813409442F7D1012010BD00208E
:10E3900010BD2DE9F34F002481B09046A3464FF005
:10E3A00001094FF6FE7A604E0AE0F4F7B1FAC0B206
:10E3B00090FBF4F104FB110B5FFA8BFB0024A146E8
:10E3C000002501E06D1CEDB24548007885421CDA5D
:10E3D0001C2000FB05F7BA5B52451CBFBDF80400CA
:10E3E0008242EFD000F04AF80028EBD1B819407C07
:10E3F0000028E7D00728E5DA641CB9F1000FE1D165
:10E40000E4B25C45DEDBB85B34E0002501E06D1C66
:10E41000EDB231480078854221DA3048242101FBF1
:10E4200005073A8852451CBFBDF804008242EED071
:10E4300000F024F80028EAD1787A0028E7D00728ED
:10E44000E5DA3879012818BF0228E0D0641CB9F158
:10E45000000FDCD1E4B25C45D9DB38880AE0E4B2D5
:10E460003CB1BBF1000F04D1012C9ED14FF0010B48
:10E47000A4E75046BDE8FE8F484F00209DF80800F5
:10E48000414677E770B50D4D0C46A98CFDF764FF4A
:10E49000060011D0B078FEF7A1F87178002918BFF6
:10E4A000002809D06A7B012A02D1814238BF014687
:10E4B0008C4201D3012070BD002070BDEC490020CA
:10E4C000FE982100E84B002005992100F84F00201C
:10E4D000D44C0020A8500020F0982100F8420020E1
:10E4E000FF98210004992100D04E002037510020D0
:10E4F00039510020184F0020244F00202C4F0020BD
:10E50000284F0020E842002018992100144F0020D5
:10E51000FC982100AC470020039921003C510020C9
:10E52000FD9821000D992100EC450020A84800210C
:10E530000160016841F009010160416A41F0200178
:10E540004162816841F001018160816841F002010E
:10E550008160816841F00401816001209D4908705B
:10E560007047FEB505000E4604D0287A022818BF71
:10E57000032801D0E820FEBD284600F0B5F8FF28AA
:10E5800001D01E20FEBD2C7A00F01CF9074600F0D9
:10E5900031F9022C40EA070111D1002404EBD471B7
:10E5A0004910490020FA01F2D10703D427FA04F1F7
:10E5B000C9070ED5641CE4B2182CEFDB09E0002477
:10E5C000032062009040014203D0641CE4B20C2C92
:10E5D000F6DB182C16D1287A022818D0297A7E4822
:10E5E000022916D102A9320A4A708DF8086000EBA0
:10E5F00004102A888A702A88120ACA700422F6F740
:10E60000A1F90CE00C2C04BF287A0328E6D11A20CB
:10E61000FEBD0822294600EB4410F6F793F9287A4C
:10E620000127022807D16D4E00F022F800F0EFF824
:10E6300007FA04F10CE06A4E00F01AF800F0E7F86F
:10E64000610007FA01F108436100491C07FA01F172
:10E65000014301A8F4F713FB032201A93046F6F7A2
:10E6600071F92A7A0121204600F07CF80020FEBDD5
:10E67000032200A93046F6F76FB910B5040009D09F
:10E68000207A022818BF032804D1204600F02CF875
:10E69000FF2801D1E82010BD227A002100F062F8A5
:10E6A000002010BD01284F4903D10A6842F004023E
:10E6B00003E00A68002022F004020A604A49087058
:10E6C00070474948007808B1FE207047FF20704726
:10E6D0004548007808B101207047444800680006AA
:10E6E000800F00F0010070472DE9FE430446207AB8
:10E6F000022810D18DF8001000A8090A41700425E5
:10E700002188817001262088000A8DF8030000AC62
:10E7100000F058F803E00825022600F06BF8804668
:10E72000002728FA07F0C00715D597FBF6F95FFA1E
:10E7300089F905FB09F0284B2A4601A903EB800063
:10E74000F6F70AF92A4601A92046F4F7A5F80128A8
:10E7500001D1484604E0F719FFB2182FE1DBFF2092
:10E76000BDE8FE83F8B50123440003FA04F403FA7C
:10E7700000F5234E1E4F59B1022A04D100F022F8B1
:10E7800045EA00010AE000F035F844EA000110E033
:10E79000022A0AD100F016F820EA050100A8F4F7D1
:10E7A0006EFA032200A9384609E000F023F820EAB7
:10E7B000040100A8F4F763FA032200A93046F6F733
:10E7C000C1F8F1BD80B5032200A909481AE0000094
:10E7D0000086084028510020008408409C8508409D
:10E7E0009085084028860840295100208C850840E3
:10E7F0000C86084080B5032200A9014802E000BF52
:10E8000018860840F6F7A8F800F001F802BD0321C9
:10E8100000A8F4F75FB8000010B51148114C01686A
:10E8200041F04501016010480068122810D20F48DD
:10E83000C18CCAB22262090A6162418DCAB2A26267
:10E84000090AE162082200F13C012046F6F77AF855
:10E850000020A065A06D40F00900A06510BD00007B
:10E8600094860840A885084048500020644A00204B
:10E8700080B5F4F759FA00F083F8052980F001001B
:10E8800000D182E077E0C01C80B2F4F743B82DE9F4
:10E89000F8430446F4F748FA00F00100424E80F0D5
:10E8A00001053079052824D1DFF8F48001214046A4
:10E8B00009F09AFFE8B90320307100272078C61CC0
:10E8C00001220121404609F092FF4FF47A78DFF8E7
:10E8D000D49009E0395DA8F1010848460AF04AF8E9
:10E8E000012803D100F056F8B74202D2B8F1000F68
:10E8F000F0D10DB1F4F714FA2046F4F71DF8BDE895
:10E90000F18310B5F4F710FA00F0010080F0010473
:10E910002548017921B902210171002200F01EF879
:10E92000002C1CBFBDE81040F4F7FAB910BD10B5BB
:10E93000F4F7FAF900F0010080F001041A480179B7
:10E94000042903D10021017100F007F8002C1CBF3D
:10E95000BDE81040F4F7E4B910BD012201211048D0
:10E9600009F045BF80B5F4F7DFF900F009F880F051
:10E97000010001B109E008B1F4F7D2F9002002BDAD
:10E980000949097900F00100704708B1F4F7C8F9A6
:10E99000064802BD7F1C00A9484609F0F3BF0000ED
:10E9A00000A00D40008000401C500020EC480020DA
:10E9B0002DE9F04104460D4616469846314604F0CE
:10E9C000E000F6F74EFE07000CD03E707C70BD7084
:10E9D00032464146F81CF3F755FF3846BDE8F04192
:10E9E000F6F758BEBDE8F08110B582B0417800ACB2
:10E9F00061708278A2700278FB2AA8BF04200EDA28
:10EA000001F01F01162909DA0C4A52F821100A00F8
:10EA100004D088478DF8000018B913BD01208DF887
:10EA20000000607800F0E000202805D100AB032250
:10EA300000216020FFF7BCFF13BD0000C041002093
:10EA400007E00B8800F8013B31F8023B1B0A00F895
:10EA5000013B13465A1EDBB2002BF2D1704770B552
:10EA600006460D463078002405F077FC08B1B8243E
:10EA700071E0002D6FD0307828702C731420F3F7DC
:10EA80006BFE0028A86065D016F8011B0170307875
:10EA9000717800EB0120A9684880B01C01784278A9
:10EAA00001EB0221AA689180801CAA6810F8011B62
:10EAB000937901F00F0103F0F00319439171461CA3
:10EAC000A96816F8010BC871A868C079A0B1400008
:10EAD000F3F742FEA9688860A868806858B10020F2
:10EAE000A968CA79C0B2904206D232787378896830
:10EAF00000F033F8F4E71024A96816F8010B087346
:10EB0000A868007BA8B14000F3F726FEA968086159
:10EB1000A868006958B10020A9680A7BC0B2904279
:10EB200007D232787378096900F017F8F4E71024F7
:10EB300001E0102C0FD1A868806808B1F3F772FECD
:10EB4000A868017B11B10069F3F76CFEA868F3F7C0
:10EB500069FE00E01024204670BD02EB032221F87C
:10EB60001020B61C401C704738B5DFF8D04620682E
:10EB700001E00546006890B1017B491E0173C9B2EE
:10EB80000029F6D121688142016803D12160F3F7A1
:10EB900049FEECE72960F3F745FE2868EBE760687B
:10EBA00048B1C17E491EC176C9B221B96068F3F788
:10EBB00039FE002060602068002804BF60680028DB
:10EBC0000ED0DFF87C4620784FF47A720821F5F7F2
:10EBD000D4F828B12078BDE834400821F3F7BCBF51
:10EBE00031BDF0B5064685B0B5780024280014D0B4
:10EBF000012D18BF022D3BD0032D3DD0042D2AD06E
:10EC0000102D3DD0112D6AD0122D64D0132D00F09F
:10EC10009780142D00F0A480B9E010208DF800003A
:10EC2000B578F3F799FD07001ED0DFF81406786079
:10EC30003946F01CFFF713FF8DF8000020B9384665
:10EC400005F040F98DF800009DF8000010B138463D
:10EC5000F3F7E8FD08E010208DF80000B578F078B3
:10EC600005F042F98DF8000000AB012229468AE048
:10EC7000304600F090F88BE0304600F03EF987E037
:10EC8000F01C461C0078E0B102280BD015D30328F5
:10EC90001AD100F02FF9B178FAF7A3FE401E804197
:10ECA000C00F12E0307805F058FB20B1FAF79FFE54
:10ECB0008DF800400BE0012007E03078FAF744FEC1
:10ECC00003E0FAF763FE00E002208DF8000000ABDD
:10ECD0000122102157E0304600F060FA58E0012090
:10ECE0008DF81000F51C2846F3F7EEFDAA78E91C14
:10ECF000DFF848556E681EB910208DF810001BE033
:10ED00003368A2B9B07E0390707E0290009306F142
:10ED100018000190F38AB28A3169301D05F007FAB4
:10ED20008DF810006868F3F77DFD6C6004E0C01892
:10ED3000F3F7A8FD8DF8104004AB0122112122E069
:10ED400030798DF8040001A970798DF80500F0780C
:10ED500005F078FB8DF8000000AB0122132112E0D2
:10ED60000FF2E0400068019001A9F07805F058FB2F
:10ED70009DF804008DF8000000AB9DF805008DF8AB
:10ED80000100032214216420FFF712FE00E0022498
:10ED9000204605B0F0BD2DE9F04F89B001218DF876
:10EDA0001010C61C857890F80180022D1AD116F833
:10EDB000010B8DF81C00032805D10822314605A857
:10EDC000F3F760FD03E000F095F8ADF814000836A5
:10EDD00016F8010B8DF81D0000F08CF8ADF81E0040
:10EDE000B41C0EE002208DF81C0000F083F8ADF892
:10EDF0001400B41C14F8010B8DF81D000020ADF8B0
:10EE00001E0014F8010B05F0A8FA06462046F3F799
:10EE10005BFDA71C834617F8010B8DF81100022D2E
:10EE200017F8014B17F8019B07D13846F3F74CFD53
:10EE300082460AF11400BF1C03E017F801AB0AF187
:10EE40000A0036B180B2FB2838DBDFF8F07378684F
:10EE500008B102203FE00AF11C0080B2F3F77CFC0D
:10EE6000786008B9102036E000218DF810100C22CF
:10EE700000F11C0140F8041B05A9F3F703FD7868B5
:10EE80000661A0F814B0A0F816A04FF47A729DF8AD
:10EE90001110DFF8AC63017678684476786880F802
:10EEA0001A900F207968C87608213078F4F765FF4A
:10EEB00098B130780821F3F74FFE0EE0CDF80C90B2
:10EEC00002940DF111000190009753465A463146C5
:10EED00005A805F02CF98DF8100008F0E0002028B6
:10EEE00005D104AB012229466420FFF761FD09B07A
:10EEF000BDE8F08F3046F3F7E7BC2DE9F04F8BB05B
:10EF000001218DF81810C41C81788DF81A100C227C
:10EF1000002108A8F3F7CEFC02208DF82800204637
:10EF2000F3F7D2FCADF82000A61C16F8010B8DF803
:10EF3000290016F8010B05F010FA0446FFF7DAFF76
:10EF4000B61C824616F8010B8DF8190016F8018BD5
:10EF500016F8019B16F8010B07904000F3F7FCFB35
:10EF6000070028D0002505E0FFF7C4FF27F81B00A5
:10EF7000B61C6D1CEDB20798AB468345F4DB16F862
:10EF8000013B0CB9022010E007980597C0B204902D
:10EF9000CDF80C900DF119000190CDF80880009685
:10EFA0005246214608A805F0ABF98DF818003846FE
:10EFB000F3F738FC02E010208DF8180006AB9DF83E
:10EFC0001A1001226420FFF7F3FC0BB0BDE8F08FAC
:10EFD00080B500F008F8C0788870032280214420B2
:10EFE000FFF7E6FC01BD41788DF8001000A982789A
:10EFF0004A7000AB70472DE9F84F044604F11C0934
:10F00000A61CB9F80AA0717BF0890AF11407BFB2F7
:10F010004FF081080025FAF7E4FC20B9307B032883
:10F0200001D0F12F03DB0A374FF08208BFB2FB2F6C
:10F030000CDB0AF1100080B2F3F78EFB05000BD059
:10F0400005F11000A7EB0A076860BFB23846F3F776
:10F0500083FB009020B9002D00F09E80284697E0A9
:10F06000834660880BF8010B6088000A0BF8010BDF
:10F0700070880BF8010B7088000AB8F1820F0BF84A
:10F08000010B1DD1307B0BF8010B307B032805D120
:10F090000822A11D5846F3F7F5FB06E0B0888BF86F
:10F0A0000000B088000A8BF801000BF1080B707BA0
:10F0B0000BF8010BF0890BF8010BF089000A07E04F
:10F0C000B0880BF8010BB088000A0BF8010B707BBD
:10F0D0000BF8010BB07C0BF8010BF07C0BF8010B6B
:10F0E000307D0BF8010BF07D0BF8010B5846E16900
:10F0F000F3F7BBFDB8F1820F0BF1040609D1002034
:10F1000006F8010B06F801AB4FEA1A2006F8010BCE
:10F1100005E099F8080006F8010B06F801ABEDB11F
:10F120004FF47A724548DFF818B10168296005602C
:10F130000F20287308219BF80000F4F71EFE20B171
:10F140009BF800000821F3F707FDE069A86052462C
:10F15000D9F80C106868F3F795FB06E0D9F80C10A5
:10F1600052463046F3F78EFB5644B9F81000307023
:10F17000FAB2B9F81000000A06F8010F414699F8F2
:10F18000120006F8010F4420009BFFF711FC0098C5
:10F19000BDE8F24FF3F746BBBDE8F18F2DE9F84328
:10F1A000264C2568C71C4FF001090026042138466B
:10F1B000F3F790FB00E02D68A5B1A9688142FAD170
:10F1C0003F1D3846F3F780FBBE788046B6B921680C
:10F1D0002868A9420CBF206028602846F3F722FB6C
:10F1E0004FF0000987F800907E703B4601B0BDE803
:10F1F000F043022212216420FFF7DABBB01C80B278
:10F20000F3F7AAFA040003D14FF010090026E9E74A
:10F210000020207066703246686808EB0001A01C70
:10F22000F3F730FBB21C2346D2B212216420FFF761
:10F23000BFFB2046BDE8F243F3F7F4BA5850002074
:10F240002B5100200000000080B5DFF8C41C002016
:10F25000F9F7B7FFDFF8BC1C0120F9F7B2FFDFF8C0
:10F26000B81C0620F9F7ADFFDFF8B01C0720F9F74E
:10F27000A8FFBDE80440DFF8A81C0820F9F7A1BFEB
:10F280002DE9F0438BB085780024C61C2900DFF8F7
:10F29000948CDFF8949CDFF8947C00F09180012D31
:10F2A00000F09180022D00F09D80032D00F0A780DA
:10F2B000042D00F0B180052D00F0BF80062D00F078
:10F2C000C980072D00F0C980082D00F0D3800A2DD9
:10F2D00000F0DD800B2D00F0E5800C2D00F00181A9
:10F2E000202D00F00781212D00F00781222D00F054
:10F2F0002281262D00F03D81272D00F05281282DFE
:10F3000000F00682292D00F03582302D00F06A8150
:10F31000312D00F08081322D00F08A81332D00F0F4
:10F320009481342D00F09E81352D00F0B581362D6D
:10F3300000F0C081372D00F0DA813E2D00F03C82D4
:10F340003F2D00F04882402D00F0D481422D00F086
:10F350007B82432D00F08382442D00F0A382452D53
:10F3600000F0A782462D00F0AE82472D00F0B58256
:10F37000482D00F0BE82492D00F0C4824A2D00F0D5
:10F38000F2824B2D00F010834C2D00F032834D2D76
:10F3900000F037834E2D00F040824F2D00F04A825E
:10F3A000502D00F04183512D00F06A83522D00F062
:10F3B0006B83532D00F06B83CC2D00F01C8277E320
:10F3C00000F0D2FB75E300F0CCFB16F8021F16F834
:10F3D000012F002307F0E7FF01228DF8000000ABAA
:10F3E000114662E300F0BAFB00F0AEFB01460023D9
:10F3F000022200F096FB00F003FC022155E300F02E
:10F40000ADFB00F0A1FB01460023032200F089FBC5
:10F4100000F0F6FB032148E300F0A0FBADF8040088
:10F42000B61C00F09EFBB2780146002301A808F04C
:10F4300028F800F0E5FB042137E300F08FFB00F033
:10F4400083FB01460023052200F06BFB00F0D8FB94
:10F4500005212AE300F0D9FB2BE300F07FFB00F04D
:10F4600073FB01460023102200F05BFB00F0C8FB99
:10F4700007211AE300F072FB00F066FB014600234F
:10F48000112200F04EFB00F0BBFB08210DE300F061
:10F4900068FBB11C00230A7A08F047F800F0B0FBC3
:10F4A0000A2102E302208DF8200000F05AFBADF89B
:10F4B0001800B61C00F055FBB11C074611F8010BF3
:10F4C0008DF8040002460DF10500F3F7DBF9002387
:10F4D00001AA394606A807F0E7FF00F091FB0B21CF
:10F4E000E3E200F03EFB002107F0FFFF00F088FBA5
:10F4F0000C21DAE200F0DEFBDBE202208DF82800CE
:10F5000000F02FFB00F016FB00F0F5FA04D149469D
:10F5100005A8F3F7F1FB03E000F013FBADF81400CE
:10F5200000F0F2FA212008F0BEFA8DF8100004ABCA
:10F5300001222121B9E202208DF8280000F011FB00
:10F5400000F0F8FA00F0D7FA04D1494605A8F3F71D
:10F55000D3FB03E000F0F5FAADF8140000F0D4FAA4
:10F56000222008F0A0FA8DF8100004AB012222211D
:10F570009BE201218DF800100421857800F050FCF9
:10F580003179F9F76EFA8DF8000002200FF6990133
:10F59000F9F717FE0FF6B5010320F9F712FE00ABDD
:10F5A0001DE001218DF808108578701CF3F78CF9A7
:10F5B000074606F10B00F3F787F90346B07B01908D
:10F5C000F21C707B009039463078F9F74CFA0FF650
:10F5D00061118DF808000420F9F7F3FD02AB012258
:10F5E000294662E202208DF8100000F0BAFAADF868
:10F5F0000800B61C00F013FC16F8042F0094014616
:10F6000016F8013F02A808F088FA8DF8040001AB53
:10F610000122302149E200F0FEFB00F0A2FA00F0E6
:10F620005BFA312200F04EFA00F050FA31213CE250
:10F6300000F0F1FB00F095FA00F04EFA322200F0F3
:10F6400041FA00F043FA32212FE200F0E4FB00F02F
:10F6500088FA00F041FA332200F034FA00F036FA6A
:10F66000332122E202208DF8100000F07AFAADF882
:10F670000800B11C01F108000078009400F00103BB
:10F68000400800F0010202A808F09CFA8DF804007E
:10F6900001AB0122342108E200F060FAB11CADF8A0
:10F6A000040000230A7A01A808F04DFA00F0A8FA35
:10F6B0003521FAE1007804280CBF022016F8010B6E
:10F6C00000F04DFAADF80400012016F8021F16F8FC
:10F6D000012FDFF8206B3070002301A808F043FAF7
:10F6E0008DF80000347000AB01223621DDE100F01E
:10F6F00047FBDEE146786420F8F735FD8DF8000021
:10F7000006F0E0002028F4D100AB01224021CCE13A
:10F7100000F081FB00F025FAADF80C0006F10208BC
:10F7200018F8010B8DF808004046F3F7CDF808F102
:10F730000208064618F8019B0194CDF800804B465C
:10F7400000F0D4F98DF809009DF814000F280CD1B1
:10F7500000F061FB0194CDF800804B46F88AADF8CB
:10F760000C0000F0C3F98DF809000DF10903012226
:10F7700028219AE100F0F2F9ADF80400B51C284602
:10F78000F3F7A2F8AD780646002300F0C8F98DF82B
:10F7900000009DF80C000F280AD102208DF80C0003
:10F7A0000023F88AADF8040000F0B9F98DF80000E4
:10F7B00000AB0122292178E1477800F0D2F9014617
:10F7C00099F8000008F010FC00F0AEF991D100AB00
:10F7D00001223E2169E1477800F0C3F9014699F81A
:10F7E000000008F023FC00F09FF940F0628100ABBC
:10F7F00001223F2159E100F012FB07460421301D90
:10F80000F3F768F8F9F7B3FD3846F9F7B5FD8DF869
:10F81000004000AB0122CC2147E100F0A2F9B31C6B
:10F82000024613F8011B184607F0DFFB00F0E8F969
:10F830004E213AE100F095F90146B07807F0F7FB68
:10F8400000F0DEF94F2130E100F08BF9B11C01F13D
:10F85000080207F055FC00F0D3F9422125E101A888
:10F86000002100940A4606C000A9304607F012FBAA
:10F870008DF80400009888B10099098801A84170AA
:10F8800000990988090A817000994988C170009916
:10F890004988090A017100990979417101AB062271
:10F8A000432102E1304607F093FB00F0A9F944211F
:10F8B000FBE000F056F9F278B178FDF73AFA00F083
:10F8C0009FF94521F1E000F04CF9F278B178FEF7AC
:10F8D0005FFC00F095F94621E7E000F03AF90146B7
:10F8E000284603F067FC401E8041C00F8DF80000E1
:10F8F00004E08DF80040C07803F078FC00AB0122F2
:10F900004721D2E0C07801A903F043FC8DF8000044
:10F91000400000F0D2F806001FD09DF8001000F85B
:10F92000011B01AA00210AE032F8113000F8013B66
:10F9300032F811301B0A491C00F8013BC9B29DF88E
:10F9400000309942F0DB33462A4649216520FFF713
:10F950002FF83046F2F766FFABE08DF8004000ABC1
:10F9600001224921A1E000A8142108F0FFFF00F0C6
:10F97000F0F80146284603F0E7FB70B18DF800402F
:10F9800000A902884A700288120A8A708278CA70B6
:10F99000C11C01A8F2F776FF02E001208DF80000FB
:10F9A00000AB13224A2180E08DF8004001A8142109
:10F9B00008F0DCFF16F8015B00F0D3F8ADF80400A6
:10F9C000B0788DF80600102803DB0F208DF80600B4
:10F9D00000E030B19DF80620F11C0DF10700F2F7B0
:10F9E00051FF01A9284603F081FB00F009F94B21E2
:10F9F0005BE08DF8004003F013FC00F001F94C21AE
:10FA000053E0307816F8011F8DF80010002800A987
:10FA100003D05220FDF77AF802E05220FDF768F893
:10FA200000AB01224D2140E0F88AF98A8DF80000F0
:10FA3000090A00A807F1160541700822DFF8B81777
:10FA400009788170E989C170E989090A0171A98879
:10FA50004171A988090A81710DF1070007F1390187
:10FA6000F2F710FF082207F11C010DF10F00F2F769
:10FA700009FFA8788DF8170000AB1822502114E078
:10FA8000122000F0BDF810E0F8F7BDFE11E08DF88F
:10FA90000040C078010605D510F07F0118BF012194
:10FAA00087F8681000AB0122532100F062F900E0F2
:10FAB000022420460BB0BDE8F083451CEDB2284679
:10FAC000F2F74ABE03A9404607F019BC8DF80900B9
:10FAD0000DF1090301227047ADF80C000123B07845
:10FAE0008DF80800019402A800907047324603A9DF
:10FAF00002A807F004BC09F10209054619F8010B38
:10FB00008DF81C000328704703943B4699F80800C1
:10FB10000290009505A80190324608A970472A4630
:10FB2000314601A807F007BC8DF8000007F0E0009F
:10FB300020287047B61C06F10809ADF8200019F816
:10FB4000017B4846F2F7C0BEADF80400B01CF2F7E6
:10FB5000BBBE304610F8015BF2F7B6BE02208DF84E
:10FB60000C003046F2F7B0BE30B587B08578C41CC3
:10FB700004F108000023017810F8012F204607F057
:10FB8000E4FB00F03DF8294600F0F3F8DFF86C06DE
:10FB90000078002818BF012830D1204601F059FE16
:10FBA00005002BD02879012828D1FBF707F801AAF6
:10FBB00000235380010A802313718DF804005170D3
:10FBC0008DF80B00117200238DF809308DF80A3082
:10FBD0008DF80D3021460DF10E00F3F78DF82988D0
:10FBE000017001AB2988090A00F8011F15220021C4
:10FBF00000F8011F4520FF21FEF7DAFE07B030BDF7
:10FC00008DF8000000AB012270472DE9F04F99B04C
:10FC100000218DF81010C41C90F8028002208DF88D
:10FC20001C0000F0AAF8ADF8140000F0A5F8814619
:10FC3000A71C3846F2F748FEBC1C824614F8017B2C
:10FC4000112F0CDA0025EDB22E46BE420ADA00F082
:10FC500094F810A9A41C21F816006D1CF3E780206D
:10FC60008DF8100014F8016B112E0CDA0025EDB29E
:10FC7000AB46B34509DA00F080F808A9A41C21F8C6
:10FC80001B006D1CF3E780200EE09DF8100068B9A2
:10FC900003903B4608A80290019610A80090524697
:10FCA000494605A807F096FB8DF8100004AB012229
:10FCB000414659E02DE9F04F99B000218DF814101C
:10FCC000C41C81788DF8151002208DF8200000F0FA
:10FCD00054F8ADF8180000F04FF804F10A07804618
:10FCE00017F8019B3846F2F7EFFDBC1C824614F86A
:10FCF000017B102F0CDA0025EDB22E46BE420ADA47
:10FD000000F03BF811A9A41C21F816006D1CF3E7C4
:10FD100080208DF8140014F8016B102E0CDA0025E9
:10FD2000EDB2AB46B34509DA00F027F809A9A41CE7
:10FD300021F81B006D1CF3E780200FE09DF81400F4
:10FD400070B90490534609A80390029611A8019037
:10FD500000974A46414606A807F04BFE8DF814006E
:10FD60009DF8151005AB012200F003F819B0BDE8AD
:10FD7000F08F6520FEF71CBEA41C2046F2F7A4BD40
:10FD80002DE9F04387B08478C51C2846F2F79CFD26
:10FD9000ADF80C00AE1C042116F8010B8DF8140010
:10FDA00000F03EF80546301D10F8016B10F8018B8D
:10FDB000F2F78AFDDFF874910190074600F025F80C
:10FDC00043463246294603A807F01CFF8DF8080079
:10FDD0009DF814000F2810D100F01DF84346B9F823
:10FDE0001600ADF80C000197324600F00EF82946D7
:10FDF00003A807F007FF8DF8080002AB0122214697
:10FE0000FFF7B7FF07B0BDE8F08399F87200401C18
:10FE1000C0B20090704702208DF814007047042192
:10FE20003046F2F757BD000010B504460220F9F73E
:10FE3000D0F90320F9F7CDF9002000F007F82346A8
:10FE40000122C72100F079F9002010BD70B5DFF85C
:10FE5000B043064615252368002E4AD03BB9A5209D
:10FE6000F2F77AFC0028206050D0002101700822AF
:10FE70002068017805FB0100401C318800F8011B57
:10FE8000318800F0F2F9718800F8011B718800F0E8
:10FE9000ECF9317900F8011B717900F8011BB17997
:10FEA00000F8011BF17900F8011B317A00F8011B01
:10FEB000717A00F8011BB17A00F8011BF17A00F8A1
:10FEC000011B317B00F8011B06F10D01F2F7DAFC92
:10FED00020680178491C017023681878684300F194
:10FEE0001601A62912DB00F025F921680020087010
:10FEF0000CE05BB1187820B1684300F01BF9206872
:10FF000020B12068F2F78EFC00202060002070BD38
:10FF1000DB0021004101210061012100DD01210000
:10FF2000970121006C4100202B510020EC4900205A
:10FF30001CB504460420F9F74CF920788DF8000030
:10FF400000AB60888DF8010000A86188090A817003
:10FF50000522A1888DF80310A188090A01714520A6
:10FF6000C621FEF725FD002016BD431C0122C0213D
:10FF70004520FEF71DBD2DE9F0410F4684B0044633
:10FF8000F889A588012613380FD047F6ED71401A7D
:10FF9000012813D9001F22D1E08C06281FDA402047
:10FFA000A08000260220E0841AE000A9384606F06E
:10FFB000D1FB798800A800F06AF811E0384606F015
:10FFC00062FB5FEA00080BD098F8000018B9F989C5
:10FFD000404600F026F84046F2F724FC00E00026F8
:10FFE000EEB928041BD5E08CFFF767FD060016D09C
:10FFF000A08840F08007E0883070E088000A7070C8
:020000040021D9
:10000000E08C421EA06A411CB01CF2F73BFC334658
:100010002A46F9B200F091F83046F2F703FCBDE849
:10002000FF812DE9F84304460D46267B700000F160
:100030000D07FFB23846F2F78FFB5FEA000824D0C5
:10004000C146207809F8010B211D4846F2F754FEFD
:1000500009F10800618800F8011B324600F004F93C
:10006000617B00F8011B00F8016B04F10E01FEF743
:10007000E7FC45F0800143463A46C9B200F05DF81E
:100080004046BDE8F243F2F7CDBBBDE8F183F8B5D9
:1000900006460F460D20F2F75FFB04001CD02546F4
:1000A000380A05F8017B05F8010BB11C308805F80A
:1000B000010B3088000A05F8010B2846F2F71CFEF8
:1000C000B07A287223460D22C12100F036F820466E
:1000D000BDE8F240F2F7A6BBF1BD70B50446A078CA
:1000E0004000C51CFFF7EAFC060021D0218800F87B
:1000F000011B218800F0B9F8A17800F8011B6168A4
:1001000071B1002208E00B8800F8013B521C31F865
:10011000023B1B0A00F8013BD2B2A3789A42F2D309
:1001200033462A46C42100F008F83046F2F77AFB3D
:10013000002070BD421CD2B2C5214520FEF738BC5C
:1001400010B5044684B000F040F80DF1020061687B
:10015000F2F798FB217A017000AB0B22C8212EE048
:100160001FB50446082220888DF80000A11C2088B5
:10017000000A8DF801000DF10200F2F783FB00A8E0
:10018000A17A817200ABE17AC1720D22217B0173E9
:100190004520C92114E010B5044684B000F015F8DC
:1001A000A11C0DF10200F2F76DFB60898DF80A00C9
:1001B00000AB6089000A8DF80B000C22CA21452093
:1001C000FEF7F6FB002004B010BD20888DF800007B
:1001D00008222088000A8DF80100704780B5054983
:1001E000097821B903460122CB21FFF7A6FF0020A1
:1001F00002BD00002C510020124100203C51002083
:10020000C850002070B50446A07C00F10905FFF736
:1002100055FC060027D0618800F8011B00F024F887
:10022000217B00F8011BE18900F8011BE18900F046
:100230001CF8217C00F8011B617C00F8011BA18ADD
:1002400000F8011BA18A00F010F8A27CA169F2F766
:1002500019FB33462A46FF21FFF76FFF3046BDE802
:100260007040F2F7DFBA70BD6188090A00F8011B1F
:1002700070470000F0B585B08178DFF8E0550FF2E7
:10028000006600241D2900F24D81DFE811F01E00F8
:1002900024002F0037004C004B014B01E5001901F1
:1002A0001C01540068007A00800099009F00BC0087
:1002B000BF00D2000D01C2004B014B011F012501FF
:1002C00030013B01410119011C01C078012801D80E
:1002D00006F092FC27E179208DF802000DF102036F
:1002E00001208DF803000222012118E1DFF87035AA
:1002F000052202216120FEF75BFB14E101218DF84C
:100300000010C51C2946E220FCF700FC38B92B463A
:1003100008220021012000F088FF8DF8000000ABCA
:1003200001220321FBE002A9E220FCF7E1FB02AB82
:1003300008220421F3E0C71C387804280ADA781C64
:10034000F2F7C2FA0246387836F810102878F3F738
:1003500014FD00E0022000F08DFA0A21DFE0012107
:10036000C01C8DF800100078042805DA36F810104B
:100370002878F3F72EFD00E0022000F07BFA0B2135
:10038000CDE0F3F7C7FC00F0DDF80C21C7E0C31C9B
:100390000022187813F8011F072804D9A0F10E03D2
:1003A000012B03D8042108F0F7FA02468DF8022049
:1003B000100A8DF803000DF1020302220D21AEE0B8
:1003C0008DF8004000AB01220E21A8E0C01C411CAA
:1003D000007868B101280FD10878012818BF0028DB
:1003E00004D000A95220FCF783FB08E0522000E073
:1003F000E020FCF78BFB00E002208DF8000000AB52
:1004000001220F218BE000F06FF98CE000F0D7F9AA
:1004100089E0C0788DF80000F2F7A6FE8DF80100A3
:1004200000A9E020F2F7B8FF0DF101030122142129
:1004300075E000F083F800F07DF8242E08BF8DF8F9
:10044000004005D00146304601F02AF88DF8000042
:1004500000AB0122122162E000F070F800F06AF8AF
:100460002F796D1D242E014608BF8DF8004017D04E
:100470008F420FDA0022304600F098FE09288DF8EE
:1004800000000DD167B12B463A460021304600F0FE
:10049000CCFE05E02A46304600F088FE8DF80000CC
:1004A00000AB012207213AE0C01CF2F70DFA242824
:1004B0000CBF002000F09AFE00F044F813212EE05B
:1004C00000F049F82FE000F0CBF82CE002F006FC39
:1004D00000F0D0F9172122E0C07800B1012002F02D
:1004E00012FC00F023F801AB0422182117E0C01C15
:1004F000F2F7EAF902F0D3FC00F018F801AB04229D
:1005000019210CE002F092FD00F0B4F91A2106E086
:1005100002F0C1FD00F00AF801AB04221B2100F03B
:100520004BF900E00224204605B0F0BD014601A8C9
:10053000F2F79BBB0646A81CF2F7C6B9C51C2846B5
:10054000F2F7C2B98DF802000DF10203000A8DF82E
:100550000300022270472DE9F04784B08478C71C5D
:100560003846F2F7B1F92428804618D100AC02AB26
:1005700004220021352000F058FF38B98DF8000022
:100580000422022060700298608005E001208DF84E
:10059000000002220020607000AB08215AE06928A8
:1005A00018BF6B2811D06A281CBF3A283B280CD0F2
:1005B0004146A1F20112FF2A24BFA1F20121FF2925
:1005C00003D3622818BF002600D10226082C08BFDA
:1005D000BF7803D0B81CF2F777F90746404600F021
:1005E00005FE8742A8BF02262CDA56BBC01B85B287
:1005F000A32DA8BFA225A81C5FFA80F94846F2F7F0
:10060000ABF85FEA000A29D02A4600210AF102006D
:10061000F2F750F90AF102032A463946404600F043
:1006200004FF50B98AF800008AF8015053464A4640
:1006300021466120FEF7BCF900E00A265046F2F799
:10064000F1F84EB10020ADF804008DF8046001AB64
:100650000222214600F0B0F8BDE8FF871026F1E73E
:100660002DE9FC4100218DF80010C51C8478FFF7AE
:1006700066FF092C064604D1AF7895F803802D1D3E
:1006800007E0FFF758FF0746281DF2F71DF98046DF
:10069000AD1D242E04BF352601AD304600F0A6FD69
:1006A00008EB0701884215DB27B92A464146304648
:1006B00006F05BF92B4642463946304600F0B5FD60
:1006C00030B9012E09D12946E220FCF71FFA02E0D9
:1006D0000A2000E002208DF8000000AB0122214634
:1006E00000F06AF8BDE8F38110B5C41C84B00421A1
:1006F0002046F2F7EFF8002850D1241D14F8010B22
:100700008DF8020014F8010B8DF8010014F8010BAC
:100710008DF8000014F8010B401E8DF8040014F849
:10072000010B401E8DF803002046F2F7CDF89DF82E
:100730000210ADF806001829BCBF9DF801103C2935
:100740002DDA9DF800103C29BFBF9DF804200C2A2B
:100750009DF803101F2922DAA0F5FA63882B1ED218
:10076000012A18D102464FF4C87392FBF3F34FF4F9
:10077000C87404FB13234BB1642392FBF3F364248A
:1007800004FB132222B10322104201D11D2000E0FC
:100790001C20814203DA00A808F0E4F908B902201D
:1007A00002E008F038F900208DF8080002AB0122C1
:1007B000102100F001F81FBD6120FEF7F9B830B537
:1007C00083B00C20F1F7C8FF040033D008F030F9F3
:1007D0000546294600A808F02EF929462046F2F7DA
:1007E00044FA9DF8021000F8011B23469DF8011001
:1007F00000F8011B9DF8001000F8011B9DF8041083
:10080000491C00F8011B9DF80310491C00F8011B4E
:10081000BDF8061000F8011BBDF80610090A00F823
:10082000011B021BD2B211216120FEF7C1F8204644
:10083000F1F7F8FF37BD00B583B000208DF8000058
:10084000052207490DF10100F2F71CF800AB062262
:1008500080214120FEF7ACF807BD00002B5100209D
:10086000549A210080B500F005F881214120FEF75F
:100870009FF801BD8DF8000000AB01227047000019
:1008800000080004000200014E490870704710B5CE
:100890000022002303E010F8014B62405B1CDBB236
:1008A0008B42F8D3D0B210BD70B582B00446454D2E
:1008B0000AE001210170A86800F108014160406868
:1008C000A9780170012068702046F9F7E0FD002842
:1008D00076D0012200A92046F9F7D7FD68780528CF
:1008E000F2D8DFE800F00419200A2B56ECE79DF857
:1008F0000000FE28E8D10320E5E79DF80000A8707D
:1009000000202871A8780B3080B2F2F703F8002895
:10091000A860CED1687073BDA9689DF800004968D1
:1009200048700220CFE7A9689DF8000049688870E8
:10093000A87800280CBF05200420C4E7A9682879FE
:1009400049689DF800204118401CCA702871204653
:10095000F9F79DFDA968AA784968C6B228794118B7
:10096000131AB34207DB3246C91C2046F9F78DFD46
:100970002879301806E0121A92B2C91C2046F9F7FD
:1009800084FDA8782871A978287988429CD105200F
:1009900099E79DF80000AE68E870A878C11C7068FF
:1009A000C9B2FFF774FFE978884204D1287831464C
:1009B000F1F7D1FF02E03046F1F7BEFF002082E7F9
:1009C00073BD0000EC4F00202DE9FC41DFF8C45A54
:1009D000062600242E7000274FF6FF78F90201F555
:1009E000001100A801F5F921082211F8013B00F8D7
:1009F000013B521EF9D1BDF80000404509D12878CD
:100A0000062808BF2F7009D00021384600F053F89F
:100A100004E0BDF80400404518BF3E467F1C062F89
:100A2000DCDB2878062E0DD0062806D000F0C9F8A9
:100A30000021304600F0DAF808E0304600F0C1F856
:100A40002E7003E0062818BF00F0BBF800262246EF
:100A50000021304600F03FF808B10124FF26761C43
:100A6000F6B2062EF3DB44B1002600220021304608
:100A700000F031F8761C062EF7DB2878062817D10F
:100A80000020002105EB4102128AB2F5FF6F01D16F
:100A9000084609E005EB40031B8A934238BF08462D
:100AA000491CC9B20629EDDB2870287800F089F8C6
:100AB0000120BDE8F6810B46DFF8D81900228A83B1
:100AC000C00200F5001001F11C0200F5F92004211C
:100AD000181808F0C1B82DE9F04F85B080460D46D2
:100AE0009246082700244FF6FF7901AA394640466E
:100AF00000F0D2F9BDF80400484558D0BDF80620F2
:100B0000D11C4B1001EB9371891089008EB2C7F58F
:100B1000FE61B14206DA04F50060C01B84B24FF4F6
:100B2000006744E0311910311FFA81FBBDF8101045
:100B30001037B1B375B16904490C814232D1BDF8A7
:100B40000C00290402D448452CD101E0484529D0A5
:100B5000B8B233E0B9B2404600F086F9BDF80810EB
:100B6000814219D1BDF80C00BAF1000F10D04845F0
:100B700018D1BDF8040000A940F4004000F0CEF800
:100B800001000FD09DF80000012200F03BF909E0C0
:100B9000484507D0484611E00122B9B2404600F06E
:100BA00031F95C46F719BFB2B7F5FE6F9DDBDFF890
:100BB000E40800EB480087800482002005B0BDE80F
:100BC000F08F10B5044600F00BF808F036F8DFF8A7
:100BD000C40800EB4400082181800021018210BD7F
:100BE000E00200F5001000F5F92070472DE9F04F04
:100BF00085B081468B4608240126DFF8987838783E
:100C000007EB400001AA85882146484600F044F9D8
:100C1000BDF804004FF6FF7188426CD0BDF8062085
:100C2000D01C00F0A0FA1FFA80F8C4F5FE60404521
:100C3000A4BFC5F5FE6040455DDBBDF81000103473
:100C400000281CBFBDF8040058454FD0A1B248464B
:100C500000F00AF9BDF80810814247D1BDF80C0038
:100C60004FF6FF71884204D10022A1B2484600F03D
:100C7000C9F800200090BDF80620BDF804103878AF
:100C8000002300F0D8F9002843D010353A78CDF889
:100C90000080ABB2A1B2484600F05CF997F800A022
:100CA000BDF80620A9B2504600F0DEF8B883103D2A
:100CB0004FEACA20FFF795FF281807F11C0204210C
:100CC000001D07F0C9FFBDF808A0387801AA294621
:100CD00000F0E2F8BDF8080082451AD1BDF8042002
:100CE000387805F1100189B200F050FA4444A4B2FA
:100CF000B4F5FE6F83DBBBF1000F08D1387800211B
:100D0000FFF7D9FE4846FFF75CFF87F800903046B2
:100D100054E738780026FFF754FFF8E770B504462B
:100D20000D4601E044F4004400260022A1B2304602
:100D3000FFF7D1FE08B12E7070BD761CF6B2062EFC
:100D4000F3DB2004EED506202870002070BD2DE9CD
:100D5000F04704469146884609F103004110DFF848
:100D6000346782B000EB9170801032789A46800030
:100D70001030531C80B206250621DFB2062FA8BF13
:100D80000027974209D006EB4703B3F804C01B8A3B
:100D9000CCF5006C6344834206DA491E7B1CC9B261
:100DA0000029DFB2EAD12AE049B384451EDA0421E2
:100DB0003846FFF780FE41463846FFF717FFF0B18F
:100DC0000094534630784A46414600F034F900B169
:100DD000357814B98AF8007011E030780021FFF7F7
:100DE0006AFE3846FFF7EDFE377008E00094534680
:100DF0004A464146384600F01EF900B13D462846B5
:100E0000BDE8F6877FB51546A1F11006044600AA95
:100E1000B1B200F041F8FFF7E3FEB6B2301845B9C1
:100E20000021ADF8081002AA0421083007F014FFD1
:100E30007FBDBDF80210C91C4A1001EB92718910E8
:100E4000890001F110050021ADF80C10ADB203AA24
:100E500004210C3007F000FFDFF8380600EB4400F7
:100E6000018A691801827FBDC002D21C00F5001002
:100E7000531000F5F92002EB93720918921000202C
:100E8000920003E011F8013B181880B213465A1E75
:100E90009BB2002BF6D17047C00200F5001000F5A0
:100EA000F9200818102110F8013B02F8013B491EF7
:100EB000F9D170472DE9F843C0020C4600F5001542
:100EC0001746984604F0030105F5F92500AEE9B18F
:100ED000601A84B204EB05094A4600F0A3F8C0B2D8
:100EE0000346042B08DABFB2002F1FBF18F8011BFE
:100EF0009955401C7F1EF2D1042B01DA00F08BF8CB
:100F000000AA0421484607F0A7FE241D07F00309A4
:100F10004FF6FC700740A4B242463946601907F00C
:100F20009BFEB9F1000F13D03C19B844002018F80B
:100F3000011B8155401CC0B24845F8D3042801DA92
:100F400000F062F8A3B200AA0421581907F084FE49
:100F5000BDE8F1832DE9F84F0D461F4617F0030158
:100F6000DFF834350A9C03EBC02803EBC22900AE3E
:100F700020D0781A87B207EB090A524600F052F8DF
:100F800005EB080105E011F8012B9A55401C6D1C7A
:100F9000641EC0B20346042B02DAA4B2002CF2D1C4
:100FA000042B01DA00F037F800AA0421504607F0BC
:100FB00053FE3F1D4FF6FC7004F0030A00EA040BD9
:100FC000ADB205EB0804BFB22246594607EB090053
:100FD00007F042FEBAF1000F14D05F445C440020D9
:100FE00014F8011B8155401CC0B25045F8D30428A9
:100FF00001DA00F009F8BBB200AA042103EB0900F2
:1010000007F02AFEBDE8F18FC0F1040100ABFF221A
:10101000C018F2F70DBE00A8FF22C3F10401181892
:10102000F2F706BE002012F8013B8355401CC0B207
:101030008842F8D370472DE9F04F8046DFF854B46A
:101040000BEB480485B0A088ADF800000F464FEACE
:10105000C82000F50010BDF80010ADF8047000F5D0
:10106000F92091460E189A460025ADF8069001AA7F
:101070000421304607F0F0FD00F06FF8BDF80410D1
:10108000BDF80600B94208BF484551D10E98002866
:1010900047D05FEA0A00494601F0030203D1C1EBE1
:1010A0000127BFB20AE0002703E010F8013BDB197B
:1010B0009FB20B46591E9BB2002BF6D12AB1C2F14A
:1010C0000400C0EB0020C01987B2BDF8000010304A
:1010D000BAF1000FADF8020006D0BDF80210534679
:1010E0004A464046FFF7E6FEBDF802104A46404633
:1010F000FFF7BAFE874215D1ABF81C700BF11C024A
:101100000421301D07F0A8FD00F027F8BDF8080005
:10111000874207D1BDF80420BDF80010404600F01A
:1011200035F80125BDF8060000F01CF810300DE080
:1011300000F018F8A1881030C1F5006280B2824238
:10114000B8BFC1F50060218A41182182A1884018EA
:10115000A08005B02846BDE8F08FBDF8001001AAB8
:10116000404699E6C01C411000EB91708010800051
:10117000704700210FF2643232F81130834203D0FD
:10118000491CC9B20329F7DB0846704738B5044645
:101190000D461046FFF7EDFF032804DABF4944541B
:1011A00001EB4000858031BDFFF70EBC70B50446F1
:1011B00082B00D4616464E2007F0F0FBA0B100F0BD
:1011C00031F838B101469DF800002246FFF7DEFFF6
:1011D000002076BD33462A4621460120FFF7B7FDA1
:1011E000062801D0092076BD0A2076BD10B586B04C
:1011F0000446FFF7BEFF032801460DDA00F041F96F
:10120000A0F110019DF8000001AA89B2FFF744FE89
:10121000BDF8060006B010BD00F004F80100EFD1E3
:101220000020F7E700A9204678E52DE9F84B0AB43D
:10123000814689B0144600254E2007F0AFFBC8B1A7
:10124000002C3FD001A94846FFF768FD5FEA00087F
:1012500008BF09200FD0A8F110019DF8040002AAD0
:1012600089B2FFF719FEBDF82400BDF80A10221854
:10127000914201DA0A20D5E09DF8041000F0FBF855
:10128000414440180A99224600274FF6FF7613E0A2
:10129000037891F800C063450CD0BDF80CC0ACEBEE
:1012A0000303ADF80C307F1C91F800C06344BFB25B
:1012B000ADF80C30401C491C1346F2189BB2002BB1
:1012C000E6D1002F00F0AD8006208DF805000DF16D
:1012D0000503BDF80A2049460020FFF738FD814686
:1012E000B9F1060FDFF8ACB172D0BDF80A00BDF855
:1012F0000C70C01C411000EB917080108004000C39
:1013000007900BEB4900069007998088401AADF8CA
:101310000600BDF81000B04205D19DF8040000227F
:101320004146FFF76FFDBDF82400BDF80630009080
:101330004A469DF804004146FFF70CFEBDF8060042
:10134000BDF824100A9B0E182246B1B24846FFF79A
:10135000B1FDBDF80A00BDF82410401A001B80B290
:101360000090A319BDF82400404421189DF8040002
:101370009BB24A4689B2FFF7EDFD0698079980882F
:10138000BDF80A20441AA1B24846FFF76DFDABF83C
:101390001C00103C4FEAC920FFF723FCA4B2201820
:1013A0000BF11C020421001D07F056FC02AA214685
:1013B0004846FFF771FDBDF80C00874208D1BDF823
:1013C000082004F1100189B24846FFF7DFFE00E073
:1013D0000A259DF80500062817D09DF804109DF8F1
:1013E00005209BF80000914208BF0A2D02D1FFF7AB
:1013F000E8FB0AE00021FFF75EFB9DF80500FFF720
:10140000E0FB9DF805008BF800009DF804009DF8B6
:101410000510884218BF0A2D03D001224146FFF76C
:10142000F1FC28460CB0BDE8F08BF8B507460E4637
:1014300014461D46FFF79DFE0328014608DA00F01A
:1014400020F89DF8001000F016F8401830180BE056
:1014500000A93846FFF762FC0100F2D10A20F2BD74
:1014600010F8011B05F8011B21464C1E89B200290A
:10147000F6D10020F2BDC90201F5001101F5F921F4
:10148000704706480A5C8DF8002000EB4100808818
:10149000704700001842002000C8270004500020B8
:1014A00070B582B00D46044600A9FFF737FC060070
:1014B00001D1092076BD2046FFF798FEA84201D051
:1014C0000C2076BD9DF8000001223146FFF79AFC02
:1014D000FFF7A8FE00B10A2076BD000082003A00A6
:1014E0003B00000080B51A2001F074FFFBF7CEF836
:1014F0003B480078002818BF012807D139480078F8
:10150000012804BFBDE80140FBF72DB901BD38B586
:10151000354CF1F7FDF920704FF6FE750220A074EE
:10152000E5821420207165830F2084F82C0084F854
:101530002D0008222D480078E07100212C48007809
:1015400060702C480078A07000202081E07201209B
:1015500084F86C0000202073012060732648807896
:10156000A07326480078208225480078E07425483A
:10157000007820750020207604F11C00F1F79AF91C
:10158000A58404F139002049F1F7B6FB002084F866
:10159000410004F16E030F2084F86600022203204C
:1015A00084F8670000211948007884F86A00184818
:1015B000007884F869001748007884F86B000120EF
:1015C00084F868008920FFF730FF10B10020A4F8EC
:1015D0006E00002084F87200A4F8700031BD000095
:1015E0003C51002039510020EC490020E34200200A
:1015F000E2420020E14200209C4F0020DD4200201A
:10160000DF420020E04200208442002034510020CC
:1016100033510020E5420020704780B5E12918BF12
:10162000F12907D130210A4204D0F1F771F900F015
:101630000700801C80B202BDDFF85C09007824211D
:1016400001FB00F2FF21DFF85409F1F733B930B59F
:1016500000220023242509E0DFF8404905FB03446C
:101660002479844224BFA142521C5B1CDFF8284924
:101670002478A342F0DBD0B230BD2DE9F0438046A0
:10168000DFF8140985B05FEA01090478164604D032
:10169000484600F0DEF8050045D10020242200E095
:1016A000401CC0B2A04207D2DFF8F01802FB0015C0
:1016B0002979FF29F4D100E00025002D5ED0DFF864
:1016C000E008078857B1032E18BF042E06D1042165
:1016D0000320FFF7BCFFE11B88420CDADFF8C408E7
:1016E000078857B1012E18BF022E06D100F04DF821
:1016F000E11B884201DB002046E000F001F9ADF873
:101700000280494601A801F07AFE00A801F063FFBB
:10171000BDF80C0068800020A871DFF88C08818C6F
:101720004046FAF7CCFD002016B1052EB8BF0420C4
:10173000A5F800802E71687100F0B6FB28720120B8
:101740006872AA20A87200202882E871E872E86016
:1017500086B1032E0EDA00F0FFF900280FBF0868EB
:1017600051F820003C214843E861A861012085F838
:10177000200003E06FF00100E861A86100F0C4F808
:10178000A04200F08BFB28466FE1022101205EE7BA
:101790007FB504460D46284600F05BF80026002879
:1017A0001CBF0188A14228D00179052925DA0480CF
:1017B00091B1032910DADFF8F417DFF8F42709787C
:1017C00000290FBF116852F821103C225143C1611A
:1017D000816180F8206003E06FF00101C1618161E7
:1017E000C66000F08DF8ADF80240294601A801F06E
:1017F00006FE00A801F0EFFE0126304604B070BDE1
:1018000080B500F023F800281CBF0079002803D021
:10181000052801DA012002BD002002BD80B500F0DC
:1018200015F800281CBF0079002803D0032801DA2E
:10183000012002BD002002BD80B500F007F818B1FC
:10184000007908B9012002BD002002BD0146002038
:1018500000E00021F0B504460D464FF6F8708542D1
:1018600085B000DB24B3002708E04FF6FF70854207
:1018700002D03088854219D07F1CFFB2DFF81807EC
:101880000078874214DA00F006FB01FB0706307986
:10189000FF28F1D0002CE8D000F01AF90028EBD096
:1018A00001A92046F1F71AFA0028E5D0304600E0F9
:1018B000002005B0F0BD30B585B0FFF7CAFF0024A9
:1018C00005000DD000F01CF801246888ADF80C006C
:1018D00000A801F0D2FD2422FF212846F0F7EAFFFC
:1018E00000F012F8DFF8B0160978884205D2DFF868
:1018F000C41601200870F9F742FB204605B030BD40
:1019000001208DF800007047042100209FE6F0B50B
:10191000DFF88426DFF88456137824244FF6FE720D
:10192000904208BF002619D0002600E03E469E42A5
:1019300014DA771C664306EB050CFFB29CF804C072
:10194000BCF1FF0FF2D0765B8642EFD13E4605E058
:10195000012818BF03280DD0761CF6B29E420BDA80
:1019600004FB06F7781900290079F1D00028F3D09C
:101970000528F1DA785BF0BD1046F0BD0121C6E71D
:101980002DE9F04104460421FFF700FF050013D0C4
:10199000680080B2F0F7E0FE06000BD04FF6FE784C
:1019A00037464046FFF7EAFF404518BF27F8020BCD
:1019B000F8D102E0002500E0002625703046BDE8A1
:1019C000F081002201E0401E521CDFF8CC1509789E
:1019D000D2B28A420CD2DFF8C415242303FB0211D1
:1019E0000B79052BF0DA80B20028ECD1084670475D
:1019F000002070472DE9F04385B00024DFF8B8855A
:101A0000DFF898651CE01C20684300EB080930F8FB
:101A10000810B85B81421CBFBDF80200814205D0AE
:101A200009F1020101A8F1F759F910B14846FAF796
:101A300072FC6D1CDFF8840500788542E3DB641CD2
:101A400000F04FF811DA242000FB04F74FF6FF7185
:101A5000B85B8842F3D0FFF753FFB819408800F015
:101A6000B9FA0028EBD00025E4E705B0BDE8F08323
:101A70007FB50024DFF8485507E0B06910F1020F88
:101A800002D0F069401EF061641C00F02AF81EDAF2
:101A900000F001FA01FB040630790028F4D0032895
:101AA000F2DAF0690028E8D12878012807D1DFF8B8
:101AB00014050268100002D0B1693088904700F028
:101AC00007F80028E0D001A8FFF7F5FEDCE77FBDAE
:101AD00001208DF800007088ADF80C0000A801F01E
:101AE00058BDDFF8B40400788442704780B5FFF732
:101AF000ADFE48B1017931B1032904DA8169C161D0
:101B0000012180F82010012002BD70B50446DFF8E5
:101B1000B804016808001EBFDFF8A8542868002830
:101B200019D0DFF8A8643068A8B16088884790B9F8
:101B300000F012F82A6800280FBF096851F8200049
:101B40003C21414360889047012804D16088316876
:101B5000BDE87040084770BDDFF85004DFF850144E
:101B60000078704738B5DFF8300404780B20604304
:101B7000811C002289B22220FFF718FB05460A2D9E
:101B800004D00022E1003F20FFF710FB0DB100F070
:101B900002F8284632BD80B50020ADF8000000F004
:101BA000B7F901BD2DE9F04780468CB08A469146D1
:101BB0001C462220FFF71AFB054600263F20FFF7B0
:101BC00015FB002D18BF5545074603D02946222096
:101BD000FFF766FC002F18BFA74203D039463F200D
:101BE000FFF75EFC002251462220FFF7DFFA0A28A9
:101BF00061D0002221463F20FFF7D8FA0A285AD0A8
