:020000040020DA
:100000006C7100202DB021005DB0210061B0210095
:1000100065B0210065B0210065B02100000000003E
:1000200000000000000000000000000065B021009A
:1000300065B021000000000065B0210035AD210051
:1000400065B0210065B0210065B0210065B02100D8
:100050000000000065B021000B62210065B02100A6
:1000600065B021000000000000000000000000005A
:10007000000000000000000065B02100000000004A
:10008000000000000000000065B0210065B0210004
:1000900065B0210065B0210065B0210065B0210088
:1000A00065B0210065B021000D4821007348210092
:1000B00065B0210065B0210065B0210065B0210068
:1000C0002DB12100B947210065B0210065B02100A4
:1000D00065B02100000000000000000000000000EA
:1000E0000000000000000000000000000000000010
:1000F00065B021000000000065B021000000000094
:100100002DE9F04794B0044602F018FB00254FF6A5
:10011000FE7A0028A946D04640F0ED80207FDFF827
:10012000886CE0B1DFF8000C0078410141EA800002
:100130002077FF20618802F07DFD50B1E08A40F019
:100140000400E0820125207F40F001004FF6FF7897
:1001500020773078002814BF01284FF040096088CC
:1001600000F070FF08B100206076A07E18B9DFF8BB
:100170003C0C0078A0762078DFF8AC7C010603D533
:1001800000F00300207006E0E07E20B93878E076C9
:100190003878401C3870207E01280BD1DFF88C0C99
:1001A000007828B1F87A002804BF2078002801D10F
:1001B000002020763078002818BF012818D1B87B9D
:1001C000800715D555B9608800F03CFF80B12078D4
:1001D00020B12069007800F003FF48B1E18AA07ED9
:1001E0004A0675D5012873D14FF6FB700840E082AE
:1001F0002078012802BF20690078022803D1E08A14
:1002000040F04000E082A07D400639D4002D37D177
:100210003078002818BF012832D1B87B80072FD54D
:100220006188607E4B46A21D04F0C4F828B100200E
:100230006076E08A40F02000E082A07970B16188A9
:1002400004F1080000F0A9F980466088804504BFE9
:100250000020A071E08A40F04000E0822078012870
:1002600004D0A18860884A4603F0D2FCA188608847
:100270004A4602F02CFF18B1E08A40F02000E082EC
:1002800004A9204600F0E1F8D045054608BFB4F8BF
:10029000028095B320789DF810308DF814000694F4
:1002A0004146608DADF8160005A8039094F82C0027
:1002B0000290E08A0190607D00902846FA8A00F062
:1002C00053F80446102C19D1284604F07DFA15E0A5
:1002D0008DF82E006088ADF82600A088ADF82800C3
:1002E000E07E8DF82F00627DA18807A803F022FE32
:1002F00000287FF47DAF112001E01024204614B0C7
:10030000BDE8F08710B58EB0044601A8342104F092
:100310008BFAA11C02A84A8802810988C18004F1D5
:1003200010010A7902760A6842620A7B42700A8BDF
:1003300082810A7A82704A7A8DF808204A8B428537
:100340000022087F8DF8340000A9FF208DF80000FE
:100350008DF801004FF0FF308DF8020001A804F085
:10036000E5FA00200EB010BD2DE9F04F804687B0B1
:100370000D4693469A462420102704F0BFF9002822
:1003800000905ED0242201F034FDDFF81C9A119C0D
:1003900099F800000026002818BF01280FD1284630
:1003A00004F05CFD40B10079012818BF032803D197
:1003B000600658BF44F48064600548BF0126DFF83A
:1003C000680A0099808C4881ADF818B00220009925
:1003D00008730099087200980580009880F81FA0A3
:1003E0000098109D45730098C0F82080ADF80A4031
:1003F0008DF80C50139AD2E90001CDE9040112984E
:100400008DF81A00314600A802F0ADF9012815D187
:1004100099F80000002818BF01280DD166B12846C0
:1004200002F0CBFA040007D02068008802F060FADE
:1004300010B1204602F01EFB002702E0009804F0F5
:10044000C3F9384607B0BDE8F08FF8B50E4604464C
:100450000820617F01B11020A17F01B10830217F08
:1004600001B1401CA17919B1217A4900891C0818F1
:100470006070207E0028DFF83009007814BF0E2558
:100480000025022802BFDFF8500C0078012808D1AF
:100490002078012805D0DFF8440C007810B1012045
:1004A00000E0002084F834006178207DDFF878795E
:1004B000081828183070207E28B1387B05F05BFAC8
:1004C00031784018307030787528A8BF002662DA7D
:1004D00004F014F906005ED02078B97C40EA81006F
:1004E000617E01F0030140EA8110217F09B14FF4E0
:1004F00080710843217E40EA4120617F40EAC120AB
:10050000A17F40EA0130A17940EA812094F83410BB
:1005100040EA413080B230700827000A707060886D
:10052000B0706088000AF070A0883071A088000A5E
:100530007071A07EB071E07EF071607F28B1216A99
:1005400006F1080005F056FA1027A07F28B1616A6D
:10055000B81905F04FFA0837FFB2A07980B1207AB8
:10056000B855781CC0B2617A8155471C207AE16881
:10057000FFB24200B81905F041FA207A07EB4007B4
:10058000207F08B1FFB2B8556078227D21698019BB
:10059000281805F033FA3046F2BD30B583B0044672
:1005A0000D4601AA00A9284603F0FEF9A0B99DF85E
:1005B00000002070019860609DF8000048B1401E66
:1005C00060709DF80010019800EB410030F8020CBB
:1005D0003EBD607028463EBD4FF6FE703EBD2DE923
:1005E000F84304460F46154634220021284605F0FC
:1005F0001DFA0126082F62DB2F702078627800EB4D
:100600000220294680B200F06FF800B10026A078E1
:10061000E17800EB012068816179207900EB01200D
:10062000A881A079A874E079E87408206870E87956
:1006300018B104F1080000F0DAF8287A20B16878DF
:100640000019A86100F0D4F8002005F1240785F80E
:1006500020003860687920B16878015D6971401CBC
:100660006870687F38B36878411C6970005D85F8F0
:100670002000481CC9B2687095F82020095D85F8F3
:100680002110914215D2DFF8B41BDFF85C9C097889
:10069000914238BF0C22C0B24FEA420801194246CB
:1006A000484605F0ABF9C7F8009068784044687098
:1006B00001E00020687768782978814201D2002023
:1006C00010E002197A60081AA979287749B10E3822
:1006D000287702F10E00786000F08EF8297F081A62
:1006E00028773046BDE8F2838A1C00F003031370BC
:1006F000C0F38303537003069B0F9370430A03F008
:1007000001031371030A03F00103D370830A03F09A
:100710000103D376C30A03F001035371030B03F003
:1007200001039371420B02F0010281F83120800B2A
:10073000704710B5DFF8A8298479D37A00212CB14D
:10074000002B04BF8078002807D105E0002B1EBFD6
:100750004089D28A904200D00121084610BDF8B5E8
:1007600006460C4630781546727800EB0220294682
:1007700080B2FFF7B9FFB078F17800EB0120688113
:100780007179307900EB0120A881B079A874F079F3
:10079000E87408206870E87918B106F1080000F0E4
:1007A00026F8287A20B168788019A86100F020F82E
:1007B000687920B16878815D6971401C687028464D
:1007C000FFF7B7FF070010D16878AA79811912B92D
:1007D000A962201A08E001F10E00A86200F00CF8EE
:1007E0006978611A0E39081A28773846F2BD6861AF
:1007F0006878083068707047DFF88C0C007B05F073
:10080000BAB810B5DFF8844C2146E22005F042FB6F
:10081000204610BDDFF8700CC08A7047DFF8680C06
:10082000408B704701464A2005F034BB38B5DFF8ED
:10083000604C2578681C2070284602F0BEF800281D
:10084000F7D1002DF5D0284632BD2DE9F74F81466E
:100850009A4601F0ADFBDFF808670C9CDFF8C8B5DD
:10086000002705003078B8460BD1002C54D19DF8F4
:100870000820BDF80410484603B0BDE8F04F01F071
:10088000EABC94B3002818BF012805D1DFF8040C96
:100890008068010018BF8047BAF1000F08BF2F70B1
:1008A00037D03078002818BF012845D19BF80E00BA
:1008B000800741D5DFF8DC0BC268100002D051463A
:1008C00028469047DFF8D00B00782978421C9142E7
:1008D000BCBF491C2970297881422DD1484603F0BC
:1008E000D0FD012785F8018026E0BAF1000F0AD17A
:1008F000A8789DF8081008180004400CA870A87883
:1009000008B90120A870DFF8940BA9780078884214
:1009100012D24FF001080FE0012C0DD1BAF1000FF7
:100920000AD0002818BF012806D19BF80E008007C6
:1009300044BF484603F0A5FD3178DFF8580B007836
:10094000022908BF012C0BD1BAF1000F07D0DFF844
:100950004C3C1B78401CC0B2984201D301270020B8
:10096000DFF8303B187057EA080041D0002918BF63
:10097000012914D19BF80E00800710D5484604F0D9
:100980006DFA60B1B8F1000F03D0417901F0FE01BA
:1009900041716FB3417941F00101417100E03FB312
:1009A0003078002818BF01280ED19BF80E00800770
:1009B0000AD5484604F02CFA30B1494603B0BDE8E8
:1009C000F04F002004F0F1B8BBF81A0081450FD1B8
:1009D0004946012004F0E9F83078022808D103B034
:1009E000BDE8F04FDFF8100C0078012105F08DBB59
:1009F000BDE8F78FDFF8001C0B78012803D1012137
:100A0000184605F065B9DFF8441C086020B10246BD
:100A10000121184605F04DBB0121184605F075BBB4
:100A2000DFF82C1C08807047DFF8CC1C088070476A
:100A300010B5DFF8F4237421212005F0F1FF0446FE
:100A400006F092FB044300F04AFC18BF012802D1D3
:100A500004F090FB0443DFF8A40C0068010001D00F
:100A60008047044302F05BF9044306F090FF204303
:100A700010BD80B507F095F900F0A6F806F084FBEC
:100A8000DFF8DC040078002814BF012804F08BFB99
:100A9000DFF86C0C0068010018BF804702F050F9C5
:100AA000BDE8014006F0C6BF70B5DF4D82B02A46F2
:100AB0007421212005F0B4FF0024002850D12B46DA
:100AC00074220021212006F0EAF8002848D105F11F
:100AD0000E064FF6FE713089884241D0307E0124E7
:100AE000082818BF042838D18DF8004000A94220FA
:100AF00005F0DEF905F12F01432005F0D9F905F1E4
:100B00002C01472005F0D4F905F11C014A2005F01D
:100B1000CFF905F11A014B2005F0CAF905F12401BE
:100B2000502005F0C5F905F11601532005F0C0F974
:100B300005F12D01542005F0BBF905F11801E12064
:100B400005F0B6F93078C00800F001008DF800001B
:100B500000A9522005F0ACF902E007F022F90024C8
:100B600006F0D2FADFF8F8030078002814BF012855
:100B700004F004FCDFF8900C0068010018BF804707
:100B800002F016F9204676BD10B50446E00701D5FF
:100B900000F01AF8200748BF06F0C8FADFF8C003D3
:100BA0000078002818BF012803D1A00748BF04F02F
:100BB0008AFC600707D5DFF8540C006801001CBFF1
:100BC000BDE81040004710BDDFF8BC38742200219A
:100BD000212005F064BFF0B5DFF8345CDFF8344C59
:100BE000297887B001AA204608F043FE00208DF83E
:100BF00008008DF80A00042104F031F8DFF8181C11
:100C00000E78B0421ED206F06BFAD8B9DFF80C0CA1
:100C1000078837B10421032004F021F8F11B884232
:100C200002DA01208DF80800DFF8F40B078837B1ED
:100C30000221012004F013F8F11B884202DA01209E
:100C40008DF80A0021462A7801A808F0E7FD214620
:100C5000452005F02DF99DF80A0030B99DF80810DF
:100C600001B101218DF8001002E001208DF8000093
:100C7000DFF8641CDFF8902C097812789DF80000EA
:100C8000114008408DF8000000A9412005F010F93E
:100C900007B0F0BD70B504466348DFF8746BDFF849
:100CA000745B80F8724086B0317800AA284608F05C
:100CB000E0FD32788DF81240294600A808F0AEFD1C
:100CC0002946452005F0F4F806B070BD70B5DFF890
:100CD0003C5C044628884FF6FE71884222D11620DB
:100CE00004F0D4FE06001DD001203070A079002849
:100CF00014BF022001207070A06A4078B072000713
:100D00005CBFA08901F032FFA169B01C04F072FE43
:100D10000020F0743146DFF8E008007804F0D7FED8
:100D2000A089288070BD0000EE4200202DE9F0412E
:100D300082B0054604208DF801000E46904600A8BA
:100D400000F057F90700DFF8C44B27D038690721B6
:100D50000170A98A4170A98A090A8170A97DC170B0
:100D60000120787705F10B0038620120B877FFF792
:100D700048FD78620120B876032E16BF012E4FF48D
:100D800088604020F882B8F1010F2088788004BF85
:100D900000203876384608F019FE00E010204FF6A3
:100DA000FE712180BDE8F681615100202EAF210047
:100DB00070B5DFF84458044628784FF4806105F098
:100DC000A4F9DFF8400CDFF8301900880880DFF85C
:100DD0008018DFF8580C008808800920DFF8A81672
:100DE00081F82600FFF70DFD0146606904F0F4FD6F
:100DF000C0B1102004F04AFE060013D0022030706B
:100E0000A06A4178827801EB02217180C07870700D
:100E10004A20A16905F04CF828783146BDE87040B9
:100E200004F055BE70BD0000EC490020DE420020F9
:100E300038B5044602208DF8010000A800F0D9F86A
:100E400005003AD028690421017000214170217AFF
:100E5000012904BF20214170617A012903D1417821
:100E600041F040014170A17A012904D1417841F05B
:100E70008001417001E00120A876607A012805D147
:100E8000606808B10120687760682862E07A01280C
:100E900008BFE882208800F0D5F818B1E88A40F051
:100EA0000400E8820120A877FFF7ABFC6862208885
:100EB0006880284608F08AFD32BD102032BD7FB51B
:100EC00004460D4600F087F8A86A4078002610F026
:100ED0001F0103D000F064FB00203FE0810644BF07
:100EE00001218DF80C10010644BF01218DF80B1073
:100EF000400603D501208DF80A0003E09DF80A00A2
:100F0000012803D1E87950B16E6902E0287A30B146
:100F1000AE6926B131460DF1020004F06BFDA889DF
:100F2000ADF800009DF80A00012813D1688900F08F
:100F300089F8002801BFA889DFF84C15498B884241
:100F40000BD13EB1FFF75DFC01460DF1020004F04C
:100F500043FD10B100A803F005FE204604B070BDAB
:100F60006151002010B5044692B020684189CA073B
:100F70002FD54FF6FE721140418104AA0068C17F4F
:100F8000006AFFF7ECFB002802BF0E9800780428E7
:100F90001FD100F020F8BDF81A00ADF800000E983F
:100FA0004078810644BF01218DF80B10010644BF33
:100FB00001218DF80A1040064CBF09990A990DF1DC
:100FC000020004F017FD20798DF80C0000A803F052
:100FD000C7FD12B010BD0E22002100A804F026BDEE
:100FE000002104281CBF0A28032800D1012108463B
:100FF000704710B5382101700121817008F012FD91
:10100000040005D001202070A077FFF7FAFB606292
:10101000204610BDDFF87004807C7047DFF8BC0B01
:1010200000787047DFF8B41B087070470121020791
:1010300048BF03218007DFF8A80B48BF41F0040137
:10104000017070474FF6F87300210022C01A032880
:101050000BD9001F05D0401E05D0801E06D10122ED
:1010600004E0042202E0022200E00822DFF8700B14
:101070000078104218BF022101D102B101210846B7
:10108000704738B504460D4603F0EBFE00281CBF40
:10109000017900290ED005290CDA012D1CBF012988
:1010A000022902D1008802F05EFB2046BDE83240F2
:1010B00003F009BF31BD017821B94068002818BF8D
:1010C00009F0EBB900207047054991F8261008296E
:1010D00008BF00F04EB870475E5100205C51002000
:1010E000EC49002010B50021DFF8F82A02EB81035B
:1010F0005B88834203D100F023F8C52010BD491C52
:10110000C9B20329F2DB00214FF6FE7402EB810322
:101110005B88A34207D0491CC9B20329F6DB002132
:1011200012F8213033B902EB8103588000F008F83F
:10113000002010BD491CC9B20329F1DBC72010BD36
:10114000DFF8A80C007802F8210070470021DFF8D2
:10115000942A02EB81035B88834204D112F8213088
:101160000BB101207047491CC9B20329F1DB0020F3
:101170007047F0B50546DFF8B40C0078002600286B
:1011800018BF01288BB040D1BF4FF88A854204D1E7
:10119000BDB300F03DF8012637E0284603F05EFEBF
:1011A00004002ED02079012818BF022829D18DF8FB
:1011B00000606088ADF80C0000A805F00CFF00B3DB
:1011C0002088DFF848170880002002F093FA20807A
:1011D00001A90DF11B0004F00DFC2088ADF82400DE
:1011E0008DF826600222217904A8FFF79FFD208850
:1011F000ADF80200012600A805F00FFF0020E06016
:1012000003E0B98C284600F086FE30460BB0F0BDF6
:1012100080B500F064F818BF01280ED1012002F05B
:101220007EFA9949ADF80000C88200A9532004F065
:101230003FFEBDF800000AF0DEFD01BD20AF210039
:101240007FB504461226002C0D4646D08E48C08A33
:10125000844209D1FFF7D5FA0146284604F0BCFBC9
:1012600000F0010080F0010600208DF80000ADF8CC
:10127000024000A805F058FE58B101A805F0E8FDAD
:10128000012806D101A9284604F0A6FB012600B1D9
:10129000002600F024F814BF0128122E05D129469B
:1012A000204603F07DFD00B100262946204600F0CF
:1012B0009BFE0A2808BF01260AD0A02806D129468D
:1012C000204600F099FF204600F0E9FF012E03D1EF
:1012D0000021204600F00AF8304604B070BDDFF867
:1012E0004C0B007800287047484F002038B5044662
:1012F000FFF7F5FF18BF01280D460BD12046FFF779
:1013000038FF2B46214601B0BDE830400D224FF694
:10131000FC701BE031BD10B50446207A38B1A169DC
:10132000A089FFF78DFF012808BFA08908D0E079C8
:1013300050B161696089FFF783FF012804D160899A
:10134000FFF7D0FE012010BD002010BD2DE9F041B7
:1013500082B0044604208DF801000D4616461F4653
:1013600000F098F94FF00108A0B147B10021817752
:101370008580017841F0800101700021C17603224F
:1013800001690A702A0A4E708D70CA70448008F094
:101390001DFB80464046BDE8F6812DE9F843044632
:1013A0008846A06A90F801908178C07801EB00250A
:1013B000207F0126042802D000F0F2F860E0DFF878
:1013C0006C0A314F0078B9F1020F0AD9A9F1030272
:1013D000082A42D9093A34D0521E21D0521E3CD09C
:1013E00039E0002818BF012837D1B87B800734D5F1
:1013F0000021A8B202F04DFF00281EBF81791822FB
:10140000114208D0A1890091002243886189008897
:1014100003F012F813E00121A8B203F0DBFB1CE09B
:10142000002818BF012818D1B87B800715D5A8B2AD
:10143000FFF74AFEA8B2FFF755FEC5280DD10026DA
:101440000BE0002818BF012807D1B87B800704D51E
:101450000AF0CCFD01E04FF000086089AAB24946CD
:1014600003F0F0FB6089FFF7EDFD48B1A07C022896
:1014700006DBA089F98A88421CBF002E404600D1B5
:101480000020BDE8F2830000EC490020B8500020A5
:1014900066510020E04F002022AF2100D6420020FC
:1014A0002DE9F04585B004460A200D4690469A463F
:1014B00001268DF8010025B94FEA4A000A308DF85F
:1014C000010000F0E7F807002DD03E69092006F87A
:1014D000010B41464AEA451006F8010B304604F07C
:1014E00089FA06F1080175B90C98002209E030F874
:1014F000123001F8013B30F812301B0A01F8013BB1
:10150000521C5245F3DB0120B877FFF77AF900F05F
:101510001CF918B10120787701A838627C80384620
:1015200008F054FA0646304605B0BDE8F085FEB531
:101530000446A06A10F8017F461C314601A804F059
:1015400059FA01A9DFF8980B04F046FA07F01F05D5
:10155000083608B3E02007421CD1680003F0CEF83B
:10156000070019D0002007E03178727801EB0221E2
:1015700027F81010B61C401CC0B2A842F4D3009744
:101580002B46A08901AA002100F00DF8384603F08F
:101590001BF9F7BD00F004F8F7BD0000DA420020A7
:1015A000D3200AF063BF2DE9F843DFF8845C0446DA
:1015B0002868884691461F46D8B178000E3080B220
:1015C00004F064FA060014D0D4203070748086F8D9
:1015D00004804946701D04F00DFA77737A0008996B
:1015E00006F10E0004F00AFA29683046BDE8F4431B
:1015F0000847BDE8F1830000C85000207CB50446D0
:10160000886A10F8015F05F01F01461C012917D1F7
:10161000314600A804F0EEF900A9DFF8C40A04F08E
:10162000DBF9083678B1E020054209D17078B1784D
:1016300000EB0121307889B200F032F9204676BD06
:10164000FFF7AEFF002076BD0000000080420020C2
:10165000BE4200202DE9F84300F07CF8994600F0E6
:1016600019F80127060012D030690B21017080F8AB
:10167000018080F80290B777FFF7C3F87062777740
:1016800035627480B776304608F0A0F907463846D0
:10169000BDE8F28300A8ACE4F8B504460025A06AD2
:1016A00010F8016F4778A06903F0DBFB00281CBF2E
:1016B000017900291FD003291DDA0F2E00DA0FB19E
:1016C000012510E00575002EDFF8301C0FBF0968FA
:1016D00051F826103C225143C1618161012180F8FB
:1016E00020100AF043FDDFF8540C0278A089294647
:1016F000BDE8F84006E0F1BDC0420020044F0020E4
:10170000084F00202DE9F04184B000F023F8FFF7E6
:10171000C1FF0126070014D038690C210170457003
:1017200080F80280BE77FFF76CF800F00EF810B179
:101730007E7701A838627C80BE76384608F046F98C
:101740000646304604B0BDE8F081786201A9204623
:1017500005F08BBB044603208DF801000D46904632
:10176000704710B5806A401C4478007860BB012C3B
:1017700018BF022C28D1DFF8C43B01221C700021C5
:10178000512005F08CF9022C1ED1DFF8B40BDFF8E4
:101790006C2B007800280FBF106852F820003C2204
:1017A000504303224FF47A71B0FBF2F048430246F3
:1017B000DFF8EC1B08604FF48041DFF85C0C007828
:1017C000BDE8104004F084BC10BD10B504468EB0D6
:1017D0002168086AA8B1C97F01AAFEF700FFDFF8F7
:1017E0003C0CBDF80E10C08A81420AD020680088E7
:1017F0009DF8212000904FF6FE73BDF8100002F016
:101800001BFE0EB010BD00000C4F0020104F00203A
:10181000584200205C42002010AF21001AAF210086
:1018200018AF210070B5DFF8042612780021002AD5
:1018300018BF012A19D1002200E0521CDFF8E03B5A
:101840001B789A4211DADFF8DC3B242404FB0234D3
:101850002379FF2B1CBF238A002BEED0002819BF51
:1018600000232382591889B2E7E700F07AFB00E0F1
:10187000521CDFF8984C2478A2420FDA1C245443FF
:10188000E55AB5421EBFE5182C8B002CF0D000287D
:1018900019BF00242C83611889B2E9E7084670BD9E
:1018A00038B5DFF8785B0C4695F87210814211D29A
:1018B000FFF7F0F9DFF8700B04806421E879BDE8E8
:1018C000384001FB00F2DFF8500B00784FF4007154
:1018D00004F0EFBB31BD0000D242002038B5DFF884
:1018E000545C0446286803E00188A1420AD040689D
:1018F0000028F9D1082002F001FF18B104802968FE
:101900004160286031BD0000F5420020D042002037
:1019100070B5DFF8205C286882B0002401E04068E0
:10192000641C0028FBD1E4B2600002F0E7FE060070
:101930001FD02868002105E00288C9B226F81120CE
:10194000491C40680028F7D1DFF8D01AB1F86E00C2
:10195000CA8A00969042234601F1390203D1002140
:10196000FFF721FE02E00021FFF79AFD304602F06A
:101970002BFFBDE8734008F0D0B810B5DFF8B44BCA
:1019800003E04168216002F01FFF20680028F8D1C1
:1019900010BDF8B5DFF8840ADFF88C5A848C2988EA
:1019A00081845020294604F083FA2E88002704E021
:1019B000B14218BF00F0DBFA7F1CDFF8500B007853
:1019C000874209DADFF8CC0B1C2101FB07004189B3
:1019D000A142EDD14681EFE72C88DFF87C5C2868D6
:1019E00070B1062004F052F850B1D5210170848006
:1019F000002181700121C1702968BDE8F4400847C9
:101A0000F1BD000048510020DFF8500CC18A4FF6AC
:101A1000FE72914200D1704780B5807B800704D56B
:101A200000F00DFBBDE801401DE001BD4A51002062
:101A300010B5DFF8E80990F8660098B14FF47A71B4
:101A400001FB00F404F020F8DFF8141C09880840BA
:101A50000219DFF8C4090078BDE810404FF4807126
:101A600004F036BB10BD2DE9F84F0025A84603F061
:101A7000C9FA002446460EE0304603F0AAFA48B1FF
:101A80000179002918BF042904D1807A00F0D2FB23
:101A900000B16D1C761CDFF8880990F80090F6B252
:101AA0004E45E9D300F01FFA8346002609E0304690
:101AB00000F03EFA20B1807C00F0BCFB00B1641C59
:101AC000761CF6B25E45F2DB6419E4B2002C44D019
:101AD000A00002F013FE5FEA00083DD0A200FF2143
:101AE00003F0A4FF4FF0000A002617E0304603F091
:101AF00070FA070011D03879002818BF04280CD1DB
:101B0000B87A00F097FB40B1009401467A7A3888A1
:101B1000434600F069F80AF1010A761CF6B24E4518
:101B20003EBF5FFA8AFAEDB2AA45DFD30026F6B2CD
:101B30005E4512DA304600F0FBF905000AD0A87CB9
:101B400000F078FB30B1009401466A7C2888434657
:101B500000F04AF8761CEAE70024DFF8000B007B6F
:101B6000622518B103F007FFC0F15405EDB2032060
:101B700095FBF0F95FFA89F9B9F1200FA8BF4FF092
:101B80001F09C34600260DB120260025E4B2A14559
:101B900032BF4F46274646F040065A463146384641
:101BA00000F054F8824670060AD47F1EFFB200206F
:101BB00002E00BF1040B401CC0B2B842F9DBE41B9D
:101BC000BAF1000F01D17006DCD5B8F1000F1CBFCF
:101BD000404602F0F9FD5046BDE8F28FF442002085
:101BE0006551002048500020F0B5059C00250026D6
:101BF0004FF6FF7702E01D461B1D761CF6B2A6428B
:101C000023D2B3F800C0BC451CD015B12D88854245
:101C1000F1D26045EFD29C46BCF80050BD4205D0E1
:101C2000761CF6B2A6420CF1040CF5D365463CF8DE
:101C3000044D2C8063459CF80240AC709CF8034036
:101C4000EC70F3D318809A70D970F0BDF8B50446E3
:101C500004EB4400801C8DF801000E461546FFF78A
:101C600019FD012730B3016908220A7004F01F0230
:101C700032434A70891C002212E02B8801F8013B94
:101C8000521C2B881B0A01F8013BAE78EB7803F05D
:101C9000070306F0070643EA061301F8013B2D1D72
:101CA000D2B2A242E9D34FF6FC714180877607F0A9
:101CB0008DFE07463846F2BD2DE9F843002604465E
:101CC0004FF6FE71A36A5A7803F1020C1306084618
:101CD00002F01F092FD409EB4905237FAD1CEDB29B
:101CE000AB4228D1B9F1000F05D09CF800009CF858
:101CF000013000EB0320B646DFF860590BE008F036
:101D00000703EF8A1FFA81F8B8450CF1030C08BFEE
:101D10001E460EF1010E5FFA8EFECE4510D29CF8E3
:101D200002809CF800109CF80130882718EA070F01
:101D300001EB0321E3D0BDE8F243D3200AF096BBC8
:101D40002EB989B280B200F057F800284CD0A08993
:101D500003F084F806F1010988B10021C171DFF8B0
:101D60000419027A09788A4207D3491C01EBD17120
:101D70004910072E0172B8BF4E46467234E0A08962
:101D80004FF6FF7100F072F8070010D100F08BF8E9
:101D9000070029D000F02CF8A0893880A88C788121
:101DA000AA20B87400F073FA387401207874DFF850
:101DB000B4080178387C884207D3481C00EBD07007
:101DC0004010072E3874B8BF4E467E74002038731A
:101DD000B81C05F03DF838B9207A28B1A169B81CC3
:101DE000BDE8F44303F006BEBDE8F18327AF210050
:101DF0001C22002103F01ABE4FF6FE7310B5984264
:101E00001CBF02F06003602B0ED0DFF85038DB8A75
:101E1000940607D4520603D5834205D2002010BD94
:101E20008342FBD39942F9D3012010BD61510020B8
:101E300038B50024DFF85C5705E01C2000FB045097
:101E400000F095F8641C00F047F98442F5DB0020AF
:101E5000DFF8141801EB80034FF6FE725A8000225F
:101E600001F82020401C0328F4DB31BD30B50023ED
:101E7000DFF8204701E05B1CDBB2DFF81C2712789B
:101E800093420EDA1C225A43155B8542F3D1121994
:101E900055898D421CBF4FF6FF75A942EBD1104604
:101EA00030BD002030BD38B54FF6FF714FF6FE70E3
:101EB000FFF7DCFFB0B900240FE0DFF8D8161C22D2
:101EC00002FB0415A97C00291CBF697C002903D1F1
:101ED000288802F0D6FA2846641CDFF8BC16097878
:101EE0008C42EADB32BD10B500200021DFF8A426C9
:101EF0004FF6FE7407E01C2303FB01231B88A3425B
:101F000018BF401C491CDFF890361B78C9B29942B3
:101F1000F1D380B210BD38B504460D4603E000F0A1
:101F200026F829462046FFF7A1FF0028F7D131BD4A
:101F300070B5002100F015F801E0491C521CDFF8D3
:101F400058462478D2B2A24209D21C245443E55AFE
:101F5000B542F3D0CDB28542EFD1E01870BD00207C
:101F600070BD0022DFF82C364FF6FE76704710B5B4
:101F7000040007D0FFF73CFF4FF6FE7020804FF6BD
:101F8000FF70608110BD38B5044600250AE0DFF817
:101F900004061C2101FB05004189A14218BFFFF77F
:101FA000E6FF6D1CDFF8F00500788542EFDB31BD00
:101FB00038B504460B4800780D46002811BF0128AB
:101FC000DFF89806808C854205D1204602F046FF56
:101FD00008B1083032BD29462046FFF747FF00B15F
:101FE000103032BD615100202DE9F04704468A4689
:101FF00000260027DFF89C8517E01C2000FB07F96E
:1020000009EB0805A81C04F023FF60B139F80800AB
:10201000A04208BF46F00A065146A81C03F0DCFCAB
:1020200008B146F0A0067F1CFFB200F055F88742C9
:1020300002DAF0B20028E0D0F0B2BDE8F08738B59F
:102040000025DFF8D84316E0284602F0C2FF00283A
:102050001EBF0179012902290CD0C1794A1CC27125
:1020600094F867208A4205D200218172417200886B
:1020700002F007FA6D1CDFF8A8030078EDB2854284
:10208000E2D3002517E0DFF80C051C2101FB050059
:102090004FF6FE72018891420CD0017B4A1C0273FC
:1020A00094F867208A4205D2002181744174008827
:1020B00002F0E7F96D1C00F00FF88542E3DB002029
:1020C000DFF8A41511F8202012B1521E01F82020CB
:1020D000401C0328F6DB31BDDFF8BC0400787047F4
:1020E000254A00202DE9F047054689464FF6FE783F
:1020F00092460024002001214646DFF8987409E04A
:1021000003F0C2FCC0B290FBF4F104FB1100C0B2BA
:1021100000240021002202E0DE5B521CD2B2DFF874
:10212000EC331B789A421FDA1C23534333F807C061
:10213000C44518BFAC45F0D0CC451FBFD44503EB18
:10214000070C9CF811C0BCF1000FE6D0BCF1080FE1
:10215000E3DABCF1070FDFD0641C0029DDD1E4B263
:102160008442DADBD85B45E0DFF800251278002AEC
:1021700018BF012A33D1002202E01E88521CD2B2BD
:10218000A74B1B789A422ADAA64B4FF0240C0CFB83
:102190000233B3F800C0C44518BFAC45EED0CC45FF
:1021A0001EBFD44593F809C0BCF1000FE6D0BCF1C6
:1021B000080FE3DA93F804C0BCF1010F18BFBCF1BB
:1021C000020FDBD093F809C0BCF1070FD5D0641C17
:1021D0000029D3D1E4B28442D0DB18880AE0E4B20B
:1021E00024B118B9012C8BD1012091E7464514BFC9
:1021F00030464046BDE8F0872DE9F0410446884668
:102200000027DFF8906300E07F1CFFF765FFFFB257
:1022100087420AD21C2000FB07F5A8194146801C02
:1022200003F0DAFB0028EFD0AC53BDE8F0810000EA
:10223000FC50002007210D28A8BF012109DA07283A
:10224000A8BF032105DA0328A8BF052101DA00B9D8
:10225000002108467047F8B505460E461746FFF7B9
:1022600022FE040012D0FFF7C3FD2580668107B966
:102270000127DFF8E803A77490F86C0001280CBF71
:1022800000200720607400F002F82074F1BDDFF830
:10229000D4030078401C00EBD07040107047F8B5B4
:1022A00004460025BB4E15E01C206843815BA1421B
:1022B00007D04FF6FF7294420BD14FF6FE72914257
:1022C00007D08719B81C04F0C3FD10B93846FFF7D2
:1022D0004EFE6D1CFFF700FF8542E5DBF1BD4FF6BA
:1022E000FF70DCE7DFF888030FF2150141600FF2A1
:1022F000310181600FF24D01C160704738AF21009C
:1023000080B5DFF8701309688A7942B9C268096834
:10231000407802F071FCBDE8014007F0FEBB01BD52
:10232000CE48B0F87010491CA0F8701089B200298E
:1023300004BF0120FFF776BA704700005C5100200F
:10234000EA42002010B5CC4A127882B00AB9E129DD
:1023500025D10189491C018189B2304829B9A0F8E9
:1023600070100120FFF75EFA13BDC4490978B1B1BE
:10237000B0F87040A14212D20020FFF753FA642156
:10238000414391FBF4F11A2909DBBD4909680A00B0
:1023900005D0ADF80200ADF8004000A8884713BD95
:1023A0000C51002000B583B000A9002200230CC10D
:1023B00000A903F011FB401E8041C00F0EBD10B5F7
:1023C0003A2B18BF3B2B1C4607D113460A46014641
:1023D0002046BDE8104004F062BC0A2010BDA948A8
:1023E000A9490160A9494160A949097801290ED18B
:1023F0000FF21D1181600FF24111C1600FF29D11AA
:1024000001610FF2092141610FF2210181618068B0
:10241000010018BF00477047C8500020EC49002059
:1024200010AF2100F84200204651002070B58AB05C
:10243000054602208DF8050001A8FEF7DAFD04002C
:1024400061D0206904210170602141700120A076D3
:10245000A077FEF7D6F960626580E07E7F4D20B9F7
:102460002878E0762878401C2870207E01280AD140
:102470008848007828B1E87A002804BF207800282E
:1024800001D1002020760DF102012046FDF7DDFF8D
:10249000060035D0242002F031F9029068B32422DE
:1024A000FFF7A7FC00A9502003F0F4FC0299BDF847
:1024B00000004881E88A0299ADF8200002200873E4
:1024C0000299087202996088088001200299C881E7
:1024D00002999DF80200C8770299607D48730298BE
:1024E0000662E08AADF81200607D8DF8140002A843
:1024F00007F01DFA029802F067F9304602F064F91D
:10250000204602F061F90AB070BD00001FAF210043
:1025100038B50024604D06E00422FF2105EB84005D
:1025200003F084FA641C5D480078E4B28442F3D37B
:1025300031BD00001C5100202DE9F04184B0002481
:10254000464DDFF854814FF6FF7602E03018788070
:10255000641C52480078844219DA38F82400B042EA
:10256000F6D008EB840778880028EFD102208DF898
:10257000080038F82400A98CADF8000000A803F08A
:102580002EFD0422FF21384603F050FAE0E7BDE8B3
:10259000FF810000EC4500201FAF2100FEB504467E
:1025A00002202E4F8DF808000D46B98CADF8004082
:1025B00000A803F012FDFF261A2824D03749364A16
:1025C000097800204FF6FF7C04E0FF2E08BF064686
:1025D000401CC0B2884208DA32F820306345F4D09B
:1025E000A342F5D102EB800006E006D1FF2E06D013
:1025F00002EB860022F8264045800120FEBDB98C02
:1026000000A803F0ECFC0020FEBD00003EB504462F
:1026100002208DF80800ADF800404FF6FF750F4816
:10262000818C00A803F0DBFC1C491B4B09780020BF
:1026300001E0401CC0B2884205DA33F82020AA42EB
:10264000F7D0A242F5D1884205DA0422FF2103EB3C
:10265000800003F0EBF937BD00510020EC49002069
:1026600030AF210022AF21004850002061510020EE
:10267000E04F00203851002028AF2100F142002017
:10268000704E0020144F002081502000FD5020008B
:102690005C510020DE420020784F002032AF210044
:1026A0002DE9F04104460D460026AC4203D004F06B
:1026B000D7F9070001D1012627E0284604F0D0F918
:1026C00018B10146284604F025FB00223946284669
:1026D00004F0A6F9C8B1384602F010F85FEA000825
:1026E00012D043463A460021204604F0D8FA30B9C9
:1026F00043463A460021284604F0D1F900B10126AC
:10270000404602F061F800E010263046BDE8F08156
:10271000DFF8981400200860704780B507F004F9CE
:1027200058B90022012100F039F930B101680029BF
:102730001CBFBDE8024005F0E0BD01BD80B504202E
:1027400000F01EF9DFF868140978814207D3FF20F2
:1027500000F016F9DFF85C140978814201D20120FB
:1027600002BD002002BD2DE9F04107468846387BB6
:1027700000F023F900240546012625BB7A89397B20
:10278000386800F0B7F8050062D02C810124387C4D
:102790002874788A688207F11000FEF78CFC686163
:1027A0004FF67F41388B2883B87EA8766889084029
:1027B000688141074FBF40F08000DFF8FC130978C3
:1027C00040EAC11068816889C109B8F1000F01F0C1
:1027D000070112D002226A732A68927B520703D53E
:1027E000DFF8D823128A2A8121B34FF67F421040A6
:1027F000491E40EAC11068811CE009B9002619E0B1
:10280000810605D503F040F900F07F005F3008E055
:10281000C00605D503F038F900F00F000A3000E0DB
:1028200001202881202104206873DFF894030078B8
:1028300003F04EFA6CB12A89697B284600F06DF8E6
:1028400038B1686908B101F0BFFF284601F0BCFF4C
:1028500000263046BDE8F0813EB500F0AEF8002419
:1028600098B3417B062930D101684489097A8DF8F3
:10287000081001680988ADF8001000F0E5F820059F
:1028800022D5BDF80010002000F021F8E0B9DFF8F3
:102890002C43A18C00A803F0A2FB002100200CE037
:1028A000286801884FF6FF7291420DD0A18C03F089
:1028B00094FB1A2808D00021284600F008F80500EB
:1028C000EED1002003F08DFB012420463EBD18B957
:1028D000DFF8D802006800E0406840B14289120584
:1028E000FAD500291EBF026812888A42F4D17047C7
:1028F0000120704770B504460D4616461C2001F0B5
:10290000FDFE48B100214173057346810181817349
:10291000C17304604161416070BD70B504000D4633
:1029200016462BD0012D284606D100F029F8A549DE
:10293000097881420CD207E0042D07D100F020F87D
:102940009B490978814203D2112070BD022D15D117
:1029500000206060657326819448016831B100E011
:10296000014648680028FBD14C6000E004609448B0
:102970000078202103F0ACF9002070BDC12070BDAB
:102980008A4A1268002105E0537B5268834214BFD3
:10299000FF28491C002AF7D1C8B2704710B98348F4
:1029A000006800E0406838B1437B8B42FAD11AB12D
:1029B00003689B7B5B07F5D470477C49096800E09E
:1029C000496821B10A7B8242FAD10846704700204B
:1029D00070477649096800E0496861B10A68138860
:1029E0008342F9D1126A1378527803EB0222D2059E
:1029F000F2D40846704700207047F8B50446002618
:102A000020000D460AD06948076800E07F682FB1B2
:102A100029463846A0470128F8D13E463046F2BD47
:102A20000020704710B561490A681346002401E090
:102A30001C465B683BB18342FAD15868934201D18E
:102A4000086010BD606010BD10B5040011D0FFF724
:102A5000E9FF2068006A01F0B7FE206801F0B4FECB
:102A6000606908B101F0B0FE2046BDE8104001F0F9
:102A7000ABBE10BD38B501684C4A09881268002306
:102A8000002409E0557B052D01BF641C15682D88C5
:102A90008D42526808BF5B1C002AF3D14A4A47495D
:102AA0001278DBB293423FBF484A1278E4B29442B4
:102AB0002CBF01220A8A02814FF6FF73052242735E
:102AC000428942F400624281006802889A4204D03E
:102AD000898C03F082FA1A2804D1BDE83240012023
:102AE00003F07FBA31BD10B548B1A0F108010A6802
:102AF000002A04BF8A79FF2A03D002F0D9FF0520FB
:102B000010BD2F4C22788A7131490A78014631482C
:102B100003F0BBF8012806D120784FF4005103F0F0
:102B2000D7F8002010BD042010BD70B509F078FE64
:102B3000284D2E6800F0010080F001048EB120487D
:102B400056F8081C007800294FF4005102D003F019
:102B5000BFF801E003F0C8F800223146284603F030
:102B600075F80CB109F058FE304670BD70B50446DA
:102B70000E480668002514E030680088A0420FD196
:102B800000203081B07A400744BF307B01F086FAE4
:102B900006207073F0213068407B05F00EFC6D1C40
:102BA0007668002EE8D1E8B270BD000030510020F8
:102BB00012AF210013AF2100D9420020EC490020C0
:102BC000C850002011AF210015AF210016AF210021
:102BD00021AF21003451002070B50D4604462988EC
:102BE00000F028F808B1B82070BD00F08FF86E49E9
:102BF0000978884201D3B22070BD182001F07EFD13
:102C0000060001D1102070BD002030603471122206
:102C10002946B01D02F0F2FE6448016811B9066051
:102C200004E0014608680028FBD10E6000F095F82A
:102C3000002070BD5D4A126842B11379834212BF11
:102C4000FF28D3888B42F6D1901D70470020704733
:102C500010B5564A1468FE290CBF0123002303E077
:102C6000914208BF012324683CB1E2888242FAD134
:102C70002279002BF4D0104610BDFE2010BD10B5F7
:102C800000224A4B07E01C79844204D1DC88D2B28E
:102C900021F81240521C1B68002BF4D1D0B210BD99
:102CA00038B5424B1A68002401E0144612688AB114
:102CB0001579854204BFD5888D42F6D11068002C65
:102CC0000CBF18602060104601F07EFD00F045F852
:102CD000012032BD002032BDF8B5344D04462868CD
:102CE000002603E0076801F06FFD384658B102790D
:102CF0000168A24204D1002E0CBF29603160F1E7C7
:102D000006460846F2E7BDE8F14026E000202749E4
:102D100000E0401C09680029FBD1C0B2704710B523
:102D20002148007814214843811C002289B24220A6
:102D300003F076FE040018BF00F002F8204610BD34
:102D400080B50020ADF8000000F001F801BD00AB37
:102D500002220021422003F0A2BE10B586B000205E
:102D6000ADF800001148046818E020798DF80400DF
:102D70001222A11D0DF1060002F040FEBDF8000078
:102D800014225043811C01AB89B2422003F087FE1C
:102D9000BDF80000401CADF800002468002CE4D110
:102DA000FFF7D5FF06B010BD7CAF210020510020F9
:102DB00030B587B000AB02220021422003F06FFF44
:102DC0000024C8B9002512E014206843811C01AB1F
:102DD000142289B2422003F062FF38B99DF8040042
:102DE0000DF10601FFF7F8FE00B9641C6D1CBDF87B
:102DF0000000ADB28542E7D3A0B207B030BD50F8B5
:102E0000041B61B150F8042BD30744BFA9F101039F
:102E10009A180023091F42F8043BFAD1EFE77047E4
:102E200080B501F047FB00214FF6FE70002308E05B
:102E3000DFF8F42B02EBC102491C50805370536041
:102E40001370DFF8E82B12789142F1DB002108E0E3
:102E5000DFF8DC2B0A2303FB0122002350801372CE
:102E6000491CDFF8D02B12789142F1DB0021DFF80A
:102E7000C82B02E022F83100491CDFF8C03B1B7868
:102E8000C9B29942F6D3DFF8B80BDFF8B81B007867
:102E900008704FF47A72DFF8B00B0078BDE8084094
:102EA000102103F015B92DE9F04380460D46E807DF
:102EB00085B09146DFF8944B08D5A8074FF6FC780B
:102EC00054BF45F0080545F0100530E0404601F0DC
:102ED0004BFAE18A884205D02A460221404601F099
:102EE00011FA08B9002068E02B4602224FF6FE7165
:102EF000404600F03AFC00285ED105F0DF05680688
:102F000015D402A9404603F0B0FF45F0200768B988
:102F1000A18C4046FEF7AAFF060008D0B01C03F0C3
:102F200097FF20B1B11C02A802F064FD3D46DFF816
:102F3000206BE38A3778012000900022394618463A
:102F400000F0E4FE791C3170B0BBA8064CBF0E2027
:102F500006208DF8050001A8FEF74BF8040029D0E3
:102F60000120A077FDF74DFC60620121206901700E
:102F700005F07801417087704FEA1821017180F8DF
:102F8000038000214171A90603D502A9801D02F02A
:102F900031FD4FF6FD70B9F1000F608006D0DFF80B
:102FA000F00C0078814538BF84F81A90204606F06E
:102FB0000DFD02E0102000E0C72000F0B0BD10B50C
:102FC000DFF8844A20784FF4805103F0B7F820B13D
:102FD000DFF8301C0120087010BDDFF82C0C0278DF
:102FE000DFF8280C007801280CBF01210321002004
:102FF000FFF759FFDFF89C0C02882078BDE81040ED
:103000004FF4805103F055B82DE9F84304460D46BE
:1030100016469846FEF716F810B14FF6FF7046E0D8
:10302000DFF8740C007802283DD1DFF8700C0178CD
:10303000204601F0E1FAA0BB00F034FE089901F04F
:1030400028F907002FD0787901284FF6FE791AD198
:10305000B9797888182211420ED0DFF8441C09781B
:10306000397185421CBF8642804509D142463146AE
:103070002846FFF737F803E0DFF8D019097D3971EA
:10308000484506D013E0032806D0042808BF484668
:103090000DD07879022806D00721204601F0ACFA3D
:1030A00008B1204603E02046BDE8F24301E0BDE858
:1030B000F28310B5044601F0ABFE18B9204601F0CA
:1030C000C3FE08B1204610BD4FF6FE7010BD2DE9BD
:1030D000F843044688469146FDF7B4FF00270028D0
:1030E00054D100F0DFFD494601F0D3F8060020D0AE
:1030F0007079032815D1B07902251821084230D102
:103100000021404601F030F9DFF84019C98A8842B1
:1031100031D1DFF8A80C027849462046FFF7C3FEFC
:1031200033E0012832D17088072101F065FA68BBCD
:10313000E1E72046FFF7BDFF01F090FE30B3417993
:10314000CA0723D501258A0707D501222146404613
:1031500000F0EEF90028D3D118E041F002014171EE
:10316000CEE7708800904FF6FE730022214640465D
:1031700001F062F909E02A462146404600F0D8F9FC
:1031800020B94946204600F090FD01273846BDE8A9
:10319000F2832DE9F04FDFF8B46888460446B18C1D
:1031A00089B093464046FEF703FF5FEA00094FF0FF
:1031B000060A03D099F80100002864D0A06A457877
:1031C00081788DF80C10C178007901EB002740461A
:1031D00000F080FDA16A497940188DF80400A80626
:1031E00048BF4FF00E0A87210D4206D105F01800A6
:1031F000182802D0207F504503D0D32009F036F99B
:1032000041E0002000F08FF8032805F078053AD05F
:103210004FF6FF7A98BB18210D4236D045F00105D4
:10322000E80648BF45F00205A089294601F031F8BB
:1032300002001EBF90791821084212D0507901284F
:103240000FD1B9F1000F0CD0B18C5088FEF7B0FE51
:1032500000281CBF4078002803D099F8011088424C
:1032600011D300F069F850B9ABF800A00021207A22
:1032700000B1A1699DF80420A08901F0BBFCBBF856
:103280000000504510D000204AE0707B08B100F0EB
:1032900053F82B4602224FF6FE71B8B200F065FAE1
:1032A0000028ECD1ABF800A0012000F03CF8294642
:1032B000B8B201F059F8F18A88422BD1B8B201F0C6
:1032C000CDFD48B10079012818BF022804D104A916
:1032D000B8B203F0CAFD05E0FDF793FA014604A871
:1032E00002F088FB207A012803D1A16906A802F028
:1032F00081FBA06A40789DF80C3040F030000290CD
:10330000002204A80190B9B206A80090A08900F09C
:103310009FF8B8E7A16A9DF804004871FDF786FAA6
:1033200009B0BDE8F08F00909DF804209DF80C10C6
:10333000A089434600F0EABCA0892B460122414601
:1033400013E22DE9F04F0446DFF800970846B9F87C
:10335000241087B0FEF72CFE082758B1417849B9F0
:10336000DFF8CC1B0978491C01EBD17149100170C1
:1033700007214170A06AC1780279467890F802B0BE
:1033800090F807A001EB02284179827901EB022530
:10339000F10648BF1027B10644BF0837FFB236F028
:1033A000700104BF217FB94203D0D32009F05EF839
:1033B00046E006F070060021F20607D500F108018C
:1033C00005A802F017FB082106F0EF06B00608D5A5
:1033D000A06A081800F1080103A802F00BFB06F030
:1033E000DF0659461FFA88F000F03CFFDFF844166C
:1033F0000978884208DA00F095F881798A451FD269
:1034000080F806A0002000E00420B9F816101FFA8A
:1034100088F78F4212D018B900F015F880B901E092
:1034200004280DD103A80190029605A800905B46E0
:103430005246A9B2384600F00BF801E000F003F85C
:1034400007B0BDE8F08FA18933460122A8B28CE114
:103450002DE9FE4F8A46984605469346414600F0C0
:1034600001FFDFF8D0150978884204DA00F05AF835
:10347000B0F8049001E04FF6FE7908208DF80100C5
:103480000E9CE00644BF10208DF80100A00604D574
:103490009DF8010008308DF8010000A8FDF7A9FD96
:1034A00006003DD00120B077FDF7ABF9706201A9AD
:1034B000484603F0DAFC18B10120707701A806E055
:1034C000E00605D54D4503D1012070770C98306298
:1034D0003769022038707C7087F80280FD70280AF6
:1034E000387187F805A04FEA1A20B871484600F0F5
:1034F000F1FB5844F8710020E10605D50C9907F15D
:10350000080002F077FA0820A10604D50D99C01929
:10351000083002F06FFAA6F80290304606F056FA2C
:10352000BDE8F78FDFF808150A2202FB001070478C
:10353000F8B5DFF818550746E88A012687420C4699
:1035400004D000233846FDF701FF06460021384627
:1035500000F00AFFE98A884214D10021204600F0D9
:1035600098FE00281EBF81791822114206D000F073
:103570005DFFE98A008800F05FFF03E0012120463B
:1035800001F028FB3046F2BDF8B5DFF8BC54DFF897
:10359000304B2878102102F0D1FD28B928784FF45B
:1035A0007A72102102F094FDDFF898040178491E28
:1035B0000170C9B229BBDFF88814097801700022B4
:1035C00005210020FFF7EAF9060019E00022052195
:1035D0003046FFF7E3F90546308980B1401E30815F
:1035E00080B260B9B07A400744BF307B00F056FD2E
:1035F00006207073F0213068407B04F0DEFE2E0060
:10360000E4D100264FF6FE751AE02079002818BF95
:10361000FF2813D0401E2071C0B278B9607903280A
:1036200004D1218860880222FFF782FF6079012897
:1036300004D02580002065806071A071761C08345C
:10364000DFF8480B0078F6B28642DED300260FF290
:1036500061040AE0FFF7F8F939462046FFF7CDF993
:103660000028F7D17D803870761CDFF8C803007819
:1036700086420BDADFF8B8030A2101FB0607387A25
:10368000401E3872C0B20028EED1E5E70020DFF816
:10369000981306E011F8302012B1521E01F83020C4
:1036A000401CDFF8882312789042F3DBF1BD000064
:1036B00030B50C4600258DB0002C1EBF0168086A8D
:1036C000002814D0C97F00AAFCF789FFBDF80C00C0
:1036D0006188884204BF9DF80200012807D10A983A
:1036E0000178012901BF8078217888420125284688
:1036F0000DB030BD10B550B900F011F804464FF6CA
:10370000FE70844207D1DFF8A00C007818B10120C8
:1037100000F005F80446FDF75EFA204610BD30B50E
:1037200085B0CA4C02F0B0F90546E08A8542F9D06E
:10373000FDF774F88542F5D02846FDF783FC002894
:10374000F0D1002DEED08DF80000ADF8025000A8A9
:1037500003F0EAFB0028E5D14FF6FE708542E1D088
:10376000284605B030BDFDF736BA2DE9F84F0746BB
:103770004FF6FC7087420C4615461E4652D000217B
:10378000384600F0F1FDB14F8046F88A804501D1FE
:1037900070067DD53146404600F07BFD0100DFF824
:1037A000EC09DFF81CA990F800904FF6FE7B16D1CB
:1037B0000021584600F06DFD010010D118210E4285
:1037C0002AD00022182301E0521CD2B24A450AEB4B
:1037D000C20102DA88791842F6D14A451CDAA1F80A
:1037E00000805C4518BF4C80F00748BF46F00406D7
:1037F000DFF8AC048E71012D007811D101224A71DD
:1038000018238A791A4209D008712046B98CFEF72C
:10381000CFFB00283CD110E002203AE0387DF3E7EE
:103820004A79012A34D08A7918231A4208BFF87CD1
:1038300008714D712CE0401CC0B2DFF8701B097894
:10384000884225DADFF8682B1C23002103FB0025C2
:1038500006E00AEBC1022B8852889A42EBD0491C41
:10386000C9B24945F5D3E6D11C220021284602F011
:10387000DDF82C80B88C6881AA20A87401206874B7
:10388000DFF8AC060078401C00EBD07040102874C4
:103890000020BDE8F28FF8B50646DFF88C0B007803
:1038A0000C468442154601D30520F2BD304608F08F
:1038B00078FC304600F08DF85C490F78B84204BFC0
:1038C0004FF6FE7000F085F8B84222DA564901EB57
:1038D000C007786808B100F077FF34B1600000F0ED
:1038E0000DFF786018B90120F2BD002078607E805D
:1038F0007C70DFF8F00B00783870787800281CBFF7
:103900007868002803D06200294602F077F800208A
:10391000F2BD0720F2BD2DE9F8430446DFF8080B9D
:1039200000780D468542904628BF052038D22046B3
:1039300000F04FF83D49DFF8F0900E78B0424FF6B6
:10394000FE7713D1384600F044F8B0420ED199F812
:1039500000100020012206E019F832308B423CBFF3
:1039600019461046521CB242F6DBC0B209EBC00643
:103970007780706818B100F027FF0020706045B1B3
:10398000680000F0BBFE706060B16A00414602F062
:1039900035F874807570DFF84C0B007830700020BB
:1039A000BDE8F2830120FBE738B50C46154600F070
:1039B00010F81E4A12789042014608D21A4800EBCD
:1039C000C1004178217040682860002032BD042089
:1039D00032BD38B51549144A0978002401E0641C49
:1039E000E4B28C4204DA02EBC4035B888342F6D172
:1039F0008C4204BF4FF6FE73984213D1002401E0BD
:103A0000641CE4B28C4202EBC40502DA2878002878
:103A1000F6D18C4206DA68686B8018B100F0D4FEEB
:103A200000206860204632BDD04A00201DAF210032
:103A3000E84B00201EAF2100D44C002025AF210010
:103A400014AF210068510020C8500020EC4900202C
:103A5000675100202DE9F043044685B0A06ADFF8E5
:103A60008C9B45789DB1DFF8C0190978801C8D4288
:103A700055DA002107E00378477803EB072329F89C
:103A80001230801C491CC9B20A46AA42F3DBDFF897
:103A9000A00BC28A6089904206D1A0894A46294675
:103AA00005B0BDE8F043F6E6A17CC1B30027A84607
:103AB000002100E0491CC9B20B46AB4205DA39F8D7
:103AC00013309342F6D188460127002100F0E1FB34
:103AD000060014D07079012811D1B079182108425C
:103AE0000DD072884946284600F0FEFC08B9012F27
:103AF00005D1A0894A46294600F005FD7080A37CC7
:103B0000581EA074CDF8089001200390CDF80480D1
:103B1000E07C0090A269A189608900F003F805B0FB
:103B2000BDE8F0832DE9F04782B080460D9D0B9CE7
:103B3000002D1ABF6000001D02208DF8010089468B
:103B400017469A4600A8FDF754FA060038D0A6F8A2
:103B50000280A6F8049086F81AA00A98F076B07F42
:103B6000012809D1FCF756FEB188814204D0002F0C
:103B700012BF77620020B0773069052101700DB95E
:103B800044701AE0611C4170851C0C98002108E00B
:103B9000028805F8012B491C30F8022B120A05F89F
:103BA000012BC9B2A142F3D3FCF734FE05F8010B97
:103BB000FCF730FE000A05F8010B304605F006FF61
:103BC000BDE8F38701EB400030F8020C7047F8B510
:103BD0000446DFF85408007884420D4616460FD29A
:103BE000002700E07F1CFFB2A74205D2FCF712FEBF
:103BF00036F817108142F5D1AF4201D10120F2BD54
:103C00000020F2BDC9500020E64200205A51002099
:103C1000F0B589B004460D461646FDF713FA0027A5
:103C200008B1002031E000F03DF8314600F031FBF2
:103C3000060029D0B079400726D5FCF7EBFD854278
:103C400008BF03970FD0284601F0F0F8012814D1DF
:103C500004208DF81000ADF8125004A803F064F9A8
:103C600001280AD103900A48037802970197009728
:103C700005AA29462046FFF755FFB07981075CBFAA
:103C800000F0FB00B0710127384609B0F0BD00001C
:103C90002EAF21002AAF2100E542002023AF2100F2
:103CA0002CAF2100002120465EE310B50C46002118
:103CB00000F05AFB214600F0ECFA48B14FF6FE71D5
:103CC000018041800021017141718171002010BD8E
:103CD000042010BD70B5DFF85859297A072499B926
:103CE000A98CFEF765F906000ED0697BB078012932
:103CF00005D1FEF79FFA7478844203D201E0FEF703
:103D000099FA044604B90724204670BD2DE9F84FFE
:103D10000746884615461E4600F0A4FADFF8141937
:103D200091F800900A9CDFF810B948454FF00A0A54
:103D30000ADA0AFB00B0C1798D4203D2DCB1C57149
:103D4000868018E0032017E000214FF6FE7000F097
:103D500089FA484508BF02200ED064B1FF210AFB52
:103D600000B0817147808680C57180F80080DFF8DF
:103D7000C018C97C01720020BDE8F28F38B50A4630
:103D8000002141710020DFF8B418DFF8B438097859
:103D900000E0401CC0B2884208D2C45C157BAC4233
:103DA000F7D1BDE832401046FEF764BE04D10620CC
:103DB00050730021106843E031BD00002DAF210099
:103DC00038B50546A878401EA8706879FEF7F5FD5D
:103DD000040034D0A87850B9607B022804D00620B3
:103DE0006073F02120682BE00620607331BDA87954
:103DF000E8B1287918B3E978491EE970C9B2F1B978
:103E0000DFF82C184978E970401E2871617B03297E
:103E100015D1C0B270B10420607301F035FE00F01E
:103E20000F00401C20812021BDE8344015E2607B5A
:103E3000032804D121462846BDE834409EE731BD21
:103E4000407BBDE8344004F0B8BA38B50021002406
:103E5000DFF8F05707E005EBC400827812B1FFF7F6
:103E6000AFFF0121641CDFF8D4070078E4B284427C
:103E7000F1D3DFF8D447207851B1402102F05EF948
:103E800058B92078BDE838406422402102F020B9BA
:103E9000BDE83440402102F038B931BD70B50C4660
:103EA000DFF8A05700210BE0EA79C37C9A4202BFF9
:103EB0002A8883899A4201D1AA7852B9491C0835C7
:103EC000DFF878271278C9B29142EDD301D10020F2
:103ED00070BDA87948B3DFF85807818C2046FDF7FC
:103EE000C5FF10B1A879401EA8710020DFF85C174B
:103EF000DFF85C27097801E0401CC0B288420BDA89
:103F0000242343439E183679FF2EF5D09B5AA342B3
:103F1000F2D1A879401EA871DFF838070078081898
:103F2000A9798842BCBF0020A871012070BD0000A3
:103F300022AF21002DE9F84FDFF87044DFF8043795
:103F40002478012505FA04FC4FF00009002702E05F
:103F50007F1CFFB20833DFF8E45695F800A0574500
:103F600002DA9D78002DF3D1574508BF002000F0FC
:103F7000938083F80690C846DFF8B476DFF8D0E681
:103F80000EE0012E18BF032E06D145894FF6FF76AD
:103F9000B54208BF4CEA090908F101084FEA4C0C88
:103FA000DFF8A8562D78A84514DA242505FB08F576
:103FB00035F80E608E421CBFB7F816B05E45EBD0E8
:103FC00075442E79042E18BF002EDAD19D796D1C10
:103FD0009D71E1E74FF0000C1EE0DFF8D4E31C26F2
:103FE00006FB0CEEBEF800608E421CBF4FF6FE755D
:103FF000AE420FD0BEF80A60BD8CAE420AD19EF828
:104000001160002E1CBF9EF81260002E02D09E7917
:10401000761C9E710CF1010CA445DEDBDFF838162E
:104020009C790978A14238BF9971997900291CBF00
:10403000817C01290EBF0021B978491C1971B9F1A1
:10404000000FF97999707978D970818919805A713E
:10405000C07CD87113D00027DFF8E40501E07F1C95
:10406000FFB2574504DA395C002918BF9142F6D1F6
:10407000574504DA3A54DFF8E40540F82790402128
:10408000DFF8C445207802F059F820B9207864227E
:10409000402102F01DF80120BDE8F28F0021DFF879
:1040A000A02500E0491CDFF894351B78C9B299427D
:1040B00004D28B5C8342F5D1002088547047000005
:1040C000AC470020F8B50446A07A02285CD1DFF89E
:1040D0009005DFF89015A27B00780978002A39D185
:1040E000DFF88425126813001EBFDFF880552B68A7
:1040F000002B29D0DFF878653368002B1EBFDFF86E
:1041000074753B68002B1FD0012908BF01281BD103
:1041100060889047C0B9DFF86005DFF86015007867
:104120002A6800280FBF096851F820003C2141434C
:1041300060889047012827D1608831688847608867
:104140003968BDE8F44008476088BDE8F8400122BE
:1041500001211DE0DFF828251268AAB1012908BF56
:10416000012811D1042001F091FC68B16421017093
:1041700001214170618841800146BDE8F440DFF8CB
:10418000C804007801F0A3BCF1BD00001CAF210001
:104190002DE9F04704460E469146FEF71AFC00282A
:1041A00042D1002E44D0814ADFF8A4341278012194
:1041B00091400026002202E0521CD2B24900DFF8F2
:1041C0008C743F78BA4209DA24275743FD182D79B9
:1041D000FF2DF1D0FF5AA742EED10E460025DFF8A1
:1041E0007C74DFF85C8402E000206D1CEDB2DFF827
:1041F0004C1491F800A0554516DA15F8081000295E
:104200001CBF57F825203242EFD00846FEF7D5FBF9
:104210000028E9D0417B0529E6D157F82510B143A4
:1042200047F825105546E0E710B1417B05290AD033
:10423000B9F1000F0FD0DFF8F803818C2046BDE8FC
:10424000F04701F0D3BE01680C80012141732021A9
:10425000BDE8F04701E0BDE8F087DFF8EC03007847
:1042600001F036BD30B50022DFF8CC3301E0521C3E
:10427000D2B2DFF8C0432478A24208DA0A245443B9
:10428000E5186D88854204BFE45C8C42EFD110468E
:1042900030BDF8B5DFF8EC23DFF8EC63157801F0FA
:1042A000400100244FF6FE7308E006EBC407BF7917
:1042B00007F040078F421ED0641CE4B2AC4205DA1E
:1042C00036F834708742F7D19842EED1AC4208BF3D
:1042D000984210D1002401E0641CE4B2AC4204DA3C
:1042E00006EBC40000790028F6D1AC42BCBF36F81A
:1042F0003400FFF7DAFCAC4202DA06EBC400F2BD90
:104300000020F2BDF8B50446DFF8800306780D46BC
:10431000012D174604D13146204600F06DF9E8B969
:10432000FFF7C0FC3946FFF7B4FF012D04D0C8B138
:104330004079A84216D111E020B14179A94208BFC5
:10434000458802D078060DD425464FF6FE7085428A
:1043500008D03146284600F04FF908B10020F2BDE0
:10436000A542F1D10120F2BD38B504464806B04D52
:1043700007D52146FF20FEF75DFC88B94FF6FE7099
:1043800032BDC3480078002818BF01280AD1204652
:1043900000F064FD30B10079012818BF022801D176
:1043A000E88A32BD204632BD26AF21001FAF210072
:1043B000EC45002070B5022882B00C4616461D461A
:1043C00015D0042818BF01280FD12A460121204604
:1043D000FFF798FF48B156B12046FFF7FAFAAD490A
:1043E0000978884203D201203070002076BD002178
:1043F0002046FFF74EFF00281EBF81791822114288
:1044000008D000F013F88A490088C98A00F014F82F
:10441000012076BDA048027829462046FEF743FDDC
:104420000028E2D1F4E7000020AF21004FF6FE7132
:104430000091002243887047F8B504460D461E4699
:1044400012B100230B2216E000212846FFF721FFBE
:10445000070015D0B879C00712D506982246314614
:10446000FDF740FE4FF6FE71884209D078800023A8
:104470000C222146284601B0BDE8F040FCF766BF9B
:10448000F1BD814900220FE08B79DB070AD44B880C
:10449000834204BF4B79012B04D103234B714FF6A8
:1044A000FE734B80521C0831764B1B78D2B29A4275
:1044B000EAD37047744800214FF6FE720BE020F8F3
:1044C000022B20F8022B002300F8013B00F8013BEF
:1044D00000F8023B491C6B4B1B78C9B29942EED3E2
:1044E00070470000E742002010B5002300E05B1C8D
:1044F000DBB2834205D231F813409442F7D1012058
:1045000010BD002010BD2DE9F34F002481B090466E
:10451000A3464FF001094FF6FE7A604E0AE001F023
:10452000B3FAC0B290FBF4F104FB110B5FFA8BFB02
:104530000024A146002501E06D1CEDB2454800783D
:1045400085421CDA1C2000FB05F7BA5B52451CBFF4
:10455000BDF804008242EFD000F04AF80028EBD109
:10456000B819407C0028E7D00728E5DA641CB9F1C7
:10457000000FE1D1E4B25C45DEDBB85B34E000253E
:1045800001E06D1CEDB231480078854221DA3048F7
:10459000242101FB05073A8852451CBFBDF80400E1
:1045A0008242EED000F024F80028EAD1787A002880
:1045B000E7D00728E5DA3879012818BF0228E0D0CB
:1045C000641CB9F1000FDCD1E4B25C45D9DB38885A
:1045D0000AE0E4B23CB1BBF1000F04D1012C9ED142
:1045E0004FF0010BA4E75046BDE8FE8F484F002076
:1045F0009DF80800414677E770B50D4D0C46A98C33
:10460000FDF7D6FC060011D0B078FDF713FE7178E7
:10461000002918BF002809D06A7B012A02D18142F3
:1046200038BF01468C4201D3012070BD002070BD0F
:10463000EC4900201EAF2100E84B002025AF2100EF
:104640000C500020D44C0020C850002010AF210096
:10465000F84200201FAF210024AF2100D04E0020DF
:104660005C5100205E510020184F0020244F002094
:104670002C4F0020284F0020E942002038AF2100B5
:10468000144F00201CAF2100AC47002023AF2100B5
:10469000615100201DAF21002DAF2100EC4500200D
:1046A0005D4841F2FC72002111525C4908604FF4F0
:1046B0001C71018048F20401A0F8701241F2885187
:1046C000A0F87412704738B5012000F017F8040004
:1046D00008BF08F0B3F908F0A3F805464F49201FBA
:1046E0000860204600F070F84D4901200870002D48
:1046F00004BFBDE8314008F08FB831BDF8B50024E3
:104700000025061D16F003001CBF311D0E1A08F00F
:1047100087F84349414A097800F0010080F0010020
:1047200011B1B6B2112E01D2176800E03D4F3B68BF
:10473000C3F3C03CBCF1000F18BF002524D1E5B184
:10474000D4F800C063445B044FEADC3E5B0C43EAF0
:10475000CE332360B6B25B045B0CB34214D327465E
:1047600047B33B685C04640CA41BA4B2082C14D3AC
:10477000F45346F400433B8012E05B045B0CB6B29A
:10478000B342EDD201253C463B685B0417EB53472F
:104790003B88002BCBD100270CE043F400433B6067
:1047A00039B11168B94204D13968490417EB514154
:1047B00011603F1D08B108F02FF817F0030018BF73
:1047C00008F03CF93846F2BD10B5041F1249884282
:1047D00003D301F5C051884201D308F02FF92068B6
:1047E000C0F3C03008B908F029F908F019F82168B9
:1047F00021F40041216000F0010008490A68944258
:1048000080F0010038BF0C6000281CBFBDE81040DC
:1048100008F002B810BD00006C5100206C7100203F
:1048200054510020E0530020002208F009B9E2575B
:1048300070B504462568002D77D0DFF8D8030268EC
:10484000100002D0217928469047687B02283AD18F
:10485000A87A800737D52079E9281CBFCD28F02811
:1048600031D0A87C00060CD5A87E50B1A87328686A
:104870000088FCF7E7FB48B94FF4987007F0F6FDA5
:1048800004E0DFF894030078401CA873207950B945
:10489000002604E04FF49B7007F0E8FD761C607979
:1048A000F6B28642F6D3A87B401EA873A8762021D4
:1048B00004206873DFF8640300882881DFF8600350
:1048C000007801F005FA687B022818BF06282CD171
:1048D000A87AC00729D52179284608F0CBF868893D
:1048E0004FF6FE710840688128680088FCF7AAFB33
:1048F0000028207912D170B940F22F1007F0B6FDD0
:1049000000256079EDB285420FD24FF49B7007F01D
:10491000ADFD6D1CF5E740F2311002E028B940F220
:104920002D10BDE8704007F0A1BD70BD2DE9F04F1E
:104930009BB089460446924605A908F061F99DF8A6
:1049400021000027002804BF9DF828000028B84651
:1049500008D09DF81400251D400606D5E888FCF710
:1049600071FB10B140F235106DE09DF8140000F0BD
:104970000C0004289DF814000CBF012600268006B8
:104980001AD54FF00108BEB9FBF744FF29898142CF
:1049900003D195F82A0000062FD4FBF73BFF014610
:1049A0002889884208D095F82A10090604D405A958
:1049B00006F027F8002844D1698D080612D49DF826
:1049C000140040060ED59DF815000322104209D1AF
:1049D0009DF8140000F00C020C2A1EBF00F00C0021
:1049E000082801279DF8140000F00300022808D1D0
:1049F000288905A908F0F5F99DE0E888ADF82E10A2
:104A0000D5E7012812D12FB1080603D4288905A9BA
:104A100008F075F905A80D902889ADF83000A87840
:104A20008DF832000CA808F0B1FA84E00028FCD11F
:104A3000DFF8F0B19BF80B00012804BFA87800282C
:104A400004D14FF49A7007F011FD74E002208DF844
:104A5000640030342889ADF85C0095F82A0000061F
:104A60003DD502208DF84000E888ADF838009DF86B
:104A700017008DF842009DF816008DF84300BBF832
:104A80002400ADF84400BDF81A00ADF84600BDF8AA
:104A90001C00ADF848009DF82800ADF84A000998C0
:104AA0001390688DADF85000A8898DF852002878D1
:104AB0008DF85300A87B8DF854009DF829008DF8DF
:104AC00055009DF82B008DF8560020788DF8570082
:104AD000A0788DF858000EA805F05AFB2BE0CEB157
:104AE000A889514E8DF82A00306820B3FBF792FE5A
:104AF000BDF85C1081421ED1207804903B46688D41
:104B000000F01CF84A462878009005A9346817A8D8
:104B1000A04710E01FB1288905A908F0F0F8A87B8C
:104B2000BBF8242000F00AF84B46E87B009017A958
:104B300005A807F0B0FF1BB0BDE8F08F0390CDF8DB
:104B400008A0CDF80480704706F0ACBF07F044B869
:104B500007F0E0B807F056B807F0FAB807F072B9F6
:104B600007F0B7B910B5044630480078002818BFE0
:104B7000012815D12B48807B800711D5A07A012808
:104B80000ED0FBF74BFE218881421CBFE07A012842
:104B900006D0084600F04AF910B12088FDF7E6FF7C
:104BA0002046BDE8104007F0B9B907F000BA10B5CB
:104BB00004461C48807B000707D41D48006820B1CC
:104BC0001C480078082101F083F82046BDE8104019
:104BD00007F00EBA10B5012904460AD10021FFF7EB
:104BE00064F8154802782046BDE810400021FEF721
:104BF0005AB910BD07F05FB9104B10B51B681C0007
:104C000084B005D08DF800000191029200A8984769
:104C10001FBD0000F84F0020EB420020C4420020DE
:104C2000C8500020EC490020FC4F002061510020BA
:104C30004C420020384200202DAF2100784E002049
:104C400007F0ACBA07F0D5B9DFF85C090078242189
:104C500001FB00F2FF21DFF8540900F0E7BE30B598
:104C600000220023242509E0DFF8404905FB034426
:104C70002479844224BFA142521C5B1CDFF82849DE
:104C80002478A342F0DBD0B230BD2DE9F04380465A
:104C9000DFF8140985B05FEA01090478164604D0EC
:104CA000484600F0DEF8050045D10020242200E04F
:104CB000401CC0B2A04207D2DFF8F01802FB00157A
:104CC0002979FF29F4D100E00025002D5ED0DFF81E
:104CD000E008078857B1032E18BF042E06D104211F
:104CE0000320FFF7BCFFE11B88420CDADFF8C408A1
:104CF000078857B1012E18BF022E06D100F04DF8DB
:104D0000E11B884201DB002046E000F001F9ADF82C
:104D10000280494601A802F094F800A802F07DF94B
:104D2000BDF80C0068800020A871DFF88C08818C29
:104D30004046FDF7F0F8002016B1052EB8BF04205C
:104D4000A5F800802E71687100F0B6FB2872012072
:104D50006872AA20A87200202882E871E872E860D0
:104D600086B1032E0EDA00F0FFF900280FBF0868A5
:104D700051F820003C214843E861A861012085F8F2
:104D8000200003E06FF00100E861A86100F0C4F8C2
:104D9000A04200F08BFB28466FE1022101205EE774
:104DA0007FB504460D46284600F05BF80026002833
:104DB0001CBF0188A14228D00179052925DA048089
:104DC00091B1032910DADFF8F417DFF8F427097836
:104DD00000290FBF116852F821103C225143C161D4
:104DE000816180F8206003E06FF00101C1618161A1
:104DF000C66000F08DF8ADF80240294601A802F027
:104E000020F800A802F009F90126304604B070BD70
:104E100080B500F023F800281CBF0079002803D0DB
:104E2000052801DA012002BD002002BD80B500F096
:104E300015F800281CBF0079002803D0032801DAE8
:104E4000012002BD002002BD80B500F007F818B1B6
:104E5000007908B9012002BD002002BD01460020F2
:104E600000E00021F0B504460D464FF6F87085428B
:104E700085B000DB24B3002708E04FF6FF708542C1
:104E800002D03088854219D07F1CFFB2DFF81807A6
:104E90000078874214DA00F006FB01FB0706307940
:104EA000FF28F1D0002CE8D000F01AF90028EBD050
:104EB00001A9204600F090FD0028E5D0304600E032
:104EC000002005B0F0BD30B585B0FFF7CAFF002463
:104ED00005000DD000F01CF801246888ADF80C0026
:104EE00000A801F0ECFF2422FF21284600F09EFDDF
:104EF00000F012F8DFF8B0160978884205D2DFF822
:104F0000C41601200870FBF766FE204605B030BDD0
:104F100001208DF800007047042100209FE6F0B5C5
:104F2000DFF88426DFF88456137824244FF6FE72C7
:104F3000904208BF002619D0002600E03E469E425F
:104F400014DA771C664306EB050CFFB29CF804C02C
:104F5000BCF1FF0FF2D0765B8642EFD13E4605E012
:104F6000012818BF03280DD0761CF6B29E420BDA3A
:104F700004FB06F7781900290079F1D00028F3D056
:104F80000528F1DA785BF0BD1046F0BD0121C6E7D7
:104F90002DE9F04104460421FFF700FF050013D07E
:104FA000680080B2FFF7AAFB06000BD04FF6FE7830
:104FB00037464046FFF7EAFF404518BF27F8020B87
:104FC000F8D102E0002500E0002625703046BDE85B
:104FD000F081002201E0401E521CDFF8CC15097858
:104FE000D2B28A420CD2DFF8C415242303FB02118B
:104FF0000B79052BF0DA80B20028ECD10846704717
:10500000002070472DE9F04385B00024DFF8B88513
:10501000DFF898651CE01C20684300EB080930F8B5
:105020000810B85B81421CBFBDF80200814205D068
:1050300009F1020101A800F0CFFC10B14846FCF7CD
:1050400096FF6D1CDFF8840500788542E3DB641C65
:1050500000F04FF811DA242000FB04F74FF6FF713F
:10506000B85B8842F3D0FFF753FFB819408800F0CF
:10507000B9FA0028EBD00025E4E705B0BDE8F083DD
:105080007FB50024DFF8485507E0B06910F1020F42
:1050900002D0F069401EF061641C00F02AF81EDAAC
:1050A00000F001FA01FB040630790028F4D003284F
:1050B000F2DAF0690028E8D12878012807D1DFF872
:1050C00014050268100002D0B1693088904700F0E2
:1050D00007F80028E0D001A8FFF7F5FEDCE77FBD68
:1050E00001208DF800007088ADF80C0000A801F0D8
:1050F00072BFDFF8B40400788442704780B5FFF7D0
:10510000ADFE48B1017931B1032904DA8169C16189
:10511000012180F82010012002BD70B50446DFF89F
:10512000B804016808001EBFDFF8A85428680028EA
:1051300019D0DFF8A8643068A8B16088884790B9B2
:1051400000F012F82A6800280FBF096851F8200003
:105150003C21414360889047012804D16088316830
:10516000BDE87040084770BDDFF85004DFF8501408
:105170000078704738B5DFF8300404780B206043BE
:10518000811C002289B2222001F04AFC05460A2D2A
:1051900004D00022E1003F2001F042FC0DB100F0FC
:1051A00002F8284632BD80B50020ADF8000000F0BE
:1051B000B7F901BD2DE9F04780468CB08A4691468B
:1051C0001C46222001F04CFC054600263F2001F041
:1051D00047FC002D18BF5545074603D0294622201D
:1051E00001F098FD002F18BFA74203D039463F2099
:1051F00001F090FD00225146222001F011FC0A2806
:1052000061D0002221463F2001F00AFC0A285AD032
:1052100040F2013A01AB02220021504601F03FFD6D
:10522000002850D1ADF80000002440F202350B27D1
:1052300032E0E4B207FB04F0811C02AB0B2289B21E
:10524000504601F02CFD00283DD1BDF80A004FF674
:10525000FF7188421FD0BDF800007843811C02AB6B
:105260000B2289B2222001F01AFC60BB0DF102036F
:105270000822E100284601F012FD50B9BDF80000F7
:10528000C1000DF10203082289B23F2001F007FCA2
:10529000C8B900F03FF9641CC349BDF800000978A3
:1052A00088423CBFBDF804108842C2D300F038F9F0
:1052B00048B94146504601F02DFD20B949462846DF
:1052C00001F028FD00B1012630460CB0BDE8F087A2
:1052D0002DE9F84FB44800780B2100244143C60063
:1052E000ADF800408D1C222001F0BAFB83463F2020
:1052F00001F0B6FB804600F0D0F840F2013A50468B
:1053000001F0AEFB074640F20239484601F0A8FB27
:1053100017B9ADB2AB450AD108B9B04507D157B3FB
:10532000BBF1000F1CBFBDF80010002919D0514679
:105330002220FDF7B5F904001DD149463F20FDF7B5
:10534000AFF9040017D15946222001F0E3FC08B15F
:10535000012410E041463F2001F0DCFC0028F7D199
:1053600002E0BB4600B1804633464246A9B25846E9
:10537000FFF720FF04462046BDE8F28F2DE9F04FED
:1053800091B00020ADF80000FFF7A2FF002802D185
:1053900000F083F800287AD18348BDF8001090F817
:1053A0000090894573D3DFF818A2DFF80C82DAF891
:1053B0000060002500246FF0010B0BE0F861B8617C
:1053C000002087F82000FFF7A7FD484500F06EF8A1
:1053D000641CE4B24C455ADABDF80000ADB2854217
:1053E00055D20B2202FB04F0811C07AB89B22220AC
:1053F00001F055FC0028EBD1BDF81E004FF6FF71FF
:105400008842E5D00121ADF818008DF80C1003A8F2
:1054100001F0E1FD6D1C0028DAD0B8F82410BDF8C9
:105420001C00FCF778FD00F03EF801FB04070B229E
:1054300007A9384600F0E2FA00F03EF8387201ABF6
:10544000012078720822AA20B872E1000020388278
:10545000F872F8603F2001F022FC0028B3D10298D6
:1054600010F1010FAAD1387960B103280ADA534844
:10547000007810B9FE61BE61A2E75AF820003C2115
:1054800048439BE7C7F81CB0C7F818B09BE7BDF8C6
:105490000000C0B211B0BDE8F08F00AB02220021C5
:1054A000222001F0FCBB41482421704702D345492A
:1054B00000200870FBF78FBB49480078401C00EBC8
:1054C000D0704010704738B50020ADF800000024BF
:1054D0001AE0FFF7E8FF01FB04050B206043811C85
:1054E0002B460B2289B2222001F0D9FAE10005F106
:1054F0001403082289B23F2001F0D1FA2879FF284D
:1055000001D000F007F8641CFFF7F3FDE1DB00F0C9
:1055100007F831BDBDF80000401CADF80000704731
:1055200000AB02220021222001F0B9BAF0B50546F5
:1055300085B0FFF732FC2870287878B30C214843F7
:10554000FFF7DCF804002AD02546002604E02846B0
:1055500000F047FC0546761C1348007886421EDAA8
:10556000FFF7A1FF01FB06073879012818BF0228C1
:10557000F1D1FFF7CDFC788800F034F820B101A913
:10558000284600F037FA054697F8200000281DBF8E
:10559000B869F969411A4FF0FF31D8E70024204675
:1055A00005B0F0BD0000000010AF2100F84200205F
:1055B0001AAF210018AF2100EC490020E942002079
:1055C00038AF2100F5420020EC4500201FAF21003C
:1055D0005C510020244F0020184F00202C4F002049
:1055E00022AF2100ADF80C0000A801F0F4BC0A00C5
:1055F000DFF890030FF2A11101600FF24511416035
:10560000704710B50446234600F06BF818B9DFF870
:1056100078034068606110BD00B585B010228DF838
:10562000001001460DF1010000F0E8F900AB112275
:1056300000213B2001F033FA1122002100A800F0E4
:10564000F5F905B000BD70B5054686B01120FFF72D
:1056500055F8040043D02346112200213B2001F0DD
:105660001EFB002804BF2078A84230D11120FFF78C
:1056700045F805002BD02B4600F033F8F8B9234647
:10568000112200213A2001F00AFA2B4611220021B2
:105690003B2001F004FABD49BB4E012081F84100D6
:1056A000112200207060214600A800F0A7F9706860
:1056B000059000AB18220021822001F0F0F91122A0
:1056C0000021284600F0B2F92846FFF77DF81122A4
:1056D0000021204600F0AAF92046FFF775F806B031
:1056E00070BD112200213A2001F0D9BA70B582B004
:1056F0001546069A0C4640EAC40040EA451002F8F6
:10570000010B1946104600F06CFB064635B1FBF75D
:1057100078F80146304600F06DF90836012C08D1C2
:105720003A2300F007F800280CBF9DF80000002085
:10573000307073BD00AA01210020FCF740BE0000BC
:10574000022100F0030001FA00F000F01C00704795
:1057500038B504463A230DF10102FFF7ECFFC0B95A
:105760009DF80100844210D03B23FFF7E3FF88B986
:105770009DF8000084420CD19DF801009DF80010B6
:10578000884204D20846FFF75EFF3A2502E03B2537
:1057900000E00025A8B232BD2DE9F0418EB0804670
:1057A0000E208DF805000D467848007B8DF8070027
:1057B00017467E190120B8F1000F8DF804708DF89E
:1057C00006308DF8080029D13A2300F063F810BBA9
:1057D0000DF115006C4C049001226368581C606048
:1057E000009601219DF80700FFF780FFFBF709F8FD
:1057F00001460AA800F0FEF820886549401C208078
:1058000080B20968814224D2624800784FF4007166
:1058100000F05EFA1DE0002004901AE0707BFFF7B4
:1058200097FF3A2801D13A2302E03B2806D13B23D7
:1058300000F030F810B90DF1150000E000200490E0
:105840009DF80710785D08437855711D0AA800F08F
:10585000D1F80422711C0CA800F0D0F8785D8DF806
:105860003400049808B9A12011E02B460AAA01A926
:10587000404600F014F80446785D00F0F8007855D2
:10588000102200210DF1150000F0D0F820460EB0D6
:10589000BDE8F08105AA11210020FCF790BD2DE99B
:1058A000F54F8DB00C461D4606F0BAFF00F0010022
:1058B00080F00108E06806904FF0000907F0ACFEA8
:1058C000354936480860CA4620786178A7780E18AE
:1058D000E0780428F6B202DABE19F6B2002700F02A
:1058E0004AF883467319F81807909DF83410E07849
:1058F000B1B90428A8BF4FF0010A00F02AF80195B9
:10590000009750460E9A07F09DFE040018D1002023
:10591000584515DA08A9079A415C8154401CF7E7FD
:105920000428A8BF4FF0010900F013F80BEB0700A3
:1059300080B20090019548460E9A07F0A3FE0446F7
:10594000B8F1000F18BF06F067FF20460FB0BDE8A2
:10595000F08F02200590594608A8049006980390FD
:105960000296704738B5074C2468250001D0A0473F
:1059700032BD012032BD034949680A0018BF0847FB
:1059800000207047D8500020D0500020EC49002063
:1059900074AF210010410020E050002021D62000EB
:1059A000027A0B7A9A420CD15AB1022A05D10088A8
:1059B0000988884205D101207047032A08BF00F0FA
:1059C0000BB8002070470A7A0272032A08BF00F061
:1059D00011B809880180704710B5082210F8013B02
:1059E00011F8014BA34201D0002010BD521EF5D189
:1059F000012010BD082200F001B8000003E011F8FA
:105A0000013B00F8013B13465A1E002BF7D17047AB
:105A100010B513465A1E3BB110F8013B11F8014B6B
:105A2000A342F6D0002010BD012010BD10B50446E1
:105A300010460A460146204607F04EFE204610BD9D
:105A40000178407801EB002080B27047027802298B
:105A500003D1407802EB00207047032906D141783A
:105A6000807802EB012101EB00407047042909D145
:105A7000417802EB01218278C07801EB024101EB11
:105A8000006070471046704707F098BE10B50400DC
:105A900001D1002010BD04F1080080B2FEF72EFEF7
:105AA00028B1002101608480FF218171083010BD80
:105AB00080B508B9052002BD10F8021CFF2901D0ED
:105AC000042002BD0838FEF77FFE002002BD002240
:105AD000FFE710B50446080013D0DFF84C1309782F
:105AE0008C4203D3FFF7E4FF032010BD50F8081CDD
:105AF000002902BFA0F108018B79FF2B03D0FFF72B
:105B0000D7FF052010BD8C71012ADFF82033014634
:105B1000184602D100F08CF801E000F052F84FF482
:105B20000041204600F0D4F8002010BD2DE9F041DE
:105B300080460025002606F073FE00F00100BB4CF5
:105B400080F00107206803E006B9054650F8080C0C
:105B500068B110F8021C4145F6D1002E08BF064678
:105B6000F4D04FF40041404600F0B2F805E04FF4A5
:105B70000041404600F0B8F826B12A46314620469A
:105B800000F064F80FB106F047FE3046BDE8F08142
:105B900070B500F032F8A5490E6800F0010080F001
:105BA000010001E056F8086C36B116F8021CA1425B
:105BB00004BF3178A942F5D108B106F02DFE304678
:105BC00070BD38B500F019F8002145F8081C00F048
:105BD0000100216880F0010011B9256006E011463E
:105BE00051F8082C002AFAD141F8085C00281CBFA3
:105BF000BDE8314006F010BE31BD04460D4606F04A
:105C00000FBE38B50446002506F00AFE00F05AF82B
:105C100049B10D4655F8081C2160002145F8081CC3
:105C2000FF2105F8021C08B106F0F6FD284632BD3A
:105C300038B5FFF7E2FF216845F8081C2560002809
:105C400004BFBDE8314006F0E7BD31BD70B5054683
:105C50000C46164606F0E4FD2A6854F8081C9442E7
:105C60000CBF296046F8081C002144F8081C00F00D
:105C7000010080F00100FF2104F8021C00281CBF75
:105C8000BDE8704006F0C8BD70BDF8B504460D46CD
:105C90001646002706F0C4FD00F014F819B9256077
:105CA0000AE056B1114651F8082C761E002AF6B2C9
:105CB000F7D116B141F8085C012708B106F0ACFD38
:105CC0003846F2BD00F00100216880F00100704705
:105CD00038B500F01AF805D206F0A2FD00F010F871
:105CE0002A4318E0032032BD38B500F00EF805D283
:105CF00006F096FD00F004F8AA430CE0032032BD44
:105D00004B49096831F8142070470446464800782A
:105D100084420D46704721F8142008B906F07CFD36
:105D2000002032BD80B5FF2803D106F075FD0020AC
:105D300002BD072002BD80B5FF2803D106F070FD2B
:105D4000002002BD072002BD80B5FEF7A9FC37493F
:105D50000020086000F07CF907F032FD07F03AFD02
:105D6000FEF7B1FC002002BD80B500F001F8FCE7B1
:105D70002DE9F041002607F095FD2B482C4C0078CA
:105D8000216831F8161019B9761CF6B28642F7D39D
:105D9000864224D206F044FD2168354631F815804C
:105DA000002221F8152008B906F036FD214F224ABD
:105DB0003E70414652F82520304690470646FF2067
:105DC000387006F02DFD216831F81520324321F896
:105DD0001520002804BFBDE8F04106F01DBDBDE858
:105DE000F08100F8011B0A0A00F8012B0A0C00F8E8
:105DF000012B090E05E000F8011B0A0A00F8012B2F
:105E0000090C00F8011B704710B540B1002300E0F9
:105E10005B1CDBB2934204D21C5C8C42F8D00020A5
:105E200010BD012010BD0000EE552000F0500020F4
:105E3000F4500020D84200202CD8200010B509F0E2
:105E40003FFD08F095FF08F0B7F9012000F006F8D3
:105E50000446FF20FFF76FFF204610BD38B5010054
:105E600018BF0121084609F0E0FC044600208DF827
:105E7000000000A956200AF051F86F49E2200AF00C
:105E80004DF86E4D686818B1FEF79EFC0020686002
:105E9000204632BD80B50A46E2281CBFBDE804405A
:105EA0000AF01FB864491046FFF7A4FD002002BDA8
:105EB00038B504460D46E22C04BF5F48FFF79AFD53
:105EC00029462046BDE834400AF028B880B50021B4
:105ED000017208F0C7FF002002BD0021017208F026
:105EE000BBB980B50021017208F0BBF9002002BDEA
:105EF00038B500F099F808B1FC2032BD20790328AC
:105F00000CD060B91B20FEF7F9FB686090B11B2232
:105F10000021FFF78BFD68680B30A06190E0E0790D
:105F20000028FBD024214843FEF7E8FBA0610028AD
:105F30006860F3D11A2032BD10B582B0044601204A
:105F40008DF8000000A9522009F0E8FF00206075DC
:105F500084F82000204608F089F9002016BD80B59D
:105F60000021017508F082FF002002BD70B50446D3
:105F70000D46627F217FE07F08F04EFC060023D0B3
:105F80001222214606F12C00FFF738FDE27F216A3C
:105F90007068FFF733FD0B2204F1140106F12000B5
:105FA000FFF72CFD28001CBF307A002807D071684D
:105FB00029B1A84718B13046FFF77AFD04E0304612
:105FC00008F010FC002070BD1A2070BD0021CDE744
:105FD00080B50AF0AFF8002002BD0AF0C6B80AF09A
:105FE00050B980B50AF062F9002002BD38B50D46FF
:105FF000044600210022084608F00EFC88B100F19A
:10600000280102220A748C800A73CD8100224A740E
:1060100031224A82002180F82810BDE8324008F081
:10602000E1BB31BD08F094BF0446044D20682860F0
:10603000686870470000000080500020B0500020C9
:106040000020A071204609F011FE002032BD0000A2
:10605000794900204860704770B504460D461646E1
:1060600000F018F808B1466070BD1020FEF746FB3E
:1060700078B184720581466000210160C1606E497B
:106080000A6812B9086070BD0A4611680029FBD180
:10609000106070BD684A12682AB113898B4204BF30
:1060A000937A8342F7D11046704708B100210181ED
:1060B0007047F8B500F024F8074600F01DF80446D4
:1060C0000FB906F0A9FB0CB10020F2BD0820F2BD0B
:1060D000F8B500F015F800F0010080F0010700F0BD
:1060E0000BF8040018BFE6600FB106F095FB0CB189
:1060F0000020F2BD0820F2BD324629462046ABE71B
:1061000004460D46164606F08BBB70B504460D4698
:1061100006F086FB00F0010080F0010629462046CB
:10612000FFF7B8FF040018BFFFF7BFFF0EB106F07E
:1061300073FB0CB1002070BD062070BDF8B504469D
:106140000D46002606F06CFB00F0010080F0010710
:1061500029462046FFF79EFF00B146680FB106F0C2
:106160005BFB3046F2BD2DE9F04182B0054600955B
:1061700006F056FB304C61686918616008B906F09A
:106180004BFB2668002E51D00025002706F048FB67
:1061900000F0010080F00108BDF80200002804BFF3
:1061A0009DF80100002807D130799DF80010884241
:1061B00002D3401A307106E07068009981423ABFFC
:1061C000401A70607760B08860B9F08860B9F06894
:1061D00000281CBF318900290AD0B07AFFF778FD6A
:1061E000F0687060B08808B9F08808B1308930B9BB
:1061F0003068002D0CBF20602860374600E035462F
:106200003668B8F1000F18BF06F006FB67B1B88812
:10621000002804BFF888002803D13989B87AFFF72D
:1062200057FD3846FEF7D0FA002EAED1BDE8F38117
:106230000148406870470000985000202DE9FC415B
:10624000DFF8C45A062600242E7000274FF6FF7888
:10625000F90201F5001100A801F5F921082211F851
:10626000013B00F8013B521EF9D1BDF8000040454A
:1062700009D12878062808BF2F7009D00021384698
:1062800000F053F804E0BDF80400404518BF3E4656
:106290007F1C062FDCDB2878062E0DD0062806D0C2
:1062A00000F0C9F80021304600F0DAF808E0304686
:1062B00000F0C1F82E7003E0062818BF00F0BBF80C
:1062C000002622460021304600F03FF808B10124A4
:1062D000FF26761CF6B2062EF3DB44B10026002220
:1062E0000021304600F031F8761C062EF7DB2878C6
:1062F000062817D10020002105EB4102128AB2F5D1
:10630000FF6F01D1084609E005EB40031B8A934269
:1063100038BF0846491CC9B20629EDDB2870287829
:1063200000F089F80120BDE8F6810B46DFF8D819A6
:1063300000228A83C00200F5001001F11C0200F562
:10634000F920042118180AF081B82DE9F04F85B022
:1063500080460D469246082700244FF6FF7901AA91
:106360003946404600F0D2F9BDF80400484558D0FF
:10637000BDF80620D11C4B1001EB937189108900E8
:106380008EB2C7F5FE61B14206DA04F50060C01BAB
:1063900084B24FF4006744E0311910311FFA81FBD9
:1063A000BDF810101037B1B375B16904490C8142C2
:1063B00032D1BDF80C00290402D448452CD101E0AB
:1063C000484529D0B8B233E0B9B2404600F086F96A
:1063D000BDF80810814219D1BDF80C00BAF1000FC8
:1063E00010D0484518D1BDF8040000A940F4004081
:1063F00000F0CEF801000FD09DF80000012200F05F
:106400003BF909E0484507D0484611E00122B9B2FE
:10641000404600F031F95C46F719BFB2B7F5FE6FA0
:106420009DDBDFF8E40800EB480087800482002051
:1064300005B0BDE8F08F10B5044600F00BF809F088
:10644000F6FFDFF8C40800EB44000821818000213A
:10645000018210BDE00200F5001000F5F920704740
:106460002DE9F04F85B081468B4608240126DFF8E0
:106470009878387807EB400001AA8588214648467D
:1064800000F044F9BDF804004FF6FF7188426CD06B
:10649000BDF80620D01C00F0A0FA1FFA80F8C4F561
:1064A000FE604045A4BFC5F5FE6040455DDBBDF81C
:1064B0001000103400281CBFBDF8040058454FD010
:1064C000A1B2484600F00AF9BDF80810814247D150
:1064D000BDF80C004FF6FF71884204D10022A1B232
:1064E000484600F0C9F800200090BDF80620BDF82D
:1064F00004103878002300F0D8F9002843D0103574
:106500003A78CDF80080ABB2A1B2484600F05CF911
:1065100097F800A0BDF80620A9B2504600F0DEF8BA
:10652000B883103D4FEACA20FFF795FF281807F1FE
:106530001C020421001D09F089FFBDF808A038786D
:1065400001AA294600F0E2F8BDF8080082451AD1F8
:10655000BDF80420387805F1100189B200F050FA36
:106560004444A4B2B4F5FE6F83DBBBF1000F08D145
:1065700038780021FFF7D9FE4846FFF75CFF87F81F
:106580000090304654E738780026FFF754FFF8E7CC
:1065900070B504460D4601E044F400440026002294
:1065A000A1B23046FFF7D1FE08B12E7070BD761C47
:1065B000F6B2062EF3DB2004EED50620287000206C
:1065C00070BD2DE9F04704469146884609F1030065
:1065D0004110DFF8346782B000EB917080103278A0
:1065E0009A4680001030531C80B206250621DFB287
:1065F000062FA8BF0027974209D006EB4703B3F840
:1066000004C01B8ACCF5006C6344834206DA491E41
:106610007B1CC9B20029DFB2EAD12AE049B3844524
:106620001EDA04213846FFF780FE41463846FFF760
:1066300017FFF0B10094534630784A46414600F0C7
:1066400034F900B1357814B98AF8007011E0307867
:106650000021FFF76AFE3846FFF7EDFE377008E0CD
:10666000009453464A464146384600F01EF900B1B0
:106670003D462846BDE8F6877FB51546A1F11006D0
:10668000044600AAB1B200F041F8FFF7E3FEB6B24B
:10669000301845B90021ADF8081002AA04210830CD
:1066A00009F0D4FE7FBDBDF80210C91C4A1001EBF1
:1066B00092718910890001F110050021ADF80C10CC
:1066C000ADB203AA04210C3009F0C0FEDFF8380691
:1066D00000EB4400018A691801827FBDC002D21C10
:1066E00000F50010531000F5F92002EB9372091821
:1066F00092100020920003E011F8013B181880B2BC
:1067000013465A1E9BB2002BF6D17047C00200F50B
:10671000001000F5F9200818102110F8013B02F8CC
:10672000013B491EF9D170472DE9F843C0020C46E0
:1067300000F500151746984604F0030105F5F92504
:1067400000AEE9B1601A84B204EB05094A4600F0D4
:10675000A3F8C0B20346042B08DABFB2002F1FBF54
:1067600018F8011B9955401C7F1EF2D1042B01DA49
:1067700000F08BF800AA0421484609F067FE241DAA
:1067800007F003094FF6FC700740A4B242463946B1
:10679000601909F05BFEB9F1000F13D03C19B84441
:1067A000002018F8011B8155401CC0B24845F8D3A1
:1067B000042801DA00F062F8A3B200AA04215819F3
:1067C00009F044FEBDE8F1832DE9F84F0D461F4660
:1067D00017F00301DFF834350A9C03EBC02803EB04
:1067E000C22900AE20D0781A87B207EB090A5246B8
:1067F00000F052F805EB080105E011F8012B9A555D
:10680000401C6D1C641EC0B20346042B02DAA4B205
:10681000002CF2D1042B01DA00F037F800AA042191
:10682000504609F013FE3F1D4FF6FC7004F0030ABA
:1068300000EA040BADB205EB0804BFB2224659468C
:1068400007EB090009F002FEBAF1000F14D05F4413
:106850005C44002014F8011B8155401CC0B2504517
:10686000F8D3042801DA00F009F8BBB200AA042129
:1068700003EB090009F0EAFDBDE8F18FC0F1040166
:1068800000ABFF22C01806F027BF00A8FF22C3F10B
:106890000401181806F020BF002012F8013B8355B0
:1068A000401CC0B28842F8D370472DE9F04F8046B3
:1068B000DFF854B40BEB480485B0A088ADF80000B5
:1068C0000F464FEAC82000F50010BDF80010ADF8E3
:1068D000047000F5F92091460E189A460025ADF88F
:1068E000069001AA0421304609F0B0FD00F06FF8CF
:1068F000BDF80410BDF80600B94208BF484551D1A3
:106900000E98002847D05FEA0A00494601F00302CA
:1069100003D1C1EB0127BFB20AE0002703E010F862
:10692000013BDB199FB20B46591E9BB2002BF6D1DF
:106930002AB1C2F10400C0EB0020C01987B2BDF833
:1069400000001030BAF1000FADF8020006D0BDF81B
:10695000021053464A464046FFF7E6FEBDF80210D5
:106960004A464046FFF7BAFE874215D1ABF81C7085
:106970000BF11C020421301D09F068FD00F027F81E
:10698000BDF80800874207D1BDF80420BDF800100B
:10699000404600F035F80125BDF8060000F01CF86F
:1069A00010300DE000F018F8A1881030C1F5006239
:1069B00080B28242B8BFC1F50060218A41182182AD
:1069C000A1884018A08005B02846BDE8F08FBDF82A
:1069D000001001AA404699E6C01C411000EB9170DE
:1069E00080108000704700210FF2643232F81130BD
:1069F000834203D0491CC9B20329F7DB084670471C
:106A000038B504460D461046FFF7EDFF032804DABB
:106A1000BF49445401EB4000858031BDFFF70EBCF7
:106A200070B5044682B00D4616464E2009F088FD2A
:106A3000A0B100F031F838B101469DF800002246BF
:106A4000FFF7DEFF002076BD33462A4621460120AF
:106A5000FFF7B7FD062801D0092076BD0A2076BDD4
:106A600010B586B00446FFF7BEFF032801460DDAD5
:106A700000F041F9A0F110019DF8000001AA89B2CF
:106A8000FFF744FEBDF8060006B010BD00F004F8A4
:106A90000100EFD10020F7E700A9204678E52DE9B5
:106AA000F84B0AB4814689B0144600254E2009F0FF
:106AB00047FDC8B1002C3FD001A94846FFF768FD4B
:106AC0005FEA000808BF09200FD0A8F110019DF867
:106AD000040002AA89B2FFF719FEBDF82400BDF830
:106AE0000A102218914201DA0A20D5E09DF804101C
:106AF00000F0FBF8414440180A99224600274FF65F
:106B0000FF7613E0037891F800C063450CD0BDF820
:106B10000CC0ACEB0303ADF80C307F1C91F800C047
:106B20006344BFB2ADF80C30401C491C1346F21848
:106B30009BB2002BE6D1002F00F0AD8006208DF82F
:106B400005000DF10503BDF80A2049460020FFF7B6
:106B500038FD8146B9F1060FDFF8ACB172D0BDF84F
:106B60000A00BDF80C70C01C411000EB9170801041
:106B70008004000C07900BEB490006900799808871
:106B8000401AADF80600BDF81000B04205D19DF8DE
:106B9000040000224146FFF76FFDBDF82400BDF858
:106BA000063000904A469DF804004146FFF70CFE6F
:106BB000BDF80600BDF824100A9B0E182246B1B29B
:106BC0004846FFF7B1FDBDF80A00BDF82410401A91
:106BD000001B80B20090A319BDF824004044211886
:106BE0009DF804009BB24A4689B2FFF7EDFD069876
:106BF00007998088BDF80A20441AA1B24846FFF7D9
:106C00006DFDABF81C00103C4FEAC920FFF723FCD8
:106C1000A4B220180BF11C020421001D09F016FC7F
:106C200002AA21464846FFF771FDBDF80C008742D5
:106C300008D1BDF8082004F1100189B24846FFF7D9
:106C4000DFFE00E00A259DF80500062817D09DF814
:106C500004109DF805209BF80000914208BF0A2D02
:106C600002D1FFF7E8FB0AE00021FFF75EFB9DF889
:106C70000500FFF7E0FB9DF805008BF800009DF88C
:106C800004009DF80510884218BF0A2D03D0012288
:106C90004146FFF7F1FC28460CB0BDE8F08BF8B593
:106CA00007460E4614461D46FFF79DFE0328014683
:106CB00008DA00F020F89DF8001000F016F84018EF
:106CC00030180BE000A93846FFF762FC0100F2D152
:106CD0000A20F2BD10F8011B05F8011B21464C1ECD
:106CE00089B20029F6D10020F2BDC90201F50011D8
:106CF00001F5F921704706480A5C8DF8002000EB89
:106D000041008088704700001842002000C827001A
:106D10001850002070B582B00D46044600A9FFF758
:106D200037FC060001D1092076BD2046FFF798FE0A
:106D3000A84201D00C2076BD9DF80000012231460A
:106D4000FFF79AFCFFF7A8FE00B10A2076BD00000D
:106D500082003A003B000000DFF85C248089138841
:106D60000021984208D252680C2303FB00200F2216
:106D70000078104218BF01210846704710B5DFF8AF
:106D80003824838952680C24012904FB032402D18E
:106D9000408860800DE0022907D141886180001D94
:106DA00000F056F828B9207003E0011D201D00F006
:106DB00048F8207840F080002070BDE8104005F0D1
:106DC0001AB9F8B504464FF6FE70A081002021786C
:106DD00009B30025DFF8E06319E071680C2202FBBB
:106DE00005170F223978114210D120783870211DF3
:106DF00060887880381D00F024F8A581387840F04C
:106E00008000387005F0F7F8358801206D1C318856
:106E1000ADB28D42E1D3F2BD38B5DFF89C4320809E
:106E200068B10C2101FB00F5A8B2FDF767FC6060BA
:106E300030B1AAB2BDE838400021FEF7F7BD60606E
:106E400031BD002918BFFEF7D5BD0822FEF7EEBD03
:106E5000002140B10022135C0BB101210822521C19
:106E6000D2B2082AF7DB084670471FB50C4600214E
:106E7000ADF802008DF8001000A800F055F801A947
:106E80002046FFF7DEFF2046FFF7E2FF04B010BD0B
:106E90001FB50C4600218DF80010014601A8FFF730
:106EA000D0FF00A800F06BF8BDF8020020804FF67C
:106EB000FE71884214BF0120002004B010BD38B517
:106EC0000546FFF749FF0446012C0BD100F025F8D9
:106ED0002A78017882F0FF02114041F080010170B0
:106EE00005F089F8204632BD38B5054600242878DB
:106EF00088B12846FFF730FF0446012C0BD100F083
:106F00000CF8297802780A4205D141F0800111433A
:106F1000017005F070F8204632BDA748A989406885
:106F20000C2202FB01007047F8B5044600F072F82D
:106F3000628800204FF6FE718A42A1811ED0002592
:106F40009D4E17E00C21726869430F278B5C3B4212
:106F50000FD08F1861887A8891420AD1381DFFF7C7
:106F600077FF012802D1391D00F055F8A5810120D5
:106F700035886D1C3188ADB28D42E3D3F2BD2DE969
:106F8000F04104464FF6FE706080A0814FF000088B
:106F9000201DFFF75DFF01281AD10026864F13E060
:106FA0000C20796870430F23425C1A420BD04518BD
:106FB000291D201DFEF710FD28B16888A68160807C
:106FC0004FF001083E88761C3888B6B28642E7D377
:106FD0004046BDE8F08170B504464FF6FE70608013
:106FE00000F018F82046FFF7B7FE0546012D0FD137
:106FF0007148A18940680C2202FB010670886080FC
:10700000301DFFF725FF012802D1311D00F003F8E4
:10701000284670BD0021201D13E72DE9F0410446EC
:1070200088B04FF6FE75A58100268DF80060211D01
:1070300001A8FFF706FF00A8FFF7A1FF002701281E
:107040004FF0010808D1BDF80C006188A081BDF89F
:10705000020088423DD000AE8DF810706088ADF817
:10706000120004A8FFF760FF012808BF04AF3EB17B
:10707000B089A08101212046FFF780FE4FB30BE0CD
:10708000C7B1B889A081381DFFF7E2FE012807D1FA
:107090002046FFF796FE80467D800221384606E0B6
:1070A000201DFFF7D5FE012813D103212046FFF74D
:1070B00065FE0EE06088A84207D1201DFFF7C8FEDC
:1070C000012818BF4FF0000803D12046FFF779FED2
:1070D00080462046FFF708FF404608B0BDE8F08133
:1070E0000020354900E0401C0A8880B2904209D255
:1070F0004A680C2303FB00220F2312781A42F2D1B4
:10710000002070470120704770B500240C252A4EDE
:1071100007E0706805FB040300F020F8FFF7BFFDEF
:10712000641C3088A4B28442F3D370BD70B50024CF
:107130000C25214E0DE0706805FB0403187801064C
:1071400006D500F07F00187000F008F8FFF7A7FCE4
:10715000641C3088A4B28442EDD370BD05FB04F1F9
:107160000C2289B22320704710B5134800880C21E7
:107170004143002289B22320FFF752FC040018BFCC
:1071800000F002F8204610BD38B500240A4D0CE08E
:1071900000208DF8000000AB0C2000FB04F1012260
:1071A00089B22320FFF77BFC641C2888A4B28442A8
:1071B000EED331BD00000000C05000201FB500F02C
:1071C0000FF800A8FFF729FF00F005F80CBF00201A
:1071D000C82004B010BDBDF80C10218001287047F4
:1071E0001446ADF8020002228DF8002001A8FFF736
:1071F00028BE1FB50C4602218DF80010014601A8DB
:10720000FFF71FFE00A8FFF7BAFEFFF7E4FF0CBF71
:107210000020C82004B010BD10B586B000A9FFF74B
:10722000E8FF04000CD102208DF80400BDF8000036
:10723000ADF8100001A8FFF742FE012818BF012495
:10724000204606B010BD30B500220A60DFF8D8280D
:10725000526A6AB1002306245C43A55A854203D1D1
:10726000A0180860002030BD5B1C9BB2032BF2DB32
:10727000C82030BD38B50C4600212160C82500A9C2
:10728000FFF7B7FF28B9BDF800002146FFF7DBFF85
:107290000546284632BD70B582B00C46154600A999
:1072A000FFF7A7FFA0B9DFF88008406A80B100218E
:1072B00006224A43BDF80060135AB34204D11018A5
:1072C00020602980002076BD491C89B20329EFDBAC
:1072D000C82076BD10B5DFF85028526A6AB1002385
:1072E000062404FB03242488844202D10B8000205E
:1072F00010BD5B1C9BB2032BF2DBC82010BD7CB51C
:10730000054601A92888FFF7E5FF064600F084FB43
:1073100004000CD018220021FEF788FB6888234661
:1073200000F0F3FA002068802046FDF74DFA4FF692
:10733000FE742C8000202871EEB9DFF8EC67BDF8F0
:107340000400726A062101FB00F51AB14843AB182C
:1073500000F05CFB00F068FB68B9706A285AA04234
:10736000BDF8000002D120B1401E00E0401CADF885
:10737000000000F022FB73BD70B500210160DFF852
:1073800068194A6A92B100234FF6FE7606245C43E0
:10739000A55AB54206D1A21802600020496A6118B8
:1073A000087170BD5B1C9BB2032BEFDBC82070BD66
:1073B00010B504468AB02088ADF800003A23606812
:1073C000029005AA01208DF8020011210020FAF791
:1073D000F6FF08B100F0C6FC01208DF80E00002079
:1073E0008DF80D000490F9F715FA21898142DFF834
:1073F000FC0818BFADF80010007878B99DF81400AB
:107400008DF803000DF115000190F9F703FA2189B9
:10741000814207D100208DF80E0003E0002001908A
:107420008DF8030000A803F00FFB044600F09AFC5F
:1074300020460AB010BD10B582B000F06BFA04000F
:1074400004BF0098FFF75BFF204616BD10B586B05D
:107450000446F9F7DFF92189814224D16068009060
:107460000020ADF804006068FDF7FBFC00281CBF9D
:10747000017900290AD0052908DA407900F00800CE
:10748000411E8941C90F8DF8061008E0F9F7C2F9CD
:107490002188814211D1002000908DF8060000A8BB
:1074A00002F05CFD09E0ADF8081060680390002070
:1074B0008DF8100002A803F069FB06B010BDDFF8DC
:1074C00030180978002001B9C8207047DFF8241867
:1074D0000978012908BFFFF7F2BFC82070477FB5C0
:1074E00005460024A87A20B92846FFF7EFFF0400DC
:1074F00012D16968288800AAFFF760FEE87A400781
:107500000AD5A87A40B92846FFF752FF040008D0F0
:107510006868FFF781FE00E01CB12846FFF796FF80
:1075200012E0DFF8D467306A70B12888ADF8040043
:10753000082269680DF10600FEF760FA2889316AB1
:10754000ADF80E0001A88847204604B070BD38B5DC
:107550000446FFF7C4FF050004D12088FDF77EFC38
:1075600000F040F8284632BDE0B50021ADF800102B
:107570000188ADF8021041680191C17A0A0609D567
:10758000490605D5817A012914BF072104210AE0A3
:10759000052108E0490605D5817A012914BF032198
:1075A000002100E001218DF808100088FDF756FC4D
:1075B00000F018F800208DF8090000A803F0B7FAD1
:1075C0000EBD10B50446DFF83407007810B103F0A3
:1075D00086FB18B12046BDE81040B8E72046BDE85C
:1075E0001040C1E718B1417941F00801417170477D
:1075F000DFF80C070078052805D1DFF808070078C8
:107600008021FEF765BB704780B5DFF8F006007893
:1076100010B103F064FB28B1DFF8D8060121017036
:1076200000214170BDE8014080B5FDF7E1FFDFF8C2
:10763000CC060078002804BFBDE8014003F048BB39
:10764000012804BFBDE8014003F03BBBBDE8014099
:1076500003F030BB002120B10122FF2802D001211C
:1076600000E00022DFF88C060270417001207047B4
:10767000DFF880064178012902D1002101704170B4
:10768000704730B587B00025FDF7E8FB040036D021
:10769000DFF8580600780125012804BF2046FFF7CF
:1076A000A1FF00208DF80C006088ADF8180003A839
:1076B000FFF791FC2088ADF8000004A80190F9F7CD
:1076C000A9F8ADF80800607900F0600060280EBFEE
:1076D0008DF80A5000208DF80A0060798DF80B00B3
:1076E00000A8FFF76EFF20B9607900F0FB00607121
:1076F00005E004A8FFF790FD04A8FDF7E4FB284689
:1077000007B030BD10B586B0044600208DF80400E7
:10771000214602A8FEF76EF903F0E1FA48B901A884
:10772000FFF72DFC012804D000AA21460020FFF716
:1077300045FD06B010BD30B5044685B004F1160015
:1077400000F0BAFA0822FF2104F11600FEF75CFBF4
:1077500018B1DFF8A0150120087004F11600FFF73A
:10776000D1FF2079012818BF062829D1002001194E
:10777000897919B9401CC0B21028F8DB1028DFF84D
:10778000885511D195F84100C0B900A9622000F0D8
:10779000F9F9002100A8FDF73FFF0020FDF753FF96
:1077A000102200F022FA09E06179A01DFDF734FFF4
:1077B00095F8410010B96079FDF745FFFFF718FF14
:1077C00005B030BDE0B58189ADF80010011D019113
:1077D0004188ADF8081004218DF80B1000218DF8B8
:1077E0000A10807B022809D028B908208DF80B00E8
:1077F00001208DF80A0000A8FFF771FE07BD80B5D3
:107800000079FDF720FFBDE8014004F0AFBC70B582
:1078100086B0044601208DF802000D46002002903B
:10782000ADF8002001208DF80E008DF803500020E7
:1078300004908DF80D00019400A803F005F90646A8
:1078400029462046FDF7E8FE04F090FC304606B0DD
:1078500070BD38B5044600208DF80300ADF8001067
:107860008DF8024000A803F0FEF905462046FDF71A
:10787000EAFE04F07BFC284632BD00B583B000214F
:107880008DF80010019002218DF8011000A803F07E
:10789000B2F90EBD7CB50D4601AA00A9FFF7FBFCAD
:1078A000040030D1BDF80400009900F201204880A6
:1078B00000F0B2F8060026D000984088334600F069
:1078C0002EF8102229463046FEF798F80020706105
:1078D000306133460098408800F017F818220021E4
:1078E0003046FEF7A3F83046FCF76EFF0099DFF84C
:1078F000380249880C2202FB0100DFF81014002234
:107900000A5008184260204676BD18220021FFF771
:10791000C6B80C4600A9FFF7ADBC0120704718227D
:107920000021FFF7BCB980B5018859B981780129D8
:1079300018BF062904D18068FDF793FAFFF752FEBD
:10794000012002BD002002BD30B583B015460C46B3
:1079500001AAFFF733FC08B101203EBDBDF80400C9
:1079600000A9FFF770FC009838B900A8FFF704FDE4
:1079700058B90099BDF80400088029462046FFF751
:1079800089FF00F020F800203EBD11203EBD10B55B
:1079900082B0002214214C20FFF742F8040001D0ED
:1079A00000F008F8DFF8682308217120FFF738F8A5
:1079B000204316BD0020ADF8000000AB02220021DC
:1079C0004C20FFF76CB8F8B50020ADF80000DFF8E8
:1079D0001843606AB8B100250626606A06FB05F701
:1079E0003B1806FB05F000F011F8606A385A4FF6B4
:1079F000FE71884204D0BDF80000401CADF80000C4
:107A00006D1C032DE9DBFFF7D8FFF1BD811C0622B9
:107A100089B24C20FFF743B81820FCF76FBE18223C
:107A200000212046FEF702B800AB022200214C20C4
:107A3000FFF735B93EB5FFF7BDFF0622002101A8CB
:107A4000FDF7F4FF002406206043811C01AB0622F1
:107A500089B24C20FFF723F8641C032CF3DBFFF7FB
:107A6000DBFF050012D018220021FDF7DFFF002404
:107A700004F201202B461822002180B2FFF70FF8F4
:107A8000641C032CF4DB2846FCF79EFE37BDE0B5F2
:107A90004FF6FE7398421CBF00299A4201D1012083
:107AA0000EBDADF800000191ADF8082000A8FFF769
:107AB000CDFC00200EBD70B588B00646DFF85442FC
:107AC00040F2011500F090F8DFF84C020078012830
:107AD00009D10822FF2100F089F81022DFF83C12BA
:107AE00002A8FDF78BFF00AA20212846FEF798FF89
:107AF00088B900F014F8FFF7D2F8012E0EBF00206D
:107B000006980B30069000F00AF8FEF7C8FF0698BA
:107B100020600798606000F067F808B070BD00ABA7
:107B20002022002128467047A84E002010B58CB0B6
:107B30000446182200F017F905AA18218220FEF742
:107B40006FFF002808BF012C01D100F005F91122B8
:107B500000F04BF800AA11213A20FEF761FF00283F
:107B600008BF012C01D100F0F1F800AA11213B203F
:107B7000FEF756FF002808BF012C01D100F0E0F805
:107B80000CB010BD10B53A2818BF3B2803D10B46E6
:107B90001022012110E00346A3F201141CB90B4688
:107BA0001022082108E0A3F20123032B01D362284D
:107BB00006D10B4610220021BDE81040FFF76FB838
:107BC0000A2010BD10B586B0182200F00EF800246F
:107BD00004F2012000AA182180B2FEF721FF641CE4
:107BE000032CF5DB06B010BD2022002100A8FDF714
:107BF0001DBF10B50446FFF799FFFFF7E3FF2046CE
:107C0000BDE8104057E72DE9F843FFF705FF0400F2
:107C10002AD00025DFF8D0900C2000FB05F808EBF7
:107C20000907387A012815D105F2012623461822C2
:107C30000021B0B2FFF733F860B958F809002061AD
:107C400023467868606118220021B0B2FEF727FF52
:107C5000002038726D1C032DDEDBFFF7E0FE2046AE
:107C6000BDE8F243FCF7B0BDBDE8F18370B520205C
:107C7000FCF744FD04001ED0264E307A012840F265
:107C8000011510D12346FFF74BFFFFF708F850B955
:107C90003068A06123467068E061FFF741FFFEF79E
:107CA000FEFE002030722022FFF7BAFE2046BDE81B
:107CB0007040FCF789BD70BD1CB50FF2B40218CA44
:107CC00000A918C100B900A802460021AB2002F0AB
:107CD000B8FB00F003F8FEF7E2FE13BD0C4B0822E0
:107CE0000021712070470000A84E00205F51002045
:107CF000DF42002044510020184100206151002043
:107D00001241002010410020EC490020F4E7FFFF61
:107D1000A050002030500020AE42002090AF210043
:107D200000B58BB0182200F01EF800F015F81122F3
:107D3000FFF75BFF00F00AF800F002F80BB000BD9F
:107D400000AB112200213B20FEF7A9BE00AB11229F
:107D500000213A20FEF7A3BE05AB182200218220A5
:107D6000FEF79DBE1122002105A8FDF75FBE0000B1
:107D7000FFFFFFFFFFFFFFFF80B51A20FFF74CF862
:107D8000FAF7B0FA3B480078002818BF012807D15D
:107D900039480078012804BFBDE80140FAF71FBB4D
:107DA00001BD38B5354CFDF76FFE20704FF6FE75FE
:107DB0000220A074E5821420207165830F2084F8CE
:107DC0002C0084F82D0008222D480078E071002155
:107DD0002C48007860702C480078A070002020812A
:107DE0000120E07284F86C0005202073012060738C
:107DF00026488078A073264800782082254800789D
:107E0000E0742548007820750020207604F11C00DD
:107E1000FDF70CFEA58404F139002049FDF7EAFDC9
:107E2000002084F8410004F16E030F2084F86600FE
:107E30000222032084F8670000211948007884F8A2
:107E40006A001848007884F869001748007884F8B8
:107E50006B00012084F868008920FEF720FF10B134
:107E60000020A4F86E00002084F87200A4F87000CE
:107E700031BD0000615100205E510020EC4900201E
:107E8000E4420020E3420020E2420020B04F002004
:107E9000DD420020E0420020E14200208442002038
:107EA0005951002058510020E6420020704780B50B
:107EB000E12918BFF12907D130210A4204D0FDF78A
:107EC000E3FD00F00700801C80B202BD10B5DFF8B2
:107ED000D818DFF8D8480870002084F82600FFF78B
:107EE0004BFFFAF715FC00206067F9F7A1FF00F0DF
:107EF00056FC18BF012803D1FCF7A6FEFAF790FF45
:107F0000FFF74FFFDFF8A81800200860BDE8104019
:107F1000FEF75EB82DE9F043DFF88C5828780C4660
:107F200021048FB01CD5FDF701FE050015D00020FF
:107F30000FF2F02100E0401CC0B2024611F83230CE
:107F4000FF2B07D02E78B342F5D101EBC2012846B2
:107F5000496888472846FDF7ABFD84F400405DE1A1
:107F6000A1040BD5FAF7E1FD050004D000F032FCC6
:107F70002846FDF79DFD84F400504FE1DFF83418EA
:107F8000DFF834780978022984F4804627D1E307A2
:107F90000ED5387D0F2808D1002000F07CF920B1E3
:107FA000DFF81808006800F02AFA84F0010035E1D3
:107FB000630414D5DFF80808017806290AD10B21DB
:107FC0000170DFF80008017897F900200120904047
:107FD00001F081FEDFF8F00702682878FDE0A306D3
:107FE00040F1A1802021FEF7A9F86968084308BF85
:107FF00001260BD0FEF71CF96968002621B18842E2
:1080000034BF4FF0FF36461A76085BD000F03EF9D9
:1080100007460DF1140832E0FF208DF800008DF8BE
:10802000010001AA4FF0FF308DF802003868C17FCF
:10803000006AF8F7D4FA01281BD1788A40F0800052
:10804000A8F81E00B97B8DF83410B97A090706D557
:1080500040F48070A8F81E000DA9387B88707869FC
:1080600010B1007BADF81400002200A901A8FCF7B4
:108070005DFC06207873387BFAF7EEFB4F460FB3B2
:10808000002204213846FAF789FC81463889B0423B
:108090002CBF801B0020388138890028EED1B87BA6
:1080A00001280AD1B87A4007B6D406207873B721E0
:1080B0003868407B00F081F9E0E70028ACD101206E
:1080C0007873DBE7FAF729FB002201210020FAF799
:1080D00065FC18B128782021FDF7FAFD00F0D6F8EC
:1080E000E8B1078903E001898F4288BF0F4600226B
:1080F0000421FAF753FC0028F5D1B6B22878BE4225
:1081000002D2BF1BBFB227B92021FDF7E1FD00203D
:1081100005E07A002021FDF7CCFFFEF789F86860C2
:1081200084F020007AE0002918BF01295BD1E00625
:1081300004D5FBF729FA84F010006FE0600604D53F
:10814000FBF783FE84F0400068E0200604D501F0D0
:1081500057FD84F0800061E0E00504D5F9F754FC98
:1081600084F480705AE0200516D5FAF728FFDFF86E
:108170005C06007801280CD1DFF85406007840B185
:108180004FF47A7101FB00F228784FF40061FDF79B
:108190009FFF84F4006041E0E00408D5687818B1DE
:1081A00000206870FAF70BFF84F4805036E060041A
:1081B00019D5DFF8800C0068010012D0DFF8781CB8
:1081C000097801290DD18047DFF8700C00680100A3
:1081D00018BF804728784FF47A724FF48041FDF73A
:1081E00077FF30461AE0A00504D5F9F7D2FB84F4F6
:1081F000007013E0600510D5DFF8440C0088F8F734
:1082000013FCDFF8BC0C0088F8F70AFCB8890121E0
:10821000FCF7A2FC84F4806000E000200FB0BDE811
:10822000F083000001000000C98E2000060000005D
:10823000DD96200008000000619620000B00000081
:10824000D397200010000000C54020000A00000065
:10825000D598200002000000759020000500000065
:108260001D942000070000008D9120000C000000EC
:10827000118520000D000000D5872000640000005B
:108280001B512000FF00000000000000002204211C
:108290000020FAF783BB00B587B0182201F070F810
:1082A00002208DF80800DFF80405418B808CADF8C2
:1082B0000A00ADF8001000208DF8140000A8FDF7AA
:1082C0004EFE07B000BD10B50C008EB012D00146B6
:1082D00000AA2046F8F783F99DF8060050B19DF8F2
:1082E0001C309DF8012021460020FDF73BFB08B122
:1082F000A42000E000200EB010BDF8B504464FF6F3
:10830000FE756089410609D5206800F0D4F910B1E6
:108310004FF6FF703AE02068008835E0DFF89414EB
:108320000A78002A18BF012A2AD1DFF88014897B35
:10833000890725D52768396A0A794979C0044CBF6D
:108340004020002002EB012600902B46228B38882B
:10835000B1B2FAF759FEB6B2B0421CBF218B8842C7
:1083600012D120680188002302223046F8F7EEFF80
:10837000CD252068407B294600F01FF8B0B11AE0F7
:10838000022AF5D1F8F74AFAA842F1D0216808800C
:10839000F8F758FE014620684A1E9241D20FC2816A
:1083A000DFF8C81CFDF7E2FD0500E2D11CB1012198
:1083B0002046FAF7D8F92846F2BD38B504460D46EE
:1083C0001420FDF763FB60B10C2101708470002163
:1083D00081734570014601F0B8F8FDF778FB002085
:1083E00032BD2046FAF7E9FA38B106214173007B25
:1083F000FBF754FE2046FAF72FFA102032BDDFF8C3
:10840000701C8A790F2A0CD158B10978082918BF35
:10841000042906D10246DFF8900300780121FDF718
:1084200048BE7047F8B504461646002030800D4619
:10843000A06A00781F46F8F7D3FD38B16089F8F7D5
:1084400001FE022802D16089308000E00027A16A85
:10845000DFF858030978491E0A2953D8DFE801F0EC
:10846000060C1A1F112C52373B434900324629464D
:108470002046FAF78EFE3AE029462046FAF761FFD9
:1084800044E06089F8F7DEFD00283BD12046FBF789
:10849000E1FA3BE039462046F8F77FFF27E0217FED
:1084A00002292FD11FB96189C08A81422ED121466C
:1084B0003846F8F704FD1AE06189C08A814204BF9A
:1084C000207F02281ED12046F8F700FC1EE020463F
:1084D000F9F7F2FB1AE06189C08A814212D1204685
:1084E000F9F725F812E021463846F9F787F80746EC
:1084F0000CE001F0EDF818BF002707D12046F9F78E
:10850000CBF803E0D32003F0B1FF00273846F2BDDB
:108510002DE9F041044690B0A078A64EFAF74DFA46
:1085200005003ED06078DFF8607CDFF88082E87379
:108530006078F12818BFCD2804D01A281CBFE9287C
:10854000E12871D13078002818BF012836D1688918
:10855000000533D5052068733078002818BF01283E
:1085600017D16078E92814D03868010018BF804717
:10857000DFF8807C386860B198F80E00800708D575
:10858000286841890088F9F713FD10B161783A68CD
:108590009047687B022801D106206873A078FAF71B
:1085A0005BF9FAF7BAF83078022804D1DFF8480C02
:1085B0000088FFF724FF10B0BDE8F08100212846B5
:1085C000FAF7D1F880B33078002818BF012824D1F9
:1085D00098F80E00800720D52968086AE8B1C97F9D
:1085E00003AAF7F7FCFF6378E92B01D100F066F8E6
:1085F0002968BDF8160008809DF81100BDF8181014
:108600000028BDF8160014BF40220022FAF75FFDD3
:1086100018B1688940F0200068816A8961782889EA
:10862000FFF745FC288197E760788DF808000195F1
:10863000A07B8DF80900287C002801A811D1FCF747
:10864000F7F83078002818BF01280CD19DF80800F1
:1086500048B900F02FF830B93868010003D08047DE
:1086600001E0F8F77FFC9DF80830E92B01D100F01C
:1086700025F83078002818BF01288AD198F80E0014
:10868000800786D5687B02280DD1A87A40070AD5D5
:1086900000F010F828B929684FF6FF70088005200F
:1086A0007BE7032079E76078E92802D12846F9F7CB
:1086B0008CF86EE728680088F8F7C4BC28680121A8
:1086C00000914189E27B0088F8F7BFB82DE9F041BD
:1086D000861C0025F178002491B13189FF20FAF73A
:1086E000A9FA082520B1F07840F001002C25F0709F
:1086F000F07800F00300012844D145F0110541E075
:1087000000F12408F07EDFF8FC7CB0B1F17F002995
:1087100018BFFF2909D130893988884208BF22252E
:1087200030D0387C04282DD105E0D8F80020B07F67
:10873000FBF74DFA30BB012424E03089F8F782FCC6
:1087400002283089398808BF0125884208BF45F0D2
:10875000020535B1317800290CBF45F0200545F000
:108760004005F8F76FFC0128307808BF45F0010597
:1087700040B1D8F804000078F8F732FC012818BF9F
:1087800005F0FE0500F00BF818BF012804D1A8077A
:1087900002D40CB945F080052846BDE8F0810548B3
:1087A0000078002870470000C8500020EC490020E5
:1087B0003851002061510020044A002080420020EE
:1087C00012410020DB4200200C51002058510020B3
:1087D000595100202DE9F14F94B04FF6FE70ADF8DD
:1087E00010004FF000081498061DDFF8D806007836
:1087F0000228C14608D1307900281FBFDFF8080CD5
:1088000000880028FFF7FBFD3179306805AAF7F7EB
:10881000E6FE00286DD00DF11507012478780228B6
:10882000F878A8BF00240228BDF81E00A8BF0024C5
:108830004FF6F87188421CBF4FF6F971884207D095
:108840004FF6FA7188421CBF4FF6FB71884200D187
:108850000024F8F7DFFBB97881424AD1002C48D0D8
:10886000DFF86006007802280EAC02D1607B002899
:108870003FD1308B20810DF11E05708CA880787956
:1088800038B1AB7C9DF8152031680120FDF76AF8FE
:10889000D0B905A8FFF71AFF8246DFF8B80C03909D
:1088A000787998B90398007800281CBF0AF0220054
:1088B00022280BD00AF04200422805D160680078D7
:1088C000062818BF072801D0CF20BEE01AF04000CC
:1088D0008DF8040026D0FFF762FF18BF012809D1E8
:1088E0000398C078800705D560680078401E0A2884
:1088F0000BD9A9E060680078032818BF042804D0C9
:1089000007281CBF0A280C28F3D1606801780329C6
:1089100004BF40780D2805D005A8F8F7FCFC012815
:1089200000F08482DFF8DC0A029002991498C98969
:1089300000F13A0BB08E884208D1CDF800809BF848
:108940000020718E308B0023F7F77FFF787918B302
:10895000718E308BF9F72CFB002800903CD03068EA
:108960009DF8151008180099407BC978814204D001
:108970000099C8700099C1F8048030689DF81520EE
:1089800010180421401CFDF761F8009949688842DD
:108990004BD30099401C4860DFF828050078022876
:1089A00044D10298007C042818BF09283DD15FEA11
:1089B0008A6025D500F04CFA287A012802BF688821
:1089C000318B884207D1BDF81E00F8F73BFB022827
:1089D00001D185F808808AE0DFF8FC0C90F86C0083
:1089E0000128D9D160680078062803D19DF80400D9
:1089F0000028D1D1A8884FF6FF71884215D012E126
:108A00009DF80400002810D060680078042878D011
:108A1000072800F08080032808BF002100F085802F
:108A20000C2802D105A8F8F79CFEFFE1002818BF2A
:108A30000128FAD10398C0788007F6D5607B60B131
:108A40006888FCF7F3F918B9D32003F00FFDEDE1C6
:108A50003068417801F0DF014170287A38B1306820
:108A60008179491E817130688079287208B90AF0CD
:108A70007F0A5FEA0A7021D55FEA4A704FF4805896
:108A800006D5387900F0E300387140EAD00011E0F3
:108A90005FEACA600FD53879C0F3820121B1072996
:108AA00004D0491EC9B209B90AF07F0A00F0E300F8
:108AB00040EA810038713168387908720298007C88
:108AC000042818BF092834D10299BDF81E0009886E
:108AD000884208D0F8F7B6FA02281EBF387900F0AD
:108AE0000300012808D1787838B900F0B1F900A95D
:108AF000F26A05A8FBF71AFF98E16068007804287D
:108B000007D1A87C022803D105A90020F8F7D7F9DE
:108B10008CE1072806D1A87C0428F9D105A8F8F72C
:108B200047F983E10328FCD1002105A8F8F735FCBB
:108B30007CE10AF008008DF800001AF0610052D0C4
:108B40005FEACA7028D5318B05A8FBF7A7F908BBE7
:108B5000F7F76CFE8146287A002802BF6888318BBF
:108B6000884219D0318B4A4605A8FBF7E3F960B17A
:108B70009DF80000002814BF4FF6FF70BDF81E00DE
:108B8000ADF8100048F0040806E00AF0DF0A4FF0E4
:108B9000000901E00AF09F0A5FEA8A6010D59BF89D
:108BA00000008DF8000000A99BF801008DF801007D
:108BB0009BF802008DF8020005A8F26AFBF7B6FEEA
:108BC0005FEA4A600ED5318B4B4604AA05A8FFF731
:108BD00029FC5FEA000905D060680078012801D10E
:108BE00048F01008C8E07878012802BF6168097869
:108BF000052902D100F026F918E1012802BF6068BA
:108C00000078032806D1BDF81E00FCF70FF908B163
:108C100000F018F9287A58B97878012802BF6068FE
:108C20000078032803D0149905A800F01EF9FDE090
:108C3000F9F784FD0028FAD1E87C70B30E9AE97D3B
:108C4000A87DFAF7C4FF28B3E87D48F0400440B996
:108C5000BDF81E00ADF81000FCF700F9002818D18F
:108C600016E00E99FAF7AEFFADF810000820F9797A
:108C700001B11020B97909B10830C0B2397909B110
:108C8000401CC0B2401C3168C0B2425C521E42540B
:108C9000A0466EE000230B2257E0BDF81E00ADF8A1
:108CA0001000F878002804BF9DF80000002852D179
:108CB000787801281CD0BDF810000021FBF7E9FAF4
:108CC00020B14079012818BF022811D0B18EBDF81B
:108CD0001000F9F76DF928B18078F9F7ABFA08B10F
:108CE000082805DB6888FCF7A1F860B30420F87059
:108CF0000023BDF81E10F8780DF13102FBF75AFB86
:108D000030B13068017801F03F0148F0200801706F
:108D1000E87C40B1BDF81E100DA8F7F73EFCADF899
:108D2000100048F040087878012805D06988BDF81F
:108D30001E000022FAF76CFF9DF80000002814BF07
:108D4000402200220DE000230222BDF81E10688898
:108D5000F8F7FCFA6AE09DF800000028C8D040232C
:108D6000C7E76988BDF81E00FAF7B1F908B148F005
:108D70002008F7F75BFD8146BDF810004FF6FE7145
:108D80008842DFF8B40B007808BF4FF000090128D3
:108D900025D1318B4FF6FF70814220D0BDF81E00E7
:108DA0004FF6F97290421ADA6888814217D0FCF7C0
:108DB00055F8A0B10179012918BF02290FD101216D
:108DC0008DF800104088ADF80C0000A8FEF703F9FC
:108DD00028B101A8FCF777F808B103F0C7F95FEAFA
:108DE0000A6023D5B9F1000F20D03079FBF786FC5B
:108DF00004001BD032793168FCF700FE7878BDF8AA
:108E000010108DF84800CDF8048000201390CDF8A4
:108E1000009012A80390002002903379328B2046F4
:108E2000F7F7A2FA10B12046FBF7CEFC15B0BDE86B
:108E3000F08F0000144F00205E510020204F0020D2
:108E400048510020318B002304AA05A8FFF7EABA95
:108E50009BF800008DF800009BF801008DF80100E0
:108E60009BF802008DF80200704738B50D460446A5
:108E7000DFF8C81A6089097841B1DFF85C18C98A3F
:108E8000884204BFBDE83140FAF799B80021FBF7EA
:108E900000FA00281EBF80791821084208D0E88C0B
:108EA0000090AB8B627F6189A089FBF7C5FA31BD69
:108EB0006189A089BDE838400022FAF739BB00007B
:108EC0004A510020615100202DE9F047044686B048
:108ED000A01CFBF7C6FF054666780127A11C00F021
:108EE000BBFB02208DF816004FF6FE7900208DF8AE
:108EF00008004FF00108DFF8480A0078ADF8149038
:108F0000002808BF002D03D116B94FF0C30874E044
:108F1000DFF8C40790F82600082818BF4FF0C208F1
:108F20006AD1A07A810704D5000754BF032704271C
:108F300002E0000748BF02271DB32879042818BFA4
:108F4000032803D1042F18BF032F07D0022818BF0E
:108F500001280DD1022F18BF012F07D12888F8F75B
:108F6000F5F870B92888ADF814000AE0022801D09D
:108F7000012802D12888FAF7F6FBA01CFBF7A3FF13
:108F80000025BDF81400484514D1FEF7A9F888B9AA
:108F90004EB1DFF8B0A9BAF80000F8F7D7F810B969
:108FA000BAF8000004E0A07A00F00200FAF7A2FB91
:108FB000ADF81400BDF81400484508BF4FF0C708CD
:108FC0001AD0A27A3346A11CFBF7C8FDA0B9BDF8A0
:108FD00014003A46A11CFBF758FE05000AD0022EE9
:108FE00003D1687940F00800687100208DF8160000
:108FF000804601E0ADF814901EB900A8FCF76DFFA3
:1090000004E03246394600A8F7F790FE01469DB1CC
:1090100046B1687940F040006871022E04BF40F00C
:1090200020006871A07A400603D5687940F080007E
:109030006871A879401CA87151EA080013D0B8F1F2
:10904000000F41F2010018BF414600D109B1FEF7FF
:109050002DFF15B1A01CFBF736FFBDF814004845E5
:1090600018BFFAF780FB06B0BDE8F087C782200082
:10907000124A00202DE9F041DFF85C8608F10E0469
:109080000646207E03281CBF0128092884B078D119
:109090007178DFF8B458DFF8B478002953D1022092
:1090A000FEF704FF70882081B11C5320FCF700FFFD
:1090B000207E09281CBFE08AF8F765FF01208DF8A3
:1090C000000000A94220FCF7F3FE0420207601A94D
:1090D0004A20FCF7DFFE01A908F11C00FCF78AFC1E
:1090E00038780B2802D10620387003E0E08A00218E
:1090F000FBF732FD2878002818BF012809D1A08984
:109100004FF6FE7188420ED0002201A9FBF7BDFD8B
:1091100009E0022807D121890320FEF7C7FEA189B3
:109120000420FEF7C3FE2078C00800F001008DF88F
:10913000000000A95220FCF7BBFE287802281ED1AF
:1091400000F0E8FB1BE041F20300FEF7AFFE2878D9
:1091500002280ED13878DFF8F8170B2804BF0A2050
:109160003870002008704FF4804100F0EEF9FCF7F1
:10917000CCFF7178E08AFBF7EFFC0020207600F04E
:109180001BFBBDE8FF810000E84F0020DFF8C4179B
:109190000968E1B9DFF8402592F82620012A04D0B9
:1091A000052A08D0062A0CD011E0DFF8AC170968B0
:1091B0000A001DD00847DFF8A41709680A0017D075
:1091C0000847DFF89C1709680A0011D008470029F2
:1091D00019BF897901294078FBF7B6BC022908BF7D
:1091E000F8F796BBDFF87C1709680A0018BF084734
:1091F00070470000EC4F0020C04200202DE9F043F2
:10920000DFF86457DFF8D0840446287883B04FF441
:109210008061FCF77AFF01A95020FCF73BFE10208B
:10922000FCF734FC060008F116074FF6FF7908D06A
:10923000607830B9F88948451CBFBDF804108142F8
:1092400015D0EA20607039465320FCF731FE08F152
:109250001A014B20FCF72CFE08F124015020FCF7EA
:1092600027FE08F11801E120FCF722FE6EB3022070
:109270003070F88948451CBFBDF8041081421CD1EC
:10928000BDF80400F88139465320FCF703FE388806
:10929000708008F11A014B20FCF7FCFD08F1180161
:1092A000E120FCF7F7FD002000900023DFF8BC066A
:1092B0000278F989B888F7F7C8FA60787070314693
:1092C000032038742878FCF702FCBDE8F783F0B57A
:1092D000DFF89C46E36D074620697968884387B0CC
:1092E00020617F217F25002220FA02F6F60712D5A1
:1092F0004FF0000C1E4606E096F802E0B66996456F
:1093000008BF0CF1010C002EF6D15FFA8CF68E42EC
:109310003CBF31461546521C1B2AE5DB786858B124
:10932000206100F02CF87868009001208DF804008E
:10933000A07D00F06BF820E01E4606E0FBF780FC05
:10934000A081318881420BD0E66D4EB1A089318871
:10935000814202BFB178EDB2A942EFD0B669F4E71D
:10936000257000F0F9F840B10020A073DFF8040682
:10937000016808001CBFC420884707B0F0BD1C224C
:10938000002100A8FCF752BB2DE9F041C668DFF8C8
:10939000488388B0002708F12805286820FA07F1DB
:1093A000C80709D5BC5DF7F739FEA04204D228688A
:1093B0000121B940884328607F1C1B2FEDDB286802
:1093C00078B1FFF7DCFF2868009001208DF80400D9
:1093D0008DF80700A87900F019F8062088F8260013
:1093E0000DE088F82600002141F20400FEF75EFD42
:1093F000DFF88005016808001CBFC420884708B05A
:10940000BDE8F081024A0020BE4200208DF8050030
:1094100000208DF8070000A8FCF76ABD30B50546AE
:109420008DB06C68297C686908AA00F022FA9DF862
:10943000200000281AD1287C0B285CDB207A022827
:1094400004BF207BFF2811D1A348DFF8082512684C
:1094500000F12405A978022918BF062910D012B1FD
:109460009379012B15D0082918BF04296BD19DF8D9
:1094700022106489002A3FD09279022A3CD15CE014
:109480003AB900200090627C618920880023F7F7B8
:10949000DCF92088ADF8080008226089ADF80A00E0
:1094A0000DF12701A07B8DF80C00A089C00B8DF871
:1094B0000D009DF824008DF80E009DF826008DF813
:1094C0000F009DF821008DF811009DF822008DF805
:1094D0001000607C8DF812009DF825008DF81300B7
:1094E0009DF832008DF814000DF11500FCF786FA96
:1094F00002A8FBF72FFB26E02A88A24223D10129EC
:1095000005D00DF127013930FCF766FAD8B900F023
:109510001CF84FF40071FCF711FEA0B968680090C8
:10952000A87A8DF8040001208DF8050002208DF83E
:10953000060000A800F0C8FA18B92046F8F7CEF9DE
:1095400001E000F0EAFA0DB030BDDFF81C0400784D
:1095500070470000F7490020F0B58FB05E4CF8F777
:1095600067FA04F12405E61CA878082807D0DFF87C
:1095700008040078B07030700120E860286124226F
:10958000002106A8FCF752FA287DDFF8F073411E8F
:109590008941C90F0F208DF822108DF80000387016
:1095A00000A94620FCF784FC00208DF80400DFF8B9
:1095B000D00300788DF80500F7F72CFD8DF8060034
:1095C00004F1390100208DF807008DF808008DF8AE
:1095D0000A00287D0F28A8BF0F208DF8090000F091
:1095E0003BF80322FF210DF11300FCF71FFA94F85A
:1095F00072003A788DF81600391D01A800F00EF9B6
:10960000391D4520FCF754FCF7F7E5FA287A8DF868
:10961000200004F11601687A8DF82100707D8DF824
:109620001E002888ADF81C0000208DF82400E87A80
:109630008DF8230000208DF838008DF82D00532080
:10964000FCF736FC04F11A014B20FCF731FC06A8AC
:10965000FCF772FC0FB0F0BD0DF10B00FCF7CAB9BE
:1096600010B51D49407801F1160410B10020207496
:1096700010BD0820207491F8380068B9BD48016811
:1096800008001CBF00208847E1890520FEF70EFC7A
:10969000E089F8F778FC0AE00020FBF759FA218806
:1096A0000620FEF703FCA1880420FEF7FFFBB54867
:1096B000006860B100F00CF809D1FFF746FFBDE883
:1096C00010404FF47A724FF48041FCF701BD10BD99
:1096D000AD48007801287047EC49002030B50546B8
:1096E00087B0A81CFBF7BDFB040039D02079012806
:1096F00018BF022803D0032818BF042830D1A91CA2
:10970000FFF7AAFF2088ADF8140001208DF816009D
:1097100000208DF8080000A8FCF7E3FB01460720B5
:10972000FEF7C4FB607900F0FE00607101206072FA
:1097300096480078401C00EBD07040102072FFF774
:10974000C7FF02BF82480078022809D1207901288A
:1097500018BF022804D1A069E061012084F820002C
:1097600007B030BD2DE9FC410D4690460FF2302187
:1097700004460CC900A821460CC000A8FCF72CF92F
:10978000002700B901278248466F06E0214606F10E
:109790000C00FCF721F930B9B6693EB1002FF5D1C4
:1097A0003088A842F8D1B0784045F5D13046BDE8C0
:1097B000F6817748406F704738B5754C606F002868
:1097C00003E08569FBF700F82800FAD10020606704
:1097D00031BD38B50446207D032804D104F10C00C6
:1097E000FBF73FFB04E0022817D1A089FBF736FB0B
:1097F000050012D0607878B1F12812BFE128A8796D
:10980000012806D12888F9F7AEFF04F10C00FBF718
:109810005AFBA87908B1401EA87131BD70B5044645
:10982000154620780870CE1C60784870A27840EA0F
:1098300002104870E0788870227940EA82008870CF
:10984000627940EAC2008870A27940EAC21088704A
:109850000822E11D3046FCF7D1F80836032204F156
:109860000F013046FCF7CAF80F2DA4BFA07CF070A2
:1098700070BD70B50646144616F8010B20700D46F3
:10988000307800F00F006070082216F8010B000914
:10989000A070307800F00300E0703078C0F38000F2
:1098A00020713078C0F3C300607116F8010BC00955
:1098B000A0713146E01DFCF7A1F8083603223146BD
:1098C00004F10F00FCF79AF80F2DACBFF0780020E0
:1098D000A07470BD10B5044682B06078FBF767F9DC
:1098E0006078EB2818BFE12803D0F12818BF1A28A8
:1098F00001D10020607000F00DF825480121009191
:109900000022818C6378408BF6F79FFFBDE81340FF
:10991000F8F703BF1F480068FEF771BD01001E483D
:1099200018BF0121017070471B480078704700681C
:109930001A49FCF71BBB00005B5100205851002066
:10994000D2420020D042002061510020124100206C
:109950005C510020385100203C5100205450002020
:1099600058500020E44F0020C8500020D64200206C
:10997000044A00205C50002010AF21005842002013
:10998000DC420020144F00205E51002022AF210055
:10999000EC4900208042002069510020C78220004D
:1099A000FFFFFFFFFFFFFFFFDFF87407DFF874170B
:1099B0000160DFF874174160DFF87017816070474D
:1099C000DFF86C17DFF86C070860704738B504469D
:1099D000DFF86407017C082918BF042908D0217822
:1099E00001F00301012902BF21690978062913D179
:1099F00061884FF6FE7291420ED00088814204BF0A
:109A0000207F002803D02046F6F77AFB02E02046AC
:109A1000F6F778FC054600E0C2252046FAF7D4FEAA
:109A2000284632BD38B5044620786178081880B2DF
:109A3000FAF764FE050013D022780021FBF7F6FF49
:109A40004FF6FE706880F6F7E5FEA8802078401992
:109A5000286160782875F6F7E9FE6875A0782876A1
:109A6000284632BD70B5DFF8D446054694F8260086
:109A7000042814BF0828C22088B00E461DD004F167
:109A800028000560867100F01AF801208DF80400A6
:109A9000009500208DF807008DF80560022084F8FD
:109AA0002600DFF89C060078022803D1DFF8941620
:109AB0000020087000A8FCF71BFA08B070BD1C223B
:109AC000002100A8FBF7B2BF30B5DFF87C56044692
:109AD000286887B0F0B90820FAF710FE2860B8B1FE
:109AE000216801601C22217901712968607948711F
:109AF0002968A0798871FFF7E3FF2068009020793A
:109B00008DF8050060798DF8040000F065F802E03A
:109B1000102000E0012007B030BD10B5DFF8284666
:109B2000206818B1FAF750FE00202060FFF744FECD
:109B3000BDE81040F7F721BF2DE9F04188B00E468F
:109B40000E9CDFF808760F993D780F2C08BF0F297F
:109B500001D0022D03D08C4203D2022D01D0C120AE
:109B600039E0DFF8D88508F1280569712A60AB7102
:109B70002C711099E9714FF6FF71884201BFDFF82F
:109B8000D00500888842FBF77FFF08F11604E081CA
:109B90004EB13046F8F706FC012804D1314608F1F1
:109BA0003900FBF727FF00202080A0802874387838
:109BB000022802D10F202871687105202074FFF758
:109BC0007EFF00208DF8040028680090A8798DF8A9
:109BD000050000F001F8B9E100208DF8070000A8A9
:109BE000FCF786B980B5DFF86C1548708021DFF886
:109BF00068050078FCF789FA00F00EF8002002BD35
:109C0000DFF850054078002818BF00F005B880B58F
:109C100007F0B1FABDE8014010B5DFF838456078CB
:109C2000217828B909B102F0DDF80020207014E095
:109C3000012918BF02F0D6F8012020706078FF28B3
:109C40000BD0002161704FF47A7101FB00F2DFF854
:109C5000080500788021FCF72CFA2146BDE8104069
:109C60004120FCF725B90A464FF6FE71F8B50446C7
:109C7000DFF8C80490F8260008280D46164628D1BB
:109C80002046FBF7EEF808B1C520F2BD4FF6FE778F
:109C9000BD4208D106F00200F9F72CFD0546BD4291
:109CA00001D1C720F2BDB10706F0080004D5002895
:109CB0000CBF0322042203E0002814BF0222012269
:109CC00021462846FAF7E1FF08B10020F2BD102036
:109CD000F2BDC220F2BDF0B50F46DFF860140126D8
:109CE00089B0044681F826601C22002101A8FBF7F8
:109CF0009DFE0025032001948DF809708DF8080061
:109D00008DF80B50344218BF6D1C7600FAD100A9B3
:109D10005A20FCF7BFF89DF80000EDB268434FF4FD
:109D2000904148434FF47A71B0FBF1F400F0A7F88A
:109D3000DFF8245408804FF480612878FCF7E5F9B7
:109D4000287822464FF48061FCF7B3F901A8FCF7AC
:109D5000CFF809B0F0BD012200E000222DE9F84360
:109D6000DFF8D89309F10E060C469046F18A0546B5
:109D70002246FFF7F7FC070008BFCA207DD03889CC
:109D80004FF6FE71884208BFC32076D0F6F742FD39
:109D90003989814208BFC2206FD03888F18A814258
:109DA00018BFF082F08AF8F7EEF8F87A401C89F8CC
:109DB0003800294609F13900FBF71CFE02208DF816
:109DC000010000A8F7F715F905004FD02869062112
:109DD0000170317841700120A877F6F712FD6862B2
:109DE0000120A8764020E8823889688085F81880AC
:109DF0002846FFF7EBFD5FEA000839D109203076ED
:109E000009F11A013889DFF85053B081B07AA042C5
:109E100018BFB4724B20FCF74BF809F12401502015
:109E2000FCF746F809F11801E120FCF741F809F1C7
:109E300016015320FCF73CF800F021F8DFF81C4332
:109E400008802088F6F7F0FD228828780121FCF7A9
:109E50003FF928784FF48061FCF757F92088820099
:109E600028784FF48061FCF724F901E04FF01008E6
:109E7000DFF8EC12002008704046BDE8F283DFF8FE
:109E8000E402DFF8E412008870472DE9F241AB4D9F
:109E900005F10E068046307E042814BF0828C22033
:109EA00087B014461F4651D0BDF838004FF6FE71FA
:109EB000884208BFC32049D0FFF701FE0320307657
:109EC00007A95020FBF7F4FF0EA94B20FBF7F0FF8A
:109ED000BDF81C00F082B4724146BDF83800B08174
:109EE000377005F13900FBF785FD07F0CE0040F033
:109EF00080008DF81A0092480078002818BF0128C9
:109F000003D10F98401C85F8380002208DF8160008
:109F10008DF80B4005F12D01BDF83800ADF80E00AD
:109F2000BDF81C00ADF8180000208DF808000F20C7
:109F3000F0775420FBF7BCFF0F20B07705F12C0120
:109F40004720FBF7B5FF00A8FBF7C0FF08B0BDE84E
:109F5000F0817A4880F82F20FFF7FEBA30B504462A
:109F600089B060798DF80C00002520798DF80E00FD
:109F700001208DF80F00206810B1FCF769FF88B947
:109F80008DF80D50F6F73DFC02906C4890F82600D5
:109F9000042802D1F6F742FC01E04FF6FD70ADF85F
:109FA000040014E066480078002818BF012827D173
:109FB000206800A9FCF76CFFA07968B901208DF832
:109FC0000D00BDF80000ADF804002068029001A863
:109FD000F6F72EFF054613E0BDF80000ADF81000BF
:109FE00001208DF81A0060798DF81B008DF81C5047
:109FF0000DF112002168FBF7FDFC04A8FAF7B0FD93
:10A00000284609B030BD4D4910B5044691F82610D8
:10A010000020082918BF042984B015D14FF6FD701F
:10A02000ADF80000F6F7EDFB019000208DF8090077
:10A0300060788DF8080020788DF80A0000208DF8EF
:10A040000B0000A8F6F7F4FE04B010BD2DE9F042B5
:10A050003B4B3A4F93F800C0444B1E78444B144698
:10A060000022002587284FF6FE7911D08B282CD0AE
:10A07000982808D09C2808D09D2812D09E2841D12D
:10A0800097F8260047E0B87C45E0F7F72CFF42E060
:10A090000846F7F74DFFC12500283DD01C22014698
:10A0A0002BE0C925BCF1000F18BFBCF1010F33D163
:10A0B000002005E01988494518BF521C0833401C90
:10A0C000C0B2B042F6D322701AE0C925BCF1000F2D
:10A0D00018BFBCF1010F1FD1C125002002E0521CA6
:10A0E0000833401CC0B2B04216D21F884F45F7D08B
:10A0F000D7B28F42F3D1082219462046FBF77EFCE7
:10A10000002509E0A0F181011E2928BFC92503D23D
:10A11000C01910F8810C20702846BDE8F0820000BC
:10A120005450002089932000CF9220004D4B2000F6
:10A130003C510020FD912000024A0020EC49002003
:10A14000615100205C51002038510020E542002080
:10A15000CE420020D2420020C8500020C24200203F
:10A160000F410020C0420020485100201CAF2100B8
:10A17000AC47002000B583B0009000208DF80500AA
:10A180008DF806008DF8041000A8FFF79DFC0EBDA9
:10A190002DE9F0410446DFF86407E57A007886B0DF
:10A1A00008B9BA20EDE000F021FD01268DF8056028
:10A1B0000027207E400709D59DF8020040F04000AE
:10A1C0008DF80200207E000758BF0326208BC106B1
:10A1D00048BF46F04006000710D59DF8020040F049
:10A1E000C0008DF80200217E9DF8030089064CBF57
:10A1F00040F0010040F002008DF80300208B217A2E
:10A20000DFF8288800F4C070B0F5C07F08BF46F0C2
:10A21000080651B9F6F7FEFAADF800009DF8020005
:10A2200040F004008DF8020031E09DF802200F2973
:10A2300042F0080346F0040006D18DF802300646CD
:10A240002188ADF8001022E0022902D100F09AFC2A
:10A250001DE0032904D100A9204600F007F916E00B
:10A26000012914D198F8681039B18DF8023046F4FC
:10A27000805600F087FCFF2508E042F00C018DF8C5
:10A28000021006464FF6FD71ADF800102788207EBB
:10A29000C0071DD59DF802000C2108420BD1208873
:10A2A000FDF73BFB08B9BB206BE09DF8020040F0D6
:10A2B00020008DF80200207EC00709D59DF802001D
:10A2C00000F00C01042904BF40F020008DF80200CA
:10A2D000608A8DF8040000A800F012FB9DF81400BD
:10A2E00000284CD10398C682E17E41760399207FF5
:10A2F0008876207A012803D1039998F868000877B6
:10A300000398A17E20F8281F218B4180E17F0171F5
:10A31000208B00F4C070B0F5C07F05D10398417D5B
:10A3200094F8200007F0C6FC0399A07A81F83A005F
:10A33000039880F83B50039820F83C7FE1894180E6
:10A34000218A8180A17E81730399A07F81F84B00CF
:10A350000399607F81F849000398628A6169406CC3
:10A36000FBF74CFB207E400606D5DFF8C4060168EB
:10A3700008001CBF00A8884700A800F024FB9DF837
:10A38000140006B0BDE8F08110B50078632420B158
:10A390000520FBF7F0FAC0F15604DFF89006007BC9
:10A3A00020B1FBF7E8FA201AA0F10E04E0B210BDCC
:10A3B00013B511461A46DFF87C361C68230008D016
:10A3C00001AB00930123A04708B1002016BDB220C5
:10A3D00016BDB62016BD38B5DFF85C4624682500EA
:10A3E00001D0A04732BDB62032BD38B50346B520F6
:10A3F000A12B0C46154606D0A22B10D0A32B06D0BD
:10A40000AB2B16D032BDDFF83406008805E0DFF84C
:10A41000301609680A0013D0884728800FE0DFF85B
:10A4200024160A6811000BD029462046BDE83840A2
:10A430001047DFF87C0801682846FBF7DBFA0020AC
:10A4400032BD014680B5B520A12902D0AB2905D087
:10A4500002BD1088DFF8E415088005E0DFF8500839
:10A4600000681146FBF7C6FA002002BD70B504462D
:10A470000D46F6F7C6F901462046FBF7ADFA012670
:10A4800020B1DFF8A805C08A288004E029462046CC
:10A49000FCF7FEFC0646304670BD10B504460E20A3
:10A4A000FAF72CF9A8B104F138010A7802704A7859
:10A4B00042708A788270CA78C270CA8882800A899B
:10A4C000C2808A7A02728A7C027362884281497CE5
:10A4D000417310BD002101757047012070470121B3
:10A4E0000175704701207047DFF80008DFF8001899
:10A4F0000160DFF800184160DFF8FC178160DFF8C9
:10A50000FC17C160704770B5C26892F838101269C4
:10A5100011F0030418BF022C02F8011B39D111F00D
:10A520000C0318BF082B01F0100504D0042B07D131
:10A53000022C00D18DB9C66896F83B6002F8016B19
:10A540000C2B08D1C668B68F02F8016BC668B68FAF
:10A55000360A02F8016B022C00D1D5B9C468E48F29
:10A5600002F8014BC468E48F240A00F045F800F0BB
:10A5700043F8240A002B18BF082B02F8014B03D024
:10A580000C2B18BF042B04D1C36893F83A3002F89F
:10A59000013B0326C36803F12A0401F00203E57BB3
:10A5A000354208BF002B02D125782D0603D5E47F64
:10A5B00002F8014B08E0DFF848572E78E6772C7850
:10A5C00002F8014B641C2C70090614D5C16891F87F
:10A5D000391002F8011B0325C16811F8394F2C42CC
:10A5E0001EBF897C02F8011B002B04D0C06890F8C4
:10A5F0004C0002F8010B70BD02F8014BC468B4F8BE
:10A600004040704730B50268917801F0030301249F
:10A61000002B18BF022B20D111F00C050BD0082DF8
:10A6200008BF02240BD0042D06D1022B01D1CB068A
:10A6300007D4062410E002240C2D08BFA41C022B12
:10A6400001D1CB0609D4241D002D18BF082D03D03D
:10A650000C2D18BF042D00D1641C0B0604710CD501
:10A6600003795B1C03710324D278224205D05A1C63
:10A670000271890744BF511C01710179491C0171A4
:10A6800030BD0069002818BFFAF79EB8704730B592
:10A6900087B0044601208DF814002046FFF733FFF1
:10A6A000206908B100F0A9F9207D30BB00F09EFAC6
:10A6B00001208DF80200A0680088ADF80000E06875
:10A6C000007D093000F084FA00A800F019F99DF827
:10A6D000140090B90398456C0E202870A06841685A
:10A6E000681CFBF787F9E068027D016905F1090044
:10A6F000FBF784F900A800F066F9E06808B1FAF702
:10A7000063F82046FFF7BDFF9DF81400207507B0E1
:10A7100030BD10B504468CB06089ADF800006068AB
:10A7200040788DF802006068801C01909DF802005E
:10A73000042805D160681230029060681A300CE07D
:10A74000012818BF06280AD16068807C8DF80300B4
:10A7500060681330029060681B30039008E00020AE
:10A7600002906068123003906068807E8DF810005F
:10A77000029850B1FCF76CFB012806D1F6F741F8BE
:10A7800001460298FBF728F918B100A802F0D0F9A9
:10A7900048E0DFF870050078002818BF012841D193
:10A7A00000A8FDF7C0F801283CD1029805A9FFF7E1
:10A7B0005DFE012836D1BDF8140060810020607272
:10A7C000DFF84405007828B160680078052808BFE4
:10A7D000012000D0002020730C22002106A8FBF7E6
:10A7E00025F96089ADF81800207A8DF81C00012049
:10A7F0008DF81A00207B8DF81D00607A012804BFB7
:10A8000021208DF81A0006A800F07AF89DF82C0097
:10A8100040B90998227A6168406CFBF7EFF806A806
:10A8200000F0D1F80CB010BDE0B54189ADF80010D2
:10A830004168491C01914068417A827A01EB02210A
:10A84000ADF80810C07A8DF80A0000A802F08FF960
:10A8500007BD00B583B04189ADF800104068401CC9
:10A86000019000A802F09BF907BD80B54189ADF8C1
:10A870000010406840788DF8020000A802F0A6F9A8
:10A8800001BD41680978062908BFFFF7CDBF7047B1
:10A8900041680978052904D0072904D0092901D085
:10A8A000704736E7E1E7D4E741680978052902D027
:10A8B000092901D070472CE7D7E7DFF85014DFF8FB
:10A8C000502409781278114304BF417A002905D138
:10A8D00041680978062918BF07290DD0017B39B9CD
:10A8E0004168097805291CBF4FF49A7001F0BEBD7C
:10A8F000DFF8201409680847704700003B42002039
:10A900003EB5044601940020E06001990861019978
:10A91000087501A8FFF776FE01988578F5F77AFFAC
:10A920000199098881420FD0A8060DD5DFF8BC1324
:10A930000198096888470198006928B90198019928
:10A94000807800F0DF008870207D00283AD1502008
:10A950008DF800009DF80810207908188DF8010086
:10A9600060798DF80200206938B1027F407F9DF840
:10A970000110801840188DF8010000A8FFF752F868
:10A98000D8B121884180012200F110014A7200F102
:10A990003802A3781370E3785370237993720968AF
:10A9A0009DF8083013745918D160216919B1D36822
:10A9B000097FC918D160E06037BD2046FFF761FE0E
:10A9C0001020207537BD10B50446207D88B920467B
:10A9D000FFF799FD206908B100F00FF8E068217DCC
:10A9E00019B9FEF7F3FF207503E0F9F7EDFE00203B
:10A9F000E0602046BDE8104043E6BC494968204677
:10AA0000084738B504460D46F5F704FF698B8142C7
:10AA100005D02046FCF781FF08B9012032BD294648
:10AA20002046BDE83840B14AD2681047EC490020C2
:10AA300018510020F84E0020F04F00203C4200202A
:10AA4000FC4E0020F44F002030B587B000F0CAF86B
:10AA5000A07804282AD122208DF804009DF8140043
:10AA6000002860D100F08EF801208DF80200A07B54
:10AA70008DF8050020690290607B012804BF212029
:10AA80008DF8020000A8FFF73BFF9DF81400002896
:10AA900049D10398456C05202870A07868706168DA
:10AAA00091B11022A81CFAF7A9FF11E0012814BFE8
:10AAB00006282320D0D0022814BF03281B20CBD087
:10AAC000B3208DF814002EE01022A81CFAF7AEFF78
:10AAD000A0781235012812BF0628E07805F8010B8E
:10AAE000A1682846FCF7ADF9A07804281CBF01280E
:10AAF000062805F1080204D10021AB20FFF775FC00
:10AB000001E0207B10702088F6F79CFA10B10399C1
:10AB10000420C8822069002800A802D0FFF7B7FDF2
:10AB200001E0FFF750FF9DF8140007B030BD30B5CD
:10AB300087B0044600F05AF800F024F80C2000F02A
:10AB400047F8607A002814BF2120012000F046F861
:10AB50009DF8140080B90398456C06202870681C85
:10AB60006168FAF747FF608868726088000AA87217
:10AB7000207AE87200F075F8207A08B19DF8140088
:10AB800007B030BD2088ADF80000704710B586B022
:10AB9000044600F02BF8FFF7F5FF092000F018F845
:10ABA000207A01280CBF2120012000F017F89DF821
:10ABB000140048B90398406C072100F8011B616834
:10ABC000FAF718FF00F04DF89DF8140006B010BD1C
:10ABD0008DF8040001208DF8050070478DF8020003
:10ABE00000A88DE6044600208DF814000C220021F8
:10ABF00000A8FAF71BBF10B586B0FFF7F3FF607827
:10AC0000012818BF042824D102208DF804009DF8E3
:10AC10001400E8B92078ADF8000021208DF802007A
:10AC200001208DF8050000A8FFF76AFE9DF81400CA
:10AC300070B90398406C08210170617841706178A7
:10AC4000022903D16168801CFAF7D4FE00F009F8EC
:10AC5000BAE7022808BF0A20D7D0B3208DF8140025
:10AC6000F6E700A8AFE610B586B00446FFF7BEFFD2
:10AC7000FFF788FF0220FFF7ABFFE07801280CBF49
:10AC800021200120FFF7AAFF9DF8140070B9039856
:10AC9000406C09210170A17841702088F6F7D2F943
:10ACA00010B103990420C882FFF7DBFF8CE7000096
:10ACB0004042002080B5FFF717FC1649164808608F
:10ACC00001BD80B5FFF710FC12491448086001BDB2
:10ACD00080B5FFF709FC0F491148086001BD114814
:10ACE00000680822FF21FBF78FB80000D04F00203A
:10ACF000D5A42000DFA42000E5A42000DBA42000D0
:10AD000039420020615100205F510020AD420020F7
:10AD10006051002014510020A9A8200091A8200013
:10AD200083A820004042002010B5DFF8704C20744A
:10AD3000022020724FF6FE702080F5F762FD05F0CC
:10AD40000DFC04F1540006F0E3FF00F063FAA07C70
:10AD500018B1002000F043F90AE04FF6FF7000F050
:10AD60003EF94FF4FA7332220021082007F0A0FACE
:10AD700001F025FA00F0B7FBBDE8104001F047BA3A
:10AD800030B5DFF84C4B0546207885B028B9DFF8A0
:10AD9000440B018941F0010101812846FCF734FC94
:10ADA0000DB30020DFF8301B0860DFF8300B90F89F
:10ADB0004100C0B9207840B1DFF8240B00780128A9
:10ADC00011D1DFF8DC0B007868B100A96220FCF734
:10ADD000D9FE002100A8FAF71FFC0020FAF733FC87
:10ADE000102200F0DBFCDFF8B44BA06C30B1A06C9B
:10ADF0000568F9F7E9FCA564002DF8D105B030BD70
:10AE000070B506460C462004DFF8D45C16D4E00783
:10AE10001CD5012001F0ADFADFF8B80A297D0078D1
:10AE20000F230F2200F0070005F0ABFB84F00100B8
:10AE300070BD00F00CFA3046FAF73AFE287CFAF7BB
:10AE400075FE0600F5D184F4004070BDDFF8802A5D
:10AE5000A87C1278002A18BF012A014626D1A20731
:10AE600004D500F038F984F0020070BDA20616D5B2
:10AE7000687C70B9062904BF072001F07AFA002027
:10AE800002F0A3FCDFF85C0C0078012808BF01F099
:10AE900080FA287C00F052F984F0200070BD620432
:10AEA00004D501F042F984F4804070BDA20419D5A4
:10AEB0000C2907D1022001F05CFA01F0F0F8DFF86C
:10AEC0009C0B06E00C2001F054FA01F0F8F8DFF8D2
:10AED000900B0268287C4FF40051FBF7EAF884F4E9
:10AEE000005070BDE10611D505F0F1FBDFF8740BE1
:10AEF0000078012807D1DFF8700B007864224FF446
:10AF00000061FBF7D6F884F0100070BD200702D571
:10AF100084F0080070BDE0050BD5DFF8C00990F89B
:10AF20002600082814BF042800F03CF984F480703F
:10AF300070BD600705D50221FF2007F06AFA07F00F
:10AF4000CFFBE00404D501F0BBF984F4805070BD60
:10AF500021463046BDE8704070B500F038FE18BF9D
:10AF600001280C461DD160061BD5DFF8745BA86C68
:10AF7000A0B18088FCF785FBA86C0668F9F724FC73
:10AF8000AE645EB1F28802E0F088801AF080366824
:10AF9000002EF9D1287C4021FBF78BF884F040008B
:10AFA00070BD200604D500F0CCF884F0800070BDA0
:10AFB000A00504D500F0E2FB84F4007070BD20050C
:10AFC00004D5FCF720FE84F4006070BD600504D554
:10AFD000FCF74CFE84F4806070BD002070BD2DE94C
:10AFE000F843DFF8B8798046B87C0125002608B917
:10AFF00007F0CCF907F004FCDFF8D848DFF8DC985C
:10B00000A07889F80E00B87D022829D1BE75F5F721
:10B010000FFDF5F72EFDFCF783FE012D0CD100F09E
:10B0200035F8FAF731FD00F07F00404400F1640686
:10B03000DFF8CC0B006838642846FFF7A1FE4FF616
:10B04000FF70804506D00120B87400F01FFCB0B23C
:10B0500000F0F1FFA078F5F7E9FF2846BDE8F2839C
:10B0600000F00BF80500D2D100F0A6F8054699F9DA
:10B070001810012088403864CFE710B5002407F08D
:10B08000B9F9800748BF0124204610BD10B5DFF88C
:10B090004408DFF83C2801781278DFF8004901F015
:10B0A000F80112B90222017013E0012A08BF41F031
:10B0B000010103D0022A02D141F002010170DFF840
:10B0C000500CF7F76FF900280FBF0022032204206D
:10B0D000E074227510BD10B5DFF8C048607CB0B9CF
:10B0E000A07C08280CD100F086FF092001F041F96E
:10B0F000DFF8F0090078012804D101F04AF901E0F5
:10B1000000F01BF8BDE81040002002F05EBBF5F730
:10B1100085FF1030FF280BDAF5F780FF1030C0B242
:10B12000F5F780FF207CBDE810400121FAF7D0BD83
:10B13000BDE81040012001F01CB9207C1021FAF775
:10B14000C7BD38B5DFF89849A07C052825D100F0A7
:10B1500091FB00F00BFBDFF87807DFF878570078F9
:10B16000002818BF012805D1287800F01CFF01D065
:10B1700000F0FFFA00F0FAFF00F000FB00F0AEFF75
:10B18000A878000704D5DFF85C090078012808D109
:10B19000606CBDE83240F5F72DBCBDE8314000F0F1
:10B1A000E5BF31BD80B50F20F5F7EEFCBDE80440EA
:10B1B0000221002007F02DB910B5F5F739FC04463F
:10B1C0000A2C22D0F5F770FCA0B1F5F723FBDFF8CD
:10B1D000CC27108028B9DFF8FC06017801F0F801CF
:10B1E00001700120107502F14C00DFF8501BFAF7D6
:10B1F00001FC00E00924DFF8441C00200880DFF88F
:10B20000D006007808B900F012F90CB9002010BD82
:10B21000012010BD00B585B0112200F0BFFA00AAD0
:10B2200011218120FBF7FCFB78B900AB1122002132
:10B230008120FBF734FD40B99DF8000028B1DFF80C
:10B240009406017841F01001017005B000BD2DE9B0
:10B25000FE43DFF87C4602782178DFF88076DFF85D
:10B260008058012A19D0022A00F0BF80032A00F07A
:10B27000C3801A2A04D0D32A05D0FD2A06D0D2E0F2
:10B2800008F036FAD1E000F0D4F8CEE0DFF8B01BD9
:10B2900009680A0000D08847C7E0A87C0228FBD1D3
:10B2A000012918BF0229F7D100F01EFC0600287BF7
:10B2B00018BF002800F08F80287DDFF8188690B92D
:10B2C000032001F056F8B07900F0D6FEF07A98F835
:10B2D0000230019030890090B278318806F10C007C
:10B2E000FEF7D3FD4EE0032851D1002000F089FA8B
:10B2F0000128E87C04D1042814BF04200D2003E0B9
:10B300000D280CBF0E200F2001F033F8F88A4FF6FD
:10B31000FE79484517D100AB022200214920FBF7F6
:10B32000BEFC40B9BDF80000484504D0B97B01F02F
:10B330007F01B97301E0FAF7A7FBF88207F1160164
:10B340005320FAF7B5FDB88C4FF6FF71884206D14D
:10B350003088B88407F124015020FAF7A9FD0120B4
:10B360008DF8080002A95220FAF7A2FD00F05FF85C
:10B370000128B17805F14C0002D1FEF7ECFC01E0A8
:10B38000FEF7EBFC18B1FAF77FFB00F0E9F998F84B
:10B390000200000713D52078002818BF012806D026
:10B3A000022802BFDFF83C07007800283DD10020CA
:10B3B000F5F720FB00F0F9FA00F0F4FA35E0287D0B
:10B3C00098BBDFF8500B00686864DFF84C0B00880E
:10B3D000F5F710FB29E0A97B39B3401C2873FAF775
:10B3E00053FBC0B2643080B21AE0012918BF0229B1
:10B3F0001BD100F0B7F818E0012918BF022914D1B9
:10B400000020687507F1390101202875E87305F1FE
:10B410004C00FAF7EFFADFF85C1C022008700020FD
:10B4200000F009FE01E000F083F8BDE8F783012099
:10B43000E7E130B504468FB0E089DFF8941409786D
:10B44000B0F1200239D0521E012A1CD947F6DF7311
:10B45000D21A012A03D9213A012A1DD941E02046F6
:10B4600006F0B5FA05003CD0287818B96888291D7F
:10B4700005F0B9FBE089B0F5004F04BF281D00F0CE
:10B48000EDFE28462BE008A9204606F07EFA08A922
:10B49000204605F023FB24E019BBDFF83C1C0968BB
:10B4A000F9B148F221018842A169627C09780CBF98
:10B4B0000320022006F04BF913E091B900A92046C1
:10B4C00006F024FA00A806F03BF89DF8120010B12F
:10B4D0000598F9F779F99DF8180010B10798F9F770
:10B4E00073F90FB030BD10B5DFF8B044207C48F2DE
:10B4F000010108F087F8207C4FF4004108F082F841
:10B50000207C48F2210108F07DF8207C48F22201DD
:10B5100008F078F8207C202108F074F8207C2121A4
:10B5200008F070F8207CBDE81040222108F06AB8CD
:10B53000DFF89C1302780978042A04D0052A08D081
:10B54000082A09D07047012918BF022909D1FCF740
:10B55000F2B831B9FCF736B9012914BF0229FCF75A
:10B560004EB970472DE9F041DFF83044DFF86C53F5
:10B57000607DA37C227D94F811E0DFF85463DFF84E
:10B580005473411C032B82B005F116084FF6FF706F
:10B5900006D00A2B52D13B7803F00703012B55D17B
:10B5A000BEF1000F24D1FFF7C8FDFFF740FF0028D0
:10B5B00054D03178A07C002914BF01290A2806D173
:10B5C00000F0F0FC07D0082088F8100003E0032802
:10B5D00008BF00F083FD00F0C9F83078002818BFDC
:10B5E000012804D100F0DEFC01D000F0C2F8B0E088
:10B5F000012A0CD16175C9B2032908DBB8F80E1015
:10B60000814202D10020207501E000F0A4F84FF63D
:10B61000FE76F5F7FFF8B04204BFE88AB04206D0E4
:10B62000ADF80060EE8200A95320FAF741FCF6F76E
:10B63000FFFBFEF772FA0120207380E0042B18BF95
:10B640000E2B03D00F2B18BF0D2B7DD1BEF1000F99
:10B6500036D100206075FFF7EAFE38B9052000F00A
:10B6600088FE42F2107000F0F5F872E000F07EF80B
:10B67000207C4FF40051FAF748FDB878DFF86454A5
:10B68000000707D5287828B9F5F7B4F900F08DF947
:10B6900000F088F93078002818BF012804D100F0A4
:10B6A00081FC01D000F065F800F018FDB8780007C3
:10B6B00002D5287801284CD1606CF5F79BF948E059
:10B6C000012A13D16175C9B2042907DAB8F80E103E
:10B6D000814208D000F03FF804202BE0DFF8580B3F
:10B6E0000078012827D10020207524E0032A04BF18
:10B6F000307802281FD100F02EF8002088F81000C2
:10B70000DFF8B41BE07C042802D121640D2011E095
:10B710000D280BD1002085F8410000F064F80120CD
:10B7200098F90210884020640E2003E00E2802D110
:10B7300021640F20E074F6F77BFBFEF7EEF9FAF7D1
:10B74000A3F900F00DF804E01BB100F0C7FCFFF70F
:10B75000F4FCBDE8F381032020750120E0737047FD
:10B7600000F07F00643080B200F065BC062000F07D
:10B7700000BE002100220846FEF7EBBB00B587B0F3
:10B7800000A8F9F73EFF00F036F8DFF8B016002009
:10B79000088000F002F807B000BD1822002100A8C0
:10B7A000FAF744B910B5AF4C2346012200213220EC
:10B7B000FBF775FADFF8043B012200213320FBF789
:10B7C0006EFAA94821780078012906D1BDE8104019
:10B7D00064224FF40061FAF76CBCBDE810404FF4EE
:10B7E0000061FAF792BC00B587B0FFF7D6FF00F012
:10B7F00002F807B000BD00AB182200218220FBF741
:10B800004EB930B58BB00446002500AB182200219C
:10B810008220FBF744FAD0B91022002106A8FAF7DB
:10B8200005F9102206A90DF10100FAF7F1F870B937
:10B8300054B10598284900F2E24005900860FFF7EE
:10B84000DAFFDFF8F8150D800125FFF7A6FF28467F
:10B850000BB030BD38B5A24D0446287C0421FAF760
:10B860006DFC30B9287C2246BDE838400421FAF747
:10B8700020BC31BD10B59A4C207C0421FAF745FC60
:10B88000207CBDE810400421FAF72EBA10B5DFF88D
:10B89000204B00202070224601218520FBF7C0F8B4
:10B8A00038B92346BDE81040012200218520FBF76E
:10B8B000F6B910BD01210128DFF8F43A08BF0321D1
:10B8C0001970FFE7012200218520FBF7E8B800008E
:10B8D00061510020B04F0020D4500020EC490020DE
:10B8E000DE420020F8B50546FFF7E4FF41F2883458
:10B8F000204601F0CCFDDFF8BC7A3878002818BF6C
:10B9000001280AD1584E30784FF48071FAF7FDFBC8
:10B9100030784FF48071FAF7E7F938781F4E022833
:10B9200018D1012D0FD1DFF8EC05DFF88C1A006873
:10B930007064DFF8880A00880880DFF8841ADFF86E
:10B94000840A008808800020F5F754F800F02AF8EF
:10B9500000F02BF8012D1DD10220B07403203075AA
:10B960000120F07306F14C00DFF85C4A04F1390164
:10B97000FAF740F8022084F8260003203073FEF71F
:10B98000CCF8FAF781F800F07F00BDE8F2406430AF
:10B9900080B250E32046BDE8F2405BE70041002062
:10B9A0005F5100200020F5F73FB80020F5F738B8C8
:10B9B000FEB504460D4616462846FBF73CFD2846D4
:10B9C000FBF72AFCDFF8047A386850B103208DF8C1
:10B9D00008000822294600A8FAF710F8396800A8DC
:10B9E000884700F0F4F818BF012812D10020ADF804
:10B9F0000000ADF8024002208DF8080001950020FB
:10BA00008DF8090000A8FFF792F831462846F5F7AF
:10BA100038FB00212046F8F748F9DFF8AC09818CA3
:10BA20002046F6F778FA00F0E6FAF7BDFEF71AB806
:10BA3000F0B583B0044609980D4616461F4600F03F
:10BA40001BFB0898019000972246DFF88409837851
:10BA500029463046FEF719FAFEBD0000B442002028
:10BA6000B042002058510020C85000202DE9F0417C
:10BA7000804616460D461F463046FAF707F8040082
:10BA80000ED0002E18BF002F03D032463946F9F7EA
:10BA9000B5FF257021464046BDE8F041FAF717B8DA
:10BAA000BDE8F08101B5DFF82C09417B82B021B1FE
:10BAB0000021417305F0D1F90EE0016A0A0002D0BD
:10BAC00002A8884708E000218DF8011000AB007C37
:10BAD00002220121FFF7CAFF00200EBD0000000076
:10BAE000004100205E5100202DE9F0470024FDF7C1
:10BAF00060FE074602E0641CBF69E4B2002FFAD181
:10BB000000250026DFF8C0A8DFF8C888FDF751FE41
:10BB100007464FF0000909E007F10C0108F14C005D
:10BB2000F9F75AFFB0B9BF6909F101095FFA89F95C
:10BB3000A1453CDA08F14C00F6F734FC0128EBD0C3
:10BB4000DFF8940800884FF6FF7188421CBF3988DF
:10BB50008142E8D1BAF81A003989814203D14FF6FF
:10BB6000FE7188420DD100F032F818BF012803D1D0
:10BB700025B9F87828B9D6E7022802D13879002803
:10BB8000D1D078799AF812108842CCD1DFF84C18CD
:10BB9000B879097888420AD0012908BF022803D061
:10BBA000022908BF012800D10125002EBBD0A145E4
:10BBB00004DB1DB1761CF6B2022EA7DBA14503D132
:10BBC000FDF7FAFD002000E03846BDE8F087DFF819
:10BBD000E40700780028704710B5DFF8F847607474
:10BBE00040B900F0ADF800F0AFF8A07C10B9082023
:10BBF00000F0BFFB207CBDE810400221FAF768B8D6
:10BC0000B84200202DE9F041DFF8C867716A0446A8
:10BC1000080003D02046BDE8F0410847DFF8C077B0
:10BC20003D68A84609E028886188884202BFA87854
:10BC30002179884217D0A846AD69002DF3D11C2088
:10BC4000F8F75CFD050061D01C220021F9F7EEFE3B
:10BC50004FF6FE702881FF20E872386800280CBF7C
:10BC60003D60C8F81850607AA871207A6871207910
:10BC7000A87060882880207B2875207A012806D04B
:10BC800004F10D0105F10C00F9F7B4FE05E00822FE
:10BC9000FF2105F10C00F9F7C9FEDFF84817A07A7B
:10BCA0000978814232D26179012901D0F17B69B3EF
:10BCB000AA7A0021824203D2E07A142806DB06E049
:10BCC000904204D1E07AEA7A904200D20121FFF753
:10BCD0007EFF14BF0128A07902D0022801D1E079AB
:10BCE00028B9DFF8E4262088528B904206D129B18A
:10BCF00020882881A07AA872E07AE872E07908B1F9
:10BD000001202871A07908B10120E870BDE8F08118
:10BD10005042002010B5DFF8BC46607438B900F01E
:10BD20000FF800F011F8A07C08B9FFF71FFD207C88
:10BD3000BDE810402021F9F7CBBF0000254A0020C4
:10BD40000121042006F0B2BA0021082006F0AEBAA4
:10BD5000F0B5DFF88046DFF870560E0083B06674E9
:10BD60002CD1DFF85006007802281ED1F6F760F8D3
:10BD7000F6F799F8070018D01C220021F9F756FEB3
:10BD8000688B388005F11C01B81CF9F733FEA88CCC
:10BD90007881AA20B874DFF850060078401C00EBC8
:10BDA000D0704010387401207874FFF7C9FFFFF796
:10BDB000CBFFA07C10B9032000F0DBFAA16A0800D9
:10BDC00009D0E88AADF802008DF80060688BADF804
:10BDD000040000A88847207C002302220221FFF7EC
:10BDE00045FEF7BD01B5DFF8EC05416B08001CBF4F
:10BDF00000A8884701BD38B50446DFF8F00505689E
:10BE000000F0B4F9DFF8CC05007CFFF797F910E0FB
:10BE10006868007860B10420F9F738FE40B1D62197
:10BE2000017044800146686840680078F9F74FFE69
:10BE30002D68002DECD1BDE831404FE1D0500020FD
:10BE4000744E002070B5DFF88C650446307C1D46CA
:10BE50000421FAF773F908B1012070BD00F086F9EA
:10BE6000002D1CBF012D022D23D10820F8F746FC20
:10BE7000050001D1102070BDB06C10B9B56404E0AC
:10BE8000084601680029FBD10560307C4021FAF7A3
:10BE900055F900212960AC80C0F51670E88080B2A9
:10BEA000B0F5167F05D1307C4FF416724021FAF7B9
:10BEB00000F9002070BDE0B5ADF8000001918DF8EB
:10BEC0000820DFF81005C16908001CBF00A88847DA
:10BED00007BD10B50446F4F794FC0146A01CF9F721
:10BEE0007BFD58B1DFF8EC04C16A080002D020469F
:10BEF000884770B9E07ABDE81040F3E4FFF767FEC9
:10BF000018BF012805D1A27A2088A11CBDE81040E5
:10BF10004EE510BD80420020C242002038B50446E4
:10BF2000A07A01281ED1207BDFF8885498B98DF8BB
:10BF300001002878002814BF0128E07A06D00228E2
:10BF400006D1FFF72FFDFFF730FD00208DF8000030
:10BF500000A8FEF758F82878022813D10020F4F73B
:10BF600049FD0FE0F4F75AFC2388E27A83420DD1B1
:10BF7000012A07D0DFF85804007800F014F805D142
:10BF800001202073207BFFF7ADFC03E0A11C1846C5
:10BF9000FFF70EFDDFF83C04016B08001CBF2046D4
:10BFA000884731BD387800F0070002287047DFF875
:10BFB00004140978022900D0704710B5012802BF87
:10BFC000DFF81044607D00280FD1F5F731FFDFF86E
:10BFD000F81391F918100120884020640023207C78
:10BFE000BDE810400222032140E510BDF6F7E7BF8F
:10BFF0007047F4F70FBC80B500F034F8002804BF98
:10C00000BDE8014000F0B2B801BDC1890A0400D505
:10C01000704700B583B0027B62B913290AD0027C55
:10C02000019241F4004100910023811C407C842254
:10C0300006F0DDFF07BDDFF89C130B7C20B1024644
:10C0400001211846FAF735B801211846F9F740BE24
:10C0500080B500F007F8002804BFBDE8014000F0FB
:10C0600085B801BDDFF86C03007C4FF48071FAF7EE
:10C0700065B80000DB420020D5498A7892070DD5CB
:10C08000D64A1278904209D0087800F0F80040F0C3
:10C09000020008700C208870F4F7C8BF704780B5A4
:10C0A000CC48817C012918BF022906D10121817366
:10C0B0000020FFF7C0FF012002BD002002BDC548DF
:10C0C000817C01291CBF02290C2903D10021817325
:10C0D0000120704700207047104E00201CB5002042
:10C0E00001F0D5F9F4F78DFB0446F4F793FBB8495A
:10C0F0008A780023214606F026FD002001F0C7F9CA
:10C10000AC480078022802BFB948007801280BD15A
:10C1100000A8F4F787FBF4F781FBB6490B78B64922
:10C120000A7800A9F5F796FA13BD10B586B002A8F3
:10C13000F9F7FCF9040017D09DF8080088B10F202A
:10C140008DF814004FF6FC70ADF80C000020019043
:10C150001F20009023469DF80820A84803A906F058
:10C160000EFD2046F8F730FB06B010BD9149994806
:10C170000978007C022907D0002918BF012907D1BE
:10C180009149897B890703D44FF48071F9F7A0BDE9
:10C190004FF42F724FF48071F9F78BBF401C80B2BF
:10C1A000704700B583B0ADF800008DF80210019221
:10C1B0008848816908001CBF00A8884707BD002087
:10C1C0000021844A02EB8002401C09289161F8DBBF
:10C1D0007047092803DA7F4A02EB80000AE0022058
:10C1E0007047092804DA7B4A02EB8000002101E055
:10C1F0000220704781610020704710B50446262256
:10C20000FF21F9F713FC002084F8240010BD38B595
:10C21000704CE06B70B97220F8F770FAE06348B1C7
:10C220000025E06B262101FB0500FFF7E6FF6D1CF2
:10C23000032DF6DB31BD00003A4200206548C16B9A
:10C2400051B10022262000FB021090F8243023B1C7
:10C25000521CD2B2032AF5DB00207047FEB55D4DBB
:10C260000446E86B38B30026262000FB06F7E86B8F
:10C270003818082221460C30F9F7CAFB012817D1DB
:10C280008C208DF80800E86B3818837D418900F117
:10C290000C02007AFEF78CF818B98DF80800FFF749
:10C2A00065FFE86B00F057F8E86B3818FFF7A5FF5B
:10C2B000761C032ED8DBF7BD00F8FF07595100208C
:10C2C000F0B5444CE06B0026002887B034D0002540
:10C2D000262000FB05F7E06B381890F8241002299F
:10C2E00004DB491E80F82410012621E001291FD11A
:10C2F0008C218DF8081004218DF80C1000F10C0130
:10C3000004A8FAF79EFD03A8FAF739FE012802BF38
:10C31000BDF80E004FF6FE71884204BF03A8FAF77D
:10C32000CEFDE06B00F017F8E06B3818FFF765FF03
:10C330006D1C032DCCDB2EB9207C4FF48051F9F716
:10C34000E4FE06E0207C4FF47A724FF48051F9F756
:10C35000B0FE07B0F0BD3818012390F8221001910B
:10C3600048F2210202A9009100F11801233006F0E1
:10C37000D4BA184A917C814204D090741021107C68
:10C38000F9F7A6BC70471E49086070471D49086050
:10C39000704780B5F9F778FB42F2107108400A182F
:10C3A0000C48007CBDE808404FF48041F9F781BE9D
:10C3B000575100206151002048510020C042002008
:10C3C0004A510020BE420020EC490020004F0020CE
:10C3D000B04F002000410020CE420020DC4200206F
:10C3E000604A0020D642002022AF21009C4200205B
:10C3F0005E5100205D510020EA4200206C41002087
:10C40000B4420020B042002010B50024002000F00B
:10C4100010F8DFF8F42358215020FAF701FB0A281E
:10C4200004D020B900F098F90A2800D10124204650
:10C4300010BD70B50446DFF8D05382B058220021F9
:10C440002846F9F7F3FAF9F7F3FE06462E605CB1D9
:10C450000020ADF80000022200AB00211046FAF7E0
:10C460001EFB2B4600F0D2F9304676BD10B5DFF842
:10C47000984380B3801E32D0C63834D0401E36D0A8
:10C48000401E38D0401E3AD0401E3CD0401E3ED008
:10C49000401E40D0401E42D0401E44D0401E46D0D8
:10C4A000401E48D0401E4AD059384CD0401E50D073
:10C4B000401E54D0401E58D0401E5CD0401E60D05C
:10C4C000401E64D0401E68D0401E6CD0401E70D00C
:10C4D000401E74D010BDF9F7ABFE206010BDA088DF
:10C4E000401CA08010BD208D401C208510BD608D9B
:10C4F000401C608510BDA08D401CA08510BDE08D46
:10C50000401CE08510BD208E401C208610BD608E32
:10C51000401C608610BDA08E401CA08610BDE08E21
:10C52000401CE08610BD208F401C208710BD608F0E
:10C53000401C608710BDA08F401CA08710BDE08FFD
:10C54000401CE08710BDB4F84000401CA4F8400037
:10C5500010BDB4F84200401CA4F8420010BDB4F86D
:10C560004400401CA4F8440010BDB4F84600401C30
:10C57000A4F8460010BDB4F84800401CA4F84800D8
:10C5800010BDB4F84A00401CA4F84A0010BDB4F82D
:10C590004C00401CA4F84C0010BDB4F84E00401CE8
:10C5A000A4F84E0010BDB4F85000401CA4F8500090
:10C5B00010BDB4F85200401CA4F8520010BDB4F8ED
:10C5C0005400401CA4F8540010BD10B582B00021E6
:10C5D000002800918C4C42D0401E42D0401E46D0D4
:10C5E000623846D0401E4BD0401E50D0401E55D021
:10C5F000401E5AD0401E5FD0401E64D0401E69D0FD
:10C600005D386ED0401E6ED0401E6ED0401E6ED083
:10C61000401E6ED0401E6ED0401E6ED0401E6ED0AA
:10C62000401E6ED0401E6ED0401E6ED0401E6ED09A
:10C6300059386ED0401E6FD0401E70D0401E71D051
:10C64000401E72D0401E73D0401E74D0401E75D064
:10C65000401E76D0401E77D0401E78D07AE0206809
:10C6600077E000AB02220220FAF719FB72E0A08803
:10C670006FE000A9E720F9F70DFC0098A06069E0E1
:10C6800000A9E820F9F706FC0098E06062E000A944
:10C69000E920F9F7FFFB009820615BE000A9EA20A0
:10C6A000F9F7F8FB0098606154E000A9EB20F9F776
:10C6B000F1FB0098A0614DE000A9EC20F9F7EAFB3E
:10C6C0000098E06146E000A9ED20F9F7E3FB00984F
:10C6D00020623FE000A9EE20F9F7DCFB00986062E1
:10C6E00038E0208D35E0608D33E0A08D31E0E08DC5
:10C6F0002FE0208E2DE0608E2BE0A08E29E0E08ED2
:10C7000027E0208F25E0608F23E0A08F21E0E08FDD
:10C710001FE0B4F840001CE0B4F8420019E0B4F89F
:10C72000440016E0B4F8460013E0B4F8480010E006
:10C73000B4F84A000DE0B4F84C000AE0B4F84E003A
:10C7400007E0B4F8500004E0B4F8520001E0B4F897
:10C7500054000090009816BD38B52B4D01242B468F
:10C76000582200215020FAF79AFA40BB05F108013F
:10C77000E720F9F79DFB05F10C01E820F9F798FB9C
:10C7800005F11001E920F9F793FB05F11401EA2006
:10C79000F9F78EFB05F11801EB20F9F789FB05F19C
:10C7A0001C01EC20F9F784FB05F12001ED20F9F7DD
:10C7B0007FFB05F12401EE20F9F77AFB00242046E7
:10C7C00032BD10B56420FFF700FF6520FFF7FDFEC6
:10C7D0006620FFF7FAFE6720FFF7F7FE6820FFF7F5
:10C7E000F4FE6920FFF7F1FE6A20FFF7EEFE6B20F2
:10C7F000FFF7EBFEF9F71CFD034B04461C6000F04D
:10C8000005F8204610BD0000904B00205822002162
:10C810005020FAF744B9000080B507F015F802E09F
:10C8200080B507F00DF800B10120C0B202BD10B50F
:10C830000FF22813820853F82220136800F0030037
:10C84000C000FF248440A34301FA00F018431060A5
:10C8500010BD3E49042803D1086840F4803022E02E
:10C86000052803D1086840F400301CE0062803D1F5
:10C87000086840F4802016E00F2805D1344801688C
:10C8800041F002010160704710280DD3A0F11001A2
:10C890000FF26C12490952F821101038012200F0F1
:10C8A0001F0002FA00F0086070472849042803D1ED
:10C8B000086820F4803022E0052803D1086820F4BD
:10C8C00000301CE0062803D1086820F4802016E020
:10C8D0000F2805D11E48016821F002010160704750
:10C8E00010280DD3A0F110010FF22812490952F8B7
:10C8F00021101038012200F01F0002FA00F0086039
:10C90000704714490E2803D1086840F0006014E015
:10C910000F2803D1086840F000700EE010280DD3F6
:10C92000A0F110010FF20012490952F8211010383D
:10C93000012200F01F0002FA00F00860704706486C
:10C94000016841F0010101607047000024ED00E042
:10C9500010E000E004ED00E098200D400000000031
:10C9600018ED00E01CED00E020ED00E000E400E048
:10C9700004E400E008E400E00CE400E010E400E07F
:10C9800014E400E018E400E01CE400E020E400E02F
:10C9900024E400E028E400E02CE400E030E400E0DF
:10C9A00034E400E038E400E03CE400E040E400E08F
:10C9B00044E400E048E400E04CE400E050E400E03F
:10C9C00054E400E058E400E05CE400E060E400E0EF
:10C9D00064E400E068E400E06CE400E070E400E09F
:10C9E00074E400E078E400E07CE400E080E400E04F
:10C9F00084E400E088E400E08CE400E090E400E0FF
:10CA000000E100E004E100E008E100E00CE100E00A
:10CA100010E100E080E100E084E100E088E100E076
:10CA20008CE100E090E100E080E200E084E200E0E0
:10CA300088E200E08CE200E090E200E07047000055
:10CA400000B500BF130096469446103928BFA0E8F1
:10CA50000C50FAD85FEA417C28BF0CC048BF40F8B0
:10CA6000042BC90728BF20F8022B48BF00F8012B70
:10CA700000BD0000406940B1427803231A4204D14E
:10CA80000A46017B807805F076B9704742790179D2
:10CA9000C07805F070B92DE9F04105468846287D3B
:10CAA000383017461E46C0B2F8F7F0FF04003DD0FC
:10CAB000012020701C22294604F11C00F8F79EFF7B
:10CAC0000A224146A01CF8F799FFA781307820740C
:10CAD000B078A074707860740798E0740020E06209
:10CAE00008986061069820766889E08109986076E8
:10CAF000287D30B104F13800E0622A7D2969F8F719
:10CB00007DFF607F032108420BD03A48016808008E
:10CB100020461CBFBDE8F0410847BDE8F041F8F7EA
:10CB2000C7BF2146BDE8F04133484CE0BDE8F08185
:10CB300038B504462020F8F7A9FF050016D00420D8
:10CB40002870102220886880A0782871E0786871A9
:10CB5000A81D00F021F8E16805F11600FAF771F957
:10CB6000207CA8772946607CE87729E031BD38B57C
:10CB700004461020F8F78AFF05000BD00520287026
:10CB80000822208868802089A88100F004F8A07A13
:10CB9000A87314E031BD281D6168F8F72FBF38B5C0
:10CBA00004460C20F8F772FF050007D00620287015
:10CBB000082220886880FFF7EEFF00E031BD29469B
:10CBC000BDE834400D480078F8F781BF10B5044641
:10CBD0000620F8F75BFF60B10821017021884180D1
:10CBE000A1780171014605480078BDE81040F8F7CA
:10CBF0006EBF10BD2C510020384200201041002093
:10CC000010B500228A70CA700023027F0A75826AFA
:10CC10004B738B80838D4B83C3894B8112F8013B0F
:10CC20000B7003F00304032C65DA002C18BF022CF0
:10CC300033D103F00C040C2C08D0DB065CBF12F8D7
:10CC4000013B8B70082C08BF012300D000230C2C63
:10CC50000B7306D11378547803EB04238B80921C5A
:10CC60000AE0437903F00303012B05D10B7843F06D
:10CC70000C030B7043898B800B78DB060DD4137883
:10CC8000547803EB0423CB8012F8023F547803EB73
:10CC900004230B819378CB70D21C12F8013B4B75A7
:10CCA0000B781B0618D512F8013B4B70FC2423426D
:10CCB00021D103F00304032C1DD0032423420DD003
:10CCC00012F8013BCB750B7803F00303022B05D15F
:10CCD00012F8013B0B7601E000234B700A610B7DDB
:10CCE0009A1A836A9A180A75037F9B1A4B73D2B2F9
:10CCF000007F904202D200204873087510BD70B5C5
:10CD00000C4686B00546207800F00C01020648BFAC
:10CD100041F0800141F0020600F00301012908BF43
:10CD200046F01006800648BF46F020060C2200217F
:10CD300000A8F8F77BFE8DF8026060788DF803009C
:10CD4000ADF8005001208DF8050000A8FDF7D8FDD2
:10CD50009DF81400E8B90399012048760399A0785A
:10CD600081F83A000399E07881F83B000398E18864
:10CD700020F83E1F21894180617DC1720399207E88
:10CD800081F84C000399E07D81F84B0000A8FDF785
:10CD90001AFE06B070BD02460020537B042B00D063
:10CDA000704730B5137CDBB95269CAB113780324DC
:10CDB000234201BF4B68547B5D7DAC4210D1548946
:10CDC00009888C4202BF9188DC88A14208D1917801
:10CDD0009A7891421DBF197801F00C0104290120B5
:10CDE00030BD1CB50346084603224178114207D0E6
:10CDF0000B490C68210012D000221946A04713BD30
:10CE00000190ADF8003000A90648F5F7F6FD30B105
:10CE10000621417300210068407BFBF7CEFA13BD69
:10CE20002851002097CD200080B506F011FDDFF8D5
:10CE3000A0070FF2B51101600FF2E51141600FF28A
:10CE4000852181600FF29D21C16001BD10B5DFF821
:10CE5000844720700021DFF8800761700088DFF8C8
:10CE60007C17A08004F11800F8F7C4FDDFF8700704
:10CE70000078A070DFF86C07A06010BD2DE9F04FBE
:10CE80000D46280485B0DFF84C674CD53078F8F7AC
:10CE90004DFE5FEA000B43D00BF114040BF10209C5
:10CEA000A07A002804BFE089132815D1B9F800A0A2
:10CEB0003069002702E0F7F787FC404660B102883E
:10CEC0004168524505D1002F884614BF7960316111
:10CED000F1E707460846F1E7617F484600F02CFB82
:10CEE000D8B99BF80000012812D1607903900BF1AA
:10CEF000100320680290494699F8110001902079AA
:10CF000000900BF11C00B9F80A2004F066FF04E061
:10CF1000022804BF5846FDF7D0FC5846F8F7C8FD74
:10CF200085F4004024E0DFF8C0060078002818BF30
:10CF3000012808D1E80706D5F068010018BF80472E
:10CF400085F0010014E0A80704D50120F07085F0F9
:10CF500002000DE028070AD500F0ABFA20B9706195
:10CF600008213078F9F7D1F885F0080000E00020BA
:10CF700005B0BDE8F08FDFF85C26137818B1D160FA
:10CF8000024601218FE2D06001218FE238B50446CC
:10CF90006068007D1030C0B2F8F778FD050022D03F
:10CFA000022028700020687020886881A07828738B
:10CFB0006068007D287205F1100068606068007884
:10CFC00010F0200118BF012169726068027D0169BB
:10CFD0006868F8F713FD2946BDE83440DFF8F4052A
:10CFE0000078F8F774BD31BD38B50C4611461A46C5
:10CFF00006F025FD050011D0214606F0DEFC68B1E3
:10D000002146284606F0EAFC30B96C88284606F02E
:10D01000CBFC204606F0C4FD002032BDB42032BD5A
:10D020002DE9FE4381460D46B3264FF00008002748
:10D0300000E07F1CDFF8B4050078FFB287423ED2E3
:10D04000384606F05BFE0400F3D0607940445FFA96
:10D0500080F8C145EDDA182200212846F8F7E6FCF1
:10D060006179A9EB08000818C0B204EB4000C08841
:10D070006881F3F7C6FB01462846F8F7BBFC6078E9
:10D08000012802D12875608813E0608800A906F0A5
:10D09000B7FD78B19DF8080028759DF808000328B1
:10D0A00005D100A905F10C00F8F7A4FC02E0BDF8D9
:10D0B0000000A8812078287200262079A8753046C3
:10D0C000BDE8FE83428913070BD5920708D5427B42
:10D0D000062A18BFE92903D0CD2918BFF02900D1AD
:10D0E00067E170472DE9FD4F0E46F188F07884B076
:10D0F00006F012FD5FEA00084FF0000B72D0317DA0
:10D10000C0B204F04DFD04006CD0F188F07800222C
:10D1100006F01DFD0546F0786071D946F088E08084
:10D12000B07D608184F808B0327D3169E068F8F73D
:10D1300065FC1398608214982075DDF844A034E0F3
:10D14000688806F076FD788028793871317849064C
:10D1500003D5B97941F00201B971BBF1000F01BFEC
:10D160007988DFF88C24D28A914214D1B0700020E3
:10D170000390CDF804A01298059B0499029000201A
:10D180000090DFF86C04828C3046FFF784FCB8799D
:10D1900040F00500B87109F10107F188F078FAB2A2
:10D1A00006F0D5FC05465FFA87F97DB1C1450DDA79
:10D1B00004EBC90000F116070020387068780128D8
:10D1C000BED138704FF0010B6888BCE7204604F0F0
:10D1D000FCFC0094109A9DF818105346304600F05D
:10D1E00014F80FE0F0788DF80300B8F1000FB07D6F
:10D1F0008DF804000CBFB92010208DF8050000A8A0
:10D20000FFF744FC07B0BDE8F08F2DE9FF4F87B072
:10D21000149C204604F098FC0546204604F0AAFC25
:10D22000002D804600F0C2804FF0000A04E040F07C
:10D230000800B0710AF1010A5FFA8AFA207C82457F
:10D2400080F0B080EDB2002D00F0AC8004EBCA009D
:10D2500000F11606B079C007ECD4DFF88C03007833
:10D26000002818BF01284FF0000915D1307898B96F
:10D270007088F7F7F3FD78B10079012818BF03280B
:10D280000AD1B0795FFA88F840F08000B8F1000F59
:10D29000B0714FF00109CDD09DF828004FF0000B80
:10D2A000082708B14FF0200B0C22002100A8F8F746
:10D2B000BDFB3078B8B1CE4890F86800012809D19C
:10D2C0007088ADF800004BF0080BFF2041F2080712
:10D2D000307111E00799708888804BF00C0B0C2797
:10D2E0004FF6FF7006E09DF8200010B14BF0400BA8
:10D2F0000A277088ADF8000007988DF802B0007D0D
:10D300008DF8040001208DF8050000A8FDF7F8FA5B
:10D310009DF81400B0BB0398407D70710398C782DC
:10D320009DF824104176307820B1B148039990F8E7
:10D33000680008770398618920F8281F618A418076
:10D34000217D01710399607981F83A000399307960
:10D3500081F83B0007990398C98820F83E1F079978
:10D36000098941800799497DC17207990398898885
:10D37000818707990A7D0969406CF8F73FFB00A88F
:10D38000FDF721FBB07940F00100B0719DF8141059
:10D3900000297FF44CAFB9F1000F18BFA8F10108C4
:10D3A0006D1E47E70021204600F045F80BB0BDE8B0
:10D3B000F08FF0B5044689B0207B0F4604F050FC96
:10D3C000060023D065691FBB217B042204F05DFCAD
:10D3D000E5B1A888ADF80E00E888ADF81000287A0D
:10D3E0008DF81C00F068069000208DF81D00206864
:10D3F000006A00788209287800F0200300F04001DC
:10D4000008BF0422009602A8FFF7FFFE09B0F0BD96
:10D41000217B082204F039FC0028D9D0002DF5D05A
:10D4200001977189C9B20091037942880178A8787F
:10D4300004F0B5FCCDE77CB501220123002402E015
:10D440000023641CE4B2057CAC420BDA00EBC4059B
:10D450002D7FEE07F4D50C263542F1D06D07F0D5BF
:10D460000022EEE7047A7CB90BB901290CD1012125
:10D47000017241798DF8031040898DF804008DF810
:10D48000052000A8FFF702FB73BD0121D3E7514936
:10D490000B7820B10022CA700221024603E001206D
:10D4A000C870022102E01846F8F703BE1846F8F7E4
:10D4B0002CBE2DE9F8434E48464E807B00250024C3
:10D4C000376900074FF001091ED4F8F7B1FE716902
:10D4D000421A48490B889A4238BF01202AD346494C
:10D4E0000978B2FBF3F81FFA88F8414534BF894642
:10D4F0005FFA88F903FB182189B2401A706103E0D2
:10D500003846F7F761F947469FB1F8788145B4BFCF
:10D51000A0EB09000020F870F978786829B9002C90
:10D52000804614BF60603061EAE73C466D1C0746E8
:10D53000EAE7A8B2BDE8F283F8B5264C027A25697D
:10D540000E46022A294641D1078800E0496851B1B8
:10D550000888B84204BF8878B042F7D126480078DE
:10D56000C8700120F2BD002035B1012001E0401C4F
:10D570000D4669680029FAD12049098880B288429D
:10D5800024D20820F7F7BAF800B3078086701A494A
:10D59000174E0978C17000214160216909B16860A6
:10D5A00006E02061B07B000702D4F8F741FE60611D
:10D5B000B07B00070AD520780821F8F7BFFD28B90D
:10D5C0000C48028820780821F8F782FD0020F2BD7F
:10D5D000F04F002038420020C6420020A850002012
:10D5E000ED420020A05000206151002078AF2100C2
:10D5F000EC490020CA420020EF420020CC4200202B
:10D600000448016841F001010160416841F00301F3
:10D610004160704780B70840002106F0A9BC0000B7
:10D6200080B50020009001230022084606F008FD86
:10D6300000BF06F049FD0028FAD0FFE7BDE8014031
:10D6400006F04DBD70B588B00D46002106911199C8
:10D650000C9C109E0591049600F035F806F07EFDB6
:10D6600000280CD100BF06F0FEFD0028FAD032469B
:10D670002146284608B0BDE8704006F0FFBD08B05E
:10D6800070BD0000F0B587B00D46002106911E4622
:10D6900011990C9C109F0591049700F014F806F066
:10D6A00031FE00280DD100BF06F0AFFE0028FAD0F1
:10D6B0003B4622463146284607B0BDE8F04006F01A
:10D6C000A5BE07B0F0BD0021039100940E99029110
:10D6D0000D9901912946704762F30F2262F31F42B0
:10D6E000401810F0030308D0C91A1FD3DB0748BF46
:10D6F00000F8012D28BF20F8022D130030B4144685
:10D700001546103928BF20E93C00FAD8490728BF40
:10D7100020E90C0048BF40F8042D890028BF20F8FC
:10D72000022D48BF00F8012D30BC7047C91818BF42
:10D7300000F8012DCB0728BF00F8012D704700002D
:10D7400080B568B9FF20F8F7F6FA0021002006F04E
:10D75000C9FE16490020087001201549087001BD56
:10D76000144900200870BDE804400FF2390106F0AA
:10D77000B9BE70B5104E04463078FF280D460DD066
:10D780000420F8F783F938B1C02101708570C470A6
:10D7900001463078F8F79BF9002070BD012070BD7C
:10D7A00000000000810801F00101E2E7C04F002005
:10D7B0006451002053510020D742002006F03DBFA5
:10D7C00003480021817101807047014988717047C9
:10D7D0009050002080B51420F6F790FF12490860A1
:10D7E00014220021F8F722F9002007F0BDF80120EB
:10D7F00001F040FC0220FAF769FB0320FFF726FB4B
:10D80000042007F0FBF90520FDF78EFA062007F04B
:10D81000EBFC072007F0EEFE082008F037FBBDE820
:10D820000240092000F016B8F4500020734921008E
:10D830007DF02000157F20007DCE20001B512100AF
:10D8400001AE20001F52210007562100055D210076
:10D8500069D8200012490870704780B5FFF7D0FEE4
:10D86000BDE8014008F0F2BC38B50C4620040BD5E9
:10D870000B4D01E0F8F71CF92878F8F757F9002864
:10D88000F8D184F4004032BDA00602D584F0200017
:10D8900032BDE00602D584F0100032BD002032BD5A
:10D8A0004C51002008F0D4BC10B592480FF2BD6175
:10D8B000D94C41650FF2FD7181650FF27D51E16236
:10D8C0000FF2295121630FF6310161630FF66501F3
:10D8D000A1630FF60101E1630FF2B93121640FF288
:10D8E000B95141640FF20D6181640FF27D51C16441
:10D8F0000FF6B5010165206908B1F6F765FFDFF89D
:10D90000480C0B49A0600B220820207300202061E6
:10D9100081F820002075002104F11500F8F786F841
:10D9200004F12000BDE810400B220021F8F77EB87A
:10D93000004000203EB50446201D05214182032100
:10D9400001740168491E01604A1E026094F8362085
:10D950000A7094F8361011B14FF6FF710186016814
:10D960004A1E0260028E120A0A700268018E11704D
:10D970000179C91C017100A804F12B01F8F73AF8EC
:10D9800003208DF8080000AADFF8C00BC38C032128
:10D99000204601F0A5FC050004BF204600F0B8FEBB
:10D9A00028463EBD38B504460D466068411E100A43
:10D9B000087001F8012C049801F8020CDFF88C0BB8
:10D9C000428D120A01F8032C408D01F8040C180A4C
:10D9D00001F8050C01F8063D207A626861601018B4
:10D9E000401A2072DFF8741C287A03280CBF01202B
:10D9F0000020E0820B220920207504F12000F7F7B7
:10DA0000FDFF4FF6FF732A460321204601F068FC14
:10DA1000050004BF204600F07BFE284632BDDFF83B
:10DA2000EC1C897A0829A8BF072101700078C0067C
:10DA3000000E70472DE9F04705460F469246FEF767
:10DA4000EFFEDFF8C88CD8F8004000F00100002697
:10DA500080F0010913E0607E400613D560684178CC
:10DA6000C1F3810103290DD1ED1F411D2846F7F7B0
:10DA7000C1FF103654F8084C6D1EF6B27F1EFFB27F
:10DA800027B101E054F8084C002CE4D1B9F1000FA3
:10DA900018BFFEF7C1FEFEF7C3FE00F00100D8F884
:10DAA000001080F001000BE0927905F80129761C46
:10DAB0004A68527905F80129F6B27F1E51F8081C10
:10DAC00089B14A685378C3F38103022BF6D14B7EA8
:10DAD0005B06E9D40A7E9206F0D5FFB20122002F40
:10DAE0008AF80020EAD108B1FEF796FE2E70681E73
:10DAF000BDE8F087804000202DE9F04385B0044662
:10DB000000208DF80000884691460DF10100FFF7D6
:10DB100086FFDFF8385A297B401800F13D06F6B23F
:10DB20003046F7F7B3FF070048D0F01978600020BF
:10DB300038722A7B7868A968861A3046F7F75EFF44
:10DB40009DF8011000AA701EFFF774FF0021964A8D
:10DB5000017012786978920142EAC11141EA091113
:10DB600041F00F0100F8011C44EA081100F8021D01
:10DB70007A68397A78605118091A00203972F88267
:10DB800038758DF80C000B22DFF8881C07F1200097
:10DB9000F7F734FF9DF8000018B1F88A40F008004C
:10DBA000F88201F03CFB0146002301AA384601F04F
:10DBB00097FB0028384602D0F7F77AFF002005B01F
:10DBC000BDE8F083F8B50446FEF72AFE00F0010038
:10DBD00080F00105DFF8340B076800260EE0787E40
:10DBE000000609D56168786801F026FB20B1787ECF
:10DBF00000F0BF0078763E4657F8087C002FEED143
:10DC00001EB1707E40F040007076002D1CBFBDE854
:10DC1000F140FEF701BEF1BD604D00202DE9F84353
:10DC200080468946FEF7FCFD00F0010080F0010708
:10DC3000DFF8D80A0668002400250CE0354605F117
:10DC40001800417841F010014170017841F08001E5
:10DC5000017056F8086C9EB1707E0006F9D57268A6
:10DC60004946404601F004FB0028F2D0002DE5D0E3
:10DC7000287D012804D16868017841F01001017005
:10DC80000FB1FEF7C9FD15B100F0EAFC01242046F2
:10DC9000BDE8F2832DE9F04182B000240094FEF744
:10DCA000BFFD00F04BF880F001050EE057F8088C3E
:10DCB000224639463046F7F7C9FF394600A8F7F73C
:10DCC00080FFB07A401E4746B07267B1787E00068A
:10DCD00005D5788A401E788280B20028E6D03C467E
:10DCE00057F8087CF1E70DB1FEF796FDB07AB0B1B8
:10DCF00000F02AF81EBFDFF8000C90F82000002882
:10DD00000DD1DFF89C4C204602F0A2F830212046CD
:10DD100002F085F803E06070204600F0E6FB00A802
:10DD2000F7F76FFF040007D0FFF74CFF607E400756
:10DD30004CBFE920F020EEE7BDE8F381DFF8646C2A
:10DD4000376800F001007047DFF80008407B0F28BB
:10DD50007047000070B50546FFF734FFDFF8AC49A7
:10DD6000DFF8E867A06B80470128F08D08BF401CF2
:10DD70006882A07A002804BF707B0F2808D1DFF8E2
:10DD8000205C284602F064F83021284602F047F86B
:10DD9000FEF746FDA17A491CA172002804BFBDE828
:10DDA0007040FEF739BD70BD384C002038B50446D0
:10DDB000DFF8F05B607E00F0EF0060762046FFF752
:10DDC00001FF21462846F7F733FFFEF729FDA97A20
:10DDD000491CA97208B9FEF71FFDFFF7B5FF04D172
:10DDE000BDE83240082001F063B831BD10B50446EB
:10DDF000DFF85807407886B0B8B101208DF80000F0
:10DE000004F11C0100F014F80DF10200F7F7F2FD27
:10DE1000606800788DF80A0004F10F010DF10B0025
:10DE200001F0BFFB00A808F023FA06B010BD000007
:10DE300000208DF80100704710B50446FFF77AFD09
:10DE4000DC2818BFDD2808D0E42818BFF32804D048
:10DE5000DE281CBFDF28DB2805D101462046BDE8AF
:10DE6000104001F02FB810BD10B586B00446062052
:10DE70008DF8000004F11C010DF10200F7F7BAFD66
:10DE800004F10F010DF10A0001F08BFB00A808F06E
:10DE9000EFF906B010BD000030B5044604F13405BA
:10DEA00085B0A87820B304F12B0101A8F7F7A2FDF3
:10DEB00003208DF80C007E48017D0388009101A9A4
:10DEC0002A882046FFF76EFDDC2818BFDD280BD01E
:10DED000E42818BFF32807D0DE2818BFDF2803D0B6
:10DEE000E82818BFDB2803D10146204600F0EAFFEE
:10DEF00005B030BD2DE9F8430446FEF791FCDFF88C
:10DF0000A46A376800F001004FF00008E72580F0B0
:10DF1000010902E0B84657F8087C97B1787E000600
:10DF2000F8D5387D012802BF97F839002179884259
:10DF3000F0D1424639463046F7F788FEB07A401EA7
:10DF4000B072B9F1000F18BFFEF766FC3FB138465A
:10DF5000FFF738FEF021384600F0B4FF00252946CF
:10DF60002046BDE8F44300F0ADBF000030B50446E4
:10DF700085B06078F32818BFDF281ED0E82818BFC6
:10DF8000DB281AD0204600F029F8050014D1207CA7
:10DF900090B104F11101092000F090F960B100F096
:10DFA00011F8FFF7FFFC0546F32D18BFDF2D03D056
:10DFB000E82D18BFDB2D03D16570204600F07AF8FC
:10DFC00005B030BD02218DF80C104FF6FF72ADF890
:10DFD0000420A17A009101A92389704738B504462D
:10DFE0000025A07A0B381328207B28BFE8251028AD
:10DFF000A8BFE82501DA0F2804D07D49097A09076E
:10E0000058BFE825617B884202D20F2918BFE82556
:10E01000DFF83805408D4FF6FF71884208BFEC25C8
:10E020002420F6F76BFBDFF87819086120B1242271
:10E03000211DF7F7E3FC00E01A25284632BD70B534
:10E040000446DFF80805217ADFF8D06BC51CA972F9
:10E05000617A80F82C10E07A2870A07A307008F08D
:10E0600039FA307838B1211D502001F057FFA11D39
:10E07000E12001F053FFDFF88018012081F8200033
:10E0800004F10D01A87ADFF8105D0F2814BF0120FC
:10E09000002028750B2205F11500F7F7AFFC04F1FD
:10E0A000180105F12000BDE870400B22F7F7A6BC6F
:10E0B0008A4A002010B50446607820B9DFF8D80CF1
:10E0C0000069FFF7BCFF2C2020702046BDE81040FF
:10E0D00000F04CBF10B5DFF8C01C0446086918B149
:10E0E00000220A61F6F770FB082020702046BDE888
:10E0F000104008F0BDB80000DFF8A418DFF8F807FA
:10E10000097D90F8200081F00101084200D170479C
:10E1100080B5DFF8380490F82C10C31C1A78987A70
:10E12000FFF7EAFC00281CBFBDE8024000F0F0BA8F
:10E1300001BD000030B505460124A87B400789B029
:10E140001ED5E98E05F11C00FFF768FDC0B9DFF8A8
:10E15000580D407908B1002412E00B2205F10F019F
:10E1600006A8F7F74BFC01F05AF806A9019105F152
:10E170001C02302100910146EB8E012001F068F96C
:10E1800010208DF8080005F11C010DF10A00F7F7C9
:10E190001AFCE88EADF814008DF8164002A808F0BD
:10E1A00067F809B030BD0000DFF8700A0078002879
:10E1B00018BF01F02DBB70470D4800F154010162FA
:10E1C000DFF8E81C416200F1440181620FF2240192
:10E1D0000164DFF8E81C0166DFF8E41C8167DFF802
:10E1E000601DC167018941F0020101817047000093
:10E1F00080400020030471040204600411047004D0
:10E200000204020401040204100461040004140462
:10E2100063047304720462044304000413040604D8
:10E2200000040004040412040004000400040004B8
:10E2300051046400000400040004440400040004C9
:10E24000000400046504000435048104640005042E
:10E25000000483040004000002460146032000F08D
:10E26000D3BE02460146052000F0CEBE014608207E
:10E2700000F0A2BE0FF2692010B5DFF828476063F6
:10E2800082B00FF24D20A06304E02046F7F7B9FCFE
:10E2900000F010F820680028F7D1606828B1201D30
:10E2A000F7F7AFFC00F006F8F7E72060A072E07225
:10E2B000207313BD009000A800F058BF38B5044685
:10E2C0000FF23800255C2846F7F7E0FB20B129184B
:10E2D00041600021017232BD0220F7F7D7FB50B137
:10E2E0000FF27821615C01701A214170014600F043
:10E2F00085FEF7F7ECFB002032BD000000424648E7
:10E300004045453F354D3600821DC907D2B210D574
:10E310000A2192FBF1F10A2303FB1121C9B241B199
:10E320000A32521AD2B20529A4BF0A32D2B20B3233
:10E33000D2B21328ACBF142006208018C0B2093016
:10E340000A2190FBF1F0C0B2704780B5DFF8B40C41
:10E35000007A800704D508F074F810B1012002BDDE
:10E36000002002BDDFF89C0C007A80070DD5DFF895
:10E370009C03807A38B9DFF88005C06F28B1407EF1
:10E3800010F0800002D00120704700207047DFF8B5
:10E390007C13DFF8142B097B9278914238BFF7F792
:10E3A00075BB0020704780B500F0E0FE002002BD84
:10E3B00031B5007BD54C20B1012823D0032823D0D0
:10E3C00036E0624D687B0F2805D000F0C7FD10B91C
:10E3D0000098E16A8847009995F83A0088731420FC
:10E3E00000990870201D0099F7F7EBFBFEF718FA6B
:10E3F000217B491C217308B9FEF70EFA202000F09A
:10E4000057FD31BD1520EBE70098007A80B10098E8
:10E410004168491C416011F8010D0099487300984A
:10E42000C07D00280098407B05D008B10A2814DB85
:10E43000FFF741FF31BD50B10A2808DA009A0FF208
:10E440003C03127AC11811F8011C8A4205D0082831
:10E4500002BF0098007A0828EAD100980099007A53
:10E46000401E087200980099407B0A30087000989E
:10E470000099407B401C4873B4E70000020402018D
:10E480000101010902000000DFF81805C06B01005E
:10E4900018BF00470020704738B5044604F1140047
:10E4A0000121017004F138014A88438C42800A79C5
:10E4B000C2714A79027204F12C020978204600F0F8
:10E4C0000FFF050004BF204600F022F9284632BDA8
:10E4D00080B500F043FD08B1202002BD012002BD3F
:10E4E000417E41F001014176704710B5017D027E09
:10E4F000012906D1130704D4BDE81040417800F08B
:10E50000E1BC5406DFF89C3404D5BDE810404078E7
:10E51000196B0847012903D1120748BF30210BD4DA
:10E5200042781B2A08BF222106D0002A0CBF0FF216
:10E5300020020FF22802895C01700146BDE81040FC
:10E54000187CF7F7C4BA0000B1EE2000644A00203E
:10E55000303016181920231A1C1E300030301718BE
:10E560001921301B1D1F300070B5DFF88C430646A3
:10E57000E06F002870D0DFF8BC5C26B11B2E05D1FF
:10E58000017D052952D00021417051E0E92E2DD1A5
:10E59000807E30B907F05EFF18B1E06F807D4007E4
:10E5A0002DD5EE2008F0B4F8E06F817E00293ED032
:10E5B000827D520705D4491E8176BDE8704008F07F
:10E5C0005FB9017E01F07F010176E06F017D0329D3
:10E5D00003D1417E41F004014176ED2008F098F826
:10E5E000DFF8201AE06FC96F884724E0E12E15D1CB
:10E5F00007F030FFD0B1E06F807D400716D4E16FA7
:10E60000A87C8876E16F4968287888702878401C53
:10E6100028700120BDE8704008F093B81C2E05D189
:10E620003A49096C88470020E06770BDE06F46708A
:10E63000E06FFFF75AFFE06F807D000605D5287E6A
:10E6400007F098FFE87D07F05BFF0020E0671020EF
:10E65000BDE8704000F02CBC70BD0000754D00207E
:10E660002DE9F041FEF7DCF800F00100A24D80F04A
:10E670000108E86F002488BB244FB86B80473E68D0
:10E6800040F0100002E0344656F8086C36B3717E54
:10E6900001408142F7D1224631463846F7F7D6FA93
:10E6A000EE67707E000620D4F87A401EF872B8F14A
:10E6B000000F18BFFEF7B0F8EC6FE18A207AFFF781
:10E6C00023FE3881A07D000613D5E07E07F052FFBF
:10E6D000E86F007FBDE8F04107F012BFB8F1000F0E
:10E6E00011D0BDE8F041FEF797B8B87A401EB87275
:10E6F000DDE7207EBDE8F041400800F0010080F039
:10E70000010008F01EB8BDE8F08100001C4D00209B
:10E7100038B5044600F022FD217EDFF88C0709079A
:10E7200004D4217D012908BF027800D042789D4D94
:10E7300021462846F7F7A9FAD0B1696B20468847E9
:10E74000A07D40070DD4FEF76BF8E97A491CE97209
:10E7500008B9FEF761F8E08AC0050FD4BDE8314082
:10E760007EE72046BDE83440DFF89818896F0847F7
:10E77000F12060702046BDE83240B6E631BD6FE75B
:10E7800010B5DFF880180A8904460020930704F1C9
:10E79000340103D48B795B0748BFE82060231A4219
:10E7A00003D18A79920748BFE820DFF8302B237A1B
:10E7B00092799A420A7938BFE820002A02BF097884
:10E7C0000029F52004D010B92046FFF765FE20B1DE
:10E7D00001462046BDE8104074E310BD0D210170D4
:10E7E00007F046BD00210170417090F83A30DFF823
:10E7F000B8166C4A09785B0704D4D37A8B4204D3E9
:10E80000F1215FE3937A8B42FAD20146107CF7F74D
:10E810005EB90000804D002010B5044604F1580098
:10E8200080B2F7F733F918B100F158010472416072
:10E8300010BDDFF8140C0FF27111016000220FF20D
:10E84000953141600FF2E11181600FF21921C16031
:10E850000FF21D3101610FF2D92141610FF2AD219B
:10E8600081610FF2BD31C1610FF2014101620FF20E
:10E87000554141620FF2854181620FF21D21C16253
:10E880000FF2E90101630FF2D10141630FF2D521CB
:10E8900081630FF25141C163DFF8B01B01640FF2D5
:10E8A000754141640FF2C5418164DFF8340D00F118
:10E8B0005C010A70CA7002220FF2F55140F83C1F49
:10E8C0000161027101210175704700B585B0022216
:10E8D0008DF800208DF8010008B14FF6FF71ADF8FA
:10E8E00002100B22DFF8FC1C01A8F7F787F800A83C
:10E8F00007F0BEFC05B000BD0040002080B50A2234
:10E900008DF801008DF800208DF8021000A807F0A6
:10E91000AFFC01BD3EB50446251D0120688204F10F
:10E920002E010220287400A8F7F74DF82868AB8E56
:10E93000401E286000AA94F83A10017083212879BB
:10E94000401C2871204600F0CBFC050004BF204687
:10E95000FFF7DEFE28463EBDDFF8140D90F83500C7
:10E9600030214143DFF80C0D01F059BA30B5DFF822
:10E97000004D607B0F2893B006D02E208DF800004C
:10E9800000A800F0F3FA09E000F0E6F8608E142128
:10E99000B0FBF1F105F1340001F041FA13B030BDE4
:10E9A000604D00201C4D002038B50446607888BBBF
:10E9B00004F12E05297A02291CBF0329E82094F8C6
:10E9C0002B100B39132928BFE82024D210BB04F1E7
:10E9D0002B01E12001F0A2FA04F13801502001F0EE
:10E9E0009DFA297ADFF8880C022902D1298801844E
:10E9F00006E04FF6FE71018416302946F6F7FAFF5D
:10EA00000B2204F12001DFF8DC0BF6F7F7FF2046BC
:10EA1000FFF780FF30B16070172020702046BDE8FE
:10EA20003240A3E231BD000010B5DFF8B44B94F8DA
:10EA30005F0086B0A0B9012084F85F0008F02EF8CE
:10EA400002A800F0DDFB04F15400019002AA0120AD
:10EA500000900321DFF8180CC38C052000F0F8FCAF
:10EA600006B010BD10B500F0F3F82078202804BFE0
:10EA7000EB20607000F0A8F844BF01F0FB0180F8C3
:10EA80005F1000F0E1F800D5E6E02A202070204673
:10EA9000BDE810406AE2000070B5044682B0012073
:10EAA00008F00EF800F058F805F1440001F0D0F934
:10EAB00000F026F8ADF800006068867846B900A935
:10EAC000532001F02BFA04F11C014A2001F026FA30
:10EAD0000B2204F10F0105F15400F6F78FFFBDF88A
:10EAE00000103046FFF7F1FE95F85F00800703D570
:10EAF00060780021FFF702FF002085F85F0073BDFA
:10EB000060680178407801EB0020704710B504463A
:10EB1000EB206070DFF8100C90F85F00800703D5E1
:10EB20000021EB20FFF7EAFE4FEA0400BDE81040A9
:10EB300038B500F08DF800F00FF805F1440001F051
:10EB400087F905F15C0000210170C1704FF6FF717B
:10EB50006078BDE83440B8E6DFF8CC5B05F13400FE
:10EB600001F076B910B50446FFF7D0FFC0E0000011
:10EB700010B500F06DF8207A002814BF0020EB20BB
:10EB800000F021F844BF01F0FB0180F85F1000F0B5
:10EB90005BF80BD501F0FD0180F85F1000F08CF8F8
:10EBA000ACBF01210021FFF7A9FE08E0C80706D588
:10EBB0002A202070EB206070204600F0D7F9204614
:10EBC000BDE810400AE66070DFF85C0B90F85F105B
:10EBD0004A0770471CB50446DFF84C0B90F85F10ED
:10EBE00041F0020180F85F10012007F057FF6078C4
:10EBF00068B900F014FB04F110010191221D0121FC
:10EC000000910146E389052000F022FC60706078E5
:10EC100018B1BDE81C40002170E613BD384C00203F
:10EC200010B500F015F82078202804BFEB206070A4
:10EC3000FFF7CAFF44BF01F0FB0180F85F1000F04E
:10EC400003F800D508E010BD90F85F108A07704700
:10EC50000446012007F034BF01F0FD0180F85F1089
:10EC600000216078BDE8104048E6000038B5FFF7A5
:10EC7000EFFFFFF771FF207A002814BF0020EB2080
:10EC8000607095F85F00410744BF00F0FB0085F815
:10EC90005F0095F85F0081070AD500F0FD0085F858
:10ECA0005F0000F009F8ACBF01210021FFF726FE4C
:10ECB0002046BDE8324091E5A07B00F0100001281D
:10ECC0006078704710B5FFF7C3FFEB20FFF77BFFBD
:10ECD00044BF01F0FB0180F85F10FFF7B5FF00D5DE
:10ECE000BAE710BD10B500F010F82046FFF7EAFFB4
:10ECF0002046BDE8104000F019BD000010B500F03E
:10ED000004F82046BDE81040DCE70446DFF8F80BC5
:10ED100001F09EB810B5044686B004F11C01DFF87E
:10ED2000EC0BF6F73DFEF0B109208DF80000EF2066
:10ED30008DF80100FFF7E4FEADF8020004F10F01C9
:10ED4000606800798DF80400207A082806BF6068A2
:10ED5000C07900208DF805000DF1060000F021FCBF
:10ED600000A807F085FA06B010BD000000F050BD05
:10ED7000A448DFF8D41681613831C1610FF21C015B
:10ED800041630FF27C018163DFF8581CC165018982
:10ED900041F0010101817047604D002001017101C6
:10EDA0000101010111010101310101010101800194
:10EDB000100161013B0014006301730172016201E3
:10EDC00043010001130106013D0135000401120158
:10EDD00000010001000100010401040133013301BD
:10EDE0003C014401320136000001000165010001CF
:10EDF000350081010001050182018301000100004D
:10EE0000030271023001600211027002010202026B
:10EE100002028002100261023A00410063027302A2
:10EE20007202620243020002130238000002000272
:10EE300004021202000200020002000204020402A4
:10EE4000370037003C024402000239000002000291
:10EE5000650200023502810200020502820283027D
:10EE600000020000024601460220CDE001460620D5
:10EE7000A2E010B5634C206882B010B1204600F0CB
:10EE800075F90020A072DFF80C0C006850B102E0A8
:10EE900000A800F06BF900F0B1F8F6F747FE002883
:10EEA0000090F5D113BD00001CB121008C4D002055
:10EEB0000146DFF8300C007CF6F70ABFA9D8200025
:10EEC00055DD200000B585B003780FF278029A5C1A
:10EED0008DF800200B2A03D1417000F085FB2CE057
:10EEE0005AB30C2A24D11A2902D1002001901FE024
:10EEF000019090F839208DF80220C2680292028AAF
:10EF0000ADF80C20827DD20648BF002205D4DFF880
:10EF10006027837E92F83420D21A8DF80E20427F2B
:10EF20008DF80F20827F8DF81020C07F8DF81100A2
:10EF30008DF8011000A807F09BF905B000BD000096
:10EF4000ADDD20000C0E020B040B0A0708000F00B9
:10EF50002C48817A481E8041C00F70472948807A2A
:10EF6000032801D1012070470020704710B52549C2
:10EF70008A7A037801EB820203F07F03126B03703D
:10EF800002EB43035B7801EB8304246B04B18B72C7
:10EF9000037812F81320130901EB8301C9680029D3
:10EFA00004BFBDE8104000F002BB02F00F02BDE854
:10EFB000104051F822100847B0B504460FF29C00EB
:10EFC000205C82B00D46F6F761FD07000FD03C7063
:10EFD0000020787029460FF29000225C381DF6F769
:10EFE0000DFD00F00BF83946F6F771FDB3BD8DF855
:10EFF00000401A2100A8FFF765FFB3BDDFF8E40A5F
:10F00000007C704780400020F8B507460FF24C00A6
:10F010003D5C0C462846F6F739FD060015D03770E2
:10F02000002070702146A8197060002030720FF225
:10F0300038003A5C06F12000F6F7E0FCFFF7DEFF4F
:10F040003146F6F744FD0020F2BD8DF800701A211C
:10F0500000A8FFF737FF1A20F2BD00000005555346
:10F060004D581C202807020000011C181A18181CF3
:10F0700024030000DFF86C1A08747047F8B50C46DA
:10F08000A006DFF8085CDFF85C6A16D41AE0FDF72A
:10F09000C7FB317B491E317308B9FDF7BDFB3878DA
:10F0A0008DF800006F603846FFF760FF9DF80000A4
:10F0B00015281CBF281D00F059F8301DF6F7A1FDDA
:10F0C0000700E4D1200406D40AE06860FFF74EFF91
:10F0D000281D00F04BF8307CF6F728FD0028F4D10D
:10F0E000E00602D52D2000F035F8E00702D52420F7
:10F0F00000F030F8A00702D5252000F02BF86007BB
:10F1000002D5262000F026F8200702D5282000F09E
:10F1100021F8600604D5FEF78BFE2C2000F01AF8CB
:10F12000200604D5FEF784FE2F2000F013F828688F
:10F1300070B1FDF775FB2C680021296008B9FDF757
:10F140006BFB6C602046FFF711FF281D00F00EF8E6
:10F150000020F2BD8DF8000000A807E7DFF82C1BA7
:10F160004A68824204BF00204860704738B50400F6
:10F1700008BFFDF763FCFDF753FB00F001002168B9
:10F1800080F0010561B1DFF8042B5368A1F108009C
:10F190008B4204BF0021516000212160F5F714FB70
:10F1A000002D1CBFBDE83140FDF736BB31BDDFF897
:10F1B000D00B0FF2F53181600FF20141C1600FF207
:10F1C00001410161DFF8081C41610FF21D418161BD
:10F1D000DFF8001CC161DFF8001C01620FF225712D
:10F1E000C1630FF2A94101640FF2FD4141640FF2C6
:10F1F000995181640FF23551C1640021017070474B
:10F20000DFF86C140A8C4FF6FE739A4204BF163175
:10F21000F6F7D9BB02220272098C01807047DFF831
:10F220005004408D4FF6FE71884201DB0320704789
:10F2300002207047864A002042784B78C2F3810250
:10F24000C3F381039A4211D1022A09D142794B7941
:10F250009A4202BF80798979884207D1012070479C
:10F26000032A03D1491D401DF6F7B6BB00207047A5
:10F2700070B55478067A0B460021C4F38104B44279
:10F2800018D1022C10D154799579008804EB05240B
:10F29000A4B2A0420ED1D078127900EB022080B245
:10F2A000834207D1012105E0032C03D1511DF6F75C
:10F2B00093FB0146084670BD017ADFF8B4230229AA
:10F2C00007D1118C0088814201D1012070470020B4
:10F2D0007047014602F11600F6F762BB1CB121002F
:10F2E0002DE9F84F0446994690460023E04800F186
:10F2F00014050A0601F07F02E18A98F808704CBFF5
:10F300004FF6FF766E8A5FEA816C46BF4FF0080CBD
:10F3100084F818C023765FEA417C4CBF4FF0800C24
:10F320004FF0100C84F819C05FEAC16E00F1340C84
:10F330004EBFA3769CF800E084F81AE05FEAC17E35
:10F3400048BF20230907616894F814E048BF43F0E0
:10F350001003491EBEF1020F09DBBEF10B0F1CBFEB
:10F36000AEF1010E01F801E943F0030301E04EEABA
:10F3700003039CF815C0BCF1010F06D194F808C036
:10F38000BCF1670FA8BF43F4805343EA8233022ADB
:10F390001FFA83FA07D1E88A000A01F80109E88A0E
:10F3A00001F801090CE0032A09D1A1F1070B00F1D2
:10F3B0003C015846F6F71EFBABF1010100E052B1EB
:10F3C00027B14E4508BF4AF0400A04D0301201F878
:10F3D000010901F801694AEA8726022FB6B209D16C
:10F3E000B8F80000000A01F80109B8F8000001F8B7
:10F3F000010909E0032F06D1CF1F41463846F6F731
:10F40000F9FA791E00E02FB14FEA192001F801093D
:10F4100001F80199481E227D1AB92A78531C2B70D5
:10F4200002E0AA7B531CAB730A70310A017000F82A
:10F43000016D217A626860605118091A21720020FA
:10F440006070BDE8F28F0000884C00208FFB200028
:10F450002DE9F047099F8A46054690469946394668
:10F46000FEF72CFF1A2604001AD00898E0822575B2
:10F470000B22394604F12000F6F7C0FA4B4642460B
:10F4800051462046FFF72CFF060009D1ED1F012D44
:10F4900003D8607E40F0200060762046FFF738F900
:10F4A0003046BDE8F08770B5044604F1380684B0F4
:10F4B0007178012001B10520251D04F12C0168821D
:10F4C0000420287400A8F6F77EFA28686B8E401E88
:10F4D000286000AA3178017003212879401C287126
:10F4E0002046FFF7FDFE050004BF2046FFF710F998
:10F4F000284604B070BDF8B504460E4605202070BD
:10F5000006F13A07351DF878A0706068E96A416134
:10F5100006F11C01F6F757FA6068698E4181397867
:10F520004174002160680176C17306F10F016068C3
:10F53000193000F036F86168A87A88732868616825
:10F5400010F8012B8A8110F8013B42EA03228A81DC
:10F5500010F8012BD30918BF01230B7402F0070127
:10F560000A0018BF012201EB41015118C9B2081865
:10F5700010F8011B2172E060217A01F007024908AE
:10F5800001F0380101EB42010818606129792A680D
:10F590008B18834227BF081A10180020207220748D
:10F5A000F1BD0B22F6F72ABA704718218AE40178D8
:10F5B0000B29B8BFFFF7F9BF70470000192181E49C
:10F5C00038B5DFF8C8580446286820B1FFF7F6FFC1
:10F5D0002846FFF7CBFD2046FFF7C0FD2C6031BD6C
:10F5E000304B0020844B002030B5044689B0207891
:10F5F0001F4D032808D0052808D0182804D01E283D
:10F6000018BF1F2802D00FE0002000E001208DF875
:10F61000180004F12B0103A8F6F7ECF903208DF88C
:10F62000140000F029F812E002208DF8180004F10F
:10F630001C0103A8F6F7DEF903208DF8140004F18D
:10F640000F0100F019F80DF11900FFF7AAFF0B20C8
:10F650008DF8000004F10F0160788DF801000DF1C4
:10F660001900FFF79EFF00A806F002FE09B030BDAA
:10F67000644A0020744B0020688DADF8020002201F
:10F680008DF80A00E88CADF81600704738B50446CE
:10F6900065789DB9DFF8F817E08EC98C884218BFED
:10F6A000E82504F12C00FFF707FE80B1002084F864
:10F6B00039001DB92046FFF7F6FE054635B16570E5
:10F6C000192020702046BDE832404FE431BDDFF8FC
:10F6D000C41794F8390091F8201080F00100084315
:10F6E000E7D1E825EBE7000010B586B004218DF8DE
:10F6F000041041788DF80510C18EADF8101000F19E
:10F700002C010DF10600F6F75EF90DF10600FFF78A
:10F71000D3FD20B100F02FF8DFF87407048401A8AE
:10F7200006F0A6FD06B010BD304B002010B588B025
:10F73000044603208DF8040004F11C010DF10600BD
:10F74000F6F758F9606800788DF80E0004F10F01A3
:10F750000DF10F00FFF725FF04F11C00FFF7ACFDD2
:10F7600020B100F008F8DFF82807048401A806F0AB
:10F770007FFD08B010BD4FF6FF74ADF8004000A942
:10F78000532000F0CBBB000070B50546DFF80067E2
:10F7900068684078B41C400692B009D5A08CE98E08
:10F7A000884205D1DFF8D8050078D0B100F030F8F4
:10F7B00008A80390294602A8FFF79DFE2B208DF88C
:10F7C000080002A8FFF7D2FB207810B19DF81800BE
:10F7D00028B105208DF8080002A806F049FD12B0F6
:10F7E00070BD96F830000028E2D005F11C00FFF74C
:10F7F00063FD0028DCD105F10F000190012000908D
:10F8000006F11602A38C03210620FFF721FEE6E78E
:10F8100000B585B009208DF80000EE208DF80100BC
:10F8200000A806F025FD05B000BDF8B50546FCF7BB
:10F83000F7FF00F03BF80DB100F034FBDFF8505655
:10F8400006F049FF05F12607DFF83465387D06F03C
:10F8500091FEF87C06F054FE307806F03BFE3888C6
:10F8600006F041FEB88806F040FE05F13C0006F0C7
:10F8700042FE0027DFF8140600EB8700C06D010090
:10F8800018BF80477F1C072FF4DB00F0F3F9FFF768
:10F89000F0FA00203071FEF7EDFCFFF788FC00F075
:10F8A0000AF80CB1FCF7B8FF0020F2BD00F001002F
:10F8B00080F00104704705F12901522000F02EBBB1
:10F8C000DFF8BC040FF26501416200F108020FF29B
:10F8D000493181620FF27931C1620FF20D1101637A
:10F8E0000FF2052141630FF2B1118163DFF89C151E
:10F8F000CA6000F13C02243048610A61002008819E
:10F9000006F0DABE70470000644B00207A4A0020FF
:10F91000072202700A7A82708A7AC2704A6842604C
:10F9200000220272C969C1607047000070B5DFF83B
:10F93000685504466E1C00203070207A0628A4BF4B
:10F94000E8203070607A0F2804DB207A032804D086
:10F95000E8203070207A032805D1CC48007AC0070F
:10F960005CBFE820307021462846FFF7D1FF616870
:10F9700005F11800890A81600B22617A0173E17A2E
:10F980004173217B8173617BC173A17B01740A2167
:10F990004174DFF8FC1491F83A108174DFF8FC141C
:10F9A00001600421017105F12B0004F10F01F6F74C
:10F9B00025F83078002804BF607800280BD17078D3
:10F9C00008B1EA21317006F01BFE262020700420C9
:10F9D00007F04FF801E0292020702046BDE8704074
:10F9E000FFF7C4BA33E82000F0B5DFF8AC64751C4B
:10F9F0000446687885B006F10C0760B9787F0A285C
:10FA000009D006F03FFE39687A7F511801F80B0CD7
:10FA1000E879401CE8717869797F40087861491C71
:10FA2000C007797702D4C9B21E29F4DBC9B21E29F6
:10FA30002CD006F12901E12000F070FA02208DF8A7
:10FA400010004FF6FF736878ADF80830002818BF33
:10FA5000022803D1204600F01FF819E006F12B021E
:10FA60000128019207BF082080210720832100225E
:10FA7000009202AAFFF7ECFCDB2818BFE52804D0AF
:10FA8000F3281CBFDF28E82802D1287000F0BEF858
:10FA900005B0F0BDF450002038B5DFF8FC436268D3
:10FAA00004F124000121437901FA03F39A436260CF
:10FAB0003023A278032A06D1DFF8D40390F835006A
:10FAC00003FB00F508E0007801FA00F0401C03FB9E
:10FAD00000F50AB906F0D4FD294604F11000BDE88E
:10FAE00034409CE11C4D00202DE9F041DFF8A87363
:10FAF0007D1C8046687802281CBF0128052890B02C
:10FB00003AD100202870414600A80A900C3709A875
:10FB1000FFF7F1FCEE79787E86421BD23C680BE061
:10FB20006089BDF80A10884204D100A92046F5F783
:10FB300037FF78B9761E2434F6B2002EF0D138683B
:10FB4000EB79242200A902FB0300F5F757FFE879BF
:10FB5000401CE871DFF83803807820B19DF834004C
:10FB600008B9787E10B909A806F082FB787E58B1F2
:10FB7000E979814208D101E0E8202870292088F83D
:10FB800000004046FFF7F2F910B0BDE8F08170B513
:10FB9000044604F1240082B00178DFF8FC52032906
:10FBA00004BF807A03282CD104F11C014A2000F004
:10FBB000B5F960680178427801EB0221ADF80010D8
:10FBC000861C00A9502000F0A9F93078717800EB6C
:10FBD0000120ADF8000000A94B2000F09FF9B61CF1
:10FBE0003146E12000F09AF9701C0178407801EB71
:10FBF0000020ADF8000000A9532000F08FF900208C
:10FC000000E0E820687000F001F873BD2920207042
:10FC10002046FFF7ABB9000010B5DFF87C4204F1D5
:10FC2000100000F015F906F00AFD042006F048FF68
:10FC3000A078032804BF6078002804D004F12A01CA
:10FC4000E12000F06BF92046BDE8104006F010BB43
:10FC500000B585B0014600A8FFF75AFEFC208DF8DC
:10FC6000010000A806F004FB05B000BD0146072016
:10FC7000FFF7A2B98A480021016041604FF47F017B
:10FC80008160C16000210161704700008040002058
:10FC900010B5834C00202061206868B14068A168DD
:10FCA000884209DA06F0E5FF21684A688242B8BF57
:10FCB00002464A6020682061606838B1216919B144
:10FCC000426849688A4203DA206101E0206940B154
:10FCD0002069A16840688842BCBFBDE8104006F0BA
:10FCE000ECBFBDE8104007F010B8F8B5FCF798FD80
:10FCF00000F001006A4D80F00104286918B3A9687A
:10FD00004068814203DAFCF799FE2869D8B106F011
:10FD1000B0FF29694968884215D3002948BFFCF71C
:10FD20008DFE2E69304600F093F8377BB6680CB133
:10FD3000FCF772FD3846B047FCF772FD00F0010099
:10FD400080F00104E1E7002C1CBFBDE8F140FCF7A6
:10FD500063BDF1BD38B504460D460EE050496868F4
:10FD6000096920188D4202D1002848BF0020686030
:10FD7000002848BFFCF762FE2D68002DEED131BD92
:10FD8000384C002070B5FCF74BFDFFF78FFD444D5C
:10FD9000A8686E6829684042FFF7DCFF06E0A868A3
:10FDA00071688142A4BF081A70603668002EF6D1CF
:10FDB000E868A96881421CBFA86006F043FFFFF70E
:10FDC00067FF002C1CBFBDE87040FCF725BD70BD6F
:10FDD00081E720007FE72000DDE7200070B50446C2
:10FDE0000D46FCF71DFD00F0010080F001062968BA
:10FDF000284601E00846096819B162684B689A42D2
:10FE0000F8DA046021602868A04208BFFFF740FFCD
:10FE1000002E1CBFBDE87040FCF7FEBC70BD38B5BD
:10FE200004460D4606F025FF401960602046BDE8F7
:10FE300034401B49D2E70A6801E011461A462AB14C
:10FE400013688242F9D10B6001207047002070478F
:10FE500070B50446FCF7E4FC00F0010080F00105F9
:10FE60000F4E31462046FFF7E6FF18B9311D2046F8
:10FE7000FFF7E1FF3069844208BFFFF709FF002D5B
:10FE80001CBFBDE87040FCF7C7BC70BD80400020BF
:10FE9000644A002000400020144E0020B1EE2000F3
:10FEA0006C42002010B55A4C0FF2681120466C22AB
:10FEB00006F050FF06F00CFB84F8220006F008FB69
:10FEC000207510BDA0F140021E2A38BF403804D36F
:10FED000A0F1E0010F2902D23E30C0B270472D20C0
:10FEE000704770B50C46FFF7EDFF05462D2D01D18B
:10FEF000F42070BDFCF794FC06460FF2841000EB72
:10FF000085014A7810F82500414941182046F5F747
:10FF100075FD0EB9FCF780FC002070BD2DE9F0479F
:10FF200004460D463A4E452C08BFB5606CD0FFF72D
:10FF3000C9FF81462D2808BFF42066D00FF2401873
:10FF400008EB8907B878002804BFF978002915D094
:10FF5000F978884208BFFB2057D0582C05D1288853
:10FF60008F3846F22241884206D22878B9788842F2
:10FF700024BFF978814201D2E82046E0FCF750FC2A
:10FF8000824618F829007A7829468019F5F736FD57
:10FF9000BAF1000F08BFFCF73FFC502C06F12A0015
:10FFA00010D0522C16D0532C10D0E02C26D0E12C9F
:10FFB0001BD0E22C1DD0E52C24D0E62C04BF2978E0
:10FFC000C17721E0F08C06F08EFA1DE0708D06F00E
:10FFD0008CFA19E096F8290018B1022006F049FDC4
:10FFE00012E0022006F06CFD0EE0007C06F0C2FA82
:10FFF0000AE006F13C0006F07EFA05E0C07B06F060
:020000040021D9
:100000007FFA01E0297881770020BDE8F0870000C1
:10001000644A0020360001000600000000000000D5
:10002000000F0000000000000000000000000000C1
:1000300000000300FFFF00000403FFFF0000FFFFBC
:100040000F00F4010005C4040320000100000B00B0
:1000500000000000000000000300010F000000008D
:100060000000000000000000000000000000000090
:100070000000000000000000000000000000000080
:1000800000013636010100010201000103010001F7
:1000900004010606080400000C0100340D01000FE5
:1000A00010040101140100FF1608000020020000E6
:1000B000220100FF23010001240100FE25010008A8
:1000C0002602000028010001290100012A02000087
:1000D0002C01000F2E020000300100013101000848
:1000E000320200FF340100073501024036010000F2
:1000F0003701000138010001390100FF3A010B1DF1
:100100003C080000460100084701000F48010001BB
:10011000490100FF4C04000050040000540400009A
:10012000580400005C040000600400006404000047
:1001300068040000A84800210160016841F009013D
:100140000160416A41F020014162816841F0010192
:100150008160816841F002018160816841F00401A1
:10016000816001209D4908707047FEB505000E466C
:1001700004D0287A022818BF032801D0E820FEBD49
:10018000284600F0B5F8FF2801D01E20FEBD2C7ACD
:1001900000F01CF9074600F031F9022C40EA070193
:1001A00011D1002404EBD4714910490020FA01F266
:1001B000D10703D427FA04F1C9070ED5641CE4B2B1
:1001C000182CEFDB09E0002403206200904001427C
:1001D00003D0641CE4B20C2CF6DB182C16D1287A60
:1001E000022818D0297A7E48022916D102A9320A9B
:1001F0004A708DF8086000EB04102A888A702A88FB
:10020000120ACA70042206F0D1FD0CE00C2C04BFC7
:10021000287A0328E6D11A20FEBD0822294600EBE1
:10022000441006F0C3FD287A0127022807D16D4E3D
:1002300000F022F800F0EFF807FA04F10CE06A4E43
:1002400000F01AF800F0E7F8610007FA01F108433E
:100250006100491C07FA01F1014301A8F5F7CBFD44
:10026000032201A9304606F0A1FD2A7A0121204689
:1002700000F07CF80020FEBD032200A9304606F005
:100280009FBD10B5040009D0207A022818BF0328AA
:1002900004D1204600F02CF8FF2801D1E82010BD41
:1002A000227A002100F062F8002010BD01284F4999
:1002B00003D10A6842F0040203E00A68002022F039
:1002C00004020A604A49087070474948007808B13A
:1002D000FE207047FF2070474548007808B1012094
:1002E0007047444800680006800F00F00100704726
:1002F0002DE9FE430446207A022810D18DF8001023
:1003000000A8090A417004252188817001262088EF
:10031000000A8DF8030000AC00F058F803E008254F
:10032000022600F06BF88046002728FA07F0C00785
:1003300015D597FBF6F95FFA89F905FB09F0284B0B
:100340002A4601A903EB800006F03AFD2A4601A9DE
:100350002046F5F75DFB012801D1484604E0F71976
:10036000FFB2182FE1DBFF20BDE8FE83F8B50123C3
:10037000440003FA04F403FA00F5234E1E4F59B16A
:10038000022A04D100F022F845EA00010AE000F058
:1003900035F844EA000110E0022A0AD100F016F80C
:1003A00020EA050100A8F5F726FD032200A938463A
:1003B00009E000F023F820EA040100A8F5F71BFD8E
:1003C000032200A9304606F0F1FCF1BD80B50322FE
:1003D00000A909481AE00000008608404E5100209C
:1003E000008408409C850840908508402886084085
:1003F0004F5100208C8508400C86084080B50322B0
:1004000000A9014802E000BF1886084006F0D8FCA9
:1004100000F001F802BD032100A8F5F717BB02B5F3
:10042000582301461B68042200A8984701BD38B52F
:100430000446FCF7F5F90546204606F0EDFC002DD4
:1004400004BFBDE83140FCF7E7B931BD2DE9F04FFD
:100450005FEA010983B0834615466CD000264FEA57
:100460009B00002701968400B2461BF003001FBFCB
:100470004E464FEA9B0006EB0B01B0EB910F04D008
:100480000BF00300C0F10406B6B2A9EB0600012888
:1004900005DB4FF6FC710140019100F0030AFCF707
:1004A000BFF900F0010080F0010826B32068009039
:1004B0000BF0030200A9785D51187854781C87B2BC
:1004C000B742F7DB12E0785D8DF80000781C80B24F
:1004D000415D8DF80110401C80B2415D8DF8021025
:1004E000401C80B2471C415D8DF8031020460099E6
:1004F000FFF795FF241D0199BFB289198F42E2DBF6
:10050000BAF1000F10D021680091002000AA04E089
:10051000595D80B25F1C8154401CBBB24B45F7D380
:1005200000992046FFF77BFFB8F1000F1CBFBDE824
:10053000F74FFCF771B9BDE8F78F00000020704756
:1005400005490F228A600A681206FCD509698842AB
:100550008041C00F7047000000700D4080B5DFF88B
:10056000281C00200860DFF8241CDFF8780CF5F761
:1005700041FAF9F719FAFCF757FCBDE80140F9F721
:100580001FBA2DE9F046074685B00C4616469A4636
:100590001220DFF8545CDFF8549CF7B9022C12D11A
:1005A0000820FBF7E6FE00200290CDF804A000969C
:1005B000DFF83C0C99F800302A680088DFF8341C1A
:1005C000F9F7BAFA09E0012C07D10820FBF7D1FEB0
:1005D000002231463046F9F7BCFC012F18BF022F2C
:1005E000DFF8146C4AD1002C18BF032C21D1022053
:1005F000FBF7BFFE99F800102868F9F733FADFF827
:10060000783CDFF8781C9B78DFF8742C1B0707D444
:1006100030B913785B1C1370DBB2042B08BF296060
:10062000032C2BD153785C1C052B547026DB2960DE
:1006300024E0012C22D1012F10D10A20FBF799FED2
:1006400000208DF8010003208DF8020000200190A9
:100650008DF8080000A8F8F7D1FD16E00A20FBF796
:1006600088FEDFF8200C026830784FF40051F5F76F
:1006700020FD99F800102868F9F72DFB28B1307893
:100680004FF47A720121F5F714FD05B0BDE8F0864C
:1006900038B504460D46D1212846F5F779FAA0B9B8
:1006A0000220F5F7F3F938B9BDE83440DFF8480B1C
:1006B00000781021F5F70CBBD12101704470014680
:1006C0002846BDE83440F5F702BA447031BD70B534
:1006D0000446DFF8B40BDFF8B46B0568B6F9000028
:1006E00010F1010F0DD1DFF8A80B0078308008E081
:1006F0006868017821B1406801782046FFF7C8FF9B
:100700002D68002DF4D1715F11F1010F03D0C9B232
:100710002046FFF7BDFFF0F77DF8DFF8BC1C08802E
:10072000BDE87040F0F76DB8F0B5059D00240026D7
:1007300010E033F81C7031F816E0BE4503D1E4B286
:1007400025F81470641C0CF1010C5FFA8CFC9445C4
:10075000EFD3761C8642B8BF4FF0000CF5DBE0B259
:10076000F0BDF0B5002401E0641CE4B284420DDA6F
:10077000002500E06D1CEDB29542F5D231F8146011
:1007800033F81570BE42F5D10120F0BD0020F0BD58
:1007900000B583B000F026F806D103B05DF804EB95
:1007A000DFF8D42A02F000BB027C01920B4648F22B
:1007B000020210E000B583B000F014F806D103B0D7
:1007C0005DF804EBDFF8142C02F022BB027C0192EE
:1007D0000B4648F203020092811C407C802202F00A
:1007E00006FC07BD81690A78497802EB0121DFF830
:1007F000E82B128889B29142704770B582B00446E6
:10080000002000900026A0690178427801EB0222C6
:1008100081780025002914BFFF29822518D0DFF830
:10082000B80B008892B2824207D100A801F0C1FC47
:100830000646009860B983250AE0DFF8A40B00782B
:10084000002814BF0128812502D0022808BF802576
:10085000009A2946204602F002FB002E1EBF009897
:100860000028F3F7B1FF73BD2DE9FF4104460025D1
:10087000A069DFF8708B01784078002601EB002733
:10088000EFF7C8FFBFB2874207D101F0C3FC451E96
:100890000121404601F0C8FC00E08026207C039046
:1008A000EDB2CDF80880019500973346617CA21C1B
:1008B00048F2050002F03FFBBDE8FF8130B50023A0
:1008C00007E00C784D7804EB052422F81340891CCE
:1008D0005B1CDBB28342F4D3084630BD2DE9F04FF8
:1008E00085B0044600250495A846A06901F0D1F81A
:1008F000ADF80410061D8178C278BDF8040001EB44
:10090000022189B20291F0F79DFB01280BD0BDF8BE
:100910000400F0F797FB70B9DFF8BC1ABDF80400CB
:100920000988884207D0207C039002950195802396
:1009300000F0CAF8C5E016F8019BB9F1000F0CD021
:100940004FEA4900F3F7DAFE049030B1024631462F
:100950004846FFF7B3FF064600E0A94616F8010B2C
:10096000009058B100F0F0FE5FEA000806D0009851
:1009700042463146C0B2FFF7A1FF00E00095DFF824
:100980000809066814E038617068406800783946E4
:10099000F5F79DF89AF80000DFF8481AEDB26854B0
:1009A0006D1CBBF1000F1CBF5046F3F70DFF3668FE
:1009B000002E61D0706801780029F8D0B27BD20790
:1009C000F5D5B268130005D00120904782464FF05C
:1009D000010B03E0D0F808A04FF0000BBAF1000FB4
:1009E000DFD0BAF80200029988421EBF08464FF6CF
:1009F000FF718842D5D1DAF808309AF807200499B7
:100A00004846FFF7AEFE50B90098DAF810309AF871
:100A10000C204146C0B2FFF7A4FE0028C1D00098C8
:100A2000484440001430C0B2F5F730F80700B1D0A8
:100A3000D2203870B9F1000F6088788087F8049070
:100A40000098387308D007F11400B8604FEA4902E3
:100A50000499F4F7D3FF01E00020B8600098002863
:100A600091D007EB490014303861414600984200AC
:100A70003869F4F7C3FF87E7EDB235B1207C039006
:100A80000195DFF8600902900BE0BDF80400F0F773
:100A9000D9FA48B9207C0390DFF848090290002079
:100AA0000190002300F010F8049808B1F3F78CFED1
:100AB000B8F1000F05D0404605B0BDE8F04FF3F7A0
:100AC00083BE05B0BDE8F08FDFF80C090088009008
:100AD000A21C617C48F2060002F02DBA70B586B007
:100AE000044603208DF814000D4603A8F4F782FF96
:100AF000EFF787FE014603A8F4F76EFF20B1297DCA
:100B0000032918BF012901D084205EE0287A00283B
:100B100018BFFF2806D0032906D1A97D002918BFD8
:100B2000FF2901D1822050E0E18921293FD18C2089
:100B30008DF80800287D032830D100A905F10C00AC
:100B4000F9F794FC50BBFBF779FB06003FD0182265
:100B500000F0A1FD06F11800A11C0A2206F0EAF837
:100B6000207C86F8220006F12200617C417005217C
:100B7000817005F10C0003F095F800220023114666
:100B800005F10C0001F0EFFEDFF86C0600784FF481
:100B90007A724FF48051F5F78CFA22E0AB7D6989C7
:100BA000287A05F10C02F9F703FC80B906E0AB7D69
:100BB000698905F10C02F9F70EFC28B900208DF8BF
:100BC0000800FBF7D3FA02E088208DF80800012323
:100BD00000F060FBE08940F4004204F1110001F0F4
:100BE0009CFE06B070BD00B585B00022ADF80200D5
:100BF0008DF8002001A8F6F724F900A8F6F70DFA01
:100C000005B000BD81690A78497802EB0121DFF85F
:100C100068261289114000D1704700B583B0027C6C
:100C2000009101920022DFF8B0170B88811C407CF4
:100C300002F0C6F907BD2DE9F04F804691B0D8F813
:100C40001800007805904FF0000904AA00219C20AC
:100C5000F9F7FCF904214846F4F701F8C0B2009016
:100C600000999DF8100008188DF810009DF81010DC
:100C70000598884280F2A38008460599401A5FFAD9
:100C800080FBBBF1040FA8BF4FF0030B1A2000FB41
:100C90000BF0F3F733FD5FEA000900F09180059E49
:100CA000DFF830AC0AF1240000244F46019005E043
:100CB00001200121B97578751A37641CE4B25C45CE
:100CC00079DA0098F6B2864249DA3046F4F781F9CB
:100CD0000546BAF8240000F08EF8288878820220B1
:100CE000F875FF203876A87A787600208DF81800FD
:100CF0002888ADF81A0006A8F6F716F9012805D1DC
:100D000007A907F10A00F4F775FE05E00822FF21A4
:100D100007F10A00F4F78AFE287960B9288808B933
:100D2000387504E0012038750198007D401E387642
:100D300000210220BEE70198007D401C387628790A
:100D4000032806DA0220387528790128B0D100205E
:100D5000AFE70120387528790328A9D1F7E705996D
:100D60008842BDBF08460099461A002623E0F6B225
:100D70000AAA31468720F9F769F9BDF8320000F078
:100D80003AF80DF12A0107F10A00F4F733FEBDF835
:100D900028007882022078750320B8750220F87543
:100DA000FF2038769DF83A007876788A00B10120E5
:100DB00038751A37641CE4B25C45D8DB00E0CB46DA
:100DC00000200390CDF80890CDF804B000220598DB
:100DD0009DF81030C0B2009008F1020198F811009F
:100DE00002F0A4FAB9F1000F1CBF4846F3F7ECFC7F
:100DF00011B0BDE8F08F3880761C0AF13901B81CBB
:100E0000F4F7F8BD30B5044683B0A569042128463F
:100E1000F4F71CFE0090012115F8040FDFF8B82A42
:100E20008DF8040015F8010F8DF805108DF80610E7
:100E300011700222DFF8A41A0A7262880A80DFF8B1
:100E4000A01A0870DFF89C1A607C087000A8F8F7F8
:100E50003BFE08B1F8F761FE37BD2DE9F04385B0E0
:100E600000260024F8F7A5FC0546F8F7A2FC01E0EF
:100E700080694E46002806F10109F9D1DFF8608546
:100E800098F80000002818BF012837D1F8F791FC26
:100E9000DFF8407A58B100E00846BA8C01889142E8
:100EA0001CBF81690029F7D10088904226D01C2000
:100EB000F3F724FC040021D0B88C2080387EA07089
:100EC000F0F7A8F8607107F13901DFF81C0A007823
:100ED000A07104F10C00F4F78DFD00A94120F4F796
:100EE000D9FF9DF8000000281ABFDFF8EC04008845
:100EF0004FF6FE702081A5614E462546DFF8E009D9
:100F00000078F6B2864238BF00210BD3311AC9B23D
:100F10000629A8BF0521002201E0AD69521CD2B20A
:100F20008242FAD3009001910022DFF8B809DFF87D
:100F3000AC19007803920295334602F0A0F998F8B4
:100F40000000002818BF012803D114B12046F3F790
:100F50003BFCF8F7E2FD05B0BDE8F0832DE9F04376
:100F6000804685B0D8F8180006780027B94604AA4C
:100F700000219D20F9F76AF89DF81000864215DAE5
:100F8000801BC4B20B2CA8BF0A24E000F3F7B6FB09
:100F90005FEA00090AD04F46002503E0032078717C
:100FA00008376D1CEDB2A54216DB274600200390E2
:100FB000CDF80890019700969DF8103098F8110030
:100FC000002208F1020102F021FAB9F1000F1CBF62
:100FD0004846F3F7F9FBBEE771193A4689B28B2010
:100FE000F9F734F87879012804D0D7D3032805D04D
:100FF00002D3D3E70020D2E70120D0E70220CEE7DA
:101000002DE9F047044686B0A0690678002504AAB9
:101010000021A320F9F7E9F9BDF81000864221DA92
:10102000871BBFB2042FA8BF032700DAD7B118204F
:10103000784300F02AFD050014D04FF00008A946BF
:10104000C2460AE006EB0A014A4689B2A220F9F735
:10105000CCF909F118090AF1010A5FFA8AFABA45CE
:10106000F0DB02E04FF08B08002700200390FFB276
:101070000295019700964246BDF81030607CDBB2C5
:10108000A11C02F01EFA15B12846F3F79DFB06B02D
:10109000BDE8F08710B5044684B0A069017AF8F77E
:1010A000E2FD8DF8080001230020019048F235028E
:1010B00002A8009000F001F81FBDA11C04F111006E
:1010C00001F02BBC30B5044685B0A5692846F5F77C
:1010D000BFFE30B1EFF795FB01462846F4F77CFCE4
:1010E00010B10020039000E00395287A410644BF28
:1010F00001218DF81010000644BF01208DF8110069
:1011000000208DF8120003A8F8F728FF8DF80800DA
:101110000020EFF76FFC0020EFF786FC0020EFF7D0
:101120007FFC00200190012302A8009048F23402C5
:10113000FFF7C3FF05B030BD70B5044684B0A069A9
:10114000057846782846F8F74DFD8DF80800DFF859
:101150009C070078002802BF012E2846F6F77AFA8D
:10116000207B38B90190012302A8009048F2360292
:10117000FFF7A3FF7FBDDFF874070078002808BFE2
:10118000F6F776BA70470000045100205042002064
:1011900030B5044687B0A0690178407801EB00259E
:1011A0008D480088ADB285420ED102AB11220021DC
:1011B0008120F5F774FD38B9009002AB607C2A46B7
:1011C000A11C01F0E0FE0AE0207C01902B4648F2D1
:1011D000110000908422607CA11C01F008FF07B080
:1011E00030BD00004C41002040410020DB42002087
:1011F000CE420020A85000201041002030B5044607
:1012000089B0A0690178427801EB0225724A128800
:10121000ADB295421FD181781029A8BF10218DF859
:101220000C10C11C9DF80C200DF10D00F4F7E6FB2D
:1012300003AB112200218120F5F731FC0E489DF807
:101240000C200178002A14BF41F0100101F0EF01D9
:101250000170002000E084208DF80800032302A81C
:101260004570857048F2140200F014F804F1110082
:1012700001F053FB09B030BDB04F002000F8FF076C
:1012800042510020B44200209C420020BC42002079
:1012900051510020207C0190A11C02A800907047B1
:1012A000F0B5DFF8306606F11A040546207B082801
:1012B00018BF042889B040F08D8000A9284600F0AE
:1012C000EDFB474F387802280CD1EFF79AFA0DF171
:1012D0000201F4F781FB28B1EFF79CFABDF800108A
:1012E000814277D0F0F7FBFFBDF800000DF102015D
:1012F000EFF7A6FF01286DD007A8EFF793FA0DF1DD
:10130000020107A8F4F768FB50B1EFF787FABDF8C0
:101310000010814204D071834B202146F4F7C8FDB0
:101320003878002818BF01281ED1EFF773FAA98A70
:10133000814219D00DF10200F3F793FD38B1007925
:10134000012812BF02280DF10200F3F7BCFDDFF8FF
:10135000A0050168080007D0DFF89805007801288B
:1013600004BFBDF800008847BDF800000021F2F777
:101370009CFC6189BDF80000F0F7CDFD00208DF8E0
:101380000C00BDF80000ADF80E0003A8F5F7CCFD89
:1013900070B10822002107A8F4F748FB04A907A8A8
:1013A000F4F71AFB20B100F01FF803A8F5F735FE9B
:1013B00000F01AF803A8F5F7E2FD00281EBFBDF8FB
:1013C0000E00BDF80010884204D0ADF80E1003A83E
:1013D000F5F723FE09B0F0BD00410020F8500020D1
:1013E00061510020DC4D00200DF1020104A8F5F749
:1013F00028BD2DE9F94786B00024002500F05EFBEA
:10140000002802906DD0002704E0301DF3F75BFD4B
:101410007F1CFFB20298007887422EDA02980C21D6
:1014200001FB07064FF0FF38301DF3F71AFD0028C7
:10143000EED00179012918BF0229E9D190F82010D6
:1014400019B18169C069A1EB0008F0688045DCD260
:101450001020F3F753F98246311DF4F7CBFACAF89E
:1014600008800020CAF80C00002D07BFD1464D4669
:10147000C9F80CA0D146641CCAE7E4B274B30220D8
:101480008DF81400002706984088ADF80C000C2059
:101490006043F3F733F95FEA00081FD010E00C2037
:1014A00000FB0786A94629463046F4F7A3FAA86848
:1014B000B0607F1CD9F80C50FFB24846F3F784F9AE
:1014C000002DECD100200190434648F21F0000900F
:1014D0002246069803A9113001F051FB0298F3F758
:1014E00073F908B0BDE8F087F8B500F0E7FA04003A
:1014F00025D000251BE00C2000FB05464FF0FF37F0
:10150000301DF3F7AEFC80B10179012918BF022923
:101510000BD190F8201011B18169C0690F1AF068E1
:10152000874224BF301DF3F7CEFC6D1CEDB220784E
:101530008542E0DB2046BDE8F240F3F745B9F1BD56
:1015400070B5DFF8B4530446686B86B00026D8B98E
:101550005020F3F7D3F8686340B150220021F4F72C
:1015600065FA686B214600F0C0F808B9882066E08B
:10157000696B012081F840000FF28931DFF87C03AC
:101580000088FBF7F8FC83E0022180F84010214638
:10159000686B203000F0A9F818B988208DF8080091
:1015A0000126686B009500F11801CB698A7E4968B5
:1015B000007EFFF7B9F8696B81F84300686B90F81B
:1015C000430068B100F0C0F8696B486420B191F83D
:1015D000431000F05FF803E088208DF80800012632
:1015E000686B00954369827CC16B90F83800FFF707
:1015F0009BF8696B81F84800686B90F8480050B11F
:1016000000F0A2F8696B01F14802506098B191F8BE
:10161000481000F03FF88EB9686B90F8431000292D
:1016200004BF90F84800002808D000210022084696
:1016300000F08DF82CE088208DF8080086208DF8C9
:10164000080048F2200602208DF81400012360886B
:10165000ADF80C0032466078019003A902A8009012
:10166000204601F05AF9686B90F8401002290DD11C
:101670008DF8141001234188ADF80C1032464178E2
:10168000019102A9009103A901F047F900F006F8C1
:1016900006B070BD4A002946F4F7B0B910B5964CB3
:1016A000606B08B3C06C08B1F3F78EF8606B406CE8
:1016B00008B1F3F789F8606B406908B1F3F784F873
:1016C000606BC06908B1F3F77FF8606B406B08B1DD
:1016D000F3F77AF8606BC06B08B1F3F775F8606BDD
:1016E000F3F772F80020606310BD70B505460E4632
:1016F00001242022F4F782F900206861E861B07CBF
:1017000050B100F021F8686128B1B17C4A007169DC
:10171000F4F774F900E00024307E40B100F014F8D2
:10172000E86178B1317E4A00F169F4F767F93CB9B4
:10173000686908B1F3F748F8E86908B1F3F744F8C5
:10174000204670BD0024F3E74000F2F7D7BF2DE933
:10175000F0478CB04FF00008674C8DF810800646BB
:10176000606B8946FF254FF6FF7A002738B1032EBC
:1017700018BF022E05D190F84200824201D000200D
:10178000A4E00FF281110020FBF7F5FB012E03D13D
:1017900085208DF810001BE05EB1032E0ED1616B29
:1017A0000120B9F1000F81F8410011D08DF810909F
:1017B0000EE0616B012081F8410018E0022E07D194
:1017C000616BB9F1000F14BF0220012081F84100C4
:1017D000606B90F84110012909D14130817811B135
:1017E000491E817003E0C17909B1491EC171606B66
:1017F00000F12E014A7D52B1436C90F82E5003EB5C
:101800004202074632F802AC00F126080DE000F172
:10181000440213794BB19268857B02EB430200F1DD
:10182000200732F802AC00F1060802228DF81C20D5
:101830009DF8102032BB2FB3C87C01287888ADF802
:1018400014000CBF222421242D480078087541463D
:1018500003208DF8280008A8F4F7CCF878780390D6
:10186000029508A80190CDF800A0BA1DBB7B05A980
:10187000204601F026FC21480FF289010088FBF781
:101880007AFB22E04188ADF8141048F22005417837
:101890000191012304A900912A4605A901F03DF810
:1018A000606B90F8401002290DD1418CADF81410F6
:1018B000012390F8211001912A4604A900912030BB
:1018C00005A901F02AF8FFF7E9FE01200CB0BDE8F8
:1018D000F0870000EC4900200D410020245000203A
:1018E0005651002055510020DC420020615100205B
:1018F000284F00205E510020DC4D00203C4200209B
:101900006C41002000228521012020E738B50C46DB
:10191000417C217041886180017C6170806900F0A8
:10192000B8F8A180851C2946A01DF4F763F805F1DD
:10193000080010F8011BA17300F0AAF82182002012
:101940006061E06115F8010BA07450B1FFF7FCFE77
:101950000200626105D0A07C2946FEF7AFFF054674
:1019600001E00020A07415F8010B207650B1FFF7BC
:10197000EBFEE06130B10246207E2946BDE83840EA
:10198000FEF79CBF0020207631BD38B585690C4636
:1019900029462046F4F72EF805F1080010F8011B3F
:1019A000217200F075F8618115F8010B207503288C
:1019B00007D1294604F10C00F4F71CF8287AA07529
:1019C00031BD2878697800EB0120A08131BDF8B5E0
:1019D00007460026B87C0C28A4BFB869C67A3446EE
:1019E00060000E3000F051F805001FD0B869017892
:1019F0002970471CD1B93946281DF3F7FBFF00F0C9
:101A000039F869800020287386B117F8011B297303
:101A100005F10E0017F8011B697339787A78BF1C3D
:101A200001EB0221641E20F8021BF6D12846F2BD0C
:101A3000F8B5846914F8015BA678B01D00F025F8AC
:101A400007000BD03D702078617800EB0120788092
:101A50003E713246E11C781DF3F7D0FF3846F2BDE7
:101A6000826912780A7080694278807802EB0020DF
:101A70004880704707F108000178427801EB0221A5
:101A8000871C704700FB08F0001D80B2F2F736BEDD
:101A9000851C0178427801EB0221704738B58069D6
:101AA00042780C46017801EB02212180851C2946F1
:101AB000A01CF3F79FFF287AA07231BD2DE9F041F9
:101AC000846914F8015B0C206843FFF7DDFF5FEACF
:101AD000000815D008F1040788F8005000260CE033
:101AE00021463846F3F786FF083404212046F3F7F1
:101AF000ADFFB860241D0C37761CF6B2AE42EFDBAA
:101B00004046BDE8F08138B585690C460421284679
:101B1000F3F79CFF2060281D10F8011B2171062996
:101B200002DA0078607131BDFE2918BFFF2901BFBC
:101B300010F8011BA1712179FF2904D101784078A7
:101B400001EB0020208131BD65490978002208E0C1
:101B500000EBC2031B7F03F00D03012B08BF491EDE
:101B6000521C037CD2B29A4202D2C9B20029EFD1F0
:101B7000C8B270475A494978002208E000EBC20316
:101B80001B7F03F08D03812B08BF491E521C037C71
:101B9000D2B29A4202D2C9B20029EFD1C8B270477C
:101BA00070B50446E00000F11805ADB2481980B2E6
:101BB000F2F7A4FD060006D02A460021F3F736FF0F
:101BC000A8193474F060304670BD38B5044600F092
:101BD00010F8424D2978884224BF686800F013F855
:101BE00068782071401C6870204600F02AF820793F
:101BF00032BD3A494968002001E00968401C0029CB
