:020000040000FA
:10000000021F3F022003FFFFFFFFFF02200BFFFF45
:10001000FFFFFF022013FFFFFFFFFF02201BFFFF78
:10002000FFFFFF022023FFFFFFFFFF02202BFFFF48
:10003000FFFFFF022033FFFFFFFFFF02203BFFFF18
:10004000FFFFFF022043FFFFFFFFFF02204BFFFFE8
:10005000FFFFFF022053FFFFFFFFFF02205BFFFFB8
:10006000FFFFFF022063FFFFFFFFFF02206BFFFF88
:10007000FFFFFF022073FFFFFFFFFF02207BFFFF58
:10008000FFFFFF022083FFFFFFFFFF02208BFFFF28
:10009000FFFF70DFFFFF040000000002000000C847
:1000A000030002030369A5020269A532730000017F
:1000B00000000000000400FFFFFFFFFFFFFFFF0440
:1000C00003090424035400650078006100730020D4
:1000D0000049006E0073007400720075006D0065C9
:1000E000006E007400730024035400490020004394
:1000F000004300320035003300310020005500532A
:10010000004200200043004400430000035F005F02
:100110000030005800000000000000000000000057
:1001200000000000000000000000000000000000CF
:100130000000000000303132333435363738394171
:100140004243444546331C881C881C881C881C90EC
:100150001C74F8121BCD900391E06015900302749B
:10016000FEF0900304744DF0A37405F07A011207B9
:100170001C7F01021D6C74F8121BCD74FF121EB699
:100180007E00801F851882851983E064FE700690CA
:1001900003877401F0851882851983E0F890038441
:1001A000E068F07901AA18AB191210E9E9700302AE
:1001B0000287851882851983E064EF70027E07E06C
:1001C000C0E0900387E0FA900385E0F8EA28F8E4BD
:1001D0003400F9740228F582740339F583D0E0F015
:1001E000900387E0609E14600E14602B14603B1433
:1001F0006051146067809E900384E4F085188285C6
:100200001983E0900386F0C394809003874003E451
:1002100080827402020194851882851983E090031C
:1002200082F09003877403020194851882851983F4
:10023000E0900383F0900386E060199003877404D4
:10024000020194900385E004F0F8900386E0686072
:10025000030201959003877405020194900385E4DD
:10026000F0900387F0900384E0F885188285198365
:10027000E0686003020195900382E0644D60030230
:1002800001951203BF8002EEF97401121E370201BC
:100290007174F7121BCD74FB121EB6EAFEEBFF75EC
:1002A00008047509007808121ED07402121F377AEC
:1002B000907B0079041218EB7402121E3712070E9D
:1002C000121F88E0687003A3E069701285188285A8
:1002D0001983E0F47003A3E0F4600302039A74044A
:1002E000121F2F1207708A088B09A808A909740227
:1002F000121F88E8F0A3E9F07404121F88E0600878
:1003000079011201510203B3851882851983E068CF
:100310007003A3E0697076851882851983E0F47014
:1003200003A3E0F470197402121F887410F0A37410
:1003300020F08518828519837410F0A37420F0755D
:1003400008017509007808121ED07402121F377A4E
:10035000247B0812196F7402121E3775080478087E
:10036000121ED07402121F377A907B007904121883
:10037000EB7402121E3712070E121F88E06870031A
:10038000A3E069700479028006790480027903127F
:1003900001518E828F83741E80058E828F83E4F0DC
:1003A00012070E121F88E0687003A3E069700479D9
:1003B00001800279007405121E377F02021D6C74E1
:1003C000ED121BCD74F8121EB6900307E0FD9003EA
:1003D00006E0FCFAEDF8E4C8F9EA28FEE93408FF83
:1003E000751001750B00750A068E088F0974027866
:1003F00008121F1CC39508F8E49509F9740228F542
:100400000E740339F50F8E088F0974097808121FCE
:100410004EE508F511EE2410F508E43FF509EEF578
:100420000CEF5401F50D900383E014605914700330
:100430000204FB14700302057614601024FE70039E
:100440000206311470030206E10206F1750A03790F
:100450004E1213BD9003071207047402F0A37440F8
:100460001207027408120702F0A3F07418C394076D
:1004700004F510AA10A90B12071CA90A7408121E71
:10048000377F0C021D6C750A04794E1213BDEE45C0
:100490000D7005A9111219D5C3EE9425EF940850DB
:1004A0003CC3E5089424E50994084031E50E249600
:1004B000F8E50F3420F988828983E0701BA3AA82B3
:1004C000AB83E070139003887401F0888289837491
:1004D000A5F08A828B838004900388E4F07508106D
:1004E0007509007808121ED07C087D03EEFAEFFB38
:1004F00012196F7402121E37020473750A05E51192
:10050000C394794006750B0102047375124075138C
:10051000007812121ED07C097D037402780C121F21
:100520001CAA0CAB0DA9111218EB7402121E379005
:100530000307E0A3F0900306E0A3F0751043C3EEB9
:100540009425EF94084003020473C3E5089424E55E
:100550000994085003020473900388E070030204B6
:1005600073E50E2497F8E50F3420F988828983E437
:10057000F0A3F00204737508047509007808121ED0
:10058000D07402121F377A907B0079041218EB7432
:1005900002121E377402121F88E0F8A3E0F98518D2
:1005A00082851983E0687003A3E069851882851944
:1005B00083700BE0F47003A3E0F470578009E0F45B
:1005C0007003A3E0F4700D8518828519837410F010
:1005D000A37420F012070E121F88E8F0A3E9F0754B
:1005E00008017808121ED07402121F377A247B0883
:1005F00012196F7402121E377508047808121ED083
:100600007402121F377A907B0079041218EB74027F
:10061000121E3712070E121F88E0687003A3E069EC
:100620007006750A01020473750A02750B0702044D
:10063000739003D6E0600764026003020473EDFF69
:100640007A01790012071CE060030206D5800312CC
:10065000118512116CE970F77404121F881206F6E6
:100660007404121F887808121F6C85080C85090D08
:10067000850A0E850B0F9003C2780C121EF67404C7
:10068000121F88780C121F5DE5084509450A450BC5
:1006900070CE8EC2E5C554E04FF5C57404121F88B4
:1006A0001206F67404121F887808121F6C85080C55
:1006B00085090D850A0E850B0F9003C2780C121E5A
:1006C000F67404121F88780C121F5DE50845094571
:1006D0000A450B70CE7A01790012071C79080204D2
:1006E0007CEC900391F07003020473750A09020414
:1006F00073790602047CE4F0A37426F0A3E4F0A36B
:10070000F022F0A3E4F0A3F0A3F0A3F0A322851855
:1007100082851983E0F8A3E0F974022274F8121BB1
:10072000CDEAFE900305E0D2E7F0E9A3F0EE9003F6
:1007300003F08E0874042AFE7C028004E062080C38
:10074000ECFA3395E0FB74022AF58274033BF583DF
:10075000EEF8C3EA98EB9400A2D265D03340DDE511
:1007600008F074012AF97A027B0312112702017141
:1007700074E9121BCD7582007583FE121E198A164C
:100780008B177514007515008A828B83E4F0900333
:10079000D6E07006D2AAD2AF800464027005790058
:1007A000120151750C00750D20750E00750F00902B
:1007B00003D6E0600464027015121185120176E917
:1007C000F874096860030208AC7900120151E06412
:1007D000027007A29240030208877508007509029B
:1007E0007808121ED07402121F37850C08850D0977
:1007F000AA08E5095407FB850E0A850F0B740B78D0
:1008000008121E87A9081218EB7402121E377E0008
:100810007F009003CAC0828E10EFF5113395E0F58A
:1008200012F513850C08850D09850E0A850F0B78C6
:10083000087910121F099003C67808121EF67583F6
:1008400003D0827808121DFA501D851882851983FD
:10085000E5822EF582E5833FF583E0F9AA14AB1516
:100860001208DB8A148B150EEE70010FC3EF940291
:1008700040A09003CE780C121EF69003D2780C1292
:100880001DFA40030207AF7900AA14AB151208DB6A
:1008900079001208DB8B159003D6E07004C2AFC25A
:1008A000AAEA451570277AA57BA58021E870030286
:1008B00007CE74066870030207CE740768700302DF
:1008C00007CE8516828517837401F080BA75820081
:1008D000758302121E197F10021D6CC008C0097CAE
:1008E000088A088B09740F7808121F4EE508F8EA89
:1008F00025E0FAEB33FBE9A2E7500474014AFAE879
:10090000A2E0500874216AFA74106BFBE9C333F952
:100910001CEC70CDD009D00822C082C083120F33E6
:1009200060030209F0A3E0F8A3E060030209F0A36A
:10093000E064027002A3E060030209F09003B8E0F3
:100940002480600914604F14605C0209F0E86003C1
:100950000209F09003B2E060047801800278009010
:1009600003C0E8F0A3E4F09003B1E0600A9003C094
:10097000E04402F0A3E4F09003A6E0640460149065
:1009800003B374C0F0A37403F0A3E4F0A3740212E1
:100990000F95F0020E6E90039FE064047052900376
:1009A000C0E4F0A380D0E8547FFA90039FE0640491
:1009B000703EEAC394065038749F2AF582E43403EB
:1009C000F583E854806018A3A3A3A3A3A3A3E064C2
:1009D0000370047801800278009003C0E88094E5F9
:1009E00082240CF58250020583E0640370E980E301
:1009F0009003A67404809B74F8121BCDE9FE90034B
:100A0000BE120F366003020AD990039FE0640460AF
:100A10000B9003BC120F366003020AD99003B8E0B2
:100A2000541F6009146030146020020AD99003BA80
:100A3000E064017022EE9003B1F060047905800259
:100A400079067A00121BCB020ADF9003BCE0547FC8
:100A5000FA9003BAE060057900020AE1EAC394065D
:100A60005077EA90620EF0749F2AF8E43403F9900C
:100A700003BCE05480602EEE600474108002744069
:100A8000906211F0EE60047B0380027B00EB8882B1
:100A90008983A3A3A3A3A3A3A3F0EE600479088092
:100AA0002F7907802BEE60047B2080027B80EB9007
:100AB0006214F0EE60047B0380027B00E8240CF5F6
:100AC00082E439F583EBF0EE6004790A800279095B
:100AD000121BCB90620EE480059003A67404F0799B
:100AE000017F01021D6C79001209F7E97003121BE6
:100AF000BA2279011209F7E97003121BC922C082D8
:100B0000C0839003BC120F367015A3120F36700FFE
:100B10009003BA120CD95480FAE9FBEA4B600790B3
:100B200003A67404801AE8906200F090039F6009A5
:100B3000E06402700C74038007E0640370037402C5
:100B4000F0020E6E74F5121BCD9003BAE0FAA3E02A
:100B50001460081460101460398057121754120C76
:100B6000B6A37B8080417900121776120CB67B8089
:100B7000E92402F9E43AFA121E6DFC1919E0FAA30D
:100B8000E92403F9E43AFA121E6DF9ECA3F0A3E9A3
:100B9000801CEAF91217E49003B3EAF0A3EBF0A388
:100BA000E4120CC5A37B00121E6DA3F0A3E4F002B7
:100BB0000C709003B3E4F0A3F0A3F0750B00900465
:100BC0007DE0FAA3E0FB020C4E850B08750900746A
:100BD000037808121F1CEA2508F8EB3509F9900381
:100BE000BA120CCFE493C0E0EFFCD0E06C705DA3D0
:100BF000E4936E70579003BC120CCFA3A3E493C090
:100C0000E0EFFCD0E06C704488828983A3A3A3E466
:100C1000936E703888828983A3A3A3A3E493F50815
:100C2000740193F5099003B3E508F0A3E509F0A377
:100C30007480F088828983A3A3A3A3A3A3E493F879
:100C4000740193F99003B6E8F0A3E9F0050B900462
:100C50007F120CD9C39AF508E99BF509740378084B
:100C6000121F4EC3E50B9508E495095003020BC90A
:100C70009003B3E0FCA3E0FDA3E0FEEC4D4E900337
:100C8000A6700474048029E0640460259003BEE02B
:100C9000FAA3E0FB9003B6E0F8A3E0F9C3EA98EB0F
:100CA0009950089003B6EAF0A3EBF09003A6740104
:100CB000F07F04021D6C9003B3EAF0A3EBF0A37481
:100CC00080120CC522F09003B3E0F9A3E0FA22E011
:100CD000FEA3E0FF8882898322E0F8A3E0F9E822FE
:100CE00074EE121BCDEA2404F8E43BF98808890964
:100CF0008882F583E4936025900481120CD9FEE983
:100D0000FF8007EE2404FE50010F8E828F83E49350
:100D1000F8740193F9EA687002EB6970E6750B00EC
:100D2000803F9062147490F07410120E3570037549
:100D30000A408E828F83A3A3A3E493550E6006E539
:100D40000AD2E0F50AE50A906215F0EA906213F023
:100D5000EC240CF582E43DF583E4F090620EF0059E
:100D60000B850882850983E493F8E50BC39840035B
:100D7000020E307A0079051216E78A0C8B0DEA45CF
:100D80000D60DCEA2402F8E4350DF9881089118839
:100D900082F583E493540FF51290620EF0750A0009
:100DA0008A828B83A3A3A3A3E4932407F50EA3E471
:100DB000933400F50F7403780E121F4EAA0EA8127A
:100DC000749F28F8E43403F9E8FCE9FD750E017519
:100DD0000F00E512780E121F1CE50EF50EE50C242F
:100DE00003F8E4350DF9851082851183E493A2E7B9
:100DF0004003020D229062117448F07408120E35FF
:100E00007003750A408E828F83A3A3E493550E600E
:100E100006E50AD2E0F50AE50A906212F0EA90626D
:100E200010F08C828D83A3A3A3A3A3A3A3020D59C7
:100E30007F0B021D6CF088828983E4935403640164
:100E400022C082C083120F337010A3120F36700AB3
:100E5000A3E064017002A3E060079003A67404801D
:100E60000C9003B374A0F0A37403120F8BF0D08323
:100E7000D0822274F3121BCD90039FE064026014B1
:100E80009003BC120F36700CA3120F36700690033D
:100E9000BBE060099003A67404F0020F2E7A00797B
:100EA00001121BCB9003BAE0606F7A00F91217763B
:100EB0008A0A8B0BEA450B605890039F7404F090EC
:100EC00003BAE09003A0F0750800850A82850B83C1
:100ED000A3A3A3A3E493F8E508C398504AA8087411
:100EE000A128F8E43403F9E8FEE9FF8E828F83E459
:100EF000F07A0079041216E78A828B83A3A3A3E415
:100F000093F88E828F83E06870E7120CE00508800A
:100F1000B99003A67404F0800E9003A0F090039F94
:100F20007403F0F91216677A007902121BCB7F0660
:100F3000021D6C9003BAE0F8A3E0F9E8492274F6C8
:100F4000121BCD90039FE0640470199003B8E06415
:100F5000817011120F33700C9003BEE064017002B7
:100F6000A3E060079003A67404801A9003BCE024F9
:100F7000A1F508A3E03403F5099003B3E508F0A355
:100F8000E509120F8BF07F03021D6CF0A3E4F0A3C0
:100F900004120F9522F0A3E4F09003A6042274F744
:100FA000121BCD90039FE0640470649003B8E0646A
:100FB00001705C9003BE120F3670549003BAE0FBD0
:100FC0009003BCE0FA9003A0E0F91217AE8A088BF8
:100FD00009AE08AF09EE4F60369003BCE0FA790322
:100FE000121BCB9003BAE0C0E09003BCE024A1F850
:100FF000A3E03403F988828983D0E0F0EEFAEFFBB6
:10100000120CE09003BCE0FA7904121BCB8006902E
:1010100003A67404F07F02021D6CC082C0838003AB
:10102000121A31A2E840F9A823E854046009782391
:10103000E654FBF612140EA823E854106009782336
:10104000E654EFF612142FA823E8A2E05005782307
:1010500054FCF690620EE0FA7404F0906214E0A280
:10106000E05039A9A8C2AF906216E0F8A3E0E8FB0F
:10107000E9A2E792AF8017906228E0C0E090039366
:10108000E0F812111CD0E0F0900393E004F0EBFDC7
:1010900074FF2DFB0470E0906214E4F0EA90620E9D
:1010A000F0E0FC7404F0906211E0A2E040319003A3
:1010B00095E0F8900394E06860257A4090039412DC
:1010C000115FE0906228F0900394E004F008900330
:1010D00095E06860041AEA70E39062117401F0EC24
:1010E00090620EF0D083D0822274F8121BCDE9FEFC
:1010F0007900801212111CE08A828B83F090039297
:10110000E00412115409900392E0F8900393E06810
:101110006005E9C39E40DD7F01021D6C748528F5E2
:1011200082E43404F58322C082C083E9FC80188AFB
:10113000828B83E0C0E090039512115FD0E0121122
:1011400054900395E004F0ECF874FF28FC0470DF81
:1011500079018090F08A828B83A3AA82AB8322E0FC
:10116000F8748528F582E43405F58322C082C083B3
:10117000900395E0F8900394E068600479018002A0
:1011800079000210E402101A74FB121EB67E009061
:1011900006857808121F6C794A1213BD9006857473
:1011A00001F0A3F0A37469F0A374A5F09003D778BD
:1011B00008121EE170047E0180159003DB7808128E
:1011C0001EE16008E59D541864107003022000EED3
:1011D000F9121334C280D291EEA2E050030212E75A
:1011E000AA18AB19120291E970030212E7C29185A5
:1011F0001882851983E0C3943C500EE0F8743CC318
:1012000098F50895E0F5098006750800750900E471
:10121000F50AF50B9003DF780C121F6C7808790C37
:10122000121AD1790612015112101A120176E9F838
:101230007409687007790612015180277407686085
:1012400016A2935012E8600874066860030212E761
:10125000A292400F0212E7750800750900750A0096
:10126000750B0085080C85090D850A0E850B0F90FE
:1012700003C27808121EF6E50C450D450E450F70A9
:10128000A7D2807907120151800312101A12116C33
:10129000E970F77E007F007401121F88E4F0A374E8
:1012A00026F0A3E4F0A3F07401121F887808121F3F
:1012B0006C85080C85090D850A0E850B0F9003C2FD
:1012C000780C121EF67401121F88780C121F5DE54F
:1012D000084509450A450B70CEA29250FCA29350D6
:1012E000F81213B8022000D280D291794E1213BDA9
:1012F000750800750900750A00750B007905120163
:101300005112101A120176E9F874096860EE74013E
:101310006870EE12101A9003E37808121EF690031C
:10132000E77808121DFA50EB1213B802200074057A
:10133000121E372274F8121BCDE9FE53BEFBE59D49
:10134000A2E650FA0078F8790100E824FF18E934A1
:10135000FFF9E84970F375C6807480659E70FA43A2
:10136000BE049062707408F01213ADEE700853F46E
:10137000FEC29043FE017403F5D575D4899003969F
:10138000E4F0A374C2F0A37401F0A3E4F0A3F0A30B
:10139000F0A37408F01213D37AFF7BFF1219EC53F9
:1013A000F4FED29043FE011213AD021117D2804316
:1013B000FD01C29143FE0222D280C29122781075B3
:1013C000B60FE5B4A2E750FAE5BBC39940F118E8BF
:1013D00070ED2274F7121BCD7A0079011217768A0C
:1013E000828B83A3A3A3A3A3A3A3E493A2E6900366
:1013F000B2500474018001E4F09003B1E4F0906213
:101400000F7403F0E0A2E750FB7F02021D6CC08264
:10141000C08390039F7402F0A3E4F09003A6F079D8
:1014200003121667752100752200D083D0822274C2
:10143000F6121BCD90620EE0FEE4F0906211E0FF28
:10144000A2E4501D7480F09003A67407F0E52145D6
:10145000226009852182852283121F979003A6E4CA
:10146000F0EFA2E2500B906211E4F09003A6F0803E
:10147000679003A6E0F87402687046906216E0FF79
:101480009003B3121DACEFF97A207B6212168174BF
:1014900003121E37EFF89003B612164512164F2F9F
:1014A000121657A3E0F8A3E0F9E8496004744080FD
:1014B000027448906211F0E849600302163B02167C
:1014C000177406687009852182852283121F979000
:1014D00003A6E060030215C2EFA2E0400302163B40
:1014E0007508B8750903750A007808121ECC7908CA
:1014F0007A207B621216817403121E3775210075E3
:1015000022009003B8E054E0601D24E0700302154F
:101510009D24E0607224C0604824E070030215A896
:1015200024E0606E0215B3A3E014602624FE601D63
:1015300024FE600A24FC601F24FE60208075120ACD
:10154000FE9003A6E06404707278608070120AF264
:1015500080EF120AE680EA120E7380E5120F9E8079
:10156000E0A3E0600E24FA600F24FE601024FE6009
:1015700011804012091980C9120B4480C4120E4117
:1015800080BF120F3E80BA7521B675221B121BB6A2
:1015900080AF7521B875221B121BB880A47521512C
:1015A00075221B121B51809975218175221B121BFC
:1015B00081808E9003A67404F0808E7840E890625B
:1015C00011F09003A6E0F874016870617F02900347
:1015D000B6E0F8A3E0F9C3E89420E994005007E8E6
:1015E000F5087F0A80037508209003B3121DACA98B
:1015F000087A207B621216AC7403121E37AC0812F4
:10160000164F2C121657A808A3121645EF90621118
:10161000F0E8C394205024E5214522600985218209
:10162000852283121F979003A6E4F0800E7405684C
:101630007009852182852283121F97EE90620EF039
:101640007F03021D6CC3E098F0A3E09400F02290A9
:1016500003B31216D9E922F9E43AFA9003B3E9F098
:10166000A3EAF0A3EBF022C082C083E99003A7783D
:1016700005F0A3D8FC9003AC7805F0A3D8FC0214C5
:101680002A74F8121BCDEAFCEBFDE9F87408121F6E
:10169000881216D460118C828D83E0121EA0E9247A
:1016A0000109E43AFAD8EF7F01021D6C74F8121BAD
:1016B000CDEAFCEBFDE9F87408121F881216D4601D
:1016C00011121E6D8C828D83F0E9240109E43AFA2F
:1016D000D8EF80D31216D9E822E0F9A3E0FAA3E00C
:1016E000FB22D083D08222C082C083E9FCEAFD7A4B
:1016F000007B00800312173290039DE0F8A3E0F90D
:1017000090047BE0687003A3E069602490039EE08E
:10171000F5838882A3E493F8EC68700D90039DE054
:10172000FAA3E0FB1217328007ED6870C8ED60C5C0
:1017300080B090039DE0F8A3E0F5838882E493F8FD
:1017400090039DE028F8A3E03400F990039DE8F0B1
:10175000A3E9F022C082C0831217657A00790112D2
:1017600016E70216E2900479E0F8A3E0F990039DF1
:10177000E8F0A3E9F02274F7121BCDE9FFEAFE12AC
:1017800017657A0079021216E7EA4B601CEF6010C9
:101790008A828B83A3A3A3A3A3E4936F70E480093D
:1017A000EEF874FF28FE0470D97F02021D6C74F5F8
:1017B000121BCDEAFF8B087A001217767A027904A1
:1017C0001216E7EA4B60188A828B83A3A3E4936F17
:1017D00070EA8A828B83A3A3A3E493650870DD7FFC
:1017E00004021D6C74F7121BCD74F0121EB6E97A58
:1017F000007B00600C146010146014146018021850
:10180000D47AF37B030218D47AF77B030218D47AD4
:101810001B7B040218D490043FE060030218D090B0
:1018200003EB7408121F377408121DD9750808F5E8
:10183000097808121ED07402121F377AE87B0779E4
:101840007F1218EB7402121E377808121ED0740A29
:10185000121F377402121F2F121C907402121E37AF
:101860008B09EA450970197509007808121ED07CA9
:101870000C7D787402121F2F121D267402121E375F
:101880007C287D00EDF8851882851983E58228F58E
:1018900082E43583F583E0FFECF8743F28F8E43404
:1018A00004F9EF1218DC88828983F0EFC41218DC87
:1018B000C0E0E824FEF582E934FFF583D0E0F00DC6
:1018C00074FC2CFCEDC3940840BA90043F742AF0D9
:1018D0007A3F7B047410121E370217A9540FFA7452
:1018E000692AF582E43404F583E02274F6121BCDF4
:1018F000890A740F550AF508750900740B780812E7
:101900001F1CEA2400F8EB3480F9E82400E93509CB
:10191000F985C709A2AFE433F508C2AFE50AC4549C
:101920000FFAE5C754F84AF5C7740A121F88E0FA9F
:10193000A3E0FB801C88828983E08C828D83F08801
:10194000828983A3A882A9838C828D83A3AC82AD74
:1019500083EAFEEBFFEE24FF1AEF34FFFBEE4F703D
:10196000D48509C7E508A2E092AF7F03021D6C741D
:10197000F7121BCDED900389F0ECA3F0A37462F095
:10198000A37473F0A3E0541FF07409121F88E0F5EC
:1019900008A3E0F509E508333354FC90038EF07496
:1019A000067808121F4EE50890038DF090038F749F
:1019B00012F0A37442F075D1FE75D601EA906271FF
:1019C000F0EBA3F0906270E0D2E1F0E0A2E740FB20
:1019D0007F02021D6CC082C083E9C333906272F043
:1019E000906270E0D2E0F0D083D0822274F7121BB4
:1019F000CD7523007524007525008A268B27EA9073
:101A0000620BF08A088B0974047808121F4EE508EF
:101A1000906207F08A088B0974097808121F4EE556
:101A200008543E906209F0758B00C2E87F02021DE7
:101A30006C74F7121BCDE59DA2E650FA906206E0A9
:101A4000F9A2E25034AA26EA90620BF0F508852745
:101A50000974047808121F4EE508906207F08A089E
:101A600085270974097808121F4EE508543E9062D4
:101A700009F0906201E0D2E0F0E9782346F6906246
:101A800002E0F50875090074047808121F1C782319
:101A9000E50846F608E50946F6906204E0F50875A3
:101AA000090074097808121F1C7824E50946F6E934
:101AB000A2E050037525017406596003752500E501
:101AC0008BA2E55006758BDF752500121BCC021A20
:101AD00027080808EAC0E0EBC0E086F0E7A4FA189F
:101AE0000986F0E7A42AFA180986F0E7A42AFA186A
:101AF0000986F0E7A42AFA1986F0E7A4FBE5F02AA4
:101B0000FA190886F0E7A42BFBE5F03AFA190886E3
:101B1000F0E7A42BFBE5F03AFA18180986F0E7A4E1
:101B2000C5F02BFBE43AFA1908E7C5F0C6A426F67F
:101B3000E5F03BFBE43AFA1886F0E7A4F6E5F00896
:101B400026F6E43B08F6E43A08F6D0E0FBD0E0FAEB
:101B500022C082C0839003B9E0F8742268700890B4
:101B600003A6E0701A80117420689003A6700DE03F
:101B7000700D121BA89003A6740280027404F080FA
:101B800043C082C0839003B9E064219003A6701320
:101B9000E07013121BA8A37407F0A3E4F09003A64F
:101BA0000480027404F0801C9003B37496F0A37454
:101BB00003F0A3E4F02280028000C082C08390037F
:101BC000A67404F0D083D0822280EF22222518C58B
:101BD00082C0E0E51934FFC583C0E0E518C39582F3
:101BE00024F910AF08858319858218800885831928
:101BF000858218D2AFCEF0A3E520F0A37808E608DE
:101C0000F0A3DEFAEFF0A3E58124FBF8E608F0A3E9
:101C1000E608F0A30808E608F0A3E608F0A315819B
:101C20001581D0E0FED0E0F815811581E8C0E0EE26
:101C3000C0E02212010002020000205104A816098F
:101C40000001020301090243000201008019090496
:101C50000000010202010005240010010424020218
:101C60000524060001052401000107058203400048
:101C70004009040100020A00000007058402400038
:101C800000070504024000004E1C0000711C00000B
:101C900074F8121BCD7408121F88E0FEA3E08015B3
:101CA000A3AA82AB838C828D83A3AC82AD83EE2406
:101CB000FF1EEF34FFFFEE4F60198C828D83E0F83A
:101CC0008A828B83E0F9E86960D6E9C398FA95E0E7
:101CD000FB80047A007B007F01021D6CE47921788F
:101CE00007B800028004F709D8FCE490030278C129
:101CF00079018002F0A3D8FCD9FA7AC27B03900064
:101D00008E78C479018015E493A3AD82AE838A8274
:101D10008B83F0A3AA82AB838D828E83D8E9D9E727
:101D2000121188121F9274F7121BCDEAF8EBF974A6
:101D300009121F88E0FEA3E0FF80188C828D83E0EB
:101D400088828983F0A3A882A9838C828D83A3AC27
:101D500082AD838E088F09E50824FF1EE50934FF54
:101D6000FFE508450970D47F02021D6C8519838543
:101D70001882E0A3FEE0A3F5207808E0A3F608DFD0
:101D8000FAE0A3FFE0A3C0E0E0A3C0E0E0A3C0E06E
:101D9000E0A3C0E010AF088582188583198008850C
:101DA0008218858319D2AFD083D082227403800039
:101DB000CCC0E0EDC0E0E518C39CCCAD1950011DCE
:101DC00010AF068C188D1980068C188D19D2AF12A1
:101DD0001DD9D0E0FDD0E0FC22CAC0E0E0A3C5825E
:101DE000CCC582C583CDC583F0A3C582CCC582C5D1
:101DF00083CDC583DAE6D0E0CA22C008C3E096F5F9
:101E00000808A3E096420808A3E096420808A3E069
:101E10009645087001D3D00822C5822518C582C511
:101E200083351910AF07F5198582188007F51985D4
:101E30008218D2AFC5832200C0D0251810AF08F594
:101E400018500C05198008F51850020519D2AFD0AA
:101E5000D0222518F58210AF08F518400C1519800E
:101E600008F51840021519D2AF85198322BB01026B
:101E7000E722C082C08389828A83BB0003E080029C
:101E8000E493D083D082226016080808C6C313C624
:101E900018C613C618C613C618C613C6D5E0EA225C
:101EA000BB000EC082C0838A838982F0D083D08237
:101EB00022BB0101F722251810AF08F518400C15B8
:101EC000198008F51840021519D2AF227403800456
:101ED00074028000C0E0F404121E52D0E0121F7B96
:101EE00022E066701008A3E066700A08A3E066703E
:101EF0000408A3E06622E026F608A3E036F608A36D
:101F0000E036F608A3E036F622E627F60809E637BB
:101F1000F60809E637F60809E637F622700422606B
:101F20000D18C6C333C608C633C6D5E0F41822253B
:101F300018FAE43519FB222518FCE43519FD227541
:101F4000D00075813F751802751903021CDC600C06
:101F500008C6C313C618C613C6D5E0F422E6F008B7
:101F6000A3E6F008A3E6F008A3E6F022E0F608A353
:101F7000E0F608A3E0F608A3E0F622CAC0E0E6F027
:101F8000A308DAFAD0E0FA222518F582E43519F52B
:101F9000832200000080FBE473FFFFFFFFFFFFFFD1
:101FA000FFFFFFFFFFFFFFFFFFFFFFFFFFFFFFFF41
:101FB000FFFFFFFFFFFFFFFFFFFFFFFFFFFFFFFF31
:101FC000FFFFFFFFFFFFFFFFFFFFFFFFFFFFFFFF21
:101FD000FFFFFFFFFFFFFFFFFFFFFFFFFFFFFFFF11
:101FE000FFFFFFFFFFFFFFFFFFFFFFFFFFFFFFFF01
:0A1FF600850609433886000000004C
:020000040003F7
:01FFF000F020
:020000040000FA
:10200000022DB8022230FFFFFFFFFFFFFFFFFFFF9F
:10201000FFFFFFFFFFFFFFFFFFFFFFFFFFFFFFFFD0
:10202000FFFFFFFFFFFFFFFFFFFFFF022A50FFFF41
:10203000FFFFFF022252FFFFFFFFFFFFFFFFFFFF37
:10204000FFFFFFFFFFFFFFFFFFFFFFFFFFFFFFFFA0
:10205000FFFFFF02216AFFFFFFFFFFFFFFFFFFFF00
:10206000FFFFFFFFFFFFFFFFFFFFFF022A79FFFFD8
:10207000FFFFFFFFFFFFFFFFFFFFFF0228A1FFFFA2
:10208000FFFFFF0221C101FFFFFFFFFFFFFFFFFF77
:1020900010201020010105030101FF0F10FEFFFEBB
:1020A0004B00000000344B00000000FF000000FF68
:1020B00000010020FD00020000D13D000000006B87
:1020C0003D553EA13D133E0000953D00000000003F
:1020D0000000000000000000000000000000000000
:1020E00000000006FFFFFF00035F005F00300058A4
:1020F00000000000000000000000000000000000E0
:1021000000000000000000000000000000000000CF
:1021100000C22617271727172717271F2701010493
:10212000001018000000E8030000FFFFDD18E803BE
:10213000000064006400B801A0BB0D00A0BB0D004E
:1021400002020008000005020701051E02051E022A
:102150000A0A01080803B80B02803E0102FEFFE8EC
:10216000030A050001FFFF0A01E0C0E074F2122635
:1021700063A2AFE433F508D2AFAFA7AEA1EE5F54D0
:1021800010600612492975A1EFEE5F54086008122D
:102190003AF575A1F78023EEA2E092F0EFA2E0827B
:1021A000F05017906198E0F8900775E0C398A2D2BC
:1021B00065D0335002E8F075A1FE751A00E508807D
:1021C00066C0E074F2122663A2AFE433FED2AF9091
:1021D00061A4E0F8759B00E591585408600875917A
:1021E000F7123B3D8023E59158541060087591EF3C
:1021F000123B438014E591A2E092F0E8A2E082F065
:102200005007E0C2E0F0123C999061A3E0F8E5E9E4
:10221000585404600E123C6F75E9FB906193E0A284
:10222000E640F2751A00EEA2E092AF7F0102271F8E
:10223000C0E074F2122663A2AFE433FED2AF906125
:10224000A5E0F8E5BF585404600675BFFB123CB129
:1022500080D1C0E074F1122663E59DA2E650FA90A9
:102260006206E0F9A2E25034AA2CEA90620BF0F583
:1022700008852D0974047808122DD7E508906207A7
:10228000F08A08852D0974097808122DD7E50854BD
:102290003E906209F0906201E0D2E0F0E9782946D0
:1022A000F6906202E0F50875090074047808122DB2
:1022B000547829E50846F608E50946F6906204E0F8
:1022C000F50875090074097808122D54782AE50973
:1022D00046F6E9A2E05003752B01740659600375B8
:1022E0002B00E58BA2E55006758BDF752B001241A4
:1022F000DF758B00C2E87F0202271FC3E498F8E471
:1023000099F912233C8026C3E49AFAE49BFBE92066
:10231000E7E912233CE498F8E499F922C3E498F839
:10232000E499F912233CE498F8E499F9C3E49AFAA1
:10233000E49BFB22EB20E7CFE920E7E0B90010BBEC
:102340000008E88AF084F8AAF022E4FBC8FA22EB3D
:1023500070227B10C833C8C933C9335007C39AC32E
:10236000DBF280069A50012ADBEAC833F4C8C9338D
:10237000F4C9FA2275F008E4C833C8C933C933C9AF
:102380009AC99B5004C92AC93BD5F0ECFBC833F469
:10239000C8E4C9FA2274F51225FD74FA122C3F75AF
:1023A00008047509007808122B9D7404122C0B7A0E
:1023B000F87B0779031239C97402122B5F908136BA
:1023C0007808122DC87402122E557808122C5570F8
:1023D000497508027509007808122B9D7402122CA9
:1023E0000B7AF67B0779031239C97402122B5F85C9
:1023F0001882851983E0F47003A3E0F4601C85184B
:1024000082851983E0F8A3E0F9888289837402F059
:10241000A3F0A37469F0A374A5F0C2AF75D69F02B0
:1024200000007406122B5F7F040228E4080808EA03
:10243000C0E0EBC0E086F0E7A4FA180986F0E7A454
:102440002AFA180986F0E7A42AFA180986F0E7A400
:102450002AFA1986F0E7A4FBE5F02AFA190886F0B3
:10246000E7A42BFBE5F03AFA190886F0E7A42BFB6A
:10247000E5F03AFA18180986F0E7A4C5F02BFBE45A
:102480003AFA1908E7C5F0C6A426F6E5F03BFBE4E6
:102490003AFA1886F0E7A4F6E5F00826F6E43B08D9
:1024A000F6E43A08F6D0E0FBD0E0FA22122E4AB960
:1024B000000302250CE47921780DB800028004F7AE
:1024C00009D8FCE49004D178B979158002F0A3D83A
:1024D000FCD9FA781A9020867A01BA00028007E4C3
:1024E00093A3F608DAF97A897B1990209478D77942
:1024F000018015E493A3AD82AE838A828B83F0A31F
:10250000AA82AB838D828E83D8E9D9E775827E75E6
:1025100083FB7405122B4175822F75834974001259
:102520002B41E4CFC0E0E4CEC0E0E4CDC0E0E4CC99
:10253000C0E075F020E626F608E633F608E633F646
:1025400008E633F6181818EC33FCED33FDEE33FED5
:10255000EF33FFC3EC9709ED9709EE9709EF971951
:102560001919400FFFEC97FC09ED97FD09EE97FE56
:10257000191906D5F0BFECF709EDF709EEF709EFE9
:10258000F7191919D0E0FCD0E0FDD0E0FED0E0FF53
:10259000222518C582C0E0E51934FFC583C0E0E5F7
:1025A00018C3958224F810AF088583198582188096
:1025B00008858319858218D2AFCEF0A3E520F0A359
:1025C0007808E608F0A3DEFAEFF0A3E58124FAF834
:1025D000E608F0A3E608F0A3E608F0A30808E6087A
:1025E000F0A3E608F0A315811581D0E0FED0E0F855
:1025F000158115811581E8C0E0EEC0E0222518C5DF
:1026000082C0E0E51934FFC583C0E0E518C39582B8
:1026100024F910AF088583198582188008858319ED
:10262000858218D2AFCEF0A3E520F0A37808E608A3
:10263000F0A3DEFAEFF0A3E58124FBF8E608F0A3AF
:10264000E608F0A30808E608F0A3E608F0A3158161
:102650001581D0E0FED0E0F815811581E8C0E0EEEC
:10266000C0E022C0D02518C582C0E0E51934FFC5FE
:1026700083C0E0E518C3958224F310AF0885831961
:102680008582188008858319858218D2AFC8F0A387
:10269000E9F0A3EAF0A3EBF0A37908E709F0A3D8E7
:1026A000FAECF0A3EDF0A3EEF0A3EFF0A3D0E0F08E
:1026B000A3D0E0F0A3D0E0F0A3E520F0A3E5F0F094
:1026C000A32212010002020000205104A8160900F2
:1026D00001020301090243000201008019090400FC
:1026E0000001020201000524001001042402020579
:1026F0002406000105240100010705820340004073
:1027000009040100020A00000007058402400000DD
:1027100007050402400000DD2600000027000085B8
:102720001983851882E0C0E0A3E0F9A3E0FAA3E0F2
:10273000FBA37808E0F608A3DFFAE0FCA3E0FDA322
:10274000E0FEA3E0FFA3E0C0E0A3E0C0E0A3E0F56B
:10275000D0A3E0F520A3E0A3F5F010AF088583191E
:102760008582188008858319858218D2AFD082D0DF
:1027700083D0E0F8D0E0320875F0108E218F2285EA
:102780008226858325851882851983E0CEA3E0CF34
:10279000852682852583EBC9EAC8EDCBECCAC3E860
:1027A00033C8E933C9EA33CAEB33CBC3EA9EF52415
:1027B000EB9FF523B35004AB23AA24EC33CCED33C9
:1027C000CDD5F0DAAE21AF2222D083D082ECC0E0AA
:1027D000EDC0E0E493A3FCE493A3FDED4C600D1287
:1027E0002924EC24FFFCED34FFFD80EFE493A3FCEF
:1027F000E493A3FDED4C600D1229FBEC24FFFCEDEE
:1028000034FFFD80EFD0E0FDD0E0FCE493A3C0E016
:10281000E493C0E022D083D082E9C0E0E493A3C374
:1028200086F0C5F095F0F908E493A386F0C5F0951D
:10283000F0700BE493A3C3994005E9048002A3E47C
:1028400075F002A42582F582E5F03583F583D0E0AA
:10285000F9E493A3C0E0E493C0E0228519838518CE
:1028600082E0A3FEE0A3F5207808E0A3F608DFFAF3
:10287000E0A3FFE0A3C0E0E0A3C0E0E0A3C0E0E08D
:10288000A3C0E0E0A3C0E010AF08858218858319DB
:102890008008858218858319D2AFD083D082022B1D
:1028A00047C0E074F2122663A2AFE433FED2AFE574
:1028B0008AA2E25007900736E0D2E0F0E58AA2E370
:1028C0005007900736E0D2E1F0758A00C2EB7A102B
:1028D0007B00900732E0F9123F87EEA2E092AF7FD3
:1028E0000102271F851983851882E0A3FEE0A3F566
:1028F000207808E0A3F608DFFAE0A3FFE0A3C0E039
:10290000E0A3C0E0E0A3C0E0E0A3C0E010AF088512
:1029100082188583198008858218858319D2AFD0E3
:1029200083D08222C0E0C3E4939608740193961882
:10293000400FE49366700808740193661870007085
:1029400019A3A3C3E49396087401939618A3A34014
:102950000DD0E0D0E0D0E0022805A3A3A3A3A3A359
:10296000D0E022D083D082C5F0E493A3C5F0C39514
:10297000F0F5F0E493A3C395F04005E5F004800181
:10298000E475F002A42582F582E5F03583F583E451
:1029900093A3C0E0E493C0E0227404800874038031
:1029A0000474028000CCC0E0EDC0E0E518C39CCC0C
:1029B000AD1950011D10AF068C188D1980068C18AA
:1029C0008D19D2AF122AC3D0E0FDD0E0FC227402F0
:1029D0008000CCC0E0EDC0E0E518C39CCCAD195040
:1029E000011D10AF068C188D1980068C188D19D218
:1029F000AF122AA1D0E0FDD0E0FC22C0E0C0F088F8
:102A0000F0E4936670080874019366187000A8F0EB
:102A1000A3A3700BD0F0D0E0D0E0D0E0022805A353
:102A2000A3D0F0D0E022D083D082CCC0E0E493A346
:102A30006006122B031470FAE493A36006122C298B
:102A40001470FAD0E0FCE493A3C0E0E493C0E02269
:102A5000C0E0C0D0E8C0E0E9C0E0A9A8D2AFC2C7DA
:102A6000751A00E9A2E7E433F8E9A2E792AFD0E0F3
:102A7000F9D0E0F8D0D0D0E032C0E074F212266392
:102A8000758900C2C5901981E0700E7A007B1090A4
:102A9000080BE0F9123F8780031247857F01022768
:102AA0001FCAC0E0E493A3C582CCC582C583CDC54F
:102AB00083F0A3C582CCC582C583CDC583DAE5D0BA
:102AC000E0CA22CAC0E0E0A3C582CCC582C583CDDE
:102AD000C583F0A3C582CCC582C583CDC583DAE6A4
:102AE000D0E0CA22C008C3E096F50808A3E09642E9
:102AF0000808A3E096420808A3E09645087001D3B1
:102B0000D00822C0E0E493A3D39C5010E493A3C365
:102B10009C400AD0E0D0E0D0E0022A43A3A3A3D097
:102B2000E0227009080808226016181818C6C33376
:102B3000C608C633C608C633C608C633C6D5E0EADB
:102B400022C09FF59FE473D09F22D083D082C09F84
:102B5000E493C0E0740193C0E0740293F59F2200F7
:102B6000C0D0251810AF08F518500C05198008F5CD
:102B70001850020519D2AFD0D0222518F58210AF17
:102B800008F518400C15198008F51840021519D2DF
:102B9000AF851983227404800A740380067402804E
:102BA000027401C0E0F404122B7AD0E0122DF52259
:102BB000BB0102E722C082C08389828A83BB0003F3
:102BC000E08002E493D083D082226016080808C611
:102BD000C313C618C613C618C613C618C613C6D55F
:102BE000E0EA22C3E0C696F608A3E0C696F608A37C
:102BF000E0C696F608A3E0C696F6222518F8E43556
:102C000019F9222518FAE43519FB222518FCE435B8
:102C100019FD22BB000EC082C0838A838982F0D056
:102C200083D08222BB0101F722C0E0E493A36C7041
:102C300009D0E0D0E0D0E0022A43A3A3D0E02225CF
:102C40001810AF08F518400C15198008F518400247
:102C50001519D2AF22E066701008A3E066700A086A
:102C6000A3E066700408A3E06622C3E09608A3E030
:102C70009608A3E09608A3E096A2D265D03322E797
:102C80006670100809E766700A0809E766700408AC
:102C900009E76622C3E697F60809E697F60809E60B
:102CA00097F60809E697F622C3E096F008A3E096A7
:102CB000F008A3E096F008A3E096F022E627F608D5
:102CC00009E637F60809E637F60809E637F622E09E
:102CD00026F608A3E036F608A3E036F608A3E036A9
:102CE000F622E026F008A3E036F008A3E036F0086C
:102CF000A3E036F022E056F008A3E056F008A3E087
:102D000056F008A3E056F022E056F608A3E056F687
:102D100008A3E056F608A3E056F622E647F60809AF
:102D2000E647F60809E647F60809E647F622E4937F
:102D3000F608740193F608740293F608740393F688
:102D400022E657F60809E657F60809E657F6080995
:102D5000E657F622700422600D18C6C333C608C6B3
:102D600033C6D5E0F41822E4C396F608E496F608D4
:102D7000E496F608E496F622C6F4C608C6F4C60839
:102D8000C6F4C608C6F4C622600D08C6A2E713C67C
:102D900018C613C6D5E0F322C3E7960809E79608DC
:102DA00009E7960809E79622C3E09608A3E096088B
:102DB000A3E09608A3E0962275D00075813F7518B0
:102DC000D1751904000224ACE0F608A3E0F608A3CC
:102DD000E0F608A3E0F622600C08C6C313C618C6C6
:102DE00013C6D5E0F422E6F008A3E6F008A3E6F067
:102DF00008A3E6F022CAC0E0E6F0A308DAFAD0E0C1
:102E0000FA22E0F8A3E0F9A3E0FAA3E0FB22E0FC59
:102E1000A3E0FDA3E0FEA3E0FF22EAF0A3EBF0A312
:102E2000ECF0A3EDF022E0FAA3E0FBA3E0FCA3E0CA
:102E3000FD22ECF0A3EDF0A3EEF0A3EFF022E8F01A
:102E4000A3E9F0A3EAF0A3EBF022E5C754F84401AC
:102E5000F5C77901222518F582E43519F583221288
:102E60002B4A65A802122B4A22AC02122B4A36AC1E
:102E700002122B4A40AC02122B4A4AAC02122B4AD5
:102E800054AC02122B4A5EAC02122B4A77AC0212EF
:102E90002B4A81AC02122B4AF8AC02122B4A03AD2A
:102EA00002122B4A32AD02122B4A5AAD02122B4AA1
:102EB00065AD02122B4ACAAD02122B4AD4AD0212E2
:102EC0002B4ADFAD02122B4A03AE02122B4A27AE69
:102ED00002122B4A99AE02122B4AE2AE02122B4A80
:102EE000FEAE02122B4A6FAF02122B4ABBAF021288
:102EF0002B4A04B002122B4A42B002122B4AC3B032
:102F000002122B4A6AB102122B4A2FB302122B4A29
:102F100094B302122B4AC2B402122B4AE8B4021232
:102F20002B4A30B602122B4A6AB902122B4A68BBEE
:102F300002122B4A33BD02122B4ACCBD02122B4A7D
:102F4000CDBF02122B4A82C002122B4ABBC0021212
:102F50002B4A2BC102122B4A35C102122B4A5EC3E7
:102F600002122B4A61C402122B4A9EC502122B4A3E
:102F7000F5C502122B4AA0C602122B4A50C80212F3
:102F80002B4A9DC902122B4ABDC902122B4A12CAF2
:102F900002122B4A13CB02122B4A3BCB02122B4AB2
:102FA0009ACB02122B4A92CC02122B4A09CD021262
:102FB0002B4A1CCE02122B4A8ACE02122B4A89CFF0
:102FC00002122B4AE3D102122B4A0CD202122B4AD4
:102FD00072D302122B4AF4D402122B4A4BD502129E
:102FE0002B4AF9D502122B4A9ED602122B4A01D740
:102FF00002122B4ABFD702122B4A51D802122B4A77
:10300000B0D802122B4AF2D802122B4A23D902124C
:103010002B4A7ADA02122B4A008003122B4A3280A2
:1030200003122B4A6B8003122B4A348203122B4A61
:10303000788203122B4A4C8303122B4AAB83031270
:103040002B4AC18403122B4A0D8503122B4A9B87FE
:1030500003122B4A7F8A03122B4AC68B03122B4A78
:103060005E8C03122B4A6A8C03122B4AB18C03121A
:103070002B4AF38D03122B4AE98E03122B4A138F2E
:1030800003122B4A698F03122B4AC28F03122B4A59
:10309000359003122B4A6B9203122B4AED930312C5
:1030A0002B4AD29403122B4A1C9603122B4A549893
:1030B00003122B4A519B03122B4A609B03122B4A8B
:1030C000F49B03122B4A9F9C03122B4AE29C03128F
:1030D0002B4A2B9D03122B4A7B9D03122B4ADF9D0B
:1030E00003122B4A519E03122B4A6D9E03122B4A48
:1030F0009C9E03122B4ADB9E03122B4AD69F03127F
:103100002B4A85A003122B4A02A303122B4A34A494
:1031100003122B4A0CA503122B4A8EA503122B4A2D
:10312000C3A903122B4AF2A903122B4A4DAA031278
:103130002B4A80AA03122B4A04AB03122B4A54AB2E
:1031400003122B4AC1AC03122B4AE5AC03122B4AE3
:103150001CAD03122B4A29AD03122B4A2CAD0312CE
:103160002B4A5BAD03122B4A53AF03122B4A12B00A
:1031700003122B4A3EB003122B4AF2B103122B4A20
:10318000F5B103122B4A68B203122B4A8CB4031216
:103190002B4AEBB403122B4A3FB503122B4A64B7F8
:1031A00003122B4A62B803122B4A46B903122B4A68
:1031B000D0B903122B4AE4B903122B4A11BA0312F5
:1031C0002B4A41BA03122B4AEDBC03122B4A5FBDB6
:1031D00003122B4AD2BE03122B4AF0BE03122B4A13
:1031E0008F8101122B4AD18101122B4A3E87011295
:1031F0002B4A8A8701122B4AD08701122B4A218938
:1032000001122B4A868901122B4ACA8901122B4AC4
:10321000308B01122B4A8B8E01122B4ABE8F01126A
:103220002B4A4D9B01122B4ADD9B01122B4AC79E54
:1032300001122B4A2CA001122B4A8FA001122B4AFB
:10324000ABA101122B4A15A301122B4AF4A30112C0
:103250002B4A62A601122B4AF4A701122B4A85A819
:1032600001122B4AA4A901122B4A31AA01122B4A9E
:103270003BAA01122B4A63AA01122B4A06AB011288
:103280002B4AF1AB01122B4AB9AC01122B4A46ADC5
:1032900001122B4A5CAD01122B4A79AD01122B4A67
:1032A000A2AD01122B4ACFAD01122B4A13B001126D
:1032B0002B4AE6B001122B4A2AB101122B4AACB1BB
:1032C00001122B4A4DB201122B4A7FB201122B4A36
:1032D000C6B201122B4AF9B201122B4A3DB30112B8
:1032E0002B4A8CB301122B4A91B301122B4AEDB336
:1032F00001122B4A31B401122B4A1BB501122B4A81
:1033000080B501122B4ADEB501122B4A5DB60112BF
:103310002B4AD5B901122B4AD8BA01122B4A6EBCDE
:1033200001122B4AB1BF01122B4A53C001122B4A82
:103330009CC201122B4A57C301122B4A96C3011299
:103340002B4A5AC501122B4A77C501122B4A80C558
:1033500001122B4A89C501122B4A94C501122B4A2E
:10336000B3C501122B4AD7C701122B4A34C8011228
:103370002B4A3EC801122B4A48C801122B4AABC83F
:1033800001122B4A07C901122B4A14CA01122B4AF7
:1033900075CA01122B4A86CB01122B4ACFCB0112E0
:1033A0002B4A99CC01122B4AB0CD01122B4A74CE74
:1033B00001122B4AC0CF01122B4AC4D001122B4A52
:1033C000BDD101122B4AD5D101122B4A0CD20112C8
:1033D0002B4A16D201122B4A20D201122B4A2BD291
:1033E00001122B4A49D201122B4A91D201122B4AC7
:1033F000EFD201122B4A16D301122B4A28D3011205
:103400002B4AD1D301122B4A0AD401122B4A3BD5A5
:1034100001122B4A98D501122B4A89D601122B4A48
:10342000BFD601122B4A2FD701122B4AABD701125C
:103430002B4A2CD901122B4A53DA01122B4A15DBE5
:1034400001122B4AE3DB01122B4A68DC01122B4AE2
:1034500017DD01122B4AFFDD01122B4A98DE011203
:103460002B4A74DF01122B4ADCDF01122B4A9BE04E
:1034700001122B4AF7E001122B4A5BE101122B4AA1
:1034800021E201122B4A44E201122B4AFEE2011210
:103490002B4A20E301122B4A81E301122B4AB1E5AA
:1034A00001122B4AAAE601122B4A56E701122B4AB7
:1034B00073E901122B4ABCE901122B4A07EA0112F7
:1034C0002B4A63EA01122B4AC1EA01122B4AE5EAB0
:1034D00001122B4A09EB01122B4A3EEB01122B4A37
:1034E00066EB01122B4AABEB01122B4A09EC0112DD
:1034F0002B4A62EC01122B4A5CED01122B4A08EFB9
:1035000001122B4A4DEF01122B4A76EF01122B4A82
:10351000FFEF01122B4A72F001122B4A80F00112C8
:103520002B4AA4F001122B4AFAF001122B4A15F192
:1035300001122B4AD0F101122B4AFCF101122B4A45
:103540005FF201122B4A6FF401122B4A9BF4011215
:103550002B4A56F501122B4A3AF601122B4ACEF6A7
:1035600001122B4AF58D06122B4A348E06122B4A75
:1035700071BF03122B4A1AC003122B4AF9C003125F
:103580002B4A05C203122B4A25C203122B4A47C3FA
:1035900003122B4AF7C403122B4A64C503122B4AA9
:1035A00035C603122B4A3BC703122B4AB3C703127B
:1035B0002B4AEEC703122B4A47C803122B4A82C874
:1035C00003122B4ACBC803122B4A5FC903122B4AA2
:1035D000F5C903122B4ACACA03122B4A9DCB031208
:1035E0002B4A2BCC03122B4A51CC03122B4A7ECCF4
:1035F00003122B4AAFCC03122B4A7CCD03122B4A69
:103600008CCD03122B4ADFCD03122B4AECCD0312D3
:103610002B4AF9CD03122B4A02CE03122B4A66CE57
:1036200003122B4AC4CE03122B4A0FCF03122B4A8C
:103630002ACF03122B4A51CF03122B4A6ECF03120B
:103640002B4A7ACF03122B4A0BD103122B4A24D1D7
:1036500003122B4AA0D103122B4AB3D103122B4AD7
:10366000C3D103122B4A67D203122B4AD3D30312BE
:103670002B4AE6D403122B4A86D503122B4A90D547
:1036800003122B4A0FD603122B4A20D603122B4AC1
:103690005FD603122B4A8DD603122B4A5AD7031238
:1036A0002B4AB1D703122B4AEAD703122B4A40D830
:1036B00003122B4A5ED803122B4AACD803122B4AB2
:1036C00077D903122B4AC5D903122B4A12DA0312F7
:1036D0002B4A95DA03122B4ABFDA03122B4AF5DA8A
:1036E00003122B4A04DB03122B4A63DB03122B4A1F
:1036F000DBDB03122B4A1CDC03122B4A6CDC0312AB
:103700002B4A97DC03122B4AB1DC03122B4ACBDC89
:1037100003122B4AA0DD03122B4AAADD03122B4A07
:10372000E5DD03122B4AF5DD03122B4AFEDD031201
:103730002B4A4FDE03122B4A63DE03122B4A85DF2E
:1037400003122B4A98DF03122B4AAFDF03122B4AD6
:10375000C4DF03122B4A57E003122B4ACBE00312BB
:103760002B4A70E103122B4A7BE103122B4ADEE263
:1037700003122B4AFAE203122B4A46E303122B4AA6
:10378000B4E303122B4AE6E303122B4A00E40312CC
:103790002B4A60E403122B4AFFE403122B4A4AE54A
:1037A00003122B4A9DE703122B4A35E803122B4ADA
:1037B000ACE803122B4A09EB03122B4A21EB03124C
:1037C0002B4A24EB03122B4A30EB03122B4A44EB17
:1037D00003122B4A4CEB03122B4A83EB03122B4AA6
:1037E00077EC03122B4A01ED03122B4A83ED0312EF
:1037F0002B4A03EE03122B4ADAEE03122B4AFCEE9D
:1038000003122B4A95EF03122B4AF2EF03122B4AB5
:10381000F5EF03122B4A22F003122B4A37F0031262
:103820002B4AA6F003122B4AF2F103122B4A05F39E
:1038300003122B4A90F303122B4AA3F403122B4AD0
:103840006AF503122B4A9BF503122B4AC1F50312AA
:103850002B4ACAF503122B4AF9F503122B4AA9F693
:1038600003122B4A59F703122B4ACCF703122B4AA7
:103870006FF803122B4AE2F803122B4A21F90312C4
:103880002B4A6AF903122B4A9FF903122B4AF5E6D9
:1038900004122B4A62E704122B4AA9E704122B4AAE
:1038A0001FE804122B4A71E804122B4AF7E80412AD
:1038B0002B4A3BEB04122B4A6AED04122B4A47F1C8
:1038C00004122B4AC7F104122B4A02F204122B4AAB
:1038D00020F204122B4A80F204122B4AA8F204129E
:1038E0002B4AD8F204122B4A09F304122B4A36F35E
:1038F00004122B4A8FF304122B4ADAF304122B4AD8
:10390000008005122B4A7C8005122B4AA8800512E4
:103910002B4ADA8005122B4A3C8205122B4A588228
:1039200005122B4A968205122B4A238305122B4A35
:103930007F8305122B4A458405122B4A0485051204
:103940002B4A498505122B4AAA8505122B4A1F8648
:1039500005122B4A598605122B4AB18605122B4AAD
:10396000D38605122B4A6B8705122B4A1288051243
:103970002B4A5F8805122B4A888805122B4AC98872
:1039800005122B4A768A05122B4A5A8B05122B4AAE
:103990000B8C05122B4A32FF03122B4A43FF0312F2
:1039A0002B4AE1FF03122B4AF1FF01122B4ADAFFE7
:1039B00002122B4AF18806122B4A018906122B4A61
:1039C000198906122B4ACD8906122B4AEE87061258
:1039D0002B4A728806122B4AD88806122B4A8E8AE6
:1039E00006122B4A918A06122B4ACA8A06122B4AC1
:1039F000208B06122B4A338B06122B4A368B06126B
:103A00002B4ACCD805122B4ADAD805122B4A53D9A7
:103A100005122B4A28DA05122B4AE7DB05122B4A3E
:103A20004CDC05122B4AABDC05122B4AF87F001246
:103A30002B4A71F905122B4AA9F905122B4AF7FAFC
:103A400005122B4A7BFB05122B4AB4EF05122B4AB9
:103A500055F005122B4A8EF005122B4AD9F00512AB
:103A60002B4AA2F105122B4ACCF105122B4AF2F196
:103A700005122B4A06F205122B4A1BF205122B4A9D
:103A800024F205122B4AEB7900122B4A177A001206
:103A90002B4ABD7C00122B4A147D00122B4A507D0C
:103AA00000122B4A647D00122B4A7D7D00122B4AA6
:103AB0006E7E00122B4A4A7F00122B4A5E7F001254
:103AC0002B4A008006122B4A248006122B4A3D8086
:103AD00006122B4A7B8006122B4AB18006122B4A13
:103AE000E48006122B4AEE8006122B4A5A810612F7
:103AF0002B4A309E02122B4A678106122B4A748190
:103B000006122B4A08ED05122B4A2BED05122B4A03
:103B100076ED05122B4A94ED05122B4AAFED0512F6
:103B20002B4A15EE05122B4A21EE05122B4A7EEE8A
:103B300005122B4AA2EE05122B4A68EF05122B4AFA
:103B400075EF05122B4A86EF05122B4A727F001281
:103B50002B4A8A7F00122B4AB67F00122B4A8BA673
:103B600002122B4A09BF05122B4A17BF05122B4A16
:103B70002BBF05122B4A48BF05122B4A5DBF051209
:103B80002B4A70BF05122B4AF2BF05122B4A58C0B0
:103B900005122B4AE1C005122B4A59C105122B4AC6
:103BA00032C205122B4A42C205122B4A51C20512DB
:103BB0002B4AF38B06122B4A178C06122B4A3F8C8A
:103BC00006122B4A678C06122B4A54F205122B4A16
:103BD0007BF205122B4A9AF205122B4A0FF30512BB
:103BE0002B4A35EA05122B4A4EEA05122B4A65EAA2
:103BF00005122B4A6EEA05122B4A8CEA05122B4A53
:103C000096EA05122B4AA0EA05122B4AB3EA0512DE
:103C10002B4A40EB05122B4AAFEB05122B4ADDEB8A
:103C200005122B4A2EEC05122B4A7AEC05122B4A70
:103C300095EC05122B4A9FEC05122B4AB0EC0512AD
:103C40002B4AF3EC05122B4A9AFF01122B4AE5FF8F
:103C500001122B4AAF9705122B4ADB9705122B4A0C
:103C6000FE9705122B4A119805122B4A2C98051223
:103C70002B4A909805122B4ABE9805122B4ACB9CD2
:103C800005122B4A0D9E05122B4A3F9E05122B4A08
:103C9000AA9E05122B4A2EA005122B4A56A00512E9
:103CA0002B4A6BA005122B4A7BA005122B4ABBA006
:103CB00005122B4AFDA005122B4A0DA105122B4A15
:103CC000458406122B4A558406122B4A7984061223
:103CD0002B4AA28406122B4ACC8406122B4AF0846B
:103CE00006122B4A078506122B4A358506122B4AE7
:103CF000588506122B4ADA8906122B4A208A0612A8
:103D00002B4ABFDC05122B4ACFDC05122B4AEDDD16
:103D100005122B4A21DE05122B4A43DE05122B4ADF
:103D20006BDE05122B4A84DE05122B4AC0DE05121B
:103D30002B4A26DF05122B4A6BDF05122B4AB0DF18
:103D400005122B4ADDDF05122B4A15E005122B4A1E
:103D5000D1D405122B4A33D505122B4ADAD50512D8
:103D60002B4A12D605122B4AD0D904122B4A7FDADD
:103D700004122B4AB3DC04122B4A86DF04122B4AAE
:103D800006E104122B4A68E104122B4A73E4041280
:103D90002B4AB7E504122B4A908506122B4ADB8585
:103DA00006122B4A36B805122B4AF5BA05122B4AD1
:103DB00092BB05122B4ABEBB05122B4AECBB051267
:103DC0002B4A21BC05122B4A49BC05122B4AA9BC1F
:103DD00005122B4A11F404122B4A09F804122B4A3B
:103DE00000FA04122B4A2EFB04122B4A0AFC04127E
:103DF0002B4AA5FD04122B4A72FE04122B4AC6FE62
:103E000004122B4AE1F405122B4AEBF405122B4A5B
:103E10000CF505122B4ABFCB04122B4AE3D0041237
:103E20002B4A12D204122B4AEED304122B4A79D415
:103E300004122B4A0DD504122B4A06D604122B4A23
:103E40003DD704122B4A4AD804122B4A2FD9041208
:103E50002B4A008004122B4A388004122B4A448AD1
:103E600004122B4A2E8B04122B4A7E8C04122B4AEE
:103E7000C98D04122B4A748E04122B4A478F0412E8
:103E80002B4ADE8F04122B4AC29004122B4AC59192
:103E900004122B4A879204122B4AB59204122B4A21
:103EA0002D9404122B4AB69404122B4ACF94041278
:103EB0002B4A299604122B4ADB9604122B4A6A9746
:103EC00004122B4A199804122B4A7C9804122B4A8C
:103ED000189904122B4A919904122B4AAF99041293
:103EE0002B4A7C9A04122B4A4B9B04122B4A019CAE
:103EF00004122B4A7E8106122B4AA88106122B4AF5
:103F0000BA8206122B4ABD8206122B4A8C8C0612EC
:103F10002B4ACE8C06122B4A108D06122B4A208D6E
:103F200006122B4A80F902122B4AC7F902122B4AB9
:103F300030FA02122B4A51FA02122B4A6AFA021282
:103F40002B4A1AFB02122B4A23FB02122B4A74FB48
:103F500002122B4AAAFB02122B4AC1FB02122B4A65
:103F60002EFC02122B4ABEFC02122B4AF4FC021257
:103F70002B4A3DFD02122B4A9EFD02122B4AD8FD10
:103F800002122B4A40FE02122B4A93FE02122B4AC7
:103F9000D6FE02122B4A13FF02122B4A25FF0212F1
:103FA0002B4A37FF02122B4A71FF02122B4AB1FF34
:103FB00002122B4A82C205122B4AC8C305122B4A91
:103FC000F1C305122B4A02C405122B4A1AC6051268
:103FD0002B4A3AC605122B4A2DF705122B4A63F7D6
:103FE00005122B4AB2F705122B4A0EF905122B4A7D
:103FF000ADB704122B4AEBB804122B4A27B90412AE
:104000002B4AECBA04122B4A16BB04122B4A9CBD55
:1040100004122B4ADCBD04122B4A72BF04122B4A35
:1040200007C004122B4A65C004122B4AEBC00412CD
:104030002B4A23C104122B4A65C104122B4AD2C257
:1040400004122B4A56C404122B4A90C604122B4A5F
:10405000BEC604122B4AEAC604122B4AF3C6041247
:104060002B4A49C704122B4AD9C704122B4AE0CA6B
:1040700004122B4A62CB04122B4A3F8B06122B4AA6
:10408000558B06122B4A5F8B06122B4ABB8B0612EE
:104090002B4A58CC05122B4A71CC05122B4A16CD4F
:1040A00005122B4A56CD05122B4A6FCD05122B4A0D
:1040B000A2CD05122B4AEFCD05122B4A23CE0512B5
:1040C0002B4A65CE05122B4A3ED005122B4AA9D0A9
:1040D00005122B4AC48606122B4A198706122B4A50
:1040E000738706122B4AE4FE04122B4A56FF041271
:1040F0002B4A94FF04122B4AD5FF04122B4A8FF748
:1041000001122B4A95F701122B4ADCF701122B4AB8
:10411000E8F901122B4A18FA01122B4A82FA01120D
:104120002B4A3DFB01122B4A80FB01122B4AB1FBAB
:1041300001122B4A3BFC01122B4A52FC01122B4A62
:104140005FFC01122B4A69FC01122B4A09FE011285
:104150002B4AFBFE01122B4A59FF01122B4A3DA1AB
:1041600005122B4A53A105122B4A05A205122B4A10
:104170002FA305122B4A24A405122B4ABBA4051217
:104180002B4AF6A405122B4A68A505122B4AC6A590
:1041900005122B4AD6A505122B4AFDA505122B4A5E
:1041A0004FA605122B4ABBA705122B4AC0A7051222
:1041B0002B4AE2A705122B4A2A8D06122B4A588D4C
:1041C00006122B4A8D8D06122B4A8F8D06122B4A12
:1041D000918D06122B4AA28D06122B4AA48D06122F
:1041E0002B4AA78D06122B4A7BFD05122B4AE9FDAF
:1041F00005122B4A0BFE05122B4A43FE05122B4AD1
:1042000079FE05122B4A22E705122B4A64E70512B4
:104210002B4A87E705122B4ABAE905122B4AD4E943
:1042200005122B4AFFE905122B4AAA8D06122B4ACA
:10423000B7A905122B4A95AA05122B4A7BAB05128A
:104240002B4A8CAB05122B4A9DAB05122B4AE9ABCE
:1042500005122B4ADAAD05122B4A2FAF05122B4A55
:104260005FAF05122B4A23B005122B4A81B005120D
:104270002B4AD6DA02122B4A31DB02122B4AAEDC71
:1042800002122B4A6BDD02122B4A82DD02122B4AEC
:10429000D1DD02122B4A45DE02122B4A58DE0212F1
:1042A0002B4AA6DE02122B4A15DF02122B4A2DDF03
:1042B00002122B4AA0E102122B4AADE202122B4A53
:1042C00008E302122B4A9EE502122B4A1FE6021255
:1042D0002B4A61E602122B4A3BE702122B4A74E793
:1042E00002122B4ABFE702122B4AD5E702122B4AD1
:1042F00090E802122B4A5EE902122B4A69E9021287
:104300002B4AB7E902122B4A0CEA02122B4A58EA4E
:1043100002122B4AB5EB02122B4AE8EB02122B4A8F
:104320007BEE02122B4AAEEE02122B4AC5EF0212AE
:104330002B4AF4EF02122B4A66F002122B4A91F03C
:1043400002122B4AD3F002122B4A47F102122B4AD7
:1043500065F202122B4AB2F202122B4ABCF202128E
:104360002B4ABFF202122B4AC9F202122B4AE5F283
:1043700002122B4A65F302122B4A9EF302122B4AB9
:10438000BAF302122B4AE6F302122B4A0DF4021280
:104390002B4A31F402122B4AAAF402122B4A1DF5C1
:1043A00002122B4A60F502122B4A6AF502122B4ABE
:1043B00099F502122B4AAFF502122B4ACBF50212E5
:1043C0002B4AFAF502122B4A1AF602122B4A63F60E
:1043D00002122B4A9EF602122B4AAAF702122B4A0D
:1043E00004F902122B4A23F902122B4A3BF902125A
:1043F0002B4A4DF902122B4A0AFF05122B4A1BFFCA
:1044000005122B4AA4FF05122B4A0AFA03122B4A63
:1044100048FA03122B4AE1FA03122B4AECFB03126F
:104420002B4A34FE03122B4AB1FE03122B4AFDB075
:1044300005122B4A4CB105122B4A0AB305122B4A1E
:10444000DEB405122B4A1CB505122B4AFDB5051228
:104450002B4A07B705122B4A29B705122B4A85B7F5
:1044600005122B4A06B805122B4AF74E00122B4AAA
:10447000194F00122B4A885000122B4AD1500012BB
:104480002B4A425100122B4AC55100122B4A3C5272
:1044900000122B4A835200122B4AFA5200122B4A66
:1044A0009B5300122B4A105400122B4A4D540012F9
:1044B0002B4A905800122B4AB15A00122B4AEA5A42
:1044C00000122B4A3C5B00122B4A3D5E00122B4A25
:1044D000CD5E00122B4A816000122B4AAF610012A0
:1044E0002B4ADB6200122B4A466300122B4A2764D8
:1044F00000122B4A856400122B4A886400122B4A52
:104500004E6500122B4A976600122B4AC6680012AD
:104510002B4AD56A00122B4ABD6B00122B4A546EEF
:1045200000122B4A2D6F00122B4A6C7000122B4A7E
:104530009C7300122B4AAC7300122B4AF2740012C7
:104540002B4A8B7500122B4ABE7600122B4A2C7711
:1045500000122B4A577800122B4A927800122B4AED
:104560003B7900122B4AC69C04122B4A689D041208
:104570002B4AD49D04122B4AEE9D04122B4A709EA6
:1045800004122B4AAA9E04122B4AAC9F04122B4AF7
:10459000EE9F04122B4A60A004122B4AB0A0041212
:1045A0002B4A0FA104122B4ABBA104122B4AA5A42B
:1045B00004122B4A6CA504122B4AD2A504122B4AD2
:1045C0007AA704122B4A13A804122B4AACA804128F
:1045D0002B4A0FA904122B4A85A904122B4A86AA3A
:1045E00004122B4A77AB04122B4AB2AB04122B4AAB
:1045F000C9AB04122B4AA7AC04122B4AE5AC041237
:104600002B4A6DAD04122B4ABAAE04122B4A7EB06F
:1046100004122B4ABCB104122B4AEFB204122B4AEB
:1046200003B404122B4A9AB404122B4A09B504129B
:104630002B4A16B604122B4AF88C05122B4A638DAE
:1046400005122B4AAB8D05122B4A128E05122B4AEE
:104650006E8E05122B4AA98E05122B4A458F051224
:104660002B4A9F8F05122B4A0B9105122B4A9291D0
:1046700005122B4AD39105122B4AFE9105122B4AA3
:104680007F9205122B4AC79205122B4AED92051212
:104690002B4A3F9405122B4A449405122B4ABB9493
:1046A00005122B4A279505122B4A229605122B4AF2
:1046B0000E9705122B4A69E005122B4AACE1051250
:1046C0002B4A74E205122B4AC9E205122B4A4FE32A
:1046D00005122B4AB6D005122B4AD4D005122B4A0C
:1046E00018D105122B4A3ED105122B4A65D105126D
:1046F0002B4A7DD105122B4A95D105122B4AADD1FB
:1047000005122B4A53D205122B4A95D205122B4A79
:10471000AAD205122B4AB1D305122B4ACCD30512CB
:104720002B4AD5D305122B4ADED305122B4AE7D3E9
:1047300005122B4AF1D305122B4A6ED405122B4ACF
:104740008EC705122B4AD0CB05122B4AECCB051293
:104750002B4AF1CB05122B4AFAFB05122B4AE3E355
:1047600005122B4AF9E305122B4A7AE505122B4A6A
:10477000A4E505122B4AEAE505122B4AF3E60512D9
:104780002B4AEA8206122B4A618E06122B4A868E2B
:1047900006122B4A149E02122B4AF69D02122B4A35
:1047A000DE9C02122B4AB99C02122B4AC99B0212B0
:1047B0002B4A559B02122B4ABE9A02122B4A4C9A44
:1047C00002122B4A3B9A02122B4A169A02122B4AC9
:1047D000329902122B4A4E9802122B4A6495021209
:1047E0002B4A219402122B4A889102122B4A4391A0
:1047F00002122B4AE99002122B4A4A9002122B4ACB
:10480000F58F02122B4A228F02122B4A5C8E021263
:104810002B4A208E02122B4AB38D02122B4AAB8DEB
:1048200002122B4A208D02122B4A4FA602122B4A4B
:10483000B08C02122B4A1EA502122B4A9FA4021210
:104840002B4A64A302122B4A54A302122B4A28A219
:1048500002122B4A46A002122B4A3DA002122B4AFA
:104860003A9F02122B4A018C02122B4AF68B02123B
:104870002B4AE78B02122B4AC68B02122B4AB29E9E
:1048800002122B4A928B02122B4A668B02122B4A7F
:10489000388A02122B4A2C8802122B4AA5BD051217
:1048A0002B4AFD8702122B4AA39E02122B4AE18754
:1048B00002122B4A8B8702122B4A528702122B4A72
:1048C000CA8602122B4A7E8602122B4A37860212B1
:1048D0002B4A6A8502122B4AEE8402122B4A468426
:1048E00002122B4A9F8302122B4A418302122B4A47
:1048F000168302122B4AC78202122B4A89820212A5
:104900002B4A668202122B4A4D8202122B4A0582E2
:1049100002122B4A008002122B4A4F8102122B4AAC
:10492000C38002122B4A578002122B4A5D81060077
:10493000000080FBE4738F00010074198700010000
:10494000731935000400231A25000200271A2600D7
:104950000200291A270002002B1A28000100351A2C
:1049600029000100361A84000400371A860001006D
:104970003B1A2A0001003C1A2B0001003D1A2C00B2
:104980000100401A2D00080055192E000100411A9F
:104990002F000100421A30000100431A31000100CB
:1049A000441A320001005D19330001005E19340021
:1049B0000100451A360001005F1938000100461A4F
:1049C000390001003F1A830002005A1A63000100F7
:1049D0007019640001004C19650001003E1A6D0059
:1049E00001007119710008004D1966000100591A83
:1049F000430001004A1A440002004B1A450001001E
:104A00004D1A460002004E1A470008006819480077
:104A10000100501A4B000100511A040001005C1AF9
:104A2000A10001005E1A370001005D1A8800010034
:104A300075193C00010060193D000100471A49004A
:104A40000200521A6700010072194D000200541A48
:104A50004E000100561A4F000200571A3E00010096
:104A6000671951000100611952000100481A5300F2
:104A70000100491A54000100621900000000000002
:104A800000013636010100010201000103010001AD
:104A90000401060605020000070100340801000FAA
:104AA000090401010D0100FF0E08000017020000BB
:104AB000190100FF1A0100011B0100FE1C01000882
:104AC0001D0200001F010001200100012102000061
:104AD0002301000F24020000260100012701000825
:104AE000280200FF2A0100072B0102402C010000D0
:104AF0002D0100012E0100012F0100FF30010B1DCF
:104B0000310800003A0100083B01000F3C010001A0
:104B10003D0100FF3E040000420400004604000086
:104B20004A0400004E040000520400005604000035
:104B30005A0400000103710301030103010301038F
:104B40000103220302030103100300030003000317
:104B500000030003000300034203000324030603D1
:104B60000003000304031203250323032503230387
:104B700004030403000300030003440300030003D1
:104B800023030003650321003503810300030503AC
:104B9000000300030003000325032303030471043F
:104BA00002046004110470040204020401040204FB
:104BB00010046104000414046304730472046204A6
:104BC0004304000413040604000400040404120453
:104BD0000004000400040004510464000004000404
:104BE00000044404000400040004000465040004FC
:104BF00035048104640005040004830400040300F8
:104C00007100300160001100700031022003500477
:104C10008000100061000000140063007300720047
:104C200062004300000013000600000000000400C2
:104C30001200000000000000000004000400370023
:104C400037003C0244000000000000000000650046
:104C50000000350081000000050000008300000016
:104C60000101710101010101110101013101010184
:104C700001018001100161013B0014006301730117
:104C80007201620143010001130106013D0135007B
:104C900004011201000100010001000104010401EE
:104CA000330133013C0144013201360000010001AF
:104CB00065010001350081010001050182018301C8
:104CC0000001030271023001600211027002010250
:104CD000020202028002100261023A0041006302F5
:104CE00073027202620243020002130238000002E1
:104CF000000204021202000200020002000204028A
:104D00000402370037003C0244020002390000026E
:104D100000026502000235028102000205028202E1
:104D20008302000236000100060000000F000000B0
:104D30000000000000000000000003FFFF0000046E
:104D400003FFFF0000FFFF0FF4010005C404032070
:104D5000000100000B000000000000000003010F34
:104D60000000000000000000000000000000000043
:104D70000000000000000000000000000000000033
:104D800000000000A545130003451F0009451F80D2
:104D90000F450100A54502008B4403009144040027
:104DA000974405009D440600A9443000C7443100E3
:104DB000C1443200D3443300D9443500DF443400C9
:104DC000E5443600EB441100F7441400FD4415009F
:104DD000BB44FFFF00000A000000020000000400C6
:104DE000000008000000100000002000000040004B
:104DF000000080000000000100000002000000042C
:104E0000000000080000001000000020000000402A
:104E10000000012532065B320855320B733210C791
:104E20002F0A8532022B320549320731320C0D32FE
:104E30000D193264F747FF000007ECFDFDFDECDCC7
:104E4000DCCCBCACAC9C9C8C7C7C6C6C5C5C5C4CB2
:104E50004C3C3C2C2C1C1C03EAF5E5D5D5C5B5A56E
:104E60009595858575756565555545453535252572
:104E700015150500160F00000B150B020002220F7E
:104E80003300000E0C0E020B040B0A0708000F0083
:104E90000119161816161823030000034A49434E39
:104EA000181A250502303016181920231A1C1E3036
:104EB00000393D3F373C3C362C442D303017181913
:104EC00021301B1D1F3002040201010101090200F3
:104ED000BE040A7F00E8030E00000000000C08106A
:104EE0000C0A1503090900040003FF1E1E01050C2E
:104EF00004040810050328C082C0839018D5E4F08C
:104F0000A3F07CED7D047AF07B171240F51247C7C1
:104F10001230151247C1026ED574F312259174F543
:104F2000122C3F89098A088B0A8C0BE9705F740286
:104F30006508703F79081243DD750C00780C122B60
:104F4000A1E50BF50C780C122BA1E50AF50C780CF9
:104F5000122BA190180C122999901A3BE0F97C6849
:104F60007D19901A5A126EE212479D7407122B5F38
:104F700002505074016508600302505579081243CD
:104F8000DD7B00AA0AA90A12484502505074016547
:104F9000096009740265096003025055EA600674ED
:104FA000036508704779021243DD901A3BE0F990DF
:104FB000180C122E261247AFE9F9901819E0A2E357
:104FC0004010E9700D9018D9E004F06404700312E9
:104FD000507674036508707A9018DAE0F874012846
:104FE000F0E8C39405406B12507680667401650842
:104FF000706374016509790A702E1243DD74011221
:105000002E55E4F07402122E557403F004122E553E
:10501000E4F0A3F0A3F0A3F07408122E55E4F0AA74
:1050200018AB1912323780441243DD901A3112291D
:10503000997A007B20901810E0F91240A7740412AE
:105040002B5F901A3BE0F990180C122E2612485D47
:10505000E9F9E960179081121229997A017B009091
:105060001810E0F91240A77404122B5F740B122B76
:105070005F7F0502285B90180CE4F0A374F8F0A39E
:1050800074FFF0A37407F02274F6122591E9FFEA89
:10509000FE7AD1F9123F638A828B83E58245837061
:1050A0002A7A027B00123F45EA4B700E7A107B0091
:1050B000901810E0F9123F8780148A828B8374D194
:1050C000F0EFA3F0EEF9123F518003EFA3F002528C
:1050D000F574F712259189089006F8126422901A47
:1050E0001FE0F47003A3E0F4702D90080BE0901A19
:1050F0001FF0A3E4F080208E828F83A31262D5601C
:105100000F8E828F83A3A31262CFFAA90812447371
:105110008E828F831251B8EE4F70DC901A1FE0F42C
:105120007003A3E0F4600A901A1FE0FAA908124481
:10513000731233459017DA125AE412333F7F01029B
:10514000285B74F0122591890B8C0C750800750989
:10515000007410122E5512522C7412122E55125128
:10516000B8803CA80A12521CF50EA3E0F50FA8095E
:1051700012520FF583E0650E7004A3E0650F701402
:105180001251AFEE28F582EF39F583E50EF0A3E575
:105190000FF00508050AE50AC3950C40C60509E5A8
:1051A00009C3950B5005750A0080EBA9088011A86A
:1051B00008E828F8E433F9221274B5E8FEE9FF2282
:1051C0007F0802285B74F4122591890B8C0A7508FC
:1051D00000740C122E5512522C80020508E508C3EB
:1051E000950B502775090080020509E509C3950A4A
:1051F00050E9A80812520F126420A80912521C6E1E
:105200007003A3E06F70E27901800279008028E8E2
:1052100028F8E433F9EA28F582EB3922E828F8E4A3
:1052200033F9EC28F582ED39F583E0221274B5E804
:10523000FCE9FD22122B5F7F0402285B74F6122525
:10524000911252DF7003A3E06D701775081775098E
:10525000187808122B9DEEFA1245AB7402122B5FE0
:10526000801F7508027509807808122B9D8C088DA7
:10527000097808122B9D1252CA1245CF7404122BC2
:105280005F807274F61225911252DF7003A3E06DF5
:1052900070177508247509187808122B9DEEFA12FC
:1052A00045B17402122B5F801F7508037509807861
:1052B00008122B9D8C088D097808122B9D1252CA5A
:1052C0001245CF7404122B5F802B1252D83FF58306
:1052D000E0FD7C8012652922EE240EF582E422EAAC
:1052E000FEEBFF12653EFCE439FD9017DAE06C221C
:1052F0007402122B5F7F0202285B74F612259174F0
:10530000FE122C3FEAFEEBFF851882851983E4F03C
:10531000A3125A96126677FBECFA88828983A3A3BC
:10532000E0F9750900750800600574FF697005757E
:105330000882803D9017DAE06A7003A3E06B701A70
:10534000AA18AB191238CDE9F50985188285198399
:105350001268B9701C7508838017901973E0600497
:10536000640170057508818008E0640270037508A7
:10537000808518828519831268A2A908EEFAEFFBCE
:105380001245B7E50960118518828519831268B93D
:105390006006126EDC123FE70252F074F2122591A1
:1053A000EAFEEBFF75080075090012653AF50AE49C
:1053B00039F50B123345EA650A7003EB650B701281
:1053C0001238DFE914F50879017AA17B181238E563
:1053D00080037509801268A8F50C780C122BA17552
:1053E0000CA1750D18780C122B9D7808122BA17842
:1053F0000A122B9DE509F5087808122BA112633BD0
:105400001268ABF97A057B801245BD740702768A73
:1054100074F6122591890975080080278A828B838A
:10542000E0FE12783FEE28E439FF1251AFEC28F588
:1054300082ED39F583EEF0A3EFF0EA2402FA500191
:105440000B0508E508C3950940D20252F574E8122D
:10545000259174FB122C3F8A168B178518828519AB
:1054600083E4F07403122E55E4F0A3F004122E55D9
:10547000E4F0A3F0125DF33517125A68F50B850AB4
:1054800082F58312792BFEE439FF850A82850B832E
:10549000A3A3E0FA850A82850B83A3A3A3E0F9EA1C
:1054A000F508E439F509E50A2404F50A5002050B6C
:1054B000EEFAEFFB1233E1E964016016EEFAEFFB5E
:1054C0001233E1E9703D9017DAE06E7003A3E06FEC
:1054D0006031126688122BA1E4F508F509780812EC
:1054E0002B9D7808122BA19017DA1229A17508803C
:1054F0007808122BA11258451245BD7407122B5F74
:1055000002583B1258738810602B1274D6123FE178
:105510007403122E55125AE47403122E551268B9F0
:1055200060137403122E5512586BA9101244A38AEB
:105530000A8B0B8003751000125873880F602712B6
:1055400074D6123FE17401122E55125AE4740112FE
:105550002E551268B9600F7401122E5512586BA99E
:105560000F1244A38003750F009006F8805C850A33
:1055700082850B83A3A3A3A3A3A3A3A3E4F0A3F017
:10558000AA0AAB0B851482851583A3A3E0F81262E7
:10559000CFF9123F51851282851383E0C0E0851850
:1055A00082851983E0F874A128F582E43418F58324
:1055B000D0E01268BD04F0E511A2E05007AA12ABDA
:1055C00013123FE7851482851583E0F514A3E0F5F7
:1055D00015E514451570030257A8851482851583B7
:1055E000A31262D560DE851482851583A3A3A3A3CD
:1055F000A3A3A3A3E0A2E050CB851482851583A3C7
:10560000A3A3A31268B9851482851583A3A3601F81
:105610001262D6FA7901851482851583A3A3A3A308
:1056200012585E1249348A128B13751101801012C0
:10563000585EA3A3A3E0F512A3E0F513751100E5EE
:1056400012451370030255B7851282851383A3E0B8
:1056500065087004A3E06509600F74FF65087004B5
:1056600074FF650960030255B7851282851383A311
:10567000A3A3A3A3A3A31229A1851282851383A3A5
:10568000A3A3A3A3A3E0FC7405122E55126EE2A9F6
:10569000101244857402122B5FE9703C85128285DA
:1056A0001383A3A3A3A3A3A3A3A3A3A31229A185A5
:1056B0001282851383A3A3A3A3A3A3A3A3A3E0FCA4
:1056C0007403122E55126EE2A90F12448574021251
:1056D0002B5FE970030255B7E50F2510C333240A89
:1056E000FA7B00123F458A0A8B0BEA450B700302D6
:1056F00055958A828B8374D2126AC88A828B83A35F
:10570000A3E8F0A3E91277BDA3E510127933E50F02
:10571000F0E510603CEA2405FAE4350BFBE50A24C9
:105720000AF8E4350BF98A828B8312607B740312CA
:105730002E55125883122B99AC10EC2CFCE433FD3F
:105740008A828B83126EE2123F217403122B5F80D8
:105750000D8A828B83A3A3A3A3A3E4F0A3F0E50F98
:10576000700302556EA8101251B1E50A28F8E50B36
:1057700039F9E8240AFAE439FB850A82850B83A308
:10578000A3A3A3A3A3A3A3125AE47401122E551238
:105790005883122B99AC0FEC2CFCE433FD123F2103
:1057A0007403122B5F025580851882851983E0608F
:1057B00027126688122BA17508A17509187808129E
:1057C0002B9D7403122E55126691122BA19017DA9D
:1057D0001229A17508008029EEFAEFFB1233E1E9E6
:1057E000702F126688122BA17508A1750918780808
:1057F000122B9D7508007808122BA19017DA122938
:10580000A17808122BA11258451245BD7407122B1E
:105810005F7403122E551268B9600B7403122E5573
:10582000126EE2123FE77401122E551268B9600B36
:105830007401122E55126EE2123FE77405122B5FAF
:105840007F1002285BE5162402FCE43517FDE516FF
:105850001262C93517F583E0F97A067B8022125867
:105860006222E0F8A3E0F5838882221268A2AA0AE5
:10587000AB0B22850A82850B83E0F8A385820A851B
:10588000830B22E0F50CA3E0F50D750E00780C22D9
:1058900074F112259174F4122C3F8A088B09ECFEE6
:1058A000EDFF740B122E557403F0122C031240F509
:1058B00012333F8A0A8B0BAC0AAD0B7403122C0314
:1058C0001240EFE9600A125A626010E06401600B56
:1058D0008518828519837484025A108E828F83A35F
:1058E000A3A3A3A3A3A3A3E06013F46010125A62BE
:1058F0007016EE24141268AB6003F4700B851882E6
:105900008519837482025A10127657E0642170025E
:10591000A3E060030259E7851882851983748C120D
:105920005A96640360030259D17401122C0B126061
:1059300060123135E960030259D11243CB8A0A8BD8
:105940000BEA450B7003025A118E0C8F0D750E0079
:10595000780C122B997C157D00123F217403122BB9
:105960005F850882850983A3A3E50A2415FCE43535
:105970000BFD7409122AC31272D5C0E0E50A241E79
:10598000125A50D0E0125EC7C0E0E50A241F125A36
:1059900050D0E0F0E50A2420125A507405F0EE24AD
:1059A0000BFE50010FFAEFFB1239637D007C00798A
:1059B00000EEFAEFFB1245759081121229997A00D8
:1059C0007B10901810E0F91240A77404122B5F802E
:1059D00078125A58122BA1125A70123123740112E4
:1059E0002B5FE9702C8014125A58122BA1125A7096
:1059F0001231297401122B5FE9700D851882851907
:105A000083E4F012439B800985188285198374888A
:105A1000F01272D5F50A780A122BA17401122BFB31
:105A2000880A890B780A122B9DE508240CF582E47C
:105A30003509125A684480F50B780A122B9D1264BE
:105A40000B1245697405122B5F740C122B5F805C7E
:105A5000F582E4350BF58322EE12606DE0F50A78ED
:105A60000A22125A9B640322F583E0F50AA3E0227E
:105A7000EE240BFCE43FFD8E828F83A3A3A3A3A39C
:105A8000A3A3A3A3126F1F8E828F83A3A3A3A3A399
:105A9000A3A3A3E0F922F0125A9B22125A9F22EEEE
:105AA000126BA53FF583E022EEFAEFFB7F07022899
:105AB0005BC082C08374F3122C3F851882851983E2
:105AC000E4F004122E55125AE47403122E55AA82E1
:105AD000AB83124905AA18AB191248CF740D122BCB
:105AE0005F026ED5EAF0A3EBF02274F61225911254
:105AF0005B2E1274AF88828983127667F890181F24
:105B0000E058F508A3E059F509E5084509601C7857
:105B100008122B9D9017DA1229A11268A8FD7C00AB
:105B20001265251245C97404122B5F0252F5EAFE74
:105B3000EBFF125B373F22EE126BA52274EA1225AF
:105B40009174DB122C3F8A148B15751200751300AB
:105B5000125DF33515F5831262D6F50EAC18AD194A
:105B60007A007B00799C1248337A04790012489FAE
:105B7000EAF50C851882851983E02AF0F8E50EC352
:105B8000984003025D60E0C3950EF509C39404409C
:105B900003750903E50975F01AA4FAABF0123FE1A9
:105BA0008A128B13EA45137003025D63750D00AE14
:105BB00012AF13850E08025C3D7C087D0079FF1250
:105BC0005DDF123F2D850A82850B83A3A3A3A3E08B
:105BD000702D850A82850B831268B9700C12702BA8
:105BE000F0EE241812702E8010125DE7F090055E22
:105BF000E014C0E0125DC3D0E0125E17E480349080
:105C0000055EE004C0E0125DC3D0E0125E0FC394F5
:105C100003EE4003025CC51260697402125E0F64F9
:105C2000017003025CD2EE2415125DEAF0EE241638
:105C3000125DEAF0EE241AFE50010F050DE50DC3CA
:105C400095094003025CFDE508C3950C4003025C26
:105C5000DBAA087B0012480F8A0A8B0B0508900507
:105C60004B125DF81240F5850A82850B831274B1E0
:105C7000125DD1E8F0A3E9125E29850A82850B83C3
:105C8000A3A3A3A3A3A3A3A3A3A3E0C0E0125DB90E
:105C9000D0E0F07401122E55E41277FC1274B17446
:105CA00002122E5512607B7401122C031248E1E996
:105CB00064016003025BB97404122E55125DDB129D
:105CC00040F5025BC5125DE8125E0F6403600302DB
:105CD0005C26EE241512702E025C2CE50CC3950E8A
:105CE0004005750800801DE50EC3950CF50880146D
:105CF000125DE7F0EE241AFE50010F050DE50DC30D
:105D00009509505F740E122C0BAA087B007987123C
:105D1000483305087418122E55125DF81240F574B8
:105D200010122E55125DDB1240F5EE2412F8E43FFE
:105D3000F9740E122E55126EE288828983EAF0A35E
:105D4000EB125E177403125E29741D122E55E0C00B
:105D5000E0125DB9D0E0126E4D709512702B8093F9
:105D6000750900750A00780A122BA17812122B9D72
:105D70007809122BA1E50EF5097809122BA17405FB
:105D8000122E55E0FD7C00E5141262C03515FBE5CE
:105D9000141262C53515F583E0F912460574051233
:105DA0002B5FE51245136007AA12AB13123FE7748D
:105DB00025122B5F7F0E02285BEE2419F582E43F4B
:105DC000F58322125DC722EE2418F582E43FF583A5
:105DD00022EE2412F582E43FF58322AC82AD83EEFD
:105DE000240AFAE43FFB22EE2414F582E43FF58313
:105DF000740122EA125B38221274B58E828F83E816
:105E0000F0A3E9F07C5F7D05EE1262C03FFB221239
:105E100077F7A3A3A3E022F0EE1270227402F0EE53
:105E20002416F582E43FF58322F0EE2417F582E490
:105E30003FF5837402F0125DC774FFF02274F6120E
:105E4000259174F9122C3F125EBC1279B5123F39BC
:105E5000EAF8EBF9ECFAEDFB851882851983122E2E
:105E60003EEE2404FE50010F8E828F83E0C0E0746A
:105E700004122E55D0E0126E24F87405122E5574BB
:105E800001F07406122E557401F09017E4F090178B
:105E9000ED04127811A3126EE29017E5125AE4E8AD
:105EA0009017EE125EC79017E3F0AA18AB191247CD
:105EB000A9E960031247A374070252F28A088B090A
:105EC000EA125B38350922F0127789E02274F21267
:105ED000259174FF122C3F7508007E007F0012325E
:105EE000678A0A8B0B1232678A0C8B0DA80CA90DDE
:105EF000800505081274ABE84970F7901973E060EB
:105F00000764016003025FD81232678A0C8B0DA808
:105F10000CA90D80031274ABE8496036888289832E
:105F2000126EE290054BE06A7003A3E06B600D1205
:105F3000607439F583126EE2EA4B70D988828983E6
:105F40001274B190054BE0687003A3E0697003021E
:105F50005FD87A167B00123FE18A0C8B0DAE0CAF36
:105F60000DEE4F607390054B1274B18E828F8312C9
:105F7000607B900540E08E828F83A3A3F01233C92B
:105F8000E98E828F83A3A3A3A3A3F0901A3C127778
:105F9000EBF07C5F7D051260601240F5AA18AB192A
:105FA00079411246DD851882851983E060089017D3
:105FB000DA1274B1800478FE79FF8E828F83A3A3F6
:105FC000A3A3A3A3A312607B126068E50AF0A3E574
:105FD0000BF08E0A8F0B05089017EEE0F8E508C36A
:105FE00098500479008027E508C398F9C3940640C7
:105FF0000279057800800DE50A126075350B125A9A
:1060000068F50B089017EEE0FAE8C39A40E97509C5
:10601000007809122BA1780A122B9DE9F50978095D
:10602000122BA19017EEE0F5097809122BA1AD080B
:106030007C007AE57B179017E3E0F91245FF7405C1
:10604000122B5F901973E060046401700BEE4F60D7
:1060500007EEFAEFFB123FE71247A3740102768ABC
:10606000EE240BFAE43FFB22EE12606D2212607503
:106070003FF58322E82414F582E422E8F0A3E9F056
:106080002274F012259174FF122C3F8A0A8B0B7E2A
:10609000008E0E8E0F125DF3125A531262D6FFACB1
:1060A00018AD197A007B00799D12483385188285D6
:1060B0001983E0F8EFC398400302615AE0C39FFEE2
:1060C000C3940B40027E0AEE75F007A4FAABF012FF
:1060D0003FE18A088B098A0E8B0FEA450F607975BC
:1060E0000C00801A850882850983A3A3A3A3A37447
:1060F00003F0E5082407F50850020509050CE50C36
:10610000C39E5056AC08AD09E50C2FFAE43400FBF1
:10611000798B124833850882850983A3A3A3A3A39F
:10612000E014600814601314601F80B8850882852D
:106130000983A3A3A3A3A3E480B785088285098369
:10614000A3A3A3A3A3740180A8850882850983A3C0
:10615000A3A3A3A3740280997E0075080078081297
:106160002BA1780E122B9DEEF5087808122BA1EFCB
:10617000F5087808122BA17405122E55E0FD7C005D
:10618000E50A1262C0350BFBE50A1262C5125A53CA
:10619000E0F912460B7405122B5FE50E450F600700
:1061A000AA0EAB0F123FE77401122B5F0251C074AD
:1061B000EE12259174FE122C3F8A0C8B0D75100087
:1061C000751100125DF3350DF5831262D6F50AAC38
:1061D00018AD197A007B0079A312312F126EDCC33F
:1061E000E50A9AE49B5076851882851983A80AE00F
:1061F000C398FEA3E09400FFC3EE9404EF94004024
:10620000067E037F008004EE4F6052EEFAEFFBEA59
:1062100075F015A4FAA8F075F015EBA428FB123F51
:10622000E18A088B098A108B11EA4511602F750BE2
:1062300000750E00C3E50E9EE49F5026AC08AD0924
:10624000A80AE50E28FAE43400FB79A212312FE502
:10625000082415F50850020509050E80D7750B8B2B
:106260007E007508007808122BA17810122B9DEE85
:10627000F5087808122BA1E50AF5087808122BA179
:106280007405122E55E0FDAC0BE50C1262C0350D05
:10629000FBE50C1262C5350DF583E0F91246117469
:1062A00005122B5FE51045116007AA10AB11123FD4
:1062B000E77402122B5F7F0A02285BFCEFFDE50802
:1062C0002402FAE4221262C922240FF582E422A3F6
:1062D000E0F5838882A3125862E02274F6122591B9
:1062E00074FF122C3F125B2E1276AFA3A3A3A3A3BD
:1062F000A3A3A3E0F91248A5E9851882851983F0C4
:106300007508007808122BA17401122BFB880889EC
:10631000097808122B9D7508357509807808122BAD
:106320009D1263311245697405122B5F740102528C
:10633000F2790112633BFAE43FFB22EE2402FCE413
:106340003FFDEE240F2274F412259174FA122C3FB3
:10635000125EBC126420EEFAEFFB1248FFE96017F0
:1063600012333F8A0A8B0BAC0AAD0BEEFAEFFB122D
:1063700040EFE96401700A7401122E55E4F0A38025
:10638000097401122E55EEF0A3EF12782DA3A3A3EA
:10639000A3A3E0F8A2E650087403122E557401F08E
:1063A000E8A2E750087404122E557401F074051227
:1063B0002E55E4F004122C0312483FE9851882851B
:1063C0001983F0908106122E261233637A007B0027
:1063D00012336F7A007B00123369750A00780A1253
:1063E0002BA17401122BFB880A890B780A122B9DB2
:1063F000750A34750B80780A122B9D12640B1245B6
:10640000697405122B5F74060252347901E5082481
:1064100002FCE43509FDE508240FFAE43509FB2206
:10642000F5831276B9FF2274F612259174FF122CAF
:106430003F12647A1262D6F9124797E9851882856D
:106440001983F0EE240B1268AB702C7508007808E5
:10645000122BA17401122BFB880889097808122BD2
:106460009D7508367509807808122B9D12633112CC
:1064700045697405122B5F02632CEAFEEBFF125B89
:10648000373FF58322022B4774F412259174EF12E3
:106490002C3FEAFEEBFF12653AF508E439F5099066
:1064A00017DAE065087004A3E065097052A818A91E
:1064B00019880A890B780A122B9D750A11750B0031
:1064C000780A122B9D7C007D007A817B0012406B44
:1064D0007404122B5FE97027750A00780A122BA149
:1064E0007401122BFB880A890B780A122B9DAC08C9
:1064F000AD091265251245C37403122B5F80217507
:106500000A11750B80780A122B9D7808122B9D12A8
:1065100068A8FD7C841265251245CF7404122B5F98
:10652000741102523412652922EE2402FAE43FFB70
:10653000EE1262C93FF583E0F92212653E22125A3B
:106540009F12667F12776AF8E4C8F9EA282274F18C
:1065500012259174EB122C3F12647AE0126677FADE
:10656000E4CAFBEC2AF508E43BF5099017DAE0658C
:10657000087004A3E06509600302661E88828983AF
:10658000A3A3E09410500F88828983A3A3E0851809
:106590008285198380088518828519837410F0E03C
:1065A000C0E07404122E55D0E012769BA3A3A982FA
:1065B000AA83890C8A0D750E00780C122B9974072A
:1065C000122E55E0FC7D007408122E55AA82AB8372
:1065D000123F217403122B5F7404122BFB880A896B
:1065E0000B780A122B9D750A11750B00780A122B75
:1065F0009D7C007D007A817B001240657404122B23
:106600005F7404122E55E09018176005E0D2E48004
:1066100003E0C2E4F0851882851983E480088518B8
:10662000828519837484F0E0C0E07401122E55D085
:10663000E0F07402122E55E508F07403122E55E5B1
:1066400008F01252D83F12668F122BA17402122B3F
:10665000FB880889097808122B9D75081475098034
:106660007808122B9D790312633312456974051261
:106670002B5F7415025A4B12667FE0FCA3E022F8F0
:10668000A3E0F98882898322E5161252D93517F5DD
:1066900083E0F50878082274F612259174E0122C34
:1066A0003FEAFEEBFF90054DE064086008E06404FB
:1066B000600302689DAC18AD19124551901973E042
:1066C0006402702F12333F7402122E55AC82AD83D8
:1066D0001240EFE9601D1233458A088B09A808A90A
:1066E00009851882851983E0687003A3E069700347
:1066F00002689D1235137402122E55AC82AD8312BE
:106700006EDC123411E96401700302689D74181282
:106710002C031233517402122E55AC82AD837418BF
:10672000122C031240EFE9603212334B8A088B09B6
:10673000A808A909851882851983E0687003A3E079
:106740006960188518828519831274B19005411209
:10675000607B7A417B05794B1246E3901973E060C8
:1067600004640170751233458A088B09A808A909C9
:10677000EE24111268AB687003A3E069605C7402D8
:10678000122E55AA82AB831248698A088B09A80881
:10679000A909E849602688828983A3A3A3A3E064AA
:1067A00001600D88828983A3A3A3A3E06402700C17
:1067B0007402122E55AA82AB8312482D9005DB126B
:1067C00068B96016901967E06401700E126EDC9073
:1067D00005DCE0F58388821249347900126EDC1200
:1067E0002F9190054B1268A2126EDC1234CB740B01
:1067F000122E55E41268BDF8A3E0F9740C122E5560
:1068000012607B740B122C031248E1E9603F7C0894
:106810007D0079007418122C03123F2D740E122E75
:1068200055AC82AD837418122C031240EFE9601D41
:106830007402122E55AC82AD83740E122E55AA82AC
:10684000AB83124905740B122C031248CF74021249
:106850002E55AC82AD83740E122E55AA82AB8312D4
:106860004905740B122C031248DBE96030740C12DA
:106870002E551274B1851882851983E0687003A3C0
:10688000E06960198518828519831274B1740C123D
:106890002E5512607B740B122C031248CF74200209
:1068A00052F2E0FCA3E0FD22EE240EF582E43FF577
:1068B00083E022F582E438F58312706422F08518B3
:1068C00082851983E02274E812259174F7122C3F17
:1068D0008A168B177F008F088F091245578A128BF3
:1068E00013EA45137003026A9B7E00800DEE75F07B
:1068F0000CA4F8126AB812482D0E851282851383F3
:10690000E0F8EEC39840030269D0750CFF750DFFE7
:10691000750EFF750FFFEE75F00CA4F8A9F0126A62
:10692000B8124869EA4B60D18A828B83A3A3A3A3E0
:10693000E06401600D8A828B83A3A3A3A3E06402B9
:1069400070B7126B827010126B99780C122DC812EE
:106950006B8F780C122BE3126AA0A3A3A3A3A3A3AB
:10696000A3A3780C122AE440847A0E7B00123FE144
:106970008A0A8B0B126AA0AC82AD831240F5850A9D
:1069800082850B83A3A3A3A3A3A3A3A3780C122D97
:10699000E6E50A240C125A50E4F0A3F0E508450994
:1069A000700E850A10850B11851008851109801C51
:1069B000E510240CF8E43511F988828983E50AF0A2
:1069C000A3E50B1276A4F510A3E0F5110F0268F908
:1069D000EF7003026A947408122E557402126AC88A
:1069E00085188285198312607B7E00EF75F00CA4F8
:1069F000FAABF0123FE18A0C8B0DEA450D700302F1
:106A00006A94805A850810850911EE75F00CA4F877
:106A1000A9F0E50C28F50AE50D39F50BAC08AD0930
:106A2000AA0AFB1240F5850882850983A3A3A3A3C4
:106A3000A3A3A3A3122E02850A82850B83A3A3A37B
:106A4000A3A3A3A3A3122E3E0EE510240CF582E40B
:106A50003511126AC0F509AA10AB11123FE7E5081B
:106A6000450970A07508007808122BA175081F75DC
:106A700009807808122B9D780C122B9DEFF9740574
:106A8000122C0BE516240FFAE43517FB12459F7400
:106A900005122B5FAA12AB13123FE7740902583D8F
:106AA000EE75F00CA4F8A9F0126AAC22E51228F5F4
:106AB00082E51339F583A322126AACAA82AB832242
:106AC000F583E0F508A3E022F0851682851783A3FD
:106AD000A31274B52274F01225911245578A088BBF
:106AE00009AE08AF09EE4F7003026B7F750C008092
:106AF000787508FF7509FF750AFF750BFFE50C75C2
:106B0000F00CA4F8A9F0126BAB124869EA4B60577D
:106B10008A828B83A3A3A3A3E06401600D8A828B86
:106B200083A3A3A3A3E06402703D126B82701012D2
:106B30006B997808122DC8126B8F7808122BE3E539
:106B40000C75F00CA4F8A9F0126BB3A3A3A3A3A334
:106B5000A3A3A37808122AE4500DE50C75F00CA449
:106B6000F8126BAB12482D050C8E828F83E0F8E58E
:106B70000CC3985003026AF1EEFAEFFB123FE702F2
:106B800051C0EA241BF582E43BF583E0640122EA6C
:106B90002417F582E43BF58322126B9D22126BA42D
:106BA0003BF58322EA2413F582E422126BB3AA8216
:106BB000AB8322EE28F582EF39F583A32274F1121C
:106BC000259174F6122C3FEAFEEBFF750800901831
:106BD000D71268B970507A377B00123FE19018D70E
:106BE000EAF0A3EB12738460197C377D0079001200
:106BF0003F2DEEFCEFFD9018D7126EE2124521E911
:106C0000700B8518828519837488026D6612766B05
:106C1000126E007401F07C2D7D459004EB126EE243
:106C2000123027026DFBE0C8126E007402F0EEFC19
:106C3000EFFD1272DA124521E9700C851882851970
:106C4000837488F0750801750AA1750B18780A120B
:106C50002B9D126EF21229A112766B24281272CD8E
:106C6000FC126F2412766B24141272CDF912447F39
:106C70007404122B5F126E0D126E2A24311272CD23
:106C8000604312736EFAE433FB123FE19018D7E0D1
:106C90002432126E3F6022750CA1750D18750E001E
:106CA000780C122B9912736EFCE433FD126F1012E4
:106CB0003F217403122B5F800C8518828519837421
:106CC00088F0750801780A122B9D126EE61229A130
:106CD00012766B24111272CDFC126F0712766B24A0
:106CE0002B1272CDF912447F7404122B5FE9F81253
:106CF000766B2434126E2A24341272CD60351273EE
:106D000065FAE433FB123FE19018D7E02435126EA8
:106D10003F6042750CA1750D18750E00780C122B92
:106D200099127365FCE433FD126EFE123F21740369
:106D3000122B5FE508A2E04025126E0D1272CD7095
:106D4000089018D712733160157B007A0079001211
:106D50004527026DFB8518828519837488F0851894
:106D6000828519837486F07409122E557402127488
:106D7000EC126E1C122E55E8F0A3E9126E24F508F1
:106D80007808122BA17401122BFB88088909780856
:106D9000122B9D7508207509807808122B9D7901AA
:106DA0007406122C0BEEFAEFFB1245697405122BD8
:106DB0005F12732070427409122E557402F0126E25
:106DC00016122E5512738B122BA17401122BFB88F5
:106DD0000889097808122B9D7508207509807808A4
:106DE000122B9D79017406122C0B9018D7126EE2AB
:106DF0001245697405122B5F12451B740A025A4B27
:106E0000126E0422242EF582E438F583229018D7DE
:106E10001272F62431229018D7125862A3A312746A
:106E2000B57401221274ECA3E022F582E438F583F4
:106E3000126E35C822E9F09018D7E0F8A3E022F8E6
:106E4000A3E03400F988828983EAF0A3EB1276A9E3
:106E500012706422C082C0839018D71268B960751E
:106E6000E0C824351268B36006126EFE123FE712C6
:106E7000766B24321268B36006126F10123FE7126D
:106E8000766B24121268B36009126EE6126EE2127B
:106E90003FE712766B24151268B36006126F241256
:106EA0003FE712766B24291268B36009126EF21262
:106EB0006EE2123FE712766B242C1268B360061262
:106EC0006F07123FE79018D7126EE2123FE7901853
:106ED000D7E4F0A3F0D083D082022B4785188285B7
:106EE0001983126F1F221272F32412F582E438F50F
:106EF00083221272F32429F582E438F58322127278
:106F0000F32435126F19221272F3242C126F1922F6
:106F10001272F32432126F1922F582E438F58312CB
:106F2000776AFB221272F32415126F192274F11280
:106F30002591EAFEEBFF8C088D09750A018C0C8DFA
:106F40000D750E00780C122B997C177D00123F21D5
:106F50007403122B5FEE241212702EF0A3F0EE24B5
:106F60001512702EF0A3F0127498E0603AEE24121D
:106F7000F8E43FF9880C890D1274D1123FE11270C8
:106F80004F6021E5082412127042122B99E5082463
:106F900011127036125DD2126EE2123F217403128A
:106FA0002B5F8003750A00E5081274A66035EE2495
:106FB00015F8E43FF9880C890D1274D1123FE112E3
:106FC000704F6055E5082415127042122B99E508A0
:106FD000241412703612701E126EE2123F217403D6
:106FE000122B5FE50AA2E0402BEE2412F582E43F6B
:106FF0001268B76009125DD1126EE2123FE7EE240B
:1070000015F582E43F1268B7600AEE12701E126E28
:10701000E2123FE7A90A025AAC750A0080CB12704F
:1070200022222415F582E43FF58322EE2414F58212
:10703000E43FF583E42212757CE025E0FCE433FDB7
:10704000EE2212757CE0F50CA3E0F50D780C22859C
:107050000C82850D83EAF0A3EBF0850C82850D830D
:1070600012706422E0F8A3E0F9E8492274EE1225D8
:107070009174ED122C3F890B8A0E8B0F750C0075E5
:107080000D00750AFF7510FF7511FF750800750971
:1070900000851882851983E4127384601774036570
:1070A0000B60067402650B7010E0C824301272CDBC
:1070B000650F600579000272C87C2D7D457A007BE2
:1070C000001230277401650B700A851882851983B8
:1070D0007485803DE50B60067403650B701990188C
:1070E000D7127300F07403650B7029E50E602985D3
:1070F0001882851983801A7402650B701BE50E9047
:1071000018D77005127300800812766E1273177408
:1071100002F08004E50B601E127306701912732AC8
:107120006005126E10800A127331600A12766B24A9
:10713000341272CD14F012732A601A126AC2F50961
:1071400012736E127763CA2432127342241D1272B4
:10715000E72425802612733160269018D7E0241783
:10716000F508A3E03400F509127365127763CA24A9
:107170003512734224061272E7240E1272CDF50AFC
:107180007409122E5574021268BD6003027236E54E
:10719000084509700302723612730670047E22805D
:1071A000027E21850882850983126E1C122E5512DB
:1071B000607B9018DBE0C0E012766B2430F582E44F
:1071C00038F583D0E0F07412122E557403F0AC0C35
:1071D000AD0D740A122C031240F5850882850983CF
:1071E000A3E0F50C780C122BA1780A122BA1740CD9
:1071F000122BFB880C890D780C122B9D7810122B0A
:107200009DE5082406F50CE43509F50D780C122BE4
:107210009D1272D5F97409122C0BEEFA7B001245FF
:10722000DB7408122B5F7C2D7D459004EB126EE21F
:107230001230270272C6126E16122E5512738B125E
:107240002BA17401122BFB880889097808122B9D49
:107250007508207509807808122B9D790174061233
:107260002C0B9018D7126EE21245697405122B5F31
:10727000127320704E12766B2419F582E438F58370
:10728000126E1E122E55E8F0A3126E302418F582ED
:10729000E43812668F122BA17401122BFB88088927
:1072A000097808122B9D7508207509807808122B23
:1072B0009D79017406122C0B1272DA12456974055D
:1072C000122B5F12451B790174130262B3F582E43D
:1072D00038F583E022127797E0229018D7E0241740
:1072E000FAA3E03400FB22F50CA3E03400F50D1204
:1072F00072F3229018D71272FA22E0F8A3E0C822A3
:107300001273107401229018D7127310E0640122D6
:107310001272FA12731722242FF582E438F58322B1
:107320001272F3126E04E06402221273749018D782
:1073300022127335221272FA2434F582E438F5836E
:10734000E022F582E43AF583E028F8A3E039F9E891
:1073500024FEF582E934FFF583E0F510A3E0F51192
:107360009018D7E0229018D712733525E0221273B7
:107370007425E0229018D71272FA2431F582E4388D
:10738000F583E022126E36F9E84922E8F0A3126E86
:1073900035F5838882A3E0F508780822C082C0838F
:1073A0007B007A857901124527026ED574F4122587
:1073B000918C088D09EA240F1278331277B1127478
:1073C000B18C828D83A3A312607BEA240E127833E2
:1073D000A3F0126B991276B91274DD12767D50010A
:1073E0000FFCEFFDE5082406FAE43509FB1240F531
:1073F000EE2408FE50010F8E828F83E0C0E01277EA
:1074000093D0E0127584F8127785E81276815001E6
:107410000FE50824121274A0A3F0E50824151274D5
:10742000A01274E6F8A30EAF83127498E8F06028F7
:10743000E50824121274C8123FE11278466019E57B
:107440000824121274BB12749AE0F91244A38A0A37
:107450008B0BAE0AAF0B8007E50824111274A08EC7
:10746000828F83E0F8A3AE82AF83127574E8F06078
:107470001FE50824151274C8123FE1127846601007
:10748000E50824151274BB1274A6F91244A38005F2
:10749000127574E4F0025237E508241112757C224B
:1074A00012757CE4F02212757AE02212607439F5CC
:1074B000831274B522E0F8A3E0F92212757C1268F9
:1074C000A2EEFAEFFBE50822F8E43509F9880A890B
:1074D0000BE01274D62225E0FAE433FB22FF127788
:1074E000768C828D8322A31274ECE022F08E828F40
:1074F000832274F6122591127804126420EEFCEFB8
:10750000FDAA08AB091240F5EE2408FE50010F8ECB
:10751000828F8312788C127584850882850983A3F3
:10752000A3A3A3A312767D50010F8E828F83E0F870
:10753000E508125EC1F583E812767274036870265E
:10754000EEFCEFFDE508240BFAE43509FB1240F5EB
:107550008E828F83A3A3A3A3A3A3A3A3E0C0E0125F
:107560007574D0E0800A12776F127661E8F0A3E9B3
:10757000F00252F5E50812757A222414F582E435FA
:1075800009F583221277D212777A2274F2122591AA
:10759000EAFEEBFF750A00EE24101268ABC3940CF0
:1075A000400D12647E12766E240B1272CDF50AA87D
:1075B0000A1251B1E8240DFAE439FB123FE18A08BE
:1075C0008B09EA45097003027651125B321277A3E8
:1075D0008A828B831277CE7078EEFCEFFDEA24036B
:1075E000FAE43509FB1240F5EE2408FE50010F8E37
:1075F000828F831276678508828509831276805090
:10760000010F12765FE4F0E50A6046E508240DF804
:10761000E43509F98E828F83E0C0E012765FD0E016
:10762000127780C0E0127657D0E0127672850A0B8E
:107630008E828F83E0FCA3E0FBEC88828983127644
:1076400092500109EE2402FE50010F150BE50B705C
:10765000DFAA08AB098036E508240C12757C22E508
:1076600008240B12757C2212777A229018D7127296
:10767000F622127676221277DA0EAF8322A3A3A324
:10768000A3F0A3E9F0EE2402FE22122B5F7F060294
:10769000285BF0A3EBF0E82402F82212769F221276
:1076A00076A9A3221276A9E022F088828983221289
:1076B0006F1D8A828B8322F583E0FEA3E02274F1A2
:1076C000122591127808126AC0850882F583E0F5C8
:1076D0000BA3858208858309A3A3E0F50A1277E648
:1076E0003400FB123FE18A0C8B0DAE0CAF0DEE4F58
:1076F00060378E828F83E50BF0850882850983E0F1
:10770000FA12781A850882850983A3A3A3A982AAFD
:1077100083890C8A0D880E780C122B991277E13F21
:10772000FB123F217403122B5F025AA874F7122533
:1077300091EA2413F8E43BF98882898312776AF589
:10774000838A821278391276A412667FA3E0FA88BF
:10775000828983A3A3E0F9EA8C828D83A312607CE3
:1077600002513DF8E433F99018D7E0FAA3E0221271
:10777000777AF8E508228E828F8312776AF9EA22F7
:10778000127676E02212778922E5081262C935095D
:10779000F5832212779722E508240EF582E4350955
:1077A000F583221277A7221276B7FF8E828F83E0AD
:1077B000221277B6A322F08A828B83A3221277C18A
:1077C00022F08A828B83A3A3A322A3A3A3A312776D
:1077D000D2221277DAAE82AF8322F08E828F83A319
:1077E00022AC0A7D00EE2404FAE422E08E828F832C
:1077F000A3A3A3A3A3A3221277FCA322F0850A824A
:10780000850B83228C088D0912780C22126BA43B05
:1078100022F0850882850983A32212783FEA8E82AE
:107820008F83A3F0A3E912782DE50AF0221277DA0C
:10783000A3A322F582E43BF583E08C828D8322A30F
:10784000E0F8E4C8F922850A82850B83EAF0A3EB0D
:107850001277FC1270642274F612259112780412C9
:1078600074AFE8FEE91274DD12768150010F1262E6
:10787000BB3509FB1240F58E828F83A3A3A3A3A37C
:10788000A3A3A312788CA3A3F00252F51279C8A384
:10789000A32274F212259112791D75F00CA4A9F09F
:1078A0002401FAE439FB123FE18A0C8B0DEA450D05
:1078B00060648A828B83A38582088583098A828B90
:1078C00083E50BF0750A008046EEFCEFFDAA08ABDD
:1078D000091240F5EE2408FE50010F7904FAEFFB7F
:1078E000123F39EAF8EBF9ECFAEDFB8508828509DD
:1078F00083A3A3A3A3A3A3A3A3122E3EEE2404FE5B
:1079000050010FE508240CF50850020509050AE5A9
:107910000AC3950B40B3AA0CAB0D02768D12780CFE
:107920001277A7F50BA3AE82AF8322E0FA12783F5D
:10793000EA28221277C1A3A3A3A32274F6122591E9
:107940001278041279B5123F39EAF8EBF9ECFAED46
:10795000FB850882850983122E3EEE2404FE500129
:107960000F8E828F83E0F88508828509831277CA9B
:10797000C3940650051279CD803785088285098326
:10798000A3A3A3A3E064FE600E850882850983A3F8
:10799000A3A3A3E0F4701B1279C01276728508824B
:1079A000850983A3A3A3A3E0F470071279DAF0A3F7
:1079B000E9F00252F51276B7FF7904EEFAEFFB22F6
:1079C0008E828F831279C8221279CDA322E0850896
:1079D00082850983A3A3A3A3A322127776850882B5
:1079E000850983A3A3A3A3A3A3A322C082C08390DA
:1079F0006180E4F0E04409F0906189E0D2E5F09024
:107A00006182E0D2E0F0E0D2E1F0E0D2E2F0900773
:107A10006A7401F0027D4974E812259174F6122C03
:107A20003F8A168B17ECFEEDFFEA451760228A822B
:107A30008B83A3A3A3A3A3A3A3A3E0640260168ADA
:107A4000828B83A3A3A3A3A3A3A3A3E064036005E2
:107A500079E8027CB3123AA7E9F46005791E027C4A
:107A6000B3851682851783A3A3A3A3A3A3A3A3E02F
:107A7000F514123AB38A088B098C0A8D0B123AB9A5
:107A80008A108B118C128D1385080C85090D850ABF
:107A90000E850B0F780C7910122D1B74026514756E
:107AA0001400703B8A0C8B0D8C0E8D0F74FE5514D8
:107AB000780C122BCAE50CA2E0401985080C850948
:107AC0000D850A0E850B0FE514780C122BCAE50CF8
:107AD000A2E050460514E514C39418503D80C585B6
:107AE0000C08850D09850E0A850F0B75100375119D
:107AF00000751200751300E514C3337810122B22A1
:107B000078087910122D41E5084509450A450B60B2
:107B1000090514E514C3940C40C574186514706805
:107B2000851682851783A3A3A3A3A3A3A3A3E064BD
:107B300002606E851682851783A3A3A3A3A3A3A3C4
:107B4000A3E0640270607406122E55EEF074071202
:107B50002E55EFF0851682851783E0C0E074081279
:107B60002E55D0E0F0851682851783A3E0C0E0741F
:107B700009122E55D0E0F079047406122C0B8514EE
:107B8000087509007402802C740C651470A58516A4
:107B900082851783A3A3A3A3A3A3A3A3E064037075
:107BA00092791A027CB37908AC16AD178514087562
:107BB000090074037808122D542508FA74613509F8
:107BC000FB123BAF851682851783A3A3A3A3A3A3B0
:107BD000A3A3E064027903AC18AD19704E7A677BF9
:107BE00061123BB57903AA18AB19123F398A088B89
:107BF000098C0A8D0B750C01750D00750E00750F43
:107C000000E514780C122B227808790C122D1B78C1
:107C100008122B957407122C03123FAB7404122B1D
:107C20005F7903E9122C0B7A67806A7A647B6112B0
:107C30003BB57903AA18AB19123F398A088B098C16
:107C40000A8D0BE514C333FA750C01750D00750E22
:107C500000750F00780C122B227808790C122D1B5E
:107C6000750C01750D00750E00750F0074012A78F2
:107C70000C122B227808790C122D1B7808122B95E8
:107C80007407122C03123FAB7404122B5F7903E9C3
:107C9000122C0B7A647B61123BAF851682851783A9
:107CA000A3A3A3A3A3A3A3A3E0FB7A01A914123A5D
:107CB000AD7900740A122B5F7F1002285B74F712F3
:107CC0002591EAFEEBFFEE4F602C8E828F83A3A3FB
:107CD000A3A3A3A3A3A3E0640260118E828F83A356
:107CE000A3A3A3A3A3A3A3E06403700A123AA7E982
:107CF000F974FF69700479E880158E828F83A3A3DD
:107D0000A3A3A3A3A3A3E0FB7A00123AAD79007F5B
:107D10000102285BC082C08374016990076B700BFD
:107D20007401F090618AE0D2E28008E4F090618A08
:107D3000E0C2E2F080137B61123BB57903AA18AB75
:107D400019123F397403122B5FD083D082022B4764
:107D5000C082C08390076BE06401700479FE8002EA
:107D600079FF80E5C082C08390076BE060047901F1
:107D70008009906163E0F8744058F980CC74EC128B
:107D8000259174F4122C3F8A828B83A3A3A3A3A30F
:107D9000A3A3A3E064027040EC851882851983F0E8
:107DA0007401122E55EDF08A828B83E0C0E07402DC
:107DB000122E55D0E0F08A828B83A3E0C0E07403DA
:107DC000122E55D0E0F0A818A919881289137E0444
:107DD000751001123AB3800C8A128B137E0875104D
:107DE00002123AB98A0C8B0D8C0E8D0F7F00850C18
:107DF00008850D09850E0A850F0BEF7808122BCA2E
:107E0000E508A2E05053E510F5F0EF84F50BEEF92C
:107E10007404122C0BE50B89F0A4FAA8F0E428FBFB
:107E200074613BFB123BB57404122BFB8808890973
:107E3000750A007808122B99EEFC7D008512828568
:107E40001383A982AA837B00123F277403122B5F3E
:107E5000E964017004A90B800BE5102FFFC394188F
:107E6000408C79FF740C122B5F7F0C02285B74EF3F
:107E7000122591E9FE8A10EBFF74016510705374AE
:107E8000026F7026123AB38A0C8B0D8C0E8D0F7513
:107E90000801750900750A00750B00EE7808122BB1
:107EA00022780C7908122D1B8056123AB98A0C8B55
:107EB0000D8C0E8D0F750801750900750A00750B84
:107EC00000EEC3337808122B22780C7908122D1B90
:107ED000806274026F7032123AB38A0C8B0D8C0E72
:107EE0008D0F750801750900750A00750B00EE7895
:107EF00008122B227808122D78780C7908122D415F
:107F0000780C122B957A838032123AB98A0C8B0D39
:107F10008C0E8D0F750801750900750A00750B0030
:107F2000EEC3337808122B227808122D78780C795A
:107F300008122D41780C122B957A867B61123FAB8B
:107F40007404122B5F7F0902285BC082C08374FD1A
:107F5000122C3F7903AC18AD197A83027D36C082AA
:107F6000C08374FD122C3F7903AC18AD197A8602D8
:107F70007D36C082C083124899123BDF123CBD128D
:107F80003C51123CFF123ABF8025C082C083A2AF91
:107F900050031239A59019ABE07006123C5D123BFC
:107FA000E5123AC5123CF39007C17401F08000D08D
:107FB00083D082022B4774F412259174FC122C3F5B
:107FC000E9FE741929C394085023AA18AB19123B6F
:107FD000D390815E7808122DC88518828519837820
:107FE00008122CE2AA18AB19EEF9123BD97404124C
:107FF0002B5F7F0402285BFF851A87C2AF022B47E5
:108000000000000000000000000000000000000070
:108010000000000000000000000000000000000060
:108020000000000000002403540049002000430029
:10803000430032003500330031002000550053006A
:108040004200200043004400430024035400650024
:10805000780061007300200049006E007300740016
:10806000720075006D0065006E007400730061475A
:108070006537E3312130B7307542314461414341C6
:10808000BD390000000000000000000000000000FA
:1080900000000000000000000000000000000000E0
:1080A00000000000000000303132333435363738FC
:1080B00039414243444546000000000000000000F2
:1080C000FFFFFFFFFFFFFFFF0008000400020001A9
:1080D0000000000000000000FFFFFFFFFFFFFFFFA8
:1080E000020502000801740000000000000000000A
:1080F00000000082003A003B00020002060300007C
:10810000FF00FFFFFFFF00000000000000FFE9FF8D
:10811000FFFFE80300009F020000965118006AAEBE
:10812000E7FF08000000004800001F000000FEFFFD
:10813000FFFF9751180009433886102700000400FC
:10814000000019E0FCFFF8FF0000E71F030080516A
:1081500001003C000000100E00006400000001005F
:10816000000032000000FA0000000403090430009F
:1081700000000300000000F8FF0760EA0000E204CE
:108180000000BC02000000000000000000000A74B3
:10819000F7122591E9900598F090054DE4F0123E14
:1081A000F19005B0E4F0A3F0900599F0A3F012343B
:1081B000B3901973E06004640170061248AB122E8C
:1081C000FB123EF79004D5E4F0A3F012471902B376
:1081D000E874EC12259174D7122C3FEAFEEBFF54A1
:1081E000806068900598E0F9123F5D8A088B09EA83
:1081F0004509604F7C0080010CEC75F003A4F8A9E0
:10820000F0741228F582744E39F583E493F4602CEF
:10821000E493F88508828B83E06870DCAA08EC752B
:10822000F003A4F8741328F582744E39F583E493AF
:10823000C0E0740193F583D082124934AA08AB09D7
:10824000123F4BEEFAEF6480028715EF5420601E58
:108250001232FD8A088B09EA4509600A123219AA0E
:1082600008AB09123F4BEEFAEF6420028715901914
:1082700073E06402705FEEA2E0501F900552E0646C
:108280000F701179001231E9E96009901A23122E5A
:1082900026123201EE640102862CEF5440603690C3
:1082A0001813E064067028740BF0901A3BE0F9751F
:1082B0000801750900750A00750B00900540E0780B
:1082C00008122B22AA08AB09AC0AAD0B12485D902C
:1082D00019630286D3EE542070030285FD7A207B59
:1082E00000900598E0F91240B9EA4B4C4D701A9095
:1082F00005AC122E02E8494A4B700E750C01750D43
:1083000000750E00750F008061750C00750D00750D
:108310000E00750F001240CB8A088B098C0A8D0B5A
:108320009005AC122E02E8494A4B602A9005AC78C1
:1083300008122AE4400E750CFF750DFF750EFF75CF
:108340000FFF801285080C85090D8C0E8D0F90058E
:10835000AC780C122BE37401780C122BCAE50C4597
:108360000D450E450F70030285247C0079047A00C8
:108370007B001232C78A088B0902845185188285D6
:10838000198374FFF07401122E5574FFF0740212F9
:108390002E5574FF12A308FAA3E0FB7403122C0BF2
:1083A00012D1A0123327E964016003028433E50887
:1083B000240D12AFEB4480F8A3E0F97424122E557B
:1083C000E8F0A3E912C4F9A3A3A3E0C0E074261265
:1083D0002E55D0E012CFA8A3E054086016742412E2
:1083E0002E55A3E04401128738C0E07428122E55A0
:1083F000D0E0F0E50812ED44350912CF81601CE5AC
:1084000008240F12CC70A3E0C812C4C138F583E071
:10841000F87412122E55E8F0A3E4F09081061229A8
:10842000997404122C0B7407122C03122E5F74041F
:10843000122B5F850882850983A3A3A3A3A3A3A30B
:10844000A3A37406128738F91232A9850A08850B8E
:1084500009E508450970030285247C007904AA080F
:10846000AB091232C78A0A8B0B850882850983A360
:10847000A3A3A3E0F510A3E0F511E4F512F513783A
:108480000C7910122D984023E5082404F8E43509EE
:10849000F9850C10850D1188828983C3E09510F051
:1084A000A3E0951112F1C770A2800E85088285099C
:1084B00083A3A3A3A3E4F0A3F0850882850983A383
:1084C000A3A3A3A3A3A3A3A3A3E064018508828518
:1084D0000983A3A3A3A3A3A3702BE0540460030206
:1084E000837C850882850983A3A3A3A3A3A3A3A355
:1084F000A37406F07AB785088285098312891B1256
:1085000031FB02844BA3A3A3A3E0600302837C8519
:108510000882850983A3A3A3A3A3A3A3A3A3740190
:10852000F002844B1232977C0079017A007B0012B2
:1085300032C78B09EA4509600C7A207B00900598C8
:10854000E0F9123F87850C0A850D0B7C0079047ACF
:10855000007B001232C7EA4B701580558A828B83EC
:10856000A3A3A3A312E683E50898E5099940098A25
:10857000828B83A3A312872A7C0079041232C78BD3
:108580000DA90DEA4970D5C3E50A9508E50B9509D3
:108590005013C3E508950AF508E509950BF509E5BB
:1085A00008450970147A207B00900598E0F9123F85
:1085B000879005AC129B34803FE50825E0F508E57F
:1085C0000933F509E4F50AF50B7808122B957A20A2
:1085D0007B00900598E0F91240A77404122B5F12FB
:1085E00040CBEAC0E0EBC0E0ED9005ACFBECFAD08C
:1085F000E0F9D0E0F8122E3EEE6420802FE0600714
:10860000640160030286EEEE54106008122F37EE0C
:1086100064108018EE54406008122FAFEE64408062
:108620000BEE5480600B124791EE6480FAEF0287E4
:1086300015EF5401600B123489EEFAEF64010287E2
:1086400015EF54086047122F0790195DE064017020
:108650003490195EE0602EF508E4F509F50AF50B93
:10866000908112780C122DC87808790C12242C787D
:1086700008122B957A007B08900598E0F91240AD1E
:108680007404122B5FEEFAEF6408028715EF5410A2
:1086900060129005AAE06005E4F0122F07EEFAEFF1
:1086A00064108071EF544060459005D112CF836013
:1086B00036901967E06401702E9005D212C8A51299
:1086C00049349005D712CF83600612C8A5124934E9
:1086D0009081121229997A007B40900598E0F91256
:1086E00040AD7404122B5FEEFAEF64408027EF5424
:1086F00002600A123483EEFAEF64028018EF540429
:10870000601612CE57790190054B12CC84122E7D43
:10871000EEFAEF6404FB80047A007B007429122BCC
:108720005F7F0C02285B8E828F83A3A31287302287
:10873000E0F508A3E0F5092212C4FDA3E022C082FF
:10874000C08374EA122C3F7C167D007900AA18AB16
:1087500019123F2D7408122E557402F09005411223
:108760009B0712877E7409122E5512CC9374131234
:108770002E55E412CFBA124707741602D573E8F0EB
:10878000A3E9F090054B12D5362274F712259174A7
:10879000DA122C3FEAFEEBFFEE4F602DAC18AD195C
:1087A0001233277406122E55E0601E7417122E55D0
:1087B000E0FD7401122E55E0FCEEFAEFFB79001299
:1087C00031D1E9600479A480027900742602B3E50E
:1087D00074F4122591EAFEEBFF8E828F83A3A3A38C
:1087E000A3A3A3E05440601912E2E512CC84123333
:1087F000E1E960077AFF7BFF0288C512E2E50288A3
:10880000B8901973E06007640160030288AD9005B9
:1088100038E0A2E140030288AD12B42B12CD83A34D
:10882000A3A3A3E0FA88828983A3A312D9028E822C
:108830008F83A3A3A3A3A3A3A3E054106004794050
:1088400080027900750AFE750BFF780A122B9D12C3
:1088500089091229A1AC08AD0912E2E512CC8412F3
:108860002F0D7404122B5FE5086A7003E5096B6035
:108870000B12BF426A7003A3E06B703F750A007869
:108880000A122BA179028E828F8312B4ECFCA3E032
:10889000FDAA08AB091234237401122B5F7508CDB1
:1088A000AA081289171231FBE9604C80579019739E
:1088B000E0640270E890054112CC8474FE6A700393
:1088C00074FF6B60D812E2E512E1551233E1E98ED4
:1088D000828F83600B12BC6012F456E4F0A3800315
:1088E00012F444F07CEF7D318E828F8312CC84129F
:1088F000470DE9F50870A9EE4F60097901EEFAEF2E
:10890000FB1232A3A908028FB9EE12890E2224119C
:10891000F582E43FF583228E828F8312F42DE0F9F5
:108920002274F6122591E9FEEAFF7A0F7B00123FCE
:1089300045EA4B601F8A828B83740CF0EEA3A3F090
:10894000EF8A828B8312B1A1900598E0F9123F5112
:108950007900802FEEF91232CD8A088B09A808A978
:1089600009E849601C88828983A3A3A3A3A3A3A3C6
:10897000A3A3740612ED4AE0F9122FC1EEF91232E8
:10898000A9791002C90274F41225918A088B098C06
:108990000A8D0B900552E0640F702CEA4509450AD8
:1089A000450B602390054DE064086005E0640470A9
:1089B000167808122B957A017B00900598E0F91241
:1089C00040A77404122B5F028FB974F2122591EA4A
:1089D000FEEBFF8C0A8D0B8908740E122E5512E6E1
:1089E00088850C82F583E4F0A312CE4CF58388824F
:1089F000E0F91233BDE9602612CC771233E1E96465
:108A000002701B8E828F83A3A3A3A3A3A3A3A3A3FC
:108A100012BACD850C82850D8312CC938003750824
:108A20000012B4E314602E14604314606414606C8C
:108A3000146048147003028ABC24FE7003028AD6B4
:108A4000147003028ADF147003028AF214700302A6
:108A50008B00028B16780C122B9DAC0AAD0BEEFA34
:108A6000EFFB122F1F7402122B5F028AFBAC0AADC0
:108A70000BEEFAEFFB122F25028B2012CC7712336C
:108A8000E1E96003028B16EEFAEFFB122F73028B03
:108A900020A908EEFAEFFB123429805F12B9616455
:108AA000027073E508700A12E20B7003A3E06970AC
:108AB0006FEEFAEFFBA9081233B1803F12E20B70A0
:108AC00003A3E069705012B96164027049EEFAEFD5
:108AD000FB123399804AEEFAEFFB1234A780411261
:108AE000E20B7003A3E069702DEEFAEFFB12343550
:108AF000802EEEFAEFFBA908123441E9F508802038
:108B0000901967E064017009EEFAEFFB12344D80B2
:108B10000F750800800A7508007AD37B0012441391
:108B2000A9088007A90A7403122B5F7F0602285B3D
:108B300074F412259174D6122C3F8A088B098A820C
:108B40008B83A3A3E0F91232CD8A0A8B0BAE0AAF56
:108B50000BEE4F7003028C62850882850983A3A8FF
:108B600082A983E0C0E012CC5ED0E012E695E0641A
:108B7000F16033850882850983A3E064CD60278591
:108B80000882850983A3E0641A601B850882850931
:108B900083A3E064E9600F850882850983A3E0640C
:108BA000E16003028D5A901973E06007640160036D
:108BB000028C838E828F83A3A3A3A3A3A3A3E054D9
:108BC000087003028C838E828F83A3A3A3A3A3A325
:108BD000A3A3A37405F0901973E0600464017053BB
:108BE000850882850983A3E064E960479005CD127A
:108BF000CF83600612C8A51249349005CF12CF83E7
:108C00006031900538E0A2E1502912D176A3A3A3E8
:108C100012B99F8882898312CC841234E3EA4B60B4
:108C200012850882850983A3E0F99005CF12E2E955
:108C30001249348E828F83A3A3A3A3A3A3A3A3A3C8
:108C4000E0640270108E828F83A3A3A3A3A3A3A3C7
:108C5000A3A37406F0850882850983A3A3E0F91213
:108C600032A9123297901973E064027011901A2998
:108C7000E0F508A3E0AA08FBE4FCFD123201742A27
:108C8000028FB679001232A3E97003028D5A90194F
:108C900073E0600764016003028D2F900538E0A245
:108CA000E14003028D2F12CF7E7003028D2F8E8242
:108CB0008F8312CC847404122C0B12D1A012332790
:108CC000850882850983A3E064E97023128E64120B
:108CD0002BA1850882850983A3E0F50A780A122B67
:108CE000A1128E7112CC8412335D7402122B5F7448
:108CF0000D122E5512CF7412F0F212CC9374091289
:108D00002E55E06004794080027900740F122E55D0
:108D100012B99F740D122E5512CC84122F19E960CE
:108D20000E8E828F83A3A3A3A3A3A3E04420F0EE1F
:108D30002404F50AE43FF50B8E828F8312AFF8E02E
:108D4000F9850A82850B8312CC84123F03850A823F
:108D5000850B83EAF0A3EB028BD585088285098316
:108D6000A3E0C0E07402122E55D0E012A7E812E092
:108D7000F1E508240B12AFEBC0E07403122E55D0BE
:108D8000E012E958E0AA18AB197031123B5B901958
:108D900073E06004640170277402122E55E0701FA6
:108DA00012E2E512CC841233E1E970399005CD125C
:108DB000CF83603112C8A512493480031233B774CF
:108DC00002122E55E064E9701C128E64122BA175FC
:108DD0000AE9780A122BA1128E7112CC8412335D2B
:108DE0007402122B5F901973E06007640160030244
:108DF0008C33900538E0A2E14003028C338E828FE1
:108E000083A3A3A3A3A3A3A3A3A3E06402703C8EA4
:108E1000828F83A3A3A3A3A3A3E05404602D12E233
:108E2000E512CC841233E1E98E828F83700F12E257
:108E3000E974FFF0A312A9987405028C54A3A3A3AC
:108E4000A3A3A3A3A3A37403028C5485088285095A
:108E500083A3E064E96003028C33EEFAEFFB123483
:108E60005F028C338E828F8312DA38750A01780A9A
:108E700022E508240C12BF61E0F98A828B83A3A348
:108E8000A3A3A3A3A3A3A312D8FA2274F412259137
:108E9000EAFEEBFF7508007509008E828F83A3A39D
:108EA000A3A3A3E0603B75080812CC7779FF1230CA
:108EB000C38B0BEA450B601075082C8E828F83A341
:108EC000A3A3A3A3E0D2E0F08E828F83A3A3A3A3E6
:108ED000A3E0540364016003028F95430811028FDD
:108EE00095EE241812B9646049EE241A12B9646030
:108EF00003F4701D12E20B7003A3E069700675089D
:108F000022028F9590054DE064046003028F9580E6
:108F10001CEE241BF582E43F12B9AD241A12B96489
:108F2000FAEE2419129BC4122F85E97068750901A5
:108F3000806312CC771233E1E96402700375080193
:108F400012E20B7003A3E0697006E508D2E1F508B0
:108F5000E50860158E828F83A3A3E07006E508D232
:108F6000E58004E508D2E6F50812CC771233E1E992
:108F700064017006E508D2E0F5088E828F83A3A312
:108F8000E0601212B4E3F91233BDE964016006E552
:108F900008C2E0F508901973E0600464017012E5FE
:108FA00008A2E1400CE509A2E04006E508D2E7F599
:108FB000080289047418122B5F7F0402285B74EC8A
:108FC00012259174C3122C3FEAFEEBFF85188285AF
:108FD000198374FEF0A304F0751000751100750973
:108FE00000901973E0640270248E828F83A3A3A380
:108FF000A3E06019901A2712CF836011901A27E01E
:10900000F50AA3E0AA0AFBE4FCFD12320174051282
:109010002C0B8E828F83A3A3A312CF7612CC821245
:109020003327E970030293FA78017407122E55E092
:10903000C39402400278007409122E55E0C39402D2
:1090400040027800740E122E55E064F87003A3E01D
:10905000F470030293FA740E122E55E064F9700353
:10906000A3E0F470030293FA740E122E55E064FA32
:109070007003A3E0F470030293FA740E122E55E00D
:1090800064FB7003A3E0F470030293FA7408122ED9
:1090900055E0F990053BE06960030293FAE8A2E02D
:1090A00040030293FA901973E06402700B74291262
:1090B0002E55E060030293FA12BAC47424122E559E
:1090C00012B9CE241C12BAC77412122E5512CC93A8
:1090D000740B122E55E0601D741C122E55E0FD74A9
:1090E00006122E55E0FC8E828F8312CC82790112FB
:1090F00031D1E9703D7405122C03123213E9F508E1
:10910000740B122E55E0702F900535E06029742203
:109110005508642260217442550864427014742218
:10912000122E55129AE0600F7422122E55129AE6F2
:1091300060057ACF0293FCE9A2E6506C901973E0C7
:1091400060046401701B900538E0A2E150137422A2
:10915000122E5512B4EC122A2601010B7F9100FA4F
:10916000937422122E5512B4EC24FD601214600F79
:1091700024FD600B24FD600724FE60030293FA7453
:1091800022122E55129B1F700F7422122E55A312FD
:10919000C8A5A3E0640D60107405122C0312341DE1
:1091A000E964017003029AC9EE242DF582E43FF5CB
:1091B0008312A2FB7003A3E0697021750A00780A8C
:1091C000122BA1780A122BA1EE242F129BC4129A03
:1091D000EC12CC8412335D7402122B5F740B122ECE
:1091E00055E0700302928B129AEC12CC841234E395
:1091F0008A0A8B0BEA450B70030293227406122E27
:1092000055E0F88E828F83A3A3E028F8A3E0340012
:10921000F9E8240D129ACEF88A828B83A3A3A3E0E7
:1092200068600EE88A828B83A3A3A312B18F129B7E
:109230003479047406122E5512A64BE02AF8A3E0E6
:1092400034008882F583A3AA82AB83123F398A0C4B
:109250008B0D8C0E8D0F850A82850B83A3A3A3A390
:10926000780C122AE44003029AC990815E780C12AD
:109270002CCF850A82850B83A3A3A3A3E50CF0A3BF
:10928000E50DF0A3E50EF0A3E50FF0901973E0648F
:109290000260030293CF90054DE064046008E0642F
:1092A000096003029AC9E508A2E5400302935DEE56
:1092B000242F12B964C0E07402122E55D0E0129B24
:1092C00045C0E07403122E55D0E0129B3DC0E074FF
:1092D00004122E55D0E0F07416122E55E064017081
:1092E000267410122E55129AFC7003A3E0697017B1
:1092F000740E122E5512CC841233E1E96402700709
:109300007416122E55E4F0129B2A12299974061233
:109310002C0B7409122C03122E5F7404122B5F02A3
:109320009AC9900592E06401600302928B74221244
:109330002E55129AE07009E508A2E6500302928BBE
:109340007412122E55E0F47003A3E0F4600CEEFCEE
:10935000EFFD7405122C0312321F029AC9A2E640D7
:1093600003029AC97422122E5512D1837016741CEE
:10937000122E55E0640270547405122C0379001209
:1093800033B180487422122E55129AE67014741C60
:10939000122E55E0640470347405122C031233A5A8
:1093A000802A7422122E55129B1F700C79007405AE
:1093B000122C0312342980147422122E5512B4EE8A
:1093C000640C70087405122C03123459029AC9E017
:1093D000600764016003029AC9900538E0A2E14089
:1093E00003029AC97429122E55E060267410122EB9
:1093F0005512CC84124881E9700A7AD37B0012445A
:1094000013029AC98E828F83A3A312E2E9A3E0C25A
:10941000E5F07416122E55E0601DEE2402F8E43FCC
:10942000F9E8FAE9FB12D18914F012D189F874161F
:10943000122E55E8F07006E508C2E7F508E508A227
:10944000E35061751110A2E25018740A122E55E013
:1094500054E3F0740A122E55E0131313541FF8E06E
:10946000802CA2E4502A740A122E55E01313543FA4
:109470005407F86009740768600B18E87007C3E5C3
:1094800008C2E7F508E8333354FCF8E054E348F049
:10949000740A122E55E0C0E08E828F83A3A312B00F
:1094A000D6D0E0F090054DE064046008E064096007
:1094B00003029580740E122E5512E2187003A3E079
:1094C00069601F740E122E5512CC841233E1E964C8
:1094D00002600F740A122E55E05403640160030207
:1094E0009AC97407122E55E07041EE242F12B96408
:1094F000C0E07402122E55D0E0129B45C0E0740308
:10950000122E55D0E0129B3DC0E07404122E55D0AF
:10951000E0129B251229997406122C0B7409122C47
:1095200003122E5F7404122B5F80527422122E5588
:1095300012D1837016741C122E55E06402703E74B2
:1095400005122C0379001233B180327422122E5589
:10955000129AE67014741C122E55E06404701E7486
:1095600005122C031233A580147422122E55129B5F
:109570001F700A79007405122C03123429029AC94B
:10958000746155087003029687E508A2E0506D12D9
:10959000B9967405122C03122FB5E9705C1233577B
:1095A000E9F5097416122E55E0700F7410122E553D
:1095B000129AFC7003A3E0696042A90912B996747B
:1095C00005122C03122FBBE96024E508A2E3500C1E
:1095D00085188285198374FFF0A3800C740E122EF7
:1095E00055129B07E8F0A3E9F0751004800EE5081A
:1095F000C2E5F508750900800353089FE508A2E558
:10960000503FEE242F12B964C0E07402122E55D0E0
:10961000E0129B45C0E07403122E55D0E0129B3D32
:10962000C0E07404122E55D0E0129B2512299974C3
:1096300006122C0B7409122C03122E5F7404122BC9
:109640005FE508A2E6400302995CA818A919880AF8
:10965000890B780A122B9DA909129AD7122C031292
:1096600032077402122B5FE9F509700302995C74EA
:1096700022122E5512B4EC6401600302995C74103E
:109680004510F51002995C7407122E55E0640170C4
:109690005D7422122E5512B4EC6405701EA818A930
:1096A00019880889097808122B9D129AD5122C0363
:1096B0001232077402122B5F029AC97422122E55BD
:1096C000129B1F7029740E122E5512CC84124881E1
:1096D000E9601BA818A919880A890B780A122B9D22
:1096E000129AD5122C031232077402122B5F7416D1
:1096F000122E55E070257407122E55E06401700C8F
:109700007422122E55E0F8129B1F600CEEFCEFFD48
:109710007405122C0312321F029AC912329DE9609D
:1097200003029AC9741D122E55E070030297D57476
:1097300020122E5512B99F741F122E55E0FA741E76
:10974000122E55E0F9122F85E9607D741F122E55F7
:10975000E0701E740E122E55129B0712F466FAA3C7
:10976000E0FB12486F8B0BEA450B600302995680B1
:10977000517420122E5512CC84741F122E55E0F90C
:10978000122F7F85188285198312E1557808740D90
:10979000122E55E060027810740C122E55E0600411
:1097A000740828F8740A122E55E0600108088E82A9
:1097B0008F83A3A3E028FAA3E034008A82F583E034
:1097C00014F07510400299567508007808122BA104
:1097D000790B02990F740E122E5512CC887409124F
:1097E0002E55E0600302992AE508A2E3500302998E
:1097F0002A7407122E55E06401607A790085188278
:1098000085198312CC84122FD98A0A8B0BA80AA936
:109810000BE849601C88828983A3A3A3A3A3E06407
:1098200001605288828983A3A3A3A3A3E06402609A
:1098300044EE242D12B99985188285198312CC849F
:109840001234E38A828B83E5824583600FA3A3E011
:10985000F9123501E96005C3940840197410122EFD
:109860005512CC84124881E97003029905740912DB
:109870002E557404F07800E8F5097809122BA174CC
:109880001E122E55AC82AD83740F122E5512CC844D
:10989000740A122E55E0F9122FEB7401122B5FE9B6
:1098A000600F7510208E828F83A3A312B4EC543FF7
:1098B000F0741D122E55E06023740E122E5512B94D
:1098C0009F741E122E55AA82AB83123321851882F3
:1098D00085198312E15574404510F5107407122E56
:1098E00055E06401601579007410122E5512B99F6D
:1098F000740E122E5512CC84122F8BE508A2E35061
:1099000037794080357508007808122BA1790274E8
:109910000F122E5512B99F7411122E5512CC8412AB
:1099200034237401122B5F029AC9E508A2E34003B5
:10993000029875784002987779007410122E5512AB
:10994000B99F740E122E5512CC84122F19E960069D
:1099500074204510F510123357E9F50985188285F2
:109960001983E064FE7003A3E0F4700375090090AE
:109970001960E064016003029A0FEE241312B964C7
:10998000F47003A3E0F47003029A0F740E122E55C4
:10999000C3E094F9A3E094FF507512BAC474101296
:1099A0002E55E0687003A3E06960647410122E55B0
:1099B00012CC8412486F8A0A8B0BA80AA90BE849BB
:1099C000604D88828983A3A3A3A3E06401600D880E
:1099D000828983A3A3A3A3E0640270337430122EA0
:1099E00055740112E69FF8A3E0F9743B122E55124C
:1099F000CC937430122C031248D5E96012743312E0
:109A00002E55AA82AB8312482DE9600312439BE5D1
:109A100008A2E74003029AC9E5097003029AC98EB9
:109A2000828F83A3A3A3A3E0FA7B00123FE18A0AFB
:109A30008B0BEA450B7003029AC9EE2404F512E47D
:109A40003FF5138E828F83A3129B11122B998512DF
:109A500082851383E0FC7D00123F217403122B5F8B
:109A60007407122E55E0C0E0742B122E55D0E0F092
:109A7000742E122E55E4F0A3F0742B122BFB880CDD
:109A8000890D780C122B9D7508007808122BA1788F
:109A900010122B9DE509F5087808122BA112B95870
:109AA0001229A1851282851383E0F97408122E55BC
:109AB00012B99FAA0AAB0B1233157408122B5FE977
:109AC0006007AA0AAB0B123FE7743D02871EF582BE
:109AD000E412EEDD22790012B95C12B9A3740722F8
:109AE00012B50664062212B508640722EE242BF58F
:109AF00082E43FF58312B9B312B95D2212D536EE76
:109B0000241312BF49682212D5368518828519831D
:109B100022A3E0F50CA3E0F50D750E00780C2212DF
:109B2000B508640322F0129B2A22EE2425F582E474
:109B30003FF58322E4F0A3F0A3F0A3F022F0EE249B
:109B40003112BF4922F0EE243012BF492274F412C0
:109B50002591EAFEEBFF8C088D0990195DE0600FFE
:109B600012E20B7003A3E0697005122F078052798F
:109B70000012CC77122FD98A828B83E582458360CD
:109B800035A3A3A3A3A3A3E05418602AE508241CCB
:109B900012CC701229A1E508241312CC701229A14D
:109BA000EE2418129BC4129BC912CC84122FF1749C
:109BB00004122B5F800B7900129BC912CC84122FE8
:109BC00031028FB912BF49F9228E828F83A3A3A3DA
:109BD000A3A3A3A3A3A312B9B312CC632274F0125C
:109BE000259174EA122C3F8A0A8B0BEA2402F50EA7
:109BF000E4350BF50F0A0AFB1248698A088B09AE97
:109C000008AF09750801850A82850B83A3E0F50971
:109C1000750C01AC0EAD0F740B122E55AA82AB83DE
:109C20001240F57413122E5574FEF0A304F074154F
:109C3000122E557402F07408122E55E4F090198912
:109C4000E0700EEE4F700AE50970067508C3029EBB
:109C50001990054DE0640860067508C2029E1585DE
:109C60000A82850B83A3A3A3A3A3A3A3A3A3A3E017
:109C7000A2E1500EA2E35005750C04800C750C0394
:109C80008007A2E35003750C02EE4F7003029D287B
:109C90008E828F83A3A3A3A3E06404600D8E828FC2
:109CA00083A3A3A3A3E06403700C7404650C602C6D
:109CB0007403650C60268E828F83A3A3A3A3E06444
:109CC00002600D8E828F83A3A3A3A3E06401703191
:109CD0007402650C60067401650C70188E828F83A7
:109CE00012CC841233FFE9703F12A98E122E551246
:109CF000CC9380348E828F83A3A3A3A3E0640260FD
:109D00000D8E828F83A3A3A3A3E06401700A8E82C9
:109D10008F8312CC84122F4FE50A2402FAE4350B0C
:109D2000FB12482D7E007F007413122E55E064FE56
:109D30007003A3E0F470461248C9E97040E5096079
:109D40001B90199212CC841233FFE9700F90199274
:109D500012A992122E55E8F0A3E98020850A828587
:109D60000B83A3A3A3A3A3A3A3A3A3A3E05402F9D8
:109D7000122F437413122E55EAF0A3EBF074131252
:109D80002E55E064FE7003A3E0F470067508C70268
:109D90009E15E509F50D780D122BA1850A82850B1C
:109DA00083A3A3A3A3A3A3A3A3A3A3E0F9E50A24E6
:109DB00002FCE4350BFD7414122E5512CC84122EC5
:109DC000837401122B5FE9704CA90CE50A2402FC94
:109DD000E4350BFD7413122E5512CC841248938A6D
:109DE0000E8B0FAE0EAF0FEE4F601F740265097041
:109DF0000D8E828F83A3A3A3A3A3E0D2E3F07415F7
:109E0000122E55E4F0750800800B7413122E557451
:109E1000FEF0A304F0E5097009AA18AB191246EF89
:109E2000800AFCA90CAA18AB1912339FE9FCEE4F6B
:109E30006053E50960208E828F83A3A3A3A3A3E0D0
:109E4000D2E6F074026509700D8E828F83A3A3A3FE
:109E5000A3A3E0D2E5F0850A82850B83A3A3A3A385
:109E6000A3A3A3A3A3A3E0A2E6500D8E828F83A396
:109E7000A3A3A3A3E0D2E7F08E828F83A3A3A3A31F
:109E8000A3A3E004F0E508703BEC60337D007A01A9
:109E90007B10123EFDEE4F600CE50A2402FAE43519
:109EA0000BFB12482D7413122E55E064FE7003A3B1
:109EB000E0F4600B7413122E5512CC84122F4F74E1
:109EC0001602D924FC80C574F712259174F7122C60
:109ED0003FEAFEEBFF90054DE06403600DE0640196
:109EE0006008E06409600302A0168E828F83A3E0FD
:109EF0006003029FD47C007D007A027B00123EFD4D
:109F000012A01B8A828B8312BACD90053E12CC938D
:109F100079531246E390054DE06409600990054BC2
:109F200012CC841234DD851882851983740112CF16
:109F3000BA79421246E390054D7404F07401122C74
:109F400003794A1246DD7401122C0B7A437B051209
:109F500040F5901813E0640B70057406F0800B79DF
:109F60000090054B12CC84122E7D901973E0600492
:109F70006401701F900541E064FE7003A3E0F4608B
:109F80002A79007401122C0B90054112CC841248DE
:109F9000938018E06402701390053E12B99F7A0313
:109FA0007B00123EFD12A87A123EFD900538E0A219
:109FB000E35004D2F08002C2F012CFB079521246C0
:109FC000E3901973E06402704A901A23122E26124D
:109FD0003201803FFC7D007A037B10123EFD901918
:109FE00073E06402701B901813E0640B7003740A32
:109FF000F0901961E4F0FA7B40900598E0F9124086
:10A00000B38E828F8312A02512CC84122E7D9005F0
:10A010004DE4F012326D740902B3E5EE2402FAE465
:10A020003FFB22E0F8A3E0F990054B22C082C083F9
:10A030009004D512CF83701F90054DE01460092461
:10A04000FC600A14600C800F9004E080349004DC03
:10A05000802F9004DE802AE84960089004D612A67A
:10A060005C700C8A828B83A3E0F9122E65801D90B0
:10A0700004D512D18D64027005123477800E9005DC
:10A08000CB12CF83600612C8A512493402C5707482
:10A09000F412259174FE122C3F8A088B097A007BFA
:10A0A00004900598E0F91240B3AA18AB1979501240
:10A0B00046DD7A0F7B00123F458A0A8B0BAE0AAF52
:10A0C0000BEE4F6020850882850983A3E07016900F
:10A0D000054BE0F47003A3E0F4603B12A2F57003BB
:10A0E000A3E0696031850882850983A374EA12A719
:10A0F000E01246E37A417B05794B1246E37A4B7BCB
:10A100000579501246E37A407B0579E11246E3EE89
:10A110004F700302A19F8E828F837402F090054BD3
:10A12000E0F47003A3E0F4600A12A2F57003A3E068
:10A1300069704F85188285198312A023E8F0A3E97E
:10A1400012A7E01246DD90053E12B00912CC937AB8
:10A15000417B05794B1246DD7A407B0579E1124659
:10A16000DD750A00780A122BA1780A122BA190192A
:10A17000D812A02612AD3F12CC8412335D740212A5
:10A180002B5F85088285098312A1A4A3F090054D59
:10A190007403F0EEFAEFFB900598E0F9123F51746A
:10A1A00002028FB6A3E08E828F832274F41225916F
:10A1B00074E8122C3FEAFCEBFD8C828D83A3A3A3F1
:10A1C000A37808122DC87808122D7890054E7808CB
:10A1D000122CF57F7F7E7F790090054E7808122D36
:10A1E000C8E97808122BCAE508A2E0502978009047
:10A1F00005998014850882850983A3A3E06970010D
:10A2000008E508241412CC7012AA2970E7E8C39F4D
:10A210005004E8FFE9FE09E9C3941B40BC8C828D21
:10A2200083A3A3A3A3122E02E8494A4B6079EC242E
:10A2300004F508E43DF509850882F583122E0290A5
:10A24000054E122E3E7C187D007900AA18AB19121B
:10A250003F2D850882850983122E02851882851973
:10A2600083122E3E7404122E557401F0900554E0B2
:10A27000C0E07405122E55D0E0F07407122E55E49C
:10A2800012CFBA1246FB806A90054B12CC84122E74
:10A29000B38A0A8B0BA80AA90B90054B12A304687A
:10A2A0007003A3E069602D90059912AA29602585A5
:10A2B000088285098312A2FB7003A3E069700C85F4
:10A2C0000882850983A3A3E06E60BDE5082414120B
:10A2D000CC7080D6EE900540F012324FE9601390BA
:10A2E000054DE4F09004E212CF83600612C8A31279
:10A2F0004934028FB485188285198312D5369005AA
:10A300004BE06822E8F0A3E912A30C22F085088252
:10A31000850983E02274F412259174E8122C3F8A97
:10A32000828B83A3A3A3A3A3A3A3A3A312DA347C46
:10A330000090054E7808122DC8EC7808122BCAE55B
:10A3400008A2E0502FECF8EA2812BABCF890199154
:10A35000E0C398501F750801750900750A00750B58
:10A3600000EC7808122B227808122D7890054E7890
:10A3700008122CF50CECC3941B40B690054E122E1F
:10A3800002E8494A4B604E7C187D007900AA18AB60
:10A3900019123F2D90054E122E02851882851983C1
:10A3A000122E3E7404122E557401F07407122E55AD
:10A3B0007401F0900554E0C0E07405122E55D0E011
:10A3C000F07407122E55E412CFBA1246FB90054DD9
:10A3D0007406F0801C90054DE4F0FCFD7A047B10BF
:10A3E000123EFD9004E212CF83600612C8A3124908
:10A3F00034028FB474F512259174D1122C3F8A085F
:10A400008B098A828B8312BC58741C122C0B8A8293
:10A410008B83A3A3A3A3A3A3A312A65412CC7B1242
:10A42000327F741C122E55E0702C850882850983BA
:10A43000A3A3A3A3A3A3A3A3E0C3940B40188E825A
:10A440008F83A3A3A3A3A3A3A3A3E0640270071213
:10A45000CC5EE0F4600302A64690054DE064027015
:10A460000302A52BE06406700302A52B9004D5120D
:10A47000CF83600812A65C700302A55F90054DE0D3
:10A4800064086008E06404600302A646741E122E8D
:10A490005512A64BA3A3A3A312BC589004D5E0F871
:10A4A00049600712D1936402607790054BE06E70AB
:10A4B00003A3E06F600302A64674016A601674236A
:10A4C000122E55AC82AD837A5F7B051240EFE960B6
:10A4D0000302A6467A007B02900598E0F91240B983
:10A4E000EA4B4C4D600302A64690054E122E0285A3
:10A4F0001882851983122E3E900554E0C0E0740442
:10A50000122E55D0E0F07405122E557401F0740629
:10A51000122E55740212CFBA1247A9E9600302A69F
:10A5200043EEFAEFFB12347102A6469004D512CF27
:10A5300083702C7508007808122BA17808122BA1C3
:10A54000EE2410F582E43FF58312CF77A3A3A3A3F3
:10A55000A312B9BC12CC8412335D7402122B5F8E2D
:10A56000828F8312BACD7407122E55E8F0A3E91238
:10A57000A99812BACD7409122E5512B9CE12BF5332
:10A58000C0E0740B122E55D0E0F012CC5E12872C76
:10A59000740F7808122DD7740C122E55E508F0743C
:10A5A00020122E55E0C0E0740D122E55D0E0F0744C
:10A5B00022122E55E0C0E0740E122E55D0E0F07439
:10A5C0001D122E55E0C0E07410122E55D0E0F0742C
:10A5D0001E122E55E0C0E0740F122E55D0E0F0EEA2
:10A5E000241012B964C0E07411122E55D0E0F0743A
:10A5F00021122E55E0C0E07412122E55D0E0F074F6
:10A600002E122E55E0C0E07413122E55D0E0F074D7
:10A6100023122E55A982AA8389088A09750A00780F
:10A6200008122B997C087D007417122E55AA82AB54
:10A6300083123F217403122B5F7407122C03122E16
:10A640007780031247A3742F02B655E0FA8E828FEB
:10A6500083A3A322A3E0F98A828B832212D194647C
:10A66000012274F712259174C9122C3F12348F9075
:10A67000054DE06408601F904EE2E49390052FF0D2
:10A68000904EE2E49390052DF0900556740112A7C8
:10A69000D7A30412A7D77C237D0079007414122C51
:10A6A00003123F2D90055EE07009741E122E557442
:10A6B000018006741E122E55E412A7E8740FF09064
:10A6C000199012CFBA79461246E37401122E55E45E
:10A6D000F0901A3CE0C0E07402122E55D0E0F090E9
:10A6E000053BE0C0E07403122E55D0E0F074041274
:10A6F0002E55E4F07405122E55E4F07407122E5511
:10A70000E4F090055EE0C3940F500CE0C0E07406E6
:10A71000122E55D0E080077406122E55740FF07C6F
:10A720005F7D057408122E55AA82AB831240F57C1A
:10A73000037D0079FF7410122E55AA82AB83123F5D
:10A740002D900597E0C0E07413122E55D0E012CB87
:10A75000C47401122C031232797A9B7B057945125D
:10A7600046E312338D900552E0C0E0741C122E5562
:10A77000D0E0F0900553E0C0E0741D122E55D0E0FB
:10A78000F0900540E0C0E0741A122E55D0E0128718
:10A79000827418122E5512CC937420122E55E4F0A8
:10A7A000900555E0C0E0741F122E55D0E0F07434CF
:10A7B000122E55E4F07429122E55E412A7E0124629
:10A7C000E37A417B05794B1246E37414122C031291
:10A7D0004701743702B3E5F0A3E4F0A3F0A3F0223D
:10A7E000F07A3E7B0579532212A7EC22F08518827D
:10A7F00085198322C082C0838A828B83A3E090055F
:10A800004D6004E4F080707408F090055EE07028FC
:10A810009004E212CF836008790012C8A51249346F
:10A8200090054B12B99F7A057B00123EFD90054BB7
:10A8300012CC841234DD80187900122E7190053EFE
:10A8400012B99F7A067B00123EFD12A87A123EFDD5
:10A850009005D112CF83601F901967E064017017D3
:10A860009081121229997A007B40900598E0F912A4
:10A8700040AD7404122B5F02C57090054112B9A35C
:10A880007A047B002274F412259174EA122C3F8A18
:10A89000088B09EA2402FAE43509FB1248698A0A9E
:10A8A0008B0BAE0AAF0BEE4F700302A9898E828F1D
:10A8B00083A3A3A3A3E06401602A8E828F83A3A352
:10A8C000A3A3E06402601D8E828F83A3A3A3A3E0F1
:10A8D000640360108E828F83A3A3A3A3E06404604B
:10A8E0000302A989E5082402FCE43509FD740B1272
:10A8F0002E55AA82AB831240F512A98E122E551244
:10A90000CC937415122E557401F07408122E55E470
:10A9100012CFBA1246F5E9FC7D007A077B00123EA1
:10A92000FD8E828F83A3A3A3A3A3E0C2E012A99804
:10A93000740112E9675001097A027B00122334E89E
:10A940008E828F83A3A3A3A3A3A3A3A3F0901967CD
:10A95000E064017034901961E06402702C8E828F83
:10A9600083A3A3A3A3E06401600D8E828F83A3A3BE
:10A97000A3A3E06402701212B958122E0212C24749
:10A98000122E3EEE241B12CF6A7416028FB68E82F0
:10A990008F8312D53674132212A99C2212C27DA372
:10A9A000A3A3A32274F212259174F8122C3FEAFE9D
:10A9B000EBFF8C0A8D0B890D9080C0AC18AD19741B
:10A9C00008122AC3750C00EEFCEFFDAA18AB191291
:10A9D00040EFE97003750C01900599801AEEFCEFC9
:10A9E000FDE508240BFAE43509FB1240EFE970237A
:10A9F000E508241412CC7012AA296024E50CA2E008
:10AA000040DB850882850983E0650A7004A3E06560
:10AA10000B70DD850882850983A3A3E0650D70D0E6
:10AA2000AA08AB097408028B28128730E50845098B
:10AA300022C082C08390059902C56D74F7122591DA
:10AA400090059912F0ED800C12D79C12BC5B123F5E
:10AA5000E7EEFAEFFBEA4B70EF900599E4F0A3F014
:10AA600002B3E874F4122591EAFEEBFFEE24131210
:10AA7000B9646403700CEE240BFAE43FFB124869DE
:10AA8000800EE06402707C12CC5E12CC8412486F9F
:10AA90008A088B09E508450960698E828F83A3E0E7
:10AAA000700F850882850983A3A3A3A3A3A3E480D1
:10AAB0005164F1600A8E828F83A3E064E170278580
:10AAC0000882850983A3A3A3A3A3A3E0640170164E
:10AAD00085088285098312CC84122F4FEE240BFA4D
:10AAE000E43FFB12482D850882850983A3A3A3A315
:10AAF000A3A3E0600E850882850983A3A3A3A3A373
:10AB0000A314F0028FB974F11225918A088B09EC15
:10AB1000FEEDFF890A8A828B8312DBD78A828B83C0
:10AB200012A1A412ABD88A828B83A3A3E0C454F0F1
:10AB3000FA88828983E04A12ABE812A1A412ABE240
:10AB4000E0333354FCF88E828F83E04812ABE2A3EB
:10AB5000E033333354F8F88E828F83E04812ABD859
:10AB60008508828B83A3A3A3A3A3A3E0A2E0E4337D
:10AB70001313FA88828983E04AF0E5082407F50C6C
:10AB8000E43509F50D750E00780C122B997C087DC3
:10AB900000EEFAEFFB123F217403122B5FEE240844
:10ABA000FE50010FE508240FF50CE43509F50D788A
:10ABB0000C122B997C037D00EEFAEFFB123F2174FF
:10ABC00003122B5FE50AC3940F400A12CC6C12A14A
:10ABD000A5A3A3A3F002E939F0EEF8EFF9A30EAFB5
:10ABE000832212ABE8A3A322F08508828B83A3A360
:10ABF0002274F1122591EAFEEBFF890A8C088D0977
:10AC00008E828F83E08C828D8312BF84AE82AF836D
:10AC1000E012C33312C51DC412C33312ACB0E0122C
:10AC2000C33A12C51BA2E2E4338C828D8312C51A8B
:10AC3000131313541F12C33312C519A2E7E4338C44
:10AC4000828D83A3A3A3A312ACB08E0C8F0D750EBF
:10AC500000780C122B997C087D00E5082407FAE4A3
:10AC60003509FB123F217403122B5FEE2408FE50BE
:10AC7000010F8E0C8F0D780C122B997C037D00E553
:10AC800008240FFAE43509FB123F217403122B5FED
:10AC9000E50AC3940F40118E828F83A3A3A3E0C063
:10ACA000E012CC6CD0E0800412CC6CE4F002E93904
:10ACB000A3A312BF880EAF832274F51225918A08D0
:10ACC0008B098A828B83A3AE82AF83E0F9122E9B1D
:10ACD0008E828F83E064EB6024850882850983A3DC
:10ACE000E064E16018850882850983A3E064F1606F
:10ACF0000C850882850983A3E0641A70098508829F
:10AD0000850983A3E4F0901A23122E2612320175CE
:10AD10000A01780A122BA1850882850983A3E0F530
:10AD2000087808122BA1790090054B12AD3F12CC88
:10AD30008412335D7402122B5F12329702B65812DE
:10AD4000B9A390054122C082C083E99005AB70038E
:10AD5000E480027401801EE0F902C570C082C083E5
:10AD60007CEF7D318A828B8312CC8412470D02C521
:10AD700070EAF0A3EBF002C57074F612259190050D
:10AD8000ABE0701B7C0079017A007B001232C7EACD
:10AD90004B600C8A828B8312CF8360031231F502E1
:10ADA000C902C082C08379041232C1E9F8904EF41E
:10ADB000E493C398401079FF1232C1E9F8904EEF46
:10ADC000E493C398500479018002790002C570743D
:10ADD000F01225918A088B09890B750C008A828BE9
:10ADE00083A3A3A3A3A3A3A3A3E0F91232CD8A0E46
:10ADF0008B0FAE0EAF0F750A01EE4F600302AEBAB5
:10AE000085088285098312AFF8A3A3A3A3A3A31285
:10AE1000C04112CC841232B58A0C8B0DAE0CAF0D32
:10AE2000EE4F700302AFE38E828F83A3A3A3A3E44C
:10AE3000F0A3F0E508240CFAE43509FB8A828B8341
:10AE4000E0C0E012E95DD0E0F0E508240D12AFF0BB
:10AE500012DBA512CC931233EDEE240F12E14FE575
:10AE600008241112AFF012890A12CC93E5082413BA
:10AE700012AFEBC0E012B958D0E0F0750C01EE242F
:10AE80000612BF39E0547FF0A3E054FC12E695E0CF
:10AE90005404600302AF31901A35E0F508750900DB
:10AEA00074077808122D548E828F83A3A3A3A3A3C3
:10AEB000A3E04508F0A3E04509F08E828F83A3A3A9
:10AEC000A3A312872A74077808122DD7E508540720
:10AED000FCE50B606C8E828F83A3A3A3A3A3A3A323
:10AEE000A3A3740212C51E12B2BF600B90053912E3
:10AEF000B009A3A312CC93EC700302AFACEE24060E
:10AF000012F3F8547FF508A3E054FCF509EC24FF94
:10AF1000F50EE434FFF50F7407780E122D54E50892
:10AF2000450EF8E509450FF98A828B8312CC938090
:10AF30007B8E828F83A3A3A3A3A3A3E0448002AE4E
:10AF4000B9EC7005750A0080638E828F83A3A3A37A
:10AF5000A3A3A3E05420600C123F3FEA547F790082
:10AF6000245F80198E828F83A3A3A3A3A3A3E0549D
:10AF700010601A123F3FEA540F7900240A50010969
:10AF80008E828F83A3A3A3A3F0A3E9800D8E828F6B
:10AF900083A3A3A3A37401F0A3E412A9987404F0FB
:10AFA0007A207B00900598E0F9123F87E50CA2E03B
:10AFB000503412B9B8A3A3A3A3A3A3A3A3A3E0F9F6
:10AFC000EEFAEFFB1232BBE9601C12ED433F12CFE9
:10AFD00081600912B51612CC84123FE7EEFAEFFB3E
:10AFE000123FE7750A00A90A02D92712BF61E022C1
:10AFF00012BF6112D536EE22A3A3A3A3A3A312B955
:10B00000A3850882850983A32212D5368E828F8379
:10B01000A3A32274F412259174F7122C3F7E001220
:10B0200032CDEA4B700302B0CF8A828B83A3A3A3F5
:10B03000A3A3A3A3A3A3E06406600302B0CF8A8204
:10B040008B83A3A3A3A3A3A3A3E0FF8A828B831272
:10B05000B0D6E0C0E07408122E55D0E012B4FD1254
:10B06000CC891232EBEF540860638518828519830E
:10B0700012B99F7A007B001232AF8B0BEA450B703E
:10B080004C12F5521247257C007D007A007B00802F
:10B09000288E828F8312B4ECF47003A3E0F4602D49
:10B0A00090054B12B9C012CC8412471FE9641A6094
:10B0B0001C7C007D00EEFAEFFB1232AF8A0A8B0B8C
:10B0C000AE0AAF0BEE4F70C9790012472B7E01EE2E
:10B0D000F97409028FB612BC6412B0DD222408F59F
:10B0E00082E438F58322C082C083EA4B7005900564
:10B0F000B080068A828B83A3A312B2F360258A8272
:10B100008B83A3A3A3A3A3A3A3E0540860E5EC4D02
:10B1100060158A828B8312B4EC6C7003A3E06D70AF
:10B12000D280047A007B0002C57074F2122591EA85
:10B13000FEEBFF890A8C088D097A147B00123FE12F
:10B14000EA4B603F8A828B83A3A3A3A3A3A3A3A3F9
:10B15000A3E412B4F2A3E50A12B18FA3A312DD1285
:10B160008A828B83A3A3A3A3E4F0A312B51012B128
:10B17000A112E0EDEA12ED443BF583E4F012B18652
:10B18000F0A3F0028B2BA3F08A828B83A3A322125D
:10B19000B1932212B19722F08A828B83A3A3A3A337
:10B1A00022A3F012F4193BF583E4F02274F4122583
:10B1B00091EAFEEBFF89088C0A8D0BEE4F700302BB
:10B1C000B24874016508701279011232C1E9F89031
:10B1D0002777E493C398502280167404650870148E
:10B1E00079041232C1E9F8904EF4E493C398500AFE
:10B1F0007911805674026508704E8E828F83A3A3E6
:10B20000A3A3A3A3A3A3A3E50812B9C812DBB2E4C6
:10B21000F0A3F09005B012CF8360178003E0F8A38D
:10B2200012CD8AA3A312B2F388828983A3A370EDFF
:10B2300080039005B012E0F17A207B00900598E041
:10B24000F9123F877900800279C1028FB9C082C0AC
:10B2500083E9F879009005B0801D8A828B83A3A3CF
:10B26000A3A3A3A3A3A3A3E068600574FF68700170
:10B27000098A828B83A3A312B2F370DE02C57074B5
:10B28000F7122591EA4B70059005B080068A828BF3
:10B2900083A3A312B2F360208A828B83A3A3A3A308
:10B2A000A3A3A3A3A3E06970E4EC60108A828B835C
:10B2B000E012B2BF70D780047A007B0002B3E812BC
:10B2C000F44EE0540422C082C0839005B080068A08
:10B2D000828B83A3A312B2F360128A828B83A3A30F
:10B2E000A3A3A3A3A3A3E06970E580047A007B0075
:10B2F00002C57012D1B8EA4B2274F7122591EAFC0C
:10B30000EBFD9005B080068A828B83A3A312B2F373
:10B3100060248A828B8312B4EC6C7003A3E06D709E
:10B32000E68A828B83A3E0C812BC5112D913A2E033
:10B33000E43370D380047A007B0002B3E874F21225
:10B3400025918A0A8B0B8C0C8D0D750800750900F0
:10B35000EA450B60309005B080068E828F83A3A3F0
:10B3600012BC5BEE4F601EAC0CAD0DEEFAEFFB8530
:10B370000A82850B83124934E9640170DDEEF8EF2F
:10B38000F988088909AA08AB09028B2B7900022BDE
:10B390004774F71225919005B012BACD7C007D005C
:10B3A000800DE8FCE9FD88828983A3A312BACDE869
:10B3B000496030EA687002EB6970E79005B012CC22
:10B3C00084E86A7002E96B88828983A3A3700812FB
:10B3D000BACD9005B0800912BACD8C828D83A3A31B
:10B3E00012CC938003122B5F7F0102285B74F7124B
:10B3F0002591EAFEEBFFEE4F602F1232E512B42BDF
:10B4000012CC84123FE78E828F8312CC84123FE7E6
:10B4100012ED433F12CF81600912B51612CC84128F
:10B420003FE7EEFAEFFB123FE780BD12CF89F583CD
:10B430002274F61225918A828B8312B4ECF508A34C
:10B44000E0F5099005B012BACD7D007C00802F8810
:10B45000828983A3A3A3A3A3A3A3A3A3E0640570EA
:10B46000140C12DBCEF5838E82E065087004A3E035
:10B47000650970010D88828983A3A312BACDE849BA
:10B4800070CD904EE9E493F8EDC3985008904EE4E7
:10B4900012EECB400F8A828B83A3A3A3A37401F087
:10B4A000A3E48010900539E0F812A654A3A3A3A347
:10B4B000E8F0A3E912B510740512B4F2E0440812E2
:10B4C000B4FDF47003A3E0F4601190054B12D8F6BC
:10B4D00012CC8412471FE9641A7005790112472BB8
:10B4E00002C902EE241DF582E43FF583E0F812B5AF
:10B4F000082212B4F62212B197A3A3A322F08A82E3
:10B500008B8312B50622E0F8A3E0F5838882E0225F
:10B5100012B4F6A3A322EE12CD6F22C082C083EA3A
:10B52000FCEBFDEC4D6017EC24FBF582ED34FF12D3
:10B53000CF81700712B575E0F46007123F4B7905B3
:10B540008030900598E0C0E012B575D0E0F0904EE4
:10B55000E1E493F97AB27B05123F81E9640170104E
:10B560007A007B20900598E0F9123F8779008002ED
:10B57000790402C570EC24FFF582ED34FFF58322D7
:10B5800074F4122591A2AFE433F508C2AF9005B26E
:10B5900012BC5BEE4F603AEE24FBF582EF34FF12F3
:10B5A000CF817A007B209005986007E0F9123F87F1
:10B5B0008005E0F9123F8DE4F50AF50B780A122BAD
:10B5C0009DEEFCEFFD7AB27B05123F7B7402122BDD
:10B5D0005FE508A2E092AFEEFAEFFB028FB974F5D7
:10B5E0001225918A088B09750A009005B012DBD2EA
:10B5F000805A8E828F8312B4EC65087004A3E065D4
:10B6000009703D8E828F83A3A3A3A3E4F0A312C28B
:10B610008E540460118E828F83A3A3A3A3A3A3A33C
:10B62000A3E0F9122FC18E828F83A3A3A3A3A3A3A8
:10B63000A3A3A37406F07AF01289171231FB050A4E
:10B640008E828F83A3A312BACDE8FEE9FFEE4F707E
:10B65000A1A90A8003122B5F7F0302285B74F012FA
:10B66000259174D4122C3FEAFEEBFF750B00750A8E
:10B67000007508FE7509FF12329DE9600302B94B9F
:10B68000EE241512B9646044901A51E0C43354E0BA
:10B69000F8E0333354FC48C0E012D725D0E012B9AB
:10B6A000C812CC8479FF1230C38B0DEA450D600FB0
:10B6B000750B017508FF12CF6E12CE44D2E0F090E8
:10B6C0001973E0600464017003750A408E828F83F1
:10B6D00012CC821233E1E9600312B970EE24131226
:10B6E000B964700D904EECE493C0E012B958D0E00C
:10B6F000F08E828F83E0A2E7500454038019EE2479
:10B700001412B964701290052AE0C0E012F3EED072
:10B71000E0F090052AE004F012F40A701690194C3B
:10B72000E0600D900535E0700A8E828F83E0700333
:10B7300012CD5F901973E060046401704B9005387E
:10B74000E0A2E15043E50BA2E040218E828F8312FC
:10B75000CC821233E1E960308E828F83E0600DEE9F
:10B76000240B12B4E6F91233BDE9601C12B97C70E7
:10B770000302B8FDEE241312B9646401600302B839
:10B78000FD12B516E054FBF08E828F83E0640170E9
:10B790000DEE240B12B4E66402700312B98912B9DB
:10B7A0007C600302B863E50BA2E0500302B863902B
:10B7B0001973E060076401600302B863900538E024
:10B7C000A2E1400302B863E50AF50B780B122BA146
:10B7D000EE2406FCE43FFD8E828F8312CC82EE24A1
:10B7E00012129BC4122FEB7401122B5FE960061238
:10B7F000B97012B9828E828F83A3A3A3A3A3A3E0FF
:10B80000603CEE2402F50CE43FF50D850C8212B984
:10B81000AD2407FAE43FFB1233218A088B09850C1B
:10B8200082850D83E065087004A3E06509700C8EC5
:10B83000828F83A3A3A3A3A3A3E4F012B9898E826A
:10B840008F83E06401600BA90A12B9BC12CC82128A
:10B850002F8BA90A12B9B812CC82122F19E96003F2
:10B8600012B982AC18AD19EEFAEFFB12331B8A0A3B
:10B870008B0B74FE6508700474FF650970031287F2
:10B8800026EA450B700302B94F8E828F83E0C0E039
:10B890007401122E55D0E0F07404122E5512E0F10E
:10B8A000EE241E12BAC77402122E5512CC937401E4
:10B8B000122BFB880C890D780C122B9DEE24201284
:10B8C000B968122BA112B5161229A1EE240E12B9D5
:10B8D00068122BA190053E1229A17408122E55E082
:10B8E000F9AC08AD091233157408122B5FE9FE7428
:10B8F000106E705DAA0AAB0B123FE78054EE241362
:10B9000012B964C0E07417122E55D0E012F45F74BF
:10B910000F122E5512B9CE240412F3FD12BACD74B3
:10B9200011122E55E8F0A3E912BFA9C0E074181255
:10B930002E55D0E012E95312A65512B99F74061283
:10B940002C03122FBBE9600302B788791180047EB3
:10B9500010EEF9742C02D92412B95C22EE12CDA794
:10B9600022EE241712BF492212BF49F50C780C228F
:10B97000EE2412F582E43FF583E4F02212B99054EC
:10B98000402212B9904420F02212B9904440F02293
:10B99000EE12CD73E022EE2413F582E43FF583121C
:10B9A000B9A32212B9A722E0FCA3E0FD22F583127D
:10B9B000B9B32212B9A7EE228E828F83A3A3A3A3C9
:10B9C00012B9A38E828F832212DBBE22A3A3E8F0DA
:10B9D000A3E9F0EE22C082C08374D7122C3F90807E
:10B9E000007403122C0B7426122AC38A828B83A341
:10B9F000A3A3A312BACD740E122E55E8F0A3E91238
:10BA0000D52F740C122E5512BAD1240D12BABCC007
:10BA1000E0741A122E55D0E0F012D7A612BACB74E9
:10BA200020122E5512BAD1241512BABCC0E07408E7
:10BA3000122E55D0E0F0EA241CF582E43B12BACB7A
:10BA40007412122E5512BAD1241112BABCC0E0746D
:10BA500009122E55D0E0F0EA241212BABCC0E074EC
:10BA600007122E55D0E0F0EA241EF582E43B12BA0C
:10BA7000CB7424122E5512BAD1242012BABCC0E0C5
:10BA80007426122E55D0E012A7E874FFF07401124C
:10BA90002E5574FFF07402122E5574FFF09081063B
:10BAA0001229997404122C0B7407122C03122E5FA6
:10BAB0007404122B5F7900742902D573F582E43B7C
:10BAC000F583E022EE2413F582E43FF58312D536A8
:10BAD00022E8F0A3E9F0EA2274EE12259174EC1248
:10BAE0002C3F8A0E8B0F8C088D09890C750A107AF1
:10BAF000217B00123FE112D579E849700302BC4A6C
:10BB0000750B007C217D007900851882851983E002
:10BB1000FA123F2D7429122E5512BC5B901973E056
:10BB200060046401703EAA08AB0912486F8A108B4A
:10BB300011A810A911E849602388828983A3A3A3CF
:10BB4000A3E06401600D88828983A3A3A3A3E064BA
:10BB5000037009EE5440700474044FFFEF54046006
:10BB600003750B0190054B12CC84851882851983CF
:10BB700012BC602409F582E43812E1537426122EB7
:10BB80005512BACD7411122E55E8F0A3E912BC6912
:10BB900012F41012BC6912B0DD740212F46AF8A338
:10BBA00012C8A512DE7C12BC6912F420E50CF074F8
:10BBB00028122E55E0F50885188285198312F4297C
:10BBC000E50812BC6912BC51F583E50EF0A3E50F40
:10BBD000F07406122E5512E0F17408122E55E50885
:10BBE000F0742C122E5512E2E9C082C083740C123C
:10BBF0002E55AC82AD83D083D0827405122AC374D3
:10BC00002B122E55E0C0E07413122E55D0E0F0A98F
:10BC10000BAA18AB191232A3E964017021901973B1
:10BC2000E0600464017012E50BA2E0500CA9081258
:10BC300032CDEA4B60031232F1750A00800C851890
:10BC40008285198312CC84123FE7A90A741402C2B8
:10BC500094241FF582E43822A3A3A312DBD2FF228F
:10BC600012BC642212D593C82212D588C82274EE61
:10BC7000122591EAFEEBFF8C088D098E828F83A33B
:10BC80007408F0EE241612B96460088E828F83A3C4
:10BC90007410F012B96160098E828F83A3E02408CA
:10BCA000F0EE241512B96460088E828F83A3E0043D
:10BCB000F08E828F83A3A3A3A3A3A3E060198E8237
:10BCC0008F83A3A3A3A3A3A3A3E0C3332402F88E6B
:10BCD000828F83A3E028F012BF426005750B0E80AF
:10BCE00003750B00901973E06402701E901967E0F1
:10BCF000640170168E828F83E06401600D9019617B
:10BD0000E0600712BF2F7401800412BF2FE412BF3E
:10BD100084E012BF5128250B8C828D83F012BF4224
:10BD20006013900536E0F91231D7E9F8850882856D
:10BD30000983E029F0850882850983E0C394754072
:10BD40000975080075090002BF28E0FA7B00123F60
:10BD5000E18A088B09EA4509700302BF288E828FA9
:10BD600083E0FA90053B12BF7D7402780C122D54CB
:10BD7000EA450CFAAB0DEE241212B9645403F50C2B
:10BD8000750D007406780C122D54EA450CFCEBFD81
:10BD9000EE241512B9646004780180027800EE2464
:10BDA00016FAE43FFBE8F9ED49FD12BF42F50C74C9
:10BDB00009780C122D54ED450DFD8A828B8312BF3C
:10BDC0007D740B780C122D54ED450DFDEE241712E9
:10BDD000BF77740C780C122D54ED450DFD8E828FBB
:10BDE00083A3A3A3A3A3A312BF7D740A780C122D6F
:10BDF00054ED450DFDEE242312BF77740D780C121F
:10BE00002D54ECF8ED450DF9E8850882850983F09D
:10BE1000E9A3F0EE240212BF3912C04B12BF9FF00B
:10BE2000EE240412BF3912BF6912BF9FA3A312CD23
:10BE30009D12BF69A3A3A3A312BFA9850882850988
:10BE400083A3A3A3A3A3A3A3F0750A088A828B8369
:10BE5000E06015EE241812B999E5082408FAE435D3
:10BE600009FB1240F5750A1012B9616019EE241A27
:10BE700012B999A80AE50828FAE43509FB1240F539
:10BE80007408250AF50A8E828F83A3A3A3A3A3A314
:10BE9000E06057EE2407F510E43FF511851082F5B8
:10BEA00083E0C0E012BF58D0E012BF8FE0C0E008CE
:10BEB00012BF5AD0E012BF8F129B11122B9985101E
:10BEC00082851183E025E0FCE433FDA80AE508281B
:10BED000FAE43509FB123F217403122B5F851082AF
:10BEE000851183E0C333250AF50AEE241512B964DF
:10BEF0006008C0E012BF58D0E0F012CC5E129B1276
:10BF0000122B9912BF52FC7D00A80B8E828F83A347
:10BF1000E0FAE5082AFAE43509FBEA28FAE43BFBF3
:10BF2000123F217403122B5FAA08AB0902C297EEDD
:10BF30002423F582E43FF58322F8E43FF9888289DF
:10BF4000832212BF4622EE2411F582E43FF583E0FE
:10BF500022F8EE12DBA9E022A80AE5082812BF6148
:10BF600022F582E43509F5832212BF6D22E08508AF
:10BF700082850983A3A322F582E43FF583E0F50CD3
:10BF8000750D002212BF8822F08E828F83A322F0CB
:10BF9000050A8E828F83A3A3A3A3A3A3A3A322A393
:10BFA000A312E6A512BF6DA322F0EE241412BF491E
:10BFB0002274F412259174FD122C3F8A088B09EC2F
:10BFC000FEEDFF7401122BFB880A890B780A122BF5
:10BFD0009D7402122C0BEEFAEFFB122F6774021203
:10BFE0002B5FE9705385188285198312C04BF0745A
:10BFF00001122E55E0F812C041A3A312F466602985
:10C0000014850882850983A312F46A12DA2D74015B
:10C01000122E55E028F8A3E039F9E824FEF582E96C
:10C0200034FFF58312F0ED800C850882850983A327
:10C03000E4F0EEFAEFFB80047AFE7BFF7403028FDC
:10C04000B6A3E0F985088285098322E08508828508
:10C0500009832274EE1225918A0A8B0B8910ECFE5B
:10C06000EDFF750F017C267D007900EEFAEFFB12E3
:10C070003F2DE510C39408500302C1E08E828F83E8
:10C08000E510F0EEFCEFFD850A82850B8312C4EB10
:10C0900012332DE96003750F0012C4CD8E828F8399
:10C0A00012C525EE12C4C13F12C50FC0E0128909A6
:10C0B000D0E012C507C0E0EE2412F582E43FF5831C
:10C0C000D0E012BF84740812C275A3A3E06018E523
:10C0D0000A2408F8E4350BF912B95812CC938E8271
:10C0E0008F83A3E02408F08E828F83A3A3A3A3A34E
:10C0F000A3A3A3E060178E828F83A3858208858324
:10C100000912C4E012D72512A3042408F0EE241962
:10C1100012B973EE241B12B973A312C275E0600F3B
:10C1200012C25C8E828F83A3A3A3A3A312C288EE44
:10C13000241812B964700302C1D012C25CFAEE2452
:10C1400019F582E43FF583EA12C288F8E50A28F57A
:10C1500082E412F54CF812DCE6E812C288E8C39AD1
:10C16000EE5068241912B964F8904EE0E493C39835
:10C17000500575110C8008EE241912B964F5118E62
:10C18000828F83A3E0F8E50A28F50CE4350BF50D62
:10C19000750E00780C122B99AC11EC2CFCE433FDDD
:10C1A0007A367B0D123F217403122B5FEE241BF5B0
:10C1B00082E43FF5837436F0A3740DF0E511C333C8
:10C1C000F8850882850983E028800412CD56E4F0C2
:10C1D0008E828F83A3E0F88E828F83E0C398500411
:10C1E00079008061A3E0FAE50A28F8E4350B12C271
:10C1F00051E8F0A3E912C51EC39AC0E012C247D0AD
:10C20000E012C28E603DEE2417F8E43FF9880889F9
:10C21000098882F583E024F2F0EE241D12BF39E094
:10C22000240EFAA3E03400FB8882898312E1559042
:10C230000536E0F91231D7E9F8850882850983E0EF
:10C24000C398F0A90F8050EE2417F582E43FF583E0
:10C2500022F9EE241DF582E43FF583228E828F833E
:10C26000A3858208858309E0F8E50A28F582E4358C
:10C270000BF583E02212C2792212C27D22F08E8257
:10C280008F83A3A3A3A3A32212A30C04F02212C2A0
:10C2900079A3E022122B5F7F0A02285B74F4122537
:10C2A000918A088B09EA12C33AA3A3F0EA13135444
:10C2B0003F12C333A3A3A3F0EAC4131312C33A1269
:10C2C000C34D7409780A122DD712C341A3A3A3A3A7
:10C2D000A3A3F0EB12C34312C34C740A780A122DC5
:10C2E000D7E50A5401C0E0EC2418F582E43DF5835B
:10C2F000D0E012C351740B780A122DD712C3411229
:10C30000C34A740C780A122DD712C341A312C34A30
:10C31000740D780A122DD7E50A5401C0E0EC2424EC
:10C32000F582E43DF583D0E0F0740E7808122DD745
:10C33000028904540F8C828D832254038C828D8356
:10C3400022E50A54018C828D8322A3A3A3A3A3A375
:10C35000A3F08A0A8B0B22C082C08379008A828B69
:10C3600083A3A3A3A3A3A3E0900535600EE07023ED
:10C370008A828B83A3A3E0701A8016E060158A82FC
:10C380008B8312CC7B90053EE06A7003A3E06B6068
:10C3900002790102C57074F21225918A0A8B0B8909
:10C3A0000C8C088D098A828B8312C4EB12332D12F8
:10C3B000C4CD85088285098312C525E50812C4C14C
:10C3C000350912C50FC0E0E508241112CC70D0E089
:10C3D00012C507C0E012CC6CD0E012CF97740812DF
:10C3E000C4F9E06017E50A2408F8E4350BF9E5081C
:10C3F000241312C4C512CF97E02408F08508828563
:10C400000983A3A3A3A3A3A3A3A3E0601785088222
:10C41000850983A312C4DCE508241512C4C512C51E
:10C420001E2408F0850882850983A3A3A3A3A3E0A3
:10C430006019850882850983A3AE82AF8312C26723
:10C4400085088285098312C51904F0AA08AB091270
:10C450003333E9F50D7064850882850983A3A3A3AE
:10C46000A3A3A312C04BA3701AE0FAE50A2AF8E4CA
:10C47000350BF9E508241D12CC7012CC93E50CC3E2
:10C480009A802C12C4DCE8240EF8500109E5082437
:10C490001D12CC7012CC93900536E0F91231D7E919
:10C4A000F88E828F83E0F9E50CC39924F2C398C01B
:10C4B000E0E508241712CC70D0E0F0A90D028B2B18
:10C4C000EA12F41A2212BF61E8F0A3E922850A8277
:10C4D000850B83A3A312C53BE0F9EA22AE82AF83AA
:10C4E000E0F8E50A28F8E4350BF922E0FAA3E0F8D1
:10C4F000E4C8F9EA28E439FB2212C4FD2212CF9FD6
:10C50000A3A3A3A3A3A32212C54EA3A3A3E022F532
:10C5100083E812C547A3A3E022A3A3A3A3A3F08E9D
:10C52000828F83E022A3A3A3A3A3A3A3A3A312C5E3
:10C530004712C53BA3A3E0F9EAF822E0FA850A8294
:10C54000850B83A3A3A322F0A3E912C54E22F08595
:10C550000A82850B83A3A3A3A322C082C0837AC0CF
:10C560007B0579E21246DD7AC07B05800312CC841C
:10C57000D083D082022B47C082C08390053E80EDDD
:10C58000C082C08390054180E4C082C083794A1292
:10C5900046DD80DC74F61225919005C8E0FE04F0BB
:10C5A000EEF91232CD8B09EA450970EDEE60EAF939
:10C5B00002C90274EE122591EAFEEBFF8C0E8D0F7C
:10C5C000890C750A00750B001234E38A088B097414
:10C5D00012122E55E0F50D7413122E55E0F510EAE7
:10C5E00045097017E510600302C6D5A90CAC0EAD65
:10C5F0000FEEFAEFFB12350702C7D4E51070030205
:10C60000C6A0901973E060046401700E9005CD120D
:10C61000CF83600612C8A5124934E50D700E850857
:10C6200082850983E4F0750B0102C6F8901973E066
:10C6300060076401600302C6F8900538E0A2E1409B
:10C640000302C6F89005CF12CF83600CA90DAA088B
:10C65000AB0912C8A5124934850882850983E0FA1E
:10C6600012E948500109C3EA98E499A2D265D0338F
:10C670005009850882850983E004F08508828509D0
:10C6800083E0F8904EF5E49368706D750A01EEFA58
:10C69000EFFB122FF7850882850983A3E4F0805809
:10C6A000E50D701CEA240212AFEBA80C28F8E43464
:10C6B0000013E813F070098A828B83A3A37401F03E
:10C6C0008A828B83A3A3E0F89019D8E0C3985052D4
:10C6D000750B01804D74016510701DE50D6019909A
:10C6E0001973E060046401700F900538E0A2E15016
:10C6F00007EEFAEFFB122FF7901973E06402702235
:10C7000074016510701CE50D9005DF6013E004F006
:10C71000901A36E0F89005DFE0C3984005750A01ED
:10C72000E4F0E50BA2E092F0E50AA2E072F040032B
:10C7300002C7D4901973E060046401704190053819
:10C74000E0A2E15039EEFAEFFB12486F8A088B093C
:10C75000A808A909E8496026E50BA2E0500D8882E7
:10C760008983A3A3A3A3A3E0C2E0F0E50AA2E0505B
:10C770006388828983A3A3A3A3A3E0D2E0F0E50AA0
:10C78000A2E05050901973E060046401701D9005A0
:10C7900038E0A2E15015EEFAEFFB124887E9600B92
:10C7A000EEFAEFFB7900122E958029900541E06E9C
:10C7B0007003A3E06F701DEEFAEFFB7901122E9566
:10C7C000901973E06402700C7A017B00900598E088
:10C7D000F91240B302C29774F41225918A088B09AA
:10C7E0008C0A8D0B90815E7808122C55700E7A01A0
:10C7F0007B00900598E0F9123F878035901A2378E6
:10C8000008122DE6EA4509450A450B60187808121A
:10C810002B957A017B00900598E0F91240A77404EB
:10C82000122B5F800C7A017B00900598E0F9124092
:10C83000B3028FB9C082C083901A2702AD71C08243
:10C84000C083901A2902AD7174F612259175082AD9
:10C850007509057808122B9D7C6E7D007A217B007E
:10C860001240597402122B5FE9F5081248B7E942E9
:10C8700008901973E06004640170061247F1E94200
:10C880000890070112CF83600912C8A5124934E944
:10C8900042081230E7E9FE12469BE9F8E5084E48E7
:10C8A000F9805F79C4E0F58388822274F6122591BD
:10C8B000123EF775082A7509057808122B9D750830
:10C8C0006E7509007808122B9D7C007D007A217B13
:10C8D000001240657404122B5F1248B1901973E086
:10C8E0006004640170031247EB90070312CF83606A
:10C8F0000612C8A51249341230ED1246A780031261
:10C900002B5F7F0202285B74F612259174FF122CB4
:10C910003F7E0075082A7509057808122B9D7C6EEC
:10C920007D007A217B001240597402122B5FE9606E
:10C930000302C9EC7808122B9D75086E8E097808E1
:10C94000122B9D7C007D007A217B0012406B7404C9
:10C95000122B5FE9600302C9EC90053EE064FE70B3
:10C9600003A3E0F4700302C9EC7E0190054DE0647E
:10C97000086005E06404706F851882851983EE12E3
:10C98000CFBA79421246E37A557B0579431246E3E2
:10C990007A527B0579471246E37A437B05794A123E
:10C9A00046E37A417B05794B1246E37A4B7B057966
:10C9B000501246E37A3E7B0579531246E37A537B65
:10C9C0000579541246E37A407B0579E11246E390FB
:10C9D0000538E0A2E35004D2F08002C2F012CFB0DA
:10C9E00079521246E38005123EF77E001248C3904A
:10C9F0001973E06004640170031247D990070512AF
:10CA0000CF83600612C8A51249341230F9EEF974CA
:10CA10000102C8FF74F6122591E9FEA2E0502675C6
:10CA2000082A7509057808122B9D75086E7509008E
:10CA30007808122B9D7C007D007A217B00124065D6
:10CA40007404122B5FEEA2E350031248BD901973D9
:10CA5000E0600464017008EEA2E150031247D3EED7
:10CA6000A2E2500E90070712CF83600612C8A512EB
:10CA7000493402C90274F612259174EC122C3F74E9
:10CA800001122C0B901990E0F97A9B7B0512327FF2
:10CA90007405122E55E4F07407122E55E4F07A0452
:10CAA000F912489F904EE2E493F8C3EA98EB9400A1
:10CAB00050581248C9E97052904EDB12CB6660198B
:10CAC0007A04790312489F8A088B09904EE2E49316
:10CAD000F8904EDB12CB7050087405122E5574017D
:10CAE000F0904ED912CB6660197A02790112489FF4
:10CAF0008A088B09904EE2E493F8904ED912CB70DD
:10CB000050087407122E557401F0901990E0F97CCA
:10CB10009B7D057401122C031232797A9B7B057977
:10CB2000451246E37407122E55E070117405122E5B
:10CB300055E07009851882851983E480088518827C
:10CB40008519837401F090198AE0F8901989E058EA
:10CB5000F8851882851983E05812CFBA79411246B8
:10CB6000E3741402C8FFE493F8740193F9E84922CE
:10CB7000E493FA740193FBE8C39AF8E49BF9C3E5E4
:10CB80000898E509992274F712259174ED122C3F4B
:10CB9000E9FE900597F0AC18AD19901990E0F97A7C
:10CBA0009B7B0512327F7412122E55EE12CBC4AA53
:10CBB00018AB191232797A9B7B0579451246E374DA
:10CBC0001302B3E5F0901990E0F97C9B7D05227487
:10CBD000F4122591EAFEEBFF901992E064FE7003D7
:10CBE000A3E0F470767A167B00123F458A088B0921
:10CBF000EA450960668A828B83740112C28E8A823A
:10CC00008B83A36004740280027401F0EA240AF8A2
:10CC1000E4350912C25112F0F2A312DCF0F0A2E3E3
:10CC2000400912CC5E12CC84123303EE241512B9E3
:10CC300099E5082402FAE43509FB1240F5E50824D9
:10CC40001312CC70E4F0AA08AB09900598E0F91231
:10CC50003F5112CC5E12D52812CC93028FB912CC60
:10CC60006222EE240BF582E43FF58322E5082412CC
:10CC7000F582E412BF64228E828F83A3A3A3A3A3B1
:10CC8000A3A3A3A312D1B822E0F8A3E0F9851882E8
:10CC9000851983E8F0A3E9F02274F212259174FD5E
:10CCA000122C3F8A088B09890A8C0B7401122E55AD
:10CCB000740412CFBA1233C38A0C8B0DAE0CAF0DB5
:10CCC000EE4F700302CD4712CD7C740712DCF6E5FF
:10CCD000082413FAE43509FB8A828B8312CD928AE9
:10CCE000828B8312CD91E508241512CC7012DCF0F2
:10CCF00012DCFDE508240BF8E43509F912CD55E8FE
:10CD0000F0A3E912DE9012333F12DCDE12CD9D74E7
:10CD100001F07403650A60067401650A700712CD9C
:10CD2000667404800412CD66E4F090199212B00982
:10CD300012CC937401650B700312CD5FEEFAEFFB1A
:10CD40001247BBE9F98002791090199274FEF0A3A2
:10CD500004F0028B26EE2418F582E43FF58322EEE0
:10CD600012890EE4F02212CD6E7440F0A322EE126E
:10CD7000CD7322240FF582E43FF58322EE12F41ADC
:10CD80003FF58312CD8722E0F8A3E0F988828983FA
:10CD900022A3E088828983F0A308A9832212CDA16F
:10CDA00022F0EE12CDA7222413F582E43FF5832270
:10CDB00074F4122591EAFEEBFF7A007B049005984B
:10CDC000E0F91240B312CE5790054D7409F01233BA
:10CDD0003F8A088B09AC08AD0912B95812CC8412ED
:10CDE00040EFE96401705A7A0F7B00123F458A08D0
:10CDF0008B09EA4509604A8A828B83740212CE4C01
:10CE0000F988828983A3E0FC88828983A3A3E0FB5D
:10CE1000EC8A82850983A3A312E15688828983A3C1
:10CE2000A3A3E08A82850983A312CE44FAA3E0FB80
:10CE3000794A1246E3AA08AB09900598E0F9123F37
:10CE400051028FB9F0EE241512BF4922F0EE241DD5
:10CE500012BF49F8A3E0229004D712D536901A29C0
:10CE6000E8F0A3E9F09004D912D536901A27E8F03B
:10CE7000A3E9F02274F412259174FD122C3F8A0864
:10CE80008B097401122E55740212CFBA1233C38A61
:10CE90000A8B0BAE0AAF0BEE4F700302CF6212F497
:10CEA00039E412CF97A3A3A3E064017008888289B4
:10CEB00083A37420F0850882850983A3A3A3A3A379
:10CEC000E06401700988828983A3E0D2E6F08508D6
:10CED00082850983A3A3A3A3A3A3E06401700A88A6
:10CEE000828983A3E0D2E7800512B958740112CF7A
:10CEF000A8E064017021850882850983A3A312CF6D
:10CF000083600312CF67850882850983A3A312AFCC
:10CF1000F312CD5612CC93850882850983A3A3A36F
:10CF2000A3A3A3A3E06401700712EFEDF0A3E4F064
:10CF300085088285098312CC841233E1E9600412EA
:10CF4000CF6EF0EE241712CF6A12333F12DCDE12DE
:10CF5000A30812CF7512B9CCFAEFFB1247BBE9F95F
:10CF60008002791002C03CEE241612DD052212B9AF
:10CF700090440422E0F8A3E0F98E828F832212CF3E
:10CF800089F58312D536E849228E828F8312BC64DC
:10CF9000241FF582E4382212CF9B2212CF9F22F069
:10CFA000850882850983A32212CF9BA3A3A3A32272
:10CFB000A2F0E433851882851983F0AA18AB1922F0
:10CFC00074F512259174F3122C3F890AEAFEEBFFE7
:10CFD0007508007509007C0D7D007900AA18AB1951
:10CFE000123F2D12C25212D16F741F58600C7AD3A7
:10CFF0007B00124413790002D0BFE8A2E550087408
:10D000000C122E557401F0E8A2E75008740B122E92
:10D01000557401F0E8A2E6740A5008122E55740106
:10D02000F08008122E55E0640170138E828F83A366
:10D03000A3A3A3A3A3A3E06032EE241380128E82E5
:10D040008F83A3A3A3A3A3A3A3A3E0601EEE241531
:10D05000F582E43FF58312AA296010AC08AD09748B
:10D0600002122E55AA82AB831240F512CC5E12CC6E
:10D0700088740A122E55E06401703B12CC7712338B
:10D08000E1E97039EE240B12BAC7900541E06870EF
:10D0900003A3E0697027E5084509601A12333F8A47
:10D0A000088B09AC08AD097402122E55AA82AB8315
:10D0B0001240EFE96007AA18AB19122E8FA90A7463
:10D0C0000D02B65574F712259174CD122C3FEAFE6D
:10D0D000EBFF8E828F8312D18DA2E0400302D16AD2
:10D0E00012D176E054FE12ED55740D122C0B12D1B4
:10D0F000A0123339E97073742A122E5512D183703D
:10D10000697C0D7D007900AA18AB19123F2D7416A9
:10D11000122E5512CC88742A122E5512D16FA2E508
:10D120005008740B122E557401F0E8A2E7500874F1
:10D130000A122E557401F0E8A2E650047420800211
:10D140007422122E5512B99F7402122E55AA82AB68
:10D15000831240F58E828F83A3A3E0C0E0740C128B
:10D160002E55D0E012CFBA122E89743302B3E512D5
:10D17000E2EDA3E0F8228E828F8312D91AA3A3A333
:10D18000A3A32212B5066404228A828B83E0F812DC
:10D19000D19322A3E0C82406F582E438F583E02287
:10D1A000EA241EF582E43BF583E0F9EA241FF582C8
:10D1B000E43BF58312D1B82212F0EDFB22E9F879B5
:10D1C00000740468600A740A686005740368700279
:10D1D0007901022B4774F61225918A828B8374247D
:10D1E000F0A3A37401F01247B58A088B09AE08AF0B
:10D1F00009EE4F60108E828F8312DE8E12333FEE67
:10D20000241A12E14FEEFAEFFB02C902C082C0837A
:10D2100090053B02AD57C082C08390199102AD5773
:10D22000C082C083E990199102AD75C082C083901D
:10D2300005B47401F0E9A2E350037403F0E9A2E13C
:10D240005004E0D2E2F002C57074F6122591790024
:10D250007C008A088B097808122815F8FF077ED20F
:10D260007CD27CD27CD27CD274D278D27ED270D264
:10D270007C01800A7C0480067C0280027C08900588
:10D28000B4E05C600479028005EC6002790102C9B7
:10D290000274F4122591EAFEEBFF89081248698AAC
:10D2A0000A8B0BA80AA90BE849604188828983A3ED
:10D2B000A3A3A3E06036C3940550317401650860F0
:10D2C0001A88828983A3A3A3A3E06401600D8882E6
:10D2D0008983A3A3A3A3E06402700A8882898312CE
:10D2E000CC84122F4FEEFAEFFB12482D028FB97447
:10D2F000F61225918A828B83E07014A3A3A312CF28
:10D3000083600C8A828B8312CC8112313B80047A39
:10D31000007B0002C902C082C08390054DE0640812
:10D32000700312340502C570C082C0837C00EC75A6
:10D33000F003A4F8ADF0EDF912D3FE7003A3E06B97
:10D340007018904EE7E493C0E074B728F582740536
:10D350003DF583D0E0F079C580620CECC3940340C6
:10D36000CD7C00EC75F003A4F8A9F074B828F58220
:10D370007405129AD164FE7003A3E0F4600F0CEC04
:10D38000C3940340DE7C00EC12D3BF7026EC75F032
:10D3900003A4FCADF074B72CF874053DF9888289BC
:10D3A00083A312E155904EE7E49388828983F07954
:10D3B0000080090CECC3940340CD79C702C5707599
:10D3C000F003A4F8A9F074B728F582740512EEDD15
:10D3D00022C082C0837C00EC75F003A4F8A9F0128F
:10D3E000D3FE7003A3E06B700912D3C66004790109
:10D3F00080090CECC3940340DE790002C57074B858
:10D4000028F582740512EEDD6A2274F212259174F9
:10D41000DD122C3FEAFEEBFF750800901973E06007
:10D42000076401600302D52190053EE06E7003A3FE
:10D43000E06F7010EE4F700302D5157508011234BD
:10D440000B02D52112486F8A0A8B0BEA450B700339
:10D4500002D5158A828B83A3A3A3A3E06401601085
:10D460008A828B83A3A3A3A3E06402600302D51581
:10D47000851882851983E412D52F740B122E55E876
:10D48000F0A3E912CFBA1248D5E9700302D5158589
:10D490000A82850B8312D52812CC937900122F4370
:10D4A000850A82850B8312DA43122E55AC82AD8336
:10D4B0007418122E55AA82AB831240F5850A828514
:10D4C0000B8312BACD7420122E5512CC93742212F3
:10D4D0002E55E4F07C02850A82850B83A3A3A3A3C7
:10D4E000E0F9740D122C0312339F850A82850B8399
:10D4F00012BACD7401122E55E8F0A3E912CFBA1278
:10D5000048CF750801E50A240CF582E4350BF58354
:10D51000129B34800C90054B12B9AFFAEFFB12341A
:10D52000CBA9087423028B2812D5369019922212A7
:10D53000B18712D5362212D593F922C082C08374E6
:10D54000FE122C3F901973E060046401702379018E
:10D55000122F4912D57990053EE8F0A3E912CFBA0F
:10D5600079531246E385188285198312CC841243BD
:10D570002F7402122B5F02C570851882851983EA09
:10D58000F0A3EB12D588F922F08518828519831251
:10D59000D59322E0F8A3E02274F412259174F312DB
:10D5A0002C3F8A088B09ECFEEDFF750A12EA45094B
:10D5B0007005790002D68490053EE065087004A3EA
:10D5C000E06509701D12333F8A0A8B0BAC0AAD0B64
:10D5D000EEFAEFFB1240EFE97005750A0180037562
:10D5E0000A00851882851983E4F004122E5512DE94
:10D5F0007C12CFBA1248E1E9602A7403122E55AAB0
:10D6000082AB831248FFE964017019750A01740343
:10D61000122E55AC82AD83EEFAEFFB1240EFE960BB
:10D6200003750A00901973E06004640170177412A6
:10D63000650A7011EEFCEFFDAA08AB0912488DE9EE
:10D640006003750A00EEFCEFFDAA08AB091234E98D
:10D65000E9F8740A687005750A01801D74A0687085
:10D6600012EEFCEFFDAA08AB091234FBAA08AB09C5
:10D6700012350D7401650A70097900AA08AB091208
:10D680003417A90A740D028FB674F6122591EAFEBA
:10D69000EBFF8908901973E060046401701E123476
:10D6A00005E508F5097809122BA1790DEEFCEFFDCF
:10D6B0007AFC7BFF1234237401122B5F02C90274BF
:10D6C000F7122591EAFEEBFF8E828F83A3A3A3A31B
:10D6D000A3A3A3A3E0601612D725129BD612CC8475
:10D6E000123411E96401700512CC5E80298E828F9C
:10D6F00083A3A3A3A3A3A3A3E0602512B99612CC8E
:10D7000077123411E9640170178E828F83A3A3A36B
:10D71000A3A3A3A3A3A312CC841233F9790180029B
:10D72000790002B3E8EE2415F582E43FF583227414
:10D73000F212259174FD122C3F8A088B09ECFEED44
:10D74000FF890B750A017401122E55740412CFBAA9
:10D750001233C3EA4B60427411122E55E06014126A
:10D76000DDF5E412E2F58A828B83E0D2E7F012D78E
:10D770009CE4F012D7A612CD81740312DA4DEE8824
:10D78000828983A3A3F0EF88828983A3A312B18641
:10D7900012DD121247BBE9F50A028B24EA2414F5C4
:10D7A00082E43BF5832212F4193B2274F012259196
:10D7B000EAFEEBFF890A750B01EE12DB0F3F12D96F
:10D7C00013F50C88828983A3A3E0FA8882898312E7
:10D7D000D90212B9616404600A7AD37B001244133F
:10D7E00002D8F2E50C122A26020002FDD7030BAA8A
:10D7F000D8030C90D80D68D80EAAD8A7D890197362
:10D80000E060076401600302D8AA900538E0A2E155
:10D81000400302D8AA7900AB09122FD9EA4B603D28
:10D820008A828B83A3A3A3A3A3A3E05418602E1220
:10D83000CC5E1229A18A828B83A3A31229A179002D
:10D840008E828F83A3A3A3A3A3A3A3A3A312D8F61B
:10D8500012CC84122FF17404122B5F802E7901AA4E
:10D8600008AB09122EA18042901973E06004640194
:10D870007038900538E0A2E15030AB091233F3AABA
:10D8800008AB091233F9E964C5701F750B00801AE3
:10D89000901973E0600464017010900538E0A2E113
:10D8A00050081243538003750A00EE2409F50EE474
:10D8B0003FF50FAC08AD09A90C850E82F58312CC9B
:10D8C00084122EB9850E82850F8312CC841233E127
:10D8D000E9601F12BF42C39402401712CC5E12E2ED
:10D8E000187003A3E069600AE50BA2E05004A90ADE
:10D8F00080027900803112D8FA2212B9A78A828B6D
:10D900008322A3A3A3E0F8E4C8F9EA28F508E439E0
:10D91000F50922F58312D91AE02212D593F98882EB
:10D920008983A322122B5F7F0802285B74EE1225E5
:10D930009174F5122C3F8A0A8B0B890D8C0E8D0F7A
:10D940007E01EE122E55740AF0741D122E55E0F56C
:10D950000CE9700FE50CC333240AC0E0EE122E551B
:10D96000D0E0F0AA18AB191233C38A088B09EA4534
:10D9700009700302DA2512C4C0350912DBC3740929
:10D98000F0A3E50DC43354E0450C12DBDCAC0EAD66
:10D990000FEEFAEFFB1240F5EE2408FE50010FE502
:10D9A0000D702F7C00741E122E5512DA34801D1259
:10D9B000DA2CEA28F8EB39F98882898312DBD788D8
:10D9C00082898312A1A4F0A30EAF830CECC3950C43
:10D9D00040DDE508241712CC707401F012333FE5E6
:10D9E00008241AF582E4350912DA41122C0BAA0A2E
:10D9F000AB0B1248F9E96019E508241612CC7074D3
:10DA000001F07403122BFBE508241812CC7012CC21
:10DA100093850882850983A3A312DA4BAA08AB0970
:10DA20001247BBE9FEEEF9740B02C294EC25E0F854
:10DA3000E433F92212DA382212D593F9E8FAE9FB35
:10DA400022F583EAF0A3EBF0740322E50AF0A3E5E4
:10DA50000BF02274F012259174F8122C3F8A088B77
:10DA60000912DB0E350912DC57F8741F58F50A88C5
:10DA70000BA3AE82AF83EEFCEFFDAA18AB191240E8
:10DA8000F5EE2408FE50010FAC18AD197A5F7B0546
:10DA90001240EFE9607374E0550B7066AA0AEA2A37
:10DAA000FA7B00123FE18A0C8B0DEA450D605A7C2F
:10DAB00000801D8E828F8312C4EB12DA2CE50C28B5
:10DAC000F582E50D3912E153EE2402FE50010F0CF0
:10DAD000ECC3950A40DD780C122B9D780A122BA11D
:10DAE0007403122C0B7900E508240B12CC7012CCB5
:10DAF0008412343B7403122B5FAA0CAB0D123FE768
:10DB000080077AD37B00124413740802D924EA24D4
:10DB10001DF582E42274F01225918A0A8B0B890D7F
:10DB20008C088D0990189D12CF8360757410122E89
:10DB300055E0F50C12DA2DE8240EFAE439FB123F19
:10DB4000458A0E8B0FAE0EAF0FEE4F60548E828F54
:10DB50008374D4F012DBB2A3A3E50DF0AC08AD09D9
:10DB6000EE2405FAE43FFB1240F512DBA4E50CF0CD
:10DB70007411122E5512E2DE7808122B99AC0CECBF
:10DB80002CFCE433FDEE240EFAE43FFB123F21743B
:10DB900003122B5FEEFAEFFB90189D12E2E9124997
:10DBA0003402D927EE12DBA922240DF582E43FF5D9
:10DBB0008322A3A3E50AF0A3E50B12DBBE2212BF6A
:10DBC00088A322F58312DBD2FF8E828F8322888284
:10DBD0008983E0FEA3E022E08E828F83F0A3AE82F1
:10DBE000AF832274F612259174F8122C3F89081223
:10DBF000DB0E3B12DC57F9741F59F88909A3AE827A
:10DC0000AF837401687042EEFCEFFDAA18AB1912E5
:10DC100040F5EE2408FE50010FAC18AD197A5F7B79
:10DC2000051240EFE9602974E05509701C8E828F5F
:10DC300083A3E0FA8E828F83A312C4ED8E828F833A
:10DC4000E0F912346BA90880097AD37B00124413DF
:10DC50007900740802C8FFF583E02401FEA3E034D4
:10DC600000FF8E828F83E02274F012259174FD12E2
:10DC70002C3F8A0A8B0B8C088D09890D750C017459
:10DC800001122E55740312CFBA1233C38A0E8B0FB2
:10DC9000AE0EAF0FEE4F603F12CD7C740BF0A3E5DC
:10DCA0000D12DCF67413122E5512DCF012DE9012F7
:10DCB000333F12DCDE12DCFDEE2418F582E43F1265
:10DCC000DD108E828F83A3A3E50AF0A3E50B12DE9D
:10DCD000831247BBE9F50CA90C740302D92412DCAA
:10DCE000E6EAF0A3EB22EE241AF582E43FF5832264
:10DCF000E08882898322F0A3A882A98322F0EE24FF
:10DD00001612DD0522F582E43FF5837401F0223915
:10DD1000F58312DE7CF02274EF122591EAFEEBFF10
:10DD2000751000EE12DB0F3F12DF63F508A3E0F57C
:10DD30000912D72512CC84124869EA4B700302DD20
:10DD4000F08A828B83A3A3A3A3E0700302DDF0C358
:10DD50009403400302DDF0E508C3940F5004E50985
:10DD600060057510018079EA2412F582E43BF583A1
:10DD7000E4F0E5087022904DD67808122D2E12DDC1
:10DD8000F57808122DE6904DD67808122D2E12E760
:10DD90004C7808122DE68039750900740278081253
:10DDA0002D5474D62508F582744D12CC73780C125C
:10DDB0002D2E9081527808122DC8780C79081224E3
:10DDC0002C12DDF5780C122DE612E74C780C122D92
:10DDD000E6EA241BF582E43BF5837401F012439BD1
:10DDE000901961E0FCA91012CC5E12CC841234535D
:10DDF0007F0902285BEA2417F582E43BF58322744D
:10DE0000F012259174F5122C3F8A088B09890B8C2E
:10DE10000C750A017401122E55740312CFBA123315
:10DE2000C38A0E8B0FAE0EAF0FEE4F604812CD7C43
:10DE3000740C12DA4DA3E50C12DE9012333FEE247F
:10DE40001AF582E43F12DA41122C0BAA08AB091230
:10DE500048F9E9600E12CF677403122BFB12CD55FF
:10DE600012CC938E828F83A3A312DE7C12DE8312E8
:10DE700047BBE9F50AA90A740B02D924E508F0A307
:10DE8000E5092212CDA17401F0EEFAEFFB22740134
:10DE9000F0EE241712DD052274F012259112DB0E2C
:10DEA0003B12DF63F8A3E0FEE8600302DF60740169
:10DEB0006E600874026E600302DF60EE901961F01C
:10DEC0007508617509197808122B9D750801750987
:10DED000007808122B9D7C007D007A517B00124057
:10DEE000657404122B5F74026E7075901A49E070AD
:10DEF0000A904DD67808122D2E8028F508740278E5
:10DF000008122D5474D62508F582744D12CC7378FE
:10DF100008122D2E908152780C122DC87808790C99
:10DF200012242C908172780C122DC87808790C126A
:10DF30002522908112780C122DC87808790C1224B1
:10DF40002C9019637808122DE69019631229997A9A
:10DF5000007B40900598E0F91240AD7404122B5FED
:10DF600002D927F583E02401F8A3E03400F9888280
:10DF70008983E02274F612259174DA122C3FEAFEAE
:10DF8000EBFF12CF7E60508E828F8312CC84AC1850
:10DF9000AD1912D1A01233277409122E5512E218AE
:10DFA0007003A3E069603012E2E51229A17508FE52
:10DFB0007509FF7808122B9D741C122E55E0F97418
:10DFC0000D122E5512B99F740F122E5512CC8412B9
:10DFD0002FF17404122B5F742602C8FF74F7122508
:10DFE00091E9FD7A007B00901973E0600464017090
:10DFF000407C00800B12E088E02AFAA3E03BFB0C97
:10E00000904EE212EECB5029EC75F01CA4F8AEF065
:10E01000EEF912EEEDF460E7742A28F582740839FF
:10E0200012CF8160DAED60CD12E088E4F0A3F080D9
:10E03000CE7C00800B12E075E02AFAA3E03BFB0CDB
:10E0400012EEC8502DEC75F017A4F8AEF0EEF912F0
:10E05000F06C7003A3E0F460E6747B28F582740A28
:10E060003912CF8160D9ED60CC12E075E4F0A3F0F5
:10E0700080CD02B3E8EC75F017A4F8EEF9747B28B4
:10E08000F582740A39F58322EC75F01CA4F8EEF9D8
:10E09000742A28F582740839F5832274EC122591CC
:10E0A000890CEAFEEBFF900597E0C3950C503B12FC
:10E0B00033939005C912E0F1900531E0F508E4F5DD
:10E0C00009F50AF50B90815A7810122DC878087955
:10E0D0001012242C7808122B957A007B0290059858
:10E0E000E0F91240A77404122B5F0287218A828B09
:10E0F00083EEF0A3EFF02274F6122591EAFEEBFF17
:10E100009005B5801388828983E06E7003A3E06F69
:10E11000603A88828983A3A312CF8370E87A047B54
:10E1200000123FE18A088B09A808A909E849601C88
:10E130008882898312E0F19005B512CC84888289A7
:10E1400083A3A312E1559005B512CC9302C902F541
:10E1500082E43FF583EAF0A3EBF02274F4122591F8
:10E160007E009005B580070E8A828B83A3A312B22E
:10E17000F370F4EE25E0FAE433FB123FE18A088BFA
:10E1800009EA4509607F7C009005B580228A828B70
:10E1900083E0F50AA3E0F50B12DA2CE50828F582F6
:10E1A000E50939F58312DA4B0C8A828B83A3A3121B
:10E1B000B2F370D990059312E2187003A3E0697866
:10E1C00008701C122B9DEEF50A780A122BA17C5FB9
:10E1D0007D05790090059312CC8412343B801A128D
:10E1E0002B9DEEF50A780A122BA17C5F7D05790044
:10E1F00090059312CC8412342F7403122B5FAA085B
:10E20000AB09123FE71247A3028FB98E828F83A317
:10E21000A3A3A3A3A3A3A3A312D53690053EE068AE
:10E2200022C082C08380128A828B83A3A312BACDBC
:10E230009005B512CC93123FE79005B512B2F3707A
:10E24000E602C57074F512259190054B12BC5B90E7
:10E2500005C912A02312CC937AC97B0579501246C6
:10E26000E39005C912E2DE801312EB957004A3E07F
:10E270006509600612EBA21234D7050A904EDFE45E
:10E2800093F8E50AC3985020E50A75F017A4F8A999
:10E29000F012EA436E7003A3E06F70CD747028F53E
:10E2A00082740A12DD0F80D29005C912BC5B9018EF
:10E2B0009F12CF8360257A067B00123F45EA4B60B0
:10E2C0001A8A828B8374D5F0A3A3E412E690041219
:10E2D000E2F590189F12E2E912493402B65812870B
:10E2E00030750A00228E828F8312E2ED2212D593BE
:10E2F000F58388822212B193EEF0A3EFF022C08260
:10E30000C08390053EE064FE7003A3E0F4600E90CD
:10E310000538E0A2E150061234EF12349502C570C0
:10E3200074F012259190058CE06053F50CE4F50D26
:10E33000F50EF50F9081127808122DC8780C790827
:10E3400012242C123F3F8A088B09A808A909904E75
:10E35000D3E49358F508A3E49359F509E4F50AF5D5
:10E360000B780C7908122CBC780C122B957A007B58
:10E3700001900598E0F91240AD7404122B5F02D9A8
:10E380002774EE1225917E007F008E0A8E0B1248B4
:10E3900009750D00803BAA0D7B0012480F8A088B7F
:10E3A00009A808A909E849602688828983A3A3A34C
:10E3B000A3E060046404701788828983A3A3A3A3E5
:10E3C000A3A3A3A3A3A3E0F9123501E960010F05FC
:10E3D0000D904EE2E493F8E50DC39840B91234C5B0
:10E3E0008A0E8B0F750C008023AA0C7B001234D18F
:10E3F0008A088B09A808A909E849600EE8240F12C9
:10E400009ACEF9123501E960010E050CC3E50C95B1
:10E410000EE4950F40D3EF2EFE700302E5178E0831
:10E4200075090074027808122D54AA08AB09123F2E
:10E43000E18A0A8B0BEA450B700302E515750C00A7
:10E440008E0875090074027808122D54AC08AD09C5
:10E4500079FF123F2D750D00805EAA0D7B001248DA
:10E460000F8A088B09EA4509604C8A828B83A3A333
:10E47000A3A3E060046404703D8A828B83A3A3A3FA
:10E48000A3A3A3A3A3A3A3E0F9123501E9F960268E
:10E49000050C780A122B9DEEFD850882850983A361
:10E4A000A3A3A3A3A3A3A3A312E5A812CC8412340D
:10E4B0009B7402122B5F050D904EE2E493F8E50D7C
:10E4C000C3985006E50CC39F4090750C00C3E50C43
:10E4D000950EE4950F5040AA0C7B001234D18A08A7
:10E4E0008B09EA4509602AEA240F12AFEBF91235CD
:10E4F00001E9F9601C780A122B9DEEFDE508240E57
:10E5000012CC7012E5A812CC8412349B7402122B28
:10E510005F050C80B87E007F62900536E0600BF9E5
:10E520001231D7E9F87454C398FF75F003EF84F5FE
:10E530000D94204003750D1F850A08850B09750C85
:10E5400000EF6005750C207F00E50DC39E5005852A
:10E550000D0F80088E0FE50CD2E6F50CAC08AD0966
:10E56000AA0CA90F1234A1E9F50EE50CA2E6401D94
:10E57000150F7800800BE5082404F5085002050902
:10E5800008E8C3950F40EFE50FCEC39EFEE9700685
:10E59000E50CA2E650A8E50A450B6007AA0AAB0BFA
:10E5A000123FE7A90E02C297E0FC85088285098325
:10E5B0002274F2122591EAFEEBFF89088C098D0A7C
:10E5C0007C007D00740E122E5512CC84750B0080D9
:10E5D0000DEAFCEBFDEA2404FA50010B050BE50BF8
:10E5E000C3950A400302E6808A828B83E0F47003BD
:10E5F000A3E0F4607AEC4D600C8C828D83C3E09EC6
:10E60000A3E09F50CC8A828B8312E683EE98EF9929
:10E6100050BFEAF8EBF988828983E0F47003A3E045
:10E62000F46010E82404F8500109050BE50BC395CC
:10E630000A40E3E8FCE9FDE824FCF8E934FFF98846
:10E6400082898312E6888C828D83E50CF0A3E50D28
:10E6500012E69F8C828D83A3A312E695A3A3A3E069
:10E660008C828D83A3A3A3F0C3EA98EB9940C412D4
:10E67000E0ED8A828B83A3A3E50912E690E508F01A
:10E68000028B2B12D536C322E0F50CA3E0F50D2248
:10E6900012B187A32212E69922F08882898322127E
:10E6A000E6A5A3E02212E699A32274F21225917442
:10E6B000FD122C3F89088A09ECFEEDFF750A0175F1
:10E6C000F003E9A42402C0E07401122E55D0E01238
:10E6D000CFBA1233C3EA4B607012D7A612CD817441
:10E6E00008F0741F55084509A3F0E82402F850010A
:10E6F00009750A0080338E828F8312DCF012DCF6FB
:10E700008E828F8312CD918E828F83A3A3E05407D4
:10E71000C4FC8E828F83A3A3A3E054074C12CD9335
:10E72000EE2404FE50010F050AE50AC3950840C611
:10E730008A828B83A3A374FCF0A374FFF012E74CCE
:10E740007401F01247BBE9F50A028B24EA2413F5A1
:10E7500082E43BF5832274F11225918A0A8B0B75B2
:10E7600008007AFE7BFF7CFE7DFFE50A12DB0F3599
:10E770000B12D913F509741F5509F50CE82402F89A
:10E78000500109E509A2E74065E50A2417F582E48E
:10E7900012F54CFE75F003E50CA424026E704FE5F3
:10E7A0000C600612DBCEFBEEFA750D00801DE05406
:10E7B00007F50EA3A882A983EEFC90053EE06E70DB
:10E7C00003A3E06F7003850E08050DE50DC3950CDE
:10E7D000502612DBCEFCE4CCFDEE2CE43DFFE82419
:10E7E00002F850010988828983E0548860C07AD396
:10E7F0007B0012441302E939E508700BA9091234B1
:10E80000ADE9700302E93912E93E12CC8412486F77
:10E810008A0C8B0DAE0CAF0DEE4F605A8E828F833B
:10E82000A3A3A3A3A3A3A3E4F0904EF593F88E8231
:10E830008F83A3A3A3A3A3A3A3A3E0C398402412FD
:10E84000E9485001097A027B00122334E88E828F56
:10E8500083A3A3A3A3A3A3A3A3F0E508C394075092
:10E860000205088E828F83A3A3A3A3A3A3A3A3A3BC
:10E87000E508F002E9397CFF7DFF12E93E12CC8405
:10E880001234B98A0C8B0DAE0CAF0DEE4F704F12D7
:10E8900034BF8A0C8B0DAE0CAF0DEE4F700302E946
:10E8A000397C177D007900123F2D12E93E12CF749A
:10E8B00012877E8E828F83A3A3A3A3A3A3A3A312F5
:10E8C000B9CC12B51774AA12E9675001097A027B14
:10E8D0000012233412DBA4E812E9537401F0904EC5
:10E8E000F5E49312BF51C398401912E94850010949
:10E8F0007A027B0012233412EFF3E508C394075029
:10E9000002050812EFDFE50812E958E4F012A01B37
:10E910001248FFE97023850A82850B83A3A3A3A372
:10E92000A3A3A3A3E06012E50A2415F582E4350B46
:10E9300012B9AD12A01C1240F57F0702285BE50A50
:10E9400012F41A350BF58322904EF5E493790024E6
:10E9500001F822F012EFE322F012E95D22EE240C1E
:10E96000F582E43FF58322F0904EF5E4937900249C
:10E9700001F82274F7122591E9FE74FE6A7003749F
:10E98000FF6B603474605E6460602DEEA2E5401C35
:10E99000A2E690053E500DC3E09AA3E09B50197982
:10E9A0000002B3E8C3E09AA3E09B40F390053E1257
:10E9B000E683EC98ED9940E7790180E574F712253C
:10E9C000917E008008EE12EB9B1234D70E12E9FD07
:10E9D00040F37E00EE75F003A4F8A9F074B728F8B0
:10E9E000740539F988828983A374FEF0A30412E6C2
:10E9F00095E4F00EEEC3940340DA02B3E8904EDFE4
:10EA0000E493F8EEC3982274F71225917E008001FA
:10EA10000E12E9FD5026EE12EA536A7003A3E06B72
:10EA200070EE12EA436C7003A3E06D600A74FF6C31
:10EA3000700374FF6D70D912EBA280047A007B0022
:10EA400002B3E812EA4722747028F582740A39F595
:10EA500083E02275F017A4F8A9F012EA5E2212EE04
:10EA6000BDE02274F61225917CFF7DFF7AFE7BFFCC
:10EA70001234B9EA4B703C7508008032E50875F035
:10EA800017A4F8A9F0747528F582740A129AD16057
:10EA90000512EEE27016746628FE740A39FF8E8243
:10EAA0008F8312CC84122FF7EEFAEFFB050812EADF
:10EAB000B640C902C902904EDFE493F8E508C39856
:10EAC00022C082C0837A007B007C00801012F06438
:10EAD0007003A3E0F460050AEA70010B0C12EEC8A3
:10EAE00040EB02C57074F41225918A088B09ECFE84
:10EAF000EDFF800B1234D7EEFCEFFDAA08AB091234
:10EB000034B9EA4B70EE028FB974F71225917D008B
:10EB10007C0080020D0C12EEC8501C12F0647003D1
:10EB2000A3E0F460F0EDF8EA684B70E8EC75F017DC
:10EB3000A4F812EBA280047A007B0002B3E874F719
:10EB4000122591EAFEEBFFEE4F60187C177D0079ED
:10EB500000123F2D8E828F8374FEF0A30412EFFA11
:10EB6000F0A3F002B3E874F61225918A088B097EAF
:10EB700000801AEE75F017A4F8A9F012EB95700456
:10EB8000A3E06509600612EBA21234D70E12E9FD6C
:10EB900040E102C90212EA4765082275F017A4F89D
:10EBA000A9F0746628FA740A39FB2274F4122591CC
:10EBB0008A088B09ECFEEDFF901973E06004640194
:10EBC000702090054BE06E7003A3E06F7014124844
:10EBD0006F8A0A8B0BA80AA90BE8496005E824088C
:10EBE000801AEEFCEFFDAA08AB091234B98A088B33
:10EBF00009A808A909E8496009E8240DFAE439FBE5
:10EC000080047A007B00028FB974F41225918A087F
:10EC10008B09ECFEEDFF750A00750B00802FE50BEC
:10EC200012F0541248FFE96022E50B12EA5365081E
:10EC30007004A3E065097003750A0AEEFCEFFD128B
:10EC4000F05B1240EFE96003430AA0050B904EDF32
:10EC5000E493F8E50BC3985004E50A60C1A90A02E1
:10EC60008FB974F61225917E00805AEEFA7B00125D
:10EC7000480F8A088B09A808A909E84960468882D4
:10EC80008983A3A3A3A3E06401603988828983A355
:10EC9000A3A3A3E06402602CE82407129ACEFA74BE
:10ECA000012AF090058DE0C39A501988828983A3C8
:10ECB000A3A3A3A3A3A3A3A3A3E412ED4AA312EDCA
:10ECC00055122FF70E904EE212EA00409E7E008011
:10ECD00059EE75F017A4F8AAF0EAF912F06C700377
:10ECE000A3E0F46044746628F8740A39F9E8240C47
:10ECF000129ACEF8740128F090058DE0C39850293F
:10ED0000EE75F017A4F8EAF9746628F8740A39F970
:10ED1000E812ED4439F583E4F0E8240EF582E43995
:10ED2000F583E412ED55122FF70E12E9FD40A27A99
:10ED300000EA12D3BF600214F00AEAC3940340F160
:10ED400002C902EE240FF582E42212E6A5A3A3A3D2
:10ED5000A3A3A3A32212E69912D1B82274F112251B
:10ED6000918A0A8B0BECFEEDFF750E007A007B0199
:10ED70007508FE7509FF740F122E5512E688801172
:10ED8000123F3FE50EF5F0EA84E5F0FA750E007BE0
:10ED9000007C00800712EEBD12872C0C12EEC850CA
:10EDA0005CEC75F017A4F8ADF0EDF912F06C70039F
:10EDB000A3E0F460E612EA5A650A7004A3E0650B6A
:10EDC00060D912F04F7003A3E06F60CF12EA5A656A
:10EDD0000C7004A3E0650D60C212EEE260BDC39446
:10EDE0000850B8E0640760ADEB050E70AEE50EC3E9
:10EDF0009A40A8746628F582740A02EE8790197307
:10EE0000E060076401600302EE8F7C00800712EE71
:10EE1000FD12872C0C904EE212EECB5072EC75F086
:10EE20001CA4F8ADF0EDF912EEF864FE7003A3E057
:10EE3000F460E112EEF8650A7004A3E0650B60D49B
:10EE400012EEF86E7003A3E06F60C912EEF8650C65
:10EE50007004A3E0650D60BC12EED260B7C39408E5
:10EE600050B212EEED640160ABE0640260A612EEF7
:10EE7000D264076099EB050E709AE50EC39A409430
:10EE8000741A28F58274083DF58312CC84802BE532
:10EE90000E6011EA700E7401650E600302ED807A57
:10EEA0000102ED8C74FE6508700474FF650960064C
:10EEB000AA08AB0980047AFE7BFF02E93974662850
:10EEC000F582740A39F58322904EDFE493F8ECC39F
:10EED0009822742328F582740812EEDD2239F58316
:10EEE000E022747428F582740A12EEDD22741E2862
:10EEF000F582740812EEDD2212EEFDE022741A286B
:10EF0000F582740839F5832274F51225918A088BED
:10EF100009ECFEEDFF750A008002050A904EDFE461
:10EF200093F8E50AC3985022EEFCEFFDE50A12F0D3
:10EF3000541240EFE960E3E50A75F017A4F8A9F070
:10EF4000746628F582740A12DD0F02B658E9F87962
:10EF500007C3940D400479018019E8C39407400465
:10EF60007903800FE8C39403400479058005E870B5
:10EF7000027900022B4774F01225918A088B098CC4
:10EF80000A8D0B890C1234BF8A0E8B0FAE0EAF0F99
:10EF9000EE4F60487C177D007900123F2D8E828FE6
:10EFA0008312DE7C12EFFA12DA4BE50C600712B521
:10EFB00016E50C800312EFEDF0900592E06401700D
:10EFC0000612EFDFE4800512EFDF740712E96750E5
:10EFD00001097A027B0012233412EFF302D92712BF
:10EFE000EFE322EE240EF582E43FF5832212CD6E8C
:10EFF000740122EE12DBA9E8F02212A99CA322746C
:10F00000F7122591EAFEEBFF750800803AE50875D6
:10F01000F017A4F8A9F012F04F7003A3E06F60148A
:10F0200074FF6E700374FF6F701B12F06C7003A39B
:10F03000E0F4601112F05B1248FFE97008E5081275
:10F04000EB9B1234D7050812EAB640C102B3E812AE
:10F05000EA5E6E2275F017A4F8A9F0746828FA74B5
:10F060000A39FB22EC75F017A4F8A9F012EA5E64E5
:10F07000FE22C082C0837AFF7BFF12350D02C5706D
:10F08000C082C0839005CB741FF0A37435F0900547
:10F09000CD7425F0A37435F09005CF742BF0A374D4
:10F0A0003502AD7574F7122591EAF8EBF99004D5A5
:10F0B00012F0EDCA2406F582E43AF583E0702B885D
:10F0C000828983A3A3A3A3A3A3A3A3A31229A1908B
:10F0D00004D512F0F2122E2688828983A3E0F91259
:10F0E0002EAD7402122B5F1247A302B3E8E0FAA31D
:10F0F000E02212F0EDF5838A8222C082C08390055F
:10F100009512F1BEF090059512CF8370057901122A
:10F11000346502C57074F612259174FC122C3FE917
:10F12000FE904EE8E493700874E16E600302F1B95A
:10F13000EA2408F8E43BF98882898312F1BE12F1CF
:10F14000C7700E900595E4F0A3F079011234658044
:10F1500068901975E06062F890059512CC84C3E858
:10F160009AE49B505479001234658A088B09AC08E4
:10F17000AD09ECF8EDF9E875F064A4F8AAF075F0C3
:10F1800064E9A42AF990059512CC8412233CE894F2
:10F190001AE99400402390189712CF83601B9005C2
:10F1A0009512CC887402122E55ECF0A3ED12CFBA52
:10F1B00090189712E2E9124934740402C8FFE0245F
:10F1C00001F0A3E034002212E69912D536E8492274
:10F1D000C082C08374F8122C3F9080D0AC18AD1957
:10F1E0007408122AC3AC18AD191240EFE96401701B
:10F1F00004790080027901740802D573C082C0834B
:10F200009005D17403F0A37448F09005D374FDF019
:10F21000A37447F0901961E0640170329005D574D1
:10F2200043F0A37435F09005D77449F0A37435F01A
:10F230009005D9744FF0A37435F09005DB7455F048
:10F24000A37435F09005DD743DF0A37435F090059E
:10F25000D512CF83600612C8A512493402C5707456
:10F26000F412259174E6122C3F8A088B097404125B
:10F270002E557402F004122C031233C38A0A8B0B2E
:10F28000AE0AAF0BEE4F700302F3E912F43974606B
:10F2900012CD9D12DE8E12333F12DCDE12B9C8127F
:10F2A000DE7C12BFA9701290052AE0C0E012F3EED6
:10F2B000D0E0F090052AE004F012F40A70169019DC
:10F2C0004CE0600D900535E0700A8E828F83E0700F
:10F2D0000312CD5FAC18AD19EEFAEFFB12331B8AA7
:10F2E000088B09EA4509700302F3E27A217B0012D8
:10F2F0003FE17406122E5512E1557406122E551276
:10F30000CF83700302F3DB7C217D00790074061249
:10F310002E55E0FA123F2D7401122C03795012463B
:10F32000DD7401122E5512BACD7406122E5512F04C
:10F33000EDCA2409F582E43AF58312CC9390053E98
:10F3400012BACD7417122E5512CC937406122E5584
:10F3500012BC6012F410F07406122E5512B0D6745E
:10F360000212F45F7406122E5512F0F212CC93744E
:10F3700006122E5512F44412F46AC0E07406122EDE
:10F380005512BC6012F420D0E0F0EE240E12F3F817
:10F39000C0E07406122E5512F429D0E0F074061263
:10F3A0002E5512BC6012BC5112DD10EE240F12BAA1
:10F3B000C7740C122E5512CC938A828B83E0C0E066
:10F3C000740E122E55D0E0F07406122C03123291F6
:10F3D0007406122E5512CC84123FE7AA08AB09120C
:10F3E0003FE7EEFAEFFB123FE7741A028FB6EE2406
:10F3F00014F582E43FF5832212F3FDE022F8E43FA6
:10F40000F9E8FAE9FB8A828B832212BF4664012263
:10F4100012F41A38F583740222EA240BF582E422EE
:10F42000241EF582E438F5832212F42D2212BC64E6
:10F43000240CF582E438F5832212CC6212CD877455
:10F4400004F0A322E012F44E7401F0A3E422F8A326
:10F45000E0C812F45622240DF582E438F583221216
:10F46000DBBE12D53622E8F0A3E912A7ECE0227445
:10F47000F61225917E0080187C047D0079FF8E08AD
:10F480008D0974027808122D5412F6AA123F2D0E1F
:10F49000904EEE12EA0040E002C90274F412259187
:10F4A00074F7122C3F750800802285080A750B003E
:10F4B0007402780A122D547405250AF582740E120E
:10F4C000F54C24FFF0A3E034FFF00508904EEE1257
:10F4D000EAB9506D85080A750B007402780A122D7E
:10F4E0005412F544F47003A3E0F460DE85080A7555
:10F4F0000B007402780A122D547405250AF58274E3
:10F500000E350B12CF8170A27408122E557402F0C2
:10F5100085080A750B00780A122D547403250AFE1B
:10F52000740E350BFF8E828F8312CC8812F5521227
:10F5300047257C047D0079FFEEFAEFFB123F2D801A
:10F540008902B0D17403250AF582740E350BF58358
:10F55000E02212F6C32274EE12259174F7122C3FAA
:10F56000EAFEEBFF750CFF7408122E5512F6B51269
:10F57000471FE9641A700302F628750E00741B1207
:10F580002E557808122DC8800B74FF650C7003850A
:10F590000E0C050E904EEEE493F8E50EC39850481D
:10F5A000850E1075110074027810122D5412F62C6D
:10F5B000F47003A3E0F460D1850E1075110074029D
:10F5C0007810122D5412F62C6E7003A3E06F70C2E7
:10F5D000750F007402780E122D547405250EF582F5
:10F5E000740E350FF5838030E493650E702D74FF33
:10F5F000650C602E850C0E750F007402780E122DAE
:10F60000547403250EF8740E350FF988828983121D
:10F61000E0F188828983A3A312DD127901740902C3
:10F62000C29412F552124725790080F17403251017
:10F63000F582740E3511F583E02274F4122591746D
:10F64000F7122C3FEAFEEBFF7408122E5512F6B5A6
:10F6500012472575080080020508904EEE12EAB99F
:10F66000504585080A750B007402780A122D541251
:10F67000F544F47003A3E0F460DE85080A750B001E
:10F680007402780A122D5412F5446E7003A3E06FD1
:10F6900070C67C047D0079FF8D0974027808122DF4
:10F6A0005412F6AA123F2D02B0D174032508FA7441
:10F6B0000E3509FB22740212A7ECEEF0A3EFF01254
:10F6C000F6C32290054B12B9A7AA18AB192274EE03
:10F6D0001225918A088B09ECFEEDFF750A00EE6594
:10F6E000087003EF6509600C12405F8A0C8B0DEA0D
:10F6F000450D7006750A0102F78AEEFAEFFB12401B
:10F700005F8A0E8B0FAC0EAD0FEC4D6007EEFAEF7B
:10F71000FB124071E4F50EF50F780E122B9DAC0C28
:10F72000AD0DEEFAEFFB1240597402122B5FE96047
:10F7300059AA0CAB0D123FE18A0E8B0FEA450F6000
:10F7400046780E122B9D780C122B9D7C007D00AA12
:10F7500008AB0912406B7404122B5FE9701D780E20
:10F76000122B9D780C122B9D7C007D00EEFAEFFB96
:10F770001240657404122B5FE96003750A01AA0E3A
:10F78000AB0F123FE78003750A10A90A02C2971255
:10F790002395022B47C082C08374FF122C3FAC1804
:10F7A000AD197A01798712411F851882851983E086
:10F7B000C39403400F7402F07C007D00FA79E212DA
:10F7C0004155800CE4F0901A5CE0FA7B0012427B19
:10F7D0007401122B5FD083D082022B4774F0122564
:10F7E0009174F5122C3F851882851983EAF0A3EBFA
:10F7F000F0ECFEEDFF750820E9700302F99C90170C
:10F80000A9E0F47003A3E0F47062EE4F6073740A31
:10F81000122E557403F07402122C031240F5901747
:10F82000A2E0F5087808122BA17403122C0B7401C6
:10F83000122E5512FE039017A2E0F9123123740123
:10F84000122B5FE9F50870247D007C007900EEFA48
:10F85000EFFB1245759081661229997A007B019021
:10F860001810E0F91240A77404122B5F85188285E6
:10F870001983E0FCA3E0FDAA0879E112415502F9E1
:10F88000C5750802740A122E557402F0122E5574B2
:10F89000FFF0A3F012F9D4A3A3A31229A1888289AF
:10F8A00083A3A3A3A3A3A3A3A3A3E0FC7402122C8A
:10F8B0000379011244857402122B5FE9602F7508E9
:10F8C000007808122BA1E4F50AF50B780A122B9D9B
:10F8D0007808122BA17404122BFB880A890B780A72
:10F8E000122B9D12F9CF1229A17901805712F9D458
:10F8F0001229A188828983A3A3A3A3A3A3E0FC74F4
:10F9000002122C0379011244857402122B5FE970F4
:10F910000302F86C7508007808122BA17401122BF1
:10F92000FB880A890B780A122B9D7508017808124A
:10F930002BA1E4F50AF50B780A122B9D12F9CF12D0
:10F9400029A179007CFF7DFF740A122C03124581E6
:10F950007408122B5FE9F508E508600302F86C9063
:10F9600004EBE0F50CA3E0F50DE4F50EF50F780CD3
:10F97000122B957A007B209017A8E0F91240A7740B
:10F9800004122B5F851882851983E0F8A3E0F990B3
:10F9900017A9E8F0A3E9F0802C1239157C0085182E
:10F9A0008285198312FF3E12393FEA4B70EB90813A
:10F9B000661229997A007B01901810E0F91240A78D
:10F9C0007404122B5F740B122B5F7F0802285B12EA
:10F9D000FF4DA3229017A5E0F8A3E0F98882898360
:10F9E000A3A3A3A3A3A3A32274F712259174F712D0
:10F9F0002C3F7408122E557402F0851882851983E5
:10FA0000EAF0A3EBF07D007C00AA18AB191245EDDB
:10FA10007409122B5F02FC5A74F4122591E9FE7AE4
:10FA2000007B409017A8E0F91240B3EE700A7A000C
:10FA300012FF431238D980477A0112FF431238D996
:10FA400074FF6E603AEEC3944140027E40EEF8755A
:10FA5000F0E8A4C8AAF075F003A42AFAE42A8808FA
:10FA6000F5093395E0F50AF50B7808122B957A0025
:10FA70007B409017A8E0F91240A77404122B5F0294
:10FA8000FB7B74F412259174F4122C3F8C088D09C1
:10FA9000E9FF741B122E55E0FE74FE6A700374FFBA
:10FAA0006B70097408122E55E4F0801D851882854C
:10FAB0001983EAF0A3EBF07408122E557402F012C9
:10FAC00033E1E96004EEC2E4FE740A122E55E4F05C
:10FAD000A3F012FF48C0E07409122E55D0E0F07474
:10FAE0001C122E55E0F50A780A122BA1741B122B5A
:10FAF000FB880A890B780A122B9D741B122E551253
:10FB000029A18F0A750B00780A122B9D7808122BF9
:10FB10009DEEF97CA27D177409122C031238B5747E
:10FB200009122B5FE9FA600E741A122E55E0FC7D63
:10FB30000079E0124155740C122B5F803E74F41270
:10FB40002591E9FFEAFE8C0A8D0BEFFA7B0012404B
:10FB50005FEAF508EEC3950850047901801D780A24
:10FB6000122B9D7509007808122B9D7C007D00EFFB
:10FB7000FA7B0012406B7404122B5F7F0402285B37
:10FB800074F6122591E9FFEAFE8C088D09780812B7
:10FB90002B9D8E087509007808122B9D7C007D0036
:10FBA000EFFA7B001240657404122B5F7F0202287B
:10FBB0005B74F5122591E9601714601C1460211420
:10FBC000602614602B14603014603F14604E806611
:10FBD000750813750918802675084F75090E80423F
:10FBE00075083E750905802875084175090580204E
:10FBF000750843750905802A750840750905750A59
:10FC0000007808122B997C01802275084B75090534
:10FC1000750A007808122B997C02801075085F75B0
:10FC20000905750A007808122B997C087D00123F9F
:10FC3000217403122B5F7F0302285B74F712259156
:10FC4000E9FE74016E70097D007C00790012457533
:10FC5000800874F7122591123DB37F0102285B746E
:10FC6000F7122591123DB980F174F212259174FFBB
:10FC7000122C3F890A8A088B09EB5480700302FD1D
:10FC800083800FA3E0F9123DADEEFAEFFB123F4B7C
:10FC9000A90A123F5D8A0C8B0DAE0CAF0DEE4F70B2
:10FCA0000302FD7B8E828F83E024E6603D24496061
:10FCB0007414700302FD5814601624F3700302FDDF
:10FCC0006114700302FD6B1460B924E5600B80B908
:10FCD000EEFAEFFB12414980B0A3E0FA8E828F83E7
:10FCE000A3A3A3E0F9124137809FEE2422F582E41A
:10FCF0003FF5831229A1EE2420F582E43FF583121B
:10FD000029A18E828F83A3A3A3A3E0FCA3E0FD8E91
:10FD1000828F83A3A3A3A312FE01123DCB7404120E
:10FD20002B5F02FC89A3E0640660148E828F83A39C
:10FD3000E06407600A8E828F83A3E064097005790E
:10FD40000002FC868E828F83A3E06007640160035B
:10FD500002FC89792202FC8612FE01123DBF02FCE0
:10FD600089A3E0FA8E828F8302FCE1A3E0F98E8200
:10FD70008F8312FE0112413D02FC89AA08E5096445
:10FD800080806FEB544060107A0012FF431238D924
:10FD9000AA08E5096440805AEB5420601B79219041
:10FDA00017A912FE0312413D9017A974FFF0A3F0AA
:10FDB000AA08E5096420803AEB54107A006036798D
:10FDC00008123A05AC18AD197A01790312411F8562
:10FDD0001882851983E0A2E25005124101800D7C52
:10FDE000F47D017B327A007902123A0BAA08E50908
:10FDF0006410FB80027B007401122B5F7F060228D7
:10FE00005BA3A3E0FAA3E0FB2274F612259174F73A
:10FE1000122C3FEA240CF582E43BF583E0F508A3BD
:10FE2000E0F50978081227C900000200008036FEBC
:10FE3000068053FEF6FE12453F8A828B83E58224BC
:10FE400003FCE43583FDA3AA82AB837901123DC58F
:10FE500002FEF61245458A088B09AE08AF099017D5
:10FE6000A9E0F47003A3E0F4700302FEF674081234
:10FE70002E557402F08E828F83A3E0F8A3E0F985FB
:10FE80001882851983E8F0A3E9F08E828F83A3A3FB
:10FE9000A3A3E0F5087808122BA17401122C0B9093
:10FEA00017A912FF3E1231237401122B5FE970462D
:10FEB0007A007B209017A8E0F91240B39081661277
:10FEC00029997A007B01901810E0F91240A7740478
:10FED000122B5F7D007C0079008E828F8312FE02E0
:10FEE00012457B79009017A912FE03123DB99017B5
:10FEF000A974FFF0A3F0740902FBA974F71225910D
:10FF0000E99017A8F09017A974FFF0A3F09017A339
:10FF100074A8F0A37417F09017A2E4F0FA12FF434C
:10FF20001238D97A007B809017A8E0F912461D7A22
:10FF3000067B809017A8E0F912461D02FC5AE0FAF1
:10FF4000A3E0FB12FF48F92212FF4DE0229017A513
:10FF5000E0F8A3E0F58388822274F41225918908E1
:10FF60008A09ECFEEDFF7A047B00123F45EA4B6004
:10FF70001E8A828B83E508F0A3E509F08A828B83D1
:10FF8000A3A3EEF0A3EFF09017A8E0F9123F5102FF
:10FF9000FB7BF0D083D082022B47C082C08390616C
:10FFA000A5E0D2E2F0900774E0C39412502D9007C0
:10FFB000A2E0906172F09007A3E0906173F0900767
:10FFC000A6E0906174F09007A7E0906175F0790861
:10FFD0007CB67D077A6A7B61123BAF906180E4F06A
:10FFE000E0440980ADC082C0839061A5E0C2E28098
:10FFF000A1022B47FFFFFFFFFFFFFFFFFFFFFFFFF8
:020000040001F9
:10000000C082C083790012CF79C082C0839004D1AE
:1000100012C82DD083D082C3E09CA3E09D500DEA8E
:10002000240B12804F12802F60027901029E29EA70
:1000300075F00BA4FAA8F075F00BEBA428FB900464
:10004000D3E02AF8A3E03B8882F583E0540F22F541
:1000500082E43B12B9622274F7122591890812B02A
:100060007B128395ACF075F00BE9A42CF99004D3C6
:10007000E028F8A3E039F9E8FEE9FF7401650860BB
:10008000067402650870228A828B8312854B740283
:1000900065087021EA2403FA50010B1248FFE97049
:1000A000148E828F83E4F0800CEA2403FCE43B127C
:1000B00085421249058E828F83E0D2E7F0124365B4
:1000C00002AC3174F412259112861C79008E828F55
:1000D00083E06078890A890B8063E50A75F00BA4D8
:1000E000FAA8F075F00BE50B12803B7048E50A7535
:1000F000F00BA4F8AAF075F00BE50B12855F8E8269
:100100008F83E085088285098312A5091284C0EED9
:100110002403FCE43F1281FA12490512AE7FE50A7E
:10012000F0A3E50B129B46D2E7F0124365790190EC
:1001300004D1129419050AE50A7002050B9004D146
:1001400012C065C3E50A9AE50B9B408E029B507472
:10015000F5122591EAFEEBFF750A01740B122E557C
:1001600012CC8AEC4D6015EC12BD2F3D12862A7917
:1001700001124923E508450960758023E508450912
:10018000604412BD2D350912862A1281FB1248FFE8
:10019000E96401701BEEFAEFFB12491DE9F50A85CF
:1001A00008828509831284B87902AA08AB098011F4
:1001B0001285431248FFE9640170347903EEFAEFC7
:1001C000FB12492380298E828F83A3E064FE700393
:1001D000A3E0F4700B1285431248FFE96401700C30
:1001E000EEFAEFFB12491DE9F50A8003750A0002D9
:1001F0008CA9E50A2403FCE4350BFDE5082403FA89
:10020000E43509FB2274F71225919004D112AFAFA7
:10021000EA4B602FEA75F00BA4FAA8F075F00BEB2F
:10022000A428FBEAFEEBFF123FE19004D312AFAF2C
:100230009004D312ADC46012EEFCEFFD7900123FC2
:100240002D80079004D3E4F0A3F002AC31C082C04B
:1002500083EC4D60051240F580097C087D00790033
:10026000123F2D029E29C082C0837900EA4B60169E
:100270007800E8FCEA2C12B087600479017808085D
:10028000E8C3940840EC029E2974F712259174F398
:10029000122C3FECFEEDFF851882851983E4F004F3
:1002A000122E55EAF0A3EB12C1251248E174031295
:1002B0002E55AC82AD83EEFAEFFB124905EEFAEF54
:1002C000FB1248FF02AC2C74F712259174F3122C28
:1002D0003FECFEEDFF851882851983E4F0EAFCEB24
:1002E000FD7403122E55AA82AB83124905AA18ABDE
:1002F000191248DB7401122E5512A51A8E828F83B3
:1003000012AF6B74FE68700374FF6960047901803A
:1003100002790002AC2C74F7122591EAFEEBFF1271
:100320004911E9F508740165087011128380F4FA27
:1003300088828983E05A4480F0124365A90802ACA0
:100340003174F7122591EAFEEBFF7508008E828F5B
:1003500083E0602A124911E9F50874016508701EEE
:10036000128380FA88828983E05A70128E828F838A
:10037000E04480FA88828983E04AF012436580BCB9
:1003800012ACF3F8128395128737F8A3E039F98E8F
:10039000828F83E022A3E0F9E875F00BA4F82274C1
:1003A000F41225918A088B097C007D00EA1281FDF8
:1003B000124905E5081284DA7900850882850983E7
:1003C000A3E064FE7003A3E0F460787E007F008009
:1003D00065EEFAEFFB12802F6057EEFAEFFBEA753D
:1003E000F00BA4FAA8F075F00BEBA428FB9004D353
:1003F000E02AF50AA3E03BF50B8508828509831204
:10040000C064850A82850B83A3E06A7003A3E06B56
:10041000701FE50A2403FAE4350BFB1248FFE96478
:100420000170061281F21249051284CF790112C9B6
:10043000940EEE70010F9004D112C065C3EE9AEFD6
:100440009B408E029B5074F31225918A088B098A77
:10045000828B831284B8EA1284DA750C00EA128166
:10046000FD1248FFE9640170477E007F00803C1266
:100470008729FAA3E0398A82F583E0540F602712B6
:100480008729F50AA3E039F50B1281F21240EFE952
:1004900064017012850A82850B831284C01284CF96
:1004A000750C0112C9940EEE70010F12874640BF01
:1004B000A90C7F0502285BA3A374FEF0A304F0221D
:1004C000A312AC1D850882850983A312A22222E50E
:1004D000081284E4EEF0A3EFF0221284E474FEF03C
:1004E000A304F022240BF582E43509F5832274F588
:1004F000122591EAFEEBFF8E828F831284B87C0076
:100500007D00128543124905EEFAEFFB124911E90D
:10051000F50A7401650A702712AC16128553850816
:1005200082F58312854B1281FB1248FFE96401704A
:100530000EE5082403FCE435091285421249050240
:100540008CA9FDEE2403FAE43FFB22A312C0731230
:10055000A22222E875F00BA4F8AAF075F00BE912BC
:10056000873DF508A3E039F5092274F2122591744C
:10057000E6122C3F12861C750A01750800750900E9
:10058000750C00750D00851882851983E4F0EE2442
:1005900003FCE43FFD7403122E55AA82AB8312497B
:1005A00005AA18AB191248DBE96401701F740B121D
:1005B0002E5512862C7401122E5512C06D7003A395
:1005C000E069604AA818A91988088909740D122ED3
:1005D0005512A508A312A51A740E122E5512AF6B50
:1005E000740D122C031248E1E964017009740D12B4
:1005F0002BFB880C890D780C122B9DAC08AD09EEF5
:10060000FAEFFB1249177402122B5FE9F50AEEFAB2
:10061000EFFB1248E7A90A741A02AE91EAFEEBFF5B
:1006200012AE8374FEF0A304F022F58312C053F9D6
:1006300012AE8312A22222C082C083780079008089
:100640000508E87001099004D112982EE99B502901
:10065000E8FAE9FBEA75F00BA4FAACF075F00BEBE5
:10066000A42CFB9004D3E02AFCA3E03B8C82F5830E
:10067000E0540F70CC790080027901029E2974F653
:100680001225917E007F008039EEF8EFF912855334
:100690007808122B9D75080B7509007808122B9DA0
:1006A000EEFCEFFDEC75F00BA4FC75F00BEDA42A4D
:1006B000FD7A237B0012406B7404122B5F0EEE70E8
:1006C000010F12874640C2028BC174F61225917E3B
:1006D000007F00804C128729F8A3E039F9888289CD
:1006E00083E0A2E75036C2E7F08582088583097867
:1006F00008122B9D75080B7509007808122B9DEECA
:10070000FCEFFDEC75F00BA4FC75F00BEDA42AFDDD
:100710007A237B001240657404122B5F0EEE700189
:100720000F12874640AF028BC1EEF8EFF9E875F083
:100730000BA4F812873722AAF075F00BE9A42AF966
:100740009004D3E028229004D112AC1DC3EE98EFA0
:10075000992274F6122591E4F508F5097808122B10
:100760009D9004D112941475F00BA4FCA8F075F0C0
:100770000BEDA428FD7A237B001240597402122B42
:100780005FE9FE60031248B102C68974F612259132
:1007900074FF122C3F7E007F00803C8518828519F3
:1007A00083E412917C122B9D75080175090078086D
:1007B000122B9DEEFCEFFDEC75F00BA4FCA8F07580
:1007C000F00BEDA428FD7A237B001240657404121F
:1007D0002B5F0EEE70010F12874640BF7401028B33
:1007E000BEC082C083904EE2E49375F01CA4FCADC1
:1007F000F079FF7A1A7B08123F2D029E2974F712B6
:100800002591E9FCEAFD7A007B008010EB128E57FF
:100810009C4008E0F8EDC39840010A0B904EE2E4DA
:1008200093F8EBC39840E57B0002AC3174EC1225E1
:100830009174F3122C3F8A0C8B0D8C088D09890A58
:10084000EC45096016AA08AB091248698A0E8B0F9D
:10085000AE0EAF0FEE4F600302892A7A0080010AC4
:10086000904EE212BFAA500F128A1F70F2741A281B
:10087000FE740839FF80047E007F00EE4F70030293
:1008800089D3904EDB1289F060257403650A6006F7
:100890007404650A70197A04790312489F8A0E8BD2
:1008A0000F904EE2E493F8904EDB128A09502D909F
:1008B0004ED91289F0602C7401650A6006740265D5
:1008C0000A70207A02790112489F8A0E8B0F904E8F
:1008D000E2E493F8904ED9128A0940077A007B002F
:1008E0000289EB8518828519837401F0122E55E573
:1008F0000CF0A3E50DF0AC08AD097403122E55AA57
:1009000082AB83124905AA18AB191248CF740B1297
:100910002E5512A21B8E828F83A3A3A3A3A3A3E4AD
:1009200012C829AA0CAB0D1234CB7800E50A600777
:10093000C39405500278048E828F83E50CF0A3E502
:100940000D128D1AA3A3E50AF0E88E828F83A3A36C
:10095000A3A3A312C33A5001097A027B00122334E5
:10096000129809A3129CA8129835E50A605BC394FB
:10097000035056901A48E07018904DD6780C122DFE
:100980002E1297E0122DE6904DD6780C122D2E8067
:1009900027F50875090074027808122D541289FA97
:1009A000122D2E9081527810122DC8780C791012C9
:1009B000242C1297E0122DE6EE24131297E3122D49
:1009C000E6EE241B12C33180091297EC1284BBA3FC
:1009D000F0A3F07A04790012489F128D0B40059025
:1009E000198AE4F012338DEEFAEFFB740D02A02F9A
:1009F000E493F8740193F9E8492274D62508F58246
:100A0000744D3509F583780C22E493FA740193FB55
:100A1000E8C39AF8E49BF9C3E50E98E50F9922EA3A
:100A2000128A25F42275F01CA4F8A9F0741E28F58A
:100A300082740839F583E02274EE12259174F31262
:100A40002C3FEAFEEBFF8C108D11750800AA10AB4D
:100A500011124869EA4B7003028B538A828B83E040
:100A60006E7003A3E06F7003028B538A828B83A3A3
:100A7000A3A3A3E0C394054003028B538A828B8314
:100A800012C982E060728A828B83A3A3A3A3E0C30E
:100A900094035064901A48E07021904DD678081263
:100AA0002D2E128B5A122DE6904DD67808122D2E2F
:100AB000EA2413128B5D122DE68030F508750900CB
:100AC00074027808122D541289FA122D2E90815238
:100AD0007808122DC8780C790812242C129A0A1260
:100AE0002DE6EA2413129A0D122DE6EA241BF58254
:100AF000E43BF583E4F0801B7508FE7509FF750A79
:100B0000FF750BFF128B5A122DE6EA2413128B5D30
:100B1000122DE6750800750900750A00750B00EACC
:100B2000240C128B5D122DE68518828519837401C1
:100B3000F0122E55EEF0A3EFF0AC10AD11740312CD
:100B40002E55AA82AB83124905AA18AB191248CFB9
:100B5000750801A908740D02C97AEA2417F582E420
:100B60003BF58378082274F612259112486F8A08A3
:100B70008B09A808A909E849601488828983A3A37E
:100B8000A3A3E06009C394055004790180027900B1
:100B9000802F74F612259112486F8A088B09A808D5
:100BA000A909E849601488828983A3A3A3A3E0600C
:100BB00009C3940350047901800279008003122B49
:100BC0005F7F0202285B74F612259112486F8A82B9
:100BD0008B83E5824583600BA3A3A3A3E070047914
:100BE000018002790080DAC082C083EAFCEBFD7AE2
:100BF000007B00029E26C082C0837C007D00029E96
:100C00002674F512259174F3122C3FEAFEEBFF8C4B
:100C1000088D09C3EC94F8ED94FF4004EE4F606535
:100C2000750A00801974FF6508700474FF65096017
:100C30000B12CF737004A3E06509603B050A904E68
:100C4000E2E493F8E50AC398503BE50A128A206073
:100C5000EBEE4F60D0128C90122E5512C12112482B
:100C6000D5E960D87403122E55AC82AD83EEFAEF4D
:100C7000FB1240EFE960C5E50A75F01CA4F8A9F085
:100C8000128E4E80047A007B00740D122B5F801B45
:100C90008518828519837401F0741C28F582740804
:100CA00039F58312AC1D740B22A90A7F0302285B5D
:100CB00074F412259174F3122C3F750800124869E0
:100CC0008A0A8B0BAE0AAF0BEE4F60258518828522
:100CD0001983128D18128CA3122E5512C12112489D
:100CE000ED7C1C7D0079FFEEFAEFFB123F2D7508BD
:100CF000017A04790012489F128D0B500990198ACD
:100D00007401F012338DA908029B4B904EE2E493DC
:100D1000F8C3EA98EB940022740112A50DA3A32254
:100D200074F7122591E9FE74FE6A700374FF6B7C00
:100D300000700380240C128D83501EEC128A2060F8
:100D4000F4128F1D7003A3E06B70EA800BEC128D20
:100D5000986019E0640360140C128D83501EEE60DD
:100D6000ECEC128D8D60F1C3940550ECEC75F01C29
:100D7000A4FCADF012D4E912C06580047AFE7BFFBA
:100D800002AC31904EE2E493F8ECC3982275F01C6B
:100D9000A4F8A9F0128A2C2275F01CA4F8A9F0126C
:100DA0008A2C640122124821029E29C082C08379C4
:100DB0000180F274F01225918A0A8B0B7A04790172
:100DC00012489F8A0C8B0DEA450D6040EA2AFAEB27
:100DD00033FB123FE18A088B09AE08AF09EE4F6082
:100DE000267AFE7BFF12481B74FE6A700374FF6B49
:100DF000601E85088285098312AFAFE5082402F5DD
:100E00000850E2050980DE750C0080047E007F003A
:100E1000850A82850B83E50CF0EEFAEFFB0290E485
:100E2000C082C0837C008009EA24FF1AEB34FFFBF8
:100E30000C128D835011EC128E57940550F2EA4B30
:100E400070E6128E4E80047A007B00029E29741A8E
:100E500028FA740839FB22128A25C32274F7122556
:100E60009174F3122C3F7E00807DEF75F017A4F88B
:100E7000A9F0128F0E12C065EE75F01CA4F8A9F04F
:100E8000128F1D7003A3E06B603DEF75F017A4F89F
:100E9000AAF0EAF9128F0E12A51A7401122E55E06B
:100EA000687003A3E069601FEF75F017A4F8EAF912
:100EB000746828FC740A39FD7403122E55AA82AB9B
:100EC000831240EFE96013EF75F017A4F8A9F074EE
:100ED0006628FA740A39FB1234D70F904EDFE49378
:100EE000F8EFC39840840E12D4D6501FEE12DA5495
:100EF000F47003A3E0F460EE128C90122E5512C130
:100F0000211248D5E960DF7F0080D002AC2C128F1F
:100F10001222746628F582740A39F5832212DA5F88
:100F20006A2274F412259174F3122C3F7E008038EB
:100F300090812E7808122DC8EE75F01CA4F8A9F047
:100F4000742D28F582740839F5837808122C5560C1
:100F5000169081027808122DC8EE75F01CA4F812C4
:100F60008FEA7808122CE20E12D4D6507AEE128D47
:100F70008D60F4C3940350EF128FEA122E02E849F9
:100F80004A4B70AC901961E06401702D9005D91244
:100F9000ADC46025EE75F01CA4F8A9F0741A28F809
:100FA000740839F912904012299988828983129025
:100FB000D51249347404122B5F8518828519837405
:100FC00001F0EE75F01CA4F8A9F0128C99122E55C0
:100FD00012C1211248D5E9608E7403122E55AA82DF
:100FE000AB8312482D8080029B4B743128F58274AC
:100FF0000839F5832274F612259112486F8A088BFE
:1010000009A808A909E849603288828983A3A3A3B3
:10101000A3E06023C39403501E129040122E0EE8EA
:101020002417F582E439F583122E32E8241BF58269
:10103000E439F5837401F0790180027900028BC1F3
:10104000E82413F582E439F5832274F0122591EA3D
:10105000FEEBFF9005D312ADC460729005D912ADBE
:10106000C4606A9005DD12ADC4606212D362124999
:1010700034E97059901A48E0700A904DD6780812F9
:101080002D2E8028F50875090074027808122D5459
:1010900012D544744D12D3437808122D2E908152EC
:1010A000780C122DC87808790C12242C7808122B91
:1010B000951290CF1249347404122B5FE9640170C9
:1010C0000C8E828F83A3A312D35012493480158EC5
:1010D000828F83A3A312B9649005D912D35A2274C4
:1010E0000D122B5F7F0802285B74F6122591E4F540
:1010F00008F5097808122B9D904EE2E493F50874E8
:10110000037808122D541294061240597402122BBF
:101110005FE9FE740A6E6025E4F508F509780812A7
:101120002B9D904EE2E49375F005A4FCADF07A3F60
:101130007B001240597402122B5FEE60031247EBE2
:1011400002C68974F612259174FE122C3F8518820E
:10115000851983E4F0A312917C122B9D750802750A
:1011600009007808122B9D7C007D007A227B0012FA
:1011700040657404122B5F7402028BBEF0A818A99C
:10118000198808890978082274EE12259174DE12F4
:101190002C3F8A0E8B0F8C088D09750C007A227BF0
:1011A0000012405F8A0A8B0B7A3F7B0012405F8AF5
:1011B000108B11AE10AF11E50A450B6017E50865FD
:1011C0000A7004E509650B600BAC0AAD0B7A227B53
:1011D000001240717436122E55129419EE4F60159C
:1011E000E50A6E7003E50B6F600BEEFCEFFD7A3FD6
:1011F0007B00124071E4F510F5117810122B9DACB4
:1012000008AD097A227B001240597402122B5FE963
:10121000640A70030293FCE4F508F5097808122BC0
:101220009DAC0AAD0B7A3F7B001240597402122B21
:101230005FE9640A70030293FC7404122BFB8808B4
:1012400089097808122B9D75080275090078081223
:101250002B9D7C007D007A017B0312406B7404128D
:101260002B5FE960030293FC851882851983E4F003
:10127000A3F07E000293737406122BFB8808890981
:101280007808122B9D7508087509007808122B9DA7
:101290008E0874037808122D54E5082402FCE43506
:1012A00009FD7A017B0312406B7404122B5FE96025
:1012B000030293FC7408122E55E0F47003A3E0F4CB
:1012C00070030293727406122BFB88088909780850
:1012D000122B9D7508087509007808122B9D74045F
:1012E000122E5512CC8A74037808122D54129406CB
:1012F0001240657404122B5FE960030293FC7402D0
:10130000122BFB880889097808122B9D7508057532
:1013100009007808122B9DEE75F005A4FCADF07A5B
:10132000027B0312406B7404122B5FE9704174025C
:10133000122BFB880889097808122B9D7508057502
:1013400009007808122B9D7404122E5512941475FE
:10135000F005A4FCA8F075F005EDA428FD7A3F7B0C
:10136000001240657404122B5FE960030293FC12C3
:1013700099220E851882851983C082C083904EE21F
:10138000E493F8D083D082C3E098A3E09400502186
:10139000851882851983C082C0837404122E551269
:1013A000A51AD083D082C3E098A3E099500302929B
:1013B00077A818A919880889097808122B9D75083B
:1013C000027509007808122B9D7C007D007A227B33
:1013D000001240657404122B5FE97020AC0EAD0F53
:1013E0007A017B03124071E970127434122E551287
:1013F000C82D7A027B03124071E96003750C01A9C4
:101400000C742202C97AE5082402FCE43509FD7A4D
:10141000227B002212C831EC22E0F50AA3E0F50B92
:101420002274EC12259174FE122C3F750A00851867
:1014300082851983E4F0A3F0904EE293F50EF5084F
:1014400075090074037808122D54E5082402F50884
:1014500050020509E50E75F005A4F50EE5F0F50F4F
:101460007A227B0012405F8A0C8B0DAE0CAF0D7A96
:101470003F7B0012405F8A108B11A818A919880CB5
:10148000890D780C122B9D750C02750D00780C12CD
:101490002B9D7C007D007A227B0012406B7404122D
:1014A0002B5F7A017B0312405F8A0C8B0D7A027BE3
:1014B0000312405F8A128B13A812A913E50C450D85
:1014C000700AE5086E7003E5096F7025E849700C35
:1014D000E50E65107004E50F65117015E50C450DFE
:1014E000607BEE4F604E85188285198312AFB56020
:1014F000437C017D037A227B0012355BE9F8880A80
:10150000705B7C027D037A3F7B0012355BE9F888D3
:101510000A704AEEFCEFFD7A227B00124071E970FE
:101520000EAC10AD117A3F7B00124071E96011756D
:101530000A018029AE0CAF0DE849600488108911BA
:10154000780E122B9D7810122B9DAC08AD09EEFA87
:10155000EFFB1247E57404122B5FE9F50AA90A7440
:101560000202A02F74EC12259174D0122C3F851822
:1015700082851983E4F0A3F01247DFE96003029744
:10158000C8A818A919880889097808122B9D750818
:10159000027509007808122B9D7C007D007A227B61
:1015A0000012406B7404122B5FE960030297C8902D
:1015B0004EE2E493F885188285198312982EE49BF5
:1015C00050030297C8750A00750B00750800803D2E
:1015D0007403122E55122E021297FF122E3E740320
:1015E000122E55122E0212A83F122E3EEE241BF58B
:1015F00082E43FF583E4F07A04790012489F128D6B
:101600000B400590198AE4F012338D05081297D526
:1016100040030297C812A514C3E50A98E50B994048
:10162000030297C87414122BFB880C890D780C12D6
:101630002B9D750C08750D00780C122B9D85080CE0
:101640007403780C122D54E50C2402FCE4350DFDD6
:101650007A227B0012406B7404122B5FE970AC7429
:1016600016122E55E0F47003A3E0F4609E050AE51F
:101670000A7002050B7407122E557401F0741612CD
:101680002E5512A51A7412122E5512AF6B74071232
:101690002C031248D5E9700302960B12C82A741461
:1016A000122E5512C0651234CBE50875F01CA4F853
:1016B000A9F0741A28FE740839FF7414122BFB88E1
:1016C0000C890D750E00780C122B997C087D00EEAC
:1016D000FAEFFB123F217403122B5F12C33F50013C
:1016E000097A027B00122334129809129835740289
:1016F000122BFB880C890D780C122B9D750C05752F
:101700000D00780C122B9DE50875F005A4FCADF0DA
:101710007A3F7B0012406B7404122B5FE960030276
:1017200095F7908102780C122DC87403122E55780B
:101730000C122C5560030295D0E50875F01CA4F836
:10174000AAF0EAF9128D946071C39403506C901A58
:1017500048E07018904DD6780C122D2E1297E0129A
:101760002DE6904DD6780C122D2E8033F50C750D8C
:10177000007402780C122D5474D6250CF582744D29
:1017800012B932780C122D2E9081527810122DC879
:10179000780C791012242CEAF91297E0122DE6EE5B
:1017A00024131297E3122DE6E50875F01CA4F874D3
:1017B0003528F5827408390295F31297EC04141257
:1017C00084BBA3F0A30295F6851882851983E0F9FE
:1017D000743002A02F904EE2E493F8E508C39822FB
:1017E000EE2417F582E43FF583780C221297FF74FC
:1017F000FEF0A304F0A3F0A3F012A84374FE22EEBF
:101800002417F582E43FF58322E88E828F83A3A319
:10181000A3A3A3A3A3A312ABF1740112ABF1A3740E
:10182000AAF0EE2410F582E43FF583E4F02212B929
:1018300064C3E89A22A3F012AE83E4F0EE240CF520
:1018400082E43FF583E4F0A3F0A3F0A3F02274F266
:1018500012259174FE122C3F851882851983E4F0BD
:10186000A3F07508000298EDE50875F01CA4F8A92E
:10187000F0741A28F50C740839F50DAE08780C12BE
:101880002B9D750A08750B00780A122B9D8E0A7421
:1018900003780A122D54E50A2402FCE4350BFD7A84
:1018A000227B001240657404122B5FE50C2412F5B4
:1018B0000AE4350DF50B780A122B9D750A05750B98
:1018C00000780A122B9DEE75F005A4FCADF07A3F6E
:1018D0007B001240657404122B5F850C82850D839A
:1018E000A3A3A3A3E0F4600312992205081297D5DD
:1018F0005003029868A818A919880889097808125D
:101900002B9D7508027509007808122B9D7C007DBF
:10191000007A227B001240657404122B5F7402026D
:10192000AE91851882851983E02401F0A3E034008C
:10193000F02274F012259174F3122C3FEAFEEBFFB3
:101940007A02790112489FEA8E828F83F070030237
:1019500099FD75F00CA4FAABF0123FE18A088B09EF
:10196000EA45097003029A03AE08AF09750A0080C0
:101970001C908102122999EEFAEFFB123FA5740424
:10198000122B5F8A0C8B0DAE0CAF0D050A904EE248
:10199000E493F8E50AC398506AE50A128D98600549
:1019A000E0640270E6128C90122E5512C12112488A
:1019B000D5E960187403122E55AC82AD83EEFAEFB0
:1019C000FB1240F58A0C8B0DAE0CAF0DE50A75F0DD
:1019D0001CA4F8A9F0743528F582740812D1C164EA
:1019E00001708E128E4EEA2413129A0D122DC81217
:1019F0009A0A122BE3780C122B950299777508003E
:101A0000750900AA08AB090290DFEA2417F582E401
:101A10003BF583780C22C082C0839004DC7443F0D1
:101A2000A37432F09004DE743DF0A37432F090049D
:101A3000E2746BF0A3742EF0029E29C082C08390E2
:101A400004E07437F0A37432F0029E2974F7122573
:101A500091EAFEEBFF90054DE06408601FE064042E
:101A6000601A8E828F83E054036401704412ACEFDD
:101A7000F8A3E0F5838882E0640670358E828F8358
:101A8000A3A3E064FE7003A3E0F460258E828F833D
:101A9000A3A312C83A7003A3E0697008EE241512DC
:101AA000C8216005123309800312330FE9F508805D
:101AB000037508C2EEFAEFFB123FE702833C74F4B1
:101AC0001225918A088B098A828B83E0FAA3E0F8B9
:101AD000EA28FAE43400FB123FE18A0A8B0BAE0AD3
:101AE000AF0BEE4F605A850882850983E0FC7D00CC
:101AF0007900123F2D8E828F831284B71233458E68
:101B0000828F83A3A3A3A3EAF0A3EB129B46F8EE74
:101B100028F8E43F12862F850882850983A3E0C058
:101B2000E012C324D0E0F0123357EE240EF582E425
:101B30003FF583E912A495E0C0E012A1EDD0E0F0FA
:101B4000EEFAEFFB800A12A48DE022740D122B5FD7
:101B50007F0402285B74F412259174E8122C3F8AEA
:101B6000088B098C0A8D0BE9FE90054DE06404603A
:101B700005E06408700479C2804BA37808122DE652
:101B8000EE900554129CAD123F2D85188285198365
:101B90007808122DE67405122E55EEF07404122EFC
:101BA000557401F07407122E55E4F090054D74023F
:101BB000F0901973E064027005901961E4F0AA18BE
:101BC000AB191246FB7418808474F412259174E8E2
:101BD000122C3FEAFEEBFF9004D512ADC460030265
:101BE0009CA37A077B00123FE19004D512AFAF901F
