:020000040000FA
:10000000021F3F022003FFFFFFFFFF02200BFFFF45
:10001000FFFFFF022013FFFFFFFFFF02201BFFFF78
:10002000FFFFFF022023FFFFFFFFFF02202BFFFF48
:10003000FFFFFF022033FFFFFFFFFF02203BFFFF18
:10004000FFFFFF022043FFFFFFFFFF02204BFFFFE8
:10005000FFFFFF022053FFFFFFFFFF02205BFFFFB8
:10006000FFFFFF022063FFFFFFFFFF02206BFFFF88
:10007000FFFFFF022073FFFFFFFFFF02207BFFFF58
:10008000FFFFFF022083FFFFFFFFFF02208BFFFF28
:10009000FFFF70DFFFFF040000000002000000C847
:1000A000030002030369A5020269A532730000017F
:1000B00000000000000400FFFFFFFFFFFFFFFF0440
:1000C00003090424035400650078006100730020D4
:1000D0000049006E0073007400720075006D0065C9
:1000E000006E007400730024035400490020004394
:1000F000004300320035003300310020005500532A
:10010000004200200043004400430000035F005F02
:100110000030005800000000000000000000000057
:1001200000000000000000000000000000000000CF
:100130000000000000303132333435363738394171
:100140004243444546331C881C881C881C881C90EC
:100150001C74F8121BCD900391E06015900302749B
:10016000FEF0900304744DF0A37405F07A011207B9
:100170001C7F01021D6C74F8121BCD74FF121EB699
:100180007E00801F851882851983E064FE700690CA
:1001900003877401F0851882851983E0F890038441
:1001A000E068F07901AA18AB191210E9E9700302AE
:1001B0000287851882851983E064EF70027E07E06C
:1001C000C0E0900387E0FA900385E0F8EA28F8E4BD
:1001D0003400F9740228F582740339F583D0E0F015
:1001E000900387E0609E14600E14602B14603B1433
:1001F0006051146067809E900384E4F085188285C6
:100200001983E0900386F0C394809003874003E451
:1002100080827402020194851882851983E090031C
:1002200082F09003877403020194851882851983F4
:10023000E0900383F0900386E060199003877404D4
:10024000020194900385E004F0F8900386E0686072
:10025000030201959003877405020194900385E4DD
:10026000F0900387F0900384E0F885188285198365
:10027000E0686003020195900382E0644D60030230
:1002800001951203BF8002EEF97401121E370201BC
:100290007174F7121BCD74FB121EB6EAFEEBFF75EC
:1002A00008047509007808121ED07402121F377AEC
:1002B000907B0079041218EB7402121E3712070E9D
:1002C000121F88E0687003A3E069701285188285A8
:1002D0001983E0F47003A3E0F4600302039A74044A
:1002E000121F2F1207708A088B09A808A909740227
:1002F000121F88E8F0A3E9F07404121F88E0600878
:1003000079011201510203B3851882851983E068CF
:100310007003A3E0697076851882851983E0F47014
:1003200003A3E0F470197402121F887410F0A37410
:1003300020F08518828519837410F0A37420F0755D
:1003400008017509007808121ED07402121F377A4E
:10035000247B0812196F7402121E3775080478087E
:10036000121ED07402121F377A907B007904121883
:10037000EB7402121E3712070E121F88E06870031A
:10038000A3E069700479028006790480027903127F
:1003900001518E828F83741E80058E828F83E4F0DC
:1003A00012070E121F88E0687003A3E069700479D9
:1003B00001800279007405121E377F02021D6C74E1
:1003C000ED121BCD74F8121EB6900307E0FD9003EA
:1003D00006E0FCFAEDF8E4C8F9EA28FEE93408FF83
:1003E000751001750B00750A068E088F0974027866
:1003F00008121F1CC39508F8E49509F9740228F542
:100400000E740339F50F8E088F0974097808121FCE
:100410004EE508F511EE2410F508E43FF509EEF578
:100420000CEF5401F50D900383E014605914700330
:100430000204FB14700302057614601024FE70039E
:100440000206311470030206E10206F1750A03790F
:100450004E1213BD9003071207047402F0A37440F8
:100460001207027408120702F0A3F07418C394076D
:1004700004F510AA10A90B12071CA90A7408121E71
:10048000377F0C021D6C750A04794E1213BDEE45C0
:100490000D7005A9111219D5C3EE9425EF940850DB
:1004A0003CC3E5089424E50994084031E50E249600
:1004B000F8E50F3420F988828983E0701BA3AA82B3
:1004C000AB83E070139003887401F0888289837491
:1004D000A5F08A828B838004900388E4F07508106D
:1004E0007509007808121ED07C087D03EEFAEFFB38
:1004F00012196F7402121E37020473750A05E51192
:10050000C394794006750B0102047375124075138C
:10051000007812121ED07C097D037402780C121F21
:100520001CAA0CAB0DA9111218EB7402121E379005
:100530000307E0A3F0900306E0A3F0751043C3EEB9
:100540009425EF94084003020473C3E5089424E55E
:100550000994085003020473900388E070030204B6
:1005600073E50E2497F8E50F3420F988828983E437
:10057000F0A3F00204737508047509007808121ED0
:10058000D07402121F377A907B0079041218EB7432
:1005900002121E377402121F88E0F8A3E0F98518D2
:1005A00082851983E0687003A3E069851882851944
:1005B00083700BE0F47003A3E0F470578009E0F45B
:1005C0007003A3E0F4700D8518828519837410F010
:1005D000A37420F012070E121F88E8F0A3E9F0754B
:1005E00008017808121ED07402121F377A247B0883
:1005F00012196F7402121E377508047808121ED083
:100600007402121F377A907B0079041218EB74027F
:10061000121E3712070E121F88E0687003A3E069EC
:100620007006750A01020473750A02750B0702044D
:10063000739003D6E0600764026003020473EDFF69
:100640007A01790012071CE060030206D5800312CC
:10065000118512116CE970F77404121F881206F6E6
:100660007404121F887808121F6C85080C85090D08
:10067000850A0E850B0F9003C2780C121EF67404C7
:10068000121F88780C121F5DE5084509450A450BC5
:1006900070CE8EC2E5C554E04FF5C57404121F88B4
:1006A0001206F67404121F887808121F6C85080C55
:1006B00085090D850A0E850B0F9003C2780C121E5A
:1006C000F67404121F88780C121F5DE50845094571
:1006D0000A450B70CE7A01790012071C79080204D2
:1006E0007CEC900391F07003020473750A09020414
:1006F00073790602047CE4F0A37426F0A3E4F0A36B
:10070000F022F0A3E4F0A3F0A3F0A3F0A322851855
:1007100082851983E0F8A3E0F974022274F8121BB1
:10072000CDEAFE900305E0D2E7F0E9A3F0EE9003F6
:1007300003F08E0874042AFE7C028004E062080C38
:10074000ECFA3395E0FB74022AF58274033BF583DF
:10075000EEF8C3EA98EB9400A2D265D03340DDE511
:1007600008F074012AF97A027B0312112702017141
:1007700074E9121BCD7582007583FE121E198A164C
:100780008B177514007515008A828B83E4F0900333
:10079000D6E07006D2AAD2AF800464027005790058
:1007A000120151750C00750D20750E00750F00902B
:1007B00003D6E0600464027015121185120176E917
:1007C000F874096860030208AC7900120151E06412
:1007D000027007A29240030208877508007509029B
:1007E0007808121ED07402121F37850C08850D0977
:1007F000AA08E5095407FB850E0A850F0B740B78D0
:1008000008121E87A9081218EB7402121E377E0008
:100810007F009003CAC0828E10EFF5113395E0F58A
:1008200012F513850C08850D09850E0A850F0B78C6
:10083000087910121F099003C67808121EF67583F6
:1008400003D0827808121DFA501D851882851983FD
:10085000E5822EF582E5833FF583E0F9AA14AB1516
:100860001208DB8A148B150EEE70010FC3EF940291
:1008700040A09003CE780C121EF69003D2780C1292
:100880001DFA40030207AF7900AA14AB151208DB6A
:1008900079001208DB8B159003D6E07004C2AFC25A
:1008A000AAEA451570277AA57BA58021E870030286
:1008B00007CE74066870030207CE740768700302DF
:1008C00007CE8516828517837401F080BA75820081
:1008D000758302121E197F10021D6CC008C0097CAE
:1008E000088A088B09740F7808121F4EE508F8EA89
:1008F00025E0FAEB33FBE9A2E7500474014AFAE879
:10090000A2E0500874216AFA74106BFBE9C333F952
:100910001CEC70CDD009D00822C082C083120F33E6
:1009200060030209F0A3E0F8A3E060030209F0A36A
:10093000E064027002A3E060030209F09003B8E0F3
:100940002480600914604F14605C0209F0E86003C1
:100950000209F09003B2E060047801800278009010
:1009600003C0E8F0A3E4F09003B1E0600A9003C094
:10097000E04402F0A3E4F09003A6E0640460149065
:1009800003B374C0F0A37403F0A3E4F0A3740212E1
:100990000F95F0020E6E90039FE064047052900376
:1009A000C0E4F0A380D0E8547FFA90039FE0640491
:1009B000703EEAC394065038749F2AF582E43403EB
:1009C000F583E854806018A3A3A3A3A3A3A3E064C2
:1009D0000370047801800278009003C0E88094E5F9
:1009E00082240CF58250020583E0640370E980E301
:1009F0009003A67404809B74F8121BCDE9FE90034B
:100A0000BE120F366003020AD990039FE0640460AF
:100A10000B9003BC120F366003020AD99003B8E0B2
:100A2000541F6009146030146020020AD99003BA80
:100A3000E064017022EE9003B1F060047905800259
:100A400079067A00121BCB020ADF9003BCE0547FC8
:100A5000FA9003BAE060057900020AE1EAC394065D
:100A60005077EA90620EF0749F2AF8E43403F9900C
:100A700003BCE05480602EEE600474108002744069
:100A8000906211F0EE60047B0380027B00EB8882B1
:100A90008983A3A3A3A3A3A3A3F0EE600479088092
:100AA0002F7907802BEE60047B2080027B80EB9007
:100AB0006214F0EE60047B0380027B00E8240CF5F6
:100AC00082E439F583EBF0EE6004790A800279095B
:100AD000121BCB90620EE480059003A67404F0799B
:100AE000017F01021D6C79001209F7E97003121BE6
:100AF000BA2279011209F7E97003121BC922C082D8
:100B0000C0839003BC120F367015A3120F36700FFE
:100B10009003BA120CD95480FAE9FBEA4B600790B3
:100B200003A67404801AE8906200F090039F6009A5
:100B3000E06402700C74038007E0640370037402C5
:100B4000F0020E6E74F5121BCD9003BAE0FAA3E02A
:100B50001460081460101460398057121754120C76
:100B6000B6A37B8080417900121776120CB67B8089
:100B7000E92402F9E43AFA121E6DFC1919E0FAA30D
:100B8000E92403F9E43AFA121E6DF9ECA3F0A3E9A3
:100B9000801CEAF91217E49003B3EAF0A3EBF0A388
:100BA000E4120CC5A37B00121E6DA3F0A3E4F002B7
:100BB0000C709003B3E4F0A3F0A3F0750B00900465
:100BC0007DE0FAA3E0FB020C4E850B08750900746A
:100BD000037808121F1CEA2508F8EB3509F9900381
:100BE000BA120CCFE493C0E0EFFCD0E06C705DA3D0
:100BF000E4936E70579003BC120CCFA3A3E493C090
:100C0000E0EFFCD0E06C704488828983A3A3A3E466
:100C1000936E703888828983A3A3A3A3E493F50815
:100C2000740193F5099003B3E508F0A3E509F0A377
:100C30007480F088828983A3A3A3A3A3A3E493F879
:100C4000740193F99003B6E8F0A3E9F0050B900462
:100C50007F120CD9C39AF508E99BF509740378084B
:100C6000121F4EC3E50B9508E495095003020BC90A
:100C70009003B3E0FCA3E0FDA3E0FEEC4D4E900337
:100C8000A6700474048029E0640460259003BEE02B
:100C9000FAA3E0FB9003B6E0F8A3E0F9C3EA98EB0F
:100CA0009950089003B6EAF0A3EBF09003A6740104
:100CB000F07F04021D6C9003B3EAF0A3EBF0A37481
:100CC00080120CC522F09003B3E0F9A3E0FA22E011
:100CD000FEA3E0FF8882898322E0F8A3E0F9E822FE
:100CE00074EE121BCDEA2404F8E43BF98808890964
:100CF0008882F583E4936025900481120CD9FEE983
:100D0000FF8007EE2404FE50010F8E828F83E49350
:100D1000F8740193F9EA687002EB6970E6750B00EC
:100D2000803F9062147490F07410120E3570037549
:100D30000A408E828F83A3A3A3E493550E6006E539
:100D40000AD2E0F50AE50A906215F0EA906213F023
:100D5000EC240CF582E43DF583E4F090620EF0059E
:100D60000B850882850983E493F8E50BC39840035B
:100D7000020E307A0079051216E78A0C8B0DEA45CF
:100D80000D60DCEA2402F8E4350DF9881089118839
:100D900082F583E493540FF51290620EF0750A0009
:100DA0008A828B83A3A3A3A3E4932407F50EA3E471
:100DB000933400F50F7403780E121F4EAA0EA8127A
:100DC000749F28F8E43403F9E8FCE9FD750E017519
:100DD0000F00E512780E121F1CE50EF50EE50C242F
:100DE00003F8E4350DF9851082851183E493A2E7B9
:100DF0004003020D229062117448F07408120E35FF
:100E00007003750A408E828F83A3A3E493550E600E
:100E100006E50AD2E0F50AE50A906212F0EA90626D
:100E200010F08C828D83A3A3A3A3A3A3A3020D59C7
:100E30007F0B021D6CF088828983E4935403640164
:100E400022C082C083120F337010A3120F36700AB3
:100E5000A3E064017002A3E060079003A67404801D
:100E60000C9003B374A0F0A37403120F8BF0D08323
:100E7000D0822274F3121BCD90039FE064026014B1
:100E80009003BC120F36700CA3120F36700690033D
:100E9000BBE060099003A67404F0020F2E7A00797B
:100EA00001121BCB9003BAE0606F7A00F91217763B
:100EB0008A0A8B0BEA450B605890039F7404F090EC
:100EC00003BAE09003A0F0750800850A82850B83C1
:100ED000A3A3A3A3E493F8E508C398504AA8087411
:100EE000A128F8E43403F9E8FEE9FF8E828F83E459
:100EF000F07A0079041216E78A828B83A3A3A3E415
:100F000093F88E828F83E06870E7120CE00508800A
:100F1000B99003A67404F0800E9003A0F090039F94
:100F20007403F0F91216677A007902121BCB7F0660
:100F3000021D6C9003BAE0F8A3E0F9E8492274F6C8
:100F4000121BCD90039FE0640470199003B8E06415
:100F5000817011120F33700C9003BEE064017002B7
:100F6000A3E060079003A67404801A9003BCE024F9
:100F7000A1F508A3E03403F5099003B3E508F0A355
:100F8000E509120F8BF07F03021D6CF0A3E4F0A3C0
:100F900004120F9522F0A3E4F09003A6042274F744
:100FA000121BCD90039FE0640470649003B8E0646A
:100FB00001705C9003BE120F3670549003BAE0FBD0
:100FC0009003BCE0FA9003A0E0F91217AE8A088BF8
:100FD00009AE08AF09EE4F60369003BCE0FA790322
:100FE000121BCB9003BAE0C0E09003BCE024A1F850
:100FF000A3E03403F988828983D0E0F0EEFAEFFBB6
:10100000120CE09003BCE0FA7904121BCB8006902E
:1010100003A67404F07F02021D6CC082C0838003AB
:10102000121A31A2E840F9A823E854046009782391
:10103000E654FBF612140EA823E854106009782336
:10104000E654EFF612142FA823E8A2E05005782307
:1010500054FCF690620EE0FA7404F0906214E0A280
:10106000E05039A9A8C2AF906216E0F8A3E0E8FB0F
:10107000E9A2E792AF8017906228E0C0E090039366
:10108000E0F812111CD0E0F0900393E004F0EBFDC7
:1010900074FF2DFB0470E0906214E4F0EA90620E9D
:1010A000F0E0FC7404F0906211E0A2E040319003A3
:1010B00095E0F8900394E06860257A4090039412DC
:1010C000115FE0906228F0900394E004F008900330
:1010D00095E06860041AEA70E39062117401F0EC24
:1010E00090620EF0D083D0822274F8121BCDE9FEFC
:1010F0007900801212111CE08A828B83F090039297
:10110000E00412115409900392E0F8900393E06810
:101110006005E9C39E40DD7F01021D6C748528F5E2
:1011200082E43404F58322C082C083E9FC80188AFB
:10113000828B83E0C0E090039512115FD0E0121122
:1011400054900395E004F0ECF874FF28FC0470DF81
:1011500079018090F08A828B83A3AA82AB8322E0FC
:10116000F8748528F582E43405F58322C082C083B3
:10117000900395E0F8900394E068600479018002A0
:1011800079000210E402101A74FB121EB67E009061
:1011900006857808121F6C794A1213BD9006857473
:1011A00001F0A3F0A37469F0A374A5F09003D778BD
:1011B00008121EE170047E0180159003DB7808128E
:1011C0001EE16008E59D541864107003022000EED3
:1011D000F9121334C280D291EEA2E050030212E75A
:1011E000AA18AB19120291E970030212E7C29185A5
:1011F0001882851983E0C3943C500EE0F8743CC318
:1012000098F50895E0F5098006750800750900E471
:10121000F50AF50B9003DF780C121F6C7808790C37
:10122000121AD1790612015112101A120176E9F838
:101230007409687007790612015180277407686085
:1012400016A2935012E8600874066860030212E761
:10125000A292400F0212E7750800750900750A0096
:10126000750B0085080C85090D850A0E850B0F90FE
:1012700003C27808121EF6E50C450D450E450F70A9
:10128000A7D2807907120151800312101A12116C33
:10129000E970F77E007F007401121F88E4F0A374E8
:1012A00026F0A3E4F0A3F07401121F887808121F3F
:1012B0006C85080C85090D850A0E850B0F9003C2FD
:1012C000780C121EF67401121F88780C121F5DE54F
:1012D000084509450A450B70CEA29250FCA29350D6
:1012E000F81213B8022000D280D291794E1213BDA9
:1012F000750800750900750A00750B007905120163
:101300005112101A120176E9F874096860EE74013E
:101310006870EE12101A9003E37808121EF690031C
:10132000E77808121DFA50EB1213B802200074057A
:10133000121E372274F8121BCDE9FE53BEFBE59D49
:10134000A2E650FA0078F8790100E824FF18E934A1
:10135000FFF9E84970F375C6807480659E70FA43A2
:10136000BE049062707408F01213ADEE700853F46E
:10137000FEC29043FE017403F5D575D4899003969F
:10138000E4F0A374C2F0A37401F0A3E4F0A3F0A30B
:10139000F0A37408F01213D37AFF7BFF1219EC53F9
:1013A000F4FED29043FE011213AD021117D2804316
:1013B000FD01C29143FE0222D280C29122781075B3
:1013C000B60FE5B4A2E750FAE5BBC39940F118E8BF
:1013D00070ED2274F7121BCD7A0079011217768A0C
:1013E000828B83A3A3A3A3A3A3A3E493A2E6900366
:1013F000B2500474018001E4F09003B1E4F0906213
:101400000F7403F0E0A2E750FB7F02021D6CC08264
:10141000C08390039F7402F0A3E4F09003A6F079D8
:1014200003121667752100752200D083D0822274C2
:10143000F6121BCD90620EE0FEE4F0906211E0FF28
:10144000A2E4501D7480F09003A67407F0E52145D6
:10145000226009852182852283121F979003A6E4CA
:10146000F0EFA2E2500B906211E4F09003A6F0803E
:10147000679003A6E0F87402687046906216E0FF79
:101480009003B3121DACEFF97A207B6212168174BF
:1014900003121E37EFF89003B612164512164F2F9F
:1014A000121657A3E0F8A3E0F9E8496004744080FD
:1014B000027448906211F0E849600302163B02167C
:1014C000177406687009852182852283121F979000
:1014D00003A6E060030215C2EFA2E0400302163B40
:1014E0007508B8750903750A007808121ECC7908CA
:1014F0007A207B621216817403121E3775210075E3
:1015000022009003B8E054E0601D24E0700302154F
:101510009D24E0607224C0604824E070030215A896
:1015200024E0606E0215B3A3E014602624FE601D63
:1015300024FE600A24FC601F24FE60208075120ACD
:10154000FE9003A6E06404707278608070120AF264
:1015500080EF120AE680EA120E7380E5120F9E8079
:10156000E0A3E0600E24FA600F24FE601024FE6009
:1015700011804012091980C9120B4480C4120E4117
:1015800080BF120F3E80BA7521B675221B121BB6A2
:1015900080AF7521B875221B121BB880A47521512C
:1015A00075221B121B51809975218175221B121BFC
:1015B00081808E9003A67404F0808E7840E890625B
:1015C00011F09003A6E0F874016870617F02900347
:1015D000B6E0F8A3E0F9C3E89420E994005007E8E6
:1015E000F5087F0A80037508209003B3121DACA98B
:1015F000087A207B621216AC7403121E37AC0812F4
:10160000164F2C121657A808A3121645EF90621118
:10161000F0E8C394205024E5214522600985218209
:10162000852283121F979003A6E4F0800E7405684C
:101630007009852182852283121F97EE90620EF039
:101640007F03021D6CC3E098F0A3E09400F02290A9
:1016500003B31216D9E922F9E43AFA9003B3E9F098
:10166000A3EAF0A3EBF022C082C083E99003A7783D
:1016700005F0A3D8FC9003AC7805F0A3D8FC0214C5
:101680002A74F8121BCDEAFCEBFDE9F87408121F6E
:10169000881216D460118C828D83E0121EA0E9247A
:1016A0000109E43AFAD8EF7F01021D6C74F8121BAD
:1016B000CDEAFCEBFDE9F87408121F881216D4601D
:1016C00011121E6D8C828D83F0E9240109E43AFA2F
:1016D000D8EF80D31216D9E822E0F9A3E0FAA3E00C
:1016E000FB22D083D08222C082C083E9FCEAFD7A4B
:1016F000007B00800312173290039DE0F8A3E0F90D
:1017000090047BE0687003A3E069602490039EE08E
:10171000F5838882A3E493F8EC68700D90039DE054
:10172000FAA3E0FB1217328007ED6870C8ED60C5C0
:1017300080B090039DE0F8A3E0F5838882E493F8FD
:1017400090039DE028F8A3E03400F990039DE8F0B1
:10175000A3E9F022C082C0831217657A00790112D2
:1017600016E70216E2900479E0F8A3E0F990039DF1
:10177000E8F0A3E9F02274F7121BCDE9FFEAFE12AC
:1017800017657A0079021216E7EA4B601CEF6010C9
:101790008A828B83A3A3A3A3A3E4936F70E480093D
:1017A000EEF874FF28FE0470D97F02021D6C74F5F8
:1017B000121BCDEAFF8B087A001217767A027904A1
:1017C0001216E7EA4B60188A828B83A3A3E4936F17
:1017D00070EA8A828B83A3A3A3E493650870DD7FFC
:1017E00004021D6C74F7121BCD74F0121EB6E97A58
:1017F000007B00600C146010146014146018021850
:10180000D47AF37B030218D47AF77B030218D47AD4
:101810001B7B040218D490043FE060030218D090B0
:1018200003EB7408121F377408121DD9750808F5E8
:10183000097808121ED07402121F377AE87B0779E4
:101840007F1218EB7402121E377808121ED0740A29
:10185000121F377402121F2F121C907402121E37AF
:101860008B09EA450970197509007808121ED07CA9
:101870000C7D787402121F2F121D267402121E375F
:101880007C287D00EDF8851882851983E58228F58E
:1018900082E43583F583E0FFECF8743F28F8E43404
:1018A00004F9EF1218DC88828983F0EFC41218DC87
:1018B000C0E0E824FEF582E934FFF583D0E0F00DC6
:1018C00074FC2CFCEDC3940840BA90043F742AF0D9
:1018D0007A3F7B047410121E370217A9540FFA7452
:1018E000692AF582E43404F583E02274F6121BCDF4
:1018F000890A740F550AF508750900740B780812E7
:101900001F1CEA2400F8EB3480F9E82400E93509CB
:10191000F985C709A2AFE433F508C2AFE50AC4549C
:101920000FFAE5C754F84AF5C7740A121F88E0FA9F
:10193000A3E0FB801C88828983E08C828D83F08801
:10194000828983A3A882A9838C828D83A3AC82AD74
:1019500083EAFEEBFFEE24FF1AEF34FFFBEE4F703D
:10196000D48509C7E508A2E092AF7F03021D6C741D
:10197000F7121BCDED900389F0ECA3F0A37462F095
:10198000A37473F0A3E0541FF07409121F88E0F5EC
:1019900008A3E0F509E508333354FC90038EF07496
:1019A000067808121F4EE50890038DF090038F749F
:1019B00012F0A37442F075D1FE75D601EA906271FF
:1019C000F0EBA3F0906270E0D2E1F0E0A2E740FB20
:1019D0007F02021D6CC082C083E9C333906272F043
:1019E000906270E0D2E0F0D083D0822274F7121BB4
:1019F000CD7523007524007525008A268B27EA9073
:101A0000620BF08A088B0974047808121F4EE508EF
:101A1000906207F08A088B0974097808121F4EE556
:101A200008543E906209F0758B00C2E87F02021DE7
:101A30006C74F7121BCDE59DA2E650FA906206E0A9
:101A4000F9A2E25034AA26EA90620BF0F508852745
:101A50000974047808121F4EE508906207F08A089E
:101A600085270974097808121F4EE508543E9062D4
:101A700009F0906201E0D2E0F0E9782346F6906246
:101A800002E0F50875090074047808121F1C782319
:101A9000E50846F608E50946F6906204E0F50875A3
:101AA000090074097808121F1C7824E50946F6E934
:101AB000A2E050037525017406596003752500E501
:101AC0008BA2E55006758BDF752500121BCC021A20
:101AD00027080808EAC0E0EBC0E086F0E7A4FA189F
:101AE0000986F0E7A42AFA180986F0E7A42AFA186A
:101AF0000986F0E7A42AFA1986F0E7A4FBE5F02AA4
:101B0000FA190886F0E7A42BFBE5F03AFA190886E3
:101B1000F0E7A42BFBE5F03AFA18180986F0E7A4E1
:101B2000C5F02BFBE43AFA1908E7C5F0C6A426F67F
:101B3000E5F03BFBE43AFA1886F0E7A4F6E5F00896
:101B400026F6E43B08F6E43A08F6D0E0FBD0E0FAEB
:101B500022C082C0839003B9E0F8742268700890B4
:101B600003A6E0701A80117420689003A6700DE03F
:101B7000700D121BA89003A6740280027404F080FA
:101B800043C082C0839003B9E064219003A6701320
:101B9000E07013121BA8A37407F0A3E4F09003A64F
:101BA0000480027404F0801C9003B37496F0A37454
:101BB00003F0A3E4F02280028000C082C08390037F
:101BC000A67404F0D083D0822280EF22222518C58B
:101BD00082C0E0E51934FFC583C0E0E518C39582F3
:101BE00024F910AF08858319858218800885831928
:101BF000858218D2AFCEF0A3E520F0A37808E608DE
:101C0000F0A3DEFAEFF0A3E58124FBF8E608F0A3E9
:101C1000E608F0A30808E608F0A3E608F0A315819B
:101C20001581D0E0FED0E0F815811581E8C0E0EE26
:101C3000C0E02212010002020000205104A816098F
:101C40000001020301090243000201008019090496
:101C50000000010202010005240010010424020218
:101C60000524060001052401000107058203400048
:101C70004009040100020A00000007058402400038
:101C800000070504024000004E1C0000711C00000B
:101C900074F8121BCD7408121F88E0FEA3E08015B3
:101CA000A3AA82AB838C828D83A3AC82AD83EE2406
:101CB000FF1EEF34FFFFEE4F60198C828D83E0F83A
:101CC0008A828B83E0F9E86960D6E9C398FA95E0E7
:101CD000FB80047A007B007F01021D6CE47921788F
:101CE00007B800028004F709D8FCE490030278C129
:101CF00079018002F0A3D8FCD9FA7AC27B03900064
:101D00008E78C479018015E493A3AD82AE838A8274
:101D10008B83F0A3AA82AB838D828E83D8E9D9E727
:101D2000121188121F9274F7121BCDEAF8EBF974A6
:101D300009121F88E0FEA3E0FF80188C828D83E0EB
:101D400088828983F0A3A882A9838C828D83A3AC27
:101D500082AD838E088F09E50824FF1EE50934FF54
:101D6000FFE508450970D47F02021D6C8519838543
:101D70001882E0A3FEE0A3F5207808E0A3F608DFD0
:101D8000FAE0A3FFE0A3C0E0E0A3C0E0E0A3C0E06E
:101D9000E0A3C0E010AF088582188583198008850C
:101DA0008218858319D2AFD083D082227403800039
:101DB000CCC0E0EDC0E0E518C39CCCAD1950011DCE
:101DC00010AF068C188D1980068C188D19D2AF12A1
:101DD0001DD9D0E0FDD0E0FC22CAC0E0E0A3C5825E
:101DE000CCC582C583CDC583F0A3C582CCC582C5D1
:101DF00083CDC583DAE6D0E0CA22C008C3E096F5F9
:101E00000808A3E096420808A3E096420808A3E069
:101E10009645087001D3D00822C5822518C582C511
:101E200083351910AF07F5198582188007F51985D4
:101E30008218D2AFC5832200C0D0251810AF08F594
:101E400018500C05198008F51850020519D2AFD0AA
:101E5000D0222518F58210AF08F518400C1519800E
:101E600008F51840021519D2AF85198322BB01026B
:101E7000E722C082C08389828A83BB0003E080029C
:101E8000E493D083D082226016080808C6C313C624
:101E900018C613C618C613C618C613C6D5E0EA225C
:101EA000BB000EC082C0838A838982F0D083D08237
:101EB00022BB0101F722251810AF08F518400C15B8
:101EC000198008F51840021519D2AF227403800456
:101ED00074028000C0E0F404121E52D0E0121F7B96
:101EE00022E066701008A3E066700A08A3E066703E
:101EF0000408A3E06622E026F608A3E036F608A36D
:101F0000E036F608A3E036F622E627F60809E637BB
:101F1000F60809E637F60809E637F622700422606B
:101F20000D18C6C333C608C633C6D5E0F41822253B
:101F300018FAE43519FB222518FCE43519FD227541
:101F4000D00075813F751802751903021CDC600C06
:101F500008C6C313C618C613C6D5E0F422E6F008B7
:101F6000A3E6F008A3E6F008A3E6F022E0F608A353
:101F7000E0F608A3E0F608A3E0F622CAC0E0E6F027
:101F8000A308DAFAD0E0FA222518F582E43519F52B
:101F9000832200000080FBE473FFFFFFFFFFFFFFD1
:101FA000FFFFFFFFFFFFFFFFFFFFFFFFFFFFFFFF41
:101FB000FFFFFFFFFFFFFFFFFFFFFFFFFFFFFFFF31
:101FC000FFFFFFFFFFFFFFFFFFFFFFFFFFFFFFFF21
:101FD000FFFFFFFFFFFFFFFFFFFFFFFFFFFFFFFF11
:101FE000FFFFFFFFFFFFFFFFFFFFFFFFFFFFFFFF01
:0A1FF600850609433886000000004C
:020000040003F7
:01FFF000F020
:020000040000FA
:10200000022DCC022231FFFFFFFFFFFFFFFFFFFF8A
:10201000FFFFFFFFFFFFFFFFFFFFFFFFFFFFFFFFD0
:10202000FFFFFFFFFFFFFFFFFFFFFF022A50FFFF41
:10203000FFFFFF022253FFFFFFFFFFFFFFFFFFFF36
:10204000FFFFFFFFFFFFFFFFFFFFFFFFFFFFFFFFA0
:10205000FFFFFF02216BFFFFFFFFFFFFFFFFFFFFFF
:10206000FFFFFFFFFFFFFFFFFFFFFF022A79FFFFD8
:10207000FFFFFFFFFFFFFFFFFFFFFF0228A1FFFFA2
:10208000FFFFFF0221C201FFFFFFFFFFFFFFFFFF76
:1020900010201020010105030101FF0F10FEFFBCFD
:1020A0004D00000000F24C00000000FF000000FFA7
:1020B00000010020FD00020000B73E0000000051BA
:1020C0003E3B3F873EF93E00007B3E0000000000A3
:1020D0000000000000000000000000000000000000
:1020E00000000006FFFFFF00035F005F00300058A4
:1020F00000000000000000000000000000000000E0
:1021000000000000000000000000000000000000CF
:1021100000C326182718271827182720270101048D
:10212000001218000000E8030000FFFFE118E803B8
:10213000000064006400B801A0BB0D00A0BB0D004E
:102140000202000800000502070101051E02051E2B
:10215000020A0A01080803B80B02803E0102FEFFD2
:10216000E8030A050001FFFF0A01E0C0E074F21273
:102170002664A2AFE433F508D2AFAFA7AEA1EE5FFD
:1021800054106006124AE775A1EFEE5F540860082C
:10219000123BDB75A1F78023EEA2E092F0EFA2E004
:1021A00082F05017906198E0F8900777E0C398A20A
:1021B000D265D0335002E8F075A1FE751A00E5082B
:1021C0008066C0E074F2122664A2AFE433FED2AFA0
:1021D0009061A4E0F8759B00E5915854086008757B
:1021E00091F7123C238023E59158541060087591B3
:1021F000EF123C298014E591A2E092F0E8A2E0827F
:10220000F05007E0C2E0F0123D7F9061A3E0F8E5F6
:10221000E9585404600E123D5575E9FB906193E056
:10222000A2E640F2751A00EEA2E092AF7F0102270B
:1022300020C0E074F2122664A2AFE433FED2AF9065
:1022400061A5E0F8E5BF585404600675BFFB123D78
:102250009780D1C0E074F1122664E59DA2E650FAA1
:10226000906206E0F9A2E25034AA2CEA90620BF0E8
:10227000F508852D0974047808122DEBE5089062A5
:1022800007F08A08852D0974097808122DEBE508F6
:10229000543E906209F0906201E0D2E0F0E97829C2
:1022A00046F6906202E0F508750900740478081299
:1022B0002D1C7829E50846F608E50946F6906204E3
:1022C000E0F50875090074097808122D1C782AE5D4
:1022D0000946F6E9A2E05003752B01740659600324
:1022E000752B00E58BA2E55006758BDF752B001270
:1022F00042CB758B00C2E87F02022720C3E498F826
:10230000E499F912233D8026C3E49AFAE49BFBE9A1
:1023100020E7E912233DE498F8E499F922C3E49810
:10232000F8E499F912233DE498F8E499F9C3E49AA2
:10233000FAE49BFB22EB20E7CFE920E7E0B90010AD
:10234000BB0008E88AF084F8AAF022E4FBC8FA226D
:10235000EB70227B10C833C8C933C9335007C39A06
:10236000C3DBF280069A50012ADBEAC833F4C8C9FD
:1023700033F4C9FA2275F008E4C833C8C933C93345
:10238000C99AC99B5004C92AC93BD5F0ECFBC83394
:10239000F4C8E4C9FA2274F51225FE74FA122C135B
:1023A0007508047509007808122B9D7404122BF32C
:1023B0007AF87B077903123AAF7402122B5F90818F
:1023C0003A7808122DDC7402122E697808122C6AF1
:1023D00070497508027509007808122B9D74021265
:1023E0002BF37AF67B077903123AAF7402122B5F54
:1023F000851882851983E0F47003A3E0F4601C85DE
:102400001882851983E0F8A3E0F988828983740231
:10241000F0A3F0A37469F0A374A5F0C2AF75D69FC2
:102420000200007406122B5F7F040228E4080808EB
:10243000EAC0E0EBC0E086F0E7A4FA180986F0E70E
:10244000A42AFA180986F0E7A42AFA180986F0E700
:10245000A42AFA1986F0E7A4FBE5F02AFA190886FF
:10246000F0E7A42BFBE5F03AFA190886F0E7A42B75
:10247000FBE5F03AFA18180986F0E7A4C5F02BFB43
:10248000E43AFA1908E7C5F0C6A426F6E5F03BFBE6
:10249000E43AFA1886F0E7A4F6E5F00826F6E43BFD
:1024A00008F6E43A08F6D0E0FBD0E0FA22122E5EFD
:1024B000B9000302250DE47921780DB800028004EB
:1024C000F709D8FCE49004D178C779158002F0A30D
:1024D000D8FCD9FA781A9020867A01BA00028007CF
:1024E000E493A3F608DAF97A977B1990209478D8C8
:1024F00079018015E493A3AD82AE838A828B83F049
:10250000A3AA82AB838D828E83D8E9D9E77582A096
:102510007583A47406122B417582ED75834A74008D
:10252000122B41E4CFC0E0E4CEC0E0E4CDC0E0E453
:10253000CCC0E075F020E626F608E633F608E63370
:10254000F608E633F6181818EC33FCED33FDEE33DD
:10255000FEEF33FFC3EC9709ED9709EE9709EF976C
:10256000191919400FFFEC97FC09ED97FD09EE973B
:10257000FE191906D5F0BFECF709EDF709EEF709DA
:10258000EFF7191919D0E0FCD0E0FDD0E0FED0E063
:10259000FF222518C582C0E0E51934FFC583C0E0DD
:1025A000E518C3958224F810AF0885831985821831
:1025B0008008858319858218D2AFCEF0A3E520F07C
:1025C000A37808E608F0A3DEFAEFF0A3E58124FA89
:1025D000F8E608F0A3E608F0A3E608F0A30808E68A
:1025E00008F0A3E608F0A315811581D0E0FED0E045
:1025F000F8158115811581E8C0E0EEC0E0222518AC
:10260000C582C0E0E51934FFC583C0E0E518C39575
:102610008224F910AF088583198582188008858384
:1026200019858218D2AFCEF0A3E520F0A37808E692
:1026300008F0A3DEFAEFF0A3E58124FBF8E608F04A
:10264000A3E608F0A30808E608F0A3E608F0A3153F
:10265000811581D0E0FED0E0F815811581E8C0E059
:10266000EEC0E022C0D02518C582C0E0E51934FFD5
:10267000C583C0E0E518C3958224F310AF088583B5
:10268000198582188008858319858218D2AFC8F011
:10269000A3E9F0A3EAF0A3EBF0A37908E709F0A31C
:1026A000D8FAECF0A3EDF0A3EEF0A3EFF0A3D0E0A6
:1026B000F0A3D0E0F0A3D0E0F0A3E520F0A3E5F094
:1026C000F0A32212010002020000205104A8160902
:1026D00000010203010902430002010080190904FC
:1026E000000001020201000524001001042402027E
:1026F00005240600010524010001070582034000AE
:102700004009040100020A0000000705840240009D
:102710000007050402400000DE260000012700003B
:10272000851983851882E0C0E0A3E0F9A3E0FAA34D
:10273000E0FBA37808E0F608A3DFFAE0FCA3E0FDE5
:10274000A3E0FEA3E0FFA3E0C0E0A3E0C0E0A3E0BD
:10275000F5D0A3E0F520A3E0A3F5F010AF08858342
:10276000198582188008858319858218D2AFD08296
:10277000D083D0E0F8D0E03275F0108E218F228522
:102780008226858325851882851983E0CEA3E0CF34
:10279000852682852583EBC9EAC8EDCBECCAC3E860
:1027A00033C8E933C9EA33CAEB33CBC3EA9EF52415
:1027B000EB9FF523B35004AB23AA24EC33CCED33C9
:1027C000CDD5F0DAAE21AF2222D083D082ECC0E0AA
:1027D000EDC0E0E493A3FCE493A3FDED4C600D1287
:1027E0002924EC24FFFCED34FFFD80EFE493A3FCEF
:1027F000E493A3FDED4C600D1229FBEC24FFFCEDEE
:1028000034FFFD80EFD0E0FDD0E0FCE493A3C0E016
:10281000E493C0E022D083D082E9C0E0E493A3C374
:1028200086F0C5F095F0F908E493A386F0C5F0951D
:10283000F0700BE493A3C3994005E9048002A3E47C
:1028400075F002A42582F582E5F03583F583D0E0AA
:10285000F9E493A3C0E0E493C0E0228519838518CE
:1028600082E0A3FEE0A3F5207808E0A3F608DFFAF3
:10287000E0A3FFE0A3C0E0E0A3C0E0E0A3C0E0E08D
:10288000A3C0E0E0A3C0E010AF08858218858319DB
:102890008008858218858319D2AFD083D082022B1D
:1028A00047C0E074F2122664A2AFE433FED2AFE573
:1028B0008AA2E25007900738E0D2E0F0E58AA2E36E
:1028C0005007900738E0D2E1F0758A00C2EB7A1029
:1028D0007B00900734E0F912406DEEA2E092AF7FEA
:1028E00001022720851983851882E0A3FEE0A3F565
:1028F000207808E0A3F608DFFAE0A3FFE0A3C0E039
:10290000E0A3C0E0E0A3C0E0E0A3C0E010AF088512
:1029100082188583198008858218858319D2AFD0E3
:1029200083D08222C0E0C3E4939608740193961882
:10293000400FE49366700808740193661870007085
:1029400019A3A3C3E49396087401939618A3A34014
:102950000DD0E0D0E0D0E0022805A3A3A3A3A3A359
:10296000D0E022D083D082C5F0E493A3C5F0C39514
:10297000F0F5F0E493A3C395F04005E5F004800181
:10298000E475F002A42582F582E5F03583F583E451
:1029900093A3C0E0E493C0E0227404800874038031
:1029A0000474028000CCC0E0EDC0E0E518C39CCC0C
:1029B000AD1950011D10AF068C188D1980068C18AA
:1029C0008D19D2AF122AC3D0E0FDD0E0FC227402F0
:1029D0008000CCC0E0EDC0E0E518C39CCCAD195040
:1029E000011D10AF068C188D1980068C188D19D218
:1029F000AF122AA1D0E0FDD0E0FC22C0E0C0F088F8
:102A0000F0E4936670080874019366187000A8F0EB
:102A1000A3A3700BD0F0D0E0D0E0D0E0022805A353
:102A2000A3D0F0D0E022D083D082CCC0E0E493A346
:102A30006006122AE41470FAE493A36006122C3F95
:102A40001470FAD0E0FCE493A3C0E0E493C0E02269
:102A5000C0E0C0D0E8C0E0E9C0E0A9A8D2AFC2C7DA
:102A6000751A00E9A2E7E433F8E9A2E792AFD0E0F3
:102A7000F9D0E0F8D0D0D0E032C0E074F212266491
:102A8000758900C2C590198FE0700E7A007B109096
:102A9000080DE0F912406D800312493D7F010227C5
:102AA00020CAC0E0E493A3C582CCC582C583CDC54E
:102AB00083F0A3C582CCC582C583CDC583DAE5D0BA
:102AC000E0CA22CAC0E0E0A3C582CCC582C583CDDE
:102AD000C583F0A3C582CCC582C583CDC583DAE6A4
:102AE000D0E0CA22C0E0E493A3D39C5010E493A3A7
:102AF000C39C400AD0E0D0E0D0E0022A43A3A3A3C5
:102B0000D0E022C008C3E096F50808A3E09642088A
:102B100008A3E096420808A3E09645087001D3D0C8
:102B200008227009080808226016181818C6C3334E
:102B3000C608C633C608C633C608C633C6D5E0EADB
:102B400022C09FF59FE473D09F22D083D082C09F84
:102B5000E493C0E0740193C0E0740293F59F2200F7
:102B6000C0D0251810AF08F518500C05198008F5CD
:102B70001850020519D2AFD0D0222518F58210AF17
:102B800008F518400C15198008F51840021519D2DF
:102B9000AF851983227404800A740380067402804E
:102BA000027401C0E0F404122B7AD0E0122E092244
:102BB000BB0102E722C082C08389828A83BB0003F3
:102BC000E08002E493D083D082226016080808C611
:102BD000C313C618C613C618C613C618C613C6D55F
:102BE000E0EA222518F8E43519F9222518FAE43527
:102BF00019FB222518FCE43519FD22C3E0C696F620
:102C000008A3E0C696F608A3E0C696F608A3E0C6B9
:102C100096F622251810AF08F518400C15198008F3
:102C2000F51840021519D2AF22BB000EC082C08336
:102C30008A838982F0D083D08222BB0101F722C02F
:102C4000E0E493A36C7009D0E0D0E0D0E0022A4326
:102C5000A3A3D0E022E76670100809E766700A08AF
:102C600009E76670040809E76622E066701008A3A9
:102C7000E066700A08A3E066700408A3E06622C359
:102C8000E09608A3E09608A3E09608A3E096A2D2F7
:102C900065D03322C3E697F60809E697F60809E6F9
:102CA00097F60809E697F622C3E493960874019311
:102CB000960874029396087403939622C3E096F0E4
:102CC00008A3E096F008A3E096F008A3E096F022AF
:102CD000E026F008A3E036F008A3E036F008A3E011
:102CE00036F022E647F60809E647F60809E647F611
:102CF0000809E647F622E493F608740193F608748F
:102D00000293F608740393F622E056F608A3E05601
:102D1000F608A3E056F608A3E056F62270042260F7
:102D20000D18C6C333C608C633C6D5E0F41822E072
:102D300056F008A3E056F008A3E056F008A3E056CA
:102D4000F022E627F60809E637F60809E637F6081E
:102D500009E637F622E026F608A3E036F608A3E0F7
:102D600036F608A3E036F622E657F60809E657F6E7
:102D70000809E657F60809E657F622E4C396F6086E
:102D8000E496F608E496F608E496F622C3E0960880
:102D9000A3E09608A3E09608A3E09622C6F4C6082E
:102DA000C6F4C608C6F4C608C6F4C622600D08C636
:102DB000A2E713C618C613C6D5E0F322C3E79608E8
:102DC00009E7960809E7960809E7962275D0007585
:102DD000813F7518D1751904000224ADE0F608A3EF
:102DE000E0F608A3E0F608A3E0F622600C08C6C3EC
:102DF00013C618C613C6D5E0F422E6F008A3E6F021
:102E000008A3E6F008A3E6F022CAC0E0E6F0A308B3
:102E1000DAFAD0E0FA22E0F8A3E0F9A3E0FAA3E0BE
:102E2000FB22E0FCA3E0FDA3E0FEA3E0FF22EAF02A
:102E3000A3EBF0A3ECF0A3EDF022E0FAA3E0FBA3F8
:102E4000E0FCA3E0FD22ECF0A3EDF0A3EEF0A3EF95
:102E5000F022E8F0A3E9F0A3EAF0A3EBF022E5C743
:102E600054F84401F5C77901222518F582E4351993
:102E7000F58322122B4A6CA802122B4A29AC0212AB
:102E80002B4A3DAC02122B4A47AC02122B4A51ACE2
:102E900002122B4A5BAC02122B4A65AC02122B4A7F
:102EA0007EAC02122B4A88AC02122B4AFFAC0212F3
:102EB0002B4A0AAD02122B4A39AD02122B4A61ADE0
:102EC00002122B4A6CAD02122B4AD1AD02122B4AD0
:102ED000DBAD02122B4AE6AD02122B4A0AAE0212F9
:102EE0002B4A2EAE02122B4AA0AE02122B4AE9AE9A
:102EF00002122B4A05AF02122B4A76AF02122B4A5E
:102F0000C2AF02122B4A0BB002122B4A49B0021276
:102F10002B4ACAB002122B4A71B102122B4A36B3A5
:102F200002122B4A9BB302122B4AC9B402122B4A3B
:102F3000EFB402122B4A37B602122B4A71B90212B1
:102F40002B4A6FBB02122B4A3ABD02122B4AD3BD49
:102F500002122B4AD4BF02122B4A89C002122B4AFA
:102F6000C2C002122B4A32C102122B4A3CC10212C9
:102F70002B4A65C302122B4A68C402122B4AA5C50C
:102F800002122B4AFCC502122B4AA7C602122B4A78
:102F900057C802122B4AA4C902122B4AC4C90212F2
:102FA0002B4A19CA02122B4A1ACB02122B4A42CBC5
:102FB00002122B4AA1CB02122B4A99CC02122B4AA5
:102FC00010CD02122B4A23CE02122B4A91CE0212AE
:102FD0002B4A90CF02122B4AEAD102122B4A13D26B
:102FE00002122B4A79D302122B4AFBD402122B4A2B
:102FF00052D502122B4A00D602122B4AA5D6021233
:103000002B4A08D702122B4AC6D702122B4A58D88D
:1030100002122B4AB7D802122B4AF9D802122B4AB5
:103020002AD902122B4A81DA02122B4A008003129B
:103030002B4A328003122B4A6B8003122B4A3482B4
:1030400003122B4A788203122B4A4E8303122B4A17
:10305000AD8303122B4AC38403122B4A0F8503123C
:103060002B4A9D8703122B4A818A03122B4AC88B55
:1030700003122B4A608C03122B4A6C8C03122B4ACE
:10308000B58C03122B4AF78D03122B4AED8E0312D7
:103090002B4A178F03122B4A6D8F03122B4AC68FB0
:1030A00003122B4A399003122B4A6F9203122B4AB8
:1030B000F19303122B4ADA9403122B4A249603123B
:1030C0002B4A5C9803122B4A599B03122B4A689B8C
:1030D00003122B4AFC9B03122B4AA79C03122B4A78
:1030E000EA9C03122B4A339D03122B4A839D031241
:1030F0002B4AE79D03122B4A599E03122B4A759EB9
:1031000003122B4AA49E03122B4AE39E03122B4A5E
:10311000DE9F03122B4A8DA003122B4A0AA303122F
:103120002B4A3CA403122B4A14A503122B4A96A542
:1031300003122B4ACBA903122B4AFAA903122B4ADA
:1031400055AA03122B4A88AA03122B4A00AB03127A
:103150002B4A38AB03122B4A88AB03122B4AF7AC2D
:1031600003122B4A1BAD03122B4A55AD03122B4AF7
:1031700062AD03122B4A65AD03122B4A94AD0312C4
:103180002B4A8CAF03122B4A4BB003122B4A7AB056
:1031900003122B4A98B103122B4A60B203122B4A36
:1031A00021B403122B4A91B403122B4AC3B4031265
:1031B0002B4A29B503122B4A38B503122B4A65B5A1
:1031C00003122B4A7FB503122B4AF2B503122B4A86
:1031D00016B803122B4A75B803122B4AC9B803124A
:1031E0002B4AF8BA03122B4ADBBB03122B4A63BCEF
:1031F00003122B4A47BD03122B4AD1BD03122B4A9F
:10320000E5BD03122B4AF9BD03122B4A0DBE031272
:103210002B4A21BE03122B4A4EBE03122B4A7EBEFE
:1032200003122B4A39C003122B4A0FC103122B4A37
:10323000B3C103122B4A08C203122B4A51C2031214
:103240002B4AD5C203122B4A1CC303122B4A8EC32E
:1032500003122B4AE3C403122B4A8CC503122B4AD8
:10326000A4C503122B4A47C603122B4AC3C8031234
:103270002B4A6BCA03122B4A89CA03122B4A9F811D
:1032800001122B4AE18101122B4A4E8701122B4A6F
:103290009A8701122B4AE08701122B4A31890112C9
:1032A0002B4A968901122B4ADA8901122B4A408B4C
:1032B00001122B4A9B8E01122B4ACE8F01122B4AF0
:1032C0005D9B01122B4AED9B01122B4AD79E0112E6
:1032D0002B4A3CA001122B4A9FA001122B4ABBA1F2
:1032E00001122B4A25A301122B4A04A401122B4AD6
:1032F00072A601122B4A04A801122B4A95A80112AA
:103300002B4AB4A901122B4A41AA01122B4A4BAAFB
:1033100001122B4A73AA01122B4A16AB01122B4A37
:1033200001AC01122B4AC9AC01122B4A56AD011255
:103330002B4A6CAD01122B4A89AD01122B4AB2AD5A
:1033400001122B4ADFAD01122B4A23B001122B4A86
:10335000F6B001122B4A3AB101122B4ABCB101124C
:103360002B4A5DB201122B4A8FB201122B4AD6B200
:1033700001122B4A09B301122B4A4DB301122B4AF9
:103380009CB301122B4AA1B301122B4AFDB30112C7
:103390002B4A41B401122B4A2BB501122B4A90B58E
:1033A00001122B4AEEB501122B4A6DB601122B4ABF
:1033B000E5B901122B4AE8BA01122B4A7EBC011270
:1033C0002B4AC1BF01122B4A63C001122B4AACC267
:1033D00001122B4A67C301122B4AA6C301122B4AC2
:1033E0006AC501122B4A87C501122B4A90C50112EA
:1033F0002B4A99C501122B4AA4C501122B4AC3C5F9
:1034000001122B4AE7C701122B4A44C801122B4A6A
:103410004EC801122B4A58C801122B4ABBC80112D0
:103420002B4A17C901122B4A24CA01122B4A85CAFA
:1034300001122B4A96CB01122B4ADFCB01122B4AE9
:10344000A9CC01122B4AC0CD01122B4A84CE011205
:103450002B4AD0CF01122B4AD4D001122B4ACDD106
:1034600001122B4AE5D101122B4A1CD201122B4A20
:1034700026D201122B4A30D201122B4A3BD2011222
:103480002B4A59D201122B4AA1D201122B4AFFD248
:1034900001122B4A26D301122B4A38D301122B4A90
:1034A000E1D301122B4A1AD401122B4A4BD5011237
:1034B0002B4AA8D501122B4A99D601122B4ACFD6F6
:1034C00001122B4A3FD701122B4ABBD701122B4ABC
:1034D0003CD901122B4A63DA01122B4A25DB011277
:1034E0002B4AF3DB01122B4A78DC01122B4A27DD31
:1034F00001122B4A0FDE01122B4AA8DE01122B4AC1
:1035000084DF01122B4AECDF01122B4AABE00112DF
:103510002B4A07E101122B4A6BE101122B4A31E2DF
:1035200001122B4A54E201122B4A0EE301122B4ADC
:1035300030E301122B4A91E301122B4AC1E501123B
:103540002B4ABAE601122B4A66E701122B4A83E99D
:1035500001122B4ACCE901122B4A17EA01122B4A1D
:1035600073EA01122B4AD1EA01122B4AF5EA011241
:103570002B4A19EB01122B4A4EEB01122B4A76EB28
:1035800001122B4ABBEB01122B4A19EC01122B4AF8
:1035900072EC01122B4A6CED01122B4A18EF01124A
:1035A0002B4A5DEF01122B4A86EF01122B4A0FF0D6
:1035B00001122B4A82F001122B4A90F001122B4A81
:1035C000B4F001122B4A0AF101122B4A25F1011223
:1035D0002B4AE0F101122B4A0CF201122B4A4FF256
:1035E00001122B4AB2F201122B4AC2F401122B4AE9
:1035F000EEF401122B4AA9F501122B4A8DF60112A5
:103600002B4A21F701122B4A0CB205122B4A44B265
:1036100005122B4A65B205122B4AA7B205122B4A96
:103620000BB305122B4A15B305122B4A25B305120D
:103630002B4A5CB305122B4A05B705122B4ACDB8AD
:1036400005122B4AB1BA05122B4A53BB05122B4A5D
:10365000DDBB05122B4A508004122B4AF98004125C
:103660002B4AD88104122B4AE48204122B4A048389
:1036700004122B4A268404122B4AD68504122B4AA4
:10368000438604122B4A148704122B4A1A88041208
:103690002B4A928804122B4ACD8804122B4A268981
:1036A00004122B4A618904122B4AAA8904122B4A5C
:1036B0003E8A04122B4AD48A04122B4AA98B041284
:1036C0002B4A7C8C04122B4A0A8D04122B4A308D13
:1036D00004122B4A5D8D04122B4A8E8D04122B4A44
:1036E0005B8E04122B4A6B8E04122B4ABE8E041280
:1036F0002B4ACB8E04122B4AD88E04122B4AE18E11
:1037000004122B4A458F04122B4AA38F04122B4A12
:10371000EE8F04122B4A099004122B4A30900412A7
:103720002B4A4D9004122B4A599004122B4AEA91CD
:1037300004122B4A039204122B4A7F9204122B4A42
:10374000929204122B4AA29204122B4A469304121C
:103750002B4AB29404122B4AC59504122B4A659643
:1037600004122B4A6F9604122B4AEE9604122B4A2F
:10377000FF9604122B4A3E9704122B4A6C970412B0
:103780002B4A399804122B4A909804122B4AC99854
:1037900004122B4A1F9904122B4A3D9904122B4AFA
:1037A0008B9904122B4A569A04122B4AA49A04129B
:1037B0002B4AF19A04122B4A749B04122B4A9E9BAB
:1037C00004122B4AD49B04122B4AE39B04122B4A6B
:1037D000429C04122B4ABA9C04122B4AFB9C0412F2
:1037E0002B4A4B9D04122B4A769D04122B4A909D26
:1037F00004122B4AAA9D04122B4A7F9E04122B4AC4
:10380000899E04122B4AC49E04122B4AD49E041291
:103810002B4ADD9E04122B4A2E9F04122B4A429FF4
:1038200004122B4A64A004122B4A77A004122B4ADC
:103830008EA004122B4AA3A004122B4A36A1041214
:103840002B4AAAA104122B4A4FA204122B4A5AA2B5
:1038500004122B4ABDA304122B4AD9A304122B4AEB
:1038600025A404122B4A93A404122B4AC5A40412C3
:103870002B4ADFA404122B4A3FA504122B4ADEA5D3
:1038800004122B4A29A604122B4A7CA804122B4AA4
:1038900014A904122B4A8BA904122B4AE8AB041278
:1038A0002B4A00AC04122B4A03AC04122B4A0FAC77
:1038B00004122B4A23AC04122B4A2BAC04122B4AC1
:1038C00062AC04122B4A56AD04122B4AE0AD04122E
:1038D0002B4A62AE04122B4AE2AE04122B4AB9AF55
:1038E00004122B4ADBAF04122B4A74B004122B4A89
:1038F000D1B004122B4AD4B004122B4A01B10412E5
:103900002B4A16B104122B4A85B104122B4AD1B2AC
:1039100004122B4AE4B304122B4A6FB404122B4A4C
:1039200082B504122B4A49B604122B4A7AB6041205
:103930002B4AA0B604122B4AA9B604122B4AD8B6B9
:1039400004122B4A88B704122B4A38B804122B4AA7
:10395000ABB804122B4A4EB904122B4AC1B9041257
:103960002B4A00BA04122B4A49BA04122B4A7EBAD7
:1039700004122B4A258D05122B4A928D05122B4AD3
:10398000D98D05122B4A4F8E05122B4AA18E051296
:103990002B4A278F05122B4A6B9105122B4A9A93BB
:1039A00005122B4A779705122B4AF79705122B4AD7
:1039B000329805122B4A509805122B4AB0980512DE
:1039C0002B4AD89805122B4A089905122B4A399987
:1039D00005122B4A669905122B4ABF9905122B4AEC
:1039E0000A9A05122B4A419A05122B4ABD9A0512D2
:1039F0002B4AE99A05122B4A1B9B05122B4A7D9CE8
:103A000005122B4A999C05122B4AD79C05122B4A6A
:103A1000649D05122B4AC09D05122B4A869E0512F5
:103A20002B4A459F05122B4A8A9F05122B4AEB9F72
:103A300005122B4A60A005122B4A9AA005122B4AA8
:103A4000F2A005122B4A14A105122B4AACA10512B3
:103A50002B4A53A205122B4AA0A205122B4AC9A237
:103A600005122B4A0AA305122B4AB7A405122B4AAA
:103A70009BA505122B4A4CA605122B4A0EB4061222
:103A80002B4A1FB406122B4ABDB406122B4AEF7FF5
:103A900000122B4AE5FF01122B4A25B306122B4ACE
:103AA00035B306122B4A4DB306122B4A01B4061247
:103AB0002B4A2FB106122B4AB3B106122B4A19B268
:103AC00006122B4AD7B406122B4ADAB406122B4A36
:103AD00013B506122B4A69B506122B4A7CB506129D
:103AE0002B4A7FB506122B4A168406122B4A2484D1
:103AF00006122B4A9D8406122B4A728506122B4A07
:103B0000318706122B4A968706122B4AF587061232
:103B10002B4AF87F00122B4A93A206122B4ACBA203
:103B200006122B4A19A406122B4A9DA406122B4AF0
:103B30004DFD02122B4AEEFD02122B4A27FE021205
:103B40002B4A72FE02122B4A3BFF02122B4A65FFE0
:103B500002122B4A8BFF02122B4A9FFF02122B4AA2
:103B6000B4FF02122B4ABDFF02122B4A53DC05128E
:103B70002B4A7FDC05122B4A25DF05122B4A7CDFFE
:103B800005122B4AB8DF05122B4ACCDF05122B4A4F
:103B9000E5DF05122B4AD6E005122B4AB2E10512E9
:103BA0002B4AC6E105122B4A2CA806122B4A50A814
:103BB00006122B4A69A806122B4AA7A806122B4AFE
:103BC000DDA806122B4A10A906122B4A1AA90612C2
:103BD0002B4A86A906122B4AA39E02122B4A93A9AE
:103BE00006122B4AA0A906122B4ACA9806122B4A83
:103BF000ED9806122B4A389906122B4A569906124E
:103C00002B4A719906122B4AD79906122B4AE3992F
:103C100006122B4A409A06122B4A649A06122B4A25
:103C20002A9B06122B4A379B06122B4A489B0612E8
:103C30002B4A73B706122B4A8BB706122B4AB7B71B
:103C400006122B4A92A602122B4AD5ED05122B4AD8
:103C5000E3ED05122B4AF7ED05122B4A14EE05127F
:103C60002B4A29EE05122B4A3CEE05122B4ABEEEDA
:103C700005122B4A24EF05122B4AADEF05122B4AF1
:103C800025F005122B4AFEF005122B4A0EF1051203
:103C90002B4A1DF105122B4A3CB606122B4A60B680
:103CA00006122B4A88B606122B4AB0B606122B4AC9
:103CB000769B06122B4A9D9B06122B4ABC9B061232
:103CC0002B4A319C06122B4AF79506122B4A109666
:103CD00006122B4A279606122B4A309606122B4ABA
:103CE0004E9606122B4A589606122B4A62960612D8
:103CF0002B4A759606122B4A029706122B4A719789
:103D000006122B4A9F9706122B4AF09706122B4A4F
:103D10003C9806122B4A579806122B4A61980612B5
:103D20002B4A729806122B4AB59806122B4A8AFF24
:103D300005122B4AD5FF05122B4A8CBC05122B4AC3
:103D4000B8BC05122B4ADBBC05122B4AEEBC05128F
:103D50002B4A09BD05122B4A6DBD05122B4A9BBD8E
:103D600005122B4AA8C105122B4AEAC205122B4A9A
:103D70001CC305122B4A87C305122B4A0BC505121B
:103D80002B4A33C505122B4A48C505122B4A58C584
:103D900005122B4A98C505122B4ADAC505122B4A83
:103DA000EAC505122B4A73AC06122B4A83AC0612E5
:103DB0002B4AA7AC06122B4AD0AC06122B4AFAACFF
:103DC00006122B4A1EAD06122B4A35AD06122B4A9F
:103DD00063AD06122B4A86AD06122B4A39FF041238
:103DE0002B4A7FFF04122B4AFB8B06122B4A0B8CAB
:103DF00006122B4A298D06122B4A5D8D06122B4A7C
:103E00007F8D06122B4AA78D06122B4AC08D0612F3
:103E10002B4AFC8D06122B4A628E06122B4AA78E65
:103E200006122B4AEC8E06122B4A198F06122B4AC9
:103E3000518F06122B4AF47B00122B4A567C00123B
:103E40002B4AFD7C00122B4A357D00122B4A008044
:103E500005122B4AAF8005122B4AE38205122B4A2A
:103E6000B68505122B4A368705122B4A988705120C
:103E70002B4AA38A05122B4AE78B05122B4ABEADAB
:103E800006122B4A09AE06122B4A02E705122B4AEC
:103E9000C1E905122B4A5EEA05122B4A8AEA05128D
:103EA0002B4AB8EA05122B4AEDEA05122B4A15EB0C
:103EB00005122B4A75EB05122B4A39A705122B4A1E
:103EC00031AB05122B4A28AD05122B4A56AE05120E
:103ED0002B4A32AF05122B4ACDB005122B4A9AB1AC
:103EE00005122B4AEEB105122B4A039E06122B4AED
:103EF0000D9E06122B4A2E9E06122B4AE2E9041250
:103F00002B4A06EF04122B4A35F004122B4A11F209
:103F100004122B4A9CF204122B4A30F304122B4A4F
:103F200029F404122B4A60F504122B4A6DF6041290
:103F30002B4A52F704122B4AC9CA03122B4A01CB4F
:103F400003122B4A5ED503122B4A48D603122B4A82
:103F500098D703122B4AE3D803122B4A8ED90312A7
:103F60002B4A61DA03122B4AF8DA03122B4ADCDB04
:103F700003122B4ADFDC03122B4AA1DD03122B4A6A
:103F8000CFDD03122B4A47DF03122B4AD0DF031287
:103F90002B4AE9DF03122B4A43E103122B4AF5E1D6
:103FA00003122B4A84E203122B4A33E303122B4AF7
:103FB00096E303122B4A32E403122B4AABE40312BA
:103FC0002B4AC9E403122B4A96E503122B4A65E6F5
:103FD00003122B4A1BE703122B4AAAA906122B4AEB
:103FE000D4A906122B4AE8AA06122B4AEBAA0612FB
:103FF0002B4AD5B606122B4A17B706122B4A59B7C9
:1040000006122B4A69B706122B4ACDD505122B4A48
:1040100014D605122B4A7DD605122B4A9ED60512C0
:104020002B4AB7D605122B4A67D705122B4A70D7F1
:1040300005122B4AC1D705122B4AF7D705122B4A76
:104040000ED805122B4A7BD805122B4A0BD9051224
:104050002B4A41D905122B4A8AD905122B4AEBD992
:1040600005122B4A25DA05122B4A8DDA05122B4A46
:10407000E0DA05122B4A23DB05122B4A60DB05121E
:104080002B4A72DB05122B4A84DB05122B4ABEDB5E
:1040900005122B4AFEDB05122B4A27DC05122B4AA0
:1040A0004EF105122B4A94F205122B4ABDF205126D
:1040B0002B4ACEF205122B4AE6F405122B4A06F5DE
:1040C00005122B4A4FA006122B4A85A006122B4A36
:1040D000D4A006122B4A30A206122B4AD0D50412C5
:1040E0002B4A0ED704122B4A4AD704122B4A0FD957
:1040F00004122B4A39D904122B4ABFDB04122B4A73
:10410000FFDB04122B4A95DD04122B4A2ADE04122F
:104110002B4A88DE04122B4A0EDF04122B4A46DF9C
:1041200004122B4A88DF04122B4AF5E004122B4AB2
:1041300079E204122B4AB3E404122B4AE1E404129C
:104140002B4A0DE504122B4A16E504122B4A6CE5A6
:1041500004122B4AFCE504122B4A03E904122B4AF1
:1041600085E904122B4A88B506122B4A9EB5061221
:104170002B4AA8B506122B4A04B606122B4A24FB7A
:1041800005122B4A3DFB05122B4AE2FB05122B4A76
:1041900022FC05122B4A3BFC05122B4A6EFC051231
:1041A0002B4ABBFC05122B4AEFFC05122B4A31FDB2
:1041B00005122B4A0AFF05122B4A75FF05122B4ADE
:1041C000F2AE06122B4A47AF06122B4AA1AF0612D7
:1041D0002B4A1CB006122B4A8EB006122B4ACCB0CA
:1041E00006122B4A0DB106122B4AE2F701122B4A96
:1041F000E8F701122B4A2FF801122B4A3BFA011261
:104200002B4A6BFA01122B4AD5FA01122B4A90FB6A
:1042100001122B4AD3FB01122B4A04FC01122B4A38
:104220008EFC01122B4AA5FC01122B4AB2FC011292
:104230002B4ABCFC01122B4A5CFE01122B4A4EFF9A
:1042400001122B4AACFF01122B4A1AC605122B4A47
:1042500030C605122B4AE2C605122B4A0CC80512BD
:104260002B4A01C905122B4A98C905122B4AD3C9FA
:1042700005122B4A45CA05122B4AA3CA05122B4A1E
:10428000B3CA05122B4ADACA05122B4A2CCB0512E7
:104290002B4A98CC05122B4A9DCC05122B4ABFCC39
:1042A00005122B4A7DFF03122B4AABFF03122B4A48
:1042B000E0FF03122B4AE2FF03122B4AE4FF031232
:1042C0002B4AF5FF03122B4AF7FF03122B4AFAFF82
:1042D00003122B4A9DA606122B4A0BA706122B4A45
:1042E0002DA706122B4A65A706122B4A9BA706127A
:1042F0002B4AE49206122B4A269306122B4A499324
:1043000006122B4A7C9506122B4A969506122B4ACA
:10431000C19506122B4AF8B706122B4AF3F704127E
:104320002B4AD1F804122B4AB7F904122B4AC8F9C8
:1043300004122B4AD9F904122B4A25FA04122B4AEB
:1043400016FC04122B4A6BFD04122B4A9BFD04122F
:104350002B4A5FFE04122B4ABDFE04122B4ADDDA03
:1043600002122B4A38DB02122B4AD8DB02122B4AEC
:1043700055DD02122B4A41DE02122B4AFEDE0212EA
:104380002B4A15DF02122B4A64DF02122B4AD8DFB8
:1043900002122B4A33E002122B4A46E002122B4A49
:1043A000AAE002122B4A19E102122B4A31E1021251
:1043B0002B4AE4E302122B4AE9E402122B4A44E5B9
:1043C00002122B4A8AE502122B4A40E802122B4ABB
:1043D00090E802122B4A11E902122B4A53E9021209
:1043E0002B4A2DEA02122B4A66EA02122B4A85EA70
:1043F00002122B4AD0EA02122B4AF0EA02122B4A8E
:10440000ABEB02122B4A79EC02122B4A84EC02121B
:104410002B4AD2EC02122B4A27ED02122B4A73EDE3
:1044200002122B4ACEEE02122B4A01EF02122B4A45
:1044300099F102122B4ACCF102122B4AE0F202123D
:104440002B4A0FF302122B4A87F302122B4A62F413
:1044500002122B4AA4F402122B4A18F502122B4A1C
:1044600032F602122B4A7FF602122B4A89F602120A
:104470002B4A8CF602122B4A96F602122B4AB2F6FF
:1044800002122B4A2AF702122B4A63F702122B4A16
:104490007FF702122B4AABF702122B4AD2F7021215
:1044A0002B4AF6F702122B4A6FF802122B4AE2F857
:1044B00002122B4A25F902122B4A2FF902122B4A1B
:1044C0005EF902122B4A74F902122B4A90F9021279
:1044D0002B4ABFF902122B4ADFF902122B4A28FAA3
:1044E00002122B4A63FA02122B4A6FFB02122B4A6A
:1044F000D2FC02122B4AF1FC02122B4A08FD0212D6
:104500002B4A1AFD02122B4A32B206122B4A43B230
:1045100006122B4ACCB206122B4ADAE105122B4ABC
:1045200018E205122B4AB1E205122B4ABCE3051230
:104530002B4A04E605122B4A81E605122B4A94CE3B
:1045400005122B4AE3CE05122B4AA1D005122B4AA5
:1045500075D205122B4AB3D205122B4A94D30512F9
:104560002B4A9ED405122B4AC0D405122B4A1CD5C7
:1045700005122B4A9DD505122B4ADA5000122B4A00
:10458000FC5000122B4A6B5200122B4AB4520012FC
:104590002B4A255300122B4AA85300122B4A1F54B2
:1045A00000122B4A665400122B4ADD5400122B4A8B
:1045B000815500122B4AF65500122B4A3356001231
:1045C0002B4A7B5A00122B4A9E5C00122B4AD75C66
:1045D00000122B4A165D00122B4A126000122B4A61
:1045E000A26000122B4A566200122B4A90630012FE
:1045F0002B4AB06400122B4A216500122B4A026636
:1046000000122B4A856600122B4A996600122B4A2B
:10461000686700122B4A9F6800122B4ACE6A00126C
:104620002B4ADD6C00122B4AC96D00122B4A6070B8
:1046300000122B4A357100122B4A747200122B4A59
:10464000A47500122B4AB47500122B4AEA760012A8
:104650002B4A837700122B4AB47800122B4A227916
:1046600000122B4A5B7A00122B4A967A00122B4AD0
:104670003F7B00122B4AE9BA04122B4A8BBB04126F
:104680002B4AF7BB04122B4A11BC04122B4A93BCD1
:1046900004122B4ACDBC04122B4ACFBD04122B4A64
:1046A00011BE04122B4A83BE04122B4AD3BE04123D
:1046B0002B4A32BF04122B4ADEBF04122B4AC8C257
:1046C00004122B4A8FC304122B4AF5C304122B4A3F
:1046D0009DC504122B4A36C604122B4ACFC60412BB
:1046E0002B4A32C704122B4AA8C704122B4AA9C866
:1046F00004122B4A9AC904122B4AD5C904122B4A18
:10470000ECC904122B4ACACA04122B4A08CB041261
:104710002B4A90CB04122B4ADDCC04122B4AA1CE9B
:1047200004122B4ADFCF04122B4A12D104122B4A57
:1047300026D204122B4ABDD204122B4A2CD30412C7
:104740002B4A39D404122B4AE0E703122B4A4BE8D8
:1047500003122B4A93E803122B4AFAE803122B4A5E
:1047600056E903122B4A91E903122B4A2DEA031250
:104770002B4A87EA03122B4AF3EB03122B4A6CEC09
:1047800003122B4AA3ED03122B4ACBED03122B4A43
:10479000A9EE03122B4ABAEE03122B4AD2EE0312F1
:1047A0002B4AC9EF03122B4AECEF03122B4AB5F048
:1047B00003122B4ADFF003122B4AF6F003122B4AA6
:1047C00010F103122B4A3CF103122B4A5CF1031245
:1047D0002B4A82F103122B4A99F103122B4A6EF2F3
:1047E00003122B4AC8F203122B4A99F303122B4AE5
:1047F00015F403122B4A2CF403122B4AAFF40312C4
:104800002B4AF7F403122B4A1DF503122B4A75F6B7
:1048100003122B4A7AF603122B4AB8F603122B4ADC
:104820002FF703122B4A9BF703122B4A96F8031219
:104830002B4A70F903122B4ABCF903122B4AD4FA03
:1048400003122B4AD0FB03122B4A72FC03122B4A91
:10485000B8FC03122B4ACDFC03122B4ADFFD0312D6
:104860002B4A80FE03122B4ADCFE03122B4A0988D6
:1048700006122B4AC48906122B4A8C8A06122B4A2E
:10488000E18A06122B4A678B06122B4A0080061219
:104890002B4A1E8006122B4A628006122B4A888001
:1048A00006122B4AAF8006122B4AC78006122B4AEB
:1048B000DF8006122B4AF78006122B4A9D810612D2
:1048C0002B4ADF8106122B4AF48106122B4AFB8207
:1048D00006122B4A168306122B4A1F8306122B4AF6
:1048E000288306122B4A318306122B4A3B83061279
:1048F0002B4AB88306122B4A5AF605122B4A9CFA09
:1049000005122B4AB8FA05122B4ABDFA05122B4A9A
:104910001CA506122B4AA58F06122B4ABB8F061226
:104920002B4A3C9106122B4A669106122B4AAC91F7
:1049300006122B4AB59206122B4A18AB06122B4AC6
:1049400066B806122B4A8BB806122B4A309E02120A
:104950002B4A149E02122B4AF69D02122B4ADE9C11
:1049600002122B4AB99C02122B4AC99B02122B4AF3
:10497000559B02122B4ABE9A02122B4A4C9A0212E3
:104980002B4A3B9A02122B4A169A02122B4A329950
:1049900002122B4A4E9802122B4A649502122B4A9D
:1049A000219402122B4A889102122B4A439102123F
:1049B0002B4AE99002122B4A4A9002122B4AF58F99
:1049C00002122B4A228F02122B4A5C8E02122B4AB1
:1049D000208E02122B4AB38D02122B4AAB8D02128B
:1049E0002B4A208D02122B4A56A602122B4AB08C5B
:1049F00002122B4A25A502122B4AA6A402122B4A08
:104A00006BA302122B4A5BA302122B4A2FA20212A3
:104A10002B4A4DA002122B4A44A002122B4A37A067
:104A200002122B4A018C02122B4AF68B02122B4ADD
:104A3000E78B02122B4AC68B02122B4A3A9F0212B4
:104A40002B4A928B02122B4A668B02122B4A388A0F
:104A500002122B4A2C8802122B4A71EC05122B4AA7
:104A6000FD8702122B4AB29E02122B4AE1870212E4
:104A70002B4A8B8702122B4A528702122B4ACA8674
:104A800002122B4A7E8602122B4A378602122B4ACA
:104A90006A8502122B4AEE8402122B4A46840212C5
:104AA0002B4A9F8302122B4A418302122B4A168300
:104AB00002122B4AC78202122B4A898202122B4A07
:104AC000668202122B4A4D8202122B4A0582021282
:104AD0002B4A008002122B4A4F8102122B4AC380BC
:104AE00002122B4A578002122B4A89A906000000A5
:104AF00080FBE4738F000100821987000100811997
:104B000035000400311A25000200351A2600020083
:104B1000371A27000200391A28000100431A290019
:104B20000100441A84000400451A86000100491A55
:104B30002A0001004A1A2B0001004B1A2C00010028
:104B40004F1A2D00080063192E000100501A2F0083
:104B50000100511A30000100521A31000100531AAD
:104B6000320001006B19330001006C1934000100A0
:104B7000541A360001006D1938000100551A390029
:104B800001004E1A83000200691A630001007E19B9
:104B9000640001004C1A650001004D1A6D0001000F
:104BA0007F19710008005B1966000100681A430054
:104BB0000100591A440002005A1A450001005C1A0B
:104BC000460002005D1A47000800761948000100FF
:104BD0005F1A4B000100601A040001006B1AA1006B
:104BE00001006D1A370001006C1A8800010083195A
:104BF0003C0001006E193D000100561A49000200F8
:104C0000611A6700010080194D000200631A4E000E
:104C10000100651A4F000200661A3E000100751976
:104C2000510001006F1952000100571A5300010092
:104C3000581A540001007019000000000000000123
:104C400036360101000102010001030100010401E7
:104C5000060605020000070100340801000F0904E0
:104C600001010D0100FF0E080000170200001901EC
:104C700000FF1A0100011B0100FE1C0100081D02BB
:104C800000001F010001200100012102000023019A
:104C9000000F24020000260100012701000828025D
:104CA00000FF2A0100072B0102402C0100002D010A
:104CB00000012E0100012F0100FF30010B1D310802
:104CC00000003A0100083B01000F3C0100013D01DA
:104CD00000FF3E04000042040000460400004A04B5
:104CE00000004E04000052040000560400005A0464
:104CF0000000010371030103010301030103010328
:104D00002203020301031003000300030003000356
:104D1000000300030003420300032403060300030F
:104D200000030403120325032303250323030403C1
:104D300004030003000300034403000300032303F0
:104D4000000365032100350381030003050300030D
:104D5000000300030003250323030304710402047A
:104D6000600411047004020402040104020410042B
:104D700061040004140463047304720462044304B1
:104D800000041304060400040004040412040004D4
:104D90000004000400045104640000040004000442
:104DA0004404000400040004000465040004350405
:104DB00081046400050400048304000403007100FE
:104DC00030016000110070003102200350048000A7
:104DD00010006100000014006300730072006200A4
:104DE0004300000013000600000000000400120051
:104DF000000000000000000004000400370037003D
:104E00003C024400000000000000000065000000BB
:104E10003500810000000500000083000000010152
:104E200071010101010111010101310101010101C2
:104E30008001100161013B001400630173017201E4
:104E4000620143010001130106013D013500040127
:104E500012010001000100010001040104013301FD
:104E600033013C01440132013600000100016501BB
:104E7000000135008101000105018201830100016B
:104E8000030271023001600211027002010202028B
:104E900002028002100261023A00410063027302C2
:104EA0007202620243020002130238000002000292
:104EB00004021202000200020002000204020402C4
:104EC000370037003C0244020002390000020002B1
:104ED000650200023502810200020502820283029D
:104EE000000236000100060000000F000000000074
:104EF000000000000000000003FFFF00000403FFAB
:104F0000FF0000FFFF0FF4010005C40403200001AF
:104F100000000B000000000000000003010F000073
:104F20000000000000000000000000000000000081
:104F30000000000000000000000000000000000071
:104F40000000B546130013461F0019461F801F4678
:104F50000100B54602009B450300A1450400A7459A
:104F60000500AD450600B9453000D7453100D145B3
:104F70003200E3453300E9453500EF453400F5459F
:104F80003600FB451100074614000D461500CB45C1
:104F9000FFFF00000A000000020000000400000003
:104FA0000800000010000000200000004000000089
:104FB000800000000001000000020000000400006A
:104FC0000008000000100000002000000040000069
:104FD00001C33206F93208F3320B113310DB2F0A0A
:104FE000233302C93205E73207CF320CAB320DB79B
:104FF0003264B549FF000007ECFDFDFDECDCDCCCC4
:10500000BCACAC9C9C8C7C7C6C6C5C5C5C4C4C3C10
:105010003C2C2C1C1C03EAF5E5D5D5C5B5A595950A
:1050200085857575656555554545353525251515B0
:105030000500160F00000B150B020002220F3300B3
:10504000000E5A6967426565416C6C69616E636503
:10505000303901030507090B0D0F00020406080A89
:105060000C0D00034A49434E181A25050200011988
:1050700016181616182303000C0E020B040B0A0751
:1050800008000F303016181920231A1C1E30003962
:105090003D3F373C3C362C442D3030171819213019
:1050A0001B1D1F30020402010101010902E8030077
:1050B0000000BE040A000000007F00E8030E00109C
:1050C0000C0A030305090008000CFF1E1E28050832
:1050D0000304040910150401080CC082C083901851
:1050E000D9E4F0A3F07CED7D047AF27B171241E164
:1050F00012498512302912497F02669274F31225F3
:105100009274F5122C1389098A088B0A8C0BE970AA
:105110005F74026508703F79081244ED750C0078E1
:105120000C122BA1E50BF50C780C122BA1E50AF55E
:105130000C780C122BA190180E122999901A49E0A4
:10514000F97C767D19901A691270EA12495B74072E
:10515000122B5F02523374016508600302523879E2
:10516000081244ED7B00AA0AA90A124A030252332C
:10517000740165096009740265096003025238EA26
:10518000600674036508704779021244ED901A496D
:10519000E0F990180E122E3A12496DE9F990181D97
:1051A000E0A2E34010E9700D9018DDE004F0640423
:1051B000700312525974036508707A9018DEE0F893
:1051C000740128F0E8C39405406B1252598066744C
:1051D000016508706374016509790A702E1244ED47
:1051E0007401122E69E4F07402122E697403F00443
:1051F000122E69E4F0A3F0A3F0A3F07408122E6954
:10520000E4F0AA18AB191232D580441244ED901A7A
:105210003F1229997A007B20901812E0F9124193ED
:105220007404122B5F901A49E0F990180E122E3A6E
:10523000124A39E9F9E960179081161229997A0121
:105240007B00901812E0F91241937404122B5F74E2
:105250000B122B5F7F0502285B90180EE4F0A374FD
:10526000F8F0A374FFF0A37407F02274F6122592ED
:10527000E9FFEAFE7AD1F91240498A828B83E582FE
:105280004583702A7A027B0012402BEA4B700E7A1B
:10529000107B00901812E0F912406D80148A828B06
:1052A0008374D1F0EFA3F0EEF91240378003EFA33F
:1052B000F00254D874F712259289089006FA126504
:1052C000FD901A2DE0F47003A3E0F4702D90080D0A
:1052D000E0901A2DF0A3E4F080208E828F83A31239
:1052E000638A600F8E828F83A3A3126384FAA90856
:1052F0001245838E828F8312539BEE4F70DC901A7F
:105300002DE0F47003A3E0F4600A901A2DE0FAA9EE
:10531000081245831233E39017DC125CD11233DD9F
:105320007F0102285B74F0122592890B8C0C7508A2
:10533000007509007410122E6912540F7412122E87
:105340006912539B803CA80A1253FFF50EA3E0F5A7
:105350000FA8091253F2F583E0650E7004A3E0650F
:105360000F7014125392EE28F582EF39F583E50E93
:10537000F0A3E50FF00508050AE50AC3950C40C641
:105380000509E509C3950B5005750A0080EBA908CE
:105390008011A808E828F8E433F922126DC3E8FE6A
:1053A000E9FF227F0802285B74F4122592890B8C96
:1053B0000A750800740C122E6912540F8002050839
:1053C000E508C3950B502775090080020509E5091A
:1053D000C3950A50E9A8081253F21265FBA80912F6
:1053E00053FF6E7003A3E06F70E2790180027900D1
:1053F0008028E828F8E433F9EA28F582EB3922E836
:1054000028F8E433F9EC28F582ED39F583E022122F
:105410006DC3E8FCE9FD22122B5F7F0402285B7458
:10542000F61225921254C27003A3E06D701775082E
:105430001B7509187808122B9DEEFA1246BB7402F0
:10544000122B5F801F7508027509807808122B9D4A
:105450008C088D097808122B9D1254AD1246DF740A
:1054600004122B5F807274F61225921254C27003DC
:10547000A3E06D70177508287509187808122B9D20
:10548000EEFA1246C17402122B5F801F7508037575
:1054900009807808122B9D8C088D097808122B9DA5
:1054A0001254AD1246DF7404122B5F802B1254BBD2
:1054B0003FF583E0FD7C8012673A22EE240EF582F0
:1054C000E422EAFEEBFF12674FFCE439FD9017DCA3
:1054D000E06C227402122B5F7F0202285B74F612CA
:1054E000259274FE122C13EAFEEBFF8518828519B3
:1054F00083E4F0A3125C81126680FCA3E0FBECFA6B
:1055000088828983A3A3E0F9750900750800600506
:1055100074FF697005750882803D9017DCE06A7041
:1055200003A3E06B701AAA18AB191239B3E9F50995
:10553000851882851983126AC1701C7508838017CB
:10554000901981E06004640170057508818008E0AD
:1055500064027003750880851882851983126AAA0F
:10556000A908EEFAEFFB1246C7E50960118518821B
:10557000851983126AC160061270E41240D3025486
:10558000D374F2122592EAFEEBFF7508007509004C
:1055900012674BF50AE439F50B1233E3EA650A703A
:1055A00003EB650B70121239C5E914F50879017A1D
:1055B000A57B181239CB8003750980126AB0F50CEF
:1055C000780C122BA1750CA5750D18780C122B9D5B
:1055D0007808122BA1780A122B9DE509F5087808A6
:1055E000122BA1126516126AB3F97A057B80124656
:1055F000CD740702788074F6122592890975080027
:1056000080278A828B83E0FE127A43EE28E439FFFA
:10561000125392EC28F582ED39F583EEF0A3EFF00A
:10562000EA2402FA50010B0508E508C3950940D2A7
:105630000254D874E812259274FB122C138A168B2C
:1056400017851882851983E4F07403122E69E4F03B
:10565000A3F004122E69E4F0A3F0125A4435171295
:105660005C53F50B850A82F583127B2FFEE439FF2C
:10567000850A82850B83A3A3E0FA850A82850B83C2
:10568000A3A3A3E0F9EAF508E439F509E50A24043F
:10569000F50A5002050BEEFAEFFB12347FE96401C4
:1056A0006016EEFAEFFB12347FE9703D9017DCE0F4
:1056B0006E7003A3E06F6031126890122BA1E4F5C5
:1056C00008F5097808122B9D7808122BA19017DC99
:1056D0001229A17508807808122BA1125A2B1246A4
:1056E000CD7407122B5F025A21125A5E8810602B6C
:1056F0001276CE1240CD7403122E69125CD174035F
:10570000122E69126AC160137403122E69125A565E
:10571000A9101245B38A0A8B0B8003751000125A28
:105720005E880F60271276CE1240CD7401122E696A
:10573000125CD17401122E69126AC1600F740112D9
:105740002E69125A56A90F1245B38003750F0090A7
:1057500006FA805C850A82850B83A3A3A3A3A3A377
:10576000A3A3E4F0A3F0AA0AAB0B851482851583EA
:10577000A3A3E0F8126384F91240378512828513DF
:1057800083E0C0E0851882851983E0F874A528F5C8
:1057900082E43418F583D0E0126AC504F0E511A262
:1057A000E05007AA12AB131240D3851482851583EB
:1057B000E0F514A3E0F515E5144515700302598EC4
:1057C000851482851583A312638A60DE8514828521
:1057D0001583A3A3A3A3A3A3A3A3E0A2E050CB8517
:1057E0001482851583A3A3A3A3126AC1851482859D
:1057F0001583A3A3601F12638BFA79018514828538
:105800001583A3A3A3A3125A49124AF28A128B1337
:105810007511018010125A49A3A3A3E0F512A3E069
:10582000F513751100E5124513700302579D85129B
:1058300082851383A3E065087004A3E06509600F07
:1058400074FF6508700474FF6509600302579D8545
:105850001282851383A3A3A3A3A3A3A31229A185C3
:105860001282851383A3A3A3A3A3A3E0FC74051250
:105870002E691270EAA9101245957402122B5FE985
:10588000703C851282851383A3A3A3A3A3A3A3A320
:10589000A3A31229A1851282851383A3A3A3A3A383
:1058A000A3A3A3A3E0FC7403122E691270EAA90F4C
:1058B0001245957402122B5FE9700302579DE50FA4
:1058C0002510C333240AFA7B0012402B8A0A8B0B63
:1058D000EA450B700302577B8A828B8374D2126C69
:1058E000D08A828B83A3A3E8F0A3E91279A9A3E568
:1058F00010127B37E50FF0E510603CEA2405FAE46E
:10590000350BFBE50A240AF8E4350BF98A828B8310
:105910001262507403122E69125A6E122B99AC1037
:10592000EC2CFCE433FD8A828B831270EA12400770
:105930007403122B5F800D8A828B83A3A3A3A3A37E
:10594000E4F0A3F0E50F7003025754A8101253942B
:10595000E50A28F8E50B39F9E8240AFAE439FB8569
:105960000A82850B83A3A3A3A3A3A3A3A3125CD141
:105970007401122E69125A6E122B99AC0FEC2CFC8A
:10598000E433FD1240077403122B5F02576685183B
:1059900082851983E06027126890122BA17508A5F3
:1059A0007509187808122B9D7403122E69126899D4
:1059B000122BA19017DC1229A17508008029EEFA9C
:1059C000EFFB12347FE9702F126890122BA175083B
:1059D000A57509187808122B9D7508007808122BF8
:1059E000A19017DC1229A17808122BA1125A2B12B0
:1059F00046CD7407122B5F7403122E69126AC160C0
:105A00000B7403122E691270EA1240D37401122E25
:105A100069126AC1600B7401122E691270EA124099
:105A2000D37405122B5F7F1002285BE5162402FC5D
:105A3000E43517FDE5161264AA3517F583E0F97A07
:105A4000067B8022EA12667722125A4D22E0F8A3E2
:105A5000E0F583888222126AAAAA0AAB0B22850A81
:105A600082850B83E0F8A385820A85830B22E0F50B
:105A70000CA3E0F50D750E00780C2274F11225923E
:105A800074F4122C138A088B09ECFEEDFF740B12D0
:105A90002E697403F0122BEB1241E11233DD8A0AF6
:105AA0008B0BAC0AAD0B7403122BEB1241DBE960DC
:105AB0000A125C4D6010E06401600B851882851944
:105AC000837484025BFB8E828F83A3A3A3A3A3A30F
:105AD000A3A3E06013F46010125C4D7016EE241462
:105AE000126AB36003F4700B85188285198374827F
:105AF000025BFB127851E064217002A3E0600302B4
:105B00005BD2851882851983748C125C8164036072
:105B100003025BBC7401122BF312623512314FE9A0
:105B20006003025BBC1244DB8A0A8B0BEA450B70F4
:105B300003025BFC8E0C8F0D750E00780C122B99F6
:105B40007C157D001240077403122B5F8508828547
:105B50000983A3A3E50A2415FCE4350BFD7409129F
:105B60002AC31274DDC0E0E50A241E125C3BD0E0BB
:105B700012609CC0E0E50A241F125C3BD0E0F0E517
:105B80000A2420125C3B7405F0EE240BFE50010F3A
:105B9000FAEFFB123A497D007C007900EEFAEFFB48
:105BA0001246859081161229997A007B109018125E
:105BB000E0F91241937404122B5F8078125C431257
:105BC0002BA1125C5B1231377401122B5FE9702C30
:105BD0008014125C43122BA1125C5B12313D7401E4
:105BE000122B5FE9700D851882851983E4F0124449
:105BF000AB80098518828519837488F01274DDF5ED
:105C00000A780A122BA17401122BE3880A890B78F7
:105C10000A122B9DE508240CF582E43509125C5329
:105C20004480F50B780A122B9D1265E612467974B2
:105C300005122B5F740C122B5F805EF582E4350B2E
:105C4000F58322EE126242E0F50A780A22125C869F
:105C5000640322F583E0F50AA3E022EE240BFCE4C2
:105C60003FFD8E828F83A3A3A3A3A3A3A3A3A31209
:105C700071278E828F83A3A3A3A3A3A3A3A3E0F979
:105C800022F0125C8622125C8A22EE2413F582E452
:105C90003FF583E022EEFAEFFB7F0702285BC0822C
:105CA000C08374F3122C13851882851983E4F004E1
:105CB000122E69125CD17403122E69AA82AB831270
:105CC0004AC3AA18AB19124A8D740D122B5F0266D3
:105CD00092EAF0A3EBF02274F612259212666AFAA9
:105CE000A3E0F9EAF8901823E058F508A3E059F585
:105CF00009E5084509601C7808122B9D9017DC12F5
:105D000029A1126AB0FD7C001267361246D97404CC
:105D1000122B5F0254D874EA12259274DB122C13F2
:105D20008A148B15751200751300125A443515F537
:105D30008312638BF50EAC18AD197A007B00799C49
:105D40001249F17A047900124A5DEAF50C8518824D
:105D5000851983E02AF0F8E50EC3984003025F3A04
:105D6000E0C3950EF509C394044003750903E509E2
:105D700075F01AA4FAABF01240CD8A128B13EA45E3
:105D8000137003025F3D750D00AE12AF13850E0850
:105D9000025E177C087D0079FF125FB912401385FF
:105DA0000A82850B83A3A3A3A3E0702D850A8285B5
:105DB0000B83126AC1700C127233F0EE2418127247
:105DC000368010125FC1F090055EE014C0E0125FF3
:105DD0009DD0E0125FECE4803490055EE004C0E00A
:105DE000125F9DD0E0125FE4C39403EE4003025EB5
:105DF0009F12623E7402125FE464017003025EACA3
:105E0000EE2415125FC4F0EE2416125FC4F0EE24E7
:105E10001AFE50010F050DE50DC395094003025E02
:105E2000D7E508C3950C4003025EB5AA087B0012B3
:105E300049CD8A0A8B0B050890054B125FCD1241A4
:105E4000E1850A82850B83126DBF125FABE8F0A378
:105E5000E9125FFE850A82850B83A3A3A3A3A3A3F4
:105E6000A3A3A3A3E0C0E0125F93D0E0F0740112FB
:105E70002E69E41279FD126DBF7402122E6912624E
:105E8000507401122BEB124A9FE964016003025D1A
:105E9000937404122E69125FB51241E1025D9F12E4
:105EA0005FC2125FE464036003025E00EE24151219
:105EB0007236025E06E50CC3950E4005750800803B
:105EC0001DE50EC3950CF5088014125FC1F0EE2499
:105ED0001AFE50010F050DE50DC39509505F740EB4
:105EE000122BF3AA087B0079871249F10508741870
:105EF000122E69125FCD1241E17410122E69125FE9
:105F0000B51241E1EE2412F8E43FF9740E122E6945
:105F10001270EA88828983EAF0A3EB125FEC7403C3
:105F2000125FFE741D122E69E0C0E0125F93D0E094
:105F300012705970951272338093750900750A00BA
:105F4000780A122BA17812122B9D7809122BA1E549
:105F50000EF5097809122BA17405122E69E0FD7C5B
:105F600000E5141264A13515FBE5141264A635157D
:105F7000F583E0F91247157405122B5FE5124513FE
:105F80006007AA12AB131240D37425122B5F7F0E49
:105F900002285BEE2419F582E43FF58322125FA10B
:105FA00022EE2418F582E43FF58322EE2412F582D6
:105FB000E43FF58322AC82AD83EE240AFAE43FFB92
:105FC00022EE2414F582E43FF583740122126DC39E
:105FD0008E828F83E8F0A3E9F07C5F7D05EE12648A
:105FE000A13FFB221279F8A3A3A3E022F0EE1272E4
:105FF0002A7402F0EE2416F582E43FF58322F0EED7
:106000002417F582E43FF5837402F0125FA174FF58
:10601000F02274F612259274F9122C131260911268
:106020007BB912401FEAF8EBF9ECFAEDFB85188218
:10603000851983122E52EE2404FE50010F8E828F9A
:1060400083E0C0E07404122E69D0E0127030F8745E
:1060500005122E697401F07406122E697401F09015
:1060600017E6F09017EF04127A15A31270EA901752
:10607000E7125CD1E89017F012609C9017E5F0AA47
:1060800018AB19124967E960031249617407025499
:10609000D58A088B09EA126677350922F0127975DC
:1060A000E02274F212259274FF122C137508007E00
:1060B000007F001233058A0A8B0B1233058A0C8B82
:1060C0000DA80CA90D80050508126DB9E84970F7F7
:1060D000901981E06007640160030261AD1233052D
:1060E0008A0C8B0DA80CA90D8003126DB9E84960CC
:1060F00036888289831270EA90054BE06A7003A3A8
:10610000E06B600D12624939F5831270EAEA4B7058
:10611000D988828983126DBF90054BE0687003A314
:10612000E06970030261AD7A167B001240CD8A0CE3
:106130008B0DAE0CAF0DEE4F607390054B126DBF23
:106140008E828F83126250900540E08E828F83A3EF
:10615000A3F0123467E98E828F83A3A3A3A3A3F0D5
:10616000901A4A1279ECF07C5F7D0512623512417B
:10617000E1AA18AB197941124895851882851983CF
:10618000E060089017DC126DBF800478FE79FF8E06
:10619000828F83A3A3A3A3A3A3A312625012623D81
:1061A000E50AF0A3E50BF08E0A8F0B05089017F0B7
:1061B000E0F8E508C398500479008027E508C39803
:1061C000F9C39406400279057800800DE50A126251
:1061D0004A350B125C53F50B089017F0E0FAE8C350
:1061E0009A40E97509007809122BA1780A122B9DB3
:1061F000E9F5097809122BA19017F0E0F509780963
:10620000122BA1AD087C007AE77B179017E5E0F927
:1062100012470F7405122B5F901981E0600464012E
:10622000700BEE4F6007EEFAEFFB1240D31249619C
:106230007401027880EE240BFAE43FFB22EE126236
:10624000422212624A3FF58322E82414F582E422B6
:10625000E8F0A3E9F02274F012259274FF122C13D7
:106260008A0A8B0B7E008E0E8E0F125A44125C3EF1
:1062700012638BFFAC18AD197A007B00799D12492F
:10628000F1851882851983E0F8EFC3984003026313
:106290002FE0C39FFEC3940B40027E0AEE75F00709
:1062A000A4FAABF01240CD8A088B098A0E8B0FEA54
:1062B000450F6079750C00801A850882850983A3D3
:1062C000A3A3A3A37403F0E5082407F5085002056F
:1062D00009050CE50CC39E5056AC08AD09E50C2F22
:1062E000FAE43400FB798B1249F185088285098331
:1062F000A3A3A3A3A3E014600814601314601F8079
:10630000B8850882850983A3A3A3A3A3E480B785E6
:106310000882850983A3A3A3A3A3740180A8850889
:1063200082850983A3A3A3A3A3740280997E007529
:1063300008007808122BA1780E122B9DEEF5087834
:1063400008122BA1EFF5087808122BA17405122E64
:1063500069E0FD7C00E50A1264A1350BFBE50A1239
:1063600064A6125C3EE0F912471B7405122B5FE530
:106370000E450F6007AA0EAB0F1240D37401122B0B
:106380005F0253A3A3E0F5838882A3125A4DE02253
:1063900074EE12259274FE122C138A0C8B0D75105C
:1063A00000751100125A44350DF58312638BF50AFE
:1063B000AC18AD197A007B0079A31231431270E456
:1063C000C3E50A9AE49B5076851882851983A80A4A
:1063D000E0C398FEA3E09400FFC3EE9404EF9400A2
:1063E00040067E037F008004EE4F6052EEFAEFFB22
:1063F000EA75F015A4FAA8F075F015EBA428FB12C5
:1064000040CD8A088B098A108B11EA4511602F75DF
:106410000B00750E00C3E50E9EE49F5026AC08AD40
:1064200009A80AE50E28FAE43400FB79A2123143E8
:10643000E5082415F50850020509050E80D7750BEF
:106440008B7E007508007808122BA17810122B9D06
:10645000EEF5087808122BA1E50AF5087808122B4A
:10646000A17405122E69E0FDAC0BE50C1264A13598
:106470000DFBE50C1264A6350DF583E0F9124721FA
:106480007405122B5FE51045116007AA10AB1112BD
:1064900040D37402122B5F7F0A02285BFCEFFDE5FC
:1064A000082402FAE4221264AA22240FF582E422CC
:1064B00074F612259274FF122C13EAFEEBFFEE1213
:1064C0005A453F1278A5A3A3A3A3A3A3A3A3E0F9CE
:1064D000123BD5E9851882851983F0750800780884
:1064E000122BA17401122BE3880889097808122B5A
:1064F0009D7508357509807808122B9D12650C1260
:1065000046797405122B5F74010254D57901126526
:1065100016FAE43FFB22EE2402FCE43FFDEE240FDA
:106520002274F412259274FA122C131260911265DF
:10653000FBEEFAEFFB124ABDE960171233DD8A0A5F
:106540008B0BAC0AAD0BEEFAEFFB1241DBE96401F9
:10655000700A7401122E69E4F0A380097401122EEE
:1065600069EEF0A3EF127A31A3A3A3A3A3E0F8A2EC
:10657000E650087403122E697401F0E8A2E750088F
:106580007404122E697401F07405122E69E4F0048B
:10659000122BEB1249FDE9851882851983F0908151
:1065A00012122E3A1234017A007B0012340D7A0056
:1065B0007B00123407750A00780A122BA1740112AD
:1065C0002BE3880A890B780A122B9D750A34750B08
:1065D00080780A122B9D1265E61246797405122BFB
:1065E0005F74060254177901E5082402FCE43509BA
:1065F000FDE508240FFAE43509FB22F5831278AF94
:10660000FF2274F612259274FF122C1312666AF59B
:1066100009A3E0F508A909124955E98518828519E9
:1066200083F0901981E0700B740165087005A90969
:106630001247C9EE240B126AB3702C750800780853
:10664000122BA17401122BE3880889097808122BF8
:106650009D7508367509807808122B9D12650C12FD
:1066600046797405122B5F026507EAFEEBFF12669E
:10667000763F12667D22EE2413F582E422F583E054
:1066800012675FE022C082C083901981E07003121C
:1066900047CFD083D082022B4774F412259274EF37
:1066A000122C13EAFEEBFF12674BF508E439F509EB
:1066B0009017DCE065087004A3E065097052A81823
:1066C000A919880A890B780A122B9D750A11750B76
:1066D00000780A122B9D7C007D007A817B0012419C
:1066E000577404122B5FE97027750A00780A122B81
:1066F000A17401122BE3880A890B780A122B9DAC36
:1067000008AD091267361246D37403122B5F80213D
:10671000750A11750B80780A122B9D7808122B9D33
:10672000126AB0FD7C841267361246DF7404122BA5
:106730005F741102541712673A22EE2402FAE43F02
:10674000FBEE1264AA3FF583E0F92212674F221292
:106750005C8A12675F127960F8E4C8F9EA2822F8C7
:10676000A3E0F9888289832274F112259274EB12D6
:106770002C1312666AFCA3E0FAE4CAFBEC2AF508C3
:10678000E43BF5099017DCE065087004A3E06509B7
:10679000600302683788828983A3A3E09410500FB6
:1067A00088828983A3A3E085188285198380088560
:1067B00018828519837410F0E0C0E07404122E6909
:1067C000D0E0127891A3A3A982AA83890C8A0D75BF
:1067D0000E00780C122B997407122E69E0FC7D00D4
:1067E0007408122E69AA82AB831240077403122B1D
:1067F0005F7404122BE3880A890B780A122B9D75AB
:106800000A11750B00780A122B9D7C007D007A819D
:106810007B001241517404122B5F7404122E69E044
:1068200090181B6005E0D2E48003E0C2E4F0851814
:1068300082851983E480088518828519837484F021
:10684000E0C0E07401122E69D0E0F07402122E69EB
:10685000E508F07403122E69E508F01254BB3F12EC
:106860006897122BA17402122BE388088909780813
:10687000122B9D7508147509807808122B9D7903D9
:1068800012650E1246797405122B5F7415025C3680
:10689000E5161254BC3517F583E0F5087808227424
:1068A000F612259274E0122C13EAFEEBFF90054DD0
:1068B000E064086008E064046003026AA5AC18ADF7
:1068C00019124661901981E06402702F1233DD7451
:1068D00002122E69AC82AD831241DBE9601D1233D6
:1068E000E38A088B09A808A909851882851983E01D
:1068F000687003A3E0697003026AA51235B17402DF
:10690000122E69AC82AD831270E41234AFE96401D7
:106910007003026AA57418122BEB1233EF74021283
:106920002E69AC82AD837418122BEB1241DBE96047
:10693000321233E98A088B09A808A90985188285CB
:106940001983E0687003A3E06960188518828519CF
:1069500083126DBF9005411262507A417B05794BDD
:1069600012489B901981E06004640170751233E352
:106970008A088B09A808A909EE2411126AB3687065
:1069800003A3E069605C7402122E69AA82AB8312D1
:106990004A278A088B09A808A909E849602688823D
:1069A0008983A3A3A3A3E06401600D88828983A3E4
:1069B000A3A3A3E06402700C7402122E69AA82AB36
:1069C000831249EB9005DB126AC16016901975E0DD
:1069D0006401700E1270E49005DCE0F58388821289
:1069E0004AF279001270E4122FA590054B126AAAA0
:1069F0001270E4123569740B122E69E4126AC5F83C
:106A0000A3E0F9740C122E69126250740B122BEB76
:106A1000124A9FE9603F7C087D0079007418122BB0
:106A2000EB124013740E122E69AC82AD83741812EF
:106A30002BEB1241DBE9601D7402122E69AC82ADB2
:106A400083740E122E69AA82AB83124AC3740B128E
:106A50002BEB124A8D7402122E69AC82AD83740E38
:106A6000122E69AA82AB83124AC3740B122BEB124B
:106A70004A99E96030740C122E69126DBF85188234
:106A8000851983E0687003A3E06960198518828521
:106A90001983126DBF740C122E69126250740B129E
:106AA0002BEB124A8D74200254D5E0FCA3E0FD22AA
:106AB000EE240EF582E43FF583E022F582E438F51A
:106AC0008312726C22F0851882851983E02274E8A3
:106AD00012259274F7122C138A168B177F008F08D9
:106AE0008F091246678A128B13EA45137003026CF2
:106AF000A37E00800DEE75F00CA4F8126CC0124954
:106B0000EB0E851282851383E0F8EEC398400302F2
:106B10006BD8750CFF750DFF750EFF750FFFEE75C9
:106B2000F00CA4F8A9F0126CC0124A27EA4B60D10D
:106B30008A828B83A3A3A3A3E06401600D8A828B66
:106B400083A3A3A3A3E0640270B7126D8A7010122E
:106B50006DA1780C122DDC126D97780C122BFB12A4
:106B60006CA8A3A3A3A3A3A3A3A3780C122B0340F5
:106B7000847A0E7B001240CD8A0A8B0B126CA8AC73
:106B800082AD831241E1850A82850B83A3A3A3A36F
:106B9000A3A3A3A3780C122DFAE50A240C125C3BE4
:106BA000E4F0A3F0E5084509700E850A10850B1185
:106BB000851008851109801CE510240CF8E43511B6
:106BC000F988828983E50AF0A3E50B12789AF5101B
:106BD000A3E0F5110F026B01EF7003026C9C7408C7
:106BE000122E697402126CD0851882851983126284
:106BF000507E00EF75F00CA4FAABF01240CD8A0C79
:106C00008B0DEA450D7003026C9C805A8508108537
:106C10000911EE75F00CA4F8A9F0E50C28F50AE5C9
:106C20000D39F50BAC08AD09AA0AFB1241E1850844
:106C300082850983A3A3A3A3A3A3A3A3122E1685CE
:106C40000A82850B83A3A3A3A3A3A3A3A3122E52FB
:106C50000EE510240CF582E43511126CC8F509AA72
:106C600010AB111240D3E508450970A075080078F3
:106C700008122BA175081F7509807808122B9D78C2
:106C80000C122B9DEFF97405122BF3E516240FFA65
:106C9000E43517FB1246AF7405122B5FAA12AB1333
:106CA0001240D37409025A23EE75F00CA4F8A9F02F
:106CB000126CB422E51228F582E51339F583A3227C
:106CC000126CB4AA82AB8322F583E0F508A3E0221C
:106CD000F0851682851783A3A3126DC32274F01268
:106CE00025921246678A088B09AE08AF09EE4F70ED
:106CF00003026D87750C0080787508FF7509FF75B4
:106D00000AFF750BFFE50C75F00CA4F8A9F0126DE5
:106D1000A7124A27EA4B60578A828B83A3A3A3A3B7
:106D2000E06401600D8A828B83A3A3A3A3E06402C5
:106D3000703D126D8A7010126DA17808122DDC1250
:106D40006D977808122BFBE50C75F00CA4F8A9F0F0
:106D5000126DAFA3A3A3A3A3A3A3A37808122B032D
:106D6000500DE50C75F00CA4F8126DA71249EB0557
:106D70000C8E828F83E0F8E50CC3985003026CF907
:106D8000EEFAEFFB1240D30253A3EA241BF582E490
:106D90003BF583E0640122EA2417F582E43BF583A6
:106DA00022127A0DF58322126DAFAA82AB8322EEF6
:106DB00028F582EF39F583A32212624939F583124F
:106DC0006DC322E0F8A3E0F92274F112259274F663
:106DD000122C13EAFEEBFF7508009018DB126AC153
:106DE00070507A377B001240CD9018DBEAF0A3EBAD
:106DF00012758C60197C377D007900124013EEFC0F
:106E0000EFFD9018DB1270EA124631E9700B85181D
:106E1000828519837488026F7212786112700C7403
:106E200001F07C3D7D469004EB1270EA12303B028B
:106E30007007E0C812700C7402F0EEFCEFFD1274E3
:106E4000E2124631E9700C8518828519837488F046
:106E5000750801750AA5750B18780A122B9D12701A
:106E6000FA1229A112786124281274D5FC12712C0F
:106E700012786124141274D5F912458F7404122B00
:106E80005F12701912703624311274D56043127576
:106E900076FAE433FB1240CD9018DBE02432127016
:106EA0004B6022750CA5750D18750E00780C122B11
:106EB00099127576FCE433FD1271181240077403C1
:106EC000122B5F800C8518828519837488F07508F1
:106ED00001780A122B9D1270EE1229A112786124FA
:106EE000111274D5FC12710F127861242B1274D513
:106EF000F912458F7404122B5FE9F812786124347B
:106F000012703624341274D5603512756DFAE4337C
:106F1000FB1240CD9018DBE0243512704B604275B7
:106F20000CA5750D18750E00780C122B9912756D45
:106F3000FCE433FD1271061240077403122B5FE567
:106F400008A2E040251270191274D570089018DB61
:106F500012753960157B007A00790012463702708D
:106F6000078518828519837488F0851882851983AE
:106F70007486F07409122E6974021276E412702875
:106F8000122E69E8F0A3E9127030F5087808122B88
:106F9000A17401122BE3880889097808122B9D75CA
:106FA00008207509807808122B9D79017406122B30
:106FB000F3EEFAEFFB1246797405122B5F12752877
:106FC00070427409122E697402F0127022122E6936
:106FD000127593122BA17401122BE388088909788A
:106FE00008122B9D7508207509807808122B9D7951
:106FF000017406122BF39018DB1270EA12467974B2
:1070000005122B5F12462B740A025C361270102296
:10701000242EF582E438F583229018DB1274FE24C6
:1070200031229018DB125A4DA3A3126DC3740122B2
:107030001276E4A3E022F582E438F583127041C8A9
:1070400022E9F09018DBE0F8A3E022F8A3E0340096
:10705000F988828983EAF0A3EB12789F12726C227E
:10706000C082C0839018DB126AC16075E0C8243505
:10707000126ABB60061271061240D3127861243284
:10708000126ABB60061271181240D3127861241282
:10709000126ABB60091270EE1270EA1240D31278C5
:1070A000612415126ABB600612712C1240D312784B
:1070B000612429126ABB60091270FA1270EA124048
:1070C000D3127861242C126ABB600612710F124031
:1070D000D39018DB1270EA1240D39018DBE4F0A3CF
:1070E000F002669285188285198312712722127424
:1070F000FB2412F582E438F583221274FB2429F56F
:1071000082E438F583221274FB2435127121221295
:1071100074FB242C127121221274FB24321271216F
:1071200022F582E438F583127960FB221274FB2485
:10713000151271212274F1122592EAFEEBFF8C08E0
:107140008D09750A018C0C8D0D750E00780C122BB3
:10715000997C177D001240077403122B5FEE2412F6
:10716000127236F0A3F0EE2415127236F0A3F0126C
:1071700076A0E0603AEE2412F8E43FF9880C890D1D
:107180001276C91240CD1272576021E508241212FE
:10719000724A122B99E508241112723E125FAC124A
:1071A00070EA1240077403122B5F8003750A00E532
:1071B000081276AE6035EE2415F8E43FF9880C89A4
:1071C0000D1276C91240CD1272576055E50824158C
:1071D00012724A122B99E508241412723E1272267A
:1071E0001270EA1240077403122B5FE50AA2E04016
:1071F0002BEE2412F582E43F126ABF6009125FABE6
:107200001270EA1240D3EE2415F582E43F126ABFF1
:10721000600AEE1272261270EA1240D3A90A025CCA
:1072200099750A0080CB12722A222415F582E43F58
:10723000F58322EE2414F582E43FF583E4221277ED
:1072400074E025E0FCE433FDEE22127774E0F50CE7
:10725000A3E0F50D780C22850C82850D83EAF0A35E
:10726000EBF0850C82850D8312726C22E0F8A3E0AE
:10727000F9E8492274EE12259274ED122C13890B51
:107280008A0E8B0F750C00750D00750AFF7510FFC7
:107290007511FF750800750900851882851983E44A
:1072A00012758C60177403650B60067402650B70B1
:1072B00010E0C824301274D5650F6005790002749F
:1072C000D07C3D7D467A007B0012303B7401650B1B
:1072D000700A8518828519837485803DE50B6006E8
:1072E0007403650B70199018DB127508F074036550
:1072F0000B7029E50E6029851882851983801A7420
:1073000002650B701BE50E9018DB70051275088086
:107310000812786412751F7402F08004E50B601E79
:1073200012750E7019127532600512701C800A12E7
:107330007539600A12786124341274D514F012750C
:1073400032601A126CCAF509127576127959CA247C
:107350003212754A241D1274EF24258026127539C5
:1073600060269018DBE02417F508A3E03400F50947
:1073700012756D127959CA243512754A2406127491
:10738000EF240E1274D5F50A7409122E69740212D4
:107390006AC5600302743EE5084509700302743E45
:1073A00012750E70047E2280027E21850882850976
:1073B00083127028122E691262509018DFE0C0E02C
:1073C0001278612430F582E438F583D0E0F074124D
:1073D000122E697403F0AC0CAD0D740A122BEB1273
:1073E00041E1850882850983A3E0F50C780C122B16
:1073F000A1780A122BA1740C122BE3880C890D784A
:107400000C122B9D7810122B9DE5082406F50CE438
:107410003509F50D780C122B9D1274DDF9740912E3
:107420002BF3EEFA7B001246EB7408122B5F7C3DC7
:107430007D469004EB1270EA12303B0274CE12705B
:1074400022122E69127593122BA17401122BE3885C
:107450000889097808122B9D75082075098078081D
:10746000122B9D79017406122BF39018DB1270EA2F
:107470001246797405122B5F127528704E127861CE
:107480002419F582E438F58312702A122E69E8F087
:10749000A312703C2418F582E438126897122BA1CD
:1074A0007401122BE3880889097808122B9D75084E
:1074B000207509807808122B9D79017406122BF330
:1074C0001274E21246797405122B5F12462B790171
:1074D0007413026494F582E438F583E02212798310
:1074E000E0229018DBE02417FAA3E03400FB22F539
:1074F0000CA3E03400F50D1274FB229018DB12751A
:107500000222E0F8A3E0C822127518740122901834
:10751000DB127518E064012212750212751F222415
:107520002FF582E438F583221274FB127010E064A8
:10753000022212757C9018DB2212753D2212750210
:107540002434F582E438F583E022F582E43AF583C9
:10755000E028F8A3E039F9E824FEF582E934FFF5E4
:1075600083E0F510A3E0F5119018DBE0229018DB22
:1075700012753D25E02212757C25E0229018DB1261
:1075800075022431F582E438F583E022127042F965
:10759000E84922E8F0A3127041F5838882A3E0F560
:1075A00008780822C082C0837B007A857901124660
:1075B0003702669274F41225928C088D09EA240F22
:1075C000127A3712799D126DBF8C828D83A3A3121C
:1075D0006250EA240E127A37A3F0126DA11278AF2E
:1075E0001276D512787350010FFCEFFDE5082406E2
:1075F000FAE43509FB1241E1EE2408FE50010F8E3A
:10760000828F83E0C0E012797FD0E012777CF8129D
:107610007971E812787750010FE50824121276A8E4
:10762000A3F0E50824151276A81276DEF8A30EAFB3
:10763000831276A0E8F06028E50824121276C012C2
:1076400040CD127A4A6019E50824121276B31276F8
:10765000A2E0F91245B38A0A8B0BAE0AAF0B800782
:10766000E50824111276A88E828F83E0F8A3AE82FB
:10767000AF8312776CE8F0601FE50824151276C01E
:107680001240CD127A4A6010E50824151276B31222
:1076900076AEF91245B3800512776CE4F002541A05
:1076A000E508241112777422127774E4F02212771D
:1076B00072E022127774126AAAEEFAEFFBE5082252
:1076C000F8E43509F9880A890BE01276CE2225E024
:1076D000FAE433FB22FF1279E28C828D8322A3121B
:1076E00076E4E022F08E828F832274F612259212C5
:1076F0007A051265FBEEFCEFFDAA08AB091241E129
:10770000EE2408FE50010F8E828F83127A9012773A
:107710007C850882850983A3A3A3A3A31278735051
:10772000010F8E828F83E0F8E508126096F583E8FA
:107730001278687403687026EEFCEFFDE508240BF0
:10774000FAE43509FB1241E18E828F83A3A3A3A340
:10775000A3A3A3A3E0C0E012776CD0E0800A127963
:107760006512785BE8F0A3E9F00254D8E5081277D7
:1077700072222414F582E43509F583221279BE12AF
:1077800079E62274F2122592EAFEEBFF750A00EE0A
:107790002410126AB3C3940C400D1279D712786486
:1077A000240B1274D5F50AA80A125394E8240DFA92
:1077B000E439FB1240CD8A088B09EA4509700302BF
:1077C000784BEE125A453F12798F8A828B83127959
:1077D000BA7078EEFCEFFDEA2403FAE43509FB12F7
:1077E00041E1EE2408FE50010F8E828F831279DE74
:1077F00085088285098312787650010F127859E442
:10780000F0E50A6046E508240DF8E43509F98E82B2
:107810008F83E0C0E0127859D0E012796CC0E0129A
:107820007851D0E0127868850A0B8E828F83E0FC55
:10783000A3E0FBEC88828983127888500109EE244A
:1078400002FE50010F150BE50B70DFAA08AB098093
:1078500032E508240C12777422E508240B127774A1
:10786000229018DB1274FE2212786C221279C60E56
:10787000AF8322A3A3A3A3F0A3E9F0EE2402FE2288
:10788000122B5F7F0602285BF0A3EBF0E82402F8DE
:10789000221278952212789FA32212789FE022F07C
:1078A00088828983221271258A828B8322F583E064
:1078B000FEA3E02274F1122592127A09126CC88597
:1078C0000882F583E0F50BA3858208858309A3A3CD
:1078D000E0F50A1279D23400FB1240CD8A0C8B0DF0
:1078E000AE0CAF0DEE4F60378E828F83E50BF085C7
:1078F0000882850983E0FA127A1E85088285098349
:10790000A3A3A3A982AA83890C8A0D880E780C12DE
:107910002B991279CD3FFB1240077403122B5F02A3
:107920005C9574F7122592EA2413F8E43BF98882F7
:107930008983127960F5838A82127A3D12789A12CD
:10794000675FA3E0FA88828983A3A3E0F9EA8C82C7
:107950008D83A3126251025320F8E433F99018DBAF
:10796000E0FAA3E0221279E6F8E5082212786CE04A
:107970002212797522E5081264AA3509F5832212CC
:10798000798322E508240EF582E43509F583221275
:107990007993221278ADFF8E828F83E0221279A232
:1079A000A322F08A828B83A3221279AD22F08A82ED
:1079B0008B83A3A3A322A3A3A3A31279BE2212792C
:1079C000C6AE82AF8322F08E828F83A322AC0A7D63
:1079D00000EE2404FAE4221266763FF5832212793F
:1079E000E6228E828F83127960F9EA22E08E828FFE
:1079F00083A3A3A3A3A3A3221279FDA322F0850A44
:107A000082850B83228C088D09127A0D22EA2413B9
:107A1000F582E43B22F0850882850983A322127A4D
:107A200043EA8E828F83A3F0A3E9127A31E50AF04C
:107A3000221279C6A3A322F582E43BF583E08C826F
:107A40008D8322A3E0F8E4C8F922850A82850B839E
:107A5000EAF0A3EB1279FD12726C2274F6122592F1
:107A6000127A05126DBDE8FEE91276D512787750CC
:107A7000010F12649C3509FB1241E18E828F83A3B2
:107A8000A3A3A3A3A3A3A3127A90A3A3F00254D801
:107A9000127BCCA3A32274F2122592127B2175F0E3
:107AA0000CA4A9F02401FAE439FB1240CD8A0C8B16
:107AB0000DEA450D60648A828B83A38582088583E5
:107AC000098A828B83E50BF0750A008046EEFCEF95
:107AD000FDAA08AB091241E1EE2408FE50010F791E
:107AE00004FAEFFB12401FEAF8EBF9ECFAEDFB8524
:107AF0000882850983A3A3A3A3A3A3A3A3122E5241
:107B0000EE2404FE50010FE508240CF50850020590
:107B100009050AE50AC3950B40B3AA0CAB0D027820
:107B200083127A0D127993F50BA3AE82AF8322E014
:107B3000FA127A43EA28221279ADA3A3A3A32274EE
:107B4000F6122592127A05127BB912401FEAF8EB61
:107B5000F9ECFAEDFB850882850983122E52EE249A
:107B600004FE50010F8E828F83E0F885088285091C
:107B7000831279B6C394065005127BD180378508ED
:107B800082850983A3A3A3A3E064FE600E85088217
:107B9000850983A3A3A3A3E0F4701B127BC412780E
:107BA00068850882850983A3A3A3A3E0F470071264
:107BB0007BDEF0A3E9F00254D81278ADFF7904EE31
:107BC000FAEFFB228E828F83127BCC22127BD1A311
:107BD00022E0850882850983A3A3A3A3A3221279A7
:107BE000E2850882850983A3A3A3A3A3A3A3227F7D
:107BF0000102285B74F0122592890A8A0B8B0FEC24
:107C0000FEEDFFAA0F74E0550AF912491F8A088B8E
:107C100009EA4509603B8A828B83E50FF0A3E50AF8
:107C2000F08A828B83A3A3E50BF08E0C8F0D750E6B
:107C300000780C122B99AC0F7D00EA2403FAE4358E
:107C400009FB1240077403122B5FAA08AB09124903
:107C5000257F0802285BC082C08374FD122C138A22
:107C6000828B83A3E0C0E07401122E69D0E0F08A19
:107C7000828B83A3A3E0C0E07402122E69D0E0F0EF
:107C80008A828B83E0C394FB400A8518828519831E
:107C9000740480437401122E69E0541FC39416507B
:107CA0002EE0541F25E0F874BA28F582E43419F563
:107CB00083E0F8A3E0F988828983E5824583600F39
:107CC000124AF2E9851882851983F0700B802285AB
:107CD00018828519837401F07401122E69E054E052
:107CE0006420700DAC18AD197B037A007960123EE8
:107CF000337403122B5FD083D082022B4774F712A8
:107D0000259280258C828D83E08A828B83F0A3AAC2
:107D100082AB838C828D83A3E08A828B83F0A30A5B
:107D2000AB83EC2402FC50010DE9F874FF28F90440
:107D300070D2027BEF74F2122592EAFEEBFF8C0800
:107D40008D09750A008E828F83E0F91239AD8B0D93
:107D5000EA450D6006750AB8027EFFE50845097020
:107D600003027EFF8E828F83E0850882850983F07F
:107D7000A3A3A3A3A3E4F0E5082403F50CE43509C9
:107D8000F50D7A0C7B001240CD850C82850D831297
:107D90007FE3127F247003027EFC8E828F83E0C01B
:107DA000E0850C82850D83A3E0F5838882D0E01204
:107DB0007FC5127F43EAF0A3EB127FBF50010F8E05
:107DC000828F83127F43A3A3EAF0A3EB127FBF50FD
:107DD000010F8E828F83E0540FFAA30EAF83850CC0
:107DE00082850D83E02405F8A3E03400F9888289B8
:107DF00083E054F04A127FA1E0C0E0127F12127FAC
:107E00003AD0E0127FA1127F2C603E127F2C25E039
:107E1000FAE433FB1240CD127F122407127FD012F6
:107E20007F1C60227B00850882850983A3A3A3129F
:107E30007F32F8EBC3985011127F602407127FAB9A
:107E400050010F0B80E0750A108E828F83E0C0E036
:107E5000127F12127F98D0E0127FC5850C82850DAB
:107E600083127F90603F850C82850D83127F902561
:107E7000E0FAE433FB1240CD127F12240A127FD0C5
:107E8000240A127F1E60197B00127F87F8EBC398CB
:107E90005013127F60240A127FAB50010F0B80E950
:107EA000750A1080067410650A7054850882850969
:107EB00083A3A3A3127F18127F1C601485088285F8
:107EC0000983A3A3A3127F182407127F061240D3AD
:107ED000127F876014850882850983A3A3A3127F7C
:107EE00018240A127F061240D3850882850983A3CD
:107EF000A3A3E0FAA3E0FB1240D38003750A10A904
:107F00000A7F0602285BF582E438F583E0FAA3E0F5
:107F1000FB22850C82850D83127FDD222407F582EA
:107F2000E438F583E0F8A3E0F9E84922850C82857E
:107F30000D83127FDD127F3AE0222406F582E438B9
:107F4000F58322E0FAA3E0F8E4C8F9EA28E439FB73
:107F5000850C82850D83E0F8A3E0F5838882A32257
:107F60008E828F83E0FCA3E0F8E4C8F9EC28E439C2
:107F7000FDEB25E0F8E433F9850882850983A3A3A6
:107F8000A3E0FAA3E0CA22850882850983A3A3A3FC
:107F9000127FDD127F98E0222409F582E438F58310
:107FA00022F08E828F83A30EAF8322F582E43AF50E
:107FB00083E028FAA3E0398A82F583ECF0A3EDF0A0
:107FC000EE2402FE22F08E828F83A3AE82AF832244
:107FD000F582E438F583127FE3127FDD22E0F8A317
:107FE000E0C822EAF0A3EBF0850C82850D83220223
:107FF0002B47FFFFFFFFFFFF851A87C2AF022B470A
:108000000000000000000000000000000000000070
:108010000000000000000000000000000000000060
:108020000000000000002403540049002000430029
:10803000430032003500330031002000550053006A
:108040004200200043004400430024035400650024
:10805000780061007300200049006E007300740016
:10806000720075006D0065006E00740073001949A0
:108070004B3881323530CB30674341454D422F423A
:10808000A33A000000000000000000000000000013
:1080900000000000000000000000000000000000E0
:1080A00000000000000000303132333435363738FC
:1080B00039414243444546000000000000000000F2
:1080C000FFFFFFFFFFFFFFFFFFFFFFFFFFFFFFFFC0
:1080D0000008000400020001000000000000000091
:1080E000FFFFFFFFFFFFFFFF020502000801740012
:1080F000000000000082003A003B00000000000089
:10810000000200020603FFFFFFFF0000FF00000067
:1081100000FF00000000E8030000E9FFFFFF01008E
:1081200000009F020000965118006AAEE7FF0800A9
:108130000000004800003000000009433886102786
:1081400000000400000019E0FCFFF8FF0000E71F3A
:108150000300805101003C000000100E00001F00D1
:10816000000003000000FEFFFFFFFA000000040310
:10817000090497511800640000000B00000060EA39
:108180000000E204000058020000BC0200003200BF
:10819000000000F8FF0700000000000000000A7463
:1081A000F7122592E9900598F090054DE4F0123F02
:1081B000D79005B0E4F0A3F0900599F0A3F0123544
:1081C00051901981E0600464017006124A69122F0F
:1081D0000F123FDD9004D5E4F0A3F01248D102B3B2
:1081E000F874EC12259274D7122C13EAFEEBFF54AC
:1081F000806068900598E0F91240438A088B09EA8C
:108200004509604F7C0080010CEC75F003A4F8A9CF
:10821000F074D028F582744F39F583E493F4602C20
:10822000E493F88508828B83E06870DCAA08EC751B
:10823000F003A4F874D128F582744F39F583E493E0
:10824000C0E0740193F583D082124AF2AA08AB0908
:10825000124031EEFAEF6480028725EF5420601E51
:1082600012339B8A088B09EA4509600A1232B7AAC1
:1082700008AB09124031EEFAEF642002872590190D
:1082800081E06402705FEEA2E0501F900552E0644E
:108290000F70117900123287E96009901A31122E9D
:1082A0003A12329FEE640102863CEF5440603690F1
:1082B0001815E064067028740BF0901A49E0F975FF
:1082C0000801750900750A00750B00900540E078FB
:1082D00008122B22AA08AB09AC0AAD0B124A39903E
:1082E00019710286E3EE5420700302860D7A207B1A
:1082F00000900598E0F91241A5EA4B4C4D701A9098
:1083000005AC122E16E8494A4B700E750C01750D1E
:1083100000750E00750F008061750C00750D0075FD
:108320000E00750F001241B78A088B098C0A8D0B5D
:108330009005AC122E16E8494A4B602A9005AC789D
:1083400008122B03400E750CFF750DFF750EFF759F
:108350000FFF801285080C85090D8C0E8D0F90057E
:10836000AC780C122BFB7401780C122BCAE50C456F
:108370000D450E450F70030285347C0079047A00A8
:108380007B001233658A088B090284618518828517
:10839000198374FFF07401122E6974FFF0740212D5
:1083A0002E6974FF12A318FAA3E0FB7403122BF3D7
:1083B00012D1B01233C5E964016003028443E508B9
:1083C000240D12AFFB4480F8A3E0F97424122E6947
:1083D000E8F0A3E912C509A3A3A3E0C0E074261244
:1083E0002E69D0E012CFB8A3E054086016742412AE
:1083F0002E69A3E04401128748C0E07428122E6958
:10840000D0E0F0E50812ED54350912CF91601CE57B
:1084100008240F12CC80A3E0C812C4D138F583E041
:10842000F87412122E69E8F0A3E4F0908112122978
:10843000997404122BF37407122BEB122E7374042D
:10844000122B5F850882850983A3A3A3A3A3A3A3FB
:10845000A3A37406128748F9123347850A08850BCF
:1084600009E508450970030285347C007904AA08EF
:10847000AB091233658A0A8B0B850882850983A3B1
:10848000A3A3A3E0F510A3E0F511E4F512F513782A
:108490000C7910122DBC4023E5082404F8E43509BA
:1084A000F9850C10850D1188828983C3E09510F041
:1084B000A3E0951112F1D770A2800E85088285097C
:1084C00083A3A3A3A3E4F0A3F0850882850983A373
:1084D000A3A3A3A3A3A3A3A3A3E064018508828508
:1084E0000983A3A3A3A3A3A3702BE05404600302F6
:1084F000838C850882850983A3A3A3A3A3A3A3A335
:10850000A37406F07AB785088285098312892B1235
:10851000329902845BA3A3A3A3E0600302838C854A
:108520000882850983A3A3A3A3A3A3A3A3A3740180
:10853000F002845B1233357C0079017A007B0012F3
:1085400033658B09EA4509600C7A207B0090059819
:10855000E0F912406D850C0A850D0B7C0079047AD8
:10856000007B00123365EA4B701580558A828B833D
:10857000A3A3A3A312E693E50898E5099940098A05
:10858000828B83A3A312873A7C0079041233658B14
:108590000DA90DEA4970D5C3E50A9508E50B9509C3
:1085A0005013C3E508950AF508E509950BF509E5AB
:1085B00008450970147A207B00900598E0F9124074
:1085C0006D9005AC129B44803FE50825E0F508E579
:1085D0000933F509E4F50AF50B7808122B957A2092
:1085E0007B00900598E0F91241937404122B5F12FE
:1085F00041B7EAC0E0EBC0E0ED9005ACFBECFAD08F
:10860000E0F9D0E0F8122E52EE6420802FE06007EF
:10861000640160030286FEEE54106008122F4BEED8
:1086200064108018EE54406008122FC3EE6440803E
:108630000BEE5480600B12494FEE6480FAEF028714
:1086400025EF5401600B123527EEFAEF6401028723
:1086500025EF54086047122F1B90196BE0640170DE
:108660003490196CE0602EF508E4F509F50AF50B75
:10867000908116780C122DDC7808790C12242D7854
:1086800008122B957A007B08900598E0F912419921
:108690007404122B5FEEFAEF6408028725EF541082
:1086A00060129005AAE06005E4F0122F1BEEFAEFCD
:1086B00064108071EF544060459005D112CF9360F3
:1086C00036901975E06401702E9005D212C8B5126B
:1086D0004AF29005D712CF93600612C8B5124AF23B
:1086E0009081161229997A007B40900598E0F91242
:1086F00041997404122B5FEEFAEF64408027EF5427
:1087000002600A123521EEFAEF64028018EF540479
:10871000601612CE67790190054B12CC94122E91FF
:10872000EEFAEF6404FB80047A007B007429122BBC
:108730005F7F0C02285B8E828F83A3A31287402267
:10874000E0F508A3E0F5092212C50DA3E022C082DE
:10875000C08374EA122C137C167D007900AA18AB32
:10876000191240137408122E697402F09005411218
:108770009B1712878E7409122E6912CCA3741312E0
:108780002E69E412CFCA1248BF741602D583E8F0EE
:10879000A3E9F090054B12D5462274F71225927486
:1087A000DA122C13EAFEEBFFEE4F602DAC18AD1978
:1087B0001233C57406122E69E0601E7417122E69FA
:1087C000E0FD7401122E69E0FCEEFAEFFB79001275
:1087D000326FE9600479A480027900742602B3F54F
:1087E00074F4122592EAFEEBFF8E828F83A3A3A37B
:1087F000A3A3A3E05440601912E2F512CC94123402
:108800007FE960077AFF7BFF0288D512E2F50288D4
:10881000C8901981E06007640160030288BD90057B
:1088200038E0A2E140030288BD12B43B12CD93A30D
:10883000A3A3A3E0FA88828983A3A312D9128E820C
:108840008F83A3A3A3A3A3A3A3E054106004794040
:1088500080027900750AFE750BFF780A122B9D12B3
:1088600089191229A1AC08AD0912E2F512CC9412B3
:108870002F217404122B5FE5086A7003E5096B6011
:108880000B12BF526A7003A3E06B703F750A007849
:108890000A122BA179028E828F8312B4FCFCA3E012
:1088A000FDAA08AB091234C17401122B5F7508CD03
:1088B000AA08128927123299E9604C8057901981D1
:1088C000E0640270E890054112CC9474FE6A700373
:1088D00074FF6B60D812E2F512E16512347FE98E05
:1088E000828F83600B12BC7012F4A9E4F0A38003A2
:1088F00012F497F07C8D7D328E828F8312CC94128D
:1089000048C5E9F50870A9EE4F60097901EEFAEF64
:10891000FB123341A908028FC9EE12891E222411CD
:10892000F582E43FF583228E828F8312F480E0F992
:108930002274F6122592E9FEEAFF7A0F7B001240BC
:108940002BEA4B601F8A828B83740CF0EEA3A3F09A
:10895000EF8A828B8312B1B1900598E0F91240370B
:108960007900802FEEF912336B8A088B09A808A9C9
:1089700009E849601C88828983A3A3A3A3A3A3A3B6
:10898000A3A3740612ED5AE0F9122FD5EEF91233B3
:1089900047791002C91274F41225928A088B098C47
:1089A0000A8D0B900552E0640F702CEA4509450AC8
:1089B000450B602390054DE064086005E064047099
:1089C000167808122B957A017B00900598E0F91231
:1089D00041937404122B5F028FC974F2122592EA3C
:1089E000FEEBFF8C0A8D0B8908740E122E6912E6BD
:1089F00098850C82F583E4F0A312CE5CF58388821F
:108A0000E0F912345BE9602612CC8712347FE96406
:108A100002701B8E828F83A3A3A3A3A3A3A3A3A3EC
:108A200012BADD850C82850D8312CCA380037508F4
:108A30000012B4F314602E14604314606414606C6C
:108A4000146048147003028ACC24FE7003028AE684
:108A5000147003028AEF147003028B021470030275
:108A60008B10028B26780C122B9DAC0AAD0BEEFA04
:108A7000EFFB122F337402122B5F028B0BAC0AAD8B
:108A80000BEEFAEFFB122F39028B3012CC87123427
:108A90007FE96003028B26EEFAEFFB122F87028B31
:108AA00030A908EEFAEFFB1234C7805F12B9716487
:108AB000027073E508700A12E21B7003A3E069708C
:108AC0006FEEFAEFFBA90812344F803F12E21B70E1
:108AD00003A3E069705012B97164027049EEFAEFB5
:108AE000FB123437804AEEFAEFFB12354580411213
:108AF000E21B7003A3E069702DEEFAEFFB1234D392
:108B0000802EEEFAEFFBA9081234DFE9F508802089
:108B1000901975E064017009EEFAEFFB1234EB80F6
:108B20000F750800800A7508007AD37B0012452370
:108B3000A9088007A90A7403122B5F7F0602285B2D
:108B400074F412259274D6122C138A088B098A8227
:108B50008B83A3A3E0F912336B8A0A8B0BAE0AAFA7
:108B60000BEE4F7003028C72850882850983A3A8DF
:108B700082A983E0C0E012CC6ED0E012E6A5E064EA
:108B8000F16033850882850983A3E064CD60278581
:108B90000882850983A3E0641A601B850882850921
:108BA00083A3E064E9600F850882850983A3E064FC
:108BB000E16003028D6A901981E06007640160033F
:108BC000028C938E828F83A3A3A3A3A3A3A3E054B9
:108BD000087003028C938E828F83A3A3A3A3A3A305
:108BE000A3A3A37405F0901981E06004640170539D
:108BF000850882850983A3E064E960479005CD126A
:108C0000CF93600612C8B5124AF29005CF12CF93E7
:108C10006031900538E0A2E1502912D186A3A3A3C8
:108C200012B9AF8882898312CC94123581EA4B60E5
:108C300012850882850983A3E0F99005CF12E2F935
:108C4000124AF28E828F83A3A3A3A3A3A3A3A3A3F9
:108C5000E0640270108E828F83A3A3A3A3A3A3A3B7
:108C6000A3A37406F0850882850983A3A3E0F91203
:108C70003347123335901981E064027011901A372E
:108C8000E0F508A3E0AA08FBE4FCFD12329F742A79
:108C9000028FC67900123341E97003028D6A901980
:108CA00081E0600764016003028D3F900538E0A217
:108CB000E14003028D3F12CF8E7003028D3F8E8202
:108CC0008F8312CC947404122BF312D1B01233C5DB
:108CD000850882850983A3E064E97023128E7412EB
:108CE0002BA1850882850983A3E0F50A780A122B57
:108CF000A1128E8112CC941233FB7402122B5F747A
:108D00000D122E6912CF8412F10212CCA374091233
:108D10002E69E06004794080027900740F122E6998
:108D200012B9AF740D122E6912CC94122F2DE96076
:108D30000E8E828F83A3A3A3A3A3A3E04420F0EE0F
:108D40002404F50AE43FF50B8E828F8312B008E00D
:108D5000F9850A82850B8312CC94123FE9850A8239
:108D6000850B83EAF0A3EB028BE5850882850983F6
:108D7000A3E0C0E07402122E69D0E012A7F812E15D
:108D800001E508240B12AFFBC0E07403122E69D07A
:108D9000E012E968E0AA18AB197031123C41901951
:108DA00081E06004640170277402122E69E0701F74
:108DB00012E2F512CC9412347FE970399005CD128D
:108DC000CF93603112C8B5124AF280031234557441
:108DD00002122E69E064E9701C128E74122BA175C8
:108DE0000AE9780A122BA1128E8112CC941233FB5D
:108DF0007402122B5F901981E06007640160030226
:108E00008C43900538E0A2E14003028C438E828FB0
:108E100083A3A3A3A3A3A3A3A3A3E06402703C8E94
:108E2000828F83A3A3A3A3A3A3E05404602D12E223
:108E3000F512CC9412347FE98E828F83700F12E288
:108E4000F974FFF0A312A9A87405028C64A3A3A36C
:108E5000A3A3A3A3A3A37403028C6485088285093A
:108E600083A3E064E96003028C43EEFAEFFB123463
:108E7000FD028C438E828F8312DA48750A01780ACC
:108E800022E508240C12BF71E0F98A828B83A3A328
:108E9000A3A3A3A3A3A3A312D90A2274F412259215
:108EA000EAFEEBFF7508007509008E828F83A3A38D
:108EB000A3A3A3E0603B75080812CC8779FF1230AA
:108EC000D78B0BEA450B601075082C8E828F83A31D
:108ED000A3A3A3A3E0D2E0F08E828F83A3A3A3A3D6
:108EE000A3E0540364016003028FA5430811028FBD
:108EF000A5EE241812B9746049EE241A12B97460F0
:108F000003F4701D12E21B7003A3E069700675087C
:108F100022028FA590054DE064046003028FA580B6
:108F20001CEE241BF582E43F12B9BD241A12B97459
:108F3000FAEE2419129BD4122F99E9706875090171
:108F4000806312CC8712347FE964027003750801D4
:108F500012E21B7003A3E0697006E508D2E1F50890
:108F6000E50860158E828F83A3A3E07006E508D222
:108F7000E58004E508D2E6F50812CC8712347FE9D3
:108F800064017006E508D2E0F5088E828F83A3A302
:108F9000E0601212B4F3F912345BE964016006E593
:108FA00008C2E0F508901981E0600464017012E5E0
:108FB00008A2E1400CE509A2E04006E508D2E7F589
:108FC000080289147418122B5F7F0402285B74EC6A
:108FD00012259274C3122C13EAFEEBFF85188285CA
:108FE000198374FEF0A304F0751000751100750963
:108FF00000901981E0640270248E828F83A3A3A362
:10900000A3E06019901A3512CF936011901A35E0E1
:10901000F50AA3E0AA0AFBE4FCFD12329F740512D4
:109020002BF38E828F83A3A3A312CF8612CC92122E
:1090300033C5E9700302940A78017407122E69E0BF
:10904000C39402400278007409122E69E0C39402AE
:1090500040027800740E122E69E064F87003A3E0F9
:10906000F4700302940A740E122E69E064F970031E
:10907000A3E0F4700302940A740E122E69E064FAFD
:109080007003A3E0F4700302940A740E122E69E0D8
:1090900064FB7003A3E0F4700302940A7408122EB8
:1090A00069E0F990053BE069600302940AE8A2E0F8
:1090B000400302940A901981E06402700B74291233
:1090C0002E69E0600302940A12BAD47424122E6945
:1090D00012B9DE241C12BAD77412122E6912CCA354
:1090E000740B122E69E0601D741C122E69E0FD7471
:1090F00006122E69E0FC8E828F8312CC92790112C7
:10910000326FE9703D7405122BEB1232B1E9F508AC
:10911000740B122E69E0702F900535E060297422DF
:109120005508642260217442550864427014742208
:10913000122E69129AF0600F7422122E69129AF69A
:1091400060057ACF02940CE9A2E6506C901981E098
:1091500060046401701B900538E0A2E15013742292
:10916000122E6912B4FC122A2601010B8F91000AFB
:10917000947422122E6912B4FC24FD601214600F44
:1091800024FD600B24FD600724FE600302940A7432
:1091900022122E69129B2F700F7422122E69A312B5
:1091A000C8B5A3E0640D60107405122BEB1234BB3C
:1091B000E964017003029AD9EE242DF582E43FF5AB
:1091C0008312A30B7003A3E0697021750A00780A6B
:1091D000122BA1780A122BA1EE242F129BD4129AE3
:1091E000FC12CC941233FB7402122B5F740B122E00
:1091F00069E0700302929B129AFC12CC94123581A2
:109200008A0A8B0BEA450B70030293327406122E06
:1092100069E0F88E828F83A3A3E028F8A3E03400EE
:10922000F9E8240D129ADEF88A828B83A3A3A3E0C7
:1092300068600EE88A828B83A3A3A312B19F129B5E
:109240004479047406122E6912A65BE02AF8A3E0A2
:1092500034008882F583A3AA82AB8312401F8A0C54
:109260008B0D8C0E8D0F850A82850B83A3A3A3A380
:10927000780C122B034003029AD990811E780C12AD
:109280002D55850A82850B83A3A3A3A3E50CF0A328
:10929000E50DF0A3E50EF0A3E50FF0901981E06471
:1092A0000260030293DF90054DE064046008E0640F
:1092B000096003029AD9E508A2E5400302936DEE26
:1092C000242F12B974C0E07402122E69D0E0129BF0
:1092D00055C0E07403122E69D0E0129B4DC0E074BB
:1092E00004122E69D0E0F07416122E69E064017049
:1092F000267410122E69129B0C7003A3E06970177C
:10930000740E122E6912CC9412347FE96402700735
:109310007416122E69E4F0129B3A122999740612FF
:109320002BF37409122BEB122E737404122B5F02B1
:109330009AD9900592E06401600302929B74221214
:109340002E69129AF07009E508A2E6500302929B7A
:109350007412122E69E0F47003A3E0F4600CEEFCCA
:10936000EFFD7405122BEB1232BD029AD9A2E64032
:1093700003029AD97422122E6912D1937016741CAA
:10938000122E69E0640270547405122BEB790012FE
:10939000344F80487422122E69129AF67014741C8D
:1093A000122E69E0640470347405122BEB123443FE
:1093B000802A7422122E69129B2F700C790074057A
:1093C000122BEB1234C780147422122E6912B4FED1
:1093D000640C70087405122BEB1234F7029AD9E072
:1093E000600764016003029AD9900538E0A2E14069
:1093F00003029AD97429122E69E060267410122E85
:109400006912CC94124A3FE9700A7AD37B00124564
:1094100023029AD98E828F83A3A312E2F9A3E0C21A
:10942000E5F07416122E69E0601DEE2402F8E43FA8
:10943000F9E8FAE9FB12D19914F012D199F87416EF
:10944000122E69E8F07006E508C2E7F508E508A203
:10945000E35061751110A2E25018740A122E69E0EF
:1094600054E3F0740A122E69E0131313541FF8E04A
:10947000802CA2E4502A740A122E69E01313543F80
:109480005407F86009740768600B18E87007C3E5B3
:1094900008C2E7F508E8333354FCF8E054E348F039
:1094A000740A122E69E0C0E08E828F83A3A312B0EB
:1094B000E6D0E0F090054DE064046008E0640960E7
:1094C00003029590740E122E6912E2287003A3E035
:1094D00069601F740E122E6912CC9412347FE964F5
:1094E00002600F740A122E69E054036401600302E3
:1094F0009AD97407122E69E07041EE242F12B974C4
:10950000C0E07402122E69D0E0129B55C0E07403D3
:10951000122E69D0E0129B4DC0E07404122E69D067
:10952000E0129B351229997406122BF37409122B41
:10953000EB122E737404122B5F80527422122E6968
:1095400012D1937016741C122E69E06402703E747E
:1095500005122BEB790012344F80327422122E69DF
:10956000129AF67014741C122E69E06404701E7452
:1095700005122BEB12344380147422122E69129BB5
:109580002F700A79007405122BEB1234C7029AD996
:10959000746155087003029697E508A2E0506D12B9
:1095A000B9A67405122BEB122FC9E9705C1233F5C2
:1095B000E9F5097416122E69E0700F7410122E6905
:1095C000129B0C7003A3E0696042A90912B9A6744A
:1095D00005122BEB122FCFE96024E508A2E3500C13
:1095E00085188285198374FFF0A3800C740E122EE7
:1095F00069129B17E8F0A3E9F0751004800EE508E6
:10960000C2E5F508750900800353089FE508A2E547
:10961000503FEE242F12B974C0E07402122E69D0AC
:10962000E0129B55C0E07403122E69D0E0129B4DEE
:10963000C0E07404122E69D0E0129B35122999748F
:1096400006122BF37409122BEB122E737404122BD7
:109650005FE508A2E6400302996CA818A919880AD8
:10966000890B780A122B9DA909129AE7122BEB128B
:1096700032A57402122B5FE9F509700302996C742C
:1096800022122E6912B4FC6401600302996C7410FA
:109690004510F51002996C7407122E69E064017090
:1096A0005D7422122E6912B4FC6405701EA818A9FC
:1096B00019880889097808122B9D129AE5122BEB5C
:1096C0001232A57402122B5F029AD97422122E69EB
:1096D000129B2F7029740E122E6912CC94124A3FDD
:1096E000E9601BA818A919880A890B780A122B9D12
:1096F000129AE5122BEB1232A57402122B5F74162C
:10970000122E69E070257407122E69E06401700C56
:109710007422122E69E0F8129B2F600CEEFCEFFD14
:109720007405122BEB1232BD029AD912333BE96059
:1097300003029AD9741D122E69E070030297E57432
:1097400020122E6912B9AF741F122E69E0FA741E2E
:10975000122E69E0F9122F99E9607D741F122E69AB
:10976000E0701E740E122E69129B1712F4B9FAA340
:10977000E0FB124A2D8B0BEA450B600302996680D1
:10978000517420122E6912CC94741F122E69E0F9C4
:10979000122F9385188285198312E1657808740D5C
:1097A000122E69E060027810740C122E69E06004D9
:1097B000740828F8740A122E69E0600108088E8285
:1097C0008F83A3A3E028FAA3E034008A82F583E024
:1097D00014F07510400299667508007808122BA1E4
:1097E000790B02991F740E122E6912CC987409120B
:1097F0002E69E0600302993AE508A2E3500302995A
:109800003A7407122E69E06401607A790085188243
:1098100085198312CC94122FED8A0A8B0BA80AA902
:109820000BE849601C88828983A3A3A3A3A3E064F7
:1098300001605288828983A3A3A3A3A3E06402608A
:1098400044EE242D12B9A985188285198312CC946F
:109850001235818A828B83E5824583600FA3A3E062
:10986000F912359FE96005C3940840197410122E4F
:109870006912CC94124A3FE97003029915740912D7
:109880002E697404F07800E8F5097809122BA174A8
:109890001E122E69AC82AD83740F122E6912CC9405
:1098A000740A122E69E0F9122FFF7401122B5FE97E
:1098B000600F7510208E828F83A3A312B4FC543FD7
:1098C000F0741D122E69E06023740E122E6912B915
:1098D000AF741E122E69AA82AB831233BF85188221
:1098E00085198312E16574404510F5107407122E36
:1098F00069E06401601579007410122E6912B9AF25
:10990000740E122E6912CC94122F9FE508A2E35018
:1099100037794080357508007808122BA1790274D8
:109920000F122E6912B9AF7411122E6912CC941253
:1099300034C17401122B5F029AD9E508A2E34003F7
:10994000029885784002988779007410122E691267
:10995000B9AF740E122E6912CC94122F2DE9600645
:1099600074204510F5101233F5E9F5098518828544
:109970001983E064FE7003A3E0F47003750900909E
:10998000196EE064016003029A1FEE241312B97489
:10999000F47003A3E0F47003029A1F740E122E6990
:1099A000C3E094F9A3E094FF507512BAD474101276
:1099B0002E69E0687003A3E06960647410122E6978
:1099C00012CC94124A2D8A0A8B0BA80AA90BE849DB
:1099D000604D88828983A3A3A3A3E06401600D88FE
:1099E000828983A3A3A3A3E0640270337430122E90
:1099F00069740112E6AFF8A3E0F9743B122E691204
:109A0000CCA37430122BEB124A93E9601274331218
:109A10002E69AA82AB831249EBE960031244ABE5DD
:109A200008A2E74003029AD9E5097003029AD98E89
:109A3000828F83A3A3A3A3E0FA7B001240CD8A0AFE
:109A40008B0BEA450B7003029AD9EE2404F512E45D
:109A50003FF5138E828F83A3129B21122B998512BF
:109A600082851383E0FC7D001240077403122B5F94
:109A70007407122E69E0C0E0742B122E69D0E0F05A
:109A8000742E122E69E4F0A3F0742B122BE3880CD1
:109A9000890D780C122B9D7508007808122BA1787F
:109AA00010122B9DE509F5087808122BA112B96850
:109AB0001229A1851282851383E0F97408122E6998
:109AC00012B9AFAA0AAB0B1233B37408122B5FE9B9
:109AD0006007AA0AAB0B1240D3743D02872EF582B1
:109AE000E412EEED22790012B96C12B9B3740722B8
:109AF00012B51664062212B518640722EE242BF55F
:109B000082E43FF58312B9C312B96D2212D546EE35
:109B1000241312BF59682212D546851882851983ED
:109B200022A3E0F50CA3E0F50D750E00780C2212CF
:109B3000B518640322F0129B3A22EE2425F582E444
:109B40003FF58322E4F0A3F0A3F0A3F022F0EE248B
:109B50003112BF5922F0EE243012BF592274F41290
:109B60002592EAFEEBFF8C088D0990196BE0600FDF
:109B700012E21B7003A3E0697005122F1B8052795B
:109B80000012CC87122FED8A828B83E58245836099
:109B900035A3A3A3A3A3A3E05418602AE508241CBB
:109BA00012CC801229A1E508241312CC801229A11D
:109BB000EE2418129BD4129BD912CC941230057447
:109BC00004122B5F800B7900129BD912CC94122FB8
:109BD00045028FC912BF59F9228E828F83A3A3A396
:109BE000A3A3A3A3A3A312B9C312CC732274F0122C
:109BF000259274EA122C138A0A8B0BEA2402F50EC2
:109C0000E4350BF50F0A0AFB124A278A088B09AEC6
:109C100008AF09750801850A82850B83A3E0F50961
:109C2000750C01AC0EAD0F740B122E69AA82AB83BA
:109C30001241E17413122E6974FEF0A304F074153E
:109C4000122E697402F07408122E69E4F0901997CC
:109C5000E0700EEE4F700AE50970067508C3029EAB
:109C60002990054DE0640860067508C2029E2585AE
:109C70000A82850B83A3A3A3A3A3A3A3A3A3A3E007
:109C8000A2E1500EA2E35005750C04800C750C0384
:109C90008007A2E35003750C02EE4F7003029D385B
:109CA0008E828F83A3A3A3A3E06404600D8E828FB2
:109CB00083A3A3A3A3E06403700C7404650C602C5D
:109CC0007403650C60268E828F83A3A3A3A3E06434
:109CD00002600D8E828F83A3A3A3A3E06401703181
:109CE0007402650C60067401650C70188E828F8397
:109CF00012CC9412349DE9703F12A99E122E691263
:109D0000CCA380348E828F83A3A3A3A3E0640260DC
:109D10000D8E828F83A3A3A3A3E06401700A8E82B9
:109D20008F8312CC94122F63E50A2402FAE4350BD8
:109D3000FB1249EB7E007F007413122E69E064FE73
:109D40007003A3E0F47046124A87E97040E50960A9
:109D50001B9019A012CC9412349DE9700F9019A099
:109D600012A9A2122E69E8F0A3E98020850A828553
:109D70000B83A3A3A3A3A3A3A3A3A3A3E05402F9C8
:109D8000122F577413122E69EAF0A3EBF07413121A
:109D90002E69E064FE7003A3E0F470067508C70244
:109DA0009E25E509F50D780D122BA1850A82850BFC
:109DB00083A3A3A3A3A3A3A3A3A3A3E0F9E50A24D6
:109DC00002FCE4350BFD7414122E6912CC94122E91
:109DD000977401122B5FE9704CA90CE50A2402FC70
:109DE000E4350BFD7413122E6912CC94124A518A79
:109DF0000E8B0FAE0EAF0FEE4F601F740265097031
:109E00000D8E828F83A3A3A3A3A3E0D2E3F07415E6
:109E1000122E69E4F0750800800B7413122E697419
:109E2000FEF0A304F0E5097009AA18AB191248A7BF
:109E3000800AFCA90CAA18AB1912343DE9FCEE4FBC
:109E40006053E50960208E828F83A3A3A3A3A3E0C0
:109E5000D2E6F074026509700D8E828F83A3A3A3EE
:109E6000A3A3E0D2E5F0850A82850B83A3A3A3A375
:109E7000A3A3A3A3A3A3E0A2E6500D8E828F83A386
:109E8000A3A3A3A3E0D2E7F08E828F83A3A3A3A30F
:109E9000A3A3E004F0E508703BEC60337D007A0199
:109EA0007B10123FE3EE4F600CE50A2402FAE43522
:109EB0000BFB1249EB7413122E69E064FE7003A3CE
:109EC000E0F4600B7413122E6912CC94122F637499
:109ED0001602D934FC80C574F712259274F7122C3F
:109EE00013EAFEEBFF90054DE06403600DE06401B2
:109EF0006008E06409600302A0268E828F83A3E0DD
:109F00006003029FE47C007D007A027B00123FE345
:109F100012A02B8A828B8312BADD90053E12CCA34D
:109F2000795312489B90054DE06409600990054BF8
:109F300012CC9412357B851882851983740112CF57
:109F4000CA794212489B90054D7404F07401122B9B
:109F5000EB794A1248957401122BF37A437B051270
:109F600041E1901815E0640B70057406F0800B79E0
:109F70000090054B12CC94122E91901981E0600450
:109F80006401701F900541E064FE7003A3E0F4607B
:109F90002A79007401122BF390054112CC94124AD5
:109FA000518018E06402701390053E12B9AF7A0335
:109FB0007B00123FE312A88A123FE3900538E0A22B
:109FC000E35004D2F08002C2F012CFC0795212489E
:109FD0009B901981E06402704A901A31122E3A1255
:109FE000329F803FFC7D007A037B10123FE3901983
:109FF00081E06402701B901815E0640B7003740A12
:10A00000F090196FE4F0FA7B40900598E0F9124166
:10A010009F8E828F8312A03512CC94122E919005C0
:10A020004DE4F012330B740902B3F5EE2402FAE4A6
:10A030003FFB22E0F8A3E0F990054B22C082C083E9
:10A040009004D512CF93701F90054DE01460092441
:10A05000FC600A14600C800F9004E080349004DCF3
:10A06000802F9004DE802AE84960089004D612A66A
:10A070006C700C8A828B83A3E0F9122E79801D907C
:10A0800004D512D19D64027005123515800E90051D
:10A09000CB12CF93600612C8B5124AF202C5807483
:10A0A000F412259274FE122C138A088B097A007B15
:10A0B00004900598E0F912419FAA18AB1979501243
:10A0C00048957A0F7B0012402B8A0A8B0BAE0AAFA1
:10A0D0000BEE4F6020850882850983A3E0701690FF
:10A0E000054BE0F47003A3E0F4603B12A30570039A
:10A0F000A3E0696031850882850983A374EA12A709
:10A10000F012489B7A417B05794B12489B7A4B7B36
:10A1100005795012489B7A407B0579E112489BEE05
:10A120004F700302A1AF8E828F837402F090054BB3
:10A13000E0F47003A3E0F4600A12A3057003A3E047
:10A1400069704F85188285198312A033E8F0A3E95E
:10A1500012A7F012489590053E12B01912CCA37ABE
:10A16000417B05794B1248957A407B0579E112488D
:10A1700095750A00780A122BA1780A122BA1901962
:10A18000E612A03612AD4F12CC941233FB740212B9
:10A190002B5F85088285098312A1B4A3F090054D39
:10A1A0007403F0EEFAEFFB900598E0F91240377473
:10A1B00002028FC6A3E08E828F832274F41225924E
:10A1C00074E8122C13EAFCEBFD8C828D83A3A3A30D
:10A1D000A37808122DDC7808122D9C90054E780883
:10A1E000122D2F7F7F7E7F790090054E7808122DEB
:10A1F000DCE97808122BCAE508A2E0502978009023
:10A2000005998014850882850983A3A3E0697001FC
:10A2100008E508241412CC8012AA3970E7E8C39F1D
:10A220005004E8FFE9FE09E9C3941B40BC8C828D11
:10A2300083A3A3A3A3122E16E8494A4B6079EC240A
:10A2400004F508E43DF509850882F583122E169081
:10A25000054E122E527C187D007900AA18AB1912F7
:10A260004013850882850983122E16851882851968
:10A2700083122E527404122E697401F0900554E07A
:10A28000C0E07405122E69D0E0F07407122E69E464
:10A2900012CFCA1248B3806A90054B12CC94122E8A
:10A2A000C78A0A8B0BA80AA90B90054B12A3146846
:10A2B0007003A3E069602D90059912AA3960258585
:10A2C000088285098312A30B7003A3E069700C85D3
:10A2D0000882850983A3A3E06E60BDE508241412FB
:10A2E000CC8080D6EE900540F01232EDE9601390FC
:10A2F000054DE4F09004E212CF93600612C8B31249
:10A300004AF2028FC485188285198312D5469005BA
:10A310004BE06822E8F0A3E912A31C22F085088232
:10A32000850983E02274F412259274E8122C138AB2
:10A33000828B83A3A3A3A3A3A3A3A3A312DA447C26
:10A340000090054E7808122DDCEC7808122BCAE537
:10A3500008A2E0502FECF8EA2812BACCF890199F26
:10A36000E0C398501F750801750900750A00750B48
:10A3700000EC7808122B227808122D9C90054E785C
:10A3800008122D2F0CECC3941B40B690054E122ED4
:10A3900016E8494A4B604E7C187D007900AA18AB3C
:10A3A0001912401390054E122E16851882851983B6
:10A3B000122E527404122E697401F07407122E6961
:10A3C0007401F0900554E0C0E07405122E69D0E0ED
:10A3D000F07407122E69E412CFCA1248B390054DEB
:10A3E0007406F0801C90054DE4F0FCFD7A047B10AF
:10A3F000123FE39004E212CF93600612C8B3124AF0
:10A40000F2028FC474F512259274D1122C138A08AB
:10A410008B098A828B8312BC68741C122BF38A828C
:10A420008B83A3A3A3A3A3A3A312A66412CC8B1212
:10A43000331D741C122E69E0702C850882850983F7
:10A44000A3A3A3A3A3A3A3A3E0C3940B40188E824A
:10A450008F83A3A3A3A3A3A3A3A3E0640270071203
:10A46000CC6EE0F4600302A65690054DE0640270E5
:10A470000302A53BE06406700302A53B9004D512DD
:10A48000CF93600812A66C700302A56F90054DE093
:10A4900064086008E06404600302A656741E122E6D
:10A4A0006912A65BA3A3A3A312BC689004D5E0F82D
:10A4B00049600712D1A36402607790054BE06E708B
:10A4C00003A3E06F600302A65674016A601674234A
:10A4D000122E69AC82AD837A5F7B051241DBE960A5
:10A4E0000302A6567A007B02900598E0F91241A576
:10A4F000EA4B4C4D600302A65690054E122E16856F
:10A500001882851983122E52900554E0C0E074041D
:10A51000122E69D0E0F07405122E697401F07406F1
:10A52000122E69740212CFCA124967E9600302A6AB
:10A5300053EEFAEFFB12350F02A6569004D512CF58
:10A5400093702C7508007808122BA17808122BA1A3
:10A55000EE2410F582E43FF58312CF87A3A3A3A3D3
:10A56000A312B9CC12CC941233FB7402122B5F8E5F
:10A57000828F8312BADD7407122E69E8F0A3E91204
:10A58000A9A812BADD7409122E6912B9DE12BF63CE
:10A59000C0E0740B122E69D0E0F012CC6E12873C32
:10A5A000740F7808122DEB740C122E69E508F07404
:10A5B00020122E69E0C0E0740D122E69D0E0F07414
:10A5C00022122E69E0C0E0740E122E69D0E0F07401
:10A5D0001D122E69E0C0E07410122E69D0E0F074F4
:10A5E0001E122E69E0C0E0740F122E69D0E0F0EE6A
:10A5F000241012B974C0E07411122E69D0E0F07406
:10A6000021122E69E0C0E07412122E69D0E0F074BD
:10A610002E122E69E0C0E07413122E69D0E0F0749F
:10A6200023122E69A982AA8389088A09750A0078EB
:10A6300008122B997C087D007417122E69AA82AB30
:10A64000831240077403122B5F7407122BEB122E38
:10A650008B8003124961742F02B665E0FA8E828FF7
:10A6600083A3A322A3E0F98A828B832212D1A4645C
:10A67000012274F712259274C9122C1312352D90F1
:10A68000054DE06408601F9050D5E49390052FF0CD
:10A690009050D5E49390052DF0900556740112A7C3
:10A6A000E7A30412A7E77C237D0079007414122B22
:10A6B000EB12401390055EE07009741E122E69744F
:10A6C000018006741E122E69E412A7F8740FF09030
:10A6D000199E12CFCA794612489B7401122E69E462
:10A6E000F0901A4AE0C0E07402122E69D0E0F090B7
:10A6F000053BE0C0E07403122E69D0E0F074041250
:10A700002E69E4F07405122E69E4F07407122E69C4
:10A71000E4F090055EE0C3940F500CE0C0E07406D6
:10A72000122E69D0E080077406122E69740FF07C37
:10A730005F7D057408122E69AA82AB831241E17C09
:10A74000037D0079FF7410122E69AA82AB83124038
:10A7500013900597E0C0E07413122E69D0E012CB7D
:10A76000D47401122BEB1233177A9B7B05794512B7
:10A77000489B12342B900552E0C0E0741C122E69E5
:10A78000D0E0F0900553E0C0E0741D122E69D0E0D7
:10A79000F0900540E0C0E0741A122E69D0E01287F4
:10A7A000927418122E6912CCA37420122E69E4F050
:10A7B000900555E0C0E0741F122E69D0E0F07434AB
:10A7C000122E69E4F07429122E69E412A7F01248DF
:10A7D0009B7A417B05794B12489B7414122BEB1228
:10A7E00048B9743702B3F5F0A3E4F0A3F0A3F02264
:10A7F000F07A3E7B0579532212A7FC22F08518825D
:10A8000085198322C082C0838A828B83A3E090054E
:10A810004D6004E4F080707408F090055EE07028EC
:10A820009004E212CF936008790012C8B5124AF280
:10A8300090054B12B9AF7A057B00123FE390054BB0
:10A8400012CC9412357B80187900122E8590053E2B
:10A8500012B9AF7A067B00123FE312A88A123FE3D7
:10A860009005D112CF93601F901975E064017017A5
:10A870009081161229997A007B40900598E0F91290
:10A8800041997404122B5F02C58090054112B9B33F
:10A890007A047B002274F412259274EA122C138A33
:10A8A000088B09EA2402FAE43509FB124A278A0ACE
:10A8B0008B0BAE0AAF0BEE4F700302A9998E828FFD
:10A8C00083A3A3A3A3E06401602A8E828F83A3A342
:10A8D000A3A3E06402601D8E828F83A3A3A3A3E0E1
:10A8E000640360108E828F83A3A3A3A3E06404603B
:10A8F0000302A999E5082402FCE43509FD740B1252
:10A900002E69AA82AB831241E112A99E122E69120E
:10A91000CCA37415122E697401F07408122E69E428
:10A9200012CFCA1248ADE9FC7D007A077B00123FC6
:10A93000E38E828F83A3A3A3A3A3E0C2E012A9A8FE
:10A94000740112E9775001097A027B00122335E87D
:10A950008E828F83A3A3A3A3A3A3A3A3F0901975AF
:10A96000E06401703490196FE06402702C8E828F65
:10A9700083A3A3A3A3E06401600D8E828F83A3A3AE
:10A98000A3A3E06402701212B968122E1612C25705
:10A99000122E52EE241B12CF7A7416028FC68E82AC
:10A9A0008F8312D54674132212A9AC2212C28DA332
:10A9B000A3A3A32274F212259274F8122C13EAFEB8
:10A9C000EBFF8C0A8D0B890D9080E0AC18AD1974EB
:10A9D00008122AC3750C00EEFCEFFDAA18AB191281
:10A9E00041DBE97003750C01900599801AEEFCEFCC
:10A9F000FDE508240BFAE43509FB1241DBE970237D
:10AA0000E508241412CC8012AA396024E50CA2E0D7
:10AA100040DB850882850983E0650A7004A3E06550
:10AA20000B70DD850882850983A3A3E0650D70D0D6
:10AA3000AA08AB097408028B38128740E50845095B
:10AA400022C082C08390059902C57D74F7122592B9
:10AA500090059912F0FD800C12D7AC12BC6B12401D
:10AA6000D3EEFAEFFBEA4B70EF900599E4F0A3F018
:10AA700002B3F874F4122592EAFEEBFFEE241312EF
:10AA8000B9746403700CEE240BFAE43FFB124A27FE
:10AA9000800EE06402707C12CC6E12CC94124A2DAF
:10AAA0008A088B09E508450960698E828F83A3E0D7
:10AAB000700F850882850983A3A3A3A3A3A3E480C1
:10AAC0005164F1600A8E828F83A3E064E170278570
:10AAD0000882850983A3A3A3A3A3A3E0640170163E
:10AAE00085088285098312CC94122F63EE240BFA19
:10AAF000E43FFB1249EB850882850983A3A3A3A346
:10AB0000A3A3E0600E850882850983A3A3A3A3A362
:10AB1000A314F0028FC974F11225928A088B09ECF4
:10AB2000FEEDFF890A8A828B8312DBE78A828B83A0
:10AB300012A1B412ABE88A828B83A3A3E0C454F0C1
:10AB4000FA88828983E04A12ABF812A1B412ABF200
:10AB5000E0333354FCF88E828F83E04812ABF2A3CB
:10AB6000E033333354F8F88E828F83E04812ABE839
:10AB70008508828B83A3A3A3A3A3A3E0A2E0E4336D
:10AB80001313FA88828983E04AF0E5082407F50C5C
:10AB9000E43509F50D750E00780C122B997C087DB3
:10ABA00000EEFAEFFB1240077403122B5FEE24084D
:10ABB000FE50010FE508240FF50CE43509F50D787A
:10ABC0000C122B997C037D00EEFAEFFB1240077408
:10ABD00003122B5FE50AC3940F400A12CC7C12A12A
:10ABE000B5A3A3A3F002E949F0EEF8EFF9A30EAF85
:10ABF000832212ABF8A3A322F08508828B83A3A340
:10AC00002274F1122592EAFEEBFF890A8C088D0965
:10AC10008E828F83E08C828D8312BF94AE82AF834D
:10AC2000E012C34312C52DC412C34312ACC0E012DC
:10AC3000C34A12C52BA2E2E4338C828D8312C52A4B
:10AC4000131313541F12C34312C529A2E7E4338C14
:10AC5000828D83A3A3A3A312ACC08E0C8F0D750E9F
:10AC600000780C122B997C087D00E5082407FAE493
:10AC70003509FB1240077403122B5FEE2408FE50C7
:10AC8000010F8E0C8F0D780C122B997C037D00E543
:10AC900008240FFAE43509FB1240077403122B5FF6
:10ACA000E50AC3940F40118E828F83A3A3A3E0C053
:10ACB000E012CC7CD0E0800412CC7CE4F002E949C4
:10ACC000A3A312BF980EAF832274F51225928A08AF
:10ACD0008B098A828B83A3AE82AF83E0F9122EAFF9
:10ACE0008E828F83E064EB6024850882850983A3CC
:10ACF000E064E16018850882850983A3E064F1605F
:10AD00000C850882850983A3E0641A70098508828E
:10AD1000850983A3E4F0901A31122E3A12329F75FE
:10AD20000A01780A122BA1850882850983A3E0F520
:10AD3000087808122BA1790090054B12AD4F12CC68
:10AD4000941233FB7402122B5F12333502B6681271
:10AD5000B9B390054122C082C083E99005AB70036E
:10AD6000E480027401801EE0F902C580C082C083C5
:10AD70007C8D7D328A828B8312CC941248C502C5A9
:10AD800080EAF0A3EBF002C58074F61225929005DC
:10AD9000ABE0701B7C0079017A007B00123365EA1E
:10ADA0004B600C8A828B8312CF9360031232930222
:10ADB000C912C082C083790412335FE9F89050C48D
:10ADC000E493C398401079FF12335FE9F89050C9BB
:10ADD000E493C398500479018002790002C580741D
:10ADE000F01225928A088B09890B750C008A828BD8
:10ADF00083A3A3A3A3A3A3A3A3E0F912336B8A0E97
:10AE00008B0FAE0EAF0F750A01EE4F600302AECA94
:10AE100085088285098312B008A3A3A3A3A3A31264
:10AE2000C05112CC941233538A0C8B0DAE0CAF0D63
:10AE3000EE4F700302AFF38E828F83A3A3A3A3E42C
:10AE4000F0A3F0E508240CFAE43509FB8A828B8331
:10AE5000E0C0E012E96DD0E0F0E508240D12B0008A
:10AE600012DBB512CCA312348BEE240F12E15FE596
:10AE700008241112B00012891A12CCA3E508241379
:10AE800012AFFBC0E012B968D0E0F0750C01EE24FF
:10AE90000612BF49E0547FF0A3E054FC12E6A5E09F
:10AEA0005404600302AF41901A43E0F508750900AD
:10AEB00074077808122D1C8E828F83A3A3A3A3A3EB
:10AEC000A3E04508F0A3E04509F08E828F83A3A399
:10AED000A3A312873A74077808122DEBE5085407EC
:10AEE000FCE50B606C8E828F83A3A3A3A3A3A3A313
:10AEF000A3A3740212C52E12B2CF600B90053912B3
:10AF0000B019A3A312CCA3EC700302AFBCEE2406CD
:10AF100012F44B547FF508A3E054FCF509EC24FF30
:10AF2000F50EE434FFF50F7407780E122D1CE508BA
:10AF3000450EF8E509450FF98A828B8312CCA38070
:10AF40007B8E828F83A3A3A3A3A3A3E0448002AE3E
:10AF5000C9EC7005750A0080638E828F83A3A3A35A
:10AF6000A3A3A3E05420600C124025EA547F79008B
:10AF7000245F80198E828F83A3A3A3A3A3A3E0548D
:10AF800010601A124025EA540F7900240A50010972
:10AF90008E828F83A3A3A3A3F0A3E9800D8E828F5B
:10AFA00083A3A3A3A37401F0A3E412A9A87404F0DB
:10AFB0007A207B00900598E0F912406DE50CA2E044
:10AFC000503412B9C8A3A3A3A3A3A3A3A3A3E0F9D6
:10AFD000EEFAEFFB123359E9601C12ED533F12CF2A
:10AFE00091600912B52612CC941240D3EEFAEFFB11
:10AFF0001240D3750A00A90A02D93712BF71E022A4
:10B0000012BF7112D546EE22A3A3A3A3A3A312B924
:10B01000B3850882850983A32212D5468E828F8349
:10B02000A3A32274F412259274F7122C137E00123B
:10B03000336BEA4B700302B0DF8A828B83A3A3A336
:10B04000A3A3A3A3A3A3E06406600302B0DF8A82E4
:10B050008B83A3A3A3A3A3A3A3E0FF8A828B831262
:10B06000B0E6E0C0E07408122E69D0E012B50D120F
:10B07000CC99123389EF540860638518828519834F
:10B0800012B9AF7A007B0012334D8B0BEA450B707F
:10B090004C12F5A51248DD7C007D007A007B008013
:10B0A000288E828F8312B4FCF47003A3E0F4602D29
:10B0B00090054B12B9D012CC941248D7E9641A60AB
:10B0C0001C7C007D00EEFAEFFB12334D8A0A8B0BDD
:10B0D000AE0AAF0BEE4F70C979001248E37E01EE65
:10B0E000F97409028FC612BC7412B0ED222408F55F
:10B0F00082E438F58322C082C083EA4B7005900554
:10B10000B080068A828B83A3A312B30360258A8250
:10B110008B83A3A3A3A3A3A3A3E0540860E5EC4DF2
:10B1200060158A828B8312B4FC6C7003A3E06D708F
:10B13000D280047A007B0002C58074F2122592EA64
:10B14000FEEBFF890A8C088D097A147B001240CD32
:10B15000EA4B603F8A828B83A3A3A3A3A3A3A3A3E9
:10B16000A3E412B502A3E50A12B19FA3A312DD2244
:10B170008A828B83A3A3A3A3E4F0A312B52012B108
:10B18000B112E0FDEA12ED543BF583E4F012B19602
:10B19000F0A3F0028B3BA3F08A828B83A3A322123D
:10B1A000B1A32212B1A722F08A828B83A3A3A3A307
:10B1B00022A3F012F46C3BF583E4F02274F4122520
:10B1C00092EAFEEBFF89088C0A8D0BEE4F700302AA
:10B1D000B258740165087012790112335FE9F89072
:10B1E00050CFE493C39850228016740465087014FD
:10B1F000790412335FE9F89050C4E493C398500A7D
:10B200007911805674026508704E8E828F83A3A3D5
:10B21000A3A3A3A3A3A3A3E50812B9D812DBC2E496
:10B22000F0A3F09005B012CF9360178003E0F8A36D
:10B2300012CD9AA3A312B30388828983A3A370EDCE
:10B2400080039005B012E1017A207B00900598E020
:10B25000F912406D7900800279C1028FC9C082C0A5
:10B2600083E9F879009005B0801D8A828B83A3A3BF
:10B27000A3A3A3A3A3A3A3E068600574FF68700160
:10B28000098A828B83A3A312B30370DE02C5807484
:10B29000F7122592EA4B70059005B080068A828BE2
:10B2A00083A3A312B30360208A828B83A3A3A3A3E7
:10B2B000A3A3A3A3A3E06970E4EC60108A828B834C
:10B2C000E012B2CF70D780047A007B0002B3F8128C
:10B2D000F4A1E0540422C082C0839005B080068AA5
:10B2E000828B83A3A312B30360128A828B83A3A3EE
:10B2F000A3A3A3A3A3A3E06970E580047A007B0065
:10B3000002C58012D1C8EA4B2274F7122592EAFCDA
:10B31000EBFD9005B080068A828B83A3A312B30352
:10B3200060248A828B8312B4FC6C7003A3E06D707E
:10B33000E68A828B83A3E0C812BC6112D923A2E003
:10B34000E43370D380047A007B0002B3F874F21205
:10B3500025928A0A8B0B8C0C8D0D750800750900DF
:10B36000EA450B60309005B080068E828F83A3A3E0
:10B3700012BC6BEE4F601EAC0CAD0DEEFAEFFB8510
:10B380000A82850B83124AF2E9640170DDEEF8EF60
:10B39000F988088909AA08AB09028B3B7900022BBE
:10B3A0004774F71225929005B012BADD7C007D003B
:10B3B000800DE8FCE9FD88828983A3A312BADDE849
:10B3C000496030EA687002EB6970E79005B012CC12
:10B3D00094E86A7002E96B88828983A3A3700812DB
:10B3E000BADD9005B0800912BADD8C828D83A3A3EB
:10B3F00012CCA38003122B5F7F0102285B74F7122B
:10B400002592EAFEEBFFEE4F602F12338312B43B1E
:10B4100012CC941240D38E828F8312CC941240D3DC
:10B4200012ED533F12CF91600912B52612CC94123F
:10B4300040D3EEFAEFFB1240D380BD12CF99F583D3
:10B440002274F61225928A828B8312B4FCF508A32B
:10B45000E0F5099005B012BADD7D007C00802F88F0
:10B46000828983A3A3A3A3A3A3A3A3A3E0640570DA
:10B47000140C12DBDEF5838E82E065087004A3E015
:10B48000650970010D88828983A3A312BADDE8499A
:10B4900070CD9050D0E493F8EDC39850089050D3FD
:10B4A00012EEDB400F8A828B83A3A3A3A37401F067
:10B4B000A3E48010900539E0F812A664A3A3A3A327
:10B4C000E8F0A3E912B520740512B502E0440812B1
:10B4D000B50DF47003A3E0F4601190054B12D9068A
:10B4E00012CC941248D7E9641A700579011248E326
:10B4F00002C912EE241DF582E43FF583E0F812B58F
:10B50000182212B5062212B1A7A3A3A322F08A82A1
:10B510008B8312B51622E0F8A3E0F5838882E0223F
:10B5200012B506A3A322EE12CD7F22C082C083EA09
:10B53000FCEBFDEC4D6017EC24FBF582ED34FF12C3
:10B54000CF91700712B585E0F4600712403179059C
:10B550008030900598E0C0E012B585D0E0F09050C2
:10B56000C1E493F97AB27B05124067E96401701077
:10B570007A007B20900598E0F912406D79008002F6
:10B58000790402C580EC24FFF582ED34FFF58322B7
:10B5900074F4122592A2AFE433F508C2AF9005B25D
:10B5A00012BC6BEE4F603AEE24FBF582EF34FF12D3
:10B5B000CF917A007B209005986007E0F912406DEA
:10B5C0008005E0F9124073E4F50AF50B780A122BB6
:10B5D0009DEEFCEFFD7AB27B051240617402122BE6
:10B5E0005FE508A2E092AFEEFAEFFB028FC974F5B7
:10B5F0001225928A088B09750A009005B012DBE2C9
:10B60000805A8E828F8312B4FC65087004A3E065B3
:10B6100009703D8E828F83A3A3A3A3E4F0A312C27B
:10B620009E540460118E828F83A3A3A3A3A3A3A31C
:10B63000A3E0F9122FD58E828F83A3A3A3A3A3A384
:10B64000A3A3A37406F07AF0128927123299050A8F
:10B650008E828F83A3A312BADDE8FEE9FFEE4F705E
:10B66000A1A90A8003122B5F7F0302285B74F012EA
:10B67000259274D4122C13EAFEEBFF750B00750AA9
:10B68000007508FE7509FF12333BE9600302B95BE0
:10B69000EE241512B9746044901A60E0C43354E08B
:10B6A000F8E0333354FC48C0E012D735D0E012B98B
:10B6B000D812CC9479FF1230D78B0DEA450D600F6C
:10B6C000750B017508FF12CF7E12CE54D2E0F090B8
:10B6D0001981E0600464017003750A408E828F83D3
:10B6E00012CC9212347FE9600312B980EE24131257
:10B6F000B974700D9050CCE493C0E012B968D0E0FA
:10B70000F08E828F83E0A2E7500454038019EE2468
:10B710001412B974701290052AE0C0E012F441D0FE
:10B72000E0F090052AE004F012F45D7016901A4CD7
:10B73000E0600D900535E0700A8E828F83E0700323
:10B7400012CD6F901981E060046401704B90053850
:10B75000E0A2E15043E50BA2E040218E828F8312EC
:10B76000CC9212347FE960308E828F83E0600DEEE0
:10B77000240B12B4F6F912345BE9601C12B98C7018
:10B780000302B90DEE241312B9746401600302B907
:10B790000D12B526E054FBF08E828F83E0640170B9
:10B7A0000DEE240B12B4F66402700312B99912B9AB
:10B7B0008C600302B873E50BA2E0500302B87390EB
:10B7C0001981E060076401600302B873900538E0F6
:10B7D000A2E1400302B873E50AF50B780B122BA126
:10B7E000EE2406FCE43FFD8E828F8312CC92EE2481
:10B7F00012129BD4122FFF7401122B5FE960061204
:10B80000B98012B9928E828F83A3A3A3A3A3A3E0CE
:10B81000603CEE2402F50CE43FF50D850C8212B974
:10B82000BD2407FAE43FFB1233BF8A088B09850C5D
:10B8300082850D83E065087004A3E06509700C8EB5
:10B84000828F83A3A3A3A3A3A3E4F012B9998E824A
:10B850008F83E06401600BA90A12B9CC12CC92125A
:10B860002F9FA90A12B9C812CC92122F2DE960039A
:10B8700012B992AC18AD19EEFAEFFB1233B98A0A7D
:10B880008B0B74FE6508700474FF650970031287E2
:10B8900036EA450B700302B95F8E828F83E0C0E009
:10B8A0007401122E69D0E0F07404122E6912E101C5
:10B8B000EE241E12BAD77402122E6912CCA37401A0
:10B8C000122BE3880C890D780C122B9DEE2420128C
:10B8D000B978122BA112B5261229A1EE240E12B9A5
:10B8E00078122BA190053E1229A17408122E69E04E
:10B8F000F9AC08AD091233B37408122B5FE9FE747A
:10B90000106E705DAA0AAB0B1240D38054EE241364
:10B9100012B974C0E07417122E69D0E012F4B27438
:10B920000F122E6912B9DE240412F45012BADD741B
:10B9300011122E69E8F0A3E912BFB9C0E074181221
:10B940002E69D0E012E96312A66512B9AF7406122F
:10B950002BEB122FCFE9600302B798791180047E98
:10B9600010EEF9742C02D93412B96C22EE12CDB754
:10B9700022EE241712BF592212BF59F50C780C225F
:10B98000EE2412F582E43FF583E4F02212B9A054CC
:10B99000402212B9A04420F02212B9A04440F02263
:10B9A000EE12CD83E022EE2413F582E43FF58312FC
:10B9B000B9B32212B9B722E0FCA3E0FD22F583124D
:10B9C000B9C32212B9B7EE228E828F83A3A3A3A399
:10B9D00012B9B38E828F832212DBCE22A3A3E8F0AA
:10B9E000A3E9F0EE22C082C08374D7122C1390809A
:10B9F000007403122BF37426122AC38A828B83A34A
:10BA0000A3A3A312BADD740E122E69E8F0A3E91203
:10BA1000D53F740C122E6912BAE1240D12BACCC0B3
:10BA2000E0741A122E69D0E0F012D7B612BADB74A5
:10BA300020122E6912BAE1241512BACCC0E07408A3
:10BA4000122E69D0E0F0EA241CF582E43B12BADB46
:10BA50007412122E6912BAE1241112BACCC0E07429
:10BA600009122E69D0E0F0EA241212BACCC0E074B8
:10BA700007122E69D0E0F0EA241EF582E43B12BAE8
:10BA8000DB7424122E6912BAE1242012BACCC0E071
:10BA90007426122E69D0E012A7F874FFF074011218
:10BAA0002E6974FFF07402122E6974FFF0908112F7
:10BAB0001229997404122BF37407122BEB122E73B4
:10BAC0007404122B5F7900742902D583F582E43B5C
:10BAD000F583E022EE2413F582E43FF58312D54688
:10BAE00022E8F0A3E9F0EA2274EE12259274EC1237
:10BAF0002C138A0E8B0F8C088D09890C750A107A0D
:10BB0000217B001240CD12D589E849700302BC5A4E
:10BB1000750B007C217D007900851882851983E0F2
:10BB2000FA1240137429122E6912BC6B901981E02D
:10BB300060046401703EAA08AB09124A2D8A108B7A
:10BB400011A810A911E849602388828983A3A3A3BF
:10BB5000A3E06401600D88828983A3A3A3A3E064AA
:10BB6000037009EE5440700474044FFFEF540460F6
:10BB700003750B0190054B12CC94851882851983AF
:10BB800012BC702409F582E43812E1637426122E87
:10BB90006912BADD7411122E69E8F0A3E912BC79BA
:10BBA00012F46312BC7912B0ED740212F4BDF8A362
:10BBB00012C8B512DE8C12BC7912F473E50CF07465
:10BBC00028122E69E0F50885188285198312F47C05
:10BBD000E50812BC7912BC61F583E50EF0A3E50F10
:10BBE000F07406122E6912E1017408122E69E5083C
:10BBF000F0742C122E6912E2F9C082C083740C1208
:10BC00002E69AC82AD83D083D0827405122AC374AE
:10BC10002B122E69E0C0E07413122E69D0E0F0A957
:10BC20000BAA18AB19123341E964017021901981F4
:10BC3000E0600464017012E50BA2E0500CA9081248
:10BC4000336BEA4B600312338F750A00800C851842
:10BC50008285198312CC941240D3A90A741402C2AB
:10BC6000A4241FF582E43822A3A3A312DBE2FF225F
:10BC700012BC742212D5A3C82212D598C82274EE21
:10BC8000122592EAFEEBFF8C088D098E828F83A32A
:10BC90007408F0EE241612B97460088E828F83A3A4
:10BCA0007410F012B97160098E828F83A3E02408AA
:10BCB000F0EE241512B97460088E828F83A3E0041D
:10BCC000F08E828F83A3A3A3A3A3A3E060198E8227
:10BCD0008F83A3A3A3A3A3A3A3E0C3332402F88E5B
:10BCE000828F83A3E028F012BF526005750B0E808F
:10BCF00003750B00901981E06402701E901975E0C5
:10BD0000640170168E828F83E06401600D90196F5C
:10BD1000E0600712BF3F7401800412BF3FE412BF0E
:10BD200094E012BF6128250B8C828D83F012BF52E4
:10BD30006013900536E0F9123275E9F885088285BE
:10BD40000983E029F0850882850983E0C394754062
:10BD50000975080075090002BF38E0FA7B0012403F
:10BD6000CD8A088B09EA4509700302BF388E828F9D
:10BD700083E0FA90053B12BF8D7402780C122D1CE3
:10BD8000EA450CFAAB0DEE241212B9745403F50C0B
:10BD9000750D007406780C122D1CEA450CFCEBFDA9
:10BDA000EE241512B9746004780180027800EE2444
:10BDB00016FAE43FFBE8F9ED49FD12BF52F50C74A9
:10BDC00009780C122D1CED450DFD8A828B8312BF64
:10BDD0008D740B780C122D1CED450DFDEE24171201
:10BDE000BF87740C780C122D1CED450DFD8E828FD3
:10BDF00083A3A3A3A3A3A312BF8D740A780C122D4F
:10BE00001CED450DFDEE242312BF87740D780C1236
:10BE10002D1CECF8ED450DF9E8850882850983F0C5
:10BE2000E9A3F0EE240212BF4912C05B12BFAFF0CB
:10BE3000EE240412BF4912BF7912BFAFA3A312CDE3
:10BE4000AD12BF79A3A3A3A312BFB9850882850948
:10BE500083A3A3A3A3A3A3A3F0750A088A828B8359
:10BE6000E06015EE241812B9A9E5082408FAE435B3
:10BE700009FB1241E1750A1012B9716019EE241A1A
:10BE800012B9A9A80AE50828FAE43509FB1241E12C
:10BE90007408250AF50A8E828F83A3A3A3A3A3A304
:10BEA000E06057EE2407F510E43FF511851082F5A8
:10BEB00083E0C0E012BF68D0E012BF9FE0C0E0089E
:10BEC00012BF6AD0E012BF9F129B21122B998510DE
:10BED00082851183E025E0FCE433FDA80AE508280B
:10BEE000FAE43509FB1240077403122B5F851082B8
:10BEF000851183E0C333250AF50AEE241512B974BF
:10BF00006008C0E012BF68D0E0F012CC6E129B2235
:10BF1000122B9912BF62FC7D00A80B8E828F83A327
:10BF2000E0FAE5082AFAE43509FBEA28FAE43BFBE3
:10BF30001240077403122B5FAA08AB0902C2A7EED6
:10BF40002423F582E43FF58322F8E43FF9888289CF
:10BF5000832212BF5622EE2411F582E43FF583E0DE
:10BF600022F8EE12DBB9E022A80AE5082812BF7118
:10BF700022F582E43509F5832212BF7D22E085088F
:10BF800082850983A3A322F582E43FF583E0F50CC3
:10BF9000750D002212BF9822F08E828F83A322F0AB
:10BFA000050A8E828F83A3A3A3A3A3A3A3A322A383
:10BFB000A312E6B512BF7DA322F0EE241412BF59DE
:10BFC0002274F412259274FD122C138A088B09EC4A
:10BFD000FEEDFF7401122BE3880A890B780A122BFD
:10BFE0009D7402122BF3EEFAEFFB122F7B740212F8
:10BFF0002B5FE9705385188285198312C05BF0743A
:10C0000001122E69E0F812C051A3A312F4B96029FD
:10C0100014850882850983A312F4BD12DA3D7401E8
:10C02000122E69E028F8A3E039F9E824FEF582E948
:10C0300034FFF58312F0FD800C850882850983A307
:10C04000E4F0EEFAEFFB80047AFE7BFF7403028FCC
:10C05000C6A3E0F985088285098322E085088285E8
:10C0600009832274EE1225928A0A8B0B8910ECFE4A
:10C07000EDFF750F017C267D007900EEFAEFFB12D3
:10C080004013E510C39408500302C1F08E828F83E1
:10C09000E510F0EEFCEFFD850A82850B8312C4FBF0
:10C0A0001233CBE96003750F0012C4DD8E828F83DB
:10C0B00012C535EE12C4D13F12C51FC0E012891956
:10C0C000D0E012C517C0E0EE2412F582E43FF583FC
:10C0D000D0E012BF94740812C285A3A3E06018E5F3
:10C0E0000A2408F8E4350BF912B96812CCA38E8241
:10C0F0008F83A3E02408F08E828F83A3A3A3A3A33E
:10C10000A3A3A3E060178E828F83A3858208858313
:10C110000912C4F012D73512A3142408F0EE241922
:10C1200012B983EE241B12B983A312C285E0600FFB
:10C1300012C26C8E828F83A3A3A3A3A312C298EE14
:10C14000241812B974700302C1E012C26CFAEE2412
:10C1500019F582E43FF583EA12C298F8E50A28F55A
:10C1600082E412F59FF812DCF6E812C298E8C39A4E
:10C17000EE5068241912B974F89050C0E493C39833
:10C18000500575110C8008EE241912B974F5118E42
:10C19000828F83A3E0F8E50A28F50CE4350BF50D52
:10C1A000750E00780C122B99AC11EC2CFCE433FDCD
:10C1B0007A387B0D1240077403122B5FEE241BF5B7
:10C1C00082E43FF5837438F0A3740DF0E511C333B6
:10C1D000F8850882850983E028800412CD66E4F0A2
:10C1E0008E828F83A3E0F88E828F83E0C398500401
:10C1F00079008061A3E0FAE50A28F8E4350B12C261
:10C2000061E8F0A3E912C52EC39AC0E012C257D06C
:10C21000E012C29E603DEE2417F8E43FF9880889D9
:10C22000098882F583E024F2F0EE241D12BF49E074
:10C23000240EFAA3E03400FB8882898312E1659022
:10C240000536E0F9123275E9F8850882850983E040
:10C25000C398F0A90F8050EE2417F582E43FF583D0
:10C2600022F9EE241DF582E43FF583228E828F832E
:10C27000A3858208858309E0F8E50A28F582E4357C
:10C280000BF583E02212C2892212C28D22F08E8227
:10C290008F83A3A3A3A3A32212A31C04F02212C280
:10C2A00089A3E022122B5F7F0A02285B74F4122517
:10C2B000928A088B09EA12C34AA3A3F0EA13135423
:10C2C0003F12C343A3A3A3F0EAC4131312C34A1239
:10C2D000C35D7409780A122DEB12C351A3A3A3A363
:10C2E000A3A3F0EB12C35312C35C740A780A122D95
:10C2F000EBE50A5401C0E0EC2418F582E43DF58337
:10C30000D0E012C361740B780A122DEB12C35112E4
:10C31000C35A740C780A122DEB12C351A312C35ADC
:10C32000740D780A122DEBE50A5401C0E0EC2424C8
:10C33000F582E43DF583D0E0F0740E7808122DEB21
:10C34000028914540F8C828D832254038C828D8336
:10C3500022E50A54018C828D8322A3A3A3A3A3A365
:10C36000A3F08A0A8B0B22C082C08379008A828B59
:10C3700083A3A3A3A3A3A3E0900535600EE07023DD
:10C380008A828B83A3A3E0701A8016E060158A82EC
:10C390008B8312CC8B90053EE06A7003A3E06B6048
:10C3A00002790102C58074F21225928A0A8B0B89E8
:10C3B0000C8C088D098A828B8312C4FB1233CB123A
:10C3C000C4DD85088285098312C535E50812C4D10C
:10C3D000350912C51FC0E0E508241112CC80D0E059
:10C3E00012C517C0E012CC7CD0E012CFA77408129F
:10C3F000C509E06017E50A2408F8E4350BF9E508FB
:10C40000241312C4D512CFA7E02408F08508828532
:10C410000983A3A3A3A3A3A3A3A3E0601785088212
:10C42000850983A312C4ECE508241512C4D512C5EE
:10C430002E2408F0850882850983A3A3A3A3A3E083
:10C440006019850882850983A3AE82AF8312C27703
:10C4500085088285098312C52904F0AA08AB091250
:10C4600033D1E9F50D7064850882850983A3A3A300
:10C47000A3A3A312C05BA3701AE0FAE50A2AF8E4AA
:10C48000350BF9E508241D12CC8012CCA3E50CC3B2
:10C490009A802C12C4ECE8240EF8500109E5082417
:10C4A0001D12CC8012CCA3900536E0F9123275E94A
:10C4B000F88E828F83E0F9E50CC39924F2C398C00B
:10C4C000E0E508241712CC80D0E0F0A90D028B3BE8
:10C4D000EA12F46D2212BF71E8F0A3E922850A8204
:10C4E000850B83A3A312C54BE0F9EA22AE82AF838A
:10C4F000E0F8E50A28F8E4350BF922E0FAA3E0F8C1
:10C50000E4C8F9EA28E439FB2212C50D2212CFAFA4
:10C51000A3A3A3A3A3A32212C55EA3A3A3E022F512
:10C5200083E812C557A3A3E022A3A3A3A3A3F08E7D
:10C53000828F83E022A3A3A3A3A3A3A3A3A312C5D3
:10C540005712C54BA3A3E0F9EAF822E0FA850A8264
:10C55000850B83A3A3A322F0A3E912C55E22F08575
:10C560000A82850B83A3A3A3A322C082C0837AC0BF
:10C570007B0579E21248957AC07B05800312CC9442
:10C58000D083D082022B47C082C08390053E80EDCD
:10C59000C082C08390054180E4C082C083794A1282
:10C5A000489580DC74F61225929005C8E0FE04F0F0
:10C5B000EEF912336B8B09EA450970EDEE60EAF98A
:10C5C00002C91274EE122592EAFEEBFF8C0E8D0F5B
:10C5D000890C750A00750B001235818A088B097465
:10C5E00012122E69E0F50D7413122E69E0F510EAAF
:10C5F00045097017E510600302C6E5A90CAC0EAD45
:10C600000FEEFAEFFB1235A502C7E4E51070030246
:10C61000C6B0901981E060046401700E9005CD12DF
:10C62000CF93600612C8B5124AF2E50D700E850868
:10C6300082850983E4F0750B0102C708901981E037
:10C6400060076401600302C708900538E0A2E1407A
:10C650000302C7089005CF12CF93600CA90DAA085A
:10C66000AB0912C8B5124AF2850882850983E0FA3F
:10C6700012E958500109C3EA98E499A2D265D0336F
:10C680005009850882850983E004F08508828509C0
:10C6900083E0F89050C2E49368706D750A01EEFA79
:10C6A000EFFB12300B850882850983A3E4F08058E4
:10C6B000E50D701CEA240212AFFBA80C28F8E43444
:10C6C0000013E813F070098A828B83A3A37401F02E
:10C6D0008A828B83A3A3E0F89019E6E0C3985052B6
:10C6E000750B01804D74016510701DE50D6019908A
:10C6F0001981E060046401700F900538E0A2E150F8
:10C7000007EEFAEFFB12300B901981E06402702201
:10C7100074016510701CE50D9005DF6013E004F0F6
:10C72000901A44E0F89005DFE0C3984005750A01CF
:10C73000E4F0E50BA2E092F0E50AA2E072F040031B
:10C7400002C7E4901981E0600464017041900538EB
:10C75000E0A2E15039EEFAEFFB124A2D8A088B096C
:10C76000A808A909E8496026E50BA2E0500D8882D7
:10C770008983A3A3A3A3A3E0C2E0F0E50AA2E0504B
:10C780006388828983A3A3A3A3A3E0D2E0F0E50A90
:10C79000A2E05050901981E060046401701D900582
:10C7A00038E0A2E15015EEFAEFFB124A45E9600BC2
:10C7B000EEFAEFFB7900122EA98029900541E06E78
:10C7C0007003A3E06F701DEEFAEFFB7901122EA942
:10C7D000901981E06402700C7A017B00900598E06A
:10C7E000F912419F02C2A774F41225928A088B099C
:10C7F0008C0A8D0B90811E7808122C6A700E7A01BB
:10C800007B00900598E0F912406D8035901A3178E0
:10C8100008122DFAEA4509450A450B6018780812F6
:10C820002B957A017B00900598E0F91241937404EE
:10C83000122B5F800C7A017B00900598E0F9124181
:10C840009F028FC9C082C083901A3502AD81C08219
:10C85000C083901A3702AD8174F612259275082AAA
:10C860007509057808122B9D7C6E7D007A217B006E
:10C870001241457402122B5FE9F508124A75E9422C
:10C8800008901981E06004640170061249AFE94222
:10C890000890070312CF93600912C8B5124AF2E953
:10C8A00042081230FBE9FE12481DE9F8E5084E483F
:10C8B000F9805F79C4E0F58388822274F6122592AC
:10C8C000123FDD75082A7509057808122B9D750839
:10C8D0006E7509007808122B9D7C007D007A217B03
:10C8E000001241517404122B5F124A6F901981E0BB
:10C8F0006004640170031249A990070512CF936088
:10C900000612C8B5124AF2123101124829800312E8
:10C910002B5F7F0202285B74F612259274FF122CA3
:10C92000137E0075082A7509057808122B9D7C6E08
:10C930007D007A217B001241457402122B5FE96071
:10C940000302C9FC7808122B9D75086E8E097808C1
:10C95000122B9D7C007D007A217B001241577404CC
:10C96000122B5FE9600302C9FC90053EE064FE7093
:10C9700003A3E0F4700302C9FC7E0190054DE0645E
:10C98000086005E06404706F851882851983EE12D3
:10C99000CFCA794212489B7A557B05794312489B4E
:10C9A0007A527B05794712489B7A437B05794A1274
:10C9B000489B7A417B05794B12489B7A4B7B0579E2
:10C9C0005012489B7A3E7B05795312489B7A537BE1
:10C9D00005795412489B7A407B0579E112489B9077
:10C9E0000538E0A2E35004D2F08002C2F012CFC0BA
:10C9F000795212489B8005123FDD7E00124A8190D9
:10CA00001981E060046401700312499790070712CE
:10CA1000CF93600612C8B5124AF212310DEEF974C6
:10CA20000102C90F74F6122592E9FEA2E0502675A4
:10CA3000082A7509057808122B9D75086E7509007E
:10CA40007808122B9D7C007D007A217B00124151D9
:10CA50007404122B5FEEA2E35003124A7B901981FB
:10CA6000E0600464017008EEA2E15003124991EE07
:10CA7000A2E2500E90070912CF93600612C8B512B9
:10CA80004AF202C91274F612259274EC122C137435
:10CA900001122BF390199EE0F97A9B7B0512331D4E
:10CAA0007405122E69E4F07407122E69E4F07A041A
:10CAB000F9124A5D9050D5E493F8C3EA98EB9400DC
:10CAC0005058124A87E970529050B712CB766019CD
:10CAD0007A047903124A5D8A088B099050D5E49351
:10CAE000F89050B712CB8050087405122E6974016B
:10CAF000F09050B512CB7660197A027901124A5D36
:10CB00008A088B099050D5E493F89050B512CB80E9
:10CB100050087407122E697401F090199EE0F97C98
:10CB20009B7D057401122BEB1233177A9B7B0579E1
:10CB30004512489B7407122E69E070117405122E7D
:10CB400069E07009851882851983E4800885188258
:10CB50008519837401F0901998E0F8901997E058BE
:10CB6000F8851882851983E05812CFCA7941124896
:10CB70009B741402C90FE493F8740193F9E84922F5
:10CB8000E493FA740193FBE8C39AF8E49BF9C3E5D4
:10CB90000898E509992274F712259274ED122C1366
:10CBA000E9FE900597F0AC18AD1990199EE0F97A5E
:10CBB0009B7B0512331D7412122E69EE12CBD4AA80
:10CBC00018AB191233177A9B7B05794512489B7471
:10CBD0001302B3F5F090199EE0F97C9B7D05227459
:10CBE000F4122592EAFEEBFF9019A0E064FE7003B8
:10CBF000A3E0F470767A167B0012402B8A088B092A
:10CC0000EA450960668A828B83740112C29E8A8219
:10CC10008B83A36004740280027401F0EA240AF892
:10CC2000E4350912C26112F102A312DD00F0A2E3A1
:10CC3000400912CC6E12CC941233A1EE241512B915
:10CC4000A9E5082402FAE43509FB1241E1E50824CC
:10CC50001312CC80E4F0AA08AB09900598E0F91211
:10CC6000403712CC6E12D53812CCA3028FC912CC29
:10CC70007222EE240BF582E43FF58322E5082412AC
:10CC8000F582E412BF74228E828F83A3A3A3A3A391
:10CC9000A3A3A3A312D1C822E0F8A3E0F9851882C8
:10CCA000851983E8F0A3E9F02274F212259274FD4D
:10CCB000122C138A088B09890A8C0B7401122E69B5
:10CCC000740412CFCA1234618A0C8B0DAE0CAF0DF6
:10CCD000EE4F700302CD5712CD8C740712DD06E5BE
:10CCE000082413FAE43509FB8A828B8312CDA28AC9
:10CCF000828B8312CDA1E508241512CC8012DD00B1
:10CD000012DD0DE508240BF8E43509F912CD65E8CC
:10CD1000F0A3E912DEA01233DD12DCEE12CDAD7409
:10CD200001F07403650A60067401650A700712CD8C
:10CD3000767404800412CD76E4F09019A012B01934
:10CD400012CCA37401650B700312CD6FEEFAEFFBEA
:10CD5000124979E9F9800279109019A074FEF0A3C4
:10CD600004F0028B36EE2418F582E43FF58322EEC0
:10CD700012891EE4F02212CD7E7440F0A322EE123E
:10CD8000CD8322240FF582E43FF58322EE12F46D69
:10CD90003FF58312CD9722E0F8A3E0F988828983DA
:10CDA00022A3E088828983F0A308A9832212CDB14F
:10CDB00022F0EE12CDB7222413F582E43FF5832250
:10CDC00074F4122592EAFEEBFF7A007B049005983A
:10CDD000E0F912419F12CE6790054D7409F01233AD
:10CDE000DD8A088B09AC08AD0912B96812CC94121F
:10CDF00041DBE96401705A7A0F7B0012402B8A08EC
:10CE00008B09EA4509604A8A828B83740212CE5CE0
:10CE1000F988828983A3E0FC88828983A3A3E0FB4D
:10CE2000EC8A82850983A3A312E16688828983A3A1
:10CE3000A3A3E08A82850983A312CE54FAA3E0FB60
:10CE4000794A12489BAA08AB09900598E0F912406C
:10CE500037028FC9F0EE241512BF5922F0EE241DBF
:10CE600012BF59F8A3E0229004D712D546901A3782
:10CE7000E8F0A3E9F09004D912D546901A35E8F00D
:10CE8000A3E9F02274F412259274FD122C138A087F
:10CE90008B097401122E69740212CFCA1234618A8E
:10CEA0000A8B0BAE0AAF0BEE4F700302CF7212F477
:10CEB0008CE412CFA7A3A3A3E06401700888828941
:10CEC00083A37420F0850882850983A3A3A3A3A369
:10CED000E06401700988828983A3E0D2E6F08508C6
:10CEE00082850983A3A3A3A3A3A3E06401700A8896
:10CEF000828983A3E0D2E7800512B968740112CF5A
:10CF0000B8E064017021850882850983A3A312CF4C
:10CF100093600312CF77850882850983A3A312B09B
:10CF20000312CD6612CCA3850882850983A3A3A32F
:10CF3000A3A3A3A3E06401700712EFFDF0A3E4F044
:10CF400085088285098312CC9412347FE96004122B
:10CF5000CF7EF0EE241712CF7A1233DD12DCEE1200
:10CF6000A31812CF8512B9DCFAEFFB124979E9F95F
:10CF70008002791002C04CEE241612DD152212B97F
:10CF8000A0440422E0F8A3E0F98E828F832212CF1E
:10CF900099F58312D546E849228E828F8312BC749C
:10CFA000241FF582E4382212CFAB2212CFAF22F039
:10CFB000850882850983A32212CFABA3A3A3A32252
:10CFC000A2F0E433851882851983F0AA18AB1922E0
:10CFD00074F512259274F3122C13890AEAFEEBFF02
:10CFE0007508007509007C0D7D007900AA18AB1941
:10CFF00012401312C26212D17F741F58600C7AD390
:10D000007B00124523790002D0CFE8A2E5500874D6
:10D010000C122E697401F0E8A2E75008740B122E6E
:10D02000697401F0E8A2E6740A5008122E697401CE
:10D03000F08008122E69E0640170138E828F83A342
:10D04000A3A3A3A3A3A3E06032EE241380128E82D5
:10D050008F83A3A3A3A3A3A3A3A3E0601EEE241521
:10D06000F582E43FF58312AA396010AC08AD09746B
:10D0700002122E69AA82AB831241E112CC6E12CC4D
:10D0800098740A122E69E06401703B12CC87123446
:10D090007FE97039EE240B12BAD7900541E0687031
:10D0A00003A3E0697027E5084509601A1233DD8A99
:10D0B000088B09AC08AD097402122E69AA82AB83F1
:10D0C0001241DBE96007AA18AB19122EA3A90A7452
:10D0D0000D02B66574F712259274CD122C13EAFE78
:10D0E000EBFF8E828F8312D19DA2E0400302D17AA2
:10D0F00012D186E054FE12ED65740D122BF312D19D
:10D10000B01233D7E97073742A122E6912D193705A
:10D11000697C0D7D007900AA18AB191240137416B2
:10D12000122E6912CC98742A122E6912D17FA2E5B0
:10D130005008740B122E697401F0E8A2E7500874CD
:10D140000A122E697401F0E8A2E6500474208002ED
:10D150007422122E6912B9AF7402122E69AA82AB20
:10D16000831241E18E828F83A3A3E0C0E0740C128E
:10D170002E69D0E012CFCA122E9D743302B3F5127D
:10D18000E2FDA3E0F8228E828F8312D92AA3A3A303
:10D19000A3A32212B5166404228A828B83E0F812BC
:10D1A000D1A322A3E0C82406F582E438F583E02267
:10D1B000EA241EF582E43BF583E0F9EA241FF582B8
:10D1C000E43BF58312D1C82212F0FDFB22E9F87985
:10D1D00000740468600A740A686005740368700269
:10D1E0007901022B4774F61225928A828B8374246C
:10D1F000F0A3A37401F01249738A088B09AE08AF3B
:10D2000009EE4F60108E828F8312DE9E1233DDEEA8
:10D21000241A12E15FEEFAEFFB02C912C082C0834A
:10D2200090053B02AD67C082C08390199F02AD6735
:10D23000C082C083E990199F02AD85C082C08390EF
:10D2400005B47401F0E9A2E350037403F0E9A2E12C
:10D250005004E0D2E2F002C58074F6122592790003
:10D260007C008A088B097808122815F8FF078ED2EF
:10D270008CD28CD28CD28CD284D288D28ED280D2D4
:10D280007C01800A7C0480067C0280027C08900578
:10D29000B4E05C600479028005EC6002790102C9A7
:10D2A0001274F4122592EAFEEBFF8908124A278ACB
:10D2B0000A8B0BA80AA90BE849604188828983A3DD
:10D2C000A3A3A3E06036C3940550317401650860E0
:10D2D0001A88828983A3A3A3A3E06401600D8882D6
:10D2E0008983A3A3A3A3E06402700A8882898312BE
:10D2F000CC94122F63EEFAEFFB1249EB028FC97444
:10D30000F61225928A828B83E07014A3A3A312CF16
:10D3100093600C8A828B8312CC9112315580047AEF
:10D32000007B0002C912C082C08390054DE06408F2
:10D3300070031234A302C580C082C0837C00EC75E8
:10D34000F003A4F8ADF0EDF912D40E7003A3E06B76
:10D3500070189050D6E493C0E074B728F582740535
:10D360003DF583D0E0F079C580620CECC3940340B6
:10D37000CD7C00EC75F003A4F8A9F074B828F58210
:10D380007405129AE164FE7003A3E0F4600F0CECE4
:10D39000C3940340DE7C00EC12D3CF7026EC75F012
:10D3A00003A4FCADF074B72CF874053DF9888289AC
:10D3B00083A312E1659050D6E49388828983F07943
:10D3C0000080090CECC3940340CD79C702C5807579
:10D3D000F003A4F8A9F074B728F582740512EEEDF5
:10D3E00022C082C0837C00EC75F003A4F8A9F0127F
:10D3F000D40E7003A3E06B700912D3D660047901D8
:10D4000080090CECC3940340DE790002C58074B837
:10D4100028F582740512EEED6A2274F212259274D8
:10D42000DD122C13EAFEEBFF750800901981E06015
:10D43000076401600302D53190053EE06E7003A3DE
:10D44000E06F7010EE4F700302D52575080112349D
:10D45000A902D531124A2D8A0A8B0BEA450B7003BB
:10D4600002D5258A828B83A3A3A3A3E06401601065
:10D470008A828B83A3A3A3A3E06402600302D52561
:10D48000851882851983E412D53F740B122E69E842
:10D49000F0A3E912CFCA124A93E9700302D5258599
:10D4A0000A82850B8312D53812CCA37900122F572C
:10D4B000850A82850B8312DA53122E69AC82AD8302
:10D4C0007418122E69AA82AB831241E1850A828503
:10D4D0000B8312BADD7420122E6912CCA3742212AF
:10D4E0002E69E4F07C02850A82850B83A3A3A3A3A3
:10D4F000E0F9740D122BEB12343D850A82850B8303
:10D5000012BADD7401122E69E8F0A3E912CFCA1233
:10D510004A8D750801E50A240CF582E4350BF58384
:10D52000129B44800C90054B12B9BFFAEFFB1235E9
:10D5300069A9087423028B3812D5469019A02212CB
:10D54000B19712D5462212D5A3F922C082C08374A6
:10D55000FE122C13901981E060046401702379019C
:10D56000122F5D12D58990053EE8F0A3E912CFCACB
:10D57000795312489B85188285198312CC941244E2
:10D580003F7402122B5F02C580851882851983EAD9
:10D59000F0A3EB12D598F922F08518828519831231
:10D5A000D5A322E0F8A3E02274F412259274F312BA
:10D5B0002C138A088B09ECFEEDFF750A12EA450967
:10D5C0007005790002D69490053EE065087004A3CA
:10D5D000E06509701D1233DD8A0A8B0BAC0AAD0BB6
:10D5E000EEFAEFFB1241DBE97005750A0180037565
:10D5F0000A00851882851983E4F004122E6912DE70
:10D600008C12CFCA124A9FE9602A7403122E69AAAB
:10D6100082AB83124ABDE964017019750A01740373
:10D62000122E69AC82AD83EEFAEFFB1241DBE960AA
:10D6300003750A00901981E0600464017017741288
:10D64000650A7011EEFCEFFDAA08AB09124A4BE91E
:10D650006003750A00EEFCEFFDAA08AB09123587DE
:10D66000E9F8740A687005750A01801D74A0687075
:10D6700012EEFCEFFDAA08AB09123599AA08AB0916
:10D680001235AB7401650A70097900AA08AB09125A
:10D6900034B5A90A740D028FC674F6122592EAFEFB
:10D6A000EBFF8908901981E060046401701E123458
:10D6B000A3E508F5097809122BA1790DEEFCEFFD21
:10D6C0007AFC7BFF1234C17401122B5F02C9127401
:10D6D000F7122592EAFEEBFF8E828F83A3A3A3A30A
:10D6E000A3A3A3A3E0601612D735129BE612CC9435
:10D6F0001234AFE96401700512CC6E80298E828FDE
:10D7000083A3A3A3A3A3A3A3E0602512B9A612CC6D
:10D71000871234AFE9640170178E828F83A3A3A3AD
:10D72000A3A3A3A3A3A312CC9412349779018002DC
:10D73000790002B3F8EE2415F582E43FF5832274F4
:10D74000F212259274FD122C138A088B09ECFEED5F
:10D75000FF890B750A017401122E69740412CFCA75
:10D76000123461EA4B60427411122E69E0601412A7
:10D77000DE05E412E3058A828B83E0D2E7F012D75C
:10D78000ACE4F012D7B612CD91740312DA5DEE88D4
:10D79000828983A3A3F0EF88828983A3A312B19621
:10D7A00012DD22124979E9F50A028B34EA2414F5D4
:10D7B00082E43BF5832212F46C3B2274F012259232
:10D7C000EAFEEBFF890A750B01EE12DB1F3F12D94F
:10D7D00023F50C88828983A3A3E0FA8882898312C7
:10D7E000D91212B9716404600A7AD37B00124523FE
:10D7F00002D902E50C122A260200020DD8030BBA48
:10D80000D8030CA0D80D78D80EBAD8B7D890198103
:10D81000E060076401600302D8BA900538E0A2E135
:10D82000400302D8BA7900AB09122FEDEA4B603DF4
:10D830008A828B83A3A3A3A3A3A3E05418602E1210
:10D84000CC6E1229A18A828B83A3A31229A179000D
:10D850008E828F83A3A3A3A3A3A3A3A3A312D906FA
:10D8600012CC941230057404122B5F802E7901AA19
:10D8700008AB09122EB58042901981E06004640162
:10D880007038900538E0A2E15030AB09123491AA0B
:10D8900008AB09123497E964C5701F750B00801A34
:10D8A000901981E0600464017010900538E0A2E1F5
:10D8B00050081244638003750A00EE2409F50EE453
:10D8C0003FF50FAC08AD09A90C850E82F58312CC8B
:10D8D00094122ECD850E82850F8312CC9412347F44
:10D8E000E9601F12BF52C39402401712CC6E12E2BD
:10D8F000287003A3E069600AE50BA2E05004A90ABE
:10D9000080027900803112D90A2212B9B78A828B3B
:10D910008322A3A3A3E0F8E4C8F9EA28F508E439D0
:10D92000F50922F58312D92AE02212D5A3F98882BB
:10D930008983A322122B5F7F0802285B74EE1225D5
:10D940009274F5122C138A0A8B0B890D8C0E8D0F95
:10D950007E01EE122E69740AF0741D122E69E0F534
:10D960000CE9700FE50CC333240AC0E0EE122E69F7
:10D97000D0E0F0AA18AB191234618A088B09EA4585
:10D9800009700302DA3512C4D0350912DBD37409E9
:10D99000F0A3E50DC43354E0450C12DBECAC0EAD46
:10D9A0000FEEFAEFFB1241E1EE2408FE50010FE505
:10D9B0000D702F7C00741E122E6912DA44801D1225
:10D9C000DA3CEA28F8EB39F98882898312DBE788A8
:10D9D00082898312A1B4F0A30EAF830CECC3950C23
:10D9E00040DDE508241712CC807401F01233DDE528
:10D9F00008241AF582E4350912DA51122BF3AA0A27
:10DA0000AB0B124AB7E96019E508241612CC8074F2
:10DA100001F07403122BE3E508241812CC8012CC19
:10DA2000A3850882850983A3A312DA5BAA08AB0940
:10DA3000124979E9FEEEF9740B02C2A4EC25E0F874
:10DA4000E433F92212DA482212D5A3F9E8FAE9FB05
:10DA500022F583EAF0A3EBF0740322E50AF0A3E5D4
:10DA60000BF02274F012259274F8122C138A088B92
:10DA70000912DB1E350912DC67F8741F58F50A8895
:10DA80000BA3AE82AF83EEFCEFFDAA18AB191241D7
:10DA9000E1EE2408FE50010FAC18AD197A5F7B054A
:10DAA0001241DBE9607374E0550B7066AA0AEA2A3A
:10DAB000FA7B001240CD8A0C8B0DEA450D605A7C32
:10DAC00000801D8E828F8312C4FB12DA3CE50C2885
:10DAD000F582E50D3912E163EE2402FE50010F0CD0
:10DAE000ECC3950A40DD780C122B9D780A122BA10D
:10DAF0007403122BF37900E508240B12CC8012CCAE
:10DB0000941234D97403122B5FAA0CAB0D1240D3BC
:10DB100080077AD37B00124523740802D934EA24A3
:10DB20001DF582E42274F01225928A0A8B0B890D6E
:10DB30008C088D099018A112CF9360757410122E65
:10DB400069E0F50C12DA3DE8240EFAE439FB1240E4
:10DB50002B8A0E8B0FAE0EAF0FEE4F60548E828F5E
:10DB60008374D4F012DBC2A3A3E50DF0AC08AD09B9
:10DB7000EE2405FAE43FFB1241E112DBB4E50CF0C0
:10DB80007411122E6912E2EE7808122B99AC0CEC8B
:10DB90002CFCE433FDEE240EFAE43FFB1240077444
:10DBA00003122B5FEEFAEFFB9018A112E2F9124A72
:10DBB000F202D937EE12DBB922240DF582E43FF5EB
:10DBC0008322A3A3E50AF0A3E50B12DBCE2212BF4A
:10DBD00098A322F58312DBE2FF8E828F8322888254
:10DBE0008983E0FEA3E022E08E828F83F0A3AE82E1
:10DBF000AF832274F612259274F8122C138908123E
:10DC0000DB1E3B12DC67F9741F59F88909A3AE8249
:10DC1000AF837401687042EEFCEFFDAA18AB1912D5
:10DC200041E1EE2408FE50010FAC18AD197A5F7B7C
:10DC3000051241DBE9602974E05509701C8E828F62
:10DC400083A3E0FA8E828F83A312C4FD8E828F831A
:10DC5000E0F9123509A90880097AD37B001245231F
:10DC60007900740802C90FF583E02401FEA3E034B3
:10DC700000FF8E828F83E02274F012259274FD12D1
:10DC80002C138A0A8B0B8C088D09890D750C017475
:10DC900001122E69740312CFCA1234618A0E8B0FDF
:10DCA000AE0EAF0FEE4F603F12CD8C740BF0A3E5BC
:10DCB0000D12DD067413122E6912DD0012DEA012A1
:10DCC00033DD12DCEE12DD0DEE2418F582E43F1296
:10DCD000DD208E828F83A3A3E50AF0A3E50B12DE7D
:10DCE00093124979E9F50CA90C740302D93412DCBA
:10DCF000F6EAF0A3EB22EE241AF582E43FF5832244
:10DD0000E08882898322F0A3A882A98322F0EE24EE
:10DD10001612DD1522F582E43FF5837401F02239F5
:10DD2000F58312DE8CF02274EF122592EAFEEBFFEF
:10DD3000751000EE12DB1F3F12DF73F508A3E0F54C
:10DD40000912D73512CC94124A27EA4B700302DE2F
:10DD5000008A828B83A3A3A3A3E0700302DE00C327
:10DD60009403400302DE00E508C3940F5004E50964
:10DD700060057510018079EA2412F582E43BF58391
:10DD8000E4F0E5087022904F947808122CF612DE29
:10DD9000057808122DFA904F947808122CF612E7A5
:10DDA0005C7808122DFA803975090074027808121F
:10DDB0002D1C74942508F582744F12CC83780C12B4
:10DDC0002CF69081567808122DDC780C79081224F4
:10DDD0002D12DE05780C122DFA12E75C780C122D4C
:10DDE000FAEA241BF582E43BF5837401F01244AB9C
:10DDF00090196FE0FCA91012CC6E12CC941234F181
:10DE00007F0902285BEA2417F582E43BF58322743C
:10DE1000F012259274F5122C138A088B09890B8C49
:10DE20000C750A017401122E69740312CFCA1234E0
:10DE3000618A0E8B0FAE0EAF0FEE4F604812CD8C85
:10DE4000740C12DA5DA3E50C12DEA01233DDEE24B1
:10DE50001AF582E43F12DA51122BF3AA08AB091229
:10DE60004AB7E9600E12CF777403122BE312CD6527
:10DE700012CCA38E828F83A3A312DE8C12DE9312A8
:10DE80004979E9F50AA90A740B02D934E508F0A327
:10DE9000E5092212CDB17401F0EEFAEFFB22740114
:10DEA000F0EE241712DD152274F012259212DB1EFB
:10DEB0003B12DF73F8A3E0FEE8600302DF70740139
:10DEC0006E600874026E600302DF70EE90196FF0EE
:10DED00075086F7509197808122B9D750801750969
:10DEE000007808122B9D7C007D007A517B00124146
:10DEF000517404122B5F74026E7075901A58E070A2
:10DF00000A904F947808122CF68028F5087402784D
:10DF100008122D1C74942508F582744F12CC837856
:10DF200008122CF6908156780C122DDC7808790CAA
:10DF300012242D908162780C122DDC7808790C1255
:10DF40002523908116780C122DDC7808790C122488
:10DF50002D9019717808122DFA9019711229997A59
:10DF6000007B40900598E0F91241997404122B5FF0
:10DF700002D937F583E02401F8A3E03400F9888260
:10DF80008983E02274F612259274DA122C13EAFEC9
:10DF9000EBFF12CF8E60508E828F8312CC94AC1820
:10DFA000AD1912D1B01233C57409122E6912E228CC
:10DFB0007003A3E069603012E2F51229A17508FE32
:10DFC0007509FF7808122B9D741C122E69E0F974F4
:10DFD0000D122E6912B9AF740F122E6912CC941261
:10DFE00030057404122B5F742602C90F74F71225D2
:10DFF00092E9FD7A007B00901981E0600464017071
:10E00000407C00800B12E098E02AFAA3E03BFB0C76
:10E010009050D512EEDB5029EC75F01CA4F8AEF050
:10E02000EEF912EEFDF460E7742C28F582740839DD
:10E0300012CF9160DAED60CD12E098E4F0A3F080A9
:10E04000CE7C00800B12E085E02AFAA3E03BFB0CBB
:10E0500012EED8502DEC75F017A4F8AEF0EEF912D0
:10E06000F07C7003A3E0F460E6747D28F582740A06
:10E070003912CF9160D9ED60CC12E085E4F0A3F0C5
:10E0800080CD02B3F8EC75F017A4F8EEF9747D2892
:10E09000F582740A39F58322EC75F01CA4F8EEF9C8
:10E0A000742C28F582740839F5832274EC122592B9
:10E0B000890CEAFEEBFF900597E0C3950C503B12EC
:10E0C00034319005C912E101900531E0F508E4F51D
:10E0D00009F50AF50B9081767810122DDC78087915
:10E0E0001012242D7808122B957A007B0290059847
:10E0F000E0F91241937404122B5F0287318A828BFC
:10E1000083EEF0A3EFF02274F6122592EAFEEBFF05
:10E110009005B5801388828983E06E7003A3E06F59
:10E12000603A88828983A3A312CF9370E87A047B34
:10E13000001240CD8A088B09A808A909E849601C8B
:10E140008882898312E1019005B512CC9488828976
:10E1500083A3A312E1659005B512CCA302C912F501
:10E1600082E43FF583EAF0A3EBF02274F4122592E7
:10E170007E009005B580070E8A828B83A3A312B31D
:10E180000370F4EE25E0FAE433FB1240CD8A088BED
:10E1900009EA4509607F7C009005B580228A828B60
:10E1A00083E0F50AA3E0F50B12DA3CE50828F582D6
:10E1B000E50939F58312DA5B0C8A828B83A3A312FB
:10E1C000B30370D990059312E2287003A3E0697835
:10E1D00008701C122B9DEEF50A780A122BA17C5FA9
:10E1E0007D05790090059312CC941234D9801A12CF
:10E1F0002B9DEEF50A780A122BA17C5F7D05790034
:10E2000090059312CC941234CD7403122B5FAA089C
:10E21000AB091240D3124961028FC98E828F83A34A
:10E22000A3A3A3A3A3A3A3A312D54690053EE0688E
:10E2300022C082C08380128A828B83A3A312BADD9C
:10E240009005B512CCA31240D39005B512B303705C
:10E25000E602C58074F512259290054B12BC6B90B6
:10E2600005C912A03312CCA37AC97B057950124894
:10E270009B9005C912E2EE801312EBA57004A3E097
:10E280006509600612EBB2123575050A9050BFE4BD
:10E2900093F8E50AC3985020E50A75F017A4F8A989
:10E2A000F012EA536E7003A3E06F70CD747228F51C
:10E2B00082740A12DD1F80D29005C912BC6B9018BF
:10E2C000A312CF9360257A067B0012402BEA4B60A5
:10E2D0001A8A828B8374D5F0A3A3E412E6A00412F9
:10E2E000E3059018A312E2F9124AF202B668128707
:10E2F00040750A00228E828F8312E2FD2212D5A37E
:10E30000F58388822212B1A3EEF0A3EFF022C0823F
:10E31000C08390053EE064FE7003A3E0F4600E90BD
:10E320000538E0A2E1500612358D12353302C58062
:10E3300074F012259290058CE06053F50CE4F50D15
:10E34000F50EF50F9081167808122DDC780C7908FF
:10E3500012242D1240258A088B09A808A90990507B
:10E36000B9E49358F508A3E49359F509E4F50AF5DF
:10E370000B780C7908122D42780C122B957A007BC1
:10E3800001900598E0F91241997404122B5F02D9AB
:10E390003774EE1225927E007F008E0A8E0B124992
:10E3A000C7750D00803BAA0D7B001249CD8A088BF2
:10E3B00009A808A909E849602688828983A3A3A33C
:10E3C000A3E060046404701788828983A3A3A3A3D5
:10E3D000A3A3A3A3A3A3E0F912359FE960010F054E
:10E3E0000D9050D5E493F8E50DC39840B91235630C
:10E3F0008A0E8B0F750C008023AA0C7B0012356FE0
:10E400008A088B09A808A909E849600EE8240F12B8
:10E410009ADEF912359FE960010E050CC3E50C95F3
:10E420000EE4950F40D3EF2EFE700302E5278E0811
:10E4300075090074027808122D1CAA08AB09124055
:10E44000CD8A0A8B0BEA450B700302E525750C009B
:10E450008E0875090074027808122D1CAC08AD09ED
:10E4600079FF124013750D00805EAA0D7B001249E2
:10E47000CD8A088B09EA4509604C8A828B83A3A365
:10E48000A3A3E060046404703D8A828B83A3A3A3EA
:10E49000A3A3A3A3A3A3A3E0F912359FE9F96026E0
:10E4A000050C780A122B9DEEFD850882850983A351
:10E4B000A3A3A3A3A3A3A3A312E5B812CC941235DC
:10E4C000397402122B5F050D9050D5E493F8E50DD9
:10E4D000C3985006E50CC39F4090750C00C3E50C33
:10E4E000950EE4950F5040AA0C7B0012356F8A08F8
:10E4F0008B09EA4509602AEA240F12AFFBF91235AD
:10E500009FE9F9601C780A122B9DEEFDE508240EA8
:10E5100012CC8012E5B812CC941235397402122B49
:10E520005F050C80B87E007F62900536E0600BF9D5
:10E53000123275E9F87454C398FF75F003EF84F54F
:10E540000D94204003750D1F850A08850B09750C75
:10E5500000EF6005750C207F00E50DC39E5005851A
:10E560000D0F80088E0FE50CD2E6F50CAC08AD0956
:10E57000AA0CA90F12353FE9F50EE50CA2E6401DE5
:10E58000150F7800800BE5082404F50850020509F2
:10E5900008E8C3950F40EFE50FCEC39EFEE9700675
:10E5A000E50CA2E650A8E50A450B6007AA0AAB0BEA
:10E5B0001240D3A90E02C2A7E0FC85088285098318
:10E5C0002274F2122592EAFEEBFF89088C098D0A6B
:10E5D0007C007D00740E122E6912CC94750B0080A5
:10E5E0000DEAFCEBFDEA2404FA50010B050BE50BE8
:10E5F000C3950A400302E6908A828B83E0F470039D
:10E60000A3E0F4607AEC4D600C8C828D83C3E09EB5
:10E61000A3E09F50CC8A828B8312E693EE98EF9909
:10E6200050BFEAF8EBF988828983E0F47003A3E035
:10E63000F46010E82404F8500109050BE50BC395BC
:10E640000A40E3E8FCE9FDE824FCF8E934FFF98836
:10E6500082898312E6988C828D83E50CF0A3E50D08
:10E6600012E6AF8C828D83A3A312E6A5A3A3A3E039
:10E670008C828D83A3A3A3F0C3EA98EB9940C412C4
:10E68000E0FD8A828B83A3A3E50912E6A0E508F0EA
:10E69000028B3B12D546C322E0F50CA3E0F50D2218
:10E6A00012B197A32212E6A922F08882898322124E
:10E6B000E6B5A3E02212E6A9A32274F21225927411
:10E6C000FD122C1389088A09ECFEEDFF750A01750D
:10E6D000F003E9A42402C0E07401122E69D0E01214
:10E6E000CFCA123461EA4B607012D7B612CD917462
:10E6F00008F0741F55084509A3F0E82402F85001FA
:10E7000009750A0080338E828F8312DD0012DD06C8
:10E710008E828F8312CDA18E828F83A3A3E05407B4
:10E72000C4FC8E828F83A3A3A3E054074C12CDA315
:10E73000EE2404FE50010F050AE50AC3950840C601
:10E740008A828B83A3A374FCF0A374FFF012E75CAE
:10E750007401F0124979E9F50A028B34EA2413F5C1
:10E7600082E43BF5832274F11225928A0A8B0B75A1
:10E7700008007AFE7BFF7CFE7DFFE50A12DB1F3579
:10E780000B12D923F509741F5509F50CE82402F87A
:10E79000500109E509A2E74065E50A2417F582E47E
:10E7A00012F59FFE75F003E50CA424026E704FE590
:10E7B0000C600612DBDEFBEEFA750D00801DE054E6
:10E7C00007F50EA3A882A983EEFC90053EE06E70CB
:10E7D00003A3E06F7003850E08050DE50DC3950CCE
:10E7E000502612DBDEFCE4CCFDEE2CE43DFFE824F9
:10E7F00002F850010988828983E0548860C07AD386
:10E800007B0012452302E949E508700BA90912357E
:10E810004BE9700302E94912E94E12CC94124A2DD9
:10E820008A0C8B0DAE0CAF0DEE4F605A8E828F832B
:10E83000A3A3A3A3A3A3A3E4F09050C293F88E8252
:10E840008F83A3A3A3A3A3A3A3A3E0C398402412ED
:10E85000E9585001097A027B00122335E88E828F35
:10E8600083A3A3A3A3A3A3A3A3F0E508C394075082
:10E870000205088E828F83A3A3A3A3A3A3A3A3A3AC
:10E88000E508F002E9497CFF7DFF12E94E12CC94C5
:10E890001235578A0C8B0DAE0CAF0DEE4F704F1228
:10E8A000355D8A0C8B0DAE0CAF0DEE4F700302E997
:10E8B000497C177D00790012401312E94E12CF8473
:10E8C00012878E8E828F83A3A3A3A3A3A3A3A312D5
:10E8D000B9DC12B52774AA12E9775001097A027BD4
:10E8E0000012233512DBB4E812E9637401F0905092
:10E8F000C2E49312BF61C398401912E9585001094C
:10E900007A027B0012233512F003E508C394075006
:10E9100002050812EFEFE50812E968E4F012A02BF7
:10E92000124ABDE97023850A82850B83A3A3A3A3A2
:10E93000A3A3A3A3E06012E50A2415F582E4350B36
:10E9400012B9BD12A02C1241E17F0702285BE50A33
:10E9500012F46D350BF583229050C2E493790024B4
:10E9600001F822F012EFF322F012E96D22EE240CEE
:10E97000F582E43FF58322F09050C2E493790024BD
:10E9800001F82274F7122592E9FE74FE6A7003748E
:10E99000FF6B603474605E6460602DEEA2E5401C25
:10E9A000A2E690053E500DC3E09AA3E09B50197972
:10E9B0000002B3F8C3E09AA3E09B40F390053E1237
:10E9C000E693EC98ED9940E7790180E574F712251C
:10E9D000927E008008EE12EBAB1235750E12EA0D36
:10E9E00040F37E00EE75F003A4F8A9F074B728F8A0
:10E9F000740539F988828983A374FEF0A30412E6B2
:10EA0000A5E4F00EEEC3940340DA02B3F89050BFD1
:10EA1000E493F8EEC3982274F71225927E008001E9
:10EA20000E12EA0D5026EE12EA636A7003A3E06B41
:10EA300070EE12EA536C7003A3E06D600A74FF6C11
:10EA4000700374FF6D70D912EBB280047A007B0002
:10EA500002B3F812EA5722747228F582740A39F563
:10EA600083E02275F017A4F8A9F012EA6E2212EEE4
:10EA7000CDE02274F61225927CFF7DFF7AFE7BFFAB
:10EA8000123557EA4B703C7508008032E50875F086
:10EA900017A4F8A9F0747728F582740A129AE16035
:10EAA0000512EEF27016746828FE740A39FF8E8221
:10EAB0008F8312CC9412300BEEFAEFFB050812EAAA
:10EAC000C640C902C9129050BFE493F8E508C39844
:10EAD00022C082C0837A007B007C00801012F07418
:10EAE0007003A3E0F460050AEA70010B0C12EED883
:10EAF00040EB02C58074F41225928A088B09ECFE63
:10EB0000EDFF800B123575EEFCEFFDAA08AB091284
:10EB10003557EA4B70EE028FC974F71225927D00CB
:10EB20007C0080020D0C12EED8501C12F0747003A1
:10EB3000A3E0F460F0EDF8EA684B70E8EC75F017CC
:10EB4000A4F812EBB280047A007B0002B3F874F7E9
:10EB5000122592EAFEEBFFEE4F60187C177D0079DC
:10EB6000001240138E828F8374FEF0A30412F00A09
:10EB7000F0A3F002B3F874F61225928A088B097E8E
:10EB800000801AEE75F017A4F8A9F012EBA5700436
:10EB9000A3E06509600612EBB21235750E12EA0D9C
:10EBA00040E102C91212EA5765082275F017A4F86D
:10EBB000A9F0746828FA740A39FB2274F4122592B9
:10EBC0008A088B09ECFEEDFF901981E06004640176
:10EBD000702090054BE06E7003A3E06F7014124A32
:10EBE0002D8A0A8B0BA80AA90BE8496005E82408BE
:10EBF000801AEEFCEFFDAA08AB091235578A088B84
:10EC000009A808A909E8496009E8240DFAE439FBD4
:10EC100080047A007B00028FC974F41225928A085E
:10EC20008B09ECFEEDFF750A00750B00802FE50BDC
:10EC300012F064124ABDE96022E50B12EA6365082E
:10EC40007004A3E065097003750A0AEEFCEFFD127B
:10EC5000F06B1241DBE96003430AA0050B9050BF43
:10EC6000E493F8E50BC3985004E50A60C1A90A02D1
:10EC70008FC974F61225927E00805AEEFA7B00123C
:10EC800049CD8A088B09A808A909E8496046888205
:10EC90008983A3A3A3A3E06401603988828983A345
:10ECA000A3A3A3E06402602CE82407129ADEFA749E
:10ECB000012AF090058DE0C39A501988828983A3B8
:10ECC000A3A3A3A3A3A3A3A3A3E412ED5AA312EDAA
:10ECD0006512300B0E9050D512EA10409E7E0080D7
:10ECE00059EE75F017A4F8AAF0EAF912F07C700357
:10ECF000A3E0F46044746828F8740A39F9E8240C35
:10ED0000129ADEF8740128F090058DE0C39850291E
:10ED1000EE75F017A4F8EAF9746828F8740A39F95E
:10ED2000E812ED5439F583E4F0E8240EF582E43975
:10ED3000F583E412ED6512300B0E12EA0D40A27A53
:10ED400000EA12D3CF600214F00AEAC3940340F140
:10ED500002C912EE240FF582E42212E6B5A3A3A3A2
:10ED6000A3A3A3A32212E6A912D1C82274F11225EB
:10ED7000928A0A8B0BECFEEDFF750E007A007B0188
:10ED80007508FE7509FF740F122E6912E69880113E
:10ED9000124025E50EF5F0EA84E5F0FA750E007BE9
:10EDA000007C00800712EECD12873C0C12EED8508A
:10EDB0005CEC75F017A4F8ADF0EDF912F07C70037F
:10EDC000A3E0F460E612EA6A650A7004A3E0650B4A
:10EDD00060D912F05F7003A3E06F60CF12EA6A653A
:10EDE0000C7004A3E0650D60C212EEF260BDC39426
:10EDF0000850B8E0640760ADEB050E70AEE50EC3D9
:10EE00009A40A8746828F582740A02EE97901981D6
:10EE1000E060076401600302EE9F7C00800712EF50
:10EE20000D12873C0C9050D512EEDB5072EC75F051
:10EE30001CA4F8ADF0EDF912EF0864FE7003A3E036
:10EE4000F460E112EF08650A7004A3E0650B60D47A
:10EE500012EF086E7003A3E06F60C912EF08650C33
:10EE60007004A3E0650D60BC12EEE260B7C39408C5
:10EE700050B212EEFD640160ABE0640260A612EED7
:10EE8000E264076099EB050E709AE50EC39A409410
:10EE9000741C28F58274083DF58312CC94802BE510
:10EEA0000E6011EA700E7401650E600302ED907A37
:10EEB0000102ED9C74FE6508700474FF650960062C
:10EEC000AA08AB0980047AFE7BFF02E9497468282E
:10EED000F582740A39F583229050BFE493F8ECC3AD
:10EEE0009822742528F582740812EEED2239F583F4
:10EEF000E022747628F582740A12EEED227420283E
:10EF0000F582740812EEED2212EF0DE022741C2837
:10EF1000F582740839F5832274F51225928A088BDC
:10EF200009ECFEEDFF750A008002050A9050BFE46F
:10EF300093F8E50AC3985022EEFCEFFDE50A12F0C3
:10EF4000641241DBE960E3E50A75F017A4F8A9F063
:10EF5000746828F582740A12DD1F02B668E9F87930
:10EF600007C3940D400479018019E8C39407400455
:10EF70007903800FE8C39403400479058005E870A5
:10EF8000027900022B4774F01225928A088B098CB3
:10EF90000A8D0B890C12355D8A0E8B0FAE0EAF0FEA
:10EFA000EE4F60487C177D0079001240138E828FEF
:10EFB0008312DE8C12F00A12DA5BE50C600712B5E0
:10EFC00026E50C800312EFFDF0900592E0640170DD
:10EFD0000612EFEFE4800512EFEF740712E97750A5
:10EFE00001097A027B0012233512F00302D937128D
:10EFF000EFF322EE240EF582E43FF5832212CD7E5C
:10F00000740122EE12DBB9E8F02212A9ACA322743B
:10F01000F7122592EAFEEBFF750800803AE50875C5
:10F02000F017A4F8A9F012F05F7003A3E06F60146A
:10F0300074FF6E700374FF6F701B12F07C7003A37B
:10F04000E0F4601112F06B124ABDE97008E5081295
:10F05000EBAB123575050812EAC640C102B3F812CF
:10F06000EA6E6E2275F017A4F8A9F0746A28FA7493
:10F070000A39FB22EC75F017A4F8A9F012EA6E64C5
:10F08000FE22C082C0837AFF7BFF1235AB02C580AF
:10F09000C082C0839005CB74BDF0A37435F0900599
:10F0A000CD74C3F0A37435F09005CF74C9F0A37488
:10F0B0003502AD8574F7122592EAF8EBF99004D584
:10F0C00012F0FDCA2406F582E43AF583E0702B883D
:10F0D000828983A3A3A3A3A3A3A3A3A31229A1907B
:10F0E00004D512F102122E3A88828983A3E0F91224
:10F0F0002EC17402122B5F12496102B3F8E0FAA329
:10F10000E02212F0FDF5838A8222C082C08390053E
:10F110009512F1CEF090059512CF937005790112FA
:10F12000350302C58074F612259274FC122C13E983
:10F13000FE9050C8E493700874E16E600302F1C958
:10F14000EA2408F8E43BF98882898312F1CE12F1AF
:10F15000D7700E900595E4F0A3F079011235038085
:10F1600068901983E06062F890059512CC94C3E82A
:10F170009AE49B505479001235038A088B09AC0835
:10F18000AD09ECF8EDF9E875F064A4F8AAF075F0B3
:10F1900064E9A42AF990059512CC9412233DE894D1
:10F1A0001AE99400402390189B12CF93601B90059E
:10F1B0009512CC987402122E69ECF0A3ED12CFCA0E
:10F1C00090189B12E2F9124AF2740402C90FE0246B
:10F1D00001F0A3E034002212E6A912D546E8492244
:10F1E000C082C08374F8122C139080D8AC18AD196B
:10F1F0007408122AC3AC18AD191241DBE96401701E
:10F2000004790080027901740802D58374F612250E
:10F2100092740C122E6912BC6B743A6E7001EF601E
:10F2200006743B6E4F7023740A122E691229A18C4A
:10F23000088D097808122B9DEAFCEBFDEEFAEFFB36
:10F240001241577404122B5F8002790A02C912C05E
:10F2500082C0839005D174C1F0A37449F09005D3A6
:10F2600074BBF0A37449F090196FE06401703290A0
:10F2700005D574E7F0A37435F09005D774EDF0A3CD
:10F280007435F09005D974F3F0A37435F09005DB74
:10F2900074F9F0A37435F09005DD74E1F0A37435D2
:10F2A000F09005D512CF93600612C8B5124AF2024B
:10F2B000C58074F412259274E6122C138A088B0907
:10F2C0007404122E697402F004122BEB1234618A5A
:10F2D0000A8B0BAE0AAF0BEE4F700302F43C12F434
:10F2E0008C746012CDAD12DE9E1233DD12DCEE1294
:10F2F000B9D812DE8C12BFB9701290052AE0C0E0B6
:10F3000012F441D0E0F090052AE004F012F45D70B0
:10F3100016901A4CE0600D900535E0700A8E828FD1
:10F3200083E0700312CD6FAC18AD19EEFAEFFB124B
:10F3300033B98A088B09EA4509700302F4357A214A
:10F340007B001240CD7406122E6912E1657406121C
:10F350002E6912CF93700302F42E7C217D00790078
:10F360007406122E69E0FA1240137401122BEB7925
:10F37000501248957401122E6912BADD7406122ECD
:10F380006912F0FDCA2409F582E43AF58312CCA390
:10F3900090053E12BADD7417122E6912CCA37406C2
:10F3A000122E6912BC7012F463F07406122E6912E8
:10F3B000B0E6740212F4B27406122E6912F102124F
:10F3C000CCA37406122E6912F49712F4BDC0E07437
:10F3D00006122E6912BC7012F473D0E0F0EE240E07
:10F3E00012F44BC0E07406122E6912F47CD0E0F0E7
:10F3F0007406122E6912BC7012BC6112DD20EE245C
:10F400000F12BAD7740C122E6912CCA38A828B8386
:10F41000E0C0E0740E122E69D0E0F07406122BEBFF
:10F4200012332F7406122E6912CC941240D3AA08FC
:10F43000AB091240D3EEFAEFFB1240D3741A028FDD
:10F44000C6EE2414F582E43FF5832212F450E02244
:10F45000F8E43FF9E8FAE9FB8A828B832212BF566F
:10F4600064012212F46D38F583740222EA240BF54C
:10F4700082E422241EF582E438F5832212F48022ED
:10F4800012BC74240CF582E438F5832212CC72127B
:10F49000CD977404F0A322E012F4A17401F0A3E468
:10F4A00022F8A3E0C812F4A922240DF582E438F56D
:10F4B000832212DBCE12D54622E8F0A3E912A7FC84
:10F4C000E02274F61225927E0080187C047D00797B
:10F4D000FF8E088D0974027808122D1C12F6FD1299
:10F4E00040130E9050CE12EA1040E002C91274F49C
:10F4F00012259274F7122C13750800802285080AD1
:10F50000750B007402780A122D1C7407250AF58207
:10F51000740E12F59F24FFF0A3E034FFF00508906D
:10F5200050CE12EAC9506D85080A750B0074027836
:10F530000A122D1C12F597F47003A3E0F460DE8527
:10F54000080A750B007402780A122D1C7407250A2C
:10F55000F582740E350B12CF9170A27408122E69C9
:10F560007402F085080A750B00780A122D1C7405C8
:10F57000250AFE740E350BFF8E828F8312CC9812F3
:10F58000F5A51248DD7C047D0079FFEEFAEFFB1251
:10F590004013808902B0E17405250AF582740E35A6
:10F5A0000BF583E02212F7162274EE12259274F7FF
:10F5B000122C13EAFEEBFF750CFF7408122E691271
:10F5C000F7081248D7E9641A700302F67B750E003B
:10F5D000741B122E697808122DDC800B74FF650CE9
:10F5E0007003850E0C050E9050CEE493F8E50EC323
:10F5F000985048850E1075110074027810122D1C59
:10F6000012F67FF47003A3E0F460D1850E1075113B
:10F610000074027810122D1C12F67F6E7003A3E0A6
:10F620006F70C2750F007402780E122D1C740725BE
:10F630000EF582740E350FF5838030E493650E70FD
:10F640002D74FF650C602E850C0E750F007402780A
:10F650000E122D1C7405250EF8740E350FF98882D4
:10F66000898312E10188828983A3A312DD227901B3
:10F67000740902C2A412F5A51248DD790080F17464
:10F68000052510F582740E3511F583E02274F4120D
:10F69000259274F7122C13EAFEEBFF7408122E6900
:10F6A00012F7081248DD750800800205089050CE58
:10F6B00012EAC9504585080A750B007402780A12CF
:10F6C0002D1C12F597F47003A3E0F460DE85080AA0
:10F6D000750B007402780A122D1C12F5976E7003D8
:10F6E000A3E06F70C67C047D0079FF8D09740278F9
:10F6F00008122D1C12F6FD12401302B0E17405250C
:10F7000008FA740E3509FB22740212A7FCEEF0A36E
:10F71000EFF012F7162290054B12B9B7AA18AB19E1
:10F720002274EE1225928A088B09ECFEEDFF750A11
:10F7300000EE65087003EF6509600C12414B8A0CFE
:10F740008B0DEA450D7006750A0102F7DDEEFAEF42
:10F75000FB12414B8A0E8B0FAC0EAD0FEC4D6007C8
:10F76000EEFAEFFB12415DE4F50EF50F780E122B69
:10F770009DAC0CAD0DEEFAEFFB1241457402122B5D
:10F780005FE96059AA0CAB0D1240CD8A0E8B0FEACF
:10F79000450F6046780E122B9D780C122B9D7C0035
:10F7A0007D00AA08AB091241577404122B5FE9705F
:10F7B0001D780E122B9D780C122B9D7C007D00EE87
:10F7C000FAEFFB1241517404122B5FE96003750AD2
:10F7D00001AA0EAB0F1240D38003750A10A90A02CA
:10F7E000C2A7122396022B47C082C08374FF122C3B
:10F7F00013AC18AD197A01798712420B85188285EE
:10F800001983E0C39403400F7402F07C007D00FA7A
:10F8100079E2124241800CE4F0901A6BE0FA7B002E
:10F820001243737401122B5FD083D082022B477472
:10F83000F012259274F5122C13851882851983EA2B
:10F84000F0A3EBF0ECFEEDFF750820E9700302F980
:10F85000EF9017ABE0F47003A3E0F47062EE4F603A
:10F8600073740A122E697403F07402122BEB1241A6
:10F87000E19017A4E0F5087808122BA17403122B6D
:10F88000F37401122E6912FE569017A4E0F912319A
:10F89000377401122B5FE9F50870247D007C007934
:10F8A00000EEFAEFFB12468590816A1229997A00E0
:10F8B0007B01901812E0F91241937404122B5F85BA
:10F8C0001882851983E0FCA3E0FDAA0879E11242C1
:10F8D0004102FA18750802740A122E697402F012B5
:10F8E0002E6974FFF0A3F012FA27A3A3A31229A193
:10F8F00088828983A3A3A3A3A3A3A3A3A3E0FC74E7
:10F9000002122BEB79011245957402122B5FE9600C
:10F910002F7508007808122BA1E4F50AF50B780A78
:10F92000122B9D7808122BA17404122BE3880A89EC
:10F930000B780A122B9D12FA221229A17901805705
:10F9400012FA271229A188828983A3A3A3A3A3A3C0
:10F95000E0FC7402122BEB79011245957402122B14
:10F960005FE9700302F8BF7508007808122BA174D4
:10F9700001122BE3880A890B780A122B9D75080166
:10F980007808122BA1E4F50AF50B780A122B9D12C8
:10F99000FA221229A179007CFF7DFF740A122BEB59
:10F9A0001246917408122B5FE9F508E5086003021E
:10F9B000F8BF9004EBE0F50CA3E0F50DE4F50EF5CF
:10F9C0000F780C122B957A007B209017AAE0F91281
:10F9D00041937404122B5F851882851983E0F8A384
:10F9E000E0F99017ABE8F0A3E9F0802C1239FB7C2A
:10F9F0000085188285198312FF91123A25EA4B700F
:10FA0000EB90816A1229997A007B01901812E0F933
:10FA10001241937404122B5F740B122B5F7F080248
:10FA2000285B12FFA0A3229017A7E0F8A3E0F988B3
:10FA3000828983A3A3A3A3A3A3A32274F71225926D
:10FA400074F7122C137408122E697402F085188250
:10FA5000851983EAF0A3EBF07D007C00AA18AB19AE
:10FA60001246FD7409122B5F02FCAD74F41225924C
:10FA7000E9FE7A007B409017AAE0F912419FEE70F0
:10FA80000A7A0012FF961239BF80477A0112FF9658
:10FA90001239BF74FF6E603AEEC3944140027E405B
:10FAA000EEF875F0E8A4C8AAF075F003A42AFAE409
:10FAB0002A8808F5093395E0F50AF50B7808122B2A
:10FAC000957A007B409017AAE0F9124193740412D2
:10FAD0002B5F02FBCE74F412259274F4122C138C5B
:10FAE000088D09E9FF741B122E69E0FE74FE6A702E
:10FAF0000374FF6B70097408122E69E4F0801D8591
:10FB00001882851983EAF0A3EBF07408122E697449
:10FB100002F012347FE96004EEC2E4FE740A122E91
:10FB200069E4F0A3F012FF9BC0E07409122E69D0C3
:10FB3000E0F0741C122E69E0F50A780A122BA17409
:10FB40001B122BE3880A890B780A122B9D741B1257
:10FB50002E691229A18F0A750B00780A122B9D7845
:10FB600008122B9DEEF97CA47D177409122BEB1261
:10FB7000399B7409122B5FE9FA600E741A122E6910
:10FB8000E0FC7D0079E0124241740C122B5F803E54
:10FB900074F4122592E9FFEAFE8C0A8D0BEFFA7BD2
:10FBA0000012414BEAF508EEC39508500479018034
:10FBB0001D780A122B9D7509007808122B9D7C0078
:10FBC0007D00EFFA7B001241577404122B5F7F0413
:10FBD00002285B74F6122592E9FFEAFE8C088D0973
:10FBE0007808122B9D8E087509007808122B9D7CD1
:10FBF000007D00EFFA7B001241517404122B5F7FED
:10FC00000202285B74F5122592E9601714601C1437
:10FC1000602114602614602B14603014603F14605F
:10FC20004E80667508157509188026750851750986
:10FC30000E804275083E75090580287508417509D2
:10FC4000058020750843750905802A7508407509E7
:10FC500005750A007808122B997C01802275084BE3
:10FC6000750905750A007808122B997C02801075B9
:10FC7000085F750905750A007808122B997C087DC4
:10FC8000001240077403122B5F7F0302285B74F796
:10FC9000122592E9FE74016E70097D007C007900E6
:10FCA000124685800874F7122592123E997F010250
:10FCB000285B74F7122592123E9F80F174F2122590
:10FCC0009274FF122C13890A8A088B09EB548070F6
:10FCD0000302FDD6800FA3E0F9123E93EEFAEFFB8C
:10FCE000124031A90A1240438A0C8B0DAE0CAF0DA5
:10FCF000EE4F700302FDCE8E828F83E024E6603DDE
:10FD00002449607414700302FDAB14601624F37070
:10FD10000302FDB414700302FDBE1460B924E56053
:10FD20000B80B9EEFAEFFB12423580B0A3E0FA8EF9
:10FD3000828F83A3A3A3E0F9124223809FEE2422A3
:10FD4000F582E43FF5831229A1EE2420F582E43FF9
:10FD5000F5831229A18E828F83A3A3A3A3E0FCA322
:10FD6000E0FD8E828F83A3A3A3A312FE54123EB1A3
:10FD70007404122B5F02FCDCA3E0640660148E8224
:10FD80008F83A3E06407600A8E828F83A3E06409F7
:10FD90007005790002FCD98E828F83A3E06007642E
:10FDA00001600302FCDC792202FCD912FE54123EEF
:10FDB000A502FCDCA3E0FA8E828F8302FD34A3E06F
:10FDC000F98E828F8312FE5412422902FCDCAA08AB
:10FDD000E5096480806FEB544060107A0012FF9652
:10FDE0001239BFAA08E5096440805AEB5420601B11
:10FDF00079219017AB12FE561242299017AB74FF6F
:10FE0000F0A3F0AA08E5096420803AEB54107A00C8
:10FE100060367908123AEBAC18AD197A0179031201
:10FE2000420B851882851983E0A2E250051241ED4C
:10FE3000800D7CF47D017B327A007902123AF1AABE
:10FE400008E5096410FB80027B007401122B5F7FC0
:10FE50000602285BA3A3E0FAA3E0FB2274F61225B6
:10FE60009274F7122C13EA240CF582E43BF583E03C
:10FE7000F508A3E0F50978081227C9000002000080
:10FE80008089FE0680A6FE49FF12464F8A828B8338
:10FE9000E5822403FCE43583FDA3AA82AB837901C8
:10FEA000123EAB02FF491246558A088B09AE08AFD5
:10FEB000099017ABE0F47003A3E0F4700302FF496C
:10FEC0007408122E697402F08E828F83A3E0F8A367
:10FED000E0F9851882851983E8F0A3E9F08E828F16
:10FEE00083A3A3A3A3E0F5087808122BA174011241
:10FEF0002BF39017AB12FF911231377401122B5F65
:10FF0000E970467A007B209017AAE0F912419F9091
:10FF1000816A1229997A007B01901812E0F9124146
:10FF2000937404122B5F7D007C0079008E828F8396
:10FF300012FE5512468B79009017AB12FE56123EF8
:10FF40009F9017AB74FFF0A3F0740902FBFC74F7E9
:10FF5000122592E99017AAF09017AB74FFF0A3F066
:10FF60009017A574AAF0A37417F09017A4E4F0FA00
:10FF700012FF961239BF7A007B809017AAE0F9121F
:10FF8000472D7A067B809017AAE0F912472D02FCD4
:10FF9000ADE0FAA3E0FB12FF9BF92212FFA0E022E2
:10FFA0009017A7E0F8A3E0F58388822274F4122565
:10FFB0009289088A09ECFEEDFF7A047B0012402B3F
:10FFC000EA4B601E8A828B83E508F0A3E509F08A7C
:10FFD000828B83A3A3EEF0A3EFF09017AAE0F912AF
:10FFE000403702FBCE7407F5D575D40C7407F5D3F2
:10FFF00075D214022B47FFFFFFFFFFFFFFFFFFFF3C
:020000040001F9
:10000000C082C083790012CF80C082C0839004D1A7
:1000100012C834D083D082C3E09CA3E09D500DEA87
:10002000240B12804F12802F60027901029E29EA70
:1000300075F00BA4FAA8F075F00BEBA428FB900464
:10004000D3E02AF8A3E03B8882F583E0540F22F541
:1000500082E43B12B9692274F7122592890812B022
:1000600082128395ACF075F00BE9A42CF99004D3BF
:10007000E028F8A3E039F9E8FEE9FF7401650860BB
:10008000067402650870228A828B8312854B740283
:1000900065087021EA2403FA50010B124ABDE97089
:1000A000148E828F83E4F0800CEA2403FCE43B127C
:1000B0008542124AC38E828F83E0D2E7F0124475E4
:1000C00002AC3874F412259212861C79008E828F4D
:1000D00083E06078890A890B8063E50A75F00BA4D8
:1000E000FAA8F075F00BE50B12803B7048E50A7535
:1000F000F00BA4F8AAF075F00BE50B12855F8E8269
:100100008F83E085088285098312A5101284C0EED2
:100110002403FCE43F1281FA124AC312AE86E50AB8
:10012000F0A3E50B129B46D2E7F0124475790190DB
:1001300004D1129419050AE50A7002050B9004D146
:1001400012C06CC3E50A9AE50B9B408E029B50746B
:10015000F5122592EAFEEBFF750A01740B122E6967
:1001600012CC91EC4D6015EC12BD363D12862A7909
:1001700001124AE1E508450960758023E508450953
:10018000604412BD34350912862A1281FB124ABD21
:10019000E96401701BEEFAEFFB124ADBE9F50A8510
:1001A00008828509831284B87902AA08AB098011F4
:1001B000128543124ABDE9640170347903EEFAEF07
:1001C000FB124AE180298E828F83A3E064FE7003D4
:1001D000A3E0F4700B128543124ABDE96401700C70
:1001E000EEFAEFFB124ADBE9F50A8003750A00021A
:1001F0008CA9E50A2403FCE4350BFDE5082403FA89
:10020000E43509FB2274F71225929004D112AFB69F
:10021000EA4B602FEA75F00BA4FAA8F075F00BEB2F
:10022000A428FBEAFEEBFF1240CD9004D312AFB638
:100230009004D312ADCB6012EEFCEFFD79001240BA
:100240001380079004D3E4F0A3F002AC38C082C05E
:1002500083EC4D60051241E180097C087D00790046
:10026000124013029E29C082C0837900EA4B6016B7
:100270007800E8FCEA2C12B08E6004790178080856
:10028000E8C3940840EC029E2974F712259274F397
:10029000122C13ECFEEDFF851882851983E4F0041F
:1002A000122E69EAF0A3EB12C12C124A9F740312BA
:1002B0002E69AC82AD83EEFAEFFB124AC3EEFAEF81
:1002C000FB124ABD02AC3374F712259274F3122C60
:1002D00013ECFEEDFF851882851983E4F0EAFCEB50
:1002E000FD7403122E69AA82AB83124AC3AA18AB0B
:1002F00019124A997401122E6912A5218E828F83D8
:1003000012AF7274FE68700374FF69600479018033
:1003100002790002AC3374F7122592EAFEEBFF1269
:100320004ACFE9F508740165087011128380F4FA68
:1003300088828983E05A4480F0124475A90802AC8F
:100340003874F7122592EAFEEBFF7508008E828F53
:1003500083E0602A124ACFE9F50874016508701E2F
:10036000128380FA88828983E05A70128E828F838A
:10037000E04480FA88828983E04AF012447580BCA8
:1003800012ACFAF8128395128737F8A3E039F98E88
:10039000828F83E022A3E0F9E875F00BA4F82274C1
:1003A000F41225928A088B097C007D00EA1281FDF7
:1003B000124AC3E5081284DA790085088285098328
:1003C000A3E064FE7003A3E0F460787E007F008009
:1003D00065EEFAEFFB12802F6057EEFAEFFBEA753D
:1003E000F00BA4FAA8F075F00BEBA428FB9004D353
:1003F000E02AF50AA3E03BF50B8508828509831204
:10040000C06B850A82850B83A3E06A7003A3E06B4F
:10041000701FE50A2403FAE4350BFB124ABDE964B8
:100420000170061281F2124AC31284CF790112C9F7
:100430009B0EEE70010F9004D112C06CC3EE9AEFC8
:100440009B408E029B5074F31225928A088B098A76
:10045000828B831284B8EA1284DA750C00EA128166
:10046000FD124ABDE9640170477E007F00803C12A6
:100470008729FAA3E0398A82F583E0540F602712B6
:100480008729F50AA3E039F50B1281F21241DBE965
:1004900064017012850A82850B831284C01284CF96
:1004A000750C0112C99B0EEE70010F12874640BFFA
:1004B000A90C7F0502285BA3A374FEF0A304F0221D
:1004C000A312AC24850882850983A312A22922E500
:1004D000081284E4EEF0A3EFF0221284E474FEF03C
:1004E000A304F022240BF582E43509F5832274F588
:1004F000122592EAFEEBFF8E828F831284B87C0075
:100500007D00128543124AC3EEFAEFFB124ACFE98F
:10051000F50A7401650A702712AC1D12855385080F
:1005200082F58312854B1281FB124ABDE96401708A
:100530000EE5082403FCE43509128542124AC30281
:100540008CA9FDEE2403FAE43FFB22A312C07A1229
:10055000A22922E875F00BA4F8AAF075F00BE912B5
:10056000873DF508A3E039F5092274F2122592744B
:10057000E6122C1312861C750A0175080075090015
:10058000750C00750D00851882851983E4F0EE2442
:1005900003FCE43FFD7403122E69AA82AB83124A66
:1005A000C3AA18AB19124A99E96401701F740B129F
:1005B0002E6912862C7401122E6912C0747003A366
:1005C000E069604AA818A91988088909740D122ED3
:1005D0006912A50FA312A521740E122E6912AF7213
:1005E000740D122BEB124A9FE964017009740D120D
:1005F0002BE3880C890D780C122B9DAC08AD09EE0D
:10060000FAEFFB124AD57402122B5FE9F50AEEFAF3
:10061000EFFB124AA5A90A741A02AE98EAFEEBFF94
:1006200012AE8A74FEF0A304F022F58312C05AF9C8
:1006300012AE8A12A22922C082C08378007900807B
:100640000508E87001099004D112982EE99B502901
:10065000E8FAE9FBEA75F00BA4FAACF075F00BEBE5
:10066000A42CFB9004D3E02AFCA3E03B8C82F5830E
:10067000E0540F70CC790080027901029E2974F653
:100680001225927E007F008039EEF8EFF912855333
:100690007808122B9D75080B7509007808122B9DA0
:1006A000EEFCEFFDEC75F00BA4FC75F00BEDA42A4D
:1006B000FD7A237B001241577404122B5F0EEE70FB
:1006C000010F12874640C2028BC174F61225927E3A
:1006D000007F00804C128729F8A3E039F9888289CD
:1006E00083E0A2E75036C2E7F08582088583097867
:1006F00008122B9D75080B7509007808122B9DEECA
:10070000FCEFFDEC75F00BA4FC75F00BEDA42AFDDD
:100710007A237B001241517404122B5F0EEE70019C
:100720000F12874640AF028BC1EEF8EFF9E875F083
:100730000BA4F812873722AAF075F00BE9A42AF966
:100740009004D3E028229004D112AC24C3EE98EF99
:10075000992274F6122592E4F508F5097808122B0F
:100760009D9004D112941475F00BA4FCA8F075F0C0
:100770000BEDA428FD7A237B001241457402122B55
:100780005FE9FE6003124A6F02C69074F61225926A
:1007900074FF122C137E007F00803C85188285191F
:1007A00083E412917C122B9D75080175090078086D
:1007B000122B9DEEFCEFFDEC75F00BA4FCA8F07580
:1007C000F00BEDA428FD7A237B0012415174041232
:1007D0002B5F0EEE70010F12874640BF7401028B33
:1007E000BEC082C0839050D5E49375F01CA4FCADCC
:1007F000F079FF7A1C7B08124013029E2974F712CD
:100800002592E9FCEAFD7A007B008010EB128E57FE
:100810009C4008E0F8EDC39840010A0B9050D5E4E5
:1008200093F8EBC39840E57B0002AC3874EC1225DA
:100830009274F3122C138A0C8B0D8C088D09890A83
:10084000EC45096016AA08AB09124A278A0E8B0FDD
:10085000AE0EAF0FEE4F600302892A7A0080010AC4
:100860009050D512BFB1500F128A1F70F2741C281D
:10087000FE740839FF80047E007F00EE4F70030293
:1008800089D39050B71289F060257403650A600619
:100890007404650A70197A047903124A5D8A0E8B12
:1008A0000F9050D5E493F89050B7128A09502D90CC
:1008B00050B51289F0602C7401650A6006740265F7
:1008C0000A70207A027901124A5D8A0E8B0F9050CD
:1008D000D5E493F89050B5128A0940077A007B005E
:1008E0000289EB8518828519837401F0122E69E55F
:1008F0000CF0A3E50DF0AC08AD097403122E69AA43
:1009000082AB83124AC3AA18AB19124A8D740B1218
:100910002E6912A2228E828F83A3A3A3A3A3A3E492
:1009200012C830AA0CAB0D1235697800E50A6007D1
:10093000C39405500278048E828F83E50CF0A3E502
:100940000D128D1AA3A3E50AF0E88E828F83A3A36C
:10095000A3A3A312C3415001097A027B00122335DD
:10096000129809A3129CA8129835E50A605BC394FB
:10097000035056901A57E07018904F94780C122C30
:10098000F61297E0122DFA904F94780C122CF68004
:1009900027F50875090074027808122D1C1289FACF
:1009A000122CF69081567810122DDC780C791012EA
:1009B000242D1297E0122DFAEE24131297E3122D34
:1009C000FAEE241B12C33880091297EC1284BBA3E1
:1009D000F0A3F07A047900124A5D128D0B40059065
:1009E0001998E4F012342BEEFAEFFB740D02A02FED
:1009F000E493F8740193F9E8492274942508F58288
:100A0000744F3509F583780C22E493FA740193FB53
:100A1000E8C39AF8E49BF9C3E50E98E50F9922EA3A
:100A2000128A25F42275F01CA4F8A9F0742028F588
:100A300082740839F583E02274EE12259274F31261
:100A40002C13EAFEEBFF8C108D11750800AA10AB79
:100A500011124A27EA4B7003028B538A828B83E080
:100A60006E7003A3E06F7003028B538A828B83A3A3
:100A7000A3A3A3E0C394054003028B538A828B8314
:100A800012C989E060728A828B83A3A3A3A3E0C307
:100A900094035064901A57E07021904F9478081294
:100AA0002CF6128B5A122DFA904F947808122CF6CD
:100AB000EA2413128B5D122DFA8030F508750900B7
:100AC00074027808122D1C1289FA122CF6908156A5
:100AD0007808122DDC780C790812242D129A0A124B
:100AE0002DFAEA2413129A0D122DFAEA241BF5822C
:100AF000E43BF583E4F0801B7508FE7509FF750A79
:100B0000FF750BFF128B5A122DFAEA2413128B5D1C
:100B1000122DFA750800750900750A00750B00EAB8
:100B2000240C128B5D122DFA8518828519837401AD
:100B3000F0122E69EEF0A3EFF0AC10AD11740312B9
:100B40002E69AA82AB83124AC3AA18AB19124A8D26
:100B5000750801A908740D02C981EA2417F582E419
:100B60003BF58378082274F6122592124A2D8A08E2
:100B70008B09A808A909E849601488828983A3A37E
:100B8000A3A3E06009C394055004790180027900B1
:100B9000802F74F6122592124A2D8A088B09A80814
:100BA000A909E849601488828983A3A3A3A3E0600C
:100BB00009C3940350047901800279008003122B49
:100BC0005F7F0202285B74F6122592124A2D8A82F8
:100BD0008B83E5824583600BA3A3A3A3E070047914
:100BE000018002790080DAC082C083EAFCEBFD7AE2
:100BF000007B00029E26C082C0837C007D00029E96
:100C00002674F512259274F3122C13EAFEEBFF8C76
:100C1000088D09C3EC94F8ED94FF4004EE4F606535
:100C2000750A00801974FF6508700474FF65096017
:100C30000B12CF7A7004A3E06509603B050A90505F
:100C4000D5E493F8E50AC398503BE50A128A206080
:100C5000EBEE4F60D0128C90122E6912C128124A0E
:100C600093E960D87403122E69AC82AD83EEFAEF7B
:100C7000FB1241DBE960C5E50A75F01CA4F8A9F098
:100C8000128E4E80047A007B00740D122B5F801B45
:100C90008518828519837401F0741E28F582740802
:100CA00039F58312AC24740B22A90A7F0302285B56
:100CB00074F412259274F3122C13750800124A274B
:100CC0008A0A8B0BAE0AAF0BEE4F60258518828522
:100CD0001983128D18128CA3122E6912C128124A80
:100CE000AB7C1C7D0079FFEEFAEFFB124013750818
:100CF000017A047900124A5D128D0B5009901998FF
:100D00007401F012342BA908029B4B9050D5E49348
:100D1000F8C3EA98EB940022740112A514A3A3224D
:100D200074F7122592E9FE74FE6A700374FF6B7CFF
:100D300000700380240C128D83501EEC128A2060F8
:100D4000F4128F1D7003A3E06B70EA800BEC128D20
:100D5000986019E0640360140C128D83501EEE60DD
:100D6000ECEC128D8D60F1C3940550ECEC75F01C29
:100D7000A4FCADF012D4F012C06C80047AFE7BFFAC
:100D800002AC389050D5E493F8ECC3982275F01C6F
:100D9000A4F8A9F0128A2C2275F01CA4F8A9F0126C
:100DA0008A2C6401221249DF029E29C082C0837905
:100DB0000180F274F01225928A0A8B0B7A04790171
:100DC000124A5D8A0C8B0DEA450D6040EA2AFAEB67
:100DD00033FB1240CD8A088B09AE08AF09EE4F6095
:100DE000267AFE7BFF1249D974FE6A700374FF6B8A
:100DF000601E85088285098312AFB6E5082402F5D6
:100E00000850E2050980DE750C0080047E007F003A
:100E1000850A82850B83E50CF0EEFAEFFB0290E485
:100E2000C082C0837C008009EA24FF1AEB34FFFBF8
:100E30000C128D835011EC128E57940550F2EA4B30
:100E400070E6128E4E80047A007B00029E29741C8C
:100E500028FA740839FB22128A25C32274F7122556
:100E60009274F3122C137E00807DEF75F017A4F8B6
:100E7000A9F0128F0E12C06CEE75F01CA4F8A9F048
:100E8000128F1D7003A3E06B603DEF75F017A4F89F
:100E9000AAF0EAF9128F0E12A5217401122E69E050
:100EA000687003A3E069601FEF75F017A4F8EAF912
:100EB000746A28FC740A39FD7403122E69AA82AB85
:100EC000831241DBE96013EF75F017A4F8A9F07401
:100ED0006828FA740A39FB1235750F9050BFE493F5
:100EE000F8EFC39840840E12D4DD501FEE12DA5B87
:100EF000F47003A3E0F460EE128C90122E6912C11C
:100F000028124A93E960DF7F0080D002AC33128F51
:100F10001222746828F582740A39F5832212DA667F
:100F20006A2274F412259274F3122C137E00803816
:100F30009081667808122DDCEE75F01CA4F8A9F0FB
:100F4000742F28F582740839F5837808122C6A60AA
:100F5000169081067808122DDCEE75F01CA4F812AC
:100F60008FEA7808122CD00E12D4DD507AEE128D52
:100F70008D60F4C3940350EF128FEA122E16E849E5
:100F80004A4B70AC90196FE06401702D9005D91236
:100F9000ADCB6025EE75F01CA4F8A9F0741C28F800
:100FA000740839F912904012299988828983129025
:100FB000D5124AF27404122B5F8518828519837446
:100FC00001F0EE75F01CA4F8A9F0128C99122E69AC
:100FD00012C128124A93E9608E7403122E69AA8204
:100FE000AB831249EB8080029B4B743328F58274EB
:100FF0000839F5832274F6122592124A2D8A088B3D
:1010000009A808A909E849603288828983A3A3A3B3
:10101000A3E06023C39403501E129040122E22E8D6
:101020002417F582E439F583122E46E8241BF58255
:10103000E439F5837401F0790180027900028BC1F3
:10104000E82413F582E439F5832274F0122592EA3C
:10105000FEEBFF9005D312ADCB60729005D912ADB7
:10106000CB606A9005DD12ADCB606212D369124A83
:10107000F2E97059901A57E0700A904F947808126C
:101080002CF68028F50875090074027808122D1CCA
:1010900012D54B744F12D34A7808122CF690815611
:1010A000780C122DDC7808790C12242D7808122B7C
:1010B000951290CF124AF27404122B5FE96401700A
:1010C0000C8E828F83A3A312D357124AF280158EFF
:1010D000828F83A3A312B96B9005D912D3612274B6
:1010E0000D122B5F7F0802285B74F6122592E4F53F
:1010F00008F5097808122B9D9050D5E493F50874F3
:10110000037808122D1C1294061241457402122B0A
:101110005FE9FE740A6E6025E4F508F509780812A7
:101120002B9D9050D5E49375F005A4FCADF07A3F6B
:101130007B001241457402122B5FEE60031249A935
:1011400002C69074F612259274FE122C1385188232
:10115000851983E4F0A312917C122B9D750802750A
:1011600009007808122B9D7C007D007A227B0012FA
:1011700041517404122B5F7402028BBEF0A818A9AF
:10118000198808890978082274EE12259274DE12F3
:101190002C138A0E8B0F8C088D09750C007A227B1C
:1011A0000012414B8A0A8B0B7A3F7B0012414B8A1B
:1011B000108B11AE10AF11E50A450B6017E50865FD
:1011C0000A7004E509650B600BAC0AAD0B7A227B53
:1011D0000012415D7436122E69129419EE4F60159B
:1011E000E50A6E7003E50B6F600BEEFCEFFD7A3FD6
:1011F0007B0012415DE4F510F5117810122B9DACC7
:1012000008AD097A227B001241457402122B5FE976
:10121000640A70030293FCE4F508F5097808122BC0
:101220009DAC0AAD0B7A3F7B001241457402122B34
:101230005FE9640A70030293FC7404122BE38808CC
:1012400089097808122B9D75080275090078081223
:101250002B9D7C007D007A017B03124157740412A0
:101260002B5FE960030293FC851882851983E4F003
:10127000A3F07E000293737406122BE38808890999
:101280007808122B9D7508087509007808122B9DA7
:101290008E0874037808122D1CE5082402FCE4353E
:1012A00009FD7A017B031241577404122B5FE96038
:1012B000030293FC7408122E69E0F47003A3E0F4B7
:1012C00070030293727406122BE388088909780868
:1012D000122B9D7508087509007808122B9D74045F
:1012E000122E6912CC9174037808122D1C129406E8
:1012F0001241517404122B5FE960030293FC7402E3
:10130000122BE3880889097808122B9D750805754A
:1013100009007808122B9DEE75F005A4FCADF07A5B
:10132000027B031241577404122B5FE9704174026F
:10133000122BE3880889097808122B9D750805751A
:1013400009007808122B9D7404122E6912941475EA
:10135000F005A4FCA8F075F005EDA428FD7A3F7B0C
:10136000001241517404122B5FE960030293FC12D6
:1013700099220E851882851983C082C0839050D52A
:10138000E493F8D083D082C3E098A3E09400502186
:10139000851882851983C082C0837404122E691255
:1013A000A521D083D082C3E098A3E0995003029294
:1013B00077A818A919880889097808122B9D75083B
:1013C000027509007808122B9D7C007D007A227B33
:1013D000001241517404122B5FE97020AC0EAD0F66
:1013E0007A017B0312415DE970127434122E691286
:1013F000C8347A027B0312415DE96003750C01A9D0
:101400000C742202C981E5082402FCE43509FD7A46
:10141000227B002212C838EC22E0F50AA3E0F50B8B
:101420002274EC12259274FE122C13750A00851892
:1014300082851983E4F0A3F09050D593F50EF5085A
:1014400075090074037808122D1CE5082402F508BC
:1014500050020509E50E75F005A4F50EE5F0F50F4F
:101460007A227B0012414B8A0C8B0DAE0CAF0D7AA9
:101470003F7B0012414B8A108B11A818A919880CC8
:10148000890D780C122B9D750C02750D00780C12CD
:101490002B9D7C007D007A227B0012415774041240
:1014A0002B5F7A017B0312414B8A0C8B0D7A027BF6
:1014B0000312414B8A128B13A812A913E50C450D98
:1014C000700AE5086E7003E5096F7025E849700C35
:1014D000E50E65107004E50F65117015E50C450DFE
:1014E000607BEE4F604E85188285198312AFBC6019
:1014F000437C017D037A227B001235FFE9F8880ADC
:10150000705B7C027D037A3F7B001235FFE9F8882F
:101510000A704AEEFCEFFD7A227B0012415DE97011
:101520000EAC10AD117A3F7B0012415DE960117580
:101530000A018029AE0CAF0DE849600488108911BA
:10154000780E122B9D7810122B9DAC08AD09EEFA87
:10155000EFFB1249A37404122B5FE9F50AA90A7480
:101560000202A02F74EC12259274D0122C1385184D
:1015700082851983E4F0A3F012499DE96003029784
:10158000C8A818A919880889097808122B9D750818
:10159000027509007808122B9D7C007D007A227B61
:1015A000001241577404122B5FE960030297C89040
:1015B00050D5E493F885188285198312982EE49B00
:1015C00050030297C8750A00750B00750800803D2E
:1015D0007403122E69122E161297FF122E527403E4
:1015E000122E69122E1612A846122E52EE241BF548
:1015F00082E43FF583E4F07A047900124A5D128DAB
:101600000B4005901998E4F012342B05081297D579
:1016100040030297C812A51BC3E50A98E50B994041
:10162000030297C87414122BE3880C890D780C12EE
:101630002B9D750C08750D00780C122B9D85080CE0
:101640007403780C122D1CE50C2402FCE4350DFD0E
:101650007A227B001241577404122B5FE970AC743C
:1016600016122E69E0F47003A3E0F4609E050AE50B
:101670000A7002050B7407122E697401F0741612B9
:101680002E6912A5217412122E6912AF72740712FC
:101690002BEB124A93E9700302960B12C8317414B3
:1016A000122E6912C06C123569E50875F01CA4F899
:1016B000A9F0741C28FE740839FF7414122BE388F7
:1016C0000C890D750E00780C122B997C087D00EEAC
:1016D000FAEFFB1240077403122B5F12C34650014E
:1016E000097A027B00122335129809129835740288
:1016F000122BE3880C890D780C122B9D750C057547
:101700000D00780C122B9DE50875F005A4FCADF0DA
:101710007A3F7B001241577404122B5FE960030289
:1017200095F7908106780C122DDC7403122E6978DF
:101730000C122C6A60030295D0E50875F01CA4F821
:10174000AAF0EAF9128D946071C39403506C901A58
:1017500057E07018904F94780C122CF61297E01204
:101760002DFA904F94780C122CF68033F50C750DF1
:10177000007402780C122D1C7494250CF582744FA1
:1017800012B939780C122CF69081567810122DDC93
:10179000780C791012242DEAF91297E0122DFAEE46
:1017A00024131297E3122DFAE50875F01CA4F874BF
:1017B0003728F5827408390295F31297EC04141255
:1017C00084BBA3F0A30295F6851882851983E0F9FE
:1017D000743002A02F9050D5E493F8E508C3982206
:1017E000EE2417F582E43FF583780C221297FF74FC
:1017F000FEF0A304F0A3F0A3F012A84A74FE22EEB8
:101800002417F582E43FF58322E88E828F83A3A319
:10181000A3A3A3A3A3A312ABF8740112ABF8A37400
:10182000AAF0EE2410F582E43FF583E4F02212B929
:101830006BC3E89A22A3F012AE8AE4F0EE240CF512
:1018400082E43FF583E4F0A3F0A3F0A3F02274F266
:1018500012259274FE122C13851882851983E4F0E8
:10186000A3F07508000298EDE50875F01CA4F8A92E
:10187000F0741C28F50C740839F50DAE08780C12BC
:101880002B9D750A08750B00780A122B9D8E0A7421
:1018900003780A122D1CE50A2402FCE4350BFD7ABC
:1018A000227B001241517404122B5FE50C2412F5C7
:1018B0000AE4350DF50B780A122B9D750A05750B98
:1018C00000780A122B9DEE75F005A4FCADF07A3F6E
:1018D0007B001241517404122B5F850C82850D83AD
:1018E000A3A3A3A3E0F4600312992205081297D5DD
:1018F0005003029868A818A919880889097808125D
:101900002B9D7508027509007808122B9D7C007DBF
:10191000007A227B001241517404122B5F74020280
:10192000AE98851882851983E02401F0A3E0340085
:10193000F02274F012259274F3122C13EAFEEBFFDE
:101940007A027901124A5DEA8E828F83F070030277
:1019500099FD75F00CA4FAABF01240CD8A088B0902
:10196000EA45097003029A03AE08AF09750A0080C0
:101970001C908106122999EEFAEFFB12408B740439
:10198000122B5F8A0C8B0DAE0CAF0D050A9050D553
:10199000E493F8E50AC398506AE50A128D98600549
:1019A000E0640270E6128C90122E6912C128124A6D
:1019B00093E960187403122E69AC82AD83EEFAEFDE
:1019C000FB1241E18A0C8B0DAE0CAF0DE50A75F0F0
:1019D0001CA4F8A9F0743728F582740812D1C864E1
:1019E00001708E128E4EEA2413129A0D122DDC1203
:1019F0009A0A122BFB780C122B9502997775080026
:101A0000750900AA08AB090290DFEA2417F582E401
:101A10003BF583780C22C082C0839004DC74E1F033
:101A2000A37432F09004DE74DBF0A37432F09004FF
:101A3000E2747FF0A3742EF0029E29C082C08390CE
:101A400004E074D5F0A37432F0029E2974F71225D5
:101A500092EAFEEBFF90054DE06408601FE064042D
:101A6000601A8E828F83E054036401704412ACF6D6
:101A7000F8A3E0F5838882E0640670358E828F8358
:101A8000A3A3E064FE7003A3E0F460258E828F833D
:101A9000A3A312C8417003A3E0697008EE241512D5
:101AA000C82860051233A780031233ADE9F508801A
:101AB000037508C2EEFAEFFB1240D302833C74F4C4
:101AC0001225928A088B098A828B83E0FAA3E0F8B8
:101AD000EA28FAE43400FB1240CD8A0A8B0BAE0AE6
:101AE000AF0BEE4F605A850882850983E0FC7D00CC
:101AF00079001240138E828F831284B71233E38EE3
:101B0000828F83A3A3A3A3EAF0A3EB129B46F8EE74
:101B100028F8E43F12862F850882850983A3E0C058
:101B2000E012C32BD0E0F01233F5EE240EF582E480
:101B30003FF583E912A49CE0C0E012A1F4D0E0F0EC
:101B4000EEFAEFFB800A12A494E022740D122B5FD0
:101B50007F0402285B74F412259274E8122C138A15
:101B6000088B098C0A8D0BE9FE90054DE06404603A
:101B700005E06408700479C2804BA37808122DFA3E
:101B8000EE900554129CAD1240138518828519837E
:101B90007808122DFA7405122E69EEF07404122ED4
:101BA000697401F07407122E69E4F090054D740217
:101BB000F0901981E06402700590196FE4F0AA18A2
:101BC000AB191248B37418808474F412259274E827
:101BD000122C13EAFEEBFF9004D512ADCB6003028A
:101BE0009CA37A077B001240CD9004D512AFB6902B
