:020000040000FA
:10000000021F3F022003FFFFFFFFFF02200BFFFF45
:10001000FFFFFF022013FFFFFFFFFF02201BFFFF78
:10002000FFFFFF022023FFFFFFFFFF02202BFFFF48
:10003000FFFFFF022033FFFFFFFFFF02203BFFFF18
:10004000FFFFFF022043FFFFFFFFFF02204BFFFFE8
:10005000FFFFFF022053FFFFFFFFFF02205BFFFFB8
:10006000FFFFFF022063FFFFFFFFFF02206BFFFF88
:10007000FFFFFF022073FFFFFFFFFF02207BFFFF58
:10008000FFFFFF022083FFFFFFFFFF02208BFFFF28
:10009000FFFF70DFFFFF040000000002000000C847
:1000A000030002030369A5020269A532730000017F
:1000B00000000000000400FFFFFFFFFFFFFFFF0440
:1000C00003090424035400650078006100730020D4
:1000D0000049006E0073007400720075006D0065C9
:1000E000006E007400730024035400490020004394
:1000F000004300320035003300310020005500532A
:10010000004200200043004400430000035F005F02
:100110000030005800000000000000000000000057
:1001200000000000000000000000000000000000CF
:100130000000000000303132333435363738394171
:100140004243444546331C881C881C881C881C90EC
:100150001C74F8121BCD900391E06015900302749B
:10016000FEF0900304744DF0A37405F07A011207B9
:100170001C7F01021D6C74F8121BCD74FF121EB699
:100180007E00801F851882851983E064FE700690CA
:1001900003877401F0851882851983E0F890038441
:1001A000E068F07901AA18AB191210E9E9700302AE
:1001B0000287851882851983E064EF70027E07E06C
:1001C000C0E0900387E0FA900385E0F8EA28F8E4BD
:1001D0003400F9740228F582740339F583D0E0F015
:1001E000900387E0609E14600E14602B14603B1433
:1001F0006051146067809E900384E4F085188285C6
:100200001983E0900386F0C394809003874003E451
:1002100080827402020194851882851983E090031C
:1002200082F09003877403020194851882851983F4
:10023000E0900383F0900386E060199003877404D4
:10024000020194900385E004F0F8900386E0686072
:10025000030201959003877405020194900385E4DD
:10026000F0900387F0900384E0F885188285198365
:10027000E0686003020195900382E0644D60030230
:1002800001951203BF8002EEF97401121E370201BC
:100290007174F7121BCD74FB121EB6EAFEEBFF75EC
:1002A00008047509007808121ED07402121F377AEC
:1002B000907B0079041218EB7402121E3712070E9D
:1002C000121F88E0687003A3E069701285188285A8
:1002D0001983E0F47003A3E0F4600302039A74044A
:1002E000121F2F1207708A088B09A808A909740227
:1002F000121F88E8F0A3E9F07404121F88E0600878
:1003000079011201510203B3851882851983E068CF
:100310007003A3E0697076851882851983E0F47014
:1003200003A3E0F470197402121F887410F0A37410
:1003300020F08518828519837410F0A37420F0755D
:1003400008017509007808121ED07402121F377A4E
:10035000247B0812196F7402121E3775080478087E
:10036000121ED07402121F377A907B007904121883
:10037000EB7402121E3712070E121F88E06870031A
:10038000A3E069700479028006790480027903127F
:1003900001518E828F83741E80058E828F83E4F0DC
:1003A00012070E121F88E0687003A3E069700479D9
:1003B00001800279007405121E377F02021D6C74E1
:1003C000ED121BCD74F8121EB6900307E0FD9003EA
:1003D00006E0FCFAEDF8E4C8F9EA28FEE93408FF83
:1003E000751001750B00750A068E088F0974027866
:1003F00008121F1CC39508F8E49509F9740228F542
:100400000E740339F50F8E088F0974097808121FCE
:100410004EE508F511EE2410F508E43FF509EEF578
:100420000CEF5401F50D900383E014605914700330
:100430000204FB14700302057614601024FE70039E
:100440000206311470030206E10206F1750A03790F
:100450004E1213BD9003071207047402F0A37440F8
:100460001207027408120702F0A3F07418C394076D
:1004700004F510AA10A90B12071CA90A7408121E71
:10048000377F0C021D6C750A04794E1213BDEE45C0
:100490000D7005A9111219D5C3EE9425EF940850DB
:1004A0003CC3E5089424E50994084031E50E249600
:1004B000F8E50F3420F988828983E0701BA3AA82B3
:1004C000AB83E070139003887401F0888289837491
:1004D000A5F08A828B838004900388E4F07508106D
:1004E0007509007808121ED07C087D03EEFAEFFB38
:1004F00012196F7402121E37020473750A05E51192
:10050000C394794006750B0102047375124075138C
:10051000007812121ED07C097D037402780C121F21
:100520001CAA0CAB0DA9111218EB7402121E379005
:100530000307E0A3F0900306E0A3F0751043C3EEB9
:100540009425EF94084003020473C3E5089424E55E
:100550000994085003020473900388E070030204B6
:1005600073E50E2497F8E50F3420F988828983E437
:10057000F0A3F00204737508047509007808121ED0
:10058000D07402121F377A907B0079041218EB7432
:1005900002121E377402121F88E0F8A3E0F98518D2
:1005A00082851983E0687003A3E069851882851944
:1005B00083700BE0F47003A3E0F470578009E0F45B
:1005C0007003A3E0F4700D8518828519837410F010
:1005D000A37420F012070E121F88E8F0A3E9F0754B
:1005E00008017808121ED07402121F377A247B0883
:1005F00012196F7402121E377508047808121ED083
:100600007402121F377A907B0079041218EB74027F
:10061000121E3712070E121F88E0687003A3E069EC
:100620007006750A01020473750A02750B0702044D
:10063000739003D6E0600764026003020473EDFF69
:100640007A01790012071CE060030206D5800312CC
:10065000118512116CE970F77404121F881206F6E6
:100660007404121F887808121F6C85080C85090D08
:10067000850A0E850B0F9003C2780C121EF67404C7
:10068000121F88780C121F5DE5084509450A450BC5
:1006900070CE8EC2E5C554E04FF5C57404121F88B4
:1006A0001206F67404121F887808121F6C85080C55
:1006B00085090D850A0E850B0F9003C2780C121E5A
:1006C000F67404121F88780C121F5DE50845094571
:1006D0000A450B70CE7A01790012071C79080204D2
:1006E0007CEC900391F07003020473750A09020414
:1006F00073790602047CE4F0A37426F0A3E4F0A36B
:10070000F022F0A3E4F0A3F0A3F0A3F0A322851855
:1007100082851983E0F8A3E0F974022274F8121BB1
:10072000CDEAFE900305E0D2E7F0E9A3F0EE9003F6
:1007300003F08E0874042AFE7C028004E062080C38
:10074000ECFA3395E0FB74022AF58274033BF583DF
:10075000EEF8C3EA98EB9400A2D265D03340DDE511
:1007600008F074012AF97A027B0312112702017141
:1007700074E9121BCD7582007583FE121E198A164C
:100780008B177514007515008A828B83E4F0900333
:10079000D6E07006D2AAD2AF800464027005790058
:1007A000120151750C00750D20750E00750F00902B
:1007B00003D6E0600464027015121185120176E917
:1007C000F874096860030208AC7900120151E06412
:1007D000027007A29240030208877508007509029B
:1007E0007808121ED07402121F37850C08850D0977
:1007F000AA08E5095407FB850E0A850F0B740B78D0
:1008000008121E87A9081218EB7402121E377E0008
:100810007F009003CAC0828E10EFF5113395E0F58A
:1008200012F513850C08850D09850E0A850F0B78C6
:10083000087910121F099003C67808121EF67583F6
:1008400003D0827808121DFA501D851882851983FD
:10085000E5822EF582E5833FF583E0F9AA14AB1516
:100860001208DB8A148B150EEE70010FC3EF940291
:1008700040A09003CE780C121EF69003D2780C1292
:100880001DFA40030207AF7900AA14AB151208DB6A
:1008900079001208DB8B159003D6E07004C2AFC25A
:1008A000AAEA451570277AA57BA58021E870030286
:1008B00007CE74066870030207CE740768700302DF
:1008C00007CE8516828517837401F080BA75820081
:1008D000758302121E197F10021D6CC008C0097CAE
:1008E000088A088B09740F7808121F4EE508F8EA89
:1008F00025E0FAEB33FBE9A2E7500474014AFAE879
:10090000A2E0500874216AFA74106BFBE9C333F952
:100910001CEC70CDD009D00822C082C083120F33E6
:1009200060030209F0A3E0F8A3E060030209F0A36A
:10093000E064027002A3E060030209F09003B8E0F3
:100940002480600914604F14605C0209F0E86003C1
:100950000209F09003B2E060047801800278009010
:1009600003C0E8F0A3E4F09003B1E0600A9003C094
:10097000E04402F0A3E4F09003A6E0640460149065
:1009800003B374C0F0A37403F0A3E4F0A3740212E1
:100990000F95F0020E6E90039FE064047052900376
:1009A000C0E4F0A380D0E8547FFA90039FE0640491
:1009B000703EEAC394065038749F2AF582E43403EB
:1009C000F583E854806018A3A3A3A3A3A3A3E064C2
:1009D0000370047801800278009003C0E88094E5F9
:1009E00082240CF58250020583E0640370E980E301
:1009F0009003A67404809B74F8121BCDE9FE90034B
:100A0000BE120F366003020AD990039FE0640460AF
:100A10000B9003BC120F366003020AD99003B8E0B2
:100A2000541F6009146030146020020AD99003BA80
:100A3000E064017022EE9003B1F060047905800259
:100A400079067A00121BCB020ADF9003BCE0547FC8
:100A5000FA9003BAE060057900020AE1EAC394065D
:100A60005077EA90620EF0749F2AF8E43403F9900C
:100A700003BCE05480602EEE600474108002744069
:100A8000906211F0EE60047B0380027B00EB8882B1
:100A90008983A3A3A3A3A3A3A3F0EE600479088092
:100AA0002F7907802BEE60047B2080027B80EB9007
:100AB0006214F0EE60047B0380027B00E8240CF5F6
:100AC00082E439F583EBF0EE6004790A800279095B
:100AD000121BCB90620EE480059003A67404F0799B
:100AE000017F01021D6C79001209F7E97003121BE6
:100AF000BA2279011209F7E97003121BC922C082D8
:100B0000C0839003BC120F367015A3120F36700FFE
:100B10009003BA120CD95480FAE9FBEA4B600790B3
:100B200003A67404801AE8906200F090039F6009A5
:100B3000E06402700C74038007E0640370037402C5
:100B4000F0020E6E74F5121BCD9003BAE0FAA3E02A
:100B50001460081460101460398057121754120C76
:100B6000B6A37B8080417900121776120CB67B8089
:100B7000E92402F9E43AFA121E6DFC1919E0FAA30D
:100B8000E92403F9E43AFA121E6DF9ECA3F0A3E9A3
:100B9000801CEAF91217E49003B3EAF0A3EBF0A388
:100BA000E4120CC5A37B00121E6DA3F0A3E4F002B7
:100BB0000C709003B3E4F0A3F0A3F0750B00900465
:100BC0007DE0FAA3E0FB020C4E850B08750900746A
:100BD000037808121F1CEA2508F8EB3509F9900381
:100BE000BA120CCFE493C0E0EFFCD0E06C705DA3D0
:100BF000E4936E70579003BC120CCFA3A3E493C090
:100C0000E0EFFCD0E06C704488828983A3A3A3E466
:100C1000936E703888828983A3A3A3A3E493F50815
:100C2000740193F5099003B3E508F0A3E509F0A377
:100C30007480F088828983A3A3A3A3A3A3E493F879
:100C4000740193F99003B6E8F0A3E9F0050B900462
:100C50007F120CD9C39AF508E99BF509740378084B
:100C6000121F4EC3E50B9508E495095003020BC90A
:100C70009003B3E0FCA3E0FDA3E0FEEC4D4E900337
:100C8000A6700474048029E0640460259003BEE02B
:100C9000FAA3E0FB9003B6E0F8A3E0F9C3EA98EB0F
:100CA0009950089003B6EAF0A3EBF09003A6740104
:100CB000F07F04021D6C9003B3EAF0A3EBF0A37481
:100CC00080120CC522F09003B3E0F9A3E0FA22E011
:100CD000FEA3E0FF8882898322E0F8A3E0F9E822FE
:100CE00074EE121BCDEA2404F8E43BF98808890964
:100CF0008882F583E4936025900481120CD9FEE983
:100D0000FF8007EE2404FE50010F8E828F83E49350
:100D1000F8740193F9EA687002EB6970E6750B00EC
:100D2000803F9062147490F07410120E3570037549
:100D30000A408E828F83A3A3A3E493550E6006E539
:100D40000AD2E0F50AE50A906215F0EA906213F023
:100D5000EC240CF582E43DF583E4F090620EF0059E
:100D60000B850882850983E493F8E50BC39840035B
:100D7000020E307A0079051216E78A0C8B0DEA45CF
:100D80000D60DCEA2402F8E4350DF9881089118839
:100D900082F583E493540FF51290620EF0750A0009
:100DA0008A828B83A3A3A3A3E4932407F50EA3E471
:100DB000933400F50F7403780E121F4EAA0EA8127A
:100DC000749F28F8E43403F9E8FCE9FD750E017519
:100DD0000F00E512780E121F1CE50EF50EE50C242F
:100DE00003F8E4350DF9851082851183E493A2E7B9
:100DF0004003020D229062117448F07408120E35FF
:100E00007003750A408E828F83A3A3E493550E600E
:100E100006E50AD2E0F50AE50A906212F0EA90626D
:100E200010F08C828D83A3A3A3A3A3A3A3020D59C7
:100E30007F0B021D6CF088828983E4935403640164
:100E400022C082C083120F337010A3120F36700AB3
:100E5000A3E064017002A3E060079003A67404801D
:100E60000C9003B374A0F0A37403120F8BF0D08323
:100E7000D0822274F3121BCD90039FE064026014B1
:100E80009003BC120F36700CA3120F36700690033D
:100E9000BBE060099003A67404F0020F2E7A00797B
:100EA00001121BCB9003BAE0606F7A00F91217763B
:100EB0008A0A8B0BEA450B605890039F7404F090EC
:100EC00003BAE09003A0F0750800850A82850B83C1
:100ED000A3A3A3A3E493F8E508C398504AA8087411
:100EE000A128F8E43403F9E8FEE9FF8E828F83E459
:100EF000F07A0079041216E78A828B83A3A3A3E415
:100F000093F88E828F83E06870E7120CE00508800A
:100F1000B99003A67404F0800E9003A0F090039F94
:100F20007403F0F91216677A007902121BCB7F0660
:100F3000021D6C9003BAE0F8A3E0F9E8492274F6C8
:100F4000121BCD90039FE0640470199003B8E06415
:100F5000817011120F33700C9003BEE064017002B7
:100F6000A3E060079003A67404801A9003BCE024F9
:100F7000A1F508A3E03403F5099003B3E508F0A355
:100F8000E509120F8BF07F03021D6CF0A3E4F0A3C0
:100F900004120F9522F0A3E4F09003A6042274F744
:100FA000121BCD90039FE0640470649003B8E0646A
:100FB00001705C9003BE120F3670549003BAE0FBD0
:100FC0009003BCE0FA9003A0E0F91217AE8A088BF8
:100FD00009AE08AF09EE4F60369003BCE0FA790322
:100FE000121BCB9003BAE0C0E09003BCE024A1F850
:100FF000A3E03403F988828983D0E0F0EEFAEFFBB6
:10100000120CE09003BCE0FA7904121BCB8006902E
:1010100003A67404F07F02021D6CC082C0838003AB
:10102000121A31A2E840F9A823E854046009782391
:10103000E654FBF612140EA823E854106009782336
:10104000E654EFF612142FA823E8A2E05005782307
:1010500054FCF690620EE0FA7404F0906214E0A280
:10106000E05039A9A8C2AF906216E0F8A3E0E8FB0F
:10107000E9A2E792AF8017906228E0C0E090039366
:10108000E0F812111CD0E0F0900393E004F0EBFDC7
:1010900074FF2DFB0470E0906214E4F0EA90620E9D
:1010A000F0E0FC7404F0906211E0A2E040319003A3
:1010B00095E0F8900394E06860257A4090039412DC
:1010C000115FE0906228F0900394E004F008900330
:1010D00095E06860041AEA70E39062117401F0EC24
:1010E00090620EF0D083D0822274F8121BCDE9FEFC
:1010F0007900801212111CE08A828B83F090039297
:10110000E00412115409900392E0F8900393E06810
:101110006005E9C39E40DD7F01021D6C748528F5E2
:1011200082E43404F58322C082C083E9FC80188AFB
:10113000828B83E0C0E090039512115FD0E0121122
:1011400054900395E004F0ECF874FF28FC0470DF81
:1011500079018090F08A828B83A3AA82AB8322E0FC
:10116000F8748528F582E43405F58322C082C083B3
:10117000900395E0F8900394E068600479018002A0
:1011800079000210E402101A74FB121EB67E009061
:1011900006857808121F6C794A1213BD9006857473
:1011A00001F0A3F0A37469F0A374A5F09003D778BD
:1011B00008121EE170047E0180159003DB7808128E
:1011C0001EE16008E59D541864107003022000EED3
:1011D000F9121334C280D291EEA2E050030212E75A
:1011E000AA18AB19120291E970030212E7C29185A5
:1011F0001882851983E0C3943C500EE0F8743CC318
:1012000098F50895E0F5098006750800750900E471
:10121000F50AF50B9003DF780C121F6C7808790C37
:10122000121AD1790612015112101A120176E9F838
:101230007409687007790612015180277407686085
:1012400016A2935012E8600874066860030212E761
:10125000A292400F0212E7750800750900750A0096
:10126000750B0085080C85090D850A0E850B0F90FE
:1012700003C27808121EF6E50C450D450E450F70A9
:10128000A7D2807907120151800312101A12116C33
:10129000E970F77E007F007401121F88E4F0A374E8
:1012A00026F0A3E4F0A3F07401121F887808121F3F
:1012B0006C85080C85090D850A0E850B0F9003C2FD
:1012C000780C121EF67401121F88780C121F5DE54F
:1012D000084509450A450B70CEA29250FCA29350D6
:1012E000F81213B8022000D280D291794E1213BDA9
:1012F000750800750900750A00750B007905120163
:101300005112101A120176E9F874096860EE74013E
:101310006870EE12101A9003E37808121EF690031C
:10132000E77808121DFA50EB1213B802200074057A
:10133000121E372274F8121BCDE9FE53BEFBE59D49
:10134000A2E650FA0078F8790100E824FF18E934A1
:10135000FFF9E84970F375C6807480659E70FA43A2
:10136000BE049062707408F01213ADEE700853F46E
:10137000FEC29043FE017403F5D575D4899003969F
:10138000E4F0A374C2F0A37401F0A3E4F0A3F0A30B
:10139000F0A37408F01213D37AFF7BFF1219EC53F9
:1013A000F4FED29043FE011213AD021117D2804316
:1013B000FD01C29143FE0222D280C29122781075B3
:1013C000B60FE5B4A2E750FAE5BBC39940F118E8BF
:1013D00070ED2274F7121BCD7A0079011217768A0C
:1013E000828B83A3A3A3A3A3A3A3E493A2E6900366
:1013F000B2500474018001E4F09003B1E4F0906213
:101400000F7403F0E0A2E750FB7F02021D6CC08264
:10141000C08390039F7402F0A3E4F09003A6F079D8
:1014200003121667752100752200D083D0822274C2
:10143000F6121BCD90620EE0FEE4F0906211E0FF28
:10144000A2E4501D7480F09003A67407F0E52145D6
:10145000226009852182852283121F979003A6E4CA
:10146000F0EFA2E2500B906211E4F09003A6F0803E
:10147000679003A6E0F87402687046906216E0FF79
:101480009003B3121DACEFF97A207B6212168174BF
:1014900003121E37EFF89003B612164512164F2F9F
:1014A000121657A3E0F8A3E0F9E8496004744080FD
:1014B000027448906211F0E849600302163B02167C
:1014C000177406687009852182852283121F979000
:1014D00003A6E060030215C2EFA2E0400302163B40
:1014E0007508B8750903750A007808121ECC7908CA
:1014F0007A207B621216817403121E3775210075E3
:1015000022009003B8E054E0601D24E0700302154F
:101510009D24E0607224C0604824E070030215A896
:1015200024E0606E0215B3A3E014602624FE601D63
:1015300024FE600A24FC601F24FE60208075120ACD
:10154000FE9003A6E06404707278608070120AF264
:1015500080EF120AE680EA120E7380E5120F9E8079
:10156000E0A3E0600E24FA600F24FE601024FE6009
:1015700011804012091980C9120B4480C4120E4117
:1015800080BF120F3E80BA7521B675221B121BB6A2
:1015900080AF7521B875221B121BB880A47521512C
:1015A00075221B121B51809975218175221B121BFC
:1015B00081808E9003A67404F0808E7840E890625B
:1015C00011F09003A6E0F874016870617F02900347
:1015D000B6E0F8A3E0F9C3E89420E994005007E8E6
:1015E000F5087F0A80037508209003B3121DACA98B
:1015F000087A207B621216AC7403121E37AC0812F4
:10160000164F2C121657A808A3121645EF90621118
:10161000F0E8C394205024E5214522600985218209
:10162000852283121F979003A6E4F0800E7405684C
:101630007009852182852283121F97EE90620EF039
:101640007F03021D6CC3E098F0A3E09400F02290A9
:1016500003B31216D9E922F9E43AFA9003B3E9F098
:10166000A3EAF0A3EBF022C082C083E99003A7783D
:1016700005F0A3D8FC9003AC7805F0A3D8FC0214C5
:101680002A74F8121BCDEAFCEBFDE9F87408121F6E
:10169000881216D460118C828D83E0121EA0E9247A
:1016A0000109E43AFAD8EF7F01021D6C74F8121BAD
:1016B000CDEAFCEBFDE9F87408121F881216D4601D
:1016C00011121E6D8C828D83F0E9240109E43AFA2F
:1016D000D8EF80D31216D9E822E0F9A3E0FAA3E00C
:1016E000FB22D083D08222C082C083E9FCEAFD7A4B
:1016F000007B00800312173290039DE0F8A3E0F90D
:1017000090047BE0687003A3E069602490039EE08E
:10171000F5838882A3E493F8EC68700D90039DE054
:10172000FAA3E0FB1217328007ED6870C8ED60C5C0
:1017300080B090039DE0F8A3E0F5838882E493F8FD
:1017400090039DE028F8A3E03400F990039DE8F0B1
:10175000A3E9F022C082C0831217657A00790112D2
:1017600016E70216E2900479E0F8A3E0F990039DF1
:10177000E8F0A3E9F02274F7121BCDE9FFEAFE12AC
:1017800017657A0079021216E7EA4B601CEF6010C9
:101790008A828B83A3A3A3A3A3E4936F70E480093D
:1017A000EEF874FF28FE0470D97F02021D6C74F5F8
:1017B000121BCDEAFF8B087A001217767A027904A1
:1017C0001216E7EA4B60188A828B83A3A3E4936F17
:1017D00070EA8A828B83A3A3A3E493650870DD7FFC
:1017E00004021D6C74F7121BCD74F0121EB6E97A58
:1017F000007B00600C146010146014146018021850
:10180000D47AF37B030218D47AF77B030218D47AD4
:101810001B7B040218D490043FE060030218D090B0
:1018200003EB7408121F377408121DD9750808F5E8
:10183000097808121ED07402121F377AE87B0779E4
:101840007F1218EB7402121E377808121ED0740A29
:10185000121F377402121F2F121C907402121E37AF
:101860008B09EA450970197509007808121ED07CA9
:101870000C7D787402121F2F121D267402121E375F
:101880007C287D00EDF8851882851983E58228F58E
:1018900082E43583F583E0FFECF8743F28F8E43404
:1018A00004F9EF1218DC88828983F0EFC41218DC87
:1018B000C0E0E824FEF582E934FFF583D0E0F00DC6
:1018C00074FC2CFCEDC3940840BA90043F742AF0D9
:1018D0007A3F7B047410121E370217A9540FFA7452
:1018E000692AF582E43404F583E02274F6121BCDF4
:1018F000890A740F550AF508750900740B780812E7
:101900001F1CEA2400F8EB3480F9E82400E93509CB
:10191000F985C709A2AFE433F508C2AFE50AC4549C
:101920000FFAE5C754F84AF5C7740A121F88E0FA9F
:10193000A3E0FB801C88828983E08C828D83F08801
:10194000828983A3A882A9838C828D83A3AC82AD74
:1019500083EAFEEBFFEE24FF1AEF34FFFBEE4F703D
:10196000D48509C7E508A2E092AF7F03021D6C741D
:10197000F7121BCDED900389F0ECA3F0A37462F095
:10198000A37473F0A3E0541FF07409121F88E0F5EC
:1019900008A3E0F509E508333354FC90038EF07496
:1019A000067808121F4EE50890038DF090038F749F
:1019B00012F0A37442F075D1FE75D601EA906271FF
:1019C000F0EBA3F0906270E0D2E1F0E0A2E740FB20
:1019D0007F02021D6CC082C083E9C333906272F043
:1019E000906270E0D2E0F0D083D0822274F7121BB4
:1019F000CD7523007524007525008A268B27EA9073
:101A0000620BF08A088B0974047808121F4EE508EF
:101A1000906207F08A088B0974097808121F4EE556
:101A200008543E906209F0758B00C2E87F02021DE7
:101A30006C74F7121BCDE59DA2E650FA906206E0A9
:101A4000F9A2E25034AA26EA90620BF0F508852745
:101A50000974047808121F4EE508906207F08A089E
:101A600085270974097808121F4EE508543E9062D4
:101A700009F0906201E0D2E0F0E9782346F6906246
:101A800002E0F50875090074047808121F1C782319
:101A9000E50846F608E50946F6906204E0F50875A3
:101AA000090074097808121F1C7824E50946F6E934
:101AB000A2E050037525017406596003752500E501
:101AC0008BA2E55006758BDF752500121BCC021A20
:101AD00027080808EAC0E0EBC0E086F0E7A4FA189F
:101AE0000986F0E7A42AFA180986F0E7A42AFA186A
:101AF0000986F0E7A42AFA1986F0E7A4FBE5F02AA4
:101B0000FA190886F0E7A42BFBE5F03AFA190886E3
:101B1000F0E7A42BFBE5F03AFA18180986F0E7A4E1
:101B2000C5F02BFBE43AFA1908E7C5F0C6A426F67F
:101B3000E5F03BFBE43AFA1886F0E7A4F6E5F00896
:101B400026F6E43B08F6E43A08F6D0E0FBD0E0FAEB
:101B500022C082C0839003B9E0F8742268700890B4
:101B600003A6E0701A80117420689003A6700DE03F
:101B7000700D121BA89003A6740280027404F080FA
:101B800043C082C0839003B9E064219003A6701320
:101B9000E07013121BA8A37407F0A3E4F09003A64F
:101BA0000480027404F0801C9003B37496F0A37454
:101BB00003F0A3E4F02280028000C082C08390037F
:101BC000A67404F0D083D0822280EF22222518C58B
:101BD00082C0E0E51934FFC583C0E0E518C39582F3
:101BE00024F910AF08858319858218800885831928
:101BF000858218D2AFCEF0A3E520F0A37808E608DE
:101C0000F0A3DEFAEFF0A3E58124FBF8E608F0A3E9
:101C1000E608F0A30808E608F0A3E608F0A315819B
:101C20001581D0E0FED0E0F815811581E8C0E0EE26
:101C3000C0E02212010002020000205104A816098F
:101C40000001020301090243000201008019090496
:101C50000000010202010005240010010424020218
:101C60000524060001052401000107058203400048
:101C70004009040100020A00000007058402400038
:101C800000070504024000004E1C0000711C00000B
:101C900074F8121BCD7408121F88E0FEA3E08015B3
:101CA000A3AA82AB838C828D83A3AC82AD83EE2406
:101CB000FF1EEF34FFFFEE4F60198C828D83E0F83A
:101CC0008A828B83E0F9E86960D6E9C398FA95E0E7
:101CD000FB80047A007B007F01021D6CE47921788F
:101CE00007B800028004F709D8FCE490030278C129
:101CF00079018002F0A3D8FCD9FA7AC27B03900064
:101D00008E78C479018015E493A3AD82AE838A8274
:101D10008B83F0A3AA82AB838D828E83D8E9D9E727
:101D2000121188121F9274F7121BCDEAF8EBF974A6
:101D300009121F88E0FEA3E0FF80188C828D83E0EB
:101D400088828983F0A3A882A9838C828D83A3AC27
:101D500082AD838E088F09E50824FF1EE50934FF54
:101D6000FFE508450970D47F02021D6C8519838543
:101D70001882E0A3FEE0A3F5207808E0A3F608DFD0
:101D8000FAE0A3FFE0A3C0E0E0A3C0E0E0A3C0E06E
:101D9000E0A3C0E010AF088582188583198008850C
:101DA0008218858319D2AFD083D082227403800039
:101DB000CCC0E0EDC0E0E518C39CCCAD1950011DCE
:101DC00010AF068C188D1980068C188D19D2AF12A1
:101DD0001DD9D0E0FDD0E0FC22CAC0E0E0A3C5825E
:101DE000CCC582C583CDC583F0A3C582CCC582C5D1
:101DF00083CDC583DAE6D0E0CA22C008C3E096F5F9
:101E00000808A3E096420808A3E096420808A3E069
:101E10009645087001D3D00822C5822518C582C511
:101E200083351910AF07F5198582188007F51985D4
:101E30008218D2AFC5832200C0D0251810AF08F594
:101E400018500C05198008F51850020519D2AFD0AA
:101E5000D0222518F58210AF08F518400C1519800E
:101E600008F51840021519D2AF85198322BB01026B
:101E7000E722C082C08389828A83BB0003E080029C
:101E8000E493D083D082226016080808C6C313C624
:101E900018C613C618C613C618C613C6D5E0EA225C
:101EA000BB000EC082C0838A838982F0D083D08237
:101EB00022BB0101F722251810AF08F518400C15B8
:101EC000198008F51840021519D2AF227403800456
:101ED00074028000C0E0F404121E52D0E0121F7B96
:101EE00022E066701008A3E066700A08A3E066703E
:101EF0000408A3E06622E026F608A3E036F608A36D
:101F0000E036F608A3E036F622E627F60809E637BB
:101F1000F60809E637F60809E637F622700422606B
:101F20000D18C6C333C608C633C6D5E0F41822253B
:101F300018FAE43519FB222518FCE43519FD227541
:101F4000D00075813F751802751903021CDC600C06
:101F500008C6C313C618C613C6D5E0F422E6F008B7
:101F6000A3E6F008A3E6F008A3E6F022E0F608A353
:101F7000E0F608A3E0F608A3E0F622CAC0E0E6F027
:101F8000A308DAFAD0E0FA222518F582E43519F52B
:101F9000832200000080FBE473FFFFFFFFFFFFFFD1
:101FA000FFFFFFFFFFFFFFFFFFFFFFFFFFFFFFFF41
:101FB000FFFFFFFFFFFFFFFFFFFFFFFFFFFFFFFF31
:101FC000FFFFFFFFFFFFFFFFFFFFFFFFFFFFFFFF21
:101FD000FFFFFFFFFFFFFFFFFFFFFFFFFFFFFFFF11
:101FE000FFFFFFFFFFFFFFFFFFFFFFFFFFFFFFFF01
:0A1FF600850609433886000000004C
:020000040003F7
:01FFF000F020
:020000040000FA
:10200000022DD0022232FFFFFFFFFFFFFFFFFFFF85
:10201000FFFFFFFFFFFFFFFFFFFFFFFFFFFFFFFFD0
:10202000FFFFFFFFFFFFFFFFFFFFFF022A54FFFF3D
:10203000FFFFFF022254FFFFFFFFFFFFFFFFFFFF35
:10204000FFFFFFFFFFFFFFFFFFFFFFFFFFFFFFFFA0
:10205000FFFFFF02216CFFFFFFFFFFFFFFFFFFFFFE
:10206000FFFFFFFFFFFFFFFFFFFFFF022A7DFFFFD4
:10207000FFFFFFFFFFFFFFFFFFFFFF0228A5FFFF9E
:10208000FFFFFF0221C301FFFFFFFFFFFFFFFFFF75
:1020900010201020010105030101FF0F10FEFF4E6B
:1020A0004E00000000844D00000000FF000000FF13
:1020B00000010020FD000200000F3F00000000A909
:1020C0003E933FDF3E513F0000D33E000000000042
:1020D0000000000000000000000000000000000000
:1020E00000000006FFFFFF00035F005F00300058A4
:1020F00000000000000000000000000000000000E0
:1021000000000000000000000000000000000000CF
:1021100000C4261927192719271927212701010487
:10212000008717000000E8030000FFFF561803E8CF
:1021300003000064006400B801A0BB0D00A0BB0D4B
:10214000000202000800000502070401051E020546
:102150001E020A0A01080803B80B02803E0102FEB3
:10216000FFE8030A050001FFFF0A01E0C0E074F286
:10217000122665A2AFE433F508D2AFAFA7AEA1EE49
:102180005F54106006123C2D75A1EFEE5F5408609D
:1021900008123C3375A1F78023EEA2E092F0EFA283
:1021A000E082F05017906198E0F8900778E0C398CB
:1021B000A2D265D0335002E8F075A1FE751A00E591
:1021C000088066C0E074F2122665A2AFE433FED246
:1021D000AF9061A4E0F8759B00E591585408600841
:1021E0007591F7123C7B8023E59158541060087577
:1021F00091EF123C818014E591A2E092F0E8A2E018
:1022000082F05007E0C2E0F0123DD79061A3E0F801
:10221000E5E9585404600E123DAD75E9FB906193F9
:10222000E0A2E640F2751A00EEA2E092AF7F010252
:102230002721C0E074F2122665A2AFE433FED2AFCC
:102240009061A5E0F8E5BF585404600675BFFB1225
:102250003DEF80D1C0E074F1122665E59DA2E65005
:10226000FA906206E0F9A2E25034AA2CEA90620BDE
:10227000F0F508852D0974047808122DEFE5089013
:102280006207F08A08852D0974097808122DEFE598
:1022900008543E906209F0906201E0D2E0F0E978E3
:1022A0002946F6906202E0F5087509007404780882
:1022B000122D207829E50846F608E50946F69062D1
:1022C00004E0F50875090074097808122D20782AB1
:1022D000E50946F6E9A2E05003752B017406596042
:1022E00003752B00E58BA2E55006758BDF752B007F
:1022F000124323758B00C2E87F02022721C3E498B2
:10230000F8E499F912233E8026C3E49AFAE49BFB91
:10231000E920E7E912233EE498F8E499F922C3E4BE
:1023200098F8E499F912233EE498F8E499F9C3E4A3
:102330009AFAE49BFB22EB20E7CFE920E7E0B90023
:1023400010BB0008E88AF084F8AAF022E4FBC8FA7F
:1023500022EB70227B10C833C8C933C9335007C37E
:102360009AC3DBF280069A50012ADBEAC833F4C82C
:10237000C933F4C9FA2275F008E4C833C8C933C9AF
:1023800033C99AC99B5004C92AC93BD5F0ECFBC894
:1023900033F4C8E4C9FA2274F51225FF74FA122C3A
:1023A000177508047509007808122BA17404122B04
:1023B000F77AF87B077903123B077402122B6390BC
:1023C000813A7808122DE07402122E6D7808122CD2
:1023D0006E70497508027509007808122BA1740205
:1023E000122BF77AF67B077903123B077402122B44
:1023F00063851882851983E0F47003A3E0F4601C00
:10240000851882851983E0F8A3E0F98882898374AE
:1024100002F0A3F0A37469F0A374A5F0C2AF75D65F
:102420009F0200007406122B637F040228E808084C
:1024300008EAC0E0EBC0E086F0E7A4FA180986F0ED
:10244000E7A42AFA180986F0E7A42AFA180986F000
:10245000E7A42AFA1986F0E7A4FBE5F02AFA19089E
:1024600086F0E7A42BFBE5F03AFA190886F0E7A41A
:102470002BFBE5F03AFA18180986F0E7A4C5F02B13
:10248000FBE43AFA1908E7C5F0C6A426F6E5F03BE6
:10249000FBE43AFA1886F0E7A4F6E5F00826F6E43D
:1024A0003B08F6E43A08F6D0E0FBD0E0FA22122E20
:1024B00062B9000302250EE47921780DB80002808C
:1024C00004F709D8FCE49004D178C379158002F0B0
:1024D000A3D8FCD9FA781A9020867A01BA00028033
:1024E00007E493A3F608DAF97A937B19902094789D
:1024F000D979018015E493A3AD82AE838A828B8360
:10250000F0A3AA82AB838D828E83D8E9D9E7758246
:10251000F57583BE7406122B4575828175834B74E5
:1025200000122B45E4CFC0E0E4CEC0E0E4CDC0E033
:10253000E4CCC0E075F020E626F608E633F608E6BF
:1025400033F608E633F6181818EC33FCED33FDEEDD
:1025500033FEEF33FFC3EC9709ED9709EE9709EFD0
:1025600097191919400FFFEC97FC09ED97FD09EE3B
:1025700097FE191906D5F0BFECF709EDF709EEF74C
:1025800009EFF7191919D0E0FCD0E0FDD0E0FED03A
:10259000E0FF222518C582C0E0E51934FFC583C0DD
:1025A000E0E518C3958224F810AF08858319858269
:1025B000188008858319858218D2AFCEF0A3E52054
:1025C000F0A37808E608F0A3DEFAEFF0A3E5812493
:1025D000FAF8E608F0A3E608F0A3E608F0A3080876
:1025E000E608F0A3E608F0A315811581D0E0FED03F
:1025F000E0F8158115811581E8C0E0EEC0E02225E4
:1026000018C582C0E0E51934FFC583C0E0E518C3F2
:10261000958224F910AF0885831985821880088572
:102620008319858218D2AFCEF0A3E520F0A37808F5
:10263000E608F0A3DEFAEFF0A3E58124FBF8E60854
:10264000F0A3E608F0A30808E608F0A3E608F0A364
:1026500015811581D0E0FED0E0F815811581E8C024
:10266000E0EEC0E022C0D02518C582C0E0E51934F4
:10267000FFC583C0E0E518C3958224F310AF088539
:1026800083198582188008858319858218D2AFC87E
:10269000F0A3E9F0A3EAF0A3EBF0A37908E709F0CF
:1026A000A3D8FAECF0A3EDF0A3EEF0A3EFF0A3D0E3
:1026B000E0F0A3D0E0F0A3D0E0F0A3E520F0A3E5A4
:1026C000F0F0A32212010002020000205104A8161B
:1026D00009000102030109024300020100801909F7
:1026E000040000010202010005240010010424027C
:1026F00002052406000105240100010705820340AC
:10270000004009040100020A00000007058402409D
:10271000000007050402400000DF26000002270039
:1027200000851983851882E0C0E0A3E0F9A3E0FAF0
:10273000A3E0FBA37808E0F608A3DFFAE0FCA3E03F
:10274000FDA3E0FEA3E0FFA3E0C0E0A3E0C0E0A3A0
:10275000E0F5D0A3E0F520A3E0A3F5F010AF0885E5
:1027600083198582188008858319858218D2AFD095
:1027700082D083D0E0F8D0E032E4731075F0108E90
:10278000218F22858226858325851882851983E0FD
:10279000CEA3E0CF852682852583EBC9EAC8EDCBA1
:1027A000ECCAC3E833C8E933C9EA33CAEB33CBC355
:1027B000EA9EF524EB9FF523B35004AB23AA24EC47
:1027C00033CCED33CDD5F0DAAE21AF2222D083D099
:1027D00082ECC0E0EDC0E0E493A3FCE493A3FDED44
:1027E0004C600D122928EC24FFFCED34FFFD80EF36
:1027F000E493A3FCE493A3FDED4C600D1229FFECE0
:1028000024FFFCED34FFFD80EFD0E0FDD0E0FCE4E0
:1028100093A3C0E0E493C0E022D083D082E9C0E07B
:10282000E493A3C386F0C5F095F0F908E493A3867A
:10283000F0C5F095F0700BE493A3C3994005E9044B
:102840008002A3E475F002A42582F582E5F03583C9
:10285000F583D0E0F9E493A3C0E0E493C0E02285DF
:102860001983851882E0A3FEE0A3F5207808E0A391
:10287000F608DFFAE0A3FFE0A3C0E0E0A3C0E0E0D9
:10288000A3C0E0E0A3C0E0E0A3C0E010AF088582F1
:10289000188583198008858218858319D2AFD08363
:1028A000D082022B4BC0E074F2122665A2AFE43353
:1028B000FED2AFE58AA2E25007900739E0D2E0F0FD
:1028C000E58AA2E35007900739E0D2E1F0758A006B
:1028D000C2EB7A107B00900735E0F91240C5EEA2FA
:1028E000E092AF7F01022721851983851882E0A33A
:1028F000FEE0A3F5207808E0A3F608DFFAE0A3FFE6
:10290000E0A3C0E0E0A3C0E0E0A3C0E0E0A3C0E03B
:1029100010AF088582188583198008858218858301
:1029200019D2AFD083D08222C0E0C3E4939608745A
:1029300001939618400FE49366700808740193663B
:102940001870007019A3A3C3E493960874019396BA
:1029500018A3A3400DD0E0D0E0D0E0022809A3A343
:10296000A3A3A3A3D0E022D083D082C5F0E493A395
:10297000C5F0C395F0F5F0E493A3C395F04005E5E9
:10298000F0048001E475F002A42582F582E5F035BB
:1029900083F583E493A3C0E0E493C0E02274048051
:1029A000087403800474028000CCC0E0EDC0E0E550
:1029B00018C39CCCAD1950011D10AF068C188D1991
:1029C00080068C188D19D2AF122AC7D0E0FDD0E056
:1029D000FC2274028000CCC0E0EDC0E0E518C39C8E
:1029E000CCAD1950011D10AF068C188D1980068CC6
:1029F000188D19D2AF122AA5D0E0FDD0E0FC22C07C
:102A0000E0C0F088F0E493667008087401936618DB
:102A10007000A8F0A3A3700BD0F0D0E0D0E0D0E01D
:102A2000022809A3A3D0F0D0E022D083D082CCC06A
:102A3000E0E493A36006122AE81470FAE493A3601A
:102A400006122C431470FAD0E0FCE493A3C0E0E437
:102A500093C0E022C0E0C0D0E8C0E0E9C0E0A9A88F
:102A6000D2AFC2C7751A00E9A2E7E433F8E9A2E7DA
:102A700092AFD0E0F9D0E0F8D0D0D0E032C0E0742E
:102A8000F2122665758900C2C590198BE0700E7A26
:102A9000007B1090080EE0F91240C580031249D166
:102AA0007F01022721CAC0E0E493A3C582CCC5827E
:102AB000C583CDC583F0A3C582CCC582C583CDC5F2
:102AC00083DAE5D0E0CA22CAC0E0E0A3C582CCC563
:102AD00082C583CDC583F0A3C582CCC582C583CD15
:102AE000C583DAE6D0E0CA22C0E0E493A3D39C50C9
:102AF00010E493A3C39C400AD0E0D0E0D0E0022AC7
:102B000047A3A3A3D0E022C008C3E096F50808A31A
:102B1000E096420808A3E096420808A3E09645081C
:102B20007001D3D00822700908080822601618180E
:102B300018C6C333C608C633C608C633C608C6336C
:102B4000C6D5E0EA22C09FF59FE473D09F22D083D0
:102B5000D082C09FE493C0E0740193C0E0740293FC
:102B6000F59F2200C0D0251810AF08F518500C05AD
:102B7000198008F51850020519D2AFD0D0222518B7
:102B8000F58210AF08F518400C15198008F51840AB
:102B9000021519D2AF851983227404800A74038048
:102BA00006740280027401C0E0F404122B7ED0E0AF
:102BB000122E0D22BB0102E722C082C08389828AC5
:102BC00083BB0003E08002E493D083D082226016AE
:102BD000080808C6C313C618C613C618C613C618F5
:102BE000C613C6D5E0EA222518F8E43519F92225DE
:102BF00018FAE43519FB222518FCE43519FD22C327
:102C0000E0C696F608A3E0C696F608A3E0C696F6D8
:102C100008A3E0C696F622251810AF08F518400C58
:102C200015198008F51840021519D2AF22BB000E05
:102C3000C082C0838A838982F0D083D08222BB0184
:102C400001F722C0E0E493A36C7009D0E0D0E0D09B
:102C5000E0022A47A3A3D0E022E76670100809E744
:102C600066700A0809E76670040809E76622E066EC
:102C7000701008A3E066700A08A3E066700408A359
:102C8000E06622C3E09608A3E09608A3E09608A3B6
:102C9000E096A2D265D03322C3E697F60809E697FC
:102CA000F60809E697F60809E697F622C3E4939634
:102CB00008740193960874029396087403939622FD
:102CC000C3E096F008A3E096F008A3E096F008A30E
:102CD000E096F022E026F008A3E036F008A3E03604
:102CE000F008A3E036F022E647F60809E647F608C2
:102CF00009E647F60809E647F622E493F608740168
:102D000093F608740293F608740393F622E056F6DD
:102D100008A3E056F608A3E056F608A3E056F6220C
:102D2000700422600D18C6C333C608C633C6D5E08A
:102D3000F41822E056F008A3E056F008A3E056F09D
:102D400008A3E056F022E627F60809E637F6080958
:102D5000E637F60809E637F622E026F608A3E0365D
:102D6000F608A3E036F608A3E036F622E657F608A2
:102D700009E657F60809E657F60809E657F622E489
:102D8000C396F608E496F608E496F608E496F6226A
:102D9000C3E09608A3E09608A3E09608A3E0962275
:102DA000C6F4C608C6F4C608C6F4C608C6F4C622E9
:102DB000600D08C6A2E713C618C613C6D5E0F322F5
:102DC000C3E7960809E7960809E7960809E79622F7
:102DD00075D00075813F7518D1751904000224AEB5
:102DE000E0F608A3E0F608A3E0F608A3E0F6226008
:102DF0000C08C6C313C618C613C6D5E0F422E6F005
:102E000008A3E6F008A3E6F008A3E6F022CAC0E0B3
:102E1000E6F0A308DAFAD0E0FA22E0F8A3E0F9A39A
:102E2000E0FAA3E0FB22E0FCA3E0FDA3E0FEA3E0C8
:102E3000FF22EAF0A3EBF0A3ECF0A3EDF022E0FA1E
:102E4000A3E0FBA3E0FCA3E0FD22ECF0A3EDF0A3E4
:102E5000EEF0A3EFF022E8F0A3E9F0A3EAF0A3EB91
:102E6000F022E5C754F84401F5C77901222518F589
:102E700082E43519F58322122B4EB4A602122B4E92
:102E80008EA802122B4E4BAC02122B4E5FAC0212DC
:102E90002B4E69AC02122B4E73AC02122B4E7DAC42
:102EA00002122B4E87AC02122B4EA0AC02122B4EFC
:102EB000AAAC02122B4E21AD02122B4E2CAD0212E7
:102EC0002B4E5BAD02122B4E83AD02122B4E8EADFC
:102ED00002122B4EF3AD02122B4EFDAD02122B4E01
:102EE00008AE02122B4E2CAE02122B4E50AE021226
:102EF0002B4EC2AE02122B4E0BAF02122B4E27AF3F
:102F000002122B4E98AF02122B4EE4AF02122B4E40
:102F10002DB002122B4E6BB002122B4EECB00212EF
:102F20002B4E93B102122B4E58B302122B4EBDB34F
:102F300002122B4EEBB402122B4E11B502122B4E85
:102F400059B602122B4E93B902122B4E91BB0212AC
:102F50002B4E5CBD02122B4EF5BD02122B4EF6BF5E
:102F600002122B4EABC002122B4EE4C002122B4EAB
:102F700054C102122B4E5EC102122B4E87C30212A5
:102F80002B4E8AC402122B4EC7C502122B4E1EC6F0
:102F900002122B4EC9C602122B4E79C802122B4EBA
:102FA000C6C902122B4EE6C902122B4E3BCA0212B0
:102FB0002B4E3CCB02122B4E64CB02122B4EC3CBBA
:102FC00002122B4EBBCC02122B4E32CD02122B4ED4
:102FD00045CE02122B4EB3CE02122B4EB2CF0212AE
:102FE0002B4E0CD202122B4E35D202122B4E9BD3FB
:102FF00002122B4E1DD502122B4E74D502122B4EEF
:1030000022D602122B4EC7D602122B4E2AD70212FC
:103010002B4EE8D702122B4E7AD802122B4ED9D85B
:1030200002122B4E1BD902122B4E4CD902122B4EE0
:10303000A3DA02122B4E008003122B4E32800312B1
:103040002B4E6B8003122B4E348203122B4E788250
:1030500003122B4E4E8303122B4EAD8303122B4EC5
:10306000C38403122B4E0F8503122B4E9D87031230
:103070002B4E818A03122B4EC88B03122B4E608C71
:1030800003122B4E6C8C03122B4EB58C03122B4E5D
:10309000F78D03122B4EED8E03122B4E178F03125A
:1030A0002B4E6D8F03122B4EC68F03122B4E399071
:1030B00003122B4E6F9203122B4EF19303122B4EE1
:1030C000DC9403122B4E269603122B4E5E980312AD
:1030D0002B4E5B9B03122B4E6A9B03122B4EFE9BC7
:1030E00003122B4EA99C03122B4EEC9C03122B4E69
:1030F000359D03122B4E859D03122B4EE99D031225
:103100002B4E5B9E03122B4E779E03122B4EA69ED8
:1031100003122B4EE59E03122B4EE09F03122B4E03
:103120008FA003122B4E0CA303122B4E3EA40312AE
:103130002B4E16A503122B4E98A503122B4ECDA98C
:1031400003122B4EFCA903122B4E57AA03122B4E2F
:103150008AAA03122B4E02AB03122B4E35AB03127D
:103160002B4E96AB03122B4EE6AB03122B4EB3AC99
:1031700003122B4E6CAD03122B4E30AE03122B4EAE
:10318000AAB003122B4E0CB203122B4E5DB30312E6
:103190002B4E81B403122B4E84B403122B4EB3B4C6
:1031A00003122B4EABB603122B4E6AB703122B4EF3
:1031B00099B703122B4EB7B803122B4E7FB90312E7
:1031C0002B4E40BB03122B4EB0BB03122B4EE2BB67
:1031D00003122B4E02BC03122B4E71BC03122B4E5A
:1031E0006ABD03122B4E8EBD03122B4E01BE03127D
:1031F0002B4E2AC003122B4E89C003122B4EDDC06A
:1032000003122B4E0CC303122B4EEFC303122B4E93
:1032100077C403122B4E5BC503122B4EE5C5031278
:103220002B4EF9C503122B4E0DC603122B4E21C691
:1032300003122B4E35C603122B4E62C603122B4EC1
:1032400092C603122B4E4DC803122B4E23C90312F4
:103250002B4EC7C903122B4E1CCA03122B4E7FCA1A
:1032600003122B4EC8CA03122B4EEFCA03122B4E69
:10327000B7CB03122B4E5DCC03122B4EE3CD0312C2
:103280002B4E6ECE03122B4EB5CE03122B4E27CFF4
:1032900003122B4E7CD003122B4E25D103122B4E42
:1032A00059D103122B4E71D103122B4E14D203129B
:1032B0002B4E90D403122B4E38D603122B4E56D6DB
:1032C00003122B4E74D603122B4E40D703122B4EF3
:1032D0008EDA03122B4EA78101122B4EE9810112C7
:1032E0002B4E568701122B4EA28701122B4EE887D8
:1032F00001122B4E398901122B4E9E8901122B4E41
:10330000E28901122B4E488B01122B4EA38E011223
:103310002B4ED68F01122B4E659B01122B4EF59B27
:1033200001122B4EDF9E01122B4E44A001122B4E98
:10333000A7A001122B4EC3A101122B4E2DA30112E7
:103340002B4E0CA401122B4E7AA601122B4E0CA868
:1033500001122B4E9DA801122B4EBCA901122B4E1F
:1033600049AA01122B4E53AA01122B4E7BAA01121D
:103370002B4E1EAB01122B4E09AC01122B4ED1ACC1
:1033800001122B4E5EAD01122B4E74AD01122B4E6D
:1033900091AD01122B4EBAAD01122B4EE7AD0112C9
:1033A0002B4E2BB001122B4EFEB001122B4E42B110
:1033B00001122B4EC4B101122B4E65B201122B4EDD
:1033C00097B201122B4EDEB201122B4E11B3011235
:1033D0002B4E55B301122B4EA4B301122B4EA9B3A1
:1033E00001122B4E05B401122B4E49B401122B4E83
:1033F00033B501122B4E98B501122B4EF6B50112C2
:103400002B4E75B601122B4EEDB901122B4EF0BAB0
:1034100001122B4E86BC01122B4EC9BF01122B4E3E
:103420006BC001122B4EB4C201122B4E6FC301129E
:103430002B4EAEC301122B4E72C501122B4E8FC5FF
:1034400001122B4E98C501122B4EA1C501122B4E15
:10345000ACC501122B4ECBC501122B4EEFC701128A
:103460002B4E4CC801122B4E56C801122B4E60C871
:1034700001122B4EC3C801122B4E1FC901122B4E35
:103480002CCA01122B4E8DCA01122B4E9ECB01125B
:103490002B4EE7CB01122B4EB1CC01122B4EC8CDD7
:1034A00001122B4E8CCE01122B4ED8CF01122B4E77
:1034B000DCD001122B4ED5D101122B4EEDD10112D1
:1034C0002B4E24D201122B4E2ED201122B4E38D26B
:1034D00001122B4E43D201122B4E61D201122B4E00
:1034E000A9D201122B4E07D301122B4E2ED301125B
:1034F0002B4E40D301122B4EE9D301122B4E22D476
:1035000001122B4E53D501122B4EB0D501122B4E6A
:10351000A1D601122B4ED7D601122B4E47D701123E
:103520002B4EC3D701122B4E44D901122B4E6BDA0E
:1035300001122B4E2DDB01122B4EFBDB01122B4E09
:1035400080DC01122B4E2FDD01122B4E17DE0112F3
:103550002B4EB0DE01122B4E8CDF01122B4EF4DF0E
:1035600001122B4EB3E001122B4E0FE101122B4E34
:1035700073E101122B4E39E201122B4E5CE2011273
:103580002B4E16E301122B4E38E301122B4E99E31A
:1035900001122B4EC9E501122B4EC2E601122B4E31
:1035A0006EE701122B4E8BE901122B4ED4E901126A
:1035B0002B4E1FEA01122B4E7BEA01122B4ED9EA49
:1035C00001122B4EFDEA01122B4E21EB01122B4E64
:1035D00056EB01122B4E7EEB01122B4EC3EB011268
:1035E0002B4E21EC01122B4E7AEC01122B4E74ED76
:1035F00001122B4E20EF01122B4E65EF01122B4EC4
:103600008EEF01122B4E17F001122B4E8AF0011291
:103610002B4E98F001122B4EBCF001122B4E12F1E2
:1036200001122B4E2DF101122B4EE8F101122B4EFF
:1036300014F201122B4E57F201122B4EBAF2011264
:103640002B4ECAF401122B4EF6F401122B4EB1F59B
:1036500001122B4E95F601122B4E29F701122B4E1B
:1036600037C705122B4E6FC705122B4E90C7051298
:103670002B4ED2C705122B4E36C805122B4E40C812
:1036800005122B4E50C805122B4E87C805122B4E23
:1036900030CC05122B4EF8CD05122B4EDCCF051287
:1036A0002B4E7ED005122B4E08D105122B4E50808A
:1036B00004122B4EF98004122B4ED88104122B4E8B
:1036C000E48204122B4E048304122B4E268404122F
:1036D0002B4ED68504122B4E438604122B4E148794
:1036E00004122B4E1A8804122B4E928804122B4E71
:1036F000CD8804122B4E268904122B4E61890412A8
:103700002B4EAA8904122B4E3E8A04122B4ED48AC9
:1037100004122B4EA98B04122B4E7C8C04122B4EC0
:103720000A8D04122B4E308D04122B4E5D8D041227
:103730002B4E8E8D04122B4E5B8E04122B4E6B8EF5
:1037400004122B4EBE8E04122B4ECB8E04122B4E27
:10375000D88E04122B4EE18E04122B4E458F04128C
:103760002B4EA38F04122B4EEE8F04122B4E09907A
:1037700004122B4E309004122B4E4D9004122B4EFF
:10378000599004122B4EEA9104122B4E039204120C
:103790002B4E7F9204122B4E929204122B4EA29229
:1037A00004122B4E469304122B4EB29404122B4E4D
:1037B000C59504122B4E659604122B4E6F9604127B
:1037C0002B4EEE9604122B4EFF9604122B4E3E9774
:1037D00004122B4E6C9704122B4E399804122B4E68
:1037E000909804122B4EC99804122B4E1F99041264
:1037F0002B4E3D9904122B4E8B9904122B4E569A48
:1038000004122B4EA49A04122B4EF19A04122B4E42
:10381000749B04122B4E9E9B04122B4ED49B0412BD
:103820002B4EE39B04122B4E429C04122B4EBA9C4F
:1038300004122B4EFB9C04122B4E4B9D04122B4E5C
:10384000769D04122B4E909D04122B4EAA9D0412BD
:103850002B4E7F9E04122B4E899E04122B4EC49E2B
:1038600004122B4ED49E04122B4EDD9E04122B4EBE
:103870002E9F04122B4E429F04122B4E64A0041262
:103880002B4E77A004122B4E8EA004122B4EA3A019
:1038900004122B4E36A104122B4EAAA104122B4E59
:1038A0004FA204122B4E5AA204122B4EBDA3041297
:1038B0002B4ED9A304122B4E25A404122B4E93A4F5
:1038C00004122B4EC5A404122B4EDFA404122B4E5F
:1038D0003FA504122B4EDEA504122B4E29A604127E
:1038E0002B4E7CA804122B4E14A904122B4E8BA92C
:1038F00004122B4EE8AB04122B4E00AC04122B4EDC
:1039000003AC04122B4E0FAC04122B4E23AC04124A
:103910002B4E2BAC04122B4E62AC04122B4E56AD28
:1039200004122B4EE0AD04122B4E62AE04122B4E4D
:10393000E2AE04122B4EB9AF04122B4EDBAF0412D1
:103940002B4E74B004122B4ED1B004122B4ED4B0B7
:1039500004122B4E01B104122B4E16B104122B4E41
:1039600085B104122B4ED1B204122B4EE4B30412D3
:103970002B4E6FB404122B4E82B504122B4E49B657
:1039800004122B4E7AB604122B4EA0B604122B4E04
:10399000A9B604122B4ED8B604122B4E88B70412C7
:1039A0002B4E38B804122B4EABB804122B4E4EB926
:1039B00004122B4EC1B904122B4E00BA04122B4E26
:1039C00049BA04122B4E7EBA04122B4E48AF051290
:1039D0002B4EB5AF05122B4EFCAF05122B4E72B01D
:1039E00005122B4EC4B005122B4E4AB105122B4EB8
:1039F0008EB305122B4EBDB505122B4E9AB905128A
:103A00002B4E1ABA05122B4E55BA05122B4E73BA0D
:103A100005122B4ED3BA05122B4EFBBA05122B4EB4
:103A20002BBB05122B4E5CBB05122B4E89BB05121E
:103A30002B4EE2BB05122B4E2DBC05122B4EE7F28E
:103A400004122B4E63F304122B4E8FF304122B4EF1
:103A5000C1F304122B4E23F504122B4E3FF5041232
:103A60002B4E7DF504122B4E0AF604122B4E66F6F1
:103A700004122B4E2CF704122B4EEBF704122B4E94
:103A800030F804122B4E91F804122B4E06F9041252
:103A90002B4E40F904122B4E98F904122B4EBAF912
:103AA00004122B4E52FA04122B4EF9FA04122B4E2A
:103AB00046FB04122B4E6FFB04122B4EB0FB04127C
:103AC0002B4E5DFD04122B4E41FE04122B4EF2FED6
:103AD00004122B4ECDCC06122B4EDECC06122B4EF2
:103AE0007CCD06122B4EEB7F00122B4EEDFF011208
:103AF0002B4EE4CB06122B4EF4CB06122B4E0CCCE5
:103B000006122B4EC0CC06122B4EEEC906122B4EBF
:103B100072CA06122B4ED8CA06122B4E4ACE061275
:103B20002B4E4DCE06122B4E86CE06122B4EDCCEE1
:103B300006122B4EEFCE06122B4EF2CE06122B4E55
:103B400060A106122B4E6EA106122B4EE7A10612A3
:103B50002B4EBCA206122B4E7BA406122B4EE0A4C9
:103B600006122B4E3FA506122B4EF87F00122B4E4D
:103B7000E8BC06122B4E20BD06122B4E6EBE06125E
:103B80002B4EF2BE06122B4E81B506122B4E22B6DC
:103B900006122B4E5BB606122B4EA6B606122B4E05
:103BA0006FB706122B4E99B706122B4EBFB70612EF
:103BB0002B4ED3B706122B4EE8B706122B4EF1B799
:103BC00006122B4EC4F805122B4EF0F805122B4EA0
:103BD00096FB05122B4EEDFB05122B4E29FC051210
:103BE0002B4E3DFC05122B4E56FC05122B4E47FD6D
:103BF00005122B4E23FE05122B4E37FE05122B4EBF
:103C0000EBC006122B4E0FC106122B4E28C1061216
:103C10002B4E66C106122B4E9CC106122B4ECFC1F5
:103C200006122B4E529E02122B4E45C206122B4EEE
:103C300048C206122B4E52C206122B4E5FC206120B
:103C40002B4ED5B206122B4EF8B206122B4E43B3B2
:103C500006122B4E61B306122B4E7CB306122B4E6E
:103C6000E2B306122B4EEEB306122B4E4BB40612E5
:103C70002B4E6FB406122B4E35B506122B4E42B5A5
:103C800006122B4E53B506122B4EE6D006122B4EC3
:103C900078A602122B4E2AD106122B4E978A0612B4
:103CA0002B4EFB8B06122B4E098C06122B4E1D8CB5
:103CB00006122B4E3A8C06122B4E4F8C06122B4EB0
:103CC000628C06122B4EE48C06122B4E4A8D061285
:103CD0002B4ED38D06122B4E4B8E06122B4E248F5D
:103CE00006122B4E348F06122B4E438F06122B4E8C
:103CF000AFCF06122B4ED3CF06122B4EFBCF0612A0
:103D00002B4E23D006122B4E21B806122B4E48B84C
:103D100006122B4E67B806122B4EDCB806122B4E3D
:103D200002B006122B4E1BB006122B4E32B00612FA
:103D30002B4E3BB006122B4E59B006122B4E63B0E1
:103D400006122B4E6DB006122B4E80B006122B4E73
:103D50000DB106122B4E7CB106122B4EAAB10612E3
:103D60002B4EFBB106122B4E47B206122B4E62B2FF
:103D700006122B4E6CB206122B4E7DB206122B4E43
:103D8000C0B206122B4EF3D106122B4E3ED20612B3
:103D90002B4EB7D105122B4EE3D105122B4E06D276
:103DA00005122B4E19D205122B4E34D205122B4E72
:103DB00098D205122B4EC6D205122B4ED3D6051221
:103DC0002B4E15D805122B4E47D805122B4EB2D8C4
:103DD00005122B4E36DA05122B4E5EDA05122B4EEB
:103DE00073DA05122B4E83DA05122B4EC3DA051255
:103DF0002B4E05DB05122B4E15DB05122B4E32C563
:103E000006122B4E42C506122B4E66C506122B4ECD
:103E10008FC506122B4EB9C506122B4EDDC50612F4
:103E20002B4EF4C506122B4E22C606122B4E45C64B
:103E300006122B4E96CD06122B4EDCCD06122B4EC3
:103E400045A906122B4E55A906122B4E73AA06122F
:103E50002B4EA7AA06122B4EC9AA06122B4EF1AA68
:103E600006122B4E0AAB06122B4E46AB06122B4EF9
:103E7000ACAB06122B4EF1AB06122B4E36AC061233
:103E80002B4E63AC06122B4E9BAC06122B4E659D3F
:103E900006122B4EC79D06122B4E6E9E06122B4EFF
:103EA000A69E06122B4E23A205122B4ED2A205125D
:103EB0002B4E06A505122B4ED9A705122B4E59A93C
:103EC00005122B4EBBA905122B4EC6AC05122B4E6C
:103ED0000AAE05122B4E7DC606122B4EC8C6061220
:103EE0002B4E288506122B4EE78706122B4E848810
:103EF00006122B4EB08806122B4EDE8806122B4E71
:103F0000138906122B4E3B8906122B4E9B890612F3
:103F10002B4E64BC05122B4E5CC005122B4E53C2B7
:103F200005122B4E81C305122B4E5DC405122B4E7C
:103F3000F8C505122B4EC5C605122B4E19C7051222
:103F40002B4E98FD02122B4EA2FD02122B4EC3FDEA
:103F500002122B4E129405122B4E369905122B4E3F
:103F6000659A05122B4E419C05122B4ECC9C0512D6
:103F70002B4E609D05122B4E599E05122B4E909F85
:103F800005122B4E9DA005122B4E82A105122B4E21
:103F9000E9BA04122B4E21BB04122B4E7EC504122B
:103FA0002B4E68C604122B4EB8C704122B4E03C901
:103FB00004122B4EAEC904122B4E81CA04122B4E92
:103FC00018CB04122B4EFCCB04122B4EFFCC041248
:103FD0002B4EC1CD04122B4EEFCD04122B4E67CFCA
:103FE00004122B4EF0CF04122B4E09D004122B4E8C
:103FF00063D104122B4E15D204122B4EA4D20412FC
:104000002B4E53D304122B4EB6D304122B4E52D444
:1040100004122B4ECBD404122B4EE9D404122B4E97
:10402000B6D504122B4E85D604122B4E3BD7041264
:104030002B4E69C206122B4E93C206122B4EA7C3FB
:1040400006122B4EAAC306122B4E48D006122B4E38
:104050008AD006122B4ECCD006122B4EDCD0061284
:104060002B4E3EF205122B4E85F205122B4EEEF230
:1040700005122B4E0FF305122B4E28F305122B4E73
:10408000D8F305122B4EE1F305122B4E32F4051234
:104090002B4E68F405122B4E7FF405122B4EECF4D8
:1040A00005122B4E7CF505122B4EB2F505122B4E48
:1040B000FBF505122B4E5CF605122B4E96F60512FB
:1040C0002B4EFEF605122B4E51F705122B4E94F790
:1040D00005122B4ED1F705122B4EE3F705122B4E8E
:1040E000F5F705122B4E2FF805122B4E6FF805121F
:1040F0002B4E98F805122B4E748F06122B4EBA9049
:1041000006122B4EE39006122B4EF49006122B4E05
:104110000C9306122B4E2C9306122B4EA6BA0612A7
:104120002B4EDABA06122B4E29BB06122B4E85BC3B
:1041300006122B4E008005122B4E3E8105122B4E8F
:104140007A8105122B4E3F8305122B4E698305128F
:104150002B4EEF8505122B4E2F8605122B4EC58751
:1041600005122B4E5A8805122B4EB88805122B4E7D
:104170003E8905122B4E768905122B4EB889051201
:104180002B4E258B05122B4EA98C05122B4EE38E40
:1041900005122B4E118F05122B4E3D8F05122B4E03
:1041A000468F05122B4E9C8F05122B4E2C9005121C
:1041B0002B4E339305122B4EB59305122B4EFBCE8F
:1041C00006122B4E11CF06122B4E1BCF06122B4E72
:1041D00077CF06122B4E92FB03122B4EABFB031232
:1041E0002B4E50FC03122B4E90FC03122B4EA9FCBD
:1041F00003122B4EDCFC03122B4E29FD03122B4E17
:104200005DFD03122B4E9FFD03122B4E78FF031210
:104210002B4EE3FF03122B4EB1C706122B4E06C8DE
:1042200006122B4E60C806122B4EDBC806122B4E10
:104230004DC906122B4E8BC906122B4ECCC9061245
:104240002B4EEAF701122B4EF0F701122B4E37F8E6
:1042500001122B4E43FA01122B4E73FA01122B4E10
:10426000DDFA01122B4E98FB01122B4EDBFB0112E3
:104270002B4E0CFC01122B4E96FC01122B4EADFC6A
:1042800001122B4EBAFC01122B4EC4FC01122B4E14
:1042900064FE01122B4E56FF01122B4EB4FF011289
:1042A0002B4E45DB05122B4E5BDB05122B4E0DDC36
:1042B00005122B4E37DD05122B4E2CDE05122B4E30
:1042C000C3DE05122B4EFEDE05122B4E70DF0512EB
:1042D0002B4ECEDF05122B4EDEDF05122B4E05E0F6
:1042E00005122B4E57E005122B4EC3E105122B4E43
:1042F000C8E105122B4EEAE105122B4E6BD10612D6
:104300002B4E99D106122B4ECED106122B4ED0D168
:1043100006122B4ED2D106122B4EE3D106122B4E93
:10432000E5D106122B4EE8D106122B4E52FE051295
:104330002B4EC0FE05122B4EE2FE05122B4E1AFF2D
:1043400005122B4E50FF05122B4EEFAC06122B4ED2
:1043500031AD06122B4E54AD06122B4E87AF06120E
:104360002B4EA1AF06122B4ECCAF06122B4E4AD2CB
:1043700006122B4EBFE305122B4E9DE405122B4E69
:1043800083E505122B4E94E505122B4EA5E505128B
:104390002B4EF1E505122B4EE2E705122B4E37E9C5
:1043A00005122B4E67E905122B4E2BEA05122B4EF8
:1043B00089EA05122B4EFFDA02122B4E5ADB02124B
:1043C0002B4EFADB02122B4E77DD02122B4E63DEF0
:1043D00002122B4E20DF02122B4E37DF02122B4E21
:1043E00086DF02122B4EFADF02122B4E55E002122C
:1043F0002B4E68E002122B4ECCE002122B4E3BE11A
:1044000002122B4E53E102122B4E02E402122B4EEB
:1044100007E502122B4E62E502122B4EB6E50212A0
:104420002B4E6AE802122B4EBAE802122B4E3BE9E1
:1044300002122B4E7DE902122B4E57EA02122B4E2E
:1044400090EA02122B4EAFEA02122B4EFAEA021247
:104450002B4E1AEB02122B4ED5EB02122B4EBCEC5C
:1044600002122B4EC7EC02122B4E15ED02122B4EF0
:104470006AED02122B4EB6ED02122B4E11EF021214
:104480002B4E44EF02122B4EDCF102122B4E0FF298
:1044900002122B4E23F302122B4E52F302122B4E1A
:1044A000CAF302122B4EA5F402122B4EE7F40212AD
:1044B0002B4E5BF502122B4E75F602122B4EC2F6F6
:1044C00002122B4ECCF602122B4ECFF602122B4EBE
:1044D000D9F602122B4EF5F602122B4E6DF7021290
:1044E0002B4EA6F702122B4EC2F702122B4EEEF7FE
:1044F00002122B4E15F802122B4E39F802122B4ED7
:10450000B2F802122B4E25F902122B4E68F9021254
:104510002B4E72F902122B4EA1F902122B4EB7F953
:1045200002122B4ED3F902122B4E02FA02122B4E1C
:1045300022FA02122B4E6BFA02122B4EA6FA02122C
:104540002B4EB2FB02122B4E15FD02122B4E34FDE8
:1045500002122B4E4BFD02122B4E5DFD02122B4E12
:10456000F1CA06122B4E02CB06122B4E8BCB061233
:104570002B4E008006122B4E3E8006122B4ED7800B
:1045800006122B4EE28106122B4E2A8406122B4E67
:10459000A78406122B4E05EB05122B4E54EB051289
:1045A0002B4E12ED05122B4EE6EE05122B4E24EF8C
:1045B00005122B4E05F005122B4E0FF105122B4E56
:1045C00031F105122B4E8DF105122B4E0EF2051214
:1045D0002B4E6B5100122B4E8D5100122B4EFC5264
:1045E00000122B4E455300122B4EB65300122B4E89
:1045F000395400122B4EB05400122B4EF7540012B7
:104600002B4E6E5500122B4E125600122B4E875613
:1046100000122B4EC45600122B4E0C5B00122B4E78
:104620002F5D00122B4E685D00122B4EA75D00120D
:104630002B4EA36000122B4E336100122B4EE7620B
:1046400000122B4E216400122B4E416500122B4E9E
:10465000B26500122B4E936600122B4E16670012A5
:104660002B4E2A6700122B4EF96700122B4E306931
:1046700000122B4E5F6B00122B4E6E6D00122B4EF4
:104680005A6E00122B4EF17000122B4EC6710012A2
:104690002B4E057300122B4E357600122B4E4576AD
:1046A00000122B4E7B7700122B4E147800122B4EEB
:1046B000457900122B4EB37900122B4EEC7A001282
:1046C0002B4E277B00122B4ED07B00122B4E00D896
:1046D00004122B4EA2D804122B4E0ED904122B4ECC
:1046E00028D904122B4EAAD904122B4EE4D9041255
:1046F0002B4EE6DA04122B4E28DB04122B4E9ADBEB
:1047000004122B4EEADB04122B4E49DC04122B4E12
:10471000F5DC04122B4EDFDF04122B4EA6E0041250
:104720002B4E0CE104122B4EB4E204122B4E4DE33F
:1047300004122B4EE6E304122B4E49E404122B4ED6
:10474000BFE404122B4EC0E504122B4EB1E6041256
:104750002B4EECE604122B4E03E704122B4EE1E73E
:1047600004122B4E1FE804122B4EA7E804122B4E06
:10477000F4E904122B4EB8EB04122B4EF6EC0412A3
:104780002B4E29EE04122B4E3DEF04122B4ED4EF8C
:1047900004122B4E43F004122B4E50F104122B4EF8
:1047A000ACDA03122B4E15DB03122B4E5DDB03122A
:1047B0002B4EA1DB03122B4E14DC03122B4E6EDCAE
:1047C00003122B4EA9DC03122B4E43DD03122B4E9A
:1047D0009DDD03122B4E09DF03122B4E82DF0312E5
:1047E0002B4EACDF03122B4EC0E003122B4ED4E154
:1047F00003122B4EFCE103122B4EFAE203122B4E56
:104800000BE303122B4E23E303122B4E29E4031276
:104810002B4E4CE403122B4E1BE503122B4E45E5A9
:1048200003122B4E5CE503122B4E82E503122B4E36
:10483000C1E503122B4EE1E503122B4E08E60312ED
:104840002B4E20E603122B4EFAE603122B4E54E7B2
:1048500003122B4EC4E803122B4E42E903122B4ED7
:1048600066E903122B4E7DE903122B4E51EA031227
:104870002B4EEAEA03122B4E10EB03122B4E60EC88
:1048800003122B4E7FEC03122B4EFEEC03122B4E29
:1048900035ED03122B4E73ED03122B4E09EE03126E
:1048A0002B4E7EEE03122B4E62EF03122B4E40F185
:1048B00003122B4E15F203122B4E61F203122B4EF4
:1048C00092F303122B4E02F503122B4E61F60312E4
:1048D0002B4E6FF603122B4E6BF703122B4E12F872
:1048E00003122B4E58F803122B4E6DF803122B4E69
:1048F0007CF903122B4E95FA03122B4EF1FA031298
:104900002B4E53A506122B4E0EA706122B4ED6A7E2
:1049100006122B4E2BA806122B4EB1A806122B4EB8
:104920004A9906122B4E689906122B4EAC99061224
:104930002B4ED29906122B4EF99906122B4E119A34
:1049400006122B4E299A06122B4E419A06122B4E16
:10495000E79A06122B4E299B06122B4E3E9B0612FF
:104960002B4E459C06122B4E609C06122B4E699CCA
:1049700006122B4E729C06122B4E7B9C06122B4E5F
:10498000859C06122B4E029D06122B4E8094061219
:104990002B4EC29806122B4EDE9806122B4EE39831
:1049A00006122B4E71BF06122B4E807C00122B4E2E
:1049B000967C00122B4E177E00122B4E417E001269
:1049C0002B4E877E00122B4E907F00122B4ED7C3AA
:1049D00006122B4EB8D206122B4EBF7F00122B4E62
:1049E000369E02122B4E189E02122B4E009D021272
:1049F0002B4EDB9C02122B4EEB9B02122B4E779B15
:104A000002122B4EE09A02122B4E6E9A02122B4E7D
:104A10005D9A02122B4E389A02122B4E54990212B2
:104A20002B4E709802122B4E869502122B4E4394F9
:104A300002122B4EAA9102122B4E659102122B4E9E
:104A40000B9102122B4E6C9002122B4E17900212F9
:104A50002B4E448F02122B4E7E8E02122B4E428E14
:104A600002122B4ED58D02122B4ECD8D02122B4EE3
:104A7000428D02122B4ED28C02122B4E47A50212EF
:104A80002B4E238C02122B4EC8A402122B4E8DA348
:104A900002122B4E7DA302122B4E51A202122B4E5C
:104AA0006FA002122B4E66A002122B4E59A00212CA
:104AB0002B4E5C9F02122B4E188C02122B4E098C2F
:104AC00002122B4EE88B02122B4EB48B02122B4E8D
:104AD000D49E02122B4E888B02122B4E5A8A02123F
:104AE0002B4E4E8802122B4E1F8802122B4EFED0E8
:104AF00006122B4E038802122B4EC59E02122B4E1D
:104B0000AD8702122B4E748702122B4EEC860212D6
:104B10002B4EA08602122B4E598602122B4E8C85EC
:104B200002122B4E108502122B4E688402122B4E5D
:104B3000C18302122B4E638302122B4E3883021262
:104B40002B4EE98202122B4EAB8202122B4E89822F
:104B500002122B4E668202122B4E4D8202122B4EF7
:104B6000058202122B4E008002122B4E4F81021240
:104B70002B4EC38002122B4E578002122B4ED9C1EE
:104B80000600000080FB8F0001007E1987000100F5
:104B90007D19350004002E1A25000200321A260065
:104BA0000200341A27000200361A28000100401AB9
:104BB00029000100411A84000400421A8600010005
:104BC000461A2A000100471A2B000100481A2C003F
:104BD00001004C1A2D0008005F192E0001004D1A2B
:104BE0002F0001004E1A300001004F1A3100010061
:104BF000501A3200010067193300010068193400AF
:104C00000100511A36000100691938000100521ADA
:104C1000390001004B1A83000200661A630001008C
:104C20007A1964000100491A650001004A1A6D00F2
:104C300001007B1971000800571966000100651A10
:104C400043000100561A44000200571A45000100B3
:104C5000591A460002005A1A470008007219480003
:104C600001005C1A4B0001005D1A04000100681A83
:104C7000A10001006A1A37000100691A88000100CA
:104C80007F193C0001006A193D000100531A4900D8
:104C900002005E1A670001007C194D000200601AD4
:104CA0004E000100621A4F000200631A3E0001002C
:104CB0007119510001006B1952000100541A530080
:104CC0000100551A540001006C190000000000009A
:104CD000000136360101000102010001030100015B
:104CE0000401060605020000070100340801000F58
:104CF000090401010D0100FF0E0800001702000069
:104D0000190100FF1A0100011B0100FE1C0100082F
:104D10001D0200001F01000120010001210200000E
:104D20002301000F240200002601000127010008D2
:104D3000280200FF2A0100072B0102402C0100007D
:104D40002D0100012E0100012F0100FF30010B1D7C
:104D5000310800003A0100083B01000F3C0100014E
:104D60003D0100FF3E040000420400004604000034
:104D70004A0400004E0400005204000056040000E3
:104D80005A0400000103710301030103010301033D
:104D900001032203020301031003000300030003C5
:104DA000000300030003000342030003240306037F
:104DB0000003000304031203250323032503230335
:104DC000040304030003000300034403000300037F
:104DD000230300036503210035038103000305035A
:104DE00000030003000300032503230303047104ED
:104DF00002046004110470040204020401040204A9
:104E00001004610400041404630473047204620453
:104E10004304000413040604000400040404120400
:104E200000040004000400045104640000040004B1
:104E300000044404000400040004000465040004A9
:104E400035048104640005040004830400040300A5
:104E50007100300160001100700031022003500425
:104E600080001000610000001400630073007200F5
:104E70006200430000001300060000000000040070
:104E800012000000000000000000040004003700D1
:104E900037003C02440000000000000000006500F4
:104EA00000003500810000000500000083000000C4
:104EB0000101710101010101110101013101010132
:104EC00001018001100161013B00140063017301C5
:104ED0007201620143010001130106013D01350029
:104EE000040112010001000100010001040104019C
:104EF000330133013C01440132013600000100015D
:104F00006501000135008101000105018201830175
:104F100000010302710230016002110270020102FD
:104F2000020202028002100261023A0041006302A2
:104F3000730272026202430200021302380000028E
:104F40000002040212020002000200020002040237
:104F50000402370037003C0244020002390000021C
:104F6000000265020002350281020002050282028F
:104F70008302000236000100060000000F0000005E
:104F80000000000000000000000003FFFF0000041C
:104F900003FFFF0000FFFF0FF4010005C40403201E
:104FA000000100000B000000000000000003010FE2
:104FB00000000000000000000000000000000000F1
:104FC00000000000000000000000000000000000E1
:104FD000000000000D4713006B461F0071461F8044
:104FE000774601000D470200F3450300F945040030
:104FF000FF45050005460600114630002F463100EA
:10500000294632003B4633004146350047463400CE
:105010004D463600534611005F46140065461500A4
:105020002346FFFF00000A00000002000000040009
:1050300000000800000010000000200000004000F8
:1050400000008000000000010000000200000004D9
:1050500000000008000000100000002000000040D8
:105060000000011B33065133084B330B693310E545
:105070002F0A7B33022133053F330727330C0333D9
:105080000D0F3364434AFF000007ECFDFDFDECDC2F
:10509000DCCCBCACAC9C9C8C7C7C6C6C5C5C5C4C60
:1050A0004C3C3C2C2C1C1C03EAF5E5D5D5C5B5A51C
:1050B0009595858575756565555545453535252520
:1050C00015150500160F00000B150B020002220F2C
:1050D0003300000E5A6967426565416C6C69616E08
:1050E0006365303901030507090B0D0F0002040643
:1050F000080A0C0D00034A49434E181A2505020000
:10510000011916181616182303000C0E020B040BB7
:105110000A0708000F303016181920231A1C1E30F9
:1051200000393D3F373C3C362C442D3030171819A0
:1051300021301B1D1F30020402010101010902E898
:1051400003000000BE040A000000007F00E8030E18
:10515000000C0A030305090008000CFF1E1E2805A9
:10516000080304040910150401080CC082C08390D0
:10517000184EE4F0A3F07CED7D047A677B171242B1
:1051800039124A13123033124A0D02672374F31294
:10519000259374F5122C1789098A088B0A8C0BE960
:1051A000705F74026508703F7908124545750C0000
:1051B000780C122BA5E50BF50C780C122BA5E50A43
:1051C000F50C780C122BA590178312299D901A4686
:1051D000E0F97C727D19901A6612717B1249E974AC
:1051E00007122B630252C47401650860030252C99E
:1051F00079081245457B00AA0AA90A124A9102526F
:10520000C47401650960097402650960030252C92A
:10521000EA60067403650870477902124545901AE2
:1052200046E0F9901783122E3E1249FBE9F99017D8
:1052300092E0A2E34010E9700D901852E004F0648F
:105240000470031252EA74036508707A901853E0F0
:10525000F8740128F0E8C39405406B1252EA8066A6
:1052600074016508706374016509790A702E12452E
:10527000457401122E6DE4F07402122E6D7403F069
:1052800004122E6DE4F0A3F0A3F0A3F07408122E24
:105290006DE4F0AA18AB1912332D804412454590E5
:1052A0001A3C12299D7A007B20901787E0F9124161
:1052B000EB7404122B63901A46E0F9901783122EB8
:1052C0003E124AAFE9F9E9601790811612299D7ADA
:1052D000017B00901787E0F91241EB7404122B63F5
:1052E000740B122B637F0502285F901783E4F0A3F1
:1052F00074F8F0A374FFF0A37407F02274F612257B
:1053000093E9FFEAFE7AD1F91240A18A828B83E504
:10531000824583702A7A027B00124083EA4B700E2A
:105320007A107B00901787E0F91240C580148A82BA
:105330008B8374D1F0EFA3F0EEF912408F8003EF6E
:10534000A3F002556974F712259389089006FB12A1
:10535000668E901A29E0F47003A3E0F4702D900893
:105360000EE0901A29F0A3E4F080208E828F83A3B0
:1053700012641B600F8E828F83A3A3126415FAA997
:10538000081245DB8E828F8312542CEE4F70DC9016
:105390001A29E0F47003A3E0F4600A901A29E0FAF5
:1053A000A9081245DB12343B901751125D6212348A
:1053B000357F0102285F74F0122593890B8C0C75E0
:1053C00008007509007410122E6D1254A074121288
:1053D0002E6D12542C803CA80A125490F50EA3E0B6
:1053E000F50FA809125483F583E0650E7004A3E05D
:1053F000650F7014125423EE28F582EF39F583E51A
:105400000EF0A3E50FF00508050AE50AC3950C4068
:10541000C60509E509C3950B5005750A0080EBA97F
:10542000088011A808E828F8E433F922126E54E83D
:10543000FEE9FF227F0802285F74F4122593890B8E
:105440008C0A750800740C122E6D1254A08002058F
:1054500008E508C3950B502775090080020509E58A
:1054600009C3950A50E9A80812548312668CA8094A
:105470001254906E7003A3E06F70E279018002799C
:10548000008028E828F8E433F9EA28F582EB39228D
:10549000E828F8E433F9EC28F582ED39F583E022C9
:1054A000126E54E8FCE9FD22122B637F0402285F90
:1054B00074F61225931255537003A3E06D7017759F
:1054C00008907509177808122BA1EEFA1247137489
:1054D00002122B63801F7508027509807808122B51
:1054E000A18C088D097808122BA112553E1247375E
:1054F0007404122B63807274F61225931255537044
:1055000003A3E06D701775089D7509177808122BB5
:10551000A1EEFA1247197402122B63801F7508035B
:105520007509807808122BA18C088D097808122B38
:10553000A112553E1247377404122B63802B12556B
:105540004C3FF583E0FD7C801267CB22EE240EF504
:1055500082E422EAFEEBFF1267E0FCE439FD9017DB
:1055600051E06C227402122B637F0202285F74F6F2
:1055700012259374FE122C17EAFEEBFF8518828524
:105580001983E4F0A3125D12126711FCA3E0FBEC97
:10559000FA88828983A3A3E0F97509007508006081
:1055A0000574FF697005750882803D901751E06AA7
:1055B0007003A3E06B701AAA18AB19123A0BE9F545
:1055C00009851882851983126B52701C75088380B7
:1055D0001790197DE06004640170057508818008EA
:1055E000E064027003750880851882851983126B48
:1055F0003BA908EEFAEFFB12471FE5096011851879
:1056000082851983126B52600612717512412B024A
:10561000556474F2122593EAFEEBFF7508007509D4
:10562000001267DCF50AE439F50B12343BEA650A2F
:105630007003EB650B7012123A1DE914F50879013D
:105640007A1A7B18123A238003750980126B41F590
:105650000C780C122BA5750C1A750D18780C122BE2
:10566000A17808122BA5780A122BA1E509F5087874
:1056700008122BA51265A7126B44F97A057B8012DC
:105680004725740702791174F61225938909750864
:105690000080278A828B83E0FE127AD4EE28E439D8
:1056A000FF125423EC28F582ED39F583EEF0A3EFD9
:1056B000F0EA2402FA50010B0508E508C3950940F9
:1056C000D202556974E812259374FB122C178A16BE
:1056D0008B17851882851983E4F07403122E6DE40C
:1056E000F0A3F004122E6DE4F0A3F0125AD5351792
:1056F000125CE4F50B850A82F583127BC0FEE43967
:10570000FF850A82850B83A3A3E0FA850A82850BB5
:1057100083A3A3A3E0F9EAF508E439F509E50A242F
:1057200004F50A5002050BEEFAEFFB1234D7E964D8
:10573000016016EEFAEFFB1234D7E9703D90175175
:10574000E06E7003A3E06F6031126921122BA5E4B3
:10575000F508F5097808122BA17808122BA59017E7
:10576000511229A57508807808122BA5125ABC126F
:1057700047257407122B63025AB2125AEF88106041
:105780002B12775F1241257403122E6D125D627425
:1057900003122E6D126B5260137403122E6D125A87
:1057A000E7A91012460B8A0A8B0B800375100012B2
:1057B0005AEF880F602712775F1241257401122E6D
:1057C0006D125D627401122E6D126B52600F7401C6
:1057D000122E6D125AE7A90F12460B8003750F00A7
:1057E0009006FB805C850A82850B83A3A3A3A3A3F9
:1057F000A3A3A3E4F0A3F0AA0AAB0B85148285153A
:1058000083A3A3E0F8126415F912408F85128285F4
:105810001383E0C0E0851882851983E0F8741A28A4
:10582000F582E43418F583D0E0126B5604F0E511EC
:10583000A2E05007AA12AB1312412B8514828515E2
:1058400083E0F514A3E0F515E51445157003025A3D
:105850001F851482851583A312641B60DE85148264
:10586000851583A3A3A3A3A3A3A3A3E0A2E050CB86
:10587000851482851583A3A3A3A3126B528514827A
:10588000851583A3A3601F12641CFA790185148215
:10589000851583A3A3A3A3125ADA1227798A128B40
:1058A000137511018010125ADAA3A3A3E0F512A315
:1058B000E0F513751100E5124513700302582E85AB
:1058C0001282851383A3E065087004A3E065096074
:1058D0000F74FF6508700474FF6509600302582E99
:1058E000851282851383A3A3A3A3A3A3A31229A52F
:1058F000851282851383A3A3A3A3A3A3E0FC74054D
:10590000122E6D12717BA9101245ED7402122B63D9
:10591000E9703C851282851383A3A3A3A3A3A3A349
:10592000A3A3A31229A5851282851383A3A3A3A3EE
:10593000A3A3A3A3A3E0FC7403122E6D12717BA991
:105940000F1245ED7402122B63E9700302582EE525
:105950000F2510C333240AFA7B001240838A0A8B76
:105960000BEA450B700302580C8A828B8374D212A7
:105970006D618A828B83A3A3E8F0A3E9127A3AA32C
:10598000E510127BC8E50FF0E510603CEA2405FA4B
:10599000E4350BFBE50A240AF8E4350BF98A828B1F
:1059A000831262E17403122E6D125AFF122B9DAC0A
:1059B00010EC2CFCE433FD8A828B8312717B124045
:1059C0005F7403122B63800D8A828B83A3A3A3A32E
:1059D000A3E4F0A3F0E50F70030257E5A8101254FA
:1059E00025E50A28F8E50B39F9E8240AFAE439FB39
:1059F000850A82850B83A3A3A3A3A3A3A3A3125DFC
:105A0000627401122E6D125AFF122B9DAC0FEC2CFA
:105A1000FCE433FD12405F7403122B630257F785D9
:105A20001882851983E06027126921122BA5750859
:105A30001A7509187808122BA17403122E6D1269B9
:105A40002A122BA59017511229A57508008029EE5E
:105A5000FAEFFB1234D7E9702F126921122BA575CA
:105A6000081A7509187808122BA175080078081211
:105A70002BA59017511229A57808122BA5125ABCF4
:105A80001247257407122B637403122E6D126B528A
:105A9000600B7403122E6D12717B12412B74011274
:105AA0002E6D126B52600B7401122E6D12717B12EF
:105AB000412B7405122B637F1002285FE516240228
:105AC000FCE43517FDE51612653B3517F583E0F963
:105AD0007A067B8022EA12670822125ADE22E0F858
:105AE000A3E0F583888222126B3BAA0AAB0B2285C6
:105AF0000A82850B83E0F8A385820A85830B22E066
:105B0000F50CA3E0F50D750E00780C2274F112254A
:105B10009374F4122C178A088B09ECFEEDFF740BBA
:105B2000122E6D7403F0122BEF1242391234358AA3
:105B30000A8B0BAC0AAD0B7403122BEF124233E944
:105B4000600A125CDE6010E06401600B85188285DB
:105B500019837484025C8C8E828F83A3A3A3A3A376
:105B6000A3A3A3E06013F46010125CDE7016EE24B1
:105B700014126B446003F4700B85188285198374CA
:105B800082025C8C1278E2E064217002A3E0600380
:105B9000025C63851882851983748C125D1264031C
:105BA0006003025C4D7401122BF71262C612315F62
:105BB000E96003025C4D1245338A0A8B0BEA450B00
:105BC0007003025C8D8E0C8F0D750E00780C122BFD
:105BD0009D7C157D0012405F7403122B6385088243
:105BE000850983A3A3E50A2415FCE4350BFD74099C
:105BF000122AC712756EC0E0E50A241E125CCCD0D2
:105C0000E012612DC0E0E50A241F125CCCD0E0F068
:105C1000E50A2420125CCC7405F0EE240BFE500142
:105C20000FFAEFFB123AA17D007C007900EEFAEF4B
:105C3000FB1246DD90811612299D7A007B10901789
:105C400087E0F91241EB7404122B638078125CD464
:105C5000122BA5125CEC1231417401122B63E97016
:105C60002C8014125CD4122BA5125CEC12314774F8
:105C700001122B63E9700D851882851983E4F012F7
:105C8000450380098518828519837488F012756E22
:105C9000F50A780A122BA57401122BE7880A890BE2
:105CA000780A122BA1E508240CF582E43509125C70
:105CB000E44480F50B780A122BA11266771246D1C4
:105CC0007405122B63740C122B63805EF582E4352D
:105CD0000BF58322EE1262D3E0F50A780A22125DF8
:105CE00017640322F583E0F50AA3E022EE240BFCFF
:105CF000E43FFD8E828F83A3A3A3A3A3A3A3A3A3A7
:105D00001271B88E828F83A3A3A3A3A3A3A3A3E03E
:105D1000F922F0125D1722125D1B22EE2413F58288
:105D2000E43FF583E022EEFAEFFB7F0702285FC035
:105D300082C08374F3122C17851882851983E4F0CE
:105D400004122E6D125D627403122E6DAA82AB8353
:105D5000124B57AA18AB19124B1B740D122B63026E
:105D60006723EAF0A3EBF02274F61225931266FB88
:105D7000FAA3E0F9EAF8901798E058F508A3E0597B
:105D8000F509E5084509601C7808122BA190175108
:105D90001229A5126B41FD7C001267C712473174AE
:105DA00004122B6302556974EA12259374DB122CDA
:105DB000178A148B15751200751300125AD53515F4
:105DC000F58312641CF50EAC18AD197A007B0079CE
:105DD0009C124A797A047900124AE5EAF50C851892
:105DE00082851983E02AF0F8E50EC3984003025F2C
:105DF000CBE0C3950EF509C394044003750903E590
:105E00000975F01AA4FAABF01241258A128B13EA35
:105E100045137003025FCE750D00AE12AF13850EF1
:105E200008025EA87C087D0079FF12604A12406B70
:105E3000850A82850B83A3A3A3A3E0702D850A8224
:105E4000850B83126B52700C1272C4F0EE24181280
:105E500072C78010126052F090055FE014C0E0122B
:105E6000602ED0E012607DE4803490055FE004C0D5
:105E7000E012602ED0E0126075C39403EE4003027E
:105E80005F301262CF740212607564017003025FAA
:105E90003DEE2415126055F0EE2416126055F0EE1A
:105EA000241AFE50010F050DE50DC39509400302AC
:105EB0005F68E508C3950C4003025F46AA087B00B3
:105EC000124A5B8A0A8B0B050890054C12605E1221
:105ED0004239850A82850B83126E5012603CE8F0CD
:105EE000A3E912608F850A82850B83A3A3A3A3A3D2
:105EF000A3A3A3A3A3E0C0E0126024D0E0F0740148
:105F0000122E6DE4127A8E126E507402122E6D12E1
:105F100062E17401122BEF124B2DE9640160030260
:105F20005E247404122E6D126046124239025E30F5
:105F300012605312607564036003025E91EE2415D3
:105F40001272C7025E97E50CC3950E4005750800F6
:105F5000801DE50EC3950CF5088014126052F0EE1A
:105F6000241AFE50010F050DE50DC39509505F740D
:105F70000E122BF7AA087B007987124A790508745C
:105F800018122E6D12605E1242397410122E6D12AC
:105F90006046124239EE2412F8E43FF9740E122ED4
:105FA0006D12717B88828983EAF0A3EB12607D74A5
:105FB0000312608F741D122E6DE0C0E0126024D0B9
:105FC000E01270EA70951272C48093750900750A28
:105FD00000780A122BA57812122BA17809122BA592
:105FE000E50EF5097809122BA57405122E6DE0FD5A
:105FF0007C00E5141265323515FBE5141265373562
:1060000015F583E0F912476D7405122B63E512450F
:10601000136007AA12AB1312412B7425122B637F56
:106020000E02285FEE2419F582E43FF58322126008
:106030003222EE2418F582E43FF58322EE2412F595
:1060400082E43FF58322AC82AD83EE240AFAE43F7A
:10605000FB22EE2414F582E43FF583740122126ED4
:10606000548E828F83E8F0A3E9F07C607D05EE1208
:1060700065323FFB22127A89A3A3A3E022F0EE123D
:1060800072BB7402F0EE2416F582E43FF58322F031
:10609000EE2417F582E43FF5837402F01260327447
:1060A000FFF02274F612259374F9122C1712612254
:1060B000127C4A124077EAF8EBF9ECFAEDFB85180E
:1060C00082851983122E56EE2404FE50010F8E8213
:1060D0008F83E0C0E07404122E6DD0E01270C1F81E
:1060E0007405122E6D7401F07406122E6D7401F099
:1060F00090175BF090176404127AA6A312717B903C
:10610000175C125D62E890176512612D90175AF0C6
:10611000AA18AB191249F5E960031249EF74070296
:1061200055668A088B09EA126708350922F0127A47
:1061300006E02274F212259374FF122C17750800E2
:106140007E007F0012335D8A0A8B0B12335D8A0C4E
:106150008B0DA80CA90D80050508126E4AE8497040
:10616000F790197DE060076401600302623E12331C
:106170005D8A0C8B0DA80CA90D8003126E4AE849AC
:1061800060368882898312717B90054CE06A7003C7
:10619000A3E06B600D1262DA39F58312717BEA4B72
:1061A00070D988828983126E5090054CE068700324
:1061B000A3E069700302623E7A167B001241258AD1
:1061C0000C8B0DAE0CAF0DEE4F607390054C126E44
:1061D000508E828F831262E1900541E08E828F8320
:1061E000A3A3F01234BFE98E828F83A3A3A3A3A33A
:1061F000F0901A47127A7DF07C607D051262C6121B
:106200004239AA18AB197941124929851882851992
:1062100083E06008901751126E50800478FE79FF79
:106220008E828F83A3A3A3A3A3A3A31262E112620E
:10623000CEE50AF0A3E50BF08E0A8F0B0508901748
:1062400065E0F8E508C398500479008027E508C3A5
:1062500098F9C39406400279057800800DE50A128A
:1062600062DB350B125CE4F50B08901765E0FAE889
:10627000C39A40E97509007809122BA5780A122BF8
:10628000A1E9F5097809122BA5901765E0F50978C1
:1062900009122BA5AD087C007A5C7B1790175AE099
:1062A000F91247677405122B6390197DE06004644E
:1062B00001700BEE4F6007EEFAEFFB12412B124913
:1062C000EF7401027911EE240BFAE43FFB22EE1287
:1062D00062D3221262DB3FF58322E82414F582E4C4
:1062E00022E8F0A3E9F02274F012259374FF122C37
:1062F000178A0A8B0B7E008E0E8E0F125AD5125CF7
:10630000CF12641CFFAC18AD197A007B00799D1286
:106310004A79851882851983E0F8EFC39840030213
:1063200063C0E0C39FFEC3940B40027E0AEE75F08B
:1063300007A4FAABF01241258A088B098A0E8B0F4D
:10634000EA450F6079750C00801A850882850983FB
:10635000A3A3A3A3A37403F0E5082407F508500240
:106360000509050CE50CC39E5056AC08AD09E50CBB
:106370002FFAE43400FB798B124A7985088285096B
:1063800083A3A3A3A3A3E014600814601314601FE5
:1063900080B8850882850983A3A3A3A3A3E480B75B
:1063A000850882850983A3A3A3A3A3740180A8857C
:1063B0000882850983A3A3A3A3A3740280997E0006
:1063C0007508007808122BA5780E122BA1EEF5089F
:1063D0007808122BA5EFF5087808122BA574051282
:1063E0002E6DE0FD7C00E50A126532350BFBE50AF7
:1063F000126537125CCFE0F91247737405122B63F4
:10640000E50E450F6007AA0EAB0F12412B74011267
:106410002B63025434A3E0F5838882A3125ADEE092
:106420002274EE12259374FE122C178A0C8B0D75B4
:106430001000751100125AD5350DF58312641CF544
:106440000AAC18AD197A007B0079A312314D127194
:1064500075C3E50A9AE49B5076851882851983A84E
:106460000AE0C398FEA3E09400FFC3EE9404EF9407
:106470000040067E037F008004EE4F6052EEFAEF8C
:10648000FBEA75F015A4FAA8F075F015EBA428FB4B
:106490001241258A088B098A108B11EA4511602F59
:1064A000750B00750E00C3E50E9EE49F5026AC08E8
:1064B000AD09A80AE50E28FAE43400FB79A21231EE
:1064C0004DE5082415F50850020509050E80D7751D
:1064D0000B8B7E007508007808122BA57810122B04
:1064E000A1EEF5087808122BA5E50AF50878081240
:1064F0002BA57405122E6DE0FDAC0BE50C12653278
:10650000350DFBE50C126537350DF583E0F91247C3
:10651000797405122B63E51045116007AA10AB11C1
:1065200012412B7402122B637F0A02285FFCEFFDDD
:10653000E5082402FAE42212653B22240FF582E4E6
:106540002274F612259374FF122C17EAFEEBFFEE6D
:10655000125AD63F127936A3A3A3A3A3A3A3A3E001
:10656000F9124AF7E9851882851983F075080078D1
:1065700008122BA57401122BE788088909780812E4
:106580002BA17508357509807808122BA112659D1D
:106590001246D17405122B637401025566790112FB
:1065A00065A7FAE43FFB22EE2402FCE43FFDEE2463
:1065B0000F2274F412259374FA122C17126122120E
:1065C000668CEEFAEFFB124B51E960171234358AF4
:1065D0000A8B0BAC0AAD0BEEFAEFFB124233E96407
:1065E00001700A7401122E6DE4F0A3800974011287
:1065F0002E6DEEF0A3EF127AC2A3A3A3A3A3E0F83B
:10660000A2E650087403122E6D7401F0E8A2E75060
:10661000087404122E6D7401F07405122E6DE4F0EE
:1066200004122BEF124A8BE9851882851983F090AA
:106630008122122E3E1234597A007B001234657A80
:10664000007B0012345F750A00780A122BA57401D2
:10665000122BE7880A890B780A122BA1750A347568
:106660000B80780A122BA11266771246D17405129C
:106670002B6374060254A87901E5082402FCE43572
:1066800009FDE508240FFAE43509FB22F5831279A8
:1066900040FF2274F612259374FF122C171266FB2A
:1066A000F509A3E0F508A9091249E3E985188285EF
:1066B0001983F090197DE0700B740165087005A9CD
:1066C00009124833EE240B126B44702C75080078C5
:1066D00008122BA57401122BE78808890978081283
:1066E0002BA17508367509807808122BA112659DBB
:1066F0001246D17405122B63026598EAFEEBFF1275
:1067000067073F12670E22EE2413F582E422F58319
:10671000E01267F0E022C082C08390197DE0700330
:10672000124839D083D082022B4B74F41225937413
:10673000EF122C17EAFEEBFF1267DCF508E439F5DF
:1067400009901751E065087004A3E065097052A82C
:1067500018A919880A890B780A122BA1750A1175D4
:106760000B00780A122BA17C007D007A817B00123D
:1067700041AF7404122B63E97027750A00780A127E
:106780002BA57401122BE7880A890B780A122BA11A
:10679000AC08AD091267C712472B7403122B638034
:1067A00021750A11750B80780A122BA17808122B1B
:1067B000A1126B41FD7C841267C712473774041223
:1067C0002B6374110254A81267CB22EE2402FAE460
:1067D0003FFBEE12653B3FF583E0F9221267E022B2
:1067E000125D1B1267F01279F1F8E4C8F9EA282269
:1067F000F8A3E0F9888289832274F112259374EB5F
:10680000122C171266FBFCA3E0FAE4CAFBEC2AF593
:1068100008E43BF509901751E065087004A3E065B2
:106820000960030268C888828983A3A3E09410509A
:106830000F88828983A3A3E0851882851983800845
:106840008518828519837410F0E0C0E07404122E5C
:106850006DD0E0127922A3A3A982AA83890C8A0DA4
:10686000750E00780C122B9D7407122E6DE0FC7DC6
:10687000007408122E6DAA82AB8312405F7403125B
:106880002B637404122BE7880A890B780A122BA158
:10689000750A11750B00780A122BA17C007D007A15
:1068A000817B001241A97404122B637404122E6DB3
:1068B000E09017906005E0D2E48003E0C2E4F08548
:1068C0001882851983E48008851882851983748469
:1068D000F0E0C0E07401122E6DD0E0F07402122ED0
:1068E0006DE508F07403122E6DE508F012554C3F6B
:1068F000126928122BA57402122BE78808890978DF
:1069000008122BA17508147509807808122BA1793B
:106910000312659F1246D17405122B637415025C35
:10692000C7E51612554D3517F583E0F508780822AE
:1069300074F612259374E0122C17EAFEEBFF900513
:106940004EE064086008E064046003026B36AC1833
:10695000AD191246B990197DE06402702F123435DA
:106960007402122E6DAC82AD83124233E9601D12A7
:10697000343B8A088B09A808A909851882851983E0
:10698000E0687003A3E0697003026B361236097485
:1069900002122E6DAC82AD83127175123507E96457
:1069A000017003026B367418122BEF123447740215
:1069B000122E6DAC82AD837418122BEF124233E9A4
:1069C00060321234418A088B09A808A90985188207
:1069D000851983E0687003A3E069601885188285D3
:1069E0001983126E509005421262E17A427B05795A
:1069F0004B12492F90197DE06004640170751234C8
:106A00003B8A088B09A808A909EE2411126B446877
:106A10007003A3E069605C7402122E6DAA82AB83DE
:106A2000124AB58A088B09A808A909E8496026888E
:106A3000828983A3A3A3A3E06401600D8882898374
:106A4000A3A3A3A3E06402700C7402122E6DAA82A9
:106A5000AB83124A739005DC126B52601690197169
:106A6000E06401700E1271759005DDE0F583888297
:106A70001227797900127175122FAF90054C126BA5
:106A80003B1271751235C1740B122E6DE4126B56E8
:106A9000F8A3E0F9740C122E6D1262E1740B122B44
:106AA000EF124B2DE9603F7C087D007900741812CD
:106AB0002BEF12406B740E122E6DAC82AD837418E6
:106AC000122BEF124233E9601D7402122E6DAC825C
:106AD000AD83740E122E6DAA82AB83124B57740BCA
:106AE000122BEF124B1B7402122E6DAC82AD83740D
:106AF0000E122E6DAA82AB83124B57740B122BEF22
:106B0000124B27E96030740C122E6D126E508518EE
:106B100082851983E0687003A3E069601985188293
:106B2000851983126E50740C122E6D1262E1740B73
:106B3000122BEF124B1B7420025566E0FCA3E0FD04
:106B400022EE240EF582E43FF583E022F582E4385C
:106B5000F5831272FD22F0851882851983E0227474
:106B6000E812259374F7122C178A168B177F008F63
:106B7000088F091246BF8A128B13EA45137003026D
:106B80006D347E00800DEE75F00CA4F8126D51127C
:106B90004A730E851282851383E0F8EEC398400392
:106BA000026C69750CFF750DFF750EFF750FFFEE1A
:106BB00075F00CA4F8A9F0126D51124AB5EA4B60B9
:106BC000D18A828B83A3A3A3A3E06401600D8A8290
:106BD0008B83A3A3A3A3E0640270B7126E1B701093
:106BE000126E32780C122DE0126E28780C122BFFE8
:106BF000126D39A3A3A3A3A3A3A3A3780C122B07FD
:106C000040847A0E7B001241258A0A8B0B126D3963
:106C1000AC82AD83124239850A82850B83A3A3A37C
:106C2000A3A3A3A3A3780C122DFEE50A240C125CE7
:106C3000CCE4F0A3F0E5084509700E850A10850B39
:106C400011851008851109801CE510240CF8E43525
:106C500011F988828983E50AF0A3E50B12792BF5F7
:106C600010A3E0F5110F026B92EF7003026D2D740B
:106C700008122E6D7402126D6185188285198312B7
:106C800062E17E00EF75F00CA4FAABF01241258AA8
:106C90000C8B0DEA450D7003026D2D805A8508108E
:106CA000850911EE75F00CA4F8A9F0E50C28F50A99
:106CB000E50D39F50BAC08AD09AA0AFB124239857E
:106CC0000882850983A3A3A3A3A3A3A3A3122E1AB7
:106CD000850A82850B83A3A3A3A3A3A3A3A3122E38
:106CE000560EE510240CF582E43511126D59F509A4
:106CF000AA10AB1112412BE508450970A0750800D8
:106D00007808122BA575081F7509807808122BA129
:106D1000780C122BA1EFF97405122BF7E516240F4E
:106D2000FAE43517FB1247077405122B63AA12AB5E
:106D30001312412B7409025AB4EE75F00CA4F8A991
:106D4000F0126D4522E51228F582E51339F583A38B
:106D500022126D45AA82AB8322F583E0F508A3E0F9
:106D600022F0851682851783A3A3126E542274F035
:106D70001225931246BF8A088B09AE08AF09EE4F61
:106D80007003026E18750C0080787508FF7509FF96
:106D9000750AFF750BFFE50C75F00CA4F8A9F0124D
:106DA0006E38124AB5EA4B60578A828B83A3A3A33D
:106DB000A3E06401600D8A828B83A3A3A3A3E06494
:106DC00002703D126E1B7010126E327808122DE0A8
:106DD000126E287808122BFFE50C75F00CA4F8A9A8
:106DE000F0126E40A3A3A3A3A3A3A3A37808122B1E
:106DF00007500DE50C75F00CA4F8126E38124A73AA
:106E0000050C8E828F83E0F8E50CC3985003026D69
:106E10008AEEFAEFFB12412B025434EA241BF5826E
:106E2000E43BF583E0640122EA2417F582E43BF5B4
:106E30008322127A9EF58322126E40AA82AB8322AD
:106E4000EE28F582EF39F583A3221262DA39F58351
:106E5000126E5422E0F8A3E0F92274F11225937423
:106E6000F6122C17EAFEEBFF750800901850126B13
:106E70005270507A377B00124125901850EAF0A3E7
:106E8000EB12761D60197C377D00790012406BEEA5
:106E9000FCEFFD90185012717B124689E9700B854A
:106EA000188285198374880270031278F212709D1B
:106EB0007401F07C957D469004EB12717B12304595
:106EC000027098E0C812709D7402F0EEFCEFFD12A3
:106ED0007573124689E9700C851882851983748848
:106EE000F0750801750A1A750B18780A122BA11291
:106EF000718B1229A51278F22428127566FC127182
:106F0000BD1278F22414127566F91245E774041262
:106F10002B631270AA1270C7243112756660431277
:106F20007607FAE433FB124125901850E024321220
:106F300070DC6022750C1A750D18750E00780C1235
:106F40002B9D127607FCE433FD1271A912405F7489
:106F500003122B63800C8518828519837488F07561
:106F60000801780A122BA112717F1229A51278F25A
:106F70002411127566FC1271A01278F2242B12757E
:106F800066F91245E77404122B63E9F81278F224CB
:106F9000341270C7243412756660351275FEFAE437
:106FA00033FB124125901850E024351270DC60420A
:106FB000750C1A750D18750E00780C122B9D127534
:106FC000FEFCE433FD12719712405F7403122B63D1
:106FD000E508A2E040251270AA12756670089018A4
:106FE000501275CA60157B007A00790012468F0234
:106FF00070988518828519837488F08518828519A0
:10700000837486F07409122E6D74021277751270F3
:10701000B9122E6DE8F0A3E91270C1F508780812D4
:107020002BA57401122BE7880889097808122BA177
:107030007508207509807808122BA1790174061251
:107040002BF7EEFAEFFB1246D17405122B63127583
:10705000B970427409122E6D7402F01270B3122EC0
:107060006D127624122BA57401122BE7880889096A
:107070007808122BA17508207509807808122BA1B9
:1070800079017406122BF790185012717B1246D1B9
:107090007405122B63124683740A025CC71270A136
:1070A00022242EF582E438F5832290185012758F31
:1070B000243122901850125ADEA3A3126E54740188
:1070C00022127775A3E022F582E438F5831270D29C
:1070D000C822E9F0901850E0F8A3E022F8A3E034C9
:1070E00000F988828983EAF0A3EB1279301272FDED
:1070F00022C082C083901850126B526075E0C82481
:1071000035126B4C600612719712412B1278F224E3
:1071100032126B4C60061271A912412B1278F224C4
:1071200012126B4C600912717F12717B12412B128B
:1071300078F22415126B4C60061271BD12412B12AD
:1071400078F22429126B4C600912718B12717B1238
:10715000412B1278F2242C126B4C60061271A01293
:10716000412B90185012717B12412B901850E4F073
:10717000A3F00267238518828519831271B8221241
:10718000758C2412F582E438F5832212758C24293B
:10719000F582E438F5832212758C24351271B222FF
:1071A00012758C242C1271B22212758C2432127139
:1071B000B222F582E438F5831279F1FB2212758C44
:1071C00024151271B22274F1122593EAFEEBFF8CA2
:1071D000088D09750A018C0C8D0D750E00780C1246
:1071E0002B9D7C177D0012405F7403122B63EE24ED
:1071F000121272C7F0A3F0EE24151272C7F0A3F0BA
:10720000127731E0603AEE2412F8E43FF9880C89F5
:107210000D12775A1241251272E86021E5082412F6
:107220001272DB122B9DE50824111272CF12603D01
:1072300012717B12405F7403122B638003750A0086
:10724000E50812773F6035EE2415F8E43FF9880C25
:10725000890D12775A1241251272E86055E508240B
:10726000151272DB122B9DE50824141272CF1272D4
:10727000B712717B12405F7403122B63E50AA2E020
:10728000402BEE2412F582E43F126B50600912602D
:107290003C12717B12412BEE2415F582E43F126BF8
:1072A00050600AEE1272B712717B12412BA90A02CA
:1072B0005D2A750A0080CB1272BB222415F582E488
:1072C0003FF58322EE2414F582E43FF583E4221295
:1072D0007805E025E0FCE433FDEE22127805E0F5C8
:1072E0000CA3E0F50D780C22850C82850D83EAF065
:1072F000A3EBF0850C82850D831272FD22E0F8A3CA
:10730000E0F9E8492274EE12259374ED122C1789E6
:107310000B8A0E8B0F750C00750D00750AFF75102A
:10732000FF7511FF7508007509008518828519839E
:10733000E412761D60177403650B60067402650B1A
:107340007010E0C82430127566650F600579000280
:1073500075617C957D467A007B001230457401652D
:107360000B700A8518828519837485803DE50B6052
:10737000067403650B7019901850127599F0740318
:10738000650B7029E50E6029851882851983801A9E
:107390007402650B701BE50E9018507005127599FC
:1073A00080081278F51275B07402F08004E50B6065
:1073B0001E12759F70191275C360051270AD800A98
:1073C0001275CA600A1278F2243412756614F0122B
:1073D00075C3601A126D5BF5091276071279EACA55
:1073E00024321275DB241D12758024258026127527
:1073F000CA6026901850E02417F508A3E03400F581
:10740000091275FE1279EACA24351275DB240612B8
:107410007580240E127566F50A7409122E6D7402B9
:10742000126B5660030274CFE508450970030274BD
:10743000CF12759F70047E2280027E21850882858E
:1074400009831270B9122E6D1262E1901854E0C0D7
:10745000E01278F22430F582E438F583D0E0F0745D
:1074600012122E6D7403F0AC0CAD0D740A122BEFDA
:10747000124239850882850983A3E0F50C780C1245
:107480002BA5780A122BA5740C122BE7880C890DFA
:10749000780C122BA17810122BA1E5082406F50C0C
:1074A000E43509F50D780C122BA112756EF97409EB
:1074B000122BF7EEFA7B001247437408122B637C01
:1074C000957D469004EB12717B12304502755F1278
:1074D00070B3122E6D127624122BA57401122BE7B5
:1074E000880889097808122BA17508207509807809
:1074F00008122BA179017406122BF7901850127103
:107500007B1246D17405122B631275B9704E127836
:10751000F22419F582E438F5831270BB122E6DE85F
:10752000F0A31270CD2418F582E438126928122BCA
:10753000A57401122BE7880889097808122BA17518
:1075400008207509807808122BA179017406122B86
:10755000F71275731246D17405122B6312468379A4
:10756000017413026525F582E438F583E022127A6E
:1075700014E022901850E02417FAA3E03400FB2214
:10758000F50CA3E03400F50D12758C229018501202
:10759000759322E0F8A3E0C8221275A97401229025
:1075A00018501275A9E06401221275931275B02269
:1075B000242FF582E438F5832212758C1270A1E035
:1075C00064022212760D901850221275CE22127586
:1075D000932434F582E438F583E022F582E43AF529
:1075E00083E028F8A3E039F9E824FEF582E934FFC6
:1075F000F583E0F510A3E0F511901850E022901803
:10760000501275CE25E02212760D25E022901850FA
:107610001275932431F582E438F583E0221270D399
:10762000F9E84922E8F0A31270D2F5838882A3E03A
:10763000F508780822C082C0837B007A8579011220
:10764000468F02672374F41225938C088D09EA246F
:107650000F127AC8127A2E126E508C828D83A3A3D9
:107660001262E1EA240E127AC8A3F0126E32127985
:107670004012776612790450010FFCEFFDE50824F3
:1076800006FAE43509FB124239EE2408FE50010FD8
:107690008E828F83E0C0E0127A10D0E012780DF86D
:1076A000127A02E812790850010FE50824121277C5
:1076B00039A3F0E508241512773912776FF8A30E75
:1076C000AF83127731E8F06028E508241212775171
:1076D000124125127ADB6019E50824121277441250
:1076E0007733E0F912460B8A0A8B0BAE0AAF0B8098
:1076F00007E50824111277398E828F83E0F8A3AE54
:1077000082AF831277FDE8F0601FE5082415127739
:1077100051124125127ADB6010E5082415127744D6
:1077200012773FF912460B80051277FDE4F0025400
:10773000ABE508241112780522127805E4F0221234
:107740007803E022127805126B3BEEFAEFFBE508B6
:1077500022F8E43509F9880A890BE012775F2225BF
:10776000E0FAE433FB22FF127A738C828D8322A32A
:10777000127775E022F08E828F832274F6122593A1
:10778000127A9612668CEEFCEFFDAA08AB09124243
:1077900039EE2408FE50010F8E828F83127B211256
:1077A000780D850882850983A3A3A3A3A312790476
:1077B00050010F8E828F83E0F8E508126127F58370
:1077C000E81278F97403687026EEFCEFFDE50824F2
:1077D0000BFAE43509FB1242398E828F83A3A3A3EF
:1077E000A3A3A3A3A3E0C0E01277FDD0E0800A1218
:1077F00079F61278ECE8F0A3E9F0025569E5081291
:107800007803222414F582E43509F58322127A4F95
:10781000127A772274F2122593EAFEEBFF750A00C2
:10782000EE2410126B44C3940C400D127A68127847
:10783000F5240B127566F50AA80A125425E8240DE2
:10784000FAE439FB1241258A088B09EA45097003DD
:107850000278DCEE125AD63F127A208A828B83128B
:107860007A4B7078EEFCEFFDEA2403FAE43509FB6D
:10787000124239EE2408FE50010F8E828F83127A55
:107880006F85088285098312790750010F1278EA03
:10789000E4F0E50A6046E508240DF8E43509F98EC0
:1078A000828F83E0C0E01278EAD0E01279FDC0E078
:1078B0001278E2D0E01278F9850A0B8E828F83E08D
:1078C000FCA3E0FBEC88828983127919500109EE50
:1078D0002402FE50010F150BE50B70DFAA08AB095F
:1078E0008032E508240C12780522E508240B127872
:1078F000052290185012758F221278FD22127A57A5
:107900000EAF8322A3A3A3A3F0A3E9F0EE2402FE0B
:1079100022122B637F0602285FF0A3EBF0E824021B
:10792000F82212792622127930A322127930E0222D
:10793000F088828983221271B68A828B8322F58332
:10794000E0FEA3E02274F1122593127A9A126D5987
:10795000850882F583E0F50BA3858208858309A35A
:10796000A3E0F50A127A633400FB1241258A0C8BDE
:107970000DAE0CAF0DEE4F60378E828F83E50BF0AE
:10798000850882850983E0FA127AAF850882850925
:1079900083A3A3A3A982AA83890C8A0D880E780CDD
:1079A000122B9D127A5E3FFB12405F7403122B6311
:1079B000025D2674F7122593EA2413F8E43BF98854
:1079C0008289831279F1F5838A82127ACE12792B19
:1079D0001267F0A3E0FA88828983A3A3E0F9EA8C16
:1079E000828D83A31262E20253B1F8E433F9901856
:1079F00050E0FAA3E022127A77F8E508221278FD27
:107A0000E022127A0622E50812653B3509F5832249
:107A1000127A1422E508240EF582E43509F5832252
:107A2000127A242212793EFF8E828F83E022127A0C
:107A300033A322F08A828B83A322127A3E22F08A19
:107A4000828B83A3A3A322A3A3A3A3127A4F221200
:107A50007A57AE82AF8322F08E828F83A322AC0A44
:107A60007D00EE2404FAE4221267073FF583221218
:107A70007A77228E828F831279F1F9EA22E08E8260
:107A80008F83A3A3A3A3A3A322127A8EA322F0859C
:107A90000A82850B83228C088D09127A9E22EA24A1
:107AA00013F582E43B22F0850882850983A3221224
:107AB0007AD4EA8E828F83A3F0A3E9127AC2E50A10
:107AC000F022127A57A3A322F582E43BF583E08CDF
:107AD000828D8322A3E0F8E4C8F922850A82850B0F
:107AE00083EAF0A3EB127A8E1272FD2274F612254D
:107AF00093127A96126E4EE8FEE9127766127908B2
:107B000050010F12652D3509FB1242398E828F8389
:107B1000A3A3A3A3A3A3A3A3127B21A3A3F0025512
:107B200069127C5DA3A32274F2122593127BB275B5
:107B3000F00CA4A9F02401FAE439FB1241258A0CC7
:107B40008B0DEA450D60648A828B83A3858208854C
:107B500083098A828B83E50BF0750A008046EEFC70
:107B6000EFFDAA08AB09124239EE2408FE50010FBE
:107B70007904FAEFFB124077EAF8EBF9ECFAEDFB47
:107B8000850882850983A3A3A3A3A3A3A3A3122E7D
:107B900056EE2404FE50010FE508240CF5085002AF
:107BA0000509050AE50AC3950B40B3AA0CAB0D0203
:107BB0007914127A9E127A24F50BA3AE82AF832237
:107BC000E0FA127AD4EA2822127A3EA3A3A3A322CF
:107BD00074F6122593127A96127C4A124077EAF8CC
:107BE000EBF9ECFAEDFB850882850983122E56EE3F
:107BF0002404FE50010F8E828F83E0F88508828571
:107C00000983127A47C394065005127C6280378537
:107C10000882850983A3A3A3A3E064FE600E850800
:107C200082850983A3A3A3A3E0F4701B127C5512E1
:107C300078F9850882850983A3A3A3A3E0F47007DC
:107C4000127C6FF0A3E9F002556912793EFF7904C6
:107C5000EEFAEFFB228E828F83127C5D22127C6211
:107C6000A322E0850882850983A3A3A3A3A32212EC
:107C70007A73850882850983A3A3A3A3A3A3A32260
:107C800074F7122593E990080EF07A107B001240E9
:107C9000C57F0102285F74F4122593EAFEEBFF54BE
:107CA000807054EF54107003027D98127E0C6003B4
:107CB000027D427A897B191240AD8A088B09A80897
:107CC000A90990198EE8F0A3E9F0901990E8F0A3C3
:107CD000E9F0E849606CE0F5838882A3E07900244C
:107CE0000550010990198CF0A3E9F0805A123EBBAF
:107CF000AA08AB0912408990080EE0F912409B8A4D
:107D0000088B09EA450960358A828B83E01460128A
:107D100024E7601A2449601B24FE601C24D660CD31
:107D200080CEA3A3E0FAA3E0FB123E9180C2123EF4
:107D3000C180BD123FE180B812401780B374800249
:107D40007DCE127E0C604D90198CE0FCA3E0FD907E
:107D50001990E0FAA3E0FB7900123BAF90198CC3B5
:107D6000E09AF0A3E09BF090198C127E0F701390B4
:107D7000198EE0FAA3E0FB12408990198EE4F0A37B
:107D80008011901990E02AF8A3E03BF9901990E84F
:107D9000F0A3E9F074108036EF54086009790012FE
:107DA0003F3974088028EF540460097901123F3983
:107DB0007404801AEF540260097902123F39740288
:107DC000800CEF5401600B7903123F3974016FFF8F
:107DD0008031EE5480600E7A0090080EE0F9124176
:107DE000C774808016EE541060071249BF7410806B
:107DF0000AEE54086009123EA374086EFE80047EE9
:107E0000007F00EEFAEFFB7F0402285F90198EE0FE
:107E1000F8A3E0F9E8492274F6122593EA2405FA5A
:107E2000E43400FB1240838A828B83E582458360C1
:107E300007A3AA82AB8380047A007B007F0202281A
:107E40005F74F7122593EAFEEBFF8E828F83E024A6
:107E500003F508F9123F45A808EE28F582E43FF53E
:107E600083E9F0EE24FFF582EF34FFF58374FEF032
:107E7000AC82AD837A897B191240A77A007B10907F
:107E8000080EE0F9027C8E74F612259374E3122C2E
:107E90001790198BE0705E8518828519837401F044
:107EA000122E6D7404F07402122E6D7401F07403BE
:107EB000122E6DE4F0A3F0740A122E6DE4F0A3F01C
:107EC0007412122E6DE4F0A3F07405122E6DE4F01E
:107ED0007416122E6D7401F0741B122E6D74C5F0A1
:107EE000A37449F0AA18AB197900123BA390080EAD
:107EF000E0F9123F3FE4F508F5097808122BA17C60
:107F0000027D007A017B0F12419D7402122B63786F
:107F100008122BA17C027D007A027B0F12419D7416
:107F200002122B637808122BA17C027D007A037B5E
:107F30000F12419D7402122B637808122BA17C0250
:107F40007D007A047B0F12419D7402122B63780826
:107F5000122BA17C107D007A057B0F12419D7402CB
:107F6000122B637808122BA17C107D007A067B0F00
:107F700012419D7402122B63123F8D123F337A011E
:107F800090080EE0F91241C7741D122B63027E3C6B
:107F900074F7122593EA14600D14600A24FE60063B
:107FA00024F4600C801690080EE0FA123F4B800C0F
:107FB0007A007B1090080EE0F91240C5027C91C057
:107FC00082C083851882851983E0F8A3E0F9E84927
:107FD00060128A828B83ECF0A3E824FF18E934FF57
:107FE000F94870F2D083D082022B4B022B4BFFFF5B
:107FF000FFFFFFFFFFFFFFFF851A87C2AF022B4B7A
:108000000000000000000000000000000000000070
:108010000000000000000000000000000000000060
:108020000000000000002403540065007800610097
:108030007300200049006E00730074007200750028
:108040006D0065006E007400730024035400490045
:10805000200043004300320035003300310020008F
:108060005500530042002000430044004300AD4946
:10807000A338D9323F30D530BF439945A542874216
:10808000FB3A0000000000000000000000000000BB
:1080900000000000000000000000000000000000E0
:1080A00000000000000000303132333435363738FC
:1080B00039414243444546000000000000000000F2
:1080C000FFFFFFFFFFFFFFFFFFFFFFFFFFFFFFFFC0
:1080D0000000000000000000000800040002000191
:1080E000FFFFFFFFFFFFFFFF020502000801740012
:1080F000000000000000000000000082003A003B89
:10810000000200020603FFFFFFFF0000FF00000067
:1081100000FF6AAEE7FFE8030000080000000A0065
:108120000000000000001F000000E9FFFFFF9F02A9
:1081300000009751180000480000094338861027B6
:1081400000000400000019E0FCFFF8FF0000E71F3A
:108150000300805101003C000000100E0000FEFFF3
:10816000FFFF640000000B000000FA0000000403A1
:10817000090401000000300000000300000060EA74
:108180000000E204000058020000BC0200003200BF
:10819000000000F8FF0796511800E90300000000F6
:1081A0000000000000000A74F7122593E990059979
:1081B000F090054EE4F012402F9005B1E4F0A3F0EA
:1081C00090059AF0A3F01235A990197DE06004643F
:1081D000017006124AF1122F191240359004D5E4AD
:1081E000F0A3F012496502B40074EC12259374D721
:1081F000122C17EAFEEBFF54806068900599E0F9B5
:1082000012409B8A088B09EA4509604F7C00800177
:108210000CEC75F003A4F8A9F0746228F582745090
:1082200039F583E493F4602CE493F88508828B831A
:10823000E06870DCAA08EC75F003A4F8746328F514
:1082400082745039F583E493C0E0740193F583D0D0
:1082500082122779AA08AB09124089EEFAEF6480EE
:1082600002872DEF5420601E1233F38A088B09EA2F
:108270004509600A12330FAA08AB09124089EEFAC9
:10828000EF642002872D90197DE06402705FEEA2FA
:10829000E0501F900553E0640F701179001232DF37
:1082A000E96009901A2E122E3E1232F7EE64010296
:1082B0008644EF5440603690178AE0640670287454
:1082C0000BF0901A46E0F9750801750900750A006F
:1082D000750B00900541E07808122B26AA08AB091F
:1082E000AC0AAD0B124AAF90196D0286EBEE54202A
:1082F00070030286157A207B00900599E0F91241FF
:10830000FDEA4B4C4D701A9005AD122E1AE8494A01
:108310004B700E750C01750D00750E00750F008009
:1083200061750C00750D00750E00750F0012420F7F
:108330008A088B098C0A8D0B9005AD122E1AE8491C
:108340004A4B602A9005AD7808122B07400E750C39
:10835000FF750DFF750EFF750FFF801285080C85E8
:10836000090D8C0E8D0F9005AD780C122BFF74014A
:10837000780C122BCEE50C450D450E450F7003020F
:10838000853C7C0079047A007B001233BD8A088B1F
:108390000902846985188285198374FFF0740112BB
:1083A0002E6D74FFF07402122E6D74FF12A320FA6A
:1083B000A3E0FB7403122BF712D1B812341DE96449
:1083C00001600302844BE508240D12B0034480F8D9
:1083D000A3E0F97424122E6DE8F0A3E912C511A3ED
:1083E000A3A3E0C0E07426122E6DD0E012CFC0A38C
:1083F000E0540860167424122E6DA3E04401128725
:1084000050C0E07428122E6DD0E0F0E50812ED5C4B
:10841000350912CF99601CE508240F12CC88A3E01F
:10842000C812C4D938F583E0F87412122E6DE8F042
:10843000A3E4F090812212299D7404122BF7740793
:10844000122BEF122E7D7404122B6385088285098E
:1084500083A3A3A3A3A3A3A3A3A37406128750F982
:1084600012339F850A08850B09E508450970030248
:10847000853C7C007904AA08AB091233BD8A0A8BBB
:108480000B850882850983A3A3A3A3E0F510A3E0CD
:10849000F511E4F512F513780C7910122DC0402374
:1084A000E5082404F8E43509F9850C10850D1188D8
:1084B000828983C3E09510F0A3E0951112F1DF707B
:1084C000A2800E850882850983A3A3A3A3E4F0A359
:1084D000F0850882850983A3A3A3A3A3A3A3A3A3D1
:1084E000A3E06401850882850983A3A3A3A3A3A3B2
:1084F000702BE0540460030283948508828509830D
:10850000A3A3A3A3A3A3A3A3A37406F07AB7850888
:10851000828509831289331232F1028463A3A3A3F3
:10852000A3E06003028394850882850983A3A3A343
:10853000A3A3A3A3A3A37401F002846312338D7CCD
:108540000079017A007B001233BD8B09EA4509608E
:108550000C7A207B00900599E0F91240C5850C0A41
:10856000850D0B7C0079047A007B001233BDEA4B49
:10857000701580558A828B83A3A3A3A312E69BE583
:108580000898E5099940098A828B83A3A312874240
:108590007C0079041233BD8B0DA90DEA4970D5C357
:1085A000E50A9508E50B95095013C3E508950AF50A
:1085B00008E509950BF509E508450970147A207B53
:1085C00000900599E0F91240C59005AD129B4C80D2
:1085D0003FE50825E0F508E50933F509E4F50AF576
:1085E0000B7808122B997A207B00900599E0F912FC
:1085F00041EB7404122B6312420FEAC0E0EBC0E0BF
:10860000ED9005ADFBECFAD0E0F9D0E0F8122E5673
:10861000EE6420802FE0600764016003028706EEAD
:1086200054106008122F55EE64108018EE5440600C
:1086300008122FCDEE6440800BEE5480600B12497F
:10864000DDEE6480FAEF02872DEF5401600B1235E6
:108650007FEEFAEF640102872DEF54086047122F76
:1086600025901967E064017034901968E0602EF578
:1086700008E4F509F50AF50B908116780C122DE047
:108680007808790C12242E7808122B997A007B082E
:10869000900599E0F91241F17404122B63EEFAEFA0
:1086A000640802872DEF541060129005ABE060055E
:1086B000E4F0122F25EEFAEF64108071EF54406061
:1086C000459005D212CF9B6036901971E06401701D
:1086D0002E9005D312C8BD1227799005D812CF9BD2
:1086E000600612C8BD12277990811612299D7A0062
:1086F0007B40900599E0F91241F17404122B63EE6E
:10870000FAEF64408027EF5402600A123579EEFADE
:10871000EF64028018EF5404601612CE6F79019056
:10872000054C12CC9C122E9BEEFAEF6404FB8004E5
:108730007A007B007429122B637F0C02285F8E82E3
:108740008F83A3A312874822E0F508A3E0F509224E
:1087500012C515A3E022C082C08374EA122C177CD4
:10876000167D007900AA18AB1912406B7408122EFE
:108770006D7402F0900542129B1F128796740912C5
:108780002E6D12CCAB7413122E6DE412CFD212499F
:1087900053741602D58BE8F0A3E9F090054C12D57E
:1087A0004E2274F712259374DA122C17EAFEEBFFAF
:1087B000EE4F602DAC18AD1912341D7406122E6DDB
:1087C000E0601E7417122E6DE0FD7401122E6DE034
:1087D000FCEEFAEFFB79001232B5E9600479A4806F
:1087E000027900742602B3FD74F4122593EAFEEBBD
:1087F000FF8E828F83A3A3A3A3A3A3E05440601999
:1088000012E2FD12CC9C1234D7E960077AFF7BFF9D
:108810000288DD12E2FD0288D090197DE0600764D5
:108820000160030288C5900539E0A2E14003028897
:10883000C512B44312CD9BA3A3A3A3E0FA888289F7
:1088400083A3A312D91A8E828F83A3A3A3A3A3A366
:10885000A3E054106004794080027900750AFE7527
:108860000BFF780A122BA11289211229A5AC08ADA1
:108870000912E2FD12CC9C122F2B7404122B63E51B
:10888000086A7003E5096B600B12BF5A6A7003A394
:10889000E06B703F750A00780A122BA579028E8270
:1088A0008F8312B504FCA3E0FDAA08AB09123519A9
:1088B0007401122B637508CDAA0812892F1232F1A8
:1088C000E9604C805790197DE0640270E8900542A1
:1088D00012CC9C74FE6A700374FF6B60D812E2FDC8
:1088E00012E16D1234D7E98E828F83600B12BC784F
:1088F00012F4B1E4F0A3800312F49FF07CE57D3222
:108900008E828F8312CC9C124959E9F50870A9EE2A
:108910004F60097901EEFAEFFB123399A908028F33
:10892000D1EE128926222411F582E43FF583228EAE
:10893000828F8312F488E0F92274F6122593E9FEFF
:10894000EAFF7A0F7B00124083EA4B601F8A828B1A
:1089500083740CF0EEA3A3F0EF8A828B8312B1B97B
:10896000900599E0F912408F7900802FEEF91233CB
:10897000C38A088B09A808A909E849601C8882896C
:1089800083A3A3A3A3A3A3A3A3A3740612ED62E0EE
:10899000F9122FDFEEF912339F791002C91A74F41D
:1089A0001225938A088B098C0A8D0B900553E0647D
:1089B0000F702CEA4509450A450B602390054EE0EF
:1089C00064086005E0640470167808122B997A0137
:1089D0007B00900599E0F91241EB7404122B6302BD
:1089E0008FD174F2122593EAFEEBFF8C0A8D0B896E
:1089F00008740E122E6D12E6A0850C82F583E4F049
:108A0000A312CE64F5838882E0F91234B3E96026BC
:108A100012CC8F1234D7E96402701B8E828F83A32D
:108A2000A3A3A3A3A3A3A3A312BAE5850C82850DD8
:108A30008312CCAB800375080012B4FB14602E14B3
:108A4000604314606414606C146048147003028AFC
:108A5000D424FE7003028AEE147003028AF71470A5
:108A600003028B0A147003028B18028B2E780C12EF
:108A70002BA1AC0AAD0BEEFAEFFB122F3D740212E4
:108A80002B63028B13AC0AAD0BEEFAEFFB122F43F4
:108A9000028B3812CC8F1234D7E96003028B2EEE92
:108AA000FAEFFB122F91028B38A908EEFAEFFB12B6
:108AB000351F805F12B97964027073E508700A127D
:108AC000E2237003A3E069706FEEFAEFFBA90812CE
:108AD00034A7803F12E2237003A3E069705012B9FB
:108AE0007964027049EEFAEFFB12348F804AEEFA95
:108AF000EFFB12359D804112E2237003A3E0697001
:108B00002DEEFAEFFB12352B802EEEFAEFFBA908C3
:108B1000123537E9F5088020901971E06401700979
:108B2000EEFAEFFB123543800F750800800A7508D6
:108B3000007AD37B0012457BA9088007A90A740339
:108B4000122B637F0602285F74F412259374D612E9
:108B50002C178A088B098A828B83A3A3E0F912332E
:108B6000C38A0A8B0BAE0AAF0BEE4F7003028C7AEE
:108B7000850882850983A3A882A983E0C0E012CC7E
:108B800076D0E012E6ADE064F160338508828509B5
:108B900083A3E064CD6027850882850983A3E06410
:108BA0001A601B850882850983A3E064E9600F854C
:108BB0000882850983A3E064E16003028D72901945
:108BC0007DE0600764016003028C9B8E828F83A32B
:108BD000A3A3A3A3A3A3E054087003028C9B8E82DB
:108BE0008F83A3A3A3A3A3A3A3A3A37405F09019A6
:108BF0007DE0600464017053850882850983A3E0E9
:108C000064E960479005CE12CF9B600612C8BD1282
:108C100027799005D012CF9B6031900539E0A2E111
:108C2000502912D18EA3A3A312B9B78882898312C7
:108C3000CC9C1235D9EA4B6012850882850983A342
:108C4000E0F99005D012E3011227798E828F83A379
:108C5000A3A3A3A3A3A3A3A3E0640270108E828F97
:108C600083A3A3A3A3A3A3A3A3A37406F08508824D
:108C7000850983A3A3E0F912339F12338D90197DE8
:108C8000E064027011901A34E0F508A3E0AA08FB32
:108C9000E4FCFD1232F7742A028FCE790012339968
:108CA000E97003028D7290197DE060076401600332
:108CB000028D47900539E0A2E14003028D4712CFB3
:108CC000967003028D478E828F8312CC9C7404129F
:108CD0002BF712D1B812341D850882850983A3E0D1
:108CE00064E97023128E7C122BA585088285098386
:108CF000A3E0F50A780A122BA5128E8912CC9C12D9
:108D000034537402122B63740D122E6D12CF8C1219
:108D1000F10A12CCAB7409122E6DE0600479408028
:108D2000027900740F122E6D12B9B7740D122E6DE8
:108D300012CC9C122F37E9600E8E828F83A3A3A3DF
:108D4000A3A3A3E04420F0EE2404F50AE43FF50BCE
:108D50008E828F8312B010E0F9850A82850B831210
:108D6000CC9C124041850A82850B83EAF0A3EB027A
:108D70008BED850882850983A3E0C0E07402122E82
:108D80006DD0E012A80012E109E508240B12B0032F
:108D9000C0E07403122E6DD0E012E970E0AA18ABA7
:108DA000197031122E7790197DE0600464017027EC
:108DB0007402122E6DE0701F12E2FD12CC9C123470
:108DC000D7E970399005CE12CF9B603112C8BD1221
:108DD000277980031234AD7402122E6DE064E970BD
:108DE0001C128E7C122BA5750AE9780A122BA5128B
:108DF0008E8912CC9C1234537402122B6390197D0D
:108E0000E0600764016003028C4B900539E0A2E149
:108E10004003028C4B8E828F83A3A3A3A3A3A3A39F
:108E2000A3A3E06402703C8E828F83A3A3A3A3A3B9
:108E3000A3E05404602D12E2FD12CC9C1234D7E959
:108E40008E828F83700F12E30174FFF0A312A9B01A
:108E50007405028C6CA3A3A3A3A3A3A3A3A374036D
:108E6000028C6C850882850983A3E064E9600302B3
:108E70008C4BEEFAEFFB123555028C4B8E828F83B2
:108E800012DA50750A01780A22E508240C12BF791B
:108E9000E0F98A828B83A3A3A3A3A3A3A3A3A31212
:108EA000D9122274F4122593EAFEEBFF75080075BF
:108EB00009008E828F83A3A3A3A3A3E0603B750860
:108EC0000812CC8F79FF1230E18B0BEA450B601052
:108ED00075082C8E828F83A3A3A3A3A3E0D2E0F016
:108EE0008E828F83A3A3A3A3A3E054036401600332
:108EF000028FAD430811028FADEE241812B97C60C9
:108F000049EE241A12B97C6003F4701D12E223703A
:108F100003A3E0697006750822028FAD90054EE04C
:108F200064046003028FAD801CEE241BF582E43FD5
:108F300012B9C5241A12B97CFAEE2419129BDC125C
:108F40002FA3E97068750901806312CC8F1234D7A2
:108F5000E96402700375080112E2237003A3E0695B
:108F60007006E508D2E1F508E50860158E828F836A
:108F7000A3A3E07006E508D2E58004E508D2E6F593
:108F80000812CC8F1234D7E964017006E508D2E0EC
:108F9000F5088E828F83A3A3E0601212B4FBF9124E
:108FA00034B3E964016006E508C2E0F50890197D74
:108FB000E0600464017012E508A2E1400CE509A23A
:108FC000E04006E508D2E7F50802891C7418122B68
:108FD000637F0402285F74EC12259374C3122C176C
:108FE000EAFEEBFF85188285198374FEF0A304F076
:108FF00075100075110075090090197DE06402700C
:10900000248E828F83A3A3A3A3E06019901A321247
:10901000CF9B6011901A32E0F50AA3E0AA0AFBE4A4
:10902000FCFD1232F77405122BF78E828F83A3A3F7
:10903000A312CF8E12CC9A12341DE970030294123F
:1090400078017407122E6DE0C39402400278007418
:1090500009122E6DE0C3940240027800740E122EA5
:109060006DE064F87003A3E0F47003029412740ED0
:10907000122E6DE064F97003A3E0F4700302941201
:10908000740E122E6DE064FA7003A3E0F470030214
:109090009412740E122E6DE064FB7003A3E0F47062
:1090A000030294127408122E6DE0F990053CE069F9
:1090B0006003029412E8A2E0400302941290197D2A
:1090C000E06402700B7429122E6DE06003029412AA
:1090D00012BADC7424122E6D12B9E6241C12BADF07
:1090E0007412122E6D12CCAB740B122E6DE0601D3B
:1090F000741C122E6DE0FD7406122E6DE0FC8E8243
:109100008F8312CC9A79011232B5E9703D74051241
:109110002BEF123309E9F508740B122E6DE0702F56
:10912000900536E06029742255086422602174425B
:109130005508644270147422122E6D129AF8600F52
:109140007422122E6D129AFE60057ACF029414E9F1
:10915000A2E6506C90197DE060046401701B9005DC
:1091600039E0A2E150137422122E6D12B504122AB6
:109170002A01010B97910012947422122E6D12B5E0
:109180000424FD601214600F24FD600B24FD6007B1
:1091900024FE60030294127422122E6D129B37700B
:1091A0000F7422122E6DA312C8BDA3E0640D6010CF
:1091B0007405122BEF123513E964017003029AE172
:1091C000EE242DF582E43FF58312A3137003A3E090
:1091D000697021750A00780A122BA5780A122BA54E
:1091E000EE242F129BDC129B0412CC9C123453747D
:1091F00002122B63740B122E6DE070030292A31205
:109200009B0412CC9C1235D98A0A8B0BEA450B7051
:109210000302933A7406122E6DE0F88E828F83A3B8
:10922000A3E028F8A3E03400F9E8240D129AE6F848
:109230008A828B83A3A3A3E068600EE88A828B8373
:10924000A3A3A312B1A7129B4C79047406122E6D2E
:1092500012A663E02AF8A3E034008882F583A3AA6B
:1092600082AB831240778A0C8B0D8C0E8D0F850A92
:1092700082850B83A3A3A3A3780C122B07400302C0
:109280009AE1908172780C122D59850A82850B83A0
:10929000A3A3A3A3E50CF0A3E50DF0A3E50EF0A3B3
:1092A000E50FF090197DE0640260030293E79005FA
:1092B0004EE064046008E064096003029AE1E50896
:1092C000A2E54003029375EE242F12B97CC0E0742E
:1092D00002122E6DD0E0129B5DC0E07403122E6D61
:1092E000D0E0129B55C0E07404122E6DD0E0F074F3
:1092F00016122E6DE0640170267410122E6D129BF2
:10930000147003A3E0697017740E122E6D12CC9CBA
:109310001234D7E9640270077416122E6DE4F0124D
:109320009B4212299D7406122BF77409122BEF121F
:109330002E7D7404122B63029AE1900593E0640180
:1093400060030292A37422122E6D129AF87009E53E
:1093500008A2E650030292A37412122E6DE0F4707C
:1093600003A3E0F4600CEEFCEFFD7405122BEF128A
:109370003315029AE1A2E64003029AE17422122E0A
:109380006D12D19B7016741C122E6DE06402705425
:109390007405122BEF79001234A780487422122E24
:1093A0006D129AFE7014741C122E6DE064047034F9
:1093B0007405122BEF12349B802A7422122E6D1228
:1093C0009B37700C79007405122BEF12351F801437
:1093D0007422122E6D12B506640C70087405122BDF
:1093E000EF12354F029AE1E0600764016003029AD0
:1093F000E1900539E0A2E14003029AE17429122EBE
:109400006DE060267410122E6D12CC9C124AC7E9D2
:10941000700A7AD37B0012457B029AE18E828F8399
:10942000A3A312E301A3E0C2E5F07416122E6DE0CF
:10943000601DEE2402F8E43FF9E8FAE9FB12D1A13D
:1094400014F012D1A1F87416122E6DE8F07006E532
:1094500008C2E7F508E508A2E35061751110A2E221
:109460005018740A122E6DE054E3F0740A122E6D37
:10947000E0131313541FF8E0802CA2E4502A740A5E
:10948000122E6DE01313543F5407F86009740768F7
:10949000600B18E87007C3E508C2E7F508E8333346
:1094A00054FCF8E054E348F0740A122E6DE0C0E07A
:1094B0008E828F83A3A312B0EED0E0F090054EE031
:1094C00064046008E064096003029598740E122E2B
:1094D0006D12E2307003A3E069601F740E122E6DEE
:1094E00012CC9C1234D7E96402600F740A122E6DFC
:1094F000E0540364016003029AE17407122E6DE0E8
:109500007041EE242F12B97CC0E07402122E6DD08F
:10951000E0129B5DC0E07403122E6DD0E0129B55EB
:10952000C0E07404122E6DD0E0129B3D12299D7490
:1095300006122BF77409122BEF122E7D7404122BD6
:109540006380527422122E6D12D19B7016741C12FD
:109550002E6DE06402703E7405122BEF7900123418
:10956000A780327422122E6D129AFE7014741C128F
:109570002E6DE06404701E7405122BEF12349B8074
:10958000147422122E6D129B37700A790074051222
:109590002BEF12351F029AE1746155087003029691
:1095A0009FE508A2E0506D12B9AE7405122BEF12C0
:1095B0002FD3E9705C12344DE9F5097416122E6D43
:1095C000E0700F7410122E6D129B147003A3E069EB
:1095D0006042A90912B9AE7405122BEF122FD9E916
:1095E0006024E508A2E3500C85188285198374FF76
:1095F000F0A3800C740E122E6D129B1FE8F0A3E9ED
:10960000F0751004800EE508C2E5F50875090080C4
:109610000353089FE508A2E5503FEE242F12B97CC2
:10962000C0E07402122E6DD0E0129B5DC0E07403A6
:10963000122E6DD0E0129B55C0E07404122E6DD036
:10964000E0129B3D12299D7406122BF77409122B10
:10965000EF122E7D7404122B63E508A2E64003028C
:109660009974A818A919880A890B780A122BA1A93C
:1096700009129AEF122BEF1232FD7402122B63E9DA
:10968000F50970030299747422122E6D12B50464E8
:1096900001600302997474104510F51002997474F6
:1096A00007122E6DE06401705D7422122E6D12B5EA
:1096B000046405701EA818A9198808890978081279
:1096C0002BA1129AED122BEF1232FD7402122B63B2
:1096D000029AE17422122E6D129B377029740E12B9
:1096E0002E6D12CC9C124AC7E9601BA818A91988D4
:1096F0000A890B780A122BA1129AED122BEF123263
:10970000FD7402122B637416122E6DE0702574071F
:10971000122E6DE06401700C7422122E6DE0F812AE
:109720009B37600CEEFCEFFD7405122BEF12331526
:10973000029AE1123393E96003029AE1741D122E3A
:109740006DE070030297ED7420122E6D12B9B7749C
:109750001F122E6DE0FA741E122E6DE0F9122FA367
:10976000E9607D741F122E6DE0701E740E122E6D56
:10977000129B1F12F4C1FAA3E0FB124ABB8B0BEA47
:10978000450B600302996E80517420122E6D12CC2D
:109790009C741F122E6DE0F9122F9D851882851979
:1097A0008312E16D7808740D122E6DE0600278105E
:1097B000740C122E6DE06004740828F8740A122EDE
:1097C0006DE0600108088E828F83A3A3E028FAA3CE
:1097D000E034008A82F583E014F075104002996E3F
:1097E0007508007808122BA5790B029927740E12C0
:1097F0002E6D12CCA07409122E6DE0600302994206
:10980000E508A2E350030299427407122E6DE0644A
:1098100001607A790085188285198312CC9C122FF9
:10982000F78A0A8B0BA80AA90BE849601C88828971
:1098300083A3A3A3A3A3E06401605288828983A3C6
:10984000A3A3A3A3E064026044EE242D12B9B18562
:10985000188285198312CC9C1235D98A828B83E5B4
:10986000824583600FA3A3E0F91235F7E96005C3D1
:10987000940840197410122E6D12CC9C124AC7E93C
:10988000700302991D7409122E6D7404F07800E8BB
:10989000F5097809122BA5741E122E6DAC82AD83CA
:1098A000740F122E6D12CC9C740A122E6DE0F912F8
:1098B00030097401122B63E9600F7510208E828FBE
:1098C00083A3A312B504543FF0741D122E6DE06003
:1098D00023740E122E6D12B9B7741E122E6DAA8249
:1098E000AB8312341785188285198312E16D744099
:1098F0004510F5107407122E6DE0640160157900B3
:109900007410122E6D12B9B7740E122E6D12CC9CFB
:10991000122FA9E508A2E350377940803575080079
:109920007808122BA57902740F122E6D12B9B77434
:1099300011122E6D12CC9C1235197401122B630278
:109940009AE1E508A2E3400302988D784002988FDF
:1099500079007410122E6D12B9B7740E122E6D129A
:10996000CC9C122F37E9600674204510F510123494
:109970004DE9F509851882851983E064FE7003A31B
:10998000E0F4700375090090196AE0640160030255
:109990009A27EE241312B97CF47003A3E0F4700349
:1099A000029A27740E122E6DC3E094F9A3E094FF7F
:1099B000507512BADC7410122E6DE0687003A3E0CB
:1099C0006960647410122E6D12CC9C124ABB8A0A14
:1099D0008B0BA80AA90BE849604D88828983A3A351
:1099E000A3A3E06401600D88828983A3A3A3A3E0FD
:1099F000640270337430122E6D740112E6B7F8A34E
:109A0000E0F9743B122E6D12CCAB7430122BEF12B6
:109A10004B21E960127433122E6DAA82AB83124A75
:109A200073E96003124503E508A2E74003029AE1E7
:109A3000E5097003029AE18E828F83A3A3A3A3E0BA
:109A4000FA7B001241258A0A8B0BEA450B70030250
:109A50009AE1EE2404F512E43FF5138E828F83A37E
:109A6000129B29122B9D851282851383E0FC7D00B9
:109A700012405F7403122B637407122E6DE0C0E076
:109A8000742B122E6DD0E0F0742E122E6DE4F0A324
:109A9000F0742B122BE7880C890D780C122BA17512
:109AA00008007808122BA57810122BA1E509F508FB
:109AB0007808122BA512B9701229A5851282851378
:109AC00083E0F97408122E6D12B9B7AA0AAB0B1213
:109AD000340B7408122B63E96007AA0AAB0B12411E
:109AE0002B743D028736F582E412EEF522790012DE
:109AF000B97412B9BB74072212B51E64062212B5DE
:109B000020640722EE242BF582E43FF58312B9CBC3
:109B100012B9752212D54EEE241312BF61682212BB
:109B2000D54E85188285198322A3E0F50CA3E0F5B4
:109B30000D750E00780C2212B520640322F0129BE2
:109B40004222EE2425F582E43FF58322E4F0A3F0DF
:109B5000A3F0A3F022F0EE243112BF6122F0EE2434
:109B60003012BF612274F4122593EAFEEBFF8C08D9
:109B70008D09901967E0600F12E2237003A3E0697A
:109B80007005122F258052790012CC8F122FF78A80
:109B9000828B83E58245836035A3A3A3A3A3A3E0BF
:109BA0005418602AE508241C12CC881229A5E5085F
:109BB000241312CC881229A5EE2418129BDC129BC8
:109BC000E112CC9C12300F7404122B63800B7900CD
:109BD000129BE112CC9C122F4F028FD112BF61F960
:109BE000228E828F83A3A3A3A3A3A3A3A3A312B9AB
:109BF000CB12CC7B2274F012259374EA122C178AB4
:109C00000A8B0BEA2402F50EE4350BF50F0A0AFB6A
:109C1000124AB58A088B09AE08AF09750801850A92
:109C200082850B83A3E0F509750C01AC0EAD0F74B2
:109C30000B122E6DAA82AB831242397413122E6D51
:109C400074FEF0A304F07415122E6D7402F0740803
:109C5000122E6DE4F0901993E0700EEE4F700AE54D
:109C60000970067508C3029E3190054EE0640860D5
:109C7000067508C2029E2D850A82850B83A3A3A3C5
:109C8000A3A3A3A3A3A3A3E0A2E1500EA2E35005C4
:109C9000750C04800C750C038007A2E35003750C4F
:109CA00002EE4F7003029D408E828F83A3A3A3A375
:109CB000E06404600D8E828F83A3A3A3A3E06403FA
:109CC000700C7404650C602C7403650C60268E8225
:109CD0008F83A3A3A3A3E06402600D8E828F83A36E
:109CE000A3A3A3E0640170317402650C60067401E3
:109CF000650C70188E828F8312CC9C1234F5E9703B
:109D00003F12A9A6122E6D12CCAB80348E828F83A7
:109D1000A3A3A3A3E06402600D8E828F83A3A3A3F9
:109D2000A3E06401700A8E828F8312CC9C122F6D87
:109D3000E50A2402FAE4350BFB124A737E007F0029
:109D40007413122E6DE064FE7003A3E0F4704612EB
:109D50004B15E97040E509601B90199C12CC9C12D0
:109D600034F5E9700F90199C12A9AA122E6DE8F033
:109D7000A3E98020850A82850B83A3A3A3A3A3A3C1
:109D8000A3A3A3A3E05402F9122F617413122E6D42
:109D9000EAF0A3EBF07413122E6DE064FE7003A3DF
:109DA000E0F470067508C7029E2DE509F50D780DE3
:109DB000122BA5850A82850B83A3A3A3A3A3A3A328
:109DC000A3A3A3E0F9E50A2402FCE4350BFD741417
:109DD000122E6D12CC9C122EA17401122B63E9700D
:109DE0004CA90CE50A2402FCE4350BFD7413122E79
:109DF0006D12CC9C124ADF8A0E8B0FAE0EAF0FEEA7
:109E00004F601F74026509700D8E828F83A3A3A318
:109E1000A3A3E0D2E3F07415122E6DE4F0750800F0
:109E2000800B7413122E6D74FEF0A304F0E509701C
:109E300009AA18AB1912493B800AFCA90CAA18AB55
:109E400019123495E9FCEE4F6053E50960208E82CB
:109E50008F83A3A3A3A3A3E0D2E6F07402650970E5
:109E60000D8E828F83A3A3A3A3A3E0D2E5F0850A7E
:109E700082850B83A3A3A3A3A3A3A3A3A3A3E0A26D
:109E8000E6500D8E828F83A3A3A3A3A3E0D2E7F0B5
:109E90008E828F83A3A3A3A3A3A3E004F0E508709D
:109EA0003BEC60337D007A017B1012403BEE4F604B
:109EB0000CE50A2402FAE4350BFB124A7374131200
:109EC0002E6DE064FE7003A3E0F4600B7413122E99
:109ED0006D12CC9C122F6D741602D93CFC80C57497
:109EE000F712259374F7122C17EAFEEBFF90054E3C
:109EF000E06403600DE064016008E064096003024F
:109F0000A02E8E828F83A3E06003029FEC7C007DF5
:109F1000007A027B0012403B12A0338A828B8312AC
:109F2000BAE590053F12CCAB795312492F90054EFC
:109F3000E06409600990054C12CC9C1235D3851859
:109F400082851983740112CFD2794212492F90056C
:109F50004E7404F07401122BEF794A1249297401EE
:109F6000122BF77A447B0512423990178AE0640B72
:109F700070057406F0800B790090054C12CC9C1291
:109F80002E9B90197DE060046401701F900542E0F3
:109F900064FE7003A3E0F4602A79007401122BF7C9
:109FA00090054212CC9C124ADF8018E064027013C4
:109FB00090053F12B9B77A037B0012403B12A8927A
:109FC00012403B900539E0A2E35004D2F08002C277
:109FD000F012CFC8795212492F90197DE0640270B7
:109FE0004A901A2E122E3E1232F7803FFC7D007AE4
:109FF000037B1012403B90197DE06402701B9017A8
:10A000008AE0640B7003740AF090196BE4F0FA7B39
:10A0100040900599E0F91241F78E828F8312A03D9E
:10A0200012CC9C122E9B90054EE4F01233637409FF
:10A0300002B3FDEE2402FAE43FFB22E0F8A3E0F9CC
:10A0400090054C22C082C0839004D512CF9B701F14
:10A0500090054EE014600924FC600A14600C800F27
:10A060009004E080349004DC802F9004DE802AE8A5
:10A070004960089004D612A674700C8A828B83A360
:10A08000E0F9122E83801D9004D512D1A5640270D0
:10A090000512356D800E9005CC12CF9B600612C85C
:10A0A000BD12277902C58874F412259374FE122C10
:10A0B000178A088B097A007B04900599E0F9124110
:10A0C000F7AA18AB1979501249297A0F7B00124070
:10A0D000838A0A8B0BAE0AAF0BEE4F602085088295
:10A0E000850983A3E0701690054CE0F47003A3E0AB
:10A0F000F4603B12A30D7003A3E069603185088210
:10A10000850983A374EA12A7F812492F7A427B05C6
:10A11000794B12492F7A4C7B05795012492F7A419D
:10A120007B0579E112492FEE4F700302A1B78E82B1
:10A130008F837402F090054CE0F47003A3E0F460A8
:10A140000A12A30D7003A3E069704F851882851968
:10A150008312A03BE8F0A3E912A7F8124929900561
:10A160003F12B02112CCAB7A427B05794B124929C0
:10A170007A417B0579E1124929750A00780A122B88
:10A18000A5780A122BA59019E212A03E12AD571223
:10A19000CC9C1234537402122B6385088285098388
:10A1A00012A1BCA3F090054E7403F0EEFAEFFB9001
:10A1B0000599E0F912408F7402028FCEA3E08E82DF
:10A1C0008F832274F412259374E8122C17EAFCEBA7
:10A1D000FD8C828D83A3A3A3A37808122DE07808B9
:10A1E000122DA090054F7808122D337F7F7E7F7946
:10A1F0000090054F7808122DE0E97808122BCEE583
:10A2000008A2E05029780090059A8014850882857C
:10A210000983A3A3E069700108E508241412CC881F
:10A2200012AA4170E7E8C39F5004E8FFE9FE09E97C
:10A23000C3941B40BC8C828D83A3A3A3A3122E1AAC
:10A24000E8494A4B6079EC2404F508E43DF50985BA
:10A250000882F583122E1A90054F122E567C187D17
:10A26000007900AA18AB1912406B85088285098312
:10A27000122E1A851882851983122E567404122EF6
:10A280006D7401F0900555E0C0E07405122E6DD09C
:10A29000E0F07407122E6DE412CFD2124947806AA3
:10A2A00090054C12CC9C122ED18A0A8B0BA80AA9BD
:10A2B0000B90054C12A31C687003A3E069602D90FD
:10A2C000059A12AA41602585088285098312A31385
:10A2D0007003A3E069700C850882850983A3A3E05D
:10A2E0006E60BDE508241412CC8880D6EE9005413E
:10A2F000F0123345E9601390054EE4F09004E21249
:10A30000CF9B600612C8BB122779028FCC851882BA
:10A3100085198312D54E90054CE06822E8F0A3E938
:10A3200012A32422F0850882850983E02274F412A6
:10A33000259374E8122C178A828B83A3A3A3A3A36B
:10A34000A3A3A3A312DA4C7C0090054F7808122D2A
:10A35000E0EC7808122BCEE508A2E0502FECF8EAEA
:10A360002812BAD4F890199BE0C398501F750801C1
:10A37000750900750A00750B00EC7808122B267819
:10A3800008122DA090054F7808122D330CECC394C1
:10A390001B40B690054F122E1AE8494A4B604E7C7E
:10A3A000187D007900AA18AB1912406B90054F1266
:10A3B0002E1A851882851983122E567404122E6D5A
:10A3C0007401F07407122E6D7401F0900555E0C011
:10A3D000E07405122E6DD0E0F07407122E6DE412B9
:10A3E000CFD212494790054E7406F0801C90054E5E
:10A3F000E4F0FCFD7A047B1012403B9004E212CFA3
:10A400009B600612C8BB122779028FCC74F5122507
:10A410009374D1122C178A088B098A828B8312BC01
:10A4200070741C122BF78A828B83A3A3A3A3A3A30C
:10A43000A312A66C12CC93123375741C122E6DE00D
:10A44000702C850882850983A3A3A3A3A3A3A3A338
:10A45000E0C3940B40188E828F83A3A3A3A3A3A36E
:10A46000A3A3E06402700712CC76E0F4600302A6B6
:10A470005E90054EE06402700302A543E06406703E
:10A480000302A5439004D512CF9B600812A67470F6
:10A490000302A57790054EE064086008E06404605C
:10A4A0000302A65E741E122E6D12A663A3A3A3A3BD
:10A4B00012BC709004D5E0F849600712D1AB640279
:10A4C000607790054CE06E7003A3E06F600302A616
:10A4D0005E74016A60167423122E6DAC82AD837AAD
:10A4E000607B05124233E9600302A65E7A007B02BC
:10A4F000900599E0F91241FDEA4B4C4D600302A62C
:10A500005E90054F122E1A851882851983122E56D9
:10A51000900555E0C0E07404122E6DD0E0F0740593
:10A52000122E6D7401F07406122E6D740212CFD2C9
:10A530001249F5E9600302A65BEEFAEFFB123567FC
:10A5400002A65E9004D512CF9B702C750800780887
:10A55000122BA57808122BA5EE2410F582E43FF506
:10A560008312CF8FA3A3A3A3A312B9D412CC9C129E
:10A5700034537402122B638E828F8312BAE57407F0
:10A58000122E6DE8F0A3E912A9B012BAE57409120F
:10A590002E6D12B9E612BF6BC0E0740B122E6DD097
:10A5A000E0F012CC76128744740F7808122DEF7405
:10A5B0000C122E6DE508F07420122E6DE0C0E074D0
:10A5C0000D122E6DD0E0F07422122E6DE0C0E074FA
:10A5D0000E122E6DD0E0F0741D122E6DE0C0E074EE
:10A5E00010122E6DD0E0F0741E122E6DE0C0E074DB
:10A5F0000F122E6DD0E0F0EE241012B97CC0E07482
:10A6000011122E6DD0E0F07421122E6DE0C0E074B6
:10A6100012122E6DD0E0F0742E122E6DE0C0E07498
:10A6200013122E6DD0E0F07423122E6DA982AA832E
:10A6300089088A09750A007808122B9D7C087D001C
:10A640007417122E6DAA82AB8312405F7403122B13
:10A65000637407122BEF122E9580031249EF742FAB
:10A6600002B66DE0FA8E828F83A3A322A3E0F98A5B
:10A67000828B832212D1AC64012274F71225937469
:10A68000C9122C1712358590054EE06408601F90A2
:10A690005166E493900530F0905166E49390052E56
:10A6A000F0900557740112A7EFA30412A7EF7C23C3
:10A6B0007D0079007414122BEF12406B90055FE05F
:10A6C0007009741E122E6D74018006741E122E6D98
:10A6D000E412A800740FF090199A12CFD2794612A2
:10A6E000492F7401122E6DE4F0901A47E0C0E07417
:10A6F00002122E6DD0E0F090053CE0C0E074031231
:10A700002E6DD0E0F07404122E6DE4F07405122E5C
:10A710006DE4F07407122E6DE4F090055FE0C394D1
:10A720000F500CE0C0E07406122E6DD0E08007746C
:10A7300006122E6D740FF07C607D057408122E6D6C
:10A74000AA82AB831242397C037D0079FF74101218
:10A750002E6DAA82AB8312406B900598E0C0E07426
:10A7600013122E6DD0E012CBDC7401122BEF1233DA
:10A770006F7A9C7B05794512492F123483900553DB
:10A78000E0C0E0741C122E6DD0E0F0900554E0C0E3
:10A79000E0741D122E6DD0E0F0900541E0C0E07431
:10A7A0001A122E6DD0E012879A7418122E6D12CCE8
:10A7B000AB7420122E6DE4F0900556E0C0E0741FDB
:10A7C000122E6DD0E0F07434122E6DE4F074291264
:10A7D0002E6DE412A7F812492F7A427B05794B12AD
:10A7E000492F7414122BEF12494D743702B3FDF048
:10A7F000A3E4F0A3F0A3F022F07A3F7B0579532283
:10A8000012A80422F085188285198322C082C08391
:10A810008A828B83A3E090054E6004E4F08070741C
:10A8200008F090055FE070289004E212CF9B60086A
:10A83000790012C8BD12277990054C12B9B77A0574
:10A840007B0012403B90054C12CC9C1235D38018F3
:10A850007900122E8F90053F12B9B77A067B00124D
:10A86000403B12A89212403B9005D212CF9B601F32
:10A87000901971E06401701790811612299D7A0079
:10A880007B40900599E0F91241F17404122B6302A8
:10A89000C58890054212B9BB7A047B002274F41279
:10A8A000259374EA122C178A088B09EA2402FAE429
:10A8B0003509FB124AB58A0A8B0BAE0AAF0BEE4F75
:10A8C000700302A9A18E828F83A3A3A3A3E06401D6
:10A8D000602A8E828F83A3A3A3A3E06402601D8EEF
:10A8E000828F83A3A3A3A3E0640360108E828F836F
:10A8F000A3A3A3A3E06404600302A9A1E5082402C2
:10A90000FCE43509FD740B122E6DAA82AB83124252
:10A910003912A9A6122E6D12CCAB7415122E6D74BD
:10A9200001F07408122E6DE412CFD2124941E9FCF5
:10A930007D007A077B0012403B8E828F83A3A3A306
:10A94000A3A3E0C2E012A9B0740112E97F5001098B
:10A950007A027B00122336E88E828F83A3A3A3A3FF
:10A96000A3A3A3A3F0901971E06401703490196B54
:10A97000E06402702C8E828F83A3A3A3A3E0640102
:10A98000600D8E828F83A3A3A3A3E06402701212D2
:10A99000B970122E1A12C25F122E56EE241B12CF5D
:10A9A000827416028FCE8E828F8312D54E7413223C
:10A9B00012A9B42212C295A3A3A3A32274F2122552
:10A9C0009374F8122C17EAFEEBFF8C0A8D0B890D9D
:10A9D0009080C8AC18AD197408122AC7750C00EE27
:10A9E000FCEFFDAA18AB19124233E97003750C0194
:10A9F00090059A801AEEFCEFFDE508240BFAE43589
:10AA000009FB124233E97023E508241412CC8812A2
:10AA1000AA416024E50CA2E040DB85088285098319
:10AA2000E0650A7004A3E0650B70DD850882850986
:10AA300083A3A3E0650D70D0AA08AB097408028B4C
:10AA400040128748E508450922C082C08390059AD4
:10AA500002C58574F712259390059A12F105800CB2
:10AA600012D7B412BC7312412BEEFAEFFBEA4B7013
:10AA7000EF90059AE4F0A3F002B40074F412259369
:10AA8000EAFEEBFFEE241312B97C6403700CEE2493
:10AA90000BFAE43FFB124AB5800EE06402707C12B0
:10AAA000CC7612CC9C124ABB8A088B09E508450972
:10AAB00060698E828F83A3E0700F85088285098389
:10AAC000A3A3A3A3A3A3E4805164F1600A8E828FA1
:10AAD00083A3E064E17027850882850983A3A3A38B
:10AAE000A3A3A3E06401701685088285098312CCB4
:10AAF0009C122F6DEE240BFAE43FFB124A7385087B
:10AB000082850983A3A3A3A3A3A3E0600E85088283
:10AB1000850983A3A3A3A3A3A314F0028FD174F187
:10AB20001225938A088B09ECFEEDFF890A8A828B35
:10AB30008312DBEF8A828B8312A1BC12ABF08A8274
:10AB40008B83A3A3E0C454F0FA88828983E04A127D
:10AB5000AC0012A1BC12ABFAE0333354FCF88E8285
:10AB60008F83E04812ABFAA3E033333354F8F88E06
:10AB7000828F83E04812ABF08508828B83A3A3A366
:10AB8000A3A3A3E0A2E0E4331313FA88828983E04D
:10AB90004AF0E5082407F50CE43509F50D750E00BB
:10ABA000780C122B9D7C087D00EEFAEFFB12405FC3
:10ABB0007403122B63EE2408FE50010FE508240FE6
:10ABC000F50CE43509F50D780C122B9D7C037D0006
:10ABD000EEFAEFFB12405F7403122B63E50AC39495
:10ABE0000F400A12CC8412A1BDA3A3A3F002E95125
:10ABF000F0EEF8EFF9A30EAF832212AC00A3A3226C
:10AC0000F08508828B83A3A32274F1122593EAFEB8
:10AC1000EBFF890A8C088D098E828F83E08C828DF0
:10AC20008312BF9CAE82AF83E012C34B12C535C402
:10AC300012C34B12ACC8E012C35212C533A2E2E4F5
:10AC4000338C828D8312C532131313541F12C34BDE
:10AC500012C531A2E7E4338C828D83A3A3A3A31290
:10AC6000ACC88E0C8F0D750E00780C122B9D7C08D5
:10AC70007D00E5082407FAE43509FB12405F740300
:10AC8000122B63EE2408FE50010F8E0C8F0D780CF2
:10AC9000122B9D7C037D00E508240FFAE43509FBA7
:10ACA00012405F7403122B63E50AC3940F40118EA8
:10ACB000828F83A3A3A3E0C0E012CC84D0E0800401
:10ACC00012CC84E4F002E951A3A312BFA00EAF831B
:10ACD0002274F51225938A088B098A828B83A3AE8E
:10ACE00082AF83E0F9122EB98E828F83E064EB602D
:10ACF00024850882850983A3E064E16018850882C1
:10AD0000850983A3E064F1600C850882850983A32B
:10AD1000E0641A7009850882850983A3E4F0901A1B
:10AD20002E122E3E1232F7750A01780A122BA585D3
:10AD30000882850983A3E0F5087808122BA579001D
:10AD400090054C12AD5712CC9C1234537402122B46
:10AD50006312338D02B67012B9BB90054222C082D5
:10AD6000C083E99005AC7003E480027401801EE0AA
:10AD7000F902C588C082C0837CE57D328A828B83DC
:10AD800012CC9C12495902C588EAF0A3EBF002C527
:10AD90008874F61225939005ACE0701B7C00790155
:10ADA0007A007B001233BDEA4B600C8A828B8312DF
:10ADB000CF9B60031232EB02C91AC082C0837904B0
:10ADC0001233B7E9F8905155E493C398401079FFD6
:10ADD0001233B7E9F890515AE493C39850047901BB
:10ADE0008002790002C58874F01225938A088B09C5
:10ADF000890B750C008A828B83A3A3A3A3A3A3A3AF
:10AE0000A3E0F91233C38A0E8B0FAE0EAF0F750A93
:10AE100001EE4F600302AED285088285098312B02D
:10AE200010A3A3A3A3A3A312C05912CC9C1233ABAB
:10AE30008A0C8B0DAE0CAF0DEE4F700302AFFB8E84
:10AE4000828F83A3A3A3A3E4F0A3F0E508240CFA64
:10AE5000E43509FB8A828B83E0C0E012E975D0E01B
:10AE6000F0E508240D12B00812DBBD12CCAB123491
:10AE7000E3EE240F12E167E508241112B0081289ED
:10AE80002212CCABE508241312B003C0E012B97053
:10AE9000D0E0F0750C01EE240612BF51E0547FF0B3
:10AEA000A3E054FC12E6ADE05404600302AF499005
:10AEB0001A40E0F50875090074077808122D208EF5
:10AEC000828F83A3A3A3A3A3A3E04508F0A3E04537
:10AED00009F08E828F83A3A3A3A3128742740778FD
:10AEE00008122DEFE5085407FCE50B606C8E828F8D
:10AEF00083A3A3A3A3A3A3A3A3A3740212C536127F
:10AF0000B2D7600B90053A12B021A3A312CCABECE0
:10AF1000700302AFC4EE240612F453547FF508A365
:10AF2000E054FCF509EC24FFF50EE434FFF50F7452
:10AF300007780E122D20E508450EF8E509450FF9B2
:10AF40008A828B8312CCAB807B8E828F83A3A3A358
:10AF5000A3A3A3E0448002AED1EC7005750A008083
:10AF6000638E828F83A3A3A3A3A3A3E05420600CCA
:10AF700012407DEA547F7900245F80198E828F838E
:10AF8000A3A3A3A3A3A3E05410601A12407DEA5424
:10AF90000F7900240A5001098E828F83A3A3A3A3F3
:10AFA000F0A3E9800D8E828F83A3A3A3A37401F085
:10AFB000A3E412A9B07404F07A207B00900599E014
:10AFC000F91240C5E50CA2E0503412B9D0A3A3A3F6
:10AFD000A3A3A3A3A3A3E0F9EEFAEFFB1233B1E915
:10AFE000601C12ED5B3F12CF99600912B52E12CC96
:10AFF0009C12412BEEFAEFFB12412B750A00A90AB5
:10B0000002D93F12BF79E02212BF7912D54EEE224B
:10B01000A3A3A3A3A3A312B9BB850882850983A315
:10B020002212D54E8E828F83A3A32274F41225930D
:10B0300074F7122C177E001233C3EA4B700302B070
:10B04000E78A828B83A3A3A3A3A3A3A3A3A3E06400
:10B0500006600302B0E78A828B83A3A3A3A3A3A302
:10B06000A3E0FF8A828B8312B0EEE0C0E074081286
:10B070002E6DD0E012B51512CCA11233E1EF5408B9
:10B08000606385188285198312B9B77A007B001234
:10B0900033A58B0BEA450B704C12F5AD1249717C50
:10B0A000007D007A007B0080288E828F8312B50499
:10B0B000F47003A3E0F4602D90054C12B9D812CCC3
:10B0C0009C12496BE9641A601C7C007D00EEFAEF6B
:10B0D000FB1233A58A0A8B0BAE0AAF0BEE4F70C979
:10B0E00079001249777E01EEF97409028FCE12BC05
:10B0F0007C12B0F5222408F582E438F58322C08260
:10B10000C083EA4B70059005B180068A828B83A3C9
:10B11000A312B30B60258A828B83A3A3A3A3A3A34B
:10B12000A3E0540860E5EC4D60158A828B8312B56C
:10B13000046C7003A3E06D70D280047A007B00027F
:10B14000C58874F2122593EAFEEBFF890A8C088DFC
:10B15000097A147B00124125EA4B603F8A828B8377
:10B16000A3A3A3A3A3A3A3A3A3E412B50AA3E50ADD
:10B1700012B1A7A3A312DD2A8A828B83A3A3A3A360
:10B18000E4F0A312B52812B1B912E105EA12ED5CA0
:10B190003BF583E4F012B19EF0A3F0028B43A3F0E1
:10B1A0008A828B83A3A32212B1AB2212B1AF22F009
:10B1B0008A828B83A3A3A3A322A3F012F4743BF58A
:10B1C00083E4F02274F4122593EAFEEBFF89088CE5
:10B1D0000A8D0BEE4F700302B260740165087012A5
:10B1E00079011233B7E9F8905160E493C398502283
:10B1F000801674046508701479041233B7E9F89066
:10B200005155E493C398500A791180567402650829
:10B21000704E8E828F83A3A3A3A3A3A3A3A3A3E5AE
:10B220000812B9E012DBCAE4F0A3F09005B112CF26
:10B230009B60178003E0F8A312CDA2A3A312B30B67
:10B2400088828983A3A370ED80039005B112E10980
:10B250007A207B00900599E0F91240C579008002C0
:10B2600079C1028FD1C082C083E9F879009005B11D
:10B27000801D8A828B83A3A3A3A3A3A3A3A3A3E07C
:10B2800068600574FF687001098A828B83A3A3122A
:10B29000B30B70DE02C58874F7122593EA4B700574
:10B2A0009005B180068A828B83A3A312B30B602022
:10B2B0008A828B83A3A3A3A3A3A3A3A3A3E0697000
:10B2C000E4EC60108A828B83E012B2D770D78004DE
:10B2D0007A007B0002B40012F4A9E0540422C08278
:10B2E000C0839005B180068A828B83A3A312B30B1F
:10B2F00060128A828B83A3A3A3A3A3A3A3A3E06961
:10B3000070E580047A007B0002C58812D1D0EA4B38
:10B310002274F7122593EAFCEBFD9005B180068AB2
:10B32000828B83A3A312B30B60248A828B8312B512
:10B33000046C7003A3E06D70E68A828B83A3E0C87F
:10B3400012BC6912D92BA2E0E43370D380047A00D6
:10B350007B0002B40074F21225938A0A8B0B8C0CCA
:10B360008D0D750800750900EA450B60309005B138
:10B3700080068E828F83A3A312BC73EE4F601EAC37
:10B380000CAD0DEEFAEFFB850A82850B831227794F
:10B39000E9640170DDEEF8EFF988088909AA08ABC5
:10B3A00009028B437900022B4B74F7122593900509
:10B3B000B112BAE57C007D00800DE8FCE9FD8882D1
:10B3C0008983A3A312BAE5E8496030EA687002EB0A
:10B3D0006970E79005B112CC9CE86A7002E96B884D
:10B3E000828983A3A3700812BAE59005B18009127F
:10B3F000BAE58C828D83A3A312CCAB8003122B639E
:10B400007F0102285F74F7122593EAFEEBFFEE4FEF
:10B41000602F1233DB12B44312CC9C12412B8E826C
:10B420008F8312CC9C12412B12ED5B3F12CF99609F
:10B430000912B52E12CC9C12412BEEFAEFFB1241F1
:10B440002B80BD12CFA1F5832274F61225938A8238
:10B450008B8312B504F508A3E0F5099005B112BA83
:10B46000E57D007C00802F88828983A3A3A3A3A30A
:10B47000A3A3A3A3E0640570140C12DBE6F5838E8E
:10B4800082E065087004A3E0650970010D88828977
:10B4900083A3A312BAE5E84970CD905161E493F813
:10B4A000EDC398500890516412EEE3400F8A828BEE
:10B4B00083A3A3A3A37401F0A3E4801090053AE052
:10B4C000F812A66CA3A3A3A3E8F0A3E912B528740D
:10B4D0000512B50AE0440812B515F47003A3E0F4B0
:10B4E000601190054C12D90E12CC9C12496BE96484
:10B4F0001A7005790112497702C91AEE241DF582E6
:10B50000E43FF583E0F812B5202212B50E2212B105
:10B51000AFA3A3A322F08A828B8312B51E22E0F888
:10B52000A3E0F5838882E02212B50EA3A322EE12D7
:10B53000CD8722C082C083EAFCEBFDEC4D6017ECA6
:10B5400024FBF582ED34FF12CF99700712B58DE020
:10B55000F4600712408979058030900599E0C0E0D9
:10B5600012B58DD0E0F0905152E493F97AB37B0597
:10B570001240BFE9640170107A007B20900599E0C9
:10B58000F91240C579008002790402C588EC24FFD5
:10B59000F582ED34FFF5832274F4122593A2AFE413
:10B5A00033F508C2AF9005B312BC73EE4F603AEEAC
:10B5B00024FBF582EF34FF12CF997A007B209005AF
:10B5C000996007E0F91240C58005E0F91240CBE42C
:10B5D000F50AF50B780A122BA1EEFCEFFD7AB37B8E
:10B5E000051240B97402122B63E508A2E092AFEE97
:10B5F000FAEFFB028FD174F51225938A088B097537
:10B600000A009005B112DBEA805A8E828F8312B550
:10B610000465087004A3E06509703D8E828F83A3E2
:10B62000A3A3A3E4F0A312C2A6540460118E828FD8
:10B6300083A3A3A3A3A3A3A3A3E0F9122FDF8E8266
:10B640008F83A3A3A3A3A3A3A3A3A37406F07AF059
:10B6500012892F1232F1050A8E828F83A3A312BAA8
:10B66000E5E8FEE9FFEE4F70A1A90A8003122B6303
:10B670007F0302285F74F012259374D4122C17EA0A
:10B68000FEEBFF750B00750A007508FE7509FF12C9
:10B690003393E9600302B963EE241512B97C604468
:10B6A000901A5DE0C43354E0F8E0333354FC48C0F2
:10B6B000E012D73DD0E012B9E012CC9C79FF1230F5
:10B6C000E18B0DEA450D600F750B017508FF12CF78
:10B6D0008612CE5CD2E0F090197DE06004640170C7
:10B6E00003750A408E828F8312CC9A1234D7E96098
:10B6F0000312B988EE241312B97C700D90515DE4E9
:10B7000093C0E012B970D0E0F08E828F83E0A2E7A0
:10B71000500454038019EE241412B97C7012900561
:10B720002BE0C0E012F449D0E0F090052BE004F0EB
:10B7300012F4657016901A49E0600D900536E070BD
:10B740000A8E828F83E0700312CD7790197DE060BE
:10B75000046401704B900539E0A2E15043E50BA26F
:10B76000E040218E828F8312CC9A1234D7E9603068
:10B770008E828F83E0600DEE240B12B4FEF912343A
:10B78000B3E9601C12B994700302B915EE241312C8
:10B79000B97C6401600302B91512B52EE054FBF0C8
:10B7A0008E828F83E06401700DEE240B12B4FE6470
:10B7B00002700312B9A112B994600302B87BE50BC1
:10B7C000A2E0500302B87B90197DE060076401603D
:10B7D0000302B87B900539E0A2E1400302B87BE5A3
:10B7E0000AF50B780B122BA5EE2406FCE43FFD8E28
:10B7F000828F8312CC9AEE2412129BDC12300974D1
:10B8000001122B63E9600612B98812B99A8E828FF1
:10B8100083A3A3A3A3A3A3E0603CEE2402F50CE45E
:10B820003FF50D850C8212B9C52407FAE43FFB12DF
:10B8300034178A088B09850C82850D83E0650870B2
:10B8400004A3E06509700C8E828F83A3A3A3A3A336
:10B85000A3E4F012B9A18E828F83E06401600BA98A
:10B860000A12B9D412CC9A122FA9A90A12B9D0126D
:10B87000CC9A122F37E9600312B99AAC18AD19EEC1
:10B88000FAEFFB1234118A0A8B0B74FE6508700400
:10B8900074FF6509700312873EEA450B700302B915
:10B8A000678E828F83E0C0E07401122E6DD0E0F0CD
:10B8B0007404122E6D12E109EE241E12BADF740216
:10B8C000122E6D12CCAB7401122BE7880C890D7807
:10B8D0000C122BA1EE242012B980122BA512B52E2A
:10B8E0001229A5EE240E12B980122BA590053F1245
:10B8F00029A57408122E6DE0F9AC08AD0912340BBD
:10B900007408122B63E9FE74106E705DAA0AAB0B0B
:10B9100012412B8054EE241312B97CC0E07417122C
:10B920002E6DD0E012F4BA740F122E6D12B9E62407
:10B930000412F45812BAE57411122E6DE8F0A3E95E
:10B9400012BFC1C0E07418122E6DD0E012E96B1264
:10B95000A66D12B9B77406122BEF122FD9E9600346
:10B9600002B7A0791180047E10EEF9742C02D93C44
:10B9700012B97422EE12CDBF22EE241712BF61223B
:10B9800012BF61F50C780C22EE2412F582E43FF52B
:10B9900083E4F02212B9A854402212B9A84420F03E
:10B9A0002212B9A84440F022EE12CD8BE022EE2400
:10B9B00013F582E43FF58312B9BB2212B9BF22E02E
:10B9C000FCA3E0FD22F58312B9CB2212B9BFEE220F
:10B9D0008E828F83A3A3A3A312B9BB8E828F8322EF
:10B9E00012DBD622A3A3E8F0A3E9F0EE22C082C0C6
:10B9F0008374D7122C179080007403122BF77426CF
:10BA0000122AC78A828B83A3A3A3A312BAE5740E5A
:10BA1000122E6DE8F0A3E912D547740C122E6D12A8
:10BA2000BAE9240D12BAD4C0E0741A122E6DD0E017
:10BA3000F012D7BE12BAE37420122E6D12BAE924A6
:10BA40001512BAD4C0E07408122E6DD0E0F0EA24CA
:10BA50001CF582E43B12BAE37412122E6D12BAE99D
:10BA6000241112BAD4C0E07409122E6DD0E0F0EAAD
:10BA7000241212BAD4C0E07407122E6DD0E0F0EA9E
:10BA8000241EF582E43B12BAE37424122E6D12BA1E
:10BA9000E9242012BAD4C0E07426122E6DD0E01230
:10BAA000A80074FFF07401122E6D74FFF07402127E
:10BAB0002E6D74FFF090812212299D7404122BF7D1
:10BAC0007407122BEF122E7D7404122B637900740D
:10BAD0002902D58BF582E43BF583E022EE2413F5B1
:10BAE00082E43FF58312D54E22E8F0A3E9F0EA2282
:10BAF00074EE12259374EC122C178A0E8B0F8C089F
:10BB00008D09890C750A107A217B0012412512D506
:10BB100091E849700302BC62750B007C217D0079BD
:10BB200000851882851983E0FA12406B7429122E61
:10BB30006D12BC7390197DE060046401703EAA0828
:10BB4000AB09124ABB8A108B11A810A911E84960F1
:10BB50002388828983A3A3A3A3E06401600D888264
:10BB60008983A3A3A3A3E064037009EE5440700487
:10BB700074044FFFEF54046003750B0190054C12E1
:10BB8000CC9C85188285198312BC782409F582E43F
:10BB90003812E16B7426122E6D12BAE57411122E52
:10BBA0006DE8F0A3E912BC8112F46B12BC8112B0F3
:10BBB000F5740212F4C5F8A312C8BD12DE9412BCCB
:10BBC0008112F47BE50CF07428122E6DE0F50885E7
:10BBD000188285198312F484E50812BC8112BC69AD
:10BBE000F583E50EF0A3E50FF07406122E6D12E159
:10BBF000097408122E6DE508F0742C122E6D12E3F4
:10BC000001C082C083740C122E6DAC82AD83D083D0
:10BC1000D0827405122AC7742B122E6DE0C0E07416
:10BC200013122E6DD0E0F0A90BAA18AB191233999C
:10BC3000E96401702190197DE0600464017012E5EF
:10BC40000BA2E0500CA9081233C3EA4B6003123375
:10BC5000E7750A00800C85188285198312CC9C1226
:10BC6000412BA90A741402C2AC241FF582E43822C5
:10BC7000A3A3A312DBEAFF2212BC7C2212D5ABC81D
:10BC80002212D5A0C82274EE122593EAFEEBFF8C97
:10BC9000088D098E828F83A37408F0EE241612B9E2
:10BCA0007C60088E828F83A37410F012B9796009CA
:10BCB0008E828F83A3E02408F0EE241512B97C60F5
:10BCC000088E828F83A3E004F08E828F83A3A3A3C8
:10BCD000A3A3A3E060198E828F83A3A3A3A3A3A32E
:10BCE000A3E0C3332402F88E828F83A3E028F012EE
:10BCF000BF5A6005750B0E8003750B0090197DE02F
:10BD00006402701E901971E0640170168E828F8338
:10BD1000E06401600D90196BE0600712BF47740189
:10BD2000800412BF47E412BF9CE012BF6928250BB4
:10BD30008C828D83F012BF5A6013900537E0F912A0
:10BD400032BBE9F8850882850983E029F0850882FD
:10BD5000850983E0C39475400975080075090002E0
:10BD6000BF40E0FA7B001241258A088B09EA4509A9
:10BD7000700302BF408E828F83E0FA90053C12BFB1
:10BD8000957402780C122D20EA450CFAAB0DEE24C6
:10BD90001212B97C5403F50C750D007406780C1260
:10BDA0002D20EA450CFCEBFDEE241512B97C600455
:10BDB000780180027800EE2416FAE43FFBE8F9ED02
:10BDC00049FD12BF5AF50C7409780C122D20ED456F
:10BDD0000DFD8A828B8312BF95740B780C122D2077
:10BDE000ED450DFDEE241712BF8F740C780C122D4B
:10BDF00020ED450DFD8E828F83A3A3A3A3A3A312E1
:10BE0000BF95740A780C122D20ED450DFDEE24230C
:10BE100012BF8F740D780C122D20ECF8ED450DF942
:10BE2000E8850882850983F0E9A3F0EE240212BFB9
:10BE30005112C06312BFB7F0EE240412BF5112BFFB
:10BE40008112BFB7A3A312CDB512BF81A3A3A3A331
:10BE500012BFC1850882850983A3A3A3A3A3A3A3BB
:10BE6000F0750A088A828B83E06015EE241812B9F7
:10BE7000B1E5082408FAE43509FB124239750A10C5
:10BE800012B9796019EE241A12B9B1A80AE5082886
:10BE9000FAE43509FB1242397408250AF50A8E8244
:10BEA0008F83A3A3A3A3A3A3E06057EE2407F510F9
:10BEB000E43FF511851082F583E0C0E012BF70D039
:10BEC000E012BFA7E0C0E00812BF72D0E012BFA727
:10BED000129B29122B9D851082851183E025E0FCA1
:10BEE000E433FDA80AE50828FAE43509FB12405FAF
:10BEF0007403122B63851082851183E0C333250AF6
:10BF0000F50AEE241512B97C6008C0E012BF70D0AB
:10BF1000E0F012CC76129B2A122B9D12BF6AFC7D98
:10BF200000A80B8E828F83A3E0FAE5082AFAE43595
:10BF300009FBEA28FAE43BFB12405F7403122B630F
:10BF4000AA08AB0902C2AFEE2423F582E43FF583D1
:10BF500022F8E43FF9888289832212BF5E22EE2410
:10BF600011F582E43FF583E022F8EE12DBC1E02216
:10BF7000A80AE5082812BF7922F582E43509F5837D
:10BF80002212BF8522E0850882850983A3A322F5BA
:10BF900082E43FF583E0F50C750D002212BFA0226C
:10BFA000F08E828F83A322F0050A8E828F83A3A353
:10BFB000A3A3A3A3A3A322A3A312E6BD12BF85A399
:10BFC00022F0EE241412BF612274F412259374FD42
:10BFD000122C178A088B09ECFEEDFF7401122BE777
:10BFE000880A890B780A122BA17402122BF7EEFA39
:10BFF000EFFB122F857402122B63E97053851882B0
:10C0000085198312C063F07401122E6DE0F812C01E
:10C0100059A3A312F4C1602914850882850983A35A
:10C0200012F4C512DA457401122E6DE028F8A3E06F
:10C0300039F9E824FEF582E934FFF58312F1058031
:10C040000C850882850983A3E4F0EEFAEFFB8004F7
:10C050007AFE7BFF7403028FCEA3E0F98508828508
:10C06000098322E08508828509832274EE122593D4
:10C070008A0A8B0B8910ECFEEDFF750F017C267D83
:10C08000007900EEFAEFFB12406BE510C394085004
:10C090000302C1F88E828F83E510F0EEFCEFFD8580
:10C0A0000A82850B8312C503123423E96003750FDE
:10C0B0000012C4E58E828F8312C53DEE12C4D93FB3
:10C0C00012C527C0E0128921D0E012C51FC0E0EEE2
:10C0D0002412F582E43FF583D0E012BF9C7408126D
:10C0E000C28DA3A3E06018E50A2408F8E4350BF933
:10C0F00012B97012CCAB8E828F83A3E02408F08E2D
:10C10000828F83A3A3A3A3A3A3A3A3E060178E821C
:10C110008F83A385820885830912C4F812D73D1244
:10C12000A31C2408F0EE241912B98BEE241B12B9BB
:10C130008BA312C28DE0600F12C2748E828F83A314
:10C14000A3A3A3A312C2A0EE241812B97C70030209
:10C15000C1E812C274FAEE2419F582E43FF583EACD
:10C1600012C2A0F8E50A28F582E412F5A7F812DC5D
:10C17000FEE812C2A0E8C39AEE5068241912B97CF6
:10C18000F8905151E493C398500575110C8008EE56
:10C19000241912B97CF5118E828F83A3E0F8E50A89
:10C1A00028F50CE4350BF50D750E00780C122B9D5F
:10C1B000AC11EC2CFCE433FD7A397B0D12405F743A
:10C1C00003122B63EE241BF582E43FF5837439F0F0
:10C1D000A3740DF0E511C333F8850882850983E067
:10C1E00028800412CD6EE4F08E828F83A3E0F88E57
:10C1F000828F83E0C398500479008061A3E0FAE560
:10C200000A28F8E4350B12C269E8F0A3E912C53632
:10C21000C39AC0E012C25FD0E012C2A6603DEE2415
:10C2200017F8E43FF9880889098882F583E024F249
:10C23000F0EE241D12BF51E0240EFAA3E03400FBFF
:10C240008882898312E16D900537E0F91232BBE9EB
:10C25000F8850882850983E0C398F0A90F8050EE25
:10C260002417F582E43FF58322F9EE241DF582E4DC
:10C270003FF583228E828F83A3858208858309E020
:10C28000F8E50A28F582E4350BF583E02212C29125
:10C290002212C29522F08E828F83A3A3A3A3A3228E
:10C2A00012A32404F02212C291A3E022122B637F76
:10C2B0000A02285F74F41225938A088B09EA12C3D4
:10C2C00052A3A3F0EA1313543F12C34BA3A3A3F04A
:10C2D000EAC4131312C35212C3657409780A122DEB
:10C2E000EF12C359A3A3A3A3A3A3F0EB12C35B1242
:10C2F000C364740A780A122DEFE50A5401C0E0EC19
:10C300002418F582E43DF583D0E012C369740B78FC
:10C310000A122DEF12C35912C362740C780A122D3F
:10C32000EF12C359A312C362740D780A122DEFE500
:10C330000A5401C0E0EC2424F582E43DF583D0E00A
:10C34000F0740E7808122DEF02891C540F8C828D28
:10C35000832254038C828D8322E50A54018C828DC2
:10C360008322A3A3A3A3A3A3A3F08A0A8B0B22C0B7
:10C3700082C08379008A828B83A3A3A3A3A3A3E0B3
:10C38000900536600EE070238A828B83A3A3E07051
:10C390001A8016E060158A828B8312CC9390053F39
:10C3A000E06A7003A3E06B6002790102C58874F251
:10C3B0001225938A0A8B0B890C8C088D098A828B33
:10C3C0008312C50312342312C4E5850882850983CC
:10C3D00012C53DE50812C4D9350912C527C0E0E5EC
:10C3E00008241112CC88D0E012C51FC0E012CC8402
:10C3F000D0E012CFAF740812C511E06017E50A242F
:10C4000008F8E4350BF9E508241312C4DD12CFAFA8
:10C41000E02408F0850882850983A3A3A3A3A3A32E
:10C42000A3A3E06017850882850983A312C4F4E5FD
:10C4300008241512C4DD12C5362408F0850882854B
:10C440000983A3A3A3A3A3E06019850882850983B8
:10C45000A3AE82AF8312C27F85088285098312C58D
:10C460003104F0AA08AB09123429E9F50D7064858E
:10C470000882850983A3A3A3A3A3A312C063A37007
:10C480001AE0FAE50A2AF8E4350BF9E508241D124A
:10C49000CC8812CCABE50CC39A802C12C4F4E824EF
:10C4A0000EF8500109E508241D12CC8812CCAB907F
:10C4B0000537E0F91232BBE9F88E828F83E0F9E5A7
:10C4C0000CC39924F2C398C0E0E508241712CC8865
:10C4D000D0E0F0A90D028B43EA12F4752212BF7965
:10C4E000E8F0A3E922850A82850B83A3A312C55332
:10C4F000E0F9EA22AE82AF83E0F8E50A28F8E435F5
:10C500000BF922E0FAA3E0F8E4C8F9EA28E439FBE1
:10C510002212C5152212CFB7A3A3A3A3A3A322124D
:10C52000C566A3A3A3E022F583E812C55FA3A3E039
:10C5300022A3A3A3A3A3F08E828F83E022A3A3A3AD
:10C54000A3A3A3A3A3A312C55F12C553A3A3E0F99A
:10C55000EAF822E0FA850A82850B83A3A3A322F0DE
:10C56000A3E912C56622F0850A82850B83A3A3A3E3
:10C57000A322C082C0837AC17B0579E21249297A5D
:10C58000C17B05800312CC9CD083D082022B4BC090
:10C5900082C08390053F80EDC082C08390054280B9
:10C5A000E4C082C083794A12492980DC74F61225DE
:10C5B000939005C9E0FE04F0EEF91233C38B09EA4B
:10C5C000450970EDEE60EAF902C91A74EE1225937E
:10C5D000EAFEEBFF8C0E8D0F890C750A00750B00BF
:10C5E0001235D98A088B097412122E6DE0F50D747C
:10C5F00013122E6DE0F510EA45097017E51060037F
:10C6000002C6EDA90CAC0EAD0FEEFAEFFB1235FD34
:10C6100002C7ECE510700302C6B890197DE0600413
:10C620006401700E9005CE12CF9B600612C8BD1239
:10C630002779E50D700E850882850983E4F0750B76
:10C640000102C71090197DE060076401600302C712
:10C6500010900539E0A2E1400302C7109005D01206
:10C66000CF9B600CA90DAA08AB0912C8BD1227798F
:10C67000850882850983E0FA12E960500109C3EA5E
:10C6800098E499A2D265D033500985088285098340
:10C69000E004F0850882850983E0F8905153E49323
:10C6A00068706D750A01EEFAEFFB1230158508828D
:10C6B000850983A3E4F08058E50D701CEA2402127A
:10C6C000B003A80C28F8E4340013E813F070098ACA
:10C6D000828B83A3A37401F08A828B83A3A3E0F8E7
:10C6E0009019E2E0C3985052750B01804D740165BA
:10C6F00010701DE50D601990197DE06004640170F3
:10C700000F900539E0A2E15007EEFAEFFB12301569
:10C7100090197DE06402702274016510701CE50DB3
:10C720009005E06013E004F0901A41E0F89005E015
:10C73000E0C3984005750A01E4F0E50BA2E092F031
:10C74000E50AA2E072F0400302C7EC90197DE060B8
:10C750000464017041900539E0A2E15039EEFAEF2E
:10C76000FB124ABB8A088B09A808A909E849602678
:10C77000E50BA2E0500D88828983A3A3A3A3A3E0C5
:10C78000C2E0F0E50AA2E0506388828983A3A3A3F4
:10C79000A3A3E0D2E0F0E50AA2E0505090197DE0BA
:10C7A00060046401701D900539E0A2E15015EEFAB5
:10C7B000EFFB124AD3E9600BEEFAEFFB7900122E81
:10C7C000B38029900542E06E7003A3E06F701DEE08
:10C7D000FAEFFB7901122EB390197DE06402700C20
:10C7E0007A017B00900599E0F91241F702C2AF741B
:10C7F000F41225938A088B098C0A8D0B908172782C
:10C8000008122C6E700E7A017B00900599E0F912E7
:10C8100040C58035901A2E7808122DFEEA4509454C
:10C820000A450B60187808122B997A017B00900555
:10C8300099E0F91241EB7404122B63800C7A017BAE
:10C8400000900599E0F91241F7028FD1C082C083B0
:10C85000901A3202AD89C082C083901A3402AD8929
:10C8600074F612259375082B7509057808122BA10B
:10C870007C6E7D007A217B0012419D7402122B6335
:10C88000E9F508124B03E9420890197DE060046461
:10C89000017006124A3DE9420890070412CF9B60DE
:10C8A0000912C8BD122779E94208123105E9FE12C2
:10C8B0004899E9F8E5084E48F9805F79C4E0F583C6
:10C8C00088822274F612259312403575082B75095B
:10C8D000057808122BA175086E7509007808122BCF
:10C8E000A17C007D007A217B001241A97404122BE7
:10C8F00063124AFD90197DE0600464017003124ADE
:10C900003790070612CF9B600612C8BD1227791216
:10C91000310B1248AB8003122B637F0202285F7435
:10C92000F612259374FF122C177E0075082B7509DB
:10C93000057808122BA17C6E7D007A217B001241C4
:10C940009D7402122B63E9600302CA047808122B5B
:10C95000A175086E8E097808122BA17C007D007AE3
:10C96000217B001241AF7404122B63E9600302CAF9
:10C970000490053FE064FE7003A3E0F4700302CA74
:10C98000047E0190054EE064086005E06404706F69
:10C99000851882851983EE12CFD2794212492F7AF7
:10C9A000567B05794312492F7A537B057947124903
:10C9B0002F7A447B05794A12492F7A427B05794BBD
:10C9C00012492F7A4C7B05795012492F7A3F7B050B
:10C9D000795312492F7A547B05795412492F7A41A1
:10C9E0007B0579E112492F900539E0A2E35004D28A
:10C9F000F08002C2F012CFC8795212492F8005127E
:10CA000040357E00124B0F90197DE0600464017088
:10CA100003124A2590070812CF9B600612C8BD1268
:10CA20002779123117EEF9740102C91774F612252D
:10CA300093E9FEA2E0502675082B750905780812C7
:10CA40002BA175086E7509007808122BA17C007D5A
:10CA5000007A217B001241A97404122B63EEA2E339
:10CA60005003124B0990197DE0600464017008EED8
:10CA7000A2E15003124A1FEEA2E2500E90070A12E2
:10CA8000CF9B600612C8BD12277902C91A74F6122C
:10CA9000259374EC122C177401122BF790199AE05D
:10CAA000F97A9C7B051233757405122E6DE4F074CF
:10CAB00007122E6DE4F07A04F9124AE5905166E40B
:10CAC00093F8C3EA98EB94005058124B15E9705252
:10CAD00090514912CB7E60197A047903124AE58A93
:10CAE000088B09905166E493F890514912CB885015
:10CAF000087405122E6D7401F090514712CB7E60C0
:10CB0000197A027901124AE58A088B09905166E484
:10CB100093F890514712CB8850087407122E6D7409
:10CB200001F090199AE0F97C9C7D057401122BEFBD
:10CB300012336F7A9C7B05794512492F7407122EA8
:10CB40006DE070117405122E6DE0700985188285F4
:10CB50001983E480088518828519837401F090197F
:10CB600094E0F8901993E058F8851882851983E0CD
:10CB70005812CFD2794112492F741402C917E49385
:10CB8000F8740193F9E84922E493FA740193FBE8FD
:10CB9000C39AF8E49BF9C3E50898E509992274F76C
:10CBA00012259374ED122C17E9FE900598F0AC183D
:10CBB000AD1990199AE0F97A9C7B051233757412BD
:10CBC000122E6DEE12CBDCAA18AB1912336F7A9CC1
:10CBD0007B05794512492F741302B3FDF090199A21
:10CBE000E0F97C9C7D052274F4122593EAFEEBFFAC
:10CBF00090199CE064FE7003A3E0F470767A167BD3
:10CC0000001240838A088B09EA450960668A828B94
:10CC100083740112C2A68A828B83A360047402808B
:10CC2000027401F0EA240AF8E4350912C26912F12B
:10CC30000AA312DD08F0A2E3400912CC7612CC9CC4
:10CC40001233F9EE241512B9B1E5082402FAE435DD
:10CC500009FB124239E508241312CC88E4F0AA0833
:10CC6000AB09900599E0F912408F12CC7612D540AD
:10CC700012CCAB028FD112CC7A22EE240BF582E4D7
:10CC80003FF58322E5082412F582E412BF7C228E50
:10CC9000828F83A3A3A3A3A3A3A3A3A312D1D02270
:10CCA000E0F8A3E0F9851882851983E8F0A3E9F09C
:10CCB0002274F212259374FD122C178A088B0989AD
:10CCC0000A8C0B7401122E6D740412CFD21234B977
:10CCD0008A0C8B0DAE0CAF0DEE4F700302CD5F12C0
:10CCE000CD94740712DD0EE5082413FAE43509FB30
:10CCF0008A828B8312CDAA8A828B8312CDA9E50802
:10CD0000241512CC8812DD0812DD15E508240BF875
:10CD1000E43509F912CD6DE8F0A3E912DEA812346A
:10CD20003512DCF612CDB57401F07403650A6006A5
:10CD30007401650A700712CD7E7404800412CD7EE2
:10CD4000E4F090199C12B02112CCAB7401650B7009
:10CD50000312CD77EEFAEFFB124A07E9F980027968
:10CD60001090199C74FEF0A304F0028B3EEE241880
:10CD7000F582E43FF58322EE128926E4F02212CDFB
:10CD8000867440F0A322EE12CD8B22240FF582E4AC
:10CD90003FF58322EE12F4753FF58312CD9F22E01A
:10CDA000F8A3E0F98882898322A3E088828983F04E
:10CDB000A308A9832212CDB922F0EE12CDBF2224FE
:10CDC00013F582E43FF5832274F4122593EAFEEB17
:10CDD000FF7A007B04900599E0F91241F712CE6FBB
:10CDE00090054E7409F01234358A088B09AC08ADF1
:10CDF0000912B97012CC9C124233E96401705A7A5C
:10CE00000F7B001240838A088B09EA4509604A8A31
:10CE1000828B83740212CE64F988828983A3E0FC3A
:10CE200088828983A3A3E0FBEC8A82850983A3A37C
:10CE300012E16E88828983A3A3A3E08A8285098395
:10CE4000A312CE5CFAA3E0FB794A12492FAA08ABE1
:10CE500009900599E0F912408F028FD1F0EE241568
:10CE600012BF6122F0EE241D12BF61F8A3E02290F0
:10CE700004D712D54E901A34E8F0A3E9F09004D903
:10CE800012D54E901A32E8F0A3E9F02274F412257C
:10CE90009374FD122C178A088B097401122E6D747D
:10CEA0000212CFD21234B98A0A8B0BAE0AAF0BEE44
:10CEB0004F700302CF7A12F494E412CFAFA3A3A36E
:10CEC000E06401700888828983A37420F085088259
:10CED000850983A3A3A3A3A3E064017009888289C1
:10CEE00083A3E0D2E6F0850882850983A3A3A3A3E8
:10CEF000A3A3E06401700A88828983A3E0D2E7805B
:10CF00000512B970740112CFC0E064017021850868
:10CF100082850983A3A312CF9B600312CF7F85086C
:10CF200082850983A3A312B00B12CD6E12CCAB8500
:10CF30000882850983A3A3A3A3A3A3A3E06401702C
:10CF40000712F005F0A3E4F085088285098312CC6E
:10CF50009C1234D7E9600412CF86F0EE241712CF6A
:10CF60008212343512DCF612A32012CF8D12B9E4EE
:10CF7000FAEFFB124A07E9F98002791002C054EE79
:10CF8000241612DD1D2212B9A8440422E0F8A3E001
:10CF9000F98E828F832212CFA1F58312D54EE849F4
:10CFA000228E828F8312BC7C241FF582E4382212E9
:10CFB000CFB32212CFB722F0850882850983A3223E
:10CFC00012CFB3A3A3A3A322A2F0E43385188285D2
:10CFD0001983F0AA18AB192274F512259374F31271
:10CFE0002C17890AEAFEEBFF7508007509007C0D15
:10CFF0007D007900AA18AB1912406B12C26A12D1D7
:10D0000087741F58600C7AD37B0012457B7900022D
:10D01000D0D7E8A2E55008740C122E6D7401F0E828
:10D02000A2E75008740B122E6D7401F0E8A2E674AA
:10D030000A5008122E6D7401F08008122E6DE06403
:10D040000170138E828F83A3A3A3A3A3A3A3E06085
:10D0500032EE241380128E828F83A3A3A3A3A3A3F3
:10D06000A3A3E0601EEE2415F582E43FF58312AA27
:10D07000416010AC08AD097402122E6DAA82AB8318
:10D0800012423912CC7612CCA0740A122E6DE064D2
:10D0900001703B12CC8F1234D7E97039EE240B1299
:10D0A000BADF900542E0687003A3E0697027E508E5
:10D0B0004509601A1234358A088B09AC08AD097429
:10D0C00002122E6DAA82AB83124233E96007AA18BE
:10D0D000AB19122EADA90A740D02B66D74F71225A4
:10D0E0009374CD122C17EAFEEBFF8E828F8312D140
:10D0F000A5A2E0400302D18212D18EE054FE12EDCF
:10D100006D740D122BF712D1B812342FE9707374AD
:10D110002A122E6D12D19B70697C0D7D007900AAB8
:10D1200018AB1912406B7416122E6D12CCA0742A13
:10D13000122E6D12D187A2E55008740B122E6D7459
:10D1400001F0E8A2E75008740A122E6D7401F0E8AD
:10D15000A2E65004742080027422122E6D12B9B718
:10D160007402122E6DAA82AB831242398E828F8393
:10D17000A3A3E0C0E0740C122E6DD0E012CFD21247
:10D180002EA7743302B3FD12E305A3E0F8228E82CA
:10D190008F8312D932A3A3A3A3A32212B51E6404C2
:10D1A000228A828B83E0F812D1AB22A3E0C8240646
:10D1B000F582E438F583E022EA241EF582E43BF5AB
:10D1C00083E0F9EA241FF582E43BF58312D1D022F3
:10D1D00012F105FB22E9F87900740468600A740A08
:10D1E00068600574036870027901022B4B74F612B3
:10D1F00025938A828B837424F0A3A37401F0124ACE
:10D20000018A088B09AE08AF09EE4F60108E828F3D
:10D210008312DEA6123435EE241A12E167EEFAEF1D
:10D22000FB02C91AC082C08390053C02AD6FC08268
:10D23000C08390199B02AD6FC082C083E990199B97
:10D2400002AD8DC082C0839005B57401F0E9A2E300
:10D2500050037403F0E9A2E15004E0D2E2F002C509
:10D260008874F612259379007C008A088B09780867
:10D27000122819F8FF0796D294D294D294D294D25D
:10D280008CD290D296D288D27C01800A7C0480060F
:10D290007C0280027C089005B5E05C600479028025
:10D2A00005EC6002790102C91A74F4122593EAFEB2
:10D2B000EBFF8908124AB58A0A8B0BA80AA90BE86A
:10D2C00049604188828983A3A3A3A3E06036C39405
:10D2D00005503174016508601A88828983A3A3A36D
:10D2E000A3E06401600D88828983A3A3A3A3E06403
:10D2F00002700A8882898312CC9C122F6DEEFAEF9D
:10D30000FB124A73028FD174F61225938A828B83A3
:10D31000E07014A3A3A312CF9B600C8A828B8312AC
:10D32000CC9912316580047A007B0002C91AC08250
:10D33000C08390054EE0640870031234FB02C58878
:10D34000C082C0837C00EC75F003A4F8ADF0EDF969
:10D3500012D4167003A3E06B7018905167E493C069
:10D36000E074B828F58274053DF583D0E0F079C506
:10D3700080620CECC3940340CD7C00EC75F003A4F8
:10D38000F8A9F074B928F5827405129AE964FE7060
:10D3900003A3E0F4600F0CECC3940340DE7C00ECCC
:10D3A00012D3D77026EC75F003A4FCADF074B82C42
:10D3B000F874053DF988828983A312E16D90516765
:10D3C000E49388828983F0790080090CECC394038C
:10D3D00040CD79C702C58875F003A4F8A9F074B8E8
:10D3E00028F582740512EEF522C082C0837C00EC21
:10D3F00075F003A4F8A9F012D4167003A3E06B70C3
:10D400000912D3DE6004790180090CECC394034057
:10D41000DE790002C58874B928F582740512EEF52C
:10D420006A2274F212259374DD122C17EAFEEBFFC8
:10D4300075080090197DE060076401600302D5392A
:10D4400090053FE06E7003A3E06F7010EE4F700325
:10D4500002D52D75080112350102D539124ABB8A51
:10D460000A8B0BEA450B700302D52D8A828B83A3AE
:10D47000A3A3A3E0640160108A828B83A3A3A3A368
:10D48000E06402600302D52D851882851983E412B9
:10D49000D547740B122E6DE8F0A3E912CFD2124BD0
:10D4A00021E9700302D52D850A82850B8312D540B0
:10D4B00012CCAB7900122F61850A82850B8312DAB8
:10D4C0005B122E6DAC82AD837418122E6DAA82ABE6
:10D4D00083124239850A82850B8312BAE5742012C1
:10D4E0002E6D12CCAB7422122E6DE4F07C02850AF4
:10D4F00082850B83A3A3A3A3E0F9740D122BEF1273
:10D500003495850A82850B8312BAE57401122E6D5B
:10D51000E8F0A3E912CFD2124B1B750801E50A24EB
:10D520000CF582E4350BF583129B4C800C90054C76
:10D5300012B9C7FAEFFB1235C1A9087423028B4058
:10D5400012D54E90199C2212B19F12D54E2212D59F
:10D55000ABF922C082C08374FE122C1790197DE0B3
:10D560006004640170237901122F6712D591900530
:10D570003FE8F0A3E912CFD2795312492F851882E0
:10D5800085198312CC9C1244977402122B6302C536
:10D5900088851882851983EAF0A3EB12D5A0F922B9
:10D5A000F085188285198312D5AB22E0F8A3E0221A
:10D5B00074F412259374F3122C178A088B09ECFE6D
:10D5C000EDFF750A12EA45097005790002D69C90B4
:10D5D000053FE065087004A3E06509701D1234354D
:10D5E0008A0A8B0BAC0AAD0BEEFAEFFB124233E961
:10D5F0007005750A018003750A00851882851983F4
:10D60000E4F004122E6D12DE9412CFD2124B2DE9EB
:10D61000602A7403122E6DAA82AB83124B51E96407
:10D62000017019750A017403122E6DAC82AD83EE80
:10D63000FAEFFB124233E96003750A0090197DE0AE
:10D640006004640170177412650A7011EEFCEFFD3E
:10D65000AA08AB09124AD9E96003750A00EEFCEF8B
:10D66000FDAA08AB091235DFE9F8740A6870057580
:10D670000A01801D74A0687012EEFCEFFDAA08ABD1
:10D68000091235F1AA08AB091236037401650A7054
:10D69000097900AA08AB0912350DA90A740D028F89
:10D6A000CE74F6122593EAFEEBFF890890197DE00F
:10D6B00060046401701E1234FBE508F50978091254
:10D6C0002BA5790DEEFCEFFD7AFC7BFF123519746A
:10D6D00001122B6302C91A74F7122593EAFEEBFFBD
:10D6E0008E828F83A3A3A3A3A3A3A3A3E060161298
:10D6F000D73D129BEE12CC9C123507E964017005F0
:10D7000012CC7680298E828F83A3A3A3A3A3A3A385
:10D71000E0602512B9AE12CC8F123507E9640170B2
:10D72000178E828F83A3A3A3A3A3A3A3A3A312CC27
:10D730009C1234EF79018002790002B400EE2415C6
:10D74000F582E43FF5832274F212259374FD122CC6
:10D75000178A088B09ECFEEDFF890B750A0174012D
:10D76000122E6D740412CFD21234B9EA4B60427497
:10D7700011122E6DE0601412DE0DE412E30D8A82A8
:10D780008B83E0D2E7F012D7B4E4F012D7BE12CD0B
:10D7900099740312DA65EE88828983A3A3F0EF8877
:10D7A000828983A3A312B19E12DD2A124A07E9F5EA
:10D7B0000A028B3CEA2414F582E43BF5832212F43E
:10D7C000743B2274F0122593EAFEEBFF890A750B75
:10D7D00001EE12DB273F12D92BF50C88828983A337
:10D7E000A3E0FA8882898312D91A12B97964046095
:10D7F0000A7AD37B0012457B02D90AE50C122A2A49
:10D8000002000215D8030BC2D8030CA8D80D80D88B
:10D810000EC2D8BFD890197DE06007640160030292
:10D82000D8C2900539E0A2E1400302D8C27900AB2A
:10D8300009122FF7EA4B603D8A828B83A3A3A3A32F
:10D84000A3A3E05418602E12CC761229A58A828BED
:10D8500083A3A31229A579008E828F83A3A3A3A3F8
:10D86000A3A3A3A3A312D90E12CC9C12300F74044D
:10D87000122B63802E7901AA08AB09122EBF8042B9
:10D8800090197DE0600464017038900539E0A2E1F0
:10D890005030AB091234E9AA08AB091234EFE9643D
:10D8A000C5701F750B00801A90197DE0600464013B
:10D8B0007010900539E0A2E150081244BB80037556
:10D8C0000A00EE2409F50EE43FF50FAC08AD09A9F6
:10D8D0000C850E82F58312CC9C122ED7850E828584
:10D8E0000F8312CC9C1234D7E9601F12BF5AC39425
:10D8F00002401712CC7612E2307003A3E069600A8E
:10D90000E50BA2E05004A90A80027900803112D907
:10D91000122212B9BF8A828B8322A3A3A3E0F8E468
:10D92000C8F9EA28F508E439F50922F58312D93255
:10D93000E02212D5ABF988828983A322122B637F60
:10D940000802285F74EE12259374F5122C178A0AC8
:10D950008B0B890D8C0E8D0F7E01EE122E6D740ACD
:10D96000F0741D122E6DE0F50CE9700FE50CC33359
:10D97000240AC0E0EE122E6DD0E0F0AA18AB191206
:10D9800034B98A088B09EA4509700302DA3D12C4EA
:10D99000D8350912DBDB7409F0A3E50DC43354E07C
:10D9A000450C12DBF4AC0EAD0FEEFAEFFB12423970
:10D9B000EE2408FE50010FE50D702F7C00741E123E
:10D9C0002E6D12DA4C801D12DA44EA28F8EB39F990
:10D9D0008882898312DBEF8882898312A1BCF0A33D
:10D9E0000EAF830CECC3950C40DDE508241712CC78
:10D9F000887401F0123435E508241AF582E43509FB
:10DA000012DA59122BF7AA0AAB0B124B45E960192F
:10DA1000E508241612CC887401F07403122BE7E594
:10DA200008241812CC8812CCAB850882850983A300
:10DA3000A312DA63AA08AB09124A07E9FEEEF974E9
:10DA40000B02C2ACEC25E0F8E433F92212DA5022E2
:10DA500012D5ABF9E8FAE9FB22F583EAF0A3EBF083
:10DA6000740322E50AF0A3E50BF02274F01225936B
:10DA700074F8122C178A088B0912DB26350912DC80
:10DA80006FF8741F58F50A880BA3AE82AF83EEFCC3
:10DA9000EFFDAA18AB19124239EE2408FE50010F0F
:10DAA000AC18AD197A607B05124233E9607374E0FB
:10DAB000550B7066AA0AEA2AFA7B001241258A0CE5
:10DAC0008B0DEA450D605A7C00801D8E828F83127B
:10DAD000C50312DA44E50C28F582E50D3912E16B35
:10DAE000EE2402FE50010F0CECC3950A40DD780CC9
:10DAF000122BA1780A122BA57403122BF77900E5DB
:10DB000008240B12CC8812CC9C1235317403122BD2
:10DB100063AA0CAB0D12412B80077AD37B00124510
:10DB20007B740802D93CEA241DF582E42274F012C9
:10DB300025938A0A8B0B890D8C088D099018161273
:10DB4000CF9B60757410122E6DE0F50C12DA45E86B
:10DB5000240EFAE439FB1240838A0E8B0FAE0EAF0F
:10DB60000FEE4F60548E828F8374D4F012DBCAA301
:10DB7000A3E50DF0AC08AD09EE2405FAE43FFB1275
:10DB8000423912DBBCE50CF07411122E6D12E2F674
:10DB90007808122B9DAC0CEC2CFCE433FDEE240E2B
:10DBA000FAE43FFB12405F7403122B63EEFAEFFBC3
:10DBB00090181612E30112277902D93FEE12DBC149
:10DBC00022240DF582E43FF58322A3A3E50AF0A306
:10DBD000E50B12DBD62212BFA0A322F58312DBEAEB
:10DBE000FF8E828F832288828983E0FEA3E022E079
:10DBF0008E828F83F0A3AE82AF832274F6122593B8
:10DC000074F8122C17890812DB263B12DC6FF974AA
:10DC10001F59F88909A3AE82AF837401687042EE80
:10DC2000FCEFFDAA18AB19124239EE2408FE500190
:10DC30000FAC18AD197A607B05124233E960297484
:10DC4000E05509701C8E828F83A3E0FA8E828F8349
:10DC5000A312C5058E828F83E0F9123561A9088071
:10DC6000097AD37B0012457B7900740802C917F545
:10DC700083E02401FEA3E03400FF8E828F83E02244
:10DC800074F012259374FD122C178A0A8B0B8C08E2
:10DC90008D09890D750C017401122E6D740312CF5C
:10DCA000D21234B98A0E8B0FAE0EAF0FEE4F603F1B
:10DCB00012CD94740BF0A3E50D12DD0E7413122E29
:10DCC0006D12DD0812DEA812343512DCF612DD15F5
:10DCD000EE2418F582E43F12DD288E828F83A3A301
:10DCE000E50AF0A3E50B12DE9B124A07E9F50CA941
:10DCF0000C740302D93C12DCFEEAF0A3EB22EE2402
:10DD00001AF582E43FF58322E08882898322F0A31A
:10DD1000A882A98322F0EE241612DD1D22F582E4EA
:10DD20003FF5837401F02239F58312DE94F02274FA
:10DD3000EF122593EAFEEBFF751000EE12DB273F92
:10DD400012DF7BF508A3E0F50912D73D12CC9C1237
:10DD50004AB5EA4B700302DE088A828B83A3A3A331
:10DD6000A3E0700302DE08C39403400302DE08E56B
:10DD700008C3940F5004E50960057510018079EA25
:10DD80002412F582E43BF583E4F0E508702290501C
:10DD9000267808122CFA12DE0D7808122DFE90500B
:10DDA000267808122CFA12E7647808122DFE8039C2
:10DDB00075090074027808122D2074262508F58252
:10DDC000745012CC8B780C122CFA90815678081271
:10DDD0002DE0780C790812242E12DE0D780C122D0D
:10DDE000FE12E764780C122DFEEA241BF582E43B58
:10DDF000F5837401F012450390196BE0FCA9101231
:10DE0000CC7612CC9C1235497F0902285FEA241790
:10DE1000F582E43BF5832274F012259374F5122CFD
:10DE2000178A088B09890B8C0C750A017401122E54
:10DE30006D740312CFD21234B98A0E8B0FAE0EAFAF
:10DE40000FEE4F604812CD94740C12DA65A3E50C06
:10DE500012DEA8123435EE241AF582E43F12DA59A4
:10DE6000122BF7AA08AB09124B45E9600E12CF7FBF
:10DE70007403122BE712CD6D12CCAB8E828F83A36D
:10DE8000A312DE9412DE9B124A07E9F50AA90A746E
:10DE90000B02D93CE508F0A3E5092212CDB97401C3
:10DEA000F0EEFAEFFB227401F0EE241712DD1D22D2
:10DEB00074F012259312DB263B12DF7BF8A3E0FE01
:10DEC000E8600302DF7874016E600874026E60031C
:10DED00002DF78EE90196BF075086B7509197808F8
:10DEE000122BA17508017509007808122BA17C007E
:10DEF0007D007A517B001241A97404122B637402D5
:10DF00006E7075901A55E0700A9050267808122CA1
:10DF1000FA8028F50874027808122D207426250846
:10DF2000F582745012CC8B7808122CFA90815678B6
:10DF30000C122DE07808790C12242E90817A780C3E
:10DF4000122DE07808790C122524908116780C1295
:10DF50002DE07808790C12242E90196D7808122D76
:10DF6000FE90196D12299D7A007B40900599E0F989
:10DF70001241F17404122B6302D93FF583E02401AE
:10DF8000F8A3E03400F988828983E02274F6122530
:10DF90009374DA122C17EAFEEBFF12CF9660508EC4
:10DFA000828F8312CC9CAC18AD1912D1B812341DDB
:10DFB0007409122E6D12E2307003A3E06960301212
:10DFC000E2FD1229A57508FE7509FF7808122BA13C
:10DFD000741C122E6DE0F9740D122E6D12B9B77407
:10DFE0000F122E6D12CC9C12300F7404122B63741E
:10DFF0002602C91774F7122593E9FD7A007B009079
:10E00000197DE06004640170407C00800B12E0A088
:10E01000E02AFAA3E03BFB0C90516612EEE3502994
:10E02000EC75F01CA4F8AEF0EEF912EF05F460E721
:10E03000742D28F58274083912CF9960DAED60CD1D
:10E0400012E0A0E4F0A3F080CE7C00800B12E08D03
:10E05000E02AFAA3E03BFB0C12EEE0502DEC75F049
:10E0600017A4F8AEF0EEF912F0847003A3E0F460A8
:10E07000E6747E28F582740A3912CF9960D9ED6072
:10E08000CC12E08DE4F0A3F080CD02B400EC75F08A
:10E0900017A4F8EEF9747E28F582740A39F5832204
:10E0A000EC75F01CA4F8EEF9742D28F5827408398B
:10E0B000F5832274EC122593890CEAFEEBFF9005A0
:10E0C00098E0C3950C503B1234899005CA12E109BF
:10E0D000900532E0F508E4F509F50AF50B90816248
:10E0E0007810122DE07808791012242E7808122B5F
:10E0F000997A007B02900599E0F91241EB740412C1
:10E100002B630287398A828B83EEF0A3EFF02274AF
:10E11000F6122593EAFEEBFF9005B68013888289FC
:10E1200083E06E7003A3E06F603A88828983A3A3C3
:10E1300012CF9B70E87A047B001241258A088B0974
:10E14000A808A909E849601C8882898312E109901E
:10E1500005B612CC9C88828983A3A312E16D900539
:10E16000B612CCAB02C91AF582E43FF583EAF0A3FC
:10E17000EBF02274F41225937E009005B680070E12
:10E180008A828B83A3A312B30B70F4EE25E0FAE42A
:10E1900033FB1241258A088B09EA4509607F7C0020
:10E1A0009005B680228A828B83E0F50AA3E0F50B06
:10E1B00012DA44E50828F582E50939F58312DA63B5
:10E1C0000C8A828B83A3A312B30B70D9900594128F
:10E1D000E2307003A3E0697808701C122BA1EEF501
:10E1E0000A780A122BA57C607D05790090059412AF
:10E1F000CC9C123531801A122BA1EEF50A780A1246
:10E200002BA57C607D05790090059412CC9C12357D
:10E21000257403122B63AA08AB0912412B1249EF94
:10E22000028FD18E828F83A3A3A3A3A3A3A3A3A3AF
:10E2300012D54E90053FE06822C082C08380128ACA
:10E24000828B83A3A312BAE59005B612CCAB124120
:10E250002B9005B612B30B70E602C58874F5122533
:10E260009390054C12BC739005CA12A03B12CCAB24
:10E270007ACA7B05795012492F9005CA12E2F680BE
:10E280001312EBAD7004A3E06509600612EBBA123D
:10E2900035CD050A90277BE493F8E50AC398502012
:10E2A000E50A75F017A4F8A9F012EA5B6E7003A3F3
:10E2B000E06F70CD747328F582740A12DD2780D266
:10E2C0009005CA12BC7390181812CF9B60257A066D
:10E2D0007B00124083EA4B601A8A828B8374D5F0EC
:10E2E000A3A3E412E6A80412E30D90181812E301A8
:10E2F00012277902B670128748750A00228E828F23
:10E300008312E3052212D5ABF58388822212B1ABCA
:10E31000EEF0A3EFF022C082C08390053FE064FEE0
:10E320007003A3E0F4600E900539E0A2E1500612FC
:10E3300035E512358B02C58874F012259390058D52
:10E34000E06053F50CE4F50DF50EF50F90811678AD
:10E3500008122DE0780C790812242E12407D8A08CC
:10E360008B09A808A90990514BE49358F508A3E438
:10E370009359F509E4F50AF50B780C7908122D4646
:10E38000780C122B997A007B01900599E0F91241E3
:10E39000F17404122B6302D93F74EE1225937E00B0
:10E3A0007F008E0A8E0B124A55750D00803BAA0D18
:10E3B0007B00124A5B8A088B09A808A909E8496012
:10E3C0002688828983A3A3A3A3E060046404701752
:10E3D00088828983A3A3A3A3A3A3A3A3A3A3E0F9F0
:10E3E0001235F7E960010F050D905166E493F8E5E9
:10E3F0000DC39840B91235BB8A0E8B0F750C008087
:10E4000023AA0C7B001235C78A088B09A808A90922
:10E41000E849600EE8240F129AE6F91235F7E96030
:10E42000010E050CC3E50C950EE4950F40D3EF2EBD
:10E43000FE700302E52F8E08750900740278081239
:10E440002D20AA08AB091241258A0A8B0BEA450B3D
:10E45000700302E52D750C008E08750900740278B2
:10E4600008122D20AC08AD0979FF12406B750D0024
:10E47000805EAA0D7B00124A5B8A088B09EA450977
:10E48000604C8A828B83A3A3A3A3E060046404701E
:10E490003D8A828B83A3A3A3A3A3A3A3A3A3A3E0E7
:10E4A000F91235F7E9F96026050C780A122BA1EE6E
:10E4B000FD850882850983A3A3A3A3A3A3A3A3A384
:10E4C00012E5C012CC9C1235917402122B63050D1B
:10E4D000905166E493F8E50DC3985006E50CC39F90
:10E4E0004090750C00C3E50C950EE4950F5040AAC2
:10E4F0000C7B001235C78A088B09EA4509602AEAB5
:10E50000240F12B003F91235F7E9F9601C780A12EA
:10E510002BA1EEFDE508240E12CC8812E5C012CC2A
:10E520009C1235917402122B63050C80B87E007F1B
:10E5300062900537E0600BF91232BBE9F87454C3FE
:10E5400098FF75F003EF84F50D94204003750D1FBF
:10E55000850A08850B09750C00EF6005750C207F96
:10E5600000E50DC39E5005850D0F80088E0FE50C4C
:10E57000D2E6F50CAC08AD09AA0CA90F123597E943
:10E58000F50EE50CA2E6401D150F7800800BE5089E
:10E590002404F5085002050908E8C3950F40EFE58B
:10E5A0000FCEC39EFEE97006E50CA2E650A8E50A70
:10E5B000450B6007AA0AAB0B12412BA90E02C2AF92
:10E5C000E0FC8508828509832274F2122593EAFE15
:10E5D000EBFF89088C098D0A7C007D00740E122ED9
:10E5E0006D12CC9C750B00800DEAFCEBFDEA240457
:10E5F000FA50010B050BE50BC3950A400302E698A0
:10E600008A828B83E0F47003A3E0F4607AEC4D60BF
:10E610000C8C828D83C3E09EA3E09F50CC8A828BBA
:10E620008312E69BEE98EF9950BFEAF8EBF98882E7
:10E630008983E0F47003A3E0F46010E82404F85048
:10E640000109050BE50BC3950A40E3E8FCE9FDE889
:10E6500024FCF8E934FFF98882898312E6A08C82D1
:10E660008D83E50CF0A3E50D12E6B78C828D83A3B4
:10E67000A312E6ADA3A3A3E08C828D83A3A3A3F092
:10E68000C3EA98EB9940C412E1058A828B83A3A365
:10E69000E50912E6A8E508F0028B4312D54EC32225
:10E6A000E0F50CA3E0F50D2212B19FA32212E6B112
:10E6B00022F0888289832212E6BDA3E02212E6B10D
:10E6C000A32274F212259374FD122C1789088A096B
:10E6D000ECFEEDFF750A0175F003E9A42402C0E029
:10E6E0007401122E6DD0E012CFD21234B9EA4B6011
:10E6F0007012D7BE12CD997408F0741F55084509E1
:10E70000A3F0E82402F8500109750A0080338E82D4
:10E710008F8312DD0812DD0E8E828F8312CDA98EBB
:10E72000828F83A3A3E05407C4FC8E828F83A3A3AC
:10E73000A3E054074C12CDABEE2404FE50010F05AC
:10E740000AE50AC3950840C68A828B83A3A374FC9A
:10E75000F0A374FFF012E7647401F0124A07E9F5C0
:10E760000A028B3CEA2413F582E43BF5832274F120
:10E770001225938A0A8B0B7508007AFE7BFF7CFEBC
:10E780007DFFE50A12DB27350B12D92BF509741F23
:10E790005509F50CE82402F8500109E509A2E74003
:10E7A00065E50A2417F582E412F5A7FE75F003E586
:10E7B0000CA424026E704FE50C600612DBE6FBEE43
:10E7C000FA750D00801DE05407F50EA3A882A983F9
:10E7D000EEFC90053FE06E7003A3E06F7003850EC2
:10E7E00008050DE50DC3950C502612DBE6FCE4CCC4
:10E7F000FDEE2CE43DFFE82402F8500109888289EF
:10E8000083E0548860C07AD37B0012457B02E951D3
:10E81000E508700BA9091235A3E9700302E951124A
:10E82000E95612CC9C124ABB8A0C8B0DAE0CAF0D74
:10E83000EE4F605A8E828F83A3A3A3A3A3A3A3E466
:10E84000F090515393F88E828F83A3A3A3A3A3A325
:10E85000A3A3E0C398402412E9605001097A027B27
:10E8600000122336E88E828F83A3A3A3A3A3A3A3BE
:10E87000A3F0E508C39407500205088E828F83A396
:10E88000A3A3A3A3A3A3A3A3E508F002E9517CFFDC
:10E890007DFF12E95612CC9C1235AF8A0C8B0DAE5F
:10E8A0000CAF0DEE4F704F1235B58A0C8B0DAE0CC0
:10E8B000AF0DEE4F700302E9517C177D0079001215
:10E8C000406B12E95612CF8C1287968E828F83A3EB
:10E8D000A3A3A3A3A3A3A312B9E412B52F74AA12EE
:10E8E000E97F5001097A027B0012233612DBBCE873
:10E8F00012E96B7401F0905153E49312BF69C3980D
:10E90000401912E9605001097A027B001223361285
:10E91000F00BE508C394075002050812EFF7E5086D
:10E9200012E970E4F012A033124B51E97023850A0A
:10E9300082850B83A3A3A3A3A3A3A3A3E06012E5F3
:10E940000A2415F582E4350B12B9C512A03412421F
:10E95000397F0702285FE50A12F475350BF583222B
:10E96000905153E49379002401F822F012EFFB2236
:10E97000F012E97522EE240CF582E43FF58322F0D3
:10E98000905153E49379002401F82274F7122593EF
:10E99000E9FE74FE6A700374FF6B603474605E6439
:10E9A00060602DEEA2E5401CA2E690053F500DC32D
:10E9B000E09AA3E09B5019790002B400C3E09AA347
:10E9C000E09B40F390053F12E69BEC98ED9940E701
:10E9D000790180E574F71225937E008008EE12EB32
:10E9E000B31235CD0E12EA1540F37E00EE75F0033A
:10E9F000A4F8A9F074B828F8740539F988828983D5
:10EA0000A374FEF0A30412E6ADE4F00EEEC394038B
:10EA100040DA02B40090277BE493F8EEC3982274A6
:10EA2000F71225937E0080010E12EA155026EE1291
:10EA3000EA6B6A7003A3E06B70EE12EA5B6C700322
:10EA4000A3E06D600A74FF6C700374FF6D70D912DF
:10EA5000EBBA80047A007B0002B40012EA5F2274F1
:10EA60007328F582740A39F583E02275F017A4F84B
:10EA7000A9F012EA762212EED5E02274F61225935E
:10EA80007CFF7DFF7AFE7BFF1235AFEA4B703C7551
:10EA900008008032E50875F017A4F8A9F07478280A
:10EAA000F582740A129AE9600512EEFA701674691A
:10EAB00028FE740A39FF8E828F8312CC9C12301587
:10EAC000EEFAEFFB050812EACE40C902C91A9027F8
:10EAD0007BE493F8E508C39822C082C0837A007B68
:10EAE000007C00801012F07C7003A3E0F460050A43
:10EAF000EA70010B0C12EEE040EB02C58874F412D0
:10EB000025938A088B09ECFEEDFF800B1235CDEEC4
:10EB1000FCEFFDAA08AB091235AFEA4B70EE028F8D
:10EB2000D174F71225937D007C0080020D0C12EE4B
:10EB3000E0501C12F07C7003A3E0F460F0EDF8EA02
:10EB4000684B70E8EC75F017A4F812EBBA80047A01
:10EB5000007B0002B40074F7122593EAFEEBFFEE8F
:10EB60004F60187C177D00790012406B8E828F8376
:10EB700074FEF0A30412F012F0A3F002B40074F6D5
:10EB80001225938A088B097E00801AEE75F017A46F
:10EB9000F8A9F012EBAD7004A3E06509600612EB72
:10EBA000BA1235CD0E12EA1540E102C91A12EA5F17
:10EBB00065082275F017A4F8A9F0746928FA740A98
:10EBC00039FB2274F41225938A088B09ECFEEDFFC1
:10EBD00090197DE060046401702090054CE06E7037
:10EBE00003A3E06F7014124ABB8A0A8B0BA80AA910
:10EBF0000BE8496005E82408801AEEFCEFFDAA083E
:10EC0000AB091235AF8A088B09A808A909E8496041
:10EC100009E8240DFAE439FB80047A007B00028FB6
:10EC2000D174F41225938A088B09ECFEEDFF750A66
:10EC300000750B00802FE50B12F06C124B51E96050
:10EC400022E50B12EA6B65087004A3E06509700306
:10EC5000750A0AEEFCEFFD12F073124233E960030D
:10EC6000430AA0050B90277BE493F8E50BC398506B
:10EC700004E50A60C1A90A028FD174F61225937EB9
:10EC800000805AEEFA7B00124A5B8A088B09A808BA
:10EC9000A909E849604688828983A3A3A3A3E06405
:10ECA00001603988828983A3A3A3A3E06402602C56
:10ECB000E82407129AE6FA74012AF090058EE0C360
:10ECC0009A501988828983A3A3A3A3A3A3A3A3A370
:10ECD000A3E412ED62A312ED6D1230150E90516691
:10ECE00012EA18409E7E008059EE75F017A4F8AA2B
:10ECF000F0EAF912F0847003A3E0F4604474692828
:10ED0000F8740A39F9E8240C129AE6F8740128F02C
:10ED100090058EE0C3985029EE75F017A4F8EAF933
:10ED2000746928F8740A39F9E812ED5C39F583E45E
:10ED3000F0E8240EF582E439F583E412ED6D12302B
:10ED4000150E12EA1540A27A00EA12D3D760021417
:10ED5000F00AEAC3940340F102C91AEE240FF582C7
:10ED6000E42212E6BDA3A3A3A3A3A3A32212E6B1A8
:10ED700012D1D02274F11225938A0A8B0BECFEED8E
:10ED8000FF750E007A007B017508FE7509FF740F90
:10ED9000122E6D12E6A0801112407DE50EF5F0EA0C
:10EDA00084E5F0FA750E007B007C00800712EED53A
:10EDB0001287440C12EEE0505CEC75F017A4F8AD2D
:10EDC000F0EDF912F0847003A3E0F460E612EA7249
:10EDD000650A7004A3E0650B60D912F0677003A3A5
:10EDE000E06F60CF12EA72650C7004A3E0650D60FD
:10EDF000C212EEFA60BDC3940850B8E0640760AD7B
:10EE0000EB050E70AEE50EC39A40A8746928F58232
:10EE1000740A02EE9F90197DE060076401600302AE
:10EE2000EEA77C00800712EF151287440C90516604
:10EE300012EEE35072EC75F01CA4F8ADF0EDF9128F
:10EE4000EF1064FE7003A3E0F460E112EF10650AB6
:10EE50007004A3E0650B60D412EF106E7003A3E0A2
:10EE60006F60C912EF10650C7004A3E0650D60BC03
:10EE700012EEEA60B7C3940850B212EF0564016065
:10EE8000ABE0640260A612EEEA64076099EB050E3F
:10EE9000709AE50EC39A4094741D28F58274083D5B
:10EEA000F58312CC9C802BE50E6011EA700E740184
:10EEB000650E600302ED987A0102EDA474FE650808
:10EEC000700474FF65096006AA08AB0980047AFE25
:10EED0007BFF02E951746928F582740A39F58322AF
:10EEE00090277BE493F8ECC39822742628F582746B
:10EEF0000812EEF52239F583E022747728F5827442
:10EF00000A12EEF522742128F582740812EEF52219
:10EF100012EF15E022741D28F582740839F583225A
:10EF200074F51225938A088B09ECFEEDFF750A0033
:10EF30008002050A90277BE493F8E50AC3985022E3
:10EF4000EEFCEFFDE50A12F06C124233E960E3E5F6
:10EF50000A75F017A4F8A9F0746928F582740A12EA
:10EF6000DD2702B670E9F87907C3940D40047901F2
:10EF70008019E8C3940740047903800FE8C3940321
:10EF8000400479058005E870027900022B4B74F08B
:10EF90001225938A088B098C0A8D0B890C1235B5C2
:10EFA0008A0E8B0FAE0EAF0FEE4F60487C177D00C0
:10EFB000790012406B8E828F8312DE9412F012124F
:10EFC000DA63E50C600712B52EE50C800312F0053C
:10EFD000F0900593E06401700612EFF7E4800512EB
:10EFE000EFF7740712E97F5001097A027B001223C0
:10EFF0003612F00B02D93F12EFFB22EE240EF582FF
:10F00000E43FF5832212CD86740122EE12DBC1E8C3
:10F01000F02212A9B4A32274F7122593EAFEEBFFA3
:10F02000750800803AE50875F017A4F8A9F012F009
:10F03000677003A3E06F601474FF6E700374FF6F5A
:10F04000701B12F0847003A3E0F4601112F07312CD
:10F050004B51E97008E50812EBB31235CD050812E3
:10F06000EACE40C102B40012EA766E2275F017A40F
:10F07000F8A9F0746B28FA740A39FB22EC75F017C2
:10F08000A4F8A9F012EA7664FE22C082C0837AFF57
:10F090007BFF12360302C588C082C0839005CC7402
:10F0A00015F0A37436F09005CE741BF0A37436F0FF
:10F0B0009005D07421F0A3743602AD8D74F712253B
:10F0C00093EAF8EBF99004D512F105CA2406F5820B
:10F0D000E43AF583E0702B88828983A3A3A3A3A3DA
:10F0E000A3A3A3A31229A59004D512F10A122E3EC0
:10F0F00088828983A3E0F9122ECB7402122B63124B
:10F1000049EF02B400E0FAA3E02212F105F5838A88
:10F110008222C082C08390059612F1D6F0900596A7
:10F1200012CF9B7005790112355B02C58874F61207
:10F13000259374FC122C17E9FE905159E493700842
:10F1400074E16E600302F1D1EA2408F8E43BF98827
:10F1500082898312F1D612F1DF700E900596E4F0E9
:10F16000A3F0790112355B806890197FE06062F846
:10F1700090059612CC9CC3E89AE49B5054790012F7
:10F18000355B8A088B09AC08AD09ECF8EDF9E87538
:10F19000F064A4F8AAF075F064E9A42AF990059641
:10F1A00012CC9C12233EE8941AE994004023901854
:10F1B0001012CF9B601B90059612CCA07402122EE9
:10F1C0006DECF0A3ED12CFD290181012E3011227CC
:10F1D00079740402C917E02401F0A3E0340022127C
:10F1E000E6B112D54EE84922C082C08374F8122CD1
:10F1F000179080D0AC18AD197408122AC7AC18AD9E
:10F2000019124233E96401700479008002790174B3
:10F210000802D58B74F6122593740C122E6D12BC55
:10F2200073743A6E7001EF6006743B6E4F70237416
:10F230000A122E6D1229A58C088D097808122BA1AF
:10F24000EAFCEBFDEEFAEFFB1241AF7404122B6304
:10F250008002790A02C91AC082C0839005D2744F15
:10F26000F0A3744AF09005D47449F0A3744AF09066
:10F27000196BE0640170329005D6743FF0A37436C8
:10F28000F09005D87445F0A37436F09005DA744B0D
:10F29000F0A37436F09005DC7451F0A37436F0904E
:10F2A00005DE7439F0A37436F09005D612CF9B605A
:10F2B0000612C8BD12277902C58874F4122593740A
:10F2C000E6122C178A088B097404122E6D7402F052
:10F2D00004122BEF1234B98A0A8B0BAE0AAF0BEE75
:10F2E0004F700302F44412F494746012CDB512DE30
:10F2F000A612343512DCF612B9E012DE9412BFC148
:10F30000701290052BE0C0E012F449D0E0F09005B7
:10F310002BE004F012F4657016901A49E0600D902D
:10F320000536E0700A8E828F83E0700312CD77ACD1
:10F3300018AD19EEFAEFFB1234118A088B09EA4571
:10F3400009700302F43D7A217B00124125740612F4
:10F350002E6D12E16D7406122E6D12CF9B7003029A
:10F36000F4367C217D0079007406122E6DE0FA12CD
:10F37000406B7401122BEF79501249297401122E3F
:10F380006D12BAE57406122E6D12F105CA2409F544
:10F3900082E43AF58312CCAB90053F12BAE57417BC
:10F3A000122E6D12CCAB7406122E6D12BC7812F4B4
:10F3B0006BF07406122E6D12B0EE740212F4BA7471
:10F3C00006122E6D12F10A12CCAB7406122E6D12BB
:10F3D000F49F12F4C5C0E07406122E6D12BC7812B0
:10F3E000F47BD0E0F0EE240E12F453C0E074061269
:10F3F0002E6D12F484D0E0F07406122E6D12BC78DB
:10F4000012BC6912DD28EE240F12BADF740C122E22
:10F410006D12CCAB8A828B83E0C0E0740E122E6D2D
:10F42000D0E0F07406122BEF1233877406122E6DA3
:10F4300012CC9C12412BAA08AB0912412BEEFAEF19
:10F44000FB12412B741A028FCEEE2414F582E43F96
:10F45000F5832212F458E022F8E43FF9E8FAE9FBD8
:10F460008A828B832212BF5E64012212F47538F502
:10F4700083740222EA240BF582E422241EF582E43E
:10F4800038F5832212F4882212BC7C240CF582E425
:10F4900038F5832212CC7A12CD9F7404F0A322E0B7
:10F4A00012F4A97401F0A3E422F8A3E0C812F4B1A5
:10F4B00022240DF582E438F5832212DBD612D54ED4
:10F4C00022E8F0A3E912A804E02274F61225937E44
:10F4D0000080187C047D0079FF8E088D0974027805
:10F4E00008122D2012F70512406B0E90515F12EAA0
:10F4F0001840E002C91A74F412259374F7122C17FD
:10F50000750800802285080A750B007402780A12BB
:10F510002D207408250AF582740E12F5A724FFF039
:10F52000A3E034FFF0050890515F12EAD1506D85D9
:10F53000080A750B007402780A122D2012F59FF448
:10F540007003A3E0F460DE85080A750B007402788E
:10F550000A122D207408250AF582740E350B12CF7D
:10F560009970A27408122E6D7402F085080A750B4A
:10F5700000780A122D207406250AFE740E350BFF42
:10F580008E828F8312CCA012F5AD1249717C047D5E
:10F590000079FFEEFAEFFB12406B808902B0E9744C
:10F5A00006250AF582740E350BF583E02212F71E4C
:10F5B0002274EE12259374F7122C17EAFEEBFF75F6
:10F5C0000CFF7408122E6D12F71012496BE9641AC1
:10F5D000700302F683750E00741B122E6D780812EC
:10F5E0002DE0800B74FF650C7003850E0C050E90EA
:10F5F000515FE493F8E50EC3985048850E107511DD
:10F600000074027810122D2012F687F47003A3E024
:10F61000F460D1850E1075110074027810122D203F
:10F6200012F6876E7003A3E06F70C2750F0074024C
:10F63000780E122D207408250EF582740E350FF504
:10F64000838030E493650E702D74FF650C602E8509
:10F650000C0E750F007402780E122D207406250E04
:10F66000F8740E350FF98882898312E1098882893E
:10F6700083A3A312DD2A7901740902C2AC12F5AD8D
:10F68000124971790080F174062510F582740E35E7
:10F6900011F583E02274F412259374F7122C17EA03
:10F6A000FEEBFF7408122E6D12F7101249717508E7
:10F6B000008002050890515F12EAD1504585080A82
:10F6C000750B007402780A122D2012F59FF4700356
:10F6D000A3E0F460DE85080A750B007402780A1254
:10F6E0002D2012F59F6E7003A3E06F70C67C047D21
:10F6F0000079FF8D0974027808122D2012F7051287
:10F70000406B02B0E974062508FA740E3509FB2235
:10F71000740212A804EEF0A3EFF012F71E22900577
:10F720004C12B9BFAA18AB192274EE1225938A089D
:10F730008B09ECFEEDFF750A00EE65087003EF65BE
:10F7400009600C1241A38A0C8B0DEA450D700675F9
:10F750000A0102F7E5EEFAEFFB1241A38A0E8B0FC6
:10F76000AC0EAD0FEC4D6007EEFAEFFB1241B5E4C5
:10F77000F50EF50F780E122BA1AC0CAD0DEEFAEFD5
:10F78000FB12419D7402122B63E96059AA0CAB0D68
:10F790001241258A0E8B0FEA450F6046780E122B18
:10F7A000A1780C122BA17C007D00AA08AB091241A4
:10F7B000AF7404122B63E9701D780E122BA1780C24
:10F7C000122BA17C007D00EEFAEFFB1241A974041C
:10F7D000122B63E96003750A01AA0EAB0F12412BCD
:10F7E0008003750A10A90A02C2AF122397022B4B9D
:10F7F000C082C08374FF122C17AC18AD197A01793E
:10F8000087124263851882851983E0C39403400FF1
:10F810007402F07C007D00FA79E2124299800CE4D7
:10F82000F0901A68E0FA7B001243CB7401122B634C
:10F83000D083D082022B4B74F012259374F5122CD6
:10F8400017851882851983EAF0A3EBF0ECFEEDFF33
:10F85000750820E9700302F9F7901720E0F47003AF
:10F86000A3E0F47062EE4F6073740A122E6D74039D
:10F87000F07402122BEF124239901719E0F5087854
:10F8800008122BA57403122BF77401122E6D12FEB1
:10F890005E901719E0F91231417401122B63E9F5FA
:10F8A0000870247D007C007900EEFAEFFB1246DD43
:10F8B00090816A12299D7A007B01901787E0F912E6
:10F8C00041EB7404122B63851882851983E0FCA335
:10F8D000E0FDAA0879E112429902FA207508027443
:10F8E0000A122E6D7402F0122E6D74FFF0A3F01246
:10F8F000FA2FA3A3A31229A588828983A3A3A3A374
:10F90000A3A3A3A3A3E0FC7402122BEF7901124579
:10F91000ED7402122B63E9602F7508007808122B32
:10F92000A5E4F50AF50B780A122BA17808122BA58D
:10F930007404122BE7880A890B780A122BA112FA99
:10F940002A1229A57901805712FA2F1229A5888237
:10F950008983A3A3A3A3A3A3E0FC7402122BEF79D2
:10F96000011245ED7402122B63E9700302F8C775AA
:10F9700008007808122BA57401122BE7880A890B5E
:10F98000780A122BA17508017808122BA5E4F50A54
:10F99000F50B780A122BA112FA2A1229A579007CFC
:10F9A000FF7DFF740A122BEF1246E97408122B63D5
:10F9B000E9F508E508600302F8C79004EBE0F50CF0
:10F9C000A3E0F50DE4F50EF50F780C122B997A00F3
:10F9D0007B2090171FE0F91241EB7404122B638512
:10F9E0001882851983E0F8A3E0F9901720E8F0A3C6
:10F9F000E9F0802C123A537C008518828519831215
:10FA0000FF99123A7DEA4B70EB90816A12299D7A38
:10FA1000007B01901787E0F91241EB7404122B630D
:10FA2000740B122B637F0802285F12FFA8A3229099
:10FA3000171CE0F8A3E0F988828983A3A3A3A3A3FA
:10FA4000A3A32274F712259374F7122C17740812CB
:10FA50002E6D7402F0851882851983EAF0A3EBF00D
:10FA60007D007C00AA18AB191247557409122B634C
:10FA700002FCB574F4122593E9FE7A007B409017DE
:10FA80001FE0F91241F7EE700A7A0012FF9E123A57
:10FA90001780477A0112FF9E123A1774FF6E603A80
:10FAA000EEC3944140027E40EEF875F0E8A4C8AA87
:10FAB000F075F003A42AFAE42A8808F5093395E0E2
:10FAC000F50AF50B7808122B997A007B4090171FE6
:10FAD000E0F91241EB7404122B6302FBD674F412AA
:10FAE000259374F4122C178C088D09E9FF741B12EE
:10FAF0002E6DE0FE74FE6A700374FF6B700974086B
:10FB0000122E6DE4F0801D851882851983EAF0A31A
:10FB1000EBF07408122E6D7402F01234D7E9600411
:10FB2000EEC2E4FE740A122E6DE4F0A3F012FFA3FD
:10FB3000C0E07409122E6DD0E0F0741C122E6DE03E
:10FB4000F50A780A122BA5741B122BE7880A890B79
:10FB5000780A122BA1741B122E6D1229A58F0A751B
:10FB60000B00780A122BA17808122BA1EEF97C1950
:10FB70007D177409122BEF1239F37409122B63E904
:10FB8000FA600E741A122E6DE0FC7D0079E01242CC
:10FB900099740C122B63803E74F4122593E9FFEAEA
:10FBA000FE8C0A8D0BEFFA7B001241A3EAF508EEFA
:10FBB000C3950850047901801D780A122BA175099C
:10FBC000007808122BA17C007D00EFFA7B00124127
:10FBD000AF7404122B637F0402285F74F61225931E
:10FBE000E9FFEAFE8C088D097808122BA18E0875B2
:10FBF00009007808122BA17C007D00EFFA7B00122F
:10FC000041A97404122B637F0202285F74F5122548
:10FC100093E9601714601C14602114602614602B93
:10FC200014603014603F14604E806675088A750950
:10FC300017802675085275090E804275083F7509B0
:10FC400005802875084275090580207508447509E6
:10FC500005802A750841750905750A007808122B78
:10FC60009D7C01802275084C750905750A0078088D
:10FC7000122B9D7C028010750860750905750A00BD
:10FC80007808122B9D7C087D0012405F7403122BB4
:10FC9000637F0302285F74F7122593E9FE74016EF7
:10FCA00070097D007C0079001246DD800874F7122F
:10FCB0002593123EF17F0102285F74F712259312FB
:10FCC0003EF780F174F212259374FF122C17890A03
:10FCD0008A088B09EB5480700302FDDE800FA3E0DD
:10FCE000F9123EEBEEFAEFFB124089A90A12409B93
:10FCF0008A0C8B0DAE0CAF0DEE4F700302FDD68E4D
:10FD0000828F83E024E6603D24496074147003020E
:10FD1000FDB314601624F3700302FDBC14700302DB
:10FD2000FDC61460B924E5600B80B9EEFAEFFB1252
:10FD3000428D80B0A3E0FA8E828F83A3A3A3E0F963
:10FD400012427B809FEE2422F582E43FF583122944
:10FD5000A5EE2420F582E43FF5831229A58E828F3B
:10FD600083A3A3A3A3E0FCA3E0FD8E828F83A3A3C0
:10FD7000A3A312FE5C123F097404122B6302FCE47D
:10FD8000A3E0640660148E828F83A3E06407600A98
:10FD90008E828F83A3E064097005790002FCE18EF6
:10FDA000828F83A3E060076401600302FCE4792290
:10FDB00002FCE112FE5C123EFD02FCE4A3E0FA8EBE
:10FDC000828F8302FD3CA3E0F98E828F8312FE5C5A
:10FDD00012428102FCE4AA08E5096480806FEB54BA
:10FDE0004060107A0012FF9E123A17AA08E50964D3
:10FDF00040805AEB5420601B792190172012FE5E40
:10FE000012428190172074FFF0A3F0AA08E509645C
:10FE100020803AEB54107A0060367908123B43ACEC
:10FE200018AD197A01790312426385188285198306
:10FE3000E0A2E25005124245800D7CF47D017B3248
:10FE40007A007902123B49AA08E5096410FB800296
:10FE50007B007401122B637F0602285FA3A3E0FAE4
:10FE6000A3E0FB2274F612259374F7122C17EA24F0
:10FE70000CF582E43BF583E0F508A3E0F50978088A
:10FE80001227CD00000200008091FE0680AEFE51D8
:10FE9000FF1246A78A828B83E5822403FCE4358324
:10FEA000FDA3AA82AB837901123F0302FF511246E0
:10FEB000AD8A088B09AE08AF09901720E0F47003F3
:10FEC000A3E0F4700302FF517408122E6D7402F067
:10FED0008E828F83A3E0F8A3E0F9851882851983C9
:10FEE000E8F0A3E9F08E828F83A3A3A3A3E0F50833
:10FEF0007808122BA57401122BF790172012FF9986
:10FF00001231417401122B63E970467A007B209014
:10FF1000171FE0F91241F790816A12299D7A007B40
:10FF200001901787E0F91241EB7404122B637D00F6
:10FF30007C0079008E828F8312FE5D1246E3790089
:10FF400090172012FE5E123EF790172074FFF0A368
:10FF5000F0740902FC0474F7122593E990171FF05E
:10FF600090172074FFF0A3F090171A741FF0A37479
:10FF700017F0901719E4F0FA12FF9E123A177A0060
:10FF80007B8090171FE0F91247857A067B809017D7
:10FF90001FE0F912478502FCB5E0FAA3E0FB12FF6F
:10FFA000A3F92212FFA8E02290171CE0F8A3E0F5C5
:10FFB0008388822274F412259389088A09ECFEED65
:10FFC000FF7A047B00124083EA4B601E8A828B8397
:10FFD000E508F0A3E509F08A828B83A3A3EEF0A3E2
:10FFE000EFF090171FE0F912408F02FBD67407F56F
:10FFF000D575D40D7407F5D375D215022B4BFFFFC1
:020000040001F9
:10000000C082C083790012CFA2C082C0839004D185
:1000100012C856D083D082C3E09CA3E09D500DEA65
:10002000240B12804F12802F60027901029E4BEA4E
:1000300075F00BA4FAA8F075F00BEBA428FB900464
:10004000D3E02AF8A3E03B8882F583E0540F22F541
:1000500082E43B12B98B2274F7122593890812B0FF
:10006000A41283B7ACF075F00BE9A42CF99004D37B
:10007000E028F8A3E039F9E8FEE9FF7401650860BB
:10008000067402650870228A828B8312856D740261
:1000900065087021EA2403FA50010B124B51E970F4
:1000A000148E828F83E4F0800CEA2403FCE43B127C
:1000B0008564124B578E828F83E0D2E7F01244CDD5
:1000C00002AC5A74F412259312863E79008E828F08
:1000D00083E06078890A890B8063E50A75F00BA4D8
:1000E000FAA8F075F00BE50B12803B7048E50A7535
:1000F000F00BA4F8AAF075F00BE50B1285818E8247
:100100008F83E085088285098312A5321284E2EE8E
:100110002403FCE43F1281FA124B5712AEA8E50A01
:10012000F0A3E50B129B68D2E7F01244CD79019061
:1001300004D112943B050AE50A7002050B9004D124
:1001400012C08EC3E50A9AE50B9B408E029B727427
:10015000F5122593EAFEEBFF750A01740B122E6D62
:1001600012CCB3EC4D6015EC12BD583D12864C79A3
:1001700001124B75E508450960758023E5084509BE
:10018000604412BD56350912864C1281FB124B5148
:10019000E96401701BEEFAEFFB124B6FE9F50A857B
:1001A00008828509831284DA7902AA08AB098011D2
:1001B000128565124B51E9640170347903EEFAEF50
:1001C000FB124B7580298E828F83A3E064FE70033F
:1001D000A3E0F4700B128565124B51E96401700CB9
:1001E000EEFAEFFB124B6FE9F50A8003750A000285
:1001F0008CCBE50A2403FCE4350BFDE5082403FA67
:10020000E43509FB2274F71225939004D112AFD87C
:10021000EA4B602FEA75F00BA4FAA8F075F00BEB2F
:10022000A428FBEAFEEBFF1241259004D312AFD8BD
:100230009004D312ADED6012EEFCEFFD7900124098
:100240006B80079004D3E4F0A3F002AC5AC082C0E4
:1002500083EC4D600512423980097C087D007900ED
:1002600012406B029E4BC082C0837900EA4B60163D
:100270007800E8FCEA2C12B0B06004790178080834
:10028000E8C3940840EC029E4BC082C0837901EC25
:100290006A7002ED6B6011EA4B600BEC4D60071267
:1002A0004233E9F980027900029E4B74F7122593DC
:1002B00074F3122C17ECFEEDFF851882851983E488
:1002C000F004122E6DEAF0A3EB12C14E124B2D7406
:1002D00003122E6DAC82AD83EEFAEFFB124B57EE9C
:1002E000FAEFFB124B5102AC5574F712259374F3DD
:1002F000122C17ECFEEDFF851882851983E4F0EAD5
:10030000FCEBFD7403122E6DAA82AB83124B57AA2D
:1003100018AB19124B277401122E6D12A5438E8251
:100320008F8312AF9474FE68700374FF6960047960
:10033000018002790002AC5574F7122593EAFEEBB6
:10034000FF124B63E9F5087401650870111283A26E
:10035000F4FA88828983E05A4480F01244CDA908D7
:1003600002AC5A74F7122593EAFEEBFF7508008E73
:10037000828F83E0602A124B63E9F50874016508F7
:10038000701E1283A2FA88828983E05A70128E82CC
:100390008F83E04480FA88828983E04AF01244CD5A
:1003A00080BC12AD1CF81283B7128759F8A3E0394C
:1003B000F98E828F83E022A3E0F9E875F00BA4F8B0
:1003C0002274F41225938A088B097C007D00EA12BE
:1003D00081FD124B57E5081284FC7900850882855F
:1003E0000983A3E064FE7003A3E0F460787E007FDD
:1003F000008065EEFAEFFB12802F6057EEFAEFFBFC
:10040000EA75F00BA4FAA8F075F00BEBA428FB90AA
:1004100004D3E02AF50AA3E03BF50B8508828509A1
:100420008312C08D850A82850B83A3E06A7003A3C3
:10043000E06B701FE50A2403FAE4350BFB124B5105
:10044000E9640170061281F2124B571284F17901AE
:1004500012C9BD0EEE70010F9004D112C08EC3EE12
:100460009AEF9B408E029B7274F31225938A088B3D
:10047000098A828B831284DAEA1284FC750C00EA02
:100480001281FD124B51E9640170477E007F0080AC
:100490003C12874BFAA3E0398A82F583E0540F605F
:1004A0002712874BF50AA3E039F50B1281F21242AD
:1004B00033E964017012850A82850B831284E2128B
:1004C00084F1750C0112C9BD0EEE70010F12876820
:1004D00040BFA90C7F0502285FA3A374FEF0A3040C
:1004E000F022A312AC46850882850983A312A24B91
:1004F00022E508128506EEF0A3EFF02212850674BD
:10050000FEF0A304F022240BF582E43509F58322E2
:1005100074F5122593EAFEEBFF8E828F831284DA44
:100520007C007D00128565124B57EEFAEFFB124BF3
:1005300063E9F50A7401650A702712AC3F128575EC
:10054000850882F58312856D1281FB124B51E96497
:1005500001700EE5082403FCE43509128564124B92
:1005600057028CCBFDEE2403FAE43FFB22A312C01A
:100570009C12A24B22E875F00BA4F8AAF075F00BC0
:10058000E912875FF508A3E039F5092274F2122514
:100590009374E6122C1712863E750A0175080075D1
:1005A0000900750C00750D00851882851983E4F02B
:1005B000EE2403FCE43FFD7403122E6DAA82AB838C
:1005C000124B57AA18AB19124B27E96401701F741C
:1005D0000B122E6D12864E7401122E6D12C0967083
:1005E00003A3E069604AA818A91988088909740D4D
:1005F000122E6D12A531A312A543740E122E6D1288
:10060000AF94740D122BEF124B2DE9640170097435
:100610000D122BE7880C890D780C122BA1AC08ADBC
:1006200009EEFAEFFB124B697402122B63E9F50A2B
:10063000EEFAEFFB124B33A90A741A02AEBAEAFEC5
:10064000EBFF12AEAC74FEF0A304F022F58312C0EF
:100650007CF912AEAC12A24B22C082C08378007922
:1006600000800508E87001099004D1129850E99BB8
:100670005029E8FAE9FBEA75F00BA4FAACF075F042
:100680000BEBA42CFB9004D3E02AFCA3E03B8C8270
:10069000F583E0540F70CC790080027901029E4B03
:1006A00074F61225937E007F008039EEF8EFF91280
:1006B00085757808122BA175080B7509007808124A
:1006C0002BA1EEFCEFFDEC75F00BA4FC75F00BED2F
:1006D000A42AFD7A237B001241AF7404122B630E0F
:1006E000EE70010F12876840C2028BE374F6122588
:1006F000937E007F00804C12874BF8A3E039F98885
:10070000828983E0A2E75036C2E7F08582088583BC
:10071000097808122BA175080B7509007808122BAF
:10072000A1EEFCEFFDEC75F00BA4FC75F00BEDA455
:100730002AFD7A237B001241A97404122B630EEE6A
:1007400070010F12876840AF028BE3EEF8EFF9E813
:1007500075F00BA4F812875922AAF075F00BE9A4E2
:100760002AF99004D3E028229004D112AC46C3EEBB
:1007700098EF992274F6122593E4F508F5097808A4
:10078000122BA19004D112943675F00BA4FCA8F0A2
:1007900075F00BEDA428FD7A237B0012419D7402B5
:1007A000122B63E9FE6003124AFD02C6B274F61210
:1007B000259374FF122C177E007F00803C851882E1
:1007C000851983E412919E122BA175080175090009
:1007D0007808122BA1EEFCEFFDEC75F00BA4FCA841
:1007E000F075F00BEDA428FD7A237B001241A9746B
:1007F00004122B630EEE70010F12876840BF740164
:10080000028BE0C082C083905166E49375F01CA413
:10081000FCADF079FF7A1D7B0812406B029E4B7491
:10082000F7122593E9FCEAFD7A007B008010EB12B9
:100830008E799C4008E0F8EDC39840010A0B905176
:1008400066E493F8EBC39840E57B0002AC5A74EC85
:1008500012259374F3122C178A0C8B0D8C088D09BA
:10086000890AEC45096016AA08AB09124AB58A0E36
:100870008B0FAE0EAF0FEE4F600302894C7A0080F3
:10088000010A90516612BFD3500F128A4170F27460
:100890001D28FE740839FF80047E007F00EE4F7033
:1008A000030289F5905149128A1260257403650A82
:1008B00060067404650A70197A047903124AE58A9D
:1008C0000E8B0F905166E493F8905149128A2B5089
:1008D0002D905147128A12602C7401650A600674CB
:1008E00002650A70207A027901124AE58A0E8B0F9E
:1008F000905166E493F8905147128A2B40077A0092
:100900007B00028A0D8518828519837401F0122EEE
:100910006DE50CF0A3E50DF0AC08AD097403122EE3
:100920006DAA82AB83124B57AA18AB19124B1B74DA
:100930000B122E6D12A2448E828F83A3A3A3A3A3B6
:10094000A3E412C852AA0CAB0D1235C17800E50A17
:100950006007C39405500278048E828F83E50CF003
:10096000A3E50D128D3CA3A3E50AF0E88E828F83E8
:10097000A3A3A3A3A312C3635001097A027B0012AD
:10098000233612982BA3129CCA129857E50A605B73
:10099000C394035056901A54E07018905026780C67
:1009A000122CFA129802122DFE905026780C122C5E
:1009B000FA8027F50875090074027808122D2012B4
:1009C0008A1C122CFA9081567810122DE0780C793E
:1009D0001012242E129802122DFEEE2413129805E6
:1009E000122DFEEE241B12C35A800912980E128497
:1009F000DDA3F0A3F07A047900124AE5128D2D40B0
:100A000005901994E4F0123483EEFAEFFB740D02B2
:100A1000A051E493F8740193F9E84922742625085B
:100A2000F58274503509F583780C22E493FA740149
:100A300093FBE8C39AF8E49BF9C3E50E98E50F9998
:100A400022EA128A47F42275F01CA4F8A9F0742156
:100A500028F582740839F583E02274EE1225937428
:100A6000F3122C17EAFEEBFF8C108D11750800AA0B
:100A700010AB11124AB5EA4B7003028B758A828B58
:100A800083E06E7003A3E06F7003028B758A828B24
:100A900083A3A3A3A3E0C394054003028B758A82BA
:100AA0008B8312C9ABE060728A828B83A3A3A3A35A
:100AB000E0C394035064901A54E07021905026785B
:100AC00008122CFA128B7C122DFE905026780812F8
:100AD0002CFAEA2413128B7F122DFE8030F5087554
:100AE000090074027808122D20128A1C122CFA9028
:100AF00081567808122DE0780C790812242E129A6B
:100B00002C122DFEEA2413129A2F122DFEEA241B1A
:100B1000F582E43BF583E4F0801B7508FE7509FF60
:100B2000750AFF750BFF128B7C122DFEEA2413123F
:100B30008B7F122DFE750800750900750A00750B74
:100B400000EA240C128B7F122DFE851882851983F2
:100B50007401F0122E6DEEF0A3EFF0AC10AD117435
:100B600003122E6DAA82AB83124B57AA18AB19122F
:100B70004B1B750801A908740D02C9A3EA2417F5D7
:100B800082E43BF58378082274F6122593124ABB5F
:100B90008A088B09A808A909E84960148882898312
:100BA000A3A3A3A3E06009C39405500479018002C4
:100BB0007900802F74F6122593124ABB8A088B099C
:100BC000A808A909E849601488828983A3A3A3A37C
:100BD000E06009C394035004790180027900800326
:100BE000122B637F0202285F74F6122593124ABB10
:100BF0008A828B83E5824583600BA3A3A3A3E07065
:100C00000479018002790080DAC082C083EAFCEBBB
:100C1000FD7A007B00029E48C082C0837C007D007C
:100C2000029E4874F512259374F3122C17EAFEEB1A
:100C3000FF8C088D09C3EC94F8ED94FF4004EE4F4F
:100C40006065750A00801974FF6508700474FF659B
:100C500009600B12CF9C7004A3E06509603B050A94
:100C6000905166E493F8E50AC398503BE50A128A6E
:100C70004260EBEE4F60D0128CB2122E6D12C14A60
:100C8000124B21E960D87403122E6DAC82AD83EE55
:100C9000FAEFFB124233E960C5E50A75F01CA4F8CF
:100CA000A9F0128E7080047A007B00740D122B6301
:100CB000801B8518828519837401F0741F28F582C2
:100CC000740839F58312AC46740B22A90A7F03021B
:100CD000285F74F412259374F3122C177508001210
:100CE0004AB58A0A8B0BAE0AAF0BEE4F602585180A
:100CF00082851983128D3A128CC5122E6D12C14A4B
:100D0000124B397C1C7D0079FFEEFAEFFB12406B31
:100D10007508017A047900124AE5128D2D50099068
:100D200019947401F0123483A908029B6D905166E6
:100D3000E493F8C3EA98EB940022740112A536A359
:100D4000A32274F7122593E9FE74FE6A700374FF00
:100D50006B7C00700380240C128DA5501EEC128A4F
:100D60004260F4128F3F7003A3E06B70EA800BECDB
:100D7000128DBA6019E0640360140C128DA5501E28
:100D8000EE60ECEC128DAF60F1C3940550ECEC75A5
:100D9000F01CA4FCADF012D51212C08E80047AFEB5
:100DA0007BFF02AC5A905166E493F8ECC39822752D
:100DB000F01CA4F8A9F0128A4E2275F01CA4F8A920
:100DC000F0128A4E640122124A6D029E4BC082C00C
:100DD00083790180F274F01225938A0A8B0B7A04CE
:100DE0007901124AE58A0C8B0DEA450D6040EA2A2A
:100DF000FAEB33FB1241258A088B09AE08AF09EEE6
:100E00004F60267AFE7BFF124A6774FE6A70037495
:100E1000FF6B601E85088285098312AFD8E5082420
:100E200002F50850E2050980DE750C0080047E00A2
:100E30007F00850A82850B83E50CF0EEFAEFFB025A
:100E40009106C082C0837C008009EA24FF1AEB343B
:100E5000FFFB0C128DA55011EC128E79940550F207
:100E6000EA4B70E6128E7080047A007B00029E4B83
:100E7000741D28FA740839FB22128A47C32274F7BA
:100E800012259374F3122C177E00807DEF75F017F6
:100E9000A4F8A9F0128F3012C08EEE75F01CA4F8E1
:100EA000A9F0128F3F7003A3E06B603DEF75F01760
:100EB000A4F8AAF0EAF9128F3012A5437401122E99
:100EC0006DE0687003A3E069601FEF75F017A4F888
:100ED000EAF9746B28FC740A39FD7403122E6DAAAA
:100EE00082AB83124233E96013EF75F017A4F8A9BF
:100EF000F0746928FA740A39FB1235CD0F90277BFC
:100F0000E493F8EFC39840840E12D4FF501FEE1202
:100F1000DA7DF47003A3E0F460EE128CB2122E6D51
:100F200012C14A124B21E960DF7F0080D002AC552C
:100F3000128F3422746928F582740A39F5832212DB
:100F4000DA886A2274F412259374F3122C177E0047
:100F5000803890815E7808122DE0EE75F01CA4F8C0
:100F6000A9F0743028F582740839F5837808122CBA
:100F70006E60169081067808122DE0EE75F01CA4C4
:100F8000F812900C7808122CD40E12D4FF507AEE7E
:100F9000128DAF60F4C3940350EF12900C122E1A0E
:100FA000E8494A4B70AC90196BE06401702D9005D4
:100FB000DA12ADED6025EE75F01CA4F8A9F0741DF1
:100FC00028F8740839F912906212299D8882898361
:100FD0001290F71227797404122B638518828519F1
:100FE000837401F0EE75F01CA4F8A9F0128CBB120A
:100FF0002E6D12C14A124B21E9608E7403122E6DC0
:10100000AA82AB83124A738080029B6D743428F5E8
:1010100082740839F5832274F6122593124ABB8A2A
:10102000088B09A808A909E849603288828983A346
:10103000A3A3A3E06023C39403501E129062122E58
:1010400026E82417F582E439F583122E4AE8241B9A
:10105000F582E439F5837401F079018002790002A8
:101060008BE3E82413F582E439F5832274F012252A
:1010700093EAFEEBFF9005D412ADED60729005DAB5
:1010800012ADED606A9005DE12ADED606212D38B99
:10109000122779E97059901A54E0700A9050267816
:1010A00008122CFA8028F5087509007402780812D5
:1010B0002D2012D56D745012D36C7808122CFA9032
:1010C0008156780C122DE07808790C12242E7808BD
:1010D000122B991290F11227797404122B63E96490
:1010E00001700C8E828F83A3A312D379122779808B
:1010F000158E828F83A3A312B98D9005DA12D38344
:1011000022740D122B637F0802285F74F612259358
:10111000E4F508F5097808122BA1905166E493F5DF
:101120000874037808122D2012942812419D74022D
:10113000122B63E9FE740A6E6025E4F508F5097860
:1011400008122BA1905166E49375F005A4FCADF054
:101150007A3F7B0012419D7402122B63EE600312F2
:101160004A3702C6B274F612259374FE122C178504
:101170001882851983E4F0A312919E122BA17508A1
:10118000027509007808122BA17C007D007A227B71
:10119000001241A97404122B637402028BE0F0A8C0
:1011A00018A9198808890978082274EE1225937401
:1011B000DE122C178A0E8B0F8C088D09750C007AA5
:1011C000227B001241A38A0A8B0B7A3F7B001241DB
:1011D000A38A108B11AE10AF11E50A450B6017E51D
:1011E00008650A7004E509650B600BAC0AAD0B7A63
:1011F000227B001241B57436122E6D12943BEE4FD5
:101200006015E50A6E7003E50B6F600BEEFCEFFDF9
:101210007A3F7B001241B5E4F510F5117810122BDE
:10122000A1AC08AD097A227B0012419D7402122BF9
:1012300063E9640A700302941EE4F508F50978086E
:10124000122BA1AC0AAD0B7A3F7B0012419D7402B8
:10125000122B63E9640A700302941E7404122BE7D4
:10126000880889097808122BA17508027509007889
:1012700008122BA17C007D007A017B031241AF7420
:1012800004122B63E9600302941E8518828519837A
:10129000E4F0A3F07E000293957406122BE7880811
:1012A00089097808122BA1750808750900780812B9
:1012B0002BA18E0874037808122D20E5082402FC67
:1012C000E43509FD7A017B031241AF7404122B63EC
:1012D000E9600302941E7408122E6DE0F47003A3FB
:1012E000E0F470030293947406122BE788088909CE
:1012F0007808122BA17508087509007808122BA12F
:101300007404122E6D12CCB374037808122D2012BF
:1013100094281241A97404122B63E9600302941EFD
:101320007402122BE7880889097808122BA1750826
:10133000057509007808122BA1EE75F005A4FCAD27
:10134000F07A027B031241AF7404122B63E97041FF
:101350007402122BE7880889097808122BA17508F6
:10136000057509007808122BA17404122E6D1294D1
:101370003675F005A4FCA8F075F005EDA428FD7AFB
:101380003F7B001241A97404122B63E960030294AD
:101390001E1299440E851882851983C082C08390DD
:1013A0005166E493F8D083D082C3E098A3E0940020
:1013B0005021851882851983C082C0837404122E3F
:1013C0006D12A543D083D082C3E098A3E099500367
:1013D000029299A818A919880889097808122BA1DE
:1013E0007508027509007808122BA17C007D007A2F
:1013F000227B001241A97404122B63E97020AC0E09
:10140000AD0F7A017B031241B5E970127434122ECC
:101410006D12C8567A027B031241B5E96003750C60
:1014200001A90C742202C9A3E5082402FCE43509D1
:10143000FD7A227B002212C85AEC22E0F50AA3E0D2
:10144000F50B2274EC12259374FE122C17750A000A
:10145000851882851983E4F0A3F090516693F50E08
:10146000F50875090074037808122D20E508240298
:10147000F50850020509E50E75F005A4F50EE5F036
:10148000F50F7A227B001241A38A0C8B0DAE0CAFB4
:101490000D7A3F7B001241A38A108B11A818A9195D
:1014A000880C890D780C122BA1750C02750D007833
:1014B0000C122BA17C007D007A227B001241AF74BC
:1014C00004122B637A017B031241A38A0C8B0D7AE1
:1014D000027B031241A38A128B13A812A913E50CF5
:1014E000450D700AE5086E7003E5096F7025E8493F
:1014F000700CE50E65107004E50F65117015E50CB4
:10150000450D607BEE4F604E85188285198312AFC2
:10151000DE60437C017D037A227B00123657E9F8B6
:10152000880A705B7C027D037A3F7B00123657E9A4
:10153000F8880A704AEEFCEFFD7A227B001241B572
:10154000E9700EAC10AD117A3F7B001241B5E96035
:1015500011750A018029AE0CAF0DE84960048810AE
:101560008911780E122BA17810122BA1AC08AD09AD
:10157000EEFAEFFB124A317404122B63E9F50AA963
:101580000A740202A05174EC12259374D0122C1725
:10159000851882851983E4F0A3F0124A2BE96003D1
:1015A0000297EAA818A919880889097808122BA1B6
:1015B0007508027509007808122BA17C007D007A5D
:1015C000227B001241AF7404122B63E9600302977F
:1015D000EA905166E493F885188285198312985031
:1015E000E49B50030297EA750A00750B007508002A
:1015F000803D7403122E6D122E1A129821122E564F
:101600007403122E6D122E1A12A868122E56EE2492
:101610001BF582E43FF583E4F07A047900124AE591
:10162000128D2D4005901994E4F0123483050812B0
:1016300097F740030297EA12A53DC3E50A98E50B28
:101640009940030297EA7414122BE7880C890D78ED
:101650000C122BA1750C08750D00780C122BA185AE
:10166000080C7403780C122D20E50C2402FCE435E0
:101670000DFD7A227B001241AF7404122B63E970D6
:10168000AC7416122E6DE0F47003A3E0F4609E05B6
:101690000AE50A7002050B7407122E6D7401F074CE
:1016A00016122E6D12A5437412122E6D12AF947481
:1016B00007122BEF124B21E9700302962D12C8532B
:1016C0007414122E6D12C08E1235C1E50875F01C0F
:1016D000A4F8A9F0741D28FE740839FF7414122BA5
:1016E000E7880C890D750E00780C122B9D7C087D07
:1016F00000EEFAEFFB12405F7403122B6312C36813
:101700005001097A027B0012233612982B12985747
:101710007402122BE7880C890D780C122BA1750C22
:1017200005750D00780C122BA1E50875F005A4FCD9
:10173000ADF07A3F7B001241AF7404122B63E96075
:1017400003029619908106780C122DE07403122E74
:101750006D780C122C6E60030295F2E50875F01C92
:10176000A4F8AAF0EAF9128DB66071C39403506C24
:10177000901A54E07018905026780C122CFA129897
:1017800002122DFE905026780C122CFA8033F50CA4
:10179000750D007402780C122D207426250CF5822C
:1017A000745012B95B780C122CFA90815678101292
:1017B0002DE0780C791012242EEAF9129802122DDD
:1017C000FEEE2413129805122DFEE50875F01CA4F8
:1017D000F8743828F58274083902961512980E04A8
:1017E000141284DDA3F0A30296188518828519834C
:1017F000E0F9743002A051905166E493F8E508C313
:101800009822EE2417F582E43FF583780C22129893
:101810002174FEF0A304F0A3F0A3F012A86C74FEF0
:1018200022EE2417F582E43FF58322E88E828F832F
:10183000A3A3A3A3A3A3A3A312AC1A740112AC1A6B
:10184000A374AAF0EE2410F582E43FF583E4F022BD
:1018500012B98DC3E89A22A3F012AEACE4F0EE24E4
:101860000CF582E43FF583E4F0A3F0A3F0A3F022AB
:1018700074F212259374FE122C1785188285198331
:10188000E4F0A3F075080002990FE50875F01CA4B8
:10189000F8A9F0741D28F50C740839F50DAE087818
:1018A0000C122BA1750A08750B00780A122BA18E59
:1018B0000A7403780A122D20E50A2402FCE4350B91
:1018C000FD7A227B001241A97404122B63E50C24DB
:1018D00012F50AE4350DF50B780A122BA1750A05ED
:1018E000750B00780A122BA1EE75F005A4FCADF083
:1018F0007A3F7B001241A97404122B63850C828508
:101900000D83A3A3A3A3E0F4600312994405081276
:1019100097F7500302988AA818A9198808890978A6
:1019200008122BA17508027509007808122BA17CFA
:10193000007D007A227B001241A97404122B63748B
:101940000202AEBA851882851983E02401F0A3E073
:101950003400F02274F012259374F3122C17EAFE6F
:10196000EBFF7A027901124AE5EA8E828F83F070EA
:1019700003029A1F75F00CA4FAABF01241258A08F5
:101980008B09EA45097003029A25AE08AF09750A6A
:1019900000801C90810612299DEEFAEFFB1240E3B5
:1019A0007404122B638A0C8B0DAE0CAF0D050A90DC
:1019B0005166E493F8E50AC398506AE50A128DBAB5
:1019C0006005E0640270E6128CB2122E6D12C14AFC
:1019D000124B21E960187403122E6DAC82AD83EEB8
:1019E000FAEFFB1242398A0C8B0DAE0CAF0DE50AF3
:1019F00075F01CA4F8A9F0743828F582740812D187
:101A0000EA6401708E128E70EA2413129A2F122D3E
:101A1000E0129A2C122BFF780C122B9902999975CF
:101A20000800750900AA08AB09029101EA2417F51C
:101A300082E43BF583780C22C082C0839004DC747E
:101A400039F0A37433F09004DE7433F0A37433F0F0
:101A50009004E27489F0A3742EF0029E4BC082C001
:101A6000839004E0742DF0A37433F0029E4B74F75E
:101A7000122593EAFEEBFF90054EE06408601FE03C
:101A80006404601A8E828F83E054036401704412F0
:101A9000AD18F8A3E0F5838882E0640670358E8285
:101AA0008F83A3A3E064FE7003A3E0F460258E821D
:101AB0008F83A3A312C8637003A3E0697008EE24A8
:101AC0001512C84A60051233FF8003123405E9F588
:101AD0000880037508C2EEFAEFFB12412B02835E09
:101AE00074F41225938A088B098A828B83E0FAA307
:101AF000E0F8EA28FAE43400FB1241258A0A8B0B4D
:101B0000AE0AAF0BEE4F605A850882850983E0FC70
:101B10007D00790012406B8E828F831284D912343B
:101B20003B8E828F83A3A3A3A3EAF0A3EB129B684F
:101B3000F8EE28F8E43F128651850882850983A3D0
:101B4000E0C0E012C34DD0E0F012344DEE240EF5AB
:101B500082E43FF583E912A4BEE0C0E012A216D0F1
:101B6000E0F0EEFAEFFB800A12A4B6E022740D1248
:101B70002B637F0402285F74F412259374E8122CFF
:101B8000178A088B098C0A8D0BE9FE90054EE064DC
:101B9000046005E06408700479C2804BA3780812E1
:101BA0002DFEEE900555129CCF12406B8518828554
:101BB00019837808122DFE7405122E6DEEF0740450
:101BC000122E6D7401F07407122E6DE4F090054E24
:101BD0007402F090197DE06402700590196BE4F0D6
:101BE000AA18AB191249477418808474F41225930B
