:020000040000FA
:100000000212FF022003FFFFFFFFFF02200BFFFF92
:10001000FFFFFF020E61FFFFFFFFFF02201BFFFF3C
:10002000FFFFFF022023FFFFFFFFFF02202BFFFF48
:10003000FFFFFF022033FFFFFFFFFF020EA4FFFFC1
:10004000FFFFFF022043FFFFFFFFFF02204BFFFFE8
:10005000FFFFFF022053FFFFFFFFFF02205BFFFFB8
:10006000FFFFFF022063FFFFFFFFFF02206BFFFF88
:10007000FFFFFF022073FFFFFFFFFF02207BFFFF58
:10008000FFFFFF022083FFFFFFFFFF02208BFFFF28
:10009000FFFF70DFFFFF040000000002000000C847
:1000A0000300030369A5020269A501000000000026
:1000B00004003273000074F8121046900393E0605D
:1000C0001590030274FEF0900304744DF0A37405C0
:1000D000F07A011206857F0102116374F71210464F
:1000E00074FF12126B7E00801F851882851983E0D1
:1000F00064FE70069003877401F085188285198369
:10010000E0F8900384E068F07C017D00AA18AB1948
:10011000120E1C8B09EA450970030201F38518824F
:10012000851983E064EF70027E07E0C0E0900387EA
:10013000E0FA900385E0F8EA28F8E43400F9740264
:1001400028F582740339F583D0E0F0900387E060EE
:100150009814600E14602C14603C14605214606893
:100160008098900384E4F0851882851983E09003D9
:1001700086F0C394809003874004E40200F974027F
:100180000200F9851882851983E0900382F09003BC
:100190008774030200F9851882851983E090038330
:1001A000F0900386E0601990038774040200F990D0
:1001B0000385E004F0F8900386E06860030200FA2B
:1001C00090038774050200F9900385E4F09003879B
:1001D000F0900384E0F8851882851983E068600355
:1001E0000200FA900382E0644D60030200FA1203F9
:1001F000288002EEF974011212377F020211637433
:10020000F712104674FB12126BEAFEEBFF7508043E
:1002100075090078081212CF74021212E87A907BE6
:10022000007904120EC574021212371206771213E7
:1002300039E0687003A3E06970128518828519831C
:10024000E0F47003A3E0F4600302030874041212E4
:10025000E01206DD8A088B09A808A90974021213A6
:1002600039E8F0A3E9F07404121339E06008790169
:100270001200B6020321851882851983E068700395
:10028000A3E0697076851882851983E0F47003A372
:10029000E0F4701974021213397410F0A37420F092
:1002A0008518828519837410F0A37420F0750801F5
:1002B00075090078081212CF74021212E87A247BB2
:1002C00008120F49740212123775080478081212C6
:1002D000CF74021212E87A907B007904120EC57472
:1002E00002121237120677121339E0687003A3E086
:1002F000697004790280067904800279031200B6DD
:100300008E828F83741E80058E828F83E4F01206A6
:1003100077121339E0687003A3E0697004790180F3
:1003200002790074050201F774ED12104674F81298
:10033000126B900307E0FD900306E0FCFAEDF8E491
:10034000C8F9EA28FEE93408FF751001750B00753D
:100350000A068E088F0974027808121296C395084F
:10036000F8E49509F9740228F50E740339F50F8E37
:10037000088F09740978081212F0E508F511EE24C7
:1003800010F508E43FF509EEF50CEF5401F50D907A
:100390000383E014605914700302046414700302B0
:1003A00004DF14601024FE700302059A1470030227
:1003B000064A02065A750A03794E120C5B9003072F
:1003C00012066D7402F0A3744012066B74081206D4
:1003D0006BF0A3F07418C3940704F510AA10A90BCE
:1003E000120685A90A74081212377F0C0211637570
:1003F0000A04794E120C5BEE450D7005A911120F1F
:10040000AFC3EE9425EF9408503CC3E5089424E56F
:100410000994084031E50E2496F8E50F3420F98858
:10042000828983E0701BA3AA82AB83E070139003E0
:10043000887401F08882898374A5F08A828B838016
:1004400004900388E4F0750810750900780812120A
:10045000CF7C087D03EEFAEFFB120F4974021212F3
:10046000370203DC750A05E511C394794006750B64
:10047000010203DC75124075130078121212CF7C52
:10048000097D037402780C121296AA0CAB0DA91107
:10049000120EC57402121237900307E0A3F0900306
:1004A00006E0A3F0751043C3EE9425EF94084003D3
:1004B0000203DCC3E5089424E50994085003020311
:1004C000DC900388E070030203DCE50E2497F8E576
:1004D0000F3420F988828983E4F0A3F00203DC75ED
:1004E000080475090078081212CF74021212E87A13
:1004F000907B007904120EC5740212123774021236
:100500001339E0F8A3E0F9851882851983E0687053
:1005100003A3E069851882851983700BE0F47003EA
:10052000A3E0F470578009E0F47003A3E0F4700DC9
:100530008518828519837410F0A37420F012067751
:10054000121339E8F0A3E9F075080178081212CF08
:1005500074021212E87A247B08120F4974021212F4
:100560003775080478081212CF74021212E87A90D4
:100570007B007904120EC57402121237120677122C
:100580001339E0687003A3E0697006750A0102037D
:10059000DC750A02750B070203DC900391E060072B
:1005A000640260030203DCEDFF7A01790012068524
:1005B000E0600302063E8003120D1C120D26E97056
:1005C000F7740412133912065F7404121339780891
:1005D00012131D85080C85090D850A0E850B0F90D9
:1005E00005A2780C1212BC7404121339780C121381
:1005F0000EE5084509450A450B70CE8EC2E5C55487
:10060000E04FF5C5740412133912065F7404121317
:1006100039780812131D85080C85090D850A0E8589
:100620000B0F9005A2780C1212BC740412133978C7
:100630000C12130EE5084509450A450B70CE7A01E8
:10064000790012068579080203E5EC900393F070B7
:10065000030203DC750A090203DC79060203E5E400
:10066000F0A37426F0A3E4F0A3F022F0A3E4F0A337
:10067000F0A3F0A3F0A322851882851983E0F8A3E4
:10068000E0F974022274F8121046EAFE900305E0C5
:10069000D2E7F0E9A3F0EE900303F08E0874042A89
:1006A000FE7C028004E062080CECFA3395E0FB74F7
:1006B000022AF58274033BF583EEF8C3EA98EB94C3
:1006C00000A2D265D03340DDE508F074012A0C3376
:1006D00095E0FD7A027B03120E4C0200D674E912FB
:1006E00010467582007583FE1211FE8A168B1775EF
:1006F00014007515008A828B83E4F0900391E070FA
:1007000006D2AAD2AF80046402700579001200B646
:10071000750C00750D20750E00750F00900391E0AB
:10072000600464027015120D1C1200DBE9F87409F4
:1007300068600302080D79001200B675080075099B
:100740000278081212CF74021212E8850C08850D87
:1007500009AA08E5095407FB850E0A850F0B740BDF
:100760007808121252A908120EC574021212377EAE
:10077000007F009005AAC0828E10EFF5113395E03E
:10078000F512F513850C08850D09850E0A850F0BEA
:10079000780879101212A99005A678081212BC7573
:1007A0008305D08278081211DF501D8518828519C3
:1007B00083E5822EF582E5833FF583E0F9AA14AB49
:1007C0001512083C8A148B150EEE70010FC3EF94BE
:1007D0000240A09005AE780C1212BC9005B2780CC5
:1007E0001211DF400302071C7900AA14AB1512088E
:1007F0003C790012083C8B15900391E07004C2AF65
:10080000C2AAEA451570277AA57BA58021E8700366
:1008100002073B740668700302073B7407687003A5
:1008200002073B8516828517837401F080BA7582B2
:10083000007583021211FE7F10021163C008C00907
:100840007C088A088B09740F78081212F0E508F802
:10085000EA25E0FAEB33FBE9A2E7500474014AFA17
:10086000E8A2E0500874216AFA74106BFBE9C33304
:10087000F91CEC70CDD009D0082274F8121046781B
:10088000007900802274942EF582E43403F583E02D
:100890008A828B83F09004141209FA4005900414A4
:1008A000E4F008E8700109900414E0FEA3E06E6033
:1008B00007C3E89CE99D40CDE8FAE9FB7F010211FE
:1008C0006374F7121046900498E0F509A3E0F50868
:1008D000F8E509C398F895E0F9E508C39509E850EB
:1008E0000B120ADC701178007900801B247F500104
:1008F00009C39CE99D50EF7A007B008041E004F041
:10090000D2E908E8700109C3E89CE99D502C8A826D
:100910008B83E0C0E0900499E0FE74182EF582E429
:100920003404F583D0E0120ACC90049AE4F09004E9
:1009300099E0C3947F40C6E480C5E8FAE9FB7F02F2
:10094000021163C082C083C2E9900498E0F8A3E07A
:10095000686017741828F582E43404F583E0F5C163
:10096000900498120AF34002E4F0020D3A74F8126F
:1009700010467800790090051DE07055A3E0705195
:1009800075F900C28FC284A28340FCA28F4004A2EA
:100990008350F8AEF9C28FA2835004D2848032EE25
:1009A000C0E0E0FE1209EFD0E0F090051E120AF35D
:1009B00040D9E4F080D51209EFE08A828B83F09071
:1009C000051D1209FA400590051DE4F008E87001C4
:1009D0000990051DE0FEA3E06E6007C3E89CE99D59
:1009E00040D4E8497006E4F090051DF00208B874A0
:1009F0009D2EF582E43404F58322E004120AD0C36C
:100A000094802274F81210469005A0E0FEF890053C
:100A10009FE0FFEEC39FE0500DC398F895E0F912F8
:100A20000ADB70188012C398F895E0F9E8247F502B
:100A30000109C39CE99D4004EC4D70077A007B00DE
:100A4000020AC98A828B83E0F5F9A3AA82AB837874
:100A50000179008008E004F008E8700109C3E89C0F
:100A6000E99D50278A828B83E0C0E09005A0E0FEDC
:100A7000741F2EF582E43405F583D0E0120ACC9081
:100A800005A0E0C3947F40CDE480CCC28FA2834018
:100A9000FCC284A28F4004A28350F890059F120AE2
:100AA000E6E0F5F9C28F90059FE0FAA3E06A9005B1
:100AB0009F7005120AE68005120AF34002E4F0A2D4
:100AC0008350D0D284E8FAE9FB0208BC120AD02293
:100AD000F08A828B83A3AA82AB8322E824FF18E9E1
:100AE00034FFF9E84922E0FA741F2AF582E434055C
:100AF000F58322E004F0C394802274FB12126B7E13
:100B0000009005CA780812131D9005CA7401F0A35D
:100B1000F0A37469F0A374A5F09005B678081212DA
:100B20008170047E0180159005BA780812128160E8
:100B300008E59D541864107003022000120C81EE29
:100B4000A2E05003020BFEAA18AB191201FFE970D4
:100B500003020BFE851882851983E0C3943C500C78
:100B6000E0F8743CC398FA95E0FB80047A007B00BF
:100B7000120D3FE97003020BFE900391E0640170D7
:100B80000C75F800C2AB539AF7D2EA805E7907126F
:100B900000B68003120D1C120D26E970F7740112C5
:100BA0001339E4F0A37426F0A3E4F0A3F074011267
:100BB0001339780812131D85080C85090D850A0E56
:100BC000850B0F9005A2780C1212BC740112133918
:100BD000780C12130EE5084509450A450B70CE75D1
:100BE0008600C2AAC28B539AFBC2E990000174CD61
:100BF000F0022000C2AF75C9AB75C95B80FE7508F5
:100C000000750900750A00750B00900391E0701BD8
:100C1000D2AAD2AF79051200B6E07003120D1C12F1
:100C200000DBE9F8740968700980E9794E120C5B01
:100C300080ED74016870E2E07017120D1C9005BE23
:100C400078081212BC9005C278081211DF50EBC26E
:100C5000AAC2AF75C9AB75C95B80FEC082C083787C
:100C6000109005A1E0C399501575B60FE5B4A2E741
:100C700050FAE5BBC39940F118E870EDE9F0020DB8
:100C80003AC082C08353BEFBE59DA2E650FA0078CD
:100C9000F8790100120ADB70FA75C6807480659ECF
:100CA00070FA43BE049062707408F0794A120C5BCB
:100CB00090000174F5F07403F5D575D489A2A0E411
:100CC00033900391F0A2E05029D28453F3F753F309
:100CD000EF53FDF743FD10538FF753F7DF43FC202D
:100CE00043F10253F5DF75F82043F4F0D2FED2ABA6
:100CF000802853FF3F85FFFF53F1FE43F30C53F26F
:100D0000F375868075C48090049BE4F0A3F075C2EF
:100D1000D875C50B75C402438640801E8003120936
:100D200043A2E940F922C082C083900498E0F8A36E
:100D3000E0686004790180027900D083D082227457
:100D4000F112104674FF12126B7E00900391E06462
:100D500001706CC2849003927401F07508388E099A
:100D60008E0A8E0B7C017D00AA18AB19120E1C8B0B
:100D70000DEA450D6018851882851983E0641060BE
:100D80002DE064EF70088E088E098E0A8E0B8508A0
:100D90000C85090D850A0E850B0F9005A2780812A7
:100DA00012BCE50C450D450E450F70347E019003D5
:100DB00091E064017056D284900392E4F08051D2A5
:100DC000AAD2AF8A088B09E4F50AF50B9005C6781C
:100DD0000C12131D7808790C120FC679061200B692
:100DE000900391E06003020D64120D1C1200DBE918
:100DF000F8740968700779061200B6809174076864
:100E00006084E8608974066870A48082C2AFC2AA58
:100E1000EEF974011212377F08021163C082C08399
:100E2000900391E0700512087A801E900392E060B2
:100E300015A28F500BE5F98A828B83F07A0180022C
:100E40007A007B00800312096D020D3AC082C083D4
:100E5000900391E070051208C18003120A03020D8D
:100E60003AC0E074F21210AC900001E064CD70055D
:100E7000122013802AE064F57024E5C1C28BC0E023
:100E8000900415E0F8749428F582E43403F583D0D7
:100E9000E0F0900415120AF34005E4F08001007FB1
:100EA0000102110BC0E074F21210AC900001E0647A
:100EB000CD700512203B800BE064F57005120943EC
:100EC00080010080DA74F6121046890A740F550A00
:100ED000F508750900740B7808121296EA2400F8D8
:100EE000EB3480F9E82400E93509F985C709A2AF98
:100EF000E433F508C2AFE50AC4540FFAE5C754F865
:100F00004AF5C7740A121339E0FAA3E0FB801C8883
:100F1000828983E08C828D83F088828983A3A88272
:100F2000A9838C828D83A3AC82AD83EAFEEBFFEEB6
:100F300024FF1AEF34FFFBEE4F70D48509C7E50894
:100F4000A2E092AF7F0302116374F7121046ED9096
:100F50000389F0ECA3F0A37462F0A37473F0A3E030
:100F6000541FF07409121339E0F508A3E0F509E500
:100F700008333354FC90038EF0740678081212F094
:100F8000E50890038DF090038F7412F0A37442F083
:100F900075D1FE75D601EA906271F0EBA3F0906214
:100FA00070E0D2E1F0E0A2E740FB7F02021163C0F3
:100FB00082C083E9C333906272F0906270E0D2E045
:100FC000F0D083D08222080808EAC0E0EBC0E086B7
:100FD000F0E7A4FA180986F0E7A42AFA180986F0BF
:100FE000E7A42AFA180986F0E7A42AFA1986F0E796
:100FF000A4FBE5F02AFA190886F0E7A42BFBE5F03C
:101000003AFA190886F0E7A42BFBE5F03AFA18182B
:101010000986F0E7A4C5F02BFBE43AFA1908E7C506
:10102000F0C6A426F6E5F03BFBE43AFA1886F0E7B2
:10103000A4F6E5F00826F6E43B08F6E43A08F6D014
:10104000E0FBD0E0FA222518C582C0E0E51934FFA4
:10105000C583C0E0E518C3958224F910AF088583E5
:10106000198582188008858319858218D2AFCEF041
:10107000A3E520F0A37808E608F0A3DEFAEFF0A3DA
:10108000E58124FBF8E608F0A3E608F0A30808E6EB
:1010900008F0A3E608F0A315811581D0E0FED0E0AA
:1010A000F815811581E8C0E0EEC0E022C0D0251817
:1010B000C582C0E0E51934FFC583C0E0E518C395DB
:1010C0008224F310AF0885831985821880088583F0
:1010D00019858218D2AFC8F0A3E9F0A3EAF0A3EB18
:1010E000F0A37908E709F0A3D8FAECF0A3EDF0A398
:1010F000EEF0A3EFF0A3D0E0F0A3D0E0F0A3D0E0B7
:10110000F0A3E520F0A3E5F0F0A32285198385186C
:1011100082E0C0E0A3E0F9A3E0FAA3E0FBA3780833
:10112000E0F608A3DFFAE0FCA3E0FDA3E0FEA3E005
:10113000FFA3E0C0E0A3E0C0E0A3E0F5D0A3E0F5AA
:1011400020A3E0A3F5F010AF0885831985821880ED
:1011500008858319858218D2AFD082D083D0E0F879
:10116000D0E032851983851882E0A3FEE0A3F52044
:101170007808E0A3F608DFFAE0A3FFE0A3C0E0E010
:10118000A3C0E0E0A3C0E0E0A3C0E010AF08858208
:10119000188583198008858218858319D2AFD0837A
:1011A000D08222E490030278A179038002F0A3D8D0
:1011B000FCD9FA7AA27B0590008E782979018015F6
:1011C000E493A3AD82AE838A828B83F0A3AA82AB21
:1011D000838D828E83D8E9D9E7120AFA121343C0AD
:1011E00008C3E096F50808A3E096420808A3E09635
:1011F000420808A3E09645087001D3D00822C582B2
:101200002518C582C583351910AF07F519858218D1
:101210008007F519858218D2AFC583222518F5827B
:1012200010AF08F518400C15198008F51840021584
:1012300019D2AF8519832200C0D0251810AF08F548
:1012400018500C05198008F51850020519D2AFD0B6
:10125000D0226016080808C6C313C618C613C618DD
:10126000C613C618C613C6D5E0EA22251810AF0863
:10127000F518400C15198008F51840021519D2AF61
:1012800022E066701008A3E066700A08A3E06670AA
:101290000408A3E06622700422600D18C6C333C69A
:1012A00008C633C6D5E0F41822E627F60809E63763
:1012B000F60809E637F60809E637F622E026F608CA
:1012C000A3E036F608A3E036F608A3E036F622746B
:1012D000028000C0E0F40412121CD0E012132C2291
:1012E0002518FAE43519FB222518FCE43519FD22EE
:1012F000600C08C6C313C618C613C6D5E0F4227521
:10130000D00075813F7518027519030211A3E6F02C
:1013100008A3E6F008A3E6F008A3E6F022E0F6084A
:10132000A3E0F608A3E0F608A3E0F622CAC0E0E6D0
:10133000F0A308DAFAD0E0FA222518F582E435198C
:10134000F5832200000080FBFFFFFFFFFFFFFFFF90
:10135000FFFFFFFFFFFFFFFFFFFFFFFFFFFFFFFF9D
:10136000FFFFFFFFFFFFFFFFFFFFFFFFFFFFFFFF8D
:10137000FFFFFFFFFFFFFFFFFFFFFFFFFFFFFFFF7D
:10138000FFFFFFFFFFFFFFFFFFFFFFFFFFFFFFFF6D
:0A1FF600CA05094338860000000008
:020000040003F7
:01FFF000F020
:020000040000FA
:10200000022C6A0221FCFFFFFFFFFFFFFFFFFFFF23
:10201000FFFFFFFFFFFFFFFFFFFFFFFFFFFFFFFFD0
:10202000FFFFFFFFFFFFFFFFFFFFFF022904FFFF8E
:10203000FFFFFFFFFFFFFFFFFFFFFFFFFFFFFFFFB0
:10204000FFFFFF022759FFFFFFFFFFFFFFFFFFFF1B
:10205000FFFFFF022136FFFFFFFFFFFFFFFFFFFF34
:10206000FFFFFFFFFFFFFFFFFFFFFF02292DFFFF25
:10207000FFFFFFFFFFFFFFFFFFFFFFFFFFFFFFFF70
:10208000FFFFFF02218D01FFFFFFFFFFFFFFFFFFAB
:1020900010201020010105030101FF0F10FEFF7247
:1020A0004C00000000A84B00000000FF000000FFF3
:1020B000000196511800020000BB3D0000000055D1
:1020C0003D393E8B3D033E00007F3D000000000097
:1020D0000000000000000000000000000000000000
:1020E00000000006FFFFFF01010400351B00000097
:1020F000E8030000FFFF041C03E803000064006421
:1021000000B801A0BB0D00A0BB0D0002020008003A
:10211000000502070401051E02051E020A0A010845
:102120000803B80B02803E0102FEFFE8030A050027
:1021300001FFFF0A01E0C0E074F2122578A2AFE4CB
:1021400033F508D2AFAFA7AEA1EE5F541060061210
:102150003AD975A1EFEE5F54086008123ADF75A115
:10216000F78023EEA2E092F0EFA2E082F050179009
:102170006198E0F8900B52E0C398A2D265D033503A
:1021800002E8F075A1FE751A00E5088066C0E074EB
:10219000F2122578A2AFE433FED2AF9061A4E0F84A
:1021A000759B00E59158540860087591F7123B271C
:1021B0008023E59158541060087591EF123B2D80F3
:1021C00014E591A2E092F0E8A2E082F05007E0C2AC
:1021D000E0F0123C839061A3E0F8E5E95854046014
:1021E0000E123C5975E9FB906193E0A2E640F2754E
:1021F0001A00EEA2E092AF7F010225D7C0E074F290
:10220000122578A2AFE433FED2AF9061A5E0F8E5E5
:10221000BF585404600675BFFB123C9B80D1C3E4D9
:1022200098F8E499F912225F8026C3E49AFAE49BB5
:10223000FBE920E7E912225FE498F8E499F922C368
:10224000E498F8E499F912225FE498F8E499F9C364
:10225000E49AFAE49BFB22EB20E7CFE920E7E0B920
:102260000010BB0008E88AF084F8AAF022E4FBC85A
:10227000FA22EB70227B10C833C8C933C933500728
:10228000C39AC3DBF280069A50012ADBEAC833F412
:10229000C8C933F4C9FA2275F008E4C833C8C93391
:1022A000C933C99AC99B5004C92AC93BD5F0ECFB74
:1022B000C833F4C8E4C9FA2274F512251274FA126C
:1022C0002AC77508047509007808122A5174041287
:1022D0002AA77AF87B0779031239B37402122A2EDF
:1022E0009080F27808122C7A7402122D0778081266
:1022F0002AF370497508027509007808122A51748A
:1023000002122AA77AF67B0779031239B3740212F4
:102310002A2E851882851983E0F47003A3E0F46007
:102320001C851882851983E0F8A3E0F988828983E7
:102330007402F0A3F0A37469F0A374A5F0C2AF75A2
:10234000D69F0200007406122A2E7F0402279C08E2
:102350000808EAC0E0EBC0E086F0E7A4FA180986B6
:10236000F0E7A42AFA180986F0E7A42AFA180986E1
:10237000F0E7A42AFA1986F0E7A4FBE5F02AFA1997
:102380000886F0E7A42BFBE5F03AFA190886F0E797
:10239000A42BFBE5F03AFA18180986F0E7A4C5F07B
:1023A0002BFBE43AFA1908E7C5F0C6A426F6E5F0D7
:1023B0003BFBE43AFA1886F0E7A4F6E5F00826F6C7
:1023C000E43B08F6E43A08F6D0E0FBD0E0FA22E479
:1023D000CFC0E0E4CEC0E0E4CDC0E0E4CCC0E07526
:1023E000F020E626F608E633F608E633F608E6338C
:1023F000F6181818EC33FCED33FDEE33FEEF33FF27
:10240000C3EC9709ED9709EE9709EF971919194051
:102410000FFFEC97FC09ED97FD09EE97FE191906E1
:10242000D5F0BFECF709EDF709EEF709EFF7191949
:1024300019D0E0FCD0E0FDD0E0FED0E0FF2225186E
:10244000C582C0E0E51934FFC583C0E0E518C39537
:102450008224F810AF088583198582188008858347
:1024600019858218D2AFCEF0A3E520F0A37808E654
:1024700008F0A3DEFAEFF0A3E58124FAF8E608F00D
:10248000A3E608F0A3E608F0A30808E608F0A3E630
:1024900008F0A315811581D0E0FED0E0F815811574
:1024A000811581E8C0E0EEC0E022122CFCB90003E7
:1024B0000224FCE49004D17871791A8002F0A3D848
:1024C000FCD9FA781A9020867A01BA00028007E4D3
:1024D00093A3F608DAF97A417B1E90209478A379C9
:1024E000018015E493A3AD82AE838A828B83F0A32F
:1024F000AA82AB838D828E83D8E9D9E77582257550
:1025000083B474061229F57582A375834974001289
:1025100029F52518C582C0E0E51934FFC583C0E060
:10252000E518C3958224F910AF08858319858218B0
:102530008008858319858218D2AFCEF0A3E520F0FC
:10254000A37808E608F0A3DEFAEFF0A3E58124FB08
:10255000F8E608F0A3E608F0A30808E608F0A3E60A
:1025600008F0A315811581D0E0FED0E0F8158115A3
:1025700081E8C0E0EEC0E022C0D02518C582C0E0EE
:10258000E51934FFC583C0E0E518C3958224F31034
:10259000AF0885831985821880088583198582187C
:1025A000D2AFC8F0A3E9F0A3EAF0A3EBF0A3790857
:1025B000E709F0A3D8FAECF0A3EDF0A3EEF0A3EF57
:1025C000F0A3D0E0F0A3D0E0F0A3D0E0F0A3E520AA
:1025D000F0A3E5F0F0A322851983851882E0C0E01E
:1025E000A3E0F9A3E0FAA3E0FBA37808E0F608A3D0
:1025F000DFFAE0FCA3E0FDA3E0FEA3E0FFA3E0C060
:10260000E0A3E0C0E0A3E0F5D0A3E0F520A3E0A3C1
:10261000F5F010AF08858319858218800885831925
:10262000858218D2AFD082D083D0E0F8D0E03210CB
:1026300075F0108E218F228582268583258518824C
:10264000851983E0CEA3E0CF852682852583EBC95B
:10265000EAC8EDCBECCAC3E833C8E933C9EA33CAE8
:10266000EB33CBC3EA9EF524EB9FF523B35004ABC9
:1026700023AA24EC33CCED33CDD5F0DAAE21AF2252
:1026800022D083D082ECC0E0EDC0E0E493A3FCE470
:1026900093A3FDED4C600D1227DCEC24FFFCED3420
:1026A000FFFD80EFE493A3FCE493A3FDED4C600DEC
:1026B0001228AFEC24FFFCED34FFFD80EFD0E0FDED
:1026C000D0E0FCE493A3C0E0E493C0E0228519834A
:1026D000851882E0A3FEE0A3F5207808E0A3F608C1
:1026E000DFFAE0A3FFE0A3C0E0E0A3C0E0E0A3C006
:1026F000E0E0A3C0E0E0A3C0E010AF088582188549
:1027000083198008858218858319D2AFD083D0823F
:102710000229FBD083D082E9C0E0E493A3C386F012
:10272000C5F095F0F908E493A386F0C5F095F07034
:102730000BE493A3C3994005E9048002A3E475F078
:1027400002A42582F582E5F03583F583D0E0F9E433
:1027500093A3C0E0E493C0E022C0E074F2122578B5
:10276000A2AFE433FED2AFC2C0901D39E0700BE5DA
:10277000D1A2E4501D123A378018E5D1A2E35006E9
:1027800075D1F7123A0DE5D1A2E4500675D1EF12DA
:102790003A13EEA2E092AF7F010225D78519838517
:1027A0001882E0A3FEE0A3F5207808E0A3F608DF96
:1027B000FAE0A3FFE0A3C0E0E0A3C0E0E0A3C0E034
:1027C000E0A3C0E010AF08858218858319800885D2
:1027D0008218858319D2AFD083D08222C0E0C3E4AF
:1027E0009396087401939618400FE4936670080856
:1027F000740193661870007019A3A3C3E49396083C
:102800007401939618A3A3400DD0E0D0E0D0E0026D
:1028100026BDA3A3A3A3A3A3D0E022D083D082C5C7
:10282000F0E493A3C5F0C395F0F5F0E493A3C3954A
:10283000F04005E5F0048001E475F002A42582F57E
:1028400082E5F03583F583E493A3C0E0E493C0E030
:10285000227404800474028000CCC0E0EDC0E0E586
:1028600018C39CCCAD1950011D10AF068C188D19E2
:1028700080068C188D19D2AF122977D0E0FDD0E0F8
:10288000FC2274028000CCC0E0EDC0E0E518C39CDF
:10289000CCAD1950011D10AF068C188D1980068C17
:1028A000188D19D2AF122955D0E0FDD0E0FC22C01E
:1028B000E0C0F088F0E4936670080874019366182D
:1028C0007000A8F0A3A3700BD0F0D0E0D0E0D0E06F
:1028D0000226BDA3A3D0F0D0E022D083D082CCC00A
:1028E000E0E493A360061229D61470FAE493A3607F
:1028F00006122ADD1470FAD0E0FCE493A3C0E0E4F1
:1029000093C0E022C0E0C0D0E8C0E0E9C0E0A9A8E0
:10291000D2AFC2C7751A00E9A2E7E433F8E9A2E72B
:1029200092AFD0E0F9D0E0F8D0D0D0E032C0E0747F
:10293000F2122578758900C2C5901D39E0700E7AB3
:10294000007B10900BE8E0F9123F6B80031247F90F
:102950007F010225D7CAC0E0E493A3C582CCC5821B
:10296000C583CDC583F0A3C582CCC582C583CDC543
:1029700083DAE5D0E0CA22CAC0E0E0A3C582CCC5B4
:1029800082C583CDC583F0A3C582CCC582C583CD66
:10299000C583DAE6D0E0CA2270090808082260166A
:1029A000181818C6C333C608C633C608C633C608C7
:1029B000C633C6D5E0EA22C008C3E096F50808A3EE
:1029C000E096420808A3E096420808A3E09645086E
:1029D0007001D3D00822C0E0E493A3D39C5010E44C
:1029E00093A3C39C400AD0E0D0E0D0E00228F7A334
:1029F000A3A3D0E022C09FF59FE473D09F22D08391
:102A0000D082C09FE493C0E0740193C0E07402934D
:102A1000F59F222518F58210AF08F518400C1519FE
:102A20008008F51840021519D2AF8519832200C01D
:102A3000D0251810AF08F518500C05198008F518A6
:102A400050020519D2AFD0D0227404800A740380DA
:102A500006740280027401C0E0F404122A13D0E06C
:102A6000122CA722BB0102E722C082C08389828A7E
:102A700083BB0003E08002E493D083D082226016FF
:102A8000080808C6C313C618C613C618C613C61846
:102A9000C613C6D5E0EA222518F8E43519F922252F
:102AA00018FAE43519FB222518FCE43519FD22C378
:102AB000E0C696F608A3E0C696F608A3E0C696F62A
:102AC00008A3E0C696F622251810AF08F518400CAA
:102AD00015198008F51840021519D2AF22C0E0E49C
:102AE00093A36C7009D0E0D0E0D0E00228F7A3A354
:102AF000D0E022E066701008A3E066700A08A3E048
:102B000066700408A3E06622E76670100809E766AD
:102B1000700A0809E76670040809E76622C3E096B0
:102B200008A3E09608A3E09608A3E096A2D265D099
:102B30003322C3E096F008A3E096F008A3E096F0F5
:102B400008A3E096F022C3E697F60809E697F60890
:102B500009E697F60809E697F622C3E49396087407
:102B60000193960874029396087403939622E627BD
:102B7000F60809E637F60809E637F60809E637F6F3
:102B800022E026F608A3E036F608A3E036F608A30E
:102B9000E036F622E493F608740193F60874029383
:102BA000F608740393F622E647F60809E647F608A6
:102BB00009E647F60809E647F622E657F60809E669
:102BC00057F60809E657F60809E657F622E056F6E2
:102BD00008A3E056F608A3E056F608A3E056F6224E
:102BE000E056F008A3E056F008A3E056F008A3E092
:102BF00056F022E026F008A3E036F008A3E036F015
:102C000008A3E036F022700422600D18C6C333C654
:102C100008C633C6D5E0F41822E4C396F608E49655
:102C2000F608E496F608E496F622C6F4C608C6F45A
:102C3000C608C6F4C608C6F4C622600D08C6A2E7D8
:102C400013C618C613C6D5E0F322C3E7960809E7F2
:102C5000960809E7960809E79622C3E09608A3E0DC
:102C60009608A3E09608A3E0962275D00075813FF0
:102C70007518D1751904000224AAE0F608A3E0F63D
:102C800008A3E0F608A3E0F622600C08C6C313C64A
:102C900018C613C6D5E0F422E6F008A3E6F008A3B0
:102CA000E6F008A3E6F022CAC0E0E6F0A308DAFAEC
:102CB000D0E0FA22E0F8A3E0F9A3E0FAA3E0FB22D7
:102CC000E0FCA3E0FDA3E0FEA3E0FF22EAF0A3EB1B
:102CD000F0A3ECF0A3EDF022E0FAA3E0FBA3E0FC0C
:102CE000A3E0FD22ECF0A3EDF0A3EEF0A3EFF022C1
:102CF000E8F0A3E9F0A3EAF0A3EBF022E5C754F86B
:102D00004401F5C77901222518F582E43519F583C8
:102D1000221229FEC8A4021229FE47A5021229FE8A
:102D200078A6021229FEB4A6021229FE8EA802126B
:102D300029FE4BAC021229FE5FAC021229FE69ACDF
:102D4000021229FE73AC021229FE7DAC021229FE8A
:102D500087AC021229FEA0AC021229FEAAAC021214
:102D600029FE21AD021229FE2CAD021229FE5BAD17
:102D7000021229FE83AD021229FE8EAD021229FE37
:102D8000F3AD021229FEFDAD021229FE08AE0212B9
:102D900029FE2CAE021229FE50AE021229FEC2AE4E
:102DA000021229FE0BAF021229FE27AF021229FEE2
:102DB00098AF021229FEE4AF021229FE2DB00212D2
:102DC00029FE6BB0021229FEECB0021229FE93B16B
:102DD000021229FE58B3021229FEBDB3021229FEC7
:102DE000EBB4021229FE11B5021229FE59B60212E5
:102DF00029FE93B9021229FE91BB021229FE5CBD85
:102E0000021229FEF5BD021229FEF6BF021229FEAA
:102E1000ABC0021229FEE4C0021229FE54C1021204
:102E200029FE5EC1021229FE87C3021229FE8AC44E
:102E3000021229FEC7C5021229FE1EC6021229FE71
:102E4000C9C6021229FE79C8021229FEC6C9021299
:102E500029FEE6C9021229FE3BCA021229FE3CCB1A
:102E6000021229FE64CB021229FEC3CB021229FEF4
:102E7000BBCC021229FE32CD021229FE45CE02122F
:102E800029FEB3CE021229FEB2CF021229FE0CD2C5
:102E9000021229FE35D2021229FE9BD3021229FE0C
:102EA0001DD5021229FE74D5021229FE22D6021265
:102EB00029FEC7D6021229FE2AD7021229FEE8D718
:102EC000021229FE7AD8021229FED9D8021229FE4E
:102ED0001BD9021229FE4CD9021229FEA3DA0212D2
:102EE00029FE0080031229FE3280031229FE6B8026
:102EF000031229FE3482031229FE7882031229FE6E
:102F00004E83031229FEAD83031229FEC3840312EC
:102F100029FE0F85031229FE9D87031229FE818A4F
:102F2000031229FEC88B031229FE608C031229FEAE
:102F30006C8C031229FEB58C031229FEF78D031247
:102F400029FEED8E031229FE178F031229FE6D8FC5
:102F5000031229FEC68F031229FE3990031229FE9F
:102F60006F92031229FEF193031229FEDC940312DF
:102F700029FE2696031229FE5E98031229FE5B9B0A
:102F8000031229FE6A9B031229FEFE9B031229FEEF
:102F9000A99C031229FEEC9C031229FE359D031205
:102FA00029FE859D031229FEE99D031229FE5B9EE1
:102FB000031229FE779E031229FEA69E031229FE04
:102FC000E59E031229FEE09F031229FE8FA0031243
:102FD00029FE0CA3031229FE3EA4031229FE16A506
:102FE000031229FE98A5031229FECDA9031229FE7A
:102FF000FCA9031229FE57AA031229FE8AAA03126A
:1030000029FE02AB031229FE35AB031229FE96AB53
:10301000031229FEE6AB031229FEB3AC031229FE0C
:103020006CAD031229FE30AE031229FEAAB00312C2
:1030300029FE0CB2031229FE5DB3031229FE81B4EE
:10304000031229FE84B4031229FEB3B4031229FE2D
:10305000ABB6031229FE6AB7031229FE99B7031211
:1030600029FEB7B8031229FE7FB9031229FE40BB1F
:10307000031229FEB0BB031229FEE2BB031229FE94
:1030800002BC031229FE71BC031229FE6ABD0312A1
:1030900029FE8EBD031229FE01BE031229FE2AC09D
:1030A000031229FE89C0031229FEDDC0031229FE86
:1030B0000CC3031229FEEFC3031229FE77C40312C7
:1030C00029FE5BC5031229FEE5C5031229FEF9C5D9
:1030D000031229FE0DC6031229FE21C6031229FE82
:1030E00035C6031229FE62C6031229FE92C60312D8
:1030F00029FE4DC8031229FE23C9031229FEC7C9A0
:10310000031229FE1CCA031229FE7FCA031229FEDC
:10311000C8CA031229FEEFCA031229FEB7CB031255
:1031200029FE5DCC031229FEE3CD031229FE6ECEEB
:10313000031229FEB5CE031229FE27CF031229FE62
:103140007CD0031229FE25D1031229FE59D1031286
:1031500029FE71D1031229FE14D2031229FE90D444
:10316000031229FE38D6031229FE56D6031229FE71
:1031700074D6031229FE40D7031229FE8EDA0312F9
:1031800029FE4B81011229FE8D81011229FEFA864A
:10319000011229FE4687011229FE8C87011229FEA1
:1031A000DD88011229FE4289011229FE8689011259
:1031B00029FEEC8A011229FE478E011229FE7A8F20
:1031C000011229FE099B011229FE999B011229FE79
:1031D000839E011229FEE89F011229FE4BA00112D5
:1031E00029FE67A1011229FED1A2011229FEB0A376
:1031F000011229FE1EA6011229FEB0A7011229FE06
:1032000041A8011229FE60A9011229FEEDA90112AF
:1032100029FEF7A9011229FE1FAA011229FEC2AA3E
:10322000011229FEADAB011229FE75AC011229FE77
:1032300002AD011229FE18AD011229FE35AD0112B1
:1032400029FE5EAD011229FE8BAD011229FECFAF22
:10325000011229FEA2B0011229FEE6B0011229FED8
:1032600068B1011229FE09B2011229FE3BB2011216
:1032700029FE82B2011229FEB5B2011229FEF9B26D
:10328000011229FE48B3011229FE4DB3011229FE95
:10329000A9B3011229FEEDB3011229FED7B4011220
:1032A00029FE3CB5011229FE9AB5011229FE19B674
:1032B000011229FE91B9011229FE94BA011229FEC8
:1032C0002ABC011229FE6DBF011229FE0FC0011296
:1032D00029FE58C2011229FE13C3011229FE52C34E
:1032E000011229FE16C5011229FE33C5011229FE5D
:1032F0003CC5011229FE45C5011229FE50C5011227
:1033000029FE6FC5011229FE93C7011229FEF0C7DD
:10331000011229FEFAC7011229FE04C8011229FE72
:1033200067C8011229FEC3C8011229FED0C90112C3
:1033300029FE31CA011229FE42CB011229FE8BCB94
:10334000011229FE55CC011229FE6CCD011229FE75
:1033500030CE011229FE7CCF011229FE80D001124D
:1033600029FE79D1011229FE91D1011229FEC8D17D
:10337000011229FED2D1011229FEDCD1011229FE4F
:10338000E7D1011229FE05D2011229FE4DD2011208
:1033900029FEABD2011229FED2D2011229FEE4D2BB
:1033A000011229FE8DD3011229FEC6D3011229FE76
:1033B000F7D4011229FE54D5011229FE45D6011277
:1033C00029FE7BD6011229FEEBD6011229FE67D712
:1033D000011229FEE8D8011229FE0FDA011229FE96
:1033E000D1DA011229FE9FDB011229FE24DC011231
:1033F00029FED3DC011229FEBBDD011229FE54DEB9
:10340000011229FE30DF011229FE98DF011229FE88
:1034100057E0011229FEB3E0011229FE17E1011263
:1034200029FEDDE1011229FE00E2011229FEBAE2C5
:10343000011229FEDCE2011229FE3DE3011229FE00
:103440006DE5011229FE66E6011229FE12E701125E
:1034500029FE2FE9011229FE78E9011229FEC3E9AC
:10346000011229FE1FEA011229FE7DEA011229FE3E
:10347000A1EA011229FEC5EA011229FEFAEA0112A7
:1034800029FE22EB011229FE67EB011229FEC5EB92
:10349000011229FE1EEC011229FE18ED011229FE6F
:1034A000C4EE011229FE09EF011229FE32EF0112CA
:1034B00029FEBBEF011229FE2EF0011229FE3CF07D
:1034C000011229FE60F0011229FEB6F0011229FE58
:1034D000D1F0011229FE8CF1011229FEB8F101127E
:1034E00029FEFBF1011229FE5EF2011229FE6EF4A3
:1034F000011229FE9AF4011229FE55F5011229FE46
:1035000039F6011229FECDF6011229FEB7C70512C0
:1035100029FEEFC7051229FE10C8051229FE52C860
:10352000051229FEB6C8051229FEC0C8051229FEDB
:10353000D0C8051229FE07C9051229FEB0CC051214
:1035400029FE78CE051229FE5CD0051229FEFED098
:10355000051229FE88D1051229FE5080041229FE89
:10356000F980041229FED881041229FEE482041293
:1035700029FE0483041229FE2684041229FED6851E
:10358000041229FE4386041229FE1487041229FE20
:103590001A88041229FE9288041229FECD8804128A
:1035A00029FE2689041229FE6189041229FEAA89AE
:1035B000041229FE3E8A041229FED48A041229FE2E
:1035C000A98B041229FE7C8C041229FE0A8D041298
:1035D00029FE308D041229FE5D8D041229FE8E8D88
:1035E000041229FE5B8E041229FE6B8E041229FE42
:1035F000BE8E041229FECB8E041229FED88E041230
:1036000029FEE18E041229FE458F041229FEA38FA4
:10361000041229FEEE8F041229FE0990041229FEDD
:103620003090041229FE4D90041229FE5990041284
:1036300029FEEA91041229FE0392041229FE7F92C8
:10364000041229FE9292041229FEA292041229FE6B
:103650004693041229FEB294041229FEC595041261
:1036600029FE6596041229FE6F96041229FEEE9635
:10367000041229FEFF96041229FE3E97041229FE29
:103680006C97041229FE3998041229FE90980412AE
:1036900029FEC998041229FE1F99041229FE3D999A
:1036A000041229FE8B99041229FE569A041229FE4F
:1036B000A49A041229FEF19A041229FE749B0412A2
:1036C00029FE9E9B041229FED49B041229FEE39B33
:1036D000041229FE429C041229FEBA9C041229FEFF
:1036E000FB9C041229FE4B9D041229FE769D0412B8
:1036F00029FE909D041229FEAA9D041229FE7F9E98
:10370000041229FE899E041229FEC49E041229FE79
:10371000D49E041229FEDD9E041229FE2E9F04125F
:1037200029FE429F041229FE64A0041229FE77A0FC
:10373000041229FE8EA0041229FEA3A0041229FE61
:1037400036A1041229FEAAA1041229FE4FA20412D6
:1037500029FE5AA2041229FEBDA3041229FED9A3F0
:10376000041229FE25A4041229FE93A4041229FEA2
:10377000C5A4041229FEDFA4041229FE3FA50412E9
:1037800029FEDEA5041229FE29A6041229FE7CA822
:10379000041229FE14A9041229FE8BA9041229FE81
:1037A000E8AB041229FE00AC041229FE03AC04129B
:1037B00029FE0FAC041229FE23AC041229FE2BAC07
:1037C000041229FE62AC041229FE56AD041229FE31
:1037D000E0AD041229FE62AE041229FEE2AE04122C
:1037E00029FEB9AF041229FEDBAF041229FE74B022
:1037F000041229FED1B0041229FED4B0041229FE0D
:1038000001B1041229FE16B1041229FE85B1041279
:1038100029FED1B2041229FEE4B3041229FE6FB4CA
:10382000041229FE82B5041229FE49B6041229FEAB
:103830007AB6041229FEA0B6041229FEA9B6041213
:1038400029FED8B6041229FE88B7041229FE38B81A
:10385000041229FEABB8041229FE4EB9041229FE47
:10386000C1B9041229FE00BA041229FE49BA041291
:1038700029FE7EBA041229FE37A1051229FEA4A151
:10388000051229FEEBA1051229FE61A2051229FEEF
:10389000B3A2051229FE39A3051229FE7DA5051242
:1038A00029FEACA7051229FE89AB051229FE09AC39
:1038B000051229FE44AC051229FE62AC051229FE50
:1038C000C2AC051229FEEAAC051229FE1AAD05129A
:1038D00029FE4BAD051229FE78AD051229FED1ADAA
:1038E000051229FE1CAE051229FEE7F2041229FE7C
:1038F00063F3041229FE8FF3041229FEC1F30412AC
:1039000029FE23F5041229FE3FF5041229FE7DF558
:10391000041229FE0AF6041229FE66F6041229FE94
:103920002CF7041229FEEBF7041229FE30F80412DA
:1039300029FE91F8041229FE06F9041229FE40F925
:10394000041229FE98F9041229FEBAF9041229FE7C
:1039500052FA041229FEF9FA041229FE46FB041257
:1039600029FE6FFB041229FEB0FB041229FE5DFD47
:10397000041229FE41FE041229FEF2FE041229FE61
:103980000AC1061229FE1BC1061229FEB9C1061280
:1039900029FEF0FF011229FEDFFF041229FED3C128
:1039A000061229FEE3C1061229FEF8C1061229FEFD
:1039B00089C2061229FE14BF061229FE98BF0612FC
:1039C00029FEFEBF061229FEF3FF011229FEDCFFCD
:1039D000021229FEECFF021229FEEFFF021229FE5D
:1039E000F2FF021229FEF87F001229FE11B2061220
:1039F00029FE33B2061229FE9EB3061229FE22B416
:103A0000061229FECEC5061229FED7C5061229FECA
:103A1000E0C5061229FEEEC5061229FEFEF10512CA
:103A200029FE6AF2051229FE32F3051229FE27F457
:103A3000051229FE14F6051229FE6EF6051229FE5E
:103A4000C1F6051229FED2F6051229FEE4F605128A
:103A500029FE50F7051229FE64F7051229FE6FF7BB
:103A6000051229FE7DF7051229FE8FF7051229FEA2
:103A7000A3F7051229FECFF7051229FE75FA0512E4
:103A800029FECCFA051229FE08FB051229FE009D2D
:103A9000021229FE35FB051229FE26FC051229FE1D
:103AA00002FD051229FE16FD051229FE11B60612A9
:103AB00029FE35B6061229FE4EB6061229FE8CB630
:103AC000061229FEC2B6061229FEF5B6061229FE16
:103AD000FFB6061229FE6BB7061229FE6EB7061254
:103AE00029FE78B7061229FE85B7061229FECFAA4D
:103AF000061229FE8DA3021229FE3DAB061229FEF5
:103B00005BAB061229FE76AB061229FEDCAB061271
:103B100029FEE8AB061229FE45AC061229FE69AC67
:103B2000061229FE2FAD061229FE3CAD061229FE13
:103B30004DAD061229FE49C5061229FE61C50612C1
:103B400029FE8DC5061229FE6F85061229FED38631
:103B5000061229FEE186061229FEF586061229FEC6
:103B60001287061229FE2787061229FE3A870612B7
:103B700029FEBC87061229FE2288061229FEAB8880
:103B8000061229FE2389061229FEFC89061229FE47
:103B90000C8A061229FE1B8A061229FEB0C40612E0
:103BA00029FED4C4061229FEFCC4061229FE24C52F
:103BB000061229FE57FD021229FE7EFD021229FE81
:103BC0009DFD021229FE12FE021229FE2AFD051297
:103BD00029FE43FD051229FE5AFD051229FE63FD4B
:103BE000051229FE81FD051229FE8BFD051229FE15
:103BF00095FD051229FEA8FD051229FE35FE0512C8
:103C000029FEA4FE051229FED2FE051229FE23FF7D
:103C1000051229FE6FFF051229FE8AFF051229FEF3
:103C200094FF051229FEA5FF051229FEE8FF0512E3
:103C300029FE99FF011229FEE4FF011229FE37D265
:103C4000051229FE63D2051229FE86D2051229FE2D
:103C500099D2051229FEB4D2051229FE18D30512F5
:103C600029FE46D3051229FE53D7051229FE95D801
:103C7000051229FEC7D8051229FE32D9051229FEE0
:103C8000B6DA051229FEDEDA051229FEF3DA05128C
:103C900029FE03DB051229FE43DB051229FE85DB25
:103CA000051229FE95DB051229FE58BA061229FED7
:103CB00068BA061229FE8CBA061229FEB5BA061297
:103CC00029FEDFBA061229FE03BB061229FE1ABB23
:103CD000061229FE48BB061229FE6BBB061229FEFE
:103CE00099C2061229FEDFC2061229FEF4A30612AB
:103CF00029FE04A4061229FE22A5061229FE56A5B5
:103D0000061229FE78A5061229FEA0A5061229FE94
:103D1000B9A5061229FEF5A5061229FE5BA6061214
:103D200029FEA0A6061229FEE5A6061229FE12A764
:103D3000061229FE4AA7061229FE3D98061229FE00
:103D40009F98061229FE4699061229FE7E990612B0
:103D500029FE1294051229FEC194051229FEF5963A
:103D6000051229FEC899051229FE489B051229FE55
:103D7000AA9B051229FEB59E051229FEF99F051280
:103D800029FEA3BB061229FEEEBB061229FE008007
:103D9000061229FEBF82061229FE5C83061229FE46
:103DA0008883061229FEB683061229FEEB830612CB
:103DB00029FE1384061229FE7384061229FE48BBCD
:103DC000051229FE31BF051229FE28C1051229FE60
:103DD00056C2051229FE32C3051229FEDDC40512A2
:103DE00029FE78C6051229FE45C7051229FE99C786
:103DF000051229FE83AD061229FE8DAD061229FE9D
:103E0000AEAD061229FE53AE051229FE7AB3051295
:103E100029FEA9B4051229FE85B6051229FE7EB732
:103E2000051229FEB5B8051229FEC2B9051229FEF0
:103E3000A7BA051229FEE9BA041229FE21BB041211
:103E400029FE7EC5041229FE68C6041229FEB8C7E1
:103E5000041229FE03C9041229FEAEC9041229FE68
:103E600081CA041229FE18CB041229FEFCCB0412CD
:103E700029FEFFCC041229FEC1CD041229FEEFCD8C
:103E8000041229FE67CF041229FEF0CF041229FE86
:103E900009D0041229FE63D1041229FE15D204129E
:103EA00029FEA4D2041229FE53D3041229FEB6D34C
:103EB000041229FE52D4041229FECBD4041229FE86
:103EC000E9D4041229FEB6D5041229FE85D60412BF
:103ED00029FE3BD7041229FE8FB7061229FEB9B777
:103EE000061229FECDB8061229FED0B8061229FE08
:103EF0004DC3061229FEA0C3061229FEE2C3061214
:103F000029FEF2C3061229FE78EB051229FEBFEB4B
:103F1000051229FE28EC051229FE49EC051229FE9E
:103F200062EC051229FE12ED051229FE1BED0512A9
:103F300029FE6CED051229FEA2ED051229FEB9ED50
:103F4000051229FE26EE051229FEB6EE051229FEFF
:103F5000ECEE051229FE35EF051229FE96EF05124B
:103F600029FED0EF051229FE38F0051229FE8BF04C
:103F7000051229FECEF0051229FE0BF1051229FECD
:103F80001DF1051229FE2FF1051229FE69F1051216
:103F900029FEA9F1051229FED2F1051229FE4C8A4B
:103FA000061229FE928B061229FEBB8B061229FEF1
:103FB000CC8B061229FEE48D061229FE048E061211
:103FC00029FECFAF061229FE03B0061229FE52B019
:103FD000061229FEAEB1061229FE0080051229FE46
:103FE0003E81051229FE7A81051229FE3F830512C2
:103FF00029FE6983051229FEEF85051229FE2F8609
:10400000051229FEC587051229FE5A88051229FEC8
:10401000B888051229FE3E89051229FE7689051207
:1040200029FEB889051229FE258B051229FEA98CC7
:10403000051229FEE38E051229FE118F051229FEB5
:104040003D8F051229FE468F051229FE9C8F051211
:1040500029FE2C90051229FE3393051229FEB593F3
:10406000051229FEFCC3061229FE12C4061229FEFF
:104070001CC4061229FE78C4061229FE92FB031204
:1040800029FEABFB031229FE50FC031229FE90FC13
:10409000031229FEA9FC031229FEDCFC031229FEEF
:1040A00029FD031229FE5DFD031229FE9FFD031267
:1040B00029FE78FF031229FEE3FF031229FED7BC75
:1040C000061229FE2CBD061229FE86BD061229FE07
:1040D00001BE061229FE73BE061229FEB1BE0612EB
:1040E00029FEF2BE061229FE8EF7011229FE94F770
:1040F000011229FEDBF7011229FEE7F9011229FE60
:1041000017FA011229FE81FA011229FE3CFB011265
:1041100029FE7FFB011229FEB0FB011229FE3AFCA9
:10412000011229FE51FC011229FE5EFC011229FE3A
:1041300068FC011229FE08FE011229FEFAFE011296
:1041400029FE58FF011229FEC5DB051229FEDBDB23
:10415000051229FE8DDC051229FEB7DD051229FEA8
:10416000ACDE051229FE43DF051229FE7EDF0512B3
:1041700029FEF0DF051229FE4EE0051229FE5EE061
:10418000051229FE85E0051229FED7E0051229FE59
:1041900043E2051229FE48E2051229FE6AE20512F1
:1041A00029FEFFDA021229FE57DB021229FEF7DB95
:1041B000021229FE74DD021229FE60DE021229FEBF
:1041C0001DDF021229FE34DF021229FE83DF0212F4
:1041D00029FEF7DF021229FE52E0021229FE65E0F5
:1041E000021229FEC9E0021229FE38E1021229FE5C
:1041F000E7E3021229FEECE4021229FE47E502126F
:1042000029FE9BE5021229FE4FE8021229FE9FE8D3
:10421000021229FE20E9021229FE62E9021229FE99
:104220003CEA021229FE75EA021229FE94EA021201
:1042300029FEDFEA021229FEF5EA021229FEB0EB9E
:10424000021229FE97EC021229FEA2EC021229FEAC
:10425000F0EC021229FE45ED021229FE91ED021248
:1042600029FEECEE021229FE16EF021229FEAEF133
:10427000021229FED8F1021229FEE3F2021229FEEF
:1042800012F3021229FE8AF3021229FE65F40212C9
:1042900029FEA7F4021229FE1BF5021229FE35F6AB
:1042A000021229FE82F6021229FE95F6021229FE5A
:1042B00098F6021229FEA1F6021229FEBCF602129D
:1042C00029FE34F7021229FE6DF7021229FE89F742
:1042D000021229FEB5F7021229FEDCF7021229FEAE
:1042E00000F8021229FE79F8021229FEECF80212F7
:1042F00029FE2FF9021229FE39F9021229FE68F966
:10430000021229FE7EF9021229FE9AF9021229FEF2
:10431000C9F9021229FEE9F9021229FE32FA021243
:1043200029FE6DFA021229FE79FB021229FEDCFC3D
:10433000021229FEFBFC021229FE12FD021229FEC6
:1043400024FD021229FE17C0061229FE28C00612FB
:1043500029FEB1C0061229FEA47A001229FEE27AD3
:10436000001229FE7B7B001229FE867C001229FEAA
:10437000CE7E001229FE4B7F001229FE3FE405127B
:1043800029FE8EE4051229FE4CE6051229FE20E8DE
:10439000051229FE5EE8051229FE3FE9051229FEF5
:1043A00049EA051229FE6BEA051229FEC7EA051241
:1043B00029FE48EB051229FE8F4F001229FEB14F4E
:1043C000001229FE2051001229FE6951001229FE17
:1043D000DA51001229FE5D52001229FED452001259
:1043E00029FE1B53001229FE9253001229FE365457
:1043F000001229FEAB54001229FEE854001229FED7
:104400003059001229FE535B001229FE8C5B00120A
:1044100029FECB5B001229FEC75E001229FE575F02
:10442000001229FE0B61001229FE4562001229FECE
:104430006563001229FED663001229FEB7640012DC
:1044400029FE3A65001229FE4E65001229FE1D66FE
:10445000001229FE5467001229FE8369001229FE0A
:10446000926B001229FE7E6C001229FE156F00125D
:1044700029FEEA6F001229FE2971001229FE5974E3
:10448000001229FE6974001229FE9F75001229FE90
:104490003876001229FE6977001229FED7770012BC
:1044A00029FE1079001229FE4B79001229FEF479B9
:1044B000001229FE00D8041229FEA2D8041229FEF7
:1044C0000ED9041229FE28D9041229FEAAD90412F1
:1044D00029FEE4D9041229FEE6DA041229FE28DBBB
:1044E000041229FE9ADB041229FEEADB041229FEDB
:1044F00049DC041229FEF5DC041229FEDFDF041278
:1045000029FEA6E0041229FE0CE1041229FEB4E201
:10451000041229FE4DE3041229FEE6E3041229FEEB
:1045200049E4041229FEBFE4041229FEC0E5041286
:1045300029FEB1E6041229FEECE6041229FE03E787
:10454000041229FEE1E7041229FE1FE8041229FEE5
:10455000A7E8041229FEF4E9041229FEB8EB0412BC
:1045600029FEF6EC041229FE29EE041229FE3DEF85
:10457000041229FED4EF041229FE43F0041229FE8E
:1045800050F1041229FEACDA031229FE15DB0312E6
:1045900029FE5DDB031229FEA1DB031229FE14DCD8
:1045A000031229FE6EDC031229FEA9DC031229FE88
:1045B00043DD031229FE9DDD031229FE09DF0312EC
:1045C00029FE82DF031229FEACDF031229FEC0E0C0
:1045D000031229FED4E1031229FEFCE1031229FE95
:1045E000FAE2031229FE0BE3031229FE23E303126E
:1045F00029FE29E4031229FE4CE4031229FE1BE5DF
:10460000031229FE45E5031229FE5CE5031229FE8B
:1046100082E5031229FEC1E5031229FEE1E503123A
:1046200029FE08E6031229FE20E6031229FEFAE617
:10463000031229FE54E7031229FEC4E8031229FEDF
:1046400042E9031229FE66E9031229FE7DE90312FD
:1046500029FE51EA031229FEEAEA031229FE10EBB1
:10466000031229FE60EC031229FE7FEC031229FEDF
:10467000FEEC031229FE35ED031229FE73ED031241
:1046800029FE09EE031229FE7EEE031229FE62EFD7
:10469000031229FE40F1031229FE15F2031229FE2E
:1046A00061F2031229FE92F3031229FE02F50312AE
:1046B00029FE61F6031229FE6FF6031229FE6BF73D
:1046C000031229FE12F8031229FE58F8031229FEDC
:1046D0006DF8031229FE7CF9031229FE95FA0312E4
:1046E00029FEF1FA031229FE389C061229FEF39DD9
:1046F000061229FEBB9E061229FE109F061229FEF5
:10470000969F061229FE2294061229FE4094061254
:1047100029FE8494061229FEAA94061229FED19439
:10472000061229FEE994061229FE0195061229FEB9
:104730001995061229FEBF95061229FE019606124A
:1047400029FE1696061229FE1D97061229FE389795
:10475000061229FE4197061229FE4A97061229FEE3
:104760005397061229FE5D97061229FEDA97061264
:1047700029FE588F061229FE9A93061229FEB69337
:10478000061229FEBB93061229FE97B4061229FED3
:104790002AA0061229FE40A0061229FEDEA106125A
:1047A00029FE29A2061229FE95A2061229FE94A32B
:1047B000061229FEC3A3061229FED5A3061229FE5E
:1047C000FDB8061229FE9EA7061229FEFAA70612B8
:1047D00029FE3AA8061229FE3CA9061229FE54A970
:1047E000061229FE66A9061229FE92A9061229FEC2
:1047F000C9A9061229FED9A9061229FEEFA9061297
:1048000029FE14AA061229FEA2AA061229FECC7FAE
:10481000001229FEDB9C021229FEEB9B021229FEEC
:10482000779B021229FEE09A021229FE6E9A02126A
:1048300029FE5D9A021229FE389A021229FE549925
:10484000021229FE7098021229FE8695021229FE94
:104850004394021229FEAA91021229FE65910212C6
:1048600029FE0B91021229FE6C90021229FE17906C
:10487000021229FE448F021229FE7E8E021229FEA8
:10488000428E021229FED58D021229FECD8D021212
:1048900029FE428D021229FED28C021229FE238C9F
:1048A000021229FE7DA3021229FE188C021229FE93
:1048B00051A2021229FE6FA0021229FE66A0021266
:1048C00029FE59A0021229FE5C9F021229FED49EE5
:1048D000021229FEC59E021229FE529E021229FED4
:1048E000098C021229FEE88B021229FEB48B0212F7
:1048F00029FE888B021229FE369E021229FE5A8A50
:10490000021229FE4E88021229FE1F88021229FE79
:104910000388021229FEF2AA061229FEAD870212AE
:1049200029FE189E021229FE7487021229FEEC86C7
:10493000021229FEA086021229FE5986021229FEC1
:104940008C85021229FE1085021229FE688402124B
:1049500029FEC183021229FE6383021229FE3883D5
:10496000021229FEE982021229FEAB82021229FEFE
:104970008982021229FE6682021229FE4D820212EB
:1049800029FE0582021229FE4F81021229FE0080B3
:10499000021229FEC380021229FE5780021229FE4C
:1049A0001CFB0500000080FBE4738F0001002C1D40
:1049B000870001002B1D35000400A61E2500020003
:1049C000AA1E26000200AC1E27000200AE1E280010
:1049D0000100B81E29000100B91E84000400BA1E9F
:1049E00086000100BE1E2A000100BF1E2B00010030
:1049F000C01E2C000100C41E2D0008000D1D2E003D
:104A00000100C51E2F000100C61E30000100C71E98
:104A100031000100C81E32000100151D33000100E5
:104A2000161D34000100C91E36000100171D380094
:104A30000100CA1E39000100C31E83000200DE1EF1
:104A400063000100281D64000100C11E6500010013
:104A5000C21E6D000100291D71000800051D6600C1
:104A60000100DD1E43000100CE1E44000200CF1EE7
:104A700045000100D11E46000200D21E470008007A
:104A8000201D48000100D41E4B000100D51E04006B
:104A90000100E01EA1000100E21E37000100E11E3E
:104AA000880001002D1D3C000100181D3D00010083
:104AB000CB1E49000200D61E670001002A1D4D00D2
:104AC0000200D81E4E000100DA1E4F000200DB1E5D
:104AD0003E0001001F1D51000100191D5200010080
:104AE000CC1E53000100CD1E540001001A1D000011
:104AF0000000000000013636010100010201000142
:104B0000030100010401060605020000070100344C
:104B10000801000F090401010D0100FF0E0800004B
:104B200017020000190100FF1A0100011B0100FE1D
:104B30001C0100081D0200001F01000120010001EE
:104B4000210200002301000F2402000026010001C1
:104B500027010008280200FF2A0100072B0102405C
:104B60002C0100002D0100012E0100012F0100FF8A
:104B700030010B1D310800003A0100083B01000F15
:104B80003C0100013D0100FF3E0400004204000022
:104B9000460400004A0400004E04000052040000D5
:104BA000560400005A0400000103710301030103CD
:104BB00001030103010322030203010310030003A5
:104BC000000300030003000300030003420300038B
:104BD0002403060300030003040312032503230335
:104BE0002503230304030403000300030003440319
:104BF0000003000323030003650321003503810341
:104C0000000305030003000300030003250323033F
:104C10000304710402046004110470040204020419
:104C20000104020410046104000414046304730406
:104C30007204620443040004130406040004000424
:104C4000040412040004000400040004510464007D
:104C500000040004000444040004000400040004F0
:104C60006504000435048104640005040004830421
:104C70000004030071003001600011007000310277
:104C80002003500480001000610000001400630045
:104C90007300720062004300000013000600000071
:104CA00000000400120000000000000000000400EA
:104CB0000400370037003C02440000000000000000
:104CC00000006500000035008100000005000000C4
:104CD00083000000010171010101010111010101C5
:104CE0003101010101018001100161013B0014004B
:104CF00063017301720162014301000113010601A6
:104D00003D01350004011201000100010001000114
:104D100004010401330133013C0144013201360036
:104D2000000100016501000135008101000105015C
:104D3000820183010001030271023001600211024D
:104D400070020102020202028002100261023A00B5
:104D50004100630273027202620243020002130204
:104D600038000002000204021202000200020002E7
:104D7000000204020402370037003C024402000231
:104D800039000002000265020002350281020002C1
:104D900005028202830200023600010006000000C4
:104DA0000F0000000000000000000000000003FFF2
:104DB000FF00000403FFFF0000FFFF0FF4010005E8
:104DC000C4040320000100000B00000000000000EC
:104DD0000003010F000000000000000000000000C0
:104DE00000000000000000000000000000000000C3
:104DF0000000000000000000F344130051441F00B5
:104E000057441F805D440100F3440200D94303006E
:104E1000DF430400E5430500EB430600F7433000A1
:104E2000154431000F44320021443300274435003B
:104E30002D443400334436003944110045441400F5
:104E40004B4415000944FFFF00000A000000020067
:104E50000000040000000800000010000000200016
:104E6000000040000000800000000001000000027F
:104E700000000004000000080000001000000020F6
:104E800000000040000001C73106FD3108F7310B7A
:104E9000153210912E0A273202CD3105EB3107D39E
:104EA000310CAF310DBB31646548FF000007ECFDEC
:104EB000FDFDECDCDCCCBCACAC9C9C8C7C7C6C6CE0
:104EC0005C5C5C4C4C3C3C2C2C1C1C03EAF5E5D592
:104ED000D5C5B5A5959585857575656555554545C2
:104EE0003535252515150500160F00000B150B028D
:104EF0000002220F3300000E5A6967426565416C5B
:104F00006C69616E6365303901030507090B0D0F8C
:104F100000020406080A0C0D00034A49434E181A01
:104F200025050200011916181616182303000C0E89
:104F3000020B040B0A0708000F3030161819202343
:104F40001A1C1E3000393D3F373C3C362C442D3076
:104F50003017181921301B1D1F30020402010101F6
:104F6000010902E803000000BE040A000000007FFF
:104F700000E8030E000C0A030305090008000CFFFB
:104F80001E1E2805080304040910150401080CC09E
:104F900082C083901BFCE4F0A3F07CED7D047A15C5
:104FA0007B1B1240DF124835122EDF12482F02659C
:104FB0004774F312243E74F5122AC789098A088BB4
:104FC0000A8C0BE9705F74026508703F7908124320
:104FD0002B750C00780C122A55E50BF50C780C1289
:104FE0002A55E50AF50C780C122A55901B31122827
:104FF00051901EBEE0F97C207D1D901EDE126F9F39
:10500000123A8B7407122A2E0250E8740165086068
:10501000030250ED790812432B7B00AA0AA90A1259
:1050200048A10250E87401650960097402650960CD
:10503000030250EDEA6006740365087047790212B6
:10504000432B901EBEE0F9901B31122CD812481D44
:10505000E9F9901B40E0A2E34010E9700D901C00BC
:10506000E004F06404700312510E74036508707A52
:10507000901C01E0F8740128F0E8C39405406B121D
:10508000510E806674016508706374016509790AC0
:10509000702E12432B7401122D07E4F07402122DAE
:1050A000077403F004122D07E4F0A3F0A3F0A3F0BB
:1050B0007408122D07E4F0AA18AB191231D98044F4
:1050C00012432B901EB41228517A007B20901B357E
:1050D000E0F91240917404122A2E901EBEE0F9905D
:1050E0001B31122CD81248C5E9F9E960179080CE1F
:1050F0001228517A017B00901B35E0F9124091741F
:1051000004122A2E740B122A2E7F050226CD901B24
:1051100031E4F0A374F8F0A374FFF0A37407F02255
:1051200074F612243EE9FFEAFE7AD1F9123F478A6B
:10513000828B83E5824583702A7A027B00123F29A5
:10514000EA4B700E7A107B00901B35E0F9123F6B32
:1051500080148A828B8374D1F0EFA3F0EEF9123FB2
:10516000358003EFA3F002538D74F712243E8908B3
:105170009006FB1264B2901EA1E0F47003A3E0F469
:10518000702D900BE8E0901EA1F0A3E4F080208E3B
:10519000828F83A312623F600F8E828F83A3A3123C
:1051A0006239FAA9081243C18E828F83125250EEDF
:1051B0004F70DC901EA1E0F47003A3E0F4600A904D
:1051C0001EA1E0FAA9081243C11232E7901AFF1299
:1051D0005B861232E17F010226CD74F012243E89F3
:1051E0000B8C0C7508007509007410122D071252F3
:1051F000C47412122D07125250803CA80A1252B4E5
:10520000F50EA3E0F50FA8091252A7F583E0650E8D
:105210007004A3E0650F7014125247EE28F582EF78
:1052200039F583E50EF0A3E50FF00508050AE50A58
:10523000C3950C40C60509E509C3950B5005750AD1
:105240000080EBA9088011A808E828F8E433F922C7
:10525000126C78E8FEE9FF227F080226CD74F41272
:10526000243E890B8C0A750800740C122D0712520B
:10527000C480020508E508C3950B50277509008016
:10528000020509E509C3950A50E9A8081252A712B8
:1052900064B0A8091252B46E7003A3E06F70E27993
:1052A00001800279008028E828F8E433F9EA28F53B
:1052B00082EB3922E828F8E433F9EC28F582ED395D
:1052C000F583E022126C78E8FCE9FD22122A2E7F99
:1052D000040226CD74F612243E1253777003A3E025
:1052E0006D701775083E75091B7808122A51EEFA81
:1052F0001244F97402122A2E801F75080275098063
:105300007808122A518C088D097808122A511253F4
:105310006212451D7404122A2E807274F612243E05
:105320001253777003A3E06D701775084B75091B56
:105330007808122A51EEFA1244FF7402122A2E80C3
:105340001F7508037509807808122A518C088D0989
:105350007808122A5112536212451D7404122A2E23
:10536000802B1253703FF583E0FD7C801265EF22A5
:10537000EE240EF582E422EAFEEBFF126604FCE462
:1053800039FD901AFFE06C227402122A2E7F02026D
:1053900026CD74F612243E74FE122AC7EAFEEBFFF5
:1053A000851882851983E4F0A3125B36126535FCFB
:1053B000A3E0FBECFA88828983A3A3E0F9750900D6
:1053C000750800600574FF697005750882803D905E
:1053D0001AFFE06A7003A3E06B701AAA18AB1912E7
:1053E00038B7E9F509851882851983126976701C2A
:1053F0007508838017901D2BE060046401700575AB
:1054000008818008E0640270037508808518828531
:10541000198312695FA908EEFAEFFB124505E50949
:1054200060118518828519831269766006126F995A
:10543000123FD102538874F212243EEAFEEBFF754C
:105440000800750900126600F50AE439F50B1232FE
:10545000E7EA650A7003EB650B70121238C9E914AC
:10546000F50879017AC87B1B1238CF800375098053
:10547000126965F50C780C122A55750CC8750D1B50
:10548000780C122A517808122A55780A122A51E506
:1054900009F5087808122A551263CB126968F97A5F
:1054A000057B8012450B740702773574F612243E93
:1054B000890975080080278A828B83E0FE1278F8BC
:1054C000EE28E439FF125247EC28F582ED39F583D6
:1054D000EEF0A3EFF0EA2402FA50010B0508E5080C
:1054E000C3950940D202538D74E812243E74FB1216
:1054F0002AC78A168B17851882851983E4F07403EE
:10550000122D07E4F0A3F004122D07E4F0A3F0122B
:1055100058F93517125B08F50B850A82F583127965
:10552000E4FEE439FF850A82850B83A3A3E0FA85B4
:105530000A82850B83A3A3A3E0F9EAF508E439F511
:1055400009E50A2404F50A5002050BEEFAEFFB12F6
:105550003383E964016016EEFAEFFB123383E970DE
:105560003D901AFFE06E7003A3E06F603112674553
:10557000122A55E4F508F5097808122A517808121C
:105580002A55901AFF1228557508807808122A5556
:105590001258E012450B7407122A2E0258D61259DF
:1055A000138810602B127583123FCB7403122D07E2
:1055B000125B867403122D0712697660137403124E
:1055C0002D0712590BA9101243F18A0A8B0B800385
:1055D000751000125913880F6027127583123FCB84
:1055E0007401122D07125B867401122D0712697661
:1055F000600F7401122D0712590BA90F1243F1808D
:1056000003750F009006FB805C850A82850B83A3DF
:10561000A3A3A3A3A3A3A3E4F0A3F0AA0AAB0B85BF
:105620001482851583A3A3E0F8126239F9123F357D
:10563000851282851383E0C0E0851882851983E096
:10564000F874C828F582E4341BF583D0E012697A37
:1056500004F0E511A2E05007AA12AB13123FD18566
:105660001482851583E0F514A3E0F515E5144515BE
:105670007003025843851482851583A312623F602C
:10568000DE851482851583A3A3A3A3A3A3A3A3E00C
:10569000A2E050CB851482851583A3A3A3A312692E
:1056A00076851482851583A3A3601F126240FA7960
:1056B00001851482851583A3A3A3A31258FE124962
:1056C000A88A128B1375110180101258FEA3A3A390
:1056D000E0F512A3E0F513751100E5124513700310
:1056E000025652851282851383A3E065087004A3D5
:1056F000E06509600F74FF6508700474FF65096058
:1057000003025652851282851383A3A3A3A3A3A3E6
:10571000A3122855851282851383A3A3A3A3A3A351
:10572000E0FC7405122D07126F9FA9101243D37469
:1057300002122A2EE9703C851282851383A3A3A34B
:10574000A3A3A3A3A3A3A312285585128285138321
:10575000A3A3A3A3A3A3A3A3A3E0FC7403122D07F5
:10576000126F9FA90F1243D37402122A2EE97003FD
:10577000025652E50F2510C333240AFA7B00123F6C
:10578000298A0A8B0BEA450B70030256308A828BFA
:105790008374D2126B858A828B83A3A3E8F0A3E97A
:1057A00012785EA3E5101279ECE50FF0E510603C8D
:1057B000EA2405FAE4350BFBE50A240AF8E4350B84
:1057C000F98A828B831261057403122D0712592303
:1057D000122A4DAC10EC2CFCE433FD8A828B831230
:1057E0006F9F123F057403122A2E800D8A828B83CD
:1057F000A3A3A3A3A3E4F0A3F0E50F70030256094B
:10580000A810125249E50A28F8E50B39F9E8240AEC
:10581000FAE439FB850A82850B83A3A3A3A3A3A380
:10582000A3A3125B867401122D07125923122A4D6D
:10583000AC0FEC2CFCE433FD123F057403122A2E4E
:1058400002561B851882851983E06027126745126E
:105850002A557508C875091B7808122A5174031255
:105860002D0712674E122A55901AFF1228557508F7
:10587000008029EEFAEFFB123383E9702F1267459F
:10588000122A557508C875091B7808122A5175081F
:10589000007808122A55901AFF1228557808122A03
:1058A000551258E012450B7407122A2E7403122D5C
:1058B00007126976600B7403122D07126F9F123F57
:1058C000D17401122D07126976600B7401122D0735
:1058D000126F9F123FD17405122A2E7F100226CD1F
:1058E000E5162402FCE43517FDE51612635F351753
:1058F000F583E0F97A067B8022EA12652C221259A0
:105900000222E0F8A3E0F58388822212695FAA0AE6
:10591000AB0B22850A82850B83E0F8A385820A857A
:10592000830B22E0F50CA3E0F50D750E00780C2238
:1059300074F112243E74F4122AC78A088B09ECFE13
:10594000EDFF740B122D077403F0122A9F1240DF33
:105950001232E18A0A8B0BAC0AAD0B7403122A9F38
:105960001240D9E9600A125B026010E06401600B2A
:105970008518828519837484025AB08E828F83A31E
:10598000A3A3A3A3A3A3A3E06013F46010125B027C
:105990007016EE24141269686003F4700B85188287
:1059A0008519837482025AB0127706E0642170026E
:1059B000A3E06003025A87851882851983748C12CC
:1059C0005B3664036003025A717401122AA71260E5
:1059D000EA12300BE96003025A711243198A0A8BEA
:1059E0000BEA450B7003025AB18E0C8F0D750E0039
:1059F000780C122A4D7C157D00123F057403122A83
:105A00002E850882850983A3A3E50A2415FCE435C5
:105A10000BFD7409122977127392C0E0E50A241E67
:105A2000125AF0D0E0125F51C0E0E50A241F125A6A
:105A3000F0D0E0F0E50A2420125AF07405F0EE24CC
:105A40000BFE50010FFAEFFB12394D7D007C0079FF
:105A500000EEFAEFFB1244C39080CE1228517A0078
:105A60007B10901B35E0F91240917404122A2E80AD
:105A700078125AF8122A55125B10122FED74011287
:105A80002A2EE9702C8014125AF8122A55125B1033
:105A9000122FF37401122A2EE9700D8518828519D0
:105AA00083E4F01242E9800985188285198374889D
:105AB000F0127392F50A780A122A557401122A9785
:105AC000880A890B780A122A51E508240CF582E429
:105AD0003509125B084480F50B780A122A511264CA
:105AE0009B1244B77405122A2E740C122A2E805E63
:105AF000F582E4350BF58322EE1260F7E0F50A78C3
:105B00000A22125B3B640322F583E0F50AA3E0223C
:105B1000EE240BFCE43FFD8E828F83A3A3A3A3A3FB
:105B2000A3A3A3A3126FDC8E828F83A3A3A3A3A33B
:105B3000A3A3A3E0F922F0125B3B22125B3F22EE0B
:105B40002413F582E43FF583E022EEFAEFFB7F07B2
:105B50000226CDC082C08374F3122AC785188285BD
:105B60001983E4F004122D07125B867403122D07CB
:105B7000AA82AB83124979AA18AB1912493D740D58
:105B8000122A2E026547EAF0A3EBF02274F61224E3
:105B90003E12651FFAA3E0F9EAF8901B46E058F5BB
:105BA00008A3E059F509E5084509601C7808122AA0
:105BB00051901AFF122855126965FD7C001265EBA1
:105BC0001245177404122A2E02538D74EA12243ED1
:105BD00074DB122AC78A148B157512007513001214
:105BE00058F93515F583126240F50EAC18AD197AE7
:105BF000007B00799C122D177A047900124907EA7C
:105C0000F50C851882851983E02AF0F8E50EC39813
:105C10004003025DEFE0C3950EF509C39404400311
:105C2000750903E50975F01AA4FAABF0123FCB8AA7
:105C3000128B13EA45137003025DF2750D00AE126C
:105C4000AF13850E08025CCC7C087D0079FF125EE4
:105C50006E123F11850A82850B83A3A3A3A3E07074
:105C60002D850A82850B83126976700C1270E8F01C
:105C7000EE24181270EB8010125E76F090055FE053
:105C800014C0E0125E52D0E0125EA1E480349005B0
:105C90005FE004C0E0125E52D0E0125E99C394034C
:105CA000EE4003025D541260F37402125E996401C7
:105CB0007003025D61EE2415125E79F0EE24161277
:105CC0005E79F0EE241AFE50010F050DE50DC39527
:105CD000094003025D8CE508C3950C4003025D6A30
:105CE000AA087B0012487D8A0A8B0B050890054C98
:105CF000125E821240DF850A82850B83126C741259
:105D00005E60E8F0A3E9125EB3850A82850B83A387
:105D1000A3A3A3A3A3A3A3A3A3E0C0E0125E48D0C0
:105D2000E0F07401122D07E41278B2126C74740260
:105D3000122D071261057401122A9F12494FE9645E
:105D4000016003025C487404122D07125E6A12405F
:105D5000DF025C54125E77125E9964036003025C9A
:105D6000B5EE24151270EB025CBBE50CC3950E403A
:105D700005750800801DE50EC3950CF5088014120A
:105D80005E76F0EE241AFE50010F050DE50DC39569
:105D900009505F740E122AA7AA087B007987122D7A
:105DA0001705087418122D07125E821240DF741056
:105DB000122D07125E6A1240DFEE2412F8E43FF95A
:105DC000740E122D07126F9F88828983EAF0A3EB6D
:105DD000125EA17403125EB3741D122D07E0C0E0C1
:105DE000125E48D0E0126F0E70951270E8809375C5
:105DF0000900750A00780A122A557812122A517879
:105E000009122A55E50EF5097809122A557405126A
:105E10002D07E0FD7C00E5141263563515FBE514F3
:105E200012635B3515F583E0F91245537405122AA8
:105E30002EE51245136007AA12AB13123FD1742549
:105E4000122A2E7F0E0226CDEE2419F582E43FF5AC
:105E50008322125E5622EE2418F582E43FF5832257
:105E6000EE2412F582E43FF58322AC82AD83EE246A
:105E70000AFAE43FFB22EE2414F582E43FF5837432
:105E80000122126C788E828F83E8F0A3E9F07C60A7
:105E90007D05EE1263563FFB221278ADA3A3A3E06B
:105EA00022F0EE1270DF7402F0EE2416F582E43F69
:105EB000F58322F0EE2417F582E43FF5837402F0B7
:105EC000125E5674FFF02274F612243E74F9122A00
:105ED000C7125F46127A6E123F1DEAF8EBF9ECFA30
:105EE000EDFB851882851983122CF0EE2404FE50F8
:105EF000010F8E828F83E0C0E07404122D07D0E082
:105F0000126EE5F87405122D077401F07406122D57
:105F1000077401F0901B09F0901B12041278CAA3B9
:105F2000126F9F901B0A125B86E8901B13125F5141
:105F3000901B08F0AA18AB19124817E96003124821
:105F400011740702538A8A088B09EA12652C3509F5
:105F500022F012782AE02274F212243E74FF122AF0
:105F6000C77508007E007F001232098A0A8B0B1267
:105F700032098A0C8B0DA80CA90D80050508126C3E
:105F80006EE84970F7901D2BE06007640160030222
:105F900060621232098A0C8B0DA80CA90D800312C5
:105FA0006C6EE849603688828983126F9F90054C39
:105FB000E06A7003A3E06B600D1260FE39F5831296
:105FC0006F9FEA4B70D988828983126C7490054C5C
:105FD000E0687003A3E06970030260627A167B00D8
:105FE000123FCB8A0C8B0DAE0CAF0DEE4F60739051
:105FF000054C126C748E828F83126105900541E00E
:106000008E828F83A3A3F012336BE98E828F83A3DA
:10601000A3A3A3A3F0901EBF1278A1F07C607D051E
:106020001260EA1240DFAA18AB19794112470F85B6
:106030001882851983E06008901AFF126C7480043E
:1060400078FE79FF8E828F83A3A3A3A3A3A3A312B9
:1060500061051260F2E50AF0A3E50BF08E0A8F0BE2
:106060000508901B13E0F8E508C3985004790080F8
:1060700027E508C398F9C3940640027905780080A3
:106080000DE50A1260FF350B125B08F50B08901B3B
:1060900013E0FAE8C39A40E97509007809122A5515
:1060A000780A122A51E9F5097809122A55901B132A
:1060B000E0F5097809122A55AD087C007A0A7B1BA5
:1060C000901B08E0F912454D7405122A2E901D2BE5
:1060D000E060046401700BEE4F6007EEFAEFFB1214
:1060E0003FD11248117401027735EE240BFAE43FD8
:1060F000FB22EE1260F7221260FF3FF58322E824B4
:1061000014F582E422E8F0A3E9F02274F012243EB0
:1061100074FF122AC78A0A8B0B7E008E0E8E0F1216
:1061200058F9125AF3126240FFAC18AD197A007B8D
:1061300000799D122D17851882851983E0F8EFC329
:106140009840030261E4E0C39FFEC3940B40027ECB
:106150000AEE75F007A4FAABF0123FCB8A088B0960
:106160008A0E8B0FEA450F6079750C00801A85083E
:1061700082850983A3A3A3A3A37403F0E5082407DE
:10618000F50850020509050CE50CC39E5056AC08F5
:10619000AD09E50C2FFAE43400FB798B122D17853D
:1061A0000882850983A3A3A3A3A3E0146008146055
:1061B0001314601F80B8850882850983A3A3A3A355
:1061C000A3E480B7850882850983A3A3A3A3A3744E
:1061D0000180A8850882850983A3A3A3A3A37402D1
:1061E00080997E007508007808122A55780E122AC8
:1061F00051EEF5087808122A55EFF5087808122AAA
:10620000557405122D07E0FD7C00E50A1263563532
:106210000BFBE50A12635B125AF3E0F9124559745D
:1062200005122A2EE50E450F6007AA0EAB0F123F8E
:10623000D17401122A2E025258A3E0F5838882A35A
:10624000125902E02274EE12243E74FE122AC78A0A
:106250000C8B0D7510007511001258F9350DF58372
:10626000126240F50AAC18AD197A007B0079A312CE
:106270002FF9126F99C3E50A9AE49B50768518822C
:10628000851983A80AE0C398FEA3E09400FFC3EE3B
:106290009404EF940040067E037F008004EE4F607C
:1062A00052EEFAEFFBEA75F015A4FAA8F075F015B6
:1062B000EBA428FB123FCB8A088B098A108B11EACA
:1062C0004511602F750B00750E00C3E50E9EE49F0F
:1062D0005026AC08AD09A80AE50E28FAE43400FB04
:1062E00079A2122FF9E5082415F5085002050905D1
:1062F0000E80D7750B8B7E007508007808122A5522
:106300007810122A51EEF5087808122A55E50AF598
:10631000087808122A557405122D07E0FDAC0BE52C
:106320000C126356350DFBE50C12635B350DF583DE
:10633000E0F912455F7405122A2EE5104511600739
:10634000AA10AB11123FD17402122A2E7F0A022624
:10635000CDFCEFFDE5082402FAE42212635F22245B
:106360000FF582E42274F612243E74FF122AC7EA63
:10637000FEEBFFEE1258FA3F12775AA3A3A3A3A392
:10638000A3A3A3E0F91248D1E9851882851983F007
:106390007508007808122A557401122A978808890E
:1063A000097808122A517508357509807808122A6B
:1063B000511263C11244B77405122A2E740102539C
:1063C0008A79011263CBFAE43FFB22EE2402FCE45B
:1063D0003FFDEE240F2274F412243E74FA122AC7F1
:1063E000125F461264B0EEFAEFFB124973E96017D0
:1063F0001232E18A0A8B0BAC0AAD0BEEFAEFFB12FC
:1064000040D9E96401700A7401122D07E4F0A380F9
:10641000097401122D07EEF0A3EF1278E6A3A3A3EF
:10642000A3A3E0F8A2E650087403122D077401F04C
:10643000E8A2E750087404122D077401F0740512E5
:106440002D07E4F004122A9F123AF1E9851882859B
:106450001983F09080B6122CD81233057A007B0095
:106460001233117A007B0012330B750A00780A127E
:106470002A557401122A97880A890B780A122A5120
:10648000750A34750B80780A122A5112649B1244E3
:10649000B77405122A2E74060252CC7901E508243D
:1064A00002FCE43509FDE508240FFAE43509FB2276
:1064B000F583127764FF2274F612243E74FF122AC9
:1064C000C712651FF509A3E0F508A90912491FE9DC
:1064D000851882851983F0901D2BE0700B7401657F
:1064E000087005A909124619EE240B126968702C70
:1064F0007508007808122A557401122A97880889AD
:10650000097808122A517508367509807808122A08
:10651000511263C11244B77405122A2E0263BCEAF9
:10652000FEEBFF12652B3F12653222EE2413F5823B
:10653000E422F583E0126614E022C082C083901D3D
:106540002BE0700312461FD083D0820229FB74F423
:1065500012243E74EF122AC7EAFEEBFF126600F522
:1065600008E439F509901AFFE065087004A3E065B6
:10657000097052A818A919880A890B780A122A5199
:10658000750A11750B00780A122A517C007D007A79
:10659000817B001240557404122A2EE97027750A77
:1065A00000780A122A557401122A97880A890B78F2
:1065B0000A122A51AC08AD091265EB124511740399
:1065C000122A2E8021750A11750B80780A122A5121
:1065D0007808122A51126965FD7C841265EB124518
:1065E0001D7404122A2E74110252CC1265EF22EE91
:1065F0002402FAE43FFBEE12635F3FF583E0F922E9
:1066000012660422125B3F126614127815F8E4C871
:10661000F9EA2822F8A3E0F9888289832274F1122A
:10662000243E74EB122AC712651FFCA3E0FAE4CAE9
:10663000FBEC2AF508E43BF509901AFFE0650870C9
:1066400004A3E0650960030266EC88828983A3A342
:10665000E09410500F88828983A3A3E08518828577
:10666000198380088518828519837410F0E0C0E0D2
:106670007404122D07D0E0127746A3A3A982AA833F
:10668000890C8A0D750E00780C122A4D7407122D94
:1066900007E0FC7D007408122D07AA82AB83123F2D
:1066A000057403122A2E7404122A97880A890B781B
:1066B0000A122A51750A11750B00780A122A517CA8
:1066C000007D007A817B0012404F7404122A2E74E0
:1066D00004122D07E0901B3E6005E0D2E48003E049
:1066E000C2E4F0851882851983E4800885188285C4
:1066F00019837484F0E0C0E07401122D07D0E0F03B
:106700007402122D07E508F07403122D07E508F056
:106710001253703F12674C122A557402122A97883E
:106720000889097808122A517508147509807808B3
:10673000122A5179031263C31244B77405122A2E28
:106740007415025AEBE5161253713517F583E0F50F
:106750000878082274F612243E74E0122AC7EAFE72
:10676000EBFF90054EE064086008E06404600302FB
:10677000695AAC18AD1912449F901D2BE064027049
:106780002F1232E17402122D07AC82AD831240D970
:10679000E9601D1232E78A088B09A808A909851843
:1067A00082851983E0687003A3E069700302695A67
:1067B0001234B57402122D07AC82AD83126F991298
:1067C00033B3E96401700302695A7418122A9F12E4
:1067D00032F37402122D07AC82AD837418122A9F13
:1067E0001240D9E960321232ED8A088B09A808A953
:1067F00009851882851983E0687003A3E069601831
:10680000851882851983126C749005421261057A8D
:10681000427B05794B124715901D2BE06004640103
:1068200070751232E78A088B09A808A909EE2411AD
:10683000126968687003A3E069605C7402122D0736
:10684000AA82AB831248A78A088B09A808A909E87D
:1068500049602688828983A3A3A3A3E06401600D15
:1068600088828983A3A3A3A3E06402700C7402123C
:106870002D07AA82AB831248959005DC12697660D9
:1068800016901D1FE06401700E126F999005DDE0F7
:10689000F58388821249A87900126F99122E5B90B5
:1068A000054C12695F126F9912346D740B122D072B
:1068B000E412697AF8A3E0F9740C122D071261054D
:1068C000740B122A9F12494FE9603F7C087D0079C2
:1068D000007418122A9F123F11740E122D07AC82F9
:1068E000AD837418122A9F1240D9E9601D740212F8
:1068F0002D07AC82AD83740E122D07AA82AB8312D2
:106900004979740B122A9F12493D7402122D07AC6B
:1069100082AD83740E122D07AA82AB83124979745B
:106920000B122A9F124949E96030740C122D07128C
:106930006C74851882851983E0687003A3E0696030
:1069400019851882851983126C74740C122D071224
:106950006105740B122A9F12493D742002538AE08C
:10696000FCA3E0FD22EE240EF582E43FF583E02255
:10697000F582E438F58312712122F0851882851999
:1069800083E02274E812243E74F7122AC78A168B19
:10699000177F008F088F091244A58A128B13EA45CE
:1069A000137003026B587E00800DEE75F00CA4F896
:1069B000126B751248950E851282851383E0F8EEEE
:1069C000C3984003026A8D750CFF750DFF750EFFAD
:1069D000750FFFEE75F00CA4F8A9F0126B75124854
:1069E000A7EA4B60D18A828B83A3A3A3A3E06401AF
:1069F000600D8A828B83A3A3A3A3E0640270B71205
:106A00006C3F7010126C56780C122C7A126C4C7809
:106A10000C122AAF126B5DA3A3A3A3A3A3A3A37815
:106A20000C1229B740847A0E7B00123FCB8A0A8B66
:106A30000B126B5DAC82AD831240DF850A82850B41
:106A400083A3A3A3A3A3A3A3A3780C122C98E50A62
:106A5000240C125AF0E4F0A3F0E5084509700E8505
:106A60000A10850B11851008851109801CE510247A
:106A70000CF8E43511F988828983E50AF0A3E50B67
:106A800012774FF510A3E0F5110F0269B6EF70030E
:106A9000026B517408122D077402126B85851882DF
:106AA0008519831261057E00EF75F00CA4FAABF036
:106AB000123FCB8A0C8B0DEA450D7003026B51809F
:106AC0005A850810850911EE75F00CA4F8A9F0E5B7
:106AD0000C28F50AE50D39F50BAC08AD09AA0AFB3F
:106AE0001240DF850882850983A3A3A3A3A3A3A3E0
:106AF000A3122CB4850A82850B83A3A3A3A3A3A30B
:106B0000A3A3122CF00EE510240CF582E43511122B
:106B10006B7DF509AA10AB11123FD1E5084509704C
:106B2000A07508007808122A5575081F7509807825
:106B300008122A51780C122A51EFF97405122AA76B
:106B4000E516240FFAE43517FB1244ED7405122AFA
:106B50002EAA12AB13123FD174090258D8EE75F069
:106B60000CA4F8A9F0126B6922E51228F582E5134E
:106B700039F583A322126B69AA82AB8322F583E0E5
:106B8000F508A3E022F0851682851783A3A3126C73
:106B9000782274F012243E1244A58A088B09AE08AC
:106BA000AF09EE4F7003026C3C750C0080787508DD
:106BB000FF7509FF750AFF750BFFE50C75F00CA456
:106BC000F8A9F0126C5C1248A7EA4B60578A828BD6
:106BD00083A3A3A3A3E06401600D8A828B83A3A394
:106BE000A3A3E06402703D126C3F7010126C5678E3
:106BF00008122C7A126C4C7808122AAFE50C75F04A
:106C00000CA4F8A9F0126C64A3A3A3A3A3A3A3A349
:106C100078081229B7500DE50C75F00CA4F8126C29
:106C20005C124895050C8E828F83E0F8E50CC398C2
:106C30005003026BAEEEFAEFFB123FD1025258EA5C
:106C4000241BF582E43BF583E0640122EA2417F576
:106C500082E43BF583221278C2F58322126C64AA87
:106C600082AB8322EE28F582EF39F583A3221260EE
:106C7000FE39F583126C7822E0F8A3E0F92274F172
:106C800012243E74F6122AC7EAFEEBFF7508009044
:106C90001BFE12697670507A377B00123FCB901B37
:106CA000FEEAF0A3EB12744160197C377D00790095
:106CB000123F11EEFCEFFD901BFE126F9F12446F0E
:106CC000E9700B8518828519837488026E27127704
:106CD00016126EC17401F07C7B7D449004EB126F40
:106CE0009F122EF1026EBCE0C8126EC17402F0EE6B
:106CF000FCEFFD12739712446FE9700C85188285C2
:106D000019837488F0750801750AC8750B1B780A19
:106D1000122A51126FAF12285512771624281273B7
:106D20008AFC126FE1127716241412738AF9124347
:106D3000CD7404122A2E126ECE126EEB2431127311
:106D40008A604312742BFAE433FB123FCB901BFE94
:106D5000E02432126F006022750CC8750D1B750E91
:106D600000780C122A4D12742BFCE433FD126FCD07
:106D7000123F057403122A2E800C85188285198310
:106D80007488F0750801780A122A51126FA312282C
:106D900055127716241112738AFC126FC4127716DB
:106DA000242B12738AF91243CD7404122A2EE9F8A7
:106DB0001277162434126EEB243412738A60351263
:106DC0007422FAE433FB123FCB901BFEE024351211
:106DD0006F006042750CC8750D1B750E00780C12A3
:106DE0002A4D127422FCE433FD126FBB123F05746E
:106DF00003122A2EE508A2E04025126ECE12738AF5
:106E00007008901BFE1273EE60157B007A0079000B
:106E1000124475026EBC8518828519837488F085CA
:106E200018828519837486F07409122D0774021272
:106E30007599126EDD122D07E8F0A3E9126EE5F5E3
:106E4000087808122A557401122A97880889097847
:106E500008122A517508207509807808122A51797C
:106E6000017406122AA7EEFAEFFB1244B77405125A
:106E70002A2E1273DD70427409122D077402F0126B
:106E80006ED7122D07127448122A557401122A97D0
:106E9000880889097808122A5175082075098078B0
:106EA00008122A5179017406122AA7901BFE126F4C
:106EB0009F1244B77405122A2E124469740A025AAA
:106EC000EB126EC522242EF582E438F58322901B46
:106ED000FE1273B3243122901BFE125902A3A31297
:106EE0006C78740122127599A3E022F582E438F5DA
:106EF00083126EF6C822E9F0901BFEE0F8A3E022B0
:106F0000F8A3E03400F988828983EAF0A3EB1277D2
:106F10005412712122C082C083901BFE12697660D8
:106F200075E0C824351269706006126FBB123FD13C
:106F300012771624321269706006126FCD123FD19B
:106F400012771624121269706009126FA3126F9FD4
:106F5000123FD112771624151269706006126FE184
:106F6000123FD112771624291269706009126FAF8F
:106F7000126F9F123FD1127716242C12697060068F
:106F8000126FC4123FD1901BFE126F9F123FD1901F
:106F90001BFEE4F0A3F00265478518828519831271
:106FA0006FDC221273B02412F582E438F5832212CA
:106FB00073B02429F582E438F583221273B02435A6
:106FC000126FD6221273B0242C126FD6221273B015
:106FD0002432126FD622F582E438F583127815FB3D
:106FE000221273B02415126FD62274F112243EEAD5
:106FF000FEEBFF8C088D09750A018C0C8D0D750E4A
:1070000000780C122A4D7C177D00123F0574031284
:107010002A2EEE24121270EBF0A3F0EE241512705B
:10702000EBF0A3F0127555E0603AEE2412F8E43F5D
:10703000F9880C890D12757E123FCB12710C6021FC
:10704000E50824121270FF122A4DE508241112706F
:10705000F3125E61126F9F123F057403122A2E8095
:1070600003750A00E5081275636035EE2415F8E42F
:107070003FF9880C890D12757E123FCB12710C609E
:1070800055E50824151270FF122A4DE50824141244
:1070900070F31270DB126F9F123F057403122A2ED9
:1070A000E50AA2E0402BEE2412F582E43F12697457
:1070B0006009125E60126F9F123FD1EE2415F582B7
:1070C000E43F126974600AEE1270DB126F9F123F88
:1070D000D1A90A025B4E750A0080CB1270DF222410
:1070E00015F582E43FF58322EE2414F582E43FF5A2
:1070F00083E422127629E025E0FCE433FDEE22123F
:107100007629E0F50CA3E0F50D780C22850C82853C
:107110000D83EAF0A3EBF0850C82850D83127121BB
:1071200022E0F8A3E0F9E8492274EE12243E74ED5F
:10713000122AC7890B8A0E8B0F750C00750D00750E
:107140000AFF7510FF7511FF750800750900851895
:1071500082851983E412744160177403650B60061D
:107160007402650B7010E0C8243012738A650F60DA
:107170000579000273857C7B7D447A007B00122EAA
:10718000F17401650B700A851882851983748580F6
:107190003DE50B60067403650B7019901BFE1273BE
:1071A000BDF07403650B7029E50E60298518828592
:1071B0001983801A7402650B701BE50E901BFE701C
:1071C000051273BD80081277191273D47402F0800F
:1071D00004E50B601E1273C370191273E760051289
:1071E0006ED1800A1273EE600A127716243412737D
:1071F0008A14F01273E7601A126B7FF50912742B70
:1072000012780ECA24321273FF241D1273A424258F
:1072100080261273EE6026901BFEE02417F508A36B
:10722000E03400F50912742212780ECA2435127364
:10723000FF24061273A4240E12738AF50A7409122D
:107240002D07740212697A60030272F3E50845099A
:1072500070030272F31273C370047E2280027E21D7
:10726000850882850983126EDD122D071261059053
:107270001C02E0C0E01277162430F582E438F58372
:10728000D0E0F07412122D077403F0AC0CAD0D7445
:107290000A122A9F1240DF850882850983A3E0F540
:1072A0000C780C122A55780A122A55740C122A9757
:1072B000880C890D780C122A517810122A51E50891
:1072C0002406F50CE43509F50D780C122A511273D9
:1072D00092F97409122AA7EEFA7B00124529740864
:1072E000122A2E7C7B7D449004EB126F9F122EF1AC
:1072F000027383126ED7122D07127448122A557426
:1073000001122A97880889097808122A51750820DD
:107310007509807808122A5179017406122AA790FB
:107320001BFE126F9F1244B77405122A2E1273DDD2
:10733000704E1277162419F582E438F583126EDF49
:10734000122D07E8F0A3126EF12418F582E438122A
:10735000674C122A557401122A97880889097808FF
:10736000122A517508207509807808122A5179016E
:107370007406122AA71273971244B77405122A2EA4
:1073800012446979017413026349F582E438F58384
:10739000E022127838E022901BFEE02417FAA3E0E6
:1073A0003400FB22F50CA3E03400F50D1273B0227B
:1073B000901BFE1273B722E0F8A3E0C8221273CD2F
:1073C000740122901BFE1273CDE06401221273B788
:1073D0001273D422242FF582E438F583221273B07D
:1073E000126EC5E0640222127431901BFE221273E9
:1073F000F2221273B72434F582E438F583E022F5E3
:1074000082E43AF583E028F8A3E039F9E824FEF5B0
:1074100082E934FFF583E0F510A3E0F511901BFE3F
:10742000E022901BFE1273F225E02212743125E057
:1074300022901BFE1273B72431F582E438F583E005
:1074400022126EF7F9E84922E8F0A3126EF6F583EE
:107450008882A3E0F508780822C082C0837B007A86
:1074600085790112447502654774F412243E8C0834
:107470008D09EA240F1278EC127852126C748C8207
:107480008D83A3A3126105EA240E1278ECA3F012F7
:107490006C5612776412758A12772850010FFCEF30
:1074A000FDE5082406FAE43509FB1240DFEE240866
:1074B000FE50010F8E828F83E0C0E0127834D0E05E
:1074C000127631F8127826E812772C50010FE50871
:1074D000241212755DA3F0E508241512755D12756E
:1074E00093F8A30EAF83127555E8F06028E50824E1
:1074F00012127575123FCB1278FF6019E50824123D
:10750000127568127557E0F91243F18A0A8B0BAEB7
:107510000AAF0B8007E508241112755D8E828F83F8
:10752000E0F8A3AE82AF83127621E8F0601FE50891
:107530002415127575123FCB1278FF6010E50824F0
:1075400015127568127563F91243F18005127621E0
:10755000E4F00252CFE5082411127629221276298E
:10756000E4F022127627E02212762912695FEEFA01
:10757000EFFBE50822F8E43509F9880A890BE012E7
:1075800075832225E0FAE433FB22FF1278978C8280
:107590008D8322A3127599E022F08E828F8322744C
:1075A000F612243E1278BA1264B0EEFCEFFDAA087F
:1075B000AB091240DFEE2408FE50010F8E828F834C
:1075C000127945127631850882850983A3A3A3A386
:1075D000A312772850010F8E828F83E0F8E50812FE
:1075E0005F4BF583E812771D7403687026EEFCEF9D
:1075F000FDE508240BFAE43509FB1240DF8E828F8B
:1076000083A3A3A3A3A3A3A3A3E0C0E0127621D0E6
:10761000E0800A12781A127710E8F0A3E9F002531A
:107620008DE508127627222414F582E43509F583C6
:107630002212787312789B2274F212243EEAFEEB37
:10764000FF750A00EE2410126968C3940C400D12F5
:10765000788C127719240B12738AF50AA80A125231
:1076600049E8240DFAE439FB123FCB8A088B09EA7A
:1076700045097003027700EE1258FA3F1278448AE7
:10768000828B8312786F7078EEFCEFFDEA2403FAA8
:10769000E43509FB1240DFEE2408FE50010F8E8214
:1076A0008F8312789385088285098312772B500186
:1076B0000F12770EE4F0E50A6046E508240DF8E4C1
:1076C0003509F98E828F83E0C0E012770ED0E01288
:1076D0007821C0E0127706D0E012771D850A0B8E64
:1076E000828F83E0FCA3E0FBEC8882898312773DE4
:1076F000500109EE2402FE50010F150BE50B70DF5F
:10770000AA08AB098032E508240C12762922E50884
:10771000240B12762922901BFE1273B322127721BA
:107720002212787B0EAF8322A3A3A3A3F0A3E9F0D8
:10773000EE2402FE22122A2E7F060226CDF0A3EBB3
:10774000F0E82402F82212774A22127754A3221278
:107750007754E022F08882898322126FDA8A828B42
:107760008322F583E0FEA3E02274F112243E127816
:10777000BE126B7D850882F583E0F50BA385820838
:10778000858309A3A3E0F50A1278873400FB123F32
:10779000CB8A0C8B0DAE0CAF0DEE4F60378E828F07
:1077A00083E50BF0850882850983E0FA1278D3859A
:1077B0000882850983A3A3A3A982AA83890C8A0DC1
:1077C000880E780C122A4D1278823FFB123F057406
:1077D00003122A2E025B4A74F712243EEA2413F89D
:1077E000E43BF988828983127815F5838A821278BE
:1077F000F212774F126614A3E0FA88828983A3A35A
:10780000E0F9EA8C828D83A31261060251D5F8E477
:1078100033F9901BFEE0FAA3E02212789BF8E5080A
:1078200022127721E02212782A22E50812635F35BE
:1078300009F5832212783822E508240EF582E43512
:1078400009F5832212784822127762FF8E828F8395
:10785000E022127857A322F08A828B83A322127827
:107860006222F08A828B83A3A3A322A3A3A3A312E1
:1078700078732212787BAE82AF8322F08E828F8360
:10788000A322AC0A7D00EE2404FAE42212652B3F09
:10789000F5832212789B228E828F83127815F9EA63
:1078A00022E08E828F83A3A3A3A3A3A3221278B284
:1078B000A322F0850A82850B83228C088D09127819
:1078C000C222EA2413F582E43B22F085088285096E
:1078D00083A3221278F8EA8E828F83A3F0A3E912A1
:1078E00078E6E50AF02212787BA3A322F582E43B36
:1078F000F583E08C828D8322A3E0F8E4C8F9228529
:107900000A82850B83EAF0A3EB1278B2127121226E
:1079100074F612243E1278BA126C72E8FEE91275FF
:107920008A12772C50010F1263513509FB1240DF88
:107930008E828F83A3A3A3A3A3A3A3A3127945A39A
:10794000A3F002538D127A81A3A32274F212243E73
:107950001279D675F00CA4A9F02401FAE439FB12CF
:107960003FCB8A0C8B0DEA450D60648A828B83A322
:107970008582088583098A828B83E50BF0750A006E
:107980008046EEFCEFFDAA08AB091240DFEE2408AA
:10799000FE50010F7904FAEFFB123F1DEAF8EBF9F4
:1079A000ECFAEDFB850882850983A3A3A3A3A3A317
:1079B000A3A3122CF0EE2404FE50010FE508240CC2
:1079C000F50850020509050AE50AC3950B40B3AA5C
:1079D0000CAB0D0277381278C2127848F50BA3AEC3
:1079E00082AF8322E0FA1278F8EA2822127862A3A2
:1079F000A3A3A32274F612243E1278BA127A6E124E
:107A00003F1DEAF8EBF9ECFAEDFB85088285098366
:107A1000122CF0EE2404FE50010F8E828F83E0F8CA
:107A200085088285098312786BC394065005127A03
:107A3000868037850882850983A3A3A3A3E064FE1B
:107A4000600E850882850983A3A3A3A3E0F4701BBD
:107A5000127A7912771D850882850983A3A3A3A3CF
:107A6000E0F47007127A93F0A3E9F002538D1277D5
:107A700062FF7904EEFAEFFB228E828F83127A8105
:107A800022127A86A322E0850882850983A3A3A314
:107A9000A3A322127897850882850983A3A3A3A3B1
:107AA000A3A3A32274F612243E7E00790012435B46
:107AB00075084D75091B7808122A517C547D007A8F
:107AC000507B001240437402122A2EE9F8740A68AF
:107AD000600BE8700A12436DE9640A70027E0102CD
:107AE0007C7F74F212243E74FE122AC7E9FE7C5495
:107AF0007D0079007A4D7B1B123F111240B58A0838
:107B00008B098C0A8D0B901B4D7808122C98EE6017
:107B100058851882851983E4F0A3F0A818A919885C
:107B20000C890D780C122A51750C02750D00780C19
:107B3000122A517C007D007A027B0012404F7404AF
:107B4000122A2E750C4D750D1B780C122A51750CCE
:107B500054750D00780C122A517C007D007A507B00
:107B60000012404F7404122A2EAA08AB09AC0AADC9
:107B70000B7402122A2E7F060226CD74F612243EC2
:107B80008A088B097808122681000019000000F38A
:107B90007B0200FE7BC800037CC900087CCA000D84
:107BA0007CCB00127CCC00177CCD001C7CCE00214D
:107BB0007CCF00267CD0002B7CD100307CD20035DD
:107BC0007CD3003A7C2C013F7C2D01447C2E014962
:107BD0007C2F014E7C3001537C3101587C32015D99
:107BE0007C3301627C3401677C35016C7C36017129
:107BF0007C7D7C1240B5901B4D122CCC807F901B5D
:107C0000518071901B73806C901B758067901B77FF
:107C10008062901B79805D901B7B8058901B7D80DB
:107C200053901B7F804E901B818049901B83804422
:107C3000901B85803F901B87803A901B89803590F0
:107C40001B8B8030901B8D802B901B8F8026901B70
:107C5000918021901B93801C901B958017901B97FF
:107C60008012901B99800D901B9B8008901B9D801B
:107C700003901B9FE02401F0A3E03400F08002EEAB
:107C8000F97F020226CD74F612243E74FC122AC734
:107C9000851882851983E4F0A3F0A3F0A3F08A0885
:107CA0008B097808122681000022000000357D0132
:107CB00000447D02006F7D6400757D65008D7D66EA
:107CC00000A57D6700BC7D6800D37D6900EA7D6A00
:107CD00000017E6B00187EC800337EC900387ECA62
:107CE000003D7ECB00427ECC00477ECD004C7ECE58
:107CF00000517ECF00567ED0005B7ED100607ED2E8
:107D000000657ED3006A7E2C016F7E2D01747E2E6D
:107D100001797E2F017E7E3001837E3101887E32A3
:107D2000018D7E3301927E3401977E35019C7E3633
:107D300001A17EBD7E901B4D122CB4851882851941
:107D400083027E2DA818A919880889097808122AA3
:107D5000517508027509007808122A517C007D00CF
:107D60007A027B001240557404122A2E027EBD90C6
:107D70001B51027EA4AA18AB1979E712470F851888
:107D800082851983122CB4901B53027E2DAA18AB46
:107D90001979E812470F851882851983122CB4903F
:107DA0001B57027E2DAA18AB1979E912470F8518C7
:107DB00082851983122CB4901B5B8071AA18AB19B1
:107DC00079EA12470F851882851983122CB4901B0B
:107DD0005F805AAA18AB1979EB12470F8518828574
:107DE0001983122CB4901B638043AA18AB1979EC49
:107DF00012470F851882851983122CB4901B678057
:107E00002CAA18AB1979ED12470F851882851983B2
:107E1000122CB4901B6B8015AA18AB1979EE12477F
:107E20000F851882851983122CB4901B6F122CF0C9
:107E3000027EBD901B73806C901B758067901B77D2
:107E40008062901B79805D901B7B8058901B7D80A9
:107E500053901B7F804E901B818049901B838044F0
:107E6000901B85803F901B87803A901B89803590BE
:107E70001B8B8030901B8D802B901B8F8026901B3E
:107E8000918021901B93801C901B958017901B97CD
:107E90008012901B99800D901B9B8008901B9D80E9
:107EA00003901B9FE0F8A3E0F9E8FCE9FD85188248
:107EB000851983ECF0A3EDF0A3E4F0A3F08518821C
:107EC000851983122CD87404122A2E027C8174F630
:107ED00012243E7E0175084D75091B7808122A513F
:107EE0007508547509007808122A517C007D007AC3
:107EF000507B001240557404122A2EE9704A7A53BE
:107F00007B1B79E71247157A577B1B79E8124715D7
:107F10007A5B7B1B79E91247157A5F7B1B79EA1242
:107F200047157A637B1B79EB1247157A677B1B79C0
:107F3000EC1247157A6B7B1B79ED1247157A6F7B34
:107F40001B79EE1247157E00027C7F74F212243EEC
:107F50007A647B001243677A657B001243677A6616
:107F60007B001243677A677B001243677A687B0065
:107F70001243677A697B001243677A6A7B00124377
:107F8000677A6B7B001243671240B58A088B098CB5
:107F90000A8D0B901B4D7808122C98750C4D750DA1
:107FA0001B780C122A51750C54750D00780C122A8E
:107FB000517C007D007A507B0012404F7404122ADD
:107FC0002EAA08AB09AC0AAD0B027B76C082C08337
:107FD000851882851983E0F8A3E0F9E84960128AE0
:107FE000828B83ECF0A3E824FF18E934FFF9487092
:107FF000F2D083D0820229FB851A87000229FBFF79
:108000000000000000000000000000000000000070
:108010000000000000000000000000000000000060
:1080200000000000000093474F378531EB2E812F71
:10803000AB417F434B412D41A739000000000000B8
:108040000000000000000000000000000000000030
:108050000000000000000000000000000000000020
:108060000000000000000000FFFFFFFFFFFFFFFF18
:10807000FFFFFFFFFFFFFFFF0008000400020001F9
:10808000FFFFFFFFFFFFFFFF0000000000000000F8
:108090000205020008017482003A003B0000000063
:1080A0000000000000000000000200020603E9FFDB
:1080B000FFFF0A000000000000000000FF00FFFFBB
:1080C000FFFF96511800000000FF6AAEE7FFE803CB
:1080D0000000975118000B000000080000001F006E
:1080E00000000048000064000000FEFFFFFF0100E8
:1080F000000009433886102700000400000019E042
:10810000FCFFF8FF0000E71F0300805101003C0066
:108110000000100E00003000000003000000E90322
:108120000000FA00000060EA0000E20400005802CB
:108130000000BC0200003200000000F8FF079F02B0
:10814000000000000000000000000A74F712243E46
:10815000E9900599F090054EE4F0123ED59005B1F6
:10816000E4F0A3F090059AF0A3F0123455901D2B83
:10817000E060046401700612490D122DC5123EDB49
:108180009004D5E4F0A3F012474B02B3A474EC12B0
:10819000243E74D7122AC7EAFEEBFF548060689031
:1081A0000599E0F9123F418A088B09EA4509604FB9
:1081B0007C0080010CEC75F003A4F8A9F07486280B
:1081C000F582744E39F583E493F4602CE493F885DA
:1081D00008828B83E06870DCAA08EC75F003A4F8D1
:1081E000748728F582744E39F583E493C0E07401F6
:1081F00093F583D0821249A8AA08AB09123F2FEE4B
:10820000FAEF64800286D1EF5420601E12329F8AFA
:10821000088B09EA4509600A1231BBAA08AB0912AA
:108220003F2FEEFAEF64200286D1901D2BE064020E
:10823000705FEEA2E0501F900553E0640F7011795B
:108240000012318BE96009901EA6122CD81231A3BE
:10825000EE64010285E8EF54406036901B38E0641C
:10826000067028740BF0901EBEE0F97508017509C0
:1082700000750A00750B00900541E07808122998F6
:10828000AA08AB09AC0AAD0B1248C5901D1B0286AB
:108290008FEE542070030285B97A207B00900599F7
:1082A000E0F91240A3EA4B4C4D701A9005AD122C28
:1082B000B4E8494A4B700E750C01750D00750E003F
:1082C000750F008061750C00750D00750E00750F3F
:1082D000001240B58A088B098C0A8D0B9005AD12EF
:1082E0002CB4E8494A4B602A9005AD78081229B7AA
:1082F000400E750CFF750DFF750EFF750FFF801298
:1083000085080C85090D8C0E8D0F9005AD780C122B
:108310002AAF7401780C122A7EE50C450D450E45F6
:108320000F70030284E07C0079047A007B00123233
:10833000698A088B0902840D85188285198374FF68
:10834000F07401122D0774FFF07402122D0774FFF0
:1083500012A2C4FAA3E0FB7403122AA712D15C1282
:1083600032C9E9640160030283EFE508240D12AF0E
:10837000A74480F8A3E0F97424122D07E8F0A3E9DC
:1083800012C4B5A3A3A3E0C0E07426122D07D0E069
:1083900012CF64A3E0540860167424122D07A3E0E2
:1083A00044011286F4C0E07428122D07D0E0F0E5F5
:1083B0000812ED00350912CF3D601CE508240F12AC
:1083C000CC2CA3E0C812C47D38F583E0F8741212F7
:1083D0002D07E8F0A3E4F09080B61228517404123F
:1083E0002AA77407122A9F122D297404122A2E8597
:1083F0000882850983A3A3A3A3A3A3A3A3A37406AD
:108400001286F4F912324B850A08850B09E50845F6
:108410000970030284E07C007904AA08AB091232D7
:10842000698A0A8B0B850882850983A3A3A3A3E02D
:10843000F510A3E0F511E4F512F513780C7910129C
:108440002C4A4023E5082404F8E43509F9850C108A
:10845000850D1188828983C3E09510F0A3E0951102
:1084600012F18370A2800E850882850983A3A3A3DD
:10847000A3E4F0A3F0850882850983A3A3A3A3A3A3
:10848000A3A3A3A3A3E06401850882850983A3A312
:10849000A3A3A3A3702BE0540460030283388508D0
:1084A00082850983A3A3A3A3A3A3A3A3A37406F014
:1084B0007AB78508828509831288D712319D028494
:1084C00007A3A3A3A3E0600302833885088285097C
:1084D00083A3A3A3A3A3A3A3A3A37401F00284076C
:1084E0001232397C0079017A007B001232698B09E3
:1084F000EA4509600C7A207B00900599E0F9123F6B
:108500006B850C0A850D0B7C0079047A007B0012C8
:108510003269EA4B701580558A828B83A3A3A3A38B
:1085200012E63FE50898E5099940098A828B83A302
:10853000A31286E67C0079041232698B0DA90DEA3C
:108540004970D5C3E50A9508E50B95095013C3E5B5
:1085500008950AF508E509950BF509E50845097040
:10856000147A207B00900599E0F9123F6B9005ADDD
:10857000129AF0803FE50825E0F508E50933F50992
:10858000E4F50AF50B7808122A497A207B00900559
:1085900099E0F91240917404122A2E1240B5EAC0F3
:1085A000E0EBC0E0ED9005ADFBECFAD0E0F9D0E0F7
:1085B000F8122CF0EE6420802FE060076401600365
:1085C0000286AAEE54106008122E01EE6410801884
:1085D000EE54406008122E79EE6440800BEE548019
:1085E000600B1248F5EE6480FAEF0286D1EF540179
:1085F000600B12342BEEFAEF64010286D1EF5408BF
:108600006047122DD1901D15E064017034901D1645
:10861000E0602EF508E4F509F50AF50B9080CE78B8
:108620000C122C7A7808790C12234F7808122A49F8
:108630007A007B08900599E0F91240977404122A99
:108640002EEEFAEF64080286D1EF54106012900506
:10865000ABE06005E4F0122DD1EEFAEF641080710A
:10866000EF544060459005D212CF3F6036901D1FF9
:10867000E06401702E9005D312C8611249A89005DC
:10868000D812CF3F600612C8611249A89080CE125E
:1086900028517A007B40900599E0F91240977404C4
:1086A000122A2EEEFAEF64408027EF5402600A127D
:1086B0003425EEFAEF64028018EF5404601612CEEF
:1086C00013790190054C12CC40122D47EEFAEF645D
:1086D00004FB80047A007B007429122A2E7F0C028E
:1086E00026CD8E828F83A3A31286EC22E0F508A309
:1086F000E0F5092212C4B9A3E022C082C08374EA63
:10870000122AC77C167D007900AA18AB19123F11F6
:108710007408122D077402F0900542129AC3128752
:108720003A7409122D0712CC4F7413122D07E4125C
:10873000CF76124739741602D52FE8F0A3E9F090EE
:10874000054C12D4F22274F712243E74DA122AC7AE
:10875000EAFEEBFFEE4F602DAC18AD191232C97472
:1087600006122D07E0601E7417122D07E0FD74013C
:10877000122D07E0FCEEFAEFFB7900123161E9609F
:108780000479A480027900742602B3A174F412243F
:108790003EEAFEEBFF8E828F83A3A3A3A3A3A3E0F5
:1087A0005440601912E2A112CC40123383E96007F1
:1087B0007AFF7BFF02888112E2A1028874901D2B50
:1087C000E0600764016003028869900539E0A2E176
:1087D000400302886912B3E712CD3FA3A3A3A3E02D
:1087E000FA88828983A3A312D8BE8E828F83A3A323
:1087F000A3A3A3A3A3E054106004794080027900EE
:10880000750AFE750BFF780A122A511288C51228C4
:1088100055AC08AD0912E2A112CC40122DD7740458
:10882000122A2EE5086A7003E5096B600B12BEFE82
:108830006A7003A3E06B703F750A00780A122A552C
:1088400079028E828F8312B4A8FCA3E0FDAA08AB44
:10885000091233C57401122A2E7508CDAA08128890
:10886000D312319DE9604C8057901D2BE06402705B
:10887000E890054212CC4074FE6A700374FF6B608E
:10888000D812E2A112E111123383E98E828F836044
:108890000B12BC1C12F455E4F0A3800312F443F055
:1088A0007C917D318E828F8312CC4012473FE9F557
:1088B0000870A9EE4F60097901EEFAEFFB1232451C
:1088C000A908028F75EE1288CA222411F582E43FAE
:1088D000F583228E828F8312F42CE0F92274F61233
:1088E000243EE9FEEAFF7A0F7B00123F29EA4B6043
:1088F0001F8A828B83740CF0EEA3A3F0EF8A828B25
:108900008312B15D900599E0F9123F357900802F0F
:10891000EEF912326F8A088B09A808A909E84960A4
:108920001C88828983A3A3A3A3A3A3A3A3A37406E0
:1089300012ED06E0F9122E8BEEF912324B7910028D
:10894000C8BE74F412243E8A088B098C0A8D0B90E1
:108950000553E0640F702CEA4509450A450B602376
:1089600090054EE064086005E06404701678081213
:108970002A497A017B00900599E0F912409174042C
:10898000122A2E028F7574F212243EEAFEEBFF8C3F
:108990000A8D0B8908740E122D0712E644850C828D
:1089A000F583E4F0A312CE08F5838882E0F9123350
:1089B0005FE9602612CC33123383E96402701B8EA8
:1089C000828F83A3A3A3A3A3A3A3A3A312BA89857E
:1089D0000C82850D8312CC4F800375080012B49F62
:1089E00014602E14604314606414606C14604814A6
:1089F0007003028A7824FE7003028A9214700302C4
:108A00008A9B147003028AAE147003028ABC028A25
:108A1000D2780C122A51AC0AAD0BEEFAEFFB122DF4
:108A2000E97402122A2E028AB7AC0AAD0BEEFAEFF5
:108A3000FB122DEF028ADC12CC33123383E9600380
:108A4000028AD2EEFAEFFB122E3D028ADCA908EE72
:108A5000FAEFFB1233CB805F12B91D64027073E52D
:108A600008700A12E1C77003A3E069706FEEFAEFB5
:108A7000FBA908123353803F12E1C77003A3E069DA
:108A8000705012B91D64027049EEFAEFFB12333BCD
:108A9000804AEEFAEFFB123449804112E1C77003BD
:108AA000A3E069702DEEFAEFFB1233D7802EEEFAB9
:108AB000EFFBA9081233E3E9F5088020901D1FE0C1
:108AC00064017009EEFAEFFB1233EF800F750800B6
:108AD000800A7508007AD37B00124361A9088007D9
:108AE000A90A7403122A2E7F060226CD74F41224DA
:108AF0003E74D6122AC78A088B098A828B83A3A365
:108B0000E0F912326F8A0A8B0BAE0AAF0BEE4F7090
:108B100003028C1E850882850983A3A882A983E0AD
:108B2000C0E012CC1AD0E012E651E064F160338567
:108B30000882850983A3E064CD60278508828509C2
:108B400083A3E0641A601B850882850983A3E0641F
:108B5000E9600F850882850983A3E064E160030270
:108B60008D16901D2BE0600764016003028C3F8E20
:108B7000828F83A3A3A3A3A3A3A3E054087003023B
:108B80008C3F8E828F83A3A3A3A3A3A3A3A3A374C9
:108B900005F0901D2BE06004640170538508828508
:108BA0000983A3E064E960479005CE12CF3F6006D9
:108BB00012C8611249A89005D012CF3F60319005CC
:108BC00039E0A2E1502912D132A3A3A312B95B88E4
:108BD00082898312CC40123485EA4B601285088268
:108BE000850983A3E0F99005D012E2A51249A88E69
:108BF000828F83A3A3A3A3A3A3A3A3A3E064027070
:108C0000108E828F83A3A3A3A3A3A3A3A3A37406FD
:108C1000F0850882850983A3A3E0F912324B123252
:108C200039901D2BE064027011901EACE0F508A392
:108C3000E0AA08FBE4FCFD1231A3742A028F7279CA
:108C400000123245E97003028D16901D2BE060077B
:108C500064016003028CEB900539E0A2E14003025D
:108C60008CEB12CF3A7003028CEB8E828F8312CC86
:108C7000407404122AA712D15C1232C98508828579
:108C80000983A3E064E97023128E20122A55850817
:108C900082850983A3E0F50A780A122A55128E2DDF
:108CA00012CC401232FF7402122A2E740D122D07BC
:108CB00012CF3012F0AE12CC4F7409122D07E060C3
:108CC00004794080027900740F122D0712B95B7489
:108CD0000D122D0712CC40122DE3E9600E8E828F0B
:108CE00083A3A3A3A3A3A3E04420F0EE2404F50AE6
:108CF000E43FF50B8E828F8312AFB4E0F9850A82D0
:108D0000850B8312CC40123EE7850A82850B83EAED
:108D1000F0A3EB028B91850882850983A3E0C0E074
:108D20007402122D07D0E012A7A412E0ADE50824CA
:108D30000B12AFA7C0E07403122D07D0E012E914A4
:108D4000E0AA18AB197031122D23901D2BE060049E
:108D5000640170277402122D07E0701F12E2A11245
:108D6000CC40123383E970399005CE12CF3F603189
:108D700012C8611249A880031233597402122D07D8
:108D8000E064E9701C128E20122A55750AE9780AEF
:108D9000122A55128E2D12CC401232FF7402122A62
:108DA0002E901D2BE0600764016003028BEF90059D
:108DB00039E0A2E14003028BEF8E828F83A3A3A34D
:108DC000A3A3A3A3A3A3E06402703C8E828F83A31A
:108DD000A3A3A3A3A3E05404602D12E2A112CC40EC
:108DE000123383E98E828F83700F12E2A574FFF035
:108DF000A312A9547405028C10A3A3A3A3A3A3A335
:108E0000A3A37403028C10850882850983A3E06400
:108E1000E96003028BEFEEFAEFFB123401028BEFF5
:108E20008E828F8312D9F4750A01780A22E508240C
:108E30000C12BF1DE0F98A828B83A3A3A3A3A3A373
:108E4000A3A3A312D8B62274F412243EEAFEEBFFC9
:108E50007508007509008E828F83A3A3A3A3A3E0E6
:108E6000603B75080812CC3379FF122F8D8B0BEA0B
:108E7000450B601075082C8E828F83A3A3A3A3A338
:108E8000E0D2E0F08E828F83A3A3A3A3A3E05403D8
:108E900064016003028F51430811028F51EE2418C0
:108EA00012B9206049EE241A12B9206003F4701D33
:108EB00012E1C77003A3E0697006750822028F51A2
:108EC00090054EE064046003028F51801CEE241B69
:108ED000F582E43F12B969241A12B920FAEE241976
:108EE000129B80122E4FE97068750901806312CCC5
:108EF00033123383E96402700375080112E1C7700D
:108F000003A3E0697006E508D2E1F508E5086015FD
:108F10008E828F83A3A3E07006E508D2E58004E586
:108F200008D2E6F50812CC33123383E964017006E7
:108F3000E508D2E0F5088E828F83A3A3E0601212C9
:108F4000B49FF912335FE964016006E508C2E0F5F9
:108F500008901D2BE0600464017012E508A2E14056
:108F60000CE509A2E04006E508D2E7F5080288C052
:108F70007418122A2E7F040226CD74EC12243E743B
:108F8000C3122AC7EAFEEBFF85188285198374FE97
:108F9000F0A304F0751000751100750900901D2BE9
:108FA000E0640270248E828F83A3A3A3A3E06019E0
:108FB000901EAA12CF3F6011901EAAE0F50AA3E00E
:108FC000AA0AFBE4FCFD1231A37405122AA78E82C3
:108FD0008F83A3A3A312CF3212CC3E1232C9E97001
:108FE000030293B678017407122D07E0C394024080
:108FF0000278007409122D07E0C394024002780041
:10900000740E122D07E064F87003A3E0F4700302FD
:1090100093B6740E122D07E064F97003A3E0F470A8
:10902000030293B6740E122D07E064FA7003A3E0F6
:10903000F470030293B6740E122D07E064FB700304
:10904000A3E0F470030293B67408122D07E0F990C0
:10905000053CE06960030293B6E8A2E04003029396
:10906000B6901D2BE06402700B7429122D07E0608E
:10907000030293B612BA807424122D0712B98A24FF
:109080001C12BA837412122D0712CC4F740B122DBE
:1090900007E0601D741C122D07E0FD7406122D07F9
:1090A000E0FC8E828F8312CC3E7901123161E9702F
:1090B0003D7405122A9F1231B5E9F508740B122D83
:1090C00007E0702F900536E060297422550864226D
:1090D000602174425508644270147422122D0712E4
:1090E0009A9C600F7422122D07129AA260057ACF03
:1090F0000293B8E9A2E6506C901D2BE06004640175
:10910000701B900539E0A2E150137422122D071252
:10911000B4A81228DA01010B3B9100B69374221215
:109120002D0712B4A824FD601214600F24FD600BFB
:1091300024FD600724FE60030293B67422122D07FB
:10914000129ADB700F7422122D07A312C861A3E0DC
:10915000640D60107405122A9F1233BFE964017018
:1091600003029A85EE242DF582E43FF58312A2B71F
:109170007003A3E0697021750A00780A122A5578F5
:109180000A122A55EE242F129B80129AA812CC4064
:109190001232FF7402122A2E740B122D07E0700394
:1091A000029247129AA812CC401234858A0A8B0B7D
:1091B000EA450B70030292DE7406122D07E0F88E6A
:1091C000828F83A3A3E028F8A3E03400F9E8240DFC
:1091D000129A8AF88A828B83A3A3A3E068600EE8C0
:1091E0008A828B83A3A3A312B14B129AF0790474E1
:1091F00006122D0712A607E02AF8A3E034008882A1
:10920000F583A3AA82AB83123F1D8A0C8B0D8C0EB3
:109210008D0F850A82850B83A3A3A3A3780C122943
:10922000B74003029A859080EE780C122B81850A54
:1092300082850B83A3A3A3A3E50CF0A3E50DF0A304
:10924000E50EF0A3E50FF0901D2BE0640260030231
:10925000938B90054EE064046008E06409600302AB
:109260009A85E508A2E54003029319EE242F12B96E
:1092700020C0E07402122D07D0E0129B01C0E07400
:1092800003122D07D0E0129AF9C0E07404122D07E2
:10929000D0E0F07416122D07E064017026741012ED
:1092A0002D07129AB87003A3E0697017740E122D7F
:1092B0000712CC40123383E9640270077416122D32
:1092C00007E4F0129AE61228517406122AA77409CC
:1092D000122A9F122D297404122A2E029A859005B3
:1092E00093E0640160030292477422122D07129AE0
:1092F0009C7009E508A2E650030292477412122DF1
:1093000007E0F47003A3E0F4600CEEFCEFFD7405DD
:10931000122A9F1231C1029A85A2E64003029A8561
:109320007422122D0712D13F7016741C122D07E003
:10933000640270547405122A9F79001233538048D6
:109340007422122D07129AA27014741C122D07E0B9
:10935000640470347405122A9F123347802A7422E1
:10936000122D07129ADB700C79007405122A9F12D5
:1093700033CB80147422122D0712B4AA640C700827
:109380007405122A9F1233FB029A85E0600764017C
:109390006003029A85900539E0A2E14003029A85B4
:1093A0007429122D07E060267410122D0712CC408C
:1093B0001248E9E9700A7AD37B00124361029A8568
:1093C0008E828F83A3A312E2A5A3E0C2E5F07416F8
:1093D000122D07E0601DEE2402F8E43FF9E8FAE9F7
:1093E000FB12D14514F012D145F87416122D07E87E
:1093F000F07006E508C2E7F508E508A2E3506175DC
:109400001110A2E25018740A122D07E054E3F07410
:109410000A122D07E0131313541FF8E0802CA2E466
:10942000502A740A122D07E01313543F5407F860B2
:1094300009740768600B18E87007C3E508C2E7F510
:1094400008E8333354FCF8E054E348F0740A122D72
:1094500007E0C0E08E828F83A3A312B092D0E0F029
:1094600090054EE064046008E06409600302953CE6
:10947000740E122D0712E1D47003A3E069601F740B
:109480000E122D0712CC40123383E96402600F7470
:109490000A122D07E0540364016003029A857407E1
:1094A000122D07E07041EE242F12B920C0E07402A3
:1094B000122D07D0E0129B01C0E07403122D07D0DB
:1094C000E0129AF9C0E07404122D07D0E0129AE17C
:1094D0001228517406122AA77409122A9F122D29E4
:1094E0007404122A2E80527422122D0712D13F705A
:1094F00016741C122D07E06402703E7405122A9F38
:10950000790012335380327422122D07129AA270FE
:1095100014741C122D07E06404701E7405122A9F37
:1095200012334780147422122D07129ADB700A79C5
:10953000007405122A9F1233CB029A857461550874
:109540007003029643E508A2E0506D12B95274050B
:10955000122A9F122E7FE9705C1232F9E9F5097424
:1095600016122D07E0700F7410122D07129AB870A2
:1095700003A3E0696042A90912B9527405122A9F37
:10958000122E85E96024E508A2E3500C8518828537
:10959000198374FFF0A3800C740E122D07129AC366
:1095A000E8F0A3E9F0751004800EE508C2E5F508BF
:1095B000750900800353089FE508A2E5503FEE249B
:1095C0002F12B920C0E07402122D07D0E0129B01C7
:1095D000C0E07403122D07D0E0129AF9C0E07404C1
:1095E000122D07D0E0129AE11228517406122AA710
:1095F0007409122A9F122D297404122A2EE508A23A
:10960000E64003029918A818A919880A890B780A54
:10961000122A51A909129A93122A9F1231A974028F
:10962000122A2EE9F50970030299187422122D07E7
:1096300012B4A86401600302991874104510F51063
:109640000299187407122D07E06401705D742212EC
:109650002D0712B4A86405701EA818A919880889D6
:10966000097808122A51129A91122A9F1231A9746C
:1096700002122A2E029A857422122D07129ADB708A
:1096800029740E122D0712CC401248E9E9601BA87C
:1096900018A919880A890B780A122A51129A91126C
:1096A0002A9F1231A97402122A2E7416122D07E075
:1096B00070257407122D07E06401700C7422122DBE
:1096C00007E0F8129ADB600CEEFCEFFD7405122A3D
:1096D0009F1231C1029A8512323FE96003029A85D6
:1096E000741D122D07E070030297917420122D074C
:1096F00012B95B741F122D07E0FA741E122D07E0D9
:10970000F9122E4FE9607D741F122D07E0701E7450
:109710000E122D07129AC312F465FAA3E0FB124849
:10972000DD8B0BEA450B6003029912805174201205
:109730002D0712CC40741F122D07E0F9122E498517
:10974000188285198312E1117808740D122D07E033
:1097500060027810740C122D07E06004740828F879
:10976000740A122D07E0600108088E828F83A3A37C
:10977000E028FAA3E034008A82F583E014F0751043
:10978000400299127508007808122A55790B029840
:10979000CB740E122D0712CC447409122D07E06011
:1097A000030298E6E508A2E350030298E674071264
:1097B0002D07E06401607A7900851882851983128B
:1097C000CC40122EA38A0A8B0BA80AA90BE8496089
:1097D0001C88828983A3A3A3A3A3E06401605288A9
:1097E000828983A3A3A3A3A3E064026044EE242D93
:1097F00012B95585188285198312CC401234858A96
:10980000828B83E5824583600FA3A3E0F91234A322
:10981000E96005C3940840197410122D0712CC405A
:109820001248E9E970030298C17409122D07740403
:10983000F07800E8F5097809122A55741E122D07F0
:10984000AC82AD83740F122D0712CC40740A122D16
:1098500007E0F9122EB57401122A2EE9600F751077
:10986000208E828F83A3A312B4A8543FF0741D12DC
:109870002D07E06023740E122D0712B95B741E12BF
:109880002D07AA82AB831232C385188285198312F1
:10989000E11174404510F5107407122D07E06401C2
:1098A000601579007410122D0712B95B740E122D19
:1098B0000712CC40122E55E508A2E35037794080BC
:1098C000357508007808122A557902740F122D0791
:1098D00012B95B7411122D0712CC401233C57401FA
:1098E000122A2E029A85E508A2E3400302983178F5
:1098F0004002983379007410122D0712B95B740E70
:10990000122D0712CC40122DE3E960067420451099
:10991000F5101232F9E9F509851882851983E0649A
:10992000FE7003A3E0F47003750900901D18E06455
:109930000160030299CBEE241312B920F47003A343
:10994000E0F470030299CB740E122D07C3E094F972
:10995000A3E094FF507512BA807410122D07E068CE
:109960007003A3E06960647410122D0712CC4012DA
:1099700048DD8A0A8B0BA80AA90BE849604D88824A
:109980008983A3A3A3A3E06401600D88828983A3D4
:10999000A3A3A3E0640270337430122D0774011284
:1099A000E65BF8A3E0F9743B122D0712CC4F74303C
:1099B000122A9F124943E960127433122D07AA82BA
:1099C000AB83124895E960031242E9E508A2E7403B
:1099D00003029A85E5097003029A858E828F83A31C
:1099E000A3A3A3E0FA7B00123FCB8A0A8B0BEA45C4
:1099F0000B7003029A85EE2404F512E43FF5138EF2
:109A0000828F83A3129ACD122A4D851282851383E9
:109A1000E0FC7D00123F057403122A2E7407122DFC
:109A200007E0C0E0742B122D07D0E0F0742E122D49
:109A300007E4F0A3F0742B122A97880C890D780C98
:109A4000122A517508007808122A557810122A51E6
:109A5000E509F5087808122A5512B9141228558517
:109A60001282851383E0F97408122D0712B95BAADC
:109A70000AAB0B1232B77408122A2EE96007AA0A41
:109A8000AB0B123FD1743D0286DAF582E412EE99F7
:109A900022790012B91812B95F74072212B4C26495
:109AA000062212B4C4640722EE242BF582E43FF5AB
:109AB0008312B96F12B9192212D4F2EE241312BF15
:109AC00005682212D4F285188285198322A3E0F555
:109AD0000CA3E0F50D750E00780C2212B4C46403DB
:109AE00022F0129AE622EE2425F582E43FF5832245
:109AF000E4F0A3F0A3F0A3F022F0EE243112BF05AE
:109B000022F0EE243012BF052274F412243EEAFE45
:109B1000EBFF8C088D09901D15E0600F12E1C770F6
:109B200003A3E0697005122DD18052790012CC3365
:109B3000122EA38A828B83E58245836035A3A3A37B
:109B4000A3A3A3E05418602AE508241C12CC2C120D
:109B50002855E508241312CC2C122855EE2418128F
:109B60009B80129B8512CC40122EBB7404122A2EAD
:109B7000800B7900129B8512CC40122DFB028F7551
:109B800012BF05F9228E828F83A3A3A3A3A3A3A34D
:109B9000A3A312B96F12CC1F2274F012243E74EAF0
:109BA000122AC78A0A8B0BEA2402F50EE4350BF55C
:109BB0000F0A0AFB1248A78A088B09AE08AF09757D
:109BC0000801850A82850B83A3E0F509750C01ACB9
:109BD0000EAD0F740B122D07AA82AB831240DF74F7
:109BE00013122D0774FEF0A304F07415122D0774E0
:109BF00002F07408122D07E4F0901E41E0700EEEA2
:109C00004F700AE50970067508C3029DD590054E90
:109C1000E0640860067508C2029DD1850A82850B42
:109C200083A3A3A3A3A3A3A3A3A3A3E0A2E1500E92
:109C3000A2E35005750C04800C750C038007A2E3A9
:109C40005003750C02EE4F7003029CE48E828F83EA
:109C5000A3A3A3A3E06404600D8E828F83A3A3A3B8
:109C6000A3E06403700C7404650C602C7403650C31
:109C700060268E828F83A3A3A3A3E06402600D8E6F
:109C8000828F83A3A3A3A3E0640170317402650CE7
:109C900060067401650C70188E828F8312CC40129E
:109CA00033A1E9703F12A94A122D0712CC4F80341C
:109CB0008E828F83A3A3A3A3E06402600D8E828FA4
:109CC00083A3A3A3A3E06401700A8E828F8312CCC6
:109CD00040122E19E50A2402FAE4350BFB124895CE
:109CE0007E007F007413122D07E064FE7003A3E072
:109CF000F47046124937E97040E509601B901E4A2E
:109D000012CC401233A1E9700F901E4A12A94E12D4
:109D10002D07E8F0A3E98020850A82850B83A3A3A1
:109D2000A3A3A3A3A3A3A3A3E05402F9122E0D742B
:109D300013122D07EAF0A3EBF07413122D07E06461
:109D4000FE7003A3E0F470067508C7029DD1E50913
:109D5000F50D780D122A55850A82850B83A3A3A3DE
:109D6000A3A3A3A3A3A3A3E0F9E50A2402FCE4357B
:109D70000BFD7414122D0712CC40122D4D740112DC
:109D80002A2EE9704CA90CE50A2402FCE4350BFDEF
:109D90007413122D0712CC401249018A0E8B0FAE9C
:109DA0000EAF0FEE4F601F74026509700D8E828F2B
:109DB00083A3A3A3A3A3E0D2E3F07415122D07E4B9
:109DC000F0750800800B7413122D0774FEF0A304C5
:109DD000F0E5097009AA18AB19124721800AFCA9FD
:109DE0000CAA18AB19123341E9FCEE4F6053E50998
:109DF00060208E828F83A3A3A3A3A3E0D2E6F07496
:109E0000026509700D8E828F83A3A3A3A3A3E0D262
:109E1000E5F0850A82850B83A3A3A3A3A3A3A3A331
:109E2000A3A3E0A2E6500D8E828F83A3A3A3A3A3D6
:109E3000E0D2E7F08E828F83A3A3A3A3A3A3E004C1
:109E4000F0E508703BEC60337D007A017B10123E38
:109E5000E1EE4F600CE50A2402FAE4350BFB1248F0
:109E6000957413122D07E064FE7003A3E0F4600BF9
:109E70007413122D0712CC40122E19741602D8E05A
:109E8000FC80C574F712243E74F7122AC7EAFEEB71
:109E9000FF90054EE06403600DE064016008E0643B
:109EA000096003029FD28E828F83A3E06003029F2A
:109EB000907C007D007A027B00123EE1129FD78ADF
:109EC000828B8312BA8990053F12CC4F7953124787
:109ED0001590054EE06409600990054C12CC4012C3
:109EE000347F851882851983740112CF76794212E6
:109EF000471590054E7404F07401122A9F794A1296
:109F0000470F7401122AA77A447B051240DF901B89
:109F100038E0640B70057406F0800B790090054CF6
:109F200012CC40122D47901D2BE060046401701F7D
:109F3000900542E064FE7003A3E0F4602A790074A7
:109F400001122AA790054212CC401249018018E064
:109F50006402701390053F12B95B7A037B00123ED6
:109F6000E112A836123EE1900539E0A2E35004D296
:109F7000F08002C2F012CF6C7952124715901D2B5F
:109F8000E06402704A901EA6122CD81231A3803FC2
:109F9000FC7D007A037B10123EE1901D2BE06402F1
:109FA000701B901B38E0640B7003740AF0901D194D
:109FB000E4F0FA7B40900599E0F912409D8E828F83
:109FC00083129FE112CC40122D4790054EE4F0120F
:109FD000320F740902B3A1EE2402FAE43FFB22E03F
:109FE000F8A3E0F990054C22C082C0839004D512FA
:109FF000CF3F701F90054EE014600924FC600A14E6
:10A00000600C800F9004E080349004DC802F90047A
:10A01000DE802AE84960089004D612A618700C8ADF
:10A02000828B83A3E0F9122D2F801D9004D512D1CD
:10A030004964027005123419800E9005CC12CF3F8E
:10A04000600612C8611249A802C52C74F412243E9D
:10A0500074FE122AC78A088B097A007B049005993E
:10A06000E0F912409DAA18AB19795012470F7A0FE8
:10A070007B00123F298A0A8B0BAE0AAF0BEE4F60B2
:10A0800020850882850983A3E0701690054CE0F4D2
:10A090007003A3E0F4603B12A2B17003A3E0696017
:10A0A00031850882850983A374EA12A79C1247159B
:10A0B0007A427B05794B1247157A4C7B0579501211
:10A0C00047157A417B0579E1124715EE4F7003027F
:10A0D000A15B8E828F837402F090054CE0F47003D4
:10A0E000A3E0F4600A12A2B17003A3E069704F8587
:10A0F0001882851983129FDFE8F0A3E912A79C124A
:10A10000470F90053F12AFC512CC4F7A427B0579BD
:10A110004B12470F7A417B0579E112470F750A0010
:10A12000780A122A55780A122A55901E90129FE238
:10A1300012ACFB12CC401232FF7402122A2E850898
:10A140008285098312A160A3F090054E7403F0EE9E
:10A15000FAEFFB900599E0F9123F357402028F7215
:10A16000A3E08E828F832274F412243E74E8122AB4
:10A17000C7EAFCEBFD8C828D83A3A3A3A37808120E
:10A180002C7A7808122C2A90054F7808122BE07F41
:10A190007F7E7F790090054F7808122C7AE9780845
:10A1A000122A7EE508A2E05029780090059A8014D2
:10A1B000850882850983A3A3E069700108E5082466
:10A1C0001412CC2C12A9E570E7E8C39F5004E8FFF5
:10A1D000E9FE09E9C3941B40BC8C828D83A3A3A331
:10A1E000A3122CB4E8494A4B6079EC2404F508E446
:10A1F0003DF509850882F583122CB490054F122C89
:10A20000F07C187D007900AA18AB19123F1185085F
:10A2100082850983122CB4851882851983122CF04B
:10A220007404122D077401F0900555E0C0E0740528
:10A23000122D07D0E0F07407122D07E412CF76122A
:10A24000472D806A90054C12CC40122D7D8A0A8BD6
:10A250000BA80AA90B90054C12A2C0687003A3E0DA
:10A2600069602D90059A12A9E56025850882850907
:10A270008312A2B77003A3E069700C850882850978
:10A2800083A3A3E06E60BDE508241412CC2C80D615
:10A29000EE900541F01231F1E9601390054EE4F0C3
:10A2A0009004E212CF3F600612C85F1249A8028FE5
:10A2B0007085188285198312D4F290054CE06822CB
:10A2C000E8F0A3E912A2C822F0850882850983E09C
:10A2D0002274F412243E74E8122AC78A828B83A364
:10A2E000A3A3A3A3A3A3A3A312D9F07C0090054F1B
:10A2F0007808122C7AEC7808122A7EE508A2E05041
:10A300002FECF8EA2812BA78F8901E49E0C398506A
:10A310001F750801750900750A00750B00EC7808B7
:10A320001229987808122C2A90054F7808122BE0F1
:10A330000CECC3941B40B690054F122CB4E8494A6C
:10A340004B604E7C187D007900AA18AB19123F11A2
:10A3500090054F122CB4851882851983122CF07445
:10A3600004122D077401F07407122D077401F09088
:10A370000555E0C0E07405122D07D0E0F074071217
:10A380002D07E412CF7612472D90054E7406F0800B
:10A390001C90054EE4F0FCFD7A047B10123EE19027
:10A3A00004E212CF3F600612C85F1249A8028F7004
:10A3B00074F512243E74D1122AC78A088B098A8246
:10A3C0008B8312BC14741C122AA78A828B83A3A3CA
:10A3D000A3A3A3A3A312A61012CC37123221741C7C
:10A3E000122D07E0702C850882850983A3A3A3A3FF
:10A3F000A3A3A3A3E0C3940B40188E828F83A3A3CF
:10A40000A3A3A3A3A3A3E06402700712CC1AE0F4F1
:10A41000600302A60290054EE06402700302A4E706
:10A42000E06406700302A4E79004D512CF3F6008F1
:10A4300012A618700302A51B90054EE06408600880
:10A44000E06404600302A602741E122D0712A60720
:10A45000A3A3A3A312BC149004D5E0F8496007128B
:10A46000D14F6402607790054CE06E7003A3E06FFB
:10A47000600302A60274016A60167423122D07ACF1
:10A4800082AD837A607B051240D9E9600302A6029F
:10A490007A007B02900599E0F91240A3EA4B4C4DFB
:10A4A000600302A60290054F122CB485188285190C
:10A4B00083122CF0900555E0C0E07404122D07D0F3
:10A4C000E0F07405122D077401F07406122D077464
:10A4D0000212CF76124817E9600302A5FFEEFAEFE9
:10A4E000FB12341302A6029004D512CF3F702C75D4
:10A4F00008007808122A557808122A55EE2410F51B
:10A5000082E43FF58312CF33A3A3A3A3A312B978A8
:10A5100012CC401232FF7402122A2E8E828F8312C6
:10A52000BA897407122D07E8F0A3E912A95412BAE8
:10A53000897409122D0712B98A12BF0FC0E0740B7B
:10A54000122D07D0E0F012CC1A1286E8740F7808AA
:10A55000122C89740C122D07E508F07420122D07B7
:10A56000E0C0E0740D122D07D0E0F07422122D0728
:10A57000E0C0E0740E122D07D0E0F0741D122D071C
:10A58000E0C0E07410122D07D0E0F0741E122D0709
:10A59000E0C0E0740F122D07D0E0F0EE241012B9E5
:10A5A00020C0E07411122D07D0E0F07421122D07A5
:10A5B000E0C0E07412122D07D0E0F0742E122D07C7
:10A5C000E0C0E07413122D07D0E0F07423122D07C1
:10A5D000A982AA8389088A09750A007808122A4D77
:10A5E0007C087D007417122D07AA82AB83123F05E9
:10A5F0007403122A2E7407122A9F122D418003120F
:10A600004811742F02B611E0FA8E828F83A3A32221
:10A61000A3E0F98A828B832212D15064012274F75D
:10A6200012243E74C9122AC712343190054EE064D8
:10A6300008601F904F8AE493900530F0904F8AE4B1
:10A640009390052EF0900557740112A793A304125E
:10A65000A7937C237D0079007414122A9F123F1166
:10A6600090055FE07009741E122D07740180067456
:10A670001E122D07E412A7A4740FF0901E4812CFEB
:10A680007679461247157401122D07E4F0901EBF2B
:10A69000E0C0E07402122D07D0E0F090053CE0C06D
:10A6A000E07403122D07D0E0F07404122D07E4F0DB
:10A6B0007405122D07E4F07407122D07E4F09005DD
:10A6C0005FE0C3940F500CE0C0E07406122D07D079
:10A6D000E080077406122D07740FF07C607D05740E
:10A6E00008122D07AA82AB831240DF7C037D00791C
:10A6F000FF7410122D07AA82AB83123F11900598A8
:10A70000E0C0E07413122D07D0E012CB8074011268
:10A710002A9F12321B7A9C7B05794512471512330A
:10A720002F900553E0C0E0741C122D07D0E0F0908C
:10A730000554E0C0E0741D122D07D0E0F0900541F3
:10A74000E0C0E0741A122D07D0E012873E74181290
:10A750002D0712CC4F7420122D07E4F0900556E01F
:10A76000C0E0741F122D07D0E0F07434122D07E4FE
:10A77000F07429122D07E412A79C1247157A427B28
:10A7800005794B1247157414122A9F1247337437F8
:10A7900002B3A1F0A3E4F0A3F0A3F022F07A3F7B90
:10A7A0000579532212A7A822F085188285198322E1
:10A7B000C082C0838A828B83A3E090054E6004E44C
:10A7C000F080707408F090055FE070289004E21249
:10A7D000CF3F6008790012C8611249A890054C1259
:10A7E000B95B7A057B00123EE190054C12CC401219
:10A7F000347F80187900122D3B90053F12B95B7AA7
:10A80000067B00123EE112A836123EE19005D212FC
:10A81000CF3F601F901D1FE0640170179080CE1223
:10A8200028517A007B40900599E0F9124097740412
:10A83000122A2E02C52C90054212B95F7A047B00C1
:10A840002274F412243E74EA122AC78A088B09EA99
:10A850002402FAE43509FB1248A78A0A8B0BAE0AD8
:10A86000AF0BEE4F700302A9458E828F83A3A3A383
:10A87000A3E06401602A8E828F83A3A3A3A3E06474
:10A8800002601D8E828F83A3A3A3A3E064036010E4
:10A890008E828F83A3A3A3A3E06404600302A9456F
:10A8A000E5082402FCE43509FD740B122D07AA8289
:10A8B000AB831240DF12A94A122D0712CC4F741538
:10A8C000122D077401F07408122D07E412CF7612CE
:10A8D0004727E9FC7D007A077B00123EE18E828FDC
:10A8E00083A3A3A3A3A3E0C2E012A954740112E9B5
:10A8F000235001097A027B00122257E88E828F834F
:10A90000A3A3A3A3A3A3A3A3F0901D1FE0640170BE
:10A9100034901D19E06402702C8E828F83A3A3A350
:10A92000A3E06401600D8E828F83A3A3A3A3E064E0
:10A9300002701212B914122CB412C203122CF0EECF
:10A94000241B12CF267416028F728E828F8312D42C
:10A95000F274132212A9582212C239A3A3A3A3226C
:10A9600074F212243E74F8122AC7EAFEEBFF8C0A36
:10A970008D0B890D908068AC18AD19740812297779
:10A98000750C00EEFCEFFDAA18AB191240D9E97066
:10A9900003750C0190059A801AEEFCEFFDE5082482
:10A9A0000BFAE43509FB1240D9E97023E5082414B9
:10A9B00012CC2C12A9E56024E50CA2E040DB85084E
:10A9C00082850983E0650A7004A3E0650B70DD856C
:10A9D0000882850983A3A3E0650D70D0AA08AB099E
:10A9E0007408028AE41286ECE508450922C082C098
:10A9F0008390059A02C52974F712243E90059A1295
:10AA0000F0A9800C12D75812BC17123FD1EEFAEF02
:10AA1000FBEA4B70EF90059AE4F0A3F002B3A47444
:10AA2000F412243EEAFEEBFFEE241312B920640375
:10AA3000700CEE240BFAE43FFB1248A7800EE06492
:10AA400002707C12CC1A12CC401248DD8A088B09A5
:10AA5000E508450960698E828F83A3E0700F850841
:10AA600082850983A3A3A3A3A3A3E4805164F16017
:10AA70000A8E828F83A3E064E170278508828509AE
:10AA800083A3A3A3A3A3A3E0640170168508828512
:10AA9000098312CC40122E19EE240BFAE43FFB126C
:10AAA0004895850882850983A3A3A3A3A3A3E06097
:10AAB0000E850882850983A3A3A3A3A3A314F00290
:10AAC0008F7574F112243E8A088B09ECFEEDFF8924
:10AAD0000A8A828B8312DB938A828B8312A1601293
:10AAE000AB948A828B83A3A3E0C454F0FA88828952
:10AAF00083E04A12ABA412A16012AB9EE033335440
:10AB0000FCF88E828F83E04812AB9EA3E033333390
:10AB100054F8F88E828F83E04812AB948508828BBC
:10AB200083A3A3A3A3A3A3E0A2E0E4331313FA88AF
:10AB3000828983E04AF0E5082407F50CE43509F53D
:10AB40000D750E00780C122A4D7C087D00EEFAEF90
:10AB5000FB123F057403122A2EEE2408FE50010F4B
:10AB6000E508240FF50CE43509F50D780C122A4D93
:10AB70007C037D00EEFAEFFB123F057403122A2ED0
:10AB8000E50AC3940F400A12CC2812A161A3A3A323
:10AB9000F002E8F5F0EEF8EFF9A30EAF832212AB66
:10ABA000A4A3A322F08508828B83A3A32274F112AD
:10ABB000243EEAFEEBFF890A8C088D098E828F8382
:10ABC000E08C828D8312BF40AE82AF83E012C2EF71
:10ABD00012C4D9C412C2EF12AC6CE012C2F612C495
:10ABE000D7A2E2E4338C828D8312C4D6131313549C
:10ABF0001F12C2EF12C4D5A2E7E4338C828D83A367
:10AC0000A3A3A312AC6C8E0C8F0D750E00780C12E2
:10AC10002A4D7C087D00E5082407FAE43509FB127B
:10AC20003F057403122A2EEE2408FE50010F8E0CED
:10AC30008F0D780C122A4D7C037D00E508240FFA55
:10AC4000E43509FB123F057403122A2EE50AC3946A
:10AC50000F40118E828F83A3A3A3E0C0E012CC2803
:10AC6000D0E0800412CC28E4F002E8F5A3A312BFE0
:10AC7000440EAF832274F512243E8A088B098A821F
:10AC80008B83A3AE82AF83E0F9122D658E828F8312
:10AC9000E064EB6024850882850983A3E064E160B9
:10ACA00018850882850983A3E064F1600C85088219
:10ACB000850983A3E0641A7009850882850983A346
:10ACC000E4F0901EA6122CD81231A3750A01780A5E
:10ACD000122A55850882850983A3E0F508780812B1
:10ACE0002A55790090054C12ACFB12CC401232FF71
:10ACF0007402122A2E12323902B61412B95F90056C
:10AD00004222C082C083E99005AC7003E4800274E3
:10AD100001801EE0F902C52CC082C0837C917D3188
:10AD20008A828B8312CC4012473F02C52CEAF0A3E3
:10AD3000EBF002C52C74F612243E9005ACE0701BBB
:10AD40007C0079017A007B00123269EA4B600C8A40
:10AD5000828B8312CF3F600312319702C8BEC0823C
:10AD6000C0837904123263E9F8904F79E493C39871
:10AD7000401079FF123263E9F8904F7EE493C39854
:10AD8000500479018002790002C52C74F012243E2F
:10AD90008A088B09890B750C008A828B83A3A3A375
:10ADA000A3A3A3A3A3E0F912326F8A0E8B0FAE0EFA
:10ADB000AF0F750A01EE4F600302AE7685088285FB
:10ADC000098312AFB4A3A3A3A3A3A312BFFD12CC04
:10ADD000401232578A0C8B0DAE0CAF0DEE4F700344
:10ADE00002AF9F8E828F83A3A3A3A3E4F0A3F0E519
:10ADF00008240CFAE43509FB8A828B83E0C0E01258
:10AE0000E919D0E0F0E508240D12AFAC12DB6112B5
:10AE1000CC4F12338FEE240F12E10BE508241112F0
:10AE2000AFAC1288C612CC4FE508241312AFA7C0EE
:10AE3000E012B914D0E0F0750C01EE240612BEF554
:10AE4000E0547FF0A3E054FC12E651E054046003A8
:10AE500002AEED901EB8E0F5087509007407780899
:10AE6000122C068E828F83A3A3A3A3A3A3E045087D
:10AE7000F0A3E04509F08E828F83A3A3A3A31286DB
:10AE8000E674077808122C89E5085407FCE50B6086
:10AE90006C8E828F83A3A3A3A3A3A3A3A3A37402F3
:10AEA00012C4DA12B27B600B90053A12AFC5A3A3AD
:10AEB00012CC4FEC700302AF68EE240612F3F75485
:10AEC0007FF508A3E054FCF509EC24FFF50EE4340B
:10AED000FFF50F7407780E122C06E508450EF8E50D
:10AEE00009450FF98A828B8312CC4F807B8E828F2B
:10AEF00083A3A3A3A3A3A3E0448002AE75EC7005D3
:10AF0000750A0080638E828F83A3A3A3A3A3A3E00B
:10AF10005420600C123F23EA547F7900245F80198B
:10AF20008E828F83A3A3A3A3A3A3E05410601A125D
:10AF30003F23EA540F7900240A5001098E828F833F
:10AF4000A3A3A3A3F0A3E9800D8E828F83A3A3A361
:10AF5000A37401F0A3E412A9547404F07A207B00D6
:10AF6000900599E0F9123F6BE50CA2E0503412B95C
:10AF700074A3A3A3A3A3A3A3A3A3E0F9EEFAEFFBF7
:10AF800012325DE9601C12ECFF3F12CF3D600912E6
:10AF9000B4D212CC40123FD1EEFAEFFB123FD17582
:10AFA0000A00A90A02D8E312BF1DE02212BF1D1237
:10AFB000D4F2EE22A3A3A3A3A3A312B95F850882B0
:10AFC000850983A32212D4F28E828F83A3A32274D5
:10AFD000F412243E74F7122AC77E0012326FEA4B35
:10AFE000700302B08B8A828B83A3A3A3A3A3A3A322
:10AFF000A3A3E06406600302B08B8A828B83A3A3C1
:10B00000A3A3A3A3A3E0FF8A828B8312B092E0C024
:10B01000E07408122D07D0E012B4B912CC451232F8
:10B020008DEF5408606385188285198312B95B7AA5
:10B03000007B001232518B0BEA450B704C12F5511C
:10B040001247577C007D007A007B0080288E828F1B
:10B050008312B4A8F47003A3E0F4602D90054C12A1
:10B06000B97C12CC40124751E9641A601C7C007D07
:10B0700000EEFAEFFB1232518A0A8B0BAE0AAF0BCD
:10B08000EE4F70C9790012475D7E01EEF974090236
:10B090008F7212BC2012B099222408F582E438F590
:10B0A0008322C082C083EA4B70059005B180068A76
:10B0B000828B83A3A312B2AF60258A828B83A3A362
:10B0C000A3A3A3A3A3E0540860E5EC4D60158A8216
:10B0D0008B8312B4A86C7003A3E06D70D280047AE5
:10B0E000007B0002C52C74F212243EEAFEEBFF89BD
:10B0F0000A8C088D097A147B00123FCBEA4B603F23
:10B100008A828B83A3A3A3A3A3A3A3A3A3E412B4C0
:10B11000AEA3E50A12B14BA3A312DCCE8A828B83C5
:10B12000A3A3A3A3E4F0A312B4CC12B15D12E0A9CF
:10B13000EA12ED003BF583E4F012B142F0A3F00215
:10B140008AE7A3F08A828B83A3A32212B14F221233
:10B15000B15322F08A828B83A3A3A3A322A3F0126C
:10B16000F4183BF583E4F02274F412243EEAFEEB7B
:10B17000FF89088C0A8D0BEE4F700302B204740134
:10B18000650870127901123263E9F8904F84E493F4
:10B19000C398502280167404650870147904123222
:10B1A00063E9F8904F79E493C398500A7911805677
:10B1B00074026508704E8E828F83A3A3A3A3A3A3FA
:10B1C000A3A3A3E50812B98412DB6EE4F0A3F09008
:10B1D00005B112CF3F60178003E0F8A312CD46A35C
:10B1E000A312B2AF88828983A3A370ED8003900578
:10B1F000B112E0AD7A207B00900599E0F9123F6B27
:10B200007900800279C1028F75C082C083E9F87924
:10B21000009005B1801D8A828B83A3A3A3A3A3A35F
:10B22000A3A3A3E068600574FF687001098A828B9C
:10B2300083A3A312B2AF70DE02C52C74F712243EB2
:10B24000EA4B70059005B180068A828B83A3A31216
:10B25000B2AF60208A828B83A3A3A3A3A3A3A3A3DB
:10B26000A3E06970E4EC60108A828B83E012B27B09
:10B2700070D780047A007B0002B3A412F44DE0542E
:10B280000422C082C0839005B180068A828B83A38A
:10B29000A312B2AF60128A828B83A3A3A3A3A3A33A
:10B2A000A3A3E06970E580047A007B0002C52C123C
:10B2B000D174EA4B2274F712243EEAFCEBFD9005B0
:10B2C000B180068A828B83A3A312B2AF60248A82E4
:10B2D0008B8312B4A86C7003A3E06D70E68A828B36
:10B2E00083A3E0C812BC0D12D8CFA2E0E43370D320
:10B2F00080047A007B0002B3A474F212243E8A0A0E
:10B300008B0B8C0C8D0D750800750900EA450B60E0
:10B31000309005B180068E828F83A3A312BC17EEF6
:10B320004F601EAC0CAD0DEEFAEFFB850A82850B6B
:10B33000831249A8E9640170DDEEF8EFF988088905
:10B3400009AA08AB09028AE779000229FB74F712FF
:10B35000243E9005B112BA897C007D00800DE8FC86
:10B36000E9FD88828983A3A312BA89E8496030EA9B
:10B37000687002EB6970E79005B112CC40E86A7022
:10B3800002E96B88828983A3A3700812BA899005A9
:10B39000B1800912BA898C828D83A3A312CC4F800D
:10B3A00003122A2E7F010226CD74F712243EEAFEF4
:10B3B000EBFFEE4F602F12328712B3E712CC401230
:10B3C0003FD18E828F8312CC40123FD112ECFF3FCF
:10B3D00012CF3D600912B4D212CC40123FD1EEFA26
:10B3E000EFFB123FD180BD12CF45F5832274F612D8
:10B3F000243E8A828B8312B4A8F508A3E0F5099055
:10B4000005B112BA897D007C00802F88828983A3D0
:10B41000A3A3A3A3A3A3A3A3E0640570140C12DB4E
:10B420008AF5838E82E065087004A3E065097001E7
:10B430000D88828983A3A312BA89E84970CD904F01
:10B4400085E493F8EDC3985008904F8812EE87403A
:10B450000F8A828B83A3A3A3A37401F0A3E48010BB
:10B4600090053AE0F812A610A3A3A3A3E8F0A3E97D
:10B4700012B4CC740512B4AEE0440812B4B9F4703E
:10B4800003A3E0F4601190054C12D8B212CC401224
:10B490004751E9641A7005790112475D02C8BEEE92
:10B4A000241DF582E43FF583E0F812B4C42212B4FF
:10B4B000B22212B153A3A3A322F08A828B8312B4C7
:10B4C000C222E0F8A3E0F5838882E02212B4B2A39E
:10B4D000A322EE12CD2B22C082C083EAFCEBFDEC4E
:10B4E0004D6017EC24FBF582ED34FF12CF3D700761
:10B4F00012B531E0F46007123F2F790580309005D6
:10B5000099E0C0E012B531D0E0F0904F76E493F9C5
:10B510007AB37B05123F65E9640170107A007B20E5
:10B52000900599E0F9123F6B79008002790402C519
:10B530002CEC24FFF582ED34FFF5832274F4122401
:10B540003EA2AFE433F508C2AF9005B312BC17EECC
:10B550004F603AEE24FBF582EF34FF12CF3D7A00C4
:10B560007B209005996007E0F9123F6B8005E0F9B8
:10B57000123F71E4F50AF50B780A122A51EEFCEF3E
:10B58000FD7AB37B05123F5F7402122A2EE508A2F2
:10B59000E092AFEEFAEFFB028F7574F512243E8A4B
:10B5A000088B09750A009005B112DB8E805A8E82D5
:10B5B0008F8312B4A865087004A3E06509703D8EFE
:10B5C000828F83A3A3A3A3E4F0A312C24A5404600E
:10B5D000118E828F83A3A3A3A3A3A3A3A3E0F91235
:10B5E0002E8B8E828F83A3A3A3A3A3A3A3A3A37451
:10B5F00006F07AF01288D312319D050A8E828F836D
:10B60000A3A312BA89E8FEE9FFEE4F70A1A90A8050
:10B6100003122A2E7F030226CD74F012243E74D426
:10B62000122AC7EAFEEBFF750B00750A007508FECB
:10B630007509FF12323FE9600302B907EE241512C3
:10B64000B9206044901ED5E0C43354E0F8E03333B1
:10B6500054FC48C0E012D6E1D0E012B98412CC40CC
:10B6600079FF122F8D8B0DEA450D600F750B01755B
:10B6700008FF12CF2A12CE00D2E0F0901D2BE0601E
:10B680000464017003750A408E828F8312CC3E12CF
:10B690003383E9600312B92CEE241312B920700D24
:10B6A000904F81E493C0E012B914D0E0F08E828F05
:10B6B00083E0A2E7500454038019EE241412B92049
:10B6C000701290052BE0C0E012F3EDD0E0F0900591
:10B6D0002BE004F012F4097016901EC1E0600D908A
:10B6E0000536E0700A8E828F83E0700312CD1B90C6
:10B6F0001D2BE060046401704B900539E0A2E1501D
:10B7000043E50BA2E040218E828F8312CC3E1233A0
:10B7100083E960308E828F83E0600DEE240B12B4DB
:10B72000A2F912335FE9601C12B938700302B8B98C
:10B73000EE241312B9206401600302B8B912B4D226
:10B74000E054FBF08E828F83E06401700DEE240BD9
:10B7500012B4A26402700312B94512B93860030230
:10B76000B81FE50BA2E0500302B81F901D2BE0604C
:10B77000076401600302B81F900539E0A2E14003AD
:10B7800002B81FE50AF50B780B122A55EE2406FCC9
:10B79000E43FFD8E828F8312CC3EEE2412129B80FA
:10B7A000122EB57401122A2EE9600612B92C12B9B4
:10B7B0003E8E828F83A3A3A3A3A3A3E0603CEE24C9
:10B7C00002F50CE43FF50D850C8212B9692407FAE5
:10B7D000E43FFB1232C38A088B09850C82850D83F6
:10B7E000E065087004A3E06509700C8E828F83A366
:10B7F000A3A3A3A3A3E4F012B9458E828F83E064D0
:10B8000001600BA90A12B97812CC3E122E55A90A72
:10B8100012B97412CC3E122DE3E9600312B93EACAA
:10B8200018AD19EEFAEFFB1232BD8A0A8B0B74FECB
:10B830006508700474FF650970031286E2EA450B1F
:10B84000700302B90B8E828F83E0C0E07401122D69
:10B8500007D0E0F07404122D0712E0ADEE241E12A2
:10B86000BA837402122D0712CC4F7401122A9788E2
:10B870000C890D780C122A51EE242012B924122AB8
:10B880005512B4D2122855EE240E12B924122A559C
:10B8900090053F1228557408122D07E0F9AC08AD49
:10B8A000091232B77408122A2EE9FE74106E705D08
:10B8B000AA0AAB0B123FD18054EE241312B920C058
:10B8C000E07417122D07D0E012F45E740F122D07EA
:10B8D00012B98A240412F3FC12BA897411122D07CA
:10B8E000E8F0A3E912BF65C0E07418122D07D0E09C
:10B8F00012E90F12A61112B95B7406122A9F122EBA
:10B9000085E9600302B744791180047E10EEF97472
:10B910002C02D8E012B91822EE12CD6322EE2417C1
:10B9200012BF052212BF05F50C780C22EE2412F589
:10B9300082E43FF583E4F02212B94C54402212B95C
:10B940004C4420F02212B94C4440F022EE12CD2F8C
:10B95000E022EE2413F582E43FF58312B95F221250
:10B96000B96322E0FCA3E0FD22F58312B96F221235
:10B97000B963EE228E828F83A3A3A3A312B95F8E35
:10B98000828F832212DB7A22A3A3E8F0A3E9F0EEF0
:10B9900022C082C08374D7122AC790800074031219
:10B9A0002AA774261229778A828B83A3A3A3A312C2
:10B9B000BA89740E122D07E8F0A3E912D4EB740CC7
:10B9C000122D0712BA8D240D12BA78C0E0741A1223
:10B9D0002D07D0E0F012D76212BA877420122D071B
:10B9E00012BA8D241512BA78C0E07408122D07D04F
:10B9F000E0F0EA241CF582E43B12BA877412122D9F
:10BA00000712BA8D241112BA78C0E07409122D07FA
:10BA1000D0E0F0EA241212BA78C0E07407122D07C1
:10BA2000D0E0F0EA241EF582E43B12BA87742412B7
:10BA30002D0712BA8D242012BA78C0E07426122D78
:10BA400007D0E012A7A474FFF07401122D0774FF51
:10BA5000F07402122D0774FFF09080B61228517412
:10BA600004122AA77407122A9F122D297404122A7D
:10BA70002E7900742902D52FF582E43BF583E0226C
:10BA8000EE2413F582E43FF58312D4F222E8F0A30A
:10BA9000E9F0EA2274EE12243E74EC122AC78A0EF0
:10BAA0008B0F8C088D09890C750A107A217B001286
:10BAB0003FCB12D535E849700302BC06750B007CFC
:10BAC000217D007900851882851983E0FA123F11E3
:10BAD0007429122D0712BC17901D2BE0600464011D
:10BAE000703EAA08AB091248DD8A108B11A810A974
:10BAF00011E849602388828983A3A3A3A3E064019A
:10BB0000600D88828983A3A3A3A3E064037009EE78
:10BB10005440700474044FFFEF54046003750B012C
:10BB200090054C12CC4085188285198312BC1C24C8
:10BB300009F582E43812E10F7426122D0712BA8932
:10BB40007411122D07E8F0A3E912BC2512F40F12AC
:10BB5000BC2512B099740212F469F8A312C86112DC
:10BB6000DE3812BC2512F41FE50CF07428122D07E4
:10BB7000E0F50885188285198312F428E50812BCBF
:10BB80002512BC0DF583E50EF0A3E50FF074061247
:10BB90002D0712E0AD7408122D07E508F0742C1281
:10BBA0002D0712E2A5C082C083740C122D07AC824F
:10BBB000AD83D083D0827405122977742B122D07A0
:10BBC000E0C0E07413122D07D0E0F0A90BAA18AB67
:10BBD00019123245E964017021901D2BE060046464
:10BBE000017012E50BA2E0500CA90812326FEA4B6B
:10BBF0006003123293750A00800C851882851983C0
:10BC000012CC40123FD1A90A741402C250241FF56D
:10BC100082E43822A3A3A312DB8EFF2212BC2022CF
:10BC200012D54FC82212D544C82274EE12243EEA1F
:10BC3000FEEBFF8C088D098E828F83A37408F0EED3
:10BC4000241612B92060088E828F83A37410F0121C
:10BC5000B91D60098E828F83A3E02408F0EE2415BD
:10BC600012B92060088E828F83A3E004F08E828F49
:10BC700083A3A3A3A3A3A3E060198E828F83A3A3AE
:10BC8000A3A3A3A3A3E0C3332402F88E828F83A3CC
:10BC9000E028F012BEFE6005750B0E8003750B00E8
:10BCA000901D2BE06402701E901D1FE06401701651
:10BCB0008E828F83E06401600D901D19E060071291
:10BCC000BEEB7401800412BEEBE412BF40E012BF71
:10BCD0000D28250B8C828D83F012BEFE601390051B
:10BCE00037E0F9123167E9F8850882850983E02990
:10BCF000F0850882850983E0C394754009750800C2
:10BD000075090002BEE4E0FA7B00123FCB8A088B83
:10BD100009EA4509700302BEE48E828F83E0FA903F
:10BD2000053C12BF397402780C122C06EA450CFA55
:10BD3000AB0DEE241212B9205403F50C750D0074EE
:10BD400006780C122C06EA450CFCEBFDEE241512CD
:10BD5000B9206004780180027800EE2416FAE43FEE
:10BD6000FBE8F9ED49FD12BEFEF50C7409780C12E2
:10BD70002C06ED450DFD8A828B8312BF39740B783A
:10BD80000C122C06ED450DFDEE241712BF33740C7A
:10BD9000780C122C06ED450DFD8E828F83A3A3A394
:10BDA000A3A3A312BF39740A780C122C06ED450D1B
:10BDB000FDEE242312BF33740D780C122C06ECF820
:10BDC000ED450DF9E8850882850983F0E9A3F0EED9
:10BDD000240212BEF512C00712BF5BF0EE2404125B
:10BDE000BEF512BF2512BF5BA3A312CD5912BF250A
:10BDF000A3A3A3A312BF65850882850983A3A3A378
:10BE0000A3A3A3A3F0750A088A828B83E06015EED2
:10BE1000241812B955E5082408FAE43509FB124044
:10BE2000DF750A1012B91D6019EE241A12B955A84F
:10BE30000AE50828FAE43509FB1240DF7408250AF0
:10BE4000F50A8E828F83A3A3A3A3A3A3E06057EE7A
:10BE50002407F510E43FF511851082F583E0C0E07A
:10BE600012BF14D0E012BF4BE0C0E00812BF16D0E2
:10BE7000E012BF4B129ACD122A4D85108285118394
:10BE8000E025E0FCE433FDA80AE50828FAE43509DA
:10BE9000FB123F057403122A2E851082851183E060
:10BEA000C333250AF50AEE241512B9206008C0E054
:10BEB00012BF14D0E0F012CC1A129ACE122A4D12F0
:10BEC000BF0EFC7D00A80B8E828F83A3E0FAE508ED
:10BED0002AFAE43509FBEA28FAE43BFB123F057431
:10BEE00003122A2EAA08AB0902C253EE2423F582BC
:10BEF000E43FF58322F8E43FF9888289832212BF68
:10BF00000222EE2411F582E43FF583E022F8EE12DE
:10BF1000DB65E022A80AE5082812BF1D22F582E4AD
:10BF20003509F5832212BF2922E08508828509831D
:10BF3000A3A322F582E43FF583E0F50C750D002202
:10BF400012BF4422F08E828F83A322F0050A8E82D4
:10BF50008F83A3A3A3A3A3A3A3A322A3A312E661F6
:10BF600012BF29A322F0EE241412BF052274F4128A
:10BF7000243E74FD122AC78A088B09ECFEEDFF747B
:10BF800001122A97880A890B780A122A5174021220
:10BF90002AA7EEFAEFFB122E317402122A2EE97054
:10BFA0005385188285198312C007F07401122D077A
:10BFB000E0F812BFFDA3A312F4656029148508827E
:10BFC000850983A312F46912D9E97401122D07E0DF
:10BFD00028F8A3E039F9E824FEF582E934FFF58377
:10BFE00012F0A9800C850882850983A3E4F0EEFA9B
:10BFF000EFFB80047AFE7BFF7403028F72A3E0F9EB
:10C0000085088285098322E0850882850983227458
:10C01000EE12243E8A0A8B0B8910ECFEEDFF750FA1
:10C02000017C267D007900EEFAEFFB123F11E5104E
:10C03000C39408500302C19C8E828F83E510F0EEFA
:10C04000FCEFFD850A82850B8312C4A71232CFE96B
:10C050006003750F0012C4898E828F8312C4E1EED3
:10C0600012C47D3F12C4CBC0E01288C5D0E012C418
:10C07000C3C0E0EE2412F582E43FF583D0E012BFA6
:10C0800040740812C231A3A3E06018E50A2408F83E
:10C09000E4350BF912B91412CC4F8E828F83A3E0D2
:10C0A0002408F08E828F83A3A3A3A3A3A3A3A3E05A
:10C0B00060178E828F83A385820885830912C49CB2
:10C0C00012D6E112A2C02408F0EE241912B92FEE04
:10C0D000241B12B92FA312C231E0600F12C2188EB6
:10C0E000828F83A3A3A3A3A312C244EE241812B980
:10C0F00020700302C18C12C218FAEE2419F582E4F2
:10C100003FF583EA12C244F8E50A28F582E412F505
:10C110004BF812DCA2E812C244E8C39AEE5068243D
:10C120001912B920F8904F75E493C3985005751112
:10C130000C8008EE241912B920F5118E828F83A38A
:10C14000E0F8E50A28F50CE4350BF50D750E0078DE
:10C150000C122A4DAC11EC2CFCE433FD7A137B114C
:10C16000123F057403122A2EEE241BF582E43FF5DC
:10C17000837413F0A37411F0E511C333F8850882BA
:10C18000850983E028800412CD12E4F08E828F832B
:10C19000A3E0F88E828F83E0C39850047900806119
:10C1A000A3E0FAE50A28F8E4350B12C20DE8F0A383
:10C1B000E912C4DAC39AC0E012C203D0E012C24A44
:10C1C000603DEE2417F8E43FF9880889098882F574
:10C1D00083E024F2F0EE241D12BEF5E0240EFAA353
:10C1E000E03400FB8882898312E111900537E0F981
:10C1F000123167E9F8850882850983E0C398F0A9C0
:10C200000F8050EE2417F582E43FF58322F9EE24E7
:10C210001DF582E43FF583228E828F83A3858208F9
:10C22000858309E0F8E50A28F582E4350BF583E01B
:10C230002212C2352212C23922F08E828F83A3A32A
:10C24000A3A3A32212A2C804F02212C235A3E022A3
:10C25000122A2E7F0A0226CD74F412243E8A088BFD
:10C2600009EA12C2F6A3A3F0EA1313543F12C2EF75
:10C27000A3A3A3F0EAC4131312C2F612C3097409EC
:10C28000780A122C8912C2FDA3A3A3A3A3A3F0EBE7
:10C2900012C2FF12C308740A780A122C89E50A54E4
:10C2A00001C0E0EC2418F582E43DF583D0E012C330
:10C2B0000D740B780A122C8912C2FD12C306740C7D
:10C2C000780A122C8912C2FDA312C306740D780AD3
:10C2D000122C89E50A5401C0E0EC2424F582E43DE7
:10C2E000F583D0E0F0740E7808122C890288C054CF
:10C2F0000F8C828D832254038C828D8322E50A5415
:10C30000018C828D8322A3A3A3A3A3A3A3F08A0AF3
:10C310008B0B22C082C08379008A828B83A3A3A364
:10C32000A3A3A3E0900536600EE070238A828B837E
:10C33000A3A3E0701A8016E060158A828B8312CC6A
:10C340003790053FE06A7003A3E06B600279010259
:10C35000C52C74F212243E8A0A8B0B890C8C088D32
:10C36000098A828B8312C4A71232CF12C48985082E
:10C370008285098312C4E1E50812C47D350912C41F
:10C38000CBC0E0E508241112CC2CD0E012C4C3C00D
:10C39000E012CC28D0E012CF53740812C4B5E0608C
:10C3A00017E50A2408F8E4350BF9E508241312C44C
:10C3B0008112CF53E02408F0850882850983A3A366
:10C3C000A3A3A3A3A3A3E06017850882850983A381
:10C3D00012C498E508241512C48112C4DA2408F0A6
:10C3E000850882850983A3A3A3A3A3E06019850818
:10C3F00082850983A3AE82AF8312C223850882851A
:10C40000098312C4D504F0AA08AB091232D5E9F5A4
:10C410000D7064850882850983A3A3A3A3A3A31237
:10C42000C007A3701AE0FAE50A2AF8E4350BF9E52B
:10C4300008241D12CC2C12CC4FE50CC39A802C1270
:10C44000C498E8240EF8500109E508241D12CC2CEC
:10C4500012CC4F900537E0F9123167E9F88E828FE0
:10C4600083E0F9E50CC39924F2C398C0E0E5082401
:10C470001712CC2CD0E0F0A90D028AE7EA12F419C9
:10C480002212BF1DE8F0A3E922850A82850B83A34F
:10C49000A312C4F7E0F9EA22AE82AF83E0F8E50A1E
:10C4A00028F8E4350BF922E0FAA3E0F8E4C8F9EA49
:10C4B00028E439FB2212C4B92212CF5BA3A3A3A3A1
:10C4C000A3A32212C50AA3A3A3E022F583E812C501
:10C4D00003A3A3E022A3A3A3A3A3F08E828F83E0F0
:10C4E00022A3A3A3A3A3A3A3A3A312C50312C4F7C8
:10C4F000A3A3E0F9EAF822E0FA850A82850B83A378
:10C50000A3A322F0A3E912C50A22F0850A82850BB3
:10C5100083A3A3A3A322C082C0837AC17B0579E24F
:10C5200012470F7AC17B05800312CC40D083D082A2
:10C530000229FBC082C08390053F80EDC082C0838A
:10C5400090054280E4C082C083794A12470F80DCA4
:10C5500074F612243E9005C9E0FE04F0EEF91232A2
:10C560006F8B09EA450970EDEE60EAF902C8BE7406
:10C57000EE12243EEAFEEBFF8C0E8D0F890C750A3D
:10C5800000750B001234858A088B097412122D076E
:10C59000E0F50D7413122D07E0F510EA4509701748
:10C5A000E510600302C691A90CAC0EAD0FEEFAEFD8
:10C5B000FB1234A902C790E510700302C65C901DFF
:10C5C0002BE060046401700E9005CE12CF3F600630
:10C5D00012C8611249A8E50D700E8508828509838D
:10C5E000E4F0750B0102C6B4901D2BE060076401F6
:10C5F000600302C6B4900539E0A2E1400302C6B46C
:10C600009005D012CF3F600CA90DAA08AB0912C843
:10C61000611249A8850882850983E0FA12E904506D
:10C620000109C3EA98E499A2D265D033500985087C
:10C6300082850983E004F0850882850983E0F8900B
:10C640004F77E49368706D750A01EEFAEFFB122ED6
:10C65000C1850882850983A3E4F08058E50D701C2C
:10C66000EA240212AFA7A80C28F8E4340013E81358
:10C67000F070098A828B83A3A37401F08A828B8372
:10C68000A3A3E0F8901E90E0C3985052750B018070
:10C690004D74016510701DE50D6019901D2BE06053
:10C6A000046401700F900539E0A2E15007EEFAEF43
:10C6B000FB122EC1901D2BE06402702274016510E4
:10C6C000701CE50D9005E06013E004F0901EB9E0E9
:10C6D000F89005E0E0C3984005750A01E4F0E50B29
:10C6E000A2E092F0E50AA2E072F0400302C7909047
:10C6F0001D2BE0600464017041900539E0A2E15017
:10C7000039EEFAEFFB1248DD8A088B09A808A9095F
:10C71000E8496026E50BA2E0500D88828983A3A337
:10C72000A3A3A3E0C2E0F0E50AA2E05063888289F7
:10C7300083A3A3A3A3A3E0D2E0F0E50AA2E05050B4
:10C74000901D2BE060046401701D900539E0A2E1AA
:10C750005015EEFAEFFB1248EFE9600BEEFAEFFB33
:10C760007900122D5F8029900542E06E7003A3E0EE
:10C770006F701DEEFAEFFB7901122D5F901D2BE01B
:10C780006402700C7A017B00900599E0F912409DDB
:10C7900002C25374F412243E8A088B098C0A8D0B52
:10C7A0009080EE7808122AF3700E7A017B009005D3
:10C7B00099E0F9123F6B8035901EA67808122C98EC
:10C7C000EA4509450A450B60187808122A497A019A
:10C7D0007B00900599E0F91240917404122A2E8092
:10C7E0000C7A017B00900599E0F912409D028F754B
:10C7F000C082C083901EAA02AD2DC082C083901E4D
:10C80000AC02AD2D74F612243E75082B750905781F
:10C8100008122A517C6E7D007A217B0012404374FD
:10C8200002122A2EE9F508124925E94208901D2B2B
:10C83000E060046401700612485FE9420890070452
:10C8400012CF3F600912C8611249A8E94208122FAD
:10C85000B1E9FE12467FE9F8E5084E48F9805F79B4
:10C86000C4E0F58388822274F612243E123EDB7502
:10C87000082B7509057808122A5175086E7509008C
:10C880007808122A517C007D007A217B0012404FEB
:10C890007404122A2E124919901D2BE060046401C1
:10C8A000700312485990070612CF3F600612C86104
:10C8B0001249A8122FB71246918003122A2E7F0226
:10C8C0000226CD74F612243E74FF122AC77E00752C
:10C8D000082B7509057808122A517C6E7D007A2193
:10C8E0007B001240437402122A2EE9600302C9A899
:10C8F0007808122A5175086E8E097808122A517C20
:10C90000007D007A217B001240557404122A2EE922
:10C91000600302C9A890053FE064FE7003A3E0F441
:10C92000700302C9A87E0190054EE064086005E02E
:10C930006404706F851882851983EE12CF76794270
:10C940001247157A567B0579431247157A537B05B2
:10C9500079471247157A447B05794A1247157A427E
:10C960007B05794B1247157A4C7B05795012471598
:10C970007A3F7B0579531247157A547B0579541217
:10C9800047157A417B0579E1124715900539E0A2F8
:10C99000E35004D2F08002C2F012CF6C79521247F9
:10C9A000158005123EDB7E00124931901D2BE060A0
:10C9B000046401700312484790070812CF3F6006D5
:10C9C00012C8611249A8122FC3EEF9740102C8BB44
:10C9D00074F612243EE9FEA2E0502675082B750974
:10C9E000057808122A5175086E7509007808122A10
:10C9F000517C007D007A217B0012404F7404122A82
:10CA00002EEEA2E3500312492B901D2BE06004642C
:10CA1000017008EEA2E15003124841EEA2E2500E6E
:10CA200090070A12CF3F600612C8611249A802C8D7
:10CA3000BE74F612243E74EC122AC77401122AA79F
:10CA4000901E48E0F97A9C7B051232217405122D64
:10CA500007E4F07407122D07E4F07A04F91249078D
:10CA6000904F8AE493F8C3EA98EB94005058124927
:10CA700037E97052904F6D12CB2260197A04790316
:10CA80001249078A088B09904F8AE493F8904F6DFA
:10CA900012CB2C50087405122D077401F0904F6BC7
:10CAA00012CB2260197A0279011249078A088B0990
:10CAB000904F8AE493F8904F6B12CB2C5008740778
:10CAC000122D077401F0901E48E0F97C9C7D0574DE
:10CAD00001122A9F12321B7A9C7B05794512471559
:10CAE0007407122D07E070117405122D07E070090C
:10CAF000851882851983E4800885188285198374D6
:10CB000001F0901E42E0F8901E41E058F88518822E
:10CB1000851983E05812CF767941124715741402B3
:10CB2000C8BBE493F8740193F9E84922E493FA74DA
:10CB30000193FBE8C39AF8E49BF9C3E50898E5097B
:10CB4000992274F712243E74ED122AC7E9FE90056B
:10CB500098F0AC18AD19901E48E0F97A9C7B05124C
:10CB600032217412122D07EE12CB80AA18AB1912C3
:10CB7000321B7A9C7B057945124715741302B3A1C9
:10CB8000F0901E48E0F97C9C7D052274F412243E4E
:10CB9000EAFEEBFF901E4AE064FE7003A3E0F4702F
:10CBA000767A167B00123F298A088B09EA450960CC
:10CBB000668A828B83740112C24A8A828B83A36045
:10CBC00004740280027401F0EA240AF8E4350912C0
:10CBD000C20D12F0AEA312DCACF0A2E3400912CCFD
:10CBE0001A12CC401232A5EE241512B955E50824CC
:10CBF00002FAE43509FB1240DFE508241312CC2CBD
:10CC0000E4F0AA08AB09900599E0F9123F3512CC7F
:10CC10001A12D4E412CC4F028F7512CC1E22EE24CD
:10CC20000BF582E43FF58322E5082412F582E41235
:10CC3000BF20228E828F83A3A3A3A3A3A3A3A3A316
:10CC400012D17422E0F8A3E0F9851882851983E8EF
:10CC5000F0A3E9F02274F212243E74FD122AC78A6E
:10CC6000088B09890A8C0B7401122D07740412CFEA
:10CC7000761233658A0C8B0DAE0CAF0DEE4F700340
:10CC800002CD0312CD38740712DCB2E5082413FA82
:10CC9000E43509FB8A828B8312CD4E8A828B831204
:10CCA000CD4DE508241512CC2C12DCAC12DCB9E514
:10CCB00008240BF8E43509F912CD11E8F0A3E912C4
:10CCC000DE4C1232E112DC9A12CD597401F0740379
:10CCD000650A60067401650A700712CD227404802B
:10CCE0000412CD22E4F0901E4A12AFC512CC4F744C
:10CCF00001650B700312CD1BEEFAEFFB124829E918
:10CD0000F980027910901E4A74FEF0A304F0028AA2
:10CD1000E2EE2418F582E43FF58322EE1288CAE49D
:10CD2000F02212CD2A7440F0A322EE12CD2F22243D
:10CD30000FF582E43FF58322EE12F4193FF58312DA
:10CD4000CD4322E0F8A3E0F98882898322A3E0881A
:10CD5000828983F0A308A9832212CD5D22F0EE120E
:10CD6000CD63222413F582E43FF5832274F4122468
:10CD70003EEAFEEBFF7A007B04900599E0F9124051
:10CD80009D12CE1390054E7409F01232E18A088B81
:10CD900009AC08AD0912B91412CC401240D9E964AB
:10CDA00001705A7A0F7B00123F298A088B09EA45E5
:10CDB00009604A8A828B83740212CE08F9888289BC
:10CDC00083A3E0FC88828983A3A3E0FBEC8A8285AD
:10CDD0000983A3A312E11288828983A3A3A3E08A13
:10CDE00082850983A312CE00FAA3E0FB794A124799
:10CDF00015AA08AB09900599E0F9123F35028F7525
:10CE0000F0EE241512BF0522F0EE241D12BF05F826
:10CE1000A3E0229004D712D4F2901EACE8F0A3E96C
:10CE2000F09004D912D4F2901EAAE8F0A3E9F022FF
:10CE300074F412243E74FD122AC78A088B09740107
:10CE4000122D07740212CF761233658A0A8B0BAE4D
:10CE50000AAF0BEE4F700302CF1E12F438E412CF6C
:10CE600053A3A3A3E06401700888828983A374207C
:10CE7000F0850882850983A3A3A3A3A3E0640170BE
:10CE80000988828983A3E0D2E6F085088285098338
:10CE9000A3A3A3A3A3A3E06401700A88828983A348
:10CEA000E0D2E7800512B914740112CF64E0640186
:10CEB0007021850882850983A3A312CF3F600312E6
:10CEC000CF23850882850983A3A312AFAF12CD12A9
:10CED00012CC4F850882850983A3A3A3A3A3A3A390
:10CEE000E06401700712EFA9F0A3E4F085088285E1
:10CEF000098312CC40123383E9600412CF2AF0EE8A
:10CF0000241712CF261232E112DC9A12A2C412CFD9
:10CF10003112B988FAEFFB124829E9F98002791039
:10CF200002BFF8EE241612DCC12212B94C440422CE
:10CF3000E0F8A3E0F98E828F832212CF45F58312A9
:10CF4000D4F2E849228E828F8312BC20241FF582FE
:10CF5000E4382212CF572212CF5B22F08508828557
:10CF60000983A32212CF57A3A3A3A322A2F0E433E1
:10CF7000851882851983F0AA18AB192274F512243A
:10CF80003E74F3122AC7890AEAFEEBFF75080075A2
:10CF900009007C0D7D007900AA18AB19123F11120F
:10CFA000C20E12D12B741F58600C7AD37B0012432F
:10CFB00061790002D07BE8A2E55008740C122D07BD
:10CFC0007401F0E8A2E75008740B122D077401F009
:10CFD000E8A2E6740A5008122D077401F0800812C6
:10CFE0002D07E0640170138E828F83A3A3A3A3A3F4
:10CFF000A3A3E06032EE241380128E828F83A3A35A
:10D00000A3A3A3A3A3A3E0601EEE2415F582E43F2F
:10D01000F58312A9E56010AC08AD097402122D0762
:10D02000AA82AB831240DF12CC1A12CC44740A12CB
:10D030002D07E06401703B12CC33123383E9703961
:10D04000EE240B12BA83900542E0687003A3E069F6
:10D050007027E5084509601A1232E18A088B09AC8D
:10D0600008AD097402122D07AA82AB831240D9E9D8
:10D070006007AA18AB19122D59A90A740D02B6112E
:10D0800074F712243E74CD122AC7EAFEEBFF8E829B
:10D090008F8312D149A2E0400302D12612D132E09F
:10D0A00054FE12ED11740D122AA712D15C1232DB5C
:10D0B000E97073742A122D0712D13F70697C0D7DBF
:10D0C000007900AA18AB19123F117416122D07121D
:10D0D000CC44742A122D0712D12BA2E55008740BF0
:10D0E000122D077401F0E8A2E75008740A122D0708
:10D0F0007401F0E8A2E65004742080027422122D1C
:10D100000712B95B7402122D07AA82AB831240DFAB
:10D110008E828F83A3A3E0C0E0740C122D07D0E0B1
:10D1200012CF76122D53743302B3A112E2A9A3E0F9
:10D13000F8228E828F8312D8D6A3A3A3A3A3221290
:10D14000B4C26404228A828B83E0F812D14F22A3F6
:10D15000E0C82406F582E438F583E022EA241EF5CF
:10D1600082E43BF583E0F9EA241FF582E43BF58392
:10D1700012D1742212F0A9FB22E9F8790074046834
:10D18000600A740A686005740368700279010229F4
:10D19000FB74F612243E8A828B837424F0A3A3745A
:10D1A00001F01248238A088B09AE08AF09EE4F60E0
:10D1B000108E828F8312DE4A1232E1EE241A12E1BF
:10D1C0000BEEFAEFFB02C8BEC082C08390053C02A2
:10D1D000AD13C082C083901E4902AD13C082C083CC
:10D1E000E9901E4902AD31C082C0839005B574013B
:10D1F000F0E9A2E350037403F0E9A2E15004E0D2A5
:10D20000E2F002C52C74F612243E79007C008A08F4
:10D210008B097808122713F8FF073AD238D238D290
:10D2200038D238D230D234D23AD22CD27C01800AD1
:10D230007C0480067C0280027C089005B5E05C607E
:10D240000479028005EC6002790102C8BE74F41210
:10D25000243EEAFEEBFF89081248A78A0A8B0BA836
:10D260000AA90BE849604188828983A3A3A3A3E0AC
:10D270006036C39405503174016508601A8882894C
:10D2800083A3A3A3A3E06401600D88828983A3A381
:10D29000A3A3E06402700A8882898312CC40122E14
:10D2A00019EEFAEFFB124895028F7574F612243EC0
:10D2B0008A828B83E07014A3A3A312CF3F600C8AF1
:10D2C000828B8312CC3D12301180047A007B0002E5
:10D2D000C8BEC082C08390054EE06408700312335C
:10D2E000A702C52CC082C0837C00EC75F003A4F8B3
:10D2F000ADF0EDF912D3BA7003A3E06B7018904F44
:10D300008BE493C0E074B828F58274053DF583D0B2
:10D31000E0F079C580620CECC3940340CD7C00EC56
:10D3200075F003A4F8A9F074B928F5827405129A6F
:10D330008D64FE7003A3E0F4600F0CECC394034013
:10D34000DE7C00EC12D37B7026EC75F003A4FCAD00
:10D35000F074B82CF874053DF988828983A312E132
:10D3600011904F8BE49388828983F0790080090CB7
:10D37000ECC3940340CD79C702C52C75F003A4F823
:10D38000A9F074B828F582740512EE9922C082C003
:10D39000837C00EC75F003A4F8A9F012D3BA7003F3
:10D3A000A3E06B700912D3826004790180090CEC50
:10D3B000C3940340DE790002C52C74B928F5827449
:10D3C0000512EE996A2274F212243E74DD122AC705
:10D3D000EAFEEBFF750800901D2BE060076401601A
:10D3E0000302D4DD90053FE06E7003A3E06F701080
:10D3F000EE4F700302D4D17508011233AD02D4DDB3
:10D400001248DD8A0A8B0BEA450B700302D4D18ADD
:10D41000828B83A3A3A3A3E0640160108A828B8321
:10D42000A3A3A3A3E06402600302D4D1851882857C
:10D430001983E412D4EB740B122D07E8F0A3E91260
:10D44000CF76124943E9700302D4D1850A82850B55
:10D450008312D4E412CC4F7900122E0D850A8285F6
:10D460000B8312D9FF122D07AC82AD837418122DD5
:10D4700007AA82AB831240DF850A82850B8312BA2A
:10D48000897420122D0712CC4F7422122D07E4F05C
:10D490007C02850A82850B83A3A3A3A3E0F9740D04
:10D4A000122A9F123341850A82850B8312BA89742E
:10D4B00001122D07E8F0A3E912CF7612493D750855
:10D4C00001E50A240CF582E4350BF583129AF0800D
:10D4D0000C90054C12B96BFAEFFB12346DA908746D
:10D4E00023028AE412D4F2901E4A2212B14312D4CB
:10D4F000F22212D54FF922C082C08374FE122AC7CD
:10D50000901D2BE06004640170237901122E131228
:10D51000D53590053FE8F0A3E912CF76795312474D
:10D520001585188285198312CC4012427D7402122F
:10D530002A2E02C52C851882851983EAF0A3EB12E6
:10D54000D544F922F085188285198312D54F22E03F
:10D55000F8A3E02274F412243E74F3122AC78A0856
:10D560008B09ECFEEDFF750A12EA4509700579009A
:10D5700002D64090053FE065087004A3E06509709D
:10D580001D1232E18A0A8B0BAC0AAD0BEEFAEFFBEF
:10D590001240D9E97005750A018003750A008518E3
:10D5A00082851983E4F004122D0712DE3812CF763B
:10D5B00012494FE9602A7403122D07AA82AB831225
:10D5C0004973E964017019750A017403122D07ACDF
:10D5D00082AD83EEFAEFFB1240D9E96003750A00D1
:10D5E000901D2BE06004640170177412650A7011BD
:10D5F000EEFCEFFDAA08AB091248FBE96003750ACF
:10D6000000EEFCEFFDAA08AB0912348BE9F8740AAE
:10D61000687005750A01801D74A0687012EEFCEF39
:10D62000FDAA08AB0912349DAA08AB091234AF74E5
:10D6300001650A70097900AA08AB091233B9A90A71
:10D64000740D028F7274F612243EEAFEEBFF890815
:10D65000901D2BE060046401701E1233A7E508F5ED
:10D66000097809122A55790DEEFCEFFD7AFC7BFF53
:10D670001233C57401122A2E02C8BE74F712243E5A
:10D68000EAFEEBFF8E828F83A3A3A3A3A3A3A3A38E
:10D69000E0601612D6E1129B9212CC401233B3E92D
:10D6A0006401700512CC1A80298E828F83A3A3A3F4
:10D6B000A3A3A3A3E0602512B95212CC331233B353
:10D6C000E9640170178E828F83A3A3A3A3A3A3A3EE
:10D6D000A3A312CC4012339B79018002790002B3DC
:10D6E000A4EE2415F582E43FF5832274F212243E61
:10D6F00074FD122AC78A088B09ECFEEDFF890B75B1
:10D700000A017401122D07740412CF76123365EAF0
:10D710004B60427411122D07E0601412DDB1E41267
:10D72000E2B18A828B83E0D2E7F012D758E4F0129C
:10D73000D76212CD3D740312DA09EE88828983A381
:10D74000A3F0EF88828983A3A312B14212DCCE1228
:10D750004829E9F50A028AE0EA2414F582E43BF557
:10D76000832212F4183B2274F012243EEAFEEBFFEF
:10D77000890A750B01EE12DACB3F12D8CFF50C886F
:10D78000828983A3A3E0FA8882898312D8BE12B962
:10D790001D6404600A7AD37B0012436102D8AEE5AF
:10D7A0000C1228DA020002B9D7030B66D8030C4C1E
:10D7B000D80D24D80E66D863D8901D2BE06007647E
:10D7C00001600302D866900539E0A2E1400302D867
:10D7D000667900AB09122EA3EA4B603D8A828B83E7
:10D7E000A3A3A3A3A3A3E05418602E12CC1A12285B
:10D7F000558A828B83A3A312285579008E828F834A
:10D80000A3A3A3A3A3A3A3A3A312D8B212CC401291
:10D810002EBB7404122A2E802E7901AA08AB09129D
:10D820002D6B8042901D2BE06004640170389005E0
:10D8300039E0A2E15030AB09123395AA08AB0912C6
:10D84000339BE964C5701F750B00801A901D2BE097
:10D85000600464017010900539E0A2E150081242A2
:10D86000A18003750A00EE2409F50EE43FF50FAC24
:10D8700008AD09A90C850E82F58312CC40122D83C8
:10D88000850E82850F8312CC40123383E9601F120C
:10D89000BEFEC39402401712CC1A12E1D47003A347
:10D8A000E069600AE50BA2E05004A90A8002790051
:10D8B000803112D8B62212B9638A828B8322A3A345
:10D8C000A3E0F8E4C8F9EA28F508E439F50922F5F7
:10D8D0008312D8D6E02212D54FF988828983A322F9
:10D8E000122A2E7F080226CD74EE12243E74F51201
:10D8F0002AC78A0A8B0B890D8C0E8D0F7E01EE12C2
:10D900002D07740AF0741D122D07E0F50CE9700F55
:10D91000E50CC333240AC0E0EE122D07D0E0F0AAD4
:10D9200018AB191233658A088B09EA45097003029E
:10D93000D9E112C47C350912DB7F7409F0A3E50D2F
:10D94000C43354E0450C12DB98AC0EAD0FEEFAEF89
:10D95000FB1240DFEE2408FE50010FE50D702F7C16
:10D9600000741E122D0712D9F0801D12D9E8EA2882
:10D97000F8EB39F98882898312DB938882898312D4
:10D98000A160F0A30EAF830CECC3950C40DDE5085D
:10D99000241712CC2C7401F01232E1E508241AF598
:10D9A00082E4350912D9FD122AA7AA0AAB0B124943
:10D9B00067E96019E508241612CC2C7401F0740391
:10D9C000122A97E508241812CC2C12CC4F85088215
:10D9D000850983A3A312DA07AA08AB09124829E92B
:10D9E000FEEEF9740B02C250EC25E0F8E433F922A4
:10D9F00012D9F42212D54FF9E8FAE9FB22F583EAAD
:10DA0000F0A3EBF0740322E50AF0A3E50BF0227417
:10DA1000F012243E74F8122AC78A088B0912DACA57
:10DA2000350912DC13F8741F58F50A880BA3AE826F
:10DA3000AF83EEFCEFFDAA18AB191240DFEE24080D
:10DA4000FE50010FAC18AD197A607B051240D9E980
:10DA5000607374E0550B7066AA0AEA2AFA7B00121A
:10DA60003FCB8A0C8B0DEA450D605A7C00801D8EE1
:10DA7000828F8312C4A712D9E8E50C28F582E50D40
:10DA80003912E10FEE2402FE50010F0CECC3950A8F
:10DA900040DD780C122A51780A122A557403122A92
:10DAA000A77900E508240B12CC2C12CC401233DDF0
:10DAB0007403122A2EAA0CAB0D123FD180077AD321
:10DAC0007B00124361740802D8E0EA241DF582E469
:10DAD0002274F012243E8A0A8B0B890D8C088D0962
:10DAE000901BC412CF3F60757410122D07E0F50C27
:10DAF00012D9E9E8240EFAE439FB123F298A0E8B89
:10DB00000FAE0EAF0FEE4F60548E828F8374D4F041
:10DB100012DB6EA3A3E50DF0AC08AD09EE2405FA07
:10DB2000E43FFB1240DF12DB60E50CF07411122DB4
:10DB30000712E29A7808122A4DAC0CEC2CFCE43364
:10DB4000FDEE240EFAE43FFB123F057403122A2E69
:10DB5000EEFAEFFB901BC412E2A51249A802D8E32B
:10DB6000EE12DB6522240DF582E43FF58322A3A3A8
:10DB7000E50AF0A3E50B12DB7A2212BF44A322F5DB
:10DB80008312DB8EFF8E828F832288828983E0FE60
:10DB9000A3E022E08E828F83F0A3AE82AF83227453
:10DBA000F612243E74F8122AC7890812DACA3B1208
:10DBB000DC13F9741F59F88909A3AE82AF8374018D
:10DBC000687042EEFCEFFDAA18AB191240DFEE249C
:10DBD00008FE50010FAC18AD197A607B051240D9D0
:10DBE000E9602974E05509701C8E828F83A3E0FAE6
:10DBF0008E828F83A312C4A98E828F83E0F91234A0
:10DC00000DA90880097AD37B00124361790074085A
:10DC100002C8BBF583E02401FEA3E03400FF8E823E
:10DC20008F83E02274F012243E74FD122AC78A0A00
:10DC30008B0B8C088D09890D750C017401122D0751
:10DC4000740312CF761233658A0E8B0FAE0EAF0FB0
:10DC5000EE4F603F12CD38740BF0A3E50D12DCB22D
:10DC60007413122D0712DCAC12DE4C1232E112DCFE
:10DC70009A12DCB9EE2418F582E43F12DCCC8E82D5
:10DC80008F83A3A3E50AF0A3E50B12DE3F12482918
:10DC9000E9F50CA90C740302D8E012DCA2EAF0A3A7
:10DCA000EB22EE241AF582E43FF58322E088828994
:10DCB0008322F0A3A882A98322F0EE241612DCC1ED
:10DCC00022F582E43FF5837401F02239F58312DEF8
:10DCD00038F02274EF12243EEAFEEBFF751000EEDE
:10DCE00012DACB3F12DF1FF508A3E0F50912D6E1E7
:10DCF00012CC401248A7EA4B700302DDAC8A828B3B
:10DD000083A3A3A3A3E0700302DDACC39403400389
:10DD100002DDACE508C3940F5004E50960057510F9
:10DD2000018079EA2412F582E43BF583E4F0E5080A
:10DD30007022904E4A7808122B9412DDB1780812A6
:10DD40002C98904E4A7808122B9412E70878081203
:10DD50002C98803975090074027808122C06744AD0
:10DD60002508F582744E12CC2F780C122B949081DA
:10DD70000E7808122C7A780C790812234F12DDB134
:10DD8000780C122C9812E708780C122C98EA241BB5
:10DD9000F582E43BF5837401F01242E9901D19E02D
:10DDA000FCA91012CC1A12CC401233F57F090226BE
:10DDB000CDEA2417F582E43BF5832274F012243E69
:10DDC00074F5122AC78A088B09890B8C0C750A0115
:10DDD0007401122D07740312CF761233658A0E8BED
:10DDE0000FAE0EAF0FEE4F604812CD38740C12DA42
:10DDF00009A3E50C12DE4C1232E1EE241AF582E49E
:10DE00003F12D9FD122AA7AA08AB09124967E96097
:10DE10000E12CF237403122A9712CD1112CC4F8EFB
:10DE2000828F83A3A312DE3812DE3F124829E9F560
:10DE30000AA90A740B02D8E0E508F0A3E50922124A
:10DE4000CD5D7401F0EEFAEFFB227401F0EE2417C1
:10DE500012DCC12274F012243E12DACA3B12DF1F18
:10DE6000F8A3E0FEE8600302DF1C74016E60087432
:10DE7000026E600302DF1CEE901D19F07508197523
:10DE8000091D7808122A51750801750900780812D1
:10DE90002A517C007D007A517B0012404F7404129D
:10DEA0002A2E74026E7075901ECDE0700A904E4A54
:10DEB0007808122B948028F50874027808122C0632
:10DEC000744A2508F582744E12CC2F7808122B94D0
:10DED00090810E780C122C7A7808790C12234F90CE
:10DEE000811A780C122C7A7808790C1223CF908042
:10DEF000CE780C122C7A7808790C12234F901D1BC7
:10DF00007808122C98901D1B1228517A007B4090A3
:10DF10000599E0F91240977404122A2E02D8E3F50D
:10DF200083E02401F8A3E03400F988828983E022A9
:10DF300074F612243E74DA122AC7EAFEEBFF12CFFF
:10DF40003A60508E828F8312CC40AC18AD1912D13A
:10DF50005C1232C97409122D0712E1D47003A3E0D8
:10DF600069603012E2A11228557508FE7509FF7824
:10DF700008122A51741C122D07E0F9740D122D0796
:10DF800012B95B740F122D0712CC40122EBB740411
:10DF9000122A2E742602C8BB74F712243EE9FD7AB9
:10DFA000007B00901D2BE06004640170407C0080C9
:10DFB0000B12E044E02AFAA3E03BFB0C904F8A12DC
:10DFC000EE875029EC75F01CA4F8AEF0EEF912EED5
:10DFD000A9F460E7740728F582740C3912CF3D600C
:10DFE000DAED60CD12E044E4F0A3F080CE7C008056
:10DFF0000B12E031E02AFAA3E03BFB0C12EE845056
:10E000002DEC75F017A4F8AEF0EEF912F0287003BD
:10E01000A3E0F460E6745828F582740E3912CF3DFF
:10E0200060D9ED60CC12E031E4F0A3F080CD02B312
:10E03000A4EC75F017A4F8EEF9745828F582740E64
:10E0400039F58322EC75F01CA4F8EEF9740728F575
:10E0500082740C39F5832274EC12243E890CEAFE9A
:10E06000EBFF900598E0C3950C503B1233359005BB
:10E07000CA12E0AD900532E0F508E4F509F50AF5BD
:10E080000B9080E67810122C7A7808791012234FC2
:10E090007808122A497A007B02900599E0F912402B
:10E0A000917404122A2E0286DD8A828B83EEF0A3FD
:10E0B000EFF02274F612243EEAFEEBFF9005B680E4
:10E0C0001388828983E06E7003A3E06F603A8882D0
:10E0D0008983A3A312CF3F70E87A047B00123FCB61
:10E0E0008A088B09A808A909E849601C88828983E5
:10E0F00012E0AD9005B612CC4088828983A3A312AA
:10E10000E1119005B612CC4F02C8BEF582E43FF58E
:10E1100083EAF0A3EBF02274F412243E7E00900513
:10E12000B680070E8A828B83A3A312B2AF70F4EE7F
:10E1300025E0FAE433FB123FCB8A088B09EA450954
:10E14000607F7C009005B680228A828B83E0F50A8E
:10E15000A3E0F50B12D9E8E50828F582E50939F5C1
:10E160008312DA070C8A828B83A3A312B2AF70D911
:10E1700090059412E1D47003A3E0697808701C1232
:10E180002A51EEF50A780A122A557C607D0579003D
:10E1900090059412CC401233DD801A122A51EEF50C
:10E1A0000A780A122A557C607D0579009005941240
:10E1B000CC401233D17403122A2EAA08AB09123FA5
:10E1C000D1124811028F758E828F83A3A3A3A3A3BC
:10E1D000A3A3A3A312D4F290053FE06822C082C09B
:10E1E0008380128A828B83A3A312BA899005B61208
:10E1F000CC4F123FD19005B612B2AF70E602C52CDB
:10E2000074F512243E90054C12BC179005CA129F5B
:10E21000DF12CC4F7ACA7B0579501247159005CA98
:10E2200012E29A801312EB517004A3E065096006B4
:10E2300012EB5E123479050A90262FE493F8E50A72
:10E24000C3985020E50A75F017A4F8A9F012E9FF69
:10E250006E7003A3E06F70CD744D28F582740E12BA
:10E26000DCCB80D29005CA12BC17901BC612CF3FE0
:10E2700060257A067B00123F29EA4B601A8A828B5E
:10E280008374D5F0A3A3E412E64C0412E2B1901B10
:10E29000C612E2A51249A802B6141286EC750A004D
:10E2A000228E828F8312E2A92212D54FF5838882B3
:10E2B0002212B14FEEF0A3EFF022C082C08390058E
:10E2C0003FE064FE7003A3E0F4600E900539E0A225
:10E2D000E1500612349112343702C52C74F0122426
:10E2E0003E90058DE06053F50CE4F50DF50EF50F4D
:10E2F0009080CE7808122C7A780C790812234F126D
:10E300003F238A088B09A808A909904F6FE4935806
:10E31000F508A3E49359F509E4F50AF50B780C79AF
:10E3200008122B6E780C122A497A007B019005990D
:10E33000E0F91240977404122A2E02D8E374EE1208
:10E34000243E7E007F008E0A8E0B124877750D00EA
:10E35000803BAA0D7B0012487D8A088B09A808A97A
:10E3600009E849602688828983A3A3A3A3E0600407
:10E370006404701788828983A3A3A3A3A3A3A3A380
:10E38000A3A3E0F91234A3E960010F050D904F8AB1
:10E39000E493F8E50DC39840B91234678A0E8B0FE9
:10E3A000750C008023AA0C7B001234738A088B0939
:10E3B000A808A909E849600EE8240F129A8AF91200
:10E3C00034A3E960010E050CC3E50C950EE4950F2E
:10E3D00040D3EF2EFE700302E4D38E08750900745B
:10E3E000027808122C06AA08AB09123FCB8A0A8BC6
:10E3F0000BEA450B700302E4D1750C008E08750919
:10E400000074027808122C06AC08AD0979FF123F9F
:10E4100011750D00805EAA0D7B0012487D8A088B65
:10E4200009EA4509604C8A828B83A3A3A3A3E06019
:10E43000046404703D8A828B83A3A3A3A3A3A3A334
:10E44000A3A3A3E0F91234A3E9F96026050C780A26
:10E45000122A51EEFD850882850983A3A3A3A3A3F5
:10E46000A3A3A3A312E56412CC4012343D7402129C
:10E470002A2E050D904F8AE493F8E50DC3985006B7
:10E48000E50CC39F4090750C00C3E50C950EE49518
:10E490000F5040AA0C7B001234738A088B09EA459E
:10E4A00009602AEA240F12AFA7F91234A3E9F96030
:10E4B0001C780A122A51EEFDE508240E12CC2C120B
:10E4C000E56412CC4012343D7402122A2E050C80F1
:10E4D000B87E007F62900537E0600BF9123167E982
:10E4E000F87454C398FF75F003EF84F50D94204041
:10E4F00003750D1F850A08850B09750C00EF600573
:10E50000750C207F00E50DC39E5005850D0F80081A
:10E510008E0FE50CD2E6F50CAC08AD09AA0CA90FDC
:10E52000123443E9F50EE50CA2E6401D150F780004
:10E53000800BE5082404F5085002050908E8C39596
:10E540000F40EFE50FCEC39EFEE97006E50CA2E694
:10E5500050A8E50A450B6007AA0AAB0B123FD1A9E8
:10E560000E02C253E0FC8508828509832274F212F0
:10E57000243EEAFEEBFF89088C098D0A7C007D00B1
:10E58000740E122D0712CC40750B00800DEAFCEBC7
:10E59000FDEA2404FA50010B050BE50BC3950A4074
:10E5A0000302E63C8A828B83E0F47003A3E0F4600C
:10E5B0007AEC4D600C8C828D83C3E09EA3E09F506B
:10E5C000CC8A828B8312E63FEE98EF9950BFEAF82F
:10E5D000EBF988828983E0F47003A3E0F46010E82B
:10E5E0002404F8500109050BE50BC3950A40E3E844
:10E5F000FCE9FDE824FCF8E934FFF98882898312FC
:10E60000E6448C828D83E50CF0A3E50D12E65B8C6D
:10E61000828D83A3A312E651A3A3A3E08C828D83F2
:10E62000A3A3A3F0C3EA98EB9940C412E0A98A829D
:10E630008B83A3A3E50912E64CE508F0028AE712F2
:10E64000D4F2C322E0F50CA3E0F50D2212B143A3EE
:10E650002212E65522F0888289832212E661A3E025
:10E660002212E655A32274F212243E74FD122AC728
:10E6700089088A09ECFEEDFF750A0175F003E9A42B
:10E680002402C0E07401122D07D0E012CF761233BD
:10E6900065EA4B607012D76212CD3D7408F0741FAA
:10E6A00055084509A3F0E82402F8500109750A004D
:10E6B00080338E828F8312DCAC12DCB28E828F8329
:10E6C00012CD4D8E828F83A3A3E05407C4FC8E82AB
:10E6D0008F83A3A3A3E054074C12CD4FEE2404FE76
:10E6E00050010F050AE50AC3950840C68A828B834C
:10E6F000A3A374FCF0A374FFF012E7087401F012F6
:10E700004829E9F50A028AE0EA2413F582E43BF598
:10E71000832274F112243E8A0A8B0B7508007AFE5C
:10E720007BFF7CFE7DFFE50A12DACB350B12D8CFDA
:10E73000F509741F5509F50CE82402F8500109E5A4
:10E7400009A2E74065E50A2417F582E412F54BFEBD
:10E7500075F003E50CA424026E704FE50C60061200
:10E76000DB8AFBEEFA750D00801DE05407F50EA361
:10E77000A882A983EEFC90053FE06E7003A3E06FD2
:10E780007003850E08050DE50DC3950C502612DBB0
:10E790008AFCE4CCFDEE2CE43DFFE82402F85001B5
:10E7A0000988828983E0548860C07AD37B00124351
:10E7B0006102E8F5E508700BA90912344FE970030E
:10E7C00002E8F512E8FA12CC401248DD8A0C8B0DF3
:10E7D000AE0CAF0DEE4F605A8E828F83A3A3A3A31E
:10E7E000A3A3A3E4F0904F7793F88E828F83A3A323
:10E7F000A3A3A3A3A3A3E0C398402412E904500158
:10E80000097A027B00122257E88E828F83A3A3A38A
:10E81000A3A3A3A3A3F0E508C39407500205088EA1
:10E82000828F83A3A3A3A3A3A3A3A3A3E508F002BA
:10E83000E8F57CFF7DFF12E8FA12CC4012345B8AC7
:10E840000C8B0DAE0CAF0DEE4F704F1234618A0C75
:10E850008B0DAE0CAF0DEE4F700302E8F57C177D0B
:10E86000007900123F1112E8FA12CF3012873A8E67
:10E87000828F83A3A3A3A3A3A3A3A312B98812B4D3
:10E88000D374AA12E9235001097A027B001222579D
:10E8900012DB60E812E90F7401F0904F77E49312F5
:10E8A000BF0DC398401912E9045001097A027B0098
:10E8B00012225712EFAFE508C39407500205081261
:10E8C000EF9BE50812E914E4F0129FD7124973E9AF
:10E8D0007023850A82850B83A3A3A3A3A3A3A3A369
:10E8E000E06012E50A2415F582E4350B12B96912CD
:10E8F0009FD81240DF7F070226CDE50A12F41935B2
:10E900000BF58322904F77E49379002401F822F0ED
:10E9100012EF9F22F012E91922EE240CF582E43F57
:10E92000F58322F0904F77E49379002401F8227464
:10E93000F712243EE9FE74FE6A700374FF6B6034C4
:10E9400074605E6460602DEEA2E5401CA2E6900556
:10E950003F500DC3E09AA3E09B5019790002B3A485
:10E96000C3E09AA3E09B40F390053F12E63FEC988A
:10E97000ED9940E7790180E574F712243E7E00802E
:10E9800008EE12EB571234790E12E9B940F37E000B
:10E99000EE75F003A4F8A9F074B828F8740539F9F5
:10E9A00088828983A374FEF0A30412E651E4F00E7A
:10E9B000EEC3940340DA02B3A490262FE493F8EE5A
:10E9C000C3982274F712243E7E0080010E12E9B92A
:10E9D0005026EE12EA0F6A7003A3E06B70EE12E9A4
:10E9E000FF6C7003A3E06D600A74FF6C700374FF2A
:10E9F0006D70D912EB5E80047A007B0002B3A41222
:10EA0000EA0322744D28F582740E39F583E02275ED
:10EA1000F017A4F8A9F012EA1A2212EE79E0227493
:10EA2000F612243E7CFF7DFF7AFE7BFF12345BEA08
:10EA30004B703C7508008032E50875F017A4F8A902
:10EA4000F0745228F582740E129A8D600512EE9EB3
:10EA50007016744328FE740E39FF8E828F8312CC99
:10EA600040122EC1EEFAEFFB050812EA7240C9020D
:10EA7000C8BE90262FE493F8E508C39822C082C050
:10EA8000837A007B007C00801012F0207003A3E0EA
:10EA9000F460050AEA70010B0C12EE8440EB02C52B
:10EAA0002C74F412243E8A088B09ECFEEDFF800BD7
:10EAB000123479EEFCEFFDAA08AB0912345BEA4B85
:10EAC00070EE028F7574F712243E7D007C00800288
:10EAD0000D0C12EE84501C12F0207003A3E0F460C1
:10EAE000F0EDF8EA684B70E8EC75F017A4F812EB5B
:10EAF0005E80047A007B0002B3A474F712243EEA1D
:10EB0000FEEBFFEE4F60187C177D007900123F117D
:10EB10008E828F8374FEF0A30412EFB6F0A3F0028E
:10EB2000B3A474F612243E8A088B097E00801AEE84
:10EB300075F017A4F8A9F012EB517004A3E0650971
:10EB4000600612EB5E1234790E12E9B940E102C898
:10EB5000BE12EA0365082275F017A4F8A9F0744301
:10EB600028FA740E39FB2274F412243E8A088B09A9
:10EB7000ECFEEDFF901D2BE0600464017020900519
:10EB80004CE06E7003A3E06F70141248DD8A0A8BAC
:10EB90000BA80AA90BE8496005E82408801AEEFCD6
:10EBA000EFFDAA08AB0912345B8A088B09A808A9F3
:10EBB00009E8496009E8240DFAE439FB80047A0089
:10EBC0007B00028F7574F412243E8A088B09ECFED8
:10EBD000EDFF750A00750B00802FE50B12F0101287
:10EBE0004973E96022E50B12EA0F65087004A3E09F
:10EBF00065097003750A0AEEFCEFFD12F01712406A
:10EC0000D9E96003430AA0050B90262FE493F8E5A9
:10EC10000BC3985004E50A60C1A90A028F7574F607
:10EC200012243E7E00805AEEFA7B0012487D8A084C
:10EC30008B09A808A909E849604688828983A3A3AB
:10EC4000A3A3E06401603988828983A3A3A3A3E01E
:10EC50006402602CE82407129A8AFA74012AF09060
:10EC6000058EE0C39A501988828983A3A3A3A3A326
:10EC7000A3A3A3A3A3E412ED06A312ED11122EC1C8
:10EC80000E904F8A12E9BC409E7E008059EE75F0CE
:10EC900017A4F8AAF0EAF912F0287003A3E0F460D0
:10ECA00044744328F8740E39F9E8240C129A8AF84F
:10ECB000740128F090058EE0C3985029EE75F01786
:10ECC000A4F8EAF9744328F8740E39F9E812ED0053
:10ECD00039F583E4F0E8240EF582E439F583E41293
:10ECE000ED11122EC10E12E9B940A27A00EA12D338
:10ECF0007B600214F00AEAC3940340F102C8BEEE3E
:10ED0000240FF582E42212E661A3A3A3A3A3A3A385
:10ED10002212E65512D1742274F112243E8A0A8B13
:10ED20000BECFEEDFF750E007A007B017508FE7599
:10ED300009FF740F122D0712E6448011123F23E5DC
:10ED40000EF5F0EA84E5F0FA750E007B007C008099
:10ED50000712EE791286E80C12EE84505CEC75F026
:10ED600017A4F8ADF0EDF912F0287003A3E0F460F9
:10ED7000E612EA16650A7004A3E0650B60D912F08A
:10ED80000B7003A3E06F60CF12EA16650C7004A34A
:10ED9000E0650D60C212EE9E60BDC3940850B8E0FD
:10EDA000640760ADEB050E70AEE50EC39A40A87423
:10EDB0004328F582740E02EE43901D2BE060076439
:10EDC00001600302EE4B7C00800712EEB91286E868
:10EDD0000C904F8A12EE875072EC75F01CA4F8ADBF
:10EDE000F0EDF912EEB464FE7003A3E0F460E112FA
:10EDF000EEB4650A7004A3E0650B60D412EEB46E45
:10EE00007003A3E06F60C912EEB4650C7004A3E058
:10EE1000650D60BC12EE8E60B7C3940850B212EE5E
:10EE2000A9640160ABE0640260A612EE8E64076024
:10EE300099EB050E709AE50EC39A409474F728F585
:10EE400082740B3DF58312CC40802BE50E6011EAF5
:10EE5000700E7401650E600302ED3C7A0102ED480C
:10EE600074FE6508700474FF65096006AA08AB09A2
:10EE700080047AFE7BFF02E8F5744328F582740E65
:10EE800039F5832290262FE493F8ECC3982274007E
:10EE900028F582740C12EE992239F583E022745120
:10EEA00028F582740E12EE992274FB28F582740BF9
:10EEB00012EE992212EEB9E02274F728F582740B53
:10EEC00039F5832274F512243E8A088B09ECFEED95
:10EED000FF750A008002050A90262FE493F8E50AE0
:10EEE000C3985022EEFCEFFDE50A12F0101240D953
:10EEF000E960E3E50A75F017A4F8A9F0744328F572
:10EF000082740E12DCCB02B614E9F87907C3940DB3
:10EF1000400479018019E8C3940740047903800F05
:10EF2000E8C39403400479058005E8700279000283
:10EF300029FB74F012243E8A088B098C0A8D0B89F8
:10EF40000C1234618A0E8B0FAE0EAF0FEE4F60487D
:10EF50007C177D007900123F118E828F8312DE387C
:10EF600012EFB612DA07E50C600712B4D2E50C8096
:10EF70000312EFA9F0900593E06401700612EF9B75
:10EF8000E4800512EF9B740712E9235001097A020D
:10EF90007B0012225712EFAF02D8E312EF9F22EE4E
:10EFA000240EF582E43FF5832212CD2A740122EE6D
:10EFB00012DB65E8F02212A958A32274F712243E4E
:10EFC000EAFEEBFF750800803AE50875F017A4F833
:10EFD000A9F012F00B7003A3E06F601474FF6E7061
:10EFE0000374FF6F701B12F0287003A3E0F460112C
:10EFF00012F017124973E97008E50812EB57123442
:10F0000079050812EA7240C102B3A412EA1A6E220C
:10F0100075F017A4F8A9F0744528FA740E39FB228C
:10F02000EC75F017A4F8A9F012EA1A64FE22C08267
:10F03000C0837AFF7BFF1234AF02C52CC082C0832D
:10F040009005CC74C1F0A37434F09005CE74C7F071
:10F05000A37434F09005D074CDF0A3743402AD31B4
:10F0600074F712243EEAF8EBF99004D512F0A9CA1D
:10F070002406F582E43AF583E0702B88828983A325
:10F08000A3A3A3A3A3A3A3A31228559004D512F06E
:10F09000AE122CD888828983A3E0F9122D777402EE
:10F0A000122A2E12481102B3A4E0FAA3E02212F0B1
:10F0B000A9F5838A8222C082C08390059612F17AD4
:10F0C000F090059612CF3F7005790112340702C502
:10F0D0002C74F612243E74FC122AC7E9FE904F7D70
:10F0E000E493700874E16E600302F175EA2408F895
:10F0F000E43BF98882898312F17A12F183700E90D1
:10F100000596E4F0A3F079011234078068901D2D74
:10F11000E06062F890059612CC40C3E89AE49B50F8
:10F120005479001234078A088B09AC08AD09ECF851
:10F13000EDF9E875F064A4F8AAF075F064E9A42A82
:10F14000F990059612CC4012225FE8941AE99400D7
:10F150004023901BBE12CF3F601B90059612CC44FB
:10F160007402122D07ECF0A3ED12CF76901BBE12A5
:10F17000E2A51249A8740402C8BBE02401F0A3E090
:10F1800034002212E65512D4F2E84922C082C0832C
:10F1900074F8122AC7908088AC18AD197408122927
:10F1A00077AC18AD191240D9E96401700479008078
:10F1B000027901740802D52F74F612243E740C12E1
:10F1C0002D0712BC17743A6E7001EF6006743B6E27
:10F1D0004F7023740A122D071228558C088D097858
:10F1E00008122A51EAFCEBFDEEFAEFFB12405574CF
:10F1F00004122A2E8002790A02C8BEC082C08390FF
:10F2000005D27471F0A37448F09005D4746BF0A328
:10F210007448F0901D19E0640170329005D674EBCB
:10F22000F0A37434F09005D874F1F0A37434F09026
:10F2300005DA74F7F0A37434F09005DC74FDF0A3E4
:10F240007434F09005DE74E5F0A37434F09005D6C4
:10F2500012CF3F600612C8611249A802C52C74F48F
:10F2600012243E74E6122AC78A088B097404122DF0
:10F27000077402F004122A9F1233658A0A8B0BAEC0
:10F280000AAF0BEE4F700302F3E812F43874601209
:10F29000CD5912DE4A1232E112DC9A12B98412DE22
:10F2A0003812BF65701290052BE0C0E012F3EDD06C
:10F2B000E0F090052BE004F012F4097016901EC1E6
:10F2C000E0600D900536E0700A8E828F83E0700357
:10F2D00012CD1BAC18AD19EEFAEFFB1232BD8A0845
:10F2E0008B09EA4509700302F3E17A217B00123FA2
:10F2F000CB7406122D0712E1117406122D0712CFDE
:10F300003F700302F3DA7C217D0079007406122D30
:10F3100007E0FA123F117401122A9F795012470F29
:10F320007401122D0712BA897406122D0712F0A962
:10F33000CA2409F582E43AF58312CC4F90053F12B6
:10F34000BA897417122D0712CC4F7406122D0712AA
:10F35000BC1C12F40FF07406122D0712B092740246
:10F3600012F45E7406122D0712F0AE12CC4F740622
:10F37000122D0712F44312F469C0E07406122D072F
:10F3800012BC1C12F41FD0E0F0EE240E12F3F7C0F2
:10F39000E07406122D0712F428D0E0F07406122D46
:10F3A0000712BC1C12BC0D12DCCCEE240F12BA8367
:10F3B000740C122D0712CC4F8A828B83E0C0E0744C
:10F3C0000E122D07D0E0F07406122A9F1232337409
:10F3D00006122D0712CC40123FD1AA08AB09123FEA
:10F3E000D1EEFAEFFB123FD1741A028F72EE2414A1
:10F3F000F582E43FF5832212F3FCE022F8E43FF9C2
:10F40000E8FAE9FB8A828B832212BF02640122128E
:10F41000F41938F583740222EA240BF582E42224DD
:10F420001EF582E438F5832212F42C2212BC20242B
:10F430000CF582E438F5832212CC1E12CD437404FD
:10F44000F0A322E012F44D7401F0A3E422F8A3E04B
:10F45000C812F45522240DF582E438F5832212DB1C
:10F460007A12D4F222E8F0A3E912A7A8E02274F6F7
:10F4700012243E7E0080187C047D0079FF8E088D6A
:10F480000974027808122C0612F6A9123F110E9088
:10F490004F8312E9BC40E002C8BE74F412243E74EB
:10F4A000F7122AC7750800802285080A750B0074B8
:10F4B00002780A122C0674E2250AF582741112F5FC
:10F4C0004B24FFF0A3E034FFF00508904F8312EACD
:10F4D00075506D85080A750B007402780A122C06A7
:10F4E00012F543F47003A3E0F460DE85080A750B9F
:10F4F000007402780A122C0674E2250AF58274114F
:10F50000350B12CF3D70A27408122D077402F085DE
:10F51000080A750B00780A122C0674E0250AFE749E
:10F5200011350BFF8E828F8312CC4412F551124796
:10F53000577C047D0079FFEEFAEFFB123F118089C2
:10F5400002B08D74E0250AF5827411350BF583E065
:10F550002212F6C22274EE12243E74F7122AC7EA6F
:10F56000FEEBFF750CFF7408122D0712F6B412475C
:10F5700051E9641A700302F627750E00741B122DF0
:10F58000077808122C7A800B74FF650C7003850EC7
:10F590000C050E904F83E493F8E50EC39850488510
:10F5A0000E1075110074027810122C0612F62BF44E
:10F5B0007003A3E0F460D1850E1075110074027819
:10F5C00010122C0612F62B6E7003A3E06F70C2753A
:10F5D0000F007402780E122C0674E2250EF5827468
:10F5E00011350FF5838030E493650E702D74FF653F
:10F5F0000C602E850C0E750F007402780E122C060E
:10F6000074E0250EF87411350FF98882898312E0B1
:10F61000AD88828983A3A312DCCE7901740902C26A
:10F620005012F551124757790080F174E02510F51A
:10F630008274113511F583E02274F412243E74F7BC
:10F64000122AC7EAFEEBFF7408122D0712F6B41255
:10F65000475775080080020508904F8312EA7550DD
:10F660004585080A750B007402780A122C0612F5FB
:10F6700043F47003A3E0F460DE85080A750B0074A0
:10F6800002780A122C0612F5436E7003A3E06F7025
:10F69000C67C047D0079FF8D0974027808122C065F
:10F6A00012F6A9123F1102B08D74E02508FA741108
:10F6B0003509FB22740212A7A8EEF0A3EFF012F6B0
:10F6C000C22290054C12B963AA18AB192274EE122B
:10F6D000243E8A088B09ECFEEDFF750A00EE6508F2
:10F6E0007003EF6509600C1240498A0C8B0DEA45E6
:10F6F0000D7006750A0102F789EEFAEFFB12404918
:10F700008A0E8B0FAC0EAD0FEC4D6007EEFAEFFBDF
:10F7100012405BE4F50EF50F780E122A51AC0CADD9
:10F720000DEEFAEFFB1240437402122A2EE96059E3
:10F73000AA0CAB0D123FCB8A0E8B0FEA450F604629
:10F74000780E122A51780C122A517C007D00AA08EA
:10F75000AB091240557404122A2EE9701D780E125E
:10F760002A51780C122A517C007D00EEFAEFFB1230
:10F77000404F7404122A2EE96003750A01AA0EABE9
:10F780000F123FD18003750A10A90A02C253122238
:10F79000B80229FBC082C08374FF122AC7AC18AD1F
:10F7A000197A017987124109851882851983E0C386
:10F7B0009403400F7402F07C007D00FA79E212415C
:10F7C0003F800CE4F0901EE0E0FA7B001241B77439
:10F7D00001122A2ED083D0820229FB74F012243E1B
:10F7E00074F5122AC7851882851983EAF0A3EBF015
:10F7F000ECFEEDFF750820E9700302F99B901AFA00
:10F80000E0F47003A3E0F47062EE4F6073740A12C8
:10F810002D077403F07402122A9F1240DF901AF32E
:10F82000E0F5087808122A557403122AA774011209
:10F830002D0712FE02901AF3E0F9122FED74011257
:10F840002A2EE9F50870247D007C007900EEFAEF9D
:10F85000FB1244C39081221228517A007B01901B35
:10F8600035E0F91240917404122A2E851882851908
:10F8700083E0FCA3E0FDAA0879E112413F02F9C44C
:10F88000750802740A122D077402F0122D0774FF16
:10F89000F0A3F012F9D3A3A3A31228558882898379
:10F8A000A3A3A3A3A3A3A3A3A3E0FC7402122A9F70
:10F8B00079011243D37402122A2EE9602F750800D1
:10F8C0007808122A55E4F50AF50B780A122A5178BD
:10F8D00008122A557404122A97880A890B780A128A
:10F8E0002A5112F9CE1228557901805712F9D312F4
:10F8F000285588828983A3A3A3A3A3A3E0FC740251
:10F90000122A9F79011243D37402122A2EE970033E
:10F9100002F86B7508007808122A557401122A97AC
:10F92000880A890B780A122A517508017808122A68
:10F9300055E4F50AF50B780A122A5112F9CE12286D
:10F940005579007CFF7DFF740A122A9F1244CF7400
:10F9500008122A2EE9F508E508600302F86B900406
:10F96000EBE0F50CA3E0F50DE4F50EF50F780C12C5
:10F970002A497A007B20901AF9E0F9124091740428
:10F98000122A2E851882851983E0F8A3E0F9901ACF
:10F99000FAE8F0A3E9F0802C1238FF7C0085188289
:10F9A00085198312FF3D123929EA4B70EB908122B1
:10F9B0001228517A007B01901B35E0F912409174B6
:10F9C00004122A2E740B122A2E7F080226CD12FF53
:10F9D0004CA322901AF6E0F8A3E0F988828983A369
:10F9E000A3A3A3A3A3A32274F712243E74F7122A9D
:10F9F000C77408122D077402F0851882851983EAEE
:10FA0000F0A3EBF07D007C00AA18AB1912453B7403
:10FA100009122A2E02FC5974F412243EE9FE7A00DF
:10FA20007B40901AF9E0F912409DEE700A7A0012BC
:10FA3000FF421238C380477A0112FF421238C37462
:10FA4000FF6E603AEEC3944140027E40EEF875F0DE
:10FA5000E8A4C8AAF075F003A42AFAE42A8808F5F5
:10FA6000093395E0F50AF50B7808122A497A007BEC
:10FA700040901AF9E0F91240917404122A2E02FB08
:10FA80007A74F412243E74F4122AC78C088D09E9A2
:10FA9000FF741B122D07E0FE74FE6A700374FF6B87
:10FAA00070097408122D07E4F0801D8518828519ED
:10FAB00083EAF0A3EBF07408122D077402F01233FE
:10FAC00083E96004EEC2E4FE740A122D07E4F0A399
:10FAD000F012FF47C0E07409122D07D0E0F0741C4B
:10FAE000122D07E0F50A780A122A55741B122A977C
:10FAF000880A890B780A122A51741B122D071228C2
:10FB0000558F0A750B00780A122A517808122A516B
:10FB1000EEF97CF37D1A7409122A9F12389F74093A
:10FB2000122A2EE9FA600E741A122D07E0FC7D00ED
:10FB300079E012413F740C122A2E803E74F4122494
:10FB40003EE9FFEAFE8C0A8D0BEFFA7B001240497A
:10FB5000EAF508EEC3950850047901801D780A1271
:10FB60002A517509007808122A517C007D00EFFAAD
:10FB70007B001240557404122A2E7F040226CD7495
:10FB8000F612243EE9FFEAFE8C088D097808122A55
:10FB9000518E087509007808122A517C007D00EF0B
:10FBA000FA7B0012404F7404122A2E7F020226CDE7
:10FBB00074F512243EE9601714601C14602114606F
:10FBC0002614602B14603014603F14604E806675FC
:10FBD000083875091B802675082C75091280427536
:10FBE000083F75090580287508427509058020754C
:10FBF0000844750905802A750841750905750A00CC
:10FC00007808122A4D7C01802275084C750905750B
:10FC10000A007808122A4D7C028010750860750968
:10FC200005750A007808122A4D7C087D00123F05F0
:10FC30007403122A2E7F030226CD74F712243EE9A4
:10FC4000FE74016E70097D007C0079001244C3804F
:10FC50000874F712243E123D9D7F010226CD74F7F1
:10FC600012243E123DA380F174F212243E74FF125E
:10FC70002AC7890A8A088B09EB5480700302FD8227
:10FC8000800FA3E0F9123D97EEFAEFFB123F2FA988
:10FC90000A123F418A0C8B0DAE0CAF0DEE4F700374
:10FCA00002FD7A8E828F83E024E6603D24496074F1
:10FCB00014700302FD5714601624F3700302FD60F4
:10FCC00014700302FD6A1460B924E5600B80B9EE7C
:10FCD000FAEFFB12413380B0A3E0FA8E828F83A348
:10FCE000A3A3E0F9124121809FEE2422F582E43F94
:10FCF000F583122855EE2420F582E43FF58312287F
:10FD0000558E828F83A3A3A3A3E0FCA3E0FD8E8284
:10FD10008F83A3A3A3A312FE00123DB57404122A7D
:10FD20002E02FC88A3E0640660148E828F83A3E019
:10FD30006407600A8E828F83A3E0640970057900EE
:10FD400002FC858E828F83A3E0600764016003025A
:10FD5000FC88792202FC8512FE00123DA902FC8873
:10FD6000A3E0FA8E828F8302FCE0A3E0F98E828FFB
:10FD70008312FE0012412702FC88AA08E50964806C
:10FD8000806FEB544060107A0012FF421238C3AA11
:10FD900008E5096440805AEB5420601B7921901AD1
:10FDA000FA12FE02124127901AFA74FFF0A3F0AA89
:10FDB00008E5096420803AEB54107A00603679082F
:10FDC0001239CBAC18AD197A0179031241098518A3
:10FDD00082851983E0A2E250051240EB800D7CF48D
:10FDE0007D017B327A0079021239D1AA08E50964D3
:10FDF00010FB80027B007401122A2E7F060226CDA2
:10FE0000A3A3E0FAA3E0FB2274F612243E74F712D7
:10FE10002AC7EA240CF582E43BF583E0F508A3E069
:10FE2000F509780812268100000200008035FE06E0
:10FE30008052FEF5FE12448D8A828B83E582240374
:10FE4000FCE43583FDA3AA82AB837901123DAF02A6
:10FE5000FEF51244938A088B09AE08AF09901AFA8E
:10FE6000E0F47003A3E0F4700302FEF57408122DB1
:10FE7000077402F08E828F83A3E0F8A3E0F985185F
:10FE800082851983E8F0A3E9F08E828F83A3A3A370
:10FE9000A3E0F5087808122A557401122AA7901ACF
:10FEA000FA12FF3D122FED7401122A2EE970467AE4
:10FEB000007B20901AF9E0F912409D9081221228CF
:10FEC000517A007B01901B35E0F9124091740412C5
:10FED0002A2E7D007C0079008E828F8312FE011213
:10FEE00044C97900901AFA12FE02123DA3901AFA40
:10FEF00074FFF0A3F0740902FBA874F712243EE922
:10FF0000901AF9F0901AFA74FFF0A3F0901AF474B2
:10FF1000F9F0A3741AF0901AF3E4F0FA12FF421207
:10FF200038C37A007B80901AF9E0F912456B7A06A3
:10FF30007B80901AF9E0F912456B02FC59E0FAA3B4
:10FF4000E0FB12FF47F92212FF4CE022901AF6E084
:10FF5000F8A3E0F58388822274F412243E89088A8B
:10FF600009ECFEEDFF7A047B00123F29EA4B601E8C
:10FF70008A828B83E508F0A3E509F08A828B83A34C
:10FF8000A3EEF0A3EFF0901AF9E0F9123F3502FB6F
:10FF90007AF0D083D0820229FBC082C0839061A511
:10FFA000E0D2E2F0900B51E0C39412502D900B7F01
:10FFB000E0906172F0900B80E0906173F0900B83A1
:10FFC000E0906174F0900B84E0906175F079087CAA
:10FFD000937D0B7A6A7B61123B99906180E4F0E03B
:10FFE000440980ADC082C0839061A5E0C2E280A1D7
:10FFF0000229FB0229FBFFFFFFFFFFFFFFFFFFFFBF
:020000040001F9
:10000000C082C083790012CFA2C082C0839004D185
:1000100012C856D083D082C3E09CA3E09D500DEA65
:10002000240B12804F12802F60027901029E4BEA4E
:1000300075F00BA4FAA8F075F00BEBA428FB900464
:10004000D3E02AF8A3E03B8882F583E0540F22F541
:1000500082E43B12B98B2274F712243E890812B055
:10006000A41283B7ACF075F00BE9A42CF99004D37B
:10007000E028F8A3E039F9E8FEE9FF7401650860BB
:10008000067402650870228A828B8312856D740261
:1000900065087021EA2403FA50010B124973E970D4
:1000A000148E828F83E4F0800CEA2403FCE43B127C
:1000B00085641249798E828F83E0D2E7F01242B3D1
:1000C00002AC5A74F412243E12863E79008E828F5E
:1000D00083E06078890A890B8063E50A75F00BA4D8
:1000E000FAA8F075F00BE50B12803B7048E50A7535
:1000F000F00BA4F8AAF075F00BE50B1285818E8247
:100100008F83E085088285098312A5321284E2EE8E
:100110002403FCE43F1281FA12497912AEA8E50AE1
:10012000F0A3E50B129B68D2E7F01242B37901907D
:1001300004D112943B050AE50A7002050B9004D124
:1001400012C08EC3E50A9AE50B9B408E029B727427
:10015000F512243EEAFEEBFF750A01740B122D071F
:1001600012CCB3EC4D6015EC12BD583D12864C79A3
:1001700001124997E508450960758023E50845099E
:10018000604412BD56350912864C1281FB12497328
:10019000E96401701BEEFAEFFB124991E9F50A855B
:1001A00008828509831284DA7902AA08AB098011D2
:1001B000128565124973E9640170347903EEFAEF30
:1001C000FB12499780298E828F83A3E064FE70031F
:1001D000A3E0F4700B128565124973E96401700C99
:1001E000EEFAEFFB124991E9F50A8003750A000265
:1001F0008CCBE50A2403FCE4350BFDE5082403FA67
:10020000E43509FB2274F712243E9004D112AFD8D2
:10021000EA4B602FEA75F00BA4FAA8F075F00BEB2F
:10022000A428FBEAFEEBFF123FCB9004D312AFD819
:100230009004D312ADED6012EEFCEFFD7900123F99
:100240001180079004D3E4F0A3F002AC5AC082C03E
:1002500083EC4D60051240DF80097C087D00790049
:10026000123F11029E4BC082C0837900EA4B601698
:100270007800E8FCEA2C12B0B06004790178080834
:10028000E8C3940840EC029E4BC082C0837901EC25
:100290006A7002ED6B6011EA4B600BEC4D60071267
:1002A00040D9E9F980027900029E4B74F712243E8E
:1002B00074F3122AC7ECFEEDFF851882851983E4DA
:1002C000F004122D07EAF0A3EB12C14E12494F744D
:1002D00003122D07AC82AD83EEFAEFFB124979EEE3
:1002E000FAEFFB12497302AC5574F712243E74F313
:1002F000122AC7ECFEEDFF851882851983E4F0EA27
:10030000FCEBFD7403122D07AA82AB83124979AA74
:1003100018AB191249497401122D0712A5438E8298
:100320008F8312AF9474FE68700374FF6960047960
:10033000018002790002AC5574F712243EEAFEEB0C
:10034000FF12498BE9F5087401650870111283A248
:10035000F4FA88828983E05A4480F01242B3A908F3
:1003600002AC5A74F712243EEAFEEBFF7508008EC9
:10037000828F83E0602A12498BE9F50874016508D1
:10038000701E1283A2FA88828983E05A70128E82CC
:100390008F83E04480FA88828983E04AF01242B376
:1003A00080BC12AD1CF81283B7128759F8A3E0394C
:1003B000F98E828F83E022A3E0F9E875F00BA4F8B0
:1003C0002274F412243E8A088B097C007D00EA1214
:1003D00081FD124979E5081284FC7900850882853F
:1003E0000983A3E064FE7003A3E0F460787E007FDD
:1003F000008065EEFAEFFB12802F6057EEFAEFFBFC
:10040000EA75F00BA4FAA8F075F00BEBA428FB90AA
:1004100004D3E02AF50AA3E03BF50B8508828509A1
:100420008312C08D850A82850B83A3E06A7003A3C3
:10043000E06B701FE50A2403FAE4350BFB124973E5
:10044000E9640170061281F21249791284F179018E
:1004500012C9BD0EEE70010F9004D112C08EC3EE12
:100460009AEF9B408E029B7274F312243E8A088B93
:10047000098A828B831284DAEA1284FC750C00EA02
:100480001281FD124973E9640170477E007F00808C
:100490003C12874BFAA3E0398A82F583E0540F605F
:1004A0002712874BF50AA3E039F50B1281F21240AF
:1004B000D9E964017012850A82850B831284E212E5
:1004C00084F1750C0112C9BD0EEE70010F12876820
:1004D00040BFA90C7F050226CDA3A374FEF0A304A0
:1004E000F022A312AC46850882850983A312A24B91
:1004F00022E508128506EEF0A3EFF02212850674BD
:10050000FEF0A304F022240BF582E43509F58322E2
:1005100074F512243EEAFEEBFF8E828F831284DA9A
:100520007C007D00128565124979EEFAEFFB1249D5
:100530008BE9F50A7401650A702712AC3F128575C4
:10054000850882F58312856D1281FB124973E96477
:1005500001700EE5082403FCE43509128564124994
:1005600079028CCBFDEE2403FAE43FFB22A312C0F8
:100570009C12A24B22E875F00BA4F8AAF075F00BC0
:10058000E912875FF508A3E039F5092274F2122415
:100590003E74E6122AC712863E750A017508007578
:1005A0000900750C00750D00851882851983E4F02B
:1005B000EE2403FCE43FFD7403122D07AA82AB83F3
:1005C000124979AA18AB19124949E96401701F74DC
:1005D0000B122D0712864E7401122D0712C0967051
:1005E00003A3E069604AA818A91988088909740D4D
:1005F000122D0712A531A312A543740E122D071256
:10060000AF94740D122A9F12494FE9640170097466
:100610000D122A97880C890D780C122A51AC08AD5E
:1006200009EEFAEFFB1249857402122A2EE9F50A47
:10063000EEFAEFFB124955A90A741A02AEBAEAFEA5
:10064000EBFF12AEAC74FEF0A304F022F58312C0EF
:100650007CF912AEAC12A24B22C082C08378007922
:1006600000800508E87001099004D1129850E99BB8
:100670005029E8FAE9FBEA75F00BA4FAACF075F042
:100680000BEBA42CFB9004D3E02AFCA3E03B8C8270
:10069000F583E0540F70CC790080027901029E4B03
:1006A00074F612243E7E007F008039EEF8EFF912D6
:1006B00085757808122A5175080B7509007808129B
:1006C0002A51EEFCEFFDEC75F00BA4FC75F00BED80
:1006D000A42AFD7A237B001240557404122A2E0EA0
:1006E000EE70010F12876840C2028BE374F6122489
:1006F0003E7E007F00804C12874BF8A3E039F988DA
:10070000828983E0A2E75036C2E7F08582088583BC
:10071000097808122A5175080B7509007808122A01
:1007200051EEFCEFFDEC75F00BA4FC75F00BEDA4A5
:100730002AFD7A237B0012404F7404122A2E0EEEFB
:1007400070010F12876840AF028BE3EEF8EFF9E813
:1007500075F00BA4F812875922AAF075F00BE9A4E2
:100760002AF99004D3E028229004D112AC46C3EEBB
:1007700098EF992274F612243EE4F508F5097808FA
:10078000122A519004D112943675F00BA4FCA8F0F3
:1007900075F00BEDA428FD7A237B00124043740210
:1007A000122A2EE9FE600312491902C6B274F6122B
:1007B000243E74FF122AC77E007F00803C85188289
:1007C000851983E412919E122A517508017509005A
:1007D0007808122A51EEFCEFFDEC75F00BA4FCA892
:1007E000F075F00BEDA428FD7A237B0012404F74C6
:1007F00004122A2E0EEE70010F12876840BF74019A
:10080000028BE0C082C083904F8AE49375F01CA4F1
:10081000FCADF079FF7AF77B0B123F11029E4B740F
:10082000F712243EE9FCEAFD7A007B008010EB120F
:100830008E799C4008E0F8EDC39840010A0B904F78
:100840008AE493F8EBC39840E57B0002AC5A74EC61
:1008500012243E74F3122AC78A0C8B0D8C088D0962
:10086000890AEC45096016AA08AB091248A78A0E46
:100870008B0FAE0EAF0FEE4F600302894C7A0080F3
:10088000010A904F8A12BFD3500F128A4170F2743E
:10089000F728FE740B39FF80047E007F00EE4F7056
:1008A000030289F5904F6D128A1260257403650A60
:1008B00060067404650A70197A0479031249078A7C
:1008C0000E8B0F904F8AE493F8904F6D128A2B5045
:1008D0002D904F6B128A12602C7401650A600674A9
:1008E00002650A70207A0279011249078A0E8B0F7D
:1008F000904F8AE493F8904F6B128A2B40077A004E
:100900007B00028A0D8518828519837401F0122DEF
:1009100007E50CF0A3E50DF0AC08AD097403122D4A
:1009200007AA82AB83124979AA18AB1912493D7400
:100930000B122D0712A2448E828F83A3A3A3A3A31D
:10094000A3E412C852AA0CAB0D12346D7800E50A6C
:100950006007C39405500278048E828F83E50CF003
:10096000A3E50D128D3CA3A3E50AF0E88E828F83E8
:10097000A3A3A3A3A312C3635001097A027B0012AD
:10098000225712982BA3129CCA129857E50A605B53
:10099000C394035056901ECCE07018904E4A780CC9
:1009A000122B94129802122C98904E4A780C122B0B
:1009B000948027F50875090074027808122C061235
:1009C0008A1C122B9490810E7810122C7A780C7954
:1009D0001012234F129802122C98EE24131298052D
:1009E000122C98EE241B12C35A800912980E1284FE
:1009F000DDA3F0A3F07A047900124907128D2D408F
:100A000005901E42E4F012332FEEFAEFFB740D0254
:100A1000A051E493F8740193F9E84922744A250837
:100A2000F582744E3509F583780C22E493FA74014B
:100A300093FBE8C39AF8E49BF9C3E50E98E50F9998
:100A400022EA128A47F42275F01CA4F8A9F074FB7C
:100A500028F582740B39F583E02274EE12243E747B
:100A6000F3122AC7EAFEEBFF8C108D11750800AA5D
:100A700010AB111248A7EA4B7003028B758A828B68
:100A800083E06E7003A3E06F7003028B758A828B24
:100A900083A3A3A3A3E0C394054003028B758A82BA
:100AA0008B8312C9ABE060728A828B83A3A3A3A35A
:100AB000E0C394035064901ECCE07021904E4A78BD
:100AC00008122B94128B7C122C98904E4A780812A4
:100AD0002B94EA2413128B7F122C988030F5087522
:100AE000090074027808122C06128A1C122B9490AA
:100AF000810E7808122C7A780C790812234F129AFA
:100B00002C122C98EA2413129A2F122C98EA241BE8
:100B1000F582E43BF583E4F0801B7508FE7509FF60
:100B2000750AFF750BFF128B7C122C98EA241312A6
:100B30008B7F122C98750800750900750A00750BDB
:100B400000EA240C128B7F122C9885188285198359
:100B50007401F0122D07EEF0A3EFF0AC10AD11749C
:100B600003122D07AA82AB83124979AA18AB191276
:100B7000493D750801A908740D02C9A3EA2417F5B7
:100B800082E43BF58378082274F612243E1248DD95
:100B90008A088B09A808A909E84960148882898312
:100BA000A3A3A3A3E06009C39405500479018002C4
:100BB0007900802F74F612243E1248DD8A088B09D2
:100BC000A808A909E849601488828983A3A3A3A37C
:100BD000E06009C394035004790180027900800326
:100BE000122A2E7F020226CD74F612243E1248DD10
:100BF0008A828B83E5824583600BA3A3A3A3E07065
:100C00000479018002790080DAC082C083EAFCEBBB
:100C1000FD7A007B00029E48C082C0837C007D007C
:100C2000029E4874F512243E74F3122AC7EAFEEBC2
:100C3000FF8C088D09C3EC94F8ED94FF4004EE4F4F
:100C40006065750A00801974FF6508700474FF659B
:100C500009600B12CF9C7004A3E06509603B050A94
:100C6000904F8AE493F8E50AC398503BE50A128A4C
:100C70004260EBEE4F60D0128CB2122D0712C14AC7
:100C8000124943E960D87403122D07AC82AD83EE9C
:100C9000FAEFFB1240D9E960C5E50A75F01CA4F82B
:100CA000A9F0128E7080047A007B00740D122A2E37
:100CB000801B8518828519837401F074F928F582E8
:100CC000740B39F58312AC46740B22A90A7F030218
:100CD00026CD74F412243E74F3122AC7750800124C
:100CE00048A78A0A8B0BAE0AAF0BEE4F602585181A
:100CF00082851983128D3A128CC5122D0712C14AB2
:100D000012495B7C1C7D0079FFEEFAEFFB123F116C
:100D10007508017A047900124907128D2D50099047
:100D20001E427401F012332FA908029B6D904F8A66
:100D3000E493F8C3EA98EB940022740112A536A359
:100D4000A32274F712243EE9FE74FE6A700374FF56
:100D50006B7C00700380240C128DA5501EEC128A4F
:100D60004260F4128F3F7003A3E06B70EA800BECDB
:100D7000128DBA6019E0640360140C128DA5501E28
:100D8000EE60ECEC128DAF60F1C3940550ECEC75A5
:100D9000F01CA4FCADF012D51212C08E80047AFEB5
:100DA0007BFF02AC5A904F8AE493F8ECC39822750B
:100DB000F01CA4F8A9F0128A4E2275F01CA4F8A920
:100DC000F0128A4E64012212488F029E4BC082C0EC
:100DD00083790180F274F012243E8A0A8B0B7A0424
:100DE00079011249078A0C8B0DEA450D6040EA2A09
:100DF000FAEB33FB123FCB8A088B09AE08AF09EE42
:100E00004F60267AFE7BFF12488974FE6A70037475
:100E1000FF6B601E85088285098312AFD8E5082420
:100E200002F50850E2050980DE750C0080047E00A2
:100E30007F00850A82850B83E50CF0EEFAEFFB025A
:100E40009106C082C0837C008009EA24FF1AEB343B
:100E5000FFFB0C128DA55011EC128E79940550F207
:100E6000EA4B70E6128E7080047A007B00029E4B83
:100E700074F728FA740B39FB22128A47C32274F7DD
:100E800012243E74F3122AC77E00807DEF75F0179E
:100E9000A4F8A9F0128F3012C08EEE75F01CA4F8E1
:100EA000A9F0128F3F7003A3E06B603DEF75F01760
:100EB000A4F8AAF0EAF9128F3012A5437401122D9A
:100EC00007E0687003A3E069601FEF75F017A4F8EE
:100ED000EAF9744528FC740E39FD7403122D07AA33
:100EE00082AB831240D9E96013EF75F017A4F8A91B
:100EF000F0744328FA740E39FB1234790F90262FC0
:100F0000E493F8EFC39840840E12D4FF501FEE1202
:100F1000DA7DF47003A3E0F460EE128CB2122D07B8
:100F200012C14A124943E960DF7F0080D002AC550C
:100F3000128F3422744328F582740E39F5832212FD
:100F4000DA886A2274F412243E74F3122AC77E00EF
:100F500080389080EA7808122C7AEE75F01CA4F89C
:100F6000A9F0740A28F582740C39F5837808122ADE
:100F7000F360169080BE7808122C7AEE75F01CA4EF
:100F8000F812900C7808122BF30E12D4FF507AEE60
:100F9000128DAF60F4C3940350EF12900C122CB476
:100FA000E8494A4B70AC901D19E06401702D900522
:100FB000DA12ADED6025EE75F01CA4F8A9F074F717
:100FC00028F8740B39F912906212285188828983AB
:100FD0001290F71249A87404122A2E8518828519D6
:100FE000837401F0EE75F01CA4F8A9F0128CBB120A
:100FF0002D0712C14A124943E9608E7403122D076E
:10100000AA82AB831248958080029B6D740E28F5EE
:1010100082740C39F5832274F612243E1248DD8A5C
:10102000088B09A808A909E849603288828983A346
:10103000A3A3A3E06023C39403501E129062122C5A
:10104000C0E82417F582E439F583122CE4E8241B68
:10105000F582E439F5837401F079018002790002A8
:101060008BE3E82413F582E439F5832274F012242B
:101070003EEAFEEBFF9005D412ADED60729005DA0A
:1010800012ADED606A9005DE12ADED606212D38B99
:101090001249A8E97059901ECCE0700A904E4A7827
:1010A00008122B948028F50875090074027808123C
:1010B0002C0612D56D744E12D36C7808122B9490B6
:1010C000810E780C122C7A7808790C12234F78084C
:1010D000122A491290F11249A87404122A2EE964C6
:1010E00001700C8E828F83A3A312D3791249A8803A
:1010F000158E828F83A3A312B98D9005DA12D38344
:1011000022740D122A2E7F080226CD74F612243E78
:10111000E4F508F5097808122A51904F8AE493F50E
:101120000874037808122C061294281240437402A3
:10113000122A2EE9FE740A6E6025E4F508F5097896
:1011400008122A51904F8AE49375F005A4FCADF083
:101150007A3F7B001240437402122A2EEE60031283
:10116000485902C6B274F612243E74FE122AC7858C
:101170001882851983E4F0A312919E122A517508F2
:10118000027509007808122A517C007D007A227BC2
:101190000012404F7404122A2E7402028BE0F0A851
:1011A00018A9198808890978082274EE12243E7457
:1011B000DE122AC78A0E8B0F8C088D09750C007AF7
:1011C000227B001240498A0A8B0B7A3F7B00124037
:1011D000498A108B11AE10AF11E50A450B6017E577
:1011E00008650A7004E509650B600BAC0AAD0B7A63
:1011F000227B0012405B7436122D0712943BEE4F97
:101200006015E50A6E7003E50B6F600BEEFCEFFDF9
:101210007A3F7B0012405BE4F510F5117810122A3A
:1012200051AC08AD097A227B001240437402122AA5
:101230002EE9640A700302941EE4F508F5097808A3
:10124000122A51AC0AAD0B7A3F7B00124043740264
:10125000122A2EE9640A700302941E7404122A975B
:10126000880889097808122A5175080275090078DA
:1012700008122A517C007D007A017B0312405574CC
:1012800004122A2EE9600302941E851882851983B0
:10129000E4F0A3F07E000293957406122A97880862
:1012A00089097808122A517508087509007808120A
:1012B0002A518E0874037808122C06E5082402FCD3
:1012C000E43509FD7A017B031240557404122A2E7D
:1012D000E9600302941E7408122D07E0F47003A362
:1012E000E0F470030293947406122A97880889091F
:1012F0007808122A517508087509007808122A51D1
:101300007404122D0712CCB374037808122C061241
:10131000942812404F7404122A2EE9600302941E8E
:101320007402122A97880889097808122A517508C8
:10133000057509007808122A51EE75F005A4FCAD78
:10134000F07A027B031240557404122A2EE9704190
:101350007402122A97880889097808122A51750898
:10136000057509007808122A517404122D07129489
:101370003675F005A4FCA8F075F005EDA428FD7AFB
:101380003F7B0012404F7404122A2EE9600302943E
:101390001E1299440E851882851983C082C08390DD
:1013A0004F8AE493F8D083D082C3E098A3E09400FE
:1013B0005021851882851983C082C0837404122D40
:1013C0000712A543D083D082C3E098A3E0995003CD
:1013D000029299A818A919880889097808122A512F
:1013E0007508027509007808122A517C007D007A80
:1013F000227B0012404F7404122A2EE97020AC0E9A
:10140000AD0F7A017B0312405BE970127434122D28
:101410000712C8567A027B0312405BE96003750C21
:1014200001A90C742202C9A3E5082402FCE43509D1
:10143000FD7A227B002212C85AEC22E0F50AA3E0D2
:10144000F50B2274EC12243E74FE122AC7750A00B2
:10145000851882851983E4F0A3F0904F8A93F50EE6
:10146000F50875090074037808122C06E5082402B3
:10147000F50850020509E50E75F005A4F50EE5F036
:10148000F50F7A227B001240498A0C8B0DAE0CAF0F
:101490000D7A3F7B001240498A108B11A818A919B8
:1014A000880C890D780C122A51750C02750D007884
:1014B0000C122A517C007D007A227B001240557468
:1014C00004122A2E7A017B031240498A0C8B0D7A72
:1014D000027B031240498A128B13A812A913E50C50
:1014E000450D700AE5086E7003E5096F7025E8493F
:1014F000700CE50E65107004E50F65117015E50CB4
:10150000450D607BEE4F604E85188285198312AFC2
:10151000DE60437C017D037A227B00123503E9F80B
:10152000880A705B7C027D037A3F7B00123503E9F9
:10153000F8880A704AEEFCEFFD7A227B0012405BCD
:10154000E9700EAC10AD117A3F7B0012405BE96090
:1015500011750A018029AE0CAF0DE84960048810AE
:101560008911780E122A517810122A51AC08AD094F
:10157000EEFAEFFB1248537404122A2EE9F50AA979
:101580000A740202A05174EC12243E74D0122AC7CD
:10159000851882851983E4F0A3F012484DE96003B1
:1015A0000297EAA818A919880889097808122A5107
:1015B0007508027509007808122A517C007D007AAE
:1015C000227B001240557404122A2EE96003029710
:1015D000EA904F8AE493F88518828519831298500F
:1015E000E49B50030297EA750A00750B007508002A
:1015F000803D7403122D07122CB4129821122CF086
:101600007403122D07122CB412A868122CF0EE24C9
:101610001BF582E43FF583E4F07A04790012490770
:10162000128D2D4005901E42E4F012332F05081252
:1016300097F740030297EA12A53DC3E50A98E50B28
:101640009940030297EA7414122A97880C890D783E
:101650000C122A51750C08750D00780C122A518550
:10166000080C7403780C122C06E50C2402FCE435FB
:101670000DFD7A227B001240557404122A2EE97067
:10168000AC7416122D07E0F47003A3E0F4609E051D
:101690000AE50A7002050B7407122D077401F07435
:1016A00016122D0712A5437412122D0712AF94744F
:1016B00007122A9F124943E9700302962D12C8535C
:1016C0007414122D0712C08E12346DE50875F01CCB
:1016D000A4F8A9F074F728FE740B39FF7414122AC9
:1016E00097880C890D750E00780C122A4D7C087DA8
:1016F00000EEFAEFFB123F057403122A2E12C368A4
:101700005001097A027B0012225712982B12985727
:101710007402122A97880C890D780C122A51750CC4
:1017200005750D00780C122A51E50875F005A4FC2A
:10173000ADF07A3F7B001240557404122A2EE96006
:10174000030296199080BE780C122C7A7403122D25
:1017500007780C122AF360030295F2E50875F01C75
:10176000A4F8AAF0EAF9128DB66071C39403506C24
:10177000901ECCE07018904E4A780C122B94129860
:1017800002122C98904E4A780C122B948033F50C50
:10179000750D007402780C122C06744A250CF58223
:1017A000744E12B95B780C122B9490810E78101243
:1017B0002C7A780C791012234FEAF9129802122C25
:1017C00098EE2413129805122C98E50875F01CA4C5
:1017D000F8741228F582740C3902961512980E04CA
:1017E000141284DDA3F0A30296188518828519834C
:1017F000E0F9743002A051904F8AE493F8E508C3F1
:101800009822EE2417F582E43FF583780C22129893
:101810002174FEF0A304F0A3F0A3F012A86C74FEF0
:1018200022EE2417F582E43FF58322E88E828F832F
:10183000A3A3A3A3A3A3A3A312AC1A740112AC1A6B
:10184000A374AAF0EE2410F582E43FF583E4F022BD
:1018500012B98DC3E89A22A3F012AEACE4F0EE24E4
:101860000CF582E43FF583E4F0A3F0A3F0A3F022AB
:1018700074F212243E74FE122AC7851882851983D9
:10188000E4F0A3F075080002990FE50875F01CA4B8
:10189000F8A9F074F728F50C740B39F50DAE08783B
:1018A0000C122A51750A08750B00780A122A518EFB
:1018B0000A7403780A122C06E50A2402FCE4350BAC
:1018C000FD7A227B0012404F7404122A2EE50C246C
:1018D00012F50AE4350DF50B780A122A51750A053E
:1018E000750B00780A122A51EE75F005A4FCADF0D4
:1018F0007A3F7B0012404F7404122A2E850C828599
:101900000D83A3A3A3A3E0F4600312994405081276
:1019100097F7500302988AA818A9198808890978A6
:1019200008122A517508027509007808122A517C9C
:10193000007D007A227B0012404F7404122A2E741C
:101940000202AEBA851882851983E02401F0A3E073
:101950003400F02274F012243E74F3122AC7EAFE17
:10196000EBFF7A027901124907EA8E828F83F070C9
:1019700003029A1F75F00CA4FAABF0123FCB8A0851
:101980008B09EA45097003029A25AE08AF09750A6A
:1019900000801C9080BE122851EEFAEFFB123F89A6
:1019A0007404122A2E8A0C8B0DAE0CAF0D050A9012
:1019B0004F8AE493F8E50AC398506AE50A128DBA93
:1019C0006005E0640270E6128CB2122D0712C14A63
:1019D000124943E960187403122D07AC82AD83EEFF
:1019E000FAEFFB1240DF8A0C8B0DAE0CAF0DE50A4F
:1019F00075F01CA4F8A9F0741228F582740C12D1A9
:101A0000EA6401708E128E70EA2413129A2F122C3F
:101A10007A129A2C122AAF780C122A4902999975D7
:101A20000800750900AA08AB09029101EA2417F51C
:101A300082E43BF583780C22C082C0839004DC747E
:101A4000E5F0A37431F09004DE74DFF0A37431F09C
:101A50009004E27435F0A3742DF0029E4BC082C056
:101A6000839004E074D9F0A37431F0029E4B74F7B4
:101A700012243EEAFEEBFF90054EE06408601FE092
:101A80006404601A8E828F83E054036401704412F0
:101A9000AD18F8A3E0F5838882E0640670358E8285
:101AA0008F83A3A3E064FE7003A3E0F460258E821D
:101AB0008F83A3A312C8637003A3E0697008EE24A8
:101AC0001512C84A60051232AB80031232B1E9F533
:101AD0000880037508C2EEFAEFFB123FD102835E65
:101AE00074F412243E8A088B098A828B83E0FAA35D
:101AF000E0F8EA28FAE43400FB123FCB8A0A8B0BA9
:101B0000AE0AAF0BEE4F605A850882850983E0FC70
:101B10007D007900123F118E828F831284D9123298
:101B2000E78E828F83A3A3A3A3EAF0A3EB129B68A3
:101B3000F8EE28F8E43F128651850882850983A3D0
:101B4000E0C0E012C34DD0E0F01232F9EE240EF501
:101B500082E43FF583E912A4BEE0C0E012A216D0F1
:101B6000E0F0EEFAEFFB800A12A4B6E022740D1248
:101B70002A2E7F040226CD74F412243E74E8122A21
:101B8000C78A088B098C0A8D0BE9FE90054EE0642C
:101B9000046005E06408700479C2804BA3780812E1
:101BA0002C98EE900555129CCF123F118518828516
:101BB00019837808122C987405122D07EEF074041E
:101BC000122D077401F07407122D07E4F090054EF2
:101BD0007402F0901D2BE064027005901D19E4F072
:101BE000AA18AB1912472D7418808474F412243E7D
:101BF00074E8122AC7EAFEEBFF9004D512ADED603F
:101C000003029CC57A077B00123FCB9004D512AF2C
:101C1000D89004D512ADED7003029CC18E828F83E3
:101C2000122CB49004D5E0FCA3E0F5838C82122C36
:101C3000F0EE2404F50AE43FF50B850A82F583E013
:101C4000C0E09004D512B962A3A3A3D0E0F0EE24C3
:101C500005F508E43FF509850882F583E0C0E090CA
:101C600004D512B973D0E0129CCAE0C0E09004D54C
:101C700012C07CC82406F582E438F583D0E0129CBB
:101C8000CF123F118E828F83122CB4851882851952
:101C900083122CF0850A82850B83E0C0E074051264
:101CA0002D07D0E0129B68C0E07404122D07D0E02D
:101CB000F07407122D07E412C14E12472DE9F98086
:101CC00006791080027901029BE712CE2DA322F043
:101CD0007C187D007900AA18AB1922C082C08390BD
:101CE00004D512ADED60109004D512C08E123FD114
:101CF0009004D5E4F0A3F012320F12341F029E4B71
:101D000074F412243E74E8122AC78A0A8B0BECFE84
:101D1000EDFF89087428122D07E0FD7429122D07A4
:101D2000E0FC740F6D7005740F6C6012901EC8E0BB
:101D300064026005EDC39C500579C1029E157424B0
:101D4000122D07122CB490054F122CF0E5089005C7
:101D500055F0ED900553F0ECA3F0742A122D07E036
:101D6000900556F074FF650A700474FF650B7024CB
:101D7000901EDEE0F47003A3E0F4700C123F239099
:101D8000054CEAF0A3EB8015901EDE12D200E8F0BD
:101D9000A3E9800990054CE50AF0A3E50BF0EE4FAE
:101DA0006017EEFAEFFB1234D3E96401700BEEFC1E
:101DB000EFFD7A607B051240DF90053FE4F0A3F071
:101DC000900542F0A3F090055FF0901EC8E0640219
:101DD0007008900553740FF0A3F090054E7405122F
:101DE0009CCF123F117404122D07E4F090054F129E
:101DF0002CB4851882851983122CF0900555E0C00B
:101E0000E07405122D07D0E0F07407122D07E412DC
:101E1000C14E12472D029BE774F712243EE990044D
:101E2000DBF07A807B00900599E0F912409D124822
:101E3000D7790002AC5AC082C0839004DBE0700303
:101E400012443F1248D7800312489BD083D08202AD
:101E500029FB74F012243E9004DBE0901E41700FC9
:101E6000E060057900124277901E41E4F0804AE07C
:101E7000640160089004DBE0F9124277901E41741F
:101E800001F09004DBE0F46030E0F50CE4F50DF5D2
:101E90000EF50FF09080CE7808122C7A780C790825
:101EA00012234F780C122A497A807B00900599E022
:101EB000F91240917404122A2E7A417B1E79411244
:101EC000471502910674F712243E7CFE7DFF1248EE
:101ED000CB02AC5A74F212243EEAFEEBFF8C088D62
:101EE00009890A90054EE06408706C1248A78B0DB2
:101EF000EA450D600479C5806074FE65087004745D
:101F0000FF6509701C7402550AF9122E0D8A088BA0
:101F10000974FE6508700474FF6509700479C78050
:101F200038E50AA2E1500CA2E350047904800E794E
:101F300003800AA2E35004790280027901EEFCEFEB
:101F4000FDAA08AB091249018B09EA450960047929
:101F50000080067910800279C202AEBD74EC1224B2
:101F60003E74E7122AC78A0C8B0D8C0E8D0FE9FF89
:101F70007E007508018E098E0A8E0B90054E740145
:101F8000F07C187D007900122A9F123F1174011213
:101F90002D07780C122C987406122D07EFF074059B
:101FA000122D077403F07408122D07E4F0850C104D
:101FB000850D11850E12850F1378107908122BBA32
:101FC000E51045114512451360010E7401780812A1
:101FD0002998E5084509450A450B70D1AA18AB199F
:101FE000795A12470F851882851983E0F508E4F5C0
:101FF00009F50AF50B8E0CF50DF50EF50F7808793D
:102000000C12234F9080E2780C122C7A7808790C0D
:1020100012234F9080CE780C122C7A7808790C120B
:1020200023CF12A2377A007B04900599E0F9124081
:102030009D7808122A497A007B04900599E0F912EC
:1020400040917404122A2E7401122A9F12472D7493
:1020500019122A2E7F0C0226CD74F712243E7C0121
:102060001248B302AC5A74F712243E7C0080F1741B
:10207000F012243E74FD122AC7EAFEEBFF890A8C97
:102080000B12C8531232038A088B09EA45097005FE
:1020900079CA02A2118A828B83A3A3A3A3A3A3A3B9
:1020A000E064FE7003A3E0F4700579C302A211128C
:1020B00032E78A0C8B0DA80CA90D8508828509834F
:1020C000A3A3A3A3A3A3A3E0687003A3E06970057F
:1020D00079C202A21190054C12A543850882850998
:1020E00083E0687003A3E06960098508828509833D
:1020F00012A37690054C12C08E12347F850882851B
:102100000983A3A3A3A3A3A3A3A3A3A3E00490056C
:102110005F12A3621240DF7401122D07740212C114
:102120004E1233658A0C8B0DAE0CAF0DEE4F700363
:1021300002A20812B3447406F0A3A882A9839005F2
:102140003912C48312C357F01232E112AFCFEE241A
:102150001312C35A12AC267440F0A3E412A2201248
:10216000A24412A216E50BF0EEFAEFFB124829E9A1
:10217000FE600302A20A90054E740912A22012A367
:102180006C900541E0650A6003E50AF07A427B0540
:10219000794B1247157A4C7B0579501247157A41D5
:1021A0007B0579E11247157A3F7B05795312471574
:1021B00012A237901EAE12C08E12331112A229E461
:1021C000F50EF50F780C122A497A017B00900599DB
:1021D000E0F91240977404122A2E7A007B049005CD
:1021E00099E0F912409D12A2297402780C122998E4
:1021F000780C122A497A007B04900599E0F9124084
:10220000917404122A2E80027E10901B14E4F0EECA
:10221000F97403029103EE2411F582E43FF5832261
:1022200012A4C2A3A3A3A3A322901EAEE0F508A309
:10223000E085080CF50D22901EAC12AC469004D738
:1022400012A24B2212C38212A24B22E8F0A3E9F0A1
:102250002274F612243E74E5122AC7851882851965
:1022600083ECF0A3EDF0EAFEEBFF890990054EE068
:1022700064046005E06408700579C202A35D7426F9
:10228000122D07E064FE7003A3E0F4700579C30229
:10229000A35D7C197D0079007402122A9F123F1100
:1022A00090054E740312C14E7950124715742612D0
:1022B0002A9F794B12471585188285198312A376B8
:1022C000E509900541F07426122D0712A36C7425C0
:1022D000122D07E0F50890053912A3621240DF7451
:1022E000CE55084480C0E0741A122D07D0E0F0905B
:1022F0001D2BE060046401700B7428122D07E004AC
:1023000090055FF07417122D077402F07426122DD9
:102310000712A543740F122D07E8F0A3E912A53C9C
:102320007418122D0712AF94740D122D07E509F0E1
:10233000740A122D07E4F0900554740FF07A547B60
:10234000057954124715900553740FF07A537B05A5
:1023500079471247157402122A9F12471B741B02F9
:102360008BE0F0EEFCEFFD7A607B052212AC46902C
:10237000054212A24B2212D20412A24B2274F7126F
:10238000243EEB900556F01231F102AC5A74F6126D
:10239000243E74E9122AC78A088B097E008A828B40
:1023A00083A3A3A3E0C0E07406122D07D0E0F08A57
:1023B000828B83A3A3E0C0E07408122D07D0E0F065
:1023C0007409122D077401F08A828B8312ADED60BF
:1023D0000D8A828B8312C08E124973E9703574079F
:1023E000122D07E4F01232E17404122D0712AFD857
:1023F00090054EE06404700E1232ED7402122D0747
:10240000EAF0A3EB805B7402122D0774FDF0A37455
:10241000FF804E901D2BE060076401600302A4AFB3
:10242000AC18AD1985088285098312C08E124961E6
:10243000850882850983A3A3A3A3E07031740712E2
:102440002D07740112A53C7402122D0712AF94855A
:10245000088285098312A5437404122D07E8F0A3AE
:10246000E9F07402122A9F12334DE9FE804112A551
:102470003D740A122D0712AF947414122D077401C3
:1024800012A4BEA3E0C0E07415122D07D0E0F074D2
:1024900016122D07E412A4B612C856740C122D079A
:1024A000AA82AB831240DF740A122A9F12428FEE77
:1024B000F97417028BE0F08508828509832212A443
:1024C000C22212A4B6A3A32274F712243E74F812F7
:1024D0002AC7EAFEEBFF790090054EE0640860052C
:1024E000E06404704785188285198374FDF0A37435
:1024F000FFF01232E17402122D0712AFD8740512E8
:102500002D0712A531A3E0C0E07404122D07D0E01E
:1025100012A532E0C0E07406122D07D0E0F0740777
:10252000122D07E412C14E12334DE9F9740802ACC2
:1025300057E412A53622F08E828F8322F08518820E
:1025400085198312AC462274F112243EE98C088D61
:10255000097C007E002479603124FC700302A5EA26
:1025600024F3601324FC601514603D14600302A67C
:102570004C90054E02A66A90053C02A66A1234678A
:10258000EA85088285098302A6707EC11234738AA7
:102590000C8B0DEA450D700302A671750E00780CC8
:1025A000122A4D7C1702A63A7EC9901D2BE06007C7
:1025B0006401600302A67178B3790F7A00801788EE
:1025C000828983E064FE7003A3E0F460010CE824D8
:1025D00007F85001090A904F82E493FBEAC39B403D
:1025E000DEEC8508828D83F0805E7EC9901D2BE035
:1025F00060046401707B7EC1750CB3750D0F7D00A6
:10260000800C0CE50C2407F50C5002050D0D904FC5
:1026100082E493F8EDC3985058850C82850D83E0D1
:1026200064FE7003A3E0F460DAECF8EA684B70D261
:10263000750E00780C122A4D7C077D00AA08AB09A4
:10264000123F057403122A2E7E008025747F29C351
:10265000941E40047EC98019742B29F8E43405F9CE
:10266000E8247FF582E934FFF583E08508828D83D5
:10267000F0EEF97F070226CD74F412243E74F912AD
:102680002AC78A088B098C0A8D0B851882851983C5
:102690007808122C987404122D07E9F07405122D95
:1026A00007E4F07406122D07E412C14E12481774A5
:1026B00007029B6F74F512243E8A088B098A828B6D
:1026C0008312C9C0EE4F700302A8659004FC12ADDE
:1026D000ED60178A828B83A3A3E0F9EEFAEFFB90FB
:1026E00004FDE0F58388821249A88E828F83A3A31C
:1026F000A3A3A3A3A3A3A3E06402600302A7CF8EB6
:10270000828F83A3A3A3A3A3A3E05402700302A711
:10271000F3850882850983A3A3E064E9700302A717
:10272000F3850882850983A3A3E064CD700302A723
:10273000F3850882850983A3A3E064F0700302A7F0
:10274000F3EE240D12ABFB6028EE241312C84A608E
:10275000208E828F83A3A3A3A3A3A3A3A3A3A312C7
:10276000A884123383E9701D7A307B0112436180A3
:1027700014901ECEE0048E828F83A3A3A3A3A3A3F1
:10278000A3A3A3A3F0850882850983A3A3E0701FF8
:10279000750A0080097A367B01124361050A8508B3
:1027A00082850983A3A3A3E0F8E50AC39840E6EE77
:1027B000240A12BFDAC0E012A868D0E012AC167486
:1027C00004F0901ECF12C37CE812A876123F6B8EE5
:1027D000828F83A3A3A3A3A3A3A3A3A3E064026004
:1027E000128E828F83A3A3A3A3A3A3A3A3A3E064B6
:1027F0000670728E828F83A3A3A3A3A3A3E0A2E09B
:102800005063850882850983A3A3E0F9EEFAEFFB04
:102810001230DD8E828F83A3A3A3A3A3A3E054FE73
:1028200012A884123383E9850882850983A3A370E3
:102830002AE070237A2F7B011243617E0085088293
:10284000850983A3A3A3E0F8EEC39850187A367BDA
