:020000040000FA
:100000000212FF022003FFFFFFFFFF02200BFFFF92
:10001000FFFFFF020E61FFFFFFFFFF02201BFFFF3C
:10002000FFFFFF022023FFFFFFFFFF02202BFFFF48
:10003000FFFFFF022033FFFFFFFFFF020EA4FFFFC1
:10004000FFFFFF022043FFFFFFFFFF02204BFFFFE8
:10005000FFFFFF022053FFFFFFFFFF02205BFFFFB8
:10006000FFFFFF022063FFFFFFFFFF02206BFFFF88
:10007000FFFFFF022073FFFFFFFFFF02207BFFFF58
:10008000FFFFFF022083FFFFFFFFFF02208BFFFF28
:10009000FFFF70DFFFFF040000000002000000C847
:1000A0000300030369A5020269A501000000000026
:1000B00004003273000074F8121046900393E0605D
:1000C0001590030274FEF0900304744DF0A37405C0
:1000D000F07A011206857F0102116374F71210464F
:1000E00074FF12126B7E00801F851882851983E0D1
:1000F00064FE70069003877401F085188285198369
:10010000E0F8900384E068F07C017D00AA18AB1948
:10011000120E1C8B09EA450970030201F38518824F
:10012000851983E064EF70027E07E0C0E0900387EA
:10013000E0FA900385E0F8EA28F8E43400F9740264
:1001400028F582740339F583D0E0F0900387E060EE
:100150009814600E14602C14603C14605214606893
:100160008098900384E4F0851882851983E09003D9
:1001700086F0C394809003874004E40200F974027F
:100180000200F9851882851983E0900382F09003BC
:100190008774030200F9851882851983E090038330
:1001A000F0900386E0601990038774040200F990D0
:1001B0000385E004F0F8900386E06860030200FA2B
:1001C00090038774050200F9900385E4F09003879B
:1001D000F0900384E0F8851882851983E068600355
:1001E0000200FA900382E0644D60030200FA1203F9
:1001F000288002EEF974011212377F020211637433
:10020000F712104674FB12126BEAFEEBFF7508043E
:1002100075090078081212CF74021212E87A907BE6
:10022000007904120EC574021212371206771213E7
:1002300039E0687003A3E06970128518828519831C
:10024000E0F47003A3E0F4600302030874041212E4
:10025000E01206DD8A088B09A808A90974021213A6
:1002600039E8F0A3E9F07404121339E06008790169
:100270001200B6020321851882851983E068700395
:10028000A3E0697076851882851983E0F47003A372
:10029000E0F4701974021213397410F0A37420F092
:1002A0008518828519837410F0A37420F0750801F5
:1002B00075090078081212CF74021212E87A247BB2
:1002C00008120F49740212123775080478081212C6
:1002D000CF74021212E87A907B007904120EC57472
:1002E00002121237120677121339E0687003A3E086
:1002F000697004790280067904800279031200B6DD
:100300008E828F83741E80058E828F83E4F01206A6
:1003100077121339E0687003A3E0697004790180F3
:1003200002790074050201F774ED12104674F81298
:10033000126B900307E0FD900306E0FCFAEDF8E491
:10034000C8F9EA28FEE93408FF751001750B00753D
:100350000A068E088F0974027808121296C395084F
:10036000F8E49509F9740228F50E740339F50F8E37
:10037000088F09740978081212F0E508F511EE24C7
:1003800010F508E43FF509EEF50CEF5401F50D907A
:100390000383E014605914700302046414700302B0
:1003A00004DF14601024FE700302059A1470030227
:1003B000064A02065A750A03794E120C5B9003072F
:1003C00012066D7402F0A3744012066B74081206D4
:1003D0006BF0A3F07418C3940704F510AA10A90BCE
:1003E000120685A90A74081212377F0C0211637570
:1003F0000A04794E120C5BEE450D7005A911120F1F
:10040000AFC3EE9425EF9408503CC3E5089424E56F
:100410000994084031E50E2496F8E50F3420F98858
:10042000828983E0701BA3AA82AB83E070139003E0
:10043000887401F08882898374A5F08A828B838016
:1004400004900388E4F0750810750900780812120A
:10045000CF7C087D03EEFAEFFB120F4974021212F3
:10046000370203DC750A05E511C394794006750B64
:10047000010203DC75124075130078121212CF7C52
:10048000097D037402780C121296AA0CAB0DA91107
:10049000120EC57402121237900307E0A3F0900306
:1004A00006E0A3F0751043C3EE9425EF94084003D3
:1004B0000203DCC3E5089424E50994085003020311
:1004C000DC900388E070030203DCE50E2497F8E576
:1004D0000F3420F988828983E4F0A3F00203DC75ED
:1004E000080475090078081212CF74021212E87A13
:1004F000907B007904120EC5740212123774021236
:100500001339E0F8A3E0F9851882851983E0687053
:1005100003A3E069851882851983700BE0F47003EA
:10052000A3E0F470578009E0F47003A3E0F4700DC9
:100530008518828519837410F0A37420F012067751
:10054000121339E8F0A3E9F075080178081212CF08
:1005500074021212E87A247B08120F4974021212F4
:100560003775080478081212CF74021212E87A90D4
:100570007B007904120EC57402121237120677122C
:100580001339E0687003A3E0697006750A0102037D
:10059000DC750A02750B070203DC900391E060072B
:1005A000640260030203DCEDFF7A01790012068524
:1005B000E0600302063E8003120D1C120D26E97056
:1005C000F7740412133912065F7404121339780891
:1005D00012131D85080C85090D850A0E850B0F90D9
:1005E00005A2780C1212BC7404121339780C121381
:1005F0000EE5084509450A450B70CE8EC2E5C55487
:10060000E04FF5C5740412133912065F7404121317
:1006100039780812131D85080C85090D850A0E8589
:100620000B0F9005A2780C1212BC740412133978C7
:100630000C12130EE5084509450A450B70CE7A01E8
:10064000790012068579080203E5EC900393F070B7
:10065000030203DC750A090203DC79060203E5E400
:10066000F0A37426F0A3E4F0A3F022F0A3E4F0A337
:10067000F0A3F0A3F0A322851882851983E0F8A3E4
:10068000E0F974022274F8121046EAFE900305E0C5
:10069000D2E7F0E9A3F0EE900303F08E0874042A89
:1006A000FE7C028004E062080CECFA3395E0FB74F7
:1006B000022AF58274033BF583EEF8C3EA98EB94C3
:1006C00000A2D265D03340DDE508F074012A0C3376
:1006D00095E0FD7A027B03120E4C0200D674E912FB
:1006E00010467582007583FE1211FE8A168B1775EF
:1006F00014007515008A828B83E4F0900391E070FA
:1007000006D2AAD2AF80046402700579001200B646
:10071000750C00750D20750E00750F00900391E0AB
:10072000600464027015120D1C1200DBE9F87409F4
:1007300068600302080D79001200B675080075099B
:100740000278081212CF74021212E8850C08850D87
:1007500009AA08E5095407FB850E0A850F0B740BDF
:100760007808121252A908120EC574021212377EAE
:10077000007F009005AAC0828E10EFF5113395E03E
:10078000F512F513850C08850D09850E0A850F0BEA
:10079000780879101212A99005A678081212BC7573
:1007A0008305D08278081211DF501D8518828519C3
:1007B00083E5822EF582E5833FF583E0F9AA14AB49
:1007C0001512083C8A148B150EEE70010FC3EF94BE
:1007D0000240A09005AE780C1212BC9005B2780CC5
:1007E0001211DF400302071C7900AA14AB1512088E
:1007F0003C790012083C8B15900391E07004C2AF65
:10080000C2AAEA451570277AA57BA58021E8700366
:1008100002073B740668700302073B7407687003A5
:1008200002073B8516828517837401F080BA7582B2
:10083000007583021211FE7F10021163C008C00907
:100840007C088A088B09740F78081212F0E508F802
:10085000EA25E0FAEB33FBE9A2E7500474014AFA17
:10086000E8A2E0500874216AFA74106BFBE9C33304
:10087000F91CEC70CDD009D0082274F8121046781B
:10088000007900802274942EF582E43403F583E02D
:100890008A828B83F09004141209FA4005900414A4
:1008A000E4F008E8700109900414E0FEA3E06E6033
:1008B00007C3E89CE99D40CDE8FAE9FB7F010211FE
:1008C0006374F7121046900498E0F509A3E0F50868
:1008D000F8E509C398F895E0F9E508C39509E850EB
:1008E0000B120ADC701178007900801B247F500104
:1008F00009C39CE99D50EF7A007B008041E004F041
:10090000D2E908E8700109C3E89CE99D502C8A826D
:100910008B83E0C0E0900499E0FE74182EF582E429
:100920003404F583D0E0120ACC90049AE4F09004E9
:1009300099E0C3947F40C6E480C5E8FAE9FB7F02F2
:10094000021163C082C083C2E9900498E0F8A3E07A
:10095000686017741828F582E43404F583E0F5C163
:10096000900498120AF34002E4F0020D3A74F8126F
:1009700010467800790090051DE07055A3E0705195
:1009800075F900C28FC284A28340FCA28F4004A2EA
:100990008350F8AEF9C28FA2835004D2848032EE25
:1009A000C0E0E0FE1209EFD0E0F090051E120AF35D
:1009B00040D9E4F080D51209EFE08A828B83F09071
:1009C000051D1209FA400590051DE4F008E87001C4
:1009D0000990051DE0FEA3E06E6007C3E89CE99D59
:1009E00040D4E8497006E4F090051DF00208B874A0
:1009F0009D2EF582E43404F58322E004120AD0C36C
:100A000094802274F81210469005A0E0FEF890053C
:100A10009FE0FFEEC39FE0500DC398F895E0F912F8
:100A20000ADB70188012C398F895E0F9E8247F502B
:100A30000109C39CE99D4004EC4D70077A007B00DE
:100A4000020AC98A828B83E0F5F9A3AA82AB837874
:100A50000179008008E004F008E8700109C3E89C0F
:100A6000E99D50278A828B83E0C0E09005A0E0FEDC
:100A7000741F2EF582E43405F583D0E0120ACC9081
:100A800005A0E0C3947F40CDE480CCC28FA2834018
:100A9000FCC284A28F4004A28350F890059F120AE2
:100AA000E6E0F5F9C28F90059FE0FAA3E06A9005B1
:100AB0009F7005120AE68005120AF34002E4F0A2D4
:100AC0008350D0D284E8FAE9FB0208BC120AD02293
:100AD000F08A828B83A3AA82AB8322E824FF18E9E1
:100AE00034FFF9E84922E0FA741F2AF582E434055C
:100AF000F58322E004F0C394802274FB12126B7E13
:100B0000009005CA780812131D9005CA7401F0A35D
:100B1000F0A37469F0A374A5F09005B678081212DA
:100B20008170047E0180159005BA780812128160E8
:100B300008E59D541864107003022000120C81EE29
:100B4000A2E05003020BFEAA18AB191201FFE970D4
:100B500003020BFE851882851983E0C3943C500C78
:100B6000E0F8743CC398FA95E0FB80047A007B00BF
:100B7000120D3FE97003020BFE900391E0640170D7
:100B80000C75F800C2AB539AF7D2EA805E7907126F
:100B900000B68003120D1C120D26E970F7740112C5
:100BA0001339E4F0A37426F0A3E4F0A3F074011267
:100BB0001339780812131D85080C85090D850A0E56
:100BC000850B0F9005A2780C1212BC740112133918
:100BD000780C12130EE5084509450A450B70CE75D1
:100BE0008600C2AAC28B539AFBC2E990000174CD61
:100BF000F0022000C2AF75C9AB75C95B80FE7508F5
:100C000000750900750A00750B00900391E0701BD8
:100C1000D2AAD2AF79051200B6E07003120D1C12F1
:100C200000DBE9F8740968700980E9794E120C5B01
:100C300080ED74016870E2E07017120D1C9005BE23
:100C400078081212BC9005C278081211DF50EBC26E
:100C5000AAC2AF75C9AB75C95B80FEC082C083787C
:100C6000109005A1E0C399501575B60FE5B4A2E741
:100C700050FAE5BBC39940F118E870EDE9F0020DB8
:100C80003AC082C08353BEFBE59DA2E650FA0078CD
:100C9000F8790100120ADB70FA75C6807480659ECF
:100CA00070FA43BE049062707408F0794A120C5BCB
:100CB00090000174F5F07403F5D575D489A2A0E411
:100CC00033900391F0A2E05029D28453F3F753F309
:100CD000EF53FDF743FD10538FF753F7DF43FC202D
:100CE00043F10253F5DF75F82043F4F0D2FED2ABA6
:100CF000802853FF3F85FFFF53F1FE43F30C53F26F
:100D0000F375868075C48090049BE4F0A3F075C2EF
:100D1000D875C50B75C402438640801E8003120936
:100D200043A2E940F922C082C083900498E0F8A36E
:100D3000E0686004790180027900D083D082227457
:100D4000F112104674FF12126B7E00900391E06462
:100D500001706CC2849003927401F07508388E099A
:100D60008E0A8E0B7C017D00AA18AB19120E1C8B0B
:100D70000DEA450D6018851882851983E0641060BE
:100D80002DE064EF70088E088E098E0A8E0B8508A0
:100D90000C85090D850A0E850B0F9005A2780812A7
:100DA00012BCE50C450D450E450F70347E019003D5
:100DB00091E064017056D284900392E4F08051D2A5
:100DC000AAD2AF8A088B09E4F50AF50B9005C6781C
:100DD0000C12131D7808790C120FC679061200B692
:100DE000900391E06003020D64120D1C1200DBE918
:100DF000F8740968700779061200B6809174076864
:100E00006084E8608974066870A48082C2AFC2AA58
:100E1000EEF974011212377F08021163C082C08399
:100E2000900391E0700512087A801E900392E060B2
:100E300015A28F500BE5F98A828B83F07A0180022C
:100E40007A007B00800312096D020D3AC082C083D4
:100E5000900391E070051208C18003120A03020D8D
:100E60003AC0E074F21210AC900001E064CD70055D
:100E7000122013802AE064F57024E5C1C28BC0E023
:100E8000900415E0F8749428F582E43403F583D0D7
:100E9000E0F0900415120AF34005E4F08001007FB1
:100EA0000102110BC0E074F21210AC900001E0647A
:100EB000CD700512203B800BE064F57005120943EC
:100EC00080010080DA74F6121046890A740F550A00
:100ED000F508750900740B7808121296EA2400F8D8
:100EE000EB3480F9E82400E93509F985C709A2AF98
:100EF000E433F508C2AFE50AC4540FFAE5C754F865
:100F00004AF5C7740A121339E0FAA3E0FB801C8883
:100F1000828983E08C828D83F088828983A3A88272
:100F2000A9838C828D83A3AC82AD83EAFEEBFFEEB6
:100F300024FF1AEF34FFFBEE4F70D48509C7E50894
:100F4000A2E092AF7F0302116374F7121046ED9096
:100F50000389F0ECA3F0A37462F0A37473F0A3E030
:100F6000541FF07409121339E0F508A3E0F509E500
:100F700008333354FC90038EF0740678081212F094
:100F8000E50890038DF090038F7412F0A37442F083
:100F900075D1FE75D601EA906271F0EBA3F0906214
:100FA00070E0D2E1F0E0A2E740FB7F02021163C0F3
:100FB00082C083E9C333906272F0906270E0D2E045
:100FC000F0D083D08222080808EAC0E0EBC0E086B7
:100FD000F0E7A4FA180986F0E7A42AFA180986F0BF
:100FE000E7A42AFA180986F0E7A42AFA1986F0E796
:100FF000A4FBE5F02AFA190886F0E7A42BFBE5F03C
:101000003AFA190886F0E7A42BFBE5F03AFA18182B
:101010000986F0E7A4C5F02BFBE43AFA1908E7C506
:10102000F0C6A426F6E5F03BFBE43AFA1886F0E7B2
:10103000A4F6E5F00826F6E43B08F6E43A08F6D014
:10104000E0FBD0E0FA222518C582C0E0E51934FFA4
:10105000C583C0E0E518C3958224F910AF088583E5
:10106000198582188008858319858218D2AFCEF041
:10107000A3E520F0A37808E608F0A3DEFAEFF0A3DA
:10108000E58124FBF8E608F0A3E608F0A30808E6EB
:1010900008F0A3E608F0A315811581D0E0FED0E0AA
:1010A000F815811581E8C0E0EEC0E022C0D0251817
:1010B000C582C0E0E51934FFC583C0E0E518C395DB
:1010C0008224F310AF0885831985821880088583F0
:1010D00019858218D2AFC8F0A3E9F0A3EAF0A3EB18
:1010E000F0A37908E709F0A3D8FAECF0A3EDF0A398
:1010F000EEF0A3EFF0A3D0E0F0A3D0E0F0A3D0E0B7
:10110000F0A3E520F0A3E5F0F0A32285198385186C
:1011100082E0C0E0A3E0F9A3E0FAA3E0FBA3780833
:10112000E0F608A3DFFAE0FCA3E0FDA3E0FEA3E005
:10113000FFA3E0C0E0A3E0C0E0A3E0F5D0A3E0F5AA
:1011400020A3E0A3F5F010AF0885831985821880ED
:1011500008858319858218D2AFD082D083D0E0F879
:10116000D0E032851983851882E0A3FEE0A3F52044
:101170007808E0A3F608DFFAE0A3FFE0A3C0E0E010
:10118000A3C0E0E0A3C0E0E0A3C0E010AF08858208
:10119000188583198008858218858319D2AFD0837A
:1011A000D08222E490030278A179038002F0A3D8D0
:1011B000FCD9FA7AA27B0590008E782979018015F6
:1011C000E493A3AD82AE838A828B83F0A3AA82AB21
:1011D000838D828E83D8E9D9E7120AFA121343C0AD
:1011E00008C3E096F50808A3E096420808A3E09635
:1011F000420808A3E09645087001D3D00822C582B2
:101200002518C582C583351910AF07F519858218D1
:101210008007F519858218D2AFC583222518F5827B
:1012200010AF08F518400C15198008F51840021584
:1012300019D2AF8519832200C0D0251810AF08F548
:1012400018500C05198008F51850020519D2AFD0B6
:10125000D0226016080808C6C313C618C613C618DD
:10126000C613C618C613C6D5E0EA22251810AF0863
:10127000F518400C15198008F51840021519D2AF61
:1012800022E066701008A3E066700A08A3E06670AA
:101290000408A3E06622700422600D18C6C333C69A
:1012A00008C633C6D5E0F41822E627F60809E63763
:1012B000F60809E637F60809E637F622E026F608CA
:1012C000A3E036F608A3E036F608A3E036F622746B
:1012D000028000C0E0F40412121CD0E012132C2291
:1012E0002518FAE43519FB222518FCE43519FD22EE
:1012F000600C08C6C313C618C613C6D5E0F4227521
:10130000D00075813F7518027519030211A3E6F02C
:1013100008A3E6F008A3E6F008A3E6F022E0F6084A
:10132000A3E0F608A3E0F608A3E0F622CAC0E0E6D0
:10133000F0A308DAFAD0E0FA222518F582E435198C
:10134000F5832200000080FBFFFFFFFFFFFFFFFF90
:10135000FFFFFFFFFFFFFFFFFFFFFFFFFFFFFFFF9D
:10136000FFFFFFFFFFFFFFFFFFFFFFFFFFFFFFFF8D
:10137000FFFFFFFFFFFFFFFFFFFFFFFFFFFFFFFF7D
:10138000FFFFFFFFFFFFFFFFFFFFFFFFFFFFFFFF6D
:0A1FF600CA05094338860000000008
:020000040003F7
:01FFF000F020
:020000040000FA
:10200000022C560221FAFFFFFFFFFFFFFFFFFFFF39
:10201000FFFFFFFFFFFFFFFFFFFFFFFFFFFFFFFFD0
:10202000FFFFFFFFFFFFFFFFFFFFFF022904FFFF8E
:10203000FFFFFFFFFFFFFFFFFFFFFFFFFFFFFFFFB0
:10204000FFFFFF022759FFFFFFFFFFFFFFFFFFFF1B
:10205000FFFFFF022134FFFFFFFFFFFFFFFFFFFF36
:10206000FFFFFFFFFFFFFFFFFFFFFF02292DFFFF25
:10207000FFFFFFFFFFFFFFFFFFFFFFFFFFFFFFFF70
:10208000FFFFFF02218B01FFFFFFFFFFFFFFFFFFAD
:1020900010201020010105030101FF0F10FEFF2297
:1020A0004A00000000584900000000FF000000FF47
:1020B000000196511800020000813C000000001B46
:1020C0003CFF3C513CC93C0000453C000000000086
:1020D0000000000000000000000000000000000000
:1020E00000000006FFFFFF01010400BE1B0000000E
:1020F000E8030000FFFF8B1CE8030000640064009D
:10210000B801A0BB0D00A0BB0D000202000800003A
:1021100005020701051E02051E020A0A010808033E
:10212000B80B02803E0102FEFFE8030A050001FF32
:10213000FF0A01E0C0E074F2122576A2AFE433F5A5
:1021400008D2AFAFA7AEA1EE5F5410600612399F60
:1021500075A1EFEE5F540860081239A575A1F780EC
:1021600023EEA2E092F0EFA2E082F0501790619887
:10217000E0F8900B4FE0C398A2D265D0335002E84C
:10218000F075A1FE751A00E5088066C0E074F212D1
:102190002576A2AFE433FED2AF9061A4E0F8759B40
:1021A00000E59158540860087591F71239ED8023C5
:1021B000E59158541060087591EF1239F38014E5D9
:1021C00091A2E092F0E8A2E082F05007E0C2E0F0D5
:1021D000123B499061A3E0F8E5E9585404600E12FF
:1021E0003B1F75E9FB906193E0A2E640F2751A008F
:1021F000EEA2E092AF7F010225D5C0E074F2122575
:1022000076A2AFE433FED2AF9061A5E0F8E5BF5807
:102210005404600675BFFB123B6180D1C3E498F89B
:10222000E499F912225D8026C3E49AFAE49BFBE963
:1022300020E7E912225DE498F8E499F922C3E498D2
:10224000F8E499F912225DE498F8E499F9C3E49A64
:10225000FAE49BFB22EB20E7CFE920E7E0B900108E
:10226000BB0008E88AF084F8AAF022E4FBC8FA224E
:10227000EB70227B10C833C8C933C9335007C39AE7
:10228000C3DBF280069A50012ADBEAC833F4C8C9DE
:1022900033F4C9FA2275F008E4C833C8C933C93326
:1022A000C99AC99B5004C92AC93BD5F0ECFBC83375
:1022B000F4C8E4C9FA2274F512251074FA122AC778
:1022C0007508047509007808122A517404122AA7A7
:1022D0007AF87B0779031238797402122A2E9080DB
:1022E000EE7808122C667402122CF37808122AF386
:1022F00070497508027509007808122A5174021293
:102300002AA77AF67B0779031238797402122A2EEB
:10231000851882851983E0F47003A3E0F4601C85BE
:102320001882851983E0F8A3E0F988828983740212
:10233000F0A3F0A37469F0A374A5F0C2AF75D69FA3
:102340000200007406122A2E7F0402279C08080847
:10235000EAC0E0EBC0E086F0E7A4FA180986F0E7EF
:10236000A42AFA180986F0E7A42AFA180986F0E7E1
:10237000A42AFA1986F0E7A4FBE5F02AFA190886E0
:10238000F0E7A42BFBE5F03AFA190886F0E7A42B56
:10239000FBE5F03AFA18180986F0E7A4C5F02BFB24
:1023A000E43AFA1908E7C5F0C6A426F6E5F03BFBC7
:1023B000E43AFA1886F0E7A4F6E5F00826F6E43BDE
:1023C00008F6E43A08F6D0E0FBD0E0FA22E4CFC009
:1023D000E0E4CEC0E0E4CDC0E0E4CCC0E075F020A5
:1023E000E626F608E633F608E633F608E633F6188E
:1023F0001818EC33FCED33FDEE33FEEF33FFC3EC86
:102400009709ED9709EE9709EF97191919400FFFF2
:10241000EC97FC09ED97FD09EE97FE191906D5F02A
:10242000BFECF709EDF709EEF709EFF7191919D025
:10243000E0FCD0E0FDD0E0FED0E0FF222518C58210
:10244000C0E0E51934FFC583C0E0E518C3958224D8
:10245000F810AF088583198582188008858319854F
:102460008218D2AFCEF0A3E520F0A37808E608F0FA
:10247000A3DEFAEFF0A3E58124FAF8E608F0A3E67C
:1024800008F0A3E608F0A30808E608F0A3E608F0C1
:10249000A315811581D0E0FED0E0F81581158115D6
:1024A00081E8C0E0EEC0E022122CE8B9000302246B
:1024B000FAE49004D17867791A8002F0A3D8FCD9A5
:1024C000FA781A9020867A01BA00028007E493A372
:1024D000F608DAF97A377B1E90209478A17901808A
:1024E00015E493A3AD82AE838A828B83F0A3AA8284
:1024F000AB838D828E83D8E9D9E77582C17583F06D
:1025000074051229F575825575834774001229F5F3
:102510002518C582C0E0E51934FFC583C0E0E51881
:10252000C3958224F910AF08858319858218800825
:10253000858319858218D2AFCEF0A3E520F0A37869
:1025400008E608F0A3DEFAEFF0A3E58124FBF8E645
:1025500008F0A3E608F0A30808E608F0A3E608F0F0
:10256000A315811581D0E0FED0E0F815811581E832
:10257000C0E0EEC0E022C0D02518C582C0E0E51959
:1025800034FFC583C0E0E518C3958224F310AF087B
:102590008583198582188008858319858218D2AFB2
:1025A000C8F0A3E9F0A3EAF0A3EBF0A37908E709E8
:1025B000F0A3D8FAECF0A3EDF0A3EEF0A3EFF0A3B4
:1025C000D0E0F0A3D0E0F0A3D0E0F0A3E520F0A3AA
:1025D000E5F0F0A322851983851882E0C0E0A3E02E
:1025E000F9A3E0FAA3E0FBA37808E0F608A3DFFA7A
:1025F000E0FCA3E0FDA3E0FEA3E0FFA3E0C0E0A3B6
:10260000E0C0E0A3E0F5D0A3E0F520A3E0A3F5F05F
:1026100010AF088583198582188008858319858203
:1026200018D2AFD082D083D0E0F8D0E032E4730883
:1026300075F0108E218F228582268583258518824C
:10264000851983E0CEA3E0CF852682852583EBC95B
:10265000EAC8EDCBECCAC3E833C8E933C9EA33CAE8
:10266000EB33CBC3EA9EF524EB9FF523B35004ABC9
:1026700023AA24EC33CCED33CDD5F0DAAE21AF2252
:1026800022D083D082ECC0E0EDC0E0E493A3FCE470
:1026900093A3FDED4C600D1227DCEC24FFFCED3420
:1026A000FFFD80EFE493A3FCE493A3FDED4C600DEC
:1026B0001228AFEC24FFFCED34FFFD80EFD0E0FDED
:1026C000D0E0FCE493A3C0E0E493C0E0228519834A
:1026D000851882E0A3FEE0A3F5207808E0A3F608C1
:1026E000DFFAE0A3FFE0A3C0E0E0A3C0E0E0A3C006
:1026F000E0E0A3C0E0E0A3C0E010AF088582188549
:1027000083198008858218858319D2AFD083D0823F
:102710000229FBD083D082E9C0E0E493A3C386F012
:10272000C5F095F0F908E493A386F0C5F095F07034
:102730000BE493A3C3994005E9048002A3E475F078
:1027400002A42582F582E5F03583F583D0E0F9E433
:1027500093A3C0E0E493C0E022C0E074F2122576B7
:10276000A2AFE433FED2AFC2C0901D2FE0700BE5E4
:10277000D1A2E4501D1238FD8018E5D1A2E3500625
:1027800075D1F71238D3E5D1A2E4500675D1EF1216
:1027900038D9EEA2E092AF7F010225D58519838555
:1027A0001882E0A3FEE0A3F5207808E0A3F608DF96
:1027B000FAE0A3FFE0A3C0E0E0A3C0E0E0A3C0E034
:1027C000E0A3C0E010AF08858218858319800885D2
:1027D0008218858319D2AFD083D08222C0E0C3E4AF
:1027E0009396087401939618400FE4936670080856
:1027F000740193661870007019A3A3C3E49396083C
:102800007401939618A3A3400DD0E0D0E0D0E0026D
:1028100026BDA3A3A3A3A3A3D0E022D083D082C5C7
:10282000F0E493A3C5F0C395F0F5F0E493A3C3954A
:10283000F04005E5F0048001E475F002A42582F57E
:1028400082E5F03583F583E493A3C0E0E493C0E030
:10285000227404800474028000CCC0E0EDC0E0E586
:1028600018C39CCCAD1950011D10AF068C188D19E2
:1028700080068C188D19D2AF122977D0E0FDD0E0F8
:10288000FC2274028000CCC0E0EDC0E0E518C39CDF
:10289000CCAD1950011D10AF068C188D1980068C17
:1028A000188D19D2AF122955D0E0FDD0E0FC22C01E
:1028B000E0C0F088F0E4936670080874019366182D
:1028C0007000A8F0A3A3700BD0F0D0E0D0E0D0E06F
:1028D0000226BDA3A3D0F0D0E022D083D082CCC00A
:1028E000E0E493A360061229D61470FAE493A3607F
:1028F00006122ADD1470FAD0E0FCE493A3C0E0E4F1
:1029000093C0E022C0E0C0D0E8C0E0E9C0E0A9A8E0
:10291000D2AFC2C7751A00E9A2E7E433F8E9A2E72B
:1029200092AFD0E0F9D0E0F8D0D0D0E032C0E0747F
:10293000F2122576758900C2C5901D2FE0700E7ABF
:10294000007B10900BE5E0F9123E3180031245B197
:102950007F010225D5CAC0E0E493A3C582CCC5821D
:10296000C583CDC583F0A3C582CCC582C583CDC543
:1029700083DAE5D0E0CA22CAC0E0E0A3C582CCC5B4
:1029800082C583CDC583F0A3C582CCC582C583CD66
:10299000C583DAE6D0E0CA2270090808082260166A
:1029A000181818C6C333C608C633C608C633C608C7
:1029B000C633C6D5E0EA22C008C3E096F50808A3EE
:1029C000E096420808A3E096420808A3E09645086E
:1029D0007001D3D00822C0E0E493A3D39C5010E44C
:1029E00093A3C39C400AD0E0D0E0D0E00228F7A334
:1029F000A3A3D0E022C09FF59FE473D09F22D08391
:102A0000D082C09FE493C0E0740193C0E07402934D
:102A1000F59F222518F58210AF08F518400C1519FE
:102A20008008F51840021519D2AF8519832200C01D
:102A3000D0251810AF08F518500C05198008F518A6
:102A400050020519D2AFD0D0227404800A740380DA
:102A500006740280027401C0E0F404122A13D0E06C
:102A6000122C9322BB0102E722C082C08389828A92
:102A700083BB0003E08002E493D083D082226016FF
:102A8000080808C6C313C618C613C618C613C61846
:102A9000C613C6D5E0EA222518F8E43519F922252F
:102AA00018FAE43519FB222518FCE43519FD22C378
:102AB000E0C696F608A3E0C696F608A3E0C696F62A
:102AC00008A3E0C696F622251810AF08F518400CAA
:102AD00015198008F51840021519D2AF22C0E0E49C
:102AE00093A36C7009D0E0D0E0D0E00228F7A3A354
:102AF000D0E022E066701008A3E066700A08A3E048
:102B000066700408A3E06622E76670100809E766AD
:102B1000700A0809E76670040809E76622C3E096B0
:102B200008A3E09608A3E09608A3E096A2D265D099
:102B30003322C3E697F60809E697F60809E697F602
:102B40000809E697F622C3E096F008A3E096F0089D
:102B5000A3E096F008A3E096F022E627F60809E63F
:102B600037F60809E637F60809E637F622E026F6D2
:102B700008A3E036F608A3E036F608A3E036F6220E
:102B8000E026F008A3E036F008A3E036F008A3E062
:102B900036F022E493F608740193F608740293F673
:102BA00008740393F622E647F60809E647F6080993
:102BB000E647F60809E647F622E657F60809E6571B
:102BC000F60809E657F60809E657F622E056F60831
:102BD000A3E056F608A3E056F608A3E056F622E076
:102BE00056F008A3E056F008A3E056F008A3E0561C
:102BF000F022700422600D18C6C333C608C633C65F
:102C0000D5E0F41822E4C396F608E496F608E496B4
:102C1000F608E496F622C6F4C608C6F4C608C6F45A
:102C2000C608C6F4C622600D08C6A2E713C618C6B9
:102C300013C6D5E0F322C3E7960809E7960809E72B
:102C4000960809E79622C3E09608A3E09608A3E059
:102C50009608A3E0962275D00075813F7518D1754E
:102C60001904000224A8E0F608A3E0F608A3E0F6A1
:102C700008A3E0F622600C08C6C313C618C613C624
:102C8000D5E0F422E6F008A3E6F008A3E6F008A3F6
:102C9000E6F022CAC0E0E6F0A308DAFAD0E0FA22B1
:102CA000E0F8A3E0F9A3E0FAA3E0FB22E0FCA3E054
:102CB000FDA3E0FEA3E0FF22EAF0A3EBF0A3ECF01B
:102CC000A3EDF022E0FAA3E0FBA3E0FCA3E0FD22E9
:102CD000ECF0A3EDF0A3EEF0A3EFF022E8F0A3E90F
:102CE000F0A3EAF0A3EBF022E5C754F84401F5C7DE
:102CF0007901222518F582E43519F583221229FE7F
:102D00001EA5021229FE4FA6021229FE8BA6021250
:102D100029FE65A8021229FE22AC021229FE36AC59
:102D2000021229FE40AC021229FE4AAC021229FE10
:102D300054AC021229FE5EAC021229FE77AC0212DC
:102D400029FE81AC021229FEF8AC021229FE03AD65
:102D5000021229FE32AD021229FE5AAD021229FEDC
:102D600065AD021229FECAAD021229FED4AD0212CF
:102D700029FEDFAD021229FE03AE021229FE27AEA4
:102D8000021229FE99AE021229FEE2AE021229FEBB
:102D9000FEAE021229FE6FAF021229FEBBAF021275
:102DA00029FE04B0021229FE42B0021229FEC3B06D
:102DB000021229FE6AB1021229FE2FB3021229FE65
:102DC00094B3021229FEC2B4021229FEE8B4021220
:102DD00029FE30B6021229FE6AB9021229FE68BB2A
:102DE000021229FE33BD021229FECCBD021229FEB9
:102DF000CDBF021229FE82C0021229FEBBC0021200
:102E000029FE2BC1021229FE35C1021229FE5EC322
:102E1000021229FE61C4021229FE9EC5021229FE79
:102E2000F5C5021229FEA0C6021229FE50C80212E0
:102E300029FE9DC9021229FEBDC9021229FE12CA2D
:102E4000021229FE13CB021229FE3BCB021229FEED
:102E50009ACB021229FE92CC021229FE09CD02124F
:102E600029FE1CCE021229FE8ACE021229FE89CF2B
:102E7000021229FEE3D1021229FE0CD2021229FE0F
:102E800072D3021229FEF4D4021229FE4BD502128B
:102E900029FEF9D5021229FE9ED6021229FE01D77B
:102EA000021229FEBFD7021229FE51D8021229FEB2
:102EB000B0D8021229FEF2D8021229FE23D902123A
:102EC00029FE7ADA021229FE0080031229FE3280DE
:102ED000031229FE6B80031229FE3482031229FE9D
:102EE0007882031229FE4C83031229FEAB8303125E
:102EF00029FEC184031229FE0D85031229FE9B873A
:102F0000031229FE7F8A031229FEC68B031229FEB3
:102F10005E8C031229FE6A8C031229FEB18C031207
:102F200029FEF38D031229FEE98E031229FE138F69
:102F3000031229FE698F031229FEC28F031229FE94
:102F40003590031229FE6B92031229FEED930312B2
:102F500029FED294031229FE1C96031229FE5498CE
:102F6000031229FE519B031229FE609B031229FEC6
:102F7000F49B031229FE9F9C031229FEE29C03127C
:102F800029FE2B9D031229FE7B9D031229FEDF9D46
:102F9000031229FE519E031229FE6D9E031229FE83
:102FA0009C9E031229FEDB9E031229FED69F03126C
:102FB00029FE85A0031229FE02A3031229FE34A4D0
:102FC000031229FE0CA5031229FE8EA5031229FE69
:102FD000C3A9031229FEF2A9031229FE4DAA031266
:102FE00029FE80AA031229FE04AB031229FE54AB6A
:102FF000031229FEC1AC031229FEE5AC031229FE1F
:103000001CAD031229FE29AD031229FE2CAD0312BB
:1030100029FE5BAD031229FE53AF031229FE12B045
:10302000031229FE3EB0031229FEF2B1031229FE5B
:10303000F5B1031229FE68B2031229FE8CB4031203
:1030400029FEEBB4031229FE3FB5031229FE64B733
:10305000031229FE62B8031229FE46B9031229FEA3
:10306000D0B9031229FEE4B9031229FE11BA0312E2
:1030700029FE41BA031229FEEDBC031229FE5FBDF1
:10308000031229FED2BE031229FEF0BE031229FE4E
:103090003781011229FE7981011229FEE68601128B
:1030A00029FE3287011229FE7887011229FEC9887C
:1030B000011229FE2E89011229FE7289011229FEB0
:1030C000D88A011229FE338E011229FE668F011261
:1030D00029FEF59A011229FE859B011229FE6F9E99
:1030E000011229FED49F011229FE37A0011229FEE8
:1030F00053A1011229FEBDA2011229FE9CA30112B7
:1031000029FE0AA6011229FE9CA7011229FE2DA85C
:10311000011229FE4CA9011229FED9A9011229FE8A
:10312000E3A9011229FE0BAA011229FEAEAA01127F
:1031300029FE99AB011229FE61AC011229FEEEAC09
:10314000011229FE04AD011229FE21AD011229FE52
:103150004AAD011229FE77AD011229FEBBAF011263
:1031600029FE8EB0011229FED2B0011229FE54B1FF
:10317000011229FEF5B1011229FE27B2011229FE22
:103180006EB2011229FEA1B2011229FEE5B20112AE
:1031900029FE34B3011229FE39B3011229FE95B379
:1031A000011229FED9B3011229FEC3B4011229FE6E
:1031B00028B5011229FE86B5011229FE05B60112B5
:1031C00029FE7DB9011229FE80BA011229FE16BC22
:1031D000011229FE59BF011229FEFBBF011229FE6F
:1031E00044C2011229FEFFC2011229FE3EC3011290
:1031F00029FE02C5011229FE1FC5011229FE28C59C
:10320000011229FE31C5011229FE3CC5011229FE19
:103210005BC5011229FE7FC7011229FEDCC701121E
:1032200029FEE6C7011229FEF0C7011229FE53C884
:10323000011229FEAFC8011229FEBCC9011229FEE4
:103240001DCA011229FE2ECB011229FE77CB0112D5
:1032500029FE41CC011229FE58CD011229FE1CCEB7
:10326000011229FE68CF011229FE6CD0011229FE3D
:1032700065D1011229FE7DD1011229FEB4D10112BE
:1032800029FEBED1011229FEC8D1011229FED3D1D7
:10329000011229FEF1D1011229FE39D2011229FEB3
:1032A00097D2011229FEBED2011229FED0D20112FC
:1032B00029FE79D3011229FEB2D3011229FEE3D4EB
:1032C000011229FE40D5011229FE31D6011229FE34
:1032D00067D6011229FED7D6011229FE53D7011253
:1032E00029FED4D8011229FEFBD9011229FEBDDA2C
:1032F000011229FE8BDB011229FE10DC011229FECE
:10330000BFDC011229FEA7DD011229FE40DE0112F9
:1033100029FE1CDF011229FE84DF011229FE43E091
:10332000011229FE9FE0011229FE03E1011229FE8C
:10333000C9E1011229FEECE1011229FEA6E2011207
:1033400029FEC8E2011229FE29E3011229FE59E5EE
:10335000011229FE52E6011229FEFEE6011229FEA3
:103360001BE9011229FE64E9011229FEAFE90112ED
:1033700029FE0BEA011229FE69EA011229FE8DEAF3
:10338000011229FEB1EA011229FEE6EA011229FE24
:103390000EEB011229FE53EB011229FEB1EB0112D3
:1033A00029FE0AEC011229FE04ED011229FEB0EEFD
:1033B000011229FEF5EE011229FE1EEF011229FE6F
:1033C000A7EF011229FE1AF0011229FE28F00112BE
:1033D00029FE4CF0011229FEA2F0011229FEBDF0D7
:1033E000011229FE78F1011229FEA4F1011229FE31
:1033F00007F2011229FE17F4011229FE43F401120B
:1034000029FEFEF4011229FEE2F5011229FE76F6EC
:10341000011229FEB1FF011229FEF0FF011229FE5F
:1034200071BF031229FE1AC0031229FEF9C003124C
:1034300029FE05C2031229FE25C2031229FE47C335
:10344000031229FEF7C4031229FE64C5031229FEE4
:1034500035C6031229FE3BC7031229FEB3C7031268
:1034600029FEEEC7031229FE47C8031229FE82C8AF
:10347000031229FECBC8031229FE5FC9031229FEDD
:10348000F5C9031229FECACA031229FE9DCB0312F5
:1034900029FE2BCC031229FE51CC031229FE7ECC2F
:1034A000031229FEAFCC031229FE7CCD031229FEA4
:1034B0008CCD031229FEDFCD031229FEECCD0312C1
:1034C00029FEF9CD031229FE02CE031229FE66CE93
:1034D000031229FEC4CE031229FE0FCF031229FEC8
:1034E0002ACF031229FE51CF031229FE6ECF0312F9
:1034F00029FE7ACF031229FE0BD1031229FE24D113
:10350000031229FEA0D1031229FEB3D1031229FE12
:10351000C3D1031229FE67D2031229FED3D30312AB
:1035200029FEE6D4031229FE86D5031229FE90D582
:10353000031229FE0FD6031229FE20D6031229FEFC
:103540005FD6031229FE8DD6031229FE5AD7031225
:1035500029FEB1D7031229FEEAD7031229FE40D86B
:10356000031229FE5ED8031229FEACD8031229FEED
:1035700077D9031229FEC5D9031229FE12DA0312E4
:1035800029FE95DA031229FEBFDA031229FEF5DAC5
:10359000031229FE04DB031229FE63DB031229FE5A
:1035A000DBDB031229FE1CDC031229FE6CDC031298
:1035B00029FE97DC031229FEB1DC031229FECBDCC5
:1035C000031229FEA0DD031229FEAADD031229FE43
:1035D000E5DD031229FEF5DD031229FEFEDD0312EF
:1035E00029FE4FDE031229FE63DE031229FE85DF6A
:1035F000031229FE98DF031229FEAFDF031229FE12
:10360000C4DF031229FE57E0031229FECBE00312A8
:1036100029FE70E1031229FE7BE1031229FEDEE29E
:10362000031229FEFAE2031229FE46E3031229FEE1
:10363000B4E3031229FEE6E3031229FE00E40312B9
:1036400029FE60E4031229FEFFE4031229FE4AE585
:10365000031229FE9DE7031229FE35E8031229FE15
:10366000ACE8031229FE09EB031229FE21EB031239
:1036700029FE24EB031229FE30EB031229FE44EB52
:10368000031229FE4CEB031229FE83EB031229FEE1
:1036900077EC031229FE01ED031229FE83ED0312DC
:1036A00029FE03EE031229FEDAEE031229FEFCEED8
:1036B000031229FE95EF031229FEF2EF031229FEF1
:1036C000F5EF031229FE22F0031229FE37F0031250
:1036D00029FEA6F0031229FEF2F1031229FE05F3DA
:1036E000031229FE90F3031229FEA3F4031229FE0C
:1036F0006AF5031229FE9BF5031229FEC1F5031298
:1037000029FECAF5031229FEF9F5031229FEA9F6CE
:10371000031229FE59F7031229FECCF7031229FEE2
:103720006FF8031229FEE2F8031229FE21F90312B1
:1037300029FE6AF9031229FE9FF9031229FEE4D833
:10374000041229FE51D9041229FE98D9041229FE27
:103750000EDA041229FE60DA041229FEE6DA0412F7
:1037600029FE2ADD041229FE59DF041229FE36E360
:10377000041229FEB6E3041229FEF1E3041229FE25
:103780000FE4041229FE6FE4041229FE97E40412E8
:1037900029FEC7E4041229FEF8E4041229FE25E5F7
:1037A000041229FE7EE5041229FEC9E5041229FE51
:1037B00000E6041229FE7CE6041229FEA8E60412A3
:1037C00029FEDAE6041229FE3CE8041229FE58E834
:1037D000041229FE96E8041229FE23E9041229FEA8
:1037E0007FE9041229FE45EA041229FE04EB0412C3
:1037F00029FE49EB041229FEAAEB041229FE1FEC54
:10380000041229FE59EC041229FEB1EC041229FE1F
:10381000D3EC041229FE6BED041229FE12EE041201
:1038200029FE5FEE041229FE88EE041229FEC9EE7D
:10383000041229FE76F0041229FE5AF1041229FE20
:103840000BF2041229FEA4FD051229FEB5FD051296
:1038500029FE53FE051229FEFDFF011229FEC8FFB5
:10386000031229FE6DFE051229FE7DFE051229FEBA
:1038700092FE051229FE23FF051229FEAEFB05125A
:1038800029FE32FC051229FE98FC051229FEFAFFDA
:10389000011229FEAFFF031229FEBFFF031229FE0A
:1038A000C2FF031229FEC5FF031229FEF87F001292
:1038B00029FEADEE051229FECFEE051229FE3AF0E3
:1038C000051229FEBEF0051229FED0FF021229FEC4
:1038D000D9FF021229FEE2FF021229FEF0FF0212B6
:1038E00029FE0AFA031229FE76FA031229FE3EFB8C
:1038F000031229FE33FC031229FE20FE031229FEC7
:103900007AFE031229FECDFE031229FEDEFE03120B
:1039100029FEF0FE031229FE5CFF031229FE70FF50
:10392000031229FE7BFF031229FE89FF031229FEE1
:103930009BFF031229FEB7A8051229FEE3A8051272
:1039400029FE89AB051229FEE0AB051229FE1CAC4D
:10395000051229FE30AC051229FE49AC051229FEDC
:10396000DE9C021229FE16AE051229FE2AAE0512B1
:1039700029FEADF2051229FED1F2051229FEEAF266
:10398000051229FE28F3051229FE5EF3051229FE11
:1039900091F3051229FE9BF3051229FE07F4051287
:1039A00029FE0AF4051229FE14F4051229FE21F459
:1039B000051229FEE4E4051229FE07E5051229FE99
:1039C0009FA4021229FE70E5051229FE8BE505125F
:1039D00029FEF1E5051229FEFDE5051229FE5AE64C
:1039E000051229FE7EE6051229FE44E7051229FE8E
:1039F00051E7051229FE62E7051229FE4D810612E4
:103A000029FE6581061229FE9181061229FED5B88C
:103A1000051229FE39BA051229FE47BA051229FEF8
:103A20005BBA051229FE78BA051229FE8DBA051275
:103A300029FEA0BA051229FE22BB051229FE88BB69
:103A4000051229FE11BC051229FE89BC051229FEAA
:103A500062BD051229FE72BD051229FE81BD051247
:103A600029FEB480061229FED880061229FE0081A4
:103A7000061229FE2881061229FE90E7051229FE6A
:103A8000B7E7051229FED6E7051229FE4BE8051215
:103A900029FE11E2051229FE2AE2051229FE41E261
:103AA000051229FE4AE2051229FE68E2051229FEE6
:103AB00072E2051229FE7CE2051229FE8FE2051250
:103AC00029FE1CE3051229FE8BE3051229FEB9E34A
:103AD000051229FE0AE4051229FE56E4051229FE04
:103AE00071E4051229FE7BE4051229FE8CE405121F
:103AF00029FECFE4051229FEDA81061229FE25826D
:103B0000061229FE2697051229FE5297051229FE54
:103B10007597051229FE8897051229FEA3970512AD
:103B200029FE0798051229FE3598051229FE429CA8
:103B3000051229FE849D051229FEB69D051229FE57
:103B4000219E051229FEA59F051229FECD9F051273
:103B500029FEE29F051229FEF29F051229FE32A0DE
:103B6000051229FE74A0051229FE84A0051229FE63
:103B7000F2F6051229FE02F7051229FE26F70512B4
:103B800029FE4FF7051229FE79F7051229FE9DF748
:103B9000051229FEB4F7051229FEE2F7051229FEE7
:103BA00005F8051229FE33FF051229FE79FF0512DB
:103BB00029FEC6D7051229FED6D7051229FEF4D84C
:103BC000051229FE28D9051229FE4AD9051229FE17
:103BD00072D9051229FE8BD9051229FEC7D9051203
:103BE00029FE2DDA051229FE72DA051229FEB7DA4E
:103BF000051229FEE4DA051229FE1CDB051229FE56
:103C000001D0051229FE63D0051229FE0AD1051242
:103C100029FE42D1051229FEBFCB041229FE6ECC2B
:103C2000041229FEA2CE041229FE75D1041229FE27
:103C3000F5D2041229FE57D3041229FE62D60412CB
:103C400029FEA6D7041229FE3DF8051229FE88F8A0
:103C5000051229FE66B3051229FE25B6051229FEB6
:103C6000C2B6051229FEEEB6051229FE1CB70512D2
:103C700029FE51B7051229FE79B7051229FED9B7D9
:103C8000051229FE0080051229FEE983051229FE8E
:103C9000E085051229FE0E87051229FEEA87051226
:103CA00029FE9589051229FE308B051229FEFD8B10
:103CB000051229FE518C051229FE1DEA051229FE66
:103CC00027EA051229FE48EA051229FEF8F2041235
:103CD00029FE1FF8041229FE4EF9041229FE2AFBC0
:103CE000041229FE23FC041229FE5AFD041229FEA7
:103CF00067FE041229FE4CFF041229FE0080041204
:103D000029FE3880041229FE448A041229FE2E8BD3
:103D1000041229FE7E8C041229FEC98D041229FE8C
:103D2000748E041229FE478F041229FEDE8F0412BE
:103D300029FEC290041229FEC591041229FE879221
:103D4000041229FEB592041229FE2D94041229FEB4
:103D5000B694041229FECF94041229FE2996041267
:103D600029FEDB96041229FE6A97041229FE19988F
:103D7000041229FE7C98041229FE1899041229FEC7
:103D80009199041229FEAF99041229FE7C9A04121B
:103D900029FE4B9B041229FE019C041229FE2BF4E0
:103DA000051229FE55F4051229FE67F5051229FEB4
:103DB0006AF5051229FE487F001229FE9B7F00123A
:103DC00029FEDD7F001229FEED7F001229FE4AF94F
:103DD000021229FE91F9021229FEFAF9021229FEB5
:103DE0001BFA021229FE34FA021229FEE4FA021228
:103DF00029FEEDFA021229FE3EFB021229FE74FB97
:103E0000021229FE8BFB021229FEF8FB021229FE88
:103E100088FC021229FEBEFC021229FE07FD0212D6
:103E200029FE68FD021229FEA2FD021229FE0AFEE9
:103E3000021229FE5DFE021229FEA0FE021229FED8
:103E4000DDFE021229FEEFFE021229FE01FF021220
:103E500029FE3BFF021229FE7BFF021229FEB2BDA2
:103E6000051229FEF8BE051229FE21BF051229FE02
:103E700032BF051229FE4AC1051229FE6AC1051288
:103E800029FE69EC051229FE9FEC051229FEEEECD5
:103E9000051229FE4AEE051229FEADB7041229FECD
:103EA000EBB8041229FE27B9041229FEECBA041259
:103EB00029FE16BB041229FE9CBD041229FEDCBD9E
:103EC000041229FE72BF041229FE07C0041229FE43
:103ED00065C0041229FEEBC0041229FE23C104129E
:103EE00029FE65C1041229FED2C2041229FE56C45D
:103EF000041229FE90C6041229FEBEC6041229FE31
:103F0000EAC6041229FEF3C6041229FE49C70412A8
:103F100029FED9C7041229FEE0CA041229FE62CB89
:103F2000041229FE0080061229FE1680061229FEC0
:103F30002080061229FE7C80061229FE88C7051201
:103F400029FEA1C7051229FE46C8051229FE86C80A
:103F5000051229FE9FC8051229FED2C8051229FEA6
:103F60001FC9051229FE53C9051229FE95C905125C
:103F700029FE6ECB051229FED9CB051229FE71F957
:103F8000051229FEC6F9051229FE20FA051229FE9E
:103F90009BFA051229FE0DFB051229FE4BFB0512AB
:103FA00029FE8CFB051229FEB4A0051229FEBAA039
:103FB000051229FE01A1051229FE0DA3051229FEF5
:103FC0003DA3051229FEA7A3051229FE62A405122E
:103FD00029FEA5A4051229FED6A4051229FE60A576
:103FE000051229FE77A5051229FE84A5051229FED2
:103FF0008EA5051229FE2EA7051229FE20A805125E
:1040000029FE7EA8051229FE37F7011229FE4DF779
:10401000011229FEFFF7011229FE29F9011229FEDA
:104020001EFA011229FEB5FA011229FEF0FA011258
:1040300029FE62FB011229FEC0FB011229FED0FB02
:10404000011229FEF7FB011229FE49FC011229FE8B
:10405000B5FD011229FEBAFD011229FEDCFD011297
:1040600029FED6DA021229FE2EDB021229FEABDC73
:10407000021229FE68DD021229FE7FDD021229FEEE
:10408000CEDD021229FE42DE021229FE55DE0212A8
:1040900029FEA3DE021229FE12DF021229FE85E1AB
:1040A000021229FE92E2021229FEEDE2021229FE1C
:1040B00083E5021229FE04E6021229FE46E60212F8
:1040C00029FE20E7021229FE59E7021229FEA4E781
:1040D000021229FEBAE7021229FE75E8021229FE31
:1040E00043E9021229FE4EE9021229FE9CE902125E
:1040F00029FEF1E9021229FE3DEA021229FE9AEB9D
:10410000021229FEC4EB021229FE57EE021229FE0A
:1041100081EE021229FE8FEF021229FEBEEF02127B
:1041200029FE30F0021229FE5BF0021229FE9DF0FA
:10413000021229FE11F1021229FE2FF2021229FEAB
:104140007CF2021229FE86F2021229FE89F2021284
:1041500029FE93F2021229FEAFF2021229FE2FF37A
:10416000021229FE68F3021229FE84F3021229FECC
:10417000B0F3021229FED7F3021229FEFBF302125A
:1041800029FE74F4021229FEE7F4021229FE2AF530
:10419000021229FE34F5021229FE63F5021229FEED
:1041A00079F5021229FE95F5021229FEC4F50212D4
:1041B00029FEE4F5021229FE2DF6021229FE68F608
:1041C000021229FE74F7021229FECEF8021229FE0D
:1041D000EDF8021229FE05F9021229FE17F9021262
:1041E00029FEB1FC051229FEC2FC051229FE4BFD79
:1041F000051229FE3EAE051229FE7CAE051229FEEF
:1042000015AF051229FE20B0051229FE68B205126D
:1042100029FEE5B2051229FE0F78001229FE5E780C
:10422000001229FE1C7A001229FEF07B001229FEE2
:104230002E7C001229FE0F7D001229FE197E00122D
:1042400029FE3B7E001229FE977E001229FE187F70
:10425000001229FE1B4D001229FE3D4D001229FEC1
:10426000AC4E001229FEF54E001229FE664F0012D8
:1042700029FEE94F001229FE6050001229FEA750C6
:10428000001229FE1E51001229FEBF51001229FE04
:104290003452001229FE7152001229FEB456001247
:1042A00029FED558001229FE0E59001229FE605928
:1042B000001229FE615C001229FEF15C001229FE49
:1042C000A55E001229FED35F001229FEFF600012D6
:1042D00029FE6A61001229FE4B62001229FEA962C2
:1042E000001229FEAC62001229FE7263001229FE40
:1042F000BB64001229FEEA66001229FEF96800126A
:1043000029FEE169001229FE786C001229FE516D28
:10431000001229FE906E001229FEC071001229FEC3
:10432000D071001229FE1673001229FEAF7300121D
:1043300029FEE274001229FE5075001229FE7B76D8
:10434000001229FEB676001229FE5F77001229FEC0
:10435000C69C041229FE689D041229FED49D0412F5
:1043600029FEEE9D041229FE709E041229FEAA9ECB
:10437000041229FEAC9F041229FEEE9F041229FEAE
:1043800060A0041229FEB0A0041229FE0FA104129D
:1043900029FEBBA1041229FEA5A4041229FE6CA5C6
:1043A000041229FED2A5041229FE7AA7041229FEBE
:1043B00013A8041229FEACA8041229FE0FA90412A6
:1043C00029FE85A9041229FE86AA041229FE77ABCC
:1043D000041229FEB2AB041229FEC9AB041229FE55
:1043E000A7AC041229FEE5AC041229FE6DAD04123F
:1043F00029FEBAAE041229FE7EB0041229FEBCB119
:10440000041229FEEFB2041229FE03B4041229FE9D
:104410009AB4041229FE09B5041229FE16B6041234
:1044200029FE6F8C051229FEDA8C051229FE228DD9
:10443000051229FE898D051229FEE58D051229FE3A
:10444000208E051229FEBC8E051229FE168F05123C
:1044500029FE8290051229FE0991051229FE4A9132
:10446000051229FE7591051229FEF691051229FE05
:104470003E92051229FE6492051229FEB69305129A
:1044800029FEBB93051229FE3294051229FE9E9443
:10449000051229FE9995051229FE8596051229FE19
:1044A00070DB051229FEB3DC051229FE7BDD051247
:1044B00029FED0DD051229FE56DE051229FEE6CBC7
:1044C000051229FE04CC051229FE48CC051229FE4E
:1044D0006ECC051229FE95CC051229FEADCC051235
:1044E00029FEC5CC051229FEDDCC051229FE83CD9F
:1044F000051229FEC5CD051229FEDACD051229FEC9
:10450000E1CE051229FEFCCE051229FE05CF0512CB
:1045100029FE0ECF051229FE17CF051229FE21CF45
:10452000051229FE9ECF051229FEBEC2051229FEE4
:1045300000C7051229FE1CC7051229FE21C7051256
:1045400029FE33F1051229FEFCD3051229FE12D4EF
:10455000051229FEB0D5051229FEFBD5051229FE4C
:1045600067D6051229FE66D7051229FE95D70512D2
:1045700029FEA7D7051229FE97F5051229FEEADEC6
:10458000051229FE46DF051229FE86DF051229FEE7
:1045900088E0051229FEA0E0051229FEB2E005120E
:1045A00029FEDEE0051229FE15E1051229FE25E1AE
:1045B000051229FE3BE1051229FE60E1051229FEE4
:1045C000EEE1051229FEA4FF021229FEB99C021297
:1045D00029FEC99B021229FE559B021229FEBE9A92
:1045E000021229FE4C9A021229FE3B9A021229FE5F
:1045F000169A021229FE3299021229FE4E980212D0
:1046000029FE6495021229FE2194021229FE889146
:10461000021229FE4391021229FEE990021229FE9C
:104620004A90021229FEF58F021229FE228F0212F1
:1046300029FE5C8E021229FE208E021229FEB38D05
:10464000021229FEAB8D021229FE208D021229FED4
:10465000B08C021229FE64A3021229FE018C021200
:1046600029FE54A3021229FE28A2021229FE46A006
:10467000021229FE3DA0021229FE3A9F021229FED3
:10468000B29E021229FEA39E021229FE309E021241
:1046900029FEF68B021229FEE78B021229FEC68B39
:1046A000021229FE928B021229FE149E021229FE8A
:1046B000668B021229FE388A021229FE2C88021209
:1046C00029FEFD87021229FE52E5051229FEE18727
:1046D000021229FEF69D021229FE8B87021229FE84
:1046E0005287021229FECA86021229FE7E86021213
:1046F00029FE3786021229FE6A85021229FEEE84FF
:10470000021229FE4684021229FE9F83021229FE0C
:104710004183021229FE1683021229FEC782021269
:1047200029FE8982021229FE6682021229FE4D822A
:10473000021229FE0582021229FE4F81021229FE71
:104740000080021229FEC380021229FE5780021245
:1047500029FE3AAD0500000080FB8F000100221DFC
:1047600087000100211D350004009B1E250002006A
:104770009F1E26000200A11E27000200A31E280083
:104780000100AD1E29000100AE1E84000400AF1E12
:1047900086000100B31E2A000100B41E2B00010098
:1047A000B51E2C000100B81E2D000800031D2E00B0
:1047B0000100B91E2F000100BA1E30000100BB1E0F
:1047C00031000100BC1E320001000B1D330001004E
:1047D0000C1D34000100BD1E360001000D1D380007
:1047E0000100BE1E39000100B71E83000200D21E68
:1047F000630001001E1D64000100FA1C6500010039
:10480000B61E6D0001001F1D71000800FB1C660034
:104810000100D11E43000100C21E44000200C31E5D
:1048200045000100C51E46000200C61E47000800E4
:10483000161D48000100C81E4B000100C91E0400DF
:104840000100D41EA1000100D61E37000100D51EB4
:1048500088000100231D3C0001000E1D3D000100E9
:10486000BF1E49000200CA1E67000100201D4D0046
:104870000200CC1E4E000100CE1E4F000200CF1ED3
:104880003E000100151D510001000F1D52000100E6
:10489000C01E53000100C11E54000100101D000085
:1048A0000000000000013636010100010201000194
:1048B000030100010401060605020000070100349F
:1048C0000801000F090401010D0100FF0E0800009E
:1048D00017020000190100FF1A0100011B0100FE70
:1048E0001C0100081D0200001F0100012001000141
:1048F000210200002301000F240200002601000114
:1049000027010008280200FF2A0100072B010240AE
:104910002C0100002D0100012E0100012F0100FFDC
:1049200030010B1D310800003A0100083B01000F67
:104930003C0100013D0100FF3E0400004204000074
:10494000460400004A0400004E0400005204000027
:10495000560400005A04000001037103010301031F
:1049600001030103010322030203010310030003F7
:1049700000030003000300030003000342030003DD
:104980002403060300030003040312032503230387
:10499000250323030403040300030003000344036B
:1049A0000003000323030003650321003503810393
:1049B0000003050300030003000300032503230392
:1049C000030471040204600411047004020402046C
:1049D0000104020410046104000414046304730459
:1049E0007204620443040004130406040004000477
:1049F00004041204000400040004000451046400D0
:104A00000004000400044404000400040004000442
:104A10006504000435048104640005040004830473
:104A200000040300710030016000110070003102C9
:104A30002003500480001000610000001400630097
:104A400073007200620043000000130006000000C3
:104A5000000004001200000000000000000004003C
:104A60000400370037003C02440000000000000052
:104A70000000650000003500810000000500000016
:104A80008300000001017101010101011101010117
:104A90003101010101018001100161013B0014009D
:104AA00063017301720162014301000113010601F8
:104AB0003D01350004011201000100010001000167
:104AC00004010401330133013C0144013201360089
:104AD00000010001650100013500810100010501AF
:104AE00082018301000103027102300160021102A0
:104AF00070020102020202028002100261023A0008
:104B00004100630273027202620243020002130256
:104B10003800000200020402120200020002000239
:104B2000000204020402370037003C024402000283
:104B30003900000200026502000235028102000213
:104B40000502820283020002360001000600000016
:104B50000F0000000000000000000000000003FF44
:104B6000FF00000403FFFF0000FFFF0FF40100053A
:104B7000C4040320000100000B000000000000003E
:104B80000003010F00000000000000000000000012
:104B90000000000000000000000000000000000015
:104BA00000000000000000008F431300ED421F00D2
:104BB000F3421F80F94201008F4302007542030057
:104BC0007B42040081420500874206009342300088
:104BD000B1423100AB423200BD423300C342350026
:104BE000C9423400CF423600D5421100E1421400E0
:104BF000E7421500A542FFFF00000A000000020086
:104C00000000040000000800000010000000200068
:104C100000004000000080000000000100000002D1
:104C20000000000400000008000000100000002048
:104C300000000040000001D530060B310805310BA3
:104C4000233110772E0A353102DB3005F93007E1C8
:104C5000300CBD300DC930641D46FF000007ECFD6F
:104C6000FDFDECDCDCCCBCACAC9C9C8C7C7C6C6C32
:104C70005C5C5C4C4C3C3C2C2C1C1C03EAF5E5D5E4
:104C8000D5C5B5A595958585757565655555454514
:104C90003535252515150500160F00000B150B02DF
:104CA0000002220F3300000E0C0E020B040B0A0749
:104CB00008000F0001191618161618230300000328
:104CC0004A49434E181A2505023030161819202378
:104CD0001A1C1E3000393D3F373C3C362C442D30E9
:104CE0003017181921301B1D1F3002040201010169
:104CF00001090200BE040A7F00E8030E0000000064
:104D0000000C08100C0A1503090900040003FF1E1B
:104D10001E01050C04040810050328C082C08390FE
:104D20001C83E4F0A3F07CED7D047A9E7B1B123F94
:104D30009F1245ED122EC51245E7026CF974F3126D
:104D4000243C74F5122AC789098A088B0A8C0BE95E
:104D5000705F74026508703F79081241C7750C00D6
:104D6000780C122A55E50BF50C780C122A55E50A39
:104D7000F50C780C122A55901BBA122851901EB3CC
:104D8000E0F97C167D1D901ED2126D0612395D74FD
:104D900007122A2E024E74740165086003024E79D0
:104DA00079081241C77B00AA0AA90A12465F024E7F
:104DB00074740165096009740265096003024E7923
:104DC000EA600674036508704779021241C7901EB5
:104DD000B3E0F9901BBA122CC41245D5E9F9901B27
:104DE000C7E0A2E34010E9700D901C87E004F06476
:104DF000047003124E9A74036508707A901C88E060
:104E0000F8740128F0E8C39405406B124E9A80664E
:104E100074016508706374016509790A702E124186
:104E2000C77401122CF3E4F07402122CF37403F033
:104E300004122CF3E4F0A3F0A3F0A3F07408122CF6
:104E4000F3E4F0AA18AB191230E780441241C7907E
:104E50001EA91228517A007B20901BBEE0F9123F58
:104E6000517404122A2E901EB3E0F9901BBA122C32
:104E7000C4124677E9F9E960179080CA1228517A7E
:104E8000017B00901BBEE0F9123F517404122A2EE0
:104E9000740B122A2E7F050226CD901BBAE4F0A3D4
:104EA00074F8F0A374FFF0A37407F02274F61224D0
:104EB0003CE9FFEAFE7AD1F9123E0D8A828B83E546
:104EC000824583702A7A027B00123DEFEA4B700E16
:104ED0007A107B00901BBEE0F9123E3180148A826A
:104EE0008B8374D1F0EFA3F0EEF9123DFB8003EF5A
:104EF000A3F002511974F712243C89089006F812A5
:104F00006246901E97E0F47003A3E0F4702D900BBE
:104F1000E5E0901E97F0A3E4F080208E828F83A3BB
:104F20001260F9600F8E828F83A3A31260F3FAA937
:104F30000812425D8E828F83124FDCEE4F70DC9040
:104F40001E97E0F47003A3E0F4600A901E97E0FA65
:104F5000A90812425D1231F5901B881259081231CE
:104F6000EF7F010226CD74F012243C890B8C0C7566
:104F700008007509007410122CF3125050741212AC
:104F80002CF3124FDC803CA80A125040F50EA3E02F
:104F9000F50FA809125033F583E0650E7004A3E005
:104FA000650F7014124FD3EE28F582EF39F583E5C3
:104FB0000EF0A3E50FF00508050AE50AC3950C40BD
:104FC000C60509E509C3950B5005750A0080EBA9D4
:104FD000088011A808E828F8E433F9221272D9E809
:104FE000FEE9FF227F080226CD74F412243C890BCF
:104FF0008C0A750800740C122CF3125050800205B4
:1050000008E508C3950B502775090080020509E5DE
:1050100009C3950A50E9A808125033126244A8093E
:105020001250406E7003A3E06F70E2790180027944
:10503000008028E828F8E433F9EA28F582EB3922E1
:10504000E828F8E433F9EC28F582ED39F583E0221D
:105050001272D9E8FCE9FD22122A2E7F040226CD25
:1050600074F612243C1251037003A3E06D7017759F
:1050700008C575091B7808122A51EEFA1243957477
:1050800002122A2E801F7508027509807808122ADC
:10509000518C088D097808122A511250EE1243B92A
:1050A0007404122A2E807274F612243C125103707A
:1050B00003A3E06D70177508D275091B7808122AD2
:1050C00051EEFA12439B7402122A2E801F750803B8
:1050D0007509807808122A518C088D097808122ADF
:1050E000511250EE1243B97404122A2E802B125022
:1050F000FC3FF583E0FD7C8012634D22EE240EF52B
:1051000082E422EAFEEBFF126362FCE439FD901BAD
:1051100088E06C227402122A2E7F020226CD74F6D9
:1051200012243C74FE122AC7EAFEEBFF8518828522
:105130001983E4F0A31258BA12649BFBECFA88823C
:105140008983A3A3E0F9750900750800600574FF61
:10515000697005750882803D901B88E06A7003A322
:10516000E06B701AAA18AB1912377DE9F50985189A
:10517000828519831266DD701C7508838017901D67
:1051800021E06004640170057508818008E0640214
:1051900070037508808518828519831266C6A90870
:1051A000EEFAEFFB1243A1E509601185188285191B
:1051B000831266DD6006126D00123E910251147476
:1051C000F212243CEAFEEBFF750800750900126339
:1051D0005EF50AE439F50B1231F5EA650A7003EB66
:1051E000650B701212378FE914F50879017A4F7B3D
:1051F0001C12379580037509801266CCF50C780C6B
:10520000122A55750C4F750D1C780C122A5178080E
:10521000122A55780A122A51E509F5087808122A47
:105220005512615F1266CFF97A057B801243A7742D
:10523000070274AE74F612243C89097508008027B1
:105240008A828B83E0FE127663EE28E439FF124FE8
:10525000D3EC28F582ED39F583EEF0A3EFF0EA24E4
:1052600002FA50010B0508E508C3950940D2025126
:105270001974E812243C74FB122AC78A168B17850E
:105280001882851983E4F07403122CF3E4F0A3F080
:1052900004122CF3E4F0A3F0125C17351712588CAB
:1052A000F50B850A82F58312774FFEE439FF850AF4
:1052B00082850B83A3A3E0FA850A82850B83A3A3CF
:1052C000A3E0F9EAF508E439F509E50A2404F50A4A
:1052D0005002050BEEFAEFFB123291E96401601601
:1052E000EEFAEFFB123291E9703D901B88E06E7090
:1052F00003A3E06F60311264AC122A55E4F508F59F
:10530000097808122A517808122A55901B88122809
:10531000557508807808122A551256691243A774E9
:1053200007122A2E02565F1256978810602B1272AF
:10533000FA123E8B7403122CF31259087403122CC8
:10534000F31266DD60137403122CF312568FA9104A
:1053500012428D8A0A8B0B800375100012569788B3
:105360000F60271272FA123E8B7401122CF312593D
:10537000087401122CF31266DD600F7401122CF315
:1053800012568FA90F12428D8003750F009006F8F8
:10539000805C850A82850B83A3A3A3A3A3A3A3A3F5
:1053A000E4F0A3F0AA0AAB0B851482851583A3A3AE
:1053B000E0F81260F3F9123DFB851282851383E059
:1053C000C0E0851882851983E0F8744F28F582E4DF
:1053D000341CF583D0E01266E104F0E511A2E05040
:1053E00007AA12AB13123E91851482851583E0F54E
:1053F00014A3E0F515E514451570030255CC85148A
:1054000082851583A31260F960DE85148285158379
:10541000A3A3A3A3A3A3A3A3E0A2E050CB851482DC
:10542000851583A3A3A3A31266DD85148285158346
:10543000A3A3601F1260FAFA79018514828515838F
:10544000A3A3A3A312568212262D8A128B137511C1
:10545000018010125682A3A3A3E0F512A3E0F51376
:10546000751100E512451370030253DB8512828526
:105470001383A3E065087004A3E06509600F74FF5F
:105480006508700474FF650960030253DB851282AE
:10549000851383A3A3A3A3A3A3A3122855851282D4
:1054A000851383A3A3A3A3A3A3E0FC7405122CF389
:1054B000126D06A91012426F7402122A2EE9703C76
:1054C000851282851383A3A3A3A3A3A3A3A3A3A34A
:1054D000122855851282851383A3A3A3A3A3A3A394
:1054E000A3A3E0FC7403122CF3126D06A90F124261
:1054F0006F7402122A2EE970030253DBE50F2510A8
:10550000C333240AFA7B00123DEF8A0A8B0BEA456B
:105510000B70030253B98A828B8374D21268EC8AAF
:10552000828B83A3A3E8F0A3E91275E1A3E510122F
:105530007757E50FF0E510603CEA2405FAE4350BF7
:10554000FBE50A240AF8E4350BF98A828B83125EA4
:105550009F7403122CF31256A7122A4DAC10EC2C98
:10556000FCE433FD8A828B83126D06123DCB7403FB
:10557000122A2E800D8A828B83A3A3A3A3A3E4F017
:10558000A3F0E50F7003025392A810124FD5E50A5D
:1055900028F8E50B39F9E8240AFAE439FB850A8290
:1055A000850B83A3A3A3A3A3A3A3A31259087401E8
:1055B000122CF31256A7122A4DAC0FEC2CFCE4333C
:1055C000FD123DCB7403122A2E0253A48518828546
:1055D0001983E060271264AC122A5575084F7509CB
:1055E0001C7808122A517403122CF31264B5122A83
:1055F00055901B881228557508008029EEFAEFFB9C
:10560000123291E9702F1264AC122A5575084F7549
:10561000091C7808122A517508007808122A55903A
:105620001B881228557808122A551256691243A76A
:105630007407122A2E7403122CF31266DD600B74A9
:1056400003122CF3126D06123E917401122CF31208
:1056500066DD600B7401122CF3126D06123E91741C
:1056600005122A2E7F100226CDE5162402FCE43511
:1056700017FDE5161260ED3517F583E0F97A067B24
:10568000802212568622E0F8A3E0F5838882221257
:1056900066C6AA0AAB0B22850A82850B83E0F8A3B3
:1056A00085820A85830B22E0F50CA3E0F50D750ECB
:1056B00000780C2274F112243C74F4122AC78A0870
:1056C0008B09ECFEEDFF740B122CF37403F0122A1D
:1056D0009F123F9F1231EF8A0A8B0BAC0AAD0B74FD
:1056E00003122A9F123F99E9600A1258866010E05F
:1056F0006401600B85188285198374840258348E86
:10570000828F83A3A3A3A3A3A3A3A3E06013F46046
:10571000101258867016EE24141266CF6003F470CF
:105720000B851882851983748202583412747BE0C9
:1057300064217002A3E0600302580B85188285196A
:1057400083748C1258BA640360030257F574011213
:105750002AA7125E84122FE5E960030257F5124171
:10576000B58A0A8B0BEA450B70030258358E0C8FF5
:105770000D750E00780C122A4D7C157D00123DCB64
:105780007403122A2E850882850983A3A3E50A24BF
:1057900015FCE4350BFD74091229771270F9C0E08D
:1057A000E50A241E125874D0E0125CEBC0E0E50A52
:1057B000241F125874D0E0F0E50A242012587474A3
:1057C00005F0EE240BFE50010FFAEFFB1238137DAB
:1057D000007C007900EEFAEFFB12435F9080CA1262
:1057E00028517A007B10901BBEE0F9123F517404DF
:1057F000122A2E807812587C122A55125894122F91
:10580000D37401122A2EE9702C801412587C122AAB
:1058100055125894122FD97401122A2EE9700D8551
:105820001882851983E4F0124185800985188285E4
:1058300019837488F01270F9F50A780A122A5574DF
:1058400001122A97880A890B780A122A51E508243E
:105850000CF582E4350912588C4480F50B780A1255
:105860002A5112622F1243537405122A2E740C12FD
:105870002A2E805CF582E4350BF58322EE125E91D0
:10588000E0F50A780A221258BF640322F583E0F596
:105890000AA3E022EE240BFCE43FFD8E828F83A35B
:1058A000A3A3A3A3A3A3A3A3126D438E828F83A359
:1058B000A3A3A3A3A3A3A3E0F922F01258BF22122B
:1058C00058C322EE1269C93FF583E022EEFAEFFBDE
:1058D0007F070226CDC082C08374F3122AC78518C1
:1058E00082851983E4F004122CF312590874031210
:1058F0002CF3AA82AB8312472BAA18AB191246F5D8
:10590000740D122A2E026CF9EAF0A3EBF02274F661
:1059100012243C1259521272D38882898312748BDA
:10592000F8901BCDE058F508A3E059F509E50845C6
:1059300009601C7808122A51901B8812285512669B
:10594000CCFD7C001263491243B37404122A2E0268
:105950005119EAFEEBFF12595B3F22EE1269C92290
:1059600074EA12243C74DB122AC78A148B15751250
:1059700000751300125C173515F5831260FAF50EE9
:10598000AC18AD197A007B00799C122CFD7A047951
:10599000001246BFEAF50C851882851983E02AF0CB
:1059A000F8E50EC3984003025B84E0C3950EF50949
:1059B000C394044003750903E50975F01AA4FAAB12
:1059C000F0123E8B8A128B13EA45137003025B8739
:1059D000750D00AE12AF13850E08025A617C087D6A
:1059E0000079FF125C03123DD7850A82850B83A3E1
:1059F000A3A3A3E0702D850A82850B831266DD7058
:105A00000C126E4FF0EE2418126E528010125C0BC6
:105A1000F090055EE014C0E0125BE7D0E0125C3B62
:105A2000E4803490055EE004C0E0125BE7D0E01251
:105A30005C33C39403EE4003025AE9125E8D740294
:105A4000125C3364017003025AF6EE2415125C0EE8
:105A5000F0EE2416125C0EF0EE241AFE50010F0533
:105A60000DE50DC395094003025B21E508C3950CC4
:105A70004003025AFFAA087B001246358A0A8B0BA4
:105A8000050890054B125C1C123F9F850A82850B0E
:105A9000831272D5125BF5E8F0A3E9125C4D850A1A
:105AA00082850B83A3A3A3A3A3A3A3A3A3A3E0C063
:105AB000E0125BDDD0E0F07401122CF3E4127620EA
:105AC0001272D57402122CF3125E9F7401122A9F77
:105AD000124707E9640160030259DD7404122CF3D4
:105AE000125BFF123F9F0259E9125C0C125C336497
:105AF000036003025A4AEE2415126E52025A50E510
:105B00000CC3950E4005750800801DE50EC3950C6D
:105B1000F5088014125C0BF0EE241AFE50010F05FC
:105B20000DE50DC39509505F740E122AA7AA087BD4
:105B3000007987122CFD05087418122CF3125C1CD6
:105B4000123F9F7410122CF3125BFF123F9FEE2442
:105B500012F8E43FF9740E122CF3126D0688828954
:105B600083EAF0A3EB125C3B7403125C4D741D12CC
:105B70002CF3E0C0E0125BDDD0E0126C7170951286
:105B80006E4F8093750900750A00780A122A5578BD
:105B900012122A517809122A55E50EF509780912D0
:105BA0002A557405122CF3E0FD7C00E5141260E424
:105BB0003515FBE5141260E93515F583E0F912435C
:105BC000EF7405122A2EE51245136007AA12AB13D3
:105BD000123E917425122A2E7F0E0226CDEE241934
:105BE000F582E43FF58322125BEB22EE2418F58266
:105BF000E43FF58322EE2412F582E43FF58322ACE4
:105C000082AD83EE240AFAE43FFB22EE2414F582EF
:105C1000E43FF583740122EA12595C221272D98E94
:105C2000828F83E8F0A3E9F07C5F7D05EE1260E4EB
:105C30003FFB2212761BA3A3A3E022F0EE126E46D6
:105C40007402F0EE2416F582E43FF58322F0EE2490
:105C500017F582E43FF5837402F0125BEB74FFF0FA
:105C60002274F612243C74F9122AC7125CE01277EF
:105C7000D9123DE3EAF8EBF9ECFAEDFB85188285E1
:105C80001983122CDCEE2404FE50010F8E828F83C8
:105C9000E0C0E07404122CF3D0E0126C48F87405F4
:105CA000122CF37401F07406122CF37401F0901BA3
:105CB00092F0901B9B04127635A3126D06901B93F5
:105CC000125908E8901B9C125CEB901B91F0AA18EB
:105CD000AB191245CFE960031245C974070251168A
:105CE0008A088B09EA12595C350922F01275ADE079
:105CF0002274F212243C74FF122AC77508007E0039
:105D00007F001231178A0A8B0B1231178A0C8B0D08
:105D1000A80CA90D800505081272CFE84970F7900C
:105D20001D21E0600764016003025DFC1231178AE7
:105D30000C8B0DA80CA90D80031272CFE8496036B8
:105D400088828983126D0690054BE06A7003A3E098
:105D50006B600D125E9839F583126D06EA4B70D9AF
:105D6000888289831272D590054BE0687003A3E0A6
:105D7000697003025DFC7A167B00123E8B8A0C8BE5
:105D80000DAE0CAF0DEE4F607390054B1272D58EB9
:105D9000828F83125E9F900540E08E828F83A3A343
:105DA000F0123279E98E828F83A3A3A3A3A3F0908C
:105DB0001EB412760FF07C5F7D05125E84123F9F49
:105DC000AA18AB1979411244C7851882851983E056
:105DD0006008901B881272D5800478FE79FF8E824D
:105DE0008F83A3A3A3A3A3A3A3125E9F125E8CE53C
:105DF0000AF0A3E50BF08E0A8F0B0508901B9CE0C0
:105E0000F8E508C398500479008027E508C398F99D
:105E1000C39406400279057800800DE50A125E9968
:105E2000350B12588CF50B08901B9CE0FAE8C39ACE
:105E300040E97509007809122A55780A122A51E9B1
:105E4000F5097809122A55901B9CE0F5097809128A
:105E50002A55AD087C007A937B1B901B91E0F912C8
:105E600043E97405122A2E901D21E060046401703C
:105E70000BEE4F6007EEFAEFFB123E911245C9742C
:105E8000010274AEEE240BFAE43FFB22EE125E91A7
:105E900022125E993FF58322E82414F582E422E879
:105EA000F0A3E9F02274F012243C74FF122AC78A8E
:105EB0000A8B0B7E008E0E8E0F125C171258771213
:105EC00060FAFFAC18AD197A007B00799D122CFDA9
:105ED000851882851983E0F8EFC3984003025F7E3E
:105EE000E0C39FFEC3940B40027E0AEE75F007A448
:105EF000FAABF0123E8B8A088B098A0E8B0FEA45AB
:105F00000F6079750C00801A850882850983A3A328
:105F1000A3A3A37403F0E5082407F50850020509BC
:105F2000050CE50CC39E5056AC08AD09E50C2FFAE4
:105F3000E43400FB798B122CFD850882850983A34C
:105F4000A3A3A3A3E014600814601314601F80B817
:105F5000850882850983A3A3A3A3A3E480B785084A
:105F600082850983A3A3A3A3A3740180A8850882C3
:105F7000850983A3A3A3A3A3740280997E00750857
:105F8000007808122A55780E122A51EEF508780882
:105F9000122A55EFF5087808122A557405122CF3C9
:105FA000E0FD7C00E50A1260E4350BFBE50A1260B7
:105FB000E9125877E0F91243F57405122A2EE50E1E
:105FC000450F6007AA0EAB0F123E917401122A2EE4
:105FD000024FE474EE12243C74FE122AC78A0C8B22
:105FE0000D751000751100125C17350DF5831260E8
:105FF000FAF50AAC18AD197A007B0079A3122FDFED
:10600000126D00C3E50A9AE49B50768518828519C3
:1060100083A80AE0C398FEA3E09400FFC3EE9404B3
:10602000EF940040067E037F008004EE4F6052EE46
:10603000FAEFFBEA75F015A4FAA8F075F015EBA4D9
:1060400028FB123E8B8A088B098A108B11EA4511B6
:10605000602F750B00750E00C3E50E9EE49F502661
:10606000AC08AD09A80AE50E28FAE43400FB79A2D1
:10607000122FDFE5082415F50850020509050E80EA
:10608000D7750B8B7E007508007808122A5578109A
:10609000122A51EEF5087808122A55E50AF5087813
:1060A00008122A557405122CF3E0FDAC0BE50C1216
:1060B00060E4350DFBE50C1260E9350DF583E0F980
:1060C0001243FB7405122A2EE51045116007AA1031
:1060D000AB11123E917402122A2E7F0A0226CDFCC9
:1060E000EFFDE5082402FAE4221260ED22240FF508
:1060F00082E422A3E0F5838882A3125686E022740C
:10610000F612243C74FF122AC71259521274D3A3F8
:10611000A3A3A3A3A3A3A3E0F9124683E98518824E
:10612000851983F07508007808122A557401122A1F
:1061300097880889097808122A51750835750980E9
:106140007808122A511261551243537405122A2EEF
:106150007401025116790112615FFAE43FFB22EEED
:106160002402FCE43FFDEE240F2274F412243C745C
:10617000FA122AC7125CE0126244EEFAEFFB1247F1
:1061800025E960171231EF8A0A8B0BAC0AAD0BEED2
:10619000FAEFFB123F99E96401700A7401122CF3C3
:1061A000E4F0A380097401122CF3EEF0A3EF127651
:1061B00051A3A3A3A3A3E0F8A2E650087403122CF2
:1061C000F37401F0E8A2E750087404122CF3740190
:1061D000F07405122CF3E4F004122A9F124653E9DE
:1061E000851882851983F09080B2122CC412321364
:1061F0007A007B0012321F7A007B00123219750A76
:1062000000780A122A557401122A97880A890B7895
:106210000A122A51750A34750B80780A122A511213
:10622000622F1243537405122A2E740602505879B5
:1062300001E5082402FCE43509FDE508240FFAE431
:106240003509FB22F5831274DDFF2274F612243C1B
:1062500074FF122AC712629E1260FAF91246D1E93F
:10626000851882851983F0EE240B1266CF702C7589
:1062700008007808122A557401122A97880889099B
:106280007808122A517508367509807808122A5143
:106290001261551243537405122A2E026150EAFE10
:1062A000EBFF12595B3FF583220229FB74F41224A1
:1062B0003C74EF122AC7EAFEEBFF12635EF508E4B6
:1062C00039F509901B88E065087004A3E065097042
:1062D00052A818A919880A890B780A122A51750A36
:1062E00011750B00780A122A517C007D007A817B9F
:1062F00000123F157404122A2EE97027750A0078DF
:106300000A122A557401122A97880A890B780A12F0
:106310002A51AC08AD091263491243AD7403122A25
:106320002E8021750A11750B80780A122A5178087F
:10633000122A511266CCFD7C841263491243B9744F
:1063400004122A2E741102505812634D22EE2402B8
:10635000FAE43FFBEE1260ED3FF583E0F9221263B1
:1063600062221258C31264A312758EF8E4C8F9EAC7
:10637000282274F112243C74EB122AC712629EE0A8
:1063800012649BFAE4CAFBEC2AF508E43BF5099099
:106390001B88E065087004A3E0650960030264429D
:1063A00088828983A3A3E09410500F88828983A3F5
:1063B000A3E0851882851983800885188285198352
:1063C0007410F0E0C0E07404122CF3D0E01274BF3B
:1063D000A3A3A982AA83890C8A0D750E00780C12DA
:1063E0002A4D7407122CF3E0FC7D007408122CF384
:1063F000AA82AB83123DCB7403122A2E7404122A94
:1064000097880A890B780A122A51750A11750B00B0
:10641000780A122A517C007D007A817B00123F0F9E
:106420007404122A2E7404122CF3E0901BC560052C
:10643000E0D2E48003E0C2E4F0851882851983E4A9
:1064400080088518828519837484F0E0C0E07401A7
:10645000122CF3D0E0F07402122CF3E508F0740370
:10646000122CF3E508F01250FC3F1264B3122A55C7
:106470007402122A97880889097808122A51750827
:10648000147509807808122A517903126157124352
:10649000537405122A2E741502586F1264A3E0FC7F
:1064A000A3E022F8A3E0F98882898322E51612503E
:1064B000FD3517F583E0F50878082274F612243CC0
:1064C00074E0122AC7EAFEEBFF90054DE064086015
:1064D00008E0640460030266C1AC18AD1912433BC6
:1064E000901D21E06402702F1231EF7402122CF320
:1064F000AC82AD83123F99E9601D1231F58A088B99
:1065000009A808A909851882851983E0687003A382
:10651000E06970030266C11233C37402122CF3AC3B
:1065200082AD83126D001232C1E96401700302660C
:10653000C17418122A9F1232017402122CF3AC8219
:10654000AD837418122A9F123F99E960321231FB11
:106550008A088B09A808A909851882851983E0682B
:106560007003A3E06960188518828519831272D5BB
:10657000900541125E9F7A417B05794B1244CD9084
:106580001D21E06004640170751231F58A088B09E1
:10659000A808A909EE24111266CF687003A3E06968
:1065A000605C7402122CF3AA82AB8312468F8A08B5
:1065B0008B09A808A909E849602688828983A3A3D2
:1065C000A3A3E06401600D88828983A3A3A3A3E051
:1065D0006402700C7402122CF3AA82AB8312464D33
:1065E0009005DB1266DD6016901D15E06401700EEB
:1065F000126D009005DCE0F583888212262D79006B
:10660000126D00122E4190054B1266C6126D0012DB
:10661000337B740B122CF3E41266E1F8A3E0F974F7
:106620000C122CF3125E9F740B122A9F124707E97B
:10663000603F7C087D0079007418122A9F123DD7B4
:10664000740E122CF3AC82AD837418122A9F123F81
:1066500099E9601D7402122CF3AC82AD83740E12A2
:106660002CF3AA82AB8312472B740B122A9F12467B
:10667000F57402122CF3AC82AD83740E122CF3AAC3
:1066800082AB8312472B740B122A9F124701E960D9
:1066900030740C122CF31272D5851882851983E0A0
:1066A000687003A3E06960198518828519831272E6
:1066B000D5740C122CF3125E9F740B122A9F124693
:1066C000F57420025116E0FCA3E0FD22EE240EF545
:1066D00082E43FF583E022F582E438F583126E8888
:1066E00022F0851882851983E02274E812243C7414
:1066F000F7122AC78A168B177F008F088F0912435B
:10670000418A128B13EA451370030268BF7E008032
:106710000DEE75F00CA4F81268DC12464D0E8512D1
:1067200082851383E0F8EEC39840030267F4750C8A
:10673000FF750DFF750EFF750FFFEE75F00CA4F8D9
:10674000A9F01268DC12468FEA4B60D18A828B83F3
:10675000A3A3A3A3E06401600D8A828B83A3A3A3F8
:10676000A3E0640270B71269A670101269BD780CBC
:10677000122C661269B3780C122AAF1268C4A3A354
:10678000A3A3A3A3A3A3780C1229B740847A0E7BFA
:1067900000123E8B8A0A8B0B1268C4AC82AD831246
:1067A0003F9F850A82850B83A3A3A3A3A3A3A3A3CF
:1067B000780C122C84E50A240C125874E4F0A3F02F
:1067C000E5084509700E850A10850B1185100885AE
:1067D0001109801CE510240CF8E43511F988828930
:1067E00083E50AF0A3E50B1274C8F510A3E0F511D8
:1067F0000F02671DEF70030268B87408122CF3745F
:10680000021268EC851882851983125E9F7E00EF64
:1068100075F00CA4FAABF0123E8B8A0C8B0DEA4596
:106820000D70030268B8805A850810850911EE754D
:10683000F00CA4F8A9F0E50C28F50AE50D39F50BE4
:10684000AC08AD09AA0AFB123F9F8508828509831F
:10685000A3A3A3A3A3A3A3A3122CA0850A82850BA1
:1068600083A3A3A3A3A3A3A3A3122CDC0EE510244C
:106870000CF582E435111268E4F509AA10AB111287
:106880003E91E508450970A07508007808122A5560
:1068900075081F7509807808122A51780C122A5140
:1068A000EFF97405122AA7E516240FFAE43517FB51
:1068B0001243897405122A2EAA12AB13123E917448
:1068C00009025661EE75F00CA4F8A9F01268D02206
:1068D000E51228F582E51339F583A3221268D0AAC0
:1068E00082AB8322F583E0F508A3E022F0851682CF
:1068F000851783A3A31272D92274F012243C124389
:10690000418A088B09AE08AF09EE4F70030269A3F4
:10691000750C0080787508FF7509FF750AFF750B07
:10692000FFE50C75F00CA4F8A9F01269CF12468FA0
:10693000EA4B60578A828B83A3A3A3A3E064016020
:106940000D8A828B83A3A3A3A3E06402703D126926
:10695000A670101269BD7808122C661269B3780807
:10696000122AAFE50C75F00CA4F8A9F01269D7A3B0
:10697000A3A3A3A3A3A3A378081229B7500DE50CE2
:1069800075F00CA4F81269CF12464D050C8E828F5B
:1069900083E0F8E50CC3985003026915EEFAEFFBAB
:1069A000123E91024FE4EA241BF582E43BF583E0BA
:1069B000640122EA2417F582E43BF583221269C1BF
:1069C000221269C83BF58322EA2413F582E42212DD
:1069D00069D7AA82AB8322EE28F582EF39F583A32B
:1069E0002274F112243C74F6122AC7EAFEEBFF75FA
:1069F0000800901C851266DD70507A377B00123ECD
:106A00008B901C85EAF0A3EB1271A860197C377D8E
:106A1000007900123DD7EEFCEFFD901C85126D064B
:106A200012430BE9700B8518828519837488026BF9
:106A30008A12748F126C247401F07C177D439004C9
:106A4000EB126D06122ED7026C1FE0C8126C247474
:106A500002F0EEFCEFFD1270FE12430BE9700C85A4
:106A600018828519837488F0750801750A4F750BB3
:106A70001C780A122A51126D1612285512748F248E
:106A8000281270F1FC126D4812748F24141270F1E8
:106A9000F91242697404122A2E126C31126C4E24BF
:106AA000311270F16043127192FAE433FB123E8BA3
:106AB000901C85E02432126C636022750C4F750DBA
:106AC0001C750E00780C122A4D127192FCE433FDF5
:106AD000126D34123DCB7403122A2E800C8518825D
:106AE0008519837488F0750801780A122A51126D8D
:106AF0000A12285512748F24111270F1FC126D2B9A
:106B000012748F242B1270F1F91242697404122A44
:106B10002EE9F812748F2434126C4E24341270F162
:106B20006035127189FAE433FB123E8B901C85E0CC
:106B30002435126C636042750C4F750D1C750E0088
:106B4000780C122A4D127189FCE433FD126D221269
:106B50003DCB7403122A2EE508A2E04025126C31C9
:106B60001270F17008901C8512715560157B007AC7
:106B7000007900124311026C1F85188285198374F5
:106B800088F08518828519837486F07409122CF3B5
:106B90007402127310126C40122CF3E8F0A3E91285
:106BA0006C48F5087808122A557401122A9788084B
:106BB00089097808122A5175082075098078081209
:106BC0002A5179017406122AA7EEFAEFFB124353F9
:106BD0007405122A2E12714470427409122CF37437
:106BE00002F0126C3A122CF31271AF122A55740192
:106BF000122A97880889097808122A517508207581
:106C000009807808122A5179017406122AA7901C6B
:106C100085126D061243537405122A2E1243057411
:106C20000A02586F126C2822242EF582E438F5836C
:106C300022901C8512711A243122901C85125686CE
:106C4000A3A31272D9740122127310A3E022F58259
:106C5000E438F583126C59C822E9F0901C85E0F8FD
:106C6000A3E022F8A3E03400F988828983EAF0A344
:106C7000EB1274CD126E8822C082C083901C8512E4
:106C800066DD6075E0C824351266D76006126D2295
:106C9000123E9112748F24321266D76006126D3440
:106CA000123E9112748F24121266D76009126D0A77
:106CB000126D06123E9112748F24151266D760066B
:106CC000126D48123E9112748F24291266D7600902
:106CD000126D16126D06123E9112748F242C1266DC
:106CE000D76006126D2B123E91901C85126D061214
:106CF0003E91901C85E4F0A3F0D083D0820229FB62
:106D0000851882851983126D43221271172412F59A
:106D100082E438F583221271172429F582E438F5CC
:106D200083221271172435126D3D22127117242C03
:106D3000126D3D221271172432126D3D22F582E44C
:106D400038F58312758EFB221271172415126D3DD2
:106D50002274F112243CEAFEEBFF8C088D09750ABF
:106D6000018C0C8D0D750E00780C122A4D7C177D50
:106D700000123DCB7403122A2EEE2412126E52F032
:106D8000A3F0EE2415126E52F0A3F01272BCE06074
:106D90003AEE2412F8E43FF9880C890D1272F512CC
:106DA0003E8B126E736021E5082412126E66122A61
:106DB0004DE5082411126E5A125BF6126D06123D53
:106DC000CB7403122A2E8003750A00E5081272CADA
:106DD0006035EE2415F8E43FF9880C890D1272F540
:106DE000123E8B126E736055E5082415126E661202
:106DF0002A4DE5082414126E5A126E42126D0612C4
:106E00003DCB7403122A2EE50AA2E0402BEE241299
:106E1000F582E43F1266DB6009125BF5126D061223
:106E20003E91EE2415F582E43F1266DB600AEE1215
:106E30006E42126D06123E91A90A0258D0750A00E0
:106E400080CB126E46222415F582E43FF58322EEB4
:106E50002414F582E43FF583E4221273A0E025E0D8
:106E6000FCE433FDEE221273A0E0F50CA3E0F50D77
:106E7000780C22850C82850D83EAF0A3EBF0850C5B
:106E800082850D83126E8822E0F8A3E0F9E849229A
:106E900074EE12243C74ED122AC7890B8A0E8B0FF4
:106EA000750C00750D00750AFF7510FF7511FF75E3
:106EB0000800750900851882851983E41271A8609D
:106EC000177403650B60067402650B7010E0C8242C
:106ED000301270F1650F600579000270EC7C177D4F
:106EE000437A007B00122ED77401650B700A851857
:106EF000828519837485803DE50B60067403650BFC
:106F00007019901C85127124F07403650B7029E5CB
:106F10000E6029851882851983801A7402650B70AA
:106F20001BE50E901C857005127124800812749266
:106F300012713B7402F08004E50B601E12712A701E
:106F40001912714E6005126C34800A127155600A74
:106F500012748F24341270F114F012714E601A12F0
:106F600068E6F509127192127587CA2432127166A9
:106F7000241D12710B242580261271556026901C49
:106F800085E02417F508A3E03400F5091271891291
:106F90007587CA2435127166240612710B240E12ED
:106FA00070F1F50A7409122CF374021266E16003A1
:106FB00002705AE5084509700302705A12712A706E
:106FC000047E2280027E21850882850983126C401E
:106FD000122CF3125E9F901C89E0C0E012748F2483
:106FE00030F582E438F583D0E0F07412122CF3749B
:106FF00003F0AC0CAD0D740A122A9F123F9F850856
:1070000082850983A3E0F50C780C122A55780A12C0
:107010002A55740C122A97880C890D780C122A5163
:107020007810122A51E5082406F50CE43509F50D0F
:10703000780C122A511270F9F97409122AA7EEFA83
:107040007B001243C57408122A2E7C177D439004DE
:10705000EB126D06122ED70270EA126C3A122CF364
:107060001271AF122A557401122A9788088909787B
:1070700008122A517508207509807808122A51795A
:10708000017406122AA7901C85126D0612435374D0
:1070900005122A2E127144704E12748F2419F58233
:1070A000E438F583126C42122CF3E8F0A3126C540E
:1070B0002418F582E4381264B3122A557401122A96
:1070C00097880889097808122A517508207509805F
:1070D0007808122A5179017406122AA71270FE123A
:1070E00043537405122A2E1243057901741302606A
:1070F000D7F582E438F583E0221275BBE022901CBC
:1071000085E02417FAA3E03400FB22F50CA3E03459
:1071100000F50D12711722901C8512711E22E0F8E5
:10712000A3E0C822127134740122901C85127134BC
:10713000E064012212711E12713B22242FF582E4B9
:1071400038F58322127117126C28E0640222127142
:1071500098901C85221271592212711E2434F582D6
:10716000E438F583E022F582E43AF583E028F8A3D9
:10717000E039F9E824FEF582E934FFF583E0F51003
:10718000A3E0F511901C85E022901C851271592511
:10719000E02212719825E022901C8512711E243184
:1071A000F582E438F583E022126C5AF9E84922E8C6
:1071B000F0A3126C59F5838882A3E0F508780822C1
:1071C000C082C0837B007A857901124311026CF979
:1071D00074F412243C8C088D09EA240F127657129D
:1071E00075D51272D58C828D83A3A3125E9FEA247B
:1071F0000E127657A3F01269BD1274DD12730112DC
:1072000074A150010FFCEFFDE5082406FAE43509EE
:10721000FB123F9FEE2408FE50010F8E828F83E009
:10722000C0E01275B7D0E01273A8F81275A9E81281
:1072300074A550010FE50824121272C4A3F0E508EA
:1072400024151272C412730AF8A30EAF831272BC13
:10725000E8F06028E50824121272EC123E8B1276D8
:107260006A6019E50824121272DF1272BEE0F91288
:10727000428D8A0A8B0BAE0AAF0B8007E5082411FA
:107280001272C48E828F83E0F8A3AE82AF83127332
:1072900098E8F0601FE50824151272EC123E8B127C
:1072A000766A6010E50824151272DF1272CAF912AC
:1072B000428D8005127398E4F002505BE5082411BA
:1072C0001273A0221273A0E4F02212739EE0221225
:1072D0005E9839F5831272D922E0F8A3E0F9221200
:1072E00073A01266C6EEFAEFFBE50822F8E4350952
:1072F000F9880A890BE01272FA2225E0FAE433FBDE
:1073000022FF12759A8C828D8322A3127310E022C1
:10731000F08E828F832274F612243C127628126239
:1073200044EEFCEFFDAA08AB09123F9FEE2408FED5
:1073300050010F8E828F831276B01273A885088257
:10734000850983A3A3A3A3A31274A150010F8E8266
:107350008F83E0F8E508125CE5F583E81274967413
:1073600003687026EEFCEFFDE508240BFAE435090E
:10737000FB123F9F8E828F83A3A3A3A3A3A3A3A3E8
:10738000E0C0E0127398D0E0800A12759312748501
:10739000E8F0A3E9F0025119E50812739E222414C3
:1073A000F582E43509F583221275F612759E227472
:1073B000F212243CEAFEEBFF750A00EE241012667E
:1073C000CFC3940C400D1262A2127492240B12705F
:1073D000F1F50AA80A124FD5E8240DFAE439FB1298
:1073E0003E8B8A088B09EA450970030274751259AD
:1073F000561275C78A828B831275F27078EEFCEF95
:10740000FDEA2403FAE43509FB123F9FEE2408FE4F
:1074100050010F8E828F8312748B850882850983B9
:107420001274A450010F127483E4F0E50A6046E57B
:1074300008240DF8E43509F98E828F83E0C0E0124C
:107440007483D0E01275A4C0E012747BD0E0127493
:1074500096850A0B8E828F83E0FCA3E0FBEC88828A
:1074600089831274B6500109EE2402FE50010F15F3
:107470000BE50B70DFAA08AB098036E508240C1277
:1074800073A022E508240B1273A02212759E22908D
:107490001C8512711A2212749A221275FE0EAF8385
:1074A00022A3A3A3A3F0A3E9F0EE2402FE22122A52
:1074B0002E7F060226CDF0A3EBF0E82402F822127C
:1074C00074C3221274CDA3221274CDE022F08882FC
:1074D000898322126D418A828B8322F583E0FEA389
:1074E000E02274F112243C12762C1268E4850882A2
:1074F000F583E0F50BA3858208858309A3A3E0F556
:107500000A12760A3400FB123E8B8A0C8B0DAE0CED
:10751000AF0DEE4F60378E828F83E50BF0850882CA
:10752000850983E0FA12763E850882850983A3A344
:10753000A3A982AA83890C8A0D880E780C122A4D81
:107540001276053FFB123DCB7403122A2E0258CC53
:1075500074F712243CEA2413F8E43BF98882898307
:1075600012758EF5838A8212765D1274C81264A336
:10757000A3E0FA88828983A3A3E0F9EA8C828D8351
:10758000A3125EA0024F61F8E433F9901C85E0FA83
:10759000A3E02212759EF8E508228E828F83127571
:1075A0008EF9EA2212749AE0221275AD22E50812D1
:1075B00060ED3509F583221275BB22E508240EF52E
:1075C00082E43509F583221275CB221274DBFF8E1B
:1075D000828F83E0221275DAA322F08A828B83A342
:1075E000221275E522F08A828B83A3A3A322A3A390
:1075F000A3A31275F6221275FEAE82AF8322F08E1F
:10760000828F83A322AC0A7D00EE2404FAE422E0F8
:107610008E828F83A3A3A3A3A3A322127620A322E7
:10762000F0850A82850B83228C088D091276302220
:107630001269C83B22F0850882850983A32212764D
:1076400063EA8E828F83A3F0A3E9127651E50AF0F4
:10765000221275FEA3A322F582E43BF583E08C821F
:107660008D8322A3E0F8E4C8F922850A82850B8382
:10767000EAF0A3EB127620126E882274F612243CF4
:107680001276281272D3E8FEE91273011274A55023
:10769000010F1260DF3509FB123F9F8E828F83A39B
:1076A000A3A3A3A3A3A3A31276B0A3A3F00251198B
:1076B0001277ECA3A32274F212243C12774175F0E6
:1076C0000CA4A9F02401FAE439FB123E8B8A0C8B3E
:1076D0000DEA450D60648A828B83A38582088583C9
:1076E000098A828B83E50BF0750A008046EEFCEF79
:1076F000FDAA08AB09123F9FEE2408FE50010F7946
:1077000004FAEFFB123DE3EAF8EBF9ECFAEDFB8546
:107710000882850983A3A3A3A3A3A3A3A3122CDC9C
:10772000EE2404FE50010FE508240CF50850020574
:1077300009050AE50AC3950B40B3AA0CAB0D027408
:10774000B11276301275CBF50BA3AE82AF8322E077
:10775000FA127663EA28221275E5A3A3A3A3227482
:10776000F612243C1276281277D9123DE3EAF8EBA0
:10777000F9ECFAEDFB850882850983122CDCEE24F6
:1077800004FE50010F8E828F83E0F8850882850900
:10779000831275EEC3940650051277F18037850881
:1077A00082850983A3A3A3A3E064FE600E850882FB
:1077B000850983A3A3A3A3E0F4701B1277E41274DA
:1077C00096850882850983A3A3A3A3E0F47007121A
:1077D00077FEF0A3E9F00251191274DBFF7904EE91
:1077E000FAEFFB228E828F831277EC221277F1A3BD
:1077F00022E0850882850983A3A3A3A3A32212758F
:107800009A850882850983A3A3A3A3A3A3A32274B3
:10781000F712243CE9901C28F07A157B801244076B
:107820007A387B00901C28E0F9124407901C4974B8
:1078300045F0A37442F0901C47744BF0A37442F0DF
:10784000901C45743FF0A37442F0901C327402F017
:10785000901C2A74FEF0A304F07F010226CD74F27E
:1078600012243CEAFEEBFF548070030279828052BE
:1078700079001233158A0A8B0B750C00780C122ACA
:10788000557808122A51780A122A51900595127DCE
:1078900005901C29E0F91242337405122A2E901C1F
:1078A00040E0601790811A1228517A087B00901CE2
:1078B00028E0F9123F517404122A2EAA08AB0912CB
:1078C0003DF5901C28E0F9123E078A088B09E5086F
:1078D0004509700302797A850882850983E024CFFF
:1078E000603E14607E245F70D2E508240CF582E4CB
:1078F0003509F583E0F50AA3E0F50B780A12268135
:10790000000002003800177915800E79BB78AA08AC
:10791000AB0912422780A4AA08AB09124221809B1E
:10792000901C35E0C394045092900554E0F9908087
:10793000D2122CC4122D03E9708185088285098337
:10794000127E82901C37127BEA850882850983A308
:10795000A3127E82901C39127BEA901C4074FFF0C7
:107960000278BB901C40E0F46003027870AA08AB78
:107970000912422D901C40E480E5EEFAEF6480028B
:107980007A10EEA2E05025901C44E0900540F07A79
:10799000447B1C79E11244CD124161900595E4F0DD
:1079A000A3F07901123315EE64018062540260394C
:1079B000901C33127E84E8496025901C33E024FF3C
:1079C000F0A3E034FFF09081221228517A027B006C
:1079D000901C28E0F9123F517404122A2E80059061
:1079E0001C35E4F0EE64028025EE54086025901CFE
:1079F00040E06017901C3FE0F9901C3B122CC41231
:107A00002D03E97006901C40E014F0EE6408FAEFD4
:107A1000FB80047A007B007F060226CD74F41224DA
:107A20003C74F7122AC7EAFEEBFFAC18AD191243FB
:107A3000477404122CF3E0C39406505A127BD760AB
:107A400003027BB97405122CF3E07003027BB9C307
:107A500094064003027BB97404122CF3E0F98518F4
:107A600082851983122CC4122D03E96003027BB9AD
:107A7000127BC3901C29127E8A127BE77405122C9C
:107A8000F3E014F08518828519837C3B7D1C740912
:107A9000122977027BB9E064FE70777406122CF32A
:107AA000127BCE4003027BB97406122CF3E0F9126C
:107AB000324379008518828519837808122C66E98B
:107AC0007808122A7EE508A2E0400709E9C3941B62
:107AD00040E2900540E0697003027BB9E9901C44E4
:107AE000F0900531E075F064A4F8AAF0E42A880863
:107AF000F5093395E0F50AF50B7808122A497A0161
:107B00007B00901C28E0F9123F517404122A2E02C7
:107B10007BB9E0F4705C7406122CF3127BCE400348
:107B2000027BB97406122CF3E0F9123243851882F5
:107B3000851983122CA0E8494A4B60278518828555
:107B400019837808122C6690054E7808122AF36083
:107B500012851882851983122CA090054E122CDCF8
:107B60001241617407122CF3E0FAA3E0FB124239D0
:107B70008047127BD770428E828F83A3A3127BE251
:107B80007508007808122A557808122A55E4F50974
:107B90007808122A517808122A517808122A51902E
:107BA00080B21228517D007C807A2A7B1C127BC314
:107BB000F9124401740C122A2E7409122A2E7F0421
:107BC0000226CDEE240FF582E43FF583E022E0F8B3
:107BD000900597E0C39822EE240BF582E43FF583ED
:107BE000E022E0F8A3E0F9901C2AE8F0A3E9F022F3
:107BF00074F712243C74FD122AC7EAFEEBFFAC189E
:107C0000AD19124335851882851983E07018740107
:107C1000122CF3E05440600E8E828F83A3A3E0FA0F
:107C2000A3E0FB1242397403122A2E02785974F22F
:107C300012243C8A0C8B0D7A00850C828B83A3A3C3
:107C4000A37808122C66900540E07808122A7EE599
:107C500008A2E05014E0F8E50C28F582E43BF58337
:107C6000A3A3A3A3A3A3A3E0FA7B00850C82850DA5
:107C700083A3A3A37808122C66EB7808122A7EE56A
:107C800008A2E05076EBF8E50C28F582E4350DF516
:107C900083A3A3A3A3A3A3A3E0C39A505E900593D9
:107CA000127BE27508107808122A55780C122A51B6
:107CB000901C39122855901C37127D05790012420C
:107CC000337405122A2E901C367401F0901C35E096
:107CD0007020901C33743CF0A3E4F09081221228B1
:107CE000517A027B00901C28E0F9123F5174041273
:107CF0002A2E901C35E004F0027A170BEBC3941B7C
:107D000050F6027C6BE0FCA3E0FD7A2A7B1C227417
:107D1000EC12243C89118A128B13ECFEEDFF7510D6
:107D2000007508007509007A007416122CF3E0F54E
:107D30000AA3E0F50B850A82850B83A3A3A3780C25
:107D4000122C66EA780C122A7EE50CA2E05002059D
:107D5000100AEAC3941B40DDE510605AFA7B00125A
:107D60003E8B8A088B09EA4509604B7B007A0085C7
:107D70000A82850B83A3A3A3780C122C66EA780CE5
:107D8000122A7EE50CA2E05026EAF8E50A28F582E0
:107D9000E4350BF583A3A3A3A3A3A3A3E0C0E0EB67
:107DA000F8E50828F582E43509F583D0E0F00B0A00
:107DB000EAC3941B40B9750C00780C122A5574194B
:107DC000122CF3E0F50C780C122A557808122A517F
:107DD0007418122CF31228558E0C8F0D780C122A61
:107DE00051850A82850B83A3A3A3122851AD108568
:107DF0000A82850B83A3A3E0FCAA12AB13A911127C
:107E00004401740C122A2EE50845096007AA08AB44
:107E100009123E917F0C0226CDC082C0839005934B
:107E2000E06A7003A3E06B600B900593EAF0A3EBAC
:107E3000F0124161D083D0820229FB74F612243CF7
:107E4000EAFEEBFF7A067B00123DEFEA4B602E8ADA
:107E5000828B837431F08E828F83127E848A828B30
:107E600083A3A3E8F0A3E9127E8A8A828B83A3A36B
:107E7000A3A3127BEA901C28E0F9123DFB7F0202CB
:107E800026CDA3A3E0F8A3E0F922F08E828F83A38E
:107E9000A3E0F8A3E0F92274F412243C8A088B09C9
:107EA0007A227B00123DEF8A0A8B0BAE0AAF0BEEF3
:107EB0004F60628E828F837432F0850882850983D9
:107EC000E08E828F83A3A3F0850882850983A312A5
:107ED0002CA08E828F83A3A3A3122CDC850882851D
:107EE0000983A3A3A3A3A3E0F508A3E0F509750AFA
:107EF000007808122A4D7C1B7D00EE2407FAE43F2F
:107F0000FB123DCB7403122A2EEEFAEFFB901C28D5
:107F1000E0F9123DFB027BBEC082C083901C36E0BC
:107F200060238A828B83A3A3A3E070198A828B8348
:107F3000A3E07011900595E4F0A3F07901123315D8
:107F4000901C36E4F0027E3474F712243CE970365B
:107F5000900000E4F079FF123E43E59D5418F8606C
:107F60000D74086860087410686003123855A2A088
:107F7000E433901D2FF0A292E433901D30F043F6CD
:107F80000443F70180097ABF7B3D790012388B7F6B
:107F9000010226CDD083D0820229FB74F612243C44
:107FA000E9FEEAFF901E87E0F4602B7A047B001262
:107FB0003DEFEA4B601C8A828B8374C0F0EFA3A371
:107FC000F0EE8A828B83A3A3A3F0901E87E0F912C0
:107FD0003DFB7900800279017F020226CD74F71201
:107FE000243CE9A2E5E433FA123DB980A2C082C084
:107FF00083123A17027F94FF851A87000229FBFF3C
:108000000000000000000000000000000000000070
:108010000000000000000000000000000000000060
:108020000000000000004B4515369330D12E672F1D
:1080300065401B420B40ED3F6D3800000000000022
:108040000000000000000000000000000000000030
:108050000000000000000000000000000000000020
:108060000000000000000000FFFFFFFFFFFFFFFF18
:10807000FFFFFFFFFFFFFFFF0008000400020001F9
:10808000000000000000000002050200080174006A
:10809000000000000082003A003B000000000000E9
:1080A0000002000206039F020000E9FFFFFF0A0032
:1080B0000000000000000000FF00FFFFFFFF6AAEAD
:1080C000E7FF9751180008000000E80300001F00B8
:1080D000000000F8FF07004800006400000096510F
:1080E0001800FEFFFFFF0100000030000000094300
:1080F0003886102700000400000019E0FCFFF8FF9C
:108100000000E71F0300805101003C000000100E3A
:10811000000003000000000000FF32000000FA0031
:10812000000060EA0000E2040000BC020000000061
:108130000000000000000A74F712243CE990059842
:10814000F090054DE4F0123D9B9005B0E4F0A3F0F3
:10815000900599F0A3F0123363901D21E060046450
:108160000170061246CB122DAB123DA19004D5E44E
:10817000F0A3F012450302B39074EC12243C74D7C0
:10818000122AC7EAFEEBFF54806068900598E0F978
:10819000123E078A088B09EA4509604F7C0080017E
:1081A0000CEC75F003A4F8A9F0743628F582744C31
:1081B00039F583E493F4602CE493F88508828B838B
:1081C000E06870DCAA08EC75F003A4F8743728F5B1
:1081D00082744C39F583E493C0E0740193F583D045
:1081E0008212262DAA08AB09123DF5EEFAEF648043
:1081F0000286BDEF5420601E1231AD8A088B09EA59
:108200004509600A1230C9AA08AB09123DF5EEFA19
:10821000EF64200286BD901D21E06402705FEEA233
:10822000E0501F900552E0640F70117900123099F0
:10823000E96009901E9B122CC41230B1EE64010259
:1082400085D4EF54406036901BC1E06406702874FA
:108250000BF0901EB3E0F9750801750900750A006E
:10826000750B00900540E07808122998AA08AB0920
:10827000AC0AAD0B124677901D1102867BEE54209E
:1082800070030285A57A207B00900598E0F9123FE3
:1082900063EA4B4C4D701A9005AC122CA0E8494A89
:1082A0004B700E750C01750D00750E00750F00807A
:1082B00061750C00750D00750E00750F00123F758D
:1082C0008A088B098C0A8D0B9005AC122CA0E8490A
:1082D0004A4B602A9005AC78081229B7400E750CFD
:1082E000FF750DFF750EFF750FFF801285080C8559
:1082F000090D8C0E8D0F9005AC780C122AAF74010D
:10830000780C122A7EE50C450D450E450F700302D0
:1083100084CC7C0079047A007B001231778A088B48
:10832000090283F985188285198374FFF07401129C
:108330002CF374FFF07402122CF374FF12A2B0FA43
:10834000A3E0FB7403122AA712D1481231D7E964C3
:108350000160030283DBE508240D12AF934480F82B
:10836000A3E0F97424122CF3E8F0A3E912C4A1A34A
:10837000A3A3E0C0E07426122CF3D0E012CF50A3E8
:10838000E0540860167424122CF3A3E04401128612
:10839000E0C0E07428122CF3D0E0F0E50812ECEC19
:1083A000350912CF29601CE508240F12CC18A3E070
:1083B000C812C46938F583E0F87412122CF3E8F09F
:1083C000A3E4F09080B21228517404122AA7740713
:1083D000122A9F122D0F7404122A2E8508828509F5
:1083E00083A3A3A3A3A3A3A3A3A374061286E0F964
:1083F000123159850A08850B09E508450970030201
:1084000084CC7C007904AA08AB091231778A0A8BE4
:108410000B850882850983A3A3A3A3E0F510A3E03D
:10842000F511E4F512F513780C7910122C3640236F
:10843000E5082404F8E43509F9850C10850D118848
:10844000828983C3E09510F0A3E0951112F16F705B
:10845000A2800E850882850983A3A3A3A3E4F0A3C9
:10846000F0850882850983A3A3A3A3A3A3A3A3A341
:10847000A3E06401850882850983A3A3A3A3A3A322
:10848000702BE054046003028324850882850983ED
:10849000A3A3A3A3A3A3A3A3A37406F07AB78508F9
:1084A000828509831288C31230AB0283F3A3A3A38E
:1084B000A3E06003028324850882850983A3A3A324
:1084C000A3A3A3A3A3A37401F00283F31231477CF7
:1084D0000079017A007B001231778B09EA45096047
:1084E0000C7A207B00900598E0F9123E31850C0A49
:1084F000850D0B7C0079047A007B00123177EA4B02
:10850000701580558A828B83A3A3A3A312E62BE563
:108510000898E5099940098A828B83A3A31286D221
:108520007C0079041231778B0DA90DEA4970D5C30F
:10853000E50A9508E50B95095013C3E508950AF57A
:1085400008E509950BF509E508450970147A207BC3
:1085500000900598E0F9123E319005AC129ADC804B
:108560003FE50825E0F508E50933F509E4F50AF5E6
:108570000B7808122A497A207B00900598E0F912BE
:108580003F517404122A2E123F75EAC0E0EBC0E09E
:10859000ED9005ACFBECFAD0E0F9D0E0F8122CDC61
:1085A000EE6420802FE0600764016003028696EE8F
:1085B00054106008122DE7EE64108018EE544060ED
:1085C00008122E5FEE6440800BEE5480600B124662
:1085D000A7EE6480FAEF0286BDEF5401600B123300
:1085E00039EEFAEF64010286BDEF54086047122DA0
:1085F000B7901D0BE064017034901D0CE0602EF507
:1086000008E4F509F50AF50B9080CA780C122C667F
:108610007808790C12234D7808122A497A007B08D1
:10862000900598E0F9123F577404122A2EEEFAEFE3
:1086300064080286BDEF541060129005AAE0600540
:10864000E4F0122DB7EEFAEF64108071EF54406041
:10865000459005D112CF2B6036901D15E064017056
:108660002E9005D212C84D12262D9005D712CF2B71
:10867000600612C84D12262D9080CA1228517A0029
:108680007B40900598E0F9123F577404122A2EEEB1
:10869000FAEF64408027EF5402600A123333EEFA97
:1086A000EF64028018EF5404601612CDFF79019038
:1086B000054B12CC2C122D2DEEFAEF6404FB800436
:1086C0007A007B007429122A2E7F0C0226CD8E821E
:1086D0008F83A3A31286D822E0F508A3E0F5092230
:1086E00012C4A5A3E022C082C08374EA122AC77C08
:1086F000167D007900AA18AB19123DD77408122C08
:10870000F37402F0900541129AAF12872674091291
:108710002CF312CC3B7413122CF3E412CF621244EC
:10872000F1741602D51BE8F0A3E9F090054B12D4C2
:10873000DE2274F712243C74DA122AC7EAFEEBFF39
:10874000EE4F602DAC18AD191231D77406122CF310
:10875000E0601E7417122CF3E0FD7401122CF3E09C
:10876000FCEEFAEFFB7900123081E9600479A48015
:10877000027900742602B38D74F412243CEAFEEBF5
:10878000FF8E828F83A3A3A3A3A3A3E05440601909
:1087900012E28D12CC2C123291E960077AFF7BFF36
:1087A00002886D12E28D028860901D21E0600764EE
:1087B000016003028855900538E0A2E14003028879
:1087C0005512B3D312CD2BA3A3A3A3E0FA888289B9
:1087D00083A3A312D8AA8E828F83A3A3A3A3A3A348
:1087E000A3E054106004794080027900750AFE7598
:1087F0000BFF780A122A511288B1122855AC08AD25
:108800000912E28D12CC2C122DBD7404122A2EE511
:10881000086A7003E5096B600B12BEEA6A7003A375
:10882000E06B703F750A00780A122A5579028E8231
:108830008F8312B494FCA3E0FDAA08AB091232D3D3
:108840007401122A2E7508CDAA081288BF1230AB07
:10885000E9604C8057901D21E0640270E89005416A
:1088600012CC2C74FE6A700374FF6B60D812E28D18
:1088700012E0FD123291E98E828F83600B12BC08E8
:1088800012F3FEE4F0A3800312F3ECF07C9F7D3042
:108890008E828F8312CC2C1244F7E9F50870A9EE72
:1088A0004F60097901EEFAEFFB123153A908028FEC
:1088B00061EE1288B6222411F582E43FF583228E00
:1088C000828F8312F3D5E0F92274F612243CE9FE7C
:1088D000EAFF7A0F7B00123DEFEA4B601F8A828B22
:1088E00083740CF0EEA3A3F0EF8A828B8312B1495C
:1088F000900598E0F9123DFB7900802FEEF91231D6
:108900007D8A088B09A808A909E849601C88828922
:1089100083A3A3A3A3A3A3A3A3A3740612ECF2E0CF
:10892000F9122E71EEF9123159791002C8AA74F4B5
:1089300012243C8A088B098C0A8D0B900552E06446
:108940000F702CEA4509450A450B602390054DE060
:1089500064086005E0640470167808122A497A01F8
:108960007B00900598E0F9123F517404122A2E0200
:108970008F6174F212243CEAFEEBFF8C0A8D0B89A6
:1089800008740E122CF312E630850C82F583E4F0A5
:10899000A312CDF4F5838882E0F912326DE96026E6
:1089A00012CC1F123291E96402701B8E828F83A356
:1089B000A3A3A3A3A3A3A3A312BA75850C82850DB9
:1089C0008312CC3B800375080012B48B14602E1404
:1089D000604314606414606C146048147003028A6D
:1089E0006424FE7003028A7E147003028A87147066
:1089F00003028A9A147003028AA8028ABE780C12B3
:108A00002A51AC0AAD0BEEFAEFFB122DCF74021215
:108A10002A2E028AA3AC0AAD0BEEFAEFFB122DD57B
:108A2000028AC812CC1F123291E96003028ABEEE9C
:108A3000FAEFFB122E23028AC8A908EEFAEFFB1206
:108A400032D9805F12B90964027073E508700A12A6
:108A5000E1B37003A3E069706FEEFAEFFBA90812AF
:108A60003261803F12E1B37003A3E069705012B924
:108A70000964027049EEFAEFFB123249804AEEFABD
:108A8000EFFB123357804112E1B37003A3E069702A
:108A90002DEEFAEFFB1232E5802EEEFAEFFBA9087D
:108AA0001232F1E9F5088020901D15E0640170098B
:108AB000EEFAEFFB1232FD800F750800800A750890
:108AC000007AD37B001241FDA9088007A90A74032C
:108AD000122A2E7F060226CD74F412243C74D6127C
:108AE0002AC78A088B098A828B83A3A3E0F91231F3
:108AF0007D8A0A8B0BAE0AAF0BEE4F7003028C0A15
:108B0000850882850983A3A882A983E0C0E012CCEE
:108B100006D0E012E63DE064F16033850882850905
:108B200083A3E064CD6027850882850983A3E06480
:108B30001A601B850882850983A3E064E9600F85BC
:108B40000882850983A3E064E16003028D02901D21
:108B500021E0600764016003028C2B8E828F83A367
:108B6000A3A3A3A3A3A3E054087003028C2B8E82BB
:108B70008F83A3A3A3A3A3A3A3A3A37405F0901D12
:108B800021E0600464017053850882850983A3E0B5
:108B900064E960479005CD12CF2B600612C84D12D4
:108BA000262D9005CF12CF2B6031900538E0A2E141
:108BB000502912D11EA3A3A312B947888289831218
:108BC000CC2C123393EA4B6012850882850983A36B
:108BD000E0F99005CF12E29112262D8E828F83A3A9
:108BE000A3A3A3A3A3A3A3A3E0640270108E828F08
:108BF00083A3A3A3A3A3A3A3A3A37406F0850882BE
:108C0000850983A3A3E0F9123159123147901D2140
:108C1000E064027011901EA1E0F508A3E0AA08FB31
:108C2000E4FCFD1230B1742A028F5E7900123153D8
:108C3000E97003028D02901D21E06007640160036A
:108C4000028CD7900538E0A2E14003028CD712CF06
:108C5000267003028CD78E828F8312CC2C74041260
:108C60002AA712D1481231D7850882850983A3E04B
:108C700064E97023128E0C122A55850882850983B7
:108C8000A3E0F50A780A122A55128E1912CC2C127A
:108C9000320D7402122A2E740D122CF312CF1C12F4
:108CA000F09A12CC3B7409122CF3E06004794080F6
:108CB000027900740F122CF312B947740D122CF3C1
:108CC00012CC2C122DC9E9600E8E828F83A3A3A330
:108CD000A3A3A3E04420F0EE2404F50AE43FF50B3F
:108CE0008E828F8312AFA0E0F9850A82850B8312F2
:108CF000CC2C123DAD850A82850B83EAF0A3EB02F2
:108D00008B7D850882850983A3E0C0E07402122C64
:108D1000F3D0E012A79012E099E508240B12AF936C
:108D2000C0E07403122CF3D0E012E900E0AA18AB03
:108D3000197031122D09901D21E060046401702723
:108D40007402122CF3E0701F12E28D12CC2C12323E
:108D500091E970399005CD12CF2B603112C84D12B8
:108D6000262D80031232677402122CF3E064E9703E
:108D70001C128E0C122A55750AE9780A122A55120D
:108D80008E1912CC2C12320D7402122A2E901D2133
:108D9000E0600764016003028BDB900538E0A2E12C
:108DA0004003028BDB8E828F83A3A3A3A3A3A3A381
:108DB000A3A3E06402703C8E828F83A3A3A3A3A32A
:108DC000A3E05404602D12E28D12CC2C123291E9F2
:108DD0008E828F83700F12E29174FFF0A312A9406C
:108DE0007405028BFCA3A3A3A3A3A3A3A3A374034F
:108DF000028BFC850882850983A3E064E960030295
:108E00008BDBEEFAEFFB12330F028BDB8E828F834C
:108E100012D9E0750A01780A22E508240C12BF096C
:108E2000E0F98A828B83A3A3A3A3A3A3A3A3A31282
:108E3000D8A22274F412243CEAFEEBFF75080075F8
:108E400009008E828F83A3A3A3A3A3E0603B7508D0
:108E50000812CC1F79FF122F738B0BEA450B6010A1
:108E600075082C8E828F83A3A3A3A3A3E0D2E0F086
:108E70008E828F83A3A3A3A3A3E0540364016003A2
:108E8000028F3D430811028F3DEE241812B90C6089
:108E900049EE241A12B90C6003F4701D12E1B3708C
:108EA00003A3E0697006750822028F3D90054DE02E
:108EB00064046003028F3D801CEE241BF582E43FB6
:108EC00012B955241A12B90CFAEE2419129B6C121D
:108ED0002E35E97068750901806312CC1F1232913A
:108EE000E96402700375080112E1B37003A3E0693D
:108EF0007006E508D2E1F508E50860158E828F83DB
:108F0000A3A3E07006E508D2E58004E508D2E6F503
:108F10000812CC1F123291E964017006E508D2E014
:108F2000F5088E828F83A3A3E0601212B48BF9122E
:108F3000326DE964016006E508C2E0F508901D2184
:108F4000E0600464017012E508A2E1400CE509A2AA
:108F5000E04006E508D2E7F5080288AC7418122A4A
:108F60002E7F040226CD74EC12243C74C3122AC74F
:108F7000EAFEEBFF85188285198374FEF0A304F0E6
:108F8000751000751100750900901D21E0640270D4
:108F9000248E828F83A3A3A3A3E06019901E9F1247
:108FA000CF2B6011901E9FE0F50AA3E0AA0AFBE414
:108FB000FCFD1230B17405122AA78E828F83A3A301
:108FC000A312CF1E12CC2A1231D7E970030293A24A
:108FD00078017407122CF3E0C39402400278007405
:108FE00009122CF3E0C3940240027800740E122C94
:108FF000F3E064F87003A3E0F470030293A2740E2C
:10900000122CF3E064F97003A3E0F470030293A25E
:10901000740E122CF3E064FA7003A3E0F470030200
:1090200093A2740E122CF3E064FB7003A3E0F470BF
:10903000030293A27408122CF3E0F990053BE06957
:1090400060030293A2E8A2E040030293A2901D21D4
:10905000E06402700B7429122CF3E060030293A207
:1090600012BA6C7424122CF312B976241C12BA6F43
:109070007412122CF312CC3B740B122CF3E0601D13
:10908000741C122CF3E0FD7406122CF3E0FC8E82AB
:109090008F8312CC2A7901123081E9703D74051258
:1090A0002A9F1230C3E9F508740B122CF3E0702FDD
:1090B000900535E0602974225508642260217442CD
:1090C0005508644270147422122CF3129A88600FAF
:1090D0007422122CF3129A8E60057ACF0293A4E9BF
:1090E000A2E6506C901D21E060046401701B9005A5
:1090F00038E0A2E150137422122CF312B494122817
:10910000DA01010B279100A2937422122CF312B4FE
:109110009424FD601214600F24FD600B24FD600791
:1091200024FE60030293A27422122CF3129AC770D9
:109130000F7422122CF3A312C84DA3E0640D60102B
:109140007405122A9F1232CDE964017003029A71EC
:10915000EE242DF582E43FF58312A2A37003A3E071
:10916000697021750A00780A122A55780A122A5560
:10917000EE242F129B6C129A9412CC2C12320D7486
:1091800002122A2E740B122CF3E070030292331297
:109190009A9412CC2C1233938A0A8B0BEA450B70EB
:1091A000030292CA7406122CF3E0F88E828F83A316
:1091B000A3E028F8A3E03400F9E8240D129A76F829
:1091C0008A828B83A3A3A3E068600EE88A828B83E4
:1091D000A3A3A312B137129ADC79047406122CF3FC
:1091E00012A5F3E02AF8A3E034008882F583A3AA4D
:1091F00082AB83123DE38A0C8B0D8C0E8D0F850A9A
:1092000082850B83A3A3A3A3780C1229B740030282
:109210009A719080E6780C122B6D850A82850B83FB
:10922000A3A3A3A3E50CF0A3E50DF0A3E50EF0A323
:10923000E50FF0901D21E064026003029377900532
:109240004DE064046008E064096003029A71E50877
:10925000A2E54003029305EE242F12B90CC0E0747E
:1092600002122CF3D0E0129AEDC0E07403122CF33A
:10927000D0E0129AE5C0E07404122CF3D0E0F07450
:1092800016122CF3E0640170267410122CF3129A5B
:10929000A47003A3E0697017740E122CF312CC2C87
:1092A000123291E9640270077416122CF3E4F01282
:1092B0009AD21228517406122AA77409122A9F12F0
:1092C0002D0F7404122A2E029A71900592E0640107
:1092D00060030292337422122CF3129A887009E50B
:1092E00008A2E650030292337412122CF3E0F470D9
:1092F00003A3E0F4600CEEFCEFFD7405122A9F124C
:1093000030CF029A71A2E64003029A717422122CA5
:10931000F312D12B7016741C122CF3E064027054FB
:109320007405122A9F790012326180487422122C2F
:10933000F3129A8E7014741C122CF3E064047034CF
:109340007405122A9F123255802A7422122CF312AD
:109350009AC7700C79007405122A9F1232D98014B2
:109360007422122CF312B496640C70087405122A3D
:109370009F123309029A71E0600764016003029A48
:1093800071900538E0A2E14003029A717429122C11
:10939000F3E060267410122CF312CC2C1246A1E9D3
:1093A000700A7AD37B001241FD029A718E828F83FC
:1093B000A3A312E291A3E0C2E5F07416122CF3E02D
:1093C000601DEE2402F8E43FF9E8FAE9FB12D1311E
:1093D00014F012D131F87416122CF3E8F07006E58F
:1093E00008C2E7F508E508A2E35061751110A2E292
:1093F0005018740A122CF3E054E3F0740A122CF3A0
:10940000E0131313541FF8E0802CA2E4502A740ACE
:10941000122CF3E01313543F5407F86009740768E3
:10942000600B18E87007C3E508C2E7F508E83333B6
:1094300054FCF8E054E348F0740A122CF3E0C0E066
:109440008E828F83A3A312B07ED0E0F090054DE012
:1094500064046008E064096003029528740E122C0D
:10946000F312E1C07003A3E069601F740E122CF3C5
:1094700012CC2C123291E96402600F740A122CF3A0
:10948000E0540364016003029A717407122CF3E044
:109490007041EE242F12B90CC0E07402122CF3D0EC
:1094A000E0129AEDC0E07403122CF3D0E0129AE5BA
:1094B000C0E07404122CF3D0E0129ACD122851743B
:1094C00006122AA77409122A9F122D0F7404122A59
:1094D0002E80527422122CF312D12B7016741C128F
:1094E0002CF3E06402703E7405122A9F7900123258
:1094F0006180327422122CF3129A8E7014741C1232
:109500002CF3E06404701E7405122A9F12325580F9
:10951000147422122CF3129AC7700A79007405127F
:109520002A9F1232D9029A7174615508700302960B
:109530002FE508A2E0506D12B93E7405122A9F1261
:109540002E65E9705C123207E9F5097416122CF3E6
:10955000E0700F7410122CF3129AA47003A3E06948
:109560006042A90912B93E7405122A9F122E6BE9B6
:109570006024E508A2E3500C85188285198374FFE6
:10958000F0A3800C740E122CF3129AAFE8F0A3E94A
:10959000F0751004800EE508C2E5F5087509008035
:1095A0000353089FE508A2E5503FEE242F12B90CA3
:1095B000C0E07402122CF3D0E0129AEDC0E0740304
:1095C000122CF3D0E0129AE5C0E07404122CF3D010
:1095D000E0129ACD1228517406122AA77409122A91
:1095E0009F122D0F7404122A2EE508A2E6400302F2
:1095F0009904A818A919880A890B780A122A51A96E
:1096000009129A7F122A9F1230B77402122A2EE989
:10961000F50970030299047422122CF312B49464B5
:1096200001600302990474104510F5100299047446
:1096300007122CF3E06401705D7422122CF312B453
:10964000946405701EA818A9198808890978081259
:109650002A51129A7D122A9F1230B77402122A2EB2
:10966000029A717422122CF3129AC77029740E1286
:109670002CF312CC2C1246A1E9601BA818A919885A
:109680000A890B780A122A51129A7D122A9F1230E7
:10969000B77402122A2E7416122CF3E07025740788
:1096A000122CF3E06401700C7422122CF3E0F81217
:1096B0009AC7600CEEFCEFFD7405122A9F1230CFA2
:1096C000029A7112314DE96003029A71741D122CD5
:1096D000F3E0700302977D7420122CF312B94774E3
:1096E0001F122CF3E0FA741E122CF3E0F9122E353F
:1096F000E9607D741F122CF3E0701E740E122CF3BF
:10970000129AAF12F40EFAA3E0FB1246958B0BEA05
:10971000450B60030298FE80517420122CF312CC8A
:109720002C741F122CF3E0F9122E2F851882851944
:109730008312E0FD7808740D122CF3E060027810BB
:10974000740C122CF3E06004740828F8740A122CCC
:10975000F3E0600108088E828F83A3A3E028FAA3B8
:10976000E034008A82F583E014F07510400298FE20
:109770007508007808122A55790B0298B7740E12F2
:109780002CF312CC307409122CF3E060030298D24F
:10979000E508A2E350030298D27407122CF3E064A8
:1097A00001607A790085188285198312CC2C122EDB
:1097B000898A0A8B0BA80AA90BE849601C88828950
:1097C00083A3A3A3A3A3E06401605288828983A337
:1097D000A3A3A3A3E064026044EE242D12B9418543
:1097E000188285198312CC2C1233938A828B83E5DD
:1097F000824583600FA3A3E0F91233B1E96005C38A
:10980000940840197410122CF312CC2C1246A1E9C2
:1098100070030298AD7409122CF37404F07800E818
:10982000F5097809122A55741E122CF3AC82AD8307
:10983000740F122CF312CC2C740A122CF3E0F912D0
:109840002E9B7401122A2EE9600F7510208E828FD4
:1098500083A3A312B494543FF0741D122CF3E06060
:1098600023740E122CF312B947741E122CF3AA8221
:10987000AB831231D185188285198312E0FD7440C3
:109880004510F5107407122CF3E06401601579009F
:109890007410122CF312B947740E122CF312CC2C44
:1098A000122E3BE508A2E350377940803575080059
:1098B0007808122A557902740F122CF312B94774E2
:1098C00011122CF312CC2C1232D37401122A2E0254
:1098D0009A71E508A2E3400302981D784002981FA0
:1098E00079007410122CF312B947740E122CF31273
:1098F000CC2C122DC9E9600674204510F5101232E7
:1099000007E9F509851882851983E064FE7003A3D1
:10991000E0F47003750900901D0EE064016003021D
:1099200099B7EE241312B90CF47003A3E0F470039A
:109930000299B7740E122CF3C3E094F9A3E094FFDC
:10994000507512BA6C7410122CF3E0687003A3E027
:109950006960647410122CF312CC2C1246958A0A9A
:109960008B0BA80AA90BE849604D88828983A3A3C1
:10997000A3A3E06401600D88828983A3A3A3A3E06D
:10998000640270337430122CF3740112E647F8A3AA
:10999000E0F9743B122CF312CC3B7430122A9F1264
:1099A00046FBE960127433122CF3AA82AB83124691
:1099B0004DE96003124185E508A2E74003029A7170
:1099C000E5097003029A718E828F83A3A3A3A3E09B
:1099D000FA7B00123E8B8A0A8B0BEA450B7003025E
:1099E0009A71EE2404F512E43FF5138E828F83A35F
:1099F000129AB9122A4D851282851383E0FC7D00EC
:109A0000123DCB7403122A2E7407122CF3E0C0E02F
:109A1000742B122CF3D0E0F0742E122CF3E4F0A38C
:109A2000F0742B122A97880C890D780C122A517524
:109A300008007808122A557810122A51E509F5080D
:109A40007808122A5512B9001228558512828513FA
:109A500083E0F97408122CF312B947AA0AAB0B126F
:109A600031C57408122A2EE96007AA0AAB0B123E10
:109A700091743D0286C6F582E412EE8522790012C9
:109A8000B90412B94B74072212B4AE64062212B4A0
:109A9000B0640722EE242BF582E43FF58312B95B14
:109AA00012B9052212D4DEEE241312BEF16822127E
:109AB000D4DE85188285198322A3E0F50CA3E0F596
:109AC0000D750E00780C2212B4B0640322F0129AC5
:109AD000D222EE2425F582E43FF58322E4F0A3F0C0
:109AE000A3F0A3F022F0EE243112BEF122F0EE2416
:109AF0003012BEF12274F412243CEAFEEBFF8C0813
:109B00008D09901D0BE0600F12E1B37003A3E069B3
:109B10007005122DB78052790012CC1F122E898A3F
:109B2000828B83E58245836035A3A3A3A3A3A3E02F
:109B30005418602AE508241C12CC18122855E50890
:109B4000241312CC18122855EE2418129B6C129B69
:109B50007112CC2C122EA17404122A2E800B7900C3
:109B6000129B7112CC2C122DE1028F6112BEF1F901
:109B7000228E828F83A3A3A3A3A3A3A3A3A312B91B
:109B80005B12CC0B2274F012243C74EA122AC78AAE
:109B90000A8B0BEA2402F50EE4350BF50F0A0AFBDB
:109BA00012468F8A088B09AE08AF09750801850A2D
:109BB00082850B83A3E0F509750C01AC0EAD0F7423
:109BC0000B122CF3AA82AB83123F9F7413122CF357
:109BD00074FEF0A304F07415122CF37402F07408F0
:109BE000122CF3E4F0901E37E0700EEE4F700AE591
:109BF0000970067508C3029DC190054DE0640860B8
:109C0000067508C2029DBD850A82850B83A3A3A3A6
:109C1000A3A3A3A3A3A3A3E0A2E1500EA2E3500534
:109C2000750C04800C750C038007A2E35003750CBF
:109C300002EE4F7003029CD08E828F83A3A3A3A356
:109C4000E06404600D8E828F83A3A3A3A3E064036A
:109C5000700C7404650C602C7403650C60268E8295
:109C60008F83A3A3A3A3E06402600D8E828F83A3DE
:109C7000A3A3A3E0640170317402650C6006740153
:109C8000650C70188E828F8312CC2C1232AFE97063
:109C90003F12A936122CF312CC3B80348E828F8374
:109CA000A3A3A3A3E06402600D8E828F83A3A3A36A
:109CB000A3E06401700A8E828F8312CC2C122DFFD8
:109CC000E50A2402FAE4350BFB12464D7E007F00C4
:109CD0007413122CF3E064FE7003A3E0F4704612D8
:109CE00046EFE97040E509601B901E4012CC2C1233
:109CF00032AFE9700F901E4012A93A122CF3E8F02F
:109D0000A3E98020850A82850B83A3A3A3A3A3A331
:109D1000A3A3A3A3E05402F9122DF37413122CF39E
:109D2000EAF0A3EBF07413122CF3E064FE7003A3CB
:109D3000E0F470067508C7029DBDE509F50D780DC4
:109D4000122A55850A82850B83A3A3A3A3A3A3A3E9
:109D5000A3A3A3E0F9E50A2402FCE4350BFD741487
:109D6000122CF312CC2C122D337401122A2EE9700E
:109D70004CA90CE50A2402FCE4350BFD7413122CEB
:109D8000F312CC2C1246B98A0E8B0FAE0EAF0FEE2B
:109D90004F601F74026509700D8E828F83A3A3A389
:109DA000A3A3E0D2E3F07415122CF3E4F0750800DD
:109DB000800B7413122CF374FEF0A304F0E5097009
:109DC00009AA18AB191244D9800AFCA90CAA18AB2D
:109DD0001912324FE9FCEE4F6053E50960208E8284
:109DE0008F83A3A3A3A3A3E0D2E6F0740265097056
:109DF0000D8E828F83A3A3A3A3A3E0D2E5F0850AEF
:109E000082850B83A3A3A3A3A3A3A3A3A3A3E0A2DD
:109E1000E6500D8E828F83A3A3A3A3A3E0D2E7F025
:109E20008E828F83A3A3A3A3A3A3E004F0E508700D
:109E30003BEC60337D007A017B10123DA7EE4F6052
:109E40000CE50A2402FAE4350BFB12464D7413129A
:109E50002CF3E064FE7003A3E0F4600B7413122C87
:109E6000F312CC2C122DFF741602D8CCFC80C574D2
:109E7000F712243C74F7122AC7EAFEEBFF90054D57
:109E8000E06403600DE064016008E06409600302BF
:109E90009FBE8E828F83A3E06003029F7C7C007D47
:109EA000007A027B00123DA7129FC38A828B831225
:109EB000BA7590053E12CC3B79531244CD90054DB6
:109EC000E06409600990054B12CC2C12338D851883
:109ED00082851983740112CF6279421244CD9005B4
:109EE0004D7404F07401122A9F794A1244C7740118
:109EF000122AA77A437B05123F9F901BC1E0640B97
:109F000070057406F0800B790090054B12CC2C1272
:109F10002D2D901D21E060046401701F900541E02B
:109F200064FE7003A3E0F4602A79007401122AA78A
:109F300090054112CC2C1246B98018E064027013CF
:109F400090053E12B9477A037B00123DA712A82262
:109F5000123DA7900538E0A2E35004D2F08002C27F
:109F6000F012CF5879521244CD901D21E064027056
:109F70004A901E9B122CC41230B1803FFC7D007AA7
:109F8000037B10123DA7901D21E06402701B901B03
:109F9000C1E0640B7003740AF0901D0FE4F0FA7BCB
:109FA00040900598E0F9123F5D8E828F83129FCD1D
:109FB00012CC2C122D2D90054DE4F012311D740998
:109FC00002B38DEE2402FAE43FFB22E0F8A3E0F9AD
:109FD00090054B22C082C0839004D512CF2B701FF6
:109FE00090054DE014600924FC600A14600C800F99
:109FF0009004E080349004DC802F9004DE802AE816
:10A000004960089004D612A604700C8A828B83A340
:10A01000E0F9122D15801D9004D512D1356402701F
:10A0200005123327800E9005CB12CF2B600612C885
:10A030004D12262D02C51874F412243C74FE122A07
:10A04000C78A088B097A007B04900598E0F9123FD3
:10A050005DAA18AB1979501244C77A0F7B00123DE4
:10A06000EF8A0A8B0BAE0AAF0BEE4F602085088299
:10A07000850983A3E0701690054BE0F47003A3E01C
:10A08000F4603B12A29D7003A3E0696031850882F1
:10A09000850983A374EA12A7881244CD7A417B050F
:10A0A000794B1244CD7A4B7B0579501244CD7A40DE
:10A0B0007B0579E11244CDEE4F700302A1478E82F9
:10A0C0008F837402F090054BE0F47003A3E0F4601A
:10A0D0000A12A29D7003A3E069704F85188285194A
:10A0E00083129FCBE8F0A3E912A7881244C790051A
:10A0F0003E12AFB112CC3B7A417B05794B1244C77B
:10A100007A407B0579E11244C7750A00780A122A61
:10A1100055780A122A55901E86129FCE12ACE7126D
:10A12000CC2C12320D7402122A2E850882850983E6
:10A1300012A14CA3F090054D7403F0EEFAEFFB90E2
:10A140000598E0F9123DFB7402028F5EA3E08E8257
:10A150008F832274F412243C74E8122AC7EAFCEBC1
:10A16000FD8C828D83A3A3A3A37808122C667808A4
:10A17000122C1690054E7808122BDF7F7F7E7F7998
:10A180000090054E7808122C66E97808122A7EE5C0
:10A1900008A2E050297800900599801485088285EE
:10A1A0000983A3A3E069700108E508241412CC1800
:10A1B00012A9D170E7E8C39F5004E8FFE9FE09E95E
:10A1C000C3941B40BC8C828D83A3A3A3A3122CA099
:10A1D000E8494A4B6079EC2404F508E43DF509852B
:10A1E0000882F583122CA090054E122CDC7C187D81
:10A1F000007900AA18AB19123DD78508828509831A
:10A20000122CA0851882851983122CDC7404122C60
:10A21000F37401F0900554E0C0E07405122CF3D003
:10A22000E0F07407122CF3E412CF621244E5806A66
:10A2300090054B12CC2C122D638A0A8B0BA80AA90D
:10A240000B90054B12A2AC687003A3E069602D90DF
:10A25000059912A9D1602585088285098312A2A3D8
:10A260007003A3E069700C850882850983A3A3E0CD
:10A270006E60BDE508241412CC1880D6EE9005401F
:10A28000F01230FFE9601390054DE4F09004E21203
:10A29000CF2B600612C84B12262D028F5C851882C8
:10A2A00085198312D4DE90054BE06822E8F0A3E91B
:10A2B00012A2B422F0850882850983E02274F41288
:10A2C000243C74E8122AC78A828B83A3A3A3A3A386
:10A2D000A3A3A3A312D9DC7C0090054E7808122C0E
:10A2E00066EC7808122A7EE508A2E0502FECF8EA26
:10A2F0002812BA64F8901E3FE0C398501F750801F9
:10A30000750900750A00750B00EC78081229987819
:10A3100008122C1690054E7808122BDF0CECC39413
:10A320001B40B690054E122CA0E8494A4B604E7C6B
:10A33000187D007900AA18AB19123DD790054E126E
:10A340002CA0851882851983122CDC7404122CF33E
:10A350007401F07407122CF37401F0900554E0C0FE
:10A36000E07405122CF3D0E0F07407122CF3E41221
:10A37000CF621244E590054D7406F0801C90054DA7
:10A38000E4F0FCFD7A047B10123DA79004E212CFAA
:10A390002B600612C84B12262D028F5C74F5122416
:10A3A0003C74D1122AC78A088B098A828B8312BC1B
:10A3B00000741C122AA78A828B83A3A3A3A3A3A33E
:10A3C000A312A5FC12CC2312312F741C122CF3E023
:10A3D000702C850882850983A3A3A3A3A3A3A3A3A9
:10A3E000E0C3940B40188E828F83A3A3A3A3A3A3DF
:10A3F000A3A3E06402700712CC06E0F4600302A598
:10A40000EE90054DE06402700302A4D3E064067090
:10A410000302A4D39004D512CF2B600812A60470B7
:10A420000302A50790054DE064086008E06404603D
:10A430000302A5EE741E122CF312A5F3A3A3A3A38B
:10A4400012BC009004D5E0F849600712D13B6402C9
:10A45000607790054BE06E7003A3E06F600302A588
:10A46000EE74016A60167423122CF3AC82AD837A09
:10A470005F7B05123F99E9600302A5EE7A007B023B
:10A48000900598E0F9123F63EA4B4C4D600302A53A
:10A49000EE90054E122CA0851882851983122CDCB3
:10A4A000900554E0C0E07404122CF3D0E0F0740581
:10A4B000122CF37401F07406122CF3740212CF62A2
:10A4C0001245CFE9600302A5EBEEFAEFFB12332150
:10A4D00002A5EE9004D512CF2B702C7508007808D9
:10A4E000122A557808122A55EE2410F582E43FF519
:10A4F0008312CF1FA3A3A3A3A312B96412CC2C125F
:10A50000320D7402122A2E8E828F8312BA7574074E
:10A51000122CF3E8F0A3E912A94012BA75740912DB
:10A520002CF312B97612BEFBC0E0740B122CF3D0E0
:10A53000E0F012CC061286D4740F7808122C7574D1
:10A540000C122CF3E508F07420122CF3E0C0E07438
:10A550000D122CF3D0E0F07422122CF3E0C0E07462
:10A560000E122CF3D0E0F0741D122CF3E0C0E07456
:10A5700010122CF3D0E0F0741E122CF3E0C0E07443
:10A580000F122CF3D0E0F0EE241012B90CC0E074DE
:10A5900011122CF3D0E0F07421122CF3E0C0E0741F
:10A5A00012122CF3D0E0F0742E122CF3E0C0E07401
:10A5B00013122CF3D0E0F07423122CF3A982AA8397
:10A5C00089088A09750A007808122A4D7C087D00DE
:10A5D0007417122CF3AA82AB83123DCB7403122A98
:10A5E0002E7407122A9F122D2780031245C9742F3B
:10A5F00002B5FDE0FA8E828F83A3A322A3E0F98A3D
:10A60000828B832212D13C64012274F712243C74A1
:10A61000C9122AC712333F90054DE06408601F90AD
:10A620004D06E49390052FF0904D06E49390052D90
:10A63000F0900556740112A77FA30412A77F7C2314
:10A640007D0079007414122A9F123DD790055EE0B8
:10A650007009741E122CF374018006741E122CF300
:10A66000E412A790740FF0901E3E12CF627946124A
:10A6700044CD7401122CF3E4F0901EB4E0C0E074F9
:10A6800002122CF3D0E0F090053BE0C0E07403121E
:10A690002CF3D0E0F07404122CF3E4F07405122CC7
:10A6A000F3E4F07407122CF3E4F090055EE0C39439
:10A6B0000F500CE0C0E07406122CF3D0E080077459
:10A6C00006122CF3740FF07C5F7D057408122CF3D6
:10A6D000AA82AB83123F9F7C037D0079FF74101226
:10A6E0002CF3AA82AB83123DD7900597E0C0E074AB
:10A6F00013122CF3D0E012CB6C7401122A9F12318A
:10A70000297A9B7B0579451244CD12323D90055242
:10A71000E0C0E0741C122CF3D0E0F0900553E0C0D0
:10A72000E0741D122CF3D0E0F0900540E0C0E0741E
:10A730001A122CF3D0E012872A7418122CF312CCC0
:10A740003B7420122CF3E4F0900555E0C0E0741F38
:10A75000122CF3D0E0F07434122CF3E4F0742912CC
:10A760002CF3E412A7881244CD7A417B05794B1271
:10A7700044CD7414122A9F1244EB743702B38DF047
:10A78000A3E4F0A3F0A3F022F07A3E7B05795322F4
:10A7900012A79422F085188285198322C082C08373
:10A7A0008A828B83A3E090054D6004E4F08070748E
:10A7B00008F090055EE070289004E212CF2B60084C
:10A7C000790012C84D12262D90054B12B9477A0513
:10A7D0007B00123DA790054B12CC2C12338D8018B4
:10A7E0007900122D2190053E12B9477A067B00129E
:10A7F0003DA712A822123DA79005D112CF2B601FB2
:10A80000901D15E0640170179080CA1228517A00DB
:10A810007B40900598E0F9123F577404122A2E02EB
:10A82000C51890054112B94B7A047B002274F412CA
:10A83000243C74EA122AC78A088B09EA2402FAE443
:10A840003509FB12468F8A0A8B0BAE0AAF0BEE4F0F
:10A85000700302A9318E828F83A3A3A3A3E06401B6
:10A86000602A8E828F83A3A3A3A3E06402601D8E5F
:10A87000828F83A3A3A3A3E0640360108E828F83DF
:10A88000A3A3A3A3E06404600302A931E5082402A2
:10A89000FCE43509FD740B122CF3AA82AB83123F42
:10A8A0009F12A936122CF312CC3B7415122CF374A0
:10A8B00001F07408122CF3E412CF621244DFE9FCB9
:10A8C0007D007A077B00123DA78E828F83A3A3A30E
:10A8D000A3A3E0C2E012A940740112E90F500109DC
:10A8E0007A027B00122255E88E828F83A3A3A3A352
:10A8F000A3A3A3A3F0901D15E064017034901D0F75
:10A90000E06402702C8E828F83A3A3A3A3E0640172
:10A91000600D8E828F83A3A3A3A3E0640270121242
:10A92000B900122CA012C1EF122CDCEE241B12CFA6
:10A93000127416028F5E8E828F8312D4DE741322FD
:10A9400012A9442212C225A3A3A3A32274F21224A3
:10A950003C74F8122AC7EAFEEBFF8C0A8D0B890DB6
:10A96000908070AC18AD197408122977750C00EE40
:10A97000FCEFFDAA18AB19123F99E97003750C01A1
:10A98000900599801AEEFCEFFDE508240BFAE435FA
:10A9900009FB123F99E97023E508241412CC181220
:10A9A000A9D16024E50CA2E040DB850882850983FB
:10A9B000E0650A7004A3E0650B70DD8508828509F7
:10A9C00083A3A3E0650D70D0AA08AB097408028ABE
:10A9D000D01286D8E508450922C082C08390059927
:10A9E00002C51574F712243C90059912F095800C5D
:10A9F00012D74412BC03123E91EEFAEFFBEA4B7001
:10AA0000EF900599E4F0A3F002B39074F412243CA3
:10AA1000EAFEEBFFEE241312B90C6403700CEE2473
:10AA20000BFAE43FFB12468F800EE06402707C124A
:10AA3000CC0612CC2C1246958A088B09E5084509EC
:10AA400060698E828F83A3E0700F850882850983F9
:10AA5000A3A3A3A3A3A3E4805164F1600A8E828F11
:10AA600083A3E064E17027850882850983A3A3A3FB
:10AA7000A3A3A3E06401701685088285098312CC24
:10AA80002C122DFFEE240BFAE43FFB12464D8508F5
:10AA900082850983A3A3A3A3A3A3E0600E850882F4
:10AAA000850983A3A3A3A3A3A314F0028F6174F168
:10AAB00012243C8A088B09ECFEEDFF890A8A828BFE
:10AAC0008312DB7F8A828B8312A14C12AB808A8235
:10AAD0008B83A3A3E0C454F0FA88828983E04A12EE
:10AAE000AB9012A14C12AB8AE0333354FCF88E8247
:10AAF0008F83E04812AB8AA3E033333354F8F88EE7
:10AB0000828F83E04812AB808508828B83A3A3A346
:10AB1000A3A3A3E0A2E0E4331313FA88828983E0BD
:10AB20004AF0E5082407F50CE43509F50D750E002B
:10AB3000780C122A4D7C087D00EEFAEFFB123DCB1B
:10AB40007403122A2EEE2408FE50010FE508240F8C
:10AB5000F50CE43509F50D780C122A4D7C037D00C7
:10AB6000EEFAEFFB123DCB7403122A2EE50AC394D2
:10AB70000F400A12CC1412A14DA3A3A3F002E8E1E6
:10AB8000F0EEF8EFF9A30EAF832212AB90A3A3224D
:10AB9000F08508828B83A3A32274F112243CEAFE81
:10ABA000EBFF890A8C088D098E828F83E08C828D61
:10ABB0008312BF2CAE82AF83E012C2DB12C4C5C4C5
:10ABC00012C2DB12AC58E012C2E212C4C3A2E2E429
:10ABD000338C828D8312C4C2131313541F12C2DB31
:10ABE00012C4C1A2E7E4338C828D83A3A3A3A31272
:10ABF000AC588E0C8F0D750E00780C122A4D7C0807
:10AC00007D00E5082407FAE43509FB123DCB740307
:10AC1000122A2EEE2408FE50010F8E0C8F0D780C98
:10AC2000122A4D7C037D00E508240FFAE43509FB68
:10AC3000123DCB7403122A2EE50AC3940F40118EE5
:10AC4000828F83A3A3A3E0C0E012CC14D0E08004E1
:10AC500012CC14E4F002E8E1A3A312BF300EAF83DC
:10AC60002274F512243C8A088B098A828B83A3AE56
:10AC700082AF83E0F9122D4B8E828F83E064EB600C
:10AC800024850882850983A3E064E1601885088231
:10AC9000850983A3E064F1600C850882850983A39C
:10ACA000E0641A7009850882850983A3E4F0901E88
:10ACB0009B122CC41230B1750A01780A122A5585EC
:10ACC0000882850983A3E0F5087808122A557900DF
:10ACD00090054B12ACE712CC2C12320D7402122AE2
:10ACE0002E12314702B60012B94B90054122C082A4
:10ACF000C083E99005AB7003E480027401801EE01C
:10AD0000F902C518C082C0837C9F7D308A828B8304
:10AD100012CC2C1244F702C518EAF0A3EBF002C5DE
:10AD20001874F612243C9005ABE0701B7C0079018E
:10AD30007A007B00123177EA4B600C8A828B831297
:10AD4000CF2B60031230A502C8AAC082C083790449
:10AD5000123171E9F8904D18E493C398401079FFCF
:10AD6000123171E9F8904D13E493C39850047901BE
:10AD70008002790002C51874F012243C8A088B09FD
:10AD8000890B750C008A828B83A3A3A3A3A3A3A31F
:10AD9000A3E0F912317D8A0E8B0FAE0EAF0F750A4C
:10ADA00001EE4F600302AE6285088285098312AF0F
:10ADB000A0A3A3A3A3A3A312BFE912CC2C123165B5
:10ADC0008A0C8B0DAE0CAF0DEE4F700302AF8B8E65
:10ADD000828F83A3A3A3A3E4F0A3F0E508240CFAD5
:10ADE000E43509FB8A828B83E0C0E012E905D0E0FC
:10ADF000F0E508240D12AF9812DB4D12CC3B123255
:10AE00009DEE240F12E0F7E508241112AF98128886
:10AE1000B212CC3BE508241312AF93C0E012B90084
:10AE2000D0E0F0750C01EE240612BEE1E0547FF094
:10AE3000A3E054FC12E63DE05404600302AED99056
:10AE40001EADE0F50875090074077808122BF28E24
:10AE5000828F83A3A3A3A3A3A3E04508F0A3E045A7
:10AE600009F08E828F83A3A3A3A31286D2740778DE
:10AE700008122C75E5085407FCE50B606C8E828F78
:10AE800083A3A3A3A3A3A3A3A3A3740212C4C61260
:10AE9000B267600B90053912AFB1A3A312CC3BECA3
:10AEA000700302AF54EE240612F3A0547FF508A3FA
:10AEB000E054FCF509EC24FFF50EE434FFF50F74C3
:10AEC00007780E122BF2E508450EF8E509450FF953
:10AED0008A828B8312CC3B807B8E828F83A3A3A339
:10AEE000A3A3A3E0448002AE61EC7005750A008064
:10AEF000638E828F83A3A3A3A3A3A3E05420600C3B
:10AF0000123DE9EA547F7900245F80198E828F8395
:10AF1000A3A3A3A3A3A3E05410601A123DE9EA542B
:10AF20000F7900240A5001098E828F83A3A3A3A363
:10AF3000F0A3E9800D8E828F83A3A3A3A37401F0F5
:10AF4000A3E412A9407404F07A207B00900598E0F5
:10AF5000F9123E31E50CA2E0503412B960A3A3A36C
:10AF6000A3A3A3A3A3A3E0F9EEFAEFFB12316BE9CD
:10AF7000601C12ECEB3F12CF29600912B4BE12CC58
:10AF80002C123E91EEFAEFFB123E91750A00A90ACF
:10AF900002D8CF12BF09E02212BF0912D4DEEE227E
:10AFA000A3A3A3A3A3A312B94B850882850983A3F6
:10AFB0002212D4DE8E828F83A3A32274F412243C47
:10AFC00074F7122AC77E0012317DEA4B700302B07B
:10AFD000778A828B83A3A3A3A3A3A3A3A3A3E064E1
:10AFE00006600302B0778A828B83A3A3A3A3A3A3E3
:10AFF000A3E0FF8A828B8312B07EE0C0E074081267
:10B000002CF3D0E012B4A512CC3112319BEF5408CE
:10B01000606385188285198312B9477A007B001214
:10B02000315F8B0BEA450B704C12F4FA12450F7C22
:10B03000007D007A007B0080288E828F8312B4947A
:10B04000F47003A3E0F4602D90054B12B96812CCA4
:10B050002C124509E9641A601C7C007D00EEFAEFB1
:10B06000FB12315F8A0A8B0BAE0AAF0BEE4F70C931
:10B0700079001245157E01EEF97409028F5E12BC4B
:10B080000C12B085222408F582E438F58322C082B0
:10B09000C083EA4B70059005B080068A828B83A33B
:10B0A000A312B29B60258A828B83A3A3A3A3A3A32D
:10B0B000A3E0540860E5EC4D60158A828B8312B4DE
:10B0C000946C7003A3E06D70D280047A007B000260
:10B0D000C51874F212243CEAFEEBFF890A8C088D35
:10B0E000097A147B00123E8BEA4B603F8A828B8385
:10B0F000A3A3A3A3A3A3A3A3A3E412B49AA3E50ABF
:10B1000012B137A3A312DCBA8A828B83A3A3A3A3B1
:10B11000E4F0A312B4B812B14912E095EA12ECECD3
:10B120003BF583E4F012B12EF0A3F0028AD3A3F032
:10B130008A828B83A3A32212B13B2212B13F22F059
:10B140008A828B83A3A3A3A322A3F012F3C13BF5AE
:10B1500083E4F02274F412243CEAFEEBFF89088CAD
:10B160000A8D0BEE4F700302B1F074016508701286
:10B170007901123171E9F890262FE493C398502297
:10B1800080167404650870147904123171E9F8901E
:10B190004D18E493C398500A7911805674026508DB
:10B1A000704E8E828F83A3A3A3A3A3A3A3A3A3E51F
:10B1B0000812B97012DB5AE4F0A3F09005B012CF78
:10B1C0002B60178003E0F8A312CD32A3A312B29B29
:10B1D00088828983A3A370ED80039005B012E09963
:10B1E0007A207B00900598E0F9123E3179008002C8
:10B1F00079C1028F61C082C083E9F879009005B0FF
:10B20000801D8A828B83A3A3A3A3A3A3A3A3A3E0EC
:10B2100068600574FF687001098A828B83A3A3129A
:10B22000B29B70DE02C51874F712243CEA4B70051D
:10B230009005B080068A828B83A3A312B29B602004
:10B240008A828B83A3A3A3A3A3A3A3A3A3E0697070
:10B25000E4EC60108A828B83E012B26770D78004BE
:10B260007A007B0002B39012F3F6E0540422C0820D
:10B27000C0839005B080068A828B83A3A312B29B01
:10B2800060128A828B83A3A3A3A3A3A3A3A3E069D1
:10B2900070E580047A007B0002C51812D160EA4B89
:10B2A0002274F712243CEAFCEBFD9005B080068A7C
:10B2B000828B83A3A312B29B60248A828B8312B4F5
:10B2C000946C7003A3E06D70E68A828B83A3E0C860
:10B2D00012BBF912D8BBA2E0E43370D380047A0029
:10B2E0007B0002B39074F212243C8A0A8B0B8C0C04
:10B2F0008D0D750800750900EA450B60309005B0AA
:10B3000080068E828F83A3A312BC03EE4F601EAC17
:10B310000CAD0DEEFAEFFB850A82850B8312262D0C
:10B32000E9640170DDEEF8EFF988088909AA08AB35
:10B3300009028AD379000229FB74F712243C900594
:10B34000B012BA757C007D00800DE8FCE9FD8882B2
:10B350008983A3A312BA75E8496030EA687002EBEA
:10B360006970E79005B012CC2CE86A7002E96B882E
:10B37000828983A3A3700812BA759005B080091260
:10B38000BA758C828D83A3A312CC3B8003122A2E24
:10B390007F010226CD74F712243CEAFEEBFFEE4F4C
:10B3A000602F12319512B3D312CC2C123E918E82A3
:10B3B0008F8312CC2C123E9112ECEB3F12CF2960FE
:10B3C0000912B4BE12CC2C123E91EEFAEFFB123EE3
:10B3D0009180BD12CF31F5832274F612243C8A820B
:10B3E0008B8312B494F508A3E0F5099005B012BA66
:10B3F000757D007C00802F88828983A3A3A3A3A3EB
:10B40000A3A3A3A3E0640570140C12DB76F5838E6E
:10B4100082E065087004A3E0650970010D888289E7
:10B4200083A3A312BA75E84970CD904D0DE493F84B
:10B43000EDC3985008904D0812EE73400F8A828B2E
:10B4400083A3A3A3A37401F0A3E48010900539E0C3
:10B45000F812A5FCA3A3A3A3E8F0A3E912B4B8745F
:10B460000512B49AE0440812B4A5F47003A3E0F402
:10B47000601190054B12D89E12CC2C124509E9643C
:10B480001A7005790112451502C8AAEE241DF5822D
:10B49000E43FF583E0F812B4B02212B49E2212B158
:10B4A0003FA3A3A322F08A828B8312B4AE22E0F8DA
:10B4B000A3E0F5838882E02212B49EA3A322EE12B9
:10B4C000CD1722C082C083EAFCEBFDEC4D6017EC87
:10B4D00024FBF582ED34FF12CF29700712B51DE071
:10B4E000F46007123DF579058030900598E0C0E0E2
:10B4F00012B51DD0E0F0904D05E493F97AB27B05CA
:10B50000123E2BE9640170107A007B20900598E0D0
:10B51000F9123E3179008002790402C518EC24FF4B
:10B52000F582ED34FFF5832274F412243CA2AFE4DB
:10B5300033F508C2AF9005B212BC03EE4F603AEE8D
:10B5400024FBF582EF34FF12CF297A007B2090058F
:10B55000986007E0F9123E318005E0F9123E37E4C9
:10B56000F50AF50B780A122A51EEFCEFFD7AB27B50
:10B5700005123E257402122A2EE508A2E092AFEED3
:10B58000FAEFFB028F6174F512243C8A088B09756F
:10B590000A009005B012DB7A805A8E828F8312B433
:10B5A0009465087004A3E06509703D8E828F83A3C3
:10B5B000A3A3A3E4F0A312C236540460118E828FB9
:10B5C00083A3A3A3A3A3A3A3A3E0F9122E718E8246
:10B5D0008F83A3A3A3A3A3A3A3A3A37406F07AF0CA
:10B5E0001288BF1230AB050A8E828F83A3A312BAD2
:10B5F00075E8FEE9FFEE4F70A1A90A8003122A2E1A
:10B600007F030226CD74F012243C74D4122AC7EAB8
:10B61000FEEBFF750B00750A007508FE7509FF1239
:10B62000314DE9600302B8F3EE241512B90C604401
:10B63000901EC9E0C43354E0F8E0333354FC48C0F2
:10B64000E012D6CDD0E012B97012CC2C79FF122FB7
:10B65000738B0DEA450D600F750B017508FF12CF56
:10B660001612CDECD2E0F0901D21E0600464017070
:10B6700003750A408E828F8312CC2A123291E960C0
:10B680000312B918EE241312B90C700D904D10E48A
:10B6900093C0E012B900D0E0F08E828F83E0A2E781
:10B6A000500454038019EE241412B90C7012900542
:10B6B0002AE0C0E012F396D0E0F090052AE004F012
:10B6C00012F3B27016901CFAE0600D900535E07030
:10B6D0000A8E828F83E0700312CD07901D21E060F7
:10B6E000046401704B900538E0A2E15043E50BA2E1
:10B6F000E040218E828F8312CC2A123291E9603091
:10B700008E828F83E0600DEE240B12B48EF912321C
:10B710006DE9601C12B924700302B8A5EE2413125F
:10B72000B90C6401600302B8A512B4BEE054FBF08A
:10B730008E828F83E06401700DEE240B12B48E6450
:10B7400002700312B93112B924600302B80BE50B81
:10B75000A2E0500302B80B901D21E0600764016075
:10B760000302B80B900538E0A2E1400302B80BE5F4
:10B770000AF50B780B122A55EE2406FCE43FFD8EE9
:10B78000828F8312CC2AEE2412129B6C122E9B7491
:10B7900001122A2EE9600612B91812B92A8E828F78
:10B7A00083A3A3A3A3A3A3E0603CEE2402F50CE4CF
:10B7B0003FF50D850C8212B9552407FAE43FFB12C0
:10B7C00031D18A088B09850C82850D83E06508706C
:10B7D00004A3E06509700C8E828F83A3A3A3A3A3A7
:10B7E000A3E4F012B9318E828F83E06401600BA96B
:10B7F0000A12B96412CC2A122E3BA90A12B960129D
:10B80000CC2A122DC9E9600312B92AAC18AD19EE81
:10B81000FAEFFB1231CB8A0A8B0B74FE65087004B9
:10B8200074FF650970031286CEEA450B700302B8F7
:10B83000F78E828F83E0C0E07401122CF3D0E0F029
:10B840007404122CF312E099EE241E12BA6F7402E3
:10B85000122CF312CC3B7401122A97880C890D78B4
:10B860000C122A51EE242012B910122A5512B4BE1D
:10B87000122855EE240E12B910122A5590053E12C8
:10B8800028557408122CF3E0F9AC08AD091231C543
:10B890007408122A2EE9FE74106E705DAA0AAB0BB2
:10B8A000123E918054EE241312B90CC0E0741712AA
:10B8B0002CF3D0E012F407740F122CF312B9762493
:10B8C0000412F3A512BA757411122CF3E8F0A3E96F
:10B8D00012BF51C0E07418122CF3D0E012E8FB1232
:10B8E000A5FD12B9477406122A9F122E6BE9600358
:10B8F00002B730791180047E10EEF9742C02D8CC96
:10B9000012B90422EE12CD4F22EE241712BEF122FC
:10B9100012BEF1F50C780C22EE2412F582E43FF50C
:10B9200083E4F02212B93854402212B9384420F08E
:10B930002212B9384440F022EE12CD1BE022EE2450
:10B9400013F582E43FF58312B94B2212B94F22E07E
:10B95000FCA3E0FD22F58312B95B2212B94FEE225F
:10B960008E828F83A3A3A3A312B94B8E828F8322CF
:10B9700012DB6622A3A3E8F0A3E9F0EE22C082C0A6
:10B980008374D7122AC79080007403122AA77426E2
:10B990001229778A828B83A3A3A3A312BA75740E8C
:10B9A000122CF3E8F0A3E912D4D7740C122CF31282
:10B9B000BA79240D12BA64C0E0741A122CF3D0E0E4
:10B9C000F012D74E12BA737420122CF312BA7924E3
:10B9D0001512BA64C0E07408122CF3D0E0F0EA2427
:10B9E0001CF582E43B12BA737412122CF312BA796A
:10B9F000241112BA64C0E07409122CF3D0E0F0EA0A
:10BA0000241212BA64C0E07407122CF3D0E0F0EAFA
:10BA1000241EF582E43B12BA737424122CF312BA7A
:10BA200079242012BA64C0E07426122CF3D0E012FC
:10BA3000A79074FFF07401122CF374FFF0740212DB
:10BA40002CF374FFF09080B21228517404122AA7CC
:10BA50007407122A9F122D0F7404122A2E79007473
:10BA60002902D51BF582E43BF583E022EE2413F591
:10BA700082E43FF58312D4DE22E8F0A3E9F0EA2263
:10BA800074EE12243C74EC122AC78A0E8B0F8C08B9
:10BA90008D09890C750A107A217B00123E8B12D514
:10BAA00021E849700302BBF2750B007C217D00790F
:10BAB00000851882851983E0FA123DD77429122C6B
:10BAC000F312BC03901D21E060046401703EAA08DB
:10BAD000AB091246958A108B11A810A911E849608C
:10BAE0002388828983A3A3A3A3E06401600D8882D5
:10BAF0008983A3A3A3A3E064037009EE54407004F8
:10BB000074044FFFEF54046003750B0190054B1252
:10BB1000CC2C85188285198312BC082409F582E48F
:10BB20003812E0FB7426122CF312BA757411122C21
:10BB3000F3E8F0A3E912BC1112F3B812BC1112B071
:10BB400085740212F412F8A312C84D12DE2412BC3E
:10BB50001112F3C8E50CF07428122CF3E0F50885F7
:10BB6000188285198312F3D1E50812BC1112BBF9B2
:10BB7000F583E50EF0A3E50FF07406122CF312E046
:10BB8000997408122CF3E508F0742C122CF312E2CD
:10BB900091C082C083740C122CF3AC82AD83D0832D
:10BBA000D0827405122977742B122CF3E0C0E07454
:10BBB00013122CF3D0E0F0A90BAA18AB19123153D1
:10BBC000E964017021901D21E0600464017012E5B8
:10BBD0000BA2E0500CA90812317DEA4B6003123130
:10BBE000A1750A00800C85188285198312CC2C124D
:10BBF0003E91A90A741402C23C241FF582E4382243
:10BC0000A3A3A312DB7AFF2212BC0C2212D53BC8DD
:10BC10002212D530C82274EE12243CEAFEEBFF8CCF
:10BC2000088D098E828F83A37408F0EE241612B952
:10BC30000C60088E828F83A37410F012B90960091A
:10BC40008E828F83A3E02408F0EE241512B90C60D5
:10BC5000088E828F83A3E004F08E828F83A3A3A338
:10BC6000A3A3A3E060198E828F83A3A3A3A3A3A39E
:10BC7000A3E0C3332402F88E828F83A3E028F0125E
:10BC8000BEEA6005750B0E8003750B00901D21E068
:10BC90006402701E901D15E0640170168E828F8301
:10BCA000E06401600D901D0FE0600712BED77401C3
:10BCB000800412BED7E412BF2CE012BEF928250B77
:10BCC0008C828D83F012BEEA6013900536E0F91283
:10BCD0003087E9F8850882850983E029F0850882A4
:10BCE000850983E0C3947540097508007509000251
:10BCF000BED0E0FA7B00123E8B8A088B09EA450928
:10BD0000700302BED08E828F83E0FA90053B12BF93
:10BD1000257402780C122BF2EA450CFAAB0DEE24D6
:10BD20001212B90C5403F50C750D007406780C1240
:10BD30002BF2EA450CFCEBFDEE241512B90C600465
:10BD4000780180027800EE2416FAE43FFBE8F9ED72
:10BD500049FD12BEEAF50C7409780C122BF2ED4580
:10BD60000DFD8A828B8312BF25740B780C122BF287
:10BD7000ED450DFDEE241712BF1F740C780C122B2D
:10BD8000F2ED450DFD8E828F83A3A3A3A3A3A3127F
:10BD9000BF25740A780C122BF2ED450DFDEE24231D
:10BDA00012BF1F740D780C122BF2ECF8ED450DF953
:10BDB000E8850882850983F0E9A3F0EE240212BE2B
:10BDC000E112BFF312BF47F0EE240412BEE112BF2E
:10BDD0001112BF47A3A312CD4512BF11A3A3A3A362
:10BDE00012BF51850882850983A3A3A3A3A3A3A39C
:10BDF000F0750A088A828B83E06015EE241812B968
:10BE000041E5082408FAE43509FB123F9F750A1042
:10BE100012B9096019EE241A12B941A80AE50828D6
:10BE2000FAE43509FB123F9F7408250AF50A8E8251
:10BE30008F83A3A3A3A3A3A3E06057EE2407F51069
:10BE4000E43FF511851082F583E0C0E012BF00D019
:10BE5000E012BF37E0C0E00812BF02D0E012BF37E7
:10BE6000129AB9122A4D851082851183E025E0FCD3
:10BE7000E433FDA80AE50828FAE43509FB123DCBB6
:10BE80007403122A2E851082851183E0C333250A9C
:10BE9000F50AEE241512B90C6008C0E012BF00D0FC
:10BEA000E0F012CC06129ABA122A4D12BEFAFC7DAC
:10BEB00000A80B8E828F83A3E0FAE5082AFAE43506
:10BEC00009FBEA28FAE43BFB123DCB7403122A2E4D
:10BED000AA08AB0902C23FEE2423F582E43FF583B2
:10BEE00022F8E43FF9888289832212BEEE22EE24F2
:10BEF00011F582E43FF583E022F8EE12DB51E022F7
:10BF0000A80AE5082812BF0922F582E43509F5835D
:10BF10002212BF1522E0850882850983A3A322F59A
:10BF200082E43FF583E0F50C750D002212BF30224C
:10BF3000F08E828F83A322F0050A8E828F83A3A3C3
:10BF4000A3A3A3A3A3A322A3A312E64D12BF15A3E9
:10BF500022F0EE241412BEF12274F412243C74FD7B
:10BF6000122AC78A088B09ECFEEDFF7401122A978A
:10BF7000880A890B780A122A517402122AA7EEFA4B
:10BF8000EFFB122E177402122A2EE97053851882C5
:10BF900085198312BFF3F07401122CF3E0F812BF7D
:10BFA000E9A3A312F40E602914850882850983A3EE
:10BFB00012F41212D9D57401122CF3E028F8A3E080
:10BFC00039F9E824FEF582E934FFF58312F0958013
:10BFD0000C850882850983A3E4F0EEFAEFFB800468
:10BFE0007AFE7BFF7403028F5EA3E0F985088285E9
:10BFF000098322E08508828509832274EE12243C9D
:10C000008A0A8B0B8910ECFEEDFF750F017C267DF3
:10C01000007900EEFAEFFB123DD7E510C39408500B
:10C020000302C1888E828F83E510F0EEFCEFFD8560
:10C030000A82850B8312C4931231DDE96003750F08
:10C040000012C4758E828F8312C4CDEE12C4693F74
:10C0500012C4B7C0E01288B1D0E012C4AFC0E0EEA5
:10C060002412F582E43FF583D0E012BF2C7408124D
:10C07000C21DA3A3E06018E50A2408F8E4350BF913
:10C0800012B90012CC3B8E828F83A3E02408F08E7D
:10C09000828F83A3A3A3A3A3A3A3A3E060178E828D
:10C0A0008F83A385820885830912C48812D6CD1296
:10C0B000A2AC2408F0EE241912B91BEE241B12B90D
:10C0C0001BA312C21DE0600F12C2048E828F83A3D5
:10C0D000A3A3A3A312C230EE241812B90C7003025A
:10C0E000C17812C204FAEE2419F582E43FF583EA1E
:10C0F00012C230F8E50A28F582E412F4F4F812DCF2
:10C100008EE812C230E8C39AEE5068241912B90CB6
:10C11000F8904D04E493C398500575110C8008EE17
:10C12000241912B90CF5118E828F83A3E0F8E50A69
:10C1300028F50CE4350BF50D750E00780C122A4D20
:10C14000AC11EC2CFCE433FD7A107B11123DCB7466
:10C1500003122A2EEE241BF582E43FF5837410F0BF
:10C16000A37411F0E511C333F8850882850983E0D3
:10C1700028800412CCFEE4F08E828F83A3E0F88E38
:10C18000828F83E0C398500479008061A3E0FAE5D0
:10C190000A28F8E4350B12C1F9E8F0A3E912C4C685
:10C1A000C39AC0E012C1EFD0E012C236603DEE2467
:10C1B00017F8E43FF9880889098882F583E024F2BA
:10C1C000F0EE241D12BEE1E0240EFAA3E03400FBE1
:10C1D0008882898312E0FD900536E0F9123087E904
:10C1E000F8850882850983E0C398F0A90F8050EE96
:10C1F0002417F582E43FF58322F9EE241DF582E44D
:10C200003FF583228E828F83A3858208858309E090
:10C21000F8E50A28F582E4350BF583E02212C22105
:10C220002212C22522F08E828F83A3A3A3A3A3226E
:10C2300012A2B404F02212C221A3E022122A2E7FFD
:10C240000A0226CD74F412243C8A088B09EA12C231
:10C25000E2A3A3F0EA1313543F12C2DBA3A3A3F09B
:10C26000EAC4131312C2E212C2F57409780A122C3E
:10C270007512C2E9A3A3A3A3A3A3F0EB12C2EB120E
:10C28000C2F4740A780A122C75E50A5401C0E0EC75
:10C290002418F582E43DF583D0E012C2F9740B78DE
:10C2A0000A122C7512C2E912C2F2740C780A122C0E
:10C2B0007512C2E9A312C2F2740D780A122C75E548
:10C2C0000A5401C0E0EC2424F582E43DF583D0E07B
:10C2D000F0740E7808122C750288AC540F8C828D85
:10C2E000832254038C828D8322E50A54018C828D33
:10C2F0008322A3A3A3A3A3A3A3F08A0A8B0B22C028
:10C3000082C08379008A828B83A3A3A3A3A3A3E023
:10C31000900535600EE070238A828B83A3A3E070C2
:10C320001A8016E060158A828B8312CC2390053E1A
:10C33000E06A7003A3E06B6002790102C51874F231
:10C3400012243C8A0A8B0B890C8C088D098A828BFB
:10C350008312C4931231DD12C47585088285098366
:10C3600012C4CDE50812C469350912C4B7C0E0E5AE
:10C3700008241112CC18D0E012C4AFC0E012CC14C3
:10C38000D0E012CF3F740812C4A1E06017E50A2480
:10C3900008F8E4350BF9E508241312C46D12CF3FF9
:10C3A000E02408F0850882850983A3A3A3A3A3A39F
:10C3B000A3A3E06017850882850983A312C484E5DE
:10C3C00008241512C46D12C4C62408F0850882859D
:10C3D0000983A3A3A3A3A3E0601985088285098329
:10C3E000A3AE82AF8312C20F85088285098312C46F
:10C3F000C104F0AA08AB091231E3E9F50D706485B8
:10C400000882850983A3A3A3A3A3A312BFF3A370E8
:10C410001AE0FAE50A2AF8E4350BF9E508241D12BA
:10C42000CC1812CC3BE50CC39A802C12C484E824AF
:10C430000EF8500109E508241D12CC1812CC3B90CF
:10C440000536E0F9123087E9F88E828F83E0F9E54E
:10C450000CC39924F2C398C0E0E508241712CC1845
:10C46000D0E0F0A90D028AD3EA12F3C22212BF096A
:10C47000E8F0A3E922850A82850B83A3A312C4E313
:10C48000E0F9EA22AE82AF83E0F8E50A28F8E43565
:10C490000BF922E0FAA3E0F8E4C8F9EA28E439FB52
:10C4A0002212C4A52212CF47A3A3A3A3A3A322129F
:10C4B000C4F6A3A3A3E022F583E812C4EFA3A3E08C
:10C4C00022A3A3A3A3A3F08E828F83E022A3A3A31E
:10C4D000A3A3A3A3A3A312C4EF12C4E3A3A3E0F9ED
:10C4E000EAF822E0FA850A82850B83A3A3A322F04F
:10C4F000A3E912C4F622F0850A82850B83A3A3A3C5
:10C50000A322C082C0837AC07B0579E21244C77A35
:10C51000C07B05800312CC2CD083D0820229FBC0C3
:10C5200082C08390053E80EDC082C083900541802B
:10C53000E4C082C083794A1244C780DC74F61224B6
:10C540003C9005C8E0FE04F0EEF912317D8B09EA5B
:10C55000450970EDEE60EAF902C8AA74EE12243CB7
:10C56000EAFEEBFF8C0E8D0F890C750A00750B002F
:10C570001233938A088B097412122CF3E0F50D74B0
:10C5800013122CF3E0F510EA45097017E51060036B
:10C5900002C67DA90CAC0EAD0FEEFAEFFB1233B75D
:10C5A00002C77CE510700302C648901D21E06004BC
:10C5B0006401700E9005CD12CF2B600612C84D128B
:10C5C000262DE50D700E850882850983E4F0750B34
:10C5D0000102C6A0901D21E060076401600302C64D
:10C5E000A0900538E0A2E1400302C6A09005CF125A
:10C5F000CF2B600CA90DAA08AB0912C84D12262D2D
:10C60000850882850983E0FA12E8F0500109C3EA3F
:10C6100098E499A2D265D0335009850882850983B0
:10C62000E004F0850882850983E0F8904D19E493D1
:10C6300068706D750A01EEFAEFFB122EA78508826D
:10C64000850983A3E4F08058E50D701CEA240212EA
:10C65000AF93A80C28F8E4340013E813F070098AAB
:10C66000828B83A3A37401F08A828B83A3A3E0F857
:10C67000901E86E0C3985052750B01804D74016581
:10C6800010701DE50D6019901D21E06004640170BB
:10C690000F900538E0A2E15007EEFAEFFB122EA74B
:10C6A000901D21E06402702274016510701CE50D7C
:10C6B0009005DF6013E004F0901EAEE0F89005DF17
:10C6C000E0C3984005750A01E4F0E50BA2E092F0A2
:10C6D000E50AA2E072F0400302C77C901D21E060F1
:10C6E0000464017041900538E0A2E15039EEFAEFA0
:10C6F000FB1246958A088B09A808A909E849602613
:10C70000E50BA2E0500D88828983A3A3A3A3A3E035
:10C71000C2E0F0E50AA2E0506388828983A3A3A364
:10C72000A3A3E0D2E0F0E50AA2E05050901D21E082
:10C7300060046401701D900538E0A2E15015EEFA26
:10C74000EFFB1246ADE9600BEEFAEFFB7900122D1C
:10C75000458029900541E06E7003A3E06F701DEEE7
:10C76000FAEFFB7901122D45901D21E06402700C57
:10C770007A017B00900598E0F9123F5D02C23F7498
:10C78000F412243C8A088B098C0A8D0B9080E67881
:10C7900008122AF3700E7A017B00900598E0F912D6
:10C7A0003E318035901E9B7808122C84EA4509455D
:10C7B0000A450B60187808122A497A017B00900517
:10C7C00098E0F9123F517404122A2E800C7A017BF2
:10C7D00000900598E0F9123F5D028F61C082C0832E
:10C7E000901E9F02AD19C082C083901EA102AD1998
:10C7F00074F612243C75082A7509057808122A5126
:10C800007C6E7D007A217B00123F037402122A2E77
:10C81000E9F5081246DDE94208901D21E060046454
:10C82000017006124617E9420890070112CF2B60EB
:10C830000912C84D12262DE94208122F97E9FE125F
:10C840004485E9F8E5084E48F9805F79C4E0F5834E
:10C8500088822274F612243C123DA175082A7509BB
:10C86000057808122A5175086E7509007808122A91
:10C87000517C007D007A217B00123F0F7404122A44
:10C880002E1246D7901D21E0600464017003124609
:10C890001190070312CF2B600612C84D12262D12DD
:10C8A0002F9D1244918003122A2E7F020226CD74FE
:10C8B000F612243C74FF122AC77E0075082A7509F7
:10C8C000057808122A517C6E7D007A217B00123F88
:10C8D000037402122A2EE9600302C9947808122A0E
:10C8E0005175086E8E097808122A517C007D007AF5
:10C8F000217B00123F157404122A2EE9600302C93D
:10C900009490053EE064FE7003A3E0F4700302C956
:10C91000947E0190054DE064086005E06404706F4A
:10C92000851882851983EE12CF6279421244CD7A3E
:10C93000557B0579431244CD7A527B0579471244E1
:10C94000CD7A437B05794A1244CD7A417B05794BF8
:10C950001244CD7A4B7B0579501244CD7A3E7B054B
:10C9600079531244CD7A537B0579541244CD7A40E1
:10C970007B0579E11244CD900538E0A2E35004D262
:10C98000F08002C2F012CF5879521244CD800512C5
:10C990003DA17E001246E9901D21E0600464017013
:10C9A000031245FF90070512CF2B600612C84D12E7
:10C9B000262D122FA9EEF9740102C8A774F61224CD
:10C9C0003CE9FEA2E0502675082A75090578081290
:10C9D0002A5175086E7509007808122A517C007D6D
:10C9E000007A217B00123F0F7404122A2EEEA2E37C
:10C9F00050031246E3901D21E0600464017008EECC
:10CA0000A2E150031245F9EEA2E2500E9007071280
:10CA1000CF2B600612C84D12262D02C8AA74F6123A
:10CA2000243C74EC122AC77401122AA7901E3EE01F
:10CA3000F97A9B7B0512312F7405122CF3E4F07404
:10CA400007122CF3E4F07A04F91246BF904D06E485
:10CA500093F8C3EA98EB940050581246EFE97052ED
:10CA6000904CFF12CB0E60197A0479031246BF8AEC
:10CA7000088B09904D06E493F8904CFF12CB1850A8
:10CA8000087405122CF37401F0904CFD12CB0E606B
:10CA9000197A0279011246BF8A088B09904D06E483
:10CAA00093F8904CFD12CB1850087407122CF374B5
:10CAB00001F0901E3EE0F97C9B7D057401122A9FD7
:10CAC0001231297A9B7B0579451244CD7407122CCB
:10CAD000F3E070117405122CF3E07009851882855B
:10CAE0001983E480088518828519837401F0901EEB
:10CAF00038E0F8901E37E058F8851882851983E0F1
:10CB00005812CF6279411244CD741402C8A7E4933D
:10CB1000F8740193F9E84922E493FA740193FBE86D
:10CB2000C39AF8E49BF9C3E50898E509992274F7DC
:10CB300012243C74ED122AC7E9FE900597F0AC1858
:10CB4000AD19901E3EE0F97A9B7B0512312F7412CD
:10CB5000122CF3EE12CB6CAA18AB191231297A9B66
:10CB60007B0579451244CD741302B38DF0901E3EBF
:10CB7000E0F97C9B7D052274F412243CEAFEEBFF75
:10CB8000901E40E064FE7003A3E0F470767A167B9A
:10CB900000123DEF8A088B09EA450960668A828B9C
:10CBA00083740112C2368A828B83A360047402806C
:10CBB000027401F0EA240AF8E4350912C1F912F00E
:10CBC0009AA312DC98F0A2E3400912CC0612CC2CF6
:10CBD0001231B3EE241512B941E5082402FAE43506
:10CBE00009FB123F9FE508241312CC18E4F0AA08B1
:10CBF000AB09900598E0F9123DFB12CC0612D4D097
:10CC000012CC3B028F6112CC0A22EE240BF582E497
:10CC10003FF58322E5082412F582E412BF0C228E30
:10CC2000828F83A3A3A3A3A3A3A3A3A312D1602250
:10CC3000E0F8A3E0F9851882851983E8F0A3E9F00C
:10CC40002274F212243C74FD122AC78A088B0989C7
:10CC50000A8C0B7401122CF3740412CF621232731B
:10CC60008A0C8B0DAE0CAF0DEE4F700302CCEF12A1
:10CC7000CD24740712DC9EE5082413FAE43509FB81
:10CC80008A828B8312CD3A8A828B8312CD39E50852
:10CC9000241512CC1812DC9812DCA5E508240BF838
:10CCA000E43509F912CCFDE8F0A3E912DE381231BF
:10CCB000EF12DC8612CD457401F07403650A60063C
:10CCC0007401650A700712CD0E7404800412CD0E33
:10CCD000E4F0901E4012AFB112CC3B7401650B70B2
:10CCE0000312CD07EEFAEFFB1245E1E9F980027974
:10CCF00010901E4074FEF0A304F0028ACEEE2418B9
:10CD0000F582E43FF58322EE1288B6E4F02212CDDC
:10CD1000167440F0A322EE12CD1B22240FF582E4FC
:10CD20003FF58322EE12F3C23FF58312CD2F22E0AE
:10CD3000F8A3E0F98882898322A3E088828983F0BE
:10CD4000A308A9832212CD4922F0EE12CD4F22244E
:10CD500013F582E43FF5832274F412243CEAFEEBDF
:10CD6000FF7A007B04900598E0F9123F5D12CDFF39
:10CD700090054D7409F01231EF8A088B09AC08ADAB
:10CD80000912B90012CC2C123F99E96401705A7A49
:10CD90000F7B00123DEF8A088B09EA4509604A8A39
:10CDA000828B83740212CDF4F988828983A3E0FC1C
:10CDB00088828983A3A3E0FBEC8A82850983A3A3ED
:10CDC00012E0FE88828983A3A3A3E08A8285098377
:10CDD000A312CDECFAA3E0FB794A1244CDAA08AB2A
:10CDE00009900598E0F9123DFB028F61F0EE2415E1
:10CDF00012BEF122F0EE241D12BEF1F8A3E0229043
:10CE000004D712D4DE901EA1E8F0A3E9F09004D973
:10CE100012D4DE901E9FE8F0A3E9F02274F41224ED
:10CE20003C74FD122AC78A088B097401122CF37412
:10CE30000212CF621232738A0A8B0BAE0AAF0BEE6C
:10CE40004F700302CF0A12F3E1E412CF3FA3A3A372
:10CE5000E06401700888828983A37420F0850882C9
:10CE6000850983A3A3A3A3A3E06401700988828931
:10CE700083A3E0D2E6F0850882850983A3A3A3A358
:10CE8000A3A3E06401700A88828983A3E0D2E780CB
:10CE90000512B900740112CF50E0640170218508B9
:10CEA00082850983A3A312CF2B600312CF0F8508BD
:10CEB00082850983A3A312AF9B12CCFE12CC3B85C3
:10CEC0000882850983A3A3A3A3A3A3A3E06401709D
:10CED0000712EF95F0A3E4F085088285098312CC50
:10CEE0002C123291E9600412CF16F0EE241712CF03
:10CEF000121231EF12DC8612A2B012CF1D12B974D9
:10CF0000FAEFFB1245E1E9F98002791002BFE4EE85
:10CF1000241612DCAD2212B938440422E0F8A3E052
:10CF2000F98E828F832212CF31F58312D4DEE84945
:10CF3000228E828F8312BC0C241FF582E4382212C9
:10CF4000CF432212CF4722F0850882850983A3228E
:10CF500012CF43A3A3A3A322A2F0E43385188285B2
:10CF60001983F0AA18AB192274F512243C74F31239
:10CF70002AC7890AEAFEEBFF7508007509007C0DD7
:10CF80007D007900AA18AB19123DD712C1FA12D14F
:10CF900017741F58600C7AD37B001241FD79000290
:10CFA000D067E8A2E55008740C122CF37401F0E885
:10CFB000A2E75008740B122CF37401F0E8A2E67497
:10CFC0000A5008122CF37401F08008122CF3E0646C
:10CFD0000170138E828F83A3A3A3A3A3A3A3E060F6
:10CFE00032EE241380128E828F83A3A3A3A3A3A364
:10CFF000A3A3E0601EEE2415F582E43FF58312A999
:10D00000D16010AC08AD097402122CF3AA82AB8374
:10D01000123F9F12CC0612CC30740A122CF3E0643B
:10D0200001703B12CC1F123291E97039EE240B12C1
:10D03000BA6F900541E0687003A3E0697027E508C6
:10D040004509601A1231EF8A088B09AC08AD0974E2
:10D0500002122CF3AA82AB83123F99E96007AA1847
:10D06000AB19122D3FA90A740D02B5FD74F71224F5
:10D070003C74CD122AC7EAFEEBFF8E828F8312D159
:10D0800035A2E0400302D11212D11EE054FE12EC90
:10D09000FD740D122AA712D1481231E9E970737498
:10D0A0002A122CF312D12B70697C0D7D007900AA15
:10D0B00018AB19123DD77416122CF312CC30742A07
:10D0C000122CF312D117A2E55008740B122CF37432
:10D0D00001F0E8A2E75008740A122CF37401F0E89A
:10D0E000A2E65004742080027422122CF312B94775
:10D0F0007402122CF3AA82AB83123F9F8E828F831D
:10D10000A3A3E0C0E0740C122CF3D0E012CF6212A3
:10D110002D39743302B38D12E295A3E0F8228E828A
:10D120008F8312D8C2A3A3A3A3A32212B4AE640414
:10D13000228A828B83E0F812D13B22A3E0C8240626
:10D14000F582E438F583E022EA241EF582E43BF51B
:10D1500083E0F9EA241FF582E43BF58312D16022D3
:10D1600012F095FB22E9F87900740468600A740AE9
:10D17000686005740368700279010229FB74F61275
:10D18000243C8A828B837424F0A3A37401F012459B
:10D19000DB8A088B09AE08AF09EE4F60108E828FD4
:10D1A0008312DE361231EFEE241A12E0F7EEFAEFB8
:10D1B000FB02C8AAC082C08390053B02ACFFC082BC
:10D1C000C083901E3F02ACFFC082C083E9901E3F27
:10D1D00002AD1DC082C0839005B47401F0E9A2E3E2
:10D1E00050037403F0E9A2E15004E0D2E2F002C57A
:10D1F0001874F612243C79007C008A088B097808A0
:10D20000122713F8FF0726D224D224D224D224D204
:10D210001CD220D226D218D27C01800A7C0480063F
:10D220007C0280027C089005B4E05C600479028096
:10D2300005EC6002790102C8AA74F412243CEAFEEB
:10D24000EBFF890812468F8A0A8B0BA80AA90BE804
:10D2500049604188828983A3A3A3A3E06036C39475
:10D2600005503174016508601A88828983A3A3A3DD
:10D27000A3E06401600D88828983A3A3A3A3E06473
:10D2800002700A8882898312CC2C122DFFEEFAEFED
:10D29000FB12464D028F6174F612243C8A828B8306
:10D2A000E07014A3A3A312CF2B600C8A828B83128D
:10D2B000CC29122FEB80047A007B0002C8AAC0821E
:10D2C000C08390054DE0640870031232B502C518A2
:10D2D000C082C0837C00EC75F003A4F8ADF0EDF9DA
:10D2E00012D3A67003A3E06B7018904D0BE493C0AB
:10D2F000E074B728F58274053DF583D0E0F079C578
:10D3000080620CECC3940340CD7C00EC75F003A468
:10D31000F8A9F074B828F5827405129A7964FE7041
:10D3200003A3E0F4600F0CECC3940340DE7C00EC3C
:10D3300012D3677026EC75F003A4FCADF074B72C23
:10D34000F874053DF988828983A312E0FD904D0BA6
:10D35000E49388828983F0790080090CECC39403FC
:10D3600040CD79C702C51875F003A4F8A9F074B7C9
:10D3700028F582740512EE8522C082C0837C00EC01
:10D3800075F003A4F8A9F012D3A67003A3E06B70A4
:10D390000912D36E6004790180090CECC394034038
:10D3A000DE790002C51874B828F582740512EE857E
:10D3B0006A2274F212243C74DD122AC7EAFEEBFFE3
:10D3C000750800901D21E060076401600302D4C964
:10D3D00090053EE06E7003A3E06F7010EE4F700397
:10D3E00002D4BD7508011232BB02D4C91246958A17
:10D3F0000A8B0BEA450B700302D4BD8A828B83A390
:10D40000A3A3A3E0640160108A828B83A3A3A3A3D8
:10D41000E06402600302D4BD851882851983E4129A
:10D42000D4D7740B122CF3E8F0A3E912CF621246A2
:10D43000FBE9700302D4BD850A82850B8312D4D028
:10D4400012CC3B7900122DF3850A82850B8312D909
:10D45000EB122CF3AC82AD837418122CF3AA82ABBE
:10D4600083123F9F850A82850B8312BA757420123E
:10D470002CF312CC3B7422122CF3E4F07C02850ACC
:10D4800082850B83A3A3A3A3E0F9740D122A9F1234
:10D49000324F850A82850B8312BA757401122CF300
:10D4A000E8F0A3E912CF621246F5750801E50A24F7
:10D4B0000CF582E4350BF583129ADC800C90054B59
:10D4C00012B957FAEFFB12337BA9087423028AD0F2
:10D4D00012D4DE901E402212B12F12D4DE2212D5B9
:10D4E0003BF922C082C08374FE122AC7901D21E03E
:10D4F0006004640170237901122DF912D521900581
:10D500003EE8F0A3E912CF6279531244CD85188228
:10D5100085198312CC2C1241197402122A2E02C5CD
:10D5200018851882851983EAF0A3EB12D530F92209
:10D53000F085188285198312D53B22E0F8A3E022FA
:10D5400074F412243C74F3122AC78A088B09ECFE87
:10D55000EDFF750A12EA45097005790002D62C9094
:10D56000053EE065087004A3E06509701D1231EF07
:10D570008A0A8B0BAC0AAD0BEEFAEFFB123F99E96E
:10D580007005750A018003750A0085188285198364
:10D59000E4F004122CF312DE2412CF62124707E9E2
:10D5A000602A7403122CF3AA82AB83124725E96424
:10D5B000017019750A017403122CF3AC82AD83EE6D
:10D5C000FAEFFB123F99E96003750A00901D21E014
:10D5D0006004640170177412650A7011EEFCEFFDAF
:10D5E000AA08AB091246B3E96003750A00EEFCEF26
:10D5F000FDAA08AB09123399E9F8740A6870057539
:10D600000A01801D74A0687012EEFCEFFDAA08AB41
:10D61000091233ABAA08AB091233BD7401650A7055
:10D62000097900AA08AB091232C7A90A740D028F42
:10D630005E74F612243CEAFEEBFF8908901D21E09F
:10D6400060046401701E1232B5E508F5097809120C
:10D650002A55790DEEFCEFFD7AFC7BFF1232D37474
:10D6600001122A2E02C8AA74F712243CEAFEEBFF2C
:10D670008E828F83A3A3A3A3A3A3A3A3E060161208
:10D68000D6CD129B7E12CC2C1232C1E964017005FA
:10D6900012CC0680298E828F83A3A3A3A3A3A3A366
:10D6A000E0602512B93E12CC1F1232C1E96401704C
:10D6B000178E828F83A3A3A3A3A3A3A3A3A312CC98
:10D6C0002C1232A979018002790002B390EE241560
:10D6D000F582E43FF5832274F212243C74FD122A91
:10D6E000C78A088B09ECFEEDFF890B750A017401EE
:10D6F000122CF3740412CF62123273EA4B6042743C
:10D7000011122CF3E0601412DD9DE412E29D8A8276
:10D710008B83E0D2E7F012D744E4F012D74E12CD5B
:10D7200029740312D9F5EE88828983A3A3F0EF88C8
:10D73000828983A3A312B12E12DCBA1245E1E9F566
:10D740000A028ACCEA2414F582E43BF5832212F320
:10D75000C13B2274F012243CEAFEEBFF890A750BF0
:10D7600001EE12DAB73F12D8BBF50C88828983A389
:10D77000A3E0FA8882898312D8AA12B909640460E6
:10D780000A7AD37B001241FD02D89AE50C1228DAFE
:10D79000020002A5D7030B52D8030C38D80D10D8BD
:10D7A0000E52D84FD8901D21E0600764016003023B
:10D7B000D852900538E0A2E1400302D8527900AB7C
:10D7C00009122E89EA4B603D8A828B83A3A3A3A30F
:10D7D000A3A3E05418602E12CC061228558A828B1F
:10D7E00083A3A312285579008E828F83A3A3A3A3BA
:10D7F000A3A3A3A3A312D89E12CC2C122EA174040F
:10D80000122A2E802E7901AA08AB09122D518042CE
:10D81000901D21E0600464017038900538E0A2E1B9
:10D820005030AB091232A3AA08AB091232A9E9643D
:10D83000C5701F750B00801A901D21E06004640103
:10D840007010900538E0A2E1500812413D80037548
:10D850000A00EE2409F50EE43FF50FAC08AD09A966
:10D860000C850E82F58312CC2C122D69850E8285D3
:10D870000F8312CC2C123291E9601F12BEEAC394BE
:10D8800002401712CC0612E1C07003A3E069600ADF
:10D89000E50BA2E05004A90A80027900803112D879
:10D8A000A22212B94F8A828B8322A3A3A3E0F8E4B9
:10D8B000C8F9EA28F508E439F50922F58312D8C237
:10D8C000E02212D53BF988828983A322122A2E7F77
:10D8D000080226CD74EE12243C74F5122AC78A0A77
:10D8E0008B0B890D8C0E8D0F7E01EE122CF3740ABA
:10D8F000F0741D122CF3E0F50CE9700FE50CC33346
:10D90000240AC0E0EE122CF3D0E0F0AA18AB1912F2
:10D9100032738A088B09EA4509700302D9CD12C413
:10D9200068350912DB6B7409F0A3E50DC43354E0CC
:10D93000450C12DB84AC0EAD0FEEFAEFFB123F9FED
:10D94000EE2408FE50010FE50D702F7C00741E12AE
:10D950002CF312D9DC801D12D9D4EA28F8EB39F95E
:10D960008882898312DB7F8882898312A14CF0A38D
:10D970000EAF830CECC3950C40DDE508241712CCE8
:10D98000187401F01231EFE508241AF582E4350924
:10D9900012D9E9122AA7AA0AAB0B12471FE960198C
:10D9A000E508241612CC187401F07403122A97E5C6
:10D9B00008241812CC1812CC3B850882850983A351
:10D9C000A312D9F3AA08AB091245E1E9FEEEF974F6
:10D9D0000B02C23CEC25E0F8E433F92212D9E02234
:10D9E00012D53BF9E8FAE9FB22F583EAF0A3EBF064
:10D9F000740322E50AF0A3E50BF02274F012243C34
:10DA000074F8122AC78A088B0912DAB6350912DBB4
:10DA1000FFF8741F58F50A880BA3AE82AF83EEFCA3
:10DA2000EFFDAA18AB19123F9FEE2408FE50010F1C
:10DA3000AC18AD197A5F7B05123F99E9607374E009
:10DA4000550B7066AA0AEA2AFA7B00123E8B8A0CF2
:10DA50008B0DEA450D605A7C00801D8E828F8312EB
:10DA6000C49312D9D4E50C28F582E50D3912E0FBF8
:10DA7000EE2402FE50010F0CECC3950A40DD780C39
:10DA8000122A51780A122A557403122AA77900E53E
:10DA900008240B12CC1812CC2C1232EB7403122A6D
:10DAA0002EAA0CAB0D123E9180077AD37B00124157
:10DAB000FD740802D8CCEA241DF582E42274F01229
:10DAC000243C8A0A8B0B890D8C088D09901C4B1203
:10DAD000CF2B60757410122CF3E0F50C12D9D5E839
:10DAE000240EFAE439FB123DEF8A0E8B0FAE0EAF17
:10DAF0000FEE4F60548E828F8374D4F012DB5AA3E2
:10DB0000A3E50DF0AC08AD09EE2405FAE43FFB12E5
:10DB10003F9F12DB4CE50CF07411122CF312E286DD
:10DB20007808122A4DAC0CEC2CFCE433FDEE240EEC
:10DB3000FAE43FFB123DCB7403122A2EEEFAEFFB00
:10DB4000901C4B12E29112262D02D8CFEE12DB511F
:10DB500022240DF582E43FF58322A3A3E50AF0A376
:10DB6000E50B12DB662212BF30A322F58312DB7AAB
:10DB7000FF8E828F832288828983E0FEA3E022E0E9
:10DB80008E828F83F0A3AE82AF832274F612243C80
:10DB900074F8122AC7890812DAB63B12DBFFF9744F
:10DBA0001F59F88909A3AE82AF837401687042EEF1
:10DBB000FCEFFDAA18AB19123F9FEE2408FE50019E
:10DBC0000FAC18AD197A5F7B05123F99E960297493
:10DBD000E05509701C8E828F83A3E0FA8E828F83BA
:10DBE000A312C4958E828F83E0F912331BA908809B
:10DBF000097AD37B001241FD7900740802C8A7F5A9
:10DC000083E02401FEA3E03400FF8E828F83E022B4
:10DC100074F012243C74FD122AC78A0A8B0B8C08FC
:10DC20008D09890D750C017401122CF3740312CF48
:10DC3000621232738A0E8B0FAE0EAF0FEE4F603F43
:10DC400012CD24740BF0A3E50D12DC9E7413122C7C
:10DC5000F312DC9812DE381231EF12DC8612DCA5EA
:10DC6000EE2418F582E43F12DCB88E828F83A3A3E2
:10DC7000E50AF0A3E50B12DE2B1245E1E9F50CA94C
:10DC80000C740302D8CC12DC8EEAF0A3EB22EE2453
:10DC90001AF582E43FF58322E08882898322F0A38B
:10DCA000A882A98322F0EE241612DCAD22F582E4CC
:10DCB0003FF5837401F02239F58312DE24F02274DB
:10DCC000EF12243CEAFEEBFF751000EE12DAB73FCC
:10DCD00012DF0BF508A3E0F50912D6CD12CC2C12F9
:10DCE000468FEA4B700302DD988A828B83A3A3A33D
:10DCF000A3E0700302DD98C39403400302DD98E5BE
:10DD000008C3940F5004E50960057510018079EA95
:10DD10002412F582E43BF583E4F0E5087022904B91
:10DD2000FA7808122B9312DD9D7808122C84904B00
:10DD3000FA7808122B9312E6F47808122C848039B2
:10DD400075090074027808122BF274FA2508F5821E
:10DD5000744B12CC1B780C122B9390810A7808120A
:10DD60002C66780C790812234D12DD9D780C122C4C
:10DD70008412E6F4780C122C84EA241BF582E43B2E
:10DD8000F5837401F0124185901D0FE0FCA910127B
:10DD9000CC0612CC2C1233037F090226CDEA2417BD
:10DDA000F582E43BF5832274F012243C74F5122AC8
:10DDB000C78A088B09890B8C0C750A017401122C17
:10DDC000F3740312CF621232738A0E8B0FAE0EAF52
:10DDD0000FEE4F604812CD24740C12D9F5A3E50C58
:10DDE00012DE381231EFEE241AF582E43F12D9E93F
:10DDF000122AA7AA08AB0912471FE9600E12CF0F1B
:10DE00007403122A9712CCFD12CC3B8E828F83A30F
:10DE1000A312DE2412DE2B1245E1E9F50AA90A74E9
:10DE20000B02D8CCE508F0A3E5092212CD49740114
:10DE3000F0EEFAEFFB227401F0EE241712DCAD22B3
:10DE400074F012243C12DAB63B12DF0BF8A3E0FEAA
:10DE5000E8600302DF0874016E600874026E6003FC
:10DE600002DF08EE901D0FF075080F75091D780888
:10DE7000122A517508017509007808122A517C0090
:10DE80007D007A517B00123F0F7404122A2E740217
:10DE90006E7075901EC1E0700A904BFA7808122BD4
:10DEA000938028F50874027808122BF274FA25087A
:10DEB000F582744B12CC1B7808122B9390810A7850
:10DEC0000C122C667808790C12234D908112780C74
:10DED000122C667808790C1223CD9080CA780C1227
:10DEE0002C667808790C12234D901D117808122C9D
:10DEF00084901D111228517A007B40900598E0F91A
:10DF0000123F577404122A2E02D8CFF583E0240161
:10DF1000F8A3E03400F988828983E02274F61224A1
:10DF20003C74DA122AC7EAFEEBFF12CF2660508E4D
:10DF3000828F8312CC2CAC18AD1912D1481231D774
:10DF40007409122CF312E1C07003A3E0696030126F
:10DF5000E28D1228557508FE7509FF7808122A51BE
:10DF6000741C122CF3E0F9740D122CF312B94774DF
:10DF70000F122CF312CC2C122EA17404122A2E7420
:10DF80002602C8A774F712243CE9FD7A007B0090B2
:10DF90001D21E06004640170407C00800B12E030C1
:10DFA000E02AFAA3E03BFB0C904D0612EE735029D9
:10DFB000EC75F01CA4F8AEF0EEF912EE95F460E703
:10DFC000740428F582740C3912CF2960DAED60CD23
:10DFD00012E030E4F0A3F080CE7C00800B12E01D54
:10DFE000E02AFAA3E03BFB0C12EE70502DEC75F02A
:10DFF00017A4F8AEF0EEF912F0147003A3E0F46089
:10E00000E6745528F582740E3912CF2960D9ED6077
:10E01000CC12E01DE4F0A3F080CD02B390EC75F0DB
:10E0200017A4F8EEF9745528F582740E39F5832299
:10E03000EC75F01CA4F8EEF9740428F582740C3920
:10E04000F5832274EC12243C890CEAFEEBFF900568
:10E0500097E0C3950C503B1232439005C912E099EA
:10E06000900531E0F508E4F509F50AF50B9080DA42
:10E070007810122C667808791012234D7808122A2D
:10E08000497A007B02900598E0F9123F517404121E
:10E090002A2E0286C98A828B83EEF0A3EFF02274C7
:10E0A000F612243CEAFEEBFF9005B58013888289C6
:10E0B00083E06E7003A3E06F603A88828983A3A334
:10E0C00012CF2B70E87A047B00123E8B8A088B09F2
:10E0D000A808A909E849601C8882898312E0999000
:10E0E00005B512CC2C88828983A3A312E0FD90058C
:10E0F000B512CC3B02C8AAF582E43FF583EAF0A34F
:10E10000EBF02274F412243C7E009005B580070EDB
:10E110008A828B83A3A312B29B70F4EE25E0FAE40B
:10E1200033FB123E8B8A088B09EA4509607F7C002D
:10E130009005B580228A828B83E0F50AA3E0F50B77
:10E1400012D9D4E50828F582E50939F58312D9F307
:10E150000C8A828B83A3A312B29B70D99005931271
:10E16000E1C07003A3E0697808701C122A51EEF533
:10E170000A780A122A557C5F7D0579009005931272
:10E18000CC2C1232EB801A122A51EEF50A780A12C0
:10E190002A557C5F7D05790090059312CC2C1232B4
:10E1A000DF7403122A2EAA08AB09123E911245C948
:10E1B000028F618E828F83A3A3A3A3A3A3A3A3A390
:10E1C00012D4DE90053EE06822C082C08380128AAD
:10E1D000828B83A3A312BA759005B512CC3B123E75
:10E1E000919005B512B29B70E602C51874F5122421
:10E1F0003C90054B12BC039005C9129FCB12CC3B3F
:10E200007AC97B0579501244CD9005C912E2868007
:10E210001312EB3D7004A3E06509600612EB4A128D
:10E220003387050A904D03E493F8E50AC39850201C
:10E23000E50A75F017A4F8A9F012E9EB6E7003A3D4
:10E24000E06F70CD744A28F582740E12DCB780D26C
:10E250009005C912BC03901C4D12CF2B60257A0685
:10E260007B00123DEFEA4B601A8A828B8374D5F0F3
:10E27000A3A3E412E6380412E29D901C4D12E29131
:10E2800012262D02B6001286D8750A00228E828FC1
:10E290008312E2952212D53BF58388822212B13B8C
:10E2A000EEF0A3EFF022C082C08390053EE064FE52
:10E2B0007003A3E0F4600E900538E0A2E15006126E
:10E2C000339F12334502C51874F012243C90058C1C
:10E2D000E06053F50CE4F50DF50EF50F9080CA786B
:10E2E00008122C66780C790812234D123DE98A0831
:10E2F0008B09A808A909904CF7E49358F508A3E402
:10E300009359F509E4F50AF50B780C7908122B5AA4
:10E31000780C122A497A007B01900598E0F9123FA7
:10E32000577404122A2E02D8CF74EE12243C7E00B9
:10E330007F008E0A8E0B12462F750D00803BAA0DB2
:10E340007B001246358A088B09A808A909E84960AC
:10E350002688828983A3A3A3A3E0600464047017C2
:10E3600088828983A3A3A3A3A3A3A3A3A3A3E0F960
:10E370001233B1E960010F050D904D06E493F8E505
:10E380000DC39840B91233758A0E8B0F750C00803F
:10E3900023AA0C7B001233818A088B09A808A909DB
:10E3A000E849600EE8240F129A76F91233B1E96059
:10E3B000010E050CC3E50C950EE4950F40D3EF2E2E
:10E3C000FE700302E4BF8E0875090074027808121B
:10E3D0002BF2AA08AB09123E8B8A0A8B0BEA450B7B
:10E3E000700302E4BD750C008E0875090074027894
:10E3F00008122BF2AC08AD0979FF123DD7750D005C
:10E40000805EAA0D7B001246358A088B09EA450911
:10E41000604C8A828B83A3A3A3A3E060046404708E
:10E420003D8A828B83A3A3A3A3A3A3A3A3A3A3E057
:10E43000F91233B1E9F96026050C780A122A51EE77
:10E44000FD850882850983A3A3A3A3A3A3A3A3A3F4
:10E4500012E55012CC2C12334B7402122A2E050DE9
:10E46000904D06E493F8E50DC3985006E50CC39F64
:10E470004090750C00C3E50C950EE4950F5040AA32
:10E480000C7B001233818A088B09EA4509602AEA6D
:10E49000240F12AF93F91233B1E9F9601C780A1214
:10E4A0002A51EEFDE508240E12CC1812E55012CCCC
:10E4B0002C12334B7402122A2E050C80B87E007F7A
:10E4C00062900536E0600BF9123087E9F87454C3A6
:10E4D00098FF75F003EF84F50D94204003750D1F30
:10E4E000850A08850B09750C00EF6005750C207F07
:10E4F00000E50DC39E5005850D0F80088E0FE50CBD
:10E50000D2E6F50CAC08AD09AA0CA90F123351E9FB
:10E51000F50EE50CA2E6401D150F7800800BE5080E
:10E520002404F5085002050908E8C3950F40EFE5FB
:10E530000FCEC39EFEE97006E50CA2E650A8E50AE0
:10E54000450B6007AA0AAB0B123E91A90E02C23F0F
:10E55000E0FC8508828509832274F212243CEAFEDD
:10E56000EBFF89088C098D0A7C007D00740E122C4B
:10E57000F312CC2C750B00800DEAFCEBFDEA2404B1
:10E58000FA50010B050BE50BC3950A400302E62880
:10E590008A828B83E0F47003A3E0F4607AEC4D6030
:10E5A0000C8C828D83C3E09EA3E09F50CC8A828B2B
:10E5B0008312E62BEE98EF9950BFEAF8EBF98882C8
:10E5C0008983E0F47003A3E0F46010E82404F850B9
:10E5D0000109050BE50BC3950A40E3E8FCE9FDE8FA
:10E5E00024FCF8E934FFF98882898312E6308C82B2
:10E5F0008D83E50CF0A3E50D12E6478C828D83A395
:10E60000A312E63DA3A3A3E08C828D83A3A3A3F072
:10E61000C3EA98EB9940C412E0958A828B83A3A346
:10E62000E50912E638E508F0028AD312D4DEC322E7
:10E63000E0F50CA3E0F50D2212B12FA32212E64162
:10E6400022F0888289832212E64DA3E02212E6415D
:10E65000A32274F212243C74FD122AC789088A0985
:10E66000ECFEEDFF750A0175F003E9A42402C0E099
:10E670007401122CF3D0E012CF62123273EA4B60B5
:10E680007012D74E12CD297408F0741F5508450931
:10E69000A3F0E82402F8500109750A0080338E8245
:10E6A0008F8312DC9812DC9E8E828F8312CD398E7E
:10E6B000828F83A3A3E05407C4FC8E828F83A3A31D
:10E6C000A3E054074C12CD3BEE2404FE50010F058D
:10E6D0000AE50AC3950840C68A828B83A3A374FC0B
:10E6E000F0A374FFF012E6F47401F01245E1E9F5CD
:10E6F0000A028ACCEA2413F582E43BF5832274F102
:10E7000012243C8A0A8B0B7508007AFE7BFF7CFE84
:10E710007DFFE50A12DAB7350B12D8BBF509741F75
:10E720005509F50CE82402F8500109E509A2E74073
:10E7300065E50A2417F582E412F4F4FE75F003E5AA
:10E740000CA424026E704FE50C600612DB76FBEE23
:10E75000FA750D00801DE05407F50EA3A882A98369
:10E76000EEFC90053EE06E7003A3E06F7003850E33
:10E7700008050DE50DC3950C502612DB76FCE4CCA4
:10E78000FDEE2CE43DFFE82402F85001098882895F
:10E7900083E0548860C07AD37B001241FD02E8E137
:10E7A000E508700BA90912335DE9700302E8E11274
:10E7B000E8E612CC2C1246958A0C8B0DAE0CAF0DF0
:10E7C000EE4F605A8E828F83A3A3A3A3A3A3A3E4D7
:10E7D000F0904D1993F88E828F83A3A3A3A3A3A3D4
:10E7E000A3A3E0C398402412E8F05001097A027B09
:10E7F00000122255E88E828F83A3A3A3A3A3A3A311
:10E80000A3F0E508C39407500205088E828F83A306
:10E81000A3A3A3A3A3A3A3A3E508F002E8E17CFFBD
:10E820007DFF12E8E612CC2C1233698A0C8B0DAEF8
:10E830000CAF0DEE4F704F12336F8A0C8B0DAE0C78
:10E84000AF0DEE4F700302E8E17C177D00790012F6
:10E850003DD712E8E612CF1C1287268E828F83A343
:10E86000A3A3A3A3A3A3A312B97412B4BF74AA123F
:10E87000E90F5001097A027B0012225512DB4CE8A5
:10E8800012E8FB7401F0904D19E49312BEF9C3989D
:10E89000401912E8F05001097A027B001222551249
:10E8A000EF9BE508C394075002050812EF87E508BF
:10E8B00012E900E4F0129FC3124725E97023850A8C
:10E8C00082850B83A3A3A3A3A3A3A3A3E06012E564
:10E8D0000A2415F582E4350B12B955129FC4123F74
:10E8E0009F7F070226CDE50A12F3C2350BF583227E
:10E8F000904D19E49379002401F822F012EF8B2255
:10E90000F012E90522EE240CF582E43FF58322F0B3
:10E91000904D19E49379002401F82274F712243CF5
:10E92000E9FE74FE6A700374FF6B603474605E64A9
:10E9300060602DEEA2E5401CA2E690053E500DC39E
:10E94000E09AA3E09B5019790002B390C3E09AA328
:10E95000E09B40F390053E12E62BEC98ED9940E7E2
:10E96000790180E574F712243C7E008008EE12EBFA
:10E97000431233870E12E9A540F37E00EE75F003D3
:10E98000A4F8A9F074B728F8740539F98882898346
:10E99000A374FEF0A30412E63DE4F00EEEC394036C
:10E9A00040DA02B390904D03E493F8EEC3982274DA
:10E9B000F712243C7E0080010E12E9A55026EE12CB
:10E9C000E9FB6A7003A3E06B70EE12E9EB6C700375
:10E9D000A3E06D600A74FF6C700374FF6D70D91250
:10E9E000EB4A80047A007B0002B39012E9EF2274B4
:10E9F0004A28F582740E39F583E02275F017A4F8E1
:10EA0000A9F012EA062212EE65E02274F612243C06
:10EA10007CFF7DFF7AFE7BFF123369EA4B703C7509
:10EA200008008032E50875F017A4F8A9F0744F28A3
:10EA3000F582740E129A79600512EE8A701674408F
:10EA400028FE740E39FF8E828F8312CC2C122EA7D3
:10EA5000EEFAEFFB050812EA5E40C902C8AA904D23
:10EA600003E493F8E508C39822C082C0837A007B50
:10EA7000007C00801012F00C7003A3E0F460050A23
:10EA8000EA70010B0C12EE7040EB02C51874F41220
:10EA9000243C8A088B09ECFEEDFF800B123387EED5
:10EAA000FCEFFDAA08AB09123369EA4B70EE028F46
:10EAB0006174F712243C7D007C0080020D0C12EE84
:10EAC00070501C12F00C7003A3E0F460F0EDF8EA53
:10EAD000684B70E8EC75F017A4F812EB4A80047AE2
:10EAE000007B0002B39074F712243CEAFEEBFFEEC9
:10EAF0004F60187C177D007900123DD78E828F837E
:10EB000074FEF0A30412EFA2F0A3F002B39074F627
:10EB100012243C8A088B097E00801AEE75F017A437
:10EB2000F8A9F012EB3D7004A3E06509600612EB52
:10EB30004A1233870E12E9A540E102C8AA12E9EF92
:10EB400065082275F017A4F8A9F0744028FA740E2D
:10EB500039FB2274F412243C8A088B09ECFEEDFF89
:10EB6000901D21E060046401702090054BE06E7000
:10EB700003A3E06F70141246958A0A8B0BA80AA9AA
:10EB80000BE8496005E82408801AEEFCEFFDAA08AE
:10EB9000AB091233698A088B09A808A909E84960FA
:10EBA00009E8240DFAE439FB80047A007B00028F27
:10EBB0006174F412243C8A088B09ECFEEDFF750A9F
:10EBC00000750B00802FE50B12EFFC124725E96062
:10EBD00022E50B12E9FB65087004A3E065097003E8
:10EBE000750A0AEEFCEFFD12F003123F99E960038B
:10EBF000430AA0050B904D03E493F8E50BC398502E
:10EC000004E50A60C1A90A028F6174F612243C7EF1
:10EC100000805AEEFA7B001246358A088B09A80854
:10EC2000A909E849604688828983A3A3A3A3E06475
:10EC300001603988828983A3A3A3A3E06402602CC6
:10EC4000E82407129A76FA74012AF090058DE0C341
:10EC50009A501988828983A3A3A3A3A3A3A3A3A3E0
:10EC6000A3E412ECF2A312ECFD122EA70E904D06B7
:10EC700012E9A8409E7E008059EE75F017A4F8AA0C
:10EC8000F0EAF912F0147003A3E0F4604474402831
:10EC9000F8740E39F9E8240C129A76F8740128F009
:10ECA00090058DE0C3985029EE75F017A4F8EAF9A5
:10ECB000744028F8740E39F9E812ECEC39F583E465
:10ECC000F0E8240EF582E439F583E412ECFD122E0F
:10ECD000A70E12E9A540A27A00EA12D367600214D7
:10ECE000F00AEAC3940340F102C8AAEE240FF582A9
:10ECF000E42212E64DA3A3A3A3A3A3A32212E641F9
:10ED000012D1602274F112243C8A0A8B0BECFEEDC6
:10ED1000FF750E007A007B017508FE7509FF740F00
:10ED2000122CF312E6308011123DE9E50EF5F0EAFF
:10ED300084E5F0FA750E007B007C00800712EE651A
:10ED40001286D40C12EE70505CEC75F017A4F8AD7E
:10ED5000F0EDF912F0147003A3E0F460E612EA0299
:10ED6000650A7004A3E0650B60D912EFF77003A386
:10ED7000E06F60CF12EA02650C7004A3E0650D60DD
:10ED8000C212EE8A60BDC3940850B8E0640760AD5B
:10ED9000EB050E70AEE50EC39A40A8744028F582CC
:10EDA000740E02EE2F901D21E060076401600302E3
:10EDB000EE377C00800712EEA51286D40C904D062B
:10EDC00012EE735072EC75F01CA4F8ADF0EDF91270
:10EDD000EEA064FE7003A3E0F460E112EEA0650A09
:10EDE0007004A3E0650B60D412EEA06E7003A3E084
:10EDF0006F60C912EEA0650C7004A3E0650D60BCE5
:10EE000012EE7A60B7C3940850B212EE95640160B6
:10EE1000ABE0640260A612EE7A64076099EB050E1F
:10EE2000709AE50EC39A409474F428F582740B3DF1
:10EE3000F58312CC2C802BE50E6011EA700E740164
:10EE4000650E600302ED287A0102ED3474FE650858
:10EE5000700474FF65096006AA08AB0980047AFE95
:10EE60007BFF02E8E1744028F582740E39F58322B5
:10EE7000904D03E493F8ECC3982274FD28F5827456
:10EE80000B12EE852239F583E022744E28F5827448
:10EE90000E12EE852274F828F582740B12EE85228C
:10EEA00012EEA5E02274F428F582740B39F5832262
:10EEB00074F512243C8A088B09ECFEEDFF750A00FC
:10EEC0008002050A904D03E493F8E50AC3985022A6
:10EED000EEFCEFFDE50A12EFFC123F99E960E3E575
:10EEE0000A75F017A4F8A9F0744028F582740E1280
:10EEF000DCB702B600E9F87907C3940D4004790144
:10EF00008019E8C3940740047903800FE8C3940391
:10EF1000400479058005E8700279000229FB74F04D
:10EF200012243C8A088B098C0A8D0B890C12336FD2
:10EF30008A0E8B0FAE0EAF0FEE4F60487C177D0030
:10EF40007900123DD78E828F8312DE2412EFA21237
:10EF5000D9F3E50C600712B4BEE50C800312EF95FF
:10EF6000F0900592E06401700612EF87E4800512CC
:10EF7000EF87740712E90F5001097A027B00122211
:10EF80005512EF9B02D8CF12EF8B22EE240EF582A2
:10EF9000E43FF5832212CD16740122EE12DB51E814
:10EFA000F02212A944A32274F712243CEAFEEBFFDC
:10EFB000750800803AE50875F017A4F8A9F012EF7B
:10EFC000F77003A3E06F601474FF6E700374FF6F3B
:10EFD000701B12F0147003A3E0F4601112F003121E
:10EFE0004725E97008E50812EB431233870508123C
:10EFF000EA5E40C102B39012EA066E2275F017A4D1
:10F00000F8A9F0744228FA740E39FB22EC75F01757
:10F01000A4F8A9F012EA0664FE22C082C0837AFF37
:10F020007BFF1233BD02C518C082C0839005CB742C
:10F03000CFF0A37433F09005CD74D5F0A37433F002
:10F040009005CF74DBF0A3743302AD1D74F7122466
:10F050003CEAF8EBF99004D512F095CA2406F58243
:10F06000E43AF583E0702B88828983A3A3A3A3A34A
:10F07000A3A3A3A31228559004D512F09A122CC46E
:10F0800088828983A3E0F9122D5D7402122A2E1260
:10F0900045C902B390E0FAA3E02212F095F5838A05
:10F0A0008222C082C08390059512F166F09005958A
:10F0B00012CF2B7005790112331502C51874F612A0
:10F0C000243C74FC122AC7E9FE904D0CE4937008AE
:10F0D00074E16E600302F161EA2408F8E43BF98808
:10F0E00082898312F16612F16F700E900595E4F03B
:10F0F000A3F079011233158068901D23E06062F857
:10F1000090059512CC2CC3E89AE49B5054790012D8
:10F1100033158A088B09AC08AD09ECF8EDF9E875F0
:10F12000F064A4F8AAF075F064E9A42AF9900595B2
:10F1300012CC2C12225DE8941AE994004023901C12
:10F140004512CF2B601B90059512CC307402122C07
:10F15000F3ECF0A3ED12CF62901C4512E29112265F
:10F160002D740402C8A7E02401F0A3E034002212A9
:10F17000E64112D4DEE84922C082C08374F8122A24
:10F18000C7908080AC18AD197408122977AC18ADFF
:10F1900019123F99E96401700479008002790174C1
:10F1A0000802D51BC082C0839005D17429F0A374D6
:10F1B00046F09005D37423F0A37446F0901D0FE041
:10F1C000640170329005D574F3F0A37433F09005A8
:10F1D000D774F9F0A37433F09005D974FFF0A374D9
:10F1E00033F09005DB7405F0A37434F09005DD7402
:10F1F000EDF0A37433F09005D512CF2B600612C842
:10F200004D12262D02C51874F412243C74E6122AFD
:10F21000C78A088B097404122CF37402F004122AB2
:10F220009F1232738A0A8B0BAE0AAF0BEE4F70033C
:10F2300002F39112F3E1746012CD4512DE36123101
:10F24000EF12DC8612B97012DE2412BF51701290D8
:10F25000052AE0C0E012F396D0E0F090052AE00421
:10F26000F012F3B27016901CFAE0600D900535E0D4
:10F27000700A8E828F83E0700312CD07AC18AD192F
:10F28000EEFAEFFB1231CB8A088B09EA45097003CD
:10F2900002F38A7A217B00123E8B7406122CF31241
:10F2A000E0FD7406122CF312CF2B700302F3837C63
:10F2B000217D0079007406122CF3E0FA123DD77418
:10F2C00001122A9F79501244C77401122CF312BA0A
:10F2D000757406122CF312F095CA2409F582E43AEB
:10F2E000F58312CC3B90053E12BA757417122CF3BD
:10F2F00012CC3B7406122CF312BC0812F3B8F07453
:10F3000006122CF312B07E740212F4077406122C4B
:10F31000F312F09A12CC3B7406122CF312F3EC1297
:10F32000F412C0E07406122CF312BC0812F3C8D019
:10F33000E0F0EE240E12F3A0C0E07406122CF312DB
:10F34000F3D1D0E0F07406122CF312BC0812BBF912
:10F3500012DCB8EE240F12BA6F740C122CF312CC1C
:10F360003B8A828B83E0C0E0740E122CF3D0E0F075
:10F370007406122A9F1231417406122CF312CC2CFF
:10F38000123E91AA08AB09123E91EEFAEFFB123E33
:10F3900091741A028F5EEE2414F582E43FF5832205
:10F3A00012F3A5E022F8E43FF9E8FAE9FB8A828B40
:10F3B000832212BEEE64012212F3C238F583740276
:10F3C00022EA240BF582E422241EF582E438F58338
:10F3D0002212F3D52212BC0C240CF582E438F583FA
:10F3E0002212CC0A12CD2F7404F0A322E012F3F6FD
:10F3F0007401F0A3E422F8A3E0C812F3FE22240D66
:10F40000F582E438F5832212DB6612D4DE22E8F0BE
:10F41000A3E912A794E02274F612243C7E0080181F
:10F420007C047D0079FF8E088D0974027808122B08
:10F43000F212F652123DD70E904D1212E9A840E09A
:10F4400002C8AA74F412243C74F7122AC775080083
:10F45000802285080A750B007402780A122BF27458
:10F46000DF250AF582741112F4F424FFF0A3E034CE
:10F47000FFF00508904D1212EA61506D85080A757B
:10F480000B007402780A122BF212F4ECF47003A34E
:10F49000E0F460DE85080A750B007402780A122B0E
:10F4A000F274DF250AF5827411350B12CF2970A290
:10F4B0007408122CF37402F085080A750B00780AA0
:10F4C000122BF274DD250AFE7411350BFF8E828F2C
:10F4D0008312CC3012F4FA12450F7C047D0079FFC0
:10F4E000EEFAEFFB123DD7808902B07974DD250A70
:10F4F000F5827411350BF583E02212F66B2274EE5F
:10F5000012243C74F7122AC7EAFEEBFF750CFF7455
:10F5100008122CF312F65D124509E9641A70030211
:10F52000F5D0750E00741B122CF37808122C66802F
:10F530000B74FF650C7003850E0C050E904D12E4E4
:10F5400093F8E50EC3985048850E107511007402AB
:10F550007810122BF212F5D4F47003A3E0F460D10A
:10F56000850E1075110074027810122BF212F5D46A
:10F570006E7003A3E06F70C2750F007402780E12F4
:10F580002BF274DF250EF5827411350FF583803070
:10F59000E493650E702D74FF650C602E850C0E755E
:10F5A0000F007402780E122BF274DD250EF8741120
:10F5B000350FF98882898312E09988828983A3A311
:10F5C00012DCBA7901740902C23C12F4FA12450F36
:10F5D000790080F174DD2510F58274113511F58301
:10F5E000E02274F412243C74F7122AC7EAFEEBFFFF
:10F5F0007408122CF312F65D12450F750800800294
:10F600000508904D1212EA61504585080A750B00F5
:10F610007402780A122BF212F4ECF47003A3E0F4F3
:10F6200060DE85080A750B007402780A122BF2124C
:10F63000F4EC6E7003A3E06F70C67C047D0079FF6C
:10F640008D0974027808122BF212F652123DD7027D
:10F65000B07974DD2508FA74113509FB22740212A1
:10F66000A794EEF0A3EFF012F66B2290054B12B9BF
:10F670004FAA18AB192274EE12243C8A088B09ECAD
:10F68000FEEDFF750A00EE65087003EF6509600C7A
:10F69000123F098A0C8B0DEA450D7006750A0102AE
:10F6A000F732EEFAEFFB123F098A0E8B0FAC0EAD6C
:10F6B0000FEC4D6007EEFAEFFB123F1BE4F50EF581
:10F6C0000F780E122A51AC0CAD0DEEFAEFFB123F83
:10F6D000037402122A2EE96059AA0CAB0D123E8B5C
:10F6E0008A0E8B0FEA450F6046780E122A51780C6D
:10F6F000122A517C007D00AA08AB09123F15740440
:10F70000122A2EE9701D780E122A51780C122A51F5
:10F710007C007D00EEFAEFFB123F0F7404122A2EDC
:10F72000E96003750A01AA0EAB0F123E91800375C2
:10F730000A10A90A02C23FC082C083E9901E88F065
:10F74000901D2B7441F0A37440F002FBF074F4128E
:10F75000243C74FF122AC78A088B09EB5480705628
:10F76000EAA2E0507C901B85E0F9124023E9FE609C
:10F770001012F7EF1244CD790012313B901B86E452
:10F78000F07A027B00123DEFEA4B60128A828B8393
:10F790007433F0EEA3F0901E89E0F9123DFBE5080A
:10F7A0006401FAAB09803EE0640D7003124059EE2B
:10F7B000FAEFFB123DF5901E88E0F9123E078A0A27
:10F7C0008B0BAE0AAF0BEE4F600E8E828F83E06420
:10F7D0000C70D412405380D7AA08E5096480FB80DE
:10F7E000047A007B007401122A2E7F040226CD8544
:10F7F00018828519837401F0AA18AB197952227402
:10F80000F612243C8A088B09ECFEEDFF7C177D0084
:10F810007900EEFAEFFB123DD712F8FEC0E0EE24BD
:10F8200010F582E43FF583D0E0F0E508241DF58271
:10F83000E4350912FFA9E508240DF582E43509F540
:10F8400083E0FAA3E0FB8E828F83A3A3A3A3A3A3E9
:10F85000A3A3A3A3EAF0A3EBF088828983E0FA8E46
:10F86000828F83F088828983A3A882A98374035A34
:10F870006403703C8E828F83E0540CFA74086A70C3
:10F880000812F8F47401F0801312F8F4E4F0740C28
:10F890006A700912F90B12F91C50010912F90B12C6
:10F8A000F91A50010912F90BA3A312F91A50010910
:10F8B000EE240EF582E43FF583E8F0A3E9F0EE24B0
:10F8C00010FAE43FFBE508241DF582E43509F583D1
:10F8D000E0FC8A828B83E0C3982CF8F012F8FEC318
:10F8E00098C0E0EE240DF582E43FF583D0E0F07F90
:10F8F000020226CDEE240CF582E43FF58322E508D2
:10F900002417F582E43509F583E02288828983E0B3
:10F91000FCA3E0FBEC8E828F8322A3A3A3A3A3A36B
:10F92000F0A3EBF0E82402F82274F712243CEAF882
:10F93000EBF9ECFAEDFB740B122CF312FA9CEC24AD
:10F9400015F582E43DF583E0540D700F8C828D83B4
:10F95000A3A3A3A3A3A3A3A3E0700579B602FA0807
:10F96000888289837403F0EC2408FEE43DFF8E82D4
:10F970008F83E08A828B83A3A3A3A3A3A3A3A3F073
:10F980008E828F83E0640F701088828983E0D2E3D7
:10F9900012FA0D8C828D8380158C828D83A3A3A394
:10F9A000A3A3A3A3A3E064028C828D83700912FF3A
:10F9B000AB8A828B83804AA3A3A3A3A3A3A3A3E0C0
:10F9C00064037005123F9F803D8C828D83A3A3A3A7
:10F9D000A3A3A3A3A3E06401702C88828983E044DD
:10F9E0000C12FA0D8A828B8374FFF0A3F08C828D47
:10F9F0008312FFAB7409122CF3E0FAA3E0F5838ABB
:10FA000082E8F0A3E9F079007F010226CDF08A8236
:10FA10008B83A3A3A3A3A3A3A3A37402F02274F5CF
:10FA200012243CE9FE8A828B83F0A3AA82AB837402
:10FA30000C5E640C700AECF0A3EDF0A30A0AAB8331
:10FA4000740B122CF312FA9CEC240D12FA8CAA827D
:10FA500012FAA2240F12FA8C0A12FAA22413F582C7
:10FA6000E43DF583E0F508A3E0F509750A007808A0
:10FA7000122A4DEC2411F582E43DF58312FA9C1212
:10FA80003DCB7403122A2E7F030226CDF8E43DF904
:10FA900088828983E08A828B83F0A322E0FCA3E042
:10FAA000FD22AB8388828983A3E08A828B83F0A3C3
:10FAB0000AAB83EC22C082C08374FE122AC7740191
:10FAC000122CF3E9F07902123171E9701E1245210E
:10FAD000E960187401122A9F79E11244CD12F7EF00
:10FAE0001244CD901B86E4F0F98002790102FBEB11
:10FAF00074F712243C74FE122AC7E9FE901B86E0BC
:10FB00006004790180547401122A9F79E11244C77C
:10FB10007401122CF3E06E601F901B867401F0F9E3
:10FB200012313B851882851983E412F7F71244CD10
:10FB3000EEF9124023E970047900801EEE901B85D7
:10FB4000F09080DA1228517A017B00901E88E0F94B
:10FB5000123F517404122A2E79BA7402122A2E020C
:10FB6000FA08C082C08374FE122AC7901B86E06028
:10FB700004790180497401122A9F79E11244C77403
:10FB800001122CF3E0F8900540E0687004790080E1
:10FB90002D901B867401F0851882851983E412F775
:10FBA000F71244CD7A407B0579E11244CD12F7EF8C
:10FBB0001244CD790012313B901B86E4F0F9802B82
:10FBC000E9F874FE6870047901800279000229FB6B
:10FBD000C082C0838A828B8312FC3FE0901E89F032
:10FBE0008A828B83E0901B87F080057402122A2E94
:10FBF000D083D0820229FBC082C0838A828B83E0BB
:10FC0000F8740D68600A740C687030A3A312FC3F8E
:10FC1000A3A312FFAB88828983E5824583601CE041
:10FC2000540364037015A3A3E054036403700C90A1
:10FC30001E88E0F9123DFB79018002790080B1A3B2
:10FC4000E0F8A3E0F58388822274F212243C74DC8D
:10FC5000122AC78A0A8B0B7401122CF3E4F0A3F06A
:10FC6000901B86E070138A828B83A3A3A3A3A3A314
:10FC7000A3A3A3A3E064FE6005790102FDAB7C2190
:10FC80007D0079007403122A9F123DD7780A122A48
:10FC9000517403122A97880889097808122A517426
:10FCA00007122AA77404122A9F1240177404122AFA
:10FCB0002EE9FE600302FDA978018518828519836B
:10FCC000E0540C640C70027803E50A2411F582E418
:10FCD000350BF583E0282406FA7421122CF3EAF0A0
:10FCE0007B00123E8B8A088B09EA4509700302FDEE
:10FCF000A77422122CF3EAF0A3EBF0780A122A512F
:10FD00007403122CF312FA9C7402122CF3E0F9EA39
:10FD10002402FAE43509FB12401D7402122A2EAEA9
:10FD200008AF09123279E9F50C750D007402780CF0
:10FD3000122BF2E50C44038E828F83F0A3E50DF0C5
:10FD4000E50A240BF582E4350B12FFA9740C122C82
:10FD5000F3E8F0A3E9F0740E122CF37403F0E50A53
:10FD60002417F582E4350BF583E0C0E0740F122C04
:10FD7000F3D0E0F0851882851983E0540C700C7480
:10FD800010122CF37401F0A3E480087410122CF309
:10FD9000E4F0A3F07403122A9F1244FDE9FEAA08BE
:10FDA000AB09123E9180027E10EEF97424122A2EC5
:10FDB0007F060226CD795D0229FBC082C083EAF866
:10FDC000EBF988828983A3E0FB88828983A3A3E07F
:10FDD000FA901B87E0F912374D02FBF074F51224FC
:10FDE0003C74B7122AC7EAFEEBFF8E828F83A3A36F
:10FDF000A3A3E0F50A8E828F83A3A312FFAB88082A
:10FE000089097C267D0079007403122A9F123DD750
:10FE10007403122CF3E50AF07403122AA7850882F2
:10FE2000850983E0FAA3E0F8E4C8F9EA28E439FB9D
:10FE30001231DD7404122CF37402F0E5082402F888
:10FE4000E43509F97420122CF3E8F0A3E9F0740307
:10FE5000122CF3E024FEC0E0741A122CF3D0E0F070
:10FE6000EE241CF582E43F12FFA97410122CF3E873
:10FE7000F0A3E9F0EE2413FCE43FFD7440122A9F46
:10FE8000123F937405122CF3E06403600302FFA495
:10FE9000123279E9F87406122CF3E068600302FF6D
:10FEA000A47407122CF3E070287408122CF3E0708D
:10FEB000207409122CF3E07018741B122CF3E070FC
:10FEC00010740A122CF3E07008740B122CF3E0602B
:10FED0000302FFA47429122AA77403122A9F124056
:10FEE000117429122CF3E054036403600302FFA48D
:10FEF000E0540C6404700302FFA4E0A2E550030286
:10FF0000FFA4A2E7500302FFA4901B87E0C0E074A7
:10FF10002B122CF3D0E0F0742C122CF374FEF0EEC4
:10FF2000242FF582E43FF583E0851882851983F05C
:10FF3000EE2430F582E43FF583E0C0E07401122C3A
:10FF4000F3D0E0F0EE2431F582E43FF583E0C0E049
:10FF50007402122CF3D0E0F07508007808122A55CC
:10FF6000EE2425F582E43FF5831228517808122A01
:10FF7000557406122A97880889097808122A51EEC2
:10FF8000242BF582E43FF583122855741F122CF3BD
:10FF9000E0F9744A122AA77433122A9F12306F7440
:10FFA0000A122A2E744902FA84F583E0F8A3E0F9D4
:10FFB00022C082C0839007147470F0A374B1F0A3C0
:10FFC000E0541FF0900718741DF0A37442F0A3745E
:10FFD00070F0A374B2F090071EE0541FF090072059
:10FFE000741EF0A37412F08000D083D0820229FB2B
:10FFF000C082C08312341102FFE90229FB0229FBEF
:020000040001F9
:10000000C082C083790012CF79C082C0839004D1AE
:1000100012C82DD083D082C3E09CA3E09D500DEA8E
:10002000240B12804F12802F60027901029E29EA70
:1000300075F00BA4FAA8F075F00BEBA428FB900464
:10004000D3E02AF8A3E03B8882F583E0540F22F541
:1000500082E43B12B9622274F712243C890812B080
:100060007B128395ACF075F00BE9A42CF99004D3C6
:10007000E028F8A3E039F9E8FEE9FF7401650860BB
:10008000067402650870228A828B8312854B740283
:1000900065087021EA2403FA50010B124725E97024
:1000A000148E828F83E4F0800CEA2403FCE43B127C
:1000B000854212472B8E828F83E0D2E7F012414FA8
:1000C00002AC3174F412243C12861C79008E828FAB
:1000D00083E06078890A890B8063E50A75F00BA4D8
:1000E000FAA8F075F00BE50B12803B7048E50A7535
:1000F000F00BA4F8AAF075F00BE50B12855F8E8269
:100100008F83E085088285098312A5091284C0EED9
:100110002403FCE43F1281FA12472B12AE7FE50A5A
:10012000F0A3E50B129B46D2E7F012414F79019004
:1001300004D1129419050AE50A7002050B9004D146
:1001400012C065C3E50A9AE50B9B408E029B507472
:10015000F512243CEAFEEBFF750A01740B122CF336
:1001600012CC8AEC4D6015EC12BD2F3D12862A7917
:1001700001124749E508450960758023E5084509EE
:10018000604412BD2D350912862A1281FB124725C3
:10019000E96401701BEEFAEFFB124743E9F50A85AB
:1001A00008828509831284B87902AA08AB098011F4
:1001B000128543124725E9640170347903EEFAEFA2
:1001C000FB12474980298E828F83A3E064FE70036F
:1001D000A3E0F4700B128543124725E96401700C0B
:1001E000EEFAEFFB124743E9F50A8003750A0002B5
:1001F0008CA9E50A2403FCE4350BFDE5082403FA89
:10020000E43509FB2274F712243C9004D112AFAFFD
:10021000EA4B602FEA75F00BA4FAA8F075F00BEB2F
:10022000A428FBEAFEEBFF123E8B9004D312AFAF83
:100230009004D312ADC46012EEFCEFFD7900123DC4
:10024000D780079004D3E4F0A3F002AC31C082C0A1
:1002500083EC4D6005123F9F80097C087D0079008A
:10026000123DD7029E29C082C0837900EA4B6016F6
:100270007800E8FCEA2C12B087600479017808085D
:10028000E8C3940840EC029E2974F712243C74F3EE
:10029000122AC7ECFEEDFF851882851983E4F0046D
:1002A000122CF3EAF0A3EB12C125124707740312D4
:1002B0002CF3AC82AD83EEFAEFFB12472BEEFAEF94
:1002C000FB12472502AC2C74F712243C74F3122A5B
:1002D000C7ECFEEDFF851882851983E4F0EAFCEB9C
:1002E000FD7403122CF3AA82AB8312472BAA18AB1E
:1002F000191247017401122CF312A51A8E828F83F2
:1003000012AF6B74FE68700374FF6960047901803A
:1003100002790002AC2C74F712243CEAFEEBFF12C7
:10032000473DE9F508740165087011128380F4FAFD
:1003300088828983E05A4480F012414FA90802ACB8
:100340003174F712243CEAFEEBFF7508008E828FB1
:1003500083E0602A12473DE9F50874016508701EC4
:10036000128380FA88828983E05A70128E828F838A
:10037000E04480FA88828983E04AF012414F80BCD1
:1003800012ACF3F8128395128737F8A3E039F98E8F
:10039000828F83E022A3E0F9E875F00BA4F82274C1
:1003A000F412243C8A088B097C007D00EA1281FD4E
:1003B00012472BE5081284DA7900850882850983C3
:1003C000A3E064FE7003A3E0F460787E007F008009
:1003D00065EEFAEFFB12802F6057EEFAEFFBEA753D
:1003E000F00BA4FAA8F075F00BEBA428FB9004D353
:1003F000E02AF50AA3E03BF50B8508828509831204
:10040000C064850A82850B83A3E06A7003A3E06B56
:10041000701FE50A2403FAE4350BFB124725E96453
:100420000170061281F212472B1284CF790112C992
:10043000940EEE70010F9004D112C065C3EE9AEFD6
:100440009B408E029B5074F312243C8A088B098ACD
:10045000828B831284B8EA1284DA750C00EA128166
:10046000FD124725E9640170477E007F00803C1241
:100470008729FAA3E0398A82F583E0540F602712B6
:100480008729F50AA3E039F50B1281F2123F99E9A9
:1004900064017012850A82850B831284C01284CF96
:1004A000750C0112C9940EEE70010F12874640BF01
:1004B000A90C7F050226CDA3A374FEF0A304F022AD
:1004C000A312AC1D850882850983A312A22222E50E
:1004D000081284E4EEF0A3EFF0221284E474FEF03C
:1004E000A304F022240BF582E43509F5832274F588
:1004F00012243CEAFEEBFF8E828F831284B87C00CC
:100500007D0012854312472BEEFAEFFB12473DE9BF
:10051000F50A7401650A702712AC16128553850816
:1005200082F58312854B1281FB124725E964017025
:100530000EE5082403FCE4350912854212472B021C
:100540008CA9FDEE2403FAE43FFB22A312C0731230
:10055000A22222E875F00BA4F8AAF075F00BE912BC
:10056000873DF508A3E039F5092274F212243C74A2
:10057000E6122AC712861C750A0175080075090063
:10058000750C00750D00851882851983E4F0EE2442
:1005900003FCE43FFD7403122CF3AA82AB831247E1
:1005A0002BAA18AB19124701E96401701F740B12D2
:1005B0002CF312862C7401122CF312C06D7003A35D
:1005C000E069604AA818A91988088909740D122CD5
:1005D000F312A508A312A51A740E122CF312AF6B16
:1005E000740D122A9F124707E964017009740D12F5
:1005F0002A97880C890D780C122A51AC08AD09EEA7
:10060000FAEFFB1247377402122A2EE9F50AEEFAC6
:10061000EFFB12470DA90A741A02AE91EAFEEBFF36
:1006200012AE8374FEF0A304F022F58312C053F9D6
:1006300012AE8312A22222C082C083780079008089
:100640000508E87001099004D112982EE99B502901
:10065000E8FAE9FBEA75F00BA4FAACF075F00BEBE5
:10066000A42CFB9004D3E02AFCA3E03B8C82F5830E
:10067000E0540F70CC790080027901029E2974F653
:1006800012243C7E007F008039EEF8EFF91285538A
:100690007808122A5175080B7509007808122A513A
:1006A000EEFCEFFDEC75F00BA4FC75F00BEDA42A4D
:1006B000FD7A237B00123F157404122A2E0EEE7071
:1006C000010F12874640C2028BC174F612243C7E91
:1006D000007F00804C128729F8A3E039F9888289CD
:1006E00083E0A2E75036C2E7F08582088583097867
:1006F00008122A5175080B7509007808122A51EE64
:10070000FCEFFDEC75F00BA4FC75F00BEDA42AFDDD
:100710007A237B00123F0F7404122A2E0EEE700112
:100720000F12874640AF028BC1EEF8EFF9E875F083
:100730000BA4F812873722AAF075F00BE9A42AF966
:100740009004D3E028229004D112AC1DC3EE98EFA0
:10075000992274F612243CE4F508F5097808122A67
:10076000519004D112941475F00BA4FCA8F075F00C
:100770000BEDA428FD7A237B00123F037402122A9A
:100780002EE9FE60031246D702C68974F612243C95
:1007900074FF122AC77E007F00803C85188285196D
:1007A00083E412917C122A517508017509007808BA
:1007B000122A51EEFCEFFDEC75F00BA4FCA8F075CD
:1007C000F00BEDA428FD7A237B00123F0F74041276
:1007D0002A2E0EEE70010F12874640BF7401028B65
:1007E000BEC082C083904D06E49375F01CA4FCAD9E
:1007F000F079FF7AF47B0B123DD7029E2974F71231
:10080000243CE9FCEAFD7A007B008010EB128E5755
:100810009C4008E0F8EDC39840010A0B904D06E4B7
:1008200093F8EBC39840E57B0002AC3174EC1224E2
:100830003C74F3122AC78A0C8B0D8C088D09890A27
:10084000EC45096016AA08AB0912468F8A0E8B0F79
:10085000AE0EAF0FEE4F600302892A7A0080010AC4
:10086000904D0612BFAA500F128A1F70F274F4281E
:10087000FE740B39FF80047E007F00EE4F70030290
:1008800089D3904CFF1289F060257403650A6006D5
:100890007404650A70197A0479031246BF8A0E8BB4
:1008A0000F904D06E493F8904CFF128A09502D905A
:1008B0004CFD1289F0602C7401650A6006740265B3
:1008C0000A70207A0279011246BF8A0E8B0F904D72
:1008D00006E493F8904CFD128A0940077A007B00E9
:1008E0000289EB8518828519837401F0122CF3E5D7
:1008F0000CF0A3E50DF0AC08AD097403122CF3AABB
:1009000082AB8312472BAA18AB191246F5740B124F
:100910002CF312A21B8E828F83A3A3A3A3A3A3E411
:1009200012C829AA0CAB0D12337B7800E50A6007C8
:10093000C39405500278048E828F83E50CF0A3E502
:100940000D128D1AA3A3E50AF0E88E828F83A3A36C
:10095000A3A3A312C33A5001097A027B00122255C5
:10096000129809A3129CA8129835E50A605BC394FB
:10097000035056901EC0E07018904BFA780C122B62
:10098000931297E0122C84904BFA780C122B9380E0
:1009900027F50875090074027808122BF21289FAFB
:1009A000122B9390810A7810122C66780C79101211
:1009B000234D1297E0122C84EE24131297E3122C8D
:1009C00084EE241B12C33180091297EC1284BBA35E
:1009D000F0A3F07A0479001246BF128D0B40059007
:1009E0001E38E4F012323DEEFAEFFB740D02A02F38
:1009F000E493F8740193F9E8492274FA2508F58222
:100A0000744B3509F583780C22E493FA740193FB57
:100A1000E8C39AF8E49BF9C3E50E98E50F9922EA3A
:100A2000128A25F42275F01CA4F8A9F074F828F5B0
:100A300082740B39F583E02274EE12243C74F312B5
:100A40002AC7EAFEEBFF8C108D11750800AA10ABC7
:100A50001112468FEA4B7003028B538A828B83E01C
:100A60006E7003A3E06F7003028B538A828B83A3A3
:100A7000A3A3A3E0C394054003028B538A828B8314
:100A800012C982E060728A828B83A3A3A3A3E0C30E
:100A900094035064901EC0E07021904BFA780812C5
:100AA0002B93128B5A122C84904BFA7808122B93AA
:100AB000EA2413128B5D122C848030F5087509002E
:100AC00074027808122BF21289FA122B9390810A81
:100AD0007808122C66780C790812234D129A0A12A3
:100AE0002C84EA2413129A0D122C84EA241BF5821A
:100AF000E43BF583E4F0801B7508FE7509FF750A79
:100B0000FF750BFF128B5A122C84EA2413128B5D93
:100B1000122C84750800750900750A00750B00EA2F
:100B2000240C128B5D122C84851882851983740124
:100B3000F0122CF3EEF0A3EFF0AC10AD1174031231
:100B40002CF3AA82AB8312472BAA18AB191246F5D5
:100B5000750801A908740D02C97AEA2417F582E420
:100B60003BF58378082274F612243C1246958A08D5
:100B70008B09A808A909E849601488828983A3A37E
:100B8000A3A3E06009C394055004790180027900B1
:100B9000802F74F612243C1246958A088B09A80807
:100BA000A909E849601488828983A3A3A3A3E0600C
:100BB00009C3940350047901800279008003122A4A
:100BC0002E7F020226CD74F612243C1246958A82AC
:100BD0008B83E5824583600BA3A3A3A3E070047914
:100BE000018002790080DAC082C083EAFCEBFD7AE2
:100BF000007B00029E26C082C0837C007D00029E96
:100C00002674F512243C74F3122AC7EAFEEBFF8C1B
:100C1000088D09C3EC94F8ED94FF4004EE4F606535
:100C2000750A00801974FF6508700474FF65096017
:100C30000B12CF737004A3E06509603B050A904D69
:100C400006E493F8E50AC398503BE50A128A20604F
:100C5000EBEE4F60D0128C90122CF312C121124691
:100C6000FBE960D87403122CF3AC82AD83EEFAEF8B
:100C7000FB123F99E960C5E50A75F01CA4F8A9F0DC
:100C8000128E4E80047A007B00740D122A2E801B77
:100C90008518828519837401F074F628F582740B27
:100CA00039F58312AC1D740B22A90A7F030226CDED
:100CB00074F412243C74F3122AC775080012468F8C
:100CC0008A0A8B0BAE0AAF0BEE4F60258518828522
:100CD0001983128D18128CA3122CF312C121124702
:100CE000137C1C7D0079FFEEFAEFFB123DD77508EF
:100CF000017A0479001246BF128D0B5009901E38FC
:100D00007401F012323DA908029B4B904D06E4930A
:100D1000F8C3EA98EB940022740112A50DA3A32254
:100D200074F712243CE9FE74FE6A700374FF6B7C56
:100D300000700380240C128D83501EEC128A2060F8
:100D4000F4128F1D7003A3E06B70EA800BEC128D20
:100D5000986019E0640360140C128D83501EEE60DD
:100D6000ECEC128D8D60F1C3940550ECEC75F01C29
:100D7000A4FCADF012D4E912C06580047AFE7BFFBA
:100D800002AC31904D06E493F8ECC3982275F01C48
:100D9000A4F8A9F0128A2C2275F01CA4F8A9F0126C
:100DA0008A2C640122124647029E29C082C08379A0
:100DB0000180F274F012243C8A0A8B0B7A047901C8
:100DC0001246BF8A0C8B0DEA450D6040EA2AFAEB09
:100DD00033FB123E8B8A088B09AE08AF09EE4F60D9
:100DE000267AFE7BFF12464174FE6A700374FF6B25
:100DF000601E85088285098312AFAFE5082402F5DD
:100E00000850E2050980DE750C0080047E007F003A
:100E1000850A82850B83E50CF0EEFAEFFB0290E485
:100E2000C082C0837C008009EA24FF1AEB34FFFBF8
:100E30000C128D835011EC128E57940550F2EA4B30
:100E400070E6128E4E80047A007B00029E2974F4B4
:100E500028FA740B39FB22128A25C32274F7122454
:100E60003C74F3122AC77E00807DEF75F017A4F85A
:100E7000A9F0128F0E12C065EE75F01CA4F8A9F04F
:100E8000128F1D7003A3E06B603DEF75F017A4F89F
:100E9000AAF0EAF9128F0E12A51A7401122CF3E0CF
:100EA000687003A3E069601FEF75F017A4F8EAF912
:100EB000744228FC740E39FD7403122CF3AA82AB21
:100EC00083123F99E96013EF75F017A4F8A9F07445
:100ED0004028FA740E39FB1233870F904D03E493C8
:100EE000F8EFC39840840E12D4D6501FEE12DA5495
:100EF000F47003A3E0F460EE128C90122CF312C194
:100F0000211246FBE960DF7F0080D002AC2C128FFB
:100F10001222744028F582740E39F5832212DA5FAA
:100F20006A2274F412243C74F3122AC77E008038BB
:100F30009080E27808122C66EE75F01CA4F8A9F0F7
:100F4000740728F582740C39F5837808122AF36047
:100F5000169080BA7808122C66EE75F01CA4F81270
:100F60008FEA7808122B800E12D4D6507AEE128DAA
:100F70008D60F4C3940350EF128FEA122CA0E8495D
:100F80004A4B70AC901D0FE06401702D9005D91292
:100F9000ADC46025EE75F01CA4F8A9F074F428F82F
:100FA000740B39F91290401228518882898312906B
:100FB000D512262D7404122A2E8518828519837461
:100FC00001F0EE75F01CA4F8A9F0128C99122CF324
:100FD00012C1211246FBE9608E7403122CF3AA821F
:100FE000AB8312464D8080029B4B740B28F58274B4
:100FF0000C39F5832274F612243C1246958A088B2C
:1010000009A808A909E849603288828983A3A3A3B3
:10101000A3E06023C39403501E129040122CACE84E
:101020002417F582E439F583122CD0E8241BF582CD
:10103000E439F5837401F0790180027900028BC1F3
:10104000E82413F582E439F5832274F012243CEA93
:10105000FEEBFF9005D312ADC460729005D912ADBE
:10106000C4606A9005DD12ADC4606212D3621226BC
:101070002DE97059901EC0E0700A904BFA78081262
:101080002B938028F50875090074027808122BF25A
:1010900012D544744B12D3437808122B9390810AD3
:1010A000780C122C667808790C12234D7808122AD5
:1010B000491290CF12262D7404122A2EE964017071
:1010C0000C8E828F83A3A312D35012262D80158EEF
:1010D000828F83A3A312B9649005D912D35A2274C4
:1010E0000D122A2E7F080226CD74F612243CE4F558
:1010F00008F5097808122A51904D06E493F5087412
:10110000037808122BF2129406123F037402122A7B
:101110002EE9FE740A6E6025E4F508F509780812D8
:101120002A51904D06E49375F005A4FCADF07A3F8A
:101130007B00123F037402122A2EEE600312461146
:1011400002C68974F612243C74FE122AC7851882DE
:10115000851983E4F0A312917C122A517508027557
:1011600009007808122A517C007D007A227B001247
:101170003F0F7404122A2E7402028BBEF0A818A925
:10118000198808890978082274EE12243C74DE124A
:101190002AC78A0E8B0F8C088D09750C007A227B6A
:1011A00000123F098A0A8B0B7A3F7B00123F098AA3
:1011B000108B11AE10AF11E50A450B6017E50865FD
:1011C0000A7004E509650B600BAC0AAD0B7A227B53
:1011D00000123F1B7436122CF3129419EE4F601557
:1011E000E50A6E7003E50B6F600BEEFCEFFD7A3FD6
:1011F0007B00123F1BE4F510F5117810122A51AC58
:1012000008AD097A227B00123F037402122A2EE9EC
:10121000640A70030293FCE4F508F5097808122AC1
:1012200051AC0AAD0B7A3F7B00123F037402122AC5
:101230002EE9640A70030293FC7404122A9788084A
:1012400089097808122A5175080275090078081270
:101250002A517C007D007A017B03123F1574041231
:101260002A2EE960030293FC851882851983E4F035
:10127000A3F07E000293737406122A9788088909E6
:101280007808122A517508087509007808122A5141
:101290008E0874037808122BF2E5082402FCE4356A
:1012A00009FD7A017B03123F157404122A2EE960AE
:1012B000030293FC7408122CF3E0F47003A3E0F42F
:1012C00070030293727406122A97880889097808B5
:1012D000122A517508087509007808122A517404F9
:1012E000122CF312CC8A74037808122BF212940693
:1012F000123F0F7404122A2EE960030293FC740259
:10130000122A97880889097808122A5175080575E4
:1013100009007808122A51EE75F005A4FCADF07AA8
:10132000027B03123F157404122A2EE970417402E5
:10133000122A97880889097808122A5175080575B4
:1013400009007808122A517404122CF312941475AF
:10135000F005A4FCA8F075F005EDA428FD7A3F7B0C
:1013600000123F0F7404122A2EE960030293FC124C
:1013700099220E851882851983C082C083904D06FC
:10138000E493F8D083D082C3E098A3E09400502186
:10139000851882851983C082C0837404122CF312CD
:1013A000A51AD083D082C3E098A3E099500302929B
:1013B00077A818A919880889097808122A51750888
:1013C000027509007808122A517C007D007A227B80
:1013D00000123F0F7404122A2EE97020AC0EAD0FDC
:1013E0007A017B03123F1BE970127434122CF31242
:1013F000C82D7A027B03123F1BE96003750C01A91B
:101400000C742202C97AE5082402FCE43509FD7A4D
:10141000227B002212C831EC22E0F50AA3E0F50B92
:101420002274EC12243C74FE122AC7750A00851837
:1014300082851983E4F0A3F0904D0693F50EF5082C
:1014400075090074037808122BF2E5082402F508E8
:1014500050020509E50E75F005A4F50EE5F0F50F4F
:101460007A227B00123F098A0C8B0DAE0CAF0D7AED
:101470003F7B00123F098A108B11A818A919880C0C
:10148000890D780C122A51750C02750D00780C121A
:101490002A517C007D007A227B00123F15740412D1
:1014A0002A2E7A017B03123F098A0C8B0D7A027B6C
:1014B00003123F098A128B13A812A913E50C450DDC
:1014C000700AE5086E7003E5096F7025E849700C35
:1014D000E50E65107004E50F65117015E50C450DFE
:1014E000607BEE4F604E85188285198312AFB56020
:1014F000437C017D037A227B0012340BE9F8880AD1
:10150000705B7C027D037A3F7B0012340BE9F88824
:101510000A704AEEFCEFFD7A227B00123F1BE97055
:101520000EAC10AD117A3F7B00123F1BE9601175C4
:101530000A018029AE0CAF0DE849600488108911BA
:10154000780E122A517810122A51AC08AD09EEFA21
:10155000EFFB12460B7404122A2EE9F50AA90A744D
:101560000202A02F74EC12243C74D0122AC78518F2
:1015700082851983E4F0A3F0124605E9600302971F
:10158000C8A818A919880889097808122A51750865
:10159000027509007808122A517C007D007A227BAE
:1015A00000123F157404122A2EE960030297C890B6
:1015B0004D06E493F885188285198312982EE49BD2
:1015C00050030297C8750A00750B00750800803D2E
:1015D0007403122CF3122CA01297FF122CDC74034C
:1015E000122CF3122CA012A83F122CDCEE241BF5B7
:1015F00082E43FF583E4F07A0479001246BF128D4D
:101600000B4005901E38E4F012323D05081297D5C4
:1016100040030297C812A514C3E50A98E50B994048
:10162000030297C87414122A97880C890D780C123B
:101630002A51750C08750D00780C122A5185080C7A
:101640007403780C122BF2E50C2402FCE4350DFD3A
:101650007A227B00123F157404122A2EE970AC74B2
:1016600016122CF3E0F47003A3E0F4609E050AE583
:101670000A7002050B7407122CF37401F074161231
:101680002CF312A51A7412122CF312AF6B740712FA
:101690002A9F1246FBE9700302960B12C82A7414A3
:1016A000122CF312C06512337BE50875F01CA4F808
:1016B000A9F074F428FE740B39FF7414122A978869
:1016C0000C890D750E00780C122A4D7C087D00EEF9
:1016D000FAEFFB123DCB7403122A2E12C33F5001C6
:1016E000097A027B00122255129809129835740269
:1016F000122A97880C890D780C122A51750C0575E1
:101700000D00780C122A51E50875F005A4FCADF027
:101710007A3F7B00123F157404122A2EE9600302FF
:1017200095F79080BA780C122C667403122CF3781B
:101730000C122AF360030295D0E50875F01CA4F89A
:10174000AAF0EAF9128D946071C39403506C901E54
:10175000C0E07018904BFA780C122B931297E0129D
:101760002C84904BFA780C122B938033F50C750D6A
:10177000007402780C122BF274FA250CF582744B6B
:1017800012B932780C122B9390810A7810122C66C1
:10179000780C791012234DEAF91297E0122C84EE9E
:1017A00024131297E3122C84E50875F01CA4F87436
:1017B0000F28F582740C390295F31297EC04141279
:1017C00084BBA3F0A30295F6851882851983E0F9FE
:1017D000743002A02F904D06E493F8E508C39822D8
:1017E000EE2417F582E43FF583780C221297FF74FC
:1017F000FEF0A304F0A3F0A3F012A84374FE22EEBF
:101800002417F582E43FF58322E88E828F83A3A319
:10181000A3A3A3A3A3A312ABF1740112ABF1A3740E
:10182000AAF0EE2410F582E43FF583E4F02212B929
:1018300064C3E89A22A3F012AE83E4F0EE240CF520
:1018400082E43FF583E4F0A3F0A3F0A3F02274F266
:1018500012243C74FE122AC7851882851983E4F08D
:10186000A3F07508000298EDE50875F01CA4F8A92E
:10187000F074F428F50C740B39F50DAE08780C12E1
:101880002A51750A08750B00780A122A518E0A74BB
:1018900003780A122BF2E50A2402FCE4350BFD7AE8
:1018A000227B00123F0F7404122A2EE50C2412F53D
:1018B0000AE4350DF50B780A122A51750A05750BE5
:1018C00000780A122A51EE75F005A4FCADF07A3FBB
:1018D0007B00123F0F7404122A2E850C82850D8323
:1018E000A3A3A3A3E0F4600312992205081297D5DD
:1018F0005003029868A818A919880889097808125D
:101900002A517508027509007808122A517C007D59
:10191000007A227B00123F0F7404122A2E740202F6
:10192000AE91851882851983E02401F0A3E034008C
:10193000F02274F012243C74F3122AC7EAFEEBFF83
:101940007A0279011246BFEA8E828F83F070030219
:1019500099FD75F00CA4FAABF0123E8B8A088B0946
:10196000EA45097003029A03AE08AF09750A0080C0
:101970001C9080BA122851EEFAEFFB123E4F74040D
:10198000122A2E8A0C8B0DAE0CAF0D050A904D0657
:10199000E493F8E50AC398506AE50A128D98600549
:1019A000E0640270E6128C90122CF312C1211246F0
:1019B000FBE960187403122CF3AC82AD83EEFAEFEE
:1019C000FB123F9F8A0C8B0DAE0CAF0DE50A75F034
:1019D0001CA4F8A9F0740F28F582740C12D1C1640C
:1019E00001708E128E4EEA2413129A0D122C66127A
:1019F0009A0A122AAF780C122A49029977750800C0
:101A0000750900AA08AB090290DFEA2417F582E401
:101A10003BF583780C22C082C0839004DC74F3F021
:101A2000A37430F09004DE74EDF0A37430F09004F1
:101A3000E2741BF0A3742DF0029E29C082C0839033
:101A400004E074E7F0A37430F0029E2974F71224C6
:101A50003CEAFEEBFF90054DE06408601FE0640483
:101A6000601A8E828F83E054036401704412ACEFDD
:101A7000F8A3E0F5838882E0640670358E828F8358
:101A8000A3A3E064FE7003A3E0F460258E828F833D
:101A9000A3A312C83A7003A3E0697008EE241512DC
:101AA000C82160051231B980031231BFE9F5088001
:101AB000037508C2EEFAEFFB123E9102833C74F408
:101AC00012243C8A088B098A828B83E0FAA3E0F80F
:101AD000EA28FAE43400FB123E8B8A0A8B0BAE0A2A
:101AE000AF0BEE4F605A850882850983E0FC7D00CC
:101AF0007900123DD78E828F831284B71231F58E12
:101B0000828F83A3A3A3A3EAF0A3EB129B46F8EE74
:101B100028F8E43F12862F850882850983A3E0C058
:101B2000E012C324D0E0F0123207EE240EF582E476
:101B30003FF583E912A495E0C0E012A1EDD0E0F0FA
:101B4000EEFAEFFB800A12A48DE022740D122A2E09
:101B50007F040226CD74F412243C74E8122AC78A4A
:101B6000088B098C0A8D0BE9FE90054DE06404603A
:101B700005E06408700479C2804BA37808122C84B5
:101B8000EE900554129CAD123DD7851882851983BD
:101B90007808122C847405122CF3EEF07404122CC5
:101BA000F37401F07407122CF3E4F090054D740205
:101BB000F0901D21E064027005901D0FE4F0AA185A
:101BC000AB191244E57418808474F412243C74E850
:101BD000122AC7EAFEEBFF9004D512ADC4600302DF
:101BE0009CA37A077B00123E8B9004D512AFAF9076
:101BF00004D512ADC47003029C9F8E828F83122C79
:101C0000A09004D5E0FCA3E0F5838C82122CDCEEDE
:101C10002404F50AE43FF50B850A82F583E0C0E071
:101C20009004D512B939A3A3A3D0E0F0EE2405F5B2
:101C300008E43FF509850882F583E0C0E09004D50B
:101C400012B94AD0E0129CA8E0C0E09004D512C0BE
:101C500053C82406F582E438F583D0E0129CAD1217
:101C60003DD78E828F83122CA0851882851983120E
:101C70002CDC850A82850B83E0C0E07405122CF30E
:101C8000D0E0129B46C0E07404122CF3D0E0F07454
:101C900007122CF3E412C1251244E5E9F980067914
:101CA0001080027901029BC512CE04A322F07C1899
:101CB0007D007900AA18AB1922C082C0839004D598
:101CC00012ADC460109004D512C065123E9190040C
:101CD000D5E4F0A3F012311D12332D029E2974F4C5
:101CE00012243C74E8122AC78A0A8B0BECFEEDFF23
:101CF00089087428122CF3E0FD7429122CF3E0FCFF
:101D0000740F6D7005740F6C6012901EBCE064025D
:101D10006005EDC39C500579C1029DF37424122C1B
:101D2000F3122CA090054E122CDCE508900554F01F
:101D3000ED900552F0ECA3F0742A122CF3E090051C
:101D400055F074FF650A700474FF650B7024901ED3
:101D5000D2E0F47003A3E0F4700C123DE990054B5F
:101D6000EAF0A3EB8015901ED212D1D7E8F0A3E9D8
:101D7000800990054BE50AF0A3E50BF0EE4F6017E4
:101D8000EEFAEFFB1233E1E96401700BEEFCEFFDBC
:101D90007A5F7B05123F9F90053EE4F0A3F090052B
:101DA00041F0A3F090055EF0901EBCE06402700864
:101DB000900552740FF0A3F090054D7405129CAD80
:101DC000123DD77404122CF3E4F090054E122CA0AF
:101DD000851882851983122CDC900554E0C0E074CC
:101DE00005122CF3D0E0F07407122CF3E412C12595
:101DF0001244E5029BC574F712243CE99004DBF021
:101E00007A807B00900598E0F9123F5D124689794F
:101E10000002AC31C082C0839004DBE07003124248
:101E2000DB1246898003124659D083D0820229FBF7
:101E300074F012243C9004DBE0901E37700FE060D9
:101E4000057900124113901E37E4F0804AE06401E6
:101E500060089004DBE0F9124113901E377401F022
:101E60009004DBE0F46030E0F50CE4F50DF50EF5E0
:101E70000FF09080CA7808122C66780C790812232B
:101E80004D780C122A497A807B00900598E0F9126F
:101E90003F517404122A2E7A377B1E79411244CDA9
:101EA0000290E474F712243C7CFE7DFF12467D0212
:101EB000AC3174F212243CEAFEEBFF8C088D0989E8
:101EC0000A90054DE06408706C12468F8B0DEA4550
:101ED0000D600479C5806074FE6508700474FF6548
:101EE00009701C7402550AF9122DF38A088B0974C3
:101EF000FE6508700474FF6509700479C78038E5D1
:101F00000AA2E1500CA2E350047904800E79038008
:101F10000AA2E35004790280027901EEFCEFFDAAE7
:101F200008AB091246B98B09EA45096004790080BB
:101F3000067910800279C202AE9474EC12243C74CB
:101F4000E7122AC78A0C8B0D8C0E8D0FE9FF7E00DD
:101F50007508018E098E0A8E0B90054D7401F07C78
:101F6000187D007900122A9F123DD77401122CF3BC
:101F7000780C122C847406122CF3EFF07405122CDA
:101F8000F37403F07408122CF3E4F0850C10850D43
:101F900011850E12850F1378107908122BB9E510F0
:101FA00045114512451360010E74017808122998F5
:101FB000E5084509450A450B70D1AA18AB19795AAD
:101FC0001244C7851882851983E0F508E4F509F500
:101FD0000AF50B8E0CF50DF50EF50F7808790C123D
:101FE000234D9080D6780C122C667808790C122339
:101FF0004D9080CA780C122C667808790C1223CD8B
:1020000012A20E7A007B04900598E0F9123F5D78E9
:1020100008122A497A007B04900598E0F9123F5192
:102020007404122A2E7401122A9F1244E5741912A4
:102030002A2E7F0C0226CD12466B02AC3174F712A9
:10204000243C7C0080F174F012243C74FD122AC7F9
:10205000EAFEEBFF890A8C0B12C82A1231118A089A
:102060008B09EA4509700579CA02A1E88A828B8347
:10207000A3A3A3A3A3A3A3E064FE7003A3E0F4704F
:102080000579C302A1E81231F58A0C8B0DA80CA9C1
:102090000D850882850983A3A3A3A3A3A3A3E06856
:1020A0007003A3E069700579C202A1E890054B12A4
:1020B000A51A850882850983E0687003A3E069603A
:1020C0000985088285098312A34D90054B12C065CE
:1020D00012338D850882850983A3A3A3A3A3A3A399
:1020E000A3A3A3E00490055E12A339123F9F7401DD
:1020F000122CF3740212C1251232738A0C8B0DAEAE
:102100000CAF0DEE4F700302A1DF12B31B7406F08B
:10211000A3A882A98390053812C45A12C32EF012C4
:1021200031EF12AFA6EE241312C33112ABFD74408F
:10213000F0A3E412A1F712A21B12A1EDE50BF0EE41
:10214000FAEFFB1245E1E9FE600302A1E190054DC3
:10215000740912A1F712A343900540E0650A6003D9
:10216000E50AF07A417B05794B1244CD7A4B7B0529
:1021700079501244CD7A407B0579E11244CD7A3E04
:102180007B0579531244CD12A20E901EA312C06596
:1021900012321F12A200E4F50EF50F780C122A4934
:1021A0007A017B00900598E0F9123F577404122AD7
:1021B0002E7A007B04900598E0F9123F5D12A20090
:1021C0007402780C122998780C122A497A007B0440
:1021D000900598E0F9123F517404122A2E80027E75
:1021E00010901B9DE4F0EEF974030290E1EE2411CF
:1021F000F582E43FF5832212A499A3A3A3A3A3220B
:10220000901EA3E0F508A3E085080CF50D22901EB2
:10221000A112AC1D9004D712A2222212C35912A2FD
:102220002222E8F0A3E9F02274F612243C74E512AD
:102230002AC7851882851983ECF0A3EDF0EAFEEB3E
:10224000FF890990054DE064046005E064087005AD
:1022500079C202A3347426122CF3E064FE7003A347
:10226000E0F4700579C302A3347C197D0079007411
:1022700002122A9F123DD790054D740312C1257991
:10228000501244CD7426122A9F794B1244CD8518E2
:102290008285198312A34DE509900540F07426123A
:1022A0002CF312A3437425122CF3E0F508900538A3
:1022B00012A339123F9F74CE55084480C0E0741AAF
:1022C000122CF3D0E0F0901D21E060046401700B4B
:1022D0007428122CF3E00490055EF07417122CF3AE
:1022E0007402F07426122CF312A51A740F122CF338
:1022F000E8F0A3E912A5137418122CF312AF6B7453
:102300000D122CF3E509F0740A122CF3E4F0900599
:1023100053740FF07A537B0579541244CD900552D3
:10232000740FF07A527B0579471244CD7402122A59
:102330009F1244D3741B028BBEF0EEFCEFFD7A5F5C
:102340007B052212AC1D90054112A2222212D1DB84
:1023500012A2222274F712243CEB900555F01230A1
:10236000FF02AC3174F612243C74E9122AC78A08C1
:102370008B097E008A828B83A3A3A3E0C0E074064E
:10238000122CF3D0E0F08A828B83A3A3E0C0E07428
:1023900008122CF3D0E0F07409122CF37401F08AC7
:1023A000828B8312ADC4600D8A828B8312C065124A
:1023B0004725E970357407122CF3E4F01231EF74FD
:1023C00004122CF312AFAF90054DE06404700E12AE
:1023D00031FB7402122CF3EAF0A3EB805B7402125F
:1023E0002CF374FDF0A374FF804E901D21E0600774
:1023F0006401600302A486AC18AD198508828509C2
:102400008312C065124719850882850983A3A3A397
:10241000A3E070317407122CF3740112A513740237
:10242000122CF312AF6B85088285098312A51A74EA
:1024300004122CF3E8F0A3E9F07402122A9F12327E
:102440005BE9FE804112A514740A122CF312AF6BE3
:102450007414122CF3740112A495A3E0C0E0741557
:10246000122CF3D0E0F07416122CF3E412A48D12A7
:10247000C82D740C122CF3AA82AB83123F9F740AEE
:10248000122A9F12412BEEF97417028BBEF08508B9
:10249000828509832212A4992212A48DA3A32274F7
:1024A000F712243C74F8122AC7EAFEEBFF79009079
:1024B000054DE064086005E0640470478518828576
:1024C000198374FDF0A374FFF01231EF7402122C23
:1024D000F312AFAF7405122CF312A508A3E0C0E00D
:1024E0007404122CF3D0E012A509E0C0E0740612C7
:1024F0002CF3D0E0F07407122CF3E412C125123251
:102500005BE9F9740802AC2EE412A50D22F08E826C
:102510008F8322F085188285198312AC1D2274F1F5
:1025200012243CE98C088D097C007E0024796031FE
:1025300024FC700302A5C124F3601324FC6015146D
:10254000603D14600302A62390054D02A64190054C
:102550003B02A641123375EA85088285098302A6EB
:10256000477EC11233818A0C8B0DEA450D70030240
:10257000A648750E00780C122A4D7C1702A6117E13
:10258000C9901D21E060076401600302A64878B08D
:10259000790F7A00801788828983E064FE7003A334
:1025A000E0F460010CE82407F85001090A904D1A84
:1025B000E493FBEAC39B40DEEC8508828D83F080C8
:1025C0005E7EC9901D21E060046401707B7EC17550
:1025D0000CB0750D0F7D00800C0CE50C2407F50C7C
:1025E0005002050D0D904D1AE493F8EDC398505824
:1025F000850C82850D83E064FE7003A3E0F460DA4D
:10260000ECF8EA684B70D2750E00780C122A4D7CFB
:10261000077D00AA08AB09123DCB7403122A2E7E57
:10262000008025747F29C3941E40047EC9801974DC
:102630002A29F8E43405F9E8247FF582E934FFF526
:1026400083E08508828D83F0EEF97F070226CD7442
:10265000F412243C74F9122AC78A088B098C0A8D5B
:102660000B8518828519837808122C847404122C27
:10267000F3E9F07405122CF3E4F07406122CF3E481
:1026800012C1251245CF7407029B4D74F512243CEC
:102690008A088B098A828B8312C997EE4F700302D6
:1026A000A83C9004FC12ADC460178A828B83A3A35C
:1026B000E0F9EEFAEFFB9004FDE0F5838882122644
:1026C0002D8E828F83A3A3A3A3A3A3A3A3A3E064BC
:1026D00002600302A7A68E828F83A3A3A3A3A3A352
:1026E000E05402700302A7CA850882850983A3A368
:1026F000E064E9700302A7CA850882850983A3A361
:10270000E064CD700302A7CA850882850983A3A36C
:10271000E064F0700302A7CAEE240D12ABD2602869
:10272000EE241312C82160208E828F83A3A3A3A35B
:10273000A3A3A3A3A3A312A85B123291E9701D7AED
:10274000307B011241FD8014901EC2E0048E828F06
:1027500083A3A3A3A3A3A3A3A3A3A3F08508828514
:102760000983A3A3E0701F750A0080097A367B01F4
:102770001241FD050A850882850983A3A3A3E0F819
:10278000E50AC39840E6EE240A12BFB1C0E012A8E1
:102790003FD0E012ABED7404F0901EC312C353E8B7
:1027A00012A84D123E318E828F83A3A3A3A3A3A3AD
:1027B000A3A3A3E0640260128E828F83A3A3A3A3CA
:1027C000A3A3A3A3A3E0640670728E828F83A3A346
:1027D000A3A3A3A3E0A2E05063850882850983A395
:1027E000A3E0F9EEFAEFFB1230638E828F83A3A38E
:1027F000A3A3A3A3E054FE12A85B123291E98508BB
:1028000082850983A3A3702AE070237A2F7B0112AB
:1028100041FD7E00850882850983A3A3A3E0F8EE2D
:10282000C39850187A367B011241FD0E80E67A314A
:102830008005E070077A2D7B011241FD028CAB12FE
:10284000A84322EE2413F582E43FF58322F0A3E9A6
