:020000040000FA
:100000000212FF022003FFFFFFFFFF02200BFFFF92
:10001000FFFFFF020E61FFFFFFFFFF02201BFFFF3C
:10002000FFFFFF022023FFFFFFFFFF02202BFFFF48
:10003000FFFFFF022033FFFFFFFFFF020EA4FFFFC1
:10004000FFFFFF022043FFFFFFFFFF02204BFFFFE8
:10005000FFFFFF022053FFFFFFFFFF02205BFFFFB8
:10006000FFFFFF022063FFFFFFFFFF02206BFFFF88
:10007000FFFFFF022073FFFFFFFFFF02207BFFFF58
:10008000FFFFFF022083FFFFFFFFFF02208BFFFF28
:10009000FFFF70DFFFFF040000000002000000C847
:1000A0000300030369A5020269A501000000000026
:1000B00004003273000074F8121046900393E0605D
:1000C0001590030274FEF0900304744DF0A37405C0
:1000D000F07A011206857F0102116374F71210464F
:1000E00074FF12126B7E00801F851882851983E0D1
:1000F00064FE70069003877401F085188285198369
:10010000E0F8900384E068F07C017D00AA18AB1948
:10011000120E1C8B09EA450970030201F38518824F
:10012000851983E064EF70027E07E0C0E0900387EA
:10013000E0FA900385E0F8EA28F8E43400F9740264
:1001400028F582740339F583D0E0F0900387E060EE
:100150009814600E14602C14603C14605214606893
:100160008098900384E4F0851882851983E09003D9
:1001700086F0C394809003874004E40200F974027F
:100180000200F9851882851983E0900382F09003BC
:100190008774030200F9851882851983E090038330
:1001A000F0900386E0601990038774040200F990D0
:1001B0000385E004F0F8900386E06860030200FA2B
:1001C00090038774050200F9900385E4F09003879B
:1001D000F0900384E0F8851882851983E068600355
:1001E0000200FA900382E0644D60030200FA1203F9
:1001F000288002EEF974011212377F020211637433
:10020000F712104674FB12126BEAFEEBFF7508043E
:1002100075090078081212CF74021212E87A907BE6
:10022000007904120EC574021212371206771213E7
:1002300039E0687003A3E06970128518828519831C
:10024000E0F47003A3E0F4600302030874041212E4
:10025000E01206DD8A088B09A808A90974021213A6
:1002600039E8F0A3E9F07404121339E06008790169
:100270001200B6020321851882851983E068700395
:10028000A3E0697076851882851983E0F47003A372
:10029000E0F4701974021213397410F0A37420F092
:1002A0008518828519837410F0A37420F0750801F5
:1002B00075090078081212CF74021212E87A247BB2
:1002C00008120F49740212123775080478081212C6
:1002D000CF74021212E87A907B007904120EC57472
:1002E00002121237120677121339E0687003A3E086
:1002F000697004790280067904800279031200B6DD
:100300008E828F83741E80058E828F83E4F01206A6
:1003100077121339E0687003A3E0697004790180F3
:1003200002790074050201F774ED12104674F81298
:10033000126B900307E0FD900306E0FCFAEDF8E491
:10034000C8F9EA28FEE93408FF751001750B00753D
:100350000A068E088F0974027808121296C395084F
:10036000F8E49509F9740228F50E740339F50F8E37
:10037000088F09740978081212F0E508F511EE24C7
:1003800010F508E43FF509EEF50CEF5401F50D907A
:100390000383E014605914700302046414700302B0
:1003A00004DF14601024FE700302059A1470030227
:1003B000064A02065A750A03794E120C5B9003072F
:1003C00012066D7402F0A3744012066B74081206D4
:1003D0006BF0A3F07418C3940704F510AA10A90BCE
:1003E000120685A90A74081212377F0C0211637570
:1003F0000A04794E120C5BEE450D7005A911120F1F
:10040000AFC3EE9425EF9408503CC3E5089424E56F
:100410000994084031E50E2496F8E50F3420F98858
:10042000828983E0701BA3AA82AB83E070139003E0
:10043000887401F08882898374A5F08A828B838016
:1004400004900388E4F0750810750900780812120A
:10045000CF7C087D03EEFAEFFB120F4974021212F3
:10046000370203DC750A05E511C394794006750B64
:10047000010203DC75124075130078121212CF7C52
:10048000097D037402780C121296AA0CAB0DA91107
:10049000120EC57402121237900307E0A3F0900306
:1004A00006E0A3F0751043C3EE9425EF94084003D3
:1004B0000203DCC3E5089424E50994085003020311
:1004C000DC900388E070030203DCE50E2497F8E576
:1004D0000F3420F988828983E4F0A3F00203DC75ED
:1004E000080475090078081212CF74021212E87A13
:1004F000907B007904120EC5740212123774021236
:100500001339E0F8A3E0F9851882851983E0687053
:1005100003A3E069851882851983700BE0F47003EA
:10052000A3E0F470578009E0F47003A3E0F4700DC9
:100530008518828519837410F0A37420F012067751
:10054000121339E8F0A3E9F075080178081212CF08
:1005500074021212E87A247B08120F4974021212F4
:100560003775080478081212CF74021212E87A90D4
:100570007B007904120EC57402121237120677122C
:100580001339E0687003A3E0697006750A0102037D
:10059000DC750A02750B070203DC900391E060072B
:1005A000640260030203DCEDFF7A01790012068524
:1005B000E0600302063E8003120D1C120D26E97056
:1005C000F7740412133912065F7404121339780891
:1005D00012131D85080C85090D850A0E850B0F90D9
:1005E00005A2780C1212BC7404121339780C121381
:1005F0000EE5084509450A450B70CE8EC2E5C55487
:10060000E04FF5C5740412133912065F7404121317
:1006100039780812131D85080C85090D850A0E8589
:100620000B0F9005A2780C1212BC740412133978C7
:100630000C12130EE5084509450A450B70CE7A01E8
:10064000790012068579080203E5EC900393F070B7
:10065000030203DC750A090203DC79060203E5E400
:10066000F0A37426F0A3E4F0A3F022F0A3E4F0A337
:10067000F0A3F0A3F0A322851882851983E0F8A3E4
:10068000E0F974022274F8121046EAFE900305E0C5
:10069000D2E7F0E9A3F0EE900303F08E0874042A89
:1006A000FE7C028004E062080CECFA3395E0FB74F7
:1006B000022AF58274033BF583EEF8C3EA98EB94C3
:1006C00000A2D265D03340DDE508F074012A0C3376
:1006D00095E0FD7A027B03120E4C0200D674E912FB
:1006E00010467582007583FE1211FE8A168B1775EF
:1006F00014007515008A828B83E4F0900391E070FA
:1007000006D2AAD2AF80046402700579001200B646
:10071000750C00750D20750E00750F00900391E0AB
:10072000600464027015120D1C1200DBE9F87409F4
:1007300068600302080D79001200B675080075099B
:100740000278081212CF74021212E8850C08850D87
:1007500009AA08E5095407FB850E0A850F0B740BDF
:100760007808121252A908120EC574021212377EAE
:10077000007F009005AAC0828E10EFF5113395E03E
:10078000F512F513850C08850D09850E0A850F0BEA
:10079000780879101212A99005A678081212BC7573
:1007A0008305D08278081211DF501D8518828519C3
:1007B00083E5822EF582E5833FF583E0F9AA14AB49
:1007C0001512083C8A148B150EEE70010FC3EF94BE
:1007D0000240A09005AE780C1212BC9005B2780CC5
:1007E0001211DF400302071C7900AA14AB1512088E
:1007F0003C790012083C8B15900391E07004C2AF65
:10080000C2AAEA451570277AA57BA58021E8700366
:1008100002073B740668700302073B7407687003A5
:1008200002073B8516828517837401F080BA7582B2
:10083000007583021211FE7F10021163C008C00907
:100840007C088A088B09740F78081212F0E508F802
:10085000EA25E0FAEB33FBE9A2E7500474014AFA17
:10086000E8A2E0500874216AFA74106BFBE9C33304
:10087000F91CEC70CDD009D0082274F8121046781B
:10088000007900802274942EF582E43403F583E02D
:100890008A828B83F09004141209FA4005900414A4
:1008A000E4F008E8700109900414E0FEA3E06E6033
:1008B00007C3E89CE99D40CDE8FAE9FB7F010211FE
:1008C0006374F7121046900498E0F509A3E0F50868
:1008D000F8E509C398F895E0F9E508C39509E850EB
:1008E0000B120ADC701178007900801B247F500104
:1008F00009C39CE99D50EF7A007B008041E004F041
:10090000D2E908E8700109C3E89CE99D502C8A826D
:100910008B83E0C0E0900499E0FE74182EF582E429
:100920003404F583D0E0120ACC90049AE4F09004E9
:1009300099E0C3947F40C6E480C5E8FAE9FB7F02F2
:10094000021163C082C083C2E9900498E0F8A3E07A
:10095000686017741828F582E43404F583E0F5C163
:10096000900498120AF34002E4F0020D3A74F8126F
:1009700010467800790090051DE07055A3E0705195
:1009800075F900C28FC284A28340FCA28F4004A2EA
:100990008350F8AEF9C28FA2835004D2848032EE25
:1009A000C0E0E0FE1209EFD0E0F090051E120AF35D
:1009B00040D9E4F080D51209EFE08A828B83F09071
:1009C000051D1209FA400590051DE4F008E87001C4
:1009D0000990051DE0FEA3E06E6007C3E89CE99D59
:1009E00040D4E8497006E4F090051DF00208B874A0
:1009F0009D2EF582E43404F58322E004120AD0C36C
:100A000094802274F81210469005A0E0FEF890053C
:100A10009FE0FFEEC39FE0500DC398F895E0F912F8
:100A20000ADB70188012C398F895E0F9E8247F502B
:100A30000109C39CE99D4004EC4D70077A007B00DE
:100A4000020AC98A828B83E0F5F9A3AA82AB837874
:100A50000179008008E004F008E8700109C3E89C0F
:100A6000E99D50278A828B83E0C0E09005A0E0FEDC
:100A7000741F2EF582E43405F583D0E0120ACC9081
:100A800005A0E0C3947F40CDE480CCC28FA2834018
:100A9000FCC284A28F4004A28350F890059F120AE2
:100AA000E6E0F5F9C28F90059FE0FAA3E06A9005B1
:100AB0009F7005120AE68005120AF34002E4F0A2D4
:100AC0008350D0D284E8FAE9FB0208BC120AD02293
:100AD000F08A828B83A3AA82AB8322E824FF18E9E1
:100AE00034FFF9E84922E0FA741F2AF582E434055C
:100AF000F58322E004F0C394802274FB12126B7E13
:100B0000009005CA780812131D9005CA7401F0A35D
:100B1000F0A37469F0A374A5F09005B678081212DA
:100B20008170047E0180159005BA780812128160E8
:100B300008E59D541864107003022000120C81EE29
:100B4000A2E05003020BFEAA18AB191201FFE970D4
:100B500003020BFE851882851983E0C3943C500C78
:100B6000E0F8743CC398FA95E0FB80047A007B00BF
:100B7000120D3FE97003020BFE900391E0640170D7
:100B80000C75F800C2AB539AF7D2EA805E7907126F
:100B900000B68003120D1C120D26E970F7740112C5
:100BA0001339E4F0A37426F0A3E4F0A3F074011267
:100BB0001339780812131D85080C85090D850A0E56
:100BC000850B0F9005A2780C1212BC740112133918
:100BD000780C12130EE5084509450A450B70CE75D1
:100BE0008600C2AAC28B539AFBC2E990000174CD61
:100BF000F0022000C2AF75C9AB75C95B80FE7508F5
:100C000000750900750A00750B00900391E0701BD8
:100C1000D2AAD2AF79051200B6E07003120D1C12F1
:100C200000DBE9F8740968700980E9794E120C5B01
:100C300080ED74016870E2E07017120D1C9005BE23
:100C400078081212BC9005C278081211DF50EBC26E
:100C5000AAC2AF75C9AB75C95B80FEC082C083787C
:100C6000109005A1E0C399501575B60FE5B4A2E741
:100C700050FAE5BBC39940F118E870EDE9F0020DB8
:100C80003AC082C08353BEFBE59DA2E650FA0078CD
:100C9000F8790100120ADB70FA75C6807480659ECF
:100CA00070FA43BE049062707408F0794A120C5BCB
:100CB00090000174F5F07403F5D575D489A2A0E411
:100CC00033900391F0A2E05029D28453F3F753F309
:100CD000EF53FDF743FD10538FF753F7DF43FC202D
:100CE00043F10253F5DF75F82043F4F0D2FED2ABA6
:100CF000802853FF3F85FFFF53F1FE43F30C53F26F
:100D0000F375868075C48090049BE4F0A3F075C2EF
:100D1000D875C50B75C402438640801E8003120936
:100D200043A2E940F922C082C083900498E0F8A36E
:100D3000E0686004790180027900D083D082227457
:100D4000F112104674FF12126B7E00900391E06462
:100D500001706CC2849003927401F07508388E099A
:100D60008E0A8E0B7C017D00AA18AB19120E1C8B0B
:100D70000DEA450D6018851882851983E0641060BE
:100D80002DE064EF70088E088E098E0A8E0B8508A0
:100D90000C85090D850A0E850B0F9005A2780812A7
:100DA00012BCE50C450D450E450F70347E019003D5
:100DB00091E064017056D284900392E4F08051D2A5
:100DC000AAD2AF8A088B09E4F50AF50B9005C6781C
:100DD0000C12131D7808790C120FC679061200B692
:100DE000900391E06003020D64120D1C1200DBE918
:100DF000F8740968700779061200B6809174076864
:100E00006084E8608974066870A48082C2AFC2AA58
:100E1000EEF974011212377F08021163C082C08399
:100E2000900391E0700512087A801E900392E060B2
:100E300015A28F500BE5F98A828B83F07A0180022C
:100E40007A007B00800312096D020D3AC082C083D4
:100E5000900391E070051208C18003120A03020D8D
:100E60003AC0E074F21210AC900001E064CD70055D
:100E7000122013802AE064F57024E5C1C28BC0E023
:100E8000900415E0F8749428F582E43403F583D0D7
:100E9000E0F0900415120AF34005E4F08001007FB1
:100EA0000102110BC0E074F21210AC900001E0647A
:100EB000CD700512203B800BE064F57005120943EC
:100EC00080010080DA74F6121046890A740F550A00
:100ED000F508750900740B7808121296EA2400F8D8
:100EE000EB3480F9E82400E93509F985C709A2AF98
:100EF000E433F508C2AFE50AC4540FFAE5C754F865
:100F00004AF5C7740A121339E0FAA3E0FB801C8883
:100F1000828983E08C828D83F088828983A3A88272
:100F2000A9838C828D83A3AC82AD83EAFEEBFFEEB6
:100F300024FF1AEF34FFFBEE4F70D48509C7E50894
:100F4000A2E092AF7F0302116374F7121046ED9096
:100F50000389F0ECA3F0A37462F0A37473F0A3E030
:100F6000541FF07409121339E0F508A3E0F509E500
:100F700008333354FC90038EF0740678081212F094
:100F8000E50890038DF090038F7412F0A37442F083
:100F900075D1FE75D601EA906271F0EBA3F0906214
:100FA00070E0D2E1F0E0A2E740FB7F02021163C0F3
:100FB00082C083E9C333906272F0906270E0D2E045
:100FC000F0D083D08222080808EAC0E0EBC0E086B7
:100FD000F0E7A4FA180986F0E7A42AFA180986F0BF
:100FE000E7A42AFA180986F0E7A42AFA1986F0E796
:100FF000A4FBE5F02AFA190886F0E7A42BFBE5F03C
:101000003AFA190886F0E7A42BFBE5F03AFA18182B
:101010000986F0E7A4C5F02BFBE43AFA1908E7C506
:10102000F0C6A426F6E5F03BFBE43AFA1886F0E7B2
:10103000A4F6E5F00826F6E43B08F6E43A08F6D014
:10104000E0FBD0E0FA222518C582C0E0E51934FFA4
:10105000C583C0E0E518C3958224F910AF088583E5
:10106000198582188008858319858218D2AFCEF041
:10107000A3E520F0A37808E608F0A3DEFAEFF0A3DA
:10108000E58124FBF8E608F0A3E608F0A30808E6EB
:1010900008F0A3E608F0A315811581D0E0FED0E0AA
:1010A000F815811581E8C0E0EEC0E022C0D0251817
:1010B000C582C0E0E51934FFC583C0E0E518C395DB
:1010C0008224F310AF0885831985821880088583F0
:1010D00019858218D2AFC8F0A3E9F0A3EAF0A3EB18
:1010E000F0A37908E709F0A3D8FAECF0A3EDF0A398
:1010F000EEF0A3EFF0A3D0E0F0A3D0E0F0A3D0E0B7
:10110000F0A3E520F0A3E5F0F0A32285198385186C
:1011100082E0C0E0A3E0F9A3E0FAA3E0FBA3780833
:10112000E0F608A3DFFAE0FCA3E0FDA3E0FEA3E005
:10113000FFA3E0C0E0A3E0C0E0A3E0F5D0A3E0F5AA
:1011400020A3E0A3F5F010AF0885831985821880ED
:1011500008858319858218D2AFD082D083D0E0F879
:10116000D0E032851983851882E0A3FEE0A3F52044
:101170007808E0A3F608DFFAE0A3FFE0A3C0E0E010
:10118000A3C0E0E0A3C0E0E0A3C0E010AF08858208
:10119000188583198008858218858319D2AFD0837A
:1011A000D08222E490030278A179038002F0A3D8D0
:1011B000FCD9FA7AA27B0590008E782979018015F6
:1011C000E493A3AD82AE838A828B83F0A3AA82AB21
:1011D000838D828E83D8E9D9E7120AFA121343C0AD
:1011E00008C3E096F50808A3E096420808A3E09635
:1011F000420808A3E09645087001D3D00822C582B2
:101200002518C582C583351910AF07F519858218D1
:101210008007F519858218D2AFC583222518F5827B
:1012200010AF08F518400C15198008F51840021584
:1012300019D2AF8519832200C0D0251810AF08F548
:1012400018500C05198008F51850020519D2AFD0B6
:10125000D0226016080808C6C313C618C613C618DD
:10126000C613C618C613C6D5E0EA22251810AF0863
:10127000F518400C15198008F51840021519D2AF61
:1012800022E066701008A3E066700A08A3E06670AA
:101290000408A3E06622700422600D18C6C333C69A
:1012A00008C633C6D5E0F41822E627F60809E63763
:1012B000F60809E637F60809E637F622E026F608CA
:1012C000A3E036F608A3E036F608A3E036F622746B
:1012D000028000C0E0F40412121CD0E012132C2291
:1012E0002518FAE43519FB222518FCE43519FD22EE
:1012F000600C08C6C313C618C613C6D5E0F4227521
:10130000D00075813F7518027519030211A3E6F02C
:1013100008A3E6F008A3E6F008A3E6F022E0F6084A
:10132000A3E0F608A3E0F608A3E0F622CAC0E0E6D0
:10133000F0A308DAFAD0E0FA222518F582E435198C
:10134000F5832200000080FBFFFFFFFFFFFFFFFF90
:10135000FFFFFFFFFFFFFFFFFFFFFFFFFFFFFFFF9D
:10136000FFFFFFFFFFFFFFFFFFFFFFFFFFFFFFFF8D
:10137000FFFFFFFFFFFFFFFFFFFFFFFFFFFFFFFF7D
:10138000FFFFFFFFFFFFFFFFFFFFFFFFFFFFFFFF6D
:0A1FF600CA05094338860000000008
:020000040003F7
:01FFF000F020
:020000040000FA
:10200000022C6A0221FBFFFFFFFFFFFFFFFFFFFF24
:10201000FFFFFFFFFFFFFFFFFFFFFFFFFFFFFFFFD0
:10202000FFFFFFFFFFFFFFFFFFFFFF022904FFFF8E
:10203000FFFFFFFFFFFFFFFFFFFFFFFFFFFFFFFFB0
:10204000FFFFFF022759FFFFFFFFFFFFFFFFFFFF1B
:10205000FFFFFF022135FFFFFFFFFFFFFFFFFFFF35
:10206000FFFFFFFFFFFFFFFFFFFFFF02292DFFFF25
:10207000FFFFFFFFFFFFFFFFFFFFFFFFFFFFFFFF70
:10208000FFFFFF02218C01FFFFFFFFFFFFFFFFFFAC
:1020900010201020010105030101FF0F10FEFFE0D9
:1020A0004B00000000164B00000000FF000000FF86
:1020B000000196511800020000673D000000000179
:1020C0003DE53D373DAF3D00002B3D0000000000E9
:1020D0000000000000000000000000000000000000
:1020E00000000006FFFFFF01010400C01B0000000C
:1020F000E8030000FFFF8F1CE80300006400640099
:10210000B801A0BB0D00A0BB0D000202000800003A
:102110000502070101051E02051E020A0A01080840
:1021200003B80B02803E0102FEFFE8030A0500012E
:10213000FFFF0A01E0C0E074F2122577A2AFE4339A
:10214000F508D2AFAFA7AEA1EE5F54106006123A09
:102150008575A1EFEE5F54086008123A8B75A1F700
:102160008023EEA2E092F0EFA2E082F0501790619F
:1021700098E0F8900B51E0C398A2D265D03350029A
:10218000E8F075A1FE751A00E5088066C0E074F2FB
:10219000122577A2AFE433FED2AF9061A4E0F875C8
:1021A0009B00E59158540860087591F7123AD38066
:1021B00023E59158541060087591EF123AD98014B4
:1021C000E591A2E092F0E8A2E082F05007E0C2E0E0
:1021D000F0123C2F9061A3E0F8E5E9585404600E3A
:1021E000123C0575E9FB906193E0A2E640F2751A96
:1021F00000EEA2E092AF7F010225D6C0E074F21299
:102200002577A2AFE433FED2AF9061A5E0F8E5BF39
:10221000585404600675BFFB123C4780D1C3E49854
:10222000F8E499F912225E8026C3E49AFAE49BFB53
:10223000E920E7E912225EE498F8E499F922C3E480
:1022400098F8E499F912225EE498F8E499F9C3E465
:102250009AFAE49BFB22EB20E7CFE920E7E0B90004
:1022600010BB0008E88AF084F8AAF022E4FBC8FA60
:1022700022EB70227B10C833C8C933C9335007C35F
:102280009AC3DBF280069A50012ADBEAC833F4C80D
:10229000C933F4C9FA2275F008E4C833C8C933C990
:1022A00033C99AC99B5004C92AC93BD5F0ECFBC875
:1022B00033F4C8E4C9FA2274F512251174FA122A0B
:1022C000C77508047509007808122A517404122A87
:1022D000A77AF87B07790312395F7402122A2E90CD
:1022E00080F27808122C7A7402122D077808122ACC
:1022F000F370497508027509007808122A517402B2
:10230000122AA77AF67B07790312395F7402122A20
:102310002E851882851983E0F47003A3E0F4601C15
:10232000851882851983E0F8A3E0F988828983748F
:1023300002F0A3F0A37469F0A374A5F0C2AF75D640
:102340009F0200007406122A2E7F0402279C0808B0
:1023500008EAC0E0EBC0E086F0E7A4FA180986F0CE
:10236000E7A42AFA180986F0E7A42AFA180986F0E1
:10237000E7A42AFA1986F0E7A4FBE5F02AFA19087F
:1023800086F0E7A42BFBE5F03AFA190886F0E7A4FB
:102390002BFBE5F03AFA18180986F0E7A4C5F02BF4
:1023A000FBE43AFA1908E7C5F0C6A426F6E5F03BC7
:1023B000FBE43AFA1886F0E7A4F6E5F00826F6E41E
:1023C0003B08F6E43A08F6D0E0FBD0E0FA22E4CF8E
:1023D000C0E0E4CEC0E0E4CDC0E0E4CCC0E075F005
:1023E00020E626F608E633F608E633F608E633F686
:1023F000181818EC33FCED33FDEE33FEEF33FFC35A
:10240000EC9709ED9709EE9709EF97191919400F05
:10241000FFEC97FC09ED97FD09EE97FE191906D51B
:10242000F0BFECF709EDF709EEF709EFF719191905
:10243000D0E0FCD0E0FDD0E0FED0E0FF222518C5C2
:1024400082C0E0E51934FFC583C0E0E518C395827A
:1024500024F810AF088583198582188008858319B0
:10246000858218D2AFCEF0A3E520F0A37808E60865
:10247000F0A3DEFAEFF0A3E58124FAF8E608F0A372
:10248000E608F0A3E608F0A30808E608F0A3E608CB
:10249000F0A315811581D0E0FED0E0F815811581FB
:1024A0001581E8C0E0EEC0E022122CFCB900030266
:1024B00024FBE49004D17875791A8002F0A3D8FC4B
:1024C000D9FA781A9020867A01BA00028007E4933C
:1024D000A3F608DAF97A457B1E90209478A2790158
:1024E0008015E493A3AD82AE838A828B83F0A3AA86
:1024F00082AB838D828E83D8E9D9E775824D75834F
:102500009B74061229F5758213758349740012298C
:10251000F52518C582C0E0E51934FFC583C0E0E5A4
:1025200018C3958224F910AF088583198582188015
:1025300008858319858218D2AFCEF0A3E520F0A3D9
:102540007808E608F0A3DEFAEFF0A3E58124FBF8B3
:10255000E608F0A3E608F0A30808E608F0A3E608FA
:10256000F0A315811581D0E0FED0E0F8158115812A
:10257000E8C0E0EEC0E022C0D02518C582C0E0E58A
:102580001934FFC583C0E0E518C3958224F310AF6A
:10259000088583198582188008858319858218D259
:1025A000AFC8F0A3E9F0A3EAF0A3EBF0A37908E742
:1025B00009F0A3D8FAECF0A3EDF0A3EEF0A3EFF04E
:1025C000A3D0E0F0A3D0E0F0A3D0E0F0A3E520F0AA
:1025D000A3E5F0F0A322851983851882E0C0E0A36B
:1025E000E0F9A3E0FAA3E0FBA37808E0F608A3DF94
:1025F000FAE0FCA3E0FDA3E0FEA3E0FFA3E0C0E05F
:10260000A3E0C0E0A3E0F5D0A3E0F520A3E0A3F5AC
:10261000F010AF0885831985821880088583198595
:102620008218D2AFD082D083D0E0F8D0E032E47309
:1026300075F0108E218F228582268583258518824C
:10264000851983E0CEA3E0CF852682852583EBC95B
:10265000EAC8EDCBECCAC3E833C8E933C9EA33CAE8
:10266000EB33CBC3EA9EF524EB9FF523B35004ABC9
:1026700023AA24EC33CCED33CDD5F0DAAE21AF2252
:1026800022D083D082ECC0E0EDC0E0E493A3FCE470
:1026900093A3FDED4C600D1227DCEC24FFFCED3420
:1026A000FFFD80EFE493A3FCE493A3FDED4C600DEC
:1026B0001228AFEC24FFFCED34FFFD80EFD0E0FDED
:1026C000D0E0FCE493A3C0E0E493C0E0228519834A
:1026D000851882E0A3FEE0A3F5207808E0A3F608C1
:1026E000DFFAE0A3FFE0A3C0E0E0A3C0E0E0A3C006
:1026F000E0E0A3C0E0E0A3C0E010AF088582188549
:1027000083198008858218858319D2AFD083D0823F
:102710000229FBD083D082E9C0E0E493A3C386F012
:10272000C5F095F0F908E493A386F0C5F095F07034
:102730000BE493A3C3994005E9048002A3E475F078
:1027400002A42582F582E5F03583F583D0E0F9E433
:1027500093A3C0E0E493C0E022C0E074F2122577B6
:10276000A2AFE433FED2AFC2C0901D3DE0700BE5D6
:10277000D1A2E4501D1239E38018E5D1A2E350063E
:1027800075D1F71239B9E5D1A2E4500675D1EF122F
:1027900039BFEEA2E092AF7F010225D6851983856D
:1027A0001882E0A3FEE0A3F5207808E0A3F608DF96
:1027B000FAE0A3FFE0A3C0E0E0A3C0E0E0A3C0E034
:1027C000E0A3C0E010AF08858218858319800885D2
:1027D0008218858319D2AFD083D08222C0E0C3E4AF
:1027E0009396087401939618400FE4936670080856
:1027F000740193661870007019A3A3C3E49396083C
:102800007401939618A3A3400DD0E0D0E0D0E0026D
:1028100026BDA3A3A3A3A3A3D0E022D083D082C5C7
:10282000F0E493A3C5F0C395F0F5F0E493A3C3954A
:10283000F04005E5F0048001E475F002A42582F57E
:1028400082E5F03583F583E493A3C0E0E493C0E030
:10285000227404800474028000CCC0E0EDC0E0E586
:1028600018C39CCCAD1950011D10AF068C188D19E2
:1028700080068C188D19D2AF122977D0E0FDD0E0F8
:10288000FC2274028000CCC0E0EDC0E0E518C39CDF
:10289000CCAD1950011D10AF068C188D1980068C17
:1028A000188D19D2AF122955D0E0FDD0E0FC22C01E
:1028B000E0C0F088F0E4936670080874019366182D
:1028C0007000A8F0A3A3700BD0F0D0E0D0E0D0E06F
:1028D0000226BDA3A3D0F0D0E022D083D082CCC00A
:1028E000E0E493A360061229D61470FAE493A3607F
:1028F00006122ADD1470FAD0E0FCE493A3C0E0E4F1
:1029000093C0E022C0E0C0D0E8C0E0E9C0E0A9A8E0
:10291000D2AFC2C7751A00E9A2E7E433F8E9A2E72B
:1029200092AFD0E0F9D0E0F8D0D0D0E032C0E0747F
:10293000F2122577758900C2C5901D3DE0700E7AB0
:10294000007B10900BE7E0F9123F178003124769F4
:102950007F010225D6CAC0E0E493A3C582CCC5821C
:10296000C583CDC583F0A3C582CCC582C583CDC543
:1029700083DAE5D0E0CA22CAC0E0E0A3C582CCC5B4
:1029800082C583CDC583F0A3C582CCC582C583CD66
:10299000C583DAE6D0E0CA2270090808082260166A
:1029A000181818C6C333C608C633C608C633C608C7
:1029B000C633C6D5E0EA22C008C3E096F50808A3EE
:1029C000E096420808A3E096420808A3E09645086E
:1029D0007001D3D00822C0E0E493A3D39C5010E44C
:1029E00093A3C39C400AD0E0D0E0D0E00228F7A334
:1029F000A3A3D0E022C09FF59FE473D09F22D08391
:102A0000D082C09FE493C0E0740193C0E07402934D
:102A1000F59F222518F58210AF08F518400C1519FE
:102A20008008F51840021519D2AF8519832200C01D
:102A3000D0251810AF08F518500C05198008F518A6
:102A400050020519D2AFD0D0227404800A740380DA
:102A500006740280027401C0E0F404122A13D0E06C
:102A6000122CA722BB0102E722C082C08389828A7E
:102A700083BB0003E08002E493D083D082226016FF
:102A8000080808C6C313C618C613C618C613C61846
:102A9000C613C6D5E0EA222518F8E43519F922252F
:102AA00018FAE43519FB222518FCE43519FD22C378
:102AB000E0C696F608A3E0C696F608A3E0C696F62A
:102AC00008A3E0C696F622251810AF08F518400CAA
:102AD00015198008F51840021519D2AF22C0E0E49C
:102AE00093A36C7009D0E0D0E0D0E00228F7A3A354
:102AF000D0E022E066701008A3E066700A08A3E048
:102B000066700408A3E06622E76670100809E766AD
:102B1000700A0809E76670040809E76622C3E096B0
:102B200008A3E09608A3E09608A3E096A2D265D099
:102B30003322C3E096F008A3E096F008A3E096F0F5
:102B400008A3E096F022C3E697F60809E697F60890
:102B500009E697F60809E697F622C3E49396087407
:102B60000193960874029396087403939622E627BD
:102B7000F60809E637F60809E637F60809E637F6F3
:102B800022E026F608A3E036F608A3E036F608A30E
:102B9000E036F622E493F608740193F60874029383
:102BA000F608740393F622E647F60809E647F608A6
:102BB00009E647F60809E647F622E657F60809E669
:102BC00057F60809E657F60809E657F622E056F6E2
:102BD00008A3E056F608A3E056F608A3E056F6224E
:102BE000E056F008A3E056F008A3E056F008A3E092
:102BF00056F022E026F008A3E036F008A3E036F015
:102C000008A3E036F022700422600D18C6C333C654
:102C100008C633C6D5E0F41822E4C396F608E49655
:102C2000F608E496F608E496F622C6F4C608C6F45A
:102C3000C608C6F4C608C6F4C622600D08C6A2E7D8
:102C400013C618C613C6D5E0F322C3E7960809E7F2
:102C5000960809E7960809E79622C3E09608A3E0DC
:102C60009608A3E09608A3E0962275D00075813FF0
:102C70007518D1751904000224A9E0F608A3E0F63E
:102C800008A3E0F608A3E0F622600C08C6C313C64A
:102C900018C613C6D5E0F422E6F008A3E6F008A3B0
:102CA000E6F008A3E6F022CAC0E0E6F0A308DAFAEC
:102CB000D0E0FA22E0F8A3E0F9A3E0FAA3E0FB22D7
:102CC000E0FCA3E0FDA3E0FEA3E0FF22EAF0A3EB1B
:102CD000F0A3ECF0A3EDF022E0FAA3E0FBA3E0FC0C
:102CE000A3E0FD22ECF0A3EDF0A3EEF0A3EFF022C1
:102CF000E8F0A3E9F0A3EAF0A3EBF022E5C754F86B
:102D00004401F5C77901222518F582E43519F583C8
:102D1000221229FE25A5021229FE56A6021229FE1C
:102D200092A6021229FE6CA8021229FE29AC0212F8
:102D300029FE3DAC021229FE47AC021229FE51AC1D
:102D4000021229FE5BAC021229FE65AC021229FEBA
:102D50007EAC021229FE88AC021229FEFFAC0212E0
:102D600029FE0AAD021229FE39AD021229FE61AD1B
:102D7000021229FE6CAD021229FED1AD021229FE0B
:102D8000DBAD021229FEE6AD021229FE0AAE0212E6
:102D900029FE2EAE021229FEA0AE021229FEE9AED5
:102DA000021229FE05AF021229FE76AF021229FE99
:102DB000C2AF021229FE0BB0021229FE49B0021264
:102DC00029FECAB0021229FE71B1021229FE36B3E1
:102DD000021229FE9BB3021229FEC9B4021229FE77
:102DE000EFB4021229FE37B6021229FE71B902129F
:102DF00029FE6FBB021229FE3ABD021229FED3BD85
:102E0000021229FED4BF021229FE89C0021229FE35
:102E1000C2C0021229FE32C1021229FE3CC10212B6
:102E200029FE65C3021229FE68C4021229FEA5C547
:102E3000021229FEFCC5021229FEA7C6021229FEB3
:102E400057C8021229FEA4C9021229FEC4C90212DF
:102E500029FE19CA021229FE1ACB021229FE42CB00
:102E6000021229FEA1CB021229FE99CC021229FEE0
:102E700010CD021229FE23CE021229FE91CE02129B
:102E800029FE90CF021229FEEAD1021229FE13D2A6
:102E9000021229FE79D3021229FEFBD4021229FE66
:102EA00052D5021229FE00D6021229FEA5D6021220
:102EB00029FE08D7021229FEC6D7021229FE58D8C9
:102EC000021229FEB7D8021229FEF9D8021229FEF1
:102ED0002AD9021229FE81DA021229FE0080031289
:102EE00029FE3280031229FE6B80031229FE3482F0
:102EF000031229FE7882031229FE4E83031229FE53
:102F0000AD83031229FEC384031229FE0F85031229
:102F100029FE9D87031229FE818A031229FEC88B90
:102F2000031229FE608C031229FE6C8C031229FE09
:102F3000B58C031229FEF78D031229FEED8E0312C4
:102F400029FE178F031229FE6D8F031229FEC68FEB
:102F5000031229FE3990031229FE6F92031229FEF3
:102F6000F193031229FEDA94031229FE2496031228
:102F700029FE5C98031229FE599B031229FE689BC7
:102F8000031229FEFC9B031229FEA79C031229FEB3
:102F9000EA9C031229FE339D031229FE839D03122E
:102FA00029FEE79D031229FE599E031229FE759EF4
:102FB000031229FEA49E031229FEE39E031229FE9A
:102FC000DE9F031229FE8DA0031229FE0AA303121D
:102FD00029FE3CA4031229FE14A5031229FE96A57E
:102FE000031229FECBA9031229FEFAA9031229FE16
:102FF00055AA031229FE88AA031229FE00AB031268
:1030000029FE38AB031229FE88AB031229FEF7AC68
:10301000031229FE1BAD031229FE55AD031229FE32
:1030200062AD031229FE65AD031229FE94AD0312B1
:1030300029FE8CAF031229FE4BB0031229FE7AB091
:10304000031229FE98B1031229FE60B2031229FE71
:1030500021B4031229FE91B4031229FEC3B4031252
:1030600029FE29B5031229FE38B5031229FE65B5DC
:10307000031229FE7FB5031229FEF2B5031229FEC1
:1030800016B8031229FE75B8031229FEC9B8031237
:1030900029FEF8BA031229FEDBBB031229FE63BC2A
:1030A000031229FE47BD031229FED1BD031229FEDA
:1030B000E5BD031229FEF9BD031229FE0DBE031260
:1030C00029FE21BE031229FE4EBE031229FE7EBE3A
:1030D000031229FE39C0031229FE0FC1031229FE73
:1030E000B3C1031229FE08C2031229FE51C2031202
:1030F00029FED5C2031229FE1CC3031229FE8EC36A
:10310000031229FEE3C4031229FE8CC5031229FE13
:10311000A4C5031229FE47C6031229FEC3C8031221
:1031200029FE6BCA031229FE89CA031229FE4781B0
:10313000011229FE8981011229FEF686011229FE5B
:103140004287011229FE8887011229FED9880112BF
:1031500029FE3E89011229FE8289011229FEE88A90
:10316000011229FE438E011229FE768F011229FEDB
:10317000059B011229FE959B011229FE7F9E0112DB
:1031800029FEE49F011229FE47A0011229FE63A136
:10319000011229FECDA2011229FEACA3011229FEC3
:1031A0001AA6011229FEACA7011229FE3DA80112A0
:1031B00029FE5CA9011229FEE9A9011229FEF3A941
:1031C000011229FE1BAA011229FEBEAA011229FE24
:1031D000A9AB011229FE71AC011229FEFEAC01124D
:1031E00029FE14AD011229FE31AD011229FE5AAD9E
:1031F000011229FE87AD011229FECBAF011229FE73
:103200009EB0011229FEE2B0011229FE64B1011242
:1032100029FE05B2011229FE37B2011229FE7EB243
:10322000011229FEB1B2011229FEF5B2011229FEE6
:1032300044B3011229FE49B3011229FEA5B30112BC
:1032400029FEE9B3011229FED3B4011229FE38B5D3
:10325000011229FE96B5011229FE15B6011229FEAA
:103260008DB9011229FE90BA011229FE26BC011265
:1032700029FE69BF011229FE0BC0011229FE54C2AA
:10328000011229FE0FC3011229FE4EC3011229FEAD
:1032900012C5011229FE2FC5011229FE38C50112DF
:1032A00029FE41C5011229FE4CC5011229FE6BC53C
:1032B000011229FE8FC7011229FEECC7011229FE57
:1032C000F6C7011229FE00C8011229FE63C80112C7
:1032D00029FEBFC8011229FECCC9011229FE2DCA40
:1032E000011229FE3ECB011229FE87CB011229FED5
:1032F00051CC011229FE68CD011229FE2CCE0112FB
:1033000029FE78CF011229FE7CD0011229FE75D149
:10331000011229FE8DD1011229FEC4D1011229FE0C
:10332000CED1011229FED8D1011229FEE3D101121A
:1033300029FE01D2011229FE49D2011229FEA7D28B
:10334000011229FECED2011229FEE0D2011229FE7D
:1033500089D3011229FEC2D3011229FEF3D401122E
:1033600029FE50D5011229FE41D6011229FE77D639
:10337000011229FEE7D6011229FE63D7011229FEA8
:10338000E4D8011229FE0BDA011229FECDDA01126E
:1033900029FE9BDB011229FE20DC011229FECFDC75
:1033A000011229FEB7DD011229FE50DE011229FEAD
:1033B0002CDF011229FE94DF011229FE53E00112D5
:1033C00029FEAFE0011229FE13E1011229FED9E125
:1033D000011229FEFCE1011229FEB6E2011229FECA
:1033E000D8E2011229FE39E3011229FE69E5011232
:1033F00029FE62E6011229FE0EE7011229FE2BE9E1
:10340000011229FE74E9011229FEBFE9011229FE09
:103410001BEA011229FE79EA011229FE9DEA011236
:1034200029FEC1EA011229FEF6EA011229FE1EEB6D
:10343000011229FE63EB011229FEC1EB011229FEE4
:103440001AEC011229FE14ED011229FEC0EE011240
:1034500029FE05EF011229FE2EEF011229FEB7EF1A
:10346000011229FE2AF0011229FE38F0011229FE6C
:103470005CF0011229FEB2F0011229FECDF001121A
:1034800029FE88F1011229FEB4F1011229FEF7F19B
:10349000011229FE5AF2011229FE6AF4011229FED4
:1034A00096F4011229FE51F5011229FE35F601129A
:1034B00029FEC9F6011229FE78B3051229FEB0B320
:1034C000051229FED1B3051229FE13B4051229FEF7
:1034D00077B4051229FE81B4051229FE91B40512B4
:1034E00029FEC8B4051229FE71B8051229FE39BAA1
:1034F000051229FE1DBC051229FEBFBC051229FEBE
:1035000049BD051229FE5080041229FEF9800412DB
:1035100029FED881041229FEE482041229FE0483C4
:10352000041229FE2684041229FED685041229FEDF
:103530004386041229FE1487041229FE1A880412F5
:1035400029FE9288041229FECD88041229FE2689BC
:10355000041229FE6189041229FEAA89041229FE97
:103560003E8A041229FED48A041229FEA98B041271
:1035700029FE7C8C041229FE0A8D041229FE308D4E
:10358000041229FE5D8D041229FE8E8D041229FE7F
:103590005B8E041229FE6B8E041229FEBE8E04126D
:1035A00029FECB8E041229FED88E041229FEE18E4C
:1035B000041229FE458F041229FEA38F041229FE4E
:1035C000EE8F041229FE0990041229FE3090041295
:1035D00029FE4D90041229FE5990041229FEEA9109
:1035E000041229FE0392041229FE7F92041229FE7E
:1035F0009292041229FEA292041229FE469304120A
:1036000029FEB294041229FEC595041229FE65967E
:10361000041229FE6F96041229FEEE96041229FE6A
:10362000FF96041229FE3E97041229FE6C9704129D
:1036300029FE3998041229FE9098041229FEC9988F
:10364000041229FE1F99041229FE3D99041229FE35
:103650008B99041229FE569A041229FEA49A041288
:1036600029FEF19A041229FE749B041229FE9E9BE6
:10367000041229FED49B041229FEE39B041229FEA6
:10368000429C041229FEBA9C041229FEFB9C0412DF
:1036900029FE4B9D041229FE769D041229FE909D61
:1036A000041229FEAA9D041229FE7F9E041229FEFF
:1036B000899E041229FEC49E041229FED49E04127F
:1036C00029FEDD9E041229FE2E9F041229FE429F30
:1036D000041229FE64A0041229FE77A0041229FE18
:1036E0008EA0041229FEA3A0041229FE36A1041202
:1036F00029FEAAA1041229FE4FA2041229FE5AA2F1
:10370000041229FEBDA3041229FED9A3041229FE26
:1037100025A4041229FE93A4041229FEC5A40412B0
:1037200029FEDFA4041229FE3FA5041229FEDEA50E
:10373000041229FE29A6041229FE7CA8041229FEDF
:1037400014A9041229FE8BA9041229FEE8AB041265
:1037500029FE00AC041229FE03AC041229FE0FACB2
:10376000041229FE23AC041229FE2BAC041229FEFC
:1037700062AC041229FE56AD041229FEE0AD04121B
:1037800029FE62AE041229FEE2AE041229FEB9AF90
:10379000041229FEDBAF041229FE74B0041229FEC4
:1037A000D1B0041229FED4B0041229FE01B10412D2
:1037B00029FE16B1041229FE85B1041229FED1B2E8
:1037C000041229FEE4B3041229FE6FB4041229FE88
:1037D00082B5041229FE49B6041229FE7AB60412F3
:1037E00029FEA0B6041229FEA9B6041229FED8B6F5
:1037F000041229FE88B7041229FE38B8041229FEE3
:10380000ABB8041229FE4EB9041229FEC1B9041244
:1038100029FE00BA041229FE49BA041229FE7EBA12
:10382000041229FE0080051229FE6D80051229FE72
:10383000B480051229FE2A81051229FE7C81051219
:1038400029FE0282051229FE4684051229FE75868C
:10385000051229FE528A051229FED28A051229FE76
:103860000D8B051229FE2B8B051229FE8B8B051261
:1038700029FEB38B051229FEE38B051229FE148C59
:10388000051229FE418C051229FE9A8C051229FE8B
:10389000E58C051229FE1C8D051229FE988D051256
:1038A00029FEC48D051229FEF68D051229FE588FBA
:1038B000051229FE748F051229FEB28F051229FE0A
:1038C0003F90051229FE9B90051229FE6191051279
:1038D00029FE2092051229FE6592051229FEC69244
:1038E000051229FE3B93051229FE7593051229FE48
:1038F000CD93051229FEEF93051229FE8794051238
:1039000029FE2E95051229FE7B95051229FEA49508
:10391000051229FEE595051229FE9297051229FE4A
:103920007698051229FE2799051229FE32A806125B
:1039300029FE43A8061229FEE1A8061229FEECFF83
:10394000011229FEE47F001229FEFBA8061229FEBF
:103950000BA9061229FE20A9061229FEB1A90612FA
:1039600029FE3CA6061229FEC0A6061229FE26A79D
:10397000061229FEEFFF011229FEDDFF021229FEC9
:10398000EDFF021229FEF0FF021229FEF3FF0212E0
:1039900029FEF87F001229FE3999061229FE5B994B
:1039A000061229FEC69A061229FE4A9B061229FE15
:1039B0007DFF031229FE86FF031229FE8FFF0312EB
:1039C00029FE9DFF031229FE137A001229FE7F7A39
:1039D000001229FE477B001229FE3C7C001229FEC2
:1039E000297E001229FE837E001229FED67E001257
:1039F00029FEE77E001229FEF97E001229FE657F6E
:103A0000001229FE797F001229FE847F001229FE10
:103A1000927F001229FEA47F001229FE45D50512CF
:103A200029FE71D5051229FE17D8051229FE6ED878
:103A3000051229FEAAD8051229FEBED8051229FEB4
:103A4000D7D8051229FEF69D021229FEA4DA051226
:103A500029FEB8DA051229FE399D061229FE5D9D60
:103A6000061229FE769D061229FEB49D061229FE35
:103A7000EA9D061229FE1D9E061229FE279E0612A9
:103A800029FE939E061229FE969E061229FEA09EEE
:103A9000061229FEAD9E061229FE708F061229FE1F
:103AA000938F061229FEDE8F061229FEA6A40212AB
:103AB00029FE1790061229FE7D90061229FE899094
:103AC000061229FEE690061229FE0A91061229FE28
:103AD000D091061229FEDD91061229FEEE91061202
:103AE00029FE71AC061229FE89AC061229FEB5AC7E
:103AF000061229FE63E5051229FEC7E6051229FE16
:103B0000D5E6051229FEE9E6051229FE06E70512AB
:103B100029FE1BE7051229FE2EE7051229FEB0E754
:103B2000051229FE16E8051229FE9FE8051229FE56
:103B300017E9051229FEF0E9051229FE00EA05122F
:103B400029FE0FEA051229FED8AB061229FEFCABAE
:103B5000061229FE24AC061229FE4CAC061229FEE0
:103B60001C92061229FE4392061229FE6292061248
:103B700029FED792061229FE14FD021229FE2DFD00
:103B8000021229FE44FD021229FE4DFD021229FEF9
:103B90006BFD021229FE75FD021229FE7FFD021245
:103BA00029FE92FD021229FE1FFE021229FE8EFE40
:103BB000021229FEBCFE021229FE0DFF021229FE8E
:103BC00059FF021229FE74FF021229FE7EFF021223
:103BD00029FE8FFF021229FED2FF021229FE95FF55
:103BE000011229FEE0FF011229FEF8BD051229FE8F
:103BF00024BE051229FE47BE051229FE5ABE051233
:103C000029FE75BE051229FED9BE051229FE07BF81
:103C1000051229FE14C3051229FE56C4051229FEF9
:103C200088C4051229FEF3C4051229FE77C60512C1
:103C300029FE9FC6051229FEB4C6051229FEC4C678
:103C4000051229FE04C7051229FE46C7051229FEE2
:103C500056C7051229FE80A1061229FE90A1061260
:103C600029FEB4A1061229FEDDA1061229FE07A233
:103C7000061229FE2BA2061229FE42A2061229FED6
:103C800070A2061229FE93A2061229FEC1A90612ED
:103C900029FE07AA061229FEBC8B061229FECC8B30
:103CA000061229FEEA8C061229FE1E8D061229FE36
:103CB000408D061229FE688D061229FE818D06129E
:103CC00029FEBD8D061229FE238E061229FE688E5E
:103CD000061229FEAD8E061229FEDA8E061229FE84
:103CE000128F061229FE0580061229FE6780061231
:103CF00029FE0E81061229FE4681061229FEE2E9FE
:103D0000041229FE91EA041229FEC5EC041229FED0
:103D100098EF041229FE18F1041229FE7AF1041218
:103D200029FE85F4041229FEC9F5041229FECBA24E
:103D3000061229FE16A3061229FEF4DF051229FE3B
:103D4000B3E2051229FE50E3051229FE7CE30512B9
:103D500029FEAAE3051229FEDFE3051229FE07E486
:103D6000051229FE67E4051229FE09A7051229FE9E
:103D7000F2AA051229FEE9AC051229FE17AE0512BA
:103D800029FEF3AE051229FE9EB0051229FE39B2B6
:103D9000051229FE06B3051229FE5AB3051229FEA3
:103DA000A994061229FEB394061229FED494061291
:103DB00029FE149A051229FE3B9F051229FE6AA0CE
:103DC000051229FE46A2051229FE3FA3051229FE6F
:103DD00076A4051229FE83A5051229FE68A6051200
:103DE00029FEC9CA031229FE01CB031229FE5ED5A2
:103DF000031229FE48D6031229FE98D7031229FE82
:103E0000E3D8031229FE8ED9031229FE61DA0312C8
:103E100029FEF8DA031229FEDCDB031229FEDFDCBF
:103E2000031229FEA1DD031229FECFDD031229FEB4
:103E300047DF031229FED0DF031229FEE9DF031258
:103E400029FE43E1031229FEF5E1031229FE84E273
:103E5000031229FE33E3031229FE96E3031229FE1F
:103E600032E4031229FEABE4031229FEC9E4031273
:103E700029FE96E5031229FE65E6031229FE1BE7DB
:103E8000031229FEB79E061229FEE19E061229FEA4
:103E9000F59F061229FEF89F061229FE75AA061242
:103EA00029FEC8AA061229FE0AAB061229FE1AAB81
:103EB000061229FEBFCE051229FE06CF051229FEE5
:103EC0006FCF051229FE90CF051229FEA9CF05124A
:103ED00029FE59D0051229FE62D0051229FEB3D061
:103EE000051229FEE9D0051229FE00D1051229FE8E
:103EF0006DD1051229FEFDD1051229FE33D205121E
:103F000029FE7CD2051229FEDDD2051229FE17D327
:103F1000051229FE7FD3051229FED2D3051229FEF0
:103F200015D4051229FE52D4051229FE64D40512B7
:103F300029FE76D4051229FEB0D4051229FEF0D44C
:103F4000051229FE19D5051229FE40EA051229FE9F
:103F500086EB051229FEAFEB051229FEC0EB051218
:103F600029FED8ED051229FEF8ED051229FEF59679
:103F7000061229FE2B97061229FE7A97061229FEB1
:103F8000D698061229FED0D5041229FE0ED70412A7
:103F900029FE4AD7041229FE0FD9041229FE39D965
:103FA000041229FEBFDB041229FEFFDB041229FEE6
:103FB00095DD041229FE2ADE041229FE88DE041291
:103FC00029FE0EDF041229FE46DF041229FE88DFD7
:103FD000041229FEF5E0041229FE79E2041229FEFA
:103FE000B3E4041229FEE1E4041229FE0DE50412F3
:103FF00029FE16E5041229FE6CE5041229FEFCE5F3
:10400000041229FE03E9041229FE85E9041229FE9F
:1040100024AB061229FE3AAB061229FE44AB061267
:1040200029FEA0AB061229FE16F4051229FE2FF474
:10403000051229FED4F4051229FE14F5051229FEF5
:104040002DF5051229FE60F5051229FEADF50512C4
:1040500029FEE1F5051229FE23F6051229FEFCF7DB
:10406000051229FE67F8051229FEFFA3061229FE94
:1040700054A4061229FEAEA4061229FE29A5061292
:1040800029FE9BA5061229FED9A5061229FE1AA60D
:10409000061229FE8AF7011229FE90F7011229FE65
:1040A000D7F7011229FEE3F9011229FE13FA0112D2
:1040B00029FE7DFA011229FE38FB011229FE7BFB45
:1040C000011229FEACFB011229FE36FC011229FE69
:1040D0004DFC011229FE5AFC011229FE64FC01125A
:1040E00029FE04FE011229FEF6FE011229FE54FFEC
:1040F000011229FE07F7041229FE1DF7041229FEFA
:10410000CFF7041229FEF9F8041229FEEEF9041281
:1041100029FE85FA041229FEC0FA041229FE32FB98
:10412000041229FE90FB041229FEA0FB041229FEB2
:10413000C7FB041229FE19FC041229FE85FD041296
:1041400029FE8AFD041229FEACFD041229FEDDDAE7
:10415000021229FE35DB021229FED5DB021229FEEE
:1041600052DD021229FE3EDE021229FEFBDE0212A1
:1041700029FE12DF021229FE61DF021229FED5DFBD
:10418000021229FE30E0021229FE43E0021229FE4B
:10419000A7E0021229FE16E1021229FEC9E302126B
:1041A00029FECEE4021229FE29E5021229FE6FE55E
:1041B000021229FE25E8021229FE75E8021229FEE4
:1041C000F6E8021229FE38E9021229FE12EA02126A
:1041D00029FE4BEA021229FE6AEA021229FEB5EA1A
:1041E000021229FECBEA021229FE86EB021229FEF8
:1041F00054EC021229FE5FEC021229FEADEC021211
:1042000029FE02ED021229FE4EED021229FEA9EE50
:10421000021229FED3EE021229FE6BF1021229FED0
:1042200095F1021229FEA0F2021229FECFF202122B
:1042300029FE47F3021229FE22F4021229FE64F439
:10424000021229FED8F4021229FEF2F5021229FE0A
:104250003FF6021229FE52F6021229FE55F602120C
:1042600029FE5EF6021229FE79F6021229FEF1F607
:10427000021229FE2AF7021229FE46F7021229FE2F
:1042800072F7021229FE99F7021229FEBDF70212F7
:1042900029FE36F8021229FEA9F8021229FEECF8CE
:1042A000021229FEF6F8021229FE25F9021229FE51
:1042B0003BF9021229FE57F9021229FE86F9021271
:1042C00029FEA6F9021229FEEFF9021229FE2AFAA6
:1042D000021229FE36FB021229FE99FC021229FE67
:1042E000B8FC021229FECFFC021229FEE1FC0212E8
:1042F00029FE3FA7061229FE50A7061229FED9A7BC
:10430000061229FECCDA051229FE0ADB051229FE67
:10431000A3DB051229FEAEDC051229FEF6DE05122E
:1043200029FE73DF051229FE86C7051229FED5C7AF
:10433000051229FE93C9051229FE67CB051229FE35
:10434000A5CB051229FE86CC051229FE90CD0512BB
:1043500029FEB2CD051229FE0ECE051229FE8FCE02
:10436000051229FEFE4E001229FE204F001229FEE2
:104370008F50001229FED850001229FE4951001218
:1043800029FECC51001229FE4352001229FE8A5206
:10439000001229FE0153001229FEA553001229FE26
:1043A0001A54001229FE5754001229FE9F58001279
:1043B00029FEC25A001229FEFB5A001229FE3A5B5E
:1043C000001229FE365E001229FEC65E001229FE8A
:1043D0007A60001229FEB461001229FED462001234
:1043E00029FE4563001229FE2664001229FEA964F5
:1043F000001229FEBD64001229FE8C65001229FE00
:10440000C366001229FEF268001229FE016B001239
:1044100029FEED6B001229FE846E001229FE596FF1
:10442000001229FE9870001229FEC873001229FE9E
:10443000D873001229FE0E75001229FEA77500120E
:1044400029FED876001229FE4677001229FE7F78D1
:10445000001229FEBA78001229FE6379001229FEA3
:10446000E9BA041229FE8BBB041229FEF7BB041221
:1044700029FE11BC041229FE93BC041229FECDBCF6
:10448000041229FECFBD041229FE11BE041229FE1A
:1044900083BE041229FED3BE041229FE32BF0412C9
:1044A00029FEDEBF041229FEC8C2041229FE8FC3F2
:1044B000041229FEF5C3041229FE9DC5041229FE2B
:1044C00036C6041229FECFC6041229FE32C70412D2
:1044D00029FEA8C7041229FEA9C8041229FE9AC9F8
:1044E000041229FED5C9041229FEECC9041229FEC2
:1044F000CACA041229FE08CB041229FE90CB04126A
:1045000029FEDDCC041229FEA1CE041229FEDFCF44
:10451000041229FE12D1041229FE26D2041229FE09
:10452000BDD2041229FE2CD3041229FE39D4041260
:1045300029FEE0E7031229FE4BE8031229FE93E867
:10454000031229FEFAE8031229FE56E9031229FE96
:1045500091E9031229FE2DEA031229FE87EA0312CC
:1045600029FEF3EB031229FE6CEC031229FEA3EDE6
:10457000031229FECBED031229FEA9EE031229FE38
:10458000BAEE031229FED2EE031229FEC9EF03127E
:1045900029FEECEF031229FEB5F0031229FEDFF02D
:1045A000031229FEF6F0031229FE10F1031229FE70
:1045B0003CF1031229FE5CF1031229FE82F1031281
:1045C00029FE99F1031229FE6EF2031229FEC8F2A8
:1045D000031229FE99F3031229FE15F4031229FE92
:1045E0002CF4031229FEAFF4031229FEF7F4031290
:1045F00029FE1DF5031229FE75F6031229FE7AF62F
:10460000031229FEB8F6031229FE2FF7031229FE22
:104610009BF7031229FE96F8031229FE70F9031284
:1046200029FEBCF9031229FED4FA031229FED0FB9D
:10463000031229FE72FC031229FEB8FC031229FEA4
:10464000CDFC031229FEDFFD031229FE80FE0312BA
:1046500029FEDCFE031229FE0084061229FEBB851A
:10466000061229FE8386061229FED886061229FE26
:104670005E87061229FE74F8051229FE92F80512CB
:1046800029FED6F8051229FEFCF8051229FE23F9A9
:10469000051229FE3BF9051229FE53F9051229FEE0
:1046A0006BF9051229FE11FA051229FE53FA0512BB
:1046B00029FE68FA051229FE6FFB051229FE8AFB06
:1046C000051229FE93FB051229FE9CFB051229FE0B
:1046D000A5FB051229FEAFFB051229FE2CFC0512D5
:1046E00029FE4CEF051229FE8EF3051229FEAAF3CE
:1046F000051229FEAFF3051229FEBF9B061229FE03
:10470000F287061229FE0888061229FEA6890612DB
:1047100029FEF189061229FE5D8A061229FE5C8BAC
:10472000061229FE8B8B061229FE9D8B061229FE8E
:1047300025A0061229FE8AFC051229FEE6FC0512B8
:1047400029FE26FD051229FE28FE051229FE40FE3F
:10475000051229FE52FE051229FE7EFE051229FED3
:10476000B5FE051229FEC5FE051229FEDBFE051267
:1047700029FE00FF051229FE8EFF051229FEB87FD3
:10478000001229FEDE9C021229FEB99C021229FEAB
:10479000C99B021229FE559B021229FEBE9A0212E3
:1047A00029FE4C9A021229FE3B9A021229FE169A01
:1047B000021229FE3299021229FE4E98021229FE97
:1047C0006495021229FE2194021229FE8891021298
:1047D00029FE4391021229FEE990021229FE4A9015
:1047E000021229FEF58F021229FE228F021229FEE3
:1047F0005C8E021229FE208E021229FEB38D021257
:1048000029FEAB8D021229FE208D021229FEB08CEA
:10481000021229FE6BA3021229FE018C021229FE4C
:104820005BA3021229FE2FA2021229FE4DA0021242
:1048300029FE44A0021229FE37A0021229FE3A9F47
:10484000021229FEB29E021229FEA39E021229FE26
:10485000F68B021229FEE78B021229FEC68B02128A
:1048600029FE928B021229FE309E021229FE668BCF
:10487000021229FE388A021229FE2C88021229FE11
:10488000FD87021229FEFC8F061229FEE187021223
:1048900029FE149E021229FE8B87021229FE5287DE
:1048A000021229FECA86021229FE7E86021229FE03
:1048B0003786021229FE6A85021229FEEE84021250
:1048C00029FE4684021229FE9F83021229FE41839B
:1048D000021229FE1683021229FEC782021229FE45
:1048E0008982021229FE6682021229FE4D8202127C
:1048F00029FE0582021229FE4F81021229FE008044
:10490000021229FEC380021229FE5780021229FEDC
:10491000C8D90500000080FB8F000100301D870012
:1049200001002F1D35000400A91E25000200AD1E48
:1049300026000200AF1E27000200B11E2800010061
:10494000BB1E29000100BC1E84000400BD1E8600A1
:104950000100C11E2A000100C21E2B000100C31E5F
:104960002C000100C71E2D000800111D2E000100A3
:10497000C81E2F000100C91E30000100CA1E3100F0
:104980000100CB1E32000100191D330001001A1D69
:1049900034000100CC1E360001001B1D3800010050
:1049A000CD1E39000100C61E83000200E11E630017
:1049B00001002C1D64000100C41E65000100C51E1D
:1049C0006D0001002D1D71000800091D6600010029
:1049D000E01E43000100D11E44000200D21E45002B
:1049E0000100D41E46000200D51E47000800241D09
:1049F00048000100D71E4B000100D81E0400010032
:104A0000E31EA1000100E51E37000100E41E88003E
:104A10000100311D3C0001001C1D3D000100CE1EA7
:104A200049000200D91E670001002E1D4D00020042
:104A3000DB1E4E000100DD1E4F000200DE1E3E00A8
:104A40000100231D510001001D1D52000100CF1E59
:104A500053000100D01E540001001E1D0000000084
:104A600000000001363601010001020100010301CE
:104A700000010401060605020000070100340801D8
:104A8000000F090401010D0100FF0E0800001702CC
:104A90000000190100FF1A0100011B0100FE1C01AA
:104AA00000081D0200001F01000120010001210279
:104AB00000002301000F240200002601000127014D
:104AC0000008280200FF2A0100072B0102402C01E8
:104AD00000002D0100012E0100012F0100FF300117
:104AE0000B1D310800003A0100083B01000F3C019A
:104AF00000013D0100FF3E040000420400004604A6
:104B000000004A0400004E04000052040000560455
:104B100000005A04000001037103010301030103B3
:104B20000103010322030203010310030003000336
:104B300000030003000300030003420300032403F7
:104B400006030003000304031203250323032503C4
:104B500023030403040300030003000344030003CE
:104B600000032303000365032100350381030003D1
:104B700005030003000300030003250323030304CC
:104B800071040204600411047004020402040104AC
:104B90000204100461040004140463047304720426
:104BA0006204430400041304060400040004040423
:104BB0001204000400040004000451046400000412
:104BC000000400044404000400040004000465041C
:104BD0000004350481046400050400048304000417
:104BE00003007100300160001100700031022003E9
:104BF0005004800010006100000014006300730086
:104C00007200620043000000130006000000000074
:104C10000400120000000000000000000400040076
:104C2000370037003C024400000000000000000094
:104C300065000000350081000000050000008300D1
:104C400000000101710101010101110101013101A6
:104C5000010101018001100161013B0014006301A9
:104C600073017201620143010001130106013D015C
:104C700035000401120100010001000100010401DE
:104C80000401330133013C014401320136000001CB
:104C9000000165010001350081010001050182016B
:104CA00083010001030271023001600211027002EF
:104CB0000102020202028002100261023A00410077
:104CC000630273027202620243020002130238009E
:104CD00000020002040212020002000200020002AE
:104CE00004020402370037003C024402000239008B
:104CF0000002000265020002350281020002050284
:104D000082028302000236000100060000000F004C
:104D100000000000000000000000000003FFFF0092
:104D2000000403FFFF0000FFFF0FF4010005C404AF
:104D30000320000100000B00000000000000000341
:104D4000010F000000000000000000000000000053
:104D50000000000000000000000000000000000053
:104D60000000000000009F441300FD431F000344A7
:104D70001F80094401009F440200854303008B43C8
:104D800004009143050097430600A3433000C1434C
:104D90003100BB433200CD433300D3433500D94308
:104DA0003400DF433600E5431100F1431400F743BC
:104DB0001500B543FFFF00000A00000002000000DC
:104DC00004000000080000001000000020000000A7
:104DD0004000000080000000000100000002000010
:104DE0000004000000080000001000000020000087
:104DF0000040000001733106A93108A3310BC13115
:104E0000108B2E0AD331027931059731077F310C8F
:104E10005B310D673164DB47FF000007ECFDFDFDF2
:104E2000ECDCDCCCBCACAC9C9C8C7C7C6C6C5C5CB2
:104E30005C4C4C3C3C2C2C1C1C03EAF5E5D5D5C540
:104E4000B5A5959585857575656555554545353582
:104E5000252515150500160F00000B150B02000285
:104E6000220F3300000E5A6967426565416C6C6918
:104E7000616E6365303901030507090B0D0F0002F0
:104E80000406080A0C0D00034A49434E181A25056A
:104E90000200011916181616182303000C0E020B37
:104EA000040B0A0708000F303016181920231A1CAB
:104EB0001E3000393D3F373C3C362C442D303017F6
:104EC000181921301B1D1F300204020101010109C4
:104ED00002E803000000BE040A000000007F00E8B2
:104EE000030E00100C0A030305090008000CFF1E46
:104EF0001E2805080304040910150401080CC082CB
:104F0000C083901C87E4F0A3F07CED7D047AA07B45
:104F10001B12408B1247AB122ED91247A50264B662
:104F200074F312243D74F5122AC789098A088B0A82
:104F30008C0BE9705F74026508703F79081242D7E4
:104F4000750C00780C122A55E50BF50C780C122A1A
:104F500055E50AF50C780C122A55901BBC12285105
:104F6000901EC1E0F97C247D1D901EE1126F0E128F
:104F700047817407122A2E02505774016508600396
:104F800002505C79081242D77B00AA0AA90A12488B
:104F90001D025057740165096009740265096003B8
:104FA00002505CEA60067403650870477902124299
:104FB000D7901EC1E0F9901BBC122CD8124793E980
:104FC000F9901BCBE0A2E34010E9700D901C8BE040
:104FD00004F06404700312507D74036508707A90C5
:104FE0001C8CE0F8740128F0E8C39405406B125063
:104FF0007D806674016508706374016509790A70C3
:105000002E1242D77401122D07E4F07402122D07FC
:105010007403F004122D07E4F0A3F0A3F0A3F074DE
:1050200008122D07E4F0AA18AB191231858044123A
:1050300042D7901EB71228517A007B20901BC0E007
:10504000F912403D7404122A2E901EC1E0F9901B03
:10505000BC122CD812483BE9F9E960179080CE12B7
:1050600028517A017B00901BC0E0F912403D740486
:10507000122A2E740B122A2E7F050226CD901BBCFD
:10508000E4F0A374F8F0A374FFF0A37407F02274A3
:10509000F612243DE9FFEAFE7AD1F9123EF38A8244
:1050A0008B83E5824583702A7A027B00123ED5EA23
:1050B0004B700E7A107B00901BC0E0F9123F1780F6
:1050C000148A828B8374D1F0EFA3F0EEF9123EE1E3
:1050D0008003EFA3F00252FC74F712243D8908907C
:1050E00006FA126421901EA5E0F47003A3E0F470A8
:1050F0002D900BE7E0901EA5F0A3E4F080208E82B7
:105100008F83A31261AE600F8E828F83A3A312617F
:10511000A8FAA90812436D8E828F831251BFEE4FF9
:1051200070DC901EA5E0F47003A3E0F4600A901E0A
:10513000A5E0FAA90812436D123293901B8A125A05
:10514000F512328D7F010226CD74F012243D890BB9
:105150008C0C7508007509007410122D071252335B
:105160007412122D071251BF803CA80A125223F567
:105170000EA3E0F50FA809125216F583E0650E7034
:1051800004A3E0650F70141251B6EE28F582EF39D2
:10519000F583E50EF0A3E50FF00508050AE50AC35F
:1051A000950C40C60509E509C3950B5005750A0025
:1051B00080EBA9088011A808E828F8E433F9221246
:1051C0006BE7E8FEE9FF227F080226CD74F4122483
:1051D0003D890B8C0A750800740C122D071252338E
:1051E00080020508E508C3950B5027750900800269
:1051F0000509E509C3950A50E9A808125216126478
:105200001FA8091252236E7003A3E06F70E27901A8
:10521000800279008028E828F8E433F9EA28F5824A
:10522000EB3922E828F8E433F9EC28F582ED39F57A
:1052300083E022126BE7E8FCE9FD22122A2E7F04AC
:105240000226CD74F612243D1252E67003A3E06DDF
:1052500070177508C975091B7808122A51EEFA12E1
:1052600044A57402122A2E801F75080275098078E1
:1052700008122A518C088D097808122A511252D12D
:105280001244C97404122A2E807274F612243D123C
:1052900052E67003A3E06D70177508D675091B7888
:1052A00008122A51EEFA1244AB7402122A2E801F01
:1052B0007508037509807808122A518C088D0978C1
:1052C00008122A511252D11244C97404122A2E8093
:1052D0002B1252DF3FF583E0FD7C8012655E22EEEB
:1052E000240EF582E422EAFEEBFF126573FCE4393A
:1052F000FD901B8AE06C227402122A2E7F02022685
:10530000CD74F612243D74FE122AC7EAFEEBFF8527
:105310001882851983E4F0A3125AA51264A4FCA391
:10532000E0FBECFA88828983A3A3E0F97509007594
:105330000800600574FF697005750882803D901B48
:105340008AE06A7003A3E06B701AAA18AB191238CE
:1053500063E9F5098518828519831268E5701C7563
:1053600008838017901D2FE06004640170057508A4
:10537000818008E0640270037508808518828519B1
:10538000831268CEA908EEFAEFFB1244B1E509607A
:10539000118518828519831268E56006126F08125C
:1053A0003F7D0252F774F212243DEAFEEBFF7508CE
:1053B0000075090012656FF50AE439F50B12329396
:1053C000EA650A7003EB650B7012123875E914F583
:1053D0000879017A537B1C12387B8003750980128F
:1053E00068D4F50C780C122A55750C53750D1C7881
:1053F0000C122A517808122A55780A122A51E50906
:10540000F5087808122A5512633A1268D7F97A0516
:105410007B801244B774070276A474F612243D8987
:105420000975080080278A828B83E0FE127867EE78
:1054300028E439FF1251B6EC28F582ED39F583EEF8
:10544000F0A3EFF0EA2402FA50010B0508E508C3C7
:10545000950940D20252FC74E812243D74FB122AD2
:10546000C78A168B17851882851983E4F074031296
:105470002D07E4F0A3F004122D07E4F0A3F0125876
:10548000683517125A77F50B850A82F5831279531E
:10549000FEE439FF850A82850B83A3A3E0FA850A1F
:1054A00082850B83A3A3A3E0F9EAF508E439F509A3
:1054B000E50A2404F50A5002050BEEFAEFFB12335D
:1054C0002FE964016016EEFAEFFB12332FE9703D0D
:1054D000901B8AE06E7003A3E06F60311266B41215
:1054E0002A55E4F508F5097808122A517808122A95
:1054F00055901B8A1228557508807808122A551273
:10550000584F1244B77407122A2E02584512588277
:105510008810602B1274F2123F777403122D071259
:105520005AF57403122D071268E560137403122DE7
:105530000712587AA91012439D8A0A8B0B800375B3
:105540001000125882880F60271274F2123F77748D
:1055500001122D07125AF57401122D071268E56029
:105560000F7401122D0712587AA90F12439D800360
:10557000750F009006FA805C850A82850B83A3A3D1
:10558000A3A3A3A3A3A3E4F0A3F0AA0AAB0B8514DF
:1055900082851583A3A3E0F81261A8F9123EE18584
:1055A0001282851383E0C0E0851882851983E0F8B4
:1055B000745328F582E4341CF583D0E01268E904C2
:1055C000F0E511A2E05007AA12AB13123F7D85143B
:1055D00082851583E0F514A3E0F515E514451570F3
:1055E000030257B2851482851583A31261AE60DE73
:1055F000851482851583A3A3A3A3A3A3A3A3E0A2D9
:10560000E050CB851482851583A3A3A3A31268E57C
:10561000851482851583A3A3601F1261AFFA7901F7
:10562000851482851583A3A3A3A312586D12262E79
:105630008A128B13751101801012586DA3A3A3E079
:10564000F512A3E0F513751100E51245137003027E
:1056500055C1851282851383A3E065087004A3E019
:105660006509600F74FF6508700474FF65096003C5
:105670000255C1851282851383A3A3A3A3A3A3A369
:10568000122855851282851383A3A3A3A3A3A3E0A5
:10569000FC7405122D07126F0EA91012437F7402BD
:1056A000122A2EE9703C851282851383A3A3A3A33B
:1056B000A3A3A3A3A3A3122855851282851383A3B2
:1056C000A3A3A3A3A3A3A3A3E0FC7403122D071217
:1056D0006F0EA90F12437F7402122A2EE970030283
:1056E00055C1E50F2510C333240AFA7B00123ED5BD
:1056F0008A0A8B0BEA450B700302559F8A828B83C3
:1057000074D2126AF48A828B83A3A3E8F0A3E9120D
:1057100077CDA3E51012795BE50FF0E510603CEA68
:105720002405FAE4350BFBE50A240AF8E4350BF905
:105730008A828B831260747403122D07125892129E
:105740002A4DAC10EC2CFCE433FD8A828B83126F63
:105750000E123EB17403122A2E800D8A828B83A30F
:10576000A3A3A3A3E4F0A3F0E50F7003025578A868
:10577000101251B8E50A28F8E50B39F9E8240AFABD
:10578000E439FB850A82850B83A3A3A3A3A3A3A368
:10579000A3125AF57401122D07125892122A4DAC19
:1057A0000FEC2CFCE433FD123EB17403122A2E02DE
:1057B000558A851882851983E060271266B4122AFB
:1057C0005575085375091C7808122A517403122D57
:1057D000071266BD122A55901B8A122855750800BB
:1057E0008029EEFAEFFB12332FE9702F1266B41204
:1057F0002A5575085375091C7808122A5175080036
:105800007808122A55901B8A1228557808122A55B2
:1058100012584F1244B77407122A2E7403122D0720
:105820001268E5600B7403122D07126F0E123F7D94
:105830007401122D071268E5600B7401122D071216
:105840006F0E123F7D7405122A2E7F100226CDE5C1
:10585000162402FCE43517FDE5161262CE3517F565
:1058600083E0F97A067B8022EA12649B2212587147
:1058700022E0F8A3E0F5838882221268CEAA0AAB60
:105880000B22850A82850B83E0F8A385820A858333
:105890000B22E0F50CA3E0F50D750E00780C2274D8
:1058A000F112243D74F4122AC78A088B09ECFEED2C
:1058B000FF740B122D077403F0122A9F12408B12F3
:1058C000328D8A0A8B0BAC0AAD0B7403122A9F121D
:1058D0004085E9600A125A716010E06401600B852E
:1058E00018828519837484025A1F8E828F83A3A322
:1058F000A3A3A3A3A3A3E06013F46010125A7170D2
:1059000016EE24141268D76003F4700B8518828594
:1059100019837482025A1F127675E064217002A303
:10592000E060030259F6851882851983748C125A37
:10593000A5640360030259E07401122AA71260599A
:10594000122FFFE960030259E01242C58A0A8B0B4D
:10595000EA450B7003025A208E0C8F0D750E0078ED
:105960000C122A4D7C157D00123EB17403122A2EB2
:10597000850882850983A3A3E50A2415FCE4350B79
:10598000FD7409122977127301C0E0E50A241E1282
:105990005A5FD0E0125EC0C0E0E50A241F125A5FD1
:1059A000D0E0F0E50A2420125A5F7405F0EE240BD3
:1059B000FE50010FFAEFFB1238F97D007C007900F0
:1059C000EEFAEFFB12446F9080CE1228517A007BE2
:1059D00010901BC0E0F912403D7404122A2E80780A
:1059E000125A67122A55125A7F122FE77401122A8F
:1059F0002EE9702C8014125A67122A55125A7F12FF
:105A00002FED7401122A2EE9700D851882851983F5
:105A1000E4F012429580098518828519837488F014
:105A2000127301F50A780A122A557401122A97880E
:105A30000A890B780A122A51E508240CF582E4350C
:105A400009125A774480F50B780A122A5112640A17
:105A50001244637405122A2E740C122A2E805EF5ED
:105A600082E4350BF58322EE126066E0F50A780ACF
:105A700022125AAA640322F583E0F50AA3E022EE7B
:105A8000240BFCE43FFD8E828F83A3A3A3A3A3A3D7
:105A9000A3A3A3126F4B8E828F83A3A3A3A3A3A35D
:105AA000A3A3E0F922F0125AAA22125AAE22EE243F
:105AB00013F582E43FF583E022EEFAEFFB7F070265
:105AC00026CDC082C08374F3122AC7851882851937
:105AD00083E4F004122D07125AF57403122D07AA5D
:105AE00082AB831248E9AA18AB191248B3740D129D
:105AF0002A2E0264B6EAF0A3EBF02274F612243DDB
:105B000012648EFAA3E0F9EAF8901BD1E058F50888
:105B1000A3E059F509E5084509601C7808122A51E7
:105B2000901B8A1228551268D4FD7C0012655A1207
:105B300044C37404122A2E0252FC74EA12243D74E7
:105B4000DB122AC78A148B157512007513001258C0
:105B5000683515F5831261AFF50EAC18AD197A00F2
:105B60007B00799C122D117A04790012487DEAF5A8
:105B70000C851882851983E02AF0F8E50EC3984059
:105B800003025D5EE0C3950EF509C39404400375FE
:105B90000903E50975F01AA4FAABF0123F778A12EF
:105BA0008B13EA45137003025D61750D00AE12AFF1
:105BB00013850E08025C3B7C087D0079FF125DDDD9
:105BC000123EBD850A82850B83A3A3A3A3E0702D9B
:105BD000850A82850B831268E5700C127057F0EE0F
:105BE000241812705A8010125DE5F090055EE014E2
:105BF000C0E0125DC1D0E0125E10E4803490055E1A
:105C0000E004C0E0125DC1D0E0125E08C39403EE70
:105C10004003025CC31260627402125E0864017089
:105C200003025CD0EE2415125DE8F0EE2416125D3E
:105C3000E8F0EE241AFE50010F050DE50DC395099D
:105C40004003025CFBE508C3950C4003025CD9AA43
:105C5000087B001247F38A0A8B0B050890054B124C
:105C60005DF112408B850A82850B83126BE3125D16
:105C7000CFE8F0A3E9125E22850A82850B83A3A3F5
:105C8000A3A3A3A3A3A3A3A3E0C0E0125DB7D0E0A6
:105C9000F07401122D07E4127821126BE3740212E2
:105CA0002D071260747401122A9F1248C5E964011D
:105CB0006003025BB77404122D07125DD912408B8A
:105CC000025BC3125DE6125E0864036003025C249B
:105CD000EE241512705A025C2AE50CC3950E40059D
:105CE000750800801DE50EC3950CF5088014125D43
:105CF000E5F0EE241AFE50010F050DE50DC39509E0
:105D0000505F740E122AA7AA087B007987122D1102
:105D100005087418122D07125DF112408B741012D1
:105D20002D07125DD912408BEE2412F8E43FF9746E
:105D30000E122D07126F0E88828983EAF0A3EB12F0
:105D40005E107403125E22741D122D07E0C0E01273
:105D50005DB7D0E0126E7D70951270578093750913
:105D600000750A00780A122A557812122A51780909
:105D7000122A55E50EF5097809122A557405122DD7
:105D800007E0FD7C00E5141262C53515FBE5141231
:105D900062CA3515F583E0F91244FF7405122A2E04
:105DA000E51245136007AA12AB13123F7D7425124A
:105DB0002A2E7F0E0226CDEE2419F582E43FF583CC
:105DC00022125DC522EE2418F582E43FF58322EE0F
:105DD0002412F582E43FF58322AC82AD83EE240ADF
:105DE000FAE43FFB22EE2414F582E43FF5837401CC
:105DF00022126BE78E828F83E8F0A3E9F07C5F7D4F
:105E000005EE1262C53FFB2212781CA3A3A3E02279
:105E1000F0EE12704E7402F0EE2416F582E43FF5B7
:105E20008322F0EE2417F582E43FF5837402F0122A
:105E30005DC574FFF02274F612243D74F9122AC76E
:105E4000125EB51279DD123EC9EAF8EBF9ECFAED13
:105E5000FB851882851983122CF0EE2404FE500174
:105E60000F8E828F83E0C0E07404122D07D0E01201
:105E70006E54F87405122D077401F07406122D0784
:105E80007401F0901B94F0901B9D04127839A312BA
:105E90006F0E901B95125AF5E8901B9E125EC090F3
:105EA0001B93F0AA18AB1912478DE96003124787BC
:105EB00074070252F98A088B09EA12649B35092299
:105EC000F0127799E02274F212243D74FF122AC76F
:105ED0007508007E007F001231B58A0A8B0B1231E3
:105EE000B58A0C8B0DA80CA90D80050508126BDD79
:105EF000E84970F7901D2FE0600764016003025FBE
:105F0000D11231B58A0C8B0DA80CA90D8003126B30
:105F1000DDE849603688828983126F0E90054BE078
:105F20006A7003A3E06B600D12606D39F583126F28
:105F30000EEA4B70D988828983126BE390054BE09F
:105F4000687003A3E0697003025FD17A167B0012C8
:105F50003F778A0C8B0DAE0CAF0DEE4F6073900542
:105F60004B126BE38E828F83126074900540E08E3B
:105F7000828F83A3A3F0123317E98E828F83A3A3AA
:105F8000A3A3A3F0901EC2127810F07C5F7D0512CF
:105F9000605912408BAA18AB19794112467F8518B7
:105FA00082851983E06008901B8A126BE380047875
:105FB000FE79FF8E828F83A3A3A3A3A3A3A3126062
:105FC00074126061E50AF0A3E50BF08E0A8F0B05F1
:105FD00008901B9EE0F8E508C398500479008027DC
:105FE000E508C398F9C39406400279057800800D4E
:105FF000E50A12606E350B125A77F50B08901B9E5E
:10600000E0FAE8C39A40E97509007809122A557840
:106010000A122A51E9F5097809122A55901B9EE0C7
:10602000F5097809122A55AD087C007A957B1B90FA
:106030001B93E0F91244F97405122A2E901D2FE0EB
:1060400060046401700BEE4F6007EEFAEFFB123F45
:106050007D12478774010276A4EE240BFAE43FFB1D
:1060600022EE1260662212606E3FF58322E824144D
:10607000F582E422E8F0A3E9F02274F012243D74E2
:10608000FF122AC78A0A8B0B7E008E0E8E0F1258C3
:1060900068125A621261AFFFAC18AD197A007B002A
:1060A000799D122D11851882851983E0F8EFC39828
:1060B0004003026153E0C39FFEC3940B40027E0A7B
:1060C000EE75F007A4FAABF0123F778A088B098AC5
:1060D0000E8B0FEA450F6079750C00801A850882D7
:1060E000850983A3A3A3A3A37403F0E5082407F5FC
:1060F0000850020509050CE50CC39E5056AC08ADCE
:1061000009E50C2FFAE43400FB798B122D11850878
:1061100082850983A3A3A3A3A3E0146008146013DA
:1061200014601F80B8850882850983A3A3A3A3A355
:10613000E480B7850882850983A3A3A3A3A3740180
:1061400080A8850882850983A3A3A3A3A3740280E2
:10615000997E007508007808122A55780E122A5187
:10616000EEF5087808122A55EFF5087808122A5536
:106170007405122D07E0FD7C00E50A1262C5350B9F
:10618000FBE50A1262CA125A62E0F912450574056B
:10619000122A2EE50E450F6007AA0EAB0F123F7DA7
:1061A0007401122A2E0251C7A3E0F5838882A3123C
:1061B0005871E02274EE12243D74FE122AC78A0C34
:1061C0008B0D751000751100125868350DF583128E
:1061D00061AFF50AAC18AD197A007B0079A3122FD4
:1061E000F3126F08C3E50A9AE49B507685188285FE
:1061F0001983A80AE0C398FEA3E09400FFC3EE94BD
:1062000004EF940040067E037F008004EE4F60524E
:10621000EEFAEFFBEA75F015A4FAA8F075F015EBAD
:10622000A428FB123F778A088B098A108B11EA4554
:1062300011602F750B00750E00C3E50E9EE49F5094
:1062400026AC08AD09A80AE50E28FAE43400FB796B
:10625000A2122FF3E5082415F50850020509050ED2
:1062600080D7750B8B7E007508007808122A557848
:1062700010122A51EEF5087808122A55E50AF50899
:106280007808122A557405122D07E0FDAC0BE50CB9
:106290001262C5350DFBE50C1262CA350DF583E0BF
:1062A000F912450B7405122A2EE51045116007AA54
:1062B00010AB11123F7D7402122A2E7F0A0226CDE6
:1062C000FCEFFDE5082402FAE4221262CE22240F3C
:1062D000F582E42274F612243D74FF122AC7EAFE06
:1062E000EBFFEE1258693F1276C9A3A3A3A3A3A3A1
:1062F000A3A3E0F9124847E9851882851983F07550
:1063000008007808122A557401122A97880889090A
:106310007808122A517508357509807808122A51B3
:106320001263301244637405122A2E74010252F96A
:10633000790112633AFAE43FFB22EE2402FCE43FC7
:10634000FDEE240F2274F412243D74FA122AC712AF
:106350005EB512641FEEFAEFFB1248E3E960171214
:10636000328D8A0A8B0BAC0AAD0BEEFAEFFB1240B2
:1063700085E96401700A7401122D07E4F0A3800915
:106380007401122D07EEF0A3EF127855A3A3A3A377
:10639000A3E0F8A2E650087403122D077401F0E898
:1063A000A2E750087404122D077401F07405122D31
:1063B00007E4F004122A9F124811E9851882851912
:1063C00083F09080B6122CD81232B17A007B001282
:1063D00032BD7A007B001232B7750A00780A122AA1
:1063E000557401122A97880A890B780A122A517566
:1063F0000A34750B80780A122A5112640A12446317
:106400007405122A2E740602523B7901E508240213
:10641000FCE43509FDE508240FFAE43509FB22F513
:10642000831276D3FF2274F612243D74FF122AC71A
:1064300012648EF509A3E0F508A909123A43E9852B
:106440001882851983F0901D2FE0700B7401650888
:106450007005A9091245B3EE240B1268D7702C758C
:1064600008007808122A557401122A9788088909A9
:106470007808122A517508367509807808122A5151
:106480001263301244637405122A2E02632BEAFE53
:10649000EBFF12649A3F1264A122EE2413F582E40A
:1064A00022F583E0126583E022C082C083901D2F15
:1064B000E070031245B9D083D0820229FB74F41234
:1064C000243D74EF122AC7EAFEEBFF12656FF50850
:1064D000E439F509901B8AE065087004A3E06509BA
:1064E0007052A818A919880A890B780A122A5175BE
:1064F0000A11750B00780A122A517C007D007A81FE
:106500007B001240017404122A2EE97027750A00DC
:10651000780A122A557401122A97880A890B780A78
:10652000122A51AC08AD0912655A1244BD74031207
:106530002A2E8021750A11750B80780A122A51784B
:1065400008122A511268D4FD7C8412655A1244C97B
:106550007404122A2E741102523B12655E22EE243C
:1065600002FAE43FFBEE1262CE3FF583E0F922121D
:10657000657322125AAE126583127784F8E4C8F963
:10658000EA2822F8A3E0F9888289832274F1122490
:106590003D74EB122AC712648EFCA3E0FAE4CAFB36
:1065A000EC2AF508E43BF509901B8AE065087004C5
:1065B000A3E06509600302665B88828983A3A3E088
:1065C0009410500F88828983A3A3E08518828519CF
:1065D0008380088518828519837410F0E0C0E07408
:1065E00004122D07D0E01276B5A3A3A982AA83894D
:1065F0000C8A0D750E00780C122A4D7407122D07A7
:10660000E0FC7D007408122D07AA82AB83123EB114
:106610007403122A2E7404122A97880A890B780AA6
:10662000122A51750A11750B00780A122A517C0042
:106630007D007A817B00123FFB7404122A2E7404C1
:10664000122D07E0901BC96005E0D2E48003E0C290
:10665000E4F0851882851983E480088518828519FD
:10666000837484F0E0C0E07401122D07D0E0F07470
:1066700002122D07E508F07403122D07E508F01249
:1066800052DF3F1266BB122A557402122A978808FD
:1066900089097808122A517508147509807808123A
:1066A0002A5179031263321244637405122A2E743C
:1066B00015025A5AE5161252E03517F583E0F5082F
:1066C00078082274F612243D74E0122AC7EAFEEB21
:1066D000FF90054DE064086008E064046003026810
:1066E000C9AC18AD1912444B901D2FE06402702FF5
:1066F00012328D7402122D07AC82AD83124085E9EF
:10670000601D1232938A088B09A808A9098518828E
:10671000851983E0687003A3E06970030268C912F9
:1067200034617402122D07AC82AD83126F081233EC
:106730005FE9640170030268C97418122A9F12325B
:106740009F7402122D07AC82AD837418122A9F1217
:106750004085E960321232998A088B09A808A90994
:10676000851882851983E0687003A3E06960188545
:106770001882851983126BE39005411260747A4187
:106780007B05794B124685901D2FE06004640170F3
:10679000751232938A088B09A808A909EE241112F0
:1067A00068D7687003A3E069605C7402122D07AAC1
:1067B00082AB8312484D8A088B09A808A909E849C9
:1067C000602688828983A3A3A3A3E06401600D8867
:1067D000828983A3A3A3A3E06402700C7402122D28
:1067E00007AA82AB8312480B9005DB1268E560169E
:1067F000901D23E06401700E126F089005DCE0F537
:1068000083888212262E7900126F08122E55900569
:106810004B1268CE126F08123419740B122D07E454
:106820001268E9F8A3E0F9740C122D071260747471
:106830000B122A9F1248C5E9603F7C087D00790051
:106840007418122A9F123EBD740E122D07AC82AD31
:10685000837418122A9F124085E9601D7402122D5C
:1068600007AC82AD83740E122D07AA82AB83124847
:10687000E9740B122A9F1248B37402122D07AC82DE
:10688000AD83740E122D07AA82AB831248E9740BF4
:10689000122A9F1248BFE96030740C122D07126B48
:1068A000E3851882851983E0687003A3E0696019A5
:1068B000851882851983126BE3740C122D07126000
:1068C00074740B122A9F1248B374200252F9E0FC30
:1068D000A3E0FD22EE240EF582E43FF583E022F5ED
:1068E00082E438F58312709022F08518828519832E
:1068F000E02274E812243D74F7122AC78A168B1717
:106900007F008F088F091244518A128B13EA4513B6
:106910007003026AC77E00800DEE75F00CA4F812B9
:106920006AE412480B0E851282851383E0F8EEC3E9
:106930009840030269FC750CFF750DFF750EFF751D
:106940000FFFEE75F00CA4F8A9F0126AE412484D9E
:10695000EA4B60D18A828B83A3A3A3A3E064016086
:106960000D8A828B83A3A3A3A3E0640270B7126B8A
:10697000AE7010126BC5780C122C7A126BBB780CAF
:10698000122AAF126ACCA3A3A3A3A3A3A3A3780C38
:106990001229B740847A0E7B00123F778A0A8B0B4C
:1069A000126ACCAC82AD8312408B850A82850B8340
:1069B000A3A3A3A3A3A3A3A3780C122C98E50A2452
:1069C0000C125A5FE4F0A3F0E5084509700E850A41
:1069D00010850B11851008851109801CE510240C09
:1069E000F8E43511F988828983E50AF0A3E50B12F2
:1069F00076BEF510A3E0F5110F026925EF700302D2
:106A00006AC07408122D077402126AF48518828510
:106A100019831260747E00EF75F00CA4FAABF012CB
:106A20003F778A0C8B0DEA450D7003026AC0805ACD
:106A3000850810850911EE75F00CA4F8A9F0E50C95
:106A400028F50AE50D39F50BAC08AD09AA0AFB12C9
:106A5000408B850882850983A3A3A3A3A3A3A3A333
:106A6000122CB4850A82850B83A3A3A3A3A3A3A39B
:106A7000A3122CF00EE510240CF582E43511126AF5
:106A8000ECF509AA10AB11123F7DE508450970A08D
:106A90007508007808122A5575081F75098078084E
:106AA000122A51780C122A51EFF97405122AA7E51F
:106AB00016240FFAE43517FB1244997405122A2E96
:106AC000AA12AB13123F7D7409025847EE75F00C01
:106AD000A4F8A9F0126AD822E51228F582E5133944
:106AE000F583A322126AD8AA82AB8322F583E0F54C
:106AF00008A3E022F0851682851783A3A3126BE713
:106B00002274F012243D1244518A088B09AE08AF5A
:106B100009EE4F7003026BAB750C0080787508FFAF
:106B20007509FF750AFF750BFFE50C75F00CA4F8ED
:106B3000A9F0126BCB12484DEA4B60578A828B83C7
:106B4000A3A3A3A3E06401600D8A828B83A3A3A304
:106B5000A3E06402703D126BAE7010126BC5780832
:106B6000122C7A126BBB7808122AAFE50C75F00C68
:106B7000A4F8A9F0126BD3A3A3A3A3A3A3A3A37800
:106B8000081229B7500DE50C75F00CA4F8126BCB68
:106B900012480B050C8E828F83E0F8E50CC39850E9
:106BA00003026B1DEEFAEFFB123F7D0251C7EA2490
:106BB0001BF582E43BF583E0640122EA2417F582A9
:106BC000E43BF58322127831F58322126BD3AA823B
:106BD000AB8322EE28F582EF39F583A32212606D94
:106BE00039F583126BE722E0F8A3E0F92274F11281
:106BF000243D74F6122AC7EAFEEBFF750800901CCC
:106C0000891268E570507A377B00123F77901C89B3
:106C1000EAF0A3EB1273B060197C377D00790012A3
:106C20003EBDEEFCEFFD901C89126F0E12441BE975
:106C3000700B8518828519837488026D961276858B
:106C4000126E307401F07C277D449004EB126F0EBD
:106C5000122EEB026E2BE0C8126E307402F0EEFCC6
:106C6000EFFD12730612441BE9700C85188285191A
:106C7000837488F0750801750A53750B1C780A1225
:106C80002A51126F1E12285512768524281272F985
:106C9000FC126F5012768524141272F9F91243799E
:106CA0007404122A2E126E3D126E5A24311272F999
:106CB000604312739AFAE433FB123F77901C89E029
:106CC0002432126E6F6022750C53750D1C750E0008
:106CD000780C122A4D12739AFCE433FD126F3C12A9
:106CE0003EB17403122A2E800C8518828519837494
:106CF00088F0750801780A122A51126F121228556D
:106D000012768524111272F9FC126F3312768524E3
:106D10002B1272F9F91243797404122A2EE9F8122F
:106D200076852434126E5A24341272F96035127347
:106D300091FAE433FB123F77901C89E02435126E00
:106D40006F6042750C53750D1C750E00780C122A7D
:106D50004D127391FCE433FD126F2A123EB174039D
:106D6000122A2EE508A2E04025126E3D1272F9703B
:106D700008901C8912735D60157B007A00790012FF
:106D80004421026E2B8518828519837488F085183A
:106D9000828519837486F07409122D0774021275A6
:106DA00008126E4C122D07E8F0A3E9126E54F50894
:106DB0007808122A557401122A97880889097808D8
:106DC000122A517508207509807808122A51790114
:106DD0007406122AA7EEFAEFFB1244637405122A16
:106DE0002E12734C70427409122D077402F0126E49
:106DF00046122D071273B7122A557401122A97886A
:106E00000889097808122A517508207509807808C0
:106E1000122A5179017406122AA7901C89126F0E4A
:106E20001244637405122A2E124415740A025A5A27
:106E3000126E3422242EF582E438F58322901C89C8
:106E4000127322243122901C89125871A3A3126B51
:106E5000E7740122127508A3E022F582E438F58375
:106E6000126E65C822E9F0901C89E0F8A3E022F8D0
:106E7000A3E03400F988828983EAF0A3EB1276C399
:106E800012709022C082C083901C891268E56075E0
:106E9000E0C824351268DF6006126F2A123F7D12A7
:106EA000768524321268DF6006126F3C123F7D1235
:106EB000768524121268DF6009126F12126F0E12AB
:106EC0003F7D12768524151268DF6006126F50121E
:106ED0003F7D12768524291268DF6009126F1E1229
:106EE0006F0E123F7D127685242C1268DF60061229
:106EF0006F33123F7D901C89126F0E123F7D901CE4
:106F000089E4F0A3F00264B6851882851983126FB4
:106F10004B2212731F2412F582E438F58322127378
:106F20001F2429F582E438F5832212731F243512B9
:106F30006F452212731F242C126F452212731F24D7
:106F400032126F4522F582E438F583127784FB22F2
:106F500012731F2415126F452274F112243DEAFEAC
:106F6000EBFF8C088D09750A018C0C8D0D750E00D8
:106F7000780C122A4D7C177D00123EB17403122A40
:106F80002EEE241212705AF0A3F0EE241512705A4D
:106F9000F0A3F01274C4E0603AEE2412F8E43FF972
:106FA000880C890D1274ED123F7712707B6021E519
:106FB00008241212706E122A4DE508241112706214
:106FC000125DD0126F0E123EB17403122A2E80038E
:106FD000750A00E5081274D26035EE2415F8E43F16
:106FE000F9880C890D1274ED123F7712707B605591
:106FF000E508241512706E122A4DE508241412704B
:107000006212704A126F0E123EB17403122A2EE5FC
:107010000AA2E0402BEE2412F582E43F1268E360FE
:1070200009125DCF126F0E123F7DEE2415F582E43A
:107030003F1268E3600AEE12704A126F0E123F7D33
:10704000A90A025ABD750A0080CB12704E2224157F
:10705000F582E43FF58322EE2414F582E43FF583C4
:10706000E422127598E025E0FCE433FDEE2212756F
:1070700098E0F50CA3E0F50D780C22850C82850DC7
:1070800083EAF0A3EBF0850C82850D8312709022C9
:10709000E0F8A3E0F9E8492274EE12243D74ED1201
:1070A0002AC7890B8A0E8B0F750C00750D00750AA7
:1070B000FF7510FF7511FF750800750900851882AE
:1070C000851983E41273B060177403650B6006744E
:1070D00002650B7010E0C824301272F9650F60056C
:1070E00079000272F47C277D447A007B00122EEB3B
:1070F0007401650B700A8518828519837485803D3B
:10710000E50B60067403650B7019901C8912732CD3
:10711000F07403650B7029E50E60298518828519C6
:1071200083801A7402650B701BE50E901C89700534
:1071300012732C80081276881273437402F0800454
:10714000E50B601E12733270191273566005126ED1
:1071500040800A12735D600A12768524341272F937
:1071600014F0127356601A126AEEF50912739A122D
:10717000777DCA243212736E241D12731324258066
:107180002612735D6026901C89E02417F508A3E0A1
:107190003400F50912739112777DCA243512736E8B
:1071A0002406127313240E1272F9F50A7409122DB3
:1071B0000774021268E96003027262E5084509700B
:1071C0000302726212733270047E2280027E218575
:1071D0000882850983126E4C122D07126074901C70
:1071E0008DE0C0E01276852430F582E438F583D056
:1071F000E0F07412122D077403F0AC0CAD0D740A9C
:10720000122A9F12408B850882850983A3E0F50C22
:10721000780C122A55780A122A55740C122A97886B
:107220000C890D780C122A517810122A51E5082485
:1072300006F50CE43509F50D780C122A511273018C
:10724000F97409122AA7EEFA7B001244D5740812C9
:107250002A2E7C277D449004EB126F0E122EEB0237
:1072600072F2126E46122D071273B7122A5574016C
:10727000122A97880889097808122A5175082075FA
:1072800009807808122A5179017406122AA7901CE5
:1072900089126F0E1244637405122A2E12734C70F9
:1072A0004E1276852419F582E438F583126E4E125B
:1072B0002D07E8F0A3126E602418F582E4381266F8
:1072C000BB122A557401122A978808890978081276
:1072D0002A517508207509807808122A517901749D
:1072E00006122AA71273061244637405122A2E127C
:1072F0004415790174130262B8F582E438F583E02D
:10730000221277A7E022901C89E02417FAA3E03428
:1073100000FB22F50CA3E03400F50D12731F229040
:107320001C8912732622E0F8A3E0C82212733C7471
:107330000122901C8912733CE06401221273261210
:10734000734322242FF582E438F5832212731F122F
:107350006E34E06402221273A0901C8922127361C1
:10736000221273262434F582E438F583E022F58274
:10737000E43AF583E028F8A3E039F9E824FEF58241
:10738000E934FFF583E0F510A3E0F511901C89E0E6
:1073900022901C8912736125E0221273A025E0223D
:1073A000901C891273262431F582E438F583E0229B
:1073B000126E66F9E84922E8F0A3126E65F583883B
:1073C00082A3E0F508780822C082C0837B007A851A
:1073D00079011244210264B674F412243D8C088DA4
:1073E00009EA240F12785B1277C1126BE38C828D4D
:1073F00083A3A3126074EA240E12785BA3F0126BCD
:10740000C51276D31274F912769750010FFCEFFD76
:10741000E5082406FAE43509FB12408BEE2408FE49
:1074200050010F8E828F83E0C0E01277A3D0E0126C
:1074300075A0F8127795E812769B50010FE50824A5
:10744000121274CCA3F0E50824151274CC12750244
:10745000F8A30EAF831274C4E8F06028E508241284
:107460001274E4123F7712786E6019E50824121244
:1074700074D71274C6E0F912439D8A0A8B0BAE0AC8
:10748000AF0B8007E50824111274CC8E828F83E045
:10749000F8A3AE82AF83127590E8F0601FE5082470
:1074A000151274E4123F7712786E6010E508241507
:1074B0001274D71274D2F912439D8005127590E4AC
:1074C000F002523EE508241112759822127598E4D4
:1074D000F022127596E0221275981268CEEEFAEF3D
:1074E000FBE50822F8E43509F9880A890BE01274F3
:1074F000F22225E0FAE433FB22FF1278068C828D1B
:107500008322A3127508E022F08E828F832274F604
:1075100012243D12782912641FEEFCEFFDAA08AB7D
:107520000912408BEE2408FE50010F8E828F8312C9
:1075300078B41275A0850882850983A3A3A3A3A3A9
:1075400012769750010F8E828F83E0F8E508125E65
:10755000BAF583E812768C7403687026EEFCEFFDB2
:10756000E508240BFAE43509FB12408B8E828F83E9
:10757000A3A3A3A3A3A3A3A3E0C0E0127590D0E0AC
:10758000800A12778912767FE8F0A3E9F00252FCB4
:10759000E508127596222414F582E43509F5832254
:1075A0001277E212780A2274F212243DEAFEEBFF0F
:1075B000750A00EE24101268D7C3940C400D1277A0
:1075C000FB127688240B1272F9F50AA80A1251B838
:1075D000E8240DFAE439FB123F778A088B09EA4563
:1075E00009700302766FEE1258693F1277B38A82F0
:1075F0008B831277DE7078EEFCEFFDEA2403FAE469
:107600003509FB12408BEE2408FE50010F8E828F4D
:107610008312780285088285098312769A50010FB9
:1076200012767DE4F0E50A6046E508240DF8E435BD
:1076300009F98E828F83E0C0E012767DD0E0127768
:1076400090C0E0127675D0E012768C850A0B8E829F
:107650008F83E0FCA3E0FBEC888289831276AC5038
:107660000109EE2402FE50010F150BE50B70DFAA95
:1076700008AB098032E508240C12759822E508242D
:107680000B12759822901C89127322221276902276
:107690001277EA0EAF8322A3A3A3A3F0A3E9F0EE2F
:1076A0002402FE22122A2E7F060226CDF0A3EBF042
:1076B000E82402F8221276B9221276C3A3221276A7
:1076C000C3E022F08882898322126F498A828B83E9
:1076D00022F583E0FEA3E02274F112243D12782DFE
:1076E000126AEC850882F583E0F50BA38582088594
:1076F0008309A3A3E0F50A1277F63400FB123F7763
:107700008A0C8B0DAE0CAF0DEE4F60378E828F83DF
:10771000E50BF0850882850983E0FA127842850836
:1077200082850983A3A3A3A982AA83890C8A0D88D1
:107730000E780C122A4D1277F13FFB123EB1740302
:10774000122A2E025AB974F712243DEA2413F8E4DF
:107750003BF988828983127784F5838A8212786163
:107760001276BE126583A3E0FA88828983A3A3E020
:10777000F9EA8C828D83A3126075025144F8E433D8
:10778000F9901C89E0FAA3E02212780AF8E50822B1
:10779000127690E02212779922E5081262CE35091E
:1077A000F583221277A722E508240EF582E4350935
:1077B000F583221277B7221276D1FF8E828F83E073
:1077C000221277C6A322F08A828B83A3221277D15A
:1077D00022F08A828B83A3A3A322A3A3A3A312775D
:1077E000E2221277EAAE82AF8322F08E828F83A3E9
:1077F00022AC0A7D00EE2404FAE42212649A3FF5DA
:10780000832212780A228E828F83127784F9EA22E9
:10781000E08E828F83A3A3A3A3A3A322127821A324
:1078200022F0850A82850B83228C088D091278311B
:1078300022EA2413F582E43B22F08508828509833D
:10784000A322127867EA8E828F83A3F0A3E91278CD
:1078500055E50AF0221277EAA3A322F582E43BF56C
:1078600083E08C828D8322A3E0F8E4C8F922850AA4
:1078700082850B83EAF0A3EB1278211270902274B8
:10788000F612243D127829126BE1E8FEE91274F930
:1078900012769B50010F1262C03509FB12408B8E8D
:1078A000828F83A3A3A3A3A3A3A3A31278B4A3A3A8
:1078B000F00252FC1279F0A3A32274F212243D12BA
:1078C000794575F00CA4A9F02401FAE439FB123FC4
:1078D000778A0C8B0DEA450D60648A828B83A385C1
:1078E00082088583098A828B83E50BF0750A008004
:1078F00046EEFCEFFDAA08AB0912408BEE2408FE11
:1079000050010F7904FAEFFB123EC9EAF8EBF9ECEB
:10791000FAEDFB850882850983A3A3A3A3A3A3A3F0
:10792000A3122CF0EE2404FE50010FE508240CF500
:107930000850020509050AE50AC3950B40B3AA0CD5
:10794000AB0D0276A71278311277B7F50BA3AE8292
:10795000AF8322E0FA127867EA28221277D1A3A334
:10796000A3A32274F612243D1278291279DD123E67
:10797000C9EAF8EBF9ECFAEDFB8508828509831278
:107980002CF0EE2404FE50010F8E828F83E0F885E8
:1079900008828509831277DAC3940650051279F5B7
:1079A0008037850882850983A3A3A3A3E064FE60D2
:1079B0000E850882850983A3A3A3A3E0F4701B129C
:1079C00079E812768C850882850983A3A3A3A3E0B6
:1079D000F47007127A02F0A3E9F00252FC1276D199
:1079E000FF7904EEFAEFFB228E828F831279F02268
:1079F0001279F5A322E0850882850983A3A3A3A3B6
:107A0000A322127806850882850983A3A3A3A3A3D2
:107A1000A3A322C082C08353FF3F85FFFF53F1FE23
:107A200043F30C53F2F375868075C48090072E746F
:107A300070F0A374C1F0A3E0541FF0900732740FEC
:107A4000F0A3744AF09007247470F0A374C1F0900E
:107A50000728E0541FF090072A74CEF0A3E0540FDB
:107A60004410F07407900726F0A37437F0900729AC
:107A7000E4F090072804F090072B7412027ECEC029
:107A800082C083EA241BF582E43BF583E0F8A3E09F
:107A9000F9900B43E8F0A3E9F08A828B83A3E064BA
:107AA00003600A8A828B83A3E06404700575C2D8E0
:107AB000800375C23B8A828B83A3E0600B14601243
:107AC000146019146020802875C508900B3F74233A
:107AD000802675C509900B3F7412801C75C50A90ED
:107AE0000B3F7409801275C50A900B3F740680081D
:107AF00075C50B900B3F7403F08A828B83A3A3E0C0
:107B0000601575C44243F310C28543FD205389EFCD
:107B100053ABEFD2BD800375C4029070C1E09007F3
:107B200037F0A3E4F075D1F775D608FC7D02E5C205
:107B3000F4F97A377B07123EBD438640900B42E44E
:107B4000F0900B41027ECE74F312243DEAF8EBF97B
:107B5000900B3DE0127C2FFAEC2AFAE43DFBC3EADD
:107B60009401EB940140077A007B00027BF9AFA8F7
:107B7000C2AF900B3D127C26EFA2E7E433FEEFA2EA
:107B8000E792AF7A007B008012127C1CC0E0127B6F
:107B9000FED0E0F0050B0AEA70010BC3EA9CEB9DF6
:107BA00040E7A2AFE433FEC2AF900B3DE0650A6050
:107BB0002EEEA2E092AF127C267A007B0080121299
:107BC0007C1CC0E0127BFED0E0F0050B0AEA7001DD
:107BD0000BC3EA9CEB9D40E7A2AFE433FEC2AFA823
:107BE0000A127E25E50BF0E8127EAEE07006900BDF
:107BF000427401F0EEA2E092AF7F050226CDAE0AFC
:107C0000E4CEFF850B08743B2508F508E43409F53C
:107C100009E5082EF582E5093FF58322E82AF58279
:107C2000E93BF583E022E0F50A127C2FF50B22FAFE
:107C3000743B2AF582E4340BF583E02274F61224B7
:107C40003D74FF122AC77E00127E66706490093769
:107C5000E0FAEA127E6E70080A900937E06A70F264
:107C6000900938E06A6011EAF0A3E07004E595A39A
:107C7000F090093974218020A3E0601DA3E0F8E5AD
:107C800095C398F8900939E0F9E8C3995009E0C321
:107C900098F0E595A38001E4F01239DD8A088B099C
:107CA000A808A909C3E894F0E99400400B7E01807C
:107CB00022900939E4F0801BC3E89470E9940040F5
:107CC000067E02D285800CE8496008900939E07090
:107CD000027E04900B3EE06006E4F0EED2E4FE90FB
:107CE0000B41E06018A895900B40E0F9E8C399F8C3
:107CF000900B3FE0C3985005900B41E4F0900B428D
:107D0000E0604E900B41E07048A3E4127EC8F8E4B6
:107D1000C8F9743B2874093990072C127EC8743B4B
:107D200090072D127EC0900731F0900730E054E0AC
:107D3000127EC8E06401F0A2AFE433F8C2AF75D69A
:107D40001000E5D6A2E450F975D1EF75D710E880A0
:107D500029A2AFE433FAC2AF900B3DE0F8127E25C2
:107D6000E06016E5D6A2E44010E5D1A2E4400AEABC
:107D7000A2E092AF1239E38005EAA2E092AFEE6092
:107D800018900B43E0F8A3E0F9E849600CEEFA79AB
:107D900000E0F583888212262E901D2FE064027089
:107DA0004FE586A2E04049A2845045900B45E06033
:107DB0006AAA18AB19795212467F851882851983F1
:107DC000E07058900B45E4F09080B21228517A8010
:107DD0007B00900BE7E0F912403D7404122A2EE973
:107DE00060397A807B00900BE7E0F9123F17802B17
:107DF000900B45E070257401F07A807B00900BE7D2
:107E0000E0F91240497A807B00900BE7E0F9123FDD
:107E10001D7A01900BE7E0F91240197401122A2E25
:107E20007F020226CD127EB522C082C0837A007BFB
:107E300000127E66702E78007900E8FCE9FDEC2CDB
:107E4000FCED33FD74372CF58274073DF583A3E018
:107E500065C270050AEA70010B08E8700109C3E900
:107E6000940140D68069900937E0127E6E2225E0A9
:107E7000F8E433F9743728F582740739F583A3E001
:107E800065C222C082C08375D1EF900B3DE0127EA7
:107E9000AEE4F0900B3E04F0E595900B40F0A37437
:107EA00001127EC06006900B427401F080216401D3
:107EB000127EB422F8743B28F582E4340BF5832259
:107EC000127EC8127EB4E022F0900B3DE022F0D08A
:107ED00083D0820229FBC082C083901D3DE06401F3
:107EE00060031239C580E874F712243DE97003126B
:107EF00039CB79007F010226CD74F412243D890824
:107F0000EAF8EBF9E5087A007B00703B8027127FE6
:107F10005AE088828983F0A3A882A983E5C2F4F598
:107F20000B127F4CE4F0A3E50BF0900937E004F06E
:107F30000AEA70010BC3EA9CEB9D5009127F4CA327
:107F4000E065C260C9C2857F040226CD900937E092
:107F500025E0FEE433FF127F5A2274372EF5827437
:107F6000073FF5832274F712243DE970051239D1D9
:107F700080047A007B00027EF4D2855386BF43AB37
:107F8000100229FB53ABEF43C480438640C28502F5
:107F900029FBC082C083901D3DE06401600312395B
:107FA000D7027ECF74F712243DE970051239DD80C7
:107FB000047A007B00027EF4C082C083851882852B
:107FC0001983E0F8A3E0F9E84960128A828B83EC18
:107FD000F0A3E824FF18E934FFF94870F2D083D009
:107FE000820229FB7407F5D575D40C7407F5D37597
:107FF000D214D2B80229FBFF851A87000229FBFFA1
:108000000000000000000000000000000000000070
:108010000000000000000000000000000000000060
:108020000000000000000347FB363131E52E7B2FB6
:1080300057412B43F740D94053390000000000005E
:108040000000000000000000000000000000000030
:108050000000000000000000000000000000000020
:108060000000000000000000000000000000000010
:10807000FFFFFFFFFFFFFFFF0008000400020001F9
:10808000FFFFFFFFFFFFFFFFFFFFFFFFFFFFFFFF00
:10809000020502000801740000000000000000005A
:1080A00000000082003A003B000200020603E9FFE4
:1080B000FFFF0A000000000000000000FF00FFFFBB
:1080C000FFFF96511800000000FF64000000E80365
:1080D0000000FEFFFFFF0B0000006AAEE7FF004854
:1080E00000009F02000097511800010000003000BE
:1080F000000009433886102700000400000019E042
:10810000FCFFF8FF0000E71F0300805101003C0066
:108110000000100E000008000000030000001F0017
:108120000000FA00000060EA0000E20400005802CB
:108130000000BC0200003200000000F8FF07000051
:108140000000000000000A74F712243DE990059831
:10815000F090054DE4F0123E819005B0E4F0A3F0FC
:10816000900599F0A3F0123401901D2FE060046493
:10817000017006124889122DBF123E879004D5E483
:10818000F0A3F01246BB02B3A074EC12243D74D7E6
:10819000122AC7EAFEEBFF54806068900598E0F968
:1081A000123EED8A088B09EA4509604F7C00800188
:1081B0000CEC75F003A4F8A9F074F428F582744D62
:1081C00039F583E493F4602CE493F88508828B837B
:1081D000E06870DCAA08EC75F003A4F874F528F5E3
:1081E00082744D39F583E493C0E0740193F583D034
:1081F0008212262EAA08AB09123EDBEEFAEF64804B
:108200000286CDEF5420601E12324B8A088B09EA99
:108210004509600A123167AA08AB09123EDBEEFA83
:10822000EF64200286CD901D2FE06402705FEEA205
:10823000E0501F900552E0640F7011790012313741
:10824000E96009901EA9122CD812314FEE64010288
:1082500085E4EF54406036901BC3E06406702874D8
:108260000BF0901EC1E0F9750801750900750A0050
:10827000750B00900540E07808122998AA08AB0910
:10828000AC0AAD0B12483B901D1F02868BEE5420AA
:1082900070030285B57A207B00900598E0F91240C2
:1082A0004FEA4B4C4D701A9005AC122CB4E8494A79
:1082B0004B700E750C01750D00750E00750F00806A
:1082C00061750C00750D00750E00750F0012406190
:1082D0008A088B098C0A8D0B9005AC122CB4E849E6
:1082E0004A4B602A9005AC78081229B7400E750CED
:1082F000FF750DFF750EFF750FFF801285080C8549
:10830000090D8C0E8D0F9005AC780C122AAF7401FC
:10831000780C122A7EE50C450D450E450F700302C0
:1083200084DC7C0079047A007B001232158A088B89
:108330000902840985188285198374FFF07401127B
:108340002D0774FFF07402122D0774FF12A2C0FAF9
:10835000A3E0FB7403122AA712D158123275E96404
:108360000160030283EBE508240D12AFA34480F8FB
:10837000A3E0F97424122D07E8F0A3E912C4B1A315
:10838000A3A3E0C0E07426122D07D0E012CF60A3B3
:10839000E0540860167424122D07A3E044011286ED
:1083A000F0C0E07428122D07D0E0F0E50812ECFCD4
:1083B000350912CF39601CE508240F12CC28A3E040
:1083C000C812C47938F583E0F87412122D07E8F06A
:1083D000A3E4F09080B61228517404122AA77407FF
:1083E000122A9F122D237404122A2E8508828509D1
:1083F00083A3A3A3A3A3A3A3A3A374061286F0F944
:108400001231F7850A08850B09E508450970030252
:1084100084DC7C007904AA08AB091232158A0A8B25
:108420000B850882850983A3A3A3A3E0F510A3E02D
:10843000F511E4F512F513780C7910122C4A40234B
:10844000E5082404F8E43509F9850C10850D118838
:10845000828983C3E09510F0A3E0951112F17F703B
:10846000A2800E850882850983A3A3A3A3E4F0A3B9
:10847000F0850882850983A3A3A3A3A3A3A3A3A331
:10848000A3E06401850882850983A3A3A3A3A3A312
:10849000702BE054046003028334850882850983CD
:1084A000A3A3A3A3A3A3A3A3A37406F07AB78508E9
:1084B000828509831288D3123149028403A3A3A3BE
:1084C000A3E06003028334850882850983A3A3A304
:1084D000A3A3A3A3A3A37401F00284031231E57C38
:1084E0000079017A007B001232158B09EA45096098
:1084F0000C7A207B00900598E0F9123F17850C0A52
:10850000850D0B7C0079047A007B00123215EA4B52
:10851000701580558A828B83A3A3A3A312E63BE543
:108520000898E5099940098A828B83A3A31286E201
:108530007C0079041232158B0DA90DEA4970D5C360
:10854000E50A9508E50B95095013C3E508950AF56A
:1085500008E509950BF509E508450970147A207BB3
:1085600000900598E0F9123F179005AC129AEC8044
:108570003FE50825E0F508E50933F509E4F50AF5D6
:108580000B7808122A497A207B00900598E0F912AE
:10859000403D7404122A2E124061EAC0E0EBC0E0B4
:1085A000ED9005ACFBECFAD0E0F9D0E0F8122CF03D
:1085B000EE6420802FE06007640160030286A6EE6F
:1085C00054106008122DFBEE64108018EE544060C9
:1085D00008122E73EE6440800BEE5480600B12483C
:1085E0008FEE6480FAEF0286CDEF5401600B1233F8
:1085F000D7EEFAEF64010286CDEF54086047122DE2
:10860000CB901D19E064017034901D1AE0602EF5C6
:1086100008E4F509F50AF50B9080CE780C122C7A57
:108620007808790C12234E7808122A497A007B08C0
:10863000900598E0F91240437404122A2EEEFAEFE6
:1086400064080286CDEF541060129005AAE0600520
:10865000E4F0122DCBEEFAEF64108071EF5440601D
:10866000459005D112CF3B6036901D23E064017028
:108670002E9005D212C85D12262E9005D712CF3B40
:10868000600612C85D12262E9080CE1228517A0004
:108690007B40900598E0F91240437404122A2EEEB4
:1086A000FAEF64408027EF5402600A1233D1EEFAE9
:1086B000EF64028018EF5404601612CE0F79019017
:1086C000054B12CC3C122D41EEFAEF6404FB800402
:1086D0007A007B007429122A2E7F0C0226CD8E820E
:1086E0008F83A3A31286E822E0F508A3E0F5092210
:1086F00012C4B5A3E022C082C08374EA122AC77CE8
:10870000167D007900AA18AB19123EBD7408122D0F
:10871000077402F0900541129ABF1287367409124D
:108720002D0712CC4B7413122D07E412CF72124690
:10873000A9741602D52BE8F0A3E9F090054B12D4EA
:10874000EE2274F712243D74DA122AC7EAFEEBFF18
:10875000EE4F602DAC18AD191232757406122D074C
:10876000E0601E7417122D07E0FD7401122D07E062
:10877000FCEEFAEFFB790012311FE9600479A48066
:10878000027900742602B39D74F412243DEAFEEBD4
:10879000FF8E828F83A3A3A3A3A3A3E054406019F9
:1087A00012E29D12CC3C12332FE960077AFF7BFF67
:1087B00002887D12E29D028870901D2FE0600764A0
:1087C000016003028865900538E0A2E14003028859
:1087D0006512B3E312CD3BA3A3A3A3E0FA88828979
:1087E00083A3A312D8BA8E828F83A3A3A3A3A3A328
:1087F000A3E054106004794080027900750AFE7588
:108800000BFF780A122A511288C1122855AC08AD04
:108810000912E29D12CC3C122DD17404122A2EE5CD
:10882000086A7003E5096B600B12BEFA6A7003A355
:10883000E06B703F750A00780A122A5579028E8221
:108840008F8312B4A4FCA3E0FDAA08AB0912337114
:108850007401122A2E7508CDAA081288CF12314948
:10886000E9604C8057901D2FE0640270E89005414C
:1088700012CC3C74FE6A700374FF6B60D812E29DE8
:1088800012E10D12332FE98E828F83600B12BC1818
:1088900012F451E4F0A3800312F43FF07C3D7D31EB
:1088A0008E828F8312CC3C1246AFE9F50870A9EE98
:1088B0004F60097901EEFAEFFB1231F1A908028F3E
:1088C00071EE1288C6222411F582E43FF583228ED0
:1088D000828F8312F428E0F92274F612243DE9FE17
:1088E000EAFF7A0F7B00123ED5EA4B601F8A828B2B
:1088F00083740CF0EEA3A3F0EF8A828B8312B1593C
:10890000900598E0F9123EE17900802FEEF91232DD
:108910001B8A088B09A808A909E849601C88828974
:1089200083A3A3A3A3A3A3A3A3A3740612ED02E0AE
:10893000F9122E85EEF91231F7791002C8BA74F4E3
:1089400012243D8A088B098C0A8D0B900552E06435
:108950000F702CEA4509450A450B602390054DE050
:1089600064086005E0640470167808122A497A01E8
:108970007B00900598E0F912403D7404122A2E0203
:108980008F7174F212243DEAFEEBFF8C0A8D0B8985
:1089900008740E122D0712E640850C82F583E4F070
:1089A000A312CE04F5838882E0F912330BE9602626
:1089B00012CC2F12332FE96402701B8E828F83A397
:1089C000A3A3A3A3A3A3A3A312BA85850C82850D99
:1089D0008312CC4B800375080012B49B14602E14D4
:1089E000604314606414606C146048147003028A5D
:1089F0007424FE7003028A8E147003028A97147026
:108A000003028AAA147003028AB8028ACE780C1272
:108A10002A51AC0AAD0BEEFAEFFB122DE3740212F1
:108A20002A2E028AB3AC0AAD0BEEFAEFFB122DE947
:108A3000028AD812CC2F12332FE96003028ACEEEBD
:108A4000FAEFFB122E37028AD8A908EEFAEFFB12D2
:108A50003377805F12B91964027073E508700A12E7
:108A6000E1C37003A3E069706FEEFAEFFBA908128F
:108A700032FF803F12E1C37003A3E069705012B966
:108A80001964027049EEFAEFFB1232E7804AEEFAFF
:108A9000EFFB1233F5804112E1C37003A3E069706C
:108AA0002DEEFAEFFB123383802EEEFAEFFBA908CE
:108AB00012338FE9F5088020901D23E064017009CE
:108AC000EEFAEFFB12339B800F750800800A7508E1
:108AD000007AD37B0012430DA9088007A90A74030A
:108AE000122A2E7F060226CD74F412243D74D6126B
:108AF0002AC78A088B098A828B83A3A3E0F91232E2
:108B00001B8A0A8B0BAE0AAF0BEE4F7003028C1A56
:108B1000850882850983A3A882A983E0C0E012CCDE
:108B200016D0E012E64DE064F160338508828509D5
:108B300083A3E064CD6027850882850983A3E06470
:108B40001A601B850882850983A3E064E9600F85AC
:108B50000882850983A3E064E16003028D12901D01
:108B60002FE0600764016003028C3B8E828F83A339
:108B7000A3A3A3A3A3A3E054087003028C3B8E829B
:108B80008F83A3A3A3A3A3A3A3A3A37405F0901D02
:108B90002FE0600464017053850882850983A3E097
:108BA00064E960479005CD12CF3B600612C85D12A4
:108BB000262E9005CF12CF3B6031900538E0A2E120
:108BC000502912D12EA3A3A312B9578882898312E8
:108BD000CC3C123431EA4B6012850882850983A3AC
:108BE000E0F99005CF12E2A112262E8E828F83A388
:108BF000A3A3A3A3A3A3A3A3E0640270108E828FF8
:108C000083A3A3A3A3A3A3A3A3A37406F0850882AD
:108C1000850983A3A3E0F91231F71231E5901D2FE6
:108C2000E064027011901EAFE0F508A3E0AA08FB13
:108C3000E4FCFD12314F742A028F6E79001231F17B
:108C4000E97003028D12901D2FE06007640160033C
:108C5000028CE7900538E0A2E14003028CE712CFD6
:108C6000367003028CE78E828F8312CC3C74041220
:108C70002AA712D158123275850882850983A3E08C
:108C800064E97023128E1C122A5585088285098397
:108C9000A3E0F50A780A122A55128E2912CC3C124A
:108CA00032AB7402122A2E740D122D0712CF2C1221
:108CB000F0AA12CC4B7409122D07E06004794080B1
:108CC000027900740F122D0712B957740D122D0777
:108CD00012CC3C122DDDE9600E8E828F83A3A3A3FC
:108CE000A3A3A3E04420F0EE2404F50AE43FF50B2F
:108CF0008E828F8312AFB0E0F9850A82850B8312D2
:108D0000CC3C123E93850A82850B83EAF0A3EB02EA
:108D10008B8D850882850983A3E0C0E07402122D43
:108D200007D0E012A7A012E0A9E508240B12AFA318
:108D3000C0E07403122D07D0E012E910E0AA18ABCE
:108D4000197031122D1D901D2FE0600464017027F1
:108D50007402122D07E0701F12E29D12CC3C1233F8
:108D60002FE970399005CD12CF3B603112C85D12EA
:108D7000262E80031233057402122D07E064E97079
:108D80001C128E1C122A55750AE9780A122A5512ED
:108D90008E2912CC3C1232AB7402122A2E901D2F57
:108DA000E0600764016003028BEB900538E0A2E10C
:108DB0004003028BEB8E828F83A3A3A3A3A3A3A361
:108DC000A3A3E06402703C8E828F83A3A3A3A3A31A
:108DD000A3E05404602D12E29D12CC3C12332FE923
:108DE0008E828F83700F12E2A174FFF0A312A9503C
:108DF0007405028C0CA3A3A3A3A3A3A3A3A374032E
:108E0000028C0C850882850983A3E064E960030273
:108E10008BEBEEFAEFFB1233AD028BEB8E828F837E
:108E200012D9F0750A01780A22E508240C12BF193C
:108E3000E0F98A828B83A3A3A3A3A3A3A3A3A31272
:108E4000D8B22274F412243DEAFEEBFF75080075D7
:108E500009008E828F83A3A3A3A3A3E0603B7508C0
:108E60000812CC2F79FF122F878B0BEA450B60106D
:108E700075082C8E828F83A3A3A3A3A3E0D2E0F076
:108E80008E828F83A3A3A3A3A3E054036401600392
:108E9000028F4D430811028F4DEE241812B91C6049
:108EA00049EE241A12B91C6003F4701D12E1C3705C
:108EB00003A3E0697006750822028F4D90054DE00E
:108EC00064046003028F4D801CEE241BF582E43F96
:108ED00012B965241A12B91CFAEE2419129B7C12DD
:108EE0002E49E97068750901806312CC2F12332F67
:108EF000E96402700375080112E1C37003A3E0691D
:108F00007006E508D2E1F508E50860158E828F83CA
:108F1000A3A3E07006E508D2E58004E508D2E6F5F3
:108F20000812CC2F12332FE964017006E508D2E055
:108F3000F5088E828F83A3A3E0601212B49BF9120E
:108F4000330BE964016006E508C2E0F508901D2FC7
:108F5000E0600464017012E508A2E1400CE509A29A
:108F6000E04006E508D2E7F5080288BC7418122A2A
:108F70002E7F040226CD74EC12243D74C3122AC73E
:108F8000EAFEEBFF85188285198374FEF0A304F0D6
:108F9000751000751100750900901D2FE0640270B6
:108FA000248E828F83A3A3A3A3E06019901EAD1229
:108FB000CF3B6011901EADE0F50AA3E0AA0AFBE4E6
:108FC000FCFD12314F7405122AA78E828F83A3A352
:108FD000A312CF2E12CC3A123275E970030293B26B
:108FE00078017407122D07E0C394024002780074E0
:108FF00009122D07E0C3940240027800740E122D6E
:1090000007E064F87003A3E0F470030293B2740EF7
:10901000122D07E064F97003A3E0F470030293B229
:10902000740E122D07E064FA7003A3E0F4700302DB
:1090300093B2740E122D07E064FB7003A3E0F4708A
:10904000030293B27408122D07E0F990053BE06922
:1090500060030293B2E8A2E040030293B2901D2F96
:10906000E06402700B7429122D07E060030293B2D2
:1090700012BA7C7424122D0712B986241C12BA7FEE
:109080007412122D0712CC4B740B122D07E0601DC9
:10909000741C122D07E0FD7406122D07E0FC8E8271
:1090A0008F8312CC3A790112311FE9703D74051299
:1090B0002A9F123161E9F508740B122D07E0702F19
:1090C000900535E0602974225508642260217442BD
:1090D0005508644270147422122D07129A98600F7A
:1090E0007422122D07129A9E60057ACF0293B4E97A
:1090F000A2E6506C901D2FE060046401701B900587
:1091000038E0A2E150137422122D0712B4A41228E1
:10911000DA01010B379100B2937422122D0712B4B9
:10912000A424FD601214600F24FD600B24FD600771
:1091300024FE60030293B27422122D07129AD77094
:109140000F7422122D07A312C85DA3E0640D6010F6
:109150007405122A9F12336BE964017003029A812D
:10916000EE242DF582E43FF58312A2B37003A3E051
:10917000697021750A00780A122A55780A122A5550
:10918000EE242F129B7C129AA412CC3C1232AB74A8
:1091900002122A2E740B122D07E070030292431262
:1091A0009AA412CC3C1234318A0A8B0BEA450B701C
:1091B000030292DA7406122D07E0F88E828F83A3E1
:1091C000A3E028F8A3E03400F9E8240D129A86F809
:1091D0008A828B83A3A3A3E068600EE88A828B83D4
:1091E000A3A3A312B147129AEC79047406122D07B7
:1091F00012A603E02AF8A3E034008882F583A3AA2C
:1092000082AB83123EC98A0C8B0D8C0E8D0F850AA2
:1092100082850B83A3A3A3A3780C1229B740030272
:109220009A819080EA780C122B81850A82850B83C3
:10923000A3A3A3A3E50CF0A3E50DF0A3E50EF0A313
:10924000E50FF0901D2FE064026003029387900504
:109250004DE064046008E064096003029A81E50857
:10926000A2E54003029315EE242F12B91CC0E0744E
:1092700002122D07D0E0129AFDC0E07403122D07F0
:10928000D0E0129AF5C0E07404122D07D0E0F0741B
:1092900016122D07E0640170267410122D07129A21
:1092A000B47003A3E0697017740E122D0712CC3C42
:1092B00012332FE9640270077416122D07E4F012BE
:1092C0009AE21228517406122AA77409122A9F12D0
:1092D0002D237404122A2E029A81900592E06401D3
:1092E00060030292437422122D07129A987009E5C6
:1092F00008A2E650030292437412122D07E0F470A4
:1093000003A3E0F4600CEEFCEFFD7405122A9F123B
:10931000316D029A81A2E64003029A817422122DD5
:109320000712D13B7016741C122D07E064027054B2
:109330007405122A9F79001232FF80487422122D80
:1093400007129A9E7014741C122D07E06404703486
:109350007405122A9F1232F3802A7422122D0712EA
:109360009AD7700C79007405122A9F1233778014F3
:109370007422122D0712B4A6640C70087405122A08
:109380009F1233A7029A81E0600764016003029A8A
:1093900081900538E0A2E14003029A817429122DE0
:1093A00007E060267410122D0712CC3C12485FE9CA
:1093B000700A7AD37B0012430D029A818E828F83CA
:1093C000A3A312E2A1A3E0C2E5F07416122D07E0F8
:1093D000601DEE2402F8E43FF9E8FAE9FB12D141FE
:1093E00014F012D141F87416122D07E8F07006E55A
:1093F00008C2E7F508E508A2E35061751110A2E282
:109400005018740A122D07E054E3F0740A122D0765
:10941000E0131313541FF8E0802CA2E4502A740ABE
:10942000122D07E01313543F5407F86009740768BE
:10943000600B18E87007C3E508C2E7F508E83333A6
:1094400054FCF8E054E348F0740A122D07E0C0E041
:109450008E828F83A3A312B08ED0E0F090054DE0F2
:1094600064046008E064096003029538740E122DEC
:109470000712E1D07003A3E069601F740E122D077C
:1094800012CC3C12332FE96402600F740A122D07CC
:10949000E0540364016003029A817407122D07E00F
:1094A0007041EE242F12B91CC0E07402122D07D0B7
:1094B000E0129AFDC0E07403122D07D0E0129AF575
:1094C000C0E07404122D07D0E0129ADD1228517406
:1094D00006122AA77409122A9F122D237404122A35
:1094E0002E80527422122D0712D13B7016741C125A
:1094F0002D07E06402703E7405122A9F7900123233
:10950000FF80327422122D07129A9E7014741C125E
:109510002D07E06404701E7405122A9F1232F38036
:10952000147422122D07129AD7700A79007405124A
:109530002A9F123377029A8174615508700302964C
:109540003FE508A2E0506D12B94E7405122A9F1231
:109550002E79E9705C1232A5E9F5097416122D070F
:10956000E0700F7410122D07129AB47003A3E06913
:109570006042A90912B94E7405122A9F122E7FE982
:109580006024E508A2E3500C85188285198374FFD6
:10959000F0A3800C740E122D07129ABFE8F0A3E915
:1095A000F0751004800EE508C2E5F5087509008025
:1095B0000353089FE508A2E5503FEE242F12B91C83
:1095C000C0E07402122D07D0E0129AFDC0E07403CF
:1095D000122D07D0E0129AF5C0E07404122D07D0C6
:1095E000E0129ADD1228517406122AA77409122A71
:1095F0009F122D237404122A2EE508A2E6400302CE
:109600009914A818A919880A890B780A122A51A94D
:1096100009129A8F122A9F1231557402122A2EE9CA
:10962000F50970030299147422122D0712B4A46470
:1096300001600302991474104510F5100299147416
:1096400007122D07E06401705D7422122D0712B419
:10965000A46405701EA818A9198808890978081239
:109660002A51129A8D122A9F1231557402122A2EF3
:10967000029A817422122D07129AD77029740E1241
:109680002D0712CC3C12485FE9601BA818A9198865
:109690000A890B780A122A51129A8D122A9F1231C6
:1096A000557402122A2E7416122D07E070257407C5
:1096B000122D07E06401700C7422122D07E0F812DD
:1096C0009AD7600CEEFCEFFD7405122A9F12316DE3
:1096D000029A811231EBE96003029A81741D122D06
:1096E00007E0700302978D7420122D0712B957748A
:1096F0001F122D07E0FA741E122D07E0F9122E49F1
:10970000E9607D741F122D07E0701E740E122D0784
:10971000129ABF12F461FAA3E0FB1248538B0BEAD2
:10972000450B600302990E80517420122D0712CC54
:109730003C741F122D07E0F9122E438518828519FB
:109740008312E10D7808740D122D07E06002781085
:10975000740C122D07E06004740828F8740A122DA6
:1097600007E0600108088E828F83A3A3E028FAA394
:10977000E034008A82F583E014F075104002990EFF
:109780007508007808122A55790B0298C7740E12D2
:109790002D0712CC407409122D07E060030298E2F5
:1097A000E508A2E350030298E27407122D07E06473
:1097B00001607A790085188285198312CC3C122EBB
:1097C0009D8A0A8B0BA80AA90BE849601C8882892C
:1097D00083A3A3A3A3A3E06401605288828983A327
:1097E000A3A3A3A3E064026044EE242D12B9518523
:1097F000188285198312CC3C1234318A828B83E51E
:10980000824583600FA3A3E0F912344FE96005C3DA
:10981000940840197410122D0712CC3C12485FE9CD
:1098200070030298BD7409122D077404F07800E8E3
:10983000F5097809122A55741E122D07AC82AD83E2
:10984000740F122D0712CC3C740A122D07E0F91286
:109850002EAF7401122A2EE9600F7510208E828FB0
:1098600083A3A312B4A4543FF0741D122D07E0602B
:1098700023740E122D0712B957741E122D07AA82D7
:10988000AB8312326F85188285198312E10D744003
:109890004510F5107407122D07E06401601579007A
:1098A0007410122D0712B957740E122D0712CC3CEA
:1098B000122E4FE508A2E350377940803575080035
:1098C0007808122A557902740F122D0712B95774AD
:1098D00011122D0712CC3C1233717401122A2E0280
:1098E0009A81E508A2E3400302982D784002982F60
:1098F00079007410122D0712B957740E122D071229
:10990000CC3C122DDDE9600674204510F5101232B2
:10991000A5E9F509851882851983E064FE7003A323
:10992000E0F47003750900901D1CE06401600302FF
:1099300099C7EE241312B91CF47003A3E0F470036A
:109940000299C7740E122D07C3E094F9A3E094FFA7
:10995000507512BA7C7410122D07E0687003A3E0F2
:109960006960647410122D0712CC3C1248538A0AA5
:109970008B0BA80AA90BE849604D88828983A3A3B1
:10998000A3A3E06401600D88828983A3A3A3A3E05D
:10999000640270337430122D07740112E657F8A375
:1099A000E0F9743B122D0712CC4B7430122A9F122F
:1099B00048B9E960127433122D07AA82AB831248AA
:1099C0000BE96003124295E508A2E74003029A8181
:1099D000E5097003029A818E828F83A3A3A3A3E07B
:1099E000FA7B00123F778A0A8B0BEA450B70030261
:1099F0009A81EE2404F512E43FF5138E828F83A33F
:109A0000129AC9122A4D851282851383E0FC7D00CB
:109A1000123EB17403122A2E7407122D07E0C0E023
:109A2000742B122D07D0E0F0742E122D07E4F0A352
:109A3000F0742B122A97880C890D780C122A517514
:109A400008007808122A557810122A51E509F508FD
:109A50007808122A5512B9101228558512828513DA
:109A600083E0F97408122D0712B957AA0AAB0B123A
:109A700032637408122A2EE96007AA0AAB0B123F60
:109A80007D743D0286D6F582E412EE9522790012AD
:109A9000B91412B95B74072212B4BE64062212B460
:109AA000C0640722EE242BF582E43FF58312B96BE4
:109AB00012B9152212D4EEEE241312BF016822123D
:109AC000D4EE85188285198322A3E0F50CA3E0F576
:109AD0000D750E00780C2212B4C0640322F0129AA5
:109AE000E222EE2425F582E43FF58322E4F0A3F0A0
:109AF000A3F0A3F022F0EE243112BF0122F0EE24F5
:109B00003012BF012274F412243DEAFEEBFF8C08F0
:109B10008D09901D19E0600F12E1C37003A3E06985
:109B20007005122DCB8052790012CC2F122E9D8AF7
:109B3000828B83E58245836035A3A3A3A3A3A3E01F
:109B40005418602AE508241C12CC28122855E50870
:109B5000241312CC28122855EE2418129B7C129B39
:109B60008112CC3C122EB57404122A2E800B79007F
:109B7000129B8112CC3C122DF5028F7112BF01F99C
:109B8000228E828F83A3A3A3A3A3A3A3A3A312B90B
:109B90006B12CC1B2274F012243D74EA122AC78A7D
:109BA0000A8B0BEA2402F50EE4350BF50F0A0AFBCB
:109BB00012484D8A088B09AE08AF09750801850A5D
:109BC00082850B83A3E0F509750C01AC0EAD0F7413
:109BD0000B122D07AA82AB8312408B7413122D0730
:109BE00074FEF0A304F07415122D077402F07408CB
:109BF000122D07E4F0901E45E0700EEE4F700AE55E
:109C00000970067508C3029DD190054DE064086097
:109C1000067508C2029DCD850A82850B83A3A3A386
:109C2000A3A3A3A3A3A3A3E0A2E1500EA2E3500524
:109C3000750C04800C750C038007A2E35003750CAF
:109C400002EE4F7003029CE08E828F83A3A3A3A336
:109C5000E06404600D8E828F83A3A3A3A3E064035A
:109C6000700C7404650C602C7403650C60268E8285
:109C70008F83A3A3A3A3E06402600D8E828F83A3CE
:109C8000A3A3A3E0640170317402650C6006740143
:109C9000650C70188E828F8312CC3C12334DE970A4
:109CA0003F12A946122D0712CC4B80348E828F832F
:109CB000A3A3A3A3E06402600D8E828F83A3A3A35A
:109CC000A3E06401700A8E828F8312CC3C122E13A3
:109CD000E50A2402FAE4350BFB12480B7E007F00F4
:109CE0007413122D07E064FE7003A3E0F4704612B3
:109CF00048ADE97040E509601B901E4E12CC3C1245
:109D0000334DE9700F901E4E12A94A122D07E8F04C
:109D1000A3E98020850A82850B83A3A3A3A3A3A321
:109D2000A3A3A3A3E05402F9122E077413122D0764
:109D3000EAF0A3EBF07413122D07E064FE7003A3A6
:109D4000E0F470067508C7029DCDE509F50D780DA4
:109D5000122A55850A82850B83A3A3A3A3A3A3A3D9
:109D6000A3A3A3E0F9E50A2402FCE4350BFD741477
:109D7000122D0712CC3C122D477401122A2EE970C5
:109D80004CA90CE50A2402FCE4350BFD7413122DDA
:109D90000712CC3C1248778A0E8B0FAE0EAF0FEE37
:109DA0004F601F74026509700D8E828F83A3A3A379
:109DB000A3A3E0D2E3F07415122D07E4F0750800B8
:109DC000800B7413122D0774FEF0A304F0E50970E4
:109DD00009AA18AB19124691800AFCA90CAA18AB63
:109DE000191232EDE9FCEE4F6053E50960208E82D6
:109DF0008F83A3A3A3A3A3E0D2E6F0740265097046
:109E00000D8E828F83A3A3A3A3A3E0D2E5F0850ADE
:109E100082850B83A3A3A3A3A3A3A3A3A3A3E0A2CD
:109E2000E6500D8E828F83A3A3A3A3A3E0D2E7F015
:109E30008E828F83A3A3A3A3A3A3E004F0E50870FD
:109E40003BEC60337D007A017B10123E8DEE4F605B
:109E50000CE50A2402FAE4350BFB12480B741312CA
:109E60002D07E064FE7003A3E0F4600B7413122D61
:109E70000712CC3C122E13741602D8DCFC80C57479
:109E8000F712243D74F7122AC7EAFEEBFF90054D46
:109E9000E06403600DE064016008E06409600302AF
:109EA0009FCE8E828F83A3E06003029F8C7C007D17
:109EB000007A027B00123E8D129FD38A828B83121E
:109EC000BA8590053E12CC4B795312468590054DCC
:109ED000E06409600990054B12CC3C12342B8518C4
:109EE00082851983740112CF7279421246859005DA
:109EF0004D7404F07401122A9F794A12467F74014E
:109F0000122AA77A437B0512408B901BC3E0640B97
:109F100070057406F0800B790090054B12CC3C1252
:109F20002D41901D2FE060046401701F900541E0F9
:109F300064FE7003A3E0F4602A79007401122AA77A
:109F400090054112CC3C1248778018E064027013EF
:109F500090053E12B9577A037B00123E8D12A8324B
:109F6000123E8D900538E0A2E35004D2F08002C288
:109F7000F012CF687952124685901D2FE06402706E
:109F80004A901EA9122CD812314F803FFC7D007AD6
:109F9000037B10123E8D901D2FE06402701B901BFE
:109FA000C3E0640B7003740AF0901D1DE4F0FA7BAB
:109FB00040900598E0F91240498E828F83129FDD10
:109FC00012CC3C122D4190054DE4F01231BB7409C6
:109FD00002B39DEE2402FAE43FFB22E0F8A3E0F98D
:109FE00090054B22C082C0839004D512CF3B701FD6
:109FF00090054DE014600924FC600A14600C800F89
:10A000009004E080349004DC802F9004DE802AE805
:10A010004960089004D612A614700C8A828B83A320
:10A02000E0F9122D29801D9004D512D145640270EB
:10A03000051233C5800E9005CB12CF3B600612C8C7
:10A040005D12262E02C52874F412243D74FE122AD5
:10A05000C78A088B097A007B04900598E0F91240C2
:10A0600049AA18AB19795012467F7A0F7B00123E2D
:10A07000D58A0A8B0BAE0AAF0BEE4F6020850882A3
:10A08000850983A3E0701690054BE0F47003A3E00C
:10A09000F4603B12A2AD7003A3E0696031850882D1
:10A0A000850983A374EA12A7981246857A417B0535
:10A0B000794B1246857A4B7B0579501246857A405A
:10A0C0007B0579E1124685EE4F700302A1578E821F
:10A0D0008F837402F090054BE0F47003A3E0F4600A
:10A0E0000A12A2AD7003A3E069704F85188285192A
:10A0F00083129FDBE8F0A3E912A79812467F900530
:10A100003E12AFC112CC4B7A417B05794B12467F90
:10A110007A407B0579E112467F750A00780A122A97
:10A1200055780A122A55901E94129FDE12ACF7122F
:10A13000CC3C1232AB7402122A2E85088285098328
:10A1400012A15CA3F090054D7403F0EEFAEFFB90C2
:10A150000598E0F9123EE17402028F6EA3E08E8250
:10A160008F832274F412243D74E8122AC7EAFCEBB0
:10A17000FD8C828D83A3A3A3A37808122C7A780880
:10A18000122C2A90054E7808122BE07F7F7E7F7973
:10A190000090054E7808122C7AE97808122A7EE59C
:10A1A00008A2E050297800900599801485088285DE
:10A1B0000983A3A3E069700108E508241412CC28E0
:10A1C00012A9E170E7E8C39F5004E8FFE9FE09E93E
:10A1D000C3941B40BC8C828D83A3A3A3A3122CB475
:10A1E000E8494A4B6079EC2404F508E43DF509851B
:10A1F0000882F583122CB490054E122CF07C187D49
:10A20000007900AA18AB19123EBD85088285098322
:10A21000122CB4851882851983122CF07404122D27
:10A22000077401F0900554E0C0E07405122D07D0CA
:10A23000E0F07407122D07E412CF7212469D806A77
:10A2400090054B12CC3C122D778A0A8B0BA80AA9D9
:10A250000B90054B12A2BC687003A3E069602D90BF
:10A26000059912A9E1602585088285098312A2B3A8
:10A270007003A3E069700C850882850983A3A3E0BD
:10A280006E60BDE508241412CC2880D6EE900540FF
:10A29000F012319DE9601390054DE4F09004E21254
:10A2A000CF3B600612C85B12262E028F6C85188287
:10A2B00085198312D4EE90054BE06822E8F0A3E9FB
:10A2C00012A2C422F0850882850983E02274F41268
:10A2D000243D74E8122AC78A828B83A3A3A3A3A375
:10A2E000A3A3A3A312D9EC7C0090054E7808122CEE
:10A2F0007AEC7808122A7EE508A2E0502FECF8EA02
:10A300002812BA74F8901E4DE0C398501F750801CA
:10A31000750900750A00750B00EC78081229987809
:10A3200008122C2A90054E7808122BE00CECC394EE
:10A330001B40B690054E122CB4E8494A4B604E7C47
:10A34000187D007900AA18AB19123EBD90054E1277
:10A350002CB4851882851983122CF07404122D07F1
:10A360007401F07407122D077401F0900554E0C0D9
:10A37000E07405122D07D0E0F07407122D07E412E7
:10A38000CF7212469D90054D7406F0801C90054DCD
:10A39000E4F0FCFD7A047B10123E8D9004E212CFB3
:10A3A0003B600612C85B12262E028F6C74F51224D5
:10A3B0003D74D1122AC78A088B098A828B8312BC0A
:10A3C00010741C122AA78A828B83A3A3A3A3A3A31E
:10A3D000A312A60C12CC331231CD741C122D07E03F
:10A3E000702C850882850983A3A3A3A3A3A3A3A399
:10A3F000E0C3940B40188E828F83A3A3A3A3A3A3CF
:10A40000A3A3E06402700712CC16E0F4600302A577
:10A41000FE90054DE06402700302A4E3E064067060
:10A420000302A4E39004D512CF3B600812A6147077
:10A430000302A51790054DE064086008E06404601D
:10A440000302A5FE741E122D0712A603A3A3A3A345
:10A4500012BC109004D5E0F849600712D14B640299
:10A46000607790054BE06E7003A3E06F600302A578
:10A47000FE74016A60167423122D07AC82AD837AD4
:10A480005F7B05124085E9600302A5FE7A007B022E
:10A49000900598E0F912404FEA4B4C4D600302A53D
:10A4A000FE90054E122CB4851882851983122CF06B
:10A4B000900554E0C0E07404122D07D0E0F074055C
:10A4C000122D077401F07406122D07740212CF7258
:10A4D00012478DE9600302A5FBEEFAEFFB1233BFD2
:10A4E00002A5FE9004D512CF3B702C7508007808A9
:10A4F000122A557808122A55EE2410F582E43FF509
:10A500008312CF2FA3A3A3A3A312B97412CC3C121E
:10A5100032AB7402122A2E8E828F8312BA85740790
:10A52000122D07E8F0A3E912A95012BA8574091296
:10A530002D0712B98612BF0BC0E0740B122D07D085
:10A54000E0F012CC161286E4740F7808122C89748D
:10A550000C122D07E508F07420122D07E0C0E074FE
:10A560000D122D07D0E0F07422122D07E0C0E07428
:10A570000E122D07D0E0F0741D122D07E0C0E0741C
:10A5800010122D07D0E0F0741E122D07E0C0E07409
:10A590000F122D07D0E0F0EE241012B91CC0E074A9
:10A5A00011122D07D0E0F07421122D07E0C0E074E5
:10A5B00012122D07D0E0F0742E122D07E0C0E074C7
:10A5C00013122D07D0E0F07423122D07A982AA835D
:10A5D00089088A09750A007808122A4D7C087D00CE
:10A5E0007417122D07AA82AB83123EB17403122A8C
:10A5F0002E7407122A9F122D3B8003124787742F57
:10A6000002B60DE0FA8E828F83A3A322A3E0F98A1B
:10A61000828B832212D14C64012274F712243D7480
:10A62000C9122AC71233DD90054DE06408601F90FF
:10A630004EF9E49390052FF0904EF9E49390052D98
:10A64000F0900556740112A78FA30412A78F7C23E4
:10A650007D0079007414122A9F123EBD90055EE0C1
:10A660007009741E122D0774018006741E122D07C6
:10A67000E412A7A0740FF0901E4C12CF727946120C
:10A6800046857401122D07E4F0901EC2E0C0E0740C
:10A6900002122D07D0E0F090053BE0C0E0740312F9
:10A6A0002D07D0E0F07404122D07E4F07405122D8C
:10A6B00007E4F07407122D07E4F090055EE0C39400
:10A6C0000F500CE0C0E07406122D07D0E080077434
:10A6D00006122D07740FF07C5F7D057408122D079C
:10A6E000AA82AB8312408B7C037D0079FF74101229
:10A6F0002D07AA82AB83123EBD900597E0C0E0749F
:10A7000013122D07D0E012CB7C7401122A9F123154
:10A71000C77A9B7B0579451246851232DB9005523C
:10A72000E0C0E0741C122D07D0E0F0900553E0C0AB
:10A73000E0741D122D07D0E0F0900540E0C0E074F9
:10A740001A122D07D0E012873A7418122D0712CC76
:10A750004B7420122D07E4F0900555E0C0E0741F03
:10A76000122D07D0E0F07434122D07E4F074291292
:10A770002D07E412A7981246857A417B05794B1282
:10A7800046857414122A9F1246A3743702B39DF0B3
:10A79000A3E4F0A3F0A3F022F07A3E7B05795322E4
:10A7A00012A7A422F085188285198322C082C08353
:10A7B0008A828B83A3E090054D6004E4F08070747E
:10A7C00008F090055EE070289004E212CF3B60082C
:10A7D000790012C85D12262E90054B12B9577A05E2
:10A7E0007B00123E8D90054B12CC3C12342B80180E
:10A7F0007900122D3590053E12B9577A067B00126A
:10A800003E8D12A832123E8D9005D112CF3B601FB3
:10A81000901D23E0640170179080CE1228517A00B9
:10A820007B40900598E0F91240437404122A2E02EE
:10A83000C52890054112B95B7A047B002274F4129A
:10A84000243D74EA122AC78A088B09EA2402FAE432
:10A850003509FB12484D8A0A8B0BAE0AAF0BEE4F3F
:10A86000700302A9418E828F83A3A3A3A3E0640196
:10A87000602A8E828F83A3A3A3A3E06402601D8E4F
:10A88000828F83A3A3A3A3E0640360108E828F83CF
:10A89000A3A3A3A3E06404600302A941E508240282
:10A8A000FCE43509FD740B122D07AA82AB8312401C
:10A8B0008B12A946122D0712CC4B7415122D07745A
:10A8C00001F07408122D07E412CF72124697E9FCCA
:10A8D0007D007A077B00123E8D8E828F83A3A3A317
:10A8E000A3A3E0C2E012A950740112E91F500109AC
:10A8F0007A027B00122256E88E828F83A3A3A3A341
:10A90000A3A3A3A3F0901D23E064017034901D1D48
:10A91000E06402702C8E828F83A3A3A3A3E0640162
:10A92000600D8E828F83A3A3A3A3E0640270121232
:10A93000B910122CB412C1FF122CF0EE241B12CF4E
:10A94000227416028F6E8E828F8312D4EE741322BD
:10A9500012A9542212C235A3A3A3A32274F2122473
:10A960003D74F8122AC7EAFEEBFF8C0A8D0B890DA5
:10A97000908070AC18AD197408122977750C00EE30
:10A98000FCEFFDAA18AB19124085E97003750C01A4
:10A99000900599801AEEFCEFFDE508240BFAE435EA
:10A9A00009FB124085E97023E508241412CC281213
:10A9B000A9E16024E50CA2E040DB850882850983DB
:10A9C000E0650A7004A3E0650B70DD8508828509E7
:10A9D00083A3A3E0650D70D0AA08AB097408028AAE
:10A9E000E01286E8E508450922C082C083900599F7
:10A9F00002C52574F712243D90059912F0A5800C2C
:10AA000012D75412BC13123F7DEEFAEFFBEA4B70E3
:10AA1000EF900599E4F0A3F002B3A074F412243D82
:10AA2000EAFEEBFFEE241312B91C6403700CEE2453
:10AA30000BFAE43FFB12484D800EE06402707C127A
:10AA4000CC1612CC3C1248538A088B09E5084509FC
:10AA500060698E828F83A3E0700F850882850983E9
:10AA6000A3A3A3A3A3A3E4805164F1600A8E828F01
:10AA700083A3E064E17027850882850983A3A3A3EB
:10AA8000A3A3A3E06401701685088285098312CC14
:10AA90003C122E13EE240BFAE43FFB12480B850800
:10AAA00082850983A3A3A3A3A3A3E0600E850882E4
:10AAB000850983A3A3A3A3A3A314F0028F7174F148
:10AAC00012243D8A088B09ECFEEDFF890A8A828BED
:10AAD0008312DB8F8A828B8312A15C12AB908A82F5
:10AAE0008B83A3A3E0C454F0FA88828983E04A12DE
:10AAF000ABA012A15C12AB9AE0333354FCF88E8207
:10AB00008F83E04812AB9AA3E033333354F8F88EC6
:10AB1000828F83E04812AB908508828B83A3A3A326
:10AB2000A3A3A3E0A2E0E4331313FA88828983E0AD
:10AB30004AF0E5082407F50CE43509F50D750E001B
:10AB4000780C122A4D7C087D00EEFAEFFB123EB124
:10AB50007403122A2EEE2408FE50010FE508240F7C
:10AB6000F50CE43509F50D780C122A4D7C037D00B7
:10AB7000EEFAEFFB123EB17403122A2EE50AC394DB
:10AB80000F400A12CC2412A15DA3A3A3F002E8F1A6
:10AB9000F0EEF8EFF9A30EAF832212ABA0A3A3222D
:10ABA000F08508828B83A3A32274F112243DEAFE70
:10ABB000EBFF890A8C088D098E828F83E08C828D51
:10ABC0008312BF3CAE82AF83E012C2EB12C4D5C485
:10ABD00012C2EB12AC68E012C2F212C4D3A2E2E4D9
:10ABE000338C828D8312C4D2131313541F12C2EB01
:10ABF00012C4D1A2E7E4338C828D83A3A3A3A31252
:10AC0000AC688E0C8F0D750E00780C122A4D7C08E6
:10AC10007D00E5082407FAE43509FB123EB1740310
:10AC2000122A2EEE2408FE50010F8E0C8F0D780C88
:10AC3000122A4D7C037D00E508240FFAE43509FB58
:10AC4000123EB17403122A2EE50AC3940F40118EEE
:10AC5000828F83A3A3A3E0C0E012CC24D0E08004C1
:10AC600012CC24E4F002E8F1A3A312BF400EAF839C
:10AC70002274F512243D8A088B098A828B83A3AE45
:10AC800082AF83E0F9122D5F8E828F83E064EB60E8
:10AC900024850882850983A3E064E1601885088221
:10ACA000850983A3E064F1600C850882850983A38C
:10ACB000E0641A7009850882850983A3E4F0901E78
:10ACC000A9122CD812314F750A01780A122A55851B
:10ACD0000882850983A3E0F5087808122A557900CF
:10ACE00090054B12ACF712CC3C1232AB7402122A14
:10ACF0002E1231E502B61012B95B90054122C082D6
:10AD0000C083E99005AB7003E480027401801EE00B
:10AD1000F902C528C082C0837C3D7D318A828B8345
:10AD200012CC3C1246AF02C528EAF0A3EBF002C5F4
:10AD30002874F612243D9005ABE0701B7C0079016D
:10AD40007A007B00123215EA4B600C8A828B8312E8
:10AD5000CF3B600312314302C8BAC082C08379047A
:10AD600012320FE9F8904EE8E493C398401079FF4F
:10AD700012320FE9F8904EEDE493C3985004790134
:10AD80008002790002C52874F012243D8A088B09DC
:10AD9000890B750C008A828B83A3A3A3A3A3A3A30F
:10ADA000A3E0F912321B8A0E8B0FAE0EAF0F750A9D
:10ADB00001EE4F600302AE7285088285098312AFEF
:10ADC000B0A3A3A3A3A3A312BFF912CC3C123203D6
:10ADD0008A0C8B0DAE0CAF0DEE4F700302AF9B8E45
:10ADE000828F83A3A3A3A3E4F0A3F0E508240CFAC5
:10ADF000E43509FB8A828B83E0C0E012E915D0E0DC
:10AE0000F0E508240D12AFA812DB5D12CC4B123313
:10AE10003BEE240F12E107E508241112AFA81288B7
:10AE2000C212CC4BE508241312AFA3C0E012B91034
:10AE3000D0E0F0750C01EE240612BEF1E0547FF074
:10AE4000A3E054FC12E64DE05404600302AEE99026
:10AE50001EBBE0F50875090074077808122C068EF1
:10AE6000828F83A3A3A3A3A3A3E04508F0A3E04597
:10AE700009F08E828F83A3A3A3A31286E2740778BE
:10AE800008122C89E5085407FCE50B606C8E828F54
:10AE900083A3A3A3A3A3A3A3A3A3740212C4D61240
:10AEA000B277600B90053912AFC1A3A312CC4BEC63
:10AEB000700302AF64EE240612F3F3547FF508A387
:10AEC000E054FCF509EC24FFF50EE434FFF50F74B3
:10AED00007780E122C06E508450EF8E509450FF92E
:10AEE0008A828B8312CC4B807B8E828F83A3A3A319
:10AEF000A3A3A3E0448002AE71EC7005750A008044
:10AF0000638E828F83A3A3A3A3A3A3E05420600C2A
:10AF1000123ECFEA547F7900245F80198E828F839E
:10AF2000A3A3A3A3A3A3E05410601A123ECFEA5434
:10AF30000F7900240A5001098E828F83A3A3A3A353
:10AF4000F0A3E9800D8E828F83A3A3A3A37401F0E5
:10AF5000A3E412A9507404F07A207B00900598E0D5
:10AF6000F9123F17E50CA2E0503412B970A3A3A365
:10AF7000A3A3A3A3A3A3E0F9EEFAEFFB123209E91E
:10AF8000601C12ECFB3F12CF39600912B4CE12CC18
:10AF90003C123F7DEEFAEFFB123F7D750A00A90AD5
:10AFA00002D8DF12BF19E02212BF1912D4EEEE222E
:10AFB000A3A3A3A3A3A312B95B850882850983A3D6
:10AFC0002212D4EE8E828F83A3A32274F412243D26
:10AFD00074F7122AC77E0012321BEA4B700302B0CC
:10AFE000878A828B83A3A3A3A3A3A3A3A3A3E064C1
:10AFF00006600302B0878A828B83A3A3A3A3A3A3C3
:10B00000A3E0FF8A828B8312B08EE0C0E074081246
:10B010002D07D0E012B4B512CC41123239EF5408EA
:10B02000606385188285198312B9577A007B0012F4
:10B0300031FD8B0BEA450B704C12F54D1246C77C67
:10B04000007D007A007B0080288E828F8312B4A45A
:10B05000F47003A3E0F4602D90054B12B97812CC84
:10B060003C1246C1E9641A601C7C007D00EEFAEFD8
:10B07000FB1231FD8A0A8B0BAE0AAF0BEE4F70C983
:10B0800079001246CD7E01EEF97409028F6E12BC72
:10B090001C12B095222408F582E438F58322C08280
:10B0A000C083EA4B70059005B080068A828B83A32B
:10B0B000A312B2AB60258A828B83A3A3A3A3A3A30D
:10B0C000A3E0540860E5EC4D60158A828B8312B4CE
:10B0D000A46C7003A3E06D70D280047A007B000240
:10B0E000C52874F212243DEAFEEBFF890A8C088D14
:10B0F000097A147B00123F77EA4B603F8A828B8388
:10B10000A3A3A3A3A3A3A3A3A3E412B4AAA3E50A9E
:10B1100012B147A3A312DCCA8A828B83A3A3A3A381
:10B12000E4F0A312B4C812B15912E0A5EA12ECFC83
:10B130003BF583E4F012B13EF0A3F0028AE3A3F002
:10B140008A828B83A3A32212B14B2212B14F22F029
:10B150008A828B83A3A3A3A322A3F012F4143BF54A
:10B1600083E4F02274F412243DEAFEEBFF89088C9C
:10B170000A8D0BEE4F700302B20074016508701265
:10B18000790112320FE9F8904EF3E493C3985022FC
:10B190008016740465087014790412320FE9F8906F
:10B1A0004EE8E493C398500A7911805674026508FA
:10B1B000704E8E828F83A3A3A3A3A3A3A3A3A3E50F
:10B1C0000812B98012DB6AE4F0A3F09005B012CF48
:10B1D0003B60178003E0F8A312CD42A3A312B2ABE9
:10B1E00088828983A3A370ED80039005B012E0A943
:10B1F0007A207B00900598E0F9123F1779008002D1
:10B2000079C1028F71C082C083E9F879009005B0DE
:10B21000801D8A828B83A3A3A3A3A3A3A3A3A3E0DC
:10B2200068600574FF687001098A828B83A3A3128A
:10B23000B2AB70DE02C52874F712243DEA4B7005EC
:10B240009005B080068A828B83A3A312B2AB6020E4
:10B250008A828B83A3A3A3A3A3A3A3A3A3E0697060
:10B26000E4EC60108A828B83E012B27770D780049E
:10B270007A007B0002B3A012F449E0540422C08299
:10B28000C0839005B080068A828B83A3A312B2ABE1
:10B2900060128A828B83A3A3A3A3A3A3A3A3E069C1
:10B2A00070E580047A007B0002C52812D170EA4B59
:10B2B0002274F712243DEAFCEBFD9005B080068A6B
:10B2C000828B83A3A312B2AB60248A828B8312B4D5
:10B2D000A46C7003A3E06D70E68A828B83A3E0C840
:10B2E00012BC0912D8CBA2E0E43370D380047A00F8
:10B2F0007B0002B3A074F212243D8A0A8B0B8C0CE3
:10B300008D0D750800750900EA450B60309005B099
:10B3100080068E828F83A3A312BC13EE4F601EACF7
:10B320000CAD0DEEFAEFFB850A82850B8312262EFB
:10B33000E9640170DDEEF8EFF988088909AA08AB25
:10B3400009028AE379000229FB74F712243D900573
:10B35000B012BA857C007D00800DE8FCE9FD888292
:10B360008983A3A312BA85E8496030EA687002EBCA
:10B370006970E79005B012CC3CE86A7002E96B880E
:10B38000828983A3A3700812BA859005B080091240
:10B39000BA858C828D83A3A312CC4B8003122A2EF4
:10B3A0007F010226CD74F712243DEAFEEBFFEE4F3B
:10B3B000602F12323312B3E312CC3C123F7D8E82E7
:10B3C0008F8312CC3C123F7D12ECFB3F12CF3960D1
:10B3D0000912B4CE12CC3C123F7DEEFAEFFB123FC5
:10B3E0007D80BD12CF41F5832274F612243D8A82FE
:10B3F0008B8312B4A4F508A3E0F5099005B012BA46
:10B40000857D007C00802F88828983A3A3A3A3A3CA
:10B41000A3A3A3A3E0640570140C12DB86F5838E4E
:10B4200082E065087004A3E0650970010D888289D7
:10B4300083A3A312BA85E84970CD904EF4E493F843
:10B44000EDC3985008904EF712EE83400F8A828B1E
:10B4500083A3A3A3A37401F0A3E48010900539E0B3
:10B46000F812A60CA3A3A3A3E8F0A3E912B4C8742E
:10B470000512B4AAE0440812B4B5F47003A3E0F4D2
:10B48000601190054B12D8AE12CC3C1246C1E96453
:10B490001A700579011246CD02C8BAEE241DF58254
:10B4A000E43FF583E0F812B4C02212B4AE2212B128
:10B4B0004FA3A3A322F08A828B8312B4BE22E0F8AA
:10B4C000A3E0F5838882E02212B4AEA3A322EE1299
:10B4D000CD2722C082C083EAFCEBFDEC4D6017EC67
:10B4E00024FBF582ED34FF12CF39700712B52DE041
:10B4F000F46007123EDB79058030900598E0C0E0EB
:10B5000012B52DD0E0F0904EE5E493F97AB27B05C8
:10B51000123F11E9640170107A007B20900598E0D9
:10B52000F9123F1779008002790402C528EC24FF44
:10B53000F582ED34FFF5832274F412243DA2AFE4CA
:10B5400033F508C2AF9005B212BC13EE4F603AEE6D
:10B5500024FBF582EF34FF12CF397A007B2090056F
:10B56000986007E0F9123F178005E0F9123F1DE4EB
:10B57000F50AF50B780A122A51EEFCEFFD7AB27B40
:10B5800005123F0B7402122A2EE508A2E092AFEEDC
:10B59000FAEFFB028F7174F512243D8A088B09754E
:10B5A0000A009005B012DB8A805A8E828F8312B413
:10B5B000A465087004A3E06509703D8E828F83A3A3
:10B5C000A3A3A3E4F0A312C246540460118E828F99
:10B5D00083A3A3A3A3A3A3A3A3E0F9122E858E8222
:10B5E0008F83A3A3A3A3A3A3A3A3A37406F07AF0BA
:10B5F0001288CF123149050A8E828F83A3A312BA13
:10B6000085E8FEE9FFEE4F70A1A90A8003122A2EF9
:10B610007F030226CD74F012243D74D4122AC7EAA7
:10B62000FEEBFF750B00750A007508FE7509FF1229
:10B6300031EBE9600302B903EE241512B91C604432
:10B64000901ED8E0C43354E0F8E0333354FC48C0D3
:10B65000E012D6DDD0E012B98012CC3C79FF122F77
:10B66000878B0DEA450D600F750B017508FF12CF32
:10B670002612CDFCD2E0F0901D2FE0600464017032
:10B6800003750A408E828F8312CC3A12332FE96001
:10B690000312B928EE241312B91C700D904EF0E479
:10B6A00093C0E012B910D0E0F08E828F83E0A2E761
:10B6B000500454038019EE241412B91C7012900522
:10B6C0002AE0C0E012F3E9D0E0F090052AE004F0AF
:10B6D00012F4057016901EC4E0600D900535E07000
:10B6E0000A8E828F83E0700312CD17901D2FE060C9
:10B6F000046401704B900538E0A2E15043E50BA2D1
:10B70000E040218E828F8312CC3A12332FE96030D1
:10B710008E828F83E0600DEE240B12B49EF91233FB
:10B720000BE9601C12B934700302B8B5EE24131291
:10B73000B91C6401600302B8B512B4CEE054FBF04A
:10B740008E828F83E06401700DEE240B12B49E6430
:10B7500002700312B94112B934600302B81BE50B41
:10B76000A2E0500302B81B901D2FE0600764016047
:10B770000302B81B900538E0A2E1400302B81BE5C4
:10B780000AF50B780B122A55EE2406FCE43FFD8ED9
:10B79000828F8312CC3AEE2412129B7C122EAF744D
:10B7A00001122A2EE9600612B92812B93A8E828F48
:10B7B00083A3A3A3A3A3A3E0603CEE2402F50CE4BF
:10B7C0003FF50D850C8212B9652407FAE43FFB12A0
:10B7D000326F8A088B09850C82850D83E0650870BD
:10B7E00004A3E06509700C8E828F83A3A3A3A3A397
:10B7F000A3E4F012B9418E828F83E06401600BA94B
:10B800000A12B97412CC3A122E4FA90A12B9701248
:10B81000CC3A122DDDE9600312B93AAC18AD19EE3D
:10B82000FAEFFB1232698A0A8B0B74FE650870040A
:10B8300074FF650970031286DEEA450B700302B9D6
:10B84000078E828F83E0C0E07401122D07D0E0F0F4
:10B850007404122D0712E0A9EE241E12BA7F74029E
:10B86000122D0712CC4B7401122A97880C890D787F
:10B870000C122A51EE242012B920122A5512B4CEED
:10B88000122855EE240E12B920122A5590053E12A8
:10B8900028557408122D07E0F9AC08AD091232637F
:10B8A0007408122A2EE9FE74106E705DAA0AAB0BA2
:10B8B000123F7D8054EE241312B91CC0E07417129D
:10B8C0002D07D0E012F45A740F122D0712B98624F6
:10B8D0000412F3F812BA857411122D07E8F0A3E9E7
:10B8E00012BF61C0E07418122D07D0E012E90B12EC
:10B8F000A60D12B9577406122A9F122E7FE9600313
:10B9000002B740791180047E10EEF9742C02D8DC65
:10B9100012B91422EE12CD5F22EE241712BF0122BB
:10B9200012BF01F50C780C22EE2412F582E43FF5EB
:10B9300083E4F02212B94854402212B9484420F05E
:10B940002212B9484440F022EE12CD2BE022EE2420
:10B9500013F582E43FF58312B95B2212B95F22E04E
:10B96000FCA3E0FD22F58312B96B2212B95FEE222F
:10B970008E828F83A3A3A3A312B95B8E828F8322AF
:10B9800012DB7622A3A3E8F0A3E9F0EE22C082C086
:10B990008374D7122AC79080007403122AA77426D2
:10B9A0001229778A828B83A3A3A3A312BA85740E6C
:10B9B000122D07E8F0A3E912D4E7740C122D071238
:10B9C000BA89240D12BA74C0E0741A122D07D0E09F
:10B9D000F012D75E12BA837420122D0712BA89248E
:10B9E0001512BA74C0E07408122D07D0E0F0EA24F2
:10B9F0001CF582E43B12BA837412122D0712BA8925
:10BA0000241112BA74C0E07409122D07D0E0F0EAD4
:10BA1000241212BA74C0E07407122D07D0E0F0EAC5
:10BA2000241EF582E43B12BA837424122D0712BA45
:10BA300089242012BA74C0E07426122D07D0E012B7
:10BA4000A7A074FFF07401122D0774FFF0740212A6
:10BA50002D0774FFF09080B61228517404122AA7A3
:10BA60007407122A9F122D237404122A2E7900744F
:10BA70002902D52BF582E43BF583E022EE2413F571
:10BA800082E43FF58312D4EE22E8F0A3E9F0EA2243
:10BA900074EE12243D74EC122AC78A0E8B0F8C08A8
:10BAA0008D09890C750A107A217B00123F7712D517
:10BAB00031E849700302BC02750B007C217D0079DE
:10BAC00000851882851983E0FA123EBD7429122D73
:10BAD0000712BC13901D2FE060046401703EAA0899
:10BAE000AB091248538A108B11A810A911E84960BC
:10BAF0002388828983A3A3A3A3E06401600D8882C5
:10BB00008983A3A3A3A3E064037009EE54407004E7
:10BB100074044FFFEF54046003750B0190054B1242
:10BB2000CC3C85188285198312BC182409F582E45F
:10BB30003812E10B7426122D0712BA857411122DDA
:10BB400007E8F0A3E912BC2112F40B12BC2112B0D9
:10BB500095740212F465F8A312C85D12DE3412BCAB
:10BB60002112F41BE50CF07428122D07E0F508856E
:10BB7000188285198312F424E50812BC2112BC092D
:10BB8000F583E50EF0A3E50FF07406122D0712E021
:10BB9000A97408122D07E508F0742C122D0712E283
:10BBA000A1C082C083740C122D07AC82AD83D083F8
:10BBB000D0827405122977742B122D07E0C0E0742F
:10BBC00013122D07D0E0F0A90BAA18AB191231F10E
:10BBD000E964017021901D2FE0600464017012E59A
:10BBE0000BA2E0500CA90812321BEA4B6003123280
:10BBF0003F750A00800C85188285198312CC3C128F
:10BC00003F7DA90A741402C24C241FF582E4382235
:10BC1000A3A3A312DB8AFF2212BC1C2212D54BC89D
:10BC20002212D540C82274EE12243DEAFEEBFF8CAE
:10BC3000088D098E828F83A37408F0EE241612B942
:10BC40001C60088E828F83A37410F012B9196009EA
:10BC50008E828F83A3E02408F0EE241512B91C60B5
:10BC6000088E828F83A3E004F08E828F83A3A3A328
:10BC7000A3A3A3E060198E828F83A3A3A3A3A3A38E
:10BC8000A3E0C3332402F88E828F83A3E028F0124E
:10BC9000BEFA6005750B0E8003750B00901D2FE03A
:10BCA0006402701E901D23E0640170168E828F83E3
:10BCB000E06401600D901D1DE0600712BEE7740195
:10BCC000800412BEE7E412BF3CE012BF0928250B36
:10BCD0008C828D83F012BEFA6013900536E0F91263
:10BCE0003125E9F8850882850983E029F0850882F5
:10BCF000850983E0C3947540097508007509000241
:10BD0000BEE0E0FA7B00123F778A088B09EA45091A
:10BD1000700302BEE08E828F83E0FA90053B12BF73
:10BD2000357402780C122C06EA450CFAAB0DEE24A1
:10BD30001212B91C5403F50C750D007406780C1220
:10BD40002C06EA450CFCEBFDEE241512B91C600430
:10BD5000780180027800EE2416FAE43FFBE8F9ED62
:10BD600049FD12BEFAF50C7409780C122C06ED454B
:10BD70000DFD8A828B8312BF35740B780C122C0652
:10BD8000ED450DFDEE241712BF2F740C780C122C0C
:10BD900006ED450DFD8E828F83A3A3A3A3A3A3125B
:10BDA000BF35740A780C122C06ED450DFDEE2423E8
:10BDB00012BF2F740D780C122C06ECF8ED450DF91E
:10BDC000E8850882850983F0E9A3F0EE240212BE1B
:10BDD000F112C00312BF57F0EE240412BEF112BFDD
:10BDE0002112BF57A3A312CD5512BF21A3A3A3A312
:10BDF00012BF61850882850983A3A3A3A3A3A3A37C
:10BE0000F0750A088A828B83E06015EE241812B957
:10BE100051E5082408FAE43509FB12408B750A1035
:10BE200012B9196019EE241A12B951A80AE50828A6
:10BE3000FAE43509FB12408B7408250AF50A8E8254
:10BE40008F83A3A3A3A3A3A3E06057EE2407F51059
:10BE5000E43FF511851082F583E0C0E012BF10D0F9
:10BE6000E012BF47E0C0E00812BF12D0E012BF47A7
:10BE7000129AC9122A4D851082851183E025E0FCB3
:10BE8000E433FDA80AE50828FAE43509FB123EB1BF
:10BE90007403122A2E851082851183E0C333250A8C
:10BEA000F50AEE241512B91C6008C0E012BF10D0CC
:10BEB000E0F012CC16129ACA122A4D12BF0AFC7D6B
:10BEC00000A80B8E828F83A3E0FAE5082AFAE435F6
:10BED00009FBEA28FAE43BFB123EB17403122A2E56
:10BEE000AA08AB0902C24FEE2423F582E43FF58392
:10BEF00022F8E43FF9888289832212BEFE22EE24D2
:10BF000011F582E43FF583E022F8EE12DB61E022D6
:10BF1000A80AE5082812BF1922F582E43509F5833D
:10BF20002212BF2522E0850882850983A3A322F57A
:10BF300082E43FF583E0F50C750D002212BF40222C
:10BF4000F08E828F83A322F0050A8E828F83A3A3B3
:10BF5000A3A3A3A3A3A322A3A312E65D12BF25A3B9
:10BF600022F0EE241412BF012274F412243D74FD59
:10BF7000122AC78A088B09ECFEEDFF7401122A977A
:10BF8000880A890B780A122A517402122AA7EEFA3B
:10BF9000EFFB122E2B7402122A2EE97053851882A1
:10BFA00085198312C003F07401122D07E0F812BF47
:10BFB000F9A3A312F461602914850882850983A37B
:10BFC00012F46512D9E57401122D07E028F8A3E0F8
:10BFD00039F9E824FEF582E934FFF58312F0A580F3
:10BFE0000C850882850983A3E4F0EEFAEFFB800458
:10BFF0007AFE7BFF7403028F6EA3E0F985088285C9
:10C00000098322E08508828509832274EE12243D8B
:10C010008A0A8B0B8910ECFEEDFF750F017C267DE3
:10C02000007900EEFAEFFB123EBDE510C394085014
:10C030000302C1988E828F83E510F0EEFCEFFD8540
:10C040000A82850B8312C4A312327BE96003750F49
:10C050000012C4858E828F8312C4DDEE12C4793F34
:10C0600012C4C7C0E01288C1D0E012C4BFC0E0EE65
:10C070002412F582E43FF583D0E012BF3C7408122D
:10C08000C22DA3A3E06018E50A2408F8E4350BF9F3
:10C0900012B91012CC4B8E828F83A3E02408F08E4D
:10C0A000828F83A3A3A3A3A3A3A3A3E060178E827D
:10C0B0008F83A385820885830912C49812D6DD1266
:10C0C000A2BC2408F0EE241912B92BEE241B12B9DD
:10C0D0002BA312C22DE0600F12C2148E828F83A395
:10C0E000A3A3A3A312C240EE241812B91C7003022A
:10C0F000C18812C214FAEE2419F582E43FF583EAEE
:10C1000012C240F8E50A28F582E412F547F812DC7D
:10C110009EE812C240E8C39AEE5068241912B91C76
:10C12000F8904EE4E493C398500575110C8008EE26
:10C13000241912B91CF5118E828F83A3E0F8E50A49
:10C1400028F50CE4350BF50D750E00780C122A4D10
:10C15000AC11EC2CFCE433FD7A127B11123EB1746D
:10C1600003122A2EEE241BF582E43FF5837412F0AD
:10C17000A37411F0E511C333F8850882850983E0C3
:10C1800028800412CD0EE4F08E828F83A3E0F88E17
:10C19000828F83E0C398500479008061A3E0FAE5C0
:10C1A0000A28F8E4350B12C209E8F0A3E912C4D654
:10C1B000C39AC0E012C1FFD0E012C246603DEE2437
:10C1C00017F8E43FF9880889098882F583E024F2AA
:10C1D000F0EE241D12BEF1E0240EFAA3E03400FBC1
:10C1E0008882898312E10D900536E0F9123125E944
:10C1F000F8850882850983E0C398F0A90F8050EE86
:10C200002417F582E43FF58322F9EE241DF582E43C
:10C210003FF583228E828F83A3858208858309E080
:10C22000F8E50A28F582E4350BF583E02212C231E5
:10C230002212C23522F08E828F83A3A3A3A3A3224E
:10C2400012A2C404F02212C231A3E022122A2E7FCD
:10C250000A0226CD74F412243D8A088B09EA12C220
:10C26000F2A3A3F0EA1313543F12C2EBA3A3A3F06B
:10C27000EAC4131312C2F212C3057409780A122C0D
:10C280008912C2F9A3A3A3A3A3A3F0EB12C2FB12CA
:10C29000C304740A780A122C89E50A5401C0E0EC40
:10C2A0002418F582E43DF583D0E012C309740B78BD
:10C2B0000A122C8912C2F912C302740C780A122CC9
:10C2C0008912C2F9A312C302740D780A122C89E5EF
:10C2D0000A5401C0E0EC2424F582E43DF583D0E06B
:10C2E000F0740E7808122C890288BC540F8C828D51
:10C2F000832254038C828D8322E50A54018C828D23
:10C300008322A3A3A3A3A3A3A3F08A0A8B0B22C017
:10C3100082C08379008A828B83A3A3A3A3A3A3E013
:10C32000900535600EE070238A828B83A3A3E070B2
:10C330001A8016E060158A828B8312CC3390053EFA
:10C34000E06A7003A3E06B6002790102C52874F211
:10C3500012243D8A0A8B0B890C8C088D098A828BEA
:10C360008312C4A312327B12C48585088285098397
:10C3700012C4DDE50812C479350912C4C7C0E0E56E
:10C3800008241112CC28D0E012C4BFC0E012CC2483
:10C39000D0E012CF4F740812C4B1E06017E50A2450
:10C3A00008F8E4350BF9E508241312C47D12CF4FC9
:10C3B000E02408F0850882850983A3A3A3A3A3A38F
:10C3C000A3A3E06017850882850983A312C494E5BE
:10C3D00008241512C47D12C4D62408F0850882856D
:10C3E0000983A3A3A3A3A3E0601985088285098319
:10C3F000A3AE82AF8312C21F85088285098312C44F
:10C40000D104F0AA08AB09123281E9F50D706485F8
:10C410000882850983A3A3A3A3A3A312C003A370C7
:10C420001AE0FAE50A2AF8E4350BF9E508241D12AA
:10C43000CC2812CC4BE50CC39A802C12C494E8246F
:10C440000EF8500109E508241D12CC2812CC4B909F
:10C450000536E0F9123125E9F88E828F83E0F9E59F
:10C460000CC39924F2C398C0E0E508241712CC2825
:10C47000D0E0F0A90D028AE3EA12F4152212BF19E6
:10C48000E8F0A3E922850A82850B83A3A312C4F3F3
:10C49000E0F9EA22AE82AF83E0F8E50A28F8E43555
:10C4A0000BF922E0FAA3E0F8E4C8F9EA28E439FB42
:10C4B0002212C4B52212CF57A3A3A3A3A3A322126F
:10C4C000C506A3A3A3E022F583E812C4FFA3A3E05B
:10C4D00022A3A3A3A3A3F08E828F83E022A3A3A30E
:10C4E000A3A3A3A3A3A312C4FF12C4F3A3A3E0F9BD
:10C4F000EAF822E0FA850A82850B83A3A3A322F03F
:10C50000A3E912C50622F0850A82850B83A3A3A3A3
:10C51000A322C082C0837AC07B0579E212467F7A6B
:10C52000C07B05800312CC3CD083D0820229FBC0A3
:10C5300082C08390053E80EDC082C083900541801B
:10C54000E4C082C083794A12467F80DC74F61224EC
:10C550003D9005C8E0FE04F0EEF912321B8B09EAAB
:10C56000450970EDEE60EAF902C8BA74EE12243D96
:10C57000EAFEEBFF8C0E8D0F890C750A00750B001F
:10C580001234318A088B097412122D07E0F50D74EC
:10C5900013122D07E0F510EA45097017E510600346
:10C5A00002C68DA90CAC0EAD0FEEFAEFFB1234559E
:10C5B00002C78CE510700302C658901D2FE060047E
:10C5C0006401700E9005CD12CF3B600612C85D125B
:10C5D000262EE50D700E850882850983E4F0750B23
:10C5E0000102C6B0901D2FE060076401600302C61F
:10C5F000B0900538E0A2E1400302C6B09005CF122A
:10C60000CF3B600CA90DAA08AB0912C85D12262EFB
:10C61000850882850983E0FA12E900500109C3EA1E
:10C6200098E499A2D265D0335009850882850983A0
:10C63000E004F0850882850983E0F8904EE6E493F3
:10C6400068706D750A01EEFAEFFB122EBB85088249
:10C65000850983A3E4F08058E50D701CEA240212DA
:10C66000AFA3A80C28F8E4340013E813F070098A8B
:10C67000828B83A3A37401F08A828B83A3A3E0F847
:10C68000901E94E0C3985052750B01804D74016563
:10C6900010701DE50D6019901D2FE060046401709D
:10C6A0000F900538E0A2E15007EEFAEFFB122EBB27
:10C6B000901D2FE06402702274016510701CE50D5E
:10C6C0009005DF6013E004F0901EBCE0F89005DFF9
:10C6D000E0C3984005750A01E4F0E50BA2E092F092
:10C6E000E50AA2E072F0400302C78C901D2FE060C3
:10C6F0000464017041900538E0A2E15039EEFAEF90
:10C70000FB1248538A088B09A808A909E849602642
:10C71000E50BA2E0500D88828983A3A3A3A3A3E025
:10C72000C2E0F0E50AA2E0506388828983A3A3A354
:10C73000A3A3E0D2E0F0E50AA2E05050901D2FE064
:10C7400060046401701D900538E0A2E15015EEFA16
:10C75000EFFB12486BE9600BEEFAEFFB7900122D4C
:10C76000598029900541E06E7003A3E06F701DEEC3
:10C77000FAEFFB7901122D59901D2FE06402700C25
:10C780007A017B00900598E0F912404902C24F748B
:10C79000F412243D8A088B098C0A8D0B9080EA786C
:10C7A00008122AF3700E7A017B00900598E0F912C6
:10C7B0003F178035901EA97808122C98EA45094544
:10C7C0000A450B60187808122A497A017B00900507
:10C7D00098E0F912403D7404122A2E800C7A017BF5
:10C7E00000900598E0F9124049028F71C082C08321
:10C7F000901EAD02AD29C082C083901EAF02AD294C
:10C8000074F612243D75082A7509057808122A5114
:10C810007C6E7D007A217B00123FEF7402122A2E7B
:10C82000E9F50812489BE94208901D2FE060046476
:10C830000170061247D5E9420890070312CF3B600A
:10C840000912C85D12262EE94208122FABE9FE122A
:10C850004607E9F8E5084E48F9805F79C4E0F583BA
:10C8600088822274F612243D123E8775082A7509C3
:10C87000057808122A5175086E7509007808122A81
:10C88000517C007D007A217B00123FFB7404122A48
:10C890002E124895901D2FE060046401700312472A
:10C8A000CF90070512CF3B600612C85D12262E12EC
:10C8B0002FB11246138003122A2E7F020226CD7456
:10C8C000F612243D74FF122AC77E0075082A7509E6
:10C8D000057808122A517C6E7D007A217B00123F78
:10C8E000EF7402122A2EE9600302C9A47808122A02
:10C8F0005175086E8E097808122A517C007D007AE5
:10C90000217B001240017404122A2EE9600302C93F
:10C91000A490053EE064FE7003A3E0F4700302C936
:10C92000A47E0190054DE064086005E06404706F2A
:10C93000851882851983EE12CF7279421246857A64
:10C94000557B0579431246857A527B057947124615
:10C95000857A437B05794A1246857A417B05794B76
:10C960001246857A4B7B0579501246857A3E7B05C7
:10C9700079531246857A537B0579541246857A405D
:10C980007B0579E1124685900538E0A2E35004D298
:10C99000F08002C2F012CF687952124685800512EB
:10C9A0003E877E001248A7901D2FE060046401704E
:10C9B000031247BD90070712CF3B600612C85D12F5
:10C9C000262E122FBDEEF9740102C8B774F6122498
:10C9D0003DE9FEA2E0502675082A7509057808127F
:10C9E0002A5175086E7509007808122A517C007D5D
:10C9F000007A217B00123FFB7404122A2EEEA2E380
:10CA000050031248A1901D2FE0600464017008EEED
:10CA1000A2E150031247B7EEA2E2500E90070912AE
:10CA2000CF3B600612C85D12262E02C8BA74F612F9
:10CA3000243D74EC122AC77401122AA7901E4CE000
:10CA4000F97A9B7B051231CD7405122D07E4F07441
:10CA500007122D07E4F07A04F912487D904EF9E4AC
:10CA600093F8C3EA98EB940050581248ADE970521D
:10CA7000904EDB12CB1E60197A04790312487D8A2E
:10CA8000088B09904EF9E493F8904EDB12CB2850B6
:10CA9000087405122D077401F0904ED912CB1E6058
:10CAA000197A02790112487D8A088B09904EF9E4BF
:10CAB00093F8904ED912CB2850087407122D0774A2
:10CAC00001F0901E4CE0F97C9B7D057401122A9FB9
:10CAD0001231C77A9B7B0579451246857407122D62
:10CAE00007E070117405122D07E070098518828522
:10CAF0001983E480088518828519837401F0901EDB
:10CB000046E0F8901E45E058F8851882851983E0C4
:10CB10005812CF727941124685741402C8B7E49353
:10CB2000F8740193F9E84922E493FA740193FBE85D
:10CB3000C39AF8E49BF9C3E50898E509992274F7CC
:10CB400012243D74ED122AC7E9FE900597F0AC1847
:10CB5000AD19901E4CE0F97A9B7B051231CD741211
:10CB6000122D07EE12CB7CAA18AB191231C77A9B93
:10CB70007B057945124685741302B39DF0901E4CD7
:10CB8000E0F97C9B7D052274F412243DEAFEEBFF64
:10CB9000901E4EE064FE7003A3E0F470767A167B7C
:10CBA00000123ED58A088B09EA450960668A828BA5
:10CBB00083740112C2468A828B83A360047402804C
:10CBC000027401F0EA240AF8E4350912C20912F0ED
:10CBD000AAA312DCA8F0A2E3400912CC1612CC3CA6
:10CBE000123251EE241512B951E5082402FAE43547
:10CBF00009FB12408BE508241312CC28E4F0AA08A4
:10CC0000AB09900598E0F9123EE112CC1612D4E07F
:10CC100012CC4B028F7112CC1A22EE240BF582E457
:10CC20003FF58322E5082412F582E412BF1C228E10
:10CC3000828F83A3A3A3A3A3A3A3A3A312D1702230
:10CC4000E0F8A3E0F9851882851983E8F0A3E9F0FC
:10CC50002274F212243D74FD122AC78A088B0989B6
:10CC60000A8C0B7401122D07740412CF7212331147
:10CC70008A0C8B0DAE0CAF0DEE4F700302CCFF1281
:10CC8000CD34740712DCAEE5082413FAE43509FB51
:10CC90008A828B8312CD4A8A828B8312CD49E50822
:10CCA000241512CC2812DCA812DCB5E508240BF8F8
:10CCB000E43509F912CD0DE8F0A3E912DE4812328D
:10CCC0008D12DC9612CD557401F07403650A60066E
:10CCD0007401650A700712CD1E7404800412CD1E03
:10CCE000E4F0901E4E12AFC112CC4B7401650B7074
:10CCF0000312CD17EEFAEFFB12479FE9F980027994
:10CD000010901E4E74FEF0A304F0028ADEEE24188A
:10CD1000F582E43FF58322EE1288C6E4F02212CDBC
:10CD2000267440F0A322EE12CD2B22240FF582E4CC
:10CD30003FF58322EE12F4153FF58312CD3F22E03A
:10CD4000F8A3E0F98882898322A3E088828983F0AE
:10CD5000A308A9832212CD5922F0EE12CD5F22241E
:10CD600013F582E43FF5832274F412243DEAFEEBCE
:10CD7000FF7A007B04900598E0F912404912CE0F2B
:10CD800090054D7409F012328D8A088B09AC08ADFC
:10CD90000912B91012CC3C124085E96401705A7A2C
:10CDA0000F7B00123ED58A088B09EA4509604A8A42
:10CDB000828B83740212CE04F988828983A3E0FCFB
:10CDC00088828983A3A3E0FBEC8A82850983A3A3DD
:10CDD00012E10E88828983A3A3A3E08A8285098356
:10CDE000A312CDFCFAA3E0FB794A124685AA08AB50
:10CDF00009900598E0F9123EE1028F71F0EE2415DA
:10CE000012BF0122F0EE241D12BF01F8A3E0229010
:10CE100004D712D4EE901EAFE8F0A3E9F09004D945
:10CE200012D4EE901EADE8F0A3E9F02274F41224BF
:10CE30003D74FD122AC78A088B097401122D0774EC
:10CE40000212CF721233118A0A8B0BAE0AAF0BEEAD
:10CE50004F700302CF1A12F434E412CF4FA3A3A3EE
:10CE6000E06401700888828983A37420F0850882B9
:10CE7000850983A3A3A3A3A3E06401700988828921
:10CE800083A3E0D2E6F0850882850983A3A3A3A348
:10CE9000A3A3E06401700A88828983A3E0D2E780BB
:10CEA0000512B910740112CF60E064017021850889
:10CEB00082850983A3A312CF3B600312CF1F85088D
:10CEC00082850983A3A312AFAB12CD0E12CC4B8582
:10CED0000882850983A3A3A3A3A3A3A3E06401708D
:10CEE0000712EFA5F0A3E4F085088285098312CC30
:10CEF0003C12332FE9600412CF26F0EE241712CF34
:10CF00002212328D12DC9612A2C012CF2D12B984D9
:10CF1000FAEFFB12479FE9F98002791002BFF4EEA5
:10CF2000241612DCBD2212B948440422E0F8A3E022
:10CF3000F98E828F832212CF41F58312D4EEE84915
:10CF4000228E828F8312BC1C241FF582E4382212A9
:10CF5000CF532212CF5722F0850882850983A3225E
:10CF600012CF53A3A3A3A322A2F0E4338518828592
:10CF70001983F0AA18AB192274F512243D74F31228
:10CF80002AC7890AEAFEEBFF7508007509007C0DC7
:10CF90007D007900AA18AB19123EBD12C20A12D147
:10CFA00027741F58600C7AD37B0012430D7900025E
:10CFB000D077E8A2E55008740C122D077401F0E850
:10CFC000A2E75008740B122D077401F0E8A2E67472
:10CFD0000A5008122D077401F08008122D07E06432
:10CFE0000170138E828F83A3A3A3A3A3A3A3E060E6
:10CFF00032EE241380128E828F83A3A3A3A3A3A354
:10D00000A3A3E0601EEE2415F582E43FF58312A988
:10D01000E16010AC08AD097402122D07AA82AB833F
:10D0200012408B12CC1612CC40740A122D07E06409
:10D0300001703B12CC2F12332FE97039EE240B1202
:10D04000BA7F900541E0687003A3E0697027E508A6
:10D050004509601A12328D8A088B09AC08AD097433
:10D0600002122D07AA82AB83124085E96007AA1835
:10D07000AB19122D53A90A740D02B60D74F71224C0
:10D080003D74CD122AC7EAFEEBFF8E828F8312D148
:10D0900045A2E0400302D12212D12EE054FE12ED4F
:10D0A0000D740D122AA712D158123287E9707374C9
:10D0B0002A122D0712D13B70697C0D7D007900AAE0
:10D0C00018AB19123EBD7416122D0712CC40742AEB
:10D0D000122D0712D127A2E55008740B122D0774E8
:10D0E00001F0E8A2E75008740A122D077401F0E875
:10D0F000A2E65004742080027422122D0712B95740
:10D100007402122D07AA82AB8312408B8E828F830A
:10D11000A3A3E0C0E0740C122D07D0E012CF72126E
:10D120002D4D743302B39D12E2A5A3E0F8228E8246
:10D130008F8312D8D2A3A3A3A3A32212B4BE6404E4
:10D14000228A828B83E0F812D14B22A3E0C8240606
:10D15000F582E438F583E022EA241EF582E43BF50B
:10D1600083E0F9EA241FF582E43BF58312D17022B3
:10D1700012F0A5FB22E9F87900740468600A740AC9
:10D18000686005740368700279010229FB74F61265
:10D19000243D8A828B837424F0A3A37401F0124788
:10D1A000998A088B09AE08AF09EE4F60108E828F06
:10D1B0008312DE4612328DEE241A12E107EEFAEFE8
:10D1C000FB02C8BAC082C08390053B02AD0FC0828B
:10D1D000C083901E4D02AD0FC082C083E9901E4DEA
:10D1E00002AD2DC082C0839005B47401F0E9A2E3C2
:10D1F00050037403F0E9A2E15004E0D2E2F002C56A
:10D200002874F612243D79007C008A088B0978087E
:10D21000122713F8FF0736D234D234D234D234D2A4
:10D220002CD230D236D228D27C01800A7C048006EF
:10D230007C0280027C089005B4E05C600479028086
:10D2400005EC6002790102C8BA74F412243DEAFECA
:10D25000EBFF890812484D8A0A8B0BA80AA90BE834
:10D2600049604188828983A3A3A3A3E06036C39465
:10D2700005503174016508601A88828983A3A3A3CD
:10D28000A3E06401600D88828983A3A3A3A3E06463
:10D2900002700A8882898312CC3C122E13EEFAEFB8
:10D2A000FB12480B028F7174F612243D8A828B8325
:10D2B000E07014A3A3A312CF3B600C8A828B83126D
:10D2C000CC3912300580047A007B0002C8BAC082D3
:10D2D000C08390054DE06408700312335302C528E3
:10D2E000C082C0837C00EC75F003A4F8ADF0EDF9CA
:10D2F00012D3B67003A3E06B7018904EFAE493C09B
:10D30000E074B728F58274053DF583D0E0F079C567
:10D3100080620CECC3940340CD7C00EC75F003A458
:10D32000F8A9F074B828F5827405129A8964FE7021
:10D3300003A3E0F4600F0CECC3940340DE7C00EC2C
:10D3400012D3777026EC75F003A4FCADF074B72C03
:10D35000F874053DF988828983A312E10D904EFA95
:10D36000E49388828983F0790080090CECC39403EC
:10D3700040CD79C702C52875F003A4F8A9F074B7A9
:10D3800028F582740512EE9522C082C0837C00ECE1
:10D3900075F003A4F8A9F012D3B67003A3E06B7084
:10D3A0000912D37E6004790180090CECC394034018
:10D3B000DE790002C52874B828F582740512EE954E
:10D3C0006A2274F212243D74DD122AC7EAFEEBFFD2
:10D3D000750800901D2FE060076401600302D4D936
:10D3E00090053EE06E7003A3E06F7010EE4F700387
:10D3F00002D4CD75080112335902D4D91248538A88
:10D400000A8B0BEA450B700302D4CD8A828B83A36F
:10D41000A3A3A3E0640160108A828B83A3A3A3A3C8
:10D42000E06402600302D4CD851882851983E4127A
:10D43000D4E7740B122D07E8F0A3E912CF7212485B
:10D44000B9E9700302D4CD850A82850B8312D4E03A
:10D4500012CC4B7900122E07850A82850B8312D9D4
:10D46000FB122D07AC82AD837418122D07AA82AB74
:10D470008312408B850A82850B8312BA8574201231
:10D480002D0712CC4B7422122D07E4F07C02850A82
:10D4900082850B83A3A3A3A3E0F9740D122A9F1224
:10D4A00032ED850A82850B8312BA857401122D072D
:10D4B000E8F0A3E912CF721248B3750801E50A2417
:10D4C0000CF582E4350BF583129AEC800C90054B39
:10D4D00012B967FAEFFB123419A9087423028AE023
:10D4E00012D4EE901E4E2212B13F12D4EE2212D56B
:10D4F0004BF922C082C08374FE122AC7901D2FE010
:10D500006004640170237901122E0D12D53190054B
:10D510003EE8F0A3E912CF7279531246858518824E
:10D5200085198312CC3C1242297402122A2E02C59C
:10D5300028851882851983EAF0A3EB12D540F922D9
:10D54000F085188285198312D54B22E0F8A3E022DA
:10D5500074F412243D74F3122AC78A088B09ECFE76
:10D56000EDFF750A12EA45097005790002D63C9074
:10D57000053EE065087004A3E06509701D12328D58
:10D580008A0A8B0BAC0AAD0BEEFAEFFB124085E971
:10D590007005750A018003750A0085188285198354
:10D5A000E4F004122D0712DE3412CF721248C5E9DE
:10D5B000602A7403122D07AA82AB831248E3E96440
:10D5C000017019750A017403122D07AC82AD83EE48
:10D5D000FAEFFB124085E96003750A00901D2FE009
:10D5E0006004640170177412650A7011EEFCEFFD9F
:10D5F000AA08AB09124871E96003750A00EEFCEF56
:10D60000FDAA08AB09123437E9F8740A6870057589
:10D610000A01801D74A0687012EEFCEFFDAA08AB31
:10D6200009123449AA08AB0912345B7401650A7007
:10D63000097900AA08AB09123365A90A740D028F93
:10D640006E74F612243DEAFEEBFF8908901D2FE070
:10D6500060046401701E123353E508F5097809125D
:10D660002A55790DEEFCEFFD7AFC7BFF12337174C5
:10D6700001122A2E02C8BA74F712243DEAFEEBFF0B
:10D680008E828F83A3A3A3A3A3A3A3A3E0601612F8
:10D69000D6DD129B8E12CC3C12335FE9640170051B
:10D6A00012CC1680298E828F83A3A3A3A3A3A3A346
:10D6B000E0602512B94E12CC2F12335FE96401707D
:10D6C000178E828F83A3A3A3A3A3A3A3A3A312CC88
:10D6D0003C12334779018002790002B3A0EE241591
:10D6E000F582E43FF5832274F212243D74FD122A80
:10D6F000C78A088B09ECFEEDFF890B750A017401DE
:10D70000122D07740412CF72123311EA4B60427467
:10D7100011122D07E0601412DDADE412E2AD8A8231
:10D720008B83E0D2E7F012D754E4F012D75E12CD2B
:10D7300039740312DA05EE88828983A3A3F0EF8897
:10D74000828983A3A312B13E12DCCA12479FE9F576
:10D750000A028ADCEA2414F582E43BF5832212F4FF
:10D76000143B2274F012243DEAFEEBFF890A750B8C
:10D7700001EE12DAC73F12D8CBF50C88828983A359
:10D78000A3E0FA8882898312D8BA12B919640460B6
:10D790000A7AD37B0012430D02D8AAE50C1228DACC
:10D7A000020002B5D7030B62D8030C48D80D20D86D
:10D7B0000E62D85FD8901D2FE060076401600302FD
:10D7C000D862900538E0A2E1400302D8627900AB4C
:10D7D00009122E9DEA4B603D8A828B83A3A3A3A3EB
:10D7E000A3A3E05418602E12CC161228558A828BFF
:10D7F00083A3A312285579008E828F83A3A3A3A3AA
:10D80000A3A3A3A3A312D8AE12CC3C122EB57404CA
:10D81000122A2E802E7901AA08AB09122D658042AA
:10D82000901D2FE0600464017038900538E0A2E19B
:10D830005030AB09123341AA08AB09123347E964EF
:10D84000C5701F750B00801A901D2FE060046401E5
:10D850007010900538E0A2E1500812424D80037527
:10D860000A00EE2409F50EE43FF50FAC08AD09A956
:10D870000C850E82F58312CC3C122D7D850E82859F
:10D880000F8312CC3C12332FE9601F12BEFAC394EF
:10D8900002401712CC1612E1D07003A3E069600AAF
:10D8A000E50BA2E05004A90A80027900803112D869
:10D8B000B22212B95F8A828B8322A3A3A3E0F8E489
:10D8C000C8F9EA28F508E439F50922F58312D8D217
:10D8D000E02212D54BF988828983A322122A2E7F57
:10D8E000080226CD74EE12243D74F5122AC78A0A66
:10D8F0008B0B890D8C0E8D0F7E01EE122D07740A95
:10D90000F0741D122D07E0F50CE9700FE50CC33320
:10D91000240AC0E0EE122D07D0E0F0AA18AB1912CD
:10D9200033118A088B09EA4509700302D9DD12C454
:10D9300078350912DB7B7409F0A3E50DC43354E09C
:10D94000450C12DB94AC0EAD0FEEFAEFFB12408BE0
:10D95000EE2408FE50010FE50D702F7C00741E129E
:10D960002D0712D9EC801D12D9E4EA28F8EB39F919
:10D970008882898312DB8F8882898312A15CF0A35D
:10D980000EAF830CECC3950C40DDE508241712CCD8
:10D99000287401F012328DE508241AF582E4350965
:10D9A00012D9F9122AA7AA0AAB0B1248DDE96019AD
:10D9B000E508241612CC287401F07403122A97E5A6
:10D9C00008241812CC2812CC4B850882850983A321
:10D9D000A312DA03AA08AB0912479FE9FEEEF97415
:10D9E0000B02C24CEC25E0F8E433F92212D9F02204
:10D9F00012D54BF9E8FAE9FB22F583EAF0A3EBF044
:10DA0000740322E50AF0A3E50BF02274F012243D22
:10DA100074F8122AC78A088B0912DAC6350912DC93
:10DA20000FF8741F58F50A880BA3AE82AF83EEFC83
:10DA3000EFFDAA18AB1912408BEE2408FE50010F1F
:10DA4000AC18AD197A5F7B05124085E9607374E00C
:10DA5000550B7066AA0AEA2AFA7B00123F778A0CF5
:10DA60008B0DEA450D605A7C00801D8E828F8312DB
:10DA7000C4A312D9E4E50C28F582E50D3912E10BB7
:10DA8000EE2402FE50010F0CECC3950A40DD780C29
:10DA9000122A51780A122A557403122AA77900E52E
:10DAA00008240B12CC2812CC3C1233897403122A9E
:10DAB0002EAA0CAB0D123F7D80077AD37B00124358
:10DAC0000D740802D8DCEA241DF582E42274F012F9
:10DAD000243D8A0A8B0B890D8C088D09901C4F12EE
:10DAE000CF3B60757410122D07E0F50C12D9E5E8F4
:10DAF000240EFAE439FB123ED58A0E8B0FAE0EAF20
:10DB00000FEE4F60548E828F8374D4F012DB6AA3C1
:10DB1000A3E50DF0AC08AD09EE2405FAE43FFB12D5
:10DB2000408B12DB5CE50CF07411122D0712E296AB
:10DB30007808122A4DAC0CEC2CFCE433FDEE240EDC
:10DB4000FAE43FFB123EB17403122A2EEEFAEFFB09
:10DB5000901C4F12E2A112262E02D8DFEE12DB61DA
:10DB600022240DF582E43FF58322A3A3E50AF0A366
:10DB7000E50B12DB762212BF40A322F58312DB8A6B
:10DB8000FF8E828F832288828983E0FEA3E022E0D9
:10DB90008E828F83F0A3AE82AF832274F612243D6F
:10DBA00074F8122AC7890812DAC63B12DC0FF9741E
:10DBB0001F59F88909A3AE82AF837401687042EEE1
:10DBC000FCEFFDAA18AB1912408BEE2408FE5001A1
:10DBD0000FAC18AD197A5F7B05124085E960297496
:10DBE000E05509701C8E828F83A3E0FA8E828F83AA
:10DBF000A312C4A58E828F83E0F91233B9A90880DD
:10DC0000097AD37B0012430D7900740802C8B7F576
:10DC100083E02401FEA3E03400FF8E828F83E022A4
:10DC200074F012243D74FD122AC78A0A8B0B8C08EB
:10DC30008D09890D750C017401122D07740312CF23
:10DC4000721233118A0E8B0FAE0EAF0FEE4F603F84
:10DC500012CD34740BF0A3E50D12DCAE7413122D4B
:10DC60000712DCA812DE4812328D12DC9612DCB5E7
:10DC7000EE2418F582E43F12DCC88E828F83A3A3C2
:10DC8000E50AF0A3E50B12DE3B12479FE9F50CA96C
:10DC90000C740302D8DC12DC9EEAF0A3EB22EE2423
:10DCA0001AF582E43FF58322E08882898322F0A37B
:10DCB000A882A98322F0EE241612DCBD22F582E4AC
:10DCC0003FF5837401F02239F58312DE34F02274BB
:10DCD000EF12243DEAFEEBFF751000EE12DAC73FAB
:10DCE00012DF1BF508A3E0F50912D6DD12CC3C12B9
:10DCF000484DEA4B700302DDA88A828B83A3A3A35D
:10DD0000A3E0700302DDA8C39403400302DDA8E58D
:10DD100008C3940F5004E50960057510018079EA85
:10DD20002412F582E43BF583E4F0E5087022904D7F
:10DD3000B87808122B9412DDAD7808122C98904D0B
:10DD4000B87808122B9412E7047808122C988039BE
:10DD500075090074027808122C0674B82508F5823B
:10DD6000744D12CC2B780C122B9490810E780812E3
:10DD70002C7A780C790812234E12DDAD780C122C17
:10DD80009812E704780C122C98EA241BF582E43BE5
:10DD9000F5837401F0124295901D1DE0FCA910124C
:10DDA000CC1612CC3C1233A17F090226CDEA2417EF
:10DDB000F582E43BF5832274F012243D74F5122AB7
:10DDC000C78A088B09890B8C0C750A017401122D06
:10DDD00007740312CF721233118A0E8B0FAE0EAF7F
:10DDE0000FEE4F604812CD34740C12DA05A3E50C27
:10DDF00012DE4812328DEE241AF582E43F12D9F970
:10DE0000122AA7AA08AB091248DDE9600E12CF1F3B
:10DE10007403122A9712CD0D12CC4B8E828F83A3DE
:10DE2000A312DE3412DE3B12479FE9F50AA90A74F9
:10DE30000B02D8DCE508F0A3E5092212CD597401E4
:10DE4000F0EEFAEFFB227401F0EE241712DCBD2293
:10DE500074F012243D12DAC63B12DF1BF8A3E0FE79
:10DE6000E8600302DF1874016E600874026E6003DC
:10DE700002DF18EE901D1DF075081D75091D78084C
:10DE8000122A517508017509007808122A517C0080
:10DE90007D007A517B00123FFB7404122A2E74021B
:10DEA0006E7075901ED0E0700A904DB87808122BF5
:10DEB000948028F50874027808122C0674B8250896
:10DEC000F582744D12CC2B7808122B9490810E7829
:10DED0000C122C7A7808790C12234E90811A780C47
:10DEE000122C7A7808790C1223CE9080CE780C12FE
:10DEF0002C7A7808790C12234E901D1F7808122C6A
:10DF000098901D1F1228517A007B40900598E0F9E7
:10DF10001240437404122A2E02D8DFF583E0240154
:10DF2000F8A3E03400F988828983E02274F6122491
:10DF30003D74DA122AC7EAFEEBFF12CF3660508E2C
:10DF4000828F8312CC3CAC18AD1912D158123275A5
:10DF50007409122D0712E1D07003A3E0696030123A
:10DF6000E29D1228557508FE7509FF7808122A519E
:10DF7000741C122D07E0F9740D122D0712B9577495
:10DF80000F122D0712CC3C122EB57404122A2E74D7
:10DF90002602C8B774F712243DE9FD7A007B009091
:10DFA0001D2FE06004640170407C00800B12E04093
:10DFB000E02AFAA3E03BFB0C904EF912EE835029C5
:10DFC000EC75F01CA4F8AEF0EEF912EEA5F460E7E3
:10DFD000740628F582740C3912CF3960DAED60CD01
:10DFE00012E040E4F0A3F080CE7C00800B12E02D24
:10DFF000E02AFAA3E03BFB0C12EE80502DEC75F00A
:10E0000017A4F8AEF0EEF912F0247003A3E0F46068
:10E01000E6745728F582740E3912CF3960D9ED6055
:10E02000CC12E02DE4F0A3F080CD02B3A0EC75F0AB
:10E0300017A4F8EEF9745728F582740E39F5832287
:10E04000EC75F01CA4F8EEF9740628F582740C390E
:10E05000F5832274EC12243D890CEAFEEBFF900557
:10E0600097E0C3950C503B1232E19005C912E0A92C
:10E07000900531E0F508E4F509F50AF50B9080CA42
:10E080007810122C7A7808791012234E7808122A08
:10E09000497A007B02900598E0F912403D74041221
:10E0A0002A2E0286D98A828B83EEF0A3EFF02274A7
:10E0B000F612243DEAFEEBFF9005B58013888289B5
:10E0C00083E06E7003A3E06F603A88828983A3A324
:10E0D00012CF3B70E87A047B00123F778A088B09E5
:10E0E000A808A909E849601C8882898312E0A990E0
:10E0F00005B512CC3C88828983A3A312E10D90055B
:10E10000B512CC4B02C8BAF582E43FF583EAF0A31E
:10E11000EBF02274F412243D7E009005B580070ECA
:10E120008A828B83A3A312B2AB70F4EE25E0FAE4EB
:10E1300033FB123F778A088B09EA4509607F7C0030
:10E140009005B580228A828B83E0F50AA3E0F50B67
:10E1500012D9E4E50828F582E50939F58312DA03D6
:10E160000C8A828B83A3A312B2AB70D99005931251
:10E17000E1D07003A3E0697808701C122A51EEF513
:10E180000A780A122A557C5F7D0579009005931262
:10E19000CC3C123389801A122A51EEF50A780A1201
:10E1A0002A557C5F7D05790090059312CC3C123393
:10E1B0007D7403122A2EAA08AB09123F7D124787ED
:10E1C000028F718E828F83A3A3A3A3A3A3A3A3A370
:10E1D00012D4EE90053EE06822C082C08380128A8D
:10E1E000828B83A3A312BA859005B512CC4B123F44
:10E1F0007D9005B512B2AB70E602C52874F5122405
:10E200003D90054B12BC139005C9129FDB12CC4BFD
:10E210007AC97B0579501246859005C912E296802D
:10E220001312EB4D7004A3E06509600612EB5A125D
:10E230003425050A904EE3E493F8E50AC39850208C
:10E24000E50A75F017A4F8A9F012E9FB6E7003A3B4
:10E25000E06F70CD744C28F582740E12DCC780D24A
:10E260009005C912BC13901C5112CF3B60257A0651
:10E270007B00123ED5EA4B601A8A828B8374D5F0FC
:10E28000A3A3E412E6480412E2AD901C5112E2A1ED
:10E2900012262E02B6101286E8750A00228E828F90
:10E2A0008312E2A52212D54BF58388822212B14B4C
:10E2B000EEF0A3EFF022C082C08390053EE064FE42
:10E2C0007003A3E0F4600E900538E0A2E15006125E
:10E2D000343D1233E302C52874F012243D90058CBE
:10E2E000E06053F50CE4F50DF50EF50F9080CE7857
:10E2F00008122C7A780C790812234E123ECF8A0825
:10E300008B09A808A909904EDDE49358F508A3E409
:10E310009359F509E4F50AF50B780C7908122B6E80
:10E32000780C122A497A007B01900598E0F9124096
:10E33000437404122A2E02D8DF74EE12243D7E00AC
:10E340007F008E0A8E0B1247ED750D00803BAA0DE3
:10E350007B001247F38A088B09A808A909E84960DD
:10E360002688828983A3A3A3A3E0600464047017B2
:10E3700088828983A3A3A3A3A3A3A3A3A3A3E0F950
:10E3800012344FE960010F050D904EF9E493F8E562
:10E390000DC39840B91234138A0E8B0F750C008090
:10E3A00023AA0C7B0012341F8A088B09A808A9092C
:10E3B000E849600EE8240F129A86F912344FE9609A
:10E3C000010E050CC3E50C950EE4950F40D3EF2E1E
:10E3D000FE700302E4CF8E087509007402780812FB
:10E3E0002C06AA08AB09123F778A0A8B0BEA450B69
:10E3F000700302E4CD750C008E0875090074027874
:10E4000008122C06AC08AD0979FF123EBD750D004F
:10E41000805EAA0D7B001247F38A088B09EA450942
:10E42000604C8A828B83A3A3A3A3E060046404707E
:10E430003D8A828B83A3A3A3A3A3A3A3A3A3A3E047
:10E44000F912344FE9F96026050C780A122A51EEC8
:10E45000FD850882850983A3A3A3A3A3A3A3A3A3E4
:10E4600012E56012CC3C1233E97402122A2E050D1B
:10E47000904EF9E493F8E50DC3985006E50CC39F60
:10E480004090750C00C3E50C950EE4950F5040AA22
:10E490000C7B0012341F8A088B09EA4509602AEABE
:10E4A000240F12AFA3F912344FE9F9601C780A1255
:10E4B0002A51EEFDE508240E12CC2812E56012CC9C
:10E4C0003C1233E97402122A2E050C80B87E007FBC
:10E4D00062900536E0600BF9123125E9F87454C3F7
:10E4E00098FF75F003EF84F50D94204003750D1F20
:10E4F000850A08850B09750C00EF6005750C207FF7
:10E5000000E50DC39E5005850D0F80088E0FE50CAC
:10E51000D2E6F50CAC08AD09AA0CA90F1233EFE94D
:10E52000F50EE50CA2E6401D150F7800800BE508FE
:10E530002404F5085002050908E8C3950F40EFE5EB
:10E540000FCEC39EFEE97006E50CA2E650A8E50AD0
:10E55000450B6007AA0AAB0B123F7DA90E02C24F02
:10E56000E0FC8508828509832274F212243DEAFECC
:10E57000EBFF89088C098D0A7C007D00740E122D3A
:10E580000712CC3C750B00800DEAFCEBFDEA24047D
:10E59000FA50010B050BE50BC3950A400302E63860
:10E5A0008A828B83E0F47003A3E0F4607AEC4D6020
:10E5B0000C8C828D83C3E09EA3E09F50CC8A828B1B
:10E5C0008312E63BEE98EF9950BFEAF8EBF98882A8
:10E5D0008983E0F47003A3E0F46010E82404F850A9
:10E5E0000109050BE50BC3950A40E3E8FCE9FDE8EA
:10E5F00024FCF8E934FFF98882898312E6408C8292
:10E600008D83E50CF0A3E50D12E6578C828D83A374
:10E61000A312E64DA3A3A3E08C828D83A3A3A3F052
:10E62000C3EA98EB9940C412E0A58A828B83A3A326
:10E63000E50912E648E508F0028AE312D4EEC322A7
:10E64000E0F50CA3E0F50D2212B13FA32212E65132
:10E6500022F0888289832212E65DA3E02212E6512D
:10E66000A32274F212243D74FD122AC789088A0974
:10E67000ECFEEDFF750A0175F003E9A42402C0E089
:10E680007401122D07D0E012CF72123311EA4B60E1
:10E690007012D75E12CD397408F0741F5508450901
:10E6A000A3F0E82402F8500109750A0080338E8235
:10E6B0008F8312DCA812DCAE8E828F8312CD498E3E
:10E6C000828F83A3A3E05407C4FC8E828F83A3A30D
:10E6D000A3E054074C12CD4BEE2404FE50010F056D
:10E6E0000AE50AC3950840C68A828B83A3A374FCFB
:10E6F000F0A374FFF012E7047401F012479FE9F5EC
:10E700000A028ADCEA2413F582E43BF5832274F1E1
:10E7100012243D8A0A8B0B7508007AFE7BFF7CFE73
:10E720007DFFE50A12DAC7350B12D8CBF509741F45
:10E730005509F50CE82402F8500109E509A2E74063
:10E7400065E50A2417F582E412F547FE75F003E546
:10E750000CA424026E704FE50C600612DB86FBEE03
:10E76000FA750D00801DE05407F50EA3A882A98359
:10E77000EEFC90053EE06E7003A3E06F7003850E23
:10E7800008050DE50DC3950C502612DB86FCE4CC84
:10E79000FDEE2CE43DFFE82402F85001098882894F
:10E7A00083E0548860C07AD37B0012430D02E8F105
:10E7B000E508700BA9091233FBE9700302E8F112B6
:10E7C000E8F612CC3C1248538A0C8B0DAE0CAF0D00
:10E7D000EE4F605A8E828F83A3A3A3A3A3A3A3E4C7
:10E7E000F0904EE693F88E828F83A3A3A3A3A3A3F6
:10E7F000A3A3E0C398402412E9005001097A027BE8
:10E8000000122256E88E828F83A3A3A3A3A3A3A3FF
:10E81000A3F0E508C39407500205088E828F83A3F6
:10E82000A3A3A3A3A3A3A3A3E508F002E8F17CFF9D
:10E830007DFF12E8F612CC3C1234078A0C8B0DAE29
:10E840000CAF0DEE4F704F12340D8A0C8B0DAE0CC9
:10E85000AF0DEE4F700302E8F17C177D00790012D6
:10E860003EBD12E8F612CF2C1287368E828F83A31C
:10E87000A3A3A3A3A3A3A312B98412B4CF74AA120F
:10E88000E91F5001097A027B0012225612DB5CE874
:10E8900012E90B7401F0904EE6E49312BF09C3989D
:10E8A000401912E9005001097A027B001222561227
:10E8B000EFABE508C394075002050812EF97E5088F
:10E8C00012E910E4F0129FD31248E3E97023850A9D
:10E8D00082850B83A3A3A3A3A3A3A3A3E06012E554
:10E8E0000A2415F582E4350B12B965129FD4124043
:10E8F0008B7F070226CDE50A12F415350BF583222E
:10E90000904EE6E49379002401F822F012EF9B2266
:10E91000F012E91522EE240CF582E43FF58322F093
:10E92000904EE6E49379002401F82274F712243D16
:10E93000E9FE74FE6A700374FF6B603474605E6499
:10E9400060602DEEA2E5401CA2E690053E500DC38E
:10E95000E09AA3E09B5019790002B3A0C3E09AA308
:10E96000E09B40F390053E12E63BEC98ED9940E7C2
:10E97000790180E574F712243D7E008008EE12EBE9
:10E98000531234250E12E9B540F37E00EE75F00304
:10E99000A4F8A9F074B728F8740539F98882898336
:10E9A000A374FEF0A30412E64DE4F00EEEC394034C
:10E9B00040DA02B3A0904EE3E493F8EEC3982274D9
:10E9C000F712243D7E0080010E12E9B55026EE12AA
:10E9D000EA0B6A7003A3E06B70EE12E9FB6C700344
:10E9E000A3E06D600A74FF6C700374FF6D70D91240
:10E9F000EB5A80047A007B0002B3A012E9FF227474
:10EA00004C28F582740E39F583E02275F017A4F8CE
:10EA1000A9F012EA162212EE75E02274F612243DD5
:10EA20007CFF7DFF7AFE7BFF123407EA4B703C755A
:10EA300008008032E50875F017A4F8A9F074512891
:10EA4000F582740E129A89600512EE9A701674425D
:10EA500028FE740E39FF8E828F8312CC3C122EBB9F
:10EA6000EEFAEFFB050812EA6E40C902C8BA904EF2
:10EA7000E3E493F8E508C39822C082C0837A007B60
:10EA8000007C00801012F01C7003A3E0F460050A03
:10EA9000EA70010B0C12EE8040EB02C52874F412F0
:10EAA000243D8A088B09ECFEEDFF800B123425EE25
:10EAB000FCEFFDAA08AB09123407EA4B70EE028F97
:10EAC0007174F712243D7D007C0080020D0C12EE63
:10EAD00080501C12F01C7003A3E0F460F0EDF8EA23
:10EAE000684B70E8EC75F017A4F812EB5A80047AC2
:10EAF000007B0002B3A074F712243DEAFEEBFFEEA8
:10EB00004F60187C177D007900123EBD8E828F8386
:10EB100074FEF0A30412EFB2F0A3F002B3A074F6F7
:10EB200012243D8A088B097E00801AEE75F017A426
:10EB3000F8A9F012EB4D7004A3E06509600612EB32
:10EB40005A1234250E12E9B540E102C8BA12E9FFA3
:10EB500065082275F017A4F8A9F0744228FA740E1B
:10EB600039FB2274F412243D8A088B09ECFEEDFF78
:10EB7000901D2FE060046401702090054BE06E70E2
:10EB800003A3E06F70141248538A0A8B0BA80AA9DA
:10EB90000BE8496005E82408801AEEFCEFFDAA089E
:10EBA000AB091234078A088B09A808A909E849604B
:10EBB00009E8240DFAE439FB80047A007B00028F17
:10EBC0007174F412243D8A088B09ECFEEDFF750A7E
:10EBD00000750B00802FE50B12F00C1248E3E96082
:10EBE00022E50B12EA0B65087004A3E065097003C7
:10EBF000750A0AEEFCEFFD12F013124085E960037E
:10EC0000430AA0050B904EE3E493F8E50BC398503C
:10EC100004E50A60C1A90A028F7174F612243D7ED0
:10EC200000805AEEFA7B001247F38A088B09A80885
:10EC3000A909E849604688828983A3A3A3A3E06465
:10EC400001603988828983A3A3A3A3E06402602CB6
:10EC5000E82407129A86FA74012AF090058DE0C321
:10EC60009A501988828983A3A3A3A3A3A3A3A3A3D0
:10EC7000A3E412ED02A312ED0D122EBB0E904EF97D
:10EC800012E9B8409E7E008059EE75F017A4F8AAEC
:10EC9000F0EAF912F0247003A3E0F460447442280F
:10ECA000F8740E39F9E8240C129A86F8740128F0E9
:10ECB00090058DE0C3985029EE75F017A4F8EAF995
:10ECC000744228F8740E39F9E812ECFC39F583E443
:10ECD000F0E8240EF582E439F583E412ED0D122EEE
:10ECE000BB0E12E9B540A27A00EA12D37760021493
:10ECF000F00AEAC3940340F102C8BAEE240FF58289
:10ED0000E42212E65DA3A3A3A3A3A3A32212E651C8
:10ED100012D1702274F112243D8A0A8B0BECFEEDA5
:10ED2000FF750E007A007B017508FE7509FF740FF0
:10ED3000122D0712E6408011123ECFE50EF5F0EAE3
:10ED400084E5F0FA750E007B007C00800712EE75FA
:10ED50001286E40C12EE80505CEC75F017A4F8AD4E
:10ED6000F0EDF912F0247003A3E0F460E612EA1269
:10ED7000650A7004A3E0650B60D912F0077003A365
:10ED8000E06F60CF12EA12650C7004A3E0650D60BD
:10ED9000C212EE9A60BDC3940850B8E0640760AD3B
:10EDA000EB050E70AEE50EC39A40A8744228F582BA
:10EDB000740E02EE3F901D2FE060076401600302B5
:10EDC000EE477C00800712EEB51286E40C904EF9F7
:10EDD00012EE835072EC75F01CA4F8ADF0EDF91250
:10EDE000EEB064FE7003A3E0F460E112EEB0650AD9
:10EDF0007004A3E0650B60D412EEB06E7003A3E064
:10EE00006F60C912EEB0650C7004A3E0650D60BCC4
:10EE100012EE8A60B7C3940850B212EEA564016086
:10EE2000ABE0640260A612EE8A64076099EB050EFF
:10EE3000709AE50EC39A409474F628F582740B3DDF
:10EE4000F58312CC3C802BE50E6011EA700E740144
:10EE5000650E600302ED387A0102ED4474FE650828
:10EE6000700474FF65096006AA08AB0980047AFE85
:10EE70007BFF02E8F1744228F582740E39F5832293
:10EE8000904EE3E493F8ECC3982274FF28F5827463
:10EE90000B12EE952239F583E022745028F5827426
:10EEA0000E12EE952274FA28F582740B12EE95225A
:10EEB00012EEB5E02274F628F582740B39F5832240
:10EEC00074F512243D8A088B09ECFEEDFF750A00EB
:10EED0008002050A904EE3E493F8E50AC3985022B5
:10EEE000EEFCEFFDE50A12F00C124085E960E3E567
:10EEF0000A75F017A4F8A9F0744228F582740E126E
:10EF0000DCC702B610E9F87907C3940D4004790113
:10EF10008019E8C3940740047903800FE8C3940381
:10EF2000400479058005E8700279000229FB74F03D
:10EF300012243D8A088B098C0A8D0B890C12340D22
:10EF40008A0E8B0FAE0EAF0FEE4F60487C177D0020
:10EF50007900123EBD8E828F8312DE3412EFB21220
:10EF6000DA03E50C600712B4CEE50C800312EFA5BE
:10EF7000F0900592E06401700612EF97E4800512AC
:10EF8000EF97740712E91F5001097A027B001222E1
:10EF90005612EFAB02D8DF12EF9B22EE240EF58261
:10EFA000E43FF5832212CD26740122EE12DB61E8E4
:10EFB000F02212A954A32274F712243DEAFEEBFFBB
:10EFC000750800803AE50875F017A4F8A9F012F06A
:10EFD000077003A3E06F601474FF6E700374FF6F1B
:10EFE000701B12F0247003A3E0F4601112F01312EE
:10EFF00048E3E97008E50812EB53123425050812BE
:10F00000EA6E40C102B3A012EA166E2275F017A490
:10F01000F8A9F0744428FA740E39FB22EC75F01745
:10F02000A4F8A9F012EA1664FE22C082C0837AFF17
:10F030007BFF12345B02C528C082C0839005CB746D
:10F040006DF0A37434F09005CD7473F0A37434F0B4
:10F050009005CF7479F0A3743402AD2D74F71224A7
:10F060003DEAF8EBF99004D512F0A5CA2406F58222
:10F07000E43AF583E0702B88828983A3A3A3A3A33A
:10F08000A3A3A3A31228559004D512F0AA122CD83A
:10F0900088828983A3E0F9122D717402122A2E123C
:10F0A000478702B3A0E0FAA3E02212F0A5F5838A15
:10F0B0008222C082C08390059512F176F09005956A
:10F0C00012CF3B700579011233B302C52874F612D2
:10F0D000243D74FC122AC7E9FE904EECE4937008BC
:10F0E00074E16E600302F171EA2408F8E43BF988E8
:10F0F00082898312F17612F17F700E900595E4F00B
:10F10000A3F079011233B38068901D31E06062F89A
:10F1100090059512CC3CC3E89AE49B5054790012B8
:10F1200033B38A088B09AC08AD09ECF8EDF9E87542
:10F13000F064A4F8AAF075F064E9A42AF9900595A2
:10F1400012CC3C12225EE8941AE994004023901CF1
:10F150004912CF3B601B90059512CC407402122DD2
:10F1600007ECF0A3ED12CF72901C4912E2A1122617
:10F170002E740402C8B7E02401F0A3E03400221288
:10F18000E65112D4EEE84922C082C08374F8122AF4
:10F19000C7908068AC18AD197408122977AC18AD07
:10F1A00019124085E96401700479008002790174C4
:10F1B0000802D52B74F612243D740C122D0712BCD4
:10F1C00013743A6E7001EF6006743B6E4F702374D7
:10F1D0000A122D071228558C088D097808122A5119
:10F1E000EAFCEBFDEEFAEFFB1240017404122A2E4A
:10F1F0008002790A02C8BAC082C0839005D174E740
:10F20000F0A37447F09005D374E1F0A37447F09035
:10F210001D1DE0640170329005D57497F0A374341D
:10F22000F09005D7749DF0A37434F09005D974A3C1
:10F23000F0A37434F09005DB74A9F0A37434F0905B
:10F2400005DD7491F0A37434F09005D512CF3B60C6
:10F250000612C85D12262E02C52874F412243D74CD
:10F26000E6122AC78A088B097404122D077402F06B
:10F2700004122A9F1233118A0A8B0BAE0AAF0BEECF
:10F280004F700302F3E412F434746012CD5512DEB1
:10F290004612328D12DC9612B98012DE3412BF6132
:10F2A000701290052AE0C0E012F3E9D0E0F090057A
:10F2B0002AE004F012F4057016901EC4E0600D9070
:10F2C0000535E0700A8E828F83E0700312CD17AC93
:10F2D00018AD19EEFAEFFB1232698A088B09EA457C
:10F2E00009700302F3DD7A217B00123F7774061266
:10F2F0002D0712E10D7406122D0712CF3B70030289
:10F30000F3D67C217D0079007406122D07E0FA12F5
:10F310003EBD7401122A9F795012467F7401122D4E
:10F320000712BA857406122D0712F0A5CA2409F532
:10F3300082E43AF58312CC4B90053E12BA857417DD
:10F34000122D0712CC4B7406122D0712BC1812F4A2
:10F350000BF07406122D0712B08E740212F45A7458
:10F3600006122D0712F0AA12CC4B7406122D0712AA
:10F37000F43F12F465C0E07406122D0712BC181297
:10F38000F41BD0E0F0EE240E12F3F3C0E07406128A
:10F390002D0712F424D0E0F07406122D0712BC18C9
:10F3A00012BC0912DCC8EE240F12BA7F740C122DA5
:10F3B0000712CC4B8A828B83E0C0E0740E122D07BB
:10F3C000D0E0F07406122A9F1231DF7406122D0766
:10F3D00012CC3C123F7DAA08AB09123F7DEEFAEF3A
:10F3E000FB123F7D741A028F6EEE2414F582E43F07
:10F3F000F5832212F3F8E022F8E43FF9E8FAE9FB9A
:10F400008A828B832212BEFE64012212F41538F523
:10F4100083740222EA240BF582E422241EF582E49E
:10F4200038F5832212F4282212BC1C240CF582E445
:10F4300038F5832212CC1A12CD3F7404F0A322E0D7
:10F4400012F4497401F0A3E422F8A3E0C812F451C5
:10F4500022240DF582E438F5832212DB7612D4EEF5
:10F4600022E8F0A3E912A7A4E02274F612243D7E5C
:10F470000080187C047D0079FF8E088D0974027865
:10F4800008122C0612F6A5123EBD0E904EF212E99D
:10F49000B840E002C8BA74F412243D74F7122AC7C7
:10F4A000750800802285080A750B007402780A121C
:10F4B0002C0674E1250AF582741112F54724FFF039
:10F4C000A3E034FFF00508904EF212EA71506D850A
:10F4D000080A750B007402780A122C0612F53FF424
:10F4E0007003A3E0F460DE85080A750B00740278EF
:10F4F0000A122C0674E1250AF5827411350B12CF1D
:10F500003970A27408122D077402F085080A750B71
:10F5100000780A122C0674DF250AFE7411350BFFE1
:10F520008E828F8312CC4012F54D1246C77C047D2B
:10F530000079FFEEFAEFFB123EBD808902B08974BC
:10F54000DF250AF5827411350BF583E02212F6BE31
:10F550002274EE12243D74F7122AC7EAFEEBFF75FF
:10F560000CFF7408122D0712F6B01246C1E9641A96
:10F57000700302F623750E00741B122D0778081213
:10F580002C7A800B74FF650C7003850E0C050E90B1
:10F590004EF2E493F8E50EC3985048850E107511AD
:10F5A0000074027810122C0612F627F47003A3E000
:10F5B000F460D1850E1075110074027810122C06BB
:10F5C00012F6276E7003A3E06F70C2750F0074020D
:10F5D000780E122C0674E1250EF5827411350FF5A4
:10F5E000838030E493650E702D74FF650C602E856A
:10F5F0000C0E750F007402780E122C0674DF250EA7
:10F60000F87411350FF98882898312E0A9888289FC
:10F6100083A3A312DCCA7901740902C24C12F54D0E
:10F620001246C7790080F174DF2510F58274113518
:10F6300011F583E02274F412243D74F7122AC7EA0C
:10F64000FEEBFF7408122D0712F6B01246C77508BC
:10F650000080020508904EF212EA71504585080AB2
:10F66000750B007402780A122C0612F53FF4700331
:10F67000A3E0F460DE85080A750B007402780A12B4
:10F680002C0612F53F6E7003A3E06F70C67C047DFC
:10F690000079FF8D0974027808122C0612F6A51263
:10F6A0003EBD02B08974DF2508FA74113509FB22CA
:10F6B000740212A7A4EEF0A3EFF012F6BE2290059A
:10F6C0004B12B95FAA18AB192274EE12243D8A08B6
:10F6D0008B09ECFEEDFF750A00EE65087003EF651F
:10F6E00009600C123FF58A0C8B0DEA450D7006750A
:10F6F0000A0102F785EEFAEFFB123FF58A0E8B0F37
:10F70000AC0EAD0FEC4D6007EEFAEFFB124007E4D4
:10F71000F50EF50F780E122A51AC0CAD0DEEFAEF86
:10F72000FB123FEF7402122A2EE96059AA0CAB0DAE
:10F73000123F778A0E8B0FEA450F6046780E122A29
:10F7400051780C122A517C007D00AA08AB091240A6
:10F75000017404122A2EE9701D780E122A51780CB9
:10F76000122A517C007D00EEFAEFFB123FFB74047D
:10F77000122A2EE96003750A01AA0EAB0F123F7D13
:10F780008003750A10A90A02C24F1222B70229FB90
:10F79000C082C08374FF122AC7AC18AD197A0179F0
:10F7A000871240B5851882851983E0C39403400F02
:10F7B0007402F07C007D00FA79E21240EB800CE4E8
:10F7C000F0901EE3E0FA7B001241637401122A2ECE
:10F7D000D083D0820229FB74F012243D74F5122AE2
:10F7E000C7851882851983EAF0A3EBF0ECFEEDFFE4
:10F7F000750820E9700302F997901B85E0F4700307
:10F80000A3E0F47062EE4F6073740A122D07740364
:10F81000F07402122A9F12408B901B7EE0F508784C
:10F8200008122A557403122AA77401122D0712FD1B
:10F83000FE901B7EE0F9122FE77401122A2EE9F5E3
:10F840000870247D007C007900EEFAEFFB12446F13
:10F850009081221228517A007B01901BC0E0F9129E
:10F86000403D7404122A2E851882851983E0FCA37A
:10F87000E0FDAA0879E11240EB02F9C075080274B4
:10F880000A122D077402F0122D0774FFF0A3F01274
:10F89000F9CFA3A3A312285588828983A3A3A3A386
:10F8A000A3A3A3A3A3E0FC7402122A9F790112432D
:10F8B0007F7402122A2EE9602F7508007808122A38
:10F8C00055E4F50AF50B780A122A517808122A55E0
:10F8D0007404122A97880A890B780A122A5112F99D
:10F8E000CA1228557901805712F9CF1228558882FB
:10F8F0008983A3A3A3A3A3A3E0FC7402122A9F7984
:10F900000112437F7402122A2EE9700302F8677510
:10F9100008007808122A557401122A97880A890B60
:10F92000780A122A517508017808122A55E4F50A56
:10F93000F50B780A122A5112F9CA12285579007C5F
:10F94000FF7DFF740A122A9F12447B7408122A2E2C
:10F95000E9F508E508600302F8679004EBE0F50CB0
:10F96000A3E0F50DE4F50EF50F780C122A497A00A4
:10F970007B20901B84E0F912403D7404122A2E85EE
:10F980001882851983E0F8A3E0F9901B85E8F0A3BD
:10F99000E9F0802C1238AB7C00851882851983121F
:10F9A000FF391238D5EA4B70EB9081221228517A38
:10F9B000007B01901BC0E0F912403D7404122A2E16
:10F9C000740B122A2E7F080226CD12FF48A3229024
:10F9D0001B81E0F8A3E0F988828983A3A3A3A3A3F2
:10F9E000A3A32274F712243D74F7122AC7740812D5
:10F9F0002D077402F0851882851983EAF0A3EBF0D5
:10FA00007D007C00AA18AB191244E77409122A2E53
:10FA100002FC5574F412243DE9FE7A007B40901BF1
:10FA200084E0F9124049EE700A7A0012FF3E123863
:10FA30006F80477A0112FF3E12386F74FF6E603A92
:10FA4000EEC3944140027E40EEF875F0E8A4C8AAE7
:10FA5000F075F003A42AFAE42A8808F5093395E042
:10FA6000F50AF50B7808122A497A007B40901B842E
:10FA7000E0F912403D7404122A2E02FB7674F4124F
:10FA8000243D74F4122AC78C088D09E9FF741B12F7
:10FA90002D07E0FE74FE6A700374FF6B7009740832
:10FAA000122D07E4F0801D851882851983EAF0A3E2
:10FAB000EBF07408122D077402F012332FE9600482
:10FAC000EEC2E4FE740A122D07E4F0A3F012FF4325
:10FAD000C0E07409122D07D0E0F0741C122D07E06D
:10FAE000F50A780A122A55741B122A97880A890B7C
:10FAF000780A122A51741B122D071228558F0A7585
:10FB00000B00780A122A517808122A51EEF97C7EED
:10FB10007D1B7409122A9F12384B7409122A2EE990
:10FB2000FA600E741A122D07E0FC7D0079E0124095
:10FB3000EB740C122A2E803E74F412243DE9FFEA85
:10FB4000FE8C0A8D0BEFFA7B00123FF5EAF508EE0A
:10FB5000C3950850047901801D780A122A5175094D
:10FB6000007808122A517C007D00EFFA7B001240D9
:10FB7000017404122A2E7F040226CD74F612243D4D
:10FB8000E9FFEAFE8C088D097808122A518E087563
:10FB900009007808122A517C007D00EFFA7B0012E0
:10FBA0003FFB7404122A2E7F020226CD74F5122424
:10FBB0003DE9601714601C14602114602614602B4A
:10FBC00014603014603F14604E80667508C3750978
:10FBD0001B802675082B750912804275083E750931
:10FBE0000580287508417509058020750843750949
:10FBF00005802A750840750905750A007808122ADB
:10FC00004D7C01802275084B750905750A0078083E
:10FC1000122A4D7C02801075085F750905750A006F
:10FC20007808122A4D7C087D00123EB17403122A16
:10FC30002E7F030226CD74F712243DE9FE74016E77
:10FC400070097D007C00790012446F800874F712FF
:10FC5000243D123D497F010226CD74F712243D1246
:10FC60003D4F80F174F212243D74FF122AC7890AB5
:10FC70008A088B09EB5480700302FD7E800FA3E09D
:10FC8000F9123D43EEFAEFFB123EDBA90A123EEDFC
:10FC90008A0C8B0DAE0CAF0DEE4F700302FD768E0D
:10FCA000828F83E024E6603D24496074147003026F
:10FCB000FD5314601624F3700302FD5C14700302FC
:10FCC000FD661460B924E5600B80B9EEFAEFFB1213
:10FCD00040DF80B0A3E0FA8E828F83A3A3A3E0F974
:10FCE0001240CD809FEE2422F582E43FF583122856
:10FCF00055EE2420F582E43FF5831228558E828F3D
:10FD000083A3A3A3A3E0FCA3E0FD8E828F83A3A320
:10FD1000A3A312FDFC123D617404122A2E02FC847E
:10FD2000A3E0640660148E828F83A3E06407600AF8
:10FD30008E828F83A3E064097005790002FC818EB6
:10FD4000828F83A3E060076401600302FC84792250
:10FD500002FC8112FDFC123D5502FC84A3E0FA8EE8
:10FD6000828F8302FCDCA3E0F98E828F8312FDFC7C
:10FD70001240D302FC84AA08E5096480806FEB542A
:10FD80004060107A0012FF3E12386FAA08E509643D
:10FD900040805AEB5420601B7921901B8512FDFE98
:10FDA0001240D3901B8574FFF0A3F0AA08E5096404
:10FDB00020803AEB54107A0060367908123977AC1B
:10FDC00018AD197A0179031240B585188285198317
:10FDD000E0A2E25005124097800D7CF47D017B3259
:10FDE0007A00790212397DAA08E5096410FB8002C5
:10FDF0007B007401122A2E7F060226CDA3A3E0FA0F
:10FE0000A3E0FB2274F612243D74F7122AC7EA24F9
:10FE10000CF582E43BF583E0F508A3E0F5097808EA
:10FE200012268100000200008031FE06804EFEF1A5
:10FE3000FE1244398A828B83E5822403FCE43583F5
:10FE4000FDA3AA82AB837901123D5B02FEF112444D
:10FE50003F8A088B09AE08AF09901B85E0F4700358
:10FE6000A3E0F4700302FEF17408122D077402F08F
:10FE70008E828F83A3E0F8A3E0F985188285198329
:10FE8000E8F0A3E9F08E828F83A3A3A3A3E0F50893
:10FE90007808122A557401122AA7901B8512FF397F
:10FEA000122FE77401122A2EE970467A007B209007
:10FEB0001B84E0F91240499081221228517A007B7C
:10FEC00001901BC0E0F912403D7404122A2E7D00FF
:10FED0007C0079008E828F8312FDFD1244757900BB
:10FEE000901B8512FDFE123D4F901B8574FFF0A301
:10FEF000F0740902FBA474F712243DE9901B84F00E
:10FF0000901B8574FFF0A3F0901B7F7484F0A374A2
:10FF10001BF0901B7EE4F0FA12FF3E12386F7A005D
:10FF20007B80901B84E0F91245177A067B80901B3A
:10FF300084E0F912451702FC55E0FAA3E0FB12FF3A
:10FF400043F92212FF48E022901B81E0F8A3E0F57C
:10FF50008388822274F412243D89088A09ECFEED1C
:10FF6000FF7A047B00123ED5EA4B601E8A828B83A7
:10FF7000E508F0A3E509F08A828B83A3A3EEF0A342
:10FF8000EFF0901B84E0F9123EE102FB76F0D083A3
:10FF9000D0820229FBC082C0839061A5E0D2E2F04A
:10FFA000900B50E0C39412502D900B7EE090617244
:10FFB000F0900B7FE0906173F0900B82E0906174A1
:10FFC000F0900B83E0906175F079087C927D0B7A5C
:10FFD0006A7B61123B45906180E4F0E0440980ADAA
:10FFE000C082C0839061A5E0C2E280A10229FB0229
:10FFF00029FBFFFFFFFFFFFFFFFFFFFFFFFFFFFFEB
:020000040001F9
:10000000C082C083790012CF80C082C0839004D1A7
:1000100012C834D083D082C3E09CA3E09D500DEA87
:10002000240B12804F12802F60027901029E29EA70
:1000300075F00BA4FAA8F075F00BEBA428FB900464
:10004000D3E02AF8A3E03B8882F583E0540F22F541
:1000500082E43B12B9692274F712243D890812B078
:1000600082128395ACF075F00BE9A42CF99004D3BF
:10007000E028F8A3E039F9E8FEE9FF7401650860BB
:10008000067402650870228A828B8312854B740283
:1000900065087021EA2403FA50010B1248E3E97065
:1000A000148E828F83E4F0800CEA2403FCE43B127C
:1000B00085421248E98E828F83E0D2E7F012425FD8
:1000C00002AC3874F412243D12861C79008E828FA3
:1000D00083E06078890A890B8063E50A75F00BA4D8
:1000E000FAA8F075F00BE50B12803B7048E50A7535
:1000F000F00BA4F8AAF075F00BE50B12855F8E8269
:100100008F83E085088285098312A5101284C0EED2
:100110002403FCE43F1281FA1248E912AE86E50A94
:10012000F0A3E50B129B46D2E7F012425F790190F3
:1001300004D1129419050AE50A7002050B9004D146
:1001400012C06CC3E50A9AE50B9B408E029B50746B
:10015000F512243DEAFEEBFF750A01740B122D0720
:1001600012CC91EC4D6015EC12BD363D12862A7909
:1001700001124907E508450960758023E50845092E
:10018000604412BD34350912862A1281FB1248E3FD
:10019000E96401701BEEFAEFFB124901E9F50A85EB
:1001A00008828509831284B87902AA08AB098011F4
:1001B0001285431248E3E9640170347903EEFAEFE3
:1001C000FB12490780298E828F83A3E064FE7003AF
:1001D000A3E0F4700B1285431248E3E96401700C4C
:1001E000EEFAEFFB124901E9F50A8003750A0002F5
:1001F0008CA9E50A2403FCE4350BFDE5082403FA89
:10020000E43509FB2274F712243D9004D112AFB6F5
:10021000EA4B602FEA75F00BA4FAA8F075F00BEB2F
:10022000A428FBEAFEEBFF123F779004D312AFB68F
:100230009004D312ADCB6012EEFCEFFD7900123EBC
:10024000BD80079004D3E4F0A3F002AC38C082C0B4
:1002500083EC4D600512408B80097C087D0079009D
:10026000123EBD029E29C082C0837900EA4B60160F
:100270007800E8FCEA2C12B08E6004790178080856
:10028000E8C3940840EC029E2974F712243D74F3ED
:10029000122AC7ECFEEDFF851882851983E4F0046D
:1002A000122D07EAF0A3EB12C12C1248C5740312F9
:1002B0002D07AC82AD83EEFAEFFB1248E9EEFAEFC0
:1002C000FB1248E302AC3374F712243D74F3122A94
:1002D000C7ECFEEDFF851882851983E4F0EAFCEB9C
:1002E000FD7403122D07AA82AB831248E9AA18AB4A
:1002F000191248BF7401122D0712A5218E828F8317
:1003000012AF7274FE68700374FF69600479018033
:1003100002790002AC3374F712243DEAFEEBFF12BF
:1003200048FBE9F508740165087011128380F4FA3E
:1003300088828983E05A4480F012425FA90802ACA7
:100340003874F712243DEAFEEBFF7508008E828FA9
:1003500083E0602A1248FBE9F50874016508701E05
:10036000128380FA88828983E05A70128E828F838A
:10037000E04480FA88828983E04AF012425F80BCC0
:1003800012ACFAF8128395128737F8A3E039F98E88
:10039000828F83E022A3E0F9E875F00BA4F82274C1
:1003A000F412243D8A088B097C007D00EA1281FD4D
:1003B0001248E9E5081284DA790085088285098304
:1003C000A3E064FE7003A3E0F460787E007F008009
:1003D00065EEFAEFFB12802F6057EEFAEFFBEA753D
:1003E000F00BA4FAA8F075F00BEBA428FB9004D353
:1003F000E02AF50AA3E03BF50B8508828509831204
:10040000C06B850A82850B83A3E06A7003A3E06B4F
:10041000701FE50A2403FAE4350BFB1248E3E96494
:100420000170061281F21248E91284CF790112C9D3
:100430009B0EEE70010F9004D112C06CC3EE9AEFC8
:100440009B408E029B5074F312243D8A088B098ACC
:10045000828B831284B8EA1284DA750C00EA128166
:10046000FD1248E3E9640170477E007F00803C1282
:100470008729FAA3E0398A82F583E0540F602712B6
:100480008729F50AA3E039F50B1281F2124085E9BC
:1004900064017012850A82850B831284C01284CF96
:1004A000750C0112C99B0EEE70010F12874640BFFA
:1004B000A90C7F050226CDA3A374FEF0A304F022AD
:1004C000A312AC24850882850983A312A22922E500
:1004D000081284E4EEF0A3EFF0221284E474FEF03C
:1004E000A304F022240BF582E43509F5832274F588
:1004F00012243DEAFEEBFF8E828F831284B87C00CB
:100500007D001285431248E9EEFAEFFB1248FBE941
:10051000F50A7401650A702712AC1D12855385080F
:1005200082F58312854B1281FB1248E3E964017066
:100530000EE5082403FCE435091285421248E9025D
:100540008CA9FDEE2403FAE43FFB22A312C07A1229
:10055000A22922E875F00BA4F8AAF075F00BE912B5
:10056000873DF508A3E039F5092274F212243D74A1
:10057000E6122AC712861C750A0175080075090063
:10058000750C00750D00851882851983E4F0EE2442
:1005900003FCE43FFD7403122D07AA82AB831248CB
:1005A000E9AA18AB191248BFE96401701F740B1255
:1005B0002D0712862C7401122D0712C0747003A32C
:1005C000E069604AA818A91988088909740D122DD4
:1005D0000712A50FA312A521740E122D0712AF72D8
:1005E000740D122A9F1248C5E964017009740D1236
:1005F0002A97880C890D780C122A51AC08AD09EEA7
:10060000FAEFFB1248F57402122A2EE9F50AEEFA07
:10061000EFFB1248CBA90A741A02AE98EAFEEBFF70
:1006200012AE8A74FEF0A304F022F58312C05AF9C8
:1006300012AE8A12A22922C082C08378007900807B
:100640000508E87001099004D112982EE99B502901
:10065000E8FAE9FBEA75F00BA4FAACF075F00BEBE5
:10066000A42CFB9004D3E02AFCA3E03B8C82F5830E
:10067000E0540F70CC790080027901029E2974F653
:1006800012243D7E007F008039EEF8EFF912855389
:100690007808122A5175080B7509007808122A513A
:1006A000EEFCEFFDEC75F00BA4FC75F00BEDA42A4D
:1006B000FD7A237B001240017404122A2E0EEE7084
:1006C000010F12874640C2028BC174F612243D7E90
:1006D000007F00804C128729F8A3E039F9888289CD
:1006E00083E0A2E75036C2E7F08582088583097867
:1006F00008122A5175080B7509007808122A51EE64
:10070000FCEFFDEC75F00BA4FC75F00BEDA42AFDDD
:100710007A237B00123FFB7404122A2E0EEE700126
:100720000F12874640AF028BC1EEF8EFF9E875F083
:100730000BA4F812873722AAF075F00BE9A42AF966
:100740009004D3E028229004D112AC24C3EE98EF99
:10075000992274F612243DE4F508F5097808122A66
:10076000519004D112941475F00BA4FCA8F075F00C
:100770000BEDA428FD7A237B00123FEF7402122AAE
:100780002EE9FE600312489502C69074F612243DCD
:1007900074FF122AC77E007F00803C85188285196D
:1007A00083E412917C122A517508017509007808BA
:1007B000122A51EEFCEFFDEC75F00BA4FCA8F075CD
:1007C000F00BEDA428FD7A237B00123FFB7404128A
:1007D0002A2E0EEE70010F12874640BF7401028B65
:1007E000BEC082C083904EF9E49375F01CA4FCADAA
:1007F000F079FF7AF67B0B123EBD029E2974F71248
:10080000243DE9FCEAFD7A007B008010EB128E5754
:100810009C4008E0F8EDC39840010A0B904EF9E4C3
:1008200093F8EBC39840E57B0002AC3874EC1224DB
:100830003D74F3122AC78A0C8B0D8C088D09890A26
:10084000EC45096016AA08AB0912484D8A0E8B0FB9
:10085000AE0EAF0FEE4F600302892A7A0080010AC4
:10086000904EF912BFB1500F128A1F70F274F62821
:10087000FE740B39FF80047E007F00EE4F70030290
:1008800089D3904EDB1289F060257403650A6006F7
:100890007404650A70197A04790312487D8A0E8BF4
:1008A0000F904EF9E493F8904EDB128A09502D9088
:1008B0004ED91289F0602C7401650A6006740265D5
:1008C0000A70207A02790112487D8A0E8B0F904EB1
:1008D000F9E493F8904ED9128A0940077A007B0018
:1008E0000289EB8518828519837401F0122D07E5C2
:1008F0000CF0A3E50DF0AC08AD097403122D07AAA6
:1009000082AB831248E9AA18AB191248B3740B12D0
:100910002D0712A2228E828F83A3A3A3A3A3A3E4F5
:1009200012C830AA0CAB0D1234197800E50A600722
:10093000C39405500278048E828F83E50CF0A3E502
:100940000D128D1AA3A3E50AF0E88E828F83A3A36C
:10095000A3A3A312C3415001097A027B00122256BD
:10096000129809A3129CA8129835E50A605BC394FB
:10097000035056901ECFE07018904DB8780C122B93
:10098000941297E0122C98904DB8780C122B94800A
:1009900027F50875090074027808122C061289FAE6
:1009A000122B9490810E7810122C7A780C791012F8
:1009B000234E1297E0122C98EE24131297E3122C78
:1009C00098EE241B12C33880091297EC1284BBA343
:1009D000F0A3F07A04790012487D128D0B40059047
:1009E0001E46E4F01232DBEEFAEFFB740D02A02F8C
:1009F000E493F8740193F9E8492274B82508F58264
:100A0000744D3509F583780C22E493FA740193FB55
:100A1000E8C39AF8E49BF9C3E50E98E50F9922EA3A
:100A2000128A25F42275F01CA4F8A9F074FA28F5AE
:100A300082740B39F583E02274EE12243D74F312B4
:100A40002AC7EAFEEBFF8C108D11750800AA10ABC7
:100A50001112484DEA4B7003028B538A828B83E05C
:100A60006E7003A3E06F7003028B538A828B83A3A3
:100A7000A3A3A3E0C394054003028B538A828B8314
:100A800012C989E060728A828B83A3A3A3A3E0C307
:100A900094035064901ECFE07021904DB8780812F6
:100AA0002B94128B5A122C98904DB87808122B94D4
:100AB000EA2413128B5D122C988030F5087509001A
:100AC00074027808122C061289FA122B9490810E67
:100AD0007808122C7A780C790812234E129A0A128E
:100AE0002C98EA2413129A0D122C98EA241BF582F2
:100AF000E43BF583E4F0801B7508FE7509FF750A79
:100B0000FF750BFF128B5A122C98EA2413128B5D7F
:100B1000122C98750800750900750A00750B00EA1B
:100B2000240C128B5D122C98851882851983740110
:100B3000F0122D07EEF0A3EFF0AC10AD117403121C
:100B40002D07AA82AB831248E9AA18AB191248B341
:100B5000750801A908740D02C981EA2417F582E419
:100B60003BF58378082274F612243D1248538A0814
:100B70008B09A808A909E849601488828983A3A37E
:100B8000A3A3E06009C394055004790180027900B1
:100B9000802F74F612243D1248538A088B09A80846
:100BA000A909E849601488828983A3A3A3A3E0600C
:100BB00009C3940350047901800279008003122A4A
:100BC0002E7F020226CD74F612243D1248538A82EB
:100BD0008B83E5824583600BA3A3A3A3E070047914
:100BE000018002790080DAC082C083EAFCEBFD7AE2
:100BF000007B00029E26C082C0837C007D00029E96
:100C00002674F512243D74F3122AC7EAFEEBFF8C1A
:100C1000088D09C3EC94F8ED94FF4004EE4F606535
:100C2000750A00801974FF6508700474FF65096017
:100C30000B12CF7A7004A3E06509603B050A904E61
:100C4000F9E493F8E50AC398503BE50A128A20605C
:100C5000EBEE4F60D0128C90122D0712C128124873
:100C6000B9E960D87403122D07AC82AD83EEFAEFB8
:100C7000FB124085E960C5E50A75F01CA4F8A9F0EF
:100C8000128E4E80047A007B00740D122A2E801B77
:100C90008518828519837401F074F828F582740B25
:100CA00039F58312AC24740B22A90A7F030226CDE6
:100CB00074F412243D74F3122AC775080012484DCB
:100CC0008A0A8B0BAE0AAF0BEE4F60258518828522
:100CD0001983128D18128CA3122D0712C1281248E5
:100CE000D17C1C7D0079FFEEFAEFFB123EBD75084A
:100CF000017A04790012487D128D0B5009901E462E
:100D00007401F01232DBA908029B4B904EF9E49378
:100D1000F8C3EA98EB940022740112A514A3A3224D
:100D200074F712243DE9FE74FE6A700374FF6B7C55
:100D300000700380240C128D83501EEC128A2060F8
:100D4000F4128F1D7003A3E06B70EA800BEC128D20
:100D5000986019E0640360140C128D83501EEE60DD
:100D6000ECEC128D8D60F1C3940550ECEC75F01C29
:100D7000A4FCADF012D4F012C06C80047AFE7BFFAC
:100D800002AC38904EF9E493F8ECC3982275F01C4D
:100D9000A4F8A9F0128A2C2275F01CA4F8A9F0126C
:100DA0008A2C640122124805029E29C082C08379E0
:100DB0000180F274F012243D8A0A8B0B7A047901C7
:100DC00012487D8A0C8B0DEA450D6040EA2AFAEB49
:100DD00033FB123F778A088B09AE08AF09EE4F60EC
:100DE000267AFE7BFF1247FF74FE6A700374FF6B66
:100DF000601E85088285098312AFB6E5082402F5D6
:100E00000850E2050980DE750C0080047E007F003A
:100E1000850A82850B83E50CF0EEFAEFFB0290E485
:100E2000C082C0837C008009EA24FF1AEB34FFFBF8
:100E30000C128D835011EC128E57940550F2EA4B30
:100E400070E6128E4E80047A007B00029E2974F6B2
:100E500028FA740B39FB22128A25C32274F7122454
:100E60003D74F3122AC77E00807DEF75F017A4F859
:100E7000A9F0128F0E12C06CEE75F01CA4F8A9F048
:100E8000128F1D7003A3E06B603DEF75F017A4F89F
:100E9000AAF0EAF9128F0E12A5217401122D07E0B3
:100EA000687003A3E069601FEF75F017A4F8EAF912
:100EB000744428FC740E39FD7403122D07AA82AB0A
:100EC00083124085E96013EF75F017A4F8A9F07458
:100ED0004228FA740E39FB1234250F904EE3E49346
:100EE000F8EFC39840840E12D4DD501FEE12DA5B87
:100EF000F47003A3E0F460EE128C90122D0712C17F
:100F0000281248B9E960DF7F0080D002AC33128F2D
:100F10001222744228F582740E39F5832212DA66A1
:100F20006A2274F412243D74F3122AC77E008038BA
:100F30009080D27808122C7AEE75F01CA4F8A9F0F3
:100F4000740928F582740C39F5837808122AF36045
:100F5000169080BE7808122C7AEE75F01CA4F81258
:100F60008FEA7808122BF30E12D4DD507AEE128D30
:100F70008D60F4C3940350EF128FEA122CB4E84949
:100F80004A4B70AC901D1DE06401702D9005D91284
:100F9000ADCB6025EE75F01CA4F8A9F074F628F826
:100FA000740B39F91290401228518882898312906B
:100FB000D512262E7404122A2E8518828519837460
:100FC00001F0EE75F01CA4F8A9F0128C99122D070F
:100FD00012C1281248B9E9608E7403122D07AA8243
:100FE000AB8312480B8080029B4B740D28F58274F2
:100FF0000C39F5832274F612243D1248538A088B6B
:1010000009A808A909E849603288828983A3A3A3B3
:10101000A3E06023C39403501E129040122CC0E83A
:101020002417F582E439F583122CE4E8241BF582B9
:10103000E439F5837401F0790180027900028BC1F3
:10104000E82413F582E439F5832274F012243DEA92
:10105000FEEBFF9005D312ADCB60729005D912ADB7
:10106000CB606A9005DD12ADCB606212D3691226A7
:101070002EE97059901ECFE0700A904DB878081292
:101080002B948028F50875090074027808122C0644
:1010900012D54B744D12D34A7808122B9490810EBE
:1010A000780C122C7A7808790C12234E7808122AC0
:1010B000491290CF12262E7404122A2EE964017070
:1010C0000C8E828F83A3A312D35712262E80158EE7
:1010D000828F83A3A312B96B9005D912D3612274B6
:1010E0000D122A2E7F080226CD74F612243DE4F557
:1010F00008F5097808122A51904EF9E493F508741E
:10110000037808122C06129406123FEF7402122A7A
:101110002EE9FE740A6E6025E4F508F509780812D8
:101120002A51904EF9E49375F005A4FCADF07A3F96
:101130007B00123FEF7402122A2EEE60031247CF9B
:1011400002C69074F612243D74FE122AC7851882D6
:10115000851983E4F0A312917C122A517508027557
:1011600009007808122A517C007D007A227B001247
:101170003FFB7404122A2E7402028BBEF0A818A939
:10118000198808890978082274EE12243D74DE1249
:101190002AC78A0E8B0F8C088D09750C007A227B6A
:1011A00000123FF58A0A8B0B7A3F7B00123FF58ACB
:1011B000108B11AE10AF11E50A450B6017E50865FD
:1011C0000A7004E509650B600BAC0AAD0B7A227B53
:1011D000001240077436122D07129419EE4F601555
:1011E000E50A6E7003E50B6F600BEEFCEFFD7A3FD6
:1011F0007B00124007E4F510F5117810122A51AC6B
:1012000008AD097A227B00123FEF7402122A2EE900
:10121000640A70030293FCE4F508F5097808122AC1
:1012200051AC0AAD0B7A3F7B00123FEF7402122AD9
:101230002EE9640A70030293FC7404122A9788084A
:1012400089097808122A5175080275090078081270
:101250002A517C007D007A017B0312400174041244
:101260002A2EE960030293FC851882851983E4F035
:10127000A3F07E000293737406122A9788088909E6
:101280007808122A517508087509007808122A5141
:101290008E0874037808122C06E5082402FCE43555
:1012A00009FD7A017B031240017404122A2EE960C1
:1012B000030293FC7408122D07E0F47003A3E0F41A
:1012C00070030293727406122A97880889097808B5
:1012D000122A517508087509007808122A517404F9
:1012E000122D0712CC9174037808122C0612940662
:1012F000123FFB7404122A2EE960030293FC74026D
:10130000122A97880889097808122A5175080575E4
:1013100009007808122A51EE75F005A4FCADF07AA8
:10132000027B031240017404122A2EE970417402F8
:10133000122A97880889097808122A5175080575B4
:1013400009007808122A517404122D07129414759A
:10135000F005A4FCA8F075F005EDA428FD7A3F7B0C
:1013600000123FFB7404122A2EE960030293FC1260
:1013700099220E851882851983C082C083904EF908
:10138000E493F8D083D082C3E098A3E09400502186
:10139000851882851983C082C0837404122D0712B8
:1013A000A521D083D082C3E098A3E0995003029294
:1013B00077A818A919880889097808122A51750888
:1013C000027509007808122A517C007D007A227B80
:1013D00000123FFB7404122A2EE97020AC0EAD0FF0
:1013E0007A017B03124007E970127434122D071240
:1013F000C8347A027B03124007E96003750C01A927
:101400000C742202C981E5082402FCE43509FD7A46
:10141000227B002212C838EC22E0F50AA3E0F50B8B
:101420002274EC12243D74FE122AC7750A00851836
:1014300082851983E4F0A3F0904EF993F50EF50838
:1014400075090074037808122C06E5082402F508D3
:1014500050020509E50E75F005A4F50EE5F0F50F4F
:101460007A227B00123FF58A0C8B0DAE0CAF0D7A01
:101470003F7B00123FF58A108B11A818A919880C20
:10148000890D780C122A51750C02750D00780C121A
:101490002A517C007D007A227B00124001740412E4
:1014A0002A2E7A017B03123FF58A0C8B0D7A027B80
:1014B00003123FF58A128B13A812A913E50C450DF0
:1014C000700AE5086E7003E5096F7025E849700C35
:1014D000E50E65107004E50F65117015E50C450DFE
:1014E000607BEE4F604E85188285198312AFBC6019
:1014F000437C017D037A227B001234AFE9F8880A2D
:10150000705B7C027D037A3F7B001234AFE9F88880
:101510000A704AEEFCEFFD7A227B00124007E97068
:101520000EAC10AD117A3F7B00124007E9601175D7
:101530000A018029AE0CAF0DE849600488108911BA
:10154000780E122A517810122A51AC08AD09EEFA21
:10155000EFFB1247C97404122A2EE9F50AA90A748E
:101560000202A02F74EC12243D74D0122AC78518F1
:1015700082851983E4F0A3F01247C3E96003029760
:10158000C8A818A919880889097808122A51750865
:10159000027509007808122A517C007D007A227BAE
:1015A000001240017404122A2EE960030297C890C9
:1015B0004EF9E493F885188285198312982EE49BDE
:1015C00050030297C8750A00750B00750800803D2E
:1015D0007403122D07122CB41297FF122CF074030F
:1015E000122D07122CB412A846122CF0EE241BF573
:1015F00082E43FF583E4F07A04790012487D128D8D
:101600000B4005901E46E4F01232DB05081297D518
:1016100040030297C812A51BC3E50A98E50B994041
:10162000030297C87414122A97880C890D780C123B
:101630002A51750C08750D00780C122A5185080C7A
:101640007403780C122C06E50C2402FCE4350DFD25
:101650007A227B001240017404122A2EE970AC74C5
:1016600016122D07E0F47003A3E0F4609E050AE56E
:101670000A7002050B7407122D077401F07416121C
:101680002D0712A5217412122D0712AF72740712C2
:101690002A9F1248B9E9700302960B12C8317414DC
:1016A000122D0712C06C123419E50875F01CA4F84D
:1016B000A9F074F628FE740B39FF7414122A978867
:1016C0000C890D750E00780C122A4D7C087D00EEF9
:1016D000FAEFFB123EB17403122A2E12C3465001D8
:1016E000097A027B00122256129809129835740268
:1016F000122A97880C890D780C122A51750C0575E1
:101700000D00780C122A51E50875F005A4FCADF027
:101710007A3F7B001240017404122A2EE960030212
:1017200095F79080BE780C122C7A7403122D0778EE
:101730000C122AF360030295D0E50875F01CA4F89A
:10174000AAF0EAF9128D946071C39403506C901E54
:10175000CFE07018904DB8780C122B941297E012CD
:101760002C98904DB8780C122B948033F50C750D95
:10177000007402780C122C0674B8250CF582744D96
:1017800012B939780C122B9490810E7810122C7AA1
:10179000780C791012234EEAF91297E0122C98EE89
:1017A00024131297E3122C98E50875F01CA4F87422
:1017B0001128F582740C390295F31297EC04141277
:1017C00084BBA3F0A30295F6851882851983E0F9FE
:1017D000743002A02F904EF9E493F8E508C39822E4
:1017E000EE2417F582E43FF583780C221297FF74FC
:1017F000FEF0A304F0A3F0A3F012A84A74FE22EEB8
:101800002417F582E43FF58322E88E828F83A3A319
:10181000A3A3A3A3A3A312ABF8740112ABF8A37400
:10182000AAF0EE2410F582E43FF583E4F02212B929
:101830006BC3E89A22A3F012AE8AE4F0EE240CF512
:1018400082E43FF583E4F0A3F0A3F0A3F02274F266
:1018500012243D74FE122AC7851882851983E4F08C
:10186000A3F07508000298EDE50875F01CA4F8A92E
:10187000F074F628F50C740B39F50DAE08780C12DF
:101880002A51750A08750B00780A122A518E0A74BB
:1018900003780A122C06E50A2402FCE4350BFD7AD3
:1018A000227B00123FFB7404122A2EE50C2412F551
:1018B0000AE4350DF50B780A122A51750A05750BE5
:1018C00000780A122A51EE75F005A4FCADF07A3FBB
:1018D0007B00123FFB7404122A2E850C82850D8337
:1018E000A3A3A3A3E0F4600312992205081297D5DD
:1018F0005003029868A818A919880889097808125D
:101900002A517508027509007808122A517C007D59
:10191000007A227B00123FFB7404122A2E7402020A
:10192000AE98851882851983E02401F0A3E0340085
:10193000F02274F012243D74F3122AC7EAFEEBFF82
:101940007A02790112487DEA8E828F83F070030259
:1019500099FD75F00CA4FAABF0123F778A088B0959
:10196000EA45097003029A03AE08AF09750A0080C0
:101970001C9080BE122851EEFAEFFB123F35740422
:10198000122A2E8A0C8B0DAE0CAF0D050A904EF963
:10199000E493F8E50AC398506AE50A128D98600549
:1019A000E0640270E6128C90122D0712C1281248D2
:1019B000B9E960187403122D07AC82AD83EEFAEF1B
:1019C000FB12408B8A0C8B0DAE0CAF0DE50A75F047
:1019D0001CA4F8A9F0741128F582740C12D1C86403
:1019E00001708E128E4EEA2413129A0D122C7A1266
:1019F0009A0A122AAF780C122A49029977750800C0
:101A0000750900AA08AB090290DFEA2417F582E401
:101A10003BF583780C22C082C0839004DC7491F083
:101A2000A37431F09004DE748BF0A37431F0900451
:101A3000E2742FF0A3742DF0029E29C082C083901F
:101A400004E07485F0A37431F0029E2974F7122427
:101A50003DEAFEEBFF90054DE06408601FE0640482
:101A6000601A8E828F83E054036401704412ACF6D6
:101A7000F8A3E0F5838882E0640670358E828F8358
:101A8000A3A3E064FE7003A3E0F460258E828F833D
:101A9000A3A312C8417003A3E0697008EE241512D5
:101AA000C8286005123257800312325DE9F50880BC
:101AB000037508C2EEFAEFFB123F7D02833C74F41B
:101AC00012243D8A088B098A828B83E0FAA3E0F80E
:101AD000EA28FAE43400FB123F778A0A8B0BAE0A3D
:101AE000AF0BEE4F605A850882850983E0FC7D00CC
:101AF0007900123EBD8E828F831284B71232938E8C
:101B0000828F83A3A3A3A3EAF0A3EB129B46F8EE74
:101B100028F8E43F12862F850882850983A3E0C058
:101B2000E012C32BD0E0F01232A5EE240EF582E4D1
:101B30003FF583E912A49CE0C0E012A1F4D0E0F0EC
:101B4000EEFAEFFB800A12A494E022740D122A2E02
:101B50007F040226CD74F412243D74E8122AC78A49
:101B6000088B098C0A8D0BE9FE90054DE06404603A
:101B700005E06408700479C2804BA37808122C98A1
:101B8000EE900554129CAD123EBD851882851983D6
:101B90007808122C987405122D07EEF07404122D9B
:101BA000077401F07407122D07E4F090054D7402DC
:101BB000F0901D2FE064027005901D1DE4F0AA183E
:101BC000AB1912469D7418808474F412243D74E895
:101BD000122AC7EAFEEBFF9004D512ADCB600302D8
:101BE0009CA37A077B00123F779004D512AFB69082
:101BF00004D512ADCB7003029C9F8E828F83122C72
:101C0000B49004D5E0FCA3E0F5838C82122CF0EEB6
:101C10002404F50AE43FF50B850A82F583E0C0E071
:101C20009004D512B940A3A3A3D0E0F0EE2405F5AB
:101C300008E43FF509850882F583E0C0E09004D50B
:101C400012B951D0E0129CA8E0C0E09004D512C0B7
:101C50005AC82406F582E438F583D0E0129CAD1210
:101C60003EBD8E828F83122CB48518828519831213
:101C70002CF0850A82850B83E0C0E07405122D07E5
:101C8000D0E0129B46C0E07404122D07D0E0F0743F
:101C900007122D07E412C12C12469DE9F98006793E
:101CA0001080027901029BC512CE0BA322F07C1892
:101CB0007D007900AA18AB1922C082C0839004D598
:101CC00012ADCB60109004D512C06C123F7D900411
:101CD000D5E4F0A3F01231BB1233CB029E2974F489
:101CE00012243D74E8122AC78A0A8B0BECFEEDFF22
:101CF00089087428122D07E0FD7429122D07E0FCD5
:101D0000740F6D7005740F6C6012901ECBE064024E
:101D10006005EDC39C500579C1029DF37424122D1A
:101D200007122CB490054E122CF0E508900554F0E3
:101D3000ED900552F0ECA3F0742A122D07E0900507
:101D400055F074FF650A700474FF650B7024901ED3
:101D5000E1E0F47003A3E0F4700C123ECF90054B69
:101D6000EAF0A3EB8015901EE112D1DEE8F0A3E9C2
:101D7000800990054BE50AF0A3E50BF0EE4F6017E4
:101D8000EEFAEFFB12347FE96401700BEEFCEFFD1D
:101D90007A5F7B0512408B90053EE4F0A3F090053E
:101DA00041F0A3F090055EF0901ECBE06402700855
:101DB000900552740FF0A3F090054D7405129CAD80
:101DC000123EBD7404122D07E4F090054E122CB49F
:101DD000851882851983122CF0900554E0C0E074B8
:101DE00005122D07D0E0F07407122D07E412C12C64
:101DF00012469D029BC574F712243DE99004DBF066
:101E00007A807B00900598E0F91240491248657984
:101E10000002AC38C082C0839004DBE07003124340
:101E2000EB1248658003124817D083D0820229FB49
:101E300074F012243D9004DBE0901E45700FE060CA
:101E4000057900124223901E45E4F0804AE06401C7
:101E500060089004DBE0F9124223901E457401F003
:101E60009004DBE0F46030E0F50CE4F50DF50EF5E0
:101E70000FF09080CE7808122C7A780C7908122313
:101E80004E780C122A497A807B00900598E0F9126E
:101E9000403D7404122A2E7A457B1E7941124685F4
:101EA0000290E474F712243D7CFE7DFF124841024B
:101EB000AC3874F212243DEAFEEBFF8C088D0989E0
:101EC0000A90054DE06408706C12484D8B0DEA4590
:101ED0000D600479C5806074FE6508700474FF6548
:101EE00009701C7402550AF9122E078A088B0974AE
:101EF000FE6508700474FF6509700479C78038E5D1
:101F00000AA2E1500CA2E350047904800E79038008
:101F10000AA2E35004790280027901EEFCEFFDAAE7
:101F200008AB091248778B09EA45096004790080FB
:101F3000067910800279C202AE9B74EC12243D74C3
:101F4000E7122AC78A0C8B0D8C0E8D0FE9FF7E00DD
:101F50007508018E098E0A8E0B90054D7401F07C78
:101F6000187D007900122A9F123EBD7401122D07C0
:101F7000780C122C987406122D07EFF07405122DB0
:101F8000077403F07408122D07E4F0850C10850D1A
:101F900011850E12850F1378107908122BBAE510EF
:101FA00045114512451360010E74017808122998F5
:101FB000E5084509450A450B70D1AA18AB19795AAD
:101FC00012467F851882851983E0F508E4F509F546
:101FD0000AF50B8E0CF50DF50EF50F7808790C123D
:101FE000234E9080DE780C122C7A7808790C12231C
:101FF0004E9080CE780C122C7A7808790C1223CE71
:1020000012A2157A007B04900598E0F912404978F5
:1020100008122A497A007B04900598E0F912403DA5
:102020007404122A2E7401122A9F12469D741912EA
:102030002A2E7F0C0226CD74F712243D7C01124813
:102040002902AC3874F712243D7C0080F174F01240
:10205000243D74FD122AC7EAFEEBFF890A8C0B129D
:10206000C8311231AF8A088B09EA4509700579CA6F
:1020700002A1EF8A828B83A3A3A3A3A3A3A3E064FB
:10208000FE7003A3E0F4700579C302A1EF1232934E
:102090008A0C8B0DA80CA90D850882850983A3A342
:1020A000A3A3A3A3A3E0687003A3E069700579C2AA
:1020B00002A1EF90054B12A521850882850983E0D6
:1020C000687003A3E069600985088285098312A30B
:1020D0005490054B12C06C12342B850882850983FD
:1020E000A3A3A3A3A3A3A3A3A3A3E00490055E12A9
:1020F000A34012408B7401122D07740212C12C12DE
:1021000033118A0C8B0DAE0CAF0DEE4F700302A194
:10211000E612B3227406F0A3A882A98390053812B0
:10212000C46112C335F012328D12AFADEE2413121A
:10213000C33812AC047440F0A3E412A1FE12A22230
:1021400012A1F4E50BF0EEFAEFFB12479FE9FE60F7
:102150000302A1E890054D740912A1FE12A34A9052
:102160000540E0650A6003E50AF07A417B05794B9A
:102170001246857A4B7B0579501246857A407B055D
:1021800079E11246857A3E7B05795312468512A283
:1021900015901EB112C06C1232BD12A207E4F50EEA
:1021A000F50F780C122A497A017B00900598E0F926
:1021B0001240437404122A2E7A007B04900598E0A2
:1021C000F912404912A2077402780C122998780C6F
:1021D000122A497A007B04900598E0F912403D7478
:1021E00004122A2E80027E10901B9FE4F0EEF974F8
:1021F000030290E1EE2411F582E43FF5832212A45C
:10220000A0A3A3A3A3A322901EB1E0F508A3E08599
:10221000080CF50D22901EAF12AC249004D712A228
:10222000292212C36012A22922E8F0A3E9F0227445
:10223000F612243D74E5122AC7851882851983ECAD
:10224000F0A3EDF0EAFEEBFF890990054DE0640490
:102250006005E06408700579C202A33B7426122D64
:1022600007E064FE7003A3E0F4700579C302A33BAA
:102270007C197D0079007402122A9F123EBD9005E0
:102280004D740312C12C79501246857426122A9F70
:10229000794B12468585188285198312A354E50966
:1022A000900540F07426122D0712A34A7425122DB2
:1022B00007E0F50890053812A34012408B74CE5504
:1022C000084480C0E0741A122D07D0E0F0901D2F52
:1022D000E060046401700B7428122D07E00490057F
:1022E0005EF07417122D077402F07426122D071277
:1022F000A521740F122D07E8F0A3E912A51A74188E
:10230000122D0712AF72740D122D07E509F0740A31
:10231000122D07E4F0900553740FF07A537B057982
:1023200054124685900552740FF07A527B05794716
:102330001246857402122A9F12468B741B028BBEB2
:10234000F0EEFCEFFD7A5F7B052212AC2490054194
:1023500012A2292212D1E212A2292274F712243DDC
:10236000EB900555F012319D02AC3874F612243D05
:1023700074E9122AC78A088B097E008A828B83A39C
:10238000A3A3E0C0E07406122D07D0E0F08A828B90
:1023900083A3A3E0C0E07408122D07D0E0F0740915
:1023A000122D077401F08A828B8312ADCB600D8AE7
:1023B000828B8312C06C1248E3E970357407122DCA
:1023C00007E4F012328D7404122D0712AFB6900597
:1023D0004DE06404700E1232997402122D07EAF077
:1023E000A3EB805B7402122D0774FDF0A374FF80D1
:1023F0004E901D2FE060076401600302A48DAC18AD
:10240000AD1985088285098312C06C1248D78508EA
:1024100082850983A3A3A3A3E070317407122D075B
:10242000740112A51A7402122D0712AF7285088268
:1024300085098312A5217404122D07E8F0A3E9F0A1
:102440007402122A9F1232F9E9FE804112A51B7410
:102450000A122D0712AF727414122D07740112A400
:102460009CA3E0C0E07415122D07D0E0F0741612A2
:102470002D07E412A49412C834740C122D07AA82FA
:10248000AB8312408B740A122A9F12423BEEF974FE
:1024900017028BBEF08508828509832212A4A02230
:1024A00012A494A3A32274F712243D74F8122AC72D
:1024B000EAFEEBFF790090054DE064086005E064FA
:1024C00004704785188285198374FDF0A374FFF0AA
:1024D00012328D7402122D0712AFB67405122D0739
:1024E00012A50FA3E0C0E07404122D07D0E012A5DE
:1024F00010E0C0E07406122D07D0E0F07407122D32
:1025000007E412C12C1232F9E9F9740802AC35E47F
:1025100012A51422F08E828F8322F08518828519ED
:102520008312AC242274F112243DE98C088D097CBD
:10253000007E002479603124FC700302A5C824F3D6
:10254000601324FC601514603D14600302A62A90F9
:10255000054D02A64890053B02A648123413EA85B1
:10256000088285098302A64E7EC112341F8A0C8B15
:102570000DEA450D700302A64F750E00780C122A65
:102580004D7C1702A6187EC9901D2FE060076401DC
:10259000600302A64F78B2790F7A0080178882898B
:1025A00083E064FE7003A3E0F460010CE82407F804
:1025B0005001090A904EF1E493FBEAC39B40DEEC24
:1025C0008508828D83F0805E7EC9901D2FE06004B7
:1025D0006401707B7EC1750CB2750D0F7D00800C9F
:1025E0000CE50C2407F50C5002050D0D904EF1E49E
:1025F00093F8EDC3985058850C82850D83E064FEF6
:102600007003A3E0F460DAECF8EA684B70D2750E60
:1026100000780C122A4D7C077D00AA08AB09123EF7
:10262000B17403122A2E7E008025747F29C3941E64
:1026300040047EC98019742A29F8E43405F9E82495
:102640007FF582E934FFF583E08508828D83F0EE23
:10265000F97F070226CD74F412243D74F9122AC7BB
:102660008A088B098C0A8D0B851882851983780856
:10267000122C987404122D07E9F07405122D07E44A
:10268000F07406122D07E412C12C12478D74070254
:102690009B4D74F512243D8A088B098A828B831224
:1026A000C99EEE4F700302A8439004FC12ADCB60AC
:1026B000178A828B83A3A3E0F9EEFAEFFB9004FD67
:1026C000E0F583888212262E8E828F83A3A3A3A394
:1026D000A3A3A3A3A3E06402600302A7AD8E828F2D
:1026E00083A3A3A3A3A3A3E05402700302A7D185ED
:1026F0000882850983A3A3E064E9700302A7D1855A
:102700000882850983A3A3E064CD700302A7D18565
:102710000882850983A3A3E064F0700302A7D1EEC9
:10272000240D12ABD96028EE241312C82860208E25
:10273000828F83A3A3A3A3A3A3A3A3A3A312A8628B
:1027400012332FE9701D7A307B0112430D801490F3
:102750001ED1E0048E828F83A3A3A3A3A3A3A3A36C
:10276000A3A3F0850882850983A3A3E0701F750ADF
:102770000080097A367B0112430D050A850882859F
:102780000983A3A3A3E0F8E50AC39840E6EE240A70
:1027900012BFB8C0E012A846D0E012ABF47404F047
:1027A000901ED212C35AE812A854123F178E828F7D
:1027B00083A3A3A3A3A3A3A3A3A3E0640260128E95
:1027C000828F83A3A3A3A3A3A3A3A3A3E064067000
:1027D000728E828F83A3A3A3A3A3A3E0A2E050637E
:1027E000850882850983A3A3E0F9EEFAEFFB123096
:1027F000BF8E828F83A3A3A3A3A3A3E054FE12A83A
:102800006212332FE9850882850983A3A3702AE029
:1028100070237A2F7B0112430D7E00850882850983
:1028200083A3A3A3E0F8EEC39850187A367B011275
:10283000430D0E80E67A318005E070077A2D7B012A
:1028400012430D028CAB12A84A22EE2413F582E447
